{
  "address": "0x58CDCE12Ba7aaa58b25702aaee961C3746E349c2",
  "abi": [
    {
      "inputs": [],
      "name": "BuyNowStaleTwap",
      "type": "error"
    },
    {
      "inputs": [],
      "name": "ExceedsFloorPrice",
      "type": "error"
    },
    {
      "inputs": [],
      "name": "InsufficientCash",
      "type": "error"
    },
    {
      "inputs": [],
      "name": "InsufficientCreditLimit",
      "type": "error"
    },
    {
      "inputs": [],
      "name": "InsufficientJuniorLiquidity",
      "type": "error"
    },
    {
      "inputs": [],
      "name": "InsufficientLiquidity",
      "type": "error"
    },
    {
      "inputs": [],
      "name": "InsufficientMaxCreditLimit",
      "type": "error"
    },
    {
      "inputs": [],
      "name": "InsufficientVaultETHBalance",
      "type": "error"
    },
    {
      "inputs": [],
      "name": "InsufficientVaultWETHBalance",
      "type": "error"
    },
    {
      "inputs": [],
      "name": "InvalidCollection",
      "type": "error"
    },
    {
      "inputs": [],
      "name": "InvalidCurrencyType",
      "type": "error"
    },
    {
      "inputs": [],
      "name": "InvalidDebt",
      "type": "error"
    },
    {
      "inputs": [],
      "name": "InvalidFloorPrice",
      "type": "error"
    },
    {
      "inputs": [],
      "name": "InvalidJuniorTrancheBalance",
      "type": "error"
    },
    {
      "inputs": [],
      "name": "InvalidLiquidate",
      "type": "error"
    },
    {
      "inputs": [],
      "name": "InvalidTokenid",
      "type": "error"
    },
    {
      "inputs": [],
      "name": "LiquidateStaleTwap",
      "type": "error"
    },
    {
      "inputs": [
        {
          "internalType": "uint256",
          "name": "",
          "type": "uint256"
        }
      ],
      "name": "PRBMathUD60x18__LogInputTooSmall",
      "type": "error"
    },
    {
      "inputs": [],
      "name": "Unauthorised",
      "type": "error"
    },
    {
      "anonymous": false,
      "inputs": [
        {
          "indexed": true,
          "internalType": "address",
          "name": "_vault",
          "type": "address"
        },
        {
          "indexed": true,
          "internalType": "address",
          "name": "_collection",
          "type": "address"
        },
        {
          "indexed": true,
          "internalType": "address",
          "name": "_currency",
          "type": "address"
        },
        {
          "indexed": false,
          "internalType": "uint256",
          "name": "_tokenId",
          "type": "uint256"
        },
        {
          "indexed": false,
          "internalType": "uint256",
          "name": "_loanId",
          "type": "uint256"
        },
        {
          "indexed": false,
          "internalType": "uint256",
          "name": "_principal",
          "type": "uint256"
        },
        {
          "indexed": false,
          "internalType": "uint256",
          "name": "_interest",
          "type": "uint256"
        },
        {
          "indexed": false,
          "internalType": "uint256",
          "name": "_apr",
          "type": "uint256"
        },
        {
          "indexed": false,
          "internalType": "uint256",
          "name": "_protocolFee",
          "type": "uint256"
        },
        {
          "indexed": false,
          "internalType": "address",
          "name": "_marketplace",
          "type": "address"
        }
      ],
      "name": "Borrow",
      "type": "event"
    },
    {
      "anonymous": false,
      "inputs": [
        {
          "indexed": true,
          "internalType": "address",
          "name": "_liquidator",
          "type": "address"
        },
        {
          "indexed": true,
          "internalType": "address",
          "name": "_vault",
          "type": "address"
        },
        {
          "indexed": true,
          "internalType": "address",
          "name": "_collection",
          "type": "address"
        },
        {
          "indexed": false,
          "internalType": "uint256",
          "name": "_drowDownId",
          "type": "uint256"
        },
        {
          "indexed": false,
          "internalType": "uint256",
          "name": "_repaymentId",
          "type": "uint256"
        },
        {
          "indexed": false,
          "internalType": "uint256",
          "name": "_debt",
          "type": "uint256"
        },
        {
          "indexed": false,
          "internalType": "uint256",
          "name": "_fromJuniorTranche",
          "type": "uint256"
        },
        {
          "indexed": false,
          "internalType": "uint256",
          "name": "_amountToWriteDown",
          "type": "uint256"
        }
      ],
      "name": "Liquidate",
      "type": "event"
    },
    {
      "anonymous": false,
      "inputs": [
        {
          "indexed": true,
          "internalType": "address",
          "name": "_user",
          "type": "address"
        },
        {
          "indexed": true,
          "internalType": "address",
          "name": "_vault",
          "type": "address"
        },
        {
          "indexed": true,
          "internalType": "address",
          "name": "_collection",
          "type": "address"
        },
        {
          "indexed": false,
          "internalType": "address",
          "name": "_currency",
          "type": "address"
        },
        {
          "indexed": false,
          "internalType": "uint256",
          "name": "_loanId",
          "type": "uint256"
        },
        {
          "indexed": false,
          "internalType": "uint256",
          "name": "_repaymentId",
          "type": "uint256"
        },
        {
          "indexed": false,
          "internalType": "uint256",
          "name": "_amount",
          "type": "uint256"
        },
        {
          "indexed": false,
          "internalType": "bool",
          "name": "isFinal",
          "type": "bool"
        }
      ],
      "name": "Repayment",
      "type": "event"
    },
    {
      "inputs": [],
      "name": "TEN_THOUSANDS",
      "outputs": [
        {
          "internalType": "uint256",
          "name": "",
          "type": "uint256"
        }
      ],
      "stateMutability": "view",
      "type": "function"
    },
    {
      "inputs": [
        {
          "internalType": "address",
          "name": "_collection",
          "type": "address"
        },
        {
          "internalType": "uint256",
          "name": "_tokenId",
          "type": "uint256"
        },
        {
          "internalType": "address payable",
          "name": "_vault",
          "type": "address"
        },
        {
          "internalType": "address",
          "name": "_marketplace",
          "type": "address"
        },
        {
          "internalType": "bytes",
          "name": "_data",
          "type": "bytes"
        }
      ],
      "name": "buyNow",
      "outputs": [],
      "stateMutability": "nonpayable",
      "type": "function"
    },
    {
      "inputs": [
        {
          "internalType": "address",
          "name": "_collection",
          "type": "address"
        },
        {
          "internalType": "address",
          "name": "_vault",
          "type": "address"
        }
      ],
      "name": "getVaultDebt",
      "outputs": [
        {
          "internalType": "uint256",
          "name": "",
          "type": "uint256"
        },
        {
          "internalType": "uint256",
          "name": "",
          "type": "uint256"
        }
      ],
      "stateMutability": "view",
      "type": "function"
    },
    {
      "inputs": [
        {
          "internalType": "address",
          "name": "_collection",
          "type": "address"
        }
      ],
      "name": "interestBalance",
      "outputs": [
        {
          "internalType": "uint256",
          "name": "",
          "type": "uint256"
        }
      ],
      "stateMutability": "view",
      "type": "function"
    },
    {
      "inputs": [
        {
          "internalType": "address",
          "name": "_collection",
          "type": "address"
        },
        {
          "internalType": "address",
          "name": "_asset",
          "type": "address"
        }
      ],
      "name": "juniorInterestBalance",
      "outputs": [
        {
          "internalType": "uint256",
          "name": "",
          "type": "uint256"
        }
      ],
      "stateMutability": "view",
      "type": "function"
    },
    {
      "inputs": [
        {
          "internalType": "address",
          "name": "_collection",
          "type": "address"
        },
        {
          "internalType": "address",
          "name": "_vault",
          "type": "address"
        },
        {
          "internalType": "uint256",
          "name": "_loanId",
          "type": "uint256"
        }
      ],
      "name": "liquidate",
      "outputs": [],
      "stateMutability": "nonpayable",
      "type": "function"
    },
    {
      "inputs": [
        {
          "internalType": "address",
          "name": "_collection",
          "type": "address"
        },
        {
          "internalType": "address",
          "name": "_vault",
          "type": "address"
        },
        {
          "internalType": "uint256",
          "name": "_principal",
          "type": "uint256"
        }
      ],
      "name": "previewBuyNowParams",
      "outputs": [
        {
          "components": [
            {
              "internalType": "uint256",
              "name": "epoch",
              "type": "uint256"
            },
            {
              "internalType": "uint256",
              "name": "term",
              "type": "uint256"
            },
            {
              "internalType": "uint256",
              "name": "nper",
              "type": "uint256"
            },
            {
              "internalType": "uint256",
              "name": "totalPrincipal",
              "type": "uint256"
            },
            {
              "internalType": "uint256",
              "name": "totalInterest",
              "type": "uint256"
            },
            {
              "internalType": "uint256",
              "name": "borrowRate",
              "type": "uint256"
            },
            {
              "internalType": "uint256",
              "name": "takeRate",
              "type": "uint256"
            },
            {
              "internalType": "uint256",
              "name": "protocolFee",
              "type": "uint256"
            },
            {
              "internalType": "uint256",
              "name": "loanId",
              "type": "uint256"
            },
            {
              "components": [
                {
                  "internalType": "uint256",
                  "name": "principal",
                  "type": "uint256"
                },
                {
                  "internalType": "uint256",
                  "name": "interest",
                  "type": "uint256"
                },
                {
                  "internalType": "uint256",
                  "name": "fee",
                  "type": "uint256"
                },
                {
                  "internalType": "uint256",
                  "name": "pmt",
                  "type": "uint256"
                }
              ],
              "internalType": "struct PMT",
              "name": "pmt",
              "type": "tuple"
            }
          ],
          "internalType": "struct LoanFacet.PreviewBuyNowParams",
          "name": "",
          "type": "tuple"
        }
      ],
      "stateMutability": "view",
      "type": "function"
    },
    {
      "inputs": [
        {
          "internalType": "address",
          "name": "_collection",
          "type": "address"
        }
      ],
      "name": "principalBalance",
      "outputs": [
        {
          "internalType": "uint256",
          "name": "",
          "type": "uint256"
        }
      ],
      "stateMutability": "view",
      "type": "function"
    },
    {
      "inputs": [
        {
          "internalType": "address",
          "name": "_collection",
          "type": "address"
        },
        {
          "internalType": "uint256",
          "name": "_loan",
          "type": "uint256"
        },
        {
          "internalType": "address payable",
          "name": "_vault",
          "type": "address"
        }
      ],
      "name": "repay",
      "outputs": [],
      "stateMutability": "nonpayable",
      "type": "function"
    },
    {
      "inputs": [
        {
          "internalType": "address",
          "name": "_collection",
          "type": "address"
        },
        {
          "internalType": "address",
          "name": "_asset",
          "type": "address"
        }
      ],
      "name": "seniorInterestBalance",
      "outputs": [
        {
          "internalType": "uint256",
          "name": "",
          "type": "uint256"
        }
      ],
      "stateMutability": "view",
      "type": "function"
    }
  ],
  "transactionHash": "0xb16ef5bbf79d17aff114017ff0d12f873f38ed15bbd0d41fb5899e0a7b164909",
  "args": [],
  "numDeployments": 3,
  "solcInputHash": "fc3ca80dbe49ab4caff71f3ced5b0e49",
  "bytecode": "0x60a060405261271060805234801561001657600080fd5b5060016000556080516157d462000038600039600061025901526157d46000f3fe608060405234801561001057600080fd5b50600436106100be5760003560e01c80637a935d6e11610076578063cc8400481161005b578063cc840048146102a3578063e68fc0ee146103c0578063f5fe1bb4146104e057600080fd5b80637a935d6e146102545780638a0695fd1461027b57600080fd5b8063530fa62e116100a7578063530fa62e146101465780635ceae9c4146101e65780636ac3ac24146101f957600080fd5b806326c01303146100c35780632aec04d4146100d8575b600080fd5b6100d66100d13660046151d5565b6104f3565b005b6101336100e6366004615216565b6001600160a01b0391821660009081527fcefae263aa054db53617928bc915f31f052caa2df6a635924d36f37f8c9c519a6020908152604080832093909416825291909152206002015490565b6040519081526020015b60405180910390f35b6101596101543660046151d5565b611193565b6040805182518152602080840151818301528383015182840152606080850151818401526080808601519084015260a0808601519084015260c0808601519084015260e0808601519084015261010080860151908401526101209485015180519584019590955290840151610140830152918301516101608201529101516101808201526101a00161013d565b6100d66101f436600461524f565b6114f8565b610133610207366004615216565b6001600160a01b0391821660009081527fcefae263aa054db53617928bc915f31f052caa2df6a635924d36f37f8c9c519a6020908152604080832093909416825291909152206003015490565b6101337f000000000000000000000000000000000000000000000000000000000000000081565b61028e610289366004615216565b611a27565b6040805192835260208301919091520161013d565b6101336102b1366004615291565b6001600160a01b0390811660008181527fcefae263aa054db53617928bc915f31f052caa2df6a635924d36f37f8c9c51966020908152604080832081516101808101835281546101608201908152815260018083015482860152600283015482850152600383015488166060830152600483015488166080830152600583015480891660a084015264ffffffffff600160a01b808304821660c0860152600160c81b9092041660e084015260068401548916610100840181905260079094015498891661012084015260ff9804979097161515610140909101529383527fcefae263aa054db53617928bc915f31f052caa2df6a635924d36f37f8c9c519a825280832093835292905220015490565b6101336103ce366004615291565b6001600160a01b0390811660008181527fcefae263aa054db53617928bc915f31f052caa2df6a635924d36f37f8c9c519660209081526040808320815161018081018352815461016082019081528152600182015481850152600282015481840152600382015487166060820152600482015487166080820152600582015480881660a083015264ffffffffff600160a01b808304821660c0850152600160c81b9092041660e083015260068301548816610100830181905260079093015497881661012083015260ff9704969096161515610140909601959095529282527fcefae263aa054db53617928bc915f31f052caa2df6a635924d36f37f8c9c519a81528282209382529290925290205490565b6100d66104ee3660046152ae565b611b6e565b7fcefae263aa054db53617928bc915f31f052caa2df6a635924d36f37f8c9c519b5460ff161561056a5760405162461bcd60e51b815260206004820152601060248201527f5061757361626c653a207061757365640000000000000000000000000000000060448201526064015b60405180910390fd5b600260005414156105bd5760405162461bcd60e51b815260206004820152601f60248201527f5265656e7472616e637947756172643a207265656e7472616e742063616c6c006044820152606401610561565b600260008190555061067060405180610220016040528060006001600160a01b0316815260200160006001600160a01b0316815260200160006001600160a01b03168152602001600081526020016000815260200160008152602001600081526020016000815260200160008152602001600081526020016000815260200160006001600160a01b0316815260200160008152602001600081526020016000815260200160008152602001600081525090565b6001600160a01b0384811680835260009081527fcefae263aa054db53617928bc915f31f052caa2df6a635924d36f37f8c9c51966020818152604080842081516101808101835281546101608201908152815260018201548185015260028201548184015260038201548716606080830191909152600483015488166080830152600583015480891660a084015264ffffffffff600160a01b808304821660c0860152600160c81b9092041660e0840152600684015489166101008401819052600790940154808a1661012085015260ff91900416151561014083015284890192909252875183518086018552879052871686529383529381902081519283018252548252938716938501939093529083018490529061078e612b98565b6001600160a01b0390811661016085015283516020808601805160408089015194861660009081527fcefae263aa054db53617928bc915f31f052caa2df6a635924d36f37f8c9c5199855281812092871681529184528082209490951681529290915291812091516060860151610806918491612c09565b835161ffff8116610180880152610120820151919250609c1c60ff16904211158061084c57506108396201518082615377565b6101208301516108499042615396565b11155b15610883576040517f4283aca500000000000000000000000000000000000000000000000000000000815260040160405180910390fd5b5060008461012001516001600160a01b0316635c60da1b6040518163ffffffff1660e01b815260040160206040518083038186803b1580156108c457600080fd5b505afa1580156108d8573d6000803e3d6000fd5b505050506040513d601f19601f820116820180604052508101906108fc91906153ad565b86516040517f3d47d2270000000000000000000000000000000000000000000000000000000081526001600160a01b0391821660048201529192506000918291841690633d47d22790602401604080518083038186803b15801561095f57600080fd5b505afa158015610973573d6000803e3d6000fd5b505050506040513d601f19601f8201168201806040525081019061099791906153ca565b8751919350915060b41c64ffffffffff166109b28242615396565b11156109ea576040517f33401a1200000000000000000000000000000000000000000000000000000000815260040160405180910390fd5b81610a21576040517fbd84c8ab00000000000000000000000000000000000000000000000000000000815260040160405180910390fd5b87516020808a01516040808c015160608d01516001600160a01b0395861660009081527fcefae263aa054db53617928bc915f31f052caa2df6a635924d36f37f8c9c5199865283812094871681529385528284209590911683529383528082206001810154600282015460038301549685526005909201909452912060040154919290916101c08c015260e08b015260c08a015260a089018190526101008901819052610afa576040517fd49e030600000000000000000000000000000000000000000000000000000000815260040160405180910390fd5b6000610b0b838a6101800151612d67565b90506000610b198285615396565b90506000610b398b600001518c602001518d604001518e60600151612d88565b9050805182610b489190615377565b6101208c018190526101608c015160208d0151610b73926001600160a01b0390911691903090612fe6565b610b8c818c600001518d61016001518e6040015161309d565b5050505050506000610beb86600001518661010001516001600160a01b0391821660009081527fcefae263aa054db53617928bc915f31f052caa2df6a635924d36f37f8c9c519a60209081526040808320939094168252919091522090565b90508561012001518661010001511115610e79576000866101200151876101000151610c179190615396565b602088015160808801516040516370a0823160e01b81526001600160a01b0391821660048201529293506000929116906370a082319060240160206040518083038186803b158015610c6857600080fd5b505afa158015610c7c573d6000803e3d6000fd5b505050506040513d601f19601f82011682018060405250810190610ca091906153ee565b9050818110610d5e576080870151604051634efecaa560e01b8152306004820152602481018490526001600160a01b0390911690634efecaa590604401600060405180830381600087803b158015610cf757600080fd5b505af1158015610d0b573d6000803e3d6000fd5b50505060a08801516101008a015160208b0151610d3393506001600160a01b03169190613208565b610140880182905261010088015183548490600090610d53908490615396565b90915550610e419050565b6080870151604051634efecaa560e01b8152306004820152602481018390526001600160a01b0390911690634efecaa590604401600060405180830381600087803b158015610dac57600080fd5b505af1158015610dc0573d6000803e3d6000fd5b50505050610df28760a00151828a6101200151610ddd9190615407565b60208b01516001600160a01b03169190613208565b6101408801819052610120880151610e0b908290615407565b836000016000828254610e1e9190615396565b90915550610e2e90508183615396565b6101a08901819052610e41908490613256565b600080610e58898b60c001518c6101c00151613269565b91509150610e668583613291565b610e7085826132c2565b505050506110b1565b610ea48560a0015187610100015188602001516001600160a01b03166132089092919063ffffffff16565b856101000151816000016000828254610ebd9190615396565b9091555050610100860151610120870151600091610eda91615396565b9050600080610ef3888a60c001518b6101c00151613269565b91509150610f0b83838b602001518b60a001516132e7565b6102008b01526101e08a01819052610f239084615396565b9250886101e00151846002016000828254610f3e9190615396565b90915550506101e0890151600185018054600090610f5d908490615396565b909155505061020089015115610f8557610f7c848a6102000151613291565b60006102008a01525b610f9983828b602001518b608001516132e7565b6102008b01526101e08a01819052610fb19084615396565b9250886101e00151846003016000828254610fcc9190615396565b90915550506101e0890151600185018054600090610feb908490615396565b9091555050610200890151156110135761100a848a61020001516132c2565b60006102008a01525b50507fcefae263aa054db53617928bc915f31f052caa2df6a635924d36f37f8c9c51a95460e08801516020890151600160a01b830464ffffffffff16926001600160a01b03169161106791859190846132e7565b6102008b01526101e08a0181905261107f9084615396565b925082156110ad576110ad8960400151848b602001516001600160a01b03166132089092919063ffffffff16565b5050505b6110cd866000015187602001518860400151896060015161334b565b6110e4866040015187600001518860200151613453565b85602001516001600160a01b031686604001516001600160a01b03168761016001516001600160a01b03167fb0dbe18c6ffdf0da655dd690e77211d379205c497be44c64447c3f5f021b516789606001518a608001518b61010001518c61014001518d6101a0015160405161117b959493929190948552602085019390935260408401919091526060830152608082015260a00190565b60405180910390a45050600160005550505050505050565b61119b614ea8565b6111a3614ea8565b60608181018490526001600160a01b0386811660008181527fcefae263aa054db53617928bc915f31f052caa2df6a635924d36f37f8c9c5196602081815260408084208151610180810183528154610160820181815282526001830154828601526002830154828501526003830154891699820199909952600482015488166080820152600582015480891660a083015264ffffffffff600160a01b808304821660c0850152600160c81b909204811660e084015260068401548a16610100808501829052600790950154808c1661012086015260ff939004831615156101408501528989527fcefae263aa054db53617928bc915f31f052caa2df6a635924d36f37f8c9c519987528589209089528652848820998f1688529885528387208054650100000000009004909916928b019290925282518085018452869052959094529181528151808201909252858252608c86901c61ffff1690870181905260849590951c9091168086529193909161131b91615435565b60408501819052606085015160009161133391615435565b85606001516113429190615396565b905060006113998a8661010001516001600160a01b0391821660009081527fcefae263aa054db53617928bc915f31f052caa2df6a635924d36f37f8c9c519a60209081526040808320939094168252919091522090565b606086015161010087015160a088015183546040517f5ccc6ab20000000000000000000000000000000000000000000000000000000081526001600160a01b0393841660048201529183166024830152600060448301526064820187905260848201529293501690635ccc6ab29060a40160206040518083038186803b15801561142257600080fd5b505afa158015611436573d6000803e3d6000fd5b505050506040513d601f19601f8201168201806040525081019061145a91906153ee565b60a087018190526060870151875160408901516114789391906134e7565b60808701527fcefae263aa054db53617928bc915f31f052caa2df6a635924d36f37f8c9c51a954600160a01b900464ffffffffff1660c0870181905260608701516114c291613535565b60e087018190526060870151608088015160408901516114e29390613578565b61012087015250939450505050505b9392505050565b7fcefae263aa054db53617928bc915f31f052caa2df6a635924d36f37f8c9c519b5460ff161561156a5760405162461bcd60e51b815260206004820152601060248201527f5061757361626c653a20706175736564000000000000000000000000000000006044820152606401610561565b600260005414156115bd5760405162461bcd60e51b815260206004820152601f60248201527f5265656e7472616e637947756172643a207265656e7472616e742063616c6c006044820152606401610561565b600260008190555061162660405180610120016040528060006001600160a01b031681526020016000815260200160008152602001600081526020016000815260200160008152602001600081526020016000815260200160006001600160a01b031681525090565b6001600160a01b03841660009081527fcefae263aa054db53617928bc915f31f052caa2df6a635924d36f37f8c9c51966020526040812060408051610180810182528254610160820190815281526001830154602082015260028301549181019190915260038201546001600160a01b039081166060830152600483015481166080830152600583015480821660a084015264ffffffffff600160a01b808304821660c0860152600160c81b9092041660e08401526006840154821661010084015260079093015480821661012084015260ff93900492909216151561014082015291508316611754611717612b98565b6001600160a01b0390811660009081527fcefae263aa054db53617928bc915f31f052caa2df6a635924d36f37f8c9c51a260205260409020541690565b6001600160a01b031614611794576040517fd7a2ae6a00000000000000000000000000000000000000000000000000000000815260040160405180910390fd5b6001600160a01b0383811680845261010083015187831660009081527fcefae263aa054db53617928bc915f31f052caa2df6a635924d36f37f8c9c519960209081526040808320939095168252918252838120928152918152828220878352600501905220600681015460078201546008909201549091906060850152604084018190526020840182905261182891615407565b61185e576040517fd49e030600000000000000000000000000000000000000000000000000000000815260040160405180910390fd5b816040015182602001516118729190615407565b608083015261010081810180516001600160a01b0388811660009081527fcefae263aa054db53617928bc915f31f052caa2df6a635924d36f37f8c9c5199602090815260408083209484168352938152838220898416835281528382208a835260050190529182206004015460c08701527fcefae263aa054db53617928bc915f31f052caa2df6a635924d36f37f8c9c51a95490811693860193909352600160a01b90920464ffffffffff1660e08501525181906119339088908789613617565b9150915061194f83856040015186600001518760c00151613804565b6119688385606001518660000151876101000151613867565b835160a08401516020860151610100860151611991936001600160a01b03909116929091612fe6565b866001600160a01b0316856001600160a01b03166119ad612b98565b610100860151608080890151604080516001600160a01b039485168152602081018e90529081018990526060810191909152861515918101919091529116907f55e5b05f9c04dc83acdd02d65dd9895ed44041625004ad61c4977959b40a4ed39060a00160405180910390a4505060016000555050505050565b6000806000611a69856001600160a01b031660009081527fcefae263aa054db53617928bc915f31f052caa2df6a635924d36f37f8c9c51966020526040902090565b60408051610180810182528254610160820190815281526001808401546020808401919091526002808601548486015260038601546001600160a01b039081166060860152600487015481166080860152600587015480821660a087015264ffffffffff600160a01b808304821660c0890152600160c81b9092041660e087015260068801548216610100870181905260079098015480831661012088015260ff9190041615156101409095019490945299831660009081527fcefae263aa054db53617928bc915f31f052caa2df6a635924d36f37f8c9c51998252848120958152948152838520989092168452969052902093840154939094015492949293505050565b7fcefae263aa054db53617928bc915f31f052caa2df6a635924d36f37f8c9c519b5460ff1615611be05760405162461bcd60e51b815260206004820152601060248201527f5061757361626c653a20706175736564000000000000000000000000000000006044820152606401610561565b60026000541415611c335760405162461bcd60e51b815260206004820152601f60248201527f5265656e7472616e637947756172643a207265656e7472616e742063616c6c006044820152606401610561565b6002600055611c40614f23565b6001600160a01b038781168083526060808401899052878316608080860191825288851660408088019190915260009485527fcefae263aa054db53617928bc915f31f052caa2df6a635924d36f37f8c9c51966020908152818620825161018080820185528254610160830190815282526001808401548386015260028401548387015260038401548b169883019890985260048301548a16958201959095526005820154808a1660a083015264ffffffffff600160a01b808304821660c0850152600160c81b9092041660e083015260068301548a166101008301818152600790940154808c1661012085015260ff929004919091161515610140830152838b019081528a519251928a1689527fcefae263aa054db53617928bc915f31f052caa2df6a635924d36f37f8c9c519a8452848920928a1689529183528388208a5192518751938b168a527fcefae263aa054db53617928bc915f31f052caa2df6a635924d36f37f8c9c51998552858a20908b168a528452848920928a1689529190925291909520938401549187019190915290519293909216611de4611717612b98565b6001600160a01b031614611e24576040517fd7a2ae6a00000000000000000000000000000000000000000000000000000000815260040160405180910390fd5b611e2f878787613882565b6103c08501819052604081015160a08601525184516001600160a01b03908116911614611e88576040517fa2e2e54200000000000000000000000000000000000000000000000000000000815260040160405180910390fd5b836103c0015160200151846060015114611ece576040517f45fc52e500000000000000000000000000000000000000000000000000000000815260040160405180910390fd5b8261012001516001600160a01b0316635c60da1b6040518163ffffffff1660e01b815260040160206040518083038186803b158015611f0c57600080fd5b505afa158015611f20573d6000803e3d6000fd5b505050506040513d601f19601f82011682018060405250810190611f4491906153ad565b84516040517f3d47d2270000000000000000000000000000000000000000000000000000000081526001600160a01b039182166004820152911690633d47d22790602401604080518083038186803b158015611f9f57600080fd5b505afa158015611fb3573d6000803e3d6000fd5b505050506040513d601f19601f82011682018060405250810190611fd791906153ca565b610240860152610220850152835160408051602081810183526000918290526001600160a01b0390931681527fcefae263aa054db53617928bc915f31f052caa2df6a635924d36f37f8c9c5196835281812082519384019092529054825290805190915060b41c64ffffffffff166102408601516120559042615396565b111561208d576040517f3a1aea3400000000000000000000000000000000000000000000000000000000815260040160405180910390fd5b6102208501516120c9576040517fbd84c8ab00000000000000000000000000000000000000000000000000000000815260040160405180910390fd5b8460a00151856102200151101561210c576040517f745a8a2500000000000000000000000000000000000000000000000000000000815260040160405180910390fd5b8051608c81901c61ffff16610260870181905260849190911c60ff16610280870181905261213991615449565b64ffffffffff166102a0860181905260a08601516121579190615435565b8560a001516121669190615396565b6101e086015261010084015160a08501516040516370a0823160e01b81526001600160a01b0391821660048201529116906370a082319060240160206040518083038186803b1580156121b857600080fd5b505afa1580156121cc573d6000803e3d6000fd5b505050506040513d601f19601f820116820180604052508101906121f091906153ee565b61032086015261010084015160808501516040516370a0823160e01b81526001600160a01b0391821660048201529116906370a082319060240160206040518083038186803b15801561224257600080fd5b505afa158015612256573d6000803e3d6000fd5b505050506040513d601f19601f8201168201806040525081019061227a91906153ee565b61034086018190526122b8576040517f5305a1e300000000000000000000000000000000000000000000000000000000815260040160405180910390fd5b61034085015181516122d79060a41c61ffff166101e088015190613976565b111561230f576040517fdc9711bd00000000000000000000000000000000000000000000000000000000815260040160405180910390fd5b8360a001516001600160a01b031663d55882b66040518163ffffffff1660e01b815260040160206040518083038186803b15801561234c57600080fd5b505afa158015612360573d6000803e3d6000fd5b505050506040513d601f19601f8201168201806040525081019061238491906153ee565b6103608601819052610320860151116123c9576040517ff630766b00000000000000000000000000000000000000000000000000000000815260040160405180910390fd5b8461036001518561032001516123df9190615396565b61030086018190526101e08601511115612425576040517fbb55fd2700000000000000000000000000000000000000000000000000000000815260040160405180910390fd5b606084015161010085015160a08601516101e088015186546040517f5ccc6ab20000000000000000000000000000000000000000000000000000000081526001600160a01b03948516600482015292841660248401526000604484015260648301919091526084820152911690635ccc6ab29060a40160206040518083038186803b1580156124b357600080fd5b505afa1580156124c7573d6000803e3d6000fd5b505050506040513d601f19601f820116820180604052508101906124eb91906153ee565b6102e0860152845160408051602080820183526000918290526001600160a01b0390931681527fcefae263aa054db53617928bc915f31f052caa2df6a635924d36f37f8c9c519683528190208151928301909152548152612551905160741c61ffff1690565b6101008601527fcefae263aa054db53617928bc915f31f052caa2df6a635924d36f37f8c9c51a9546001600160a01b038116610140870152600160a01b900464ffffffffff166101208601526125a88383876139a1565b60e089015260c088018190526103a0880182905261038088019290925280516102c0880152602001516125da91615396565b610200860152608085015185516101008601516102208801516125ff93929190613c73565b61016086018190526101808601511115612645576040517f33fa4d5000000000000000000000000000000000000000000000000000000000815260040160405180910390fd5b84610180015185610160015161265b9190615396565b6101a086018190526101e086015111156126a1576040517f7ecb632e00000000000000000000000000000000000000000000000000000000815260040160405180910390fd5b6103c0850151606001516001600160a01b0316158015906126ff57507fcefae263aa054db53617928bc915f31f052caa2df6a635924d36f37f8c9c5198546103c0860151606001516001600160a01b03908116620100009092041614155b15612736576040517fbd02b37900000000000000000000000000000000000000000000000000000000815260040160405180910390fd5b6103c0850151606001516001600160a01b031661279f57846102c0015185608001516001600160a01b031631101561279a576040517fff84642400000000000000000000000000000000000000000000000000000000815260040160405180910390fd5b612861565b6102c085015161010085015160808701516040516370a0823160e01b81526001600160a01b0391821660048201529116906370a082319060240160206040518083038186803b1580156127f157600080fd5b505afa158015612805573d6000803e3d6000fd5b505050506040513d601f19601f8201168201806040525081019061282991906153ee565b1015612861576040517fbe145d6800000000000000000000000000000000000000000000000000000000815260040160405180910390fd5b60a08401516101e0860151604051634efecaa560e01b815230600482015260248101919091526001600160a01b0390911690634efecaa590604401600060405180830381600087803b1580156128b657600080fd5b505af11580156128ca573d6000803e3d6000fd5b505050506128ec84866103a00151602001518760800151886101000151613804565b61290a84866103a00151604001518760800151886101400151613867565b845161010085015160808701516103808801516001600160a01b0393841660009081527fcefae263aa054db53617928bc915f31f052caa2df6a635924d36f37f8c9c5199602090815260408083209587168352948152848220938616825292835283812091815260059091018252829020600681015460078201546008909201546103a08b0151948501529183015290526103c086015160600151166129ea576129b9856101e0015130613d9b565b6129cc8560800151866101e00151613f3b565b6129e5856040015186608001518760a001518a8a613f96565b612a4f565b612a398560800151866101e00151612a1f7fcefae263aa054db53617928bc915f31f052caa2df6a635924d36f37f8c9c519390565b600501546201000090046001600160a01b03169190613208565b612a4f8560400151866080015160008a8a613f96565b845161010085015160808701516001600160a01b0392831660009081527fcefae263aa054db53617928bc915f31f052caa2df6a635924d36f37f8c9c519960209081526040808320948616835293815283822094909216815292905281209050612ac584828861038001518961010001516140e0565b8461010001516001600160a01b031686600001516001600160a01b031687608001516001600160a01b03167f1c01e7a1640e7607f4dbcdc9d412c56ddb772a2607ff08eefee38a906d2cbcac89606001518a61038001518b60a001518c60c001518d6102e001518e60e001518f60400151604051612b7d9796959493929190968752602087019590955260408601939093526060850191909152608084015260a08301526001600160a01b031660c082015260e00190565b60405180910390a45050600160005550505050505050505050565b600060143610801590612bd457507fcefae263aa054db53617928bc915f31f052caa2df6a635924d36f37f8c9c51a7546001600160a01b031633145b15612c0457507fffffffffffffffffffffffffffffffffffffffffffffffffffffffffffffffec36013560601c90565b503390565b612c11615091565b60008281526005850160205260409020612c29615091565b815481526001820154602080830191909152600383015464ffffffffff8082166040808601919091526501000000000080840483166060808801919091526a01000000000000000000009094048316608080880191909152825190810183526006880154815260078801548187015260088801548184015260098801549481019490945260c0860193909352600a86015460e0860152600b860154808316610100870152929092048116610120850152600d850154610160850152600c850154610140850152600f850154166101808401526001600160a01b03871660a08401526010840180548251818502810185019093528083529192909190830182828015612d5357602002820191906000526020600020905b815481526020019060010190808311612d3f575b50505050506101a082015295945050505050565b600080612d748484613535565b9050612d808482615396565b949350505050565b6001600160a01b0384811660009081527fcefae263aa054db53617928bc915f31f052caa2df6a635924d36f37f8c9c519960209081526040808320878516845282528083209386168352928152828220848352600581018252918390206010810180548551818502810185019096528086526060959293919291839190830182828015612e3457602002820191906000526020600020905b815481526020019060010190808311612e20575b5050505050935060005b8154811015612f1d576001600160a01b03891660009081527fcefae263aa054db53617928bc915f31f052caa2df6a635924d36f37f8c9c51a4602052604081208354909190849084908110612e9557612e9561546d565b60009182526020808320909101548352820192909252604001812080547fffffffffffffffffffffff000000000000000000000000000000000000000000168155600181018290556002810180547fffffffffffffffffffffffff00000000000000000000000000000000000000001690556003015580612f1581615483565b915050612e3e565b50600085815260058085016020526040822082815560018101839055600281018390556003810180546effffffffffffffffffffffffffffff191690556004810183905590810182905560068101829055600781018290556008810182905560098101829055600a8101829055600b8101805469ffffffffffffffffffff19169055600c8101829055600d810182905590612fbb600e830182615132565b600f8201805464ffffffffff19169055612fd9601083016000615156565b5050505050949350505050565b6040516001600160a01b03808516602483015283166044820152606481018290526130979085907f23b872dd00000000000000000000000000000000000000000000000000000000906084015b60408051601f198184030181529190526020810180517bffffffffffffffffffffffffffffffffffffffffffffffffffffffff167fffffffff0000000000000000000000000000000000000000000000000000000090931692909217909152614282565b50505050565b60005b84518110156131c45760006323b872dd60e01b905060008184868986815181106130cc576130cc61546d565b6020026020010151604051602001613105939291906001600160a01b039384168152919092166020820152604081019190915260600190565b60408051601f198184030181529082905261312392916020016154ca565b60408051601f19818403018152908290527fef17a55e00000000000000000000000000000000000000000000000000000000825291506001600160a01b0385169063ef17a55e9061317d9084908a9060009060040161553e565b600060405180830381600087803b15801561319757600080fd5b505af11580156131ab573d6000803e3d6000fd5b50505050505080806131bc90615483565b9150506130a0565b507fd962e6df5bdd4ce87790a1227be78c10db04edf19dbf9499f903ad20e6108962838284876040516131fa949392919061556c565b60405180910390a150505050565b6040516001600160a01b0383166024820152604481018290526132519084907fa9059cbb0000000000000000000000000000000000000000000000000000000090606401613033565b505050565b8154613263908290615396565b90915550565b600080806132778585613535565b9050806132848187615396565b9250925050935093915050565b8082600201546132a19190615396565b600283015560018201546132b6908290615396565b82600101819055505050565b8082600301546132d29190615396565b600383015560018201546132b6908290615396565b600080856132fa57506000905083613342565b8486111561331e576133166001600160a01b0385168487613208565b849150613342565b6133326001600160a01b0385168488613208565b85915061333f8286615396565b90505b94509492505050565b604080516101408101825260008183018190526080820181905260a0820181905260c0820181905260e0820181905261010082018190526001600160a01b0387811680845287821660208086018290529288166060860181905261012086018890528285527fcefae263aa054db53617928bc915f31f052caa2df6a635924d36f37f8c9c519a845286852082865284528685209285527fcefae263aa054db53617928bc915f31f052caa2df6a635924d36f37f8c9c51998452868520918552908352858420908452825284832086845260058101909252939091209192916134338282614367565b61343d83826143c5565b61344982848387614511565b5050505050505050565b6001600160a01b0382811660009081527fcefae263aa054db53617928bc915f31f052caa2df6a635924d36f37f8c9c519a6020908152604080832085851684528252808320938716835260059093019052908120600190810180547fcefae263aa054db53617928bc915f31f052caa2df6a635924d36f37f8c9c519393906134dc908490615407565b909155505050505050565b6000806134f76201518085615377565b613505906301e13380615435565b90506000816135148588615377565b61351e9190615435565b905061352a87826146e2565b979650505050505050565b600081157fffffffffffffffffffffffffffffffffffffffffffffffffffffffffffffec778390048411151761356a57600080fd5b506127109102611388010490565b6135a36040518060800160405280600081526020016000815260200160008152602001600081525090565b6135ce6040518060800160405280600081526020016000815260200160008152602001600081525090565b6135d88387615435565b81526135e48386615435565b60208201526135f38385615435565b6040820152602081015181516136099190615407565b606082015295945050505050565b604080516101408101825260008183018190526080820181905260a0820181905260c0820181905260e0820181905261010082018190526001600160a01b0387811680845287821660208086018290529288166060860181905261012086018890528285527fcefae263aa054db53617928bc915f31f052caa2df6a635924d36f37f8c9c519a845286852082865284528685209285527fcefae263aa054db53617928bc915f31f052caa2df6a635924d36f37f8c9c519984528685209185529083528584209084528252848320868452600581019092529382208154929485949385939192906001908390869061371690849064ffffffffff166155d8565b92506101000a81548164ffffffffff021916908364ffffffffff160217905550600181600f0160008282829054906101000a900464ffffffffff1661375b91906155d8565b92506101000a81548164ffffffffff021916908364ffffffffff1602179055506137858282614367565b61378f83826143c5565b6003810154600f82015464ffffffffff9081166a01000000000000000000009092041614935083156137cc576137c782848388614511565b6137d5565b6137d581614726565b836137f057600e8101546137eb90600190615396565b6137f3565b60005b9b939a509298505050505050505050565b60006138108483613535565b60a0860151610100870151919250613834916001600160a01b031690859084612fe6565b61386083866080015183876138499190615396565b6101008901516001600160a01b0316929190612fe6565b5050505050565b610100840151613097906001600160a01b0316838386612fe6565b6040805160808101825260008082526020808301829052828401829052606083018290526001600160a01b0387811683527fcefae263aa054db53617928bc915f31f052caa2df6a635924d36f37f8c9c51a3909152908390205492517f0cfe386f000000000000000000000000000000000000000000000000000000008152919216908190630cfe386f9061391d908790879060040161562c565b60806040518083038186803b15801561393557600080fd5b505afa158015613949573d6000803e3d6000fd5b505050506040513d601f19601f8201168201806040525081019061396d9190615640565b95945050505050565b600081156127106002840419048411171561399057600080fd5b506127109190910260028204010490565b60006139ce6040518060800160405280600081526020016000815260200160008152602001600081525090565b835465010000000000900464ffffffffff1660008181526005860160205260408120909182916139fe8188614874565b8154600183015460028401546003850154939650613a30936a0100000000000000000000900464ffffffffff16613578565b8051600683015560208082015160078401556040820151600884015560608083015160098501558901516010840180546001810182556000918252929020909101559450613ad4876040805160a080820183526000808352602080840182815294840182815260608086018481526080870194855288516001600160a01b039081169098529088015190915290860151909416909352929092015190526001815290565b87516001600160a01b0390811660009081527fcefae263aa054db53617928bc915f31f052caa2df6a635924d36f37f8c9c51a4602090815260408083206060808e015185529083529281902085518154938701517fffffffffffffffffffffff0000000000000000000000000000000000000000009094169015157fffffffffffffffffffffff0000000000000000000000000000000000000000ff161761010093861693909302929092178255840151600180830191909155918401516002820180547fffffffffffffffffffffffff0000000000000000000000000000000000000000169190941617909255608090920151600391820155820154600f83015462015180926501000000000090920464ffffffffff90811692613bfd9291909116906155d8565b613c0791906156c3565b613c1191906156c3565b600b820154613c27919064ffffffffff166155d8565b81600b0160056101000a81548164ffffffffff021916908364ffffffffff160217905550613c6189828a8a60a001518b61010001516149a5565b60010154909450915093509350935093565b6001600160a01b0383811660009081527fcefae263aa054db53617928bc915f31f052caa2df6a635924d36f37f8c9c519a60209081526040808320868516845282528083209388168352600590930181528282208351808501909452805480855260019091015491840182905291927fcefae263aa054db53617928bc915f31f052caa2df6a635924d36f37f8c9c519392909184911115613d225760208201518251613d1f9190615396565b90505b6000613d2f826001615407565b613d4190670de0b6b3a7640000615377565b905060008215613d6457613d5482614b2b565b613d5f906001615407565b613d6e565b670de0b6b3a76400015b9050670de0b6b3a7640000613d838289615377565b613d8d9190615435565b9a9950505050505050505050565b60007fcefae263aa054db53617928bc915f31f052caa2df6a635924d36f37f8c9c5193600501546040516370a0823160e01b8152306004820152620100009091046001600160a01b0316906370a082319060240160206040518083038186803b158015613e0757600080fd5b505afa158015613e1b573d6000803e3d6000fd5b505050506040513d601f19601f82011682018060405250810190613e3f91906153ee565b905082811015613e915760405162461bcd60e51b815260206004820152601260248201527f496e73756666696369656e7420574554483900000000000000000000000000006044820152606401610561565b8015613251577fcefae263aa054db53617928bc915f31f052caa2df6a635924d36f37f8c9c5193600501546040517f2e1a7d4d00000000000000000000000000000000000000000000000000000000815260048101839052620100009091046001600160a01b031690632e1a7d4d90602401600060405180830381600087803b158015613f1d57600080fd5b505af1158015613f31573d6000803e3d6000fd5b5050505061325182825b600080600080600085875af19050806132515760405162461bcd60e51b815260206004820152601360248201527f4554485f5452414e534645525f4641494c4544000000000000000000000000006044820152606401610561565b6001600160a01b0385811660009081527fcefae263aa054db53617928bc915f31f052caa2df6a635924d36f37f8c9c51a36020526040808220549051921691819083907f7f8ddf59000000000000000000000000000000000000000000000000000000009061401190889088908c908e908d906024016156f0565b60408051601f198184030181529181526020820180517bffffffffffffffffffffffffffffffffffffffffffffffffffffffff167fffffffff0000000000000000000000000000000000000000000000000000000090941693909317909252905161407c9190615728565b600060405180830381855af49150503d80600081146140b7576040519150601f19603f3d011682016040523d82523d6000602084013e6140bc565b606091505b509150915081613449578060405162461bcd60e51b81526004016105619190615744565b60008281526005840160205260408120600f81018054919260019261410d90849064ffffffffff166155d8565b92506101000a81548164ffffffffff021916908364ffffffffff16021790555061413681614726565b6141408482614367565b600a810154600682015460009161415791906146e2565b60048701548754614167916146e2565b6141719190615396565b600683015487549192506000916141889190615396565b90506141948282614bf4565b6004880155600683015487546141aa9190615396565b875560078301546000906141be9086613535565b90508360060160010154886001015410156141df57600060018901556141fe565b60078401546001890180546000906141f8908490615396565b90915550505b80886002015410156142165760006002890155614230565b8088600201600082825461422a9190615396565b90915550505b6007840154600090614243908390615396565b9050808960030154101561425d57600060038a0155614277565b808960030160008282546142719190615396565b90915550505b505050505050505050565b60006142d7826040518060400160405280602081526020017f5361666545524332303a206c6f772d6c6576656c2063616c6c206661696c6564815250856001600160a01b0316614c2f9092919063ffffffff16565b80519091501561325157808060200190518101906142f59190615757565b6132515760405162461bcd60e51b815260206004820152602a60248201527f5361666545524332303a204552433230206f7065726174696f6e20646964206e60448201527f6f742073756363656564000000000000000000000000000000000000000000006064820152608401610561565b6006810154600183018054600090614380908490615396565b9091555050600781015460028301805460009061439e908490615396565b909155505060088101546003830180546000906143bc908490615396565b90915550505050565b60068101548254116143dd5760006004830155614459565b600482015482546000916143f191906146e2565b600a830154600684015491925060009161440a916146e2565b905080821161441f5760006004850155614456565b600061442b8284615396565b600685015486549192506000916144429190615396565b905061444e8282614bf4565b600487015550505b50505b6006810154825461446a9190615396565b8255600781015460018301546144809190615396565b60018301556004810154600782015460009161449c9190613535565b905080836002015410156144b657600060028401556144d0565b808360020160008282546144ca9190615396565b90915550505b60078201546000906144e3908390615396565b905080846003015410156144fd5760006003850155613097565b808460030160008282546134dc9190615396565b6010820160005b81548110156145ca5782516001600160a01b031660009081527fcefae263aa054db53617928bc915f31f052caa2df6a635924d36f37f8c9c51a4602052604081208354829085908590811061456f5761456f61546d565b6000918252602080832091909101548352820192909252604001902080547fffffffffffffffffffffffffffffffffffffffffffffffffffffffffffffff0016911515919091179055806145c281615483565b915050614518565b50610120820151600090815260058087016020526040822082815560018101839055600281018390556003810180546effffffffffffffffffffffffffffff191690556004810183905590810182905560068101829055600781018290556008810182905560098101829055600a8101829055600b8101805469ffffffffffffffffffff19169055600c8101829055600d81018290559061466e600e830182615132565b600f8201805464ffffffffff1916905561468c601083016000615156565b505060608201516001600160a01b031660009081526005850160205260409020546146b8906001615407565b6060909201516001600160a01b031660009081526005909401602052506040909220919091555050565b60006b033b2e3c9fd0803ce80000006146fb8385615377565b61471260026b033b2e3c9fd0803ce8000000615435565b61471c9190615407565b6114f19190615435565b6006810154600c82015461473a9190615407565b600c8201556007810154600d8201546147539190615407565b600d8201556040805160a081018252600091810182905260608101829052608081019190915260078201546020820181905260068301548083526147979190615407565b604082019081524264ffffffffff90811660608401908152600e8501805460018082018355600092835260209283902087516004909302019182559186015191810191909155925160028401555160039283018054608086015192841665ffffffffffff199091161765010000000000921515830217905591840154600f850154620151809361482c939204821691166156c3565b61483691906156c3565b600b83015461484c919064ffffffffff166155d8565b82600b0160056101000a81548164ffffffffff021916908364ffffffffff1602179055505050565b60a0810151825561026081015160038301805461028084015164ffffffffff90811665010000000000810269ffffffffffffffffffff1990931691909416171790556102e0820151600a8401556000906148d2906201518090615377565b6201518083610260015164ffffffffff166148ed9190615377565b6148f79190615435565b6003840180547fffffffffffffffffffffffffffffffffff0000000000ffffffffffffffffffff166a010000000000000000000064ffffffffff93841681029190911791829055600b8601805464ffffffffff19164285161790558554600a87015461497594919390926501000000000082048316929104166134e7565b6001840155610120820151835461498b91613535565b600284018190556101008301516004850155905092915050565b825465010000000000900464ffffffffff168360056149c383615779565b91906101000a81548164ffffffffff021916908364ffffffffff160217905550508260040160008154809291906149f990615483565b919050555081836001016000828254614a129190615407565b90915550506001840154600284018054600090614a30908490615407565b90915550506002840154600384018054600090614a4e908490615407565b9091555050600a8401548454600091614a6791906146e2565b60048701548754614a77916146e2565b614a819190615407565b85548754919250600091614a959190615407565b9050614aa18282614bf4565b600488015585548754614ab49190615407565b875560018087015490880154614aca9190615407565b600180890191909155860154600090614ae39085613535565b9050808860020154614af59190615407565b6002890155600187015460038901548291614b0f91615407565b614b199190615396565b88600301819055505050505050505050565b6000670de0b6b3a7640000821015614b72576040517fd88504dc00000000000000000000000000000000000000000000000000000000815260048101839052602401610561565b6000614b87670de0b6b3a76400008404614c3e565b670de0b6b3a7640000808202935090915083821c90811415614baa575050919050565b6706f05b59d3b200005b8015614bec57670de0b6b3a7640000828002049150671bc16d674ec800008210614be4579283019260019190911c905b60011c614bb4565b505050919050565b600080614c02600284615435565b905082614c1b6b033b2e3c9fd0803ce800000086615377565b614c259083615407565b612d809190615435565b6060612d808484600085614d37565b60007001000000000000000000000000000000008210614c6b57608091821c91614c689082615407565b90505b680100000000000000008210614c8e57604091821c91614c8b9082615407565b90505b6401000000008210614cad57602091821c91614caa9082615407565b90505b620100008210614cca57601091821c91614cc79082615407565b90505b6101008210614ce657600891821c91614ce39082615407565b90505b60108210614d0157600491821c91614cfe9082615407565b90505b60048210614d1c57600291821c91614d199082615407565b90505b60028210614d3257614d2f600182615407565b90505b919050565b606082471015614daf5760405162461bcd60e51b815260206004820152602660248201527f416464726573733a20696e73756666696369656e742062616c616e636520666f60448201527f722063616c6c00000000000000000000000000000000000000000000000000006064820152608401610561565b6001600160a01b0385163b614e065760405162461bcd60e51b815260206004820152601d60248201527f416464726573733a2063616c6c20746f206e6f6e2d636f6e74726163740000006044820152606401610561565b600080866001600160a01b03168587604051614e229190615728565b60006040518083038185875af1925050503d8060008114614e5f576040519150601f19603f3d011682016040523d82523d6000602084013e614e64565b606091505b509150915061352a82828660608315614e7e5750816114f1565b825115614e8e5782518084602001fd5b8160405162461bcd60e51b81526004016105619190615744565b604051806101400160405280600081526020016000815260200160008152602001600081526020016000815260200160008152602001600081526020016000815260200160008152602001614f1e6040518060800160405280600081526020016000815260200160008152602001600081525090565b905290565b604051806103e0016040528060006001600160a01b0316815260200160006001600160a01b0316815260200160006001600160a01b031681526020016000815260200160006001600160a01b03168152602001600081526020016000815260200160008152602001600081526020016000815260200160006001600160a01b031681526020016000815260200160008152602001600081526020016000815260200160008152602001600081526020016000815260200160008152602001600064ffffffffff168152602001600064ffffffffff168152602001600064ffffffffff168152602001600081526020016000815260200160008152602001600081526020016000815260200160008152602001600081526020016150676040518060800160405280600081526020016000815260200160008152602001600081525090565b81526040805160808101825260008082526020828101829052928201819052606082015291015290565b604051806101c00160405280600081526020016000815260200160008152602001600081526020016000815260200160006001600160a01b031681526020016150fb6040518060800160405280600081526020016000815260200160008152602001600081525090565b8152602001600081526020016000815260200160008152602001600081526020016000815260200160008152602001606081525090565b50805460008255600402906000526020600020908101906151539190615174565b50565b508054600082559060005260206000209081019061515391906151ab565b5b808211156151a757600080825560018201819055600282015560038101805465ffffffffffff19169055600401615175565b5090565b5b808211156151a757600081556001016151ac565b6001600160a01b038116811461515357600080fd5b6000806000606084860312156151ea57600080fd5b83356151f5816151c0565b92506020840135615205816151c0565b929592945050506040919091013590565b6000806040838503121561522957600080fd5b8235615234816151c0565b91506020830135615244816151c0565b809150509250929050565b60008060006060848603121561526457600080fd5b833561526f816151c0565b9250602084013591506040840135615286816151c0565b809150509250925092565b6000602082840312156152a357600080fd5b81356114f1816151c0565b60008060008060008060a087890312156152c757600080fd5b86356152d2816151c0565b95506020870135945060408701356152e9816151c0565b935060608701356152f9816151c0565b9250608087013567ffffffffffffffff8082111561531657600080fd5b818901915089601f83011261532a57600080fd5b81358181111561533957600080fd5b8a602082850101111561534b57600080fd5b6020830194508093505050509295509295509295565b634e487b7160e01b600052601160045260246000fd5b600081600019048311821515161561539157615391615361565b500290565b6000828210156153a8576153a8615361565b500390565b6000602082840312156153bf57600080fd5b81516114f1816151c0565b600080604083850312156153dd57600080fd5b505080516020909101519092909150565b60006020828403121561540057600080fd5b5051919050565b6000821982111561541a5761541a615361565b500190565b634e487b7160e01b600052601260045260246000fd5b6000826154445761544461541f565b500490565b600064ffffffffff808416806154615761546161541f565b92169190910492915050565b634e487b7160e01b600052603260045260246000fd5b600060001982141561549757615497615361565b5060010190565b60005b838110156154b95781810151838201526020016154a1565b838111156130975750506000910152565b7fffffffff00000000000000000000000000000000000000000000000000000000831681526000825161550481600485016020870161549e565b919091016004019392505050565b6000815180845261552a81602086016020860161549e565b601f01601f19169290920160200192915050565b6060815260006155516060830186615512565b6001600160a01b039490941660208301525060400152919050565b6000608082016001600160a01b038088168452602081881681860152818716604086015260806060860152829150855180845260a086019250818701935060005b818110156155c9578451845293820193928201926001016155ad565b50919998505050505050505050565b600064ffffffffff8083168185168083038211156155f8576155f8615361565b01949350505050565b818352818160208501375060006020828401015260006020601f19601f840116840101905092915050565b602081526000612d80602083018486615601565b60006080828403121561565257600080fd5b6040516080810181811067ffffffffffffffff8211171561568357634e487b7160e01b600052604160045260246000fd5b6040528251615691816151c0565b80825250602083015160208201526040830151604082015260608301516156b7816151c0565b60608201529392505050565b600064ffffffffff808316818516818304811182151516156156e7576156e7615361565b02949350505050565b608081526000615704608083018789615601565b6001600160a01b039586166020840152939094166040820152606001529392505050565b6000825161573a81846020870161549e565b9190910192915050565b6020815260006114f16020830184615512565b60006020828403121561576957600080fd5b815180151581146114f157600080fd5b600064ffffffffff8083168181141561579457615794615361565b600101939250505056fea26469706673582212204c3b4b29be71636318856ad4e43d89314af900329081a9ed874e1ad67b75948664736f6c63430008090033",
  "devdoc": {
    "kind": "dev",
    "methods": {
      "interestBalance(address)": {
        "params": {
          "_collection": "the address of the underlying nft collection."
        },
        "returns": {
          "_0": "The total outstanding interest owed to depositors."
        }
      },
      "principalBalance(address)": {
        "params": {
          "_collection": "the address of the underlying nft collection."
        },
        "returns": {
          "_0": "The total outstanding principal owed to depositors."
        }
      }
    },
    "version": 1
  },
  "userdoc": {
    "kind": "user",
    "methods": {
      "interestBalance(address)": {
        "notice": "Returns the total outstanding interest debt for a particular underlying asset pool"
      },
      "principalBalance(address)": {
        "notice": "Returns the total outstanding principal debt for a particular underlying asset pool"
      }
    },
    "version": 1
  },
  "storageLayout": {
    "storage": [
      {
        "astId": 6392,
        "contract": "contracts/voyage/facets/LoanFacet.sol:LoanFacet",
        "label": "_status",
        "offset": 0,
        "slot": "0",
        "type": "t_uint256"
      }
    ],
    "types": {
      "t_uint256": {
        "encoding": "inplace",
        "label": "uint256",
        "numberOfBytes": "32"
      }
    }
  }
}