{
  "address": "0xa8F9b5AfFE994f7a386169AAa968e649eF920432",
  "abi": [
    {
      "inputs": [
        {
          "internalType": "address",
          "name": "_weth",
          "type": "address"
        }
      ],
      "stateMutability": "nonpayable",
      "type": "constructor"
    },
    {
      "inputs": [
        {
          "internalType": "bytes",
          "name": "_data",
          "type": "bytes"
        },
        {
          "internalType": "address",
          "name": "_vault",
          "type": "address"
        },
        {
          "internalType": "address",
          "name": "_marketplace",
          "type": "address"
        },
        {
          "internalType": "uint256",
          "name": "_value",
          "type": "uint256"
        }
      ],
      "name": "execute",
      "outputs": [
        {
          "internalType": "bytes",
          "name": "",
          "type": "bytes"
        }
      ],
      "stateMutability": "payable",
      "type": "function"
    },
    {
      "inputs": [
        {
          "internalType": "bytes",
          "name": "_data",
          "type": "bytes"
        }
      ],
      "name": "extractAssetInfo",
      "outputs": [
        {
          "components": [
            {
              "internalType": "address",
              "name": "collection",
              "type": "address"
            },
            {
              "internalType": "uint256",
              "name": "tokenId",
              "type": "uint256"
            },
            {
              "internalType": "uint256",
              "name": "assetPrice",
              "type": "uint256"
            },
            {
              "internalType": "address",
              "name": "currency",
              "type": "address"
            }
          ],
          "internalType": "struct AssetInfo",
          "name": "assetInfo",
          "type": "tuple"
        }
      ],
      "stateMutability": "pure",
      "type": "function"
    },
    {
      "inputs": [
        {
          "internalType": "bytes",
          "name": "_data",
          "type": "bytes"
        }
      ],
      "name": "validate",
      "outputs": [
        {
          "internalType": "bool",
          "name": "",
          "type": "bool"
        }
      ],
      "stateMutability": "view",
      "type": "function"
    },
    {
      "inputs": [],
      "name": "weth",
      "outputs": [
        {
          "internalType": "address",
          "name": "",
          "type": "address"
        }
      ],
      "stateMutability": "view",
      "type": "function"
    }
  ],
  "transactionHash": "0xd922dfb254fa3cb1c1c96d4057a63ae3f65b88870b75291b1e84f584d1398b6a",
  "args": [
    "0xC02aaA39b223FE8D0A0e5C4F27eAD9083C756Cc2"
  ],
  "numDeployments": 5,
  "solcInputHash": "b55025a4765d766d8108d1e3ae15fe8d",
  "bytecode": "0x608060405234801561001057600080fd5b50604051610b51380380610b5183398101604081905261002f91610054565b600080546001600160a01b0319166001600160a01b0392909216919091179055610084565b60006020828403121561006657600080fd5b81516001600160a01b038116811461007d57600080fd5b9392505050565b610abe806100936000396000f3fe60806040526004361061003f5760003560e01c80630cfe386f146100445780633fc8cef3146100b95780637f8ddf591461010b578063c16e50ef1461012b575b600080fd5b34801561005057600080fd5b5061006461005f366004610511565b61015b565b6040516100b09190815173ffffffffffffffffffffffffffffffffffffffff90811682526020808401519083015260408084015190830152606092830151169181019190915260800190565b60405180910390f35b3480156100c557600080fd5b506000546100e69073ffffffffffffffffffffffffffffffffffffffff1681565b60405173ffffffffffffffffffffffffffffffffffffffff90911681526020016100b0565b61011e610119366004610588565b610220565b6040516100b091906105f8565b34801561013757600080fd5b5061014b610146366004610511565b610329565b60405190151581526020016100b0565b604080516080810182526000808252602082018190529181018290526060810182905290610189848461033e565b60a081015173ffffffffffffffffffffffffffffffffffffffff908116855260c082015160208601526040808301519086015281511660608501529150600090505b816102000151518110156102185781610200015181815181106101f0576101f061064d565b6020026020010151600001518360400181815161020d9190610663565b9052506001016101cb565b505092915050565b606061022c8686610409565b610296576040517f08c379a000000000000000000000000000000000000000000000000000000000815260206004820152600c60248201527f696e76616c696420646174610000000000000000000000000000000000000000604482015260640160405180910390fd5b6040517fef17a55e00000000000000000000000000000000000000000000000000000000815273ffffffffffffffffffffffffffffffffffffffff85169063ef17a55e906102ee908990899088908890600401610689565b600060405180830381600087803b15801561030857600080fd5b505af115801561031c573d6000803e3d6000fd5b5050505095945050505050565b60006103358383610409565b90505b92915050565b604080516102408101825260008082526020820181905291810182905260608082018390526080820183905260a0820183905260c0820183905260e08201839052610100820183905261012082018390526101408201839052610160820183905261018082018390526101a082018390526101c082018390526101e0820183905261020082018190526102208201526103db6004600085876106df565b6103e491610709565b91506103f383600481876106df565b810190610400919061090f565b90509250929050565b6000806000610418858561033e565b90925090507fffffffff0000000000000000000000000000000000000000000000000000000082167ffb0f3ee1000000000000000000000000000000000000000000000000000000001461047157600092505050610338565b610100810151600281901c600081600581111561049057610490610a72565b146104a2576000945050505050610338565b8260e001516001146104bb576000945050505050610338565b5060019695505050505050565b60008083601f8401126104da57600080fd5b50813567ffffffffffffffff8111156104f257600080fd5b60208301915083602082850101111561050a57600080fd5b9250929050565b6000806020838503121561052457600080fd5b823567ffffffffffffffff81111561053b57600080fd5b610547858286016104c8565b90969095509350505050565b73ffffffffffffffffffffffffffffffffffffffff8116811461057557600080fd5b50565b803561058381610553565b919050565b6000806000806000608086880312156105a057600080fd5b853567ffffffffffffffff8111156105b757600080fd5b6105c3888289016104c8565b90965094505060208601356105d781610553565b925060408601356105e781610553565b949793965091946060013592915050565b600060208083528351808285015260005b8181101561062557858101830151858201604001528201610609565b81811115610637576000604083870101525b50601f01601f1916929092016040019392505050565b634e487b7160e01b600052603260045260246000fd5b6000821982111561068457634e487b7160e01b600052601160045260246000fd5b500190565b606081528360608201528385608083013760006080858301015260006080601f19601f870116830101905073ffffffffffffffffffffffffffffffffffffffff8416602083015282604083015295945050505050565b600080858511156106ef57600080fd5b838611156106fc57600080fd5b5050820193919092039150565b7fffffffff0000000000000000000000000000000000000000000000000000000081358181169160048510156102185760049490940360031b84901b1690921692915050565b634e487b7160e01b600052604160045260246000fd5b6040805190810167ffffffffffffffff811182821017156107885761078861074f565b60405290565b604051610240810167ffffffffffffffff811182821017156107885761078861074f565b604051601f8201601f1916810167ffffffffffffffff811182821017156107db576107db61074f565b604052919050565b80356018811061058357600080fd5b600082601f83011261080357600080fd5b8135602067ffffffffffffffff82111561081f5761081f61074f565b61082d818360051b016107b2565b82815260069290921b8401810191818101908684111561084c57600080fd5b8286015b8481101561089457604081890312156108695760008081fd5b610871610765565b813581528482013561088281610553565b81860152835291830191604001610850565b509695505050505050565b600082601f8301126108b057600080fd5b813567ffffffffffffffff8111156108ca576108ca61074f565b6108dd6020601f19601f840116016107b2565b8181528460208386010111156108f257600080fd5b816020850160208301376000918101602001919091529392505050565b60006020828403121561092157600080fd5b813567ffffffffffffffff8082111561093957600080fd5b90830190610240828603121561094e57600080fd5b61095661078e565b61095f83610578565b8152602083013560208201526040830135604082015261098160608401610578565b606082015261099260808401610578565b60808201526109a360a08401610578565b60a082015260c083013560c082015260e083013560e08201526101006109ca8185016107e3565b9082015261012083810135908201526101408084013590820152610160808401359082015261018080840135908201526101a080840135908201526101c080840135908201526101e080840135908201526102008084013583811115610a2f57600080fd5b610a3b888287016107f2565b8284015250506102208084013583811115610a5557600080fd5b610a618882870161089f565b918301919091525095945050505050565b634e487b7160e01b600052602160045260246000fdfea2646970667358221220df58ac91b860ec1dcc64405f36b2b54475bd3a43389bb1cbef61d1705371499264736f6c63430008090033",
  "devdoc": {
    "kind": "dev",
    "methods": {},
    "version": 1
  },
  "userdoc": {
    "kind": "user",
    "methods": {},
    "version": 1
  },
  "storageLayout": {
    "storage": [
      {
        "astId": 16838,
        "contract": "contracts/voyage/adapter/SeaportAdapter.sol:SeaportAdapter",
        "label": "weth",
        "offset": 0,
        "slot": "0",
        "type": "t_address"
      }
    ],
    "types": {
      "t_address": {
        "encoding": "inplace",
        "label": "address",
        "numberOfBytes": "20"
      }
    }
  }
}