{
  "address": "0x7a2088a1bFc9d81c55368AE168C2C02570cB814F",
  "abi": [
    {
      "anonymous": false,
      "inputs": [
        {
          "indexed": true,
          "internalType": "address",
          "name": "owner",
          "type": "address"
        },
        {
          "indexed": true,
          "internalType": "address",
          "name": "spender",
          "type": "address"
        },
        {
          "indexed": false,
          "internalType": "uint256",
          "name": "value",
          "type": "uint256"
        }
      ],
      "name": "Approval",
      "type": "event"
    },
    {
      "anonymous": false,
      "inputs": [
        {
          "indexed": true,
          "internalType": "address",
          "name": "from",
          "type": "address"
        },
        {
          "indexed": true,
          "internalType": "address",
          "name": "target",
          "type": "address"
        },
        {
          "indexed": false,
          "internalType": "uint256",
          "name": "value",
          "type": "uint256"
        },
        {
          "indexed": false,
          "internalType": "uint256",
          "name": "index",
          "type": "uint256"
        }
      ],
      "name": "Burn",
      "type": "event"
    },
    {
      "anonymous": false,
      "inputs": [
        {
          "indexed": true,
          "internalType": "address",
          "name": "underlyingAsset",
          "type": "address"
        },
        {
          "indexed": true,
          "internalType": "address",
          "name": "liquidityManagerProxy",
          "type": "address"
        },
        {
          "indexed": false,
          "internalType": "uint8",
          "name": "tokenDecimals",
          "type": "uint8"
        },
        {
          "indexed": false,
          "internalType": "string",
          "name": "tokenName",
          "type": "string"
        },
        {
          "indexed": false,
          "internalType": "string",
          "name": "tokenSymbol",
          "type": "string"
        },
        {
          "indexed": false,
          "internalType": "bytes",
          "name": "params",
          "type": "bytes"
        }
      ],
      "name": "Initialized",
      "type": "event"
    },
    {
      "anonymous": false,
      "inputs": [
        {
          "indexed": true,
          "internalType": "address",
          "name": "from",
          "type": "address"
        },
        {
          "indexed": false,
          "internalType": "uint256",
          "name": "value",
          "type": "uint256"
        },
        {
          "indexed": false,
          "internalType": "uint256",
          "name": "index",
          "type": "uint256"
        }
      ],
      "name": "Mint",
      "type": "event"
    },
    {
      "anonymous": false,
      "inputs": [
        {
          "indexed": true,
          "internalType": "address",
          "name": "from",
          "type": "address"
        },
        {
          "indexed": true,
          "internalType": "address",
          "name": "to",
          "type": "address"
        },
        {
          "indexed": false,
          "internalType": "uint256",
          "name": "value",
          "type": "uint256"
        }
      ],
      "name": "Transfer",
      "type": "event"
    },
    {
      "inputs": [],
      "name": "JUNIOR_DEPOSIT_TOKEN_REVISION",
      "outputs": [
        {
          "internalType": "uint256",
          "name": "",
          "type": "uint256"
        }
      ],
      "stateMutability": "view",
      "type": "function"
    },
    {
      "inputs": [
        {
          "internalType": "address",
          "name": "owner",
          "type": "address"
        },
        {
          "internalType": "address",
          "name": "spender",
          "type": "address"
        }
      ],
      "name": "allowance",
      "outputs": [
        {
          "internalType": "uint256",
          "name": "",
          "type": "uint256"
        }
      ],
      "stateMutability": "view",
      "type": "function"
    },
    {
      "inputs": [
        {
          "internalType": "address",
          "name": "spender",
          "type": "address"
        },
        {
          "internalType": "uint256",
          "name": "amount",
          "type": "uint256"
        }
      ],
      "name": "approve",
      "outputs": [
        {
          "internalType": "bool",
          "name": "",
          "type": "bool"
        }
      ],
      "stateMutability": "nonpayable",
      "type": "function"
    },
    {
      "inputs": [
        {
          "internalType": "address",
          "name": "_user",
          "type": "address"
        }
      ],
      "name": "balanceOf",
      "outputs": [
        {
          "internalType": "uint256",
          "name": "",
          "type": "uint256"
        }
      ],
      "stateMutability": "view",
      "type": "function"
    },
    {
      "inputs": [
        {
          "internalType": "address",
          "name": "_user",
          "type": "address"
        },
        {
          "internalType": "address",
          "name": "_receiverOfUnderlying",
          "type": "address"
        },
        {
          "internalType": "uint256",
          "name": "_amount",
          "type": "uint256"
        },
        {
          "internalType": "uint256",
          "name": "_index",
          "type": "uint256"
        }
      ],
      "name": "burn",
      "outputs": [],
      "stateMutability": "nonpayable",
      "type": "function"
    },
    {
      "inputs": [],
      "name": "decimals",
      "outputs": [
        {
          "internalType": "uint8",
          "name": "",
          "type": "uint8"
        }
      ],
      "stateMutability": "view",
      "type": "function"
    },
    {
      "inputs": [
        {
          "internalType": "address",
          "name": "spender",
          "type": "address"
        },
        {
          "internalType": "uint256",
          "name": "subtractedValue",
          "type": "uint256"
        }
      ],
      "name": "decreaseAllowance",
      "outputs": [
        {
          "internalType": "bool",
          "name": "",
          "type": "bool"
        }
      ],
      "stateMutability": "nonpayable",
      "type": "function"
    },
    {
      "inputs": [
        {
          "internalType": "address",
          "name": "spender",
          "type": "address"
        },
        {
          "internalType": "uint256",
          "name": "addedValue",
          "type": "uint256"
        }
      ],
      "name": "increaseAllowance",
      "outputs": [
        {
          "internalType": "bool",
          "name": "",
          "type": "bool"
        }
      ],
      "stateMutability": "nonpayable",
      "type": "function"
    },
    {
      "inputs": [
        {
          "internalType": "contract AddressResolver",
          "name": "_addressResolver",
          "type": "address"
        },
        {
          "internalType": "address",
          "name": "_underlyingAsset",
          "type": "address"
        },
        {
          "internalType": "uint8",
          "name": "_juniorDepositTokenDecimals",
          "type": "uint8"
        },
        {
          "internalType": "string",
          "name": "_juniorDepositTokenName",
          "type": "string"
        },
        {
          "internalType": "string",
          "name": "_juniorDepositTokenSymbol",
          "type": "string"
        },
        {
          "internalType": "bytes",
          "name": "_params",
          "type": "bytes"
        }
      ],
      "name": "initialize",
      "outputs": [],
      "stateMutability": "nonpayable",
      "type": "function"
    },
    {
      "inputs": [],
      "name": "isInitialized",
      "outputs": [
        {
          "internalType": "bool",
          "name": "",
          "type": "bool"
        }
      ],
      "stateMutability": "view",
      "type": "function"
    },
    {
      "inputs": [
        {
          "internalType": "address",
          "name": "_user",
          "type": "address"
        },
        {
          "internalType": "uint256",
          "name": "_amount",
          "type": "uint256"
        },
        {
          "internalType": "uint256",
          "name": "_index",
          "type": "uint256"
        }
      ],
      "name": "mint",
      "outputs": [
        {
          "internalType": "bool",
          "name": "",
          "type": "bool"
        }
      ],
      "stateMutability": "nonpayable",
      "type": "function"
    },
    {
      "inputs": [],
      "name": "name",
      "outputs": [
        {
          "internalType": "string",
          "name": "",
          "type": "string"
        }
      ],
      "stateMutability": "view",
      "type": "function"
    },
    {
      "inputs": [
        {
          "internalType": "address",
          "name": "_user",
          "type": "address"
        }
      ],
      "name": "scaledBalanceOf",
      "outputs": [
        {
          "internalType": "uint256",
          "name": "",
          "type": "uint256"
        }
      ],
      "stateMutability": "view",
      "type": "function"
    },
    {
      "inputs": [],
      "name": "scaledTotalSupply",
      "outputs": [
        {
          "internalType": "uint256",
          "name": "",
          "type": "uint256"
        }
      ],
      "stateMutability": "view",
      "type": "function"
    },
    {
      "inputs": [],
      "name": "symbol",
      "outputs": [
        {
          "internalType": "string",
          "name": "",
          "type": "string"
        }
      ],
      "stateMutability": "view",
      "type": "function"
    },
    {
      "inputs": [],
      "name": "totalSupply",
      "outputs": [
        {
          "internalType": "uint256",
          "name": "",
          "type": "uint256"
        }
      ],
      "stateMutability": "view",
      "type": "function"
    },
    {
      "inputs": [
        {
          "internalType": "address",
          "name": "recipient",
          "type": "address"
        },
        {
          "internalType": "uint256",
          "name": "amount",
          "type": "uint256"
        }
      ],
      "name": "transfer",
      "outputs": [
        {
          "internalType": "bool",
          "name": "",
          "type": "bool"
        }
      ],
      "stateMutability": "nonpayable",
      "type": "function"
    },
    {
      "inputs": [
        {
          "internalType": "address",
          "name": "sender",
          "type": "address"
        },
        {
          "internalType": "address",
          "name": "recipient",
          "type": "address"
        },
        {
          "internalType": "uint256",
          "name": "amount",
          "type": "uint256"
        }
      ],
      "name": "transferFrom",
      "outputs": [
        {
          "internalType": "bool",
          "name": "",
          "type": "bool"
        }
      ],
      "stateMutability": "nonpayable",
      "type": "function"
    }
  ],
  "transactionHash": "0x8348590ab98b02401ddaf52e3a40f53a663aefb4077a9dbcc7fb2c9200013542",
  "args": [],
  "numDeployments": 1,
  "solcInputHash": "36c545191a21c01ad4cdfe8c379680b1",
  "bytecode": "0x6080604052600080553480156200001557600080fd5b5060408051808201825260178082527f4a756e696f724465706f736974546f6b656e5f494d504c00000000000000000060208084018281528551808701909652928552840152815191929160009162000072916037919062000092565b5081516200008890603890602085019062000092565b5050505062000175565b828054620000a09062000138565b90600052602060002090601f016020900481019282620000c457600085556200010f565b82601f10620000df57805160ff19168380011785556200010f565b828001600101855582156200010f579182015b828111156200010f578251825591602001919060010190620000f2565b506200011d92915062000121565b5090565b5b808211156200011d576000815560010162000122565b600181811c908216806200014d57607f821691505b602082108114156200016f57634e487b7160e01b600052602260045260246000fd5b50919050565b611ced80620001856000396000f3fe608060405234801561001057600080fd5b50600436106101365760003560e01c806370a08231116100b2578063a457c2d711610081578063b1bf962d11610066578063b1bf962d14610259578063d7020d0a14610261578063dd62ed3e1461027457600080fd5b8063a457c2d714610233578063a9059cbb1461024657600080fd5b806370a08231146101fb5780637fdd585f1461020e57806395d89b4114610223578063964909091461022b57600080fd5b80631da24f3e11610109578063313ce567116100ee578063313ce567146101cb578063392e53cd146101e057806339509351146101e857600080fd5b80631da24f3e146101a557806323b872dd146101b857600080fd5b806306fdde031461013b578063095ea7b314610159578063156e29f61461017c57806318160ddd1461018f575b600080fd5b6101436102ad565b60405161015091906117dd565b60405180910390f35b61016c610167366004611828565b61033f565b6040519015158152602001610150565b61016c61018a366004611854565b610355565b61019761057d565b604051908152602001610150565b6101976101b3366004611889565b610655565b61016c6101c63660046118a6565b610675565b60395460405160ff9091168152602001610150565b61016c610734565b61016c6101f6366004611828565b610752565b610197610209366004611889565b61078e565b61022161021c366004611930565b61085d565b005b610143610b06565b610197600181565b61016c610241366004611828565b610b15565b61016c610254366004611828565b610bc6565b610197610bd3565b61022161026f366004611a0a565b610bde565b610197610282366004611a50565b6001600160a01b03918216600090815260356020908152604080832093909416825291909152205490565b6060603780546102bc90611a89565b80601f01602080910402602001604051908101604052809291908181526020018280546102e890611a89565b80156103355780601f1061030a57610100808354040283529160200191610335565b820191906000526020600020905b81548152906001019060200180831161031857829003601f168201915b5050505050905090565b600061034c338484610e07565b50600192915050565b6039546040516321f8a72160e01b81527f6c69717569646974794d616e6167657200000000000000000000000000000000600482015260009161010090046001600160a01b0316906321f8a7219060240160206040518083038186803b1580156103be57600080fd5b505afa1580156103d2573d6000803e3d6000fd5b505050506040513d601f19601f820116820180604052508101906103f69190611ac4565b6001600160a01b0316336001600160a01b0316146040518060400160405280600281526020017f3230000000000000000000000000000000000000000000000000000000000000815250906104675760405162461bcd60e51b815260040161045e91906117dd565b60405180910390fd5b506001600160a01b0384166000908152603460205260408120549061048c8585610f5f565b60408051808201909152600281527f32310000000000000000000000000000000000000000000000000000000000006020820152909150816104e15760405162461bcd60e51b815260040161045e91906117dd565b506104ec8682610fa1565b6040518581526001600160a01b038716906000907fddf252ad1be2c89b69c2b068fc378daa952ba7f163c4a11628f55a4df523b3ef9060200160405180910390a360408051868152602081018690526001600160a01b038816917f4c209b5fc8ad50758f13e2e1088ba56a560dff690a1c6fef26394f4c03821c4f910160405180910390a2501590505b9392505050565b60008061058960365490565b90508061059857600091505090565b60006105a261104c565b603a546040517f284592b200000000000000000000000000000000000000000000000000000000815291925061064e916001600160a01b038085169263284592b2926105f79290911690600090600401611ae1565b60206040518083038186803b15801561060f57600080fd5b505afa158015610623573d6000803e3d6000fd5b505050506040513d601f19601f820116820180604052508101906106479190611b1c565b83906110f0565b9250505090565b6001600160a01b0381166000908152603460205260408120545b92915050565b600061068284848461112c565b6001600160a01b03841660009081526035602090815260408083203384529091529020548281101561071c5760405162461bcd60e51b815260206004820152602860248201527f45524332303a207472616e7366657220616d6f756e742065786365656473206160448201527f6c6c6f77616e6365000000000000000000000000000000000000000000000000606482015260840161045e565b6107298533858403610e07565b506001949350505050565b60015460009060ff1615801561074d5750600054600111155b905090565b3360008181526035602090815260408083206001600160a01b0387168452909152812054909161034c918590610789908690611b4b565b610e07565b60008061079961104c565b603a546040517f776f6891000000000000000000000000000000000000000000000000000000008152919250610576916001600160a01b038085169263776f6891926107ee9290911690600090600401611ae1565b60206040518083038186803b15801561080657600080fd5b505afa15801561081a573d6000803e3d6000fd5b505050506040513d601f19601f8201168201806040525081019061083e9190611b1c565b6001600160a01b038516600090815260346020526040902054906110f0565b6001805460ff168061086e5750303b155b8061087a575060005481115b6108ec5760405162461bcd60e51b815260206004820152602e60248201527f436f6e747261637420696e7374616e63652068617320616c726561647920626560448201527f656e20696e697469616c697a6564000000000000000000000000000000000000606482015260840161045e565b60015460ff1615801561090b576001805460ff19168117905560008290555b61094a88888080601f01602080910402602001604051908101604052809392919081815260200183838082843760009201919091525061134592505050565b61098986868080601f01602080910402602001604051908101604052809392919081815260200183838082843760009201919091525061135c92505050565b6039805460ff191660ff8b16179055603980547fffffffffffffffffffffff0000000000000000000000000000000000000000ff166101006001600160a01b038e811682029290921792839055603a80547fffffffffffffffffffffffff0000000000000000000000000000000000000000168e84161790556040516321f8a72160e01b81527f6c69717569646974794d616e61676572000000000000000000000000000000006004820152920416906321f8a7219060240160206040518083038186803b158015610a5a57600080fd5b505afa158015610a6e573d6000803e3d6000fd5b505050506040513d601f19601f82011682018060405250810190610a929190611ac4565b6001600160a01b03168a6001600160a01b03167f5d8ce3e947367e84e7fa4f4ba36ebe75e6b6c6b93c25673faa4df0202b59c1388b8b8b8b8b8b8b604051610ae09796959493929190611b8e565b60405180910390a38015610af9576001805460ff191690555b5050505050505050505050565b6060603880546102bc90611a89565b3360009081526035602090815260408083206001600160a01b038616845290915281205482811015610baf5760405162461bcd60e51b815260206004820152602560248201527f45524332303a2064656372656173656420616c6c6f77616e63652062656c6f7760448201527f207a65726f000000000000000000000000000000000000000000000000000000606482015260840161045e565b610bbc3385858403610e07565b5060019392505050565b600061034c33848461112c565b600061074d60365490565b6039546040516321f8a72160e01b81527f6c69717569646974794d616e616765720000000000000000000000000000000060048201526101009091046001600160a01b0316906321f8a7219060240160206040518083038186803b158015610c4557600080fd5b505afa158015610c59573d6000803e3d6000fd5b505050506040513d601f19601f82011682018060405250810190610c7d9190611ac4565b6001600160a01b0316336001600160a01b0316146040518060400160405280600281526020017f323000000000000000000000000000000000000000000000000000000000000081525090610ce55760405162461bcd60e51b815260040161045e91906117dd565b506000610cf28383610f5f565b60408051808201909152600281527f3232000000000000000000000000000000000000000000000000000000000000602082015290915081610d475760405162461bcd60e51b815260040161045e91906117dd565b50610d52858261136f565b603a54610d69906001600160a01b0316858561143e565b6040518381526000906001600160a01b038716907fddf252ad1be2c89b69c2b068fc378daa952ba7f163c4a11628f55a4df523b3ef9060200160405180910390a3836001600160a01b0316856001600160a01b03167f5d624aa9c148153ab3446c1b154f660ee7701e549fe9b62dab7171b1c80e6fa28585604051610df8929190918252602082015260400190565b60405180910390a35050505050565b6001600160a01b038316610e825760405162461bcd60e51b8152602060048201526024808201527f45524332303a20617070726f76652066726f6d20746865207a65726f2061646460448201527f7265737300000000000000000000000000000000000000000000000000000000606482015260840161045e565b6001600160a01b038216610efe5760405162461bcd60e51b815260206004820152602260248201527f45524332303a20617070726f766520746f20746865207a65726f20616464726560448201527f7373000000000000000000000000000000000000000000000000000000000000606482015260840161045e565b6001600160a01b0383811660008181526035602090815260408083209487168084529482529182902085905590518481527f8c5be1e5ebec7d5bd14f71427d1e84f3dd0314c0f7b2291e5b200ac8c7c3b925910160405180910390a3505050565b600080610f6d600284611be1565b9050610f9983610f93610f8c876b033b2e3c9fd0803ce80000006114c3565b84906114cf565b906114db565b949350505050565b6001600160a01b038216610ff75760405162461bcd60e51b815260206004820152601f60248201527f45524332303a206d696e7420746f20746865207a65726f206164647265737300604482015260640161045e565b60365461100481836114cf565b6036556001600160a01b03831660009081526034602052604090205461102a81846114cf565b6001600160a01b03909416600090815260346020526040902093909355505050565b6039546040516321f8a72160e01b81527f6c69717569646974794d616e6167657250726f78790000000000000000000000600482015260009182916101009091046001600160a01b0316906321f8a7219060240160206040518083038186803b1580156110b857600080fd5b505afa1580156110cc573d6000803e3d6000fd5b505050506040513d601f19601f8201168201806040525081019061066f9190611ac4565b60006105766b033b2e3c9fd0803ce8000000610f9361110f86866114c3565b61112660026b033b2e3c9fd0803ce8000000611be1565b906114cf565b6001600160a01b0383166111a85760405162461bcd60e51b815260206004820152602560248201527f45524332303a207472616e736665722066726f6d20746865207a65726f20616460448201527f6472657373000000000000000000000000000000000000000000000000000000606482015260840161045e565b6001600160a01b0382166112245760405162461bcd60e51b815260206004820152602360248201527f45524332303a207472616e7366657220746f20746865207a65726f206164647260448201527f6573730000000000000000000000000000000000000000000000000000000000606482015260840161045e565b6001600160a01b038316600090815260346020526040902054818110156112b35760405162461bcd60e51b815260206004820152602660248201527f45524332303a207472616e7366657220616d6f756e742065786365656473206260448201527f616c616e63650000000000000000000000000000000000000000000000000000606482015260840161045e565b6001600160a01b038085166000908152603460205260408082208585039055918516815290812080548492906112ea908490611b4b565b92505081905550826001600160a01b0316846001600160a01b03167fddf252ad1be2c89b69c2b068fc378daa952ba7f163c4a11628f55a4df523b3ef8460405161133691815260200190565b60405180910390a35b50505050565b8051611358906037906020840190611718565b5050565b8051611358906038906020840190611718565b6001600160a01b0382166113eb5760405162461bcd60e51b815260206004820152602160248201527f45524332303a206275726e2066726f6d20746865207a65726f2061646472657360448201527f7300000000000000000000000000000000000000000000000000000000000000606482015260840161045e565b6036546113f881836114e7565b6036556001600160a01b038316600090815260346020908152604091829020548251606081019093526022808452909261102a92869290611c96908301398391906114f3565b604080516001600160a01b038416602482015260448082018490528251808303909101815260649091019091526020810180517bffffffffffffffffffffffffffffffffffffffffffffffffffffffff167fa9059cbb000000000000000000000000000000000000000000000000000000001790526114be90849061151f565b505050565b60006105768284611c03565b60006105768284611b4b565b60006105768284611be1565b60006105768284611c40565b600081848411156115175760405162461bcd60e51b815260040161045e91906117dd565b505050900390565b6000611574826040518060400160405280602081526020017f5361666545524332303a206c6f772d6c6576656c2063616c6c206661696c6564815250856001600160a01b03166116049092919063ffffffff16565b8051909150156114be57808060200190518101906115929190611c57565b6114be5760405162461bcd60e51b815260206004820152602a60248201527f5361666545524332303a204552433230206f7065726174696f6e20646964206e60448201527f6f74207375636365656400000000000000000000000000000000000000000000606482015260840161045e565b6060610f998484600085856001600160a01b0385163b6116665760405162461bcd60e51b815260206004820152601d60248201527f416464726573733a2063616c6c20746f206e6f6e2d636f6e7472616374000000604482015260640161045e565b600080866001600160a01b031685876040516116829190611c79565b60006040518083038185875af1925050503d80600081146116bf576040519150601f19603f3d011682016040523d82523d6000602084013e6116c4565b606091505b50915091506116d48282866116df565b979650505050505050565b606083156116ee575081610576565b8251156116fe5782518084602001fd5b8160405162461bcd60e51b815260040161045e91906117dd565b82805461172490611a89565b90600052602060002090601f016020900481019282611746576000855561178c565b82601f1061175f57805160ff191683800117855561178c565b8280016001018555821561178c579182015b8281111561178c578251825591602001919060010190611771565b5061179892915061179c565b5090565b5b80821115611798576000815560010161179d565b60005b838110156117cc5781810151838201526020016117b4565b8381111561133f5750506000910152565b60208152600082518060208401526117fc8160408501602087016117b1565b601f01601f19169190910160400192915050565b6001600160a01b038116811461182557600080fd5b50565b6000806040838503121561183b57600080fd5b823561184681611810565b946020939093013593505050565b60008060006060848603121561186957600080fd5b833561187481611810565b95602085013595506040909401359392505050565b60006020828403121561189b57600080fd5b813561057681611810565b6000806000606084860312156118bb57600080fd5b83356118c681611810565b925060208401356118d681611810565b929592945050506040919091013590565b60008083601f8401126118f957600080fd5b50813567ffffffffffffffff81111561191157600080fd5b60208301915083602082850101111561192957600080fd5b9250929050565b600080600080600080600080600060c08a8c03121561194e57600080fd5b893561195981611810565b985060208a013561196981611810565b975060408a013560ff8116811461197f57600080fd5b965060608a013567ffffffffffffffff8082111561199c57600080fd5b6119a88d838e016118e7565b909850965060808c01359150808211156119c157600080fd5b6119cd8d838e016118e7565b909650945060a08c01359150808211156119e657600080fd5b506119f38c828d016118e7565b915080935050809150509295985092959850929598565b60008060008060808587031215611a2057600080fd5b8435611a2b81611810565b93506020850135611a3b81611810565b93969395505050506040820135916060013590565b60008060408385031215611a6357600080fd5b8235611a6e81611810565b91506020830135611a7e81611810565b809150509250929050565b600181811c90821680611a9d57607f821691505b60208210811415611abe57634e487b7160e01b600052602260045260246000fd5b50919050565b600060208284031215611ad657600080fd5b815161057681611810565b6001600160a01b03831681526040810160028310611b0f57634e487b7160e01b600052602160045260246000fd5b8260208301529392505050565b600060208284031215611b2e57600080fd5b5051919050565b634e487b7160e01b600052601160045260246000fd5b60008219821115611b5e57611b5e611b35565b500190565b818352818160208501375060006020828401015260006020601f19601f840116840101905092915050565b60ff88168152608060208201526000611bab60808301888a611b63565b8281036040840152611bbe818789611b63565b90508281036060840152611bd3818587611b63565b9a9950505050505050505050565b600082611bfe57634e487b7160e01b600052601260045260246000fd5b500490565b6000817fffffffffffffffffffffffffffffffffffffffffffffffffffffffffffffffff0483118215151615611c3b57611c3b611b35565b500290565b600082821015611c5257611c52611b35565b500390565b600060208284031215611c6957600080fd5b8151801515811461057657600080fd5b60008251611c8b8184602087016117b1565b919091019291505056fe45524332303a206275726e20616d6f756e7420657863656564732062616c616e6365a26469706673582212202a72b1fed6734e4fe8d06306d854c233190acb4afa070491e4df183fc99dc34f64736f6c63430008090033",
  "devdoc": {
    "kind": "dev",
    "methods": {
      "allowance(address,address)": {
        "details": "See {IERC20-allowance}."
      },
      "approve(address,uint256)": {
        "details": "See {IERC20-approve}. Requirements: - `spender` cannot be the zero address."
      },
      "balanceOf(address)": {
        "details": "Calculates the balance of the user: principal balance + interest generated by the principal",
        "params": {
          "_user": "The user whose balance is calculated"
        },
        "returns": {
          "_0": "The balance of the user*"
        }
      },
      "burn(address,address,uint256,uint256)": {
        "details": "Burns JuniorDepositToken from `_user` and sends the equivalent amount of underlying to `_receiverOfUnderlying` - Only callable by the LiquidityManagerProxy, as extra state updates there need to the managed",
        "params": {
          "_amount": "The amount being burned",
          "_index": "The new liquidity index of the reserve*",
          "_receiverOfUnderlying": "The address that will receive the underlying",
          "_user": "The owner of the JuniorDepositToken, getting them burned"
        }
      },
      "decimals()": {
        "details": "Returns the decimals places of the token."
      },
      "decreaseAllowance(address,uint256)": {
        "details": "Atomically decreases the allowance granted to `spender` by the caller. This is an alternative to {approve} that can be used as a mitigation for problems described in {IERC20-approve}. Emits an {Approval} event indicating the updated allowance. Requirements: - `spender` cannot be the zero address. - `spender` must have allowance for the caller of at least `subtractedValue`."
      },
      "increaseAllowance(address,uint256)": {
        "details": "Atomically increases the allowance granted to `spender` by the caller. This is an alternative to {approve} that can be used as a mitigation for problems described in {IERC20-approve}. Emits an {Approval} event indicating the updated allowance. Requirements: - `spender` cannot be the zero address."
      },
      "initialize(address,address,uint8,string,string,bytes)": {
        "details": "Initializes the JuniorDepositToken",
        "params": {
          "_addressResolver": "The address of the AddressResolver",
          "_juniorDepositTokenDecimals": "The decimals of the JuniorDepositToken, same as the underlying asset's",
          "_juniorDepositTokenName": "The name of the JuniorDepositToken",
          "_juniorDepositTokenSymbol": "The symbol of the JuniorDepositToken*",
          "_underlyingAsset": "The address of the underlying asset of this JuniorDepositToken"
        }
      },
      "isInitialized()": {
        "details": "Returns true if the contract has been initialized*"
      },
      "mint(address,uint256,uint256)": {
        "details": "Mints `_amount` junior deposit token to `_user`",
        "params": {
          "_amount": "The amount of tokens getting minted",
          "_index": "The new liquidity index of the reserve",
          "_user": "The address receiving the minted tokens"
        },
        "returns": {
          "_0": "`true` if the previous balance of the user was 0*"
        }
      },
      "name()": {
        "details": "Returns the name of the token."
      },
      "scaledBalanceOf(address)": {
        "details": "Returns the scaled balance of the user. The scaled balance is the sum of all the updated stored balance divided by the reserve's liquidity index at the moment of the update",
        "params": {
          "_user": "The user whose balance is calculated"
        },
        "returns": {
          "_0": "THe scaled balance of the user*"
        }
      },
      "symbol()": {
        "details": "Returns the symbol of the token, usually a shorter version of the name."
      },
      "totalSupply()": {
        "details": "calculates the total supply of the specific junior deposit token since the balance of every single user increases over time, the totally supply does that too.",
        "returns": {
          "_0": "the current total supply*"
        }
      },
      "transfer(address,uint256)": {
        "details": "See {IERC20-transfer}. Requirements: - `recipient` cannot be the zero address. - the caller must have a balance of at least `amount`."
      },
      "transferFrom(address,address,uint256)": {
        "details": "See {IERC20-transferFrom}. Emits an {Approval} event indicating the updated allowance. This is not required by the EIP. See the note at the beginning of {ERC20}. Requirements: - `sender` and `recipient` cannot be the zero address. - `sender` must have a balance of at least `amount`. - the caller must have allowance for ``sender``'s tokens of at least `amount`."
      }
    },
    "version": 1
  },
  "userdoc": {
    "kind": "user",
    "methods": {},
    "version": 1
  },
  "storageLayout": {
    "storage": [
      {
        "astId": 10667,
        "contract": "contracts/tokenization/JuniorDepositToken.sol:JuniorDepositToken",
        "label": "lastInitializedRevision",
        "offset": 0,
        "slot": "0",
        "type": "t_uint256"
      },
      {
        "astId": 10670,
        "contract": "contracts/tokenization/JuniorDepositToken.sol:JuniorDepositToken",
        "label": "initializing",
        "offset": 0,
        "slot": "1",
        "type": "t_bool"
      },
      {
        "astId": 10790,
        "contract": "contracts/tokenization/JuniorDepositToken.sol:JuniorDepositToken",
        "label": "______gap",
        "offset": 0,
        "slot": "2",
        "type": "t_array(t_uint256)50_storage"
      },
      {
        "astId": 9975,
        "contract": "contracts/tokenization/JuniorDepositToken.sol:JuniorDepositToken",
        "label": "_balances",
        "offset": 0,
        "slot": "52",
        "type": "t_mapping(t_address,t_uint256)"
      },
      {
        "astId": 9981,
        "contract": "contracts/tokenization/JuniorDepositToken.sol:JuniorDepositToken",
        "label": "_allowances",
        "offset": 0,
        "slot": "53",
        "type": "t_mapping(t_address,t_mapping(t_address,t_uint256))"
      },
      {
        "astId": 9983,
        "contract": "contracts/tokenization/JuniorDepositToken.sol:JuniorDepositToken",
        "label": "_totalSupply",
        "offset": 0,
        "slot": "54",
        "type": "t_uint256"
      },
      {
        "astId": 9985,
        "contract": "contracts/tokenization/JuniorDepositToken.sol:JuniorDepositToken",
        "label": "_name",
        "offset": 0,
        "slot": "55",
        "type": "t_string_storage"
      },
      {
        "astId": 9987,
        "contract": "contracts/tokenization/JuniorDepositToken.sol:JuniorDepositToken",
        "label": "_symbol",
        "offset": 0,
        "slot": "56",
        "type": "t_string_storage"
      },
      {
        "astId": 9989,
        "contract": "contracts/tokenization/JuniorDepositToken.sol:JuniorDepositToken",
        "label": "_decimals",
        "offset": 0,
        "slot": "57",
        "type": "t_uint8"
      },
      {
        "astId": 10826,
        "contract": "contracts/tokenization/JuniorDepositToken.sol:JuniorDepositToken",
        "label": "addressResolver",
        "offset": 1,
        "slot": "57",
        "type": "t_contract(AddressResolver)956"
      },
      {
        "astId": 10828,
        "contract": "contracts/tokenization/JuniorDepositToken.sol:JuniorDepositToken",
        "label": "underlyingAsset",
        "offset": 0,
        "slot": "58",
        "type": "t_address"
      }
    ],
    "types": {
      "t_address": {
        "encoding": "inplace",
        "label": "address",
        "numberOfBytes": "20"
      },
      "t_array(t_uint256)50_storage": {
        "base": "t_uint256",
        "encoding": "inplace",
        "label": "uint256[50]",
        "numberOfBytes": "1600"
      },
      "t_bool": {
        "encoding": "inplace",
        "label": "bool",
        "numberOfBytes": "1"
      },
      "t_contract(AddressResolver)956": {
        "encoding": "inplace",
        "label": "contract AddressResolver",
        "numberOfBytes": "20"
      },
      "t_mapping(t_address,t_mapping(t_address,t_uint256))": {
        "encoding": "mapping",
        "key": "t_address",
        "label": "mapping(address => mapping(address => uint256))",
        "numberOfBytes": "32",
        "value": "t_mapping(t_address,t_uint256)"
      },
      "t_mapping(t_address,t_uint256)": {
        "encoding": "mapping",
        "key": "t_address",
        "label": "mapping(address => uint256)",
        "numberOfBytes": "32",
        "value": "t_uint256"
      },
      "t_string_storage": {
        "encoding": "bytes",
        "label": "string",
        "numberOfBytes": "32"
      },
      "t_uint256": {
        "encoding": "inplace",
        "label": "uint256",
        "numberOfBytes": "32"
      },
      "t_uint8": {
        "encoding": "inplace",
        "label": "uint8",
        "numberOfBytes": "1"
      }
    }
  }
}