{
  "address": "0xB242c5A93FA38ef23d5e0b6B33D63F2cFA8F9768",
  "abi": [
    {
      "inputs": [
        {
          "internalType": "address",
          "name": "_aclAdmin",
          "type": "address"
        }
      ],
      "stateMutability": "nonpayable",
      "type": "constructor"
    },
    {
      "anonymous": false,
      "inputs": [
        {
          "indexed": true,
          "internalType": "bytes32",
          "name": "role",
          "type": "bytes32"
        },
        {
          "indexed": true,
          "internalType": "bytes32",
          "name": "previousAdminRole",
          "type": "bytes32"
        },
        {
          "indexed": true,
          "internalType": "bytes32",
          "name": "newAdminRole",
          "type": "bytes32"
        }
      ],
      "name": "RoleAdminChanged",
      "type": "event"
    },
    {
      "anonymous": false,
      "inputs": [
        {
          "indexed": true,
          "internalType": "bytes32",
          "name": "role",
          "type": "bytes32"
        },
        {
          "indexed": true,
          "internalType": "address",
          "name": "account",
          "type": "address"
        },
        {
          "indexed": true,
          "internalType": "address",
          "name": "sender",
          "type": "address"
        }
      ],
      "name": "RoleGranted",
      "type": "event"
    },
    {
      "anonymous": false,
      "inputs": [
        {
          "indexed": true,
          "internalType": "bytes32",
          "name": "role",
          "type": "bytes32"
        },
        {
          "indexed": true,
          "internalType": "address",
          "name": "account",
          "type": "address"
        },
        {
          "indexed": true,
          "internalType": "address",
          "name": "sender",
          "type": "address"
        }
      ],
      "name": "RoleRevoked",
      "type": "event"
    },
    {
      "inputs": [],
      "name": "DEFAULT_ADMIN_ROLE",
      "outputs": [
        {
          "internalType": "bytes32",
          "name": "",
          "type": "bytes32"
        }
      ],
      "stateMutability": "view",
      "type": "function"
    },
    {
      "inputs": [],
      "name": "LIQUIDITY_MANAGER_ADMIN_ROLE",
      "outputs": [
        {
          "internalType": "bytes32",
          "name": "",
          "type": "bytes32"
        }
      ],
      "stateMutability": "view",
      "type": "function"
    },
    {
      "inputs": [],
      "name": "LIQUIDITY_MANAGER_CONTRACT_ROLE",
      "outputs": [
        {
          "internalType": "bytes32",
          "name": "",
          "type": "bytes32"
        }
      ],
      "stateMutability": "view",
      "type": "function"
    },
    {
      "inputs": [],
      "name": "LOAN_MANAGER_ADMIN_ROLE",
      "outputs": [
        {
          "internalType": "bytes32",
          "name": "",
          "type": "bytes32"
        }
      ],
      "stateMutability": "view",
      "type": "function"
    },
    {
      "inputs": [],
      "name": "LOAN_MANAGER_CONTRACT_ROLE",
      "outputs": [
        {
          "internalType": "bytes32",
          "name": "",
          "type": "bytes32"
        }
      ],
      "stateMutability": "view",
      "type": "function"
    },
    {
      "inputs": [],
      "name": "VAULT_MANAGER_ADMIN_ROLE",
      "outputs": [
        {
          "internalType": "bytes32",
          "name": "",
          "type": "bytes32"
        }
      ],
      "stateMutability": "view",
      "type": "function"
    },
    {
      "inputs": [],
      "name": "VAULT_MANAGER_CONTRACT_ROLE",
      "outputs": [
        {
          "internalType": "bytes32",
          "name": "",
          "type": "bytes32"
        }
      ],
      "stateMutability": "view",
      "type": "function"
    },
    {
      "inputs": [],
      "name": "VOYAGER_ADMIN_ROLE",
      "outputs": [
        {
          "internalType": "bytes32",
          "name": "",
          "type": "bytes32"
        }
      ],
      "stateMutability": "view",
      "type": "function"
    },
    {
      "inputs": [
        {
          "internalType": "bytes32",
          "name": "role",
          "type": "bytes32"
        }
      ],
      "name": "getRoleAdmin",
      "outputs": [
        {
          "internalType": "bytes32",
          "name": "",
          "type": "bytes32"
        }
      ],
      "stateMutability": "view",
      "type": "function"
    },
    {
      "inputs": [
        {
          "internalType": "address",
          "name": "_admin",
          "type": "address"
        }
      ],
      "name": "grantLiquidityManager",
      "outputs": [],
      "stateMutability": "nonpayable",
      "type": "function"
    },
    {
      "inputs": [
        {
          "internalType": "address",
          "name": "_admin",
          "type": "address"
        }
      ],
      "name": "grantLiquidityManagerContract",
      "outputs": [],
      "stateMutability": "nonpayable",
      "type": "function"
    },
    {
      "inputs": [
        {
          "internalType": "address",
          "name": "_admin",
          "type": "address"
        }
      ],
      "name": "grantLoanManager",
      "outputs": [],
      "stateMutability": "nonpayable",
      "type": "function"
    },
    {
      "inputs": [
        {
          "internalType": "address",
          "name": "_admin",
          "type": "address"
        }
      ],
      "name": "grantLoanManagerContract",
      "outputs": [],
      "stateMutability": "nonpayable",
      "type": "function"
    },
    {
      "inputs": [
        {
          "internalType": "address",
          "name": "_admin",
          "type": "address"
        }
      ],
      "name": "grantPoolManager",
      "outputs": [],
      "stateMutability": "nonpayable",
      "type": "function"
    },
    {
      "inputs": [
        {
          "internalType": "bytes32",
          "name": "role",
          "type": "bytes32"
        },
        {
          "internalType": "address",
          "name": "account",
          "type": "address"
        }
      ],
      "name": "grantRole",
      "outputs": [],
      "stateMutability": "nonpayable",
      "type": "function"
    },
    {
      "inputs": [
        {
          "internalType": "address",
          "name": "_admin",
          "type": "address"
        }
      ],
      "name": "grantVaultManager",
      "outputs": [],
      "stateMutability": "nonpayable",
      "type": "function"
    },
    {
      "inputs": [
        {
          "internalType": "address",
          "name": "_admin",
          "type": "address"
        }
      ],
      "name": "grantVaultManagerContract",
      "outputs": [],
      "stateMutability": "nonpayable",
      "type": "function"
    },
    {
      "inputs": [
        {
          "internalType": "bytes32",
          "name": "role",
          "type": "bytes32"
        },
        {
          "internalType": "address",
          "name": "account",
          "type": "address"
        }
      ],
      "name": "hasRole",
      "outputs": [
        {
          "internalType": "bool",
          "name": "",
          "type": "bool"
        }
      ],
      "stateMutability": "view",
      "type": "function"
    },
    {
      "inputs": [
        {
          "internalType": "address",
          "name": "_admin",
          "type": "address"
        }
      ],
      "name": "isLiquidityManager",
      "outputs": [
        {
          "internalType": "bool",
          "name": "",
          "type": "bool"
        }
      ],
      "stateMutability": "view",
      "type": "function"
    },
    {
      "inputs": [
        {
          "internalType": "address",
          "name": "_admin",
          "type": "address"
        }
      ],
      "name": "isLiquidityManagerContract",
      "outputs": [
        {
          "internalType": "bool",
          "name": "",
          "type": "bool"
        }
      ],
      "stateMutability": "view",
      "type": "function"
    },
    {
      "inputs": [
        {
          "internalType": "address",
          "name": "_admin",
          "type": "address"
        }
      ],
      "name": "isLoanManager",
      "outputs": [
        {
          "internalType": "bool",
          "name": "",
          "type": "bool"
        }
      ],
      "stateMutability": "view",
      "type": "function"
    },
    {
      "inputs": [
        {
          "internalType": "address",
          "name": "_admin",
          "type": "address"
        }
      ],
      "name": "isLoanManagerContract",
      "outputs": [
        {
          "internalType": "bool",
          "name": "",
          "type": "bool"
        }
      ],
      "stateMutability": "view",
      "type": "function"
    },
    {
      "inputs": [
        {
          "internalType": "address",
          "name": "_admin",
          "type": "address"
        }
      ],
      "name": "isProtocolManager",
      "outputs": [
        {
          "internalType": "bool",
          "name": "",
          "type": "bool"
        }
      ],
      "stateMutability": "view",
      "type": "function"
    },
    {
      "inputs": [
        {
          "internalType": "address",
          "name": "_admin",
          "type": "address"
        }
      ],
      "name": "isVaultManager",
      "outputs": [
        {
          "internalType": "bool",
          "name": "",
          "type": "bool"
        }
      ],
      "stateMutability": "view",
      "type": "function"
    },
    {
      "inputs": [
        {
          "internalType": "address",
          "name": "_admin",
          "type": "address"
        }
      ],
      "name": "isVaultManagerContract",
      "outputs": [
        {
          "internalType": "bool",
          "name": "",
          "type": "bool"
        }
      ],
      "stateMutability": "view",
      "type": "function"
    },
    {
      "inputs": [
        {
          "internalType": "bytes32",
          "name": "role",
          "type": "bytes32"
        },
        {
          "internalType": "address",
          "name": "account",
          "type": "address"
        }
      ],
      "name": "renounceRole",
      "outputs": [],
      "stateMutability": "nonpayable",
      "type": "function"
    },
    {
      "inputs": [
        {
          "internalType": "bytes32",
          "name": "role",
          "type": "bytes32"
        },
        {
          "internalType": "address",
          "name": "account",
          "type": "address"
        }
      ],
      "name": "revokeRole",
      "outputs": [],
      "stateMutability": "nonpayable",
      "type": "function"
    },
    {
      "inputs": [
        {
          "internalType": "bytes4",
          "name": "interfaceId",
          "type": "bytes4"
        }
      ],
      "name": "supportsInterface",
      "outputs": [
        {
          "internalType": "bool",
          "name": "",
          "type": "bool"
        }
      ],
      "stateMutability": "view",
      "type": "function"
    }
  ],
  "transactionHash": "0x284740e8fe63d77894a7cc19683a6d66eb992d26ded1c3ca3ba1f3c89a750e5e",
  "args": [
    "0x4C616d9377Fa8d928385F0b11Ab16D4bf0f2d544"
  ],
  "numDeployments": 1,
  "solcInputHash": "36c545191a21c01ad4cdfe8c379680b1",
  "bytecode": "0x608060405234801561001057600080fd5b5060405161107938038061107983398101604081905261002f916100ec565b61003a600082610040565b5061011c565b61004a828261004e565b5050565b6000828152602081815260408083206001600160a01b038516845290915290205460ff1661004a576000828152602081815260408083206001600160a01b03851684529091529020805460ff191660011790556100a83390565b6001600160a01b0316816001600160a01b0316837f2f8788117e7eff1d82e926ec794901d17c78024a50270940304540a733656f0d60405160405180910390a45050565b6000602082840312156100fe57600080fd5b81516001600160a01b038116811461011557600080fd5b9392505050565b610f4e8061012b6000396000f3fe608060405234801561001057600080fd5b50600436106101c45760003560e01c806395b32a66116100f9578063af21b83811610097578063df89b34411610071578063df89b34414610443578063e9daac8814610456578063f4070e2d1461047d578063fa7b2aed1461049057600080fd5b8063af21b838146103e2578063d547741f14610409578063daf5f6781461041c57600080fd5b8063a900e339116100d3578063a900e33914610382578063a9bf2d7714610395578063abd02480146103a8578063add31ed7146103bb57600080fd5b806395b32a6614610340578063a10812a714610353578063a217fddf1461037a57600080fd5b806334d02db411610166578063423955161161014057806342395516146102d0578063676a553e146102e35780637acd93c6146102f657806391d148541461030957600080fd5b806334d02db41461029757806336568abe146102aa57806338e6026d146102bd57600080fd5b8063248a9ca3116101a2578063248a9ca3146102195780632615765a1461024a5780632cf89b6e146102715780632f2ff15d1461028457600080fd5b80630118e3fb146101c957806301ffc9a7146101de5780631f77f8c614610206575b600080fd5b6101dc6101d7366004610d02565b6104b7565b005b6101f16101ec366004610d1d565b6104e4565b60405190151581526020015b60405180910390f35b6101f1610214366004610d02565b61057d565b61023c610227366004610d5f565b60009081526020819052604090206001015490565b6040519081526020016101fd565b61023c7fb300c03ba420ab9d0241a6226a6dfed8a9649924028cac75820473dd59fe69ac81565b6101f161027f366004610d02565b6105bd565b6101dc610292366004610d78565b6105fd565b6101dc6102a5366004610d02565b610628565b6101dc6102b8366004610d78565b610652565b6101dc6102cb366004610d02565b6106e3565b6101dc6102de366004610d02565b61070d565b6101f16102f1366004610d02565b610737565b6101dc610304366004610d02565b610777565b6101f1610317366004610d78565b6000918252602082815260408084206001600160a01b0393909316845291905290205460ff1690565b6101f161034e366004610d02565b6107a1565b61023c7f7752c70e91cde7a03c746a15fae3fee7c5f52190a95e0c1d7dec3728d8d0083d81565b61023c600081565b6101dc610390366004610d02565b6107e1565b6101dc6103a3366004610d02565b61080b565b6101f16103b6366004610d02565b610835565b61023c7f52ca3a89cb62208d131882b193483d01b3944d11adafdf7c1a0404041271cd3e81565b61023c7f4e9ffdddc97f584b139425ce5ef330e87394004074fd26a145a5b2c82f0c044c81565b6101dc610417366004610d78565b610875565b61023c7f0ca2bc107a02999282a3ef2016fd3d5ca1b04101c59c5d737c6399ee8d9afea481565b6101f1610451366004610d02565b61089b565b61023c7f4f0af8ee4e6376c93b7de9e82112287aea6d1bce5463866f7b2754dd42e667c681565b6101f161048b366004610d02565b6108db565b61023c7f72c7f4a47c3f5118529ebea8fda4467f6767ac1cedd3cf4d84a5f767727fc37681565b6104e17f4e9ffdddc97f584b139425ce5ef330e87394004074fd26a145a5b2c82f0c044c826105fd565b50565b60007fffffffff0000000000000000000000000000000000000000000000000000000082167f7965db0b00000000000000000000000000000000000000000000000000000000148061057757507f01ffc9a7000000000000000000000000000000000000000000000000000000007fffffffff000000000000000000000000000000000000000000000000000000008316145b92915050565b6001600160a01b03811660009081527f49ba37064550f33943c64dbd1b5cafaab3027d03d669a8f3770f9d7a7347b91b602052604081205460ff16610577565b6001600160a01b03811660009081527f48f7c2e6488666d70216995eb0e2f59eb3246644a0a4d5a7ba74fbfa0ce503be602052604081205460ff16610577565b600082815260208190526040902060010154610619813361091b565b6106238383610999565b505050565b6104e17f52ca3a89cb62208d131882b193483d01b3944d11adafdf7c1a0404041271cd3e826105fd565b6001600160a01b03811633146106d55760405162461bcd60e51b815260206004820152602f60248201527f416363657373436f6e74726f6c3a2063616e206f6e6c792072656e6f756e636560448201527f20726f6c657320666f722073656c66000000000000000000000000000000000060648201526084015b60405180910390fd5b6106df8282610a37565b5050565b6104e17f7752c70e91cde7a03c746a15fae3fee7c5f52190a95e0c1d7dec3728d8d0083d826105fd565b6104e17f72c7f4a47c3f5118529ebea8fda4467f6767ac1cedd3cf4d84a5f767727fc376826105fd565b6001600160a01b03811660009081527f0de1aeb3b646fc1f4346db6d518f1cf63bcef54fc20b3544a2a409f67ee3bddd602052604081205460ff16610577565b6104e17fb300c03ba420ab9d0241a6226a6dfed8a9649924028cac75820473dd59fe69ac826105fd565b6001600160a01b03811660009081527fd674d712573ad24f1ab7e5457a9fd24af1adc8ab0e260355fd53d6cb35fb1699602052604081205460ff16610577565b6104e17f4f0af8ee4e6376c93b7de9e82112287aea6d1bce5463866f7b2754dd42e667c6826105fd565b6104e17f0ca2bc107a02999282a3ef2016fd3d5ca1b04101c59c5d737c6399ee8d9afea4826105fd565b6001600160a01b03811660009081527f771f2f888232540975b578a0ace29167d2b2837b6299f5fdb024e427d29104f9602052604081205460ff16610577565b600082815260208190526040902060010154610891813361091b565b6106238383610a37565b6001600160a01b03811660009081527ff3dfca9f01a4671c76f8a287baaa007c3dfadac515d107a5cdc4f02253cc0fd8602052604081205460ff16610577565b6001600160a01b03811660009081527fda397dc7f2f185f51bb1554cbe76a86098fdf0b2aeccf97ffc1099406c75cb6e602052604081205460ff16610577565b6000828152602081815260408083206001600160a01b038516845290915290205460ff166106df57610957816001600160a01b03166014610ab6565b610962836020610ab6565b604051602001610973929190610dd4565b60408051601f198184030181529082905262461bcd60e51b82526106cc91600401610e55565b6000828152602081815260408083206001600160a01b038516845290915290205460ff166106df576000828152602081815260408083206001600160a01b03851684529091529020805460ff191660011790556109f33390565b6001600160a01b0316816001600160a01b0316837f2f8788117e7eff1d82e926ec794901d17c78024a50270940304540a733656f0d60405160405180910390a45050565b6000828152602081815260408083206001600160a01b038516845290915290205460ff16156106df576000828152602081815260408083206001600160a01b0385168085529252808320805460ff1916905551339285917ff6391f5c32d9c69d2a47ea670b442974b53935d1edc7fd64eb21e047a839171b9190a45050565b60606000610ac5836002610e9e565b610ad0906002610ebd565b67ffffffffffffffff811115610ae857610ae8610ed5565b6040519080825280601f01601f191660200182016040528015610b12576020820181803683370190505b5090507f300000000000000000000000000000000000000000000000000000000000000081600081518110610b4957610b49610eeb565b60200101907effffffffffffffffffffffffffffffffffffffffffffffffffffffffffffff1916908160001a9053507f780000000000000000000000000000000000000000000000000000000000000081600181518110610bac57610bac610eeb565b60200101907effffffffffffffffffffffffffffffffffffffffffffffffffffffffffffff1916908160001a9053506000610be8846002610e9e565b610bf3906001610ebd565b90505b6001811115610c90577f303132333435363738396162636465660000000000000000000000000000000085600f1660108110610c3457610c34610eeb565b1a60f81b828281518110610c4a57610c4a610eeb565b60200101907effffffffffffffffffffffffffffffffffffffffffffffffffffffffffffff1916908160001a90535060049490941c93610c8981610f01565b9050610bf6565b508315610cdf5760405162461bcd60e51b815260206004820181905260248201527f537472696e67733a20686578206c656e67746820696e73756666696369656e7460448201526064016106cc565b9392505050565b80356001600160a01b0381168114610cfd57600080fd5b919050565b600060208284031215610d1457600080fd5b610cdf82610ce6565b600060208284031215610d2f57600080fd5b81357fffffffff0000000000000000000000000000000000000000000000000000000081168114610cdf57600080fd5b600060208284031215610d7157600080fd5b5035919050565b60008060408385031215610d8b57600080fd5b82359150610d9b60208401610ce6565b90509250929050565b60005b83811015610dbf578181015183820152602001610da7565b83811115610dce576000848401525b50505050565b7f416363657373436f6e74726f6c3a206163636f756e7420000000000000000000815260008351610e0c816017850160208801610da4565b7f206973206d697373696e6720726f6c65200000000000000000000000000000006017918401918201528351610e49816028840160208801610da4565b01602801949350505050565b6020815260008251806020840152610e74816040850160208701610da4565b601f01601f19169190910160400192915050565b634e487b7160e01b600052601160045260246000fd5b6000816000190483118215151615610eb857610eb8610e88565b500290565b60008219821115610ed057610ed0610e88565b500190565b634e487b7160e01b600052604160045260246000fd5b634e487b7160e01b600052603260045260246000fd5b600081610f1057610f10610e88565b50600019019056fea2646970667358221220627d09e364b276a819d9f7a44de25b3f6833488394bb115a5fd13ece7c2004de64736f6c63430008090033",
  "devdoc": {
    "kind": "dev",
    "methods": {
      "getRoleAdmin(bytes32)": {
        "details": "Returns the admin role that controls `role`. See {grantRole} and {revokeRole}. To change a role's admin, use {_setRoleAdmin}."
      },
      "grantRole(bytes32,address)": {
        "details": "Grants `role` to `account`. If `account` had not been already granted `role`, emits a {RoleGranted} event. Requirements: - the caller must have ``role``'s admin role."
      },
      "hasRole(bytes32,address)": {
        "details": "Returns `true` if `account` has been granted `role`."
      },
      "renounceRole(bytes32,address)": {
        "details": "Revokes `role` from the calling account. Roles are often managed via {grantRole} and {revokeRole}: this function's purpose is to provide a mechanism for accounts to lose their privileges if they are compromised (such as when a trusted device is misplaced). If the calling account had been revoked `role`, emits a {RoleRevoked} event. Requirements: - the caller must be `account`."
      },
      "revokeRole(bytes32,address)": {
        "details": "Revokes `role` from `account`. If `account` had been granted `role`, emits a {RoleRevoked} event. Requirements: - the caller must have ``role``'s admin role."
      },
      "supportsInterface(bytes4)": {
        "details": "See {IERC165-supportsInterface}."
      }
    },
    "version": 1
  },
  "userdoc": {
    "kind": "user",
    "methods": {},
    "version": 1
  },
  "storageLayout": {
    "storage": [
      {
        "astId": 20579,
        "contract": "contracts/component/infra/ACLManager.sol:ACLManager",
        "label": "_roles",
        "offset": 0,
        "slot": "0",
        "type": "t_mapping(t_bytes32,t_struct(RoleData)20574_storage)"
      }
    ],
    "types": {
      "t_address": {
        "encoding": "inplace",
        "label": "address",
        "numberOfBytes": "20"
      },
      "t_bool": {
        "encoding": "inplace",
        "label": "bool",
        "numberOfBytes": "1"
      },
      "t_bytes32": {
        "encoding": "inplace",
        "label": "bytes32",
        "numberOfBytes": "32"
      },
      "t_mapping(t_address,t_bool)": {
        "encoding": "mapping",
        "key": "t_address",
        "label": "mapping(address => bool)",
        "numberOfBytes": "32",
        "value": "t_bool"
      },
      "t_mapping(t_bytes32,t_struct(RoleData)20574_storage)": {
        "encoding": "mapping",
        "key": "t_bytes32",
        "label": "mapping(bytes32 => struct AccessControl.RoleData)",
        "numberOfBytes": "32",
        "value": "t_struct(RoleData)20574_storage"
      },
      "t_struct(RoleData)20574_storage": {
        "encoding": "inplace",
        "label": "struct AccessControl.RoleData",
        "members": [
          {
            "astId": 20571,
            "contract": "contracts/component/infra/ACLManager.sol:ACLManager",
            "label": "members",
            "offset": 0,
            "slot": "0",
            "type": "t_mapping(t_address,t_bool)"
          },
          {
            "astId": 20573,
            "contract": "contracts/component/infra/ACLManager.sol:ACLManager",
            "label": "adminRole",
            "offset": 0,
            "slot": "1",
            "type": "t_bytes32"
          }
        ],
        "numberOfBytes": "64"
      }
    }
  }
}