{
  "address": "0x903dC8dD76FEa6fEB1035b577517BA015083AdE6",
  "abi": [
    {
      "anonymous": false,
      "inputs": [
        {
          "indexed": true,
          "internalType": "address",
          "name": "previousOwner",
          "type": "address"
        },
        {
          "indexed": true,
          "internalType": "address",
          "name": "newOwner",
          "type": "address"
        }
      ],
      "name": "OwnershipTransferred",
      "type": "event"
    },
    {
      "anonymous": false,
      "inputs": [
        {
          "indexed": false,
          "internalType": "contract Proxyable",
          "name": "newTarget",
          "type": "address"
        }
      ],
      "name": "TargetUpdated",
      "type": "event"
    },
    {
      "stateMutability": "payable",
      "type": "fallback"
    },
    {
      "inputs": [
        {
          "internalType": "bytes",
          "name": "callData",
          "type": "bytes"
        },
        {
          "internalType": "uint256",
          "name": "numTopics",
          "type": "uint256"
        },
        {
          "internalType": "bytes32",
          "name": "topic1",
          "type": "bytes32"
        },
        {
          "internalType": "bytes32",
          "name": "topic2",
          "type": "bytes32"
        },
        {
          "internalType": "bytes32",
          "name": "topic3",
          "type": "bytes32"
        },
        {
          "internalType": "bytes32",
          "name": "topic4",
          "type": "bytes32"
        }
      ],
      "name": "_emit",
      "outputs": [],
      "stateMutability": "nonpayable",
      "type": "function"
    },
    {
      "inputs": [],
      "name": "_onlyAuthorized",
      "outputs": [],
      "stateMutability": "nonpayable",
      "type": "function"
    },
    {
      "inputs": [],
      "name": "claimOwnership",
      "outputs": [],
      "stateMutability": "nonpayable",
      "type": "function"
    },
    {
      "inputs": [],
      "name": "isOwner",
      "outputs": [
        {
          "internalType": "bool",
          "name": "",
          "type": "bool"
        }
      ],
      "stateMutability": "view",
      "type": "function"
    },
    {
      "inputs": [
        {
          "internalType": "address",
          "name": "_address",
          "type": "address"
        }
      ],
      "name": "isWhitelistedAddress",
      "outputs": [
        {
          "internalType": "bool",
          "name": "",
          "type": "bool"
        }
      ],
      "stateMutability": "view",
      "type": "function"
    },
    {
      "inputs": [
        {
          "internalType": "bytes32",
          "name": "_func",
          "type": "bytes32"
        }
      ],
      "name": "isWhitelistedFunction",
      "outputs": [
        {
          "internalType": "bool",
          "name": "",
          "type": "bool"
        }
      ],
      "stateMutability": "view",
      "type": "function"
    },
    {
      "inputs": [],
      "name": "owner",
      "outputs": [
        {
          "internalType": "address",
          "name": "",
          "type": "address"
        }
      ],
      "stateMutability": "view",
      "type": "function"
    },
    {
      "inputs": [],
      "name": "pendingOwner",
      "outputs": [
        {
          "internalType": "address",
          "name": "",
          "type": "address"
        }
      ],
      "stateMutability": "view",
      "type": "function"
    },
    {
      "inputs": [
        {
          "internalType": "contract Proxyable",
          "name": "_target",
          "type": "address"
        }
      ],
      "name": "setTarget",
      "outputs": [],
      "stateMutability": "nonpayable",
      "type": "function"
    },
    {
      "inputs": [],
      "name": "target",
      "outputs": [
        {
          "internalType": "contract Proxyable",
          "name": "",
          "type": "address"
        }
      ],
      "stateMutability": "view",
      "type": "function"
    },
    {
      "inputs": [
        {
          "internalType": "address",
          "name": "newOwner",
          "type": "address"
        }
      ],
      "name": "transferOwnership",
      "outputs": [],
      "stateMutability": "nonpayable",
      "type": "function"
    }
  ],
  "transactionHash": "0x411117a399bd867c9a3c0d683459010b1cfb555e50360b78cb1619268b36221a",
  "args": [],
  "numDeployments": 1,
  "solcInputHash": "5581b7bd0906416eb346441aec54c4cd",
  "bytecode": "0x608060405234801561001057600080fd5b50600080546001600160a01b0319163390811782556040519091907f8be0079c531659141344cd1fd0a4f28419497f9722a3daafe3b4186f6b6457e0908290a3610cfb8061005f6000396000f3fe6080604052600436106100bc5760003560e01c80638f32d59b11610074578063e30c39781161004e578063e30c397814610284578063e4503e04146102a4578063f2fde38b146102b9576100bc565b80638f32d59b14610224578063907dff9714610244578063d4b8399214610264576100bc565b80635fae0576116100a55780635fae0576146101ac578063776d1a01146101cc5780638da5cb5b146101ec576100bc565b8063128358c5146101605780634e71e0c814610195575b6100c46102d9565b6002546040517fbc67f8320000000000000000000000000000000000000000000000000000000081523360048201526001600160a01b039091169063bc67f83290602401600060405180830381600087803b15801561012257600080fd5b505af1158015610136573d6000803e3d6000fd5b5050505060405136600082376000803683346002545af13d6000833e8061015b573d82fd5b503d81f35b34801561016c57600080fd5b5061018061017b366004610b98565b6107d6565b60405190151581526020015b60405180910390f35b3480156101a157600080fd5b506101aa610873565b005b3480156101b857600080fd5b506101806101c7366004610bc9565b6108fb565b3480156101d857600080fd5b506101aa6101e7366004610bc9565b610947565b3480156101f857600080fd5b5060005461020c906001600160a01b031681565b6040516001600160a01b03909116815260200161018c565b34801561023057600080fd5b506000546001600160a01b03163314610180565b34801561025057600080fd5b506101aa61025f366004610bed565b610a02565b34801561027057600080fd5b5060025461020c906001600160a01b031681565b34801561029057600080fd5b5060015461020c906001600160a01b031681565b3480156102b057600080fd5b506101aa6102d9565b3480156102c557600080fd5b506101aa6102d4366004610bc9565b610b0f565b600254604080517ff448e14000000000000000000000000000000000000000000000000000000000815290516000926001600160a01b03169163f448e140916004808301926020929190829003018186803b15801561033757600080fd5b505afa15801561034b573d6000803e3d6000fd5b505050506040513d601f19601f8201168201806040525081019061036f9190610c86565b90506000600260009054906101000a90046001600160a01b03166001600160a01b031663f448e1406040518163ffffffff1660e01b815260040160206040518083038186803b1580156103c157600080fd5b505afa1580156103d5573d6000803e3d6000fd5b505050506040513d601f19601f820116820180604052508101906103f99190610c86565b6001600160a01b03166305a2ee2a6040518163ffffffff1660e01b815260040160206040518083038186803b15801561043157600080fd5b505afa158015610445573d6000803e3d6000fd5b505050506040513d601f19601f820116820180604052508101906104699190610c86565b6001600160a01b031663c2c855c26040518163ffffffff1660e01b815260040160206040518083038186803b1580156104a157600080fd5b505afa1580156104b5573d6000803e3d6000fd5b505050506040513d601f19601f820116820180604052508101906104d99190610c86565b9050600260009054906101000a90046001600160a01b03166001600160a01b031663f448e1406040518163ffffffff1660e01b815260040160206040518083038186803b15801561052957600080fd5b505afa15801561053d573d6000803e3d6000fd5b505050506040513d601f19601f820116820180604052508101906105619190610c86565b6001600160a01b03166305a2ee2a6040518163ffffffff1660e01b815260040160206040518083038186803b15801561059957600080fd5b505afa1580156105ad573d6000803e3d6000fd5b505050506040513d601f19601f820116820180604052508101906105d19190610c86565b6001600160a01b031663de5185e26040518163ffffffff1660e01b815260040160206040518083038186803b15801561060957600080fd5b505afa15801561061d573d6000803e3d6000fd5b505050506040513d601f19601f820116820180604052508101906106419190610c86565b6001600160a01b0316336001600160a01b031614806106eb57506040517fdf89b3440000000000000000000000000000000000000000000000000000000081523360048201526001600160a01b0382169063df89b3449060240160206040518083038186803b1580156106b357600080fd5b505afa1580156106c7573d6000803e3d6000fd5b505050506040513d601f19601f820116820180604052508101906106eb9190610ca3565b8061078157506040517ff4070e2d0000000000000000000000000000000000000000000000000000000081523360048201526001600160a01b0382169063f4070e2d9060240160206040518083038186803b15801561074957600080fd5b505afa15801561075d573d6000803e3d6000fd5b505050506040513d601f19601f820116820180604052508101906107819190610ca3565b6107d25760405162461bcd60e51b815260206004820152601e60248201527f566f7961676572206f722061646d696e206f6e6c792066756e6374696f6e000060448201526064015b60405180910390fd5b5050565b6002546040517f128358c5000000000000000000000000000000000000000000000000000000008152600481018390526000916001600160a01b03169063128358c5906024015b60206040518083038186803b15801561083557600080fd5b505afa158015610849573d6000803e3d6000fd5b505050506040513d601f19601f8201168201806040525081019061086d9190610ca3565b92915050565b6001546001600160a01b0316331461088a57600080fd5b600154600080546040516001600160a01b0393841693909116917f8be0079c531659141344cd1fd0a4f28419497f9722a3daafe3b4186f6b6457e091a3600180546000805473ffffffffffffffffffffffffffffffffffffffff199081166001600160a01b03841617909155169055565b6002546040517f5fae05760000000000000000000000000000000000000000000000000000000081526001600160a01b0383811660048301526000921690635fae05769060240161081d565b6000546001600160a01b031633146109a15760405162461bcd60e51b815260206004820181905260248201527f4f776e61626c653a2063616c6c6572206973206e6f7420746865206f776e657260448201526064016107c9565b6002805473ffffffffffffffffffffffffffffffffffffffff19166001600160a01b0383169081179091556040519081527f814250a3b8c79fcbe2ead2c131c952a278491c8f4322a79fe84b5040a810373e9060200160405180910390a150565b6002546001600160a01b03163314610a5c5760405162461bcd60e51b815260206004820152601460248201527f4d7573742062652070726f78792074617267657400000000000000000000000060448201526064016107c9565b604080516020601f89018190048102820181019092528781528791600091908a908490819084018382808284376000920191909152509293508992505081159050610ac65760018114610ad15760028114610add5760038114610aea5760048114610af857610b03565b8260208301a0610b03565b868360208401a1610b03565b85878460208501a2610b03565b8486888560208601a3610b03565b838587898660208701a45b50505050505050505050565b6000546001600160a01b03163314610b695760405162461bcd60e51b815260206004820181905260248201527f4f776e61626c653a2063616c6c6572206973206e6f7420746865206f776e657260448201526064016107c9565b6001805473ffffffffffffffffffffffffffffffffffffffff19166001600160a01b0392909216919091179055565b600060208284031215610baa57600080fd5b5035919050565b6001600160a01b0381168114610bc657600080fd5b50565b600060208284031215610bdb57600080fd5b8135610be681610bb1565b9392505050565b600080600080600080600060c0888a031215610c0857600080fd5b873567ffffffffffffffff80821115610c2057600080fd5b818a0191508a601f830112610c3457600080fd5b813581811115610c4357600080fd5b8b6020828501011115610c5557600080fd5b60209283019c909b50918a01359960408101359950606081013598506080810135975060a001359550909350505050565b600060208284031215610c9857600080fd5b8151610be681610bb1565b600060208284031215610cb557600080fd5b81518015158114610be657600080fdfea264697066735822122024d3bf90d50bfb3f977169b29a49b91eec1ba0fc5803da498b2225a1b32b400b64736f6c63430008090033",
  "devdoc": {
    "kind": "dev",
    "methods": {
      "claimOwnership()": {
        "details": "Allows the pendingOwner address to finalize the transfer."
      },
      "isOwner()": {
        "details": "Returns true if the caller is the current owner."
      },
      "transferOwnership(address)": {
        "details": "Allows the current owner to set the pendingOwner address.",
        "params": {
          "newOwner": "The address to transfer ownership to."
        }
      }
    },
    "version": 1
  },
  "userdoc": {
    "kind": "user",
    "methods": {},
    "version": 1
  },
  "storageLayout": {
    "storage": [
      {
        "astId": 11838,
        "contract": "contracts/libraries/acl/ExtCallACLProxy.sol:ExtCallACLProxy",
        "label": "owner",
        "offset": 0,
        "slot": "0",
        "type": "t_address"
      },
      {
        "astId": 11840,
        "contract": "contracts/libraries/acl/ExtCallACLProxy.sol:ExtCallACLProxy",
        "label": "pendingOwner",
        "offset": 0,
        "slot": "1",
        "type": "t_address"
      },
      {
        "astId": 11947,
        "contract": "contracts/libraries/acl/ExtCallACLProxy.sol:ExtCallACLProxy",
        "label": "target",
        "offset": 0,
        "slot": "2",
        "type": "t_contract(Proxyable)12220"
      }
    ],
    "types": {
      "t_address": {
        "encoding": "inplace",
        "label": "address",
        "numberOfBytes": "20"
      },
      "t_contract(Proxyable)12220": {
        "encoding": "inplace",
        "label": "contract Proxyable",
        "numberOfBytes": "20"
      }
    }
  }
}