{
  "address": "0x2Efb611097087CAc9BC8a220160170126C5263A5",
  "abi": [
    {
      "inputs": [
        {
          "internalType": "address payable",
          "name": "_proxy",
          "type": "address"
        }
      ],
      "stateMutability": "nonpayable",
      "type": "constructor"
    },
    {
      "anonymous": false,
      "inputs": [
        {
          "indexed": true,
          "internalType": "address",
          "name": "previousOwner",
          "type": "address"
        },
        {
          "indexed": true,
          "internalType": "address",
          "name": "newOwner",
          "type": "address"
        }
      ],
      "name": "OwnershipTransferred",
      "type": "event"
    },
    {
      "anonymous": false,
      "inputs": [
        {
          "indexed": false,
          "internalType": "address",
          "name": "proxyAddress",
          "type": "address"
        }
      ],
      "name": "ProxyUpdated",
      "type": "event"
    },
    {
      "inputs": [
        {
          "internalType": "address[]",
          "name": "_address",
          "type": "address[]"
        }
      ],
      "name": "blockAddress",
      "outputs": [],
      "stateMutability": "nonpayable",
      "type": "function"
    },
    {
      "inputs": [
        {
          "internalType": "bytes32[]",
          "name": "_func",
          "type": "bytes32[]"
        }
      ],
      "name": "blockFunction",
      "outputs": [],
      "stateMutability": "nonpayable",
      "type": "function"
    },
    {
      "inputs": [],
      "name": "claimOwnership",
      "outputs": [],
      "stateMutability": "nonpayable",
      "type": "function"
    },
    {
      "inputs": [],
      "name": "isOwner",
      "outputs": [
        {
          "internalType": "bool",
          "name": "",
          "type": "bool"
        }
      ],
      "stateMutability": "view",
      "type": "function"
    },
    {
      "inputs": [
        {
          "internalType": "address",
          "name": "_address",
          "type": "address"
        }
      ],
      "name": "isWhitelistedAddress",
      "outputs": [
        {
          "internalType": "bool",
          "name": "",
          "type": "bool"
        }
      ],
      "stateMutability": "view",
      "type": "function"
    },
    {
      "inputs": [
        {
          "internalType": "bytes32",
          "name": "_func",
          "type": "bytes32"
        }
      ],
      "name": "isWhitelistedFunction",
      "outputs": [
        {
          "internalType": "bool",
          "name": "",
          "type": "bool"
        }
      ],
      "stateMutability": "view",
      "type": "function"
    },
    {
      "inputs": [],
      "name": "messageSender",
      "outputs": [
        {
          "internalType": "address",
          "name": "",
          "type": "address"
        }
      ],
      "stateMutability": "view",
      "type": "function"
    },
    {
      "inputs": [],
      "name": "owner",
      "outputs": [
        {
          "internalType": "address",
          "name": "",
          "type": "address"
        }
      ],
      "stateMutability": "view",
      "type": "function"
    },
    {
      "inputs": [],
      "name": "pendingOwner",
      "outputs": [
        {
          "internalType": "address",
          "name": "",
          "type": "address"
        }
      ],
      "stateMutability": "view",
      "type": "function"
    },
    {
      "inputs": [],
      "name": "proxy",
      "outputs": [
        {
          "internalType": "contract Proxy",
          "name": "",
          "type": "address"
        }
      ],
      "stateMutability": "view",
      "type": "function"
    },
    {
      "inputs": [
        {
          "internalType": "address",
          "name": "sender",
          "type": "address"
        }
      ],
      "name": "setMessageSender",
      "outputs": [],
      "stateMutability": "nonpayable",
      "type": "function"
    },
    {
      "inputs": [
        {
          "internalType": "address payable",
          "name": "_proxy",
          "type": "address"
        }
      ],
      "name": "setProxy",
      "outputs": [],
      "stateMutability": "nonpayable",
      "type": "function"
    },
    {
      "inputs": [
        {
          "internalType": "address",
          "name": "newOwner",
          "type": "address"
        }
      ],
      "name": "transferOwnership",
      "outputs": [],
      "stateMutability": "nonpayable",
      "type": "function"
    },
    {
      "inputs": [
        {
          "internalType": "address[]",
          "name": "_address",
          "type": "address[]"
        }
      ],
      "name": "whitelistAddress",
      "outputs": [],
      "stateMutability": "nonpayable",
      "type": "function"
    },
    {
      "inputs": [
        {
          "internalType": "bytes32[]",
          "name": "_func",
          "type": "bytes32[]"
        }
      ],
      "name": "whitelistFunction",
      "outputs": [],
      "stateMutability": "nonpayable",
      "type": "function"
    },
    {
      "inputs": [
        {
          "internalType": "address",
          "name": "",
          "type": "address"
        }
      ],
      "name": "whitelistedAddress",
      "outputs": [
        {
          "internalType": "bool",
          "name": "",
          "type": "bool"
        }
      ],
      "stateMutability": "view",
      "type": "function"
    },
    {
      "inputs": [
        {
          "internalType": "bytes32",
          "name": "",
          "type": "bytes32"
        }
      ],
      "name": "whitelistedFunctions",
      "outputs": [
        {
          "internalType": "bool",
          "name": "",
          "type": "bool"
        }
      ],
      "stateMutability": "view",
      "type": "function"
    }
  ],
  "transactionHash": "0x06fffe05fb8b0aa9f23b75c1b365697072a00742aea9873a52fbbd926f54e354",
  "args": [
    "0x0ABC6E113431bc542B5eaBE361525e7cf7Aa718B"
  ],
  "numDeployments": 1,
  "solcInputHash": "902f31b946c244b011717de65d70d816",
  "bytecode": "0x608060405234801561001057600080fd5b506040516109ec3803806109ec83398101604081905261002f91610116565b600080546001600160a01b0319163390811782556040518392907f8be0079c531659141344cd1fd0a4f28419497f9722a3daafe3b4186f6b6457e0908290a36000546001600160a01b03166100be5760405162461bcd60e51b815260206004820152601160248201527013dddb995c881b5d5cdd081899481cd95d607a1b604482015260640160405180910390fd5b600280546001600160a01b0319166001600160a01b0383169081179091556040519081527ffc80377ca9c49cc11ae6982f390a42db976d5530af7c43889264b13fbbd7c57e9060200160405180910390a15050610146565b60006020828403121561012857600080fd5b81516001600160a01b038116811461013f57600080fd5b9392505050565b610897806101556000396000f3fe608060405234801561001057600080fd5b506004361061011b5760003560e01c80638f32d59b116100b2578063c30796ab11610081578063e30c397811610066578063e30c397814610297578063ec556889146102aa578063f2fde38b146102bd57600080fd5b8063c30796ab14610261578063d67bdd251461028457600080fd5b80638f32d59b1461021557806397107d6d14610228578063b31d61b01461023b578063bc67f8321461024e57600080fd5b80635fae0576116100ee5780635fae05761461018857806371224093146101b45780637b31d81a146101d75780638da5cb5b146101ea57600080fd5b8063128358c5146101205780631ad714841461015857806345e148791461016d5780634e71e0c814610180575b600080fd5b61014361012e3660046106ef565b60009081526005602052604090205460ff1690565b60405190151581526020015b60405180910390f35b61016b610166366004610754565b6102d0565b005b61016b61017b366004610754565b610333565b61016b61039e565b6101436101963660046107ae565b6001600160a01b031660009081526004602052604090205460ff1690565b6101436101c23660046106ef565b60056020526000908152604090205460ff1681565b61016b6101e5366004610754565b610426565b6000546101fd906001600160a01b031681565b6040516001600160a01b03909116815260200161014f565b6000546001600160a01b03163314610143565b61016b6102363660046107ae565b610498565b61016b610249366004610754565b610558565b61016b61025c3660046107ae565b6105d3565b61014361026f3660046107ae565b60046020526000908152604090205460ff1681565b6003546101fd906001600160a01b031681565b6001546101fd906001600160a01b031681565b6002546101fd906001600160a01b031681565b61016b6102cb3660046107ae565b61060a565b6102d8610693565b8060005b8181101561032d57600560008585848181106102fa576102fa6107d2565b60209081029290920135835250810191909152604001600020805460ff191690558061032581610801565b9150506102dc565b50505050565b61033b610693565b8060005b8181101561032d5760016005600086868581811061035f5761035f6107d2565b90506020020135815260200190815260200160002060006101000a81548160ff021916908315150217905550808061039690610801565b91505061033f565b6001546001600160a01b031633146103b557600080fd5b600154600080546040516001600160a01b0393841693909116917f8be0079c531659141344cd1fd0a4f28419497f9722a3daafe3b4186f6b6457e091a3600180546000805473ffffffffffffffffffffffffffffffffffffffff199081166001600160a01b03841617909155169055565b61042e610693565b8060005b8181101561032d5760046000858584818110610450576104506107d2565b905060200201602081019061046591906107ae565b6001600160a01b031681526020810191909152604001600020805460ff191690558061049081610801565b915050610432565b6000546001600160a01b031633146104f75760405162461bcd60e51b815260206004820181905260248201527f4f776e61626c653a2063616c6c6572206973206e6f7420746865206f776e657260448201526064015b60405180910390fd5b6002805473ffffffffffffffffffffffffffffffffffffffff19166001600160a01b0383169081179091556040519081527ffc80377ca9c49cc11ae6982f390a42db976d5530af7c43889264b13fbbd7c57e9060200160405180910390a150565b610560610693565b8060005b8181101561032d57600160046000868685818110610584576105846107d2565b905060200201602081019061059991906107ae565b6001600160a01b031681526020810191909152604001600020805460ff1916911515919091179055806105cb81610801565b915050610564565b6105db610693565b6003805473ffffffffffffffffffffffffffffffffffffffff19166001600160a01b0392909216919091179055565b6000546001600160a01b031633146106645760405162461bcd60e51b815260206004820181905260248201527f4f776e61626c653a2063616c6c6572206973206e6f7420746865206f776e657260448201526064016104ee565b6001805473ffffffffffffffffffffffffffffffffffffffff19166001600160a01b0392909216919091179055565b6002546001600160a01b031633146106ed5760405162461bcd60e51b815260206004820152601760248201527f4f6e6c79207468652070726f78792063616e2063616c6c00000000000000000060448201526064016104ee565b565b60006020828403121561070157600080fd5b5035919050565b60008083601f84011261071a57600080fd5b50813567ffffffffffffffff81111561073257600080fd5b6020830191508360208260051b850101111561074d57600080fd5b9250929050565b6000806020838503121561076757600080fd5b823567ffffffffffffffff81111561077e57600080fd5b61078a85828601610708565b90969095509350505050565b6001600160a01b03811681146107ab57600080fd5b50565b6000602082840312156107c057600080fd5b81356107cb81610796565b9392505050565b7f4e487b7100000000000000000000000000000000000000000000000000000000600052603260045260246000fd5b60007fffffffffffffffffffffffffffffffffffffffffffffffffffffffffffffffff82141561085a577f4e487b7100000000000000000000000000000000000000000000000000000000600052601160045260246000fd5b506001019056fea2646970667358221220a0e87a40d8daec7587db90dfdf1c5eae09fe9246bd47d594e6d6107234ed08a964736f6c63430008090033",
  "devdoc": {
    "kind": "dev",
    "methods": {
      "claimOwnership()": {
        "details": "Allows the pendingOwner address to finalize the transfer."
      },
      "isOwner()": {
        "details": "Returns true if the caller is the current owner."
      },
      "transferOwnership(address)": {
        "details": "Allows the current owner to set the pendingOwner address.",
        "params": {
          "newOwner": "The address to transfer ownership to."
        }
      }
    },
    "version": 1
  },
  "userdoc": {
    "kind": "user",
    "methods": {},
    "version": 1
  },
  "storageLayout": {
    "storage": [
      {
        "astId": 9172,
        "contract": "contracts/libraries/acl/ExtCallACL.sol:ExtCallACL",
        "label": "owner",
        "offset": 0,
        "slot": "0",
        "type": "t_address"
      },
      {
        "astId": 9174,
        "contract": "contracts/libraries/acl/ExtCallACL.sol:ExtCallACL",
        "label": "pendingOwner",
        "offset": 0,
        "slot": "1",
        "type": "t_address"
      },
      {
        "astId": 9366,
        "contract": "contracts/libraries/acl/ExtCallACL.sol:ExtCallACL",
        "label": "proxy",
        "offset": 0,
        "slot": "2",
        "type": "t_contract(Proxy)9356"
      },
      {
        "astId": 9368,
        "contract": "contracts/libraries/acl/ExtCallACL.sol:ExtCallACL",
        "label": "messageSender",
        "offset": 0,
        "slot": "3",
        "type": "t_address"
      },
      {
        "astId": 7559,
        "contract": "contracts/libraries/acl/ExtCallACL.sol:ExtCallACL",
        "label": "whitelistedAddress",
        "offset": 0,
        "slot": "4",
        "type": "t_mapping(t_address,t_bool)"
      },
      {
        "astId": 7563,
        "contract": "contracts/libraries/acl/ExtCallACL.sol:ExtCallACL",
        "label": "whitelistedFunctions",
        "offset": 0,
        "slot": "5",
        "type": "t_mapping(t_bytes32,t_bool)"
      }
    ],
    "types": {
      "t_address": {
        "encoding": "inplace",
        "label": "address",
        "numberOfBytes": "20"
      },
      "t_bool": {
        "encoding": "inplace",
        "label": "bool",
        "numberOfBytes": "1"
      },
      "t_bytes32": {
        "encoding": "inplace",
        "label": "bytes32",
        "numberOfBytes": "32"
      },
      "t_contract(Proxy)9356": {
        "encoding": "inplace",
        "label": "contract Proxy",
        "numberOfBytes": "20"
      },
      "t_mapping(t_address,t_bool)": {
        "encoding": "mapping",
        "key": "t_address",
        "label": "mapping(address => bool)",
        "numberOfBytes": "32",
        "value": "t_bool"
      },
      "t_mapping(t_bytes32,t_bool)": {
        "encoding": "mapping",
        "key": "t_bytes32",
        "label": "mapping(bytes32 => bool)",
        "numberOfBytes": "32",
        "value": "t_bool"
      }
    }
  }
}