{
  "address": "0x483AD50D78A54AbBb139eECA7F3A99ABb480a371",
  "abi": [
    {
      "anonymous": false,
      "inputs": [
        {
          "indexed": true,
          "internalType": "address",
          "name": "previousOwner",
          "type": "address"
        },
        {
          "indexed": true,
          "internalType": "address",
          "name": "newOwner",
          "type": "address"
        }
      ],
      "name": "OwnershipTransferred",
      "type": "event"
    },
    {
      "anonymous": false,
      "inputs": [
        {
          "indexed": false,
          "internalType": "contract Proxyable",
          "name": "newTarget",
          "type": "address"
        }
      ],
      "name": "TargetUpdated",
      "type": "event"
    },
    {
      "stateMutability": "payable",
      "type": "fallback"
    },
    {
      "inputs": [
        {
          "internalType": "bytes",
          "name": "callData",
          "type": "bytes"
        },
        {
          "internalType": "uint256",
          "name": "numTopics",
          "type": "uint256"
        },
        {
          "internalType": "bytes32",
          "name": "topic1",
          "type": "bytes32"
        },
        {
          "internalType": "bytes32",
          "name": "topic2",
          "type": "bytes32"
        },
        {
          "internalType": "bytes32",
          "name": "topic3",
          "type": "bytes32"
        },
        {
          "internalType": "bytes32",
          "name": "topic4",
          "type": "bytes32"
        }
      ],
      "name": "_emit",
      "outputs": [],
      "stateMutability": "nonpayable",
      "type": "function"
    },
    {
      "inputs": [],
      "name": "claimOwnership",
      "outputs": [],
      "stateMutability": "nonpayable",
      "type": "function"
    },
    {
      "inputs": [],
      "name": "isOwner",
      "outputs": [
        {
          "internalType": "bool",
          "name": "",
          "type": "bool"
        }
      ],
      "stateMutability": "view",
      "type": "function"
    },
    {
      "inputs": [
        {
          "internalType": "address",
          "name": "_address",
          "type": "address"
        }
      ],
      "name": "isWhitelistedAddress",
      "outputs": [
        {
          "internalType": "bool",
          "name": "",
          "type": "bool"
        }
      ],
      "stateMutability": "view",
      "type": "function"
    },
    {
      "inputs": [
        {
          "internalType": "bytes32",
          "name": "_func",
          "type": "bytes32"
        }
      ],
      "name": "isWhitelistedFunction",
      "outputs": [
        {
          "internalType": "bool",
          "name": "",
          "type": "bool"
        }
      ],
      "stateMutability": "view",
      "type": "function"
    },
    {
      "inputs": [],
      "name": "owner",
      "outputs": [
        {
          "internalType": "address",
          "name": "",
          "type": "address"
        }
      ],
      "stateMutability": "view",
      "type": "function"
    },
    {
      "inputs": [],
      "name": "pendingOwner",
      "outputs": [
        {
          "internalType": "address",
          "name": "",
          "type": "address"
        }
      ],
      "stateMutability": "view",
      "type": "function"
    },
    {
      "inputs": [
        {
          "internalType": "contract Proxyable",
          "name": "_target",
          "type": "address"
        }
      ],
      "name": "setTarget",
      "outputs": [],
      "stateMutability": "nonpayable",
      "type": "function"
    },
    {
      "inputs": [],
      "name": "target",
      "outputs": [
        {
          "internalType": "contract Proxyable",
          "name": "",
          "type": "address"
        }
      ],
      "stateMutability": "view",
      "type": "function"
    },
    {
      "inputs": [
        {
          "internalType": "address",
          "name": "newOwner",
          "type": "address"
        }
      ],
      "name": "transferOwnership",
      "outputs": [],
      "stateMutability": "nonpayable",
      "type": "function"
    }
  ],
  "transactionHash": "0x0013d275c1d2682b261350448840c2b4d0dbb0349f0562170d916fda0e287543",
  "args": [],
  "numDeployments": 1,
  "solcInputHash": "d2a2165c33059d6b473aeb9d4558b15b",
  "bytecode": "0x608060405234801561001057600080fd5b50600080546001600160a01b0319163390811782556040519091907f8be0079c531659141344cd1fd0a4f28419497f9722a3daafe3b4186f6b6457e0908290a36107be8061005f6000396000f3fe6080604052600436106100b15760003560e01c80638f32d59b11610069578063d4b839921161004e578063d4b8399214610251578063e30c397814610271578063f2fde38b14610291576100b1565b80638f32d59b14610211578063907dff9714610231576100b1565b80635fae05761161009a5780635fae057614610199578063776d1a01146101b95780638da5cb5b146101d9576100b1565b8063128358c51461014d5780634e71e0c814610182575b6002546040517fbc67f8320000000000000000000000000000000000000000000000000000000081523360048201526001600160a01b039091169063bc67f83290602401600060405180830381600087803b15801561010f57600080fd5b505af1158015610123573d6000803e3d6000fd5b5050505060405136600082376000803683346002545af13d6000833e80610148573d82fd5b503d81f35b34801561015957600080fd5b5061016d610168366004610678565b6102b1565b60405190151581526020015b60405180910390f35b34801561018e57600080fd5b5061019761034e565b005b3480156101a557600080fd5b5061016d6101b43660046106a9565b6103d6565b3480156101c557600080fd5b506101976101d43660046106a9565b610422565b3480156101e557600080fd5b506000546101f9906001600160a01b031681565b6040516001600160a01b039091168152602001610179565b34801561021d57600080fd5b506000546001600160a01b0316331461016d565b34801561023d57600080fd5b5061019761024c3660046106cd565b6104e2565b34801561025d57600080fd5b506002546101f9906001600160a01b031681565b34801561027d57600080fd5b506001546101f9906001600160a01b031681565b34801561029d57600080fd5b506101976102ac3660046106a9565b6105ef565b6002546040517f128358c5000000000000000000000000000000000000000000000000000000008152600481018390526000916001600160a01b03169063128358c5906024015b60206040518083038186803b15801561031057600080fd5b505afa158015610324573d6000803e3d6000fd5b505050506040513d601f19601f820116820180604052508101906103489190610766565b92915050565b6001546001600160a01b0316331461036557600080fd5b600154600080546040516001600160a01b0393841693909116917f8be0079c531659141344cd1fd0a4f28419497f9722a3daafe3b4186f6b6457e091a3600180546000805473ffffffffffffffffffffffffffffffffffffffff199081166001600160a01b03841617909155169055565b6002546040517f5fae05760000000000000000000000000000000000000000000000000000000081526001600160a01b0383811660048301526000921690635fae0576906024016102f8565b6000546001600160a01b031633146104815760405162461bcd60e51b815260206004820181905260248201527f4f776e61626c653a2063616c6c6572206973206e6f7420746865206f776e657260448201526064015b60405180910390fd5b6002805473ffffffffffffffffffffffffffffffffffffffff19166001600160a01b0383169081179091556040519081527f814250a3b8c79fcbe2ead2c131c952a278491c8f4322a79fe84b5040a810373e9060200160405180910390a150565b6002546001600160a01b0316331461053c5760405162461bcd60e51b815260206004820152601460248201527f4d7573742062652070726f7879207461726765740000000000000000000000006044820152606401610478565b604080516020601f89018190048102820181019092528781528791600091908a9084908190840183828082843760009201919091525092935089925050811590506105a657600181146105b157600281146105bd57600381146105ca57600481146105d8576105e3565b8260208301a06105e3565b868360208401a16105e3565b85878460208501a26105e3565b8486888560208601a36105e3565b838587898660208701a45b50505050505050505050565b6000546001600160a01b031633146106495760405162461bcd60e51b815260206004820181905260248201527f4f776e61626c653a2063616c6c6572206973206e6f7420746865206f776e65726044820152606401610478565b6001805473ffffffffffffffffffffffffffffffffffffffff19166001600160a01b0392909216919091179055565b60006020828403121561068a57600080fd5b5035919050565b6001600160a01b03811681146106a657600080fd5b50565b6000602082840312156106bb57600080fd5b81356106c681610691565b9392505050565b600080600080600080600060c0888a0312156106e857600080fd5b873567ffffffffffffffff8082111561070057600080fd5b818a0191508a601f83011261071457600080fd5b81358181111561072357600080fd5b8b602082850101111561073557600080fd5b60209283019c909b50918a01359960408101359950606081013598506080810135975060a001359550909350505050565b60006020828403121561077857600080fd5b815180151581146106c657600080fdfea26469706673582212200d2db6ca0ef39fade4b59a43943517f31187d15d4732a11b93df4b05dc1f1bd664736f6c63430008090033",
  "devdoc": {
    "kind": "dev",
    "methods": {
      "claimOwnership()": {
        "details": "Allows the pendingOwner address to finalize the transfer."
      },
      "isOwner()": {
        "details": "Returns true if the caller is the current owner."
      },
      "transferOwnership(address)": {
        "details": "Allows the current owner to set the pendingOwner address.",
        "params": {
          "newOwner": "The address to transfer ownership to."
        }
      }
    },
    "version": 1
  },
  "userdoc": {
    "kind": "user",
    "methods": {},
    "version": 1
  },
  "storageLayout": {
    "storage": [
      {
        "astId": 10302,
        "contract": "contracts/libraries/acl/ExtCallACLProxy.sol:ExtCallACLProxy",
        "label": "owner",
        "offset": 0,
        "slot": "0",
        "type": "t_address"
      },
      {
        "astId": 10304,
        "contract": "contracts/libraries/acl/ExtCallACLProxy.sol:ExtCallACLProxy",
        "label": "pendingOwner",
        "offset": 0,
        "slot": "1",
        "type": "t_address"
      },
      {
        "astId": 10409,
        "contract": "contracts/libraries/acl/ExtCallACLProxy.sol:ExtCallACLProxy",
        "label": "target",
        "offset": 0,
        "slot": "2",
        "type": "t_contract(Proxyable)10618"
      }
    ],
    "types": {
      "t_address": {
        "encoding": "inplace",
        "label": "address",
        "numberOfBytes": "20"
      },
      "t_contract(Proxyable)10618": {
        "encoding": "inplace",
        "label": "contract Proxyable",
        "numberOfBytes": "20"
      }
    }
  }
}