{
  "address": "0x320E569dBB8d5F981d39670a7f75dAE251Cd17D5",
  "abi": [
    {
      "anonymous": false,
      "inputs": [
        {
          "indexed": true,
          "internalType": "address",
          "name": "previousOwner",
          "type": "address"
        },
        {
          "indexed": true,
          "internalType": "address",
          "name": "newOwner",
          "type": "address"
        }
      ],
      "name": "OwnershipTransferred",
      "type": "event"
    },
    {
      "anonymous": false,
      "inputs": [
        {
          "indexed": false,
          "internalType": "contract Proxyable",
          "name": "newTarget",
          "type": "address"
        }
      ],
      "name": "TargetUpdated",
      "type": "event"
    },
    {
      "stateMutability": "payable",
      "type": "fallback"
    },
    {
      "inputs": [
        {
          "internalType": "bytes",
          "name": "callData",
          "type": "bytes"
        },
        {
          "internalType": "uint256",
          "name": "numTopics",
          "type": "uint256"
        },
        {
          "internalType": "bytes32",
          "name": "topic1",
          "type": "bytes32"
        },
        {
          "internalType": "bytes32",
          "name": "topic2",
          "type": "bytes32"
        },
        {
          "internalType": "bytes32",
          "name": "topic3",
          "type": "bytes32"
        },
        {
          "internalType": "bytes32",
          "name": "topic4",
          "type": "bytes32"
        }
      ],
      "name": "_emit",
      "outputs": [],
      "stateMutability": "nonpayable",
      "type": "function"
    },
    {
      "inputs": [],
      "name": "claimOwnership",
      "outputs": [],
      "stateMutability": "nonpayable",
      "type": "function"
    },
    {
      "inputs": [
        {
          "internalType": "address",
          "name": "_reserve",
          "type": "address"
        }
      ],
      "name": "getConfiguration",
      "outputs": [
        {
          "components": [
            {
              "internalType": "uint256",
              "name": "data",
              "type": "uint256"
            }
          ],
          "internalType": "struct DataTypes.ReserveConfigurationMap",
          "name": "",
          "type": "tuple"
        }
      ],
      "stateMutability": "view",
      "type": "function"
    },
    {
      "inputs": [],
      "name": "getEscrowAddress",
      "outputs": [
        {
          "internalType": "address",
          "name": "",
          "type": "address"
        }
      ],
      "stateMutability": "view",
      "type": "function"
    },
    {
      "inputs": [
        {
          "internalType": "address",
          "name": "_asset",
          "type": "address"
        }
      ],
      "name": "getFlags",
      "outputs": [
        {
          "internalType": "bool",
          "name": "",
          "type": "bool"
        },
        {
          "internalType": "bool",
          "name": "",
          "type": "bool"
        },
        {
          "internalType": "bool",
          "name": "",
          "type": "bool"
        }
      ],
      "stateMutability": "view",
      "type": "function"
    },
    {
      "inputs": [
        {
          "internalType": "address",
          "name": "_reserve",
          "type": "address"
        },
        {
          "internalType": "enum ReserveLogic.Tranche",
          "name": "_tranche",
          "type": "uint8"
        }
      ],
      "name": "getLiquidityRate",
      "outputs": [
        {
          "internalType": "uint256",
          "name": "",
          "type": "uint256"
        }
      ],
      "stateMutability": "view",
      "type": "function"
    },
    {
      "inputs": [
        {
          "internalType": "address",
          "name": "_reserve",
          "type": "address"
        }
      ],
      "name": "getReserveData",
      "outputs": [
        {
          "components": [
            {
              "components": [
                {
                  "internalType": "uint256",
                  "name": "data",
                  "type": "uint256"
                }
              ],
              "internalType": "struct DataTypes.ReserveConfigurationMap",
              "name": "configuration",
              "type": "tuple"
            },
            {
              "internalType": "uint256",
              "name": "currentOverallLiquidityRate",
              "type": "uint256"
            },
            {
              "internalType": "uint256",
              "name": "currentSeniorIncomeAllocation",
              "type": "uint256"
            },
            {
              "internalType": "uint256",
              "name": "currentJuniorIncomeAllocation",
              "type": "uint256"
            },
            {
              "internalType": "uint256",
              "name": "juniorLiquidityIndex",
              "type": "uint256"
            },
            {
              "internalType": "uint256",
              "name": "seniorLiquidityIndex",
              "type": "uint256"
            },
            {
              "internalType": "uint256",
              "name": "totalBorrows",
              "type": "uint256"
            },
            {
              "internalType": "uint256",
              "name": "currentBorrowRate",
              "type": "uint256"
            },
            {
              "internalType": "uint256",
              "name": "securityRequirement",
              "type": "uint256"
            },
            {
              "internalType": "uint256",
              "name": "decimals",
              "type": "uint256"
            },
            {
              "internalType": "address",
              "name": "interestRateStrategyAddress",
              "type": "address"
            },
            {
              "internalType": "address",
              "name": "healthStrategyAddress",
              "type": "address"
            },
            {
              "internalType": "address",
              "name": "juniorDepositTokenAddress",
              "type": "address"
            },
            {
              "internalType": "address",
              "name": "seniorDepositTokenAddress",
              "type": "address"
            },
            {
              "internalType": "address",
              "name": "stableDebtAddress",
              "type": "address"
            },
            {
              "internalType": "uint40",
              "name": "juniorLastUpdateTimestamp",
              "type": "uint40"
            },
            {
              "internalType": "uint40",
              "name": "seniorLastUpdateTimestamp",
              "type": "uint40"
            }
          ],
          "internalType": "struct DataTypes.ReserveData",
          "name": "",
          "type": "tuple"
        }
      ],
      "stateMutability": "view",
      "type": "function"
    },
    {
      "inputs": [],
      "name": "getReserveList",
      "outputs": [
        {
          "internalType": "address[]",
          "name": "",
          "type": "address[]"
        }
      ],
      "stateMutability": "view",
      "type": "function"
    },
    {
      "inputs": [
        {
          "internalType": "address",
          "name": "_asset",
          "type": "address"
        },
        {
          "internalType": "enum ReserveLogic.Tranche",
          "name": "_tranche",
          "type": "uint8"
        }
      ],
      "name": "getReserveNormalizedIncome",
      "outputs": [
        {
          "internalType": "uint256",
          "name": "",
          "type": "uint256"
        }
      ],
      "stateMutability": "view",
      "type": "function"
    },
    {
      "inputs": [],
      "name": "isOwner",
      "outputs": [
        {
          "internalType": "bool",
          "name": "",
          "type": "bool"
        }
      ],
      "stateMutability": "view",
      "type": "function"
    },
    {
      "inputs": [],
      "name": "owner",
      "outputs": [
        {
          "internalType": "address",
          "name": "",
          "type": "address"
        }
      ],
      "stateMutability": "view",
      "type": "function"
    },
    {
      "inputs": [],
      "name": "pendingOwner",
      "outputs": [
        {
          "internalType": "address",
          "name": "",
          "type": "address"
        }
      ],
      "stateMutability": "view",
      "type": "function"
    },
    {
      "inputs": [
        {
          "internalType": "contract Proxyable",
          "name": "_target",
          "type": "address"
        }
      ],
      "name": "setTarget",
      "outputs": [],
      "stateMutability": "nonpayable",
      "type": "function"
    },
    {
      "inputs": [],
      "name": "target",
      "outputs": [
        {
          "internalType": "contract Proxyable",
          "name": "",
          "type": "address"
        }
      ],
      "stateMutability": "view",
      "type": "function"
    },
    {
      "inputs": [
        {
          "internalType": "address",
          "name": "newOwner",
          "type": "address"
        }
      ],
      "name": "transferOwnership",
      "outputs": [],
      "stateMutability": "nonpayable",
      "type": "function"
    }
  ],
  "transactionHash": "0x3a37a5d52bacc0719e24b6c47ee4e217ebb624c77059d01c866692075108ab10",
  "args": [],
  "numDeployments": 1,
  "solcInputHash": "05c39977b28574de0bf36f6a271259a2",
  "bytecode": "0x608060405234801561001057600080fd5b50600080546001600160a01b0319163390811782556040519091907f8be0079c531659141344cd1fd0a4f28419497f9722a3daafe3b4186f6b6457e0908290a36111658061005f6000396000f3fe6080604052600436106100e85760003560e01c8063817ad5d31161008a578063c44b11f711610059578063c44b11f714610334578063d4b8399214610363578063e30c397814610383578063f2fde38b146103a3576100e8565b8063817ad5d31461028a5780638da5cb5b146102c95780638f32d59b146102e9578063907dff9714610314576100e8565b80634e71e0c8116100c65780634e71e0c81461021157806366d4c41314610228578063776d1a011461024a578063776f68911461026a576100e8565b8063122fd48a14610184578063284592b2146101b657806335ea6a75146101e4575b6002546040517fbc67f8320000000000000000000000000000000000000000000000000000000081523360048201526001600160a01b039091169063bc67f83290602401600060405180830381600087803b15801561014657600080fd5b505af115801561015a573d6000803e3d6000fd5b5050505060405136600082376000803683346002545af13d6000833e8061017f573d82fd5b503d81f35b34801561019057600080fd5b506101996103c3565b6040516001600160a01b0390911681526020015b60405180910390f35b3480156101c257600080fd5b506101d66101d1366004610b59565b61045e565b6040519081526020016101ad565b3480156101f057600080fd5b506102046101ff366004610b96565b610501565b6040516101ad9190610bb3565b34801561021d57600080fd5b5061022661062e565b005b34801561023457600080fd5b5061023d6106b6565b6040516101ad9190610ca3565b34801561025657600080fd5b50610226610265366004610b96565b610750565b34801561027657600080fd5b506101d6610285366004610b59565b610810565b34801561029657600080fd5b506102aa6102a5366004610b96565b61085c565b60408051931515845291151560208401521515908201526060016101ad565b3480156102d557600080fd5b50600054610199906001600160a01b031681565b3480156102f557600080fd5b506000546001600160a01b0316331460405190151581526020016101ad565b34801561032057600080fd5b5061022661032f366004610cf0565b610906565b34801561034057600080fd5b5061035461034f366004610b96565b610a13565b604051905181526020016101ad565b34801561036f57600080fd5b50600254610199906001600160a01b031681565b34801561038f57600080fd5b50600154610199906001600160a01b031681565b3480156103af57600080fd5b506102266103be366004610b96565b610ab8565b600254604080517f122fd48a00000000000000000000000000000000000000000000000000000000815290516000926001600160a01b03169163122fd48a916004808301926020929190829003018186803b15801561042157600080fd5b505afa158015610435573d6000803e3d6000fd5b505050506040513d601f19601f820116820180604052508101906104599190610d99565b905090565b6002546040517f284592b20000000000000000000000000000000000000000000000000000000081526000916001600160a01b03169063284592b2906104aa9086908690600401610db6565b60206040518083038186803b1580156104c257600080fd5b505afa1580156104d6573d6000803e3d6000fd5b505050506040513d601f19601f820116820180604052508101906104fa9190610e0a565b9392505050565b604080516102408101825260006102208201818152825260208201819052918101829052606081018290526080810182905260a0810182905260c0810182905260e08101829052610100810182905261012081018290526101408101829052610160810182905261018081018290526101a081018290526101c081018290526101e081018290526102008101919091526002546040517f35ea6a750000000000000000000000000000000000000000000000000000000081526001600160a01b038481166004830152909116906335ea6a75906024016102206040518083038186803b1580156105f057600080fd5b505afa158015610604573d6000803e3d6000fd5b505050506040513d601f19601f820116820180604052508101906106289190610f04565b92915050565b6001546001600160a01b0316331461064557600080fd5b600154600080546040516001600160a01b0393841693909116917f8be0079c531659141344cd1fd0a4f28419497f9722a3daafe3b4186f6b6457e091a3600180546000805473ffffffffffffffffffffffffffffffffffffffff199081166001600160a01b03841617909155169055565b600254604080517f66d4c41300000000000000000000000000000000000000000000000000000000815290516060926001600160a01b0316916366d4c413916004808301926000929190829003018186803b15801561071457600080fd5b505afa158015610728573d6000803e3d6000fd5b505050506040513d6000823e601f3d908101601f19168201604052610459919081019061100e565b6000546001600160a01b031633146107af5760405162461bcd60e51b815260206004820181905260248201527f4f776e61626c653a2063616c6c6572206973206e6f7420746865206f776e657260448201526064015b60405180910390fd5b6002805473ffffffffffffffffffffffffffffffffffffffff19166001600160a01b0383169081179091556040519081527f814250a3b8c79fcbe2ead2c131c952a278491c8f4322a79fe84b5040a810373e9060200160405180910390a150565b6002546040517f776f68910000000000000000000000000000000000000000000000000000000081526000916001600160a01b03169063776f6891906104aa9086908690600401610db6565b6002546040517f817ad5d30000000000000000000000000000000000000000000000000000000081526001600160a01b038381166004830152600092839283929091169063817ad5d39060240160606040518083038186803b1580156108c157600080fd5b505afa1580156108d5573d6000803e3d6000fd5b505050506040513d601f19601f820116820180604052508101906108f991906110d0565b9250925092509193909250565b6002546001600160a01b031633146109605760405162461bcd60e51b815260206004820152601460248201527f4d7573742062652070726f78792074617267657400000000000000000000000060448201526064016107a6565b604080516020601f89018190048102820181019092528781528791600091908a9084908190840183828082843760009201919091525092935089925050811590506109ca57600181146109d557600281146109e157600381146109ee57600481146109fc57610a07565b8260208301a0610a07565b868360208401a1610a07565b85878460208501a2610a07565b8486888560208601a3610a07565b838587898660208701a45b50505050505050505050565b6040805160208101909152600081526002546040517fc44b11f70000000000000000000000000000000000000000000000000000000081526001600160a01b0384811660048301529091169063c44b11f79060240160206040518083038186803b158015610a8057600080fd5b505afa158015610a94573d6000803e3d6000fd5b505050506040513d601f19601f820116820180604052508101906106289190611113565b6000546001600160a01b03163314610b125760405162461bcd60e51b815260206004820181905260248201527f4f776e61626c653a2063616c6c6572206973206e6f7420746865206f776e657260448201526064016107a6565b6001805473ffffffffffffffffffffffffffffffffffffffff19166001600160a01b0392909216919091179055565b6001600160a01b0381168114610b5657600080fd5b50565b60008060408385031215610b6c57600080fd5b8235610b7781610b41565b9150602083013560028110610b8b57600080fd5b809150509250929050565b600060208284031215610ba857600080fd5b81356104fa81610b41565b815151815261022081016020830151602083015260408301516040830152606083015160608301526080830151608083015260a083015160a083015260c083015160c083015260e083015160e083015261010080840151818401525061012080840151818401525061014080840151610c36828501826001600160a01b03169052565b5050610160838101516001600160a01b0390811691840191909152610180808501518216908401526101a0808501518216908401526101c080850151909116908301526101e08084015164ffffffffff908116918401919091526102009384015116929091019190915290565b6020808252825182820181905260009190848201906040850190845b81811015610ce45783516001600160a01b031683529284019291840191600101610cbf565b50909695505050505050565b600080600080600080600060c0888a031215610d0b57600080fd5b873567ffffffffffffffff80821115610d2357600080fd5b818a0191508a601f830112610d3757600080fd5b813581811115610d4657600080fd5b8b6020828501011115610d5857600080fd5b60209283019c909b50918a01359960408101359950606081013598506080810135975060a001359550909350505050565b8051610d9481610b41565b919050565b600060208284031215610dab57600080fd5b81516104fa81610b41565b6001600160a01b03831681526040810160028310610dfd577f4e487b7100000000000000000000000000000000000000000000000000000000600052602160045260246000fd5b8260208301529392505050565b600060208284031215610e1c57600080fd5b5051919050565b7f4e487b7100000000000000000000000000000000000000000000000000000000600052604160045260246000fd5b604051610220810167ffffffffffffffff81118282101715610e7657610e76610e23565b60405290565b604051601f8201601f1916810167ffffffffffffffff81118282101715610ea557610ea5610e23565b604052919050565b600060208284031215610ebf57600080fd5b6040516020810181811067ffffffffffffffff82111715610ee257610ee2610e23565b6040529151825250919050565b805164ffffffffff81168114610d9457600080fd5b60006102208284031215610f1757600080fd5b610f1f610e52565b610f298484610ead565b81526020830151602082015260408301516040820152606083015160608201526080830151608082015260a083015160a082015260c083015160c082015260e083015160e0820152610100808401518183015250610120808401518183015250610140610f97818501610d89565b90820152610160610fa9848201610d89565b90820152610180610fbb848201610d89565b908201526101a0610fcd848201610d89565b908201526101c0610fdf848201610d89565b908201526101e0610ff1848201610eef565b90820152610200611003848201610eef565b908201529392505050565b6000602080838503121561102157600080fd5b825167ffffffffffffffff8082111561103957600080fd5b818501915085601f83011261104d57600080fd5b81518181111561105f5761105f610e23565b8060051b9150611070848301610e7c565b818152918301840191848101908884111561108a57600080fd5b938501935b838510156110b457845192506110a483610b41565b828252938501939085019061108f565b98975050505050505050565b80518015158114610d9457600080fd5b6000806000606084860312156110e557600080fd5b6110ee846110c0565b92506110fc602085016110c0565b915061110a604085016110c0565b90509250925092565b60006020828403121561112557600080fd5b6104fa8383610ead56fea2646970667358221220b532b096f9be1756efb42a8c07ee571241dbc05783a8f77f7cba23515461f2ce64736f6c63430008090033",
  "devdoc": {
    "kind": "dev",
    "methods": {
      "claimOwnership()": {
        "details": "Allows the pendingOwner address to finalize the transfer."
      },
      "isOwner()": {
        "details": "Returns true if the caller is the current owner."
      },
      "transferOwnership(address)": {
        "details": "Allows the current owner to set the pendingOwner address.",
        "params": {
          "newOwner": "The address to transfer ownership to."
        }
      }
    },
    "version": 1
  },
  "userdoc": {
    "kind": "user",
    "methods": {},
    "version": 1
  },
  "storageLayout": {
    "storage": [
      {
        "astId": 9179,
        "contract": "contracts/component/liquiditymanager/LiquidityManagerProxy.sol:LiquidityManagerProxy",
        "label": "owner",
        "offset": 0,
        "slot": "0",
        "type": "t_address"
      },
      {
        "astId": 9181,
        "contract": "contracts/component/liquiditymanager/LiquidityManagerProxy.sol:LiquidityManagerProxy",
        "label": "pendingOwner",
        "offset": 0,
        "slot": "1",
        "type": "t_address"
      },
      {
        "astId": 9286,
        "contract": "contracts/component/liquiditymanager/LiquidityManagerProxy.sol:LiquidityManagerProxy",
        "label": "target",
        "offset": 0,
        "slot": "2",
        "type": "t_contract(Proxyable)9495"
      }
    ],
    "types": {
      "t_address": {
        "encoding": "inplace",
        "label": "address",
        "numberOfBytes": "20"
      },
      "t_contract(Proxyable)9495": {
        "encoding": "inplace",
        "label": "contract Proxyable",
        "numberOfBytes": "20"
      }
    }
  }
}