{
  "address": "0x774B4B95b14cca33C8548BAB930fC1e30b4F7Ebe",
  "abi": [
    {
      "inputs": [
        {
          "internalType": "address",
          "name": "_liquidityManager",
          "type": "address"
        }
      ],
      "stateMutability": "nonpayable",
      "type": "constructor"
    },
    {
      "anonymous": false,
      "inputs": [
        {
          "indexed": false,
          "internalType": "address",
          "name": "associatedContract",
          "type": "address"
        }
      ],
      "name": "AssociatedContractUpdated",
      "type": "event"
    },
    {
      "anonymous": false,
      "inputs": [
        {
          "indexed": true,
          "internalType": "address",
          "name": "previousOwner",
          "type": "address"
        },
        {
          "indexed": true,
          "internalType": "address",
          "name": "newOwner",
          "type": "address"
        }
      ],
      "name": "OwnershipTransferred",
      "type": "event"
    },
    {
      "inputs": [
        {
          "internalType": "address",
          "name": "_asset",
          "type": "address"
        }
      ],
      "name": "activeReserve",
      "outputs": [],
      "stateMutability": "nonpayable",
      "type": "function"
    },
    {
      "inputs": [
        {
          "internalType": "address",
          "name": "",
          "type": "address"
        }
      ],
      "name": "associatedContracts",
      "outputs": [
        {
          "internalType": "bool",
          "name": "",
          "type": "bool"
        }
      ],
      "stateMutability": "view",
      "type": "function"
    },
    {
      "inputs": [],
      "name": "claimOwnership",
      "outputs": [],
      "stateMutability": "nonpayable",
      "type": "function"
    },
    {
      "inputs": [
        {
          "internalType": "uint256",
          "name": "_amount",
          "type": "uint256"
        }
      ],
      "name": "decreaseJuniorDeposit",
      "outputs": [],
      "stateMutability": "nonpayable",
      "type": "function"
    },
    {
      "inputs": [
        {
          "internalType": "uint256",
          "name": "_amount",
          "type": "uint256"
        }
      ],
      "name": "decreaseSeniorDeposit",
      "outputs": [],
      "stateMutability": "nonpayable",
      "type": "function"
    },
    {
      "inputs": [
        {
          "internalType": "address",
          "name": "_asset",
          "type": "address"
        }
      ],
      "name": "getConfiguration",
      "outputs": [
        {
          "components": [
            {
              "internalType": "uint256",
              "name": "data",
              "type": "uint256"
            }
          ],
          "internalType": "struct DataTypes.ReserveConfigurationMap",
          "name": "",
          "type": "tuple"
        }
      ],
      "stateMutability": "view",
      "type": "function"
    },
    {
      "inputs": [],
      "name": "getDepositAndDebt",
      "outputs": [
        {
          "components": [
            {
              "internalType": "uint256",
              "name": "juniorDepositAmount",
              "type": "uint256"
            },
            {
              "internalType": "uint256",
              "name": "seniorDepositAmount",
              "type": "uint256"
            },
            {
              "internalType": "uint256",
              "name": "totalDebt",
              "type": "uint256"
            }
          ],
          "internalType": "struct DataTypes.DepositAndDebt",
          "name": "",
          "type": "tuple"
        }
      ],
      "stateMutability": "view",
      "type": "function"
    },
    {
      "inputs": [
        {
          "internalType": "address",
          "name": "_asset",
          "type": "address"
        }
      ],
      "name": "getFlags",
      "outputs": [
        {
          "internalType": "bool",
          "name": "",
          "type": "bool"
        },
        {
          "internalType": "bool",
          "name": "",
          "type": "bool"
        },
        {
          "internalType": "bool",
          "name": "",
          "type": "bool"
        }
      ],
      "stateMutability": "view",
      "type": "function"
    },
    {
      "inputs": [
        {
          "internalType": "address",
          "name": "_asset",
          "type": "address"
        }
      ],
      "name": "getJuniorLiquidityIndex",
      "outputs": [
        {
          "internalType": "uint256",
          "name": "",
          "type": "uint256"
        }
      ],
      "stateMutability": "view",
      "type": "function"
    },
    {
      "inputs": [
        {
          "internalType": "address",
          "name": "_asset",
          "type": "address"
        },
        {
          "internalType": "enum ReserveLogic.Tranche",
          "name": "_tranche",
          "type": "uint8"
        }
      ],
      "name": "getLiquidityRate",
      "outputs": [
        {
          "internalType": "uint256",
          "name": "",
          "type": "uint256"
        }
      ],
      "stateMutability": "view",
      "type": "function"
    },
    {
      "inputs": [
        {
          "internalType": "address",
          "name": "_asset",
          "type": "address"
        }
      ],
      "name": "getReserveData",
      "outputs": [
        {
          "components": [
            {
              "components": [
                {
                  "internalType": "uint256",
                  "name": "data",
                  "type": "uint256"
                }
              ],
              "internalType": "struct DataTypes.ReserveConfigurationMap",
              "name": "configuration",
              "type": "tuple"
            },
            {
              "internalType": "uint256",
              "name": "currentOverallLiquidityRate",
              "type": "uint256"
            },
            {
              "internalType": "uint256",
              "name": "currentSeniorIncomeAllocation",
              "type": "uint256"
            },
            {
              "internalType": "uint256",
              "name": "currentJuniorIncomeAllocation",
              "type": "uint256"
            },
            {
              "internalType": "uint256",
              "name": "juniorLiquidityIndex",
              "type": "uint256"
            },
            {
              "internalType": "uint256",
              "name": "seniorLiquidityIndex",
              "type": "uint256"
            },
            {
              "internalType": "uint256",
              "name": "totalBorrows",
              "type": "uint256"
            },
            {
              "internalType": "uint256",
              "name": "currentBorrowRate",
              "type": "uint256"
            },
            {
              "internalType": "uint256",
              "name": "securityRequirement",
              "type": "uint256"
            },
            {
              "internalType": "uint256",
              "name": "decimals",
              "type": "uint256"
            },
            {
              "internalType": "address",
              "name": "interestRateStrategyAddress",
              "type": "address"
            },
            {
              "internalType": "address",
              "name": "healthStrategyAddress",
              "type": "address"
            },
            {
              "internalType": "address",
              "name": "juniorDepositTokenAddress",
              "type": "address"
            },
            {
              "internalType": "address",
              "name": "seniorDepositTokenAddress",
              "type": "address"
            },
            {
              "internalType": "address",
              "name": "stableDebtAddress",
              "type": "address"
            },
            {
              "internalType": "uint40",
              "name": "juniorLastUpdateTimestamp",
              "type": "uint40"
            },
            {
              "internalType": "uint40",
              "name": "seniorLastUpdateTimestamp",
              "type": "uint40"
            }
          ],
          "internalType": "struct DataTypes.ReserveData",
          "name": "",
          "type": "tuple"
        }
      ],
      "stateMutability": "view",
      "type": "function"
    },
    {
      "inputs": [],
      "name": "getReserveList",
      "outputs": [
        {
          "internalType": "address[]",
          "name": "",
          "type": "address[]"
        }
      ],
      "stateMutability": "view",
      "type": "function"
    },
    {
      "inputs": [
        {
          "internalType": "address",
          "name": "_asset",
          "type": "address"
        },
        {
          "internalType": "enum ReserveLogic.Tranche",
          "name": "_tranche",
          "type": "uint8"
        }
      ],
      "name": "getReserveNormalizedIncome",
      "outputs": [
        {
          "internalType": "uint256",
          "name": "",
          "type": "uint256"
        }
      ],
      "stateMutability": "view",
      "type": "function"
    },
    {
      "inputs": [
        {
          "internalType": "address",
          "name": "_asset",
          "type": "address"
        }
      ],
      "name": "getSeniorLiquidityIndex",
      "outputs": [
        {
          "internalType": "uint256",
          "name": "",
          "type": "uint256"
        }
      ],
      "stateMutability": "view",
      "type": "function"
    },
    {
      "inputs": [
        {
          "internalType": "uint256",
          "name": "_amount",
          "type": "uint256"
        }
      ],
      "name": "increaseJuniorDeposit",
      "outputs": [],
      "stateMutability": "nonpayable",
      "type": "function"
    },
    {
      "inputs": [
        {
          "internalType": "uint256",
          "name": "_amount",
          "type": "uint256"
        }
      ],
      "name": "increaseSeniorDeposit",
      "outputs": [],
      "stateMutability": "nonpayable",
      "type": "function"
    },
    {
      "inputs": [
        {
          "internalType": "uint256",
          "name": "_amount",
          "type": "uint256"
        }
      ],
      "name": "increaseTotalDebt",
      "outputs": [],
      "stateMutability": "nonpayable",
      "type": "function"
    },
    {
      "inputs": [
        {
          "internalType": "address",
          "name": "_asset",
          "type": "address"
        },
        {
          "internalType": "address",
          "name": "_juniorDepositTokenAddress",
          "type": "address"
        },
        {
          "internalType": "address",
          "name": "_seniorDepositTokenAddress",
          "type": "address"
        },
        {
          "internalType": "uint256",
          "name": "_juniorIncomeAllocation",
          "type": "uint256"
        },
        {
          "internalType": "uint256",
          "name": "_seniorIncomeAllocation",
          "type": "uint256"
        },
        {
          "internalType": "address",
          "name": "_stableDebtAddress",
          "type": "address"
        },
        {
          "internalType": "address",
          "name": "_interestRateStrategyAddress",
          "type": "address"
        },
        {
          "internalType": "address",
          "name": "_healthStrategyAddress",
          "type": "address"
        }
      ],
      "name": "initReserve",
      "outputs": [],
      "stateMutability": "nonpayable",
      "type": "function"
    },
    {
      "inputs": [],
      "name": "isOwner",
      "outputs": [
        {
          "internalType": "bool",
          "name": "",
          "type": "bool"
        }
      ],
      "stateMutability": "view",
      "type": "function"
    },
    {
      "inputs": [],
      "name": "juniorDepositAmount",
      "outputs": [
        {
          "internalType": "uint256",
          "name": "",
          "type": "uint256"
        }
      ],
      "stateMutability": "view",
      "type": "function"
    },
    {
      "inputs": [],
      "name": "owner",
      "outputs": [
        {
          "internalType": "address",
          "name": "",
          "type": "address"
        }
      ],
      "stateMutability": "view",
      "type": "function"
    },
    {
      "inputs": [],
      "name": "pause",
      "outputs": [],
      "stateMutability": "nonpayable",
      "type": "function"
    },
    {
      "inputs": [],
      "name": "paused",
      "outputs": [
        {
          "internalType": "bool",
          "name": "",
          "type": "bool"
        }
      ],
      "stateMutability": "view",
      "type": "function"
    },
    {
      "inputs": [],
      "name": "pendingOwner",
      "outputs": [
        {
          "internalType": "address",
          "name": "",
          "type": "address"
        }
      ],
      "stateMutability": "view",
      "type": "function"
    },
    {
      "inputs": [],
      "name": "seniorDepositAmount",
      "outputs": [
        {
          "internalType": "uint256",
          "name": "",
          "type": "uint256"
        }
      ],
      "stateMutability": "view",
      "type": "function"
    },
    {
      "inputs": [
        {
          "internalType": "address",
          "name": "_associatedContract",
          "type": "address"
        }
      ],
      "name": "setAssociatedContract",
      "outputs": [],
      "stateMutability": "nonpayable",
      "type": "function"
    },
    {
      "inputs": [],
      "name": "totalDebt",
      "outputs": [
        {
          "internalType": "uint256",
          "name": "",
          "type": "uint256"
        }
      ],
      "stateMutability": "view",
      "type": "function"
    },
    {
      "inputs": [
        {
          "internalType": "address",
          "name": "newOwner",
          "type": "address"
        }
      ],
      "name": "transferOwnership",
      "outputs": [],
      "stateMutability": "nonpayable",
      "type": "function"
    },
    {
      "inputs": [],
      "name": "unPause",
      "outputs": [],
      "stateMutability": "nonpayable",
      "type": "function"
    },
    {
      "inputs": [
        {
          "internalType": "address",
          "name": "_asset",
          "type": "address"
        },
        {
          "internalType": "uint256",
          "name": "_amount",
          "type": "uint256"
        }
      ],
      "name": "updateStateOnBorrow",
      "outputs": [],
      "stateMutability": "nonpayable",
      "type": "function"
    },
    {
      "inputs": [
        {
          "internalType": "address",
          "name": "_asset",
          "type": "address"
        },
        {
          "internalType": "enum ReserveLogic.Tranche",
          "name": "_tranche",
          "type": "uint8"
        },
        {
          "internalType": "uint256",
          "name": "_amount",
          "type": "uint256"
        }
      ],
      "name": "updateStateOnDeposit",
      "outputs": [],
      "stateMutability": "nonpayable",
      "type": "function"
    }
  ],
  "transactionHash": "0xeefdc5f09ac4d2be8d1ba51d1963c0b0d0abe86c94106f0713cca8fe18b8b8c1",
  "args": [
    "0x2Eec978a40e9916bD950D98669240921DA0b6393"
  ],
  "numDeployments": 1,
  "solcInputHash": "902f31b946c244b011717de65d70d816",
  "bytecode": "0x608060405234801561001057600080fd5b50604051611d5b380380611d5b83398101604081905261002f9161011c565b600080546001600160a01b0319163390811782556040518392907f8be0079c531659141344cd1fd0a4f28419497f9722a3daafe3b4186f6b6457e0908290a36000546001600160a01b03166100be5760405162461bcd60e51b815260206004820152601160248201527013dddb995c881b5d5cdd081899481cd95d607a1b604482015260640160405180910390fd5b6001600160a01b038116600081815260026020908152604091829020805460ff1916600117905590519182527f73f20cff579e8a4086fa607db83867595f1b6a798e718c0bfa0b94a404128e03910160405180910390a1505061014c565b60006020828403121561012e57600080fd5b81516001600160a01b038116811461014557600080fd5b9392505050565b611c008061015b6000396000f3fe608060405234801561001057600080fd5b50600436106101e55760003560e01c806382caae151161010f578063c8caf680116100a2578063f7b188a511610071578063f7b188a514610671578063f815aa1e14610679578063f82041491461068c578063fc7b9c181461069f57600080fd5b8063c8caf68014610625578063e30c397814610638578063eba079f01461064b578063f2fde38b1461065e57600080fd5b80639bd78901116100de5780639bd789011461058c5780639cc67a0f1461059f578063c44b11f7146105cb578063c872ac901461061c57600080fd5b806382caae15146105335780638456cb59146105465780638da5cb5b1461054e5780638f32d59b1461057957600080fd5b8063530062ee116101875780636de427df116101565780636de427df146104c8578063776f6891146104db578063817ad5d3146104ee57806381f781511461052057600080fd5b8063530062ee146104665780635748ff181461046f5780635c975abb146104a257806366d4c413146104b357600080fd5b8063284592b2116101c3578063284592b21461026857806335ea6a751461027b5780634e71e0c81461044b57806352f445ca1461045357600080fd5b806303d6fa95146101ea5780630d45839514610229578063146fac4514610253575b600080fd5b6102166101f83660046117d8565b6001600160a01b031660009081526003602052604090206004015490565b6040519081526020015b60405180910390f35b6102316106a8565b6040805182518152602080840151908201529181015190820152606001610220565b6102666102613660046117f3565b61070a565b005b61021661027636600461181b565b6107a5565b61043e6102893660046117d8565b604080516102408101825260006102208201818152825260208201819052918101829052606081018290526080810182905260a0810182905260c0810182905260e08101829052610100810182905261012081018290526101408101829052610160810182905261018081018290526101a081018290526101c081018290526101e08101829052610200810191909152506001600160a01b0390811660009081526003602081815260409283902083516102408101855281546102208201908152815260018201549281019290925260028101549382019390935290820154606082015260048201546080820152600582015460a0820152600682015460c0820152600782015460e082015260088201546101008201526009820154610120820152600a8201548316610140820152600b8201548316610160820152600c8201548316610180820152600d82015483166101a0820152600e909101549182166101c082015264ffffffffff74010000000000000000000000000000000000000000830481166101e083015279010000000000000000000000000000000000000000000000000090920490911661020082015290565b604051610220919061184e565b610266610867565b6102666104613660046117d8565b6108ef565b61021660065481565b61049261047d3660046117d8565b60026020526000908152604090205460ff1681565b6040519015158152602001610220565b60055462010000900460ff16610492565b6104bb6109c1565b604051610220919061193e565b6102666104d636600461198b565b610a82565b6102166104e936600461181b565b610b12565b6105016104fc3660046117d8565b610b34565b6040805193151584529115156020840152151590820152606001610220565b61026661052e3660046117d8565b610ba6565b6102666105413660046117f3565b610c7c565b610266610d0a565b600054610561906001600160a01b031681565b6040516001600160a01b039091168152602001610220565b6000546001600160a01b03163314610492565b61026661059a3660046117f3565b610d99565b6102166105ad3660046117d8565b6001600160a01b031660009081526003602052604090206005015490565b61060d6105d93660046117d8565b60408051602080820183526000918290526001600160a01b0393909316815260038352819020815192830190915254815290565b60405190518152602001610220565b61021660075481565b6102666106333660046119b5565b610e27565b600154610561906001600160a01b031681565b6102666106593660046117f3565b611160565b61026661066c3660046117d8565b6111ee565b610266611277565b6102666106873660046117f3565b611301565b61026661069a3660046119f1565b61138f565b61021660085481565b6106cc60405180606001604052806000815260200160008152602001600081525090565b6106f060405180606001604052806000815260200160008152602001600081525090565b600654815260075460208201526008546040820152919050565b3360009081526002602052604090205460ff1661078b5760405162461bcd60e51b815260206004820152603460248201527f4f6e6c7920746865206173736f63696174656420636f6e74726163742063616e604482015273103832b93337b936903a3434b99030b1ba34b7b760611b60648201526084015b60405180910390fd5b806008600082825461079d9190611a90565b909155505050565b6001600160a01b03821660009081526003602052604080822090517fbb43fb80000000000000000000000000000000000000000000000000000000008152734e8edC55B7F467cAFeda94E8b4d33FB4923eD4769163bb43fb809161080e91908690600401611abe565b60206040518083038186803b15801561082657600080fd5b505af415801561083a573d6000803e3d6000fd5b505050506040513d601f19601f8201168201806040525081019061085e9190611af0565b90505b92915050565b6001546001600160a01b0316331461087e57600080fd5b600154600080546040516001600160a01b0393841693909116917f8be0079c531659141344cd1fd0a4f28419497f9722a3daafe3b4186f6b6457e091a3600180546000805473ffffffffffffffffffffffffffffffffffffffff199081166001600160a01b03841617909155169055565b6000546001600160a01b031633146109495760405162461bcd60e51b815260206004820181905260248201527f4f776e61626c653a2063616c6c6572206973206e6f7420746865206f776e65726044820152606401610782565b6001600160a01b03811660008181526002602090815260409182902080547fffffffffffffffffffffffffffffffffffffffffffffffffffffffffffffff0016600117905590519182527f73f20cff579e8a4086fa607db83867595f1b6a798e718c0bfa0b94a404128e03910160405180910390a150565b60055460609060009061ffff1667ffffffffffffffff8111156109e6576109e6611b09565b604051908082528060200260200182016040528015610a0f578160200160208202803683370190505b50905060005b60055461ffff16811015610a7c5760008181526004602052604090205482516001600160a01b0390911690839083908110610a5257610a52611b1f565b6001600160a01b039092166020928302919091019091015280610a7481611b35565b915050610a15565b50919050565b3360009081526002602052604090205460ff16610afe5760405162461bcd60e51b815260206004820152603460248201527f4f6e6c7920746865206173736f63696174656420636f6e74726163742063616e604482015273103832b93337b936903a3434b99030b1ba34b7b760611b6064820152608401610782565b506001600160a01b03166000526003602052565b6001600160a01b038216600090815260036020526040812061085e908361154d565b600080600080610b728560408051602080820183526000918290526001600160a01b0393909316815260038352819020815192830190915254815290565b9050610b9881516301000000811615159163020000008216151591630400000016151590565b935093509350509193909250565b3360009081526002602052604090205460ff16610c225760405162461bcd60e51b815260206004820152603460248201527f4f6e6c7920746865206173736f63696174656420636f6e74726163742063616e604482015273103832b93337b936903a3434b99030b1ba34b7b760611b6064820152608401610782565b60408051602080820183526000918290526001600160a01b03841682526003815282822083519182019093529154825250610c5e816001611617565b516001600160a01b0391909116600090815260036020526040902055565b3360009081526002602052604090205460ff16610cf85760405162461bcd60e51b815260206004820152603460248201527f4f6e6c7920746865206173736f63696174656420636f6e74726163742063616e604482015273103832b93337b936903a3434b99030b1ba34b7b760611b6064820152608401610782565b806007600082825461079d9190611b50565b3360009081526002602052604090205460ff16610d865760405162461bcd60e51b815260206004820152603460248201527f4f6e6c7920746865206173736f63696174656420636f6e74726163742063616e604482015273103832b93337b936903a3434b99030b1ba34b7b760611b6064820152608401610782565b6005805462ff0000191662010000179055565b3360009081526002602052604090205460ff16610e155760405162461bcd60e51b815260206004820152603460248201527f4f6e6c7920746865206173736f63696174656420636f6e74726163742063616e604482015273103832b93337b936903a3434b99030b1ba34b7b760611b6064820152608401610782565b806006600082825461079d9190611a90565b3360009081526002602052604090205460ff16610ea35760405162461bcd60e51b815260206004820152603460248201527f4f6e6c7920746865206173736f63696174656420636f6e74726163742063616e604482015273103832b93337b936903a3434b99030b1ba34b7b760611b6064820152608401610782565b6001600160a01b0383166000908152600360205260409081902090517f0eca322b000000000000000000000000000000000000000000000000000000008152600481018290526024810183905273f71FBe4b758218064736A2D5864e64cbaEdA199c90630eca322b9060440160006040518083038186803b158015610f2757600080fd5b505af4158015610f3b573d6000803e3d6000fd5b50506040517fa4c88c07000000000000000000000000000000000000000000000000000000008152734e8edC55B7F467cAFeda94E8b4d33FB4923eD476925063a4c88c079150610f919084908790600401611abe565b60006040518083038186803b158015610fa957600080fd5b505af4158015610fbd573d6000803e3d6000fd5b50505050826001811115610fd357610fd3611aa8565b61109b576040517f6a2da27e000000000000000000000000000000000000000000000000000000008152600481018290526001600160a01b0385166024820152604481018390526000606482018190526084820181905260a4820152734e8edC55B7F467cAFeda94E8b4d33FB4923eD47690636a2da27e9060c40160006040518083038186803b15801561106657600080fd5b505af415801561107a573d6000803e3d6000fd5b5050505081600660008282546110909190611a90565b9091555061115a9050565b6040517f6a2da27e000000000000000000000000000000000000000000000000000000008152600481018290526001600160a01b0385166024820152600060448201819052606482018190526084820184905260a4820152734e8edC55B7F467cAFeda94E8b4d33FB4923eD47690636a2da27e9060c40160006040518083038186803b15801561112a57600080fd5b505af415801561113e573d6000803e3d6000fd5b5050505081600760008282546111549190611a90565b90915550505b50505050565b3360009081526002602052604090205460ff166111dc5760405162461bcd60e51b815260206004820152603460248201527f4f6e6c7920746865206173736f63696174656420636f6e74726163742063616e604482015273103832b93337b936903a3434b99030b1ba34b7b760611b6064820152608401610782565b806007600082825461079d9190611a90565b6000546001600160a01b031633146112485760405162461bcd60e51b815260206004820181905260248201527f4f776e61626c653a2063616c6c6572206973206e6f7420746865206f776e65726044820152606401610782565b6001805473ffffffffffffffffffffffffffffffffffffffff19166001600160a01b0392909216919091179055565b3360009081526002602052604090205460ff166112f35760405162461bcd60e51b815260206004820152603460248201527f4f6e6c7920746865206173736f63696174656420636f6e74726163742063616e604482015273103832b93337b936903a3434b99030b1ba34b7b760611b6064820152608401610782565b6005805462ff000019169055565b3360009081526002602052604090205460ff1661137d5760405162461bcd60e51b815260206004820152603460248201527f4f6e6c7920746865206173736f63696174656420636f6e74726163742063616e604482015273103832b93337b936903a3434b99030b1ba34b7b760611b6064820152608401610782565b806006600082825461079d9190611b50565b3360009081526002602052604090205460ff1661140b5760405162461bcd60e51b815260206004820152603460248201527f4f6e6c7920746865206173736f63696174656420636f6e74726163742063616e604482015273103832b93337b936903a3434b99030b1ba34b7b760611b6064820152608401610782565b6001600160a01b038881166000908152600360205260409081902090517f0c6e3741000000000000000000000000000000000000000000000000000000008152600481019190915288821660248201528782166044820152606481018790526084810186905284821660a482015283821660c482015290821660e4820152734e8edC55B7F467cAFeda94E8b4d33FB4923eD47690630c6e3741906101040160006040518083038186803b1580156114c157600080fd5b505af41580156114d5573d6000803e3d6000fd5b50506005805461ffff9081166000908152600460205260408120805473ffffffffffffffffffffffffffffffffffffffff19166001600160a01b038f161790558254909116935090915061152883611b67565b91906101000a81548161ffff021916908361ffff160217905550505050505050505050565b600080808084600181111561156457611564611aa8565b141561159c575050600e83015460048401547401000000000000000000000000000000000000000090910464ffffffffff16906115cf565b5050600e830154600584015479010000000000000000000000000000000000000000000000000090910464ffffffffff16905b4264ffffffffff168264ffffffffff1614156115ee5791506108619050565b600061160d82611607611601898961165c565b866116cf565b9061171c565b9695505050505050565b601881611625576000611628565b60015b83517ffffffffffffffffffffffffffffffffffffffffffffffffffffffffffeffffff1660ff9190911690911b1790915250565b60008061167a8460020154856003015461175890919063ffffffff16565b9050600083600181111561169057611690611aa8565b14156116bc5760038401546116b4906116a99083611764565b60018601549061171c565b915050610861565b60028401546116b4906116a99083611764565b6000806116e34264ffffffffff8516611798565b90506117146b033b2e3c9fd0803ce80000006301e1338061170487856117a4565b61170e9190611b89565b90611758565b949350505050565b600061085e6b033b2e3c9fd0803ce800000061175261173b86866117a4565b61170e60026b033b2e3c9fd0803ce8000000611b89565b906117b0565b600061085e8284611a90565b600080611772600284611b89565b905061171483611752611791876b033b2e3c9fd0803ce80000006117a4565b8490611758565b600061085e8284611b50565b600061085e8284611bab565b600061085e8284611b89565b80356001600160a01b03811681146117d357600080fd5b919050565b6000602082840312156117ea57600080fd5b61085e826117bc565b60006020828403121561180557600080fd5b5035919050565b8035600281106117d357600080fd5b6000806040838503121561182e57600080fd5b611837836117bc565b91506118456020840161180c565b90509250929050565b815151815261022081016020830151602083015260408301516040830152606083015160608301526080830151608083015260a083015160a083015260c083015160c083015260e083015160e0830152610100808401518184015250610120808401518184015250610140808401516118d1828501826001600160a01b03169052565b5050610160838101516001600160a01b0390811691840191909152610180808501518216908401526101a0808501518216908401526101c080850151909116908301526101e08084015164ffffffffff908116918401919091526102009384015116929091019190915290565b6020808252825182820181905260009190848201906040850190845b8181101561197f5783516001600160a01b03168352928401929184019160010161195a565b50909695505050505050565b6000806040838503121561199e57600080fd5b6119a7836117bc565b946020939093013593505050565b6000806000606084860312156119ca57600080fd5b6119d3846117bc565b92506119e16020850161180c565b9150604084013590509250925092565b600080600080600080600080610100898b031215611a0e57600080fd5b611a17896117bc565b9750611a2560208a016117bc565b9650611a3360408a016117bc565b95506060890135945060808901359350611a4f60a08a016117bc565b9250611a5d60c08a016117bc565b9150611a6b60e08a016117bc565b90509295985092959890939650565b634e487b7160e01b600052601160045260246000fd5b60008219821115611aa357611aa3611a7a565b500190565b634e487b7160e01b600052602160045260246000fd5b8281526040810160028310611ae357634e487b7160e01b600052602160045260246000fd5b8260208301529392505050565b600060208284031215611b0257600080fd5b5051919050565b634e487b7160e01b600052604160045260246000fd5b634e487b7160e01b600052603260045260246000fd5b6000600019821415611b4957611b49611a7a565b5060010190565b600082821015611b6257611b62611a7a565b500390565b600061ffff80831681811415611b7f57611b7f611a7a565b6001019392505050565b600082611ba657634e487b7160e01b600052601260045260246000fd5b500490565b6000816000190483118215151615611bc557611bc5611a7a565b50029056fea2646970667358221220af6b3dd8c5629fe54d2e51fd7bacb11fa51e7b8bca06bfac65d3df037de7e8f264736f6c63430008090033",
  "deployedBytecode": "0x608060405234801561001057600080fd5b50600436106101e55760003560e01c806382caae151161010f578063c8caf680116100a2578063f7b188a511610071578063f7b188a514610671578063f815aa1e14610679578063f82041491461068c578063fc7b9c181461069f57600080fd5b8063c8caf68014610625578063e30c397814610638578063eba079f01461064b578063f2fde38b1461065e57600080fd5b80639bd78901116100de5780639bd789011461058c5780639cc67a0f1461059f578063c44b11f7146105cb578063c872ac901461061c57600080fd5b806382caae15146105335780638456cb59146105465780638da5cb5b1461054e5780638f32d59b1461057957600080fd5b8063530062ee116101875780636de427df116101565780636de427df146104c8578063776f6891146104db578063817ad5d3146104ee57806381f781511461052057600080fd5b8063530062ee146104665780635748ff181461046f5780635c975abb146104a257806366d4c413146104b357600080fd5b8063284592b2116101c3578063284592b21461026857806335ea6a751461027b5780634e71e0c81461044b57806352f445ca1461045357600080fd5b806303d6fa95146101ea5780630d45839514610229578063146fac4514610253575b600080fd5b6102166101f83660046117d8565b6001600160a01b031660009081526003602052604090206004015490565b6040519081526020015b60405180910390f35b6102316106a8565b6040805182518152602080840151908201529181015190820152606001610220565b6102666102613660046117f3565b61070a565b005b61021661027636600461181b565b6107a5565b61043e6102893660046117d8565b604080516102408101825260006102208201818152825260208201819052918101829052606081018290526080810182905260a0810182905260c0810182905260e08101829052610100810182905261012081018290526101408101829052610160810182905261018081018290526101a081018290526101c081018290526101e08101829052610200810191909152506001600160a01b0390811660009081526003602081815260409283902083516102408101855281546102208201908152815260018201549281019290925260028101549382019390935290820154606082015260048201546080820152600582015460a0820152600682015460c0820152600782015460e082015260088201546101008201526009820154610120820152600a8201548316610140820152600b8201548316610160820152600c8201548316610180820152600d82015483166101a0820152600e909101549182166101c082015264ffffffffff74010000000000000000000000000000000000000000830481166101e083015279010000000000000000000000000000000000000000000000000090920490911661020082015290565b604051610220919061184e565b610266610867565b6102666104613660046117d8565b6108ef565b61021660065481565b61049261047d3660046117d8565b60026020526000908152604090205460ff1681565b6040519015158152602001610220565b60055462010000900460ff16610492565b6104bb6109c1565b604051610220919061193e565b6102666104d636600461198b565b610a82565b6102166104e936600461181b565b610b12565b6105016104fc3660046117d8565b610b34565b6040805193151584529115156020840152151590820152606001610220565b61026661052e3660046117d8565b610ba6565b6102666105413660046117f3565b610c7c565b610266610d0a565b600054610561906001600160a01b031681565b6040516001600160a01b039091168152602001610220565b6000546001600160a01b03163314610492565b61026661059a3660046117f3565b610d99565b6102166105ad3660046117d8565b6001600160a01b031660009081526003602052604090206005015490565b61060d6105d93660046117d8565b60408051602080820183526000918290526001600160a01b0393909316815260038352819020815192830190915254815290565b60405190518152602001610220565b61021660075481565b6102666106333660046119b5565b610e27565b600154610561906001600160a01b031681565b6102666106593660046117f3565b611160565b61026661066c3660046117d8565b6111ee565b610266611277565b6102666106873660046117f3565b611301565b61026661069a3660046119f1565b61138f565b61021660085481565b6106cc60405180606001604052806000815260200160008152602001600081525090565b6106f060405180606001604052806000815260200160008152602001600081525090565b600654815260075460208201526008546040820152919050565b3360009081526002602052604090205460ff1661078b5760405162461bcd60e51b815260206004820152603460248201527f4f6e6c7920746865206173736f63696174656420636f6e74726163742063616e604482015273103832b93337b936903a3434b99030b1ba34b7b760611b60648201526084015b60405180910390fd5b806008600082825461079d9190611a90565b909155505050565b6001600160a01b03821660009081526003602052604080822090517fbb43fb8000000000000000000000000000000000000000000000000000000000815273__$d3b4366daeb9cadc7528af6145b50b2183$__9163bb43fb809161080e91908690600401611abe565b60206040518083038186803b15801561082657600080fd5b505af415801561083a573d6000803e3d6000fd5b505050506040513d601f19601f8201168201806040525081019061085e9190611af0565b90505b92915050565b6001546001600160a01b0316331461087e57600080fd5b600154600080546040516001600160a01b0393841693909116917f8be0079c531659141344cd1fd0a4f28419497f9722a3daafe3b4186f6b6457e091a3600180546000805473ffffffffffffffffffffffffffffffffffffffff199081166001600160a01b03841617909155169055565b6000546001600160a01b031633146109495760405162461bcd60e51b815260206004820181905260248201527f4f776e61626c653a2063616c6c6572206973206e6f7420746865206f776e65726044820152606401610782565b6001600160a01b03811660008181526002602090815260409182902080547fffffffffffffffffffffffffffffffffffffffffffffffffffffffffffffff0016600117905590519182527f73f20cff579e8a4086fa607db83867595f1b6a798e718c0bfa0b94a404128e03910160405180910390a150565b60055460609060009061ffff1667ffffffffffffffff8111156109e6576109e6611b09565b604051908082528060200260200182016040528015610a0f578160200160208202803683370190505b50905060005b60055461ffff16811015610a7c5760008181526004602052604090205482516001600160a01b0390911690839083908110610a5257610a52611b1f565b6001600160a01b039092166020928302919091019091015280610a7481611b35565b915050610a15565b50919050565b3360009081526002602052604090205460ff16610afe5760405162461bcd60e51b815260206004820152603460248201527f4f6e6c7920746865206173736f63696174656420636f6e74726163742063616e604482015273103832b93337b936903a3434b99030b1ba34b7b760611b6064820152608401610782565b506001600160a01b03166000526003602052565b6001600160a01b038216600090815260036020526040812061085e908361154d565b600080600080610b728560408051602080820183526000918290526001600160a01b0393909316815260038352819020815192830190915254815290565b9050610b9881516301000000811615159163020000008216151591630400000016151590565b935093509350509193909250565b3360009081526002602052604090205460ff16610c225760405162461bcd60e51b815260206004820152603460248201527f4f6e6c7920746865206173736f63696174656420636f6e74726163742063616e604482015273103832b93337b936903a3434b99030b1ba34b7b760611b6064820152608401610782565b60408051602080820183526000918290526001600160a01b03841682526003815282822083519182019093529154825250610c5e816001611617565b516001600160a01b0391909116600090815260036020526040902055565b3360009081526002602052604090205460ff16610cf85760405162461bcd60e51b815260206004820152603460248201527f4f6e6c7920746865206173736f63696174656420636f6e74726163742063616e604482015273103832b93337b936903a3434b99030b1ba34b7b760611b6064820152608401610782565b806007600082825461079d9190611b50565b3360009081526002602052604090205460ff16610d865760405162461bcd60e51b815260206004820152603460248201527f4f6e6c7920746865206173736f63696174656420636f6e74726163742063616e604482015273103832b93337b936903a3434b99030b1ba34b7b760611b6064820152608401610782565b6005805462ff0000191662010000179055565b3360009081526002602052604090205460ff16610e155760405162461bcd60e51b815260206004820152603460248201527f4f6e6c7920746865206173736f63696174656420636f6e74726163742063616e604482015273103832b93337b936903a3434b99030b1ba34b7b760611b6064820152608401610782565b806006600082825461079d9190611a90565b3360009081526002602052604090205460ff16610ea35760405162461bcd60e51b815260206004820152603460248201527f4f6e6c7920746865206173736f63696174656420636f6e74726163742063616e604482015273103832b93337b936903a3434b99030b1ba34b7b760611b6064820152608401610782565b6001600160a01b0383166000908152600360205260409081902090517f0eca322b000000000000000000000000000000000000000000000000000000008152600481018290526024810183905273__$5201a97c05ba6aa659e2f36a933dd51801$__90630eca322b9060440160006040518083038186803b158015610f2757600080fd5b505af4158015610f3b573d6000803e3d6000fd5b50506040517fa4c88c0700000000000000000000000000000000000000000000000000000000815273__$d3b4366daeb9cadc7528af6145b50b2183$__925063a4c88c079150610f919084908790600401611abe565b60006040518083038186803b158015610fa957600080fd5b505af4158015610fbd573d6000803e3d6000fd5b50505050826001811115610fd357610fd3611aa8565b61109b576040517f6a2da27e000000000000000000000000000000000000000000000000000000008152600481018290526001600160a01b0385166024820152604481018390526000606482018190526084820181905260a482015273__$d3b4366daeb9cadc7528af6145b50b2183$__90636a2da27e9060c40160006040518083038186803b15801561106657600080fd5b505af415801561107a573d6000803e3d6000fd5b5050505081600660008282546110909190611a90565b9091555061115a9050565b6040517f6a2da27e000000000000000000000000000000000000000000000000000000008152600481018290526001600160a01b0385166024820152600060448201819052606482018190526084820184905260a482015273__$d3b4366daeb9cadc7528af6145b50b2183$__90636a2da27e9060c40160006040518083038186803b15801561112a57600080fd5b505af415801561113e573d6000803e3d6000fd5b5050505081600760008282546111549190611a90565b90915550505b50505050565b3360009081526002602052604090205460ff166111dc5760405162461bcd60e51b815260206004820152603460248201527f4f6e6c7920746865206173736f63696174656420636f6e74726163742063616e604482015273103832b93337b936903a3434b99030b1ba34b7b760611b6064820152608401610782565b806007600082825461079d9190611a90565b6000546001600160a01b031633146112485760405162461bcd60e51b815260206004820181905260248201527f4f776e61626c653a2063616c6c6572206973206e6f7420746865206f776e65726044820152606401610782565b6001805473ffffffffffffffffffffffffffffffffffffffff19166001600160a01b0392909216919091179055565b3360009081526002602052604090205460ff166112f35760405162461bcd60e51b815260206004820152603460248201527f4f6e6c7920746865206173736f63696174656420636f6e74726163742063616e604482015273103832b93337b936903a3434b99030b1ba34b7b760611b6064820152608401610782565b6005805462ff000019169055565b3360009081526002602052604090205460ff1661137d5760405162461bcd60e51b815260206004820152603460248201527f4f6e6c7920746865206173736f63696174656420636f6e74726163742063616e604482015273103832b93337b936903a3434b99030b1ba34b7b760611b6064820152608401610782565b806006600082825461079d9190611b50565b3360009081526002602052604090205460ff1661140b5760405162461bcd60e51b815260206004820152603460248201527f4f6e6c7920746865206173736f63696174656420636f6e74726163742063616e604482015273103832b93337b936903a3434b99030b1ba34b7b760611b6064820152608401610782565b6001600160a01b038881166000908152600360205260409081902090517f0c6e3741000000000000000000000000000000000000000000000000000000008152600481019190915288821660248201528782166044820152606481018790526084810186905284821660a482015283821660c482015290821660e482015273__$d3b4366daeb9cadc7528af6145b50b2183$__90630c6e3741906101040160006040518083038186803b1580156114c157600080fd5b505af41580156114d5573d6000803e3d6000fd5b50506005805461ffff9081166000908152600460205260408120805473ffffffffffffffffffffffffffffffffffffffff19166001600160a01b038f161790558254909116935090915061152883611b67565b91906101000a81548161ffff021916908361ffff160217905550505050505050505050565b600080808084600181111561156457611564611aa8565b141561159c575050600e83015460048401547401000000000000000000000000000000000000000090910464ffffffffff16906115cf565b5050600e830154600584015479010000000000000000000000000000000000000000000000000090910464ffffffffff16905b4264ffffffffff168264ffffffffff1614156115ee5791506108619050565b600061160d82611607611601898961165c565b866116cf565b9061171c565b9695505050505050565b601881611625576000611628565b60015b83517ffffffffffffffffffffffffffffffffffffffffffffffffffffffffffeffffff1660ff9190911690911b1790915250565b60008061167a8460020154856003015461175890919063ffffffff16565b9050600083600181111561169057611690611aa8565b14156116bc5760038401546116b4906116a99083611764565b60018601549061171c565b915050610861565b60028401546116b4906116a99083611764565b6000806116e34264ffffffffff8516611798565b90506117146b033b2e3c9fd0803ce80000006301e1338061170487856117a4565b61170e9190611b89565b90611758565b949350505050565b600061085e6b033b2e3c9fd0803ce800000061175261173b86866117a4565b61170e60026b033b2e3c9fd0803ce8000000611b89565b906117b0565b600061085e8284611a90565b600080611772600284611b89565b905061171483611752611791876b033b2e3c9fd0803ce80000006117a4565b8490611758565b600061085e8284611b50565b600061085e8284611bab565b600061085e8284611b89565b80356001600160a01b03811681146117d357600080fd5b919050565b6000602082840312156117ea57600080fd5b61085e826117bc565b60006020828403121561180557600080fd5b5035919050565b8035600281106117d357600080fd5b6000806040838503121561182e57600080fd5b611837836117bc565b91506118456020840161180c565b90509250929050565b815151815261022081016020830151602083015260408301516040830152606083015160608301526080830151608083015260a083015160a083015260c083015160c083015260e083015160e0830152610100808401518184015250610120808401518184015250610140808401516118d1828501826001600160a01b03169052565b5050610160838101516001600160a01b0390811691840191909152610180808501518216908401526101a0808501518216908401526101c080850151909116908301526101e08084015164ffffffffff908116918401919091526102009384015116929091019190915290565b6020808252825182820181905260009190848201906040850190845b8181101561197f5783516001600160a01b03168352928401929184019160010161195a565b50909695505050505050565b6000806040838503121561199e57600080fd5b6119a7836117bc565b946020939093013593505050565b6000806000606084860312156119ca57600080fd5b6119d3846117bc565b92506119e16020850161180c565b9150604084013590509250925092565b600080600080600080600080610100898b031215611a0e57600080fd5b611a17896117bc565b9750611a2560208a016117bc565b9650611a3360408a016117bc565b95506060890135945060808901359350611a4f60a08a016117bc565b9250611a5d60c08a016117bc565b9150611a6b60e08a016117bc565b90509295985092959890939650565b634e487b7160e01b600052601160045260246000fd5b60008219821115611aa357611aa3611a7a565b500190565b634e487b7160e01b600052602160045260246000fd5b8281526040810160028310611ae357634e487b7160e01b600052602160045260246000fd5b8260208301529392505050565b600060208284031215611b0257600080fd5b5051919050565b634e487b7160e01b600052604160045260246000fd5b634e487b7160e01b600052603260045260246000fd5b6000600019821415611b4957611b49611a7a565b5060010190565b600082821015611b6257611b62611a7a565b500390565b600061ffff80831681811415611b7f57611b7f611a7a565b6001019392505050565b600082611ba657634e487b7160e01b600052601260045260246000fd5b500490565b6000816000190483118215151615611bc557611bc5611a7a565b50029056fea2646970667358221220af6b3dd8c5629fe54d2e51fd7bacb11fa51e7b8bca06bfac65d3df037de7e8f264736f6c63430008090033",
  "libraries": {
    "ReserveLogic": "0x4e8edC55B7F467cAFeda94E8b4d33FB4923eD476",
    "ValidationLogic": "0xf71FBe4b758218064736A2D5864e64cbaEdA199c"
  },
  "devdoc": {
    "kind": "dev",
    "methods": {
      "claimOwnership()": {
        "details": "Allows the pendingOwner address to finalize the transfer."
      },
      "isOwner()": {
        "details": "Returns true if the caller is the current owner."
      },
      "transferOwnership(address)": {
        "details": "Allows the current owner to set the pendingOwner address.",
        "params": {
          "newOwner": "The address to transfer ownership to."
        }
      }
    },
    "version": 1
  },
  "userdoc": {
    "kind": "user",
    "methods": {},
    "version": 1
  },
  "storageLayout": {
    "storage": [
      {
        "astId": 9172,
        "contract": "contracts/component/shared/storage/LiquidityManagerStorage.sol:LiquidityManagerStorage",
        "label": "owner",
        "offset": 0,
        "slot": "0",
        "type": "t_address"
      },
      {
        "astId": 9174,
        "contract": "contracts/component/shared/storage/LiquidityManagerStorage.sol:LiquidityManagerStorage",
        "label": "pendingOwner",
        "offset": 0,
        "slot": "1",
        "type": "t_address"
      },
      {
        "astId": 9497,
        "contract": "contracts/component/shared/storage/LiquidityManagerStorage.sol:LiquidityManagerStorage",
        "label": "associatedContracts",
        "offset": 0,
        "slot": "2",
        "type": "t_mapping(t_address,t_bool)"
      },
      {
        "astId": 2935,
        "contract": "contracts/component/shared/storage/LiquidityManagerStorage.sol:LiquidityManagerStorage",
        "label": "_reserves",
        "offset": 0,
        "slot": "3",
        "type": "t_mapping(t_address,t_struct(ReserveData)9599_storage)"
      },
      {
        "astId": 2939,
        "contract": "contracts/component/shared/storage/LiquidityManagerStorage.sol:LiquidityManagerStorage",
        "label": "_reserveList",
        "offset": 0,
        "slot": "4",
        "type": "t_mapping(t_uint256,t_address)"
      },
      {
        "astId": 2941,
        "contract": "contracts/component/shared/storage/LiquidityManagerStorage.sol:LiquidityManagerStorage",
        "label": "_reservesCount",
        "offset": 0,
        "slot": "5",
        "type": "t_uint16"
      },
      {
        "astId": 2943,
        "contract": "contracts/component/shared/storage/LiquidityManagerStorage.sol:LiquidityManagerStorage",
        "label": "_paused",
        "offset": 2,
        "slot": "5",
        "type": "t_bool"
      },
      {
        "astId": 2945,
        "contract": "contracts/component/shared/storage/LiquidityManagerStorage.sol:LiquidityManagerStorage",
        "label": "juniorDepositAmount",
        "offset": 0,
        "slot": "6",
        "type": "t_uint256"
      },
      {
        "astId": 2947,
        "contract": "contracts/component/shared/storage/LiquidityManagerStorage.sol:LiquidityManagerStorage",
        "label": "seniorDepositAmount",
        "offset": 0,
        "slot": "7",
        "type": "t_uint256"
      },
      {
        "astId": 2949,
        "contract": "contracts/component/shared/storage/LiquidityManagerStorage.sol:LiquidityManagerStorage",
        "label": "totalDebt",
        "offset": 0,
        "slot": "8",
        "type": "t_uint256"
      }
    ],
    "types": {
      "t_address": {
        "encoding": "inplace",
        "label": "address",
        "numberOfBytes": "20"
      },
      "t_bool": {
        "encoding": "inplace",
        "label": "bool",
        "numberOfBytes": "1"
      },
      "t_mapping(t_address,t_bool)": {
        "encoding": "mapping",
        "key": "t_address",
        "label": "mapping(address => bool)",
        "numberOfBytes": "32",
        "value": "t_bool"
      },
      "t_mapping(t_address,t_struct(ReserveData)9599_storage)": {
        "encoding": "mapping",
        "key": "t_address",
        "label": "mapping(address => struct DataTypes.ReserveData)",
        "numberOfBytes": "32",
        "value": "t_struct(ReserveData)9599_storage"
      },
      "t_mapping(t_uint256,t_address)": {
        "encoding": "mapping",
        "key": "t_uint256",
        "label": "mapping(uint256 => address)",
        "numberOfBytes": "32",
        "value": "t_address"
      },
      "t_struct(ReserveConfigurationMap)9602_storage": {
        "encoding": "inplace",
        "label": "struct DataTypes.ReserveConfigurationMap",
        "members": [
          {
            "astId": 9601,
            "contract": "contracts/component/shared/storage/LiquidityManagerStorage.sol:LiquidityManagerStorage",
            "label": "data",
            "offset": 0,
            "slot": "0",
            "type": "t_uint256"
          }
        ],
        "numberOfBytes": "32"
      },
      "t_struct(ReserveData)9599_storage": {
        "encoding": "inplace",
        "label": "struct DataTypes.ReserveData",
        "members": [
          {
            "astId": 9566,
            "contract": "contracts/component/shared/storage/LiquidityManagerStorage.sol:LiquidityManagerStorage",
            "label": "configuration",
            "offset": 0,
            "slot": "0",
            "type": "t_struct(ReserveConfigurationMap)9602_storage"
          },
          {
            "astId": 9568,
            "contract": "contracts/component/shared/storage/LiquidityManagerStorage.sol:LiquidityManagerStorage",
            "label": "currentOverallLiquidityRate",
            "offset": 0,
            "slot": "1",
            "type": "t_uint256"
          },
          {
            "astId": 9570,
            "contract": "contracts/component/shared/storage/LiquidityManagerStorage.sol:LiquidityManagerStorage",
            "label": "currentSeniorIncomeAllocation",
            "offset": 0,
            "slot": "2",
            "type": "t_uint256"
          },
          {
            "astId": 9572,
            "contract": "contracts/component/shared/storage/LiquidityManagerStorage.sol:LiquidityManagerStorage",
            "label": "currentJuniorIncomeAllocation",
            "offset": 0,
            "slot": "3",
            "type": "t_uint256"
          },
          {
            "astId": 9574,
            "contract": "contracts/component/shared/storage/LiquidityManagerStorage.sol:LiquidityManagerStorage",
            "label": "juniorLiquidityIndex",
            "offset": 0,
            "slot": "4",
            "type": "t_uint256"
          },
          {
            "astId": 9576,
            "contract": "contracts/component/shared/storage/LiquidityManagerStorage.sol:LiquidityManagerStorage",
            "label": "seniorLiquidityIndex",
            "offset": 0,
            "slot": "5",
            "type": "t_uint256"
          },
          {
            "astId": 9578,
            "contract": "contracts/component/shared/storage/LiquidityManagerStorage.sol:LiquidityManagerStorage",
            "label": "totalBorrows",
            "offset": 0,
            "slot": "6",
            "type": "t_uint256"
          },
          {
            "astId": 9580,
            "contract": "contracts/component/shared/storage/LiquidityManagerStorage.sol:LiquidityManagerStorage",
            "label": "currentBorrowRate",
            "offset": 0,
            "slot": "7",
            "type": "t_uint256"
          },
          {
            "astId": 9582,
            "contract": "contracts/component/shared/storage/LiquidityManagerStorage.sol:LiquidityManagerStorage",
            "label": "securityRequirement",
            "offset": 0,
            "slot": "8",
            "type": "t_uint256"
          },
          {
            "astId": 9584,
            "contract": "contracts/component/shared/storage/LiquidityManagerStorage.sol:LiquidityManagerStorage",
            "label": "decimals",
            "offset": 0,
            "slot": "9",
            "type": "t_uint256"
          },
          {
            "astId": 9586,
            "contract": "contracts/component/shared/storage/LiquidityManagerStorage.sol:LiquidityManagerStorage",
            "label": "interestRateStrategyAddress",
            "offset": 0,
            "slot": "10",
            "type": "t_address"
          },
          {
            "astId": 9588,
            "contract": "contracts/component/shared/storage/LiquidityManagerStorage.sol:LiquidityManagerStorage",
            "label": "healthStrategyAddress",
            "offset": 0,
            "slot": "11",
            "type": "t_address"
          },
          {
            "astId": 9590,
            "contract": "contracts/component/shared/storage/LiquidityManagerStorage.sol:LiquidityManagerStorage",
            "label": "juniorDepositTokenAddress",
            "offset": 0,
            "slot": "12",
            "type": "t_address"
          },
          {
            "astId": 9592,
            "contract": "contracts/component/shared/storage/LiquidityManagerStorage.sol:LiquidityManagerStorage",
            "label": "seniorDepositTokenAddress",
            "offset": 0,
            "slot": "13",
            "type": "t_address"
          },
          {
            "astId": 9594,
            "contract": "contracts/component/shared/storage/LiquidityManagerStorage.sol:LiquidityManagerStorage",
            "label": "stableDebtAddress",
            "offset": 0,
            "slot": "14",
            "type": "t_address"
          },
          {
            "astId": 9596,
            "contract": "contracts/component/shared/storage/LiquidityManagerStorage.sol:LiquidityManagerStorage",
            "label": "juniorLastUpdateTimestamp",
            "offset": 20,
            "slot": "14",
            "type": "t_uint40"
          },
          {
            "astId": 9598,
            "contract": "contracts/component/shared/storage/LiquidityManagerStorage.sol:LiquidityManagerStorage",
            "label": "seniorLastUpdateTimestamp",
            "offset": 25,
            "slot": "14",
            "type": "t_uint40"
          }
        ],
        "numberOfBytes": "480"
      },
      "t_uint16": {
        "encoding": "inplace",
        "label": "uint16",
        "numberOfBytes": "2"
      },
      "t_uint256": {
        "encoding": "inplace",
        "label": "uint256",
        "numberOfBytes": "32"
      },
      "t_uint40": {
        "encoding": "inplace",
        "label": "uint40",
        "numberOfBytes": "5"
      }
    }
  }
}