{
  "address": "0xB1907f5d283d97f6db433DbD431EF9D06e785C45",
  "abi": [
    {
      "inputs": [
        {
          "internalType": "address",
          "name": "_liquidityManager",
          "type": "address"
        }
      ],
      "stateMutability": "nonpayable",
      "type": "constructor"
    },
    {
      "anonymous": false,
      "inputs": [
        {
          "indexed": false,
          "internalType": "address",
          "name": "associatedContract",
          "type": "address"
        }
      ],
      "name": "AssociatedContractUpdated",
      "type": "event"
    },
    {
      "anonymous": false,
      "inputs": [
        {
          "indexed": true,
          "internalType": "address",
          "name": "previousOwner",
          "type": "address"
        },
        {
          "indexed": true,
          "internalType": "address",
          "name": "newOwner",
          "type": "address"
        }
      ],
      "name": "OwnershipTransferred",
      "type": "event"
    },
    {
      "inputs": [
        {
          "internalType": "address",
          "name": "_asset",
          "type": "address"
        }
      ],
      "name": "activeReserve",
      "outputs": [],
      "stateMutability": "nonpayable",
      "type": "function"
    },
    {
      "inputs": [
        {
          "internalType": "address",
          "name": "",
          "type": "address"
        }
      ],
      "name": "associatedContracts",
      "outputs": [
        {
          "internalType": "bool",
          "name": "",
          "type": "bool"
        }
      ],
      "stateMutability": "view",
      "type": "function"
    },
    {
      "inputs": [],
      "name": "claimOwnership",
      "outputs": [],
      "stateMutability": "nonpayable",
      "type": "function"
    },
    {
      "inputs": [
        {
          "internalType": "address",
          "name": "_asset",
          "type": "address"
        }
      ],
      "name": "getConfiguration",
      "outputs": [
        {
          "components": [
            {
              "internalType": "uint256",
              "name": "data",
              "type": "uint256"
            }
          ],
          "internalType": "struct DataTypes.ReserveConfigurationMap",
          "name": "",
          "type": "tuple"
        }
      ],
      "stateMutability": "view",
      "type": "function"
    },
    {
      "inputs": [
        {
          "internalType": "address",
          "name": "_reserve",
          "type": "address"
        }
      ],
      "name": "getDepositAndDebt",
      "outputs": [
        {
          "components": [
            {
              "internalType": "uint256",
              "name": "juniorDepositAmount",
              "type": "uint256"
            },
            {
              "internalType": "uint256",
              "name": "seniorDepositAmount",
              "type": "uint256"
            },
            {
              "internalType": "uint256",
              "name": "totalDebt",
              "type": "uint256"
            },
            {
              "internalType": "uint256",
              "name": "avgStableRate",
              "type": "uint256"
            }
          ],
          "internalType": "struct DataTypes.DepositAndDebt",
          "name": "",
          "type": "tuple"
        }
      ],
      "stateMutability": "view",
      "type": "function"
    },
    {
      "inputs": [
        {
          "internalType": "address",
          "name": "_asset",
          "type": "address"
        }
      ],
      "name": "getFlags",
      "outputs": [
        {
          "internalType": "bool",
          "name": "",
          "type": "bool"
        },
        {
          "internalType": "bool",
          "name": "",
          "type": "bool"
        },
        {
          "internalType": "bool",
          "name": "",
          "type": "bool"
        }
      ],
      "stateMutability": "view",
      "type": "function"
    },
    {
      "inputs": [
        {
          "internalType": "address",
          "name": "_asset",
          "type": "address"
        }
      ],
      "name": "getJuniorLiquidityIndex",
      "outputs": [
        {
          "internalType": "uint256",
          "name": "",
          "type": "uint256"
        }
      ],
      "stateMutability": "view",
      "type": "function"
    },
    {
      "inputs": [
        {
          "internalType": "address",
          "name": "_asset",
          "type": "address"
        },
        {
          "internalType": "enum ReserveLogic.Tranche",
          "name": "_tranche",
          "type": "uint8"
        }
      ],
      "name": "getLiquidityRate",
      "outputs": [
        {
          "internalType": "uint256",
          "name": "",
          "type": "uint256"
        }
      ],
      "stateMutability": "view",
      "type": "function"
    },
    {
      "inputs": [
        {
          "internalType": "address",
          "name": "_asset",
          "type": "address"
        }
      ],
      "name": "getReserveData",
      "outputs": [
        {
          "components": [
            {
              "components": [
                {
                  "internalType": "uint256",
                  "name": "data",
                  "type": "uint256"
                }
              ],
              "internalType": "struct DataTypes.ReserveConfigurationMap",
              "name": "configuration",
              "type": "tuple"
            },
            {
              "internalType": "uint256",
              "name": "currentOverallLiquidityRate",
              "type": "uint256"
            },
            {
              "internalType": "uint256",
              "name": "currentJuniorLiquidityRate",
              "type": "uint256"
            },
            {
              "internalType": "uint256",
              "name": "currentSeniorLiquidityRate",
              "type": "uint256"
            },
            {
              "internalType": "uint256",
              "name": "juniorLiquidityIndex",
              "type": "uint256"
            },
            {
              "internalType": "uint256",
              "name": "seniorLiquidityIndex",
              "type": "uint256"
            },
            {
              "internalType": "uint256",
              "name": "currentBorrowRate",
              "type": "uint256"
            },
            {
              "internalType": "uint256",
              "name": "securityRequirement",
              "type": "uint256"
            },
            {
              "internalType": "uint256",
              "name": "decimals",
              "type": "uint256"
            },
            {
              "internalType": "address",
              "name": "interestRateStrategyAddress",
              "type": "address"
            },
            {
              "internalType": "address",
              "name": "healthStrategyAddress",
              "type": "address"
            },
            {
              "internalType": "address",
              "name": "juniorDepositTokenAddress",
              "type": "address"
            },
            {
              "internalType": "address",
              "name": "seniorDepositTokenAddress",
              "type": "address"
            },
            {
              "internalType": "address",
              "name": "debtTokenAddress",
              "type": "address"
            },
            {
              "internalType": "uint40",
              "name": "juniorLastUpdateTimestamp",
              "type": "uint40"
            },
            {
              "internalType": "uint40",
              "name": "seniorLastUpdateTimestamp",
              "type": "uint40"
            },
            {
              "internalType": "uint256",
              "name": "optimalTrancheRatio",
              "type": "uint256"
            },
            {
              "internalType": "uint256",
              "name": "currentIncomeRatio",
              "type": "uint256"
            },
            {
              "internalType": "uint256",
              "name": "optimalIncomeRatio",
              "type": "uint256"
            }
          ],
          "internalType": "struct DataTypes.ReserveData",
          "name": "",
          "type": "tuple"
        }
      ],
      "stateMutability": "view",
      "type": "function"
    },
    {
      "inputs": [],
      "name": "getReserveList",
      "outputs": [
        {
          "internalType": "address[]",
          "name": "",
          "type": "address[]"
        }
      ],
      "stateMutability": "view",
      "type": "function"
    },
    {
      "inputs": [
        {
          "internalType": "address",
          "name": "_asset",
          "type": "address"
        },
        {
          "internalType": "enum ReserveLogic.Tranche",
          "name": "_tranche",
          "type": "uint8"
        }
      ],
      "name": "getReserveNormalizedIncome",
      "outputs": [
        {
          "internalType": "uint256",
          "name": "",
          "type": "uint256"
        }
      ],
      "stateMutability": "view",
      "type": "function"
    },
    {
      "inputs": [
        {
          "internalType": "address",
          "name": "_asset",
          "type": "address"
        }
      ],
      "name": "getSeniorLiquidityIndex",
      "outputs": [
        {
          "internalType": "uint256",
          "name": "",
          "type": "uint256"
        }
      ],
      "stateMutability": "view",
      "type": "function"
    },
    {
      "inputs": [
        {
          "internalType": "address",
          "name": "_asset",
          "type": "address"
        },
        {
          "internalType": "address",
          "name": "_juniorDepositTokenAddress",
          "type": "address"
        },
        {
          "internalType": "address",
          "name": "_seniorDepositTokenAddress",
          "type": "address"
        },
        {
          "internalType": "address",
          "name": "_stableDebtAddress",
          "type": "address"
        },
        {
          "internalType": "address",
          "name": "_interestRateStrategyAddress",
          "type": "address"
        },
        {
          "internalType": "address",
          "name": "_healthStrategyAddress",
          "type": "address"
        },
        {
          "internalType": "uint256",
          "name": "_optimalIncomeRatio",
          "type": "uint256"
        }
      ],
      "name": "initReserve",
      "outputs": [],
      "stateMutability": "nonpayable",
      "type": "function"
    },
    {
      "inputs": [],
      "name": "isOwner",
      "outputs": [
        {
          "internalType": "bool",
          "name": "",
          "type": "bool"
        }
      ],
      "stateMutability": "view",
      "type": "function"
    },
    {
      "inputs": [],
      "name": "owner",
      "outputs": [
        {
          "internalType": "address",
          "name": "",
          "type": "address"
        }
      ],
      "stateMutability": "view",
      "type": "function"
    },
    {
      "inputs": [],
      "name": "pause",
      "outputs": [],
      "stateMutability": "nonpayable",
      "type": "function"
    },
    {
      "inputs": [],
      "name": "paused",
      "outputs": [
        {
          "internalType": "bool",
          "name": "",
          "type": "bool"
        }
      ],
      "stateMutability": "view",
      "type": "function"
    },
    {
      "inputs": [],
      "name": "pendingOwner",
      "outputs": [
        {
          "internalType": "address",
          "name": "",
          "type": "address"
        }
      ],
      "stateMutability": "view",
      "type": "function"
    },
    {
      "inputs": [
        {
          "internalType": "address",
          "name": "_associatedContract",
          "type": "address"
        }
      ],
      "name": "setAssociatedContract",
      "outputs": [],
      "stateMutability": "nonpayable",
      "type": "function"
    },
    {
      "inputs": [
        {
          "internalType": "address",
          "name": "newOwner",
          "type": "address"
        }
      ],
      "name": "transferOwnership",
      "outputs": [],
      "stateMutability": "nonpayable",
      "type": "function"
    },
    {
      "inputs": [],
      "name": "unPause",
      "outputs": [],
      "stateMutability": "nonpayable",
      "type": "function"
    },
    {
      "inputs": [
        {
          "internalType": "address",
          "name": "_asset",
          "type": "address"
        },
        {
          "internalType": "uint256",
          "name": "_amount",
          "type": "uint256"
        }
      ],
      "name": "updateStateOnBorrow",
      "outputs": [],
      "stateMutability": "nonpayable",
      "type": "function"
    },
    {
      "inputs": [
        {
          "internalType": "address",
          "name": "_asset",
          "type": "address"
        },
        {
          "internalType": "enum ReserveLogic.Tranche",
          "name": "_tranche",
          "type": "uint8"
        },
        {
          "internalType": "uint256",
          "name": "_amount",
          "type": "uint256"
        }
      ],
      "name": "updateStateOnDeposit",
      "outputs": [],
      "stateMutability": "nonpayable",
      "type": "function"
    },
    {
      "inputs": [
        {
          "internalType": "address",
          "name": "_asset",
          "type": "address"
        },
        {
          "internalType": "uint256",
          "name": "_amount",
          "type": "uint256"
        }
      ],
      "name": "updateStateOnRepayment",
      "outputs": [],
      "stateMutability": "nonpayable",
      "type": "function"
    },
    {
      "inputs": [
        {
          "internalType": "address",
          "name": "_asset",
          "type": "address"
        },
        {
          "internalType": "enum ReserveLogic.Tranche",
          "name": "_tranche",
          "type": "uint8"
        },
        {
          "internalType": "uint256",
          "name": "_amount",
          "type": "uint256"
        }
      ],
      "name": "updateStateOnWithdraw",
      "outputs": [],
      "stateMutability": "nonpayable",
      "type": "function"
    }
  ],
  "transactionHash": "0xad2126d6dd81eaa8f11e4018d847f2a9136c62f9ec19ae24ecf84f1ffcf431c4",
  "args": [
    "0xaC126Bb0111F77C286Cf1717117CA9c8BCcdef42"
  ],
  "numDeployments": 5,
  "solcInputHash": "3b48e5fc6cf21bdd2b3f8b312defed7c",
  "bytecode": "0x608060405234801561001057600080fd5b506040516200204d3803806200204d8339810160408190526100319161011e565b600080546001600160a01b0319163390811782556040518392907f8be0079c531659141344cd1fd0a4f28419497f9722a3daafe3b4186f6b6457e0908290a36000546001600160a01b03166100c05760405162461bcd60e51b815260206004820152601160248201527013dddb995c881b5d5cdd081899481cd95d607a1b604482015260640160405180910390fd5b6001600160a01b038116600081815260026020908152604091829020805460ff1916600117905590519182527f73f20cff579e8a4086fa607db83867595f1b6a798e718c0bfa0b94a404128e03910160405180910390a1505061014e565b60006020828403121561013057600080fd5b81516001600160a01b038116811461014757600080fd5b9392505050565b611eef806200015e6000396000f3fe608060405234801561001057600080fd5b50600436106101a35760003560e01c8063776f6891116100ee5780639cc67a0f11610097578063c8caf68011610071578063c8caf6801461043d578063e30c397814610450578063f2fde38b14610463578063f7b188a51461047657600080fd5b80639cc67a0f146103ad578063b24c434b146103d9578063c44b11f7146103ec57600080fd5b80638456cb59116100c85780638456cb59146103675780638da5cb5b1461036f5780638f32d59b1461039a57600080fd5b8063776f68911461030f578063817ad5d31461032257806381f781511461035457600080fd5b806352f445ca116101505780635c975abb1161012a5780635c975abb146102d657806366d4c413146102e75780636de427df146102fc57600080fd5b806352f445ca1461027d5780635428983c146102905780635748ff18146102a357600080fd5b806343ba22631161018157806343ba22631461021a5780634c445bfe1461022f5780634e71e0c81461027557600080fd5b806303d6fa95146101a8578063284592b2146101e757806335ea6a75146101fa575b600080fd5b6101d46101b6366004611aaf565b6001600160a01b031660009081526003602052604090206004015490565b6040519081526020015b60405180910390f35b6101d46101f5366004611ad9565b61047e565b61020d610208366004611aaf565b610540565b6040516101de9190611b0c565b61022d610228366004611c13565b610753565b005b61024261023d366004611aaf565b61090d565b6040516101de91908151815260208083015190820152604080830151908201526060918201519181019190915260800190565b61022d610b41565b61022d61028b366004611aaf565b610bc9565b61022d61029e366004611c92565b610c9b565b6102c66102b1366004611aaf565b60026020526000908152604090205460ff1681565b60405190151581526020016101de565b60055462010000900460ff166102c6565b6102ef610e49565b6040516101de9190611cbc565b61022d61030a366004611c92565b610f0a565b6101d461031d366004611ad9565b611087565b610335610330366004611aaf565b6110a9565b60408051931515845291151560208401521515908201526060016101de565b61022d610362366004611aaf565b61111b565b61022d6111f1565b600054610382906001600160a01b031681565b6040516001600160a01b0390911681526020016101de565b6000546001600160a01b031633146102c6565b6101d46103bb366004611aaf565b6001600160a01b031660009081526003602052604090206005015490565b61022d6103e7366004611d09565b611280565b61042e6103fa366004611aaf565b60408051602080820183526000918290526001600160a01b0393909316815260038352819020815192830190915254815290565b604051905181526020016101de565b61022d61044b366004611d09565b6114f4565b600154610382906001600160a01b031681565b61022d610471366004611aaf565b611787565b61022d611810565b6001600160a01b03821660009081526003602052604080822090517fbb43fb80000000000000000000000000000000000000000000000000000000008152736F1c2772D7714C584237e36993eF7Ec00d725bF69163bb43fb80916104e791908690600401611d5b565b60206040518083038186803b1580156104ff57600080fd5b505af4158015610513573d6000803e3d6000fd5b505050506040513d601f19601f820116820180604052508101906105379190611d8d565b90505b92915050565b61061a6040805161028081019091526000610260820190815281908152602001600081526020016000815260200160008152602001600081526020016000815260200160008152602001600081526020016000815260200160006001600160a01b0316815260200160006001600160a01b0316815260200160006001600160a01b0316815260200160006001600160a01b0316815260200160006001600160a01b03168152602001600064ffffffffff168152602001600064ffffffffff1681526020016000815260200160008152602001600081525090565b506001600160a01b0390811660009081526003602081815260409283902083516102808101855281546102608201908152815260018201549281019290925260028101549382019390935290820154606082015260048201546080820152600582015460a0820152600682015460c0820152600782015460e0820152600882015461010082015260098201548316610120820152600a8201548316610140820152600b8201548316610160820152600c8201548316610180820152600d8201549283166101a082015264ffffffffff74010000000000000000000000000000000000000000840481166101c08301527901000000000000000000000000000000000000000000000000009093049092166101e0830152600e810154610200830152600f8101546102208301526010015461024082015290565b3360009081526002602052604090205460ff166107d45760405162461bcd60e51b815260206004820152603460248201527f4f6e6c7920746865206173736f63696174656420636f6e74726163742063616e604482015273103832b93337b936903a3434b99030b1ba34b7b760611b60648201526084015b60405180910390fd5b6001600160a01b038781166000908152600360205260409081902090517f19dfc3810000000000000000000000000000000000000000000000000000000081526004810191909152878216602482015286821660448201528582166064820152848216608482015290831660a482015260c48101829052736F1c2772D7714C584237e36993eF7Ec00d725bF6906319dfc3819060e40160006040518083038186803b15801561088257600080fd5b505af4158015610896573d6000803e3d6000fd5b50506005805461ffff9081166000908152600460205260408120805473ffffffffffffffffffffffffffffffffffffffff19166001600160a01b038e16179055825490911693509091506108e983611dbc565b91906101000a81548161ffff021916908361ffff1602179055505050505050505050565b6109386040518060800160405280600081526020016000815260200160008152602001600081525090565b6001600160a01b03828116600090815260036020908152604080832081516080810183528481528084018590528083018590526060810194909452600b81015482517f18160ddd0000000000000000000000000000000000000000000000000000000081529251919516926318160ddd9260048082019391829003018186803b1580156109c457600080fd5b505afa1580156109d8573d6000803e3d6000fd5b505050506040513d601f19601f820116820180604052508101906109fc9190611d8d565b8152600c820154604080517f18160ddd00000000000000000000000000000000000000000000000000000000815290516001600160a01b03909216916318160ddd91600480820192602092909190829003018186803b158015610a5e57600080fd5b505afa158015610a72573d6000803e3d6000fd5b505050506040513d601f19601f82011682018060405250810190610a969190611d8d565b6020820152600d820154604080517ff731e9be00000000000000000000000000000000000000000000000000000000815281516001600160a01b039093169263f731e9be92600480840193919291829003018186803b158015610af857600080fd5b505afa158015610b0c573d6000803e3d6000fd5b505050506040513d601f19601f82011682018060405250810190610b309190611dde565b606083015260408201529392505050565b6001546001600160a01b03163314610b5857600080fd5b600154600080546040516001600160a01b0393841693909116917f8be0079c531659141344cd1fd0a4f28419497f9722a3daafe3b4186f6b6457e091a3600180546000805473ffffffffffffffffffffffffffffffffffffffff199081166001600160a01b03841617909155169055565b6000546001600160a01b03163314610c235760405162461bcd60e51b815260206004820181905260248201527f4f776e61626c653a2063616c6c6572206973206e6f7420746865206f776e657260448201526064016107cb565b6001600160a01b03811660008181526002602090815260409182902080547fffffffffffffffffffffffffffffffffffffffffffffffffffffffffffffff0016600117905590519182527f73f20cff579e8a4086fa607db83867595f1b6a798e718c0bfa0b94a404128e03910160405180910390a150565b3360009081526002602052604090205460ff16610d175760405162461bcd60e51b815260206004820152603460248201527f4f6e6c7920746865206173736f63696174656420636f6e74726163742063616e604482015273103832b93337b936903a3434b99030b1ba34b7b760611b60648201526084016107cb565b6001600160a01b03821660009081526003602052604090819020905163a4c88c0760e01b8152736F1c2772D7714C584237e36993eF7Ec00d725bF69063a4c88c0790610d6a908490600190600401611d5b565b60006040518083038186803b158015610d8257600080fd5b505af4158015610d96573d6000803e3d6000fd5b50505050600b810154600c82015460405163e525e94f60e01b8152600481018490526001600160a01b03808716602483015292831660448201529116606482015260006084820181905260a4820181905260c4820184905260e4820152736F1c2772D7714C584237e36993eF7Ec00d725bF69063e525e94f90610104015b60006040518083038186803b158015610e2c57600080fd5b505af4158015610e40573d6000803e3d6000fd5b50505050505050565b60055460609060009061ffff1667ffffffffffffffff811115610e6e57610e6e611e02565b604051908082528060200260200182016040528015610e97578160200160208202803683370190505b50905060005b60055461ffff16811015610f045760008181526004602052604090205482516001600160a01b0390911690839083908110610eda57610eda611e18565b6001600160a01b039092166020928302919091019091015280610efc81611e2e565b915050610e9d565b50919050565b3360009081526002602052604090205460ff16610f865760405162461bcd60e51b815260206004820152603460248201527f4f6e6c7920746865206173736f63696174656420636f6e74726163742063616e604482015273103832b93337b936903a3434b99030b1ba34b7b760611b60648201526084016107cb565b6001600160a01b03821660009081526003602052604090819020905163a4c88c0760e01b8152736F1c2772D7714C584237e36993eF7Ec00d725bF69063a4c88c0790610fd9908490600190600401611d5b565b60006040518083038186803b158015610ff157600080fd5b505af4158015611005573d6000803e3d6000fd5b50505050600b810154600c82015460405163e525e94f60e01b8152600481018490526001600160a01b03808716602483015292831660448201529116606482015260006084820181905260a4820181905260c482015260e48101839052736F1c2772D7714C584237e36993eF7Ec00d725bF69063e525e94f9061010401610e14565b6001600160a01b0382166000908152600360205260408120610537908361189a565b6000806000806110e78560408051602080820183526000918290526001600160a01b0393909316815260038352819020815192830190915254815290565b905061110d81516301000000811615159163020000008216151591630400000016151590565b935093509350509193909250565b3360009081526002602052604090205460ff166111975760405162461bcd60e51b815260206004820152603460248201527f4f6e6c7920746865206173736f63696174656420636f6e74726163742063616e604482015273103832b93337b936903a3434b99030b1ba34b7b760611b60648201526084016107cb565b60408051602080820183526000918290526001600160a01b038416825260038152828220835191820190935291548252506111d3816001611964565b516001600160a01b0391909116600090815260036020526040902055565b3360009081526002602052604090205460ff1661126d5760405162461bcd60e51b815260206004820152603460248201527f4f6e6c7920746865206173736f63696174656420636f6e74726163742063616e604482015273103832b93337b936903a3434b99030b1ba34b7b760611b60648201526084016107cb565b6005805462ff0000191662010000179055565b3360009081526002602052604090205460ff166112fc5760405162461bcd60e51b815260206004820152603460248201527f4f6e6c7920746865206173736f63696174656420636f6e74726163742063616e604482015273103832b93337b936903a3434b99030b1ba34b7b760611b60648201526084016107cb565b6001600160a01b03831660009081526003602052604090819020905163a4c88c0760e01b8152736F1c2772D7714C584237e36993eF7Ec00d725bF69063a4c88c079061134e9084908790600401611d5b565b60006040518083038186803b15801561136657600080fd5b505af415801561137a573d6000803e3d6000fd5b5050505082600181111561139057611390611d45565b61144357600b810154600c82015460405163e525e94f60e01b8152600481018490526001600160a01b03808816602483015292831660448201529116606482015260006084820181905260a4820184905260c4820181905260e4820152736F1c2772D7714C584237e36993eF7Ec00d725bF69063e525e94f90610104015b60006040518083038186803b15801561142657600080fd5b505af415801561143a573d6000803e3d6000fd5b505050506114ee565b600b810154600c82015460405163e525e94f60e01b8152600481018490526001600160a01b03808816602483015292831660448201529116606482015260006084820181905260a4820181905260c4820181905260e4820152736F1c2772D7714C584237e36993eF7Ec00d725bF69063e525e94f90610104015b60006040518083038186803b1580156114d557600080fd5b505af41580156114e9573d6000803e3d6000fd5b505050505b50505050565b3360009081526002602052604090205460ff166115705760405162461bcd60e51b815260206004820152603460248201527f4f6e6c7920746865206173736f63696174656420636f6e74726163742063616e604482015273103832b93337b936903a3434b99030b1ba34b7b760611b60648201526084016107cb565b6001600160a01b0383166000908152600360205260409081902090517f0eca322b000000000000000000000000000000000000000000000000000000008152600481018290526024810183905273b9A101f840d0c652087c96E65787a5c3eEC4B36A90630eca322b9060440160006040518083038186803b1580156115f457600080fd5b505af4158015611608573d6000803e3d6000fd5b505060405163a4c88c0760e01b8152736F1c2772D7714C584237e36993eF7Ec00d725bF6925063a4c88c0791506116459084908790600401611d5b565b60006040518083038186803b15801561165d57600080fd5b505af4158015611671573d6000803e3d6000fd5b5050505082600181111561168757611687611d45565b61170957600b810154600c82015460405163e525e94f60e01b8152600481018490526001600160a01b03808816602483015292831660448201529116606482015260848101839052600060a4820181905260c4820181905260e4820152736F1c2772D7714C584237e36993eF7Ec00d725bF69063e525e94f906101040161140e565b600b810154600c82015460405163e525e94f60e01b8152600481018490526001600160a01b03808816602483015292831660448201529116606482015260006084820181905260a4820181905260c4820184905260e4820152736F1c2772D7714C584237e36993eF7Ec00d725bF69063e525e94f90610104016114bd565b6000546001600160a01b031633146117e15760405162461bcd60e51b815260206004820181905260248201527f4f776e61626c653a2063616c6c6572206973206e6f7420746865206f776e657260448201526064016107cb565b6001805473ffffffffffffffffffffffffffffffffffffffff19166001600160a01b0392909216919091179055565b3360009081526002602052604090205460ff1661188c5760405162461bcd60e51b815260206004820152603460248201527f4f6e6c7920746865206173736f63696174656420636f6e74726163742063616e604482015273103832b93337b936903a3434b99030b1ba34b7b760611b60648201526084016107cb565b6005805462ff000019169055565b60008080808460018111156118b1576118b1611d45565b14156118e9575050600d83015460048401547401000000000000000000000000000000000000000090910464ffffffffff169061191c565b5050600d830154600584015479010000000000000000000000000000000000000000000000000090910464ffffffffff16905b4264ffffffffff168264ffffffffff16141561193b57915061053a9050565b600061195a8261195461194e89896119a9565b866119da565b90611a27565b9695505050505050565b601881611972576000611975565b60015b83517ffffffffffffffffffffffffffffffffffffffffffffffffffffffffffeffffff1660ff9190911690911b1790915250565b6000808260018111156119be576119be611d45565b14156119cf5750600282015461053a565b50600382015461053a565b6000806119ee4264ffffffffff8516611a63565b9050611a1f6b033b2e3c9fd0803ce80000006301e13380611a0f8785611a6f565b611a199190611e49565b90611a7b565b949350505050565b60006105376b033b2e3c9fd0803ce8000000611a5d611a468686611a6f565b611a1960026b033b2e3c9fd0803ce8000000611e49565b90611a87565b60006105378284611e6b565b60006105378284611e82565b60006105378284611ea1565b60006105378284611e49565b80356001600160a01b0381168114611aaa57600080fd5b919050565b600060208284031215611ac157600080fd5b61053782611a93565b803560028110611aaa57600080fd5b60008060408385031215611aec57600080fd5b611af583611a93565b9150611b0360208401611aca565b90509250929050565b815151815261026081016020830151602083015260408301516040830152606083015160608301526080830151608083015260a083015160a083015260c083015160c083015260e083015160e083015261010080840151818401525061012080840151611b83828501826001600160a01b03169052565b5050610140838101516001600160a01b039081169184019190915261016080850151821690840152610180808501518216908401526101a080850151909116908301526101c08084015164ffffffffff908116918401919091526101e080850151909116908301526102008084015190830152610220808401519083015261024092830151929091019190915290565b600080600080600080600060e0888a031215611c2e57600080fd5b611c3788611a93565b9650611c4560208901611a93565b9550611c5360408901611a93565b9450611c6160608901611a93565b9350611c6f60808901611a93565b9250611c7d60a08901611a93565b915060c0880135905092959891949750929550565b60008060408385031215611ca557600080fd5b611cae83611a93565b946020939093013593505050565b6020808252825182820181905260009190848201906040850190845b81811015611cfd5783516001600160a01b031683529284019291840191600101611cd8565b50909695505050505050565b600080600060608486031215611d1e57600080fd5b611d2784611a93565b9250611d3560208501611aca565b9150604084013590509250925092565b634e487b7160e01b600052602160045260246000fd5b8281526040810160028310611d8057634e487b7160e01b600052602160045260246000fd5b8260208301529392505050565b600060208284031215611d9f57600080fd5b5051919050565b634e487b7160e01b600052601160045260246000fd5b600061ffff80831681811415611dd457611dd4611da6565b6001019392505050565b60008060408385031215611df157600080fd5b505080516020909101519092909150565b634e487b7160e01b600052604160045260246000fd5b634e487b7160e01b600052603260045260246000fd5b6000600019821415611e4257611e42611da6565b5060010190565b600082611e6657634e487b7160e01b600052601260045260246000fd5b500490565b600082821015611e7d57611e7d611da6565b500390565b6000816000190483118215151615611e9c57611e9c611da6565b500290565b60008219821115611eb457611eb4611da6565b50019056fea264697066735822122043b510235f96f73c256b3ae4b69c77bb5ead0617760419603a82972b7c97785964736f6c63430008090033",
  "deployedBytecode": "0x608060405234801561001057600080fd5b50600436106101a35760003560e01c8063776f6891116100ee5780639cc67a0f11610097578063c8caf68011610071578063c8caf6801461043d578063e30c397814610450578063f2fde38b14610463578063f7b188a51461047657600080fd5b80639cc67a0f146103ad578063b24c434b146103d9578063c44b11f7146103ec57600080fd5b80638456cb59116100c85780638456cb59146103675780638da5cb5b1461036f5780638f32d59b1461039a57600080fd5b8063776f68911461030f578063817ad5d31461032257806381f781511461035457600080fd5b806352f445ca116101505780635c975abb1161012a5780635c975abb146102d657806366d4c413146102e75780636de427df146102fc57600080fd5b806352f445ca1461027d5780635428983c146102905780635748ff18146102a357600080fd5b806343ba22631161018157806343ba22631461021a5780634c445bfe1461022f5780634e71e0c81461027557600080fd5b806303d6fa95146101a8578063284592b2146101e757806335ea6a75146101fa575b600080fd5b6101d46101b6366004611aaf565b6001600160a01b031660009081526003602052604090206004015490565b6040519081526020015b60405180910390f35b6101d46101f5366004611ad9565b61047e565b61020d610208366004611aaf565b610540565b6040516101de9190611b0c565b61022d610228366004611c13565b610753565b005b61024261023d366004611aaf565b61090d565b6040516101de91908151815260208083015190820152604080830151908201526060918201519181019190915260800190565b61022d610b41565b61022d61028b366004611aaf565b610bc9565b61022d61029e366004611c92565b610c9b565b6102c66102b1366004611aaf565b60026020526000908152604090205460ff1681565b60405190151581526020016101de565b60055462010000900460ff166102c6565b6102ef610e49565b6040516101de9190611cbc565b61022d61030a366004611c92565b610f0a565b6101d461031d366004611ad9565b611087565b610335610330366004611aaf565b6110a9565b60408051931515845291151560208401521515908201526060016101de565b61022d610362366004611aaf565b61111b565b61022d6111f1565b600054610382906001600160a01b031681565b6040516001600160a01b0390911681526020016101de565b6000546001600160a01b031633146102c6565b6101d46103bb366004611aaf565b6001600160a01b031660009081526003602052604090206005015490565b61022d6103e7366004611d09565b611280565b61042e6103fa366004611aaf565b60408051602080820183526000918290526001600160a01b0393909316815260038352819020815192830190915254815290565b604051905181526020016101de565b61022d61044b366004611d09565b6114f4565b600154610382906001600160a01b031681565b61022d610471366004611aaf565b611787565b61022d611810565b6001600160a01b03821660009081526003602052604080822090517fbb43fb8000000000000000000000000000000000000000000000000000000000815273__$d3b4366daeb9cadc7528af6145b50b2183$__9163bb43fb80916104e791908690600401611d5b565b60206040518083038186803b1580156104ff57600080fd5b505af4158015610513573d6000803e3d6000fd5b505050506040513d601f19601f820116820180604052508101906105379190611d8d565b90505b92915050565b61061a6040805161028081019091526000610260820190815281908152602001600081526020016000815260200160008152602001600081526020016000815260200160008152602001600081526020016000815260200160006001600160a01b0316815260200160006001600160a01b0316815260200160006001600160a01b0316815260200160006001600160a01b0316815260200160006001600160a01b03168152602001600064ffffffffff168152602001600064ffffffffff1681526020016000815260200160008152602001600081525090565b506001600160a01b0390811660009081526003602081815260409283902083516102808101855281546102608201908152815260018201549281019290925260028101549382019390935290820154606082015260048201546080820152600582015460a0820152600682015460c0820152600782015460e0820152600882015461010082015260098201548316610120820152600a8201548316610140820152600b8201548316610160820152600c8201548316610180820152600d8201549283166101a082015264ffffffffff74010000000000000000000000000000000000000000840481166101c08301527901000000000000000000000000000000000000000000000000009093049092166101e0830152600e810154610200830152600f8101546102208301526010015461024082015290565b3360009081526002602052604090205460ff166107d45760405162461bcd60e51b815260206004820152603460248201527f4f6e6c7920746865206173736f63696174656420636f6e74726163742063616e604482015273103832b93337b936903a3434b99030b1ba34b7b760611b60648201526084015b60405180910390fd5b6001600160a01b038781166000908152600360205260409081902090517f19dfc3810000000000000000000000000000000000000000000000000000000081526004810191909152878216602482015286821660448201528582166064820152848216608482015290831660a482015260c4810182905273__$d3b4366daeb9cadc7528af6145b50b2183$__906319dfc3819060e40160006040518083038186803b15801561088257600080fd5b505af4158015610896573d6000803e3d6000fd5b50506005805461ffff9081166000908152600460205260408120805473ffffffffffffffffffffffffffffffffffffffff19166001600160a01b038e16179055825490911693509091506108e983611dbc565b91906101000a81548161ffff021916908361ffff1602179055505050505050505050565b6109386040518060800160405280600081526020016000815260200160008152602001600081525090565b6001600160a01b03828116600090815260036020908152604080832081516080810183528481528084018590528083018590526060810194909452600b81015482517f18160ddd0000000000000000000000000000000000000000000000000000000081529251919516926318160ddd9260048082019391829003018186803b1580156109c457600080fd5b505afa1580156109d8573d6000803e3d6000fd5b505050506040513d601f19601f820116820180604052508101906109fc9190611d8d565b8152600c820154604080517f18160ddd00000000000000000000000000000000000000000000000000000000815290516001600160a01b03909216916318160ddd91600480820192602092909190829003018186803b158015610a5e57600080fd5b505afa158015610a72573d6000803e3d6000fd5b505050506040513d601f19601f82011682018060405250810190610a969190611d8d565b6020820152600d820154604080517ff731e9be00000000000000000000000000000000000000000000000000000000815281516001600160a01b039093169263f731e9be92600480840193919291829003018186803b158015610af857600080fd5b505afa158015610b0c573d6000803e3d6000fd5b505050506040513d601f19601f82011682018060405250810190610b309190611dde565b606083015260408201529392505050565b6001546001600160a01b03163314610b5857600080fd5b600154600080546040516001600160a01b0393841693909116917f8be0079c531659141344cd1fd0a4f28419497f9722a3daafe3b4186f6b6457e091a3600180546000805473ffffffffffffffffffffffffffffffffffffffff199081166001600160a01b03841617909155169055565b6000546001600160a01b03163314610c235760405162461bcd60e51b815260206004820181905260248201527f4f776e61626c653a2063616c6c6572206973206e6f7420746865206f776e657260448201526064016107cb565b6001600160a01b03811660008181526002602090815260409182902080547fffffffffffffffffffffffffffffffffffffffffffffffffffffffffffffff0016600117905590519182527f73f20cff579e8a4086fa607db83867595f1b6a798e718c0bfa0b94a404128e03910160405180910390a150565b3360009081526002602052604090205460ff16610d175760405162461bcd60e51b815260206004820152603460248201527f4f6e6c7920746865206173736f63696174656420636f6e74726163742063616e604482015273103832b93337b936903a3434b99030b1ba34b7b760611b60648201526084016107cb565b6001600160a01b03821660009081526003602052604090819020905163a4c88c0760e01b815273__$d3b4366daeb9cadc7528af6145b50b2183$__9063a4c88c0790610d6a908490600190600401611d5b565b60006040518083038186803b158015610d8257600080fd5b505af4158015610d96573d6000803e3d6000fd5b50505050600b810154600c82015460405163e525e94f60e01b8152600481018490526001600160a01b03808716602483015292831660448201529116606482015260006084820181905260a4820181905260c4820184905260e482015273__$d3b4366daeb9cadc7528af6145b50b2183$__9063e525e94f90610104015b60006040518083038186803b158015610e2c57600080fd5b505af4158015610e40573d6000803e3d6000fd5b50505050505050565b60055460609060009061ffff1667ffffffffffffffff811115610e6e57610e6e611e02565b604051908082528060200260200182016040528015610e97578160200160208202803683370190505b50905060005b60055461ffff16811015610f045760008181526004602052604090205482516001600160a01b0390911690839083908110610eda57610eda611e18565b6001600160a01b039092166020928302919091019091015280610efc81611e2e565b915050610e9d565b50919050565b3360009081526002602052604090205460ff16610f865760405162461bcd60e51b815260206004820152603460248201527f4f6e6c7920746865206173736f63696174656420636f6e74726163742063616e604482015273103832b93337b936903a3434b99030b1ba34b7b760611b60648201526084016107cb565b6001600160a01b03821660009081526003602052604090819020905163a4c88c0760e01b815273__$d3b4366daeb9cadc7528af6145b50b2183$__9063a4c88c0790610fd9908490600190600401611d5b565b60006040518083038186803b158015610ff157600080fd5b505af4158015611005573d6000803e3d6000fd5b50505050600b810154600c82015460405163e525e94f60e01b8152600481018490526001600160a01b03808716602483015292831660448201529116606482015260006084820181905260a4820181905260c482015260e4810183905273__$d3b4366daeb9cadc7528af6145b50b2183$__9063e525e94f9061010401610e14565b6001600160a01b0382166000908152600360205260408120610537908361189a565b6000806000806110e78560408051602080820183526000918290526001600160a01b0393909316815260038352819020815192830190915254815290565b905061110d81516301000000811615159163020000008216151591630400000016151590565b935093509350509193909250565b3360009081526002602052604090205460ff166111975760405162461bcd60e51b815260206004820152603460248201527f4f6e6c7920746865206173736f63696174656420636f6e74726163742063616e604482015273103832b93337b936903a3434b99030b1ba34b7b760611b60648201526084016107cb565b60408051602080820183526000918290526001600160a01b038416825260038152828220835191820190935291548252506111d3816001611964565b516001600160a01b0391909116600090815260036020526040902055565b3360009081526002602052604090205460ff1661126d5760405162461bcd60e51b815260206004820152603460248201527f4f6e6c7920746865206173736f63696174656420636f6e74726163742063616e604482015273103832b93337b936903a3434b99030b1ba34b7b760611b60648201526084016107cb565b6005805462ff0000191662010000179055565b3360009081526002602052604090205460ff166112fc5760405162461bcd60e51b815260206004820152603460248201527f4f6e6c7920746865206173736f63696174656420636f6e74726163742063616e604482015273103832b93337b936903a3434b99030b1ba34b7b760611b60648201526084016107cb565b6001600160a01b03831660009081526003602052604090819020905163a4c88c0760e01b815273__$d3b4366daeb9cadc7528af6145b50b2183$__9063a4c88c079061134e9084908790600401611d5b565b60006040518083038186803b15801561136657600080fd5b505af415801561137a573d6000803e3d6000fd5b5050505082600181111561139057611390611d45565b61144357600b810154600c82015460405163e525e94f60e01b8152600481018490526001600160a01b03808816602483015292831660448201529116606482015260006084820181905260a4820184905260c4820181905260e482015273__$d3b4366daeb9cadc7528af6145b50b2183$__9063e525e94f90610104015b60006040518083038186803b15801561142657600080fd5b505af415801561143a573d6000803e3d6000fd5b505050506114ee565b600b810154600c82015460405163e525e94f60e01b8152600481018490526001600160a01b03808816602483015292831660448201529116606482015260006084820181905260a4820181905260c4820181905260e482015273__$d3b4366daeb9cadc7528af6145b50b2183$__9063e525e94f90610104015b60006040518083038186803b1580156114d557600080fd5b505af41580156114e9573d6000803e3d6000fd5b505050505b50505050565b3360009081526002602052604090205460ff166115705760405162461bcd60e51b815260206004820152603460248201527f4f6e6c7920746865206173736f63696174656420636f6e74726163742063616e604482015273103832b93337b936903a3434b99030b1ba34b7b760611b60648201526084016107cb565b6001600160a01b0383166000908152600360205260409081902090517f0eca322b000000000000000000000000000000000000000000000000000000008152600481018290526024810183905273__$5201a97c05ba6aa659e2f36a933dd51801$__90630eca322b9060440160006040518083038186803b1580156115f457600080fd5b505af4158015611608573d6000803e3d6000fd5b505060405163a4c88c0760e01b815273__$d3b4366daeb9cadc7528af6145b50b2183$__925063a4c88c0791506116459084908790600401611d5b565b60006040518083038186803b15801561165d57600080fd5b505af4158015611671573d6000803e3d6000fd5b5050505082600181111561168757611687611d45565b61170957600b810154600c82015460405163e525e94f60e01b8152600481018490526001600160a01b03808816602483015292831660448201529116606482015260848101839052600060a4820181905260c4820181905260e482015273__$d3b4366daeb9cadc7528af6145b50b2183$__9063e525e94f906101040161140e565b600b810154600c82015460405163e525e94f60e01b8152600481018490526001600160a01b03808816602483015292831660448201529116606482015260006084820181905260a4820181905260c4820184905260e482015273__$d3b4366daeb9cadc7528af6145b50b2183$__9063e525e94f90610104016114bd565b6000546001600160a01b031633146117e15760405162461bcd60e51b815260206004820181905260248201527f4f776e61626c653a2063616c6c6572206973206e6f7420746865206f776e657260448201526064016107cb565b6001805473ffffffffffffffffffffffffffffffffffffffff19166001600160a01b0392909216919091179055565b3360009081526002602052604090205460ff1661188c5760405162461bcd60e51b815260206004820152603460248201527f4f6e6c7920746865206173736f63696174656420636f6e74726163742063616e604482015273103832b93337b936903a3434b99030b1ba34b7b760611b60648201526084016107cb565b6005805462ff000019169055565b60008080808460018111156118b1576118b1611d45565b14156118e9575050600d83015460048401547401000000000000000000000000000000000000000090910464ffffffffff169061191c565b5050600d830154600584015479010000000000000000000000000000000000000000000000000090910464ffffffffff16905b4264ffffffffff168264ffffffffff16141561193b57915061053a9050565b600061195a8261195461194e89896119a9565b866119da565b90611a27565b9695505050505050565b601881611972576000611975565b60015b83517ffffffffffffffffffffffffffffffffffffffffffffffffffffffffffeffffff1660ff9190911690911b1790915250565b6000808260018111156119be576119be611d45565b14156119cf5750600282015461053a565b50600382015461053a565b6000806119ee4264ffffffffff8516611a63565b9050611a1f6b033b2e3c9fd0803ce80000006301e13380611a0f8785611a6f565b611a199190611e49565b90611a7b565b949350505050565b60006105376b033b2e3c9fd0803ce8000000611a5d611a468686611a6f565b611a1960026b033b2e3c9fd0803ce8000000611e49565b90611a87565b60006105378284611e6b565b60006105378284611e82565b60006105378284611ea1565b60006105378284611e49565b80356001600160a01b0381168114611aaa57600080fd5b919050565b600060208284031215611ac157600080fd5b61053782611a93565b803560028110611aaa57600080fd5b60008060408385031215611aec57600080fd5b611af583611a93565b9150611b0360208401611aca565b90509250929050565b815151815261026081016020830151602083015260408301516040830152606083015160608301526080830151608083015260a083015160a083015260c083015160c083015260e083015160e083015261010080840151818401525061012080840151611b83828501826001600160a01b03169052565b5050610140838101516001600160a01b039081169184019190915261016080850151821690840152610180808501518216908401526101a080850151909116908301526101c08084015164ffffffffff908116918401919091526101e080850151909116908301526102008084015190830152610220808401519083015261024092830151929091019190915290565b600080600080600080600060e0888a031215611c2e57600080fd5b611c3788611a93565b9650611c4560208901611a93565b9550611c5360408901611a93565b9450611c6160608901611a93565b9350611c6f60808901611a93565b9250611c7d60a08901611a93565b915060c0880135905092959891949750929550565b60008060408385031215611ca557600080fd5b611cae83611a93565b946020939093013593505050565b6020808252825182820181905260009190848201906040850190845b81811015611cfd5783516001600160a01b031683529284019291840191600101611cd8565b50909695505050505050565b600080600060608486031215611d1e57600080fd5b611d2784611a93565b9250611d3560208501611aca565b9150604084013590509250925092565b634e487b7160e01b600052602160045260246000fd5b8281526040810160028310611d8057634e487b7160e01b600052602160045260246000fd5b8260208301529392505050565b600060208284031215611d9f57600080fd5b5051919050565b634e487b7160e01b600052601160045260246000fd5b600061ffff80831681811415611dd457611dd4611da6565b6001019392505050565b60008060408385031215611df157600080fd5b505080516020909101519092909150565b634e487b7160e01b600052604160045260246000fd5b634e487b7160e01b600052603260045260246000fd5b6000600019821415611e4257611e42611da6565b5060010190565b600082611e6657634e487b7160e01b600052601260045260246000fd5b500490565b600082821015611e7d57611e7d611da6565b500390565b6000816000190483118215151615611e9c57611e9c611da6565b500290565b60008219821115611eb457611eb4611da6565b50019056fea264697066735822122043b510235f96f73c256b3ae4b69c77bb5ead0617760419603a82972b7c97785964736f6c63430008090033",
  "libraries": {
    "ReserveLogic": "0x6F1c2772D7714C584237e36993eF7Ec00d725bF6",
    "ValidationLogic": "0xb9A101f840d0c652087c96E65787a5c3eEC4B36A"
  },
  "devdoc": {
    "kind": "dev",
    "methods": {
      "claimOwnership()": {
        "details": "Allows the pendingOwner address to finalize the transfer."
      },
      "isOwner()": {
        "details": "Returns true if the caller is the current owner."
      },
      "transferOwnership(address)": {
        "details": "Allows the current owner to set the pendingOwner address.",
        "params": {
          "newOwner": "The address to transfer ownership to."
        }
      }
    },
    "version": 1
  },
  "userdoc": {
    "kind": "user",
    "methods": {},
    "version": 1
  },
  "storageLayout": {
    "storage": [
      {
        "astId": 10735,
        "contract": "contracts/component/shared/storage/LiquidityManagerStorage.sol:LiquidityManagerStorage",
        "label": "owner",
        "offset": 0,
        "slot": "0",
        "type": "t_address"
      },
      {
        "astId": 10737,
        "contract": "contracts/component/shared/storage/LiquidityManagerStorage.sol:LiquidityManagerStorage",
        "label": "pendingOwner",
        "offset": 0,
        "slot": "1",
        "type": "t_address"
      },
      {
        "astId": 11126,
        "contract": "contracts/component/shared/storage/LiquidityManagerStorage.sol:LiquidityManagerStorage",
        "label": "associatedContracts",
        "offset": 0,
        "slot": "2",
        "type": "t_mapping(t_address,t_bool)"
      },
      {
        "astId": 3610,
        "contract": "contracts/component/shared/storage/LiquidityManagerStorage.sol:LiquidityManagerStorage",
        "label": "_reserves",
        "offset": 0,
        "slot": "3",
        "type": "t_mapping(t_address,t_struct(ReserveData)11232_storage)"
      },
      {
        "astId": 3614,
        "contract": "contracts/component/shared/storage/LiquidityManagerStorage.sol:LiquidityManagerStorage",
        "label": "_reserveList",
        "offset": 0,
        "slot": "4",
        "type": "t_mapping(t_uint256,t_address)"
      },
      {
        "astId": 3616,
        "contract": "contracts/component/shared/storage/LiquidityManagerStorage.sol:LiquidityManagerStorage",
        "label": "_reservesCount",
        "offset": 0,
        "slot": "5",
        "type": "t_uint16"
      },
      {
        "astId": 3618,
        "contract": "contracts/component/shared/storage/LiquidityManagerStorage.sol:LiquidityManagerStorage",
        "label": "_paused",
        "offset": 2,
        "slot": "5",
        "type": "t_bool"
      }
    ],
    "types": {
      "t_address": {
        "encoding": "inplace",
        "label": "address",
        "numberOfBytes": "20"
      },
      "t_bool": {
        "encoding": "inplace",
        "label": "bool",
        "numberOfBytes": "1"
      },
      "t_mapping(t_address,t_bool)": {
        "encoding": "mapping",
        "key": "t_address",
        "label": "mapping(address => bool)",
        "numberOfBytes": "32",
        "value": "t_bool"
      },
      "t_mapping(t_address,t_struct(ReserveData)11232_storage)": {
        "encoding": "mapping",
        "key": "t_address",
        "label": "mapping(address => struct DataTypes.ReserveData)",
        "numberOfBytes": "32",
        "value": "t_struct(ReserveData)11232_storage"
      },
      "t_mapping(t_uint256,t_address)": {
        "encoding": "mapping",
        "key": "t_uint256",
        "label": "mapping(uint256 => address)",
        "numberOfBytes": "32",
        "value": "t_address"
      },
      "t_struct(ReserveConfigurationMap)11235_storage": {
        "encoding": "inplace",
        "label": "struct DataTypes.ReserveConfigurationMap",
        "members": [
          {
            "astId": 11234,
            "contract": "contracts/component/shared/storage/LiquidityManagerStorage.sol:LiquidityManagerStorage",
            "label": "data",
            "offset": 0,
            "slot": "0",
            "type": "t_uint256"
          }
        ],
        "numberOfBytes": "32"
      },
      "t_struct(ReserveData)11232_storage": {
        "encoding": "inplace",
        "label": "struct DataTypes.ReserveData",
        "members": [
          {
            "astId": 11195,
            "contract": "contracts/component/shared/storage/LiquidityManagerStorage.sol:LiquidityManagerStorage",
            "label": "configuration",
            "offset": 0,
            "slot": "0",
            "type": "t_struct(ReserveConfigurationMap)11235_storage"
          },
          {
            "astId": 11197,
            "contract": "contracts/component/shared/storage/LiquidityManagerStorage.sol:LiquidityManagerStorage",
            "label": "currentOverallLiquidityRate",
            "offset": 0,
            "slot": "1",
            "type": "t_uint256"
          },
          {
            "astId": 11199,
            "contract": "contracts/component/shared/storage/LiquidityManagerStorage.sol:LiquidityManagerStorage",
            "label": "currentJuniorLiquidityRate",
            "offset": 0,
            "slot": "2",
            "type": "t_uint256"
          },
          {
            "astId": 11201,
            "contract": "contracts/component/shared/storage/LiquidityManagerStorage.sol:LiquidityManagerStorage",
            "label": "currentSeniorLiquidityRate",
            "offset": 0,
            "slot": "3",
            "type": "t_uint256"
          },
          {
            "astId": 11203,
            "contract": "contracts/component/shared/storage/LiquidityManagerStorage.sol:LiquidityManagerStorage",
            "label": "juniorLiquidityIndex",
            "offset": 0,
            "slot": "4",
            "type": "t_uint256"
          },
          {
            "astId": 11205,
            "contract": "contracts/component/shared/storage/LiquidityManagerStorage.sol:LiquidityManagerStorage",
            "label": "seniorLiquidityIndex",
            "offset": 0,
            "slot": "5",
            "type": "t_uint256"
          },
          {
            "astId": 11207,
            "contract": "contracts/component/shared/storage/LiquidityManagerStorage.sol:LiquidityManagerStorage",
            "label": "currentBorrowRate",
            "offset": 0,
            "slot": "6",
            "type": "t_uint256"
          },
          {
            "astId": 11209,
            "contract": "contracts/component/shared/storage/LiquidityManagerStorage.sol:LiquidityManagerStorage",
            "label": "securityRequirement",
            "offset": 0,
            "slot": "7",
            "type": "t_uint256"
          },
          {
            "astId": 11211,
            "contract": "contracts/component/shared/storage/LiquidityManagerStorage.sol:LiquidityManagerStorage",
            "label": "decimals",
            "offset": 0,
            "slot": "8",
            "type": "t_uint256"
          },
          {
            "astId": 11213,
            "contract": "contracts/component/shared/storage/LiquidityManagerStorage.sol:LiquidityManagerStorage",
            "label": "interestRateStrategyAddress",
            "offset": 0,
            "slot": "9",
            "type": "t_address"
          },
          {
            "astId": 11215,
            "contract": "contracts/component/shared/storage/LiquidityManagerStorage.sol:LiquidityManagerStorage",
            "label": "healthStrategyAddress",
            "offset": 0,
            "slot": "10",
            "type": "t_address"
          },
          {
            "astId": 11217,
            "contract": "contracts/component/shared/storage/LiquidityManagerStorage.sol:LiquidityManagerStorage",
            "label": "juniorDepositTokenAddress",
            "offset": 0,
            "slot": "11",
            "type": "t_address"
          },
          {
            "astId": 11219,
            "contract": "contracts/component/shared/storage/LiquidityManagerStorage.sol:LiquidityManagerStorage",
            "label": "seniorDepositTokenAddress",
            "offset": 0,
            "slot": "12",
            "type": "t_address"
          },
          {
            "astId": 11221,
            "contract": "contracts/component/shared/storage/LiquidityManagerStorage.sol:LiquidityManagerStorage",
            "label": "debtTokenAddress",
            "offset": 0,
            "slot": "13",
            "type": "t_address"
          },
          {
            "astId": 11223,
            "contract": "contracts/component/shared/storage/LiquidityManagerStorage.sol:LiquidityManagerStorage",
            "label": "juniorLastUpdateTimestamp",
            "offset": 20,
            "slot": "13",
            "type": "t_uint40"
          },
          {
            "astId": 11225,
            "contract": "contracts/component/shared/storage/LiquidityManagerStorage.sol:LiquidityManagerStorage",
            "label": "seniorLastUpdateTimestamp",
            "offset": 25,
            "slot": "13",
            "type": "t_uint40"
          },
          {
            "astId": 11227,
            "contract": "contracts/component/shared/storage/LiquidityManagerStorage.sol:LiquidityManagerStorage",
            "label": "optimalTrancheRatio",
            "offset": 0,
            "slot": "14",
            "type": "t_uint256"
          },
          {
            "astId": 11229,
            "contract": "contracts/component/shared/storage/LiquidityManagerStorage.sol:LiquidityManagerStorage",
            "label": "currentIncomeRatio",
            "offset": 0,
            "slot": "15",
            "type": "t_uint256"
          },
          {
            "astId": 11231,
            "contract": "contracts/component/shared/storage/LiquidityManagerStorage.sol:LiquidityManagerStorage",
            "label": "optimalIncomeRatio",
            "offset": 0,
            "slot": "16",
            "type": "t_uint256"
          }
        ],
        "numberOfBytes": "544"
      },
      "t_uint16": {
        "encoding": "inplace",
        "label": "uint16",
        "numberOfBytes": "2"
      },
      "t_uint256": {
        "encoding": "inplace",
        "label": "uint256",
        "numberOfBytes": "32"
      },
      "t_uint40": {
        "encoding": "inplace",
        "label": "uint40",
        "numberOfBytes": "5"
      }
    }
  }
}