{
  "address": "0x9e7C323f237283852FC715B43FB7529eC44f4Ed4",
  "abi": [
    {
      "anonymous": false,
      "inputs": [
        {
          "indexed": true,
          "internalType": "address",
          "name": "asset",
          "type": "address"
        },
        {
          "indexed": false,
          "internalType": "uint256",
          "name": "liquidityRate",
          "type": "uint256"
        },
        {
          "indexed": false,
          "internalType": "uint256",
          "name": "stableBorrowRate",
          "type": "uint256"
        },
        {
          "indexed": false,
          "internalType": "uint256",
          "name": "liquidityIndex",
          "type": "uint256"
        }
      ],
      "name": "ReserveDataUpdated",
      "type": "event"
    },
    {
      "inputs": [
        {
          "internalType": "enum ReserveLogic.Tranche",
          "name": "tranche",
          "type": "ReserveLogic.Tranche"
        }
      ],
      "name": "trancheToBytes32",
      "outputs": [
        {
          "internalType": "bytes32",
          "name": "",
          "type": "bytes32"
        }
      ],
      "stateMutability": "view",
      "type": "function"
    }
  ],
  "transactionHash": "0x9e8bcca67baedff4b93cc052dbf17514730d4f3f9a03b5f370928f7912821531",
  "args": [],
  "numDeployments": 1,
  "solcInputHash": "5f639bf136e9892bc554d038e08ef4c2",
  "bytecode": "0x610cf461003a600b82828239805160001a60731461002d57634e487b7160e01b600052600060045260246000fd5b30600052607381538281f3fe73000000000000000000000000000000000000000030146080604052600436106100715760003560e01c8063a4c88c071161005a578063a4c88c0714610171578063aaa905d014610191578063bb43fb80146101b157600080fd5b806310a01f1a1461007657806319dfc3811461009b575b600080fd5b610089610084366004610a12565b6101c4565b60405190815260200160405180910390f35b8180156100a757600080fd5b5061016f6100b6366004610a51565b6b033b2e3c9fd0803ce800000060048801556b033b2e3c9fd0803ce80000006005880155600b870180547fffffffffffffffffffffffff000000000000000000000000000000000000000090811673ffffffffffffffffffffffffffffffffffffffff98891617909155600c88018054821696881696909617909555600d87018054861694871694909417909355600986018054851692861692909217909155600a850180549093169316929092179055601090910155565b005b81801561017d57600080fd5b5061016f61018c366004610ac9565b6101de565b81801561019d57600080fd5b5061016f6101ac366004610af5565b6101ec565b6100896101bf366004610ac9565b61071d565b60008160018111156101d8576101d8610b54565b92915050565b6101e88282610730565b5050565b61025f604051806101600160405280600073ffffffffffffffffffffffffffffffffffffffff168152602001600081526020016000815260200160008152602001600081526020016000815260200160008152602001600081526020016000815260200160008152602001600081525090565b600d87015473ffffffffffffffffffffffffffffffffffffffff16808252604080517ff731e9be000000000000000000000000000000000000000000000000000000008152815163f731e9be92600480840193919291829003018186803b1580156102c957600080fd5b505afa1580156102dd573d6000803e3d6000fd5b505050506040513d601f19601f820116820180604052508101906103019190610b6a565b610140830181905260a0830182905260098901546040517f81c8c97200000000000000000000000000000000000000000000000000000000815273ffffffffffffffffffffffffffffffffffffffff8a8116600483015288811660248301526044820188905260648201879052608482019490945260a481019290925291909116906381c8c9729060c401604080518083038186803b1580156103a357600080fd5b505afa1580156103b7573d6000803e3d6000fd5b505050506040513d601f19601f820116820180604052508101906103db9190610b6a565b61012083015260c0820181905260408051808201909152600281527f38300000000000000000000000000000000000000000000000000000000000006020820152906fffffffffffffffffffffffffffffffff1015610470576040517f08c379a00000000000000000000000000000000000000000000000000000000081526004016104679190610b8e565b60405180910390fd5b5061012081015160408051808201909152600281527f38310000000000000000000000000000000000000000000000000000000000006020820152906fffffffffffffffffffffffffffffffff10156104f6576040517f08c379a00000000000000000000000000000000000000000000000000000000081526004016104679190610b8e565b508373ffffffffffffffffffffffffffffffffffffffff166318160ddd6040518163ffffffff1660e01b815260040160206040518083038186803b15801561053d57600080fd5b505afa158015610551573d6000803e3d6000fd5b505050506040513d601f19601f820116820180604052508101906105759190610c01565b8160600181815250508473ffffffffffffffffffffffffffffffffffffffff166318160ddd6040518163ffffffff1660e01b815260040160206040518083038186803b1580156105c457600080fd5b505afa1580156105d8573d6000803e3d6000fd5b505050506040513d601f19601f820116820180604052508101906105fc9190610c01565b6040820181905261061e57600060e082015260c081015161010082015261068c565b60408101516060820151610631916107be565b60808201819052601088015461066d91906106679061065c906b033b2e3c9fd0803ce8000000610c30565b60c085015190610800565b90610800565b60e0820152601087015460c082015161068591610800565b6101008201525b60c0810151600188018190556101208201516006890181905560e083015160028a015561010083015160038a015560408051838152602081019290925281019190915273ffffffffffffffffffffffffffffffffffffffff8716907f51eedbe668e048aec37e4dc0104031dbf295c9f3b35bfd9cb73a217b6ff812599060600160405180910390a250505050505050565b6000610729838361083c565b9392505050565b600081600181111561074457610744610b54565b1415610785576004820154600d83015474010000000000000000000000000000000000000000900464ffffffffff1661077e84838361086d565b5050505050565b6005820154600d830154790100000000000000000000000000000000000000000000000000900464ffffffffff1661077e8483836108fb565b6000806107cc600284610c47565b90506107f8836107f26107eb876b033b2e3c9fd0803ce800000061098f565b849061099b565b906109a7565b949350505050565b60006107296b033b2e3c9fd0803ce80000006107f261081f868661098f565b61083660026b033b2e3c9fd0803ce8000000610c47565b9061099b565b60008082600181111561085157610851610b54565b1415610862575060028201546101d8565b5060038201546101d8565b60008061087a858261083c565b90508381156108a657600061088f83866109b3565b905061089b8187610800565b600488018190559150505b600d9590950180547fffffffffffffff0000000000ffffffffffffffffffffffffffffffffffffffff16740100000000000000000000000000000000000000004264ffffffffff160217905550929392505050565b60008061090985600161083c565b905083811561093557600061091e83866109b3565b905061092a8187610800565b600588018190559150505b600d9590950180547fffff0000000000ffffffffffffffffffffffffffffffffffffffffffffffffff167901000000000000000000000000000000000000000000000000004264ffffffffff160217905550929392505050565b60006107298284610c69565b60006107298284610ca6565b60006107298284610c47565b6000806109c74264ffffffffff85166109f2565b90506107f86b033b2e3c9fd0803ce80000006301e133806109e8878561098f565b6108369190610c47565b60006107298284610c30565b803560028110610a0d57600080fd5b919050565b600060208284031215610a2457600080fd5b610729826109fe565b803573ffffffffffffffffffffffffffffffffffffffff81168114610a0d57600080fd5b600080600080600080600060e0888a031215610a6c57600080fd5b87359650610a7c60208901610a2d565b9550610a8a60408901610a2d565b9450610a9860608901610a2d565b9350610aa660808901610a2d565b9250610ab460a08901610a2d565b915060c0880135905092959891949750929550565b60008060408385031215610adc57600080fd5b82359150610aec602084016109fe565b90509250929050565b60008060008060008060c08789031215610b0e57600080fd5b86359550610b1e60208801610a2d565b9450610b2c60408801610a2d565b9350610b3a60608801610a2d565b92506080870135915060a087013590509295509295509295565b634e487b7160e01b600052602160045260246000fd5b60008060408385031215610b7d57600080fd5b505080516020909101519092909150565b600060208083528351808285015260005b81811015610bbb57858101830151858201604001528201610b9f565b81811115610bcd576000604083870101525b50601f017fffffffffffffffffffffffffffffffffffffffffffffffffffffffffffffffe016929092016040019392505050565b600060208284031215610c1357600080fd5b5051919050565b634e487b7160e01b600052601160045260246000fd5b600082821015610c4257610c42610c1a565b500390565b600082610c6457634e487b7160e01b600052601260045260246000fd5b500490565b6000817fffffffffffffffffffffffffffffffffffffffffffffffffffffffffffffffff0483118215151615610ca157610ca1610c1a565b500290565b60008219821115610cb957610cb9610c1a565b50019056fea2646970667358221220c0c12a9bb2cd81248a4c7c70c83235cf71ea31636e32cd264810235704fb578d64736f6c63430008090033",
  "devdoc": {
    "author": "Voyager",
    "events": {
      "ReserveDataUpdated(address,uint256,uint256,uint256)": {
        "details": "Emitted when the state of a reserve is updated",
        "params": {
          "asset": "The address of the underlying asset of the reserve",
          "liquidityIndex": "The new liquidity index*",
          "liquidityRate": "The new liquidity rate",
          "stableBorrowRate": "The new stable borrow rate"
        }
      }
    },
    "kind": "dev",
    "methods": {},
    "title": "ReserveLogic library",
    "version": 1
  },
  "userdoc": {
    "kind": "user",
    "methods": {},
    "notice": "Implements the logic to update the reserves state*",
    "version": 1
  },
  "storageLayout": {
    "storage": [],
    "types": null
  }
}