{
  "address": "0x568133D74EAa2d77e1B050d5DA894c42f240fC2E",
  "abi": [
    {
      "anonymous": false,
      "inputs": [
        {
          "indexed": true,
          "internalType": "address",
          "name": "asset",
          "type": "address"
        },
        {
          "indexed": false,
          "internalType": "uint256",
          "name": "liquidityRate",
          "type": "uint256"
        },
        {
          "indexed": false,
          "internalType": "uint256",
          "name": "stableBorrowRate",
          "type": "uint256"
        },
        {
          "indexed": false,
          "internalType": "uint256",
          "name": "liquidityIndex",
          "type": "uint256"
        }
      ],
      "name": "ReserveDataUpdated",
      "type": "event"
    },
    {
      "inputs": [
        {
          "internalType": "enum ReserveLogic.Tranche",
          "name": "tranche",
          "type": "ReserveLogic.Tranche"
        }
      ],
      "name": "trancheToBytes32",
      "outputs": [
        {
          "internalType": "bytes32",
          "name": "",
          "type": "bytes32"
        }
      ],
      "stateMutability": "view",
      "type": "function"
    }
  ],
  "transactionHash": "0xe9ec55e0742c64b9187bff0172f498a01cc1c1a42d7c0d678bb8f7605111a660",
  "args": [],
  "numDeployments": 1,
  "solcInputHash": "36c545191a21c01ad4cdfe8c379680b1",
  "bytecode": "0x610b9e61003a600b82828239805160001a60731461002d57634e487b7160e01b600052600060045260246000fd5b30600052607381538281f3fe73000000000000000000000000000000000000000030146080604052600436106100715760003560e01c80636a2da27e1161005a5780636a2da27e1461017c578063a4c88c071461019c578063bb43fb80146101bc57600080fd5b80630c6e37411461007657806310a01f1a14610157575b600080fd5b81801561008257600080fd5b506101556100913660046108f1565b6b033b2e3c9fd0803ce800000060048901556b033b2e3c9fd0803ce80000006005890155600c880180547fffffffffffffffffffffffff000000000000000000000000000000000000000090811673ffffffffffffffffffffffffffffffffffffffff998a1617909155600d8901805482169789169790971790965560038801949094556002870192909255600e860180548516918616919091179055600a850180548416918516919091179055600b909301805490911692909116919091179055565b005b61016a610165366004610982565b6101cf565b60405190815260200160405180910390f35b81801561018857600080fd5b5061015561019736600461099d565b6101e9565b8180156101a857600080fd5b506101556101b73660046109eb565b610597565b61016a6101ca3660046109eb565b6105a5565b60008160018111156101e3576101e3610a17565b92915050565b6102386040518060c00160405280600073ffffffffffffffffffffffffffffffffffffffff16815260200160008152602001600081526020016000815260200160008152602001600081525090565b600e87015473ffffffffffffffffffffffffffffffffffffffff168152600061026186856105b8565b9050600061026f86856105b8565b600e8a0154604080517ff731e9be000000000000000000000000000000000000000000000000000000008152815193945073ffffffffffffffffffffffffffffffffffffffff9092169263f731e9be926004808201939291829003018186803b1580156102db57600080fd5b505afa1580156102ef573d6000803e3d6000fd5b505050506040513d601f19601f820116820180604052508101906103139190610a2d565b60a08501819052604080860192909252600a8b0154600c8c0154600d8d015460068e015494517f80a5f70f00000000000000000000000000000000000000000000000000000000815273ffffffffffffffffffffffffffffffffffffffff8e8116600483015292831660248201529082166044820152606481018790526084810186905260a481019490945260c484019290925216906380a5f70f9060e401604080518083038186803b1580156103c957600080fd5b505afa1580156103dd573d6000803e3d6000fd5b505050506040513d601f19601f820116820180604052508101906104019190610a2d565b60808501526060840181905260408051808201909152600281527f38300000000000000000000000000000000000000000000000000000000000006020820152906fffffffffffffffffffffffffffffffff1015610495576040517f08c379a000000000000000000000000000000000000000000000000000000000815260040161048c9190610a51565b60405180910390fd5b50608083015160408051808201909152600281527f38310000000000000000000000000000000000000000000000000000000000006020820152906fffffffffffffffffffffffffffffffff101561051a576040517f08c379a000000000000000000000000000000000000000000000000000000000815260040161048c9190610a51565b5060608381015160018b01819055608085015160078c0181905560408051838152602081019290925281019190915273ffffffffffffffffffffffffffffffffffffffff8a16917f51eedbe668e048aec37e4dc0104031dbf295c9f3b35bfd9cb73a217b6ff81259910160405180910390a2505050505050505050565b6105a182826105c4565b5050565b60006105b18383610652565b9392505050565b60006105b18284610ada565b60008160018111156105d8576105d8610a17565b1415610619576004820154600e83015474010000000000000000000000000000000000000000900464ffffffffff166106128483836106c5565b5050505050565b6005820154600e830154790100000000000000000000000000000000000000000000000000900464ffffffffff16610612848383610753565b600080610670846002015485600301546105b890919063ffffffff16565b9050600083600181111561068657610686610a17565b14156106b25760038401546106aa9061069f90836107e7565b600186015490610829565b9150506101e3565b60028401546106aa9061069f90836107e7565b6000806106d28582610652565b90508381156106fe5760006106e78386610865565b90506106f38187610829565b600488018190559150505b600e9590950180547fffffffffffffff0000000000ffffffffffffffffffffffffffffffffffffffff16740100000000000000000000000000000000000000004264ffffffffff160217905550929392505050565b600080610761856001610652565b905083811561078d5760006107768386610865565b90506107828187610829565b600588018190559150505b600e9590950180547fffff0000000000ffffffffffffffffffffffffffffffffffffffffffffffffff167901000000000000000000000000000000000000000000000000004264ffffffffff160217905550929392505050565b6000806107f5600284610af2565b90506108218361081b610814876b033b2e3c9fd0803ce80000006108a4565b84906105b8565b906108b0565b949350505050565b60006105b16b033b2e3c9fd0803ce800000061081b61084886866108a4565b61085f60026b033b2e3c9fd0803ce8000000610af2565b906105b8565b6000806108794264ffffffffff85166108bc565b90506108216b033b2e3c9fd0803ce80000006301e1338061089a87856108a4565b61085f9190610af2565b60006105b18284610b14565b60006105b18284610af2565b60006105b18284610b51565b803573ffffffffffffffffffffffffffffffffffffffff811681146108ec57600080fd5b919050565b600080600080600080600080610100898b03121561090e57600080fd5b8835975061091e60208a016108c8565b965061092c60408a016108c8565b9550606089013594506080890135935061094860a08a016108c8565b925061095660c08a016108c8565b915061096460e08a016108c8565b90509295985092959890939650565b8035600281106108ec57600080fd5b60006020828403121561099457600080fd5b6105b182610973565b60008060008060008060c087890312156109b657600080fd5b863595506109c6602088016108c8565b95989597505050506040840135936060810135936080820135935060a0909101359150565b600080604083850312156109fe57600080fd5b82359150610a0e60208401610973565b90509250929050565b634e487b7160e01b600052602160045260246000fd5b60008060408385031215610a4057600080fd5b505080516020909101519092909150565b600060208083528351808285015260005b81811015610a7e57858101830151858201604001528201610a62565b81811115610a90576000604083870101525b50601f017fffffffffffffffffffffffffffffffffffffffffffffffffffffffffffffffe016929092016040019392505050565b634e487b7160e01b600052601160045260246000fd5b60008219821115610aed57610aed610ac4565b500190565b600082610b0f57634e487b7160e01b600052601260045260246000fd5b500490565b6000817fffffffffffffffffffffffffffffffffffffffffffffffffffffffffffffffff0483118215151615610b4c57610b4c610ac4565b500290565b600082821015610b6357610b63610ac4565b50039056fea2646970667358221220d1ef8a25aef99893bacaaeb20ac2ddb28e64180a106f9592e90117cff617890864736f6c63430008090033",
  "devdoc": {
    "author": "Voyager",
    "events": {
      "ReserveDataUpdated(address,uint256,uint256,uint256)": {
        "details": "Emitted when the state of a reserve is updated",
        "params": {
          "asset": "The address of the underlying asset of the reserve",
          "liquidityIndex": "The new liquidity index*",
          "liquidityRate": "The new liquidity rate",
          "stableBorrowRate": "The new stable borrow rate"
        }
      }
    },
    "kind": "dev",
    "methods": {},
    "title": "ReserveLogic library",
    "version": 1
  },
  "userdoc": {
    "kind": "user",
    "methods": {},
    "notice": "Implements the logic to update the reserves state*",
    "version": 1
  },
  "storageLayout": {
    "storage": [],
    "types": null
  }
}