{
  "address": "0x916C2fD49A4D3081C356EFb31B4F59195a8ef98a",
  "abi": [
    {
      "inputs": [
        {
          "internalType": "bytes32",
          "name": "salt",
          "type": "bytes32"
        }
      ],
      "name": "createVault",
      "outputs": [
        {
          "internalType": "address",
          "name": "",
          "type": "address"
        }
      ],
      "stateMutability": "nonpayable",
      "type": "function"
    }
  ],
  "transactionHash": "0x2affecb58e69cfea62b5182aafaba342d1cfbd432b68d1dd4b592d380b0428bd",
  "args": [],
  "numDeployments": 1,
  "solcInputHash": "5581b7bd0906416eb346441aec54c4cd",
  "bytecode": "0x608060405234801561001057600080fd5b5061544b806100206000396000f3fe608060405234801561001057600080fd5b506004361061002b5760003560e01c806317799f3614610030575b600080fd5b61004361003e366004610211565b61006c565b60405173ffffffffffffffffffffffffffffffffffffffff909116815260200160405180910390f35b6000806040518060200161007f90610204565b6020820181038252601f19601f8201166040525090506100e1600084604051806020016100ab90610204565b7fffffffffffffffffffffffffffffffffffffffffffffffffffffffffffffffe082820381018352601f909101166040526100e8565b9392505050565b600080844710156101405760405162461bcd60e51b815260206004820152601d60248201527f437265617465323a20696e73756666696369656e742062616c616e636500000060448201526064015b60405180910390fd5b825161018e5760405162461bcd60e51b815260206004820181905260248201527f437265617465323a2062797465636f6465206c656e677468206973207a65726f6044820152606401610137565b8383516020850187f5905073ffffffffffffffffffffffffffffffffffffffff81166101fc5760405162461bcd60e51b815260206004820152601960248201527f437265617465323a204661696c6564206f6e206465706c6f79000000000000006044820152606401610137565b949350505050565b6151eb8061022b83390190565b60006020828403121561022357600080fd5b503591905056fe608060405234801561001057600080fd5b5060016000556151c6806100256000396000f3fe6080604052600436106200019f5760003560e01c806371b26ee211620000e7578063bf918e751162000089578063f448e1401162000060578063f448e14014620004af578063f71d96cb14620004d1578063fc5eb0df14620004f657600080fd5b8063bf918e751462000443578063e74f82391462000468578063ee99205c146200048d57600080fd5b80638df3799911620000be5780638df3799914620003e4578063915d34c714620003fc578063b18090ae146200042357600080fd5b806371b26ee21462000383578063798d2e88146200039a5780638dab5cf214620003bf57600080fd5b8063158ef93e11620001515780634e151f2511620001285780634e151f25146200033557806366f23026146200034c5780636afe5795146200036357600080fd5b8063158ef93e14620002bc57806339b616a214620002e9578063485cc955146200030e57600080fd5b80630d8e6e2c11620001865780630d8e6e2c14620002265780631156c9d11462000275578063145c22b6146200029757600080fd5b8063065d570f14620001a45780630a8d69b014620001ed575b600080fd5b348015620001b157600080fd5b50620001da7fbf87e2252b7172d9c61058578b6bef80f9573784ab4e27044251da25a76ed28e81565b6040519081526020015b60405180910390f35b348015620001fa57600080fd5b5060035461010090046001600160a01b03165b6040516001600160a01b039091168152602001620001e4565b3480156200023357600080fd5b50604080518082018252600b81527f5661756c7420302e302e3100000000000000000000000000000000000000000060208201529051620001e4919062001beb565b3480156200028257600080fd5b506004546200020d906001600160a01b031681565b348015620002a457600080fd5b50620001da620002b636600462001c19565b6200051b565b348015620002c957600080fd5b50600354620002d89060ff1681565b6040519015158152602001620001e4565b348015620002f657600080fd5b50620001da6200030836600462001c57565b62000530565b3480156200031b57600080fd5b50620003336200032d36600462001c19565b620005d7565b005b620003336200034636600462001c77565b6200066e565b620003336200035d36600462001c77565b6200088c565b3480156200037057600080fd5b506005546001600160a01b03166200020d565b3480156200039057600080fd5b50600654620001da565b348015620003a757600080fd5b50620001da620003b936600462001c57565b62000d1c565b348015620003cc57600080fd5b5062000333620003de36600462001c57565b62000d56565b348015620003f157600080fd5b50620001da60065481565b3480156200040957600080fd5b506003546200020d9061010090046001600160a01b031681565b3480156200043057600080fd5b506004546001600160a01b03166200020d565b3480156200045057600080fd5b50620003336200046236600462001c57565b62000fba565b3480156200047557600080fd5b50620003336200048736600462001c77565b62001149565b3480156200049a57600080fd5b506005546200020d906001600160a01b031681565b348015620004bc57600080fd5b506001546200020d906001600160a01b031681565b348015620004de57600080fd5b506200020d620004f036600462001cbd565b6200120e565b3480156200050357600080fd5b50620001da6200051536600462001c19565b62001239565b600062000529838362001247565b9392505050565b6003546040517fb8ba16fd0000000000000000000000000000000000000000000000000000000081526001600160a01b0383811660048301526000926101009004169063b8ba16fd906024015b60206040518083038186803b1580156200059657600080fd5b505afa158015620005ab573d6000803e3d6000fd5b505050506040513d601f19601f82011682018060405250810190620005d1919062001cd7565b92915050565b60035460ff166200066a576001805473ffffffffffffffffffffffffffffffffffffffff19166001600160a01b03848116919091178255600380547fffffffffffffffffffffff00000000000000000000000000000000000000000016610100928516929092027fffffffffffffffffffffffffffffffffffffffffffffffffffffffffffffff00169190911790911790555b5050565b60026000541415620006c75760405162461bcd60e51b815260206004820152601f60248201527f5265656e7472616e637947756172643a207265656e7472616e742063616c6c0060448201526064015b60405180910390fd5b6002600055620006d66200127d565b620006e2838362001247565b811115620007595760405162461bcd60e51b815260206004820152603a60248201527f5661756c743a2063616e6e6f742072656465656d206d6f7265207468616e207760448201527f6974686472617761626c65206465706f73697420616d6f756e740000000000006064820152608401620006be565b60035461010090046001600160a01b031663d9caed1283856200077d818362001475565b6040517fffffffff0000000000000000000000000000000000000000000000000000000060e086901b1681526001600160a01b0393841660048201529290911660248301526044820152606401600060405180830381600087803b158015620007e557600080fd5b505af1158015620007fa573d6000803e3d6000fd5b5050600480546040517f3dd4c8530000000000000000000000000000000000000000000000000000000081526001600160a01b03888116938201939093526024810186905291169250633dd4c85391506044015b600060405180830381600087803b1580156200086957600080fd5b505af11580156200087e573d6000803e3d6000fd5b505060016000555050505050565b60026000541415620008e15760405162461bcd60e51b815260206004820152601f60248201527f5265656e7472616e637947756172643a207265656e7472616e742063616c6c006044820152606401620006be565b6002600055620008f06200127d565b600154604080517f05a2ee2a00000000000000000000000000000000000000000000000000000000815290516000926001600160a01b0316916305a2ee2a916004808301926020929190829003018186803b1580156200094f57600080fd5b505afa15801562000964573d6000803e3d6000fd5b505050506040513d601f19601f820116820180604052508101906200098a919062001cf1565b6001600160a01b03166340ccb0ae6040518163ffffffff1660e01b815260040160206040518083038186803b158015620009c357600080fd5b505afa158015620009d8573d6000803e3d6000fd5b505050506040513d601f19601f82011682018060405250810190620009fe919062001cf1565b6040517fde1eb9a30000000000000000000000000000000000000000000000000000000081526001600160a01b03858116600483015291925082916000919083169063de1eb9a39060240160606040518083038186803b15801562000a6257600080fd5b505afa15801562000a77573d6000803e3d6000fd5b505050506040513d601f19601f8201168201806040525081019062000a9d919062001d27565b60208101516003546040517fb8ba16fd0000000000000000000000000000000000000000000000000000000081526001600160a01b0389811660048301529394509192600092610100909204169063b8ba16fd9060240160206040518083038186803b15801562000b0d57600080fd5b505afa15801562000b22573d6000803e3d6000fd5b505050506040513d601f19601f8201168201806040525081019062000b48919062001cd7565b90508162000b57878362001d9d565b1062000ba65760405162461bcd60e51b815260206004820152601c60248201527f5661756c743a206465706f73697420616d6f756e7420657863656564000000006044820152606401620006be565b82518681111562000bfa5760405162461bcd60e51b815260206004820152601860248201527f5661756c743a206465706f73697420746f6f20736d616c6c00000000000000006044820152606401620006be565b6003546040517f8340f5490000000000000000000000000000000000000000000000000000000081526001600160a01b038a811660048301528b81166024830152604482018a905261010090920490911690638340f54990606401600060405180830381600087803b15801562000c7057600080fd5b505af115801562000c85573d6000803e3d6000fd5b5050600480546040517f94362e8b0000000000000000000000000000000000000000000000000000000081526001600160a01b038e811693820193909352602481018c9052911692506394362e8b9150604401600060405180830381600087803b15801562000cf357600080fd5b505af115801562000d08573d6000803e3d6000fd5b505060016000555050505050505050505050565b6003546040516370a0823160e01b81526001600160a01b03610100909204821660048201526000918316906370a08231906024016200057d565b62000d606200127d565b6004546001600160a01b03161562000de15760405162461bcd60e51b815260206004820152603260248201527f5661756c743a207365637572697479206465706f73697420746f6b656e20686160448201527f73206265656e20696e697469616c697a656400000000000000000000000000006064820152608401620006be565b600081905081816001600160a01b031663313ce5676040518163ffffffff1660e01b815260040160206040518083038186803b15801562000e2157600080fd5b505afa15801562000e36573d6000803e3d6000fd5b505050506040513d601f19601f8201168201806040525081019062000e5c919062001db8565b826001600160a01b03166306fdde036040518163ffffffff1660e01b815260040160006040518083038186803b15801562000e9657600080fd5b505afa15801562000eab573d6000803e3d6000fd5b505050506040513d6000823e601f3d908101601f1916820160405262000ed5919081019062001ddd565b836001600160a01b03166395d89b416040518163ffffffff1660e01b815260040160006040518083038186803b15801562000f0f57600080fd5b505afa15801562000f24573d6000803e3d6000fd5b505050506040513d6000823e601f3d908101601f1916820160405262000f4e919081019062001ddd565b60405162000f5c9062001b6e565b62000f6b949392919062001e96565b604051809103906000f08015801562000f88573d6000803e3d6000fd5b506004805473ffffffffffffffffffffffffffffffffffffffff19166001600160a01b03929092169190911790555050565b62000fc46200127d565b6005546001600160a01b031615620010455760405162461bcd60e51b815260206004820152602c60248201527f5661756c743a207374616b696e6720636f6e747261637420686173206265656e60448201527f20696e697469616c697a656400000000000000000000000000000000000000006064820152608401620006be565b6004546001600160a01b0316620010c55760405162461bcd60e51b815260206004820152603660248201527f5661756c743a207365637572697479206465706f73697420746f6b656e20686160448201527f73206e6f74206265656e20696e697469616c697a6564000000000000000000006064820152608401620006be565b6004546040516001600160a01b03909116908290620010e49062001b7c565b6001600160a01b03928316815291166020820152604001604051809103906000f08015801562001118573d6000803e3d6000fd5b506005805473ffffffffffffffffffffffffffffffffffffffff19166001600160a01b039290921691909117905550565b600260005414156200119e5760405162461bcd60e51b815260206004820152601f60248201527f5265656e7472616e637947756172643a207265656e7472616e742063616c6c006044820152606401620006be565b6002600055620011ad6200127d565b6003546040517fe74f82390000000000000000000000000000000000000000000000000000000081526001600160a01b0385811660048301528481166024830152604482018490526101009092049091169063e74f8239906064016200084e565b600281815481106200121f57600080fd5b6000918252602090912001546001600160a01b0316905081565b600062000529838362001475565b600080620012568484620015a0565b90506000620012668486620018be565b90508181101562001275578091505b509392505050565b600154604080517f05a2ee2a00000000000000000000000000000000000000000000000000000000815290516001600160a01b039092169160009183916305a2ee2a91600480820192602092909190829003018186803b158015620012e157600080fd5b505afa158015620012f6573d6000803e3d6000fd5b505050506040513d601f19601f820116820180604052508101906200131c919062001cf1565b6001600160a01b031663c2c855c26040518163ffffffff1660e01b815260040160206040518083038186803b1580156200135557600080fd5b505afa1580156200136a573d6000803e3d6000fd5b505050506040513d601f19601f8201168201806040525081019062001390919062001cf1565b6040517f2cf89b6e0000000000000000000000000000000000000000000000000000000081523360048201529091506001600160a01b03821690632cf89b6e9060240160206040518083038186803b158015620013ec57600080fd5b505afa15801562001401573d6000803e3d6000fd5b505050506040513d601f19601f8201168201806040525081019062001427919062001ed7565b6200066a5760405162461bcd60e51b815260206004820152601a60248201527f4e6f74207661756c74206d616e6167657220636f6e74726163740000000000006044820152606401620006be565b6000806200158b620014916200148b8562000d1c565b62001966565b60048054604080517f18160ddd000000000000000000000000000000000000000000000000000000008152905162001584936200152f936001600160a01b0316926318160ddd9281830192602092829003018186803b158015620014f457600080fd5b505afa15801562001509573d6000803e3d6000fd5b505050506040513d601f19601f820116820180604052508101906200148b919062001cd7565b600480546040516370a0823160e01b81526001600160a01b038b8116938201939093526200157d92909116906370a082319060240160206040518083038186803b158015620014f457600080fd5b9062001978565b90620019ba565b90506200159881620019fd565b949350505050565b600080600160009054906101000a90046001600160a01b03166001600160a01b03166305a2ee2a6040518163ffffffff1660e01b815260040160206040518083038186803b158015620015f257600080fd5b505afa15801562001607573d6000803e3d6000fd5b505050506040513d601f19601f820116820180604052508101906200162d919062001cf1565b6001600160a01b03166340ccb0ae6040518163ffffffff1660e01b815260040160206040518083038186803b1580156200166657600080fd5b505afa1580156200167b573d6000803e3d6000fd5b505050506040513d601f19601f82011682018060405250810190620016a1919062001cf1565b6040517fde1eb9a30000000000000000000000000000000000000000000000000000000081526001600160a01b03858116600483015291925082916000919083169063de1eb9a39060240160606040518083038186803b1580156200170557600080fd5b505afa1580156200171a573d6000803e3d6000fd5b505050506040513d601f19601f8201168201806040525081019062001740919062001d27565b60408101519091506000806200175562001a28565b6040517f8a0695fd0000000000000000000000000000000000000000000000000000000081526001600160a01b038a811660048301523060248301529190911690638a0695fd90604401604080518083038186803b158015620017b757600080fd5b505afa158015620017cc573d6000803e3d6000fd5b505050506040513d601f19601f82011682018060405250810190620017f2919062001efb565b9092509050600062001805838362001b44565b9050620018216200181b85620015848462001966565b620019fd565b600480546040516370a0823160e01b81526001600160a01b038e8116938201939093529116906370a082319060240160206040518083038186803b1580156200186957600080fd5b505afa1580156200187e573d6000803e3d6000fd5b505050506040513d601f19601f82011682018060405250810190620018a4919062001cd7565b620018b0919062001f20565b9a9950505050505050505050565b6003546040517f930f8f5e0000000000000000000000000000000000000000000000000000000081526001600160a01b03848116600483015283811660248301526000926101009004169063930f8f5e9060440160206040518083038186803b1580156200192b57600080fd5b505afa15801562001940573d6000803e3d6000fd5b505050506040513d601f19601f8201168201806040525081019062000529919062001cd7565b6000620005d182633b9aca0062001b52565b6000806200198860028462001f3a565b90506200159883620019b3620019ab876b033b2e3c9fd0803ce800000062001b52565b849062001b44565b9062001b60565b6000620005296b033b2e3c9fd0803ce8000000620019b3620019dd868662001b52565b620019f660026b033b2e3c9fd0803ce800000062001f3a565b9062001b44565b60008062001a116002633b9aca0062001f3a565b905062000529633b9aca00620019b3838662001b44565b600154604080517f94f6744300000000000000000000000000000000000000000000000000000000815290516000926001600160a01b031691839183916394f67443916004808301926020929190829003018186803b15801562001a8b57600080fd5b505afa15801562001aa0573d6000803e3d6000fd5b505050506040513d601f19601f8201168201806040525081019062001ac6919062001cf1565b9050806001600160a01b031663a5c84e376040518163ffffffff1660e01b815260040160206040518083038186803b15801562001b0257600080fd5b505afa15801562001b17573d6000803e3d6000fd5b505050506040513d601f19601f8201168201806040525081019062001b3d919062001cf1565b9250505090565b600062000529828462001d9d565b600062000529828462001f5d565b600062000529828462001f3a565b611aaa8062001f9e83390190565b6117498062003a4883390190565b60005b8381101562001ba757818101518382015260200162001b8d565b8381111562001bb7576000848401525b50505050565b6000815180845262001bd781602086016020860162001b8a565b601f01601f19169290920160200192915050565b60208152600062000529602083018462001bbd565b6001600160a01b038116811462001c1657600080fd5b50565b6000806040838503121562001c2d57600080fd5b823562001c3a8162001c00565b9150602083013562001c4c8162001c00565b809150509250929050565b60006020828403121562001c6a57600080fd5b8135620005298162001c00565b60008060006060848603121562001c8d57600080fd5b833562001c9a8162001c00565b9250602084013562001cac8162001c00565b929592945050506040919091013590565b60006020828403121562001cd057600080fd5b5035919050565b60006020828403121562001cea57600080fd5b5051919050565b60006020828403121562001d0457600080fd5b8151620005298162001c00565b634e487b7160e01b600052604160045260246000fd5b60006060828403121562001d3a57600080fd5b6040516060810181811067ffffffffffffffff8211171562001d605762001d6062001d11565b80604052508251815260208301516020820152604083015160408201528091505092915050565b634e487b7160e01b600052601160045260246000fd5b6000821982111562001db35762001db362001d87565b500190565b60006020828403121562001dcb57600080fd5b815160ff811681146200052957600080fd5b60006020828403121562001df057600080fd5b815167ffffffffffffffff8082111562001e0957600080fd5b818401915084601f83011262001e1e57600080fd5b81518181111562001e335762001e3362001d11565b604051601f8201601f19908116603f0116810190838211818310171562001e5e5762001e5e62001d11565b8160405282815287602084870101111562001e7857600080fd5b62001e8b83602083016020880162001b8a565b979650505050505050565b6001600160a01b038516815260ff8416602082015260806040820152600062001ec3608083018562001bbd565b828103606084015262001e8b818562001bbd565b60006020828403121562001eea57600080fd5b815180151581146200052957600080fd5b6000806040838503121562001f0f57600080fd5b505080516020909101519092909150565b60008282101562001f355762001f3562001d87565b500390565b60008262001f5857634e487b7160e01b600052601260045260246000fd5b500490565b6000817fffffffffffffffffffffffffffffffffffffffffffffffffffffffffffffffff048311821515161562001f985762001f9862001d87565b50029056fe60806040523480156200001157600080fd5b5060405162001aaa38038062001aaa833981016040819052620000349162000307565b8151829082906200004d90600390602085019062000194565b5080516200006390600490602084019062000194565b505050620000987f68fc488efe30251cadb6ac88bdeef3f1a5e6048808baf387258d1d78e986720c33620000e060201b60201c565b5050600780546001600160a01b031916331790556006805460ff909216600160a01b026001600160a81b03199092166001600160a01b039390931692909217179055620003e9565b620000ec8282620000f0565b5050565b60008281526005602090815260408083206001600160a01b038516845290915290205460ff16620000ec5760008281526005602090815260408083206001600160a01b03851684529091529020805460ff19166001179055620001503390565b6001600160a01b0316816001600160a01b0316837f2f8788117e7eff1d82e926ec794901d17c78024a50270940304540a733656f0d60405160405180910390a45050565b828054620001a290620003ac565b90600052602060002090601f016020900481019282620001c6576000855562000211565b82601f10620001e157805160ff191683800117855562000211565b8280016001018555821562000211579182015b8281111562000211578251825591602001919060010190620001f4565b506200021f92915062000223565b5090565b5b808211156200021f576000815560010162000224565b634e487b7160e01b600052604160045260246000fd5b600082601f8301126200026257600080fd5b81516001600160401b03808211156200027f576200027f6200023a565b604051601f8301601f19908116603f01168101908282118183101715620002aa57620002aa6200023a565b81604052838152602092508683858801011115620002c757600080fd5b600091505b83821015620002eb5785820183015181830184015290820190620002cc565b83821115620002fd5760008385830101525b9695505050505050565b600080600080608085870312156200031e57600080fd5b84516001600160a01b03811681146200033657600080fd5b602086015190945060ff811681146200034e57600080fd5b60408601519093506001600160401b03808211156200036c57600080fd5b6200037a8883890162000250565b935060608701519150808211156200039157600080fd5b50620003a08782880162000250565b91505092959194509250565b600181811c90821680620003c157607f821691505b60208210811415620003e357634e487b7160e01b600052602260045260246000fd5b50919050565b6116b180620003f96000396000f3fe608060405234801561001057600080fd5b50600436106101a35760003560e01c806370a08231116100ee5780639a32c20711610097578063a9059cbb11610071578063a9059cbb146103c5578063d547741f146103d8578063dd62ed3e146103eb578063fbfa77cf1461042457600080fd5b80639a32c20714610385578063a217fddf146103aa578063a457c2d7146103b257600080fd5b8063935a8b84116100c8578063935a8b841461035757806394362e8b1461036a57806395d89b411461037d57600080fd5b806370a08231146102ca5780637158da7c146102f357806391d148541461031e57600080fd5b80632f2ff15d11610150578063395093511161012a578063395093511461027d5780633dd4c85314610290578063411557d1146102a357600080fd5b80632f2ff15d14610240578063313ce5671461025557806336568abe1461026a57600080fd5b806318160ddd1161018157806318160ddd146101f857806323b872dd1461020a578063248a9ca31461021d57600080fd5b806301ffc9a7146101a857806306fdde03146101d0578063095ea7b3146101e5575b600080fd5b6101bb6101b6366004611352565b610437565b60405190151581526020015b60405180910390f35b6101d86104d0565b6040516101c791906113c0565b6101bb6101f336600461140f565b610562565b6002545b6040519081526020016101c7565b6101bb610218366004611439565b61057a565b6101fc61022b366004611475565b60009081526005602052604090206001015490565b61025361024e36600461148e565b61059e565b005b60125b60405160ff90911681526020016101c7565b61025361027836600461148e565b6105c9565b6101bb61028b36600461140f565b61065a565b61025361029e36600461140f565b610699565b6101fc7f68fc488efe30251cadb6ac88bdeef3f1a5e6048808baf387258d1d78e986720c81565b6101fc6102d83660046114ba565b6001600160a01b031660009081526020819052604090205490565b600654610306906001600160a01b031681565b6040516001600160a01b0390911681526020016101c7565b6101bb61032c36600461148e565b60009182526005602090815260408084206001600160a01b0393909316845291905290205460ff1690565b6101fc6103653660046114ba565b610716565b61025361037836600461140f565b6107bb565b6101d861082b565b6006546102589074010000000000000000000000000000000000000000900460ff1681565b6101fc600081565b6101bb6103c036600461140f565b61083a565b6101bb6103d336600461140f565b6108e4565b6102536103e636600461148e565b6108f2565b6101fc6103f93660046114d5565b6001600160a01b03918216600090815260016020908152604080832093909416825291909152205490565b600754610306906001600160a01b031681565b60007fffffffff0000000000000000000000000000000000000000000000000000000082167f7965db0b0000000000000000000000000000000000000000000000000000000014806104ca57507f01ffc9a7000000000000000000000000000000000000000000000000000000007fffffffff000000000000000000000000000000000000000000000000000000008316145b92915050565b6060600380546104df906114ff565b80601f016020809104026020016040519081016040528092919081815260200182805461050b906114ff565b80156105585780601f1061052d57610100808354040283529160200191610558565b820191906000526020600020905b81548152906001019060200180831161053b57829003601f168201915b5050505050905090565b600033610570818585610918565b5060019392505050565b600033610588858285610a70565b610593858585610b02565b506001949350505050565b6000828152600560205260409020600101546105ba8133610d19565b6105c48383610d99565b505050565b6001600160a01b038116331461064c5760405162461bcd60e51b815260206004820152602f60248201527f416363657373436f6e74726f6c3a2063616e206f6e6c792072656e6f756e636560448201527f20726f6c657320666f722073656c66000000000000000000000000000000000060648201526084015b60405180910390fd5b6106568282610e3b565b5050565b3360008181526001602090815260408083206001600160a01b03871684529091528120549091906105709082908690610694908790611550565b610918565b7f68fc488efe30251cadb6ac88bdeef3f1a5e6048808baf387258d1d78e986720c6106c48133610d19565b6106ce8383610ebe565b826001600160a01b03167f52c5746cab35abb42ab05a97f3665eddb30f7beefb6bb73a09e97db39c07b83a8360405161070991815260200190565b60405180910390a2505050565b6007546006546040517ffc5eb0df0000000000000000000000000000000000000000000000000000000081526001600160a01b0384811660048301529182166024820152600092919091169063fc5eb0df9060440160206040518083038186803b15801561078357600080fd5b505afa158015610797573d6000803e3d6000fd5b505050506040513d601f19601f820116820180604052508101906104ca9190611568565b7f68fc488efe30251cadb6ac88bdeef3f1a5e6048808baf387258d1d78e986720c6107e68133610d19565b6107f08383611043565b826001600160a01b03167fdd6e9fe736800803049fae1dbd09da4f800f1656349c20f11521014ceab487b48360405161070991815260200190565b6060600480546104df906114ff565b3360008181526001602090815260408083206001600160a01b0387168452909152812054909190838110156108d75760405162461bcd60e51b815260206004820152602560248201527f45524332303a2064656372656173656420616c6c6f77616e63652062656c6f7760448201527f207a65726f0000000000000000000000000000000000000000000000000000006064820152608401610643565b6105938286868403610918565b600033610570818585610b02565b60008281526005602052604090206001015461090e8133610d19565b6105c48383610e3b565b6001600160a01b0383166109935760405162461bcd60e51b8152602060048201526024808201527f45524332303a20617070726f76652066726f6d20746865207a65726f2061646460448201527f72657373000000000000000000000000000000000000000000000000000000006064820152608401610643565b6001600160a01b038216610a0f5760405162461bcd60e51b815260206004820152602260248201527f45524332303a20617070726f766520746f20746865207a65726f20616464726560448201527f73730000000000000000000000000000000000000000000000000000000000006064820152608401610643565b6001600160a01b0383811660008181526001602090815260408083209487168084529482529182902085905590518481527f8c5be1e5ebec7d5bd14f71427d1e84f3dd0314c0f7b2291e5b200ac8c7c3b925910160405180910390a3505050565b6001600160a01b038381166000908152600160209081526040808320938616835292905220546000198114610afc5781811015610aef5760405162461bcd60e51b815260206004820152601d60248201527f45524332303a20696e73756666696369656e7420616c6c6f77616e63650000006044820152606401610643565b610afc8484848403610918565b50505050565b6001600160a01b038316610b7e5760405162461bcd60e51b815260206004820152602560248201527f45524332303a207472616e736665722066726f6d20746865207a65726f20616460448201527f64726573730000000000000000000000000000000000000000000000000000006064820152608401610643565b6001600160a01b038216610bfa5760405162461bcd60e51b815260206004820152602360248201527f45524332303a207472616e7366657220746f20746865207a65726f206164647260448201527f65737300000000000000000000000000000000000000000000000000000000006064820152608401610643565b6001600160a01b03831660009081526020819052604090205481811015610c895760405162461bcd60e51b815260206004820152602660248201527f45524332303a207472616e7366657220616d6f756e742065786365656473206260448201527f616c616e636500000000000000000000000000000000000000000000000000006064820152608401610643565b6001600160a01b03808516600090815260208190526040808220858503905591851681529081208054849290610cc0908490611550565b92505081905550826001600160a01b0316846001600160a01b03167fddf252ad1be2c89b69c2b068fc378daa952ba7f163c4a11628f55a4df523b3ef84604051610d0c91815260200190565b60405180910390a3610afc565b60008281526005602090815260408083206001600160a01b038516845290915290205460ff1661065657610d57816001600160a01b03166014611122565b610d62836020611122565b604051602001610d73929190611581565b60408051601f198184030181529082905262461bcd60e51b8252610643916004016113c0565b60008281526005602090815260408083206001600160a01b038516845290915290205460ff166106565760008281526005602090815260408083206001600160a01b03851684529091529020805460ff19166001179055610df73390565b6001600160a01b0316816001600160a01b0316837f2f8788117e7eff1d82e926ec794901d17c78024a50270940304540a733656f0d60405160405180910390a45050565b60008281526005602090815260408083206001600160a01b038516845290915290205460ff16156106565760008281526005602090815260408083206001600160a01b0385168085529252808320805460ff1916905551339285917ff6391f5c32d9c69d2a47ea670b442974b53935d1edc7fd64eb21e047a839171b9190a45050565b6001600160a01b038216610f3a5760405162461bcd60e51b815260206004820152602160248201527f45524332303a206275726e2066726f6d20746865207a65726f2061646472657360448201527f73000000000000000000000000000000000000000000000000000000000000006064820152608401610643565b6001600160a01b03821660009081526020819052604090205481811015610fc95760405162461bcd60e51b815260206004820152602260248201527f45524332303a206275726e20616d6f756e7420657863656564732062616c616e60448201527f63650000000000000000000000000000000000000000000000000000000000006064820152608401610643565b6001600160a01b0383166000908152602081905260408120838303905560028054849290610ff8908490611602565b90915550506040518281526000906001600160a01b038516907fddf252ad1be2c89b69c2b068fc378daa952ba7f163c4a11628f55a4df523b3ef9060200160405180910390a3505050565b6001600160a01b0382166110995760405162461bcd60e51b815260206004820152601f60248201527f45524332303a206d696e7420746f20746865207a65726f2061646472657373006044820152606401610643565b80600260008282546110ab9190611550565b90915550506001600160a01b038216600090815260208190526040812080548392906110d8908490611550565b90915550506040518181526001600160a01b038316906000907fddf252ad1be2c89b69c2b068fc378daa952ba7f163c4a11628f55a4df523b3ef9060200160405180910390a35050565b60606000611131836002611619565b61113c906002611550565b67ffffffffffffffff81111561115457611154611638565b6040519080825280601f01601f19166020018201604052801561117e576020820181803683370190505b5090507f3000000000000000000000000000000000000000000000000000000000000000816000815181106111b5576111b561164e565b60200101907effffffffffffffffffffffffffffffffffffffffffffffffffffffffffffff1916908160001a9053507f7800000000000000000000000000000000000000000000000000000000000000816001815181106112185761121861164e565b60200101907effffffffffffffffffffffffffffffffffffffffffffffffffffffffffffff1916908160001a9053506000611254846002611619565b61125f906001611550565b90505b60018111156112fc577f303132333435363738396162636465660000000000000000000000000000000085600f16601081106112a0576112a061164e565b1a60f81b8282815181106112b6576112b661164e565b60200101907effffffffffffffffffffffffffffffffffffffffffffffffffffffffffffff1916908160001a90535060049490941c936112f581611664565b9050611262565b50831561134b5760405162461bcd60e51b815260206004820181905260248201527f537472696e67733a20686578206c656e67746820696e73756666696369656e746044820152606401610643565b9392505050565b60006020828403121561136457600080fd5b81357fffffffff000000000000000000000000000000000000000000000000000000008116811461134b57600080fd5b60005b838110156113af578181015183820152602001611397565b83811115610afc5750506000910152565b60208152600082518060208401526113df816040850160208701611394565b601f01601f19169190910160400192915050565b80356001600160a01b038116811461140a57600080fd5b919050565b6000806040838503121561142257600080fd5b61142b836113f3565b946020939093013593505050565b60008060006060848603121561144e57600080fd5b611457846113f3565b9250611465602085016113f3565b9150604084013590509250925092565b60006020828403121561148757600080fd5b5035919050565b600080604083850312156114a157600080fd5b823591506114b1602084016113f3565b90509250929050565b6000602082840312156114cc57600080fd5b61134b826113f3565b600080604083850312156114e857600080fd5b6114f1836113f3565b91506114b1602084016113f3565b600181811c9082168061151357607f821691505b6020821081141561153457634e487b7160e01b600052602260045260246000fd5b50919050565b634e487b7160e01b600052601160045260246000fd5b600082198211156115635761156361153a565b500190565b60006020828403121561157a57600080fd5b5051919050565b7f416363657373436f6e74726f6c3a206163636f756e74200000000000000000008152600083516115b9816017850160208801611394565b7f206973206d697373696e6720726f6c652000000000000000000000000000000060179184019182015283516115f6816028840160208801611394565b01602801949350505050565b6000828210156116145761161461153a565b500390565b60008160001904831182151516156116335761163361153a565b500290565b634e487b7160e01b600052604160045260246000fd5b634e487b7160e01b600052603260045260246000fd5b6000816116735761167361153a565b50600019019056fea26469706673582212201dd1801b0c8f28fc6dea3df30507a4ff5a77d0e1e7da1c6fe7d2ac777f17e62964736f6c6343000809003360806040526000600755600060085562093a806009553480156200002257600080fd5b506040516200174938038062001749833981016040819052620000459162000131565b6001600081815581546001600160a01b031916339081179092556040517f8be0079c531659141344cd1fd0a4f28419497f9722a3daafe3b4186f6b6457e0908290a36001546001600160a01b0316620000d85760405162461bcd60e51b815260206004820152601160248201527013dddb995c881b5d5cdd081899481cd95d607a1b604482015260640160405180910390fd5b60058054610100600160a81b0319166101006001600160a01b0394851602179055600680546001600160a01b0319169190921617905562000169565b80516001600160a01b03811681146200012c57600080fd5b919050565b600080604083850312156200014557600080fd5b620001508362000114565b9150620001606020840162000114565b90509250929050565b6115d080620001796000396000f3fe608060405234801561001057600080fd5b50600436106101ce5760003560e01c806372f702f311610104578063c8f33c91116100a2578063df136d6511610071578063df136d65146103a3578063e30c3978146103ac578063ebe2b12b146103bf578063f2fde38b146103c857600080fd5b8063c8f33c911461036c578063cc1a378f14610375578063cd3daf9d14610388578063d1af0c7d1461039057600080fd5b80638da5cb5b116100de5780638da5cb5b1461032a5780638f32d59b1461033d57806391b4ded914610350578063a694fc3a1461035957600080fd5b806372f702f3146103015780637b0a47ee1461031957806380faa57d1461032257600080fd5b8063386a9525116101715780633fc6df6e1161014b5780633fc6df6e146102885780634e71e0c8146102b35780635c975abb146102bb57806370a08231146102d857600080fd5b8063386a9525146102645780633c6b16ab1461026d5780633d18b9121461028057600080fd5b806318160ddd116101ad57806318160ddd1461022e57806319762143146102365780631c1f78eb146102495780632e1a7d4d1461025157600080fd5b80628cc262146101d35780630700037d146101f957806316c38b3c14610219575b600080fd5b6101e66101e13660046113a6565b6103db565b6040519081526020015b60405180910390f35b6101e66102073660046113a6565b600d6020526000908152604090205481565b61022c6102273660046113dd565b610459565b005b600e546101e6565b61022c6102443660046113a6565b610549565b6101e66105d2565b61022c61025f3660046113fa565b6105f0565b6101e660095481565b61022c61027b3660046113fa565b61078c565b61022c610a15565b60035461029b906001600160a01b031681565b6040516001600160a01b0390911681526020016101f0565b61022c610b42565b6005546102c89060ff1681565b60405190151581526020016101f0565b6101e66102e63660046113a6565b6001600160a01b03166000908152600f602052604090205490565b60055461029b9061010090046001600160a01b031681565b6101e660085481565b6101e6610bcc565b60015461029b906001600160a01b031681565b6001546001600160a01b031633146102c8565b6101e660045481565b61022c6103673660046113fa565b610be3565b6101e6600a5481565b61022c6103833660046113fa565b610dec565b6101e6610f18565b60065461029b906001600160a01b031681565b6101e6600b5481565b60025461029b906001600160a01b031681565b6101e660075481565b61022c6103d63660046113a6565b610f64565b6001600160a01b0381166000908152600d6020908152604080832054600c909252822054610453919061044d90670de0b6b3a7640000906104479061042890610422610f18565b90610fed565b6001600160a01b0388166000908152600f602052604090205490611000565b9061100c565b90611018565b92915050565b6001546001600160a01b031633146104b85760405162461bcd60e51b815260206004820181905260248201527f4f776e61626c653a2063616c6c6572206973206e6f7420746865206f776e657260448201526064015b60405180910390fd5b60055460ff16151581151514156104cc5750565b600580547fffffffffffffffffffffffffffffffffffffffffffffffffffffffffffffff001682151590811790915560ff161561050857426004555b60055460405160ff909116151581527f8fb6c181ee25a520cf3dd6565006ef91229fcfe5a989566c2a3b8c115570cec5906020015b60405180910390a15b50565b6001546001600160a01b031633146105a35760405162461bcd60e51b815260206004820181905260248201527f4f776e61626c653a2063616c6c6572206973206e6f7420746865206f776e657260448201526064016104af565b6003805473ffffffffffffffffffffffffffffffffffffffff19166001600160a01b0392909216919091179055565b60006105eb60095460085461100090919063ffffffff16565b905090565b600260005414156106435760405162461bcd60e51b815260206004820152601f60248201527f5265656e7472616e637947756172643a207265656e7472616e742063616c6c0060448201526064016104af565b600260005533610651610f18565b600b5561065c610bcc565b600a556001600160a01b038116156106a357610677816103db565b6001600160a01b0382166000908152600d6020908152604080832093909355600b54600c909152919020555b600082116106f35760405162461bcd60e51b815260206004820152601160248201527f43616e6e6f74207769746864726177203000000000000000000000000000000060448201526064016104af565b600e546107009083610fed565b600e55336000908152600f602052604090205461071d9083610fed565b336000818152600f602052604090209190915560055461074d916101009091046001600160a01b03169084611024565b60405182815233907f7084f5476618d8e60b11ef0d7d3f06914655adb8793e28ff7f018d4c76d505d5906020015b60405180910390a250506001600055565b6003546001600160a01b0316331461080c5760405162461bcd60e51b815260206004820152602a60248201527f43616c6c6572206973206e6f742052657761726473446973747269627574696f60448201527f6e20636f6e74726163740000000000000000000000000000000000000000000060648201526084016104af565b6000610816610f18565b600b55610821610bcc565b600a556001600160a01b038116156108685761083c816103db565b6001600160a01b0382166000908152600d6020908152604080832093909355600b54600c909152919020555b60075442106108875760095461087f90839061100c565b6008556108ca565b6007546000906108979042610fed565b905060006108b06008548361100090919063ffffffff16565b6009549091506108c4906104478684611018565b60085550505b6006546040517f70a082310000000000000000000000000000000000000000000000000000000081523060048201526000916001600160a01b0316906370a082319060240160206040518083038186803b15801561092757600080fd5b505afa15801561093b573d6000803e3d6000fd5b505050506040513d601f19601f8201168201806040525081019061095f9190611413565b90506109766009548261100c90919063ffffffff16565b60085411156109c75760405162461bcd60e51b815260206004820152601860248201527f50726f76696465642072657761726420746f6f2068696768000000000000000060448201526064016104af565b42600a8190556009546109da9190611018565b6007556040518381527fde88a922e0d3b88b24e9623efeb464919c6bf9f66857a65e2bfcf2ce87a9433d9060200160405180910390a1505050565b60026000541415610a685760405162461bcd60e51b815260206004820152601f60248201527f5265656e7472616e637947756172643a207265656e7472616e742063616c6c0060448201526064016104af565b600260005533610a76610f18565b600b55610a81610bcc565b600a556001600160a01b03811615610ac857610a9c816103db565b6001600160a01b0382166000908152600d6020908152604080832093909355600b54600c909152919020555b336000908152600d60205260409020548015610b3957336000818152600d6020526040812055600654610b07916001600160a01b039091169083611024565b60405181815233907fe2403640ba68fed3a2f88b7557551d1993f84b99bb10ff833f0cf8db0c5e04869060200161077b565b50506001600055565b6002546001600160a01b03163314610b5957600080fd5b6002546001546040516001600160a01b0392831692909116907f8be0079c531659141344cd1fd0a4f28419497f9722a3daafe3b4186f6b6457e090600090a3600280546001805473ffffffffffffffffffffffffffffffffffffffff199081166001600160a01b03841617909155169055565b60006007544210610bde575060075490565b504290565b60026000541415610c365760405162461bcd60e51b815260206004820152601f60248201527f5265656e7472616e637947756172643a207265656e7472616e742063616c6c0060448201526064016104af565b600260005560055460ff1615610cb45760405162461bcd60e51b815260206004820152603c60248201527f5468697320616374696f6e2063616e6e6f7420626520706572666f726d65642060448201527f7768696c652074686520636f6e7472616374206973207061757365640000000060648201526084016104af565b33610cbd610f18565b600b55610cc8610bcc565b600a556001600160a01b03811615610d0f57610ce3816103db565b6001600160a01b0382166000908152600d6020908152604080832093909355600b54600c909152919020555b60008211610d5f5760405162461bcd60e51b815260206004820152600e60248201527f43616e6e6f74207374616b65203000000000000000000000000000000000000060448201526064016104af565b600e54610d6c9083611018565b600e55336000908152600f6020526040902054610d899083611018565b336000818152600f6020526040902091909155600554610dba916101009091046001600160a01b03169030856110d2565b60405182815233907f9e71bc8eea02a63969f509818f2dafb9254532904319f9dbda79b67bd34a5f3d9060200161077b565b6001546001600160a01b03163314610e465760405162461bcd60e51b815260206004820181905260248201527f4f776e61626c653a2063616c6c6572206973206e6f7420746865206f776e657260448201526064016104af565b6007544211610ee35760405162461bcd60e51b815260206004820152605860248201527f50726576696f7573207265776172647320706572696f64206d7573742062652060448201527f636f6d706c657465206265666f7265206368616e67696e67207468652064757260648201527f6174696f6e20666f7220746865206e657720706572696f640000000000000000608482015260a4016104af565b60098190556040518181527ffb46ca5a5e06d4540d6387b930a7c978bce0db5f449ec6b3f5d07c6e1d44f2d39060200161053d565b6000600e5460001415610f2c5750600b5490565b6105eb610f5b600e54610447670de0b6b3a7640000610f55600854610f55600a54610422610bcc565b90611000565b600b5490611018565b6001546001600160a01b03163314610fbe5760405162461bcd60e51b815260206004820181905260248201527f4f776e61626c653a2063616c6c6572206973206e6f7420746865206f776e657260448201526064016104af565b6002805473ffffffffffffffffffffffffffffffffffffffff19166001600160a01b0392909216919091179055565b6000610ff9828461145b565b9392505050565b6000610ff98284611472565b6000610ff982846114af565b6000610ff982846114ea565b6040516001600160a01b0383166024820152604481018290526110cd9084907fa9059cbb00000000000000000000000000000000000000000000000000000000906064015b60408051601f198184030181529190526020810180517bffffffffffffffffffffffffffffffffffffffffffffffffffffffff167fffffffff0000000000000000000000000000000000000000000000000000000090931692909217909152611129565b505050565b6040516001600160a01b03808516602483015283166044820152606481018290526111239085907f23b872dd0000000000000000000000000000000000000000000000000000000090608401611069565b50505050565b600061117e826040518060400160405280602081526020017f5361666545524332303a206c6f772d6c6576656c2063616c6c206661696c6564815250856001600160a01b031661120e9092919063ffffffff16565b8051909150156110cd578080602001905181019061119c9190611502565b6110cd5760405162461bcd60e51b815260206004820152602a60248201527f5361666545524332303a204552433230206f7065726174696f6e20646964206e60448201527f6f7420737563636565640000000000000000000000000000000000000000000060648201526084016104af565b606061121d8484600085611225565b949350505050565b60608247101561129d5760405162461bcd60e51b815260206004820152602660248201527f416464726573733a20696e73756666696369656e742062616c616e636520666f60448201527f722063616c6c000000000000000000000000000000000000000000000000000060648201526084016104af565b6001600160a01b0385163b6112f45760405162461bcd60e51b815260206004820152601d60248201527f416464726573733a2063616c6c20746f206e6f6e2d636f6e747261637400000060448201526064016104af565b600080866001600160a01b03168587604051611310919061154b565b60006040518083038185875af1925050503d806000811461134d576040519150601f19603f3d011682016040523d82523d6000602084013e611352565b606091505b509150915061136282828661136d565b979650505050505050565b6060831561137c575081610ff9565b82511561138c5782518084602001fd5b8160405162461bcd60e51b81526004016104af9190611567565b6000602082840312156113b857600080fd5b81356001600160a01b0381168114610ff957600080fd5b801515811461054657600080fd5b6000602082840312156113ef57600080fd5b8135610ff9816113cf565b60006020828403121561140c57600080fd5b5035919050565b60006020828403121561142557600080fd5b5051919050565b7f4e487b7100000000000000000000000000000000000000000000000000000000600052601160045260246000fd5b60008282101561146d5761146d61142c565b500390565b6000817fffffffffffffffffffffffffffffffffffffffffffffffffffffffffffffffff04831182151516156114aa576114aa61142c565b500290565b6000826114e5577f4e487b7100000000000000000000000000000000000000000000000000000000600052601260045260246000fd5b500490565b600082198211156114fd576114fd61142c565b500190565b60006020828403121561151457600080fd5b8151610ff9816113cf565b60005b8381101561153a578181015183820152602001611522565b838111156111235750506000910152565b6000825161155d81846020870161151f565b9190910192915050565b602081526000825180602084015261158681604085016020870161151f565b601f01601f1916919091016040019291505056fea2646970667358221220b9de1f32a9849b59e60511d9c0f1d1f702279dfe7fad2d0ff6bb7ca5db47d70464736f6c63430008090033a2646970667358221220ef637815a79475bbf10ced21908b8655ceb97585739ead9db29989babf26b97364736f6c63430008090033a26469706673582212200b9f091b5b4cfde93c99b561f0fa8e5da376de5da0c0d585e7da0269a898685e64736f6c63430008090033",
  "devdoc": {
    "kind": "dev",
    "methods": {},
    "version": 1
  },
  "userdoc": {
    "kind": "user",
    "methods": {},
    "version": 1
  },
  "storageLayout": {
    "storage": [],
    "types": null
  }
}