{
  "address": "0xf418d47CD244eEC8D8AeaB265E2fd3E9Aea31133",
  "abi": [
    {
      "inputs": [
        {
          "internalType": "address",
          "name": "_vaultManager",
          "type": "address"
        }
      ],
      "stateMutability": "nonpayable",
      "type": "constructor"
    },
    {
      "anonymous": false,
      "inputs": [
        {
          "indexed": false,
          "internalType": "address",
          "name": "associatedContract",
          "type": "address"
        }
      ],
      "name": "AssociatedContractUpdated",
      "type": "event"
    },
    {
      "anonymous": false,
      "inputs": [
        {
          "indexed": true,
          "internalType": "address",
          "name": "previousOwner",
          "type": "address"
        },
        {
          "indexed": true,
          "internalType": "address",
          "name": "newOwner",
          "type": "address"
        }
      ],
      "name": "OwnershipTransferred",
      "type": "event"
    },
    {
      "inputs": [
        {
          "internalType": "uint256",
          "name": "",
          "type": "uint256"
        }
      ],
      "name": "allVaults",
      "outputs": [
        {
          "internalType": "address",
          "name": "",
          "type": "address"
        }
      ],
      "stateMutability": "view",
      "type": "function"
    },
    {
      "inputs": [
        {
          "internalType": "address",
          "name": "",
          "type": "address"
        }
      ],
      "name": "associatedContracts",
      "outputs": [
        {
          "internalType": "bool",
          "name": "",
          "type": "bool"
        }
      ],
      "stateMutability": "view",
      "type": "function"
    },
    {
      "inputs": [],
      "name": "claimOwnership",
      "outputs": [],
      "stateMutability": "nonpayable",
      "type": "function"
    },
    {
      "inputs": [],
      "name": "getAllVaults",
      "outputs": [
        {
          "internalType": "address[]",
          "name": "",
          "type": "address[]"
        }
      ],
      "stateMutability": "view",
      "type": "function"
    },
    {
      "inputs": [
        {
          "internalType": "address",
          "name": "",
          "type": "address"
        }
      ],
      "name": "getVault",
      "outputs": [
        {
          "internalType": "address",
          "name": "",
          "type": "address"
        }
      ],
      "stateMutability": "view",
      "type": "function"
    },
    {
      "inputs": [
        {
          "internalType": "address",
          "name": "_user",
          "type": "address"
        }
      ],
      "name": "getVaultAddress",
      "outputs": [
        {
          "internalType": "address",
          "name": "",
          "type": "address"
        }
      ],
      "stateMutability": "view",
      "type": "function"
    },
    {
      "inputs": [
        {
          "internalType": "address",
          "name": "_reserve",
          "type": "address"
        }
      ],
      "name": "getVaultConfig",
      "outputs": [
        {
          "components": [
            {
              "internalType": "uint256",
              "name": "minSecurityDeposit",
              "type": "uint256"
            },
            {
              "internalType": "uint256",
              "name": "maxSecurityDeposit",
              "type": "uint256"
            },
            {
              "internalType": "uint256",
              "name": "securityDepositRequirement",
              "type": "uint256"
            }
          ],
          "internalType": "struct DataTypes.VaultConfig",
          "name": "",
          "type": "tuple"
        }
      ],
      "stateMutability": "view",
      "type": "function"
    },
    {
      "inputs": [],
      "name": "isOwner",
      "outputs": [
        {
          "internalType": "bool",
          "name": "",
          "type": "bool"
        }
      ],
      "stateMutability": "view",
      "type": "function"
    },
    {
      "inputs": [],
      "name": "owner",
      "outputs": [
        {
          "internalType": "address",
          "name": "",
          "type": "address"
        }
      ],
      "stateMutability": "view",
      "type": "function"
    },
    {
      "inputs": [],
      "name": "pendingOwner",
      "outputs": [
        {
          "internalType": "address",
          "name": "",
          "type": "address"
        }
      ],
      "stateMutability": "view",
      "type": "function"
    },
    {
      "inputs": [
        {
          "internalType": "address",
          "name": "_player",
          "type": "address"
        },
        {
          "internalType": "address",
          "name": "vault",
          "type": "address"
        }
      ],
      "name": "pushNewVault",
      "outputs": [
        {
          "internalType": "uint256",
          "name": "",
          "type": "uint256"
        }
      ],
      "stateMutability": "nonpayable",
      "type": "function"
    },
    {
      "inputs": [
        {
          "internalType": "address",
          "name": "_associatedContract",
          "type": "address"
        }
      ],
      "name": "setAssociatedContract",
      "outputs": [],
      "stateMutability": "nonpayable",
      "type": "function"
    },
    {
      "inputs": [
        {
          "internalType": "address",
          "name": "_reserve",
          "type": "address"
        },
        {
          "internalType": "uint256",
          "name": "_amount",
          "type": "uint256"
        }
      ],
      "name": "setMaxSecurityDeposit",
      "outputs": [],
      "stateMutability": "nonpayable",
      "type": "function"
    },
    {
      "inputs": [
        {
          "internalType": "address",
          "name": "_reserve",
          "type": "address"
        },
        {
          "internalType": "uint256",
          "name": "_amount",
          "type": "uint256"
        }
      ],
      "name": "setMinSecurityDeposit",
      "outputs": [],
      "stateMutability": "nonpayable",
      "type": "function"
    },
    {
      "inputs": [
        {
          "internalType": "address",
          "name": "_reserve",
          "type": "address"
        },
        {
          "internalType": "uint256",
          "name": "_requirement",
          "type": "uint256"
        }
      ],
      "name": "setSecurityDepositRequirement",
      "outputs": [],
      "stateMutability": "nonpayable",
      "type": "function"
    },
    {
      "inputs": [
        {
          "internalType": "address",
          "name": "newOwner",
          "type": "address"
        }
      ],
      "name": "transferOwnership",
      "outputs": [],
      "stateMutability": "nonpayable",
      "type": "function"
    },
    {
      "inputs": [
        {
          "internalType": "address",
          "name": "",
          "type": "address"
        }
      ],
      "name": "vaultConfig",
      "outputs": [
        {
          "internalType": "uint256",
          "name": "minSecurityDeposit",
          "type": "uint256"
        },
        {
          "internalType": "uint256",
          "name": "maxSecurityDeposit",
          "type": "uint256"
        },
        {
          "internalType": "uint256",
          "name": "securityDepositRequirement",
          "type": "uint256"
        }
      ],
      "stateMutability": "view",
      "type": "function"
    }
  ],
  "transactionHash": "0x4181958820d6e8e469848514d7793cdb0ed48fa46738c3f137de3b9ac1cb9444",
  "args": [
    "0xea035A88Bd6A0c2Ef8e6C44a805231a0fb872ff8"
  ],
  "numDeployments": 1,
  "solcInputHash": "d2a2165c33059d6b473aeb9d4558b15b",
  "bytecode": "0x608060405234801561001057600080fd5b50604051610c01380380610c0183398101604081905261002f9161011c565b600080546001600160a01b0319163390811782556040518392907f8be0079c531659141344cd1fd0a4f28419497f9722a3daafe3b4186f6b6457e0908290a36000546001600160a01b03166100be5760405162461bcd60e51b815260206004820152601160248201527013dddb995c881b5d5cdd081899481cd95d607a1b604482015260640160405180910390fd5b6001600160a01b038116600081815260026020908152604091829020805460ff1916600117905590519182527f73f20cff579e8a4086fa607db83867595f1b6a798e718c0bfa0b94a404128e03910160405180910390a1505061014c565b60006020828403121561012e57600080fd5b81516001600160a01b038116811461014557600080fd5b9392505050565b610aa68061015b6000396000f3fe608060405234801561001057600080fd5b506004361061011b5760003560e01c806397331bf9116100b2578063de1eb9a311610081578063ef88c31e11610066578063ef88c31e146102a6578063f2fde38b146102d2578063f857ef67146102e557600080fd5b8063de1eb9a31461025e578063e30c39781461029357600080fd5b806397331bf914610202578063a3fdd98f14610217578063d3f3e96f14610238578063d60cad231461024b57600080fd5b80635748ff18116100ee5780635748ff18146101965780638da5cb5b146101c95780638f32d59b146101dc5780639094a91e146101ef57600080fd5b80630eb9af38146101205780634e71e0c81461016657806352f445ca1461017057806353b83e9214610183575b600080fd5b61014961012e36600461098b565b6004602052600090815260409020546001600160a01b031681565b6040516001600160a01b0390911681526020015b60405180910390f35b61016e61032f565b005b61016e61017e36600461098b565b6103b7565b61016e6101913660046109ad565b61048e565b6101b96101a436600461098b565b60026020526000908152604090205460ff1681565b604051901515815260200161015d565b600054610149906001600160a01b031681565b6000546001600160a01b031633146101b9565b6101496101fd3660046109d7565b610532565b61020a61055c565b60405161015d91906109f0565b61022a610225366004610a3d565b6105be565b60405190815260200161015d565b61016e6102463660046109ad565b61073b565b61016e6102593660046109ad565b6107df565b61027161026c36600461098b565b610880565b604080518251815260208084015190820152918101519082015260600161015d565b600154610149906001600160a01b031681565b6101496102b436600461098b565b6001600160a01b039081166000908152600460205260409020541690565b61016e6102e036600461098b565b6108e6565b6103146102f336600461098b565b60056020526000908152604090208054600182015460029092015490919083565b6040805193845260208401929092529082015260600161015d565b6001546001600160a01b0316331461034657600080fd5b600154600080546040516001600160a01b0393841693909116917f8be0079c531659141344cd1fd0a4f28419497f9722a3daafe3b4186f6b6457e091a3600180546000805473ffffffffffffffffffffffffffffffffffffffff199081166001600160a01b03841617909155169055565b6000546001600160a01b031633146104165760405162461bcd60e51b815260206004820181905260248201527f4f776e61626c653a2063616c6c6572206973206e6f7420746865206f776e657260448201526064015b60405180910390fd5b6001600160a01b03811660008181526002602090815260409182902080547fffffffffffffffffffffffffffffffffffffffffffffffffffffffffffffff0016600117905590519182527f73f20cff579e8a4086fa607db83867595f1b6a798e718c0bfa0b94a404128e03910160405180910390a150565b3360009081526002602052604090205460ff166105135760405162461bcd60e51b815260206004820152603460248201527f4f6e6c7920746865206173736f63696174656420636f6e74726163742063616e60448201527f20706572666f726d207468697320616374696f6e000000000000000000000000606482015260840161040d565b6001600160a01b03909116600090815260056020526040902060010155565b6003818154811061054257600080fd5b6000918252602090912001546001600160a01b0316905081565b606060038054806020026020016040519081016040528092919081815260200182805480156105b457602002820191906000526020600020905b81546001600160a01b03168152600190910190602001808311610596575b5050505050905090565b3360009081526002602052604081205460ff166106435760405162461bcd60e51b815260206004820152603460248201527f4f6e6c7920746865206173736f63696174656420636f6e74726163742063616e60448201527f20706572666f726d207468697320616374696f6e000000000000000000000000606482015260840161040d565b60038054600181019091557fc2575a0e9e593c00f959f8c92f12db2869c3395a3b0502d05e2516446f71f85b01805473ffffffffffffffffffffffffffffffffffffffff19166001600160a01b038481169190911790915583811660009081526004602052604090205416156106fb5760405162461bcd60e51b815260206004820152600c60248201527f7661756c74206578697374730000000000000000000000000000000000000000604482015260640161040d565b506001600160a01b039182166000908152600460205260409020805473ffffffffffffffffffffffffffffffffffffffff19169190921617905560035490565b3360009081526002602052604090205460ff166107c05760405162461bcd60e51b815260206004820152603460248201527f4f6e6c7920746865206173736f63696174656420636f6e74726163742063616e60448201527f20706572666f726d207468697320616374696f6e000000000000000000000000606482015260840161040d565b6001600160a01b03909116600090815260056020526040902060020155565b3360009081526002602052604090205460ff166108645760405162461bcd60e51b815260206004820152603460248201527f4f6e6c7920746865206173736f63696174656420636f6e74726163742063616e60448201527f20706572666f726d207468697320616374696f6e000000000000000000000000606482015260840161040d565b6001600160a01b03909116600090815260056020526040902055565b6108a460405180606001604052806000815260200160008152602001600081525090565b506001600160a01b0316600090815260056020908152604091829020825160608101845281548152600182015492810192909252600201549181019190915290565b6000546001600160a01b031633146109405760405162461bcd60e51b815260206004820181905260248201527f4f776e61626c653a2063616c6c6572206973206e6f7420746865206f776e6572604482015260640161040d565b6001805473ffffffffffffffffffffffffffffffffffffffff19166001600160a01b0392909216919091179055565b80356001600160a01b038116811461098657600080fd5b919050565b60006020828403121561099d57600080fd5b6109a68261096f565b9392505050565b600080604083850312156109c057600080fd5b6109c98361096f565b946020939093013593505050565b6000602082840312156109e957600080fd5b5035919050565b6020808252825182820181905260009190848201906040850190845b81811015610a315783516001600160a01b031683529284019291840191600101610a0c565b50909695505050505050565b60008060408385031215610a5057600080fd5b610a598361096f565b9150610a676020840161096f565b9050925092905056fea2646970667358221220849a827c8fa0aa370ed3186950928e78b1b49430dbbcbc22e25159bd6c07069d64736f6c63430008090033",
  "devdoc": {
    "kind": "dev",
    "methods": {
      "claimOwnership()": {
        "details": "Allows the pendingOwner address to finalize the transfer."
      },
      "getAllVaults()": {
        "details": "Get all credit account addresses*"
      },
      "getVaultAddress(address)": {
        "details": "Get Vault address for a specific user",
        "params": {
          "_user": "the address of the player*"
        }
      },
      "isOwner()": {
        "details": "Returns true if the caller is the current owner."
      },
      "transferOwnership(address)": {
        "details": "Allows the current owner to set the pendingOwner address.",
        "params": {
          "newOwner": "The address to transfer ownership to."
        }
      }
    },
    "version": 1
  },
  "userdoc": {
    "kind": "user",
    "methods": {},
    "version": 1
  },
  "storageLayout": {
    "storage": [
      {
        "astId": 10302,
        "contract": "contracts/component/vault/VaultStorage.sol:VaultStorage",
        "label": "owner",
        "offset": 0,
        "slot": "0",
        "type": "t_address"
      },
      {
        "astId": 10304,
        "contract": "contracts/component/vault/VaultStorage.sol:VaultStorage",
        "label": "pendingOwner",
        "offset": 0,
        "slot": "1",
        "type": "t_address"
      },
      {
        "astId": 10627,
        "contract": "contracts/component/vault/VaultStorage.sol:VaultStorage",
        "label": "associatedContracts",
        "offset": 0,
        "slot": "2",
        "type": "t_mapping(t_address,t_bool)"
      },
      {
        "astId": 7058,
        "contract": "contracts/component/vault/VaultStorage.sol:VaultStorage",
        "label": "allVaults",
        "offset": 0,
        "slot": "3",
        "type": "t_array(t_address)dyn_storage"
      },
      {
        "astId": 7062,
        "contract": "contracts/component/vault/VaultStorage.sol:VaultStorage",
        "label": "getVault",
        "offset": 0,
        "slot": "4",
        "type": "t_mapping(t_address,t_address)"
      },
      {
        "astId": 7067,
        "contract": "contracts/component/vault/VaultStorage.sol:VaultStorage",
        "label": "vaultConfig",
        "offset": 0,
        "slot": "5",
        "type": "t_mapping(t_address,t_struct(VaultConfig)10747_storage)"
      }
    ],
    "types": {
      "t_address": {
        "encoding": "inplace",
        "label": "address",
        "numberOfBytes": "20"
      },
      "t_array(t_address)dyn_storage": {
        "base": "t_address",
        "encoding": "dynamic_array",
        "label": "address[]",
        "numberOfBytes": "32"
      },
      "t_bool": {
        "encoding": "inplace",
        "label": "bool",
        "numberOfBytes": "1"
      },
      "t_mapping(t_address,t_address)": {
        "encoding": "mapping",
        "key": "t_address",
        "label": "mapping(address => address)",
        "numberOfBytes": "32",
        "value": "t_address"
      },
      "t_mapping(t_address,t_bool)": {
        "encoding": "mapping",
        "key": "t_address",
        "label": "mapping(address => bool)",
        "numberOfBytes": "32",
        "value": "t_bool"
      },
      "t_mapping(t_address,t_struct(VaultConfig)10747_storage)": {
        "encoding": "mapping",
        "key": "t_address",
        "label": "mapping(address => struct DataTypes.VaultConfig)",
        "numberOfBytes": "32",
        "value": "t_struct(VaultConfig)10747_storage"
      },
      "t_struct(VaultConfig)10747_storage": {
        "encoding": "inplace",
        "label": "struct DataTypes.VaultConfig",
        "members": [
          {
            "astId": 10742,
            "contract": "contracts/component/vault/VaultStorage.sol:VaultStorage",
            "label": "minSecurityDeposit",
            "offset": 0,
            "slot": "0",
            "type": "t_uint256"
          },
          {
            "astId": 10744,
            "contract": "contracts/component/vault/VaultStorage.sol:VaultStorage",
            "label": "maxSecurityDeposit",
            "offset": 0,
            "slot": "1",
            "type": "t_uint256"
          },
          {
            "astId": 10746,
            "contract": "contracts/component/vault/VaultStorage.sol:VaultStorage",
            "label": "securityDepositRequirement",
            "offset": 0,
            "slot": "2",
            "type": "t_uint256"
          }
        ],
        "numberOfBytes": "96"
      },
      "t_uint256": {
        "encoding": "inplace",
        "label": "uint256",
        "numberOfBytes": "32"
      }
    }
  }
}