{
  "address": "0xE3e286Bd77117d7c11c24A393f58D70611c333c7",
  "abi": [
    {
      "inputs": [
        {
          "internalType": "address",
          "name": "_vaultManager",
          "type": "address"
        }
      ],
      "stateMutability": "nonpayable",
      "type": "constructor"
    },
    {
      "anonymous": false,
      "inputs": [
        {
          "indexed": false,
          "internalType": "address",
          "name": "associatedContract",
          "type": "address"
        }
      ],
      "name": "AssociatedContractUpdated",
      "type": "event"
    },
    {
      "anonymous": false,
      "inputs": [
        {
          "indexed": true,
          "internalType": "address",
          "name": "previousOwner",
          "type": "address"
        },
        {
          "indexed": true,
          "internalType": "address",
          "name": "newOwner",
          "type": "address"
        }
      ],
      "name": "OwnershipTransferred",
      "type": "event"
    },
    {
      "inputs": [
        {
          "internalType": "uint256",
          "name": "",
          "type": "uint256"
        }
      ],
      "name": "allVaults",
      "outputs": [
        {
          "internalType": "address",
          "name": "",
          "type": "address"
        }
      ],
      "stateMutability": "view",
      "type": "function"
    },
    {
      "inputs": [
        {
          "internalType": "address",
          "name": "",
          "type": "address"
        }
      ],
      "name": "associatedContracts",
      "outputs": [
        {
          "internalType": "bool",
          "name": "",
          "type": "bool"
        }
      ],
      "stateMutability": "view",
      "type": "function"
    },
    {
      "inputs": [],
      "name": "claimOwnership",
      "outputs": [],
      "stateMutability": "nonpayable",
      "type": "function"
    },
    {
      "inputs": [],
      "name": "getAllVaults",
      "outputs": [
        {
          "internalType": "address[]",
          "name": "",
          "type": "address[]"
        }
      ],
      "stateMutability": "view",
      "type": "function"
    },
    {
      "inputs": [
        {
          "internalType": "address",
          "name": "",
          "type": "address"
        }
      ],
      "name": "getVault",
      "outputs": [
        {
          "internalType": "address",
          "name": "",
          "type": "address"
        }
      ],
      "stateMutability": "view",
      "type": "function"
    },
    {
      "inputs": [
        {
          "internalType": "address",
          "name": "_user",
          "type": "address"
        }
      ],
      "name": "getVaultAddress",
      "outputs": [
        {
          "internalType": "address",
          "name": "",
          "type": "address"
        }
      ],
      "stateMutability": "view",
      "type": "function"
    },
    {
      "inputs": [],
      "name": "isOwner",
      "outputs": [
        {
          "internalType": "bool",
          "name": "",
          "type": "bool"
        }
      ],
      "stateMutability": "view",
      "type": "function"
    },
    {
      "inputs": [],
      "name": "owner",
      "outputs": [
        {
          "internalType": "address",
          "name": "",
          "type": "address"
        }
      ],
      "stateMutability": "view",
      "type": "function"
    },
    {
      "inputs": [],
      "name": "pendingOwner",
      "outputs": [
        {
          "internalType": "address",
          "name": "",
          "type": "address"
        }
      ],
      "stateMutability": "view",
      "type": "function"
    },
    {
      "inputs": [
        {
          "internalType": "address",
          "name": "_player",
          "type": "address"
        },
        {
          "internalType": "address",
          "name": "vault",
          "type": "address"
        }
      ],
      "name": "pushNewVault",
      "outputs": [
        {
          "internalType": "uint256",
          "name": "",
          "type": "uint256"
        }
      ],
      "stateMutability": "nonpayable",
      "type": "function"
    },
    {
      "inputs": [
        {
          "internalType": "address",
          "name": "_associatedContract",
          "type": "address"
        }
      ],
      "name": "setAssociatedContract",
      "outputs": [],
      "stateMutability": "nonpayable",
      "type": "function"
    },
    {
      "inputs": [
        {
          "internalType": "address",
          "name": "newOwner",
          "type": "address"
        }
      ],
      "name": "transferOwnership",
      "outputs": [],
      "stateMutability": "nonpayable",
      "type": "function"
    }
  ],
  "transactionHash": "0xf225b1a8c0efdb5aa9fe707f1e72928345ee8284e2f4342a723cdb8030250838",
  "args": [
    "0xB59Af22e73C9560DBa5D3cF1d6523541838244a8"
  ],
  "numDeployments": 1,
  "solcInputHash": "36c545191a21c01ad4cdfe8c379680b1",
  "bytecode": "0x608060405234801561001057600080fd5b5060405161088938038061088983398101604081905261002f9161011c565b600080546001600160a01b0319163390811782556040518392907f8be0079c531659141344cd1fd0a4f28419497f9722a3daafe3b4186f6b6457e0908290a36000546001600160a01b03166100be5760405162461bcd60e51b815260206004820152601160248201527013dddb995c881b5d5cdd081899481cd95d607a1b604482015260640160405180910390fd5b6001600160a01b038116600081815260026020908152604091829020805460ff1916600117905590519182527f73f20cff579e8a4086fa607db83867595f1b6a798e718c0bfa0b94a404128e03910160405180910390a1505061014c565b60006020828403121561012e57600080fd5b81516001600160a01b038116811461014557600080fd5b9392505050565b61072e8061015b6000396000f3fe608060405234801561001057600080fd5b50600436106100d45760003560e01c80639094a91e11610081578063e30c39781161005b578063e30c3978146101de578063ef88c31e146101f1578063f2fde38b1461021d57600080fd5b80639094a91e1461019557806397331bf9146101a8578063a3fdd98f146101bd57600080fd5b80635748ff18116100b25780635748ff181461013c5780638da5cb5b1461016f5780638f32d59b1461018257600080fd5b80630eb9af38146100d95780634e71e0c81461011f57806352f445ca14610129575b600080fd5b6101026100e736600461063d565b6004602052600090815260409020546001600160a01b031681565b6040516001600160a01b0390911681526020015b60405180910390f35b610127610230565b005b61012761013736600461063d565b6102b8565b61015f61014a36600461063d565b60026020526000908152604090205460ff1681565b6040519015158152602001610116565b600054610102906001600160a01b031681565b6000546001600160a01b0316331461015f565b6101026101a336600461065f565b61038f565b6101b06103b9565b6040516101169190610678565b6101d06101cb3660046106c5565b61041b565b604051908152602001610116565b600154610102906001600160a01b031681565b6101026101ff36600461063d565b6001600160a01b039081166000908152600460205260409020541690565b61012761022b36600461063d565b610598565b6001546001600160a01b0316331461024757600080fd5b600154600080546040516001600160a01b0393841693909116917f8be0079c531659141344cd1fd0a4f28419497f9722a3daafe3b4186f6b6457e091a3600180546000805473ffffffffffffffffffffffffffffffffffffffff199081166001600160a01b03841617909155169055565b6000546001600160a01b031633146103175760405162461bcd60e51b815260206004820181905260248201527f4f776e61626c653a2063616c6c6572206973206e6f7420746865206f776e657260448201526064015b60405180910390fd5b6001600160a01b03811660008181526002602090815260409182902080547fffffffffffffffffffffffffffffffffffffffffffffffffffffffffffffff0016600117905590519182527f73f20cff579e8a4086fa607db83867595f1b6a798e718c0bfa0b94a404128e03910160405180910390a150565b6003818154811061039f57600080fd5b6000918252602090912001546001600160a01b0316905081565b6060600380548060200260200160405190810160405280929190818152602001828054801561041157602002820191906000526020600020905b81546001600160a01b031681526001909101906020018083116103f3575b5050505050905090565b3360009081526002602052604081205460ff166104a05760405162461bcd60e51b815260206004820152603460248201527f4f6e6c7920746865206173736f63696174656420636f6e74726163742063616e60448201527f20706572666f726d207468697320616374696f6e000000000000000000000000606482015260840161030e565b60038054600181019091557fc2575a0e9e593c00f959f8c92f12db2869c3395a3b0502d05e2516446f71f85b01805473ffffffffffffffffffffffffffffffffffffffff19166001600160a01b038481169190911790915583811660009081526004602052604090205416156105585760405162461bcd60e51b815260206004820152600c60248201527f7661756c74206578697374730000000000000000000000000000000000000000604482015260640161030e565b506001600160a01b039182166000908152600460205260409020805473ffffffffffffffffffffffffffffffffffffffff19169190921617905560035490565b6000546001600160a01b031633146105f25760405162461bcd60e51b815260206004820181905260248201527f4f776e61626c653a2063616c6c6572206973206e6f7420746865206f776e6572604482015260640161030e565b6001805473ffffffffffffffffffffffffffffffffffffffff19166001600160a01b0392909216919091179055565b80356001600160a01b038116811461063857600080fd5b919050565b60006020828403121561064f57600080fd5b61065882610621565b9392505050565b60006020828403121561067157600080fd5b5035919050565b6020808252825182820181905260009190848201906040850190845b818110156106b95783516001600160a01b031683529284019291840191600101610694565b50909695505050505050565b600080604083850312156106d857600080fd5b6106e183610621565b91506106ef60208401610621565b9050925092905056fea264697066735822122057f5391d723cb8b24b11b6151511eaf5e5a45f0a60e4674db38717fcf6af7a3264736f6c63430008090033",
  "devdoc": {
    "kind": "dev",
    "methods": {
      "claimOwnership()": {
        "details": "Allows the pendingOwner address to finalize the transfer."
      },
      "getAllVaults()": {
        "details": "Get all credit account addresses*"
      },
      "getVaultAddress(address)": {
        "details": "Get Vault address for a specific user",
        "params": {
          "_user": "the address of the player*"
        }
      },
      "isOwner()": {
        "details": "Returns true if the caller is the current owner."
      },
      "transferOwnership(address)": {
        "details": "Allows the current owner to set the pendingOwner address.",
        "params": {
          "newOwner": "The address to transfer ownership to."
        }
      }
    },
    "version": 1
  },
  "userdoc": {
    "kind": "user",
    "methods": {},
    "version": 1
  },
  "storageLayout": {
    "storage": [
      {
        "astId": 9178,
        "contract": "contracts/component/vault/VaultStorage.sol:VaultStorage",
        "label": "owner",
        "offset": 0,
        "slot": "0",
        "type": "t_address"
      },
      {
        "astId": 9180,
        "contract": "contracts/component/vault/VaultStorage.sol:VaultStorage",
        "label": "pendingOwner",
        "offset": 0,
        "slot": "1",
        "type": "t_address"
      },
      {
        "astId": 9503,
        "contract": "contracts/component/vault/VaultStorage.sol:VaultStorage",
        "label": "associatedContracts",
        "offset": 0,
        "slot": "2",
        "type": "t_mapping(t_address,t_bool)"
      },
      {
        "astId": 5793,
        "contract": "contracts/component/vault/VaultStorage.sol:VaultStorage",
        "label": "allVaults",
        "offset": 0,
        "slot": "3",
        "type": "t_array(t_address)dyn_storage"
      },
      {
        "astId": 5797,
        "contract": "contracts/component/vault/VaultStorage.sol:VaultStorage",
        "label": "getVault",
        "offset": 0,
        "slot": "4",
        "type": "t_mapping(t_address,t_address)"
      }
    ],
    "types": {
      "t_address": {
        "encoding": "inplace",
        "label": "address",
        "numberOfBytes": "20"
      },
      "t_array(t_address)dyn_storage": {
        "base": "t_address",
        "encoding": "dynamic_array",
        "label": "address[]",
        "numberOfBytes": "32"
      },
      "t_bool": {
        "encoding": "inplace",
        "label": "bool",
        "numberOfBytes": "1"
      },
      "t_mapping(t_address,t_address)": {
        "encoding": "mapping",
        "key": "t_address",
        "label": "mapping(address => address)",
        "numberOfBytes": "32",
        "value": "t_address"
      },
      "t_mapping(t_address,t_bool)": {
        "encoding": "mapping",
        "key": "t_address",
        "label": "mapping(address => bool)",
        "numberOfBytes": "32",
        "value": "t_bool"
      }
    }
  }
}