{
  "address": "0xFD67e81a10873c703B78e9E396D7b5Af1A0BbBd6",
  "abi": [
    {
      "inputs": [
        {
          "internalType": "contract IAddressResolver",
          "name": "_addressResolver",
          "type": "address"
        }
      ],
      "stateMutability": "nonpayable",
      "type": "constructor"
    },
    {
      "inputs": [],
      "name": "addressResolver",
      "outputs": [
        {
          "internalType": "contract IAddressResolver",
          "name": "",
          "type": "address"
        }
      ],
      "stateMutability": "view",
      "type": "function"
    },
    {
      "inputs": [],
      "name": "getAllVaults",
      "outputs": [
        {
          "internalType": "address[]",
          "name": "",
          "type": "address[]"
        }
      ],
      "stateMutability": "view",
      "type": "function"
    },
    {
      "inputs": [
        {
          "internalType": "address",
          "name": "_reserve",
          "type": "address"
        }
      ],
      "name": "getPoolConfiguration",
      "outputs": [
        {
          "components": [
            {
              "internalType": "uint256",
              "name": "securityRequirement",
              "type": "uint256"
            },
            {
              "internalType": "uint256",
              "name": "minSecurity",
              "type": "uint256"
            },
            {
              "internalType": "uint256",
              "name": "maxSecurity",
              "type": "uint256"
            },
            {
              "internalType": "uint256",
              "name": "loanTenure",
              "type": "uint256"
            },
            {
              "internalType": "uint256",
              "name": "optimalTrancheRatio",
              "type": "uint256"
            },
            {
              "internalType": "uint256",
              "name": "optimalIncomeRatio",
              "type": "uint256"
            },
            {
              "internalType": "bool",
              "name": "isActive",
              "type": "bool"
            }
          ],
          "internalType": "struct DataTypes.PoolConfiguration",
          "name": "",
          "type": "tuple"
        }
      ],
      "stateMutability": "view",
      "type": "function"
    },
    {
      "inputs": [
        {
          "internalType": "address",
          "name": "underlyingAsset",
          "type": "address"
        }
      ],
      "name": "getPoolData",
      "outputs": [
        {
          "components": [
            {
              "internalType": "uint256",
              "name": "totalLiquidity",
              "type": "uint256"
            },
            {
              "internalType": "uint256",
              "name": "juniorLiquidity",
              "type": "uint256"
            },
            {
              "internalType": "uint256",
              "name": "seniorLiquidity",
              "type": "uint256"
            },
            {
              "internalType": "uint256",
              "name": "juniorLiquidityRate",
              "type": "uint256"
            },
            {
              "internalType": "uint256",
              "name": "seniorLiquidityRate",
              "type": "uint256"
            },
            {
              "internalType": "uint256",
              "name": "totalDebt",
              "type": "uint256"
            },
            {
              "internalType": "uint256",
              "name": "borrowRate",
              "type": "uint256"
            },
            {
              "internalType": "uint256",
              "name": "trancheRatio",
              "type": "uint256"
            },
            {
              "internalType": "uint256",
              "name": "decimals",
              "type": "uint256"
            }
          ],
          "internalType": "struct DataTypes.PoolData",
          "name": "",
          "type": "tuple"
        }
      ],
      "stateMutability": "view",
      "type": "function"
    },
    {
      "inputs": [],
      "name": "getPoolTokens",
      "outputs": [
        {
          "components": [
            {
              "internalType": "string",
              "name": "symbol",
              "type": "string"
            },
            {
              "internalType": "address",
              "name": "tokenAddress",
              "type": "address"
            }
          ],
          "internalType": "struct DataTypes.FungibleTokenData[]",
          "name": "tokens",
          "type": "tuple[]"
        }
      ],
      "stateMutability": "view",
      "type": "function"
    },
    {
      "inputs": [
        {
          "internalType": "address",
          "name": "_reserve",
          "type": "address"
        },
        {
          "internalType": "address",
          "name": "_user",
          "type": "address"
        }
      ],
      "name": "getUserPoolData",
      "outputs": [
        {
          "components": [
            {
              "internalType": "uint256",
              "name": "juniorTrancheBalance",
              "type": "uint256"
            },
            {
              "internalType": "uint256",
              "name": "withdrawableJuniorTrancheBalance",
              "type": "uint256"
            },
            {
              "internalType": "uint256",
              "name": "seniorTrancheBalance",
              "type": "uint256"
            },
            {
              "internalType": "uint256",
              "name": "withdrawableSeniorTrancheBalance",
              "type": "uint256"
            },
            {
              "internalType": "uint256",
              "name": "decimals",
              "type": "uint256"
            }
          ],
          "internalType": "struct DataTypes.UserPoolData",
          "name": "",
          "type": "tuple"
        }
      ],
      "stateMutability": "view",
      "type": "function"
    },
    {
      "inputs": [
        {
          "internalType": "address",
          "name": "_user",
          "type": "address"
        }
      ],
      "name": "getUserVault",
      "outputs": [
        {
          "internalType": "address",
          "name": "",
          "type": "address"
        }
      ],
      "stateMutability": "view",
      "type": "function"
    },
    {
      "inputs": [
        {
          "internalType": "address",
          "name": "_user",
          "type": "address"
        },
        {
          "internalType": "address",
          "name": "_reserve",
          "type": "address"
        },
        {
          "internalType": "address",
          "name": "_sponsor",
          "type": "address"
        }
      ],
      "name": "getVaultData",
      "outputs": [
        {
          "components": [
            {
              "internalType": "uint256",
              "name": "borrowRate",
              "type": "uint256"
            },
            {
              "internalType": "uint256",
              "name": "totalDebt",
              "type": "uint256"
            },
            {
              "internalType": "uint256",
              "name": "totalSecurityDeposit",
              "type": "uint256"
            },
            {
              "internalType": "uint256",
              "name": "withdrawableSecurityDeposit",
              "type": "uint256"
            },
            {
              "internalType": "uint256",
              "name": "creditLimit",
              "type": "uint256"
            },
            {
              "internalType": "uint256",
              "name": "spendableBalance",
              "type": "uint256"
            },
            {
              "internalType": "uint256",
              "name": "gav",
              "type": "uint256"
            },
            {
              "internalType": "uint256",
              "name": "ltv",
              "type": "uint256"
            },
            {
              "internalType": "uint256",
              "name": "optimalAggregateRepaymentRate",
              "type": "uint256"
            },
            {
              "internalType": "uint256",
              "name": "actualAggregateRepaymentRate",
              "type": "uint256"
            },
            {
              "internalType": "uint256",
              "name": "healthFactor",
              "type": "uint256"
            }
          ],
          "internalType": "struct DataTypes.VaultData",
          "name": "",
          "type": "tuple"
        }
      ],
      "stateMutability": "view",
      "type": "function"
    }
  ],
  "transactionHash": "0xcd9062c3fdd8b6d10e62006c7d13bf8f9180573742a6d24a4498870391376255",
  "args": [
    "0x77BCE2938660AdC6991000bD606395B20EEb95E5"
  ],
  "numDeployments": 3,
  "solcInputHash": "feaa5443467639659ef4b4b8136ec3c4",
  "bytecode": "0x60806040523480156200001157600080fd5b50604051620028dd380380620028dd83398101604081905262000034916200005a565b600080546001600160a01b0319166001600160a01b03929092169190911790556200008c565b6000602082840312156200006d57600080fd5b81516001600160a01b03811681146200008557600080fd5b9392505050565b612841806200009c6000396000f3fe608060405234801561001057600080fd5b50600436106100885760003560e01c80636f44bb691161005b5780636f44bb691461022a57806389c065681461029557806397331bf9146102aa578063f2380a08146102bf57600080fd5b806305a2ee2a1461008d57806313d21cdf146100bd578063491db4a21461013d5780636bf201a214610192575b600080fd5b6000546100a0906001600160a01b031681565b6040516001600160a01b0390911681526020015b60405180910390f35b6100d06100cb3660046120de565b6102d2565b6040516100b49190600061012082019050825182526020830151602083015260408301516040830152606083015160608301526080830151608083015260a083015160a083015260c083015160c083015260e083015160e083015261010080840151818401525092915050565b61015061014b3660046120fb565b6107c0565b6040516100b49190600060a082019050825182526020830151602083015260408301516040830152606083015160608301526080830151608083015292915050565b6101a56101a0366004612134565b610bb0565b6040516100b49190600061016082019050825182526020830151602083015260408301516040830152606083015160608301526080830151608083015260a083015160a083015260c083015160c083015260e083015160e083015261010080840151818401525061012080840151818401525061014080840151818401525092915050565b61023d6102383660046120de565b6117c0565b6040516100b49190600060e082019050825182526020830151602083015260408301516040830152606083015160608301526080830151608083015260a083015160a083015260c0830151151560c083015292915050565b61029d611bb8565b6040516100b491906121af565b6102b2611e1f565b6040516100b49190612260565b6100a06102cd3660046120de565b611f34565b6103216040518061012001604052806000815260200160008152602001600081526020016000815260200160008152602001600081526020016000815260200160008152602001600081525090565b60008060009054906101000a90046001600160a01b03166001600160a01b0316636dd4bbf86040518163ffffffff1660e01b815260040160206040518083038186803b15801561037057600080fd5b505afa158015610384573d6000803e3d6000fd5b505050506040513d601f19601f820116820180604052508101906103a891906122bd565b6040516335ea6a7560e01b81526001600160a01b0385811660048301529192506000918316906335ea6a75906024016102606040518083038186803b1580156103f057600080fd5b505afa158015610404573d6000803e3d6000fd5b505050506040513d601f19601f8201168201806040525081019061042891906123a2565b905060008060009054906101000a90046001600160a01b03166001600160a01b0316636dd4bbf86040518163ffffffff1660e01b815260040160206040518083038186803b15801561047957600080fd5b505afa15801561048d573d6000803e3d6000fd5b505050506040513d601f19601f820116820180604052508101906104b191906122bd565b6040517f6c62e3e40000000000000000000000000000000000000000000000000000000081526001600160a01b038781166004830152919250600091831690636c62e3e49060240160806040518083038186803b15801561051157600080fd5b505afa158015610525573d6000803e3d6000fd5b505050506040513d601f19601f8201168201806040525081019061054991906124c3565b9050600086905061059f6040518061012001604052806000815260200160008152602001600081526020016000815260200160008152602001600081526020016000815260200160008152602001600081525090565b8251602080830191909152830180516040830152835190516105c091612060565b81526040517f284592b20000000000000000000000000000000000000000000000000000000081526001600160a01b0385169063284592b29061060a908b9060009060040161254b565b60206040518083038186803b15801561062257600080fd5b505afa158015610636573d6000803e3d6000fd5b505050506040513d601f19601f8201168201806040525081019061065a9190612568565b60608201526040517f284592b20000000000000000000000000000000000000000000000000000000081526001600160a01b0385169063284592b2906106a7908b9060019060040161254b565b60206040518083038186803b1580156106bf57600080fd5b505afa1580156106d3573d6000803e3d6000fd5b505050506040513d601f19601f820116820180604052508101906106f79190612568565b6080820152604083015160a082015260c08086015190820152602083015161072557600060e082015261073b565b602083015183516107359161206c565b60e08201525b816001600160a01b031663313ce5676040518163ffffffff1660e01b815260040160206040518083038186803b15801561077457600080fd5b505afa158015610788573d6000803e3d6000fd5b505050506040513d601f19601f820116820180604052508101906107ac9190612581565b60ff16610100820152979650505050505050565b6107f26040518060a0016040528060008152602001600081526020016000815260200160008152602001600081525090565b60008060009054906101000a90046001600160a01b03166001600160a01b0316636dd4bbf86040518163ffffffff1660e01b815260040160206040518083038186803b15801561084157600080fd5b505afa158015610855573d6000803e3d6000fd5b505050506040513d601f19601f8201168201806040525081019061087991906122bd565b90506108ad6040518060a0016040528060008152602001600081526020016000815260200160008152602001600081525090565b6040517f4f71c59700000000000000000000000000000000000000000000000000000000815285906001600160a01b03841690634f71c597906108f990849089906000906004016125a4565b60206040518083038186803b15801561091157600080fd5b505afa158015610925573d6000803e3d6000fd5b505050506040513d601f19601f820116820180604052508101906109499190612568565b82526040517f4f71c5970000000000000000000000000000000000000000000000000000000081526001600160a01b03841690634f71c5979061099590899089906001906004016125a4565b60206040518083038186803b1580156109ad57600080fd5b505afa1580156109c1573d6000803e3d6000fd5b505050506040513d601f19601f820116820180604052508101906109e59190612568565b604080840191909152517f10202fcf0000000000000000000000000000000000000000000000000000000081526001600160a01b038416906310202fcf90610a3690899089906000906004016125a4565b60206040518083038186803b158015610a4e57600080fd5b505afa158015610a62573d6000803e3d6000fd5b505050506040513d601f19601f82011682018060405250810190610a869190612568565b60208301526040517f10202fcf0000000000000000000000000000000000000000000000000000000081526001600160a01b038416906310202fcf90610ad590899089906001906004016125a4565b60206040518083038186803b158015610aed57600080fd5b505afa158015610b01573d6000803e3d6000fd5b505050506040513d601f19601f82011682018060405250810190610b259190612568565b826060018181525050806001600160a01b031663313ce5676040518163ffffffff1660e01b815260040160206040518083038186803b158015610b6757600080fd5b505afa158015610b7b573d6000803e3d6000fd5b505050506040513d601f19601f82011682018060405250810190610b9f9190612581565b60ff16608083015250949350505050565b610c0d60405180610160016040528060008152602001600081526020016000815260200160008152602001600081526020016000815260200160008152602001600081526020016000815260200160008152602001600081525090565b610c6a60405180610160016040528060008152602001600081526020016000815260200160008152602001600081526020016000815260200160008152602001600081526020016000815260200160008152602001600081525090565b60008060009054906101000a90046001600160a01b03166001600160a01b03166340ccb0ae6040518163ffffffff1660e01b815260040160206040518083038186803b158015610cb957600080fd5b505afa158015610ccd573d6000803e3d6000fd5b505050506040513d601f19601f82011682018060405250810190610cf191906122bd565b6040517f0eb9af380000000000000000000000000000000000000000000000000000000081526001600160a01b0388811660048301529190911690630eb9af389060240160206040518083038186803b158015610d4d57600080fd5b505afa158015610d61573d6000803e3d6000fd5b505050506040513d601f19601f82011682018060405250810190610d8591906122bd565b905060008060009054906101000a90046001600160a01b03166001600160a01b03166340ccb0ae6040518163ffffffff1660e01b815260040160206040518083038186803b158015610dd657600080fd5b505afa158015610dea573d6000803e3d6000fd5b505050506040513d601f19601f82011682018060405250810190610e0e91906122bd565b905060008060009054906101000a90046001600160a01b03166001600160a01b03166390ffd0526040518163ffffffff1660e01b815260040160206040518083038186803b158015610e5f57600080fd5b505afa158015610e73573d6000803e3d6000fd5b505050506040513d601f19601f82011682018060405250810190610e9791906122bd565b9050806001600160a01b03166390f6fcf26040518163ffffffff1660e01b815260040160206040518083038186803b158015610ed257600080fd5b505afa158015610ee6573d6000803e3d6000fd5b505050506040513d601f19601f82011682018060405250810190610f0a9190612568565b8452600054604080517f90ffd05200000000000000000000000000000000000000000000000000000000815290516001600160a01b03909216916390ffd05291600480820192602092909190829003018186803b158015610f6a57600080fd5b505afa158015610f7e573d6000803e3d6000fd5b505050506040513d601f19601f82011682018060405250810190610fa291906122bd565b6040517f70a082310000000000000000000000000000000000000000000000000000000081526001600160a01b038a8116600483015291909116906370a082319060240160206040518083038186803b158015610ffe57600080fd5b505afa158015611012573d6000803e3d6000fd5b505050506040513d601f19601f820116820180604052508101906110369190612568565b60208501526040517f1a075aae0000000000000000000000000000000000000000000000000000000081526001600160a01b0389811660048301528881166024830152831690631a075aae9060440160206040518083038186803b15801561109d57600080fd5b505afa1580156110b1573d6000803e3d6000fd5b505050506040513d601f19601f820116820180604052508101906110d59190612568565b604085810191909152517f6e19433a0000000000000000000000000000000000000000000000000000000081526001600160a01b03898116600483015288811660248301528781166044830152831690636e19433a9060640160206040518083038186803b15801561114657600080fd5b505afa15801561115a573d6000803e3d6000fd5b505050506040513d601f19601f8201168201806040525081019061117e9190612568565b60608501526040517faefa7a080000000000000000000000000000000000000000000000000000000081526001600160a01b03898116600483015283169063aefa7a089060240160206040518083038186803b1580156111dd57600080fd5b505afa1580156111f1573d6000803e3d6000fd5b505050506040513d601f19601f820116820180604052508101906112159190612568565b60c08501526040517f1a075aae0000000000000000000000000000000000000000000000000000000081526001600160a01b0389811660048301528881166024830152831690631a075aae9060440160206040518083038186803b15801561127c57600080fd5b505afa158015611290573d6000803e3d6000fd5b505050506040513d601f19601f820116820180604052508101906112b49190612568565b604085810191909152517f5db22de60000000000000000000000000000000000000000000000000000000081526001600160a01b0389811660048301528881166024830152831690635db22de69060440160206040518083038186803b15801561131d57600080fd5b505afa158015611331573d6000803e3d6000fd5b505050506040513d601f19601f820116820180604052508101906113559190612568565b60808501526040517feafe74b50000000000000000000000000000000000000000000000000000000081526001600160a01b038981166004830152888116602483015283169063eafe74b59060440160206040518083038186803b1580156113bc57600080fd5b505afa1580156113d0573d6000803e3d6000fd5b505050506040513d601f19601f820116820180604052508101906113f49190612568565b60a08501526040517f804ba0a90000000000000000000000000000000000000000000000000000000081526001600160a01b03848116600483015282169063804ba0a99060240160206040518083038186803b15801561145357600080fd5b505afa158015611467573d6000803e3d6000fd5b505050506040513d601f19601f8201168201806040525081019061148b9190612568565b6101008501526040517f196a4cb30000000000000000000000000000000000000000000000000000000081526001600160a01b03848116600483015282169063196a4cb39060240160206040518083038186803b1580156114eb57600080fd5b505afa1580156114ff573d6000803e3d6000fd5b505050506040513d601f19601f820116820180604052508101906115239190612568565b6101208501526020840151604085015160c086015161154d92916115479190612060565b9061206c565b8460e001818152505061158f6040518060c001604052806000815260200160008152602001600081526020016000815260200160008152602001600081525090565b60408086015182528551602080840191909152808701518383015260c08701516060840152610100870151608084015261012087015160a08401526000805483517f6dd4bbf8000000000000000000000000000000000000000000000000000000008152935191936001600160a01b0390911692636dd4bbf892600480840193829003018186803b15801561162357600080fd5b505afa158015611637573d6000803e3d6000fd5b505050506040513d601f19601f8201168201806040525081019061165b91906122bd565b6040516335ea6a7560e01b81526001600160a01b038b811660048301529192506000918316906335ea6a75906024016102606040518083038186803b1580156116a357600080fd5b505afa1580156116b7573d6000803e3d6000fd5b505050506040513d601f19601f820116820180604052508101906116db91906123a2565b610140810151604080517f6a69878c0000000000000000000000000000000000000000000000000000000081528651600482015260208701516024820152908601516044820152606086015160648201526080860151608482015260a086015160a4820152919250906001600160a01b03821690636a69878c9060c40160206040518083038186803b15801561177057600080fd5b505afa158015611784573d6000803e3d6000fd5b505050506040513d601f19601f820116820180604052508101906117a89190612568565b610140890152509596505050505050505b9392505050565b6118026040518060e001604052806000815260200160008152602001600081526020016000815260200160008152602001600081526020016000151581525090565b6118446040518060e001604052806000815260200160008152602001600081526020016000815260200160008152602001600081526020016000151581525090565b60008060009054906101000a90046001600160a01b03166001600160a01b03166340ccb0ae6040518163ffffffff1660e01b815260040160206040518083038186803b15801561189357600080fd5b505afa1580156118a7573d6000803e3d6000fd5b505050506040513d601f19601f820116820180604052508101906118cb91906122bd565b905060008060009054906101000a90046001600160a01b03166001600160a01b0316636dd4bbf86040518163ffffffff1660e01b815260040160206040518083038186803b15801561191c57600080fd5b505afa158015611930573d6000803e3d6000fd5b505050506040513d601f19601f8201168201806040525081019061195491906122bd565b6040516335ea6a7560e01b81526001600160a01b0387811660048301529192506000918316906335ea6a75906024016102606040518083038186803b15801561199c57600080fd5b505afa1580156119b0573d6000803e3d6000fd5b505050506040513d601f19601f820116820180604052508101906119d491906123a2565b6101408101519091506001600160a01b038116611a51576040517f08c379a000000000000000000000000000000000000000000000000000000000815260206004820152601760248201527f696e76616c6964206865616c7468207374726174656779000000000000000000604482015260640160405180910390fd5b6040517fde1eb9a30000000000000000000000000000000000000000000000000000000081526001600160a01b038881166004830152829160009187169063de1eb9a39060240160606040518083038186803b158015611ab057600080fd5b505afa158015611ac4573d6000803e3d6000fd5b505050506040513d601f19601f82011682018060405250810190611ae891906125c9565b604080820151895281516020808b0191909152808301518a83015281517f5f633ac700000000000000000000000000000000000000000000000000000000815291519293506001600160a01b03851692635f633ac7926004808201939291829003018186803b158015611b5a57600080fd5b505afa158015611b6e573d6000803e3d6000fd5b505050506040513d601f19601f82011682018060405250810190611b929190612568565b606088015250505061024081015160a08501526102000151608084015250909392505050565b60008054604080517f6dd4bbf80000000000000000000000000000000000000000000000000000000081529051606093926001600160a01b031691636dd4bbf8916004808301926020929190829003018186803b158015611c1857600080fd5b505afa158015611c2c573d6000803e3d6000fd5b505050506040513d601f19601f82011682018060405250810190611c5091906122bd565b6001600160a01b03166366d4c4136040518163ffffffff1660e01b815260040160006040518083038186803b158015611c8857600080fd5b505afa158015611c9c573d6000803e3d6000fd5b505050506040513d6000823e601f3d908101601f19168201604052611cc49190810190612625565b90506000815167ffffffffffffffff811115611ce257611ce26122da565b604051908082528060200260200182016040528015611d2857816020015b604080518082019091526060815260006020820152815260200190600190039081611d005790505b50905060005b8251811015611e18576000838281518110611d4b57611d4b6126d7565b602002602001015190506040518060400160405280826001600160a01b03166395d89b416040518163ffffffff1660e01b815260040160006040518083038186803b158015611d9957600080fd5b505afa158015611dad573d6000803e3d6000fd5b505050506040513d6000823e601f3d908101601f19168201604052611dd591908101906126ed565b8152602001826001600160a01b0316815250838381518110611df957611df96126d7565b6020026020010181905250508080611e1090612797565b915050611d2e565b5092915050565b60008054604080517f40ccb0ae0000000000000000000000000000000000000000000000000000000081529051606093926001600160a01b0316916340ccb0ae916004808301926020929190829003018186803b158015611e7f57600080fd5b505afa158015611e93573d6000803e3d6000fd5b505050506040513d601f19601f82011682018060405250810190611eb791906122bd565b9050806001600160a01b03166397331bf96040518163ffffffff1660e01b815260040160006040518083038186803b158015611ef257600080fd5b505afa158015611f06573d6000803e3d6000fd5b505050506040513d6000823e601f3d908101601f19168201604052611f2e9190810190612625565b91505090565b60008054604080517f40ccb0ae000000000000000000000000000000000000000000000000000000008152905183926001600160a01b0316916340ccb0ae916004808301926020929190829003018186803b158015611f9257600080fd5b505afa158015611fa6573d6000803e3d6000fd5b505050506040513d601f19601f82011682018060405250810190611fca91906122bd565b6040517f0eb9af380000000000000000000000000000000000000000000000000000000081526001600160a01b03858116600483015291925090821690630eb9af389060240160206040518083038186803b15801561202857600080fd5b505afa15801561203c573d6000803e3d6000fd5b505050506040513d601f19601f820116820180604052508101906117b991906122bd565b60006117b982846127b2565b60008061207a6002846127ca565b90506120a6836120a0612099876b033b2e3c9fd0803ce80000006120ae565b8490612060565b906120ba565b949350505050565b60006117b982846127ec565b60006117b982846127ca565b6001600160a01b03811681146120db57600080fd5b50565b6000602082840312156120f057600080fd5b81356117b9816120c6565b6000806040838503121561210e57600080fd5b8235612119816120c6565b91506020830135612129816120c6565b809150509250929050565b60008060006060848603121561214957600080fd5b8335612154816120c6565b92506020840135612164816120c6565b91506040840135612174816120c6565b809150509250925092565b60005b8381101561219a578181015183820152602001612182565b838111156121a9576000848401525b50505050565b60006020808301818452808551808352604092508286019150828160051b87010184880160005b83811015612252577fffffffffffffffffffffffffffffffffffffffffffffffffffffffffffffffc089840301855281518051878552805180898701526060612224828289018d860161217f565b928a01516001600160a01b0316868b015296890196601f01601f1916909401019250908601906001016121d6565b509098975050505050505050565b6020808252825182820181905260009190848201906040850190845b818110156122a15783516001600160a01b03168352928401929184019160010161227c565b50909695505050505050565b80516122b8816120c6565b919050565b6000602082840312156122cf57600080fd5b81516117b9816120c6565b634e487b7160e01b600052604160045260246000fd5b604051610260810167ffffffffffffffff81118282101715612314576123146122da565b60405290565b604051601f8201601f1916810167ffffffffffffffff81118282101715612343576123436122da565b604052919050565b60006020828403121561235d57600080fd5b6040516020810181811067ffffffffffffffff82111715612380576123806122da565b6040529151825250919050565b805164ffffffffff811681146122b857600080fd5b600061026082840312156123b557600080fd5b6123bd6122f0565b6123c7848461234b565b81526020830151602082015260408301516040820152606083015160608201526080830151608082015260a083015160a082015260c083015160c082015260e083015160e08201526101008084015181830152506101206124298185016122ad565b9082015261014061243b8482016122ad565b9082015261016061244d8482016122ad565b9082015261018061245f8482016122ad565b908201526101a06124718482016122ad565b908201526101c061248384820161238d565b908201526101e061249584820161238d565b9082015261020083810151908201526102208084015190820152610240928301519281019290925250919050565b6000608082840312156124d557600080fd5b6040516080810181811067ffffffffffffffff821117156124f8576124f86122da565b8060405250825181526020830151602082015260408301516040820152606083015160608201528091505092915050565b6002811061254757634e487b7160e01b600052602160045260246000fd5b9052565b6001600160a01b0383168152604081016117b96020830184612529565b60006020828403121561257a57600080fd5b5051919050565b60006020828403121561259357600080fd5b815160ff811681146117b957600080fd5b6001600160a01b03848116825283166020820152606081016120a66040830184612529565b6000606082840312156125db57600080fd5b6040516060810181811067ffffffffffffffff821117156125fe576125fe6122da565b80604052508251815260208301516020820152604083015160408201528091505092915050565b6000602080838503121561263857600080fd5b825167ffffffffffffffff8082111561265057600080fd5b818501915085601f83011261266457600080fd5b815181811115612676576126766122da565b8060051b915061268784830161231a565b81815291830184019184810190888411156126a157600080fd5b938501935b838510156126cb57845192506126bb836120c6565b82825293850193908501906126a6565b98975050505050505050565b634e487b7160e01b600052603260045260246000fd5b6000602082840312156126ff57600080fd5b815167ffffffffffffffff8082111561271757600080fd5b818401915084601f83011261272b57600080fd5b81518181111561273d5761273d6122da565b6127506020601f19601f8401160161231a565b915080825285602082850101111561276757600080fd5b61277881602084016020860161217f565b50949350505050565b634e487b7160e01b600052601160045260246000fd5b60006000198214156127ab576127ab612781565b5060010190565b600082198211156127c5576127c5612781565b500190565b6000826127e757634e487b7160e01b600052601260045260246000fd5b500490565b600081600019048311821515161561280657612806612781565b50029056fea2646970667358221220f1a68f9f305d480436117600225a9333ae2bed7771314f7d8a47821eab88d4a764736f6c63430008090033",
  "devdoc": {
    "kind": "dev",
    "methods": {},
    "version": 1
  },
  "userdoc": {
    "kind": "user",
    "methods": {},
    "version": 1
  },
  "storageLayout": {
    "storage": [
      {
        "astId": 10545,
        "contract": "contracts/misc/VoyageProtocolDataProvider.sol:VoyageProtocolDataProvider",
        "label": "addressResolver",
        "offset": 0,
        "slot": "0",
        "type": "t_contract(IAddressResolver)6787"
      }
    ],
    "types": {
      "t_contract(IAddressResolver)6787": {
        "encoding": "inplace",
        "label": "contract IAddressResolver",
        "numberOfBytes": "20"
      }
    }
  }
}