{
  "address": "0xD9AE0112011ed7B259ed1427f8fd750c8e292860",
  "abi": [
    {
      "inputs": [
        {
          "internalType": "address",
          "name": "_aclAdmin",
          "type": "address"
        }
      ],
      "stateMutability": "nonpayable",
      "type": "constructor"
    },
    {
      "anonymous": false,
      "inputs": [
        {
          "indexed": true,
          "internalType": "bytes32",
          "name": "role",
          "type": "bytes32"
        },
        {
          "indexed": true,
          "internalType": "bytes32",
          "name": "previousAdminRole",
          "type": "bytes32"
        },
        {
          "indexed": true,
          "internalType": "bytes32",
          "name": "newAdminRole",
          "type": "bytes32"
        }
      ],
      "name": "RoleAdminChanged",
      "type": "event"
    },
    {
      "anonymous": false,
      "inputs": [
        {
          "indexed": true,
          "internalType": "bytes32",
          "name": "role",
          "type": "bytes32"
        },
        {
          "indexed": true,
          "internalType": "address",
          "name": "account",
          "type": "address"
        },
        {
          "indexed": true,
          "internalType": "address",
          "name": "sender",
          "type": "address"
        }
      ],
      "name": "RoleGranted",
      "type": "event"
    },
    {
      "anonymous": false,
      "inputs": [
        {
          "indexed": true,
          "internalType": "bytes32",
          "name": "role",
          "type": "bytes32"
        },
        {
          "indexed": true,
          "internalType": "address",
          "name": "account",
          "type": "address"
        },
        {
          "indexed": true,
          "internalType": "address",
          "name": "sender",
          "type": "address"
        }
      ],
      "name": "RoleRevoked",
      "type": "event"
    },
    {
      "inputs": [],
      "name": "DEFAULT_ADMIN_ROLE",
      "outputs": [
        {
          "internalType": "bytes32",
          "name": "",
          "type": "bytes32"
        }
      ],
      "stateMutability": "view",
      "type": "function"
    },
    {
      "inputs": [],
      "name": "LIQUIDITY_MANAGER_ADMIN_ROLE",
      "outputs": [
        {
          "internalType": "bytes32",
          "name": "",
          "type": "bytes32"
        }
      ],
      "stateMutability": "view",
      "type": "function"
    },
    {
      "inputs": [],
      "name": "LIQUIDITY_MANAGER_CONTRACT_ROLE",
      "outputs": [
        {
          "internalType": "bytes32",
          "name": "",
          "type": "bytes32"
        }
      ],
      "stateMutability": "view",
      "type": "function"
    },
    {
      "inputs": [],
      "name": "LOAN_MANAGER_ADMIN_ROLE",
      "outputs": [
        {
          "internalType": "bytes32",
          "name": "",
          "type": "bytes32"
        }
      ],
      "stateMutability": "view",
      "type": "function"
    },
    {
      "inputs": [],
      "name": "LOAN_MANAGER_CONTRACT_ROLE",
      "outputs": [
        {
          "internalType": "bytes32",
          "name": "",
          "type": "bytes32"
        }
      ],
      "stateMutability": "view",
      "type": "function"
    },
    {
      "inputs": [],
      "name": "ORACLE_MANAGER_ROLE",
      "outputs": [
        {
          "internalType": "bytes32",
          "name": "",
          "type": "bytes32"
        }
      ],
      "stateMutability": "view",
      "type": "function"
    },
    {
      "inputs": [],
      "name": "VAULT_CONFIGURATOR",
      "outputs": [
        {
          "internalType": "bytes32",
          "name": "",
          "type": "bytes32"
        }
      ],
      "stateMutability": "view",
      "type": "function"
    },
    {
      "inputs": [],
      "name": "VAULT_MANAGER_ADMIN_ROLE",
      "outputs": [
        {
          "internalType": "bytes32",
          "name": "",
          "type": "bytes32"
        }
      ],
      "stateMutability": "view",
      "type": "function"
    },
    {
      "inputs": [],
      "name": "VAULT_MANAGER_CONTRACT_ROLE",
      "outputs": [
        {
          "internalType": "bytes32",
          "name": "",
          "type": "bytes32"
        }
      ],
      "stateMutability": "view",
      "type": "function"
    },
    {
      "inputs": [],
      "name": "VOYAGER_ADMIN_ROLE",
      "outputs": [
        {
          "internalType": "bytes32",
          "name": "",
          "type": "bytes32"
        }
      ],
      "stateMutability": "view",
      "type": "function"
    },
    {
      "inputs": [],
      "name": "VOYAGER_CONTRACT_ROLE",
      "outputs": [
        {
          "internalType": "bytes32",
          "name": "",
          "type": "bytes32"
        }
      ],
      "stateMutability": "view",
      "type": "function"
    },
    {
      "inputs": [
        {
          "internalType": "bytes32",
          "name": "role",
          "type": "bytes32"
        }
      ],
      "name": "getRoleAdmin",
      "outputs": [
        {
          "internalType": "bytes32",
          "name": "",
          "type": "bytes32"
        }
      ],
      "stateMutability": "view",
      "type": "function"
    },
    {
      "inputs": [
        {
          "internalType": "address",
          "name": "_admin",
          "type": "address"
        }
      ],
      "name": "grantLiquidityManager",
      "outputs": [],
      "stateMutability": "nonpayable",
      "type": "function"
    },
    {
      "inputs": [
        {
          "internalType": "address",
          "name": "_admin",
          "type": "address"
        }
      ],
      "name": "grantLiquidityManagerContract",
      "outputs": [],
      "stateMutability": "nonpayable",
      "type": "function"
    },
    {
      "inputs": [
        {
          "internalType": "address",
          "name": "_admin",
          "type": "address"
        }
      ],
      "name": "grantLoanManager",
      "outputs": [],
      "stateMutability": "nonpayable",
      "type": "function"
    },
    {
      "inputs": [
        {
          "internalType": "address",
          "name": "_admin",
          "type": "address"
        }
      ],
      "name": "grantLoanManagerContract",
      "outputs": [],
      "stateMutability": "nonpayable",
      "type": "function"
    },
    {
      "inputs": [
        {
          "internalType": "address",
          "name": "_admin",
          "type": "address"
        }
      ],
      "name": "grantOracleManager",
      "outputs": [],
      "stateMutability": "nonpayable",
      "type": "function"
    },
    {
      "inputs": [
        {
          "internalType": "address",
          "name": "_admin",
          "type": "address"
        }
      ],
      "name": "grantPoolManager",
      "outputs": [],
      "stateMutability": "nonpayable",
      "type": "function"
    },
    {
      "inputs": [
        {
          "internalType": "bytes32",
          "name": "role",
          "type": "bytes32"
        },
        {
          "internalType": "address",
          "name": "account",
          "type": "address"
        }
      ],
      "name": "grantRole",
      "outputs": [],
      "stateMutability": "nonpayable",
      "type": "function"
    },
    {
      "inputs": [
        {
          "internalType": "address",
          "name": "_amin",
          "type": "address"
        }
      ],
      "name": "grantVaultConfigurator",
      "outputs": [],
      "stateMutability": "nonpayable",
      "type": "function"
    },
    {
      "inputs": [
        {
          "internalType": "address",
          "name": "_admin",
          "type": "address"
        }
      ],
      "name": "grantVaultManager",
      "outputs": [],
      "stateMutability": "nonpayable",
      "type": "function"
    },
    {
      "inputs": [
        {
          "internalType": "address",
          "name": "_admin",
          "type": "address"
        }
      ],
      "name": "grantVaultManagerContract",
      "outputs": [],
      "stateMutability": "nonpayable",
      "type": "function"
    },
    {
      "inputs": [
        {
          "internalType": "address",
          "name": "_admin",
          "type": "address"
        }
      ],
      "name": "grantVoyagerContract",
      "outputs": [],
      "stateMutability": "nonpayable",
      "type": "function"
    },
    {
      "inputs": [
        {
          "internalType": "bytes32",
          "name": "role",
          "type": "bytes32"
        },
        {
          "internalType": "address",
          "name": "account",
          "type": "address"
        }
      ],
      "name": "hasRole",
      "outputs": [
        {
          "internalType": "bool",
          "name": "",
          "type": "bool"
        }
      ],
      "stateMutability": "view",
      "type": "function"
    },
    {
      "inputs": [
        {
          "internalType": "address",
          "name": "_admin",
          "type": "address"
        }
      ],
      "name": "isLiquidityManager",
      "outputs": [
        {
          "internalType": "bool",
          "name": "",
          "type": "bool"
        }
      ],
      "stateMutability": "view",
      "type": "function"
    },
    {
      "inputs": [
        {
          "internalType": "address",
          "name": "_admin",
          "type": "address"
        }
      ],
      "name": "isLiquidityManagerContract",
      "outputs": [
        {
          "internalType": "bool",
          "name": "",
          "type": "bool"
        }
      ],
      "stateMutability": "view",
      "type": "function"
    },
    {
      "inputs": [
        {
          "internalType": "address",
          "name": "_admin",
          "type": "address"
        }
      ],
      "name": "isLoanManager",
      "outputs": [
        {
          "internalType": "bool",
          "name": "",
          "type": "bool"
        }
      ],
      "stateMutability": "view",
      "type": "function"
    },
    {
      "inputs": [
        {
          "internalType": "address",
          "name": "_admin",
          "type": "address"
        }
      ],
      "name": "isLoanManagerContract",
      "outputs": [
        {
          "internalType": "bool",
          "name": "",
          "type": "bool"
        }
      ],
      "stateMutability": "view",
      "type": "function"
    },
    {
      "inputs": [
        {
          "internalType": "address",
          "name": "_admin",
          "type": "address"
        }
      ],
      "name": "isOracleManager",
      "outputs": [
        {
          "internalType": "bool",
          "name": "",
          "type": "bool"
        }
      ],
      "stateMutability": "view",
      "type": "function"
    },
    {
      "inputs": [
        {
          "internalType": "address",
          "name": "_admin",
          "type": "address"
        }
      ],
      "name": "isProtocolManager",
      "outputs": [
        {
          "internalType": "bool",
          "name": "",
          "type": "bool"
        }
      ],
      "stateMutability": "view",
      "type": "function"
    },
    {
      "inputs": [
        {
          "internalType": "address",
          "name": "_admin",
          "type": "address"
        }
      ],
      "name": "isVaultConfigurator",
      "outputs": [
        {
          "internalType": "bool",
          "name": "",
          "type": "bool"
        }
      ],
      "stateMutability": "view",
      "type": "function"
    },
    {
      "inputs": [
        {
          "internalType": "address",
          "name": "_admin",
          "type": "address"
        }
      ],
      "name": "isVaultManager",
      "outputs": [
        {
          "internalType": "bool",
          "name": "",
          "type": "bool"
        }
      ],
      "stateMutability": "view",
      "type": "function"
    },
    {
      "inputs": [
        {
          "internalType": "address",
          "name": "_admin",
          "type": "address"
        }
      ],
      "name": "isVaultManagerContract",
      "outputs": [
        {
          "internalType": "bool",
          "name": "",
          "type": "bool"
        }
      ],
      "stateMutability": "view",
      "type": "function"
    },
    {
      "inputs": [
        {
          "internalType": "address",
          "name": "_admin",
          "type": "address"
        }
      ],
      "name": "isVoyagerContract",
      "outputs": [
        {
          "internalType": "bool",
          "name": "",
          "type": "bool"
        }
      ],
      "stateMutability": "view",
      "type": "function"
    },
    {
      "inputs": [
        {
          "internalType": "bytes32",
          "name": "role",
          "type": "bytes32"
        },
        {
          "internalType": "address",
          "name": "account",
          "type": "address"
        }
      ],
      "name": "renounceRole",
      "outputs": [],
      "stateMutability": "nonpayable",
      "type": "function"
    },
    {
      "inputs": [
        {
          "internalType": "bytes32",
          "name": "role",
          "type": "bytes32"
        },
        {
          "internalType": "address",
          "name": "account",
          "type": "address"
        }
      ],
      "name": "revokeRole",
      "outputs": [],
      "stateMutability": "nonpayable",
      "type": "function"
    },
    {
      "inputs": [
        {
          "internalType": "bytes4",
          "name": "interfaceId",
          "type": "bytes4"
        }
      ],
      "name": "supportsInterface",
      "outputs": [
        {
          "internalType": "bool",
          "name": "",
          "type": "bool"
        }
      ],
      "stateMutability": "view",
      "type": "function"
    }
  ],
  "transactionHash": "0x1902f0dfbcd4504518305f24925c961653eb97074a914870fdca0c4c8f174f13",
  "args": [
    "0x4C616d9377Fa8d928385F0b11Ab16D4bf0f2d544"
  ],
  "numDeployments": 2,
  "solcInputHash": "12f50c75a18b6f714019b390413b1deb",
  "bytecode": "0x608060405234801561001057600080fd5b5060405161135038038061135083398101604081905261002f916100ec565b61003a600082610040565b5061011c565b61004a828261004e565b5050565b6000828152602081815260408083206001600160a01b038516845290915290205460ff1661004a576000828152602081815260408083206001600160a01b03851684529091529020805460ff191660011790556100a83390565b6001600160a01b0316816001600160a01b0316837f2f8788117e7eff1d82e926ec794901d17c78024a50270940304540a733656f0d60405160405180910390a45050565b6000602082840312156100fe57600080fd5b81516001600160a01b038116811461011557600080fd5b9392505050565b6112258061012b6000396000f3fe608060405234801561001057600080fd5b50600436106102765760003560e01c806391d1485411610160578063af21b838116100d8578063daf5f6781161008c578063e9daac8811610071578063e9daac88146105ef578063f4070e2d14610616578063fa7b2aed1461062957600080fd5b8063daf5f678146105b5578063df89b344146105dc57600080fd5b8063b3cf20d7116100bd578063b3cf20d714610568578063bfc69e1c1461057b578063d547741f146105a257600080fd5b8063af21b8381461051a578063b25bc0c01461054157600080fd5b8063a76b90f91161012f578063a9bf2d7711610114578063a9bf2d77146104cd578063abd02480146104e0578063add31ed7146104f357600080fd5b8063a76b90f9146104a7578063a900e339146104ba57600080fd5b806391d148541461042e57806395b32a6614610465578063a10812a714610478578063a217fddf1461049f57600080fd5b80632615765a116101f357806336568abe116101c257806342395516116101a757806342395516146103f5578063676a553e146104085780637acd93c61461041b57600080fd5b806336568abe146103cf57806338e6026d146103e257600080fd5b80632615765a1461036f5780632cf89b6e146103965780632f2ff15d146103a957806334d02db4146103bc57600080fd5b806305aba9a21161024a57806316a029aa1161022f57806316a029aa146103045780631f77f8c614610339578063248a9ca31461034c57600080fd5b806305aba9a2146102de5780630710f1b3146102f157600080fd5b8062c20e161461027b5780630118e3fb1461029057806301ffc9a7146102a3578063021809a0146102cb575b600080fd5b61028e610289366004610fd9565b610650565b005b61028e61029e366004610fd9565b61067d565b6102b66102b1366004610ff4565b6106a7565b60405190151581526020015b60405180910390f35b6102b66102d9366004610fd9565b610740565b6102b66102ec366004610fd9565b610780565b61028e6102ff366004610fd9565b6107c0565b61032b7f2e0cdfb768ebf3094d8f390d6619adf64e1692ebd1a11f830ff757f4b1f5243781565b6040519081526020016102c2565b6102b6610347366004610fd9565b6107ea565b61032b61035a366004611036565b60009081526020819052604090206001015490565b61032b7fb300c03ba420ab9d0241a6226a6dfed8a9649924028cac75820473dd59fe69ac81565b6102b66103a4366004610fd9565b61082a565b61028e6103b736600461104f565b61086a565b61028e6103ca366004610fd9565b610895565b61028e6103dd36600461104f565b6108bf565b61028e6103f0366004610fd9565b610950565b61028e610403366004610fd9565b61097a565b6102b6610416366004610fd9565b6109a4565b61028e610429366004610fd9565b6109e4565b6102b661043c36600461104f565b6000918252602082815260408084206001600160a01b0393909316845291905290205460ff1690565b6102b6610473366004610fd9565b610a0e565b61032b7f7752c70e91cde7a03c746a15fae3fee7c5f52190a95e0c1d7dec3728d8d0083d81565b61032b600081565b61028e6104b5366004610fd9565b610a4e565b61028e6104c8366004610fd9565b610a78565b61028e6104db366004610fd9565b610aa2565b6102b66104ee366004610fd9565b610acc565b61032b7f52ca3a89cb62208d131882b193483d01b3944d11adafdf7c1a0404041271cd3e81565b61032b7f4e9ffdddc97f584b139425ce5ef330e87394004074fd26a145a5b2c82f0c044c81565b61032b7fa04c27653decdabf498770d9dbdf0bc9f8e422c1f0a929b44cc9fbf24cc73c5d81565b6102b6610576366004610fd9565b610b0c565b61032b7f942451c9be4228ec3c497ec9d1a5b3a6cc100bc2c661ab6870fff0b4eccfe6f581565b61028e6105b036600461104f565b610b4c565b61032b7f0ca2bc107a02999282a3ef2016fd3d5ca1b04101c59c5d737c6399ee8d9afea481565b6102b66105ea366004610fd9565b610b72565b61032b7f4f0af8ee4e6376c93b7de9e82112287aea6d1bce5463866f7b2754dd42e667c681565b6102b6610624366004610fd9565b610bb2565b61032b7f72c7f4a47c3f5118529ebea8fda4467f6767ac1cedd3cf4d84a5f767727fc37681565b61067a7f2e0cdfb768ebf3094d8f390d6619adf64e1692ebd1a11f830ff757f4b1f524378261086a565b50565b61067a7f4e9ffdddc97f584b139425ce5ef330e87394004074fd26a145a5b2c82f0c044c8261086a565b60007fffffffff0000000000000000000000000000000000000000000000000000000082167f7965db0b00000000000000000000000000000000000000000000000000000000148061073a57507f01ffc9a7000000000000000000000000000000000000000000000000000000007fffffffff000000000000000000000000000000000000000000000000000000008316145b92915050565b6001600160a01b03811660009081527f9628e9119f793ae83c66f12c7d8e47decdaa63d37a079e0fb1cb4d5de0b400ca602052604081205460ff1661073a565b6001600160a01b03811660009081527f893c5ca843a7a82a4986fcea3559262b95020474fd9806a91d693ca6e0d86647602052604081205460ff1661073a565b61067a7f942451c9be4228ec3c497ec9d1a5b3a6cc100bc2c661ab6870fff0b4eccfe6f58261086a565b6001600160a01b03811660009081527f49ba37064550f33943c64dbd1b5cafaab3027d03d669a8f3770f9d7a7347b91b602052604081205460ff1661073a565b6001600160a01b03811660009081527f48f7c2e6488666d70216995eb0e2f59eb3246644a0a4d5a7ba74fbfa0ce503be602052604081205460ff1661073a565b6000828152602081905260409020600101546108868133610bf2565b6108908383610c70565b505050565b61067a7f52ca3a89cb62208d131882b193483d01b3944d11adafdf7c1a0404041271cd3e8261086a565b6001600160a01b03811633146109425760405162461bcd60e51b815260206004820152602f60248201527f416363657373436f6e74726f6c3a2063616e206f6e6c792072656e6f756e636560448201527f20726f6c657320666f722073656c66000000000000000000000000000000000060648201526084015b60405180910390fd5b61094c8282610d0e565b5050565b61067a7f7752c70e91cde7a03c746a15fae3fee7c5f52190a95e0c1d7dec3728d8d0083d8261086a565b61067a7f72c7f4a47c3f5118529ebea8fda4467f6767ac1cedd3cf4d84a5f767727fc3768261086a565b6001600160a01b03811660009081527f0de1aeb3b646fc1f4346db6d518f1cf63bcef54fc20b3544a2a409f67ee3bddd602052604081205460ff1661073a565b61067a7fb300c03ba420ab9d0241a6226a6dfed8a9649924028cac75820473dd59fe69ac8261086a565b6001600160a01b03811660009081527fd674d712573ad24f1ab7e5457a9fd24af1adc8ab0e260355fd53d6cb35fb1699602052604081205460ff1661073a565b61067a7fa04c27653decdabf498770d9dbdf0bc9f8e422c1f0a929b44cc9fbf24cc73c5d8261086a565b61067a7f4f0af8ee4e6376c93b7de9e82112287aea6d1bce5463866f7b2754dd42e667c68261086a565b61067a7f0ca2bc107a02999282a3ef2016fd3d5ca1b04101c59c5d737c6399ee8d9afea48261086a565b6001600160a01b03811660009081527f771f2f888232540975b578a0ace29167d2b2837b6299f5fdb024e427d29104f9602052604081205460ff1661073a565b6001600160a01b03811660009081527f95d03aa79cb6257f6d9c44adc98fac500d63161365849f4756ac5f7f0cc8f715602052604081205460ff1661073a565b600082815260208190526040902060010154610b688133610bf2565b6108908383610d0e565b6001600160a01b03811660009081527ff3dfca9f01a4671c76f8a287baaa007c3dfadac515d107a5cdc4f02253cc0fd8602052604081205460ff1661073a565b6001600160a01b03811660009081527fda397dc7f2f185f51bb1554cbe76a86098fdf0b2aeccf97ffc1099406c75cb6e602052604081205460ff1661073a565b6000828152602081815260408083206001600160a01b038516845290915290205460ff1661094c57610c2e816001600160a01b03166014610d8d565b610c39836020610d8d565b604051602001610c4a9291906110ab565b60408051601f198184030181529082905262461bcd60e51b82526109399160040161112c565b6000828152602081815260408083206001600160a01b038516845290915290205460ff1661094c576000828152602081815260408083206001600160a01b03851684529091529020805460ff19166001179055610cca3390565b6001600160a01b0316816001600160a01b0316837f2f8788117e7eff1d82e926ec794901d17c78024a50270940304540a733656f0d60405160405180910390a45050565b6000828152602081815260408083206001600160a01b038516845290915290205460ff161561094c576000828152602081815260408083206001600160a01b0385168085529252808320805460ff1916905551339285917ff6391f5c32d9c69d2a47ea670b442974b53935d1edc7fd64eb21e047a839171b9190a45050565b60606000610d9c836002611175565b610da7906002611194565b67ffffffffffffffff811115610dbf57610dbf6111ac565b6040519080825280601f01601f191660200182016040528015610de9576020820181803683370190505b5090507f300000000000000000000000000000000000000000000000000000000000000081600081518110610e2057610e206111c2565b60200101907effffffffffffffffffffffffffffffffffffffffffffffffffffffffffffff1916908160001a9053507f780000000000000000000000000000000000000000000000000000000000000081600181518110610e8357610e836111c2565b60200101907effffffffffffffffffffffffffffffffffffffffffffffffffffffffffffff1916908160001a9053506000610ebf846002611175565b610eca906001611194565b90505b6001811115610f67577f303132333435363738396162636465660000000000000000000000000000000085600f1660108110610f0b57610f0b6111c2565b1a60f81b828281518110610f2157610f216111c2565b60200101907effffffffffffffffffffffffffffffffffffffffffffffffffffffffffffff1916908160001a90535060049490941c93610f60816111d8565b9050610ecd565b508315610fb65760405162461bcd60e51b815260206004820181905260248201527f537472696e67733a20686578206c656e67746820696e73756666696369656e746044820152606401610939565b9392505050565b80356001600160a01b0381168114610fd457600080fd5b919050565b600060208284031215610feb57600080fd5b610fb682610fbd565b60006020828403121561100657600080fd5b81357fffffffff0000000000000000000000000000000000000000000000000000000081168114610fb657600080fd5b60006020828403121561104857600080fd5b5035919050565b6000806040838503121561106257600080fd5b8235915061107260208401610fbd565b90509250929050565b60005b8381101561109657818101518382015260200161107e565b838111156110a5576000848401525b50505050565b7f416363657373436f6e74726f6c3a206163636f756e74200000000000000000008152600083516110e381601785016020880161107b565b7f206973206d697373696e6720726f6c6520000000000000000000000000000000601791840191820152835161112081602884016020880161107b565b01602801949350505050565b602081526000825180602084015261114b81604085016020870161107b565b601f01601f19169190910160400192915050565b634e487b7160e01b600052601160045260246000fd5b600081600019048311821515161561118f5761118f61115f565b500290565b600082198211156111a7576111a761115f565b500190565b634e487b7160e01b600052604160045260246000fd5b634e487b7160e01b600052603260045260246000fd5b6000816111e7576111e761115f565b50600019019056fea2646970667358221220e1884a9d862556b885ea4cad4ac331c84a6b7460cb6731ba9870aafd65803d7e64736f6c63430008090033",
  "devdoc": {
    "kind": "dev",
    "methods": {
      "getRoleAdmin(bytes32)": {
        "details": "Returns the admin role that controls `role`. See {grantRole} and {revokeRole}. To change a role's admin, use {_setRoleAdmin}."
      },
      "grantRole(bytes32,address)": {
        "details": "Grants `role` to `account`. If `account` had not been already granted `role`, emits a {RoleGranted} event. Requirements: - the caller must have ``role``'s admin role."
      },
      "hasRole(bytes32,address)": {
        "details": "Returns `true` if `account` has been granted `role`."
      },
      "renounceRole(bytes32,address)": {
        "details": "Revokes `role` from the calling account. Roles are often managed via {grantRole} and {revokeRole}: this function's purpose is to provide a mechanism for accounts to lose their privileges if they are compromised (such as when a trusted device is misplaced). If the calling account had been revoked `role`, emits a {RoleRevoked} event. Requirements: - the caller must be `account`."
      },
      "revokeRole(bytes32,address)": {
        "details": "Revokes `role` from `account`. If `account` had been granted `role`, emits a {RoleRevoked} event. Requirements: - the caller must have ``role``'s admin role."
      },
      "supportsInterface(bytes4)": {
        "details": "See {IERC165-supportsInterface}."
      }
    },
    "version": 1
  },
  "userdoc": {
    "kind": "user",
    "methods": {},
    "version": 1
  },
  "storageLayout": {
    "storage": [
      {
        "astId": 24,
        "contract": "contracts/component/infra/ACLManager.sol:ACLManager",
        "label": "_roles",
        "offset": 0,
        "slot": "0",
        "type": "t_mapping(t_bytes32,t_struct(RoleData)19_storage)"
      }
    ],
    "types": {
      "t_address": {
        "encoding": "inplace",
        "label": "address",
        "numberOfBytes": "20"
      },
      "t_bool": {
        "encoding": "inplace",
        "label": "bool",
        "numberOfBytes": "1"
      },
      "t_bytes32": {
        "encoding": "inplace",
        "label": "bytes32",
        "numberOfBytes": "32"
      },
      "t_mapping(t_address,t_bool)": {
        "encoding": "mapping",
        "key": "t_address",
        "label": "mapping(address => bool)",
        "numberOfBytes": "32",
        "value": "t_bool"
      },
      "t_mapping(t_bytes32,t_struct(RoleData)19_storage)": {
        "encoding": "mapping",
        "key": "t_bytes32",
        "label": "mapping(bytes32 => struct AccessControl.RoleData)",
        "numberOfBytes": "32",
        "value": "t_struct(RoleData)19_storage"
      },
      "t_struct(RoleData)19_storage": {
        "encoding": "inplace",
        "label": "struct AccessControl.RoleData",
        "members": [
          {
            "astId": 16,
            "contract": "contracts/component/infra/ACLManager.sol:ACLManager",
            "label": "members",
            "offset": 0,
            "slot": "0",
            "type": "t_mapping(t_address,t_bool)"
          },
          {
            "astId": 18,
            "contract": "contracts/component/infra/ACLManager.sol:ACLManager",
            "label": "adminRole",
            "offset": 0,
            "slot": "1",
            "type": "t_bytes32"
          }
        ],
        "numberOfBytes": "64"
      }
    }
  }
}