{
  "address": "0xbdCd4B7A953EA1F4c7128EaC29A25B643DCD671E",
  "abi": [
    {
      "anonymous": false,
      "inputs": [
        {
          "indexed": false,
          "internalType": "bytes32",
          "name": "name",
          "type": "bytes32"
        },
        {
          "indexed": false,
          "internalType": "address",
          "name": "destination",
          "type": "address"
        }
      ],
      "name": "AddressImported",
      "type": "event"
    },
    {
      "anonymous": false,
      "inputs": [
        {
          "indexed": true,
          "internalType": "address",
          "name": "previousOwner",
          "type": "address"
        },
        {
          "indexed": true,
          "internalType": "address",
          "name": "newOwner",
          "type": "address"
        }
      ],
      "name": "OwnershipTransferred",
      "type": "event"
    },
    {
      "inputs": [],
      "name": "aclManagerName",
      "outputs": [
        {
          "internalType": "bytes32",
          "name": "",
          "type": "bytes32"
        }
      ],
      "stateMutability": "view",
      "type": "function"
    },
    {
      "inputs": [],
      "name": "claimOwnership",
      "outputs": [],
      "stateMutability": "nonpayable",
      "type": "function"
    },
    {
      "inputs": [],
      "name": "extCallACLProxyName",
      "outputs": [
        {
          "internalType": "bytes32",
          "name": "",
          "type": "bytes32"
        }
      ],
      "stateMutability": "view",
      "type": "function"
    },
    {
      "inputs": [],
      "name": "getAclManager",
      "outputs": [
        {
          "internalType": "address",
          "name": "",
          "type": "address"
        }
      ],
      "stateMutability": "view",
      "type": "function"
    },
    {
      "inputs": [
        {
          "internalType": "bytes32",
          "name": "name",
          "type": "bytes32"
        }
      ],
      "name": "getAddress",
      "outputs": [
        {
          "internalType": "address",
          "name": "",
          "type": "address"
        }
      ],
      "stateMutability": "view",
      "type": "function"
    },
    {
      "inputs": [],
      "name": "getExtCallProxy",
      "outputs": [
        {
          "internalType": "address",
          "name": "",
          "type": "address"
        }
      ],
      "stateMutability": "view",
      "type": "function"
    },
    {
      "inputs": [],
      "name": "getJuniorDepositToken",
      "outputs": [
        {
          "internalType": "address",
          "name": "",
          "type": "address"
        }
      ],
      "stateMutability": "view",
      "type": "function"
    },
    {
      "inputs": [],
      "name": "getLiquidityManagerProxy",
      "outputs": [
        {
          "internalType": "address",
          "name": "",
          "type": "address"
        }
      ],
      "stateMutability": "view",
      "type": "function"
    },
    {
      "inputs": [],
      "name": "getLiquidityManagerStorage",
      "outputs": [
        {
          "internalType": "address",
          "name": "",
          "type": "address"
        }
      ],
      "stateMutability": "view",
      "type": "function"
    },
    {
      "inputs": [],
      "name": "getLoanManager",
      "outputs": [
        {
          "internalType": "address",
          "name": "",
          "type": "address"
        }
      ],
      "stateMutability": "view",
      "type": "function"
    },
    {
      "inputs": [],
      "name": "getLoanManagerProxy",
      "outputs": [
        {
          "internalType": "address",
          "name": "",
          "type": "address"
        }
      ],
      "stateMutability": "view",
      "type": "function"
    },
    {
      "inputs": [],
      "name": "getPriceOracle",
      "outputs": [
        {
          "internalType": "address",
          "name": "",
          "type": "address"
        }
      ],
      "stateMutability": "view",
      "type": "function"
    },
    {
      "inputs": [],
      "name": "getSeniorDepositToken",
      "outputs": [
        {
          "internalType": "address",
          "name": "",
          "type": "address"
        }
      ],
      "stateMutability": "view",
      "type": "function"
    },
    {
      "inputs": [],
      "name": "getVaultManager",
      "outputs": [
        {
          "internalType": "address",
          "name": "",
          "type": "address"
        }
      ],
      "stateMutability": "view",
      "type": "function"
    },
    {
      "inputs": [],
      "name": "getVaultManagerProxy",
      "outputs": [
        {
          "internalType": "address",
          "name": "",
          "type": "address"
        }
      ],
      "stateMutability": "view",
      "type": "function"
    },
    {
      "inputs": [],
      "name": "getVaultStorage",
      "outputs": [
        {
          "internalType": "address",
          "name": "",
          "type": "address"
        }
      ],
      "stateMutability": "view",
      "type": "function"
    },
    {
      "inputs": [],
      "name": "getVoyage",
      "outputs": [
        {
          "internalType": "address",
          "name": "",
          "type": "address"
        }
      ],
      "stateMutability": "view",
      "type": "function"
    },
    {
      "inputs": [
        {
          "internalType": "bytes32[]",
          "name": "names",
          "type": "bytes32[]"
        },
        {
          "internalType": "address[]",
          "name": "destinations",
          "type": "address[]"
        }
      ],
      "name": "importAddresses",
      "outputs": [],
      "stateMutability": "nonpayable",
      "type": "function"
    },
    {
      "inputs": [],
      "name": "isOwner",
      "outputs": [
        {
          "internalType": "bool",
          "name": "",
          "type": "bool"
        }
      ],
      "stateMutability": "view",
      "type": "function"
    },
    {
      "inputs": [],
      "name": "juniorDepositTokenName",
      "outputs": [
        {
          "internalType": "bytes32",
          "name": "",
          "type": "bytes32"
        }
      ],
      "stateMutability": "view",
      "type": "function"
    },
    {
      "inputs": [],
      "name": "liquidityDepositEscrowName",
      "outputs": [
        {
          "internalType": "bytes32",
          "name": "",
          "type": "bytes32"
        }
      ],
      "stateMutability": "view",
      "type": "function"
    },
    {
      "inputs": [],
      "name": "liquidityManagerName",
      "outputs": [
        {
          "internalType": "bytes32",
          "name": "",
          "type": "bytes32"
        }
      ],
      "stateMutability": "view",
      "type": "function"
    },
    {
      "inputs": [],
      "name": "liquidityManagerProxyName",
      "outputs": [
        {
          "internalType": "bytes32",
          "name": "",
          "type": "bytes32"
        }
      ],
      "stateMutability": "view",
      "type": "function"
    },
    {
      "inputs": [],
      "name": "liquidityManagerStorageName",
      "outputs": [
        {
          "internalType": "bytes32",
          "name": "",
          "type": "bytes32"
        }
      ],
      "stateMutability": "view",
      "type": "function"
    },
    {
      "inputs": [],
      "name": "loanManagerName",
      "outputs": [
        {
          "internalType": "bytes32",
          "name": "",
          "type": "bytes32"
        }
      ],
      "stateMutability": "view",
      "type": "function"
    },
    {
      "inputs": [],
      "name": "loanManagerProxyName",
      "outputs": [
        {
          "internalType": "bytes32",
          "name": "",
          "type": "bytes32"
        }
      ],
      "stateMutability": "view",
      "type": "function"
    },
    {
      "inputs": [],
      "name": "owner",
      "outputs": [
        {
          "internalType": "address",
          "name": "",
          "type": "address"
        }
      ],
      "stateMutability": "view",
      "type": "function"
    },
    {
      "inputs": [],
      "name": "pendingOwner",
      "outputs": [
        {
          "internalType": "address",
          "name": "",
          "type": "address"
        }
      ],
      "stateMutability": "view",
      "type": "function"
    },
    {
      "inputs": [],
      "name": "priceOracleName",
      "outputs": [
        {
          "internalType": "bytes32",
          "name": "",
          "type": "bytes32"
        }
      ],
      "stateMutability": "view",
      "type": "function"
    },
    {
      "inputs": [
        {
          "internalType": "bytes32",
          "name": "",
          "type": "bytes32"
        }
      ],
      "name": "repository",
      "outputs": [
        {
          "internalType": "address",
          "name": "",
          "type": "address"
        }
      ],
      "stateMutability": "view",
      "type": "function"
    },
    {
      "inputs": [
        {
          "internalType": "bytes32",
          "name": "name",
          "type": "bytes32"
        },
        {
          "internalType": "string",
          "name": "reason",
          "type": "string"
        }
      ],
      "name": "requireAndGetAddress",
      "outputs": [
        {
          "internalType": "address",
          "name": "",
          "type": "address"
        }
      ],
      "stateMutability": "view",
      "type": "function"
    },
    {
      "inputs": [],
      "name": "securityDepositTokenName",
      "outputs": [
        {
          "internalType": "bytes32",
          "name": "",
          "type": "bytes32"
        }
      ],
      "stateMutability": "view",
      "type": "function"
    },
    {
      "inputs": [],
      "name": "seniorDepositTokenName",
      "outputs": [
        {
          "internalType": "bytes32",
          "name": "",
          "type": "bytes32"
        }
      ],
      "stateMutability": "view",
      "type": "function"
    },
    {
      "inputs": [
        {
          "internalType": "address",
          "name": "newOwner",
          "type": "address"
        }
      ],
      "name": "transferOwnership",
      "outputs": [],
      "stateMutability": "nonpayable",
      "type": "function"
    },
    {
      "inputs": [],
      "name": "vaultManagerName",
      "outputs": [
        {
          "internalType": "bytes32",
          "name": "",
          "type": "bytes32"
        }
      ],
      "stateMutability": "view",
      "type": "function"
    },
    {
      "inputs": [],
      "name": "vaultManagerProxyName",
      "outputs": [
        {
          "internalType": "bytes32",
          "name": "",
          "type": "bytes32"
        }
      ],
      "stateMutability": "view",
      "type": "function"
    },
    {
      "inputs": [],
      "name": "vaultStorageName",
      "outputs": [
        {
          "internalType": "bytes32",
          "name": "",
          "type": "bytes32"
        }
      ],
      "stateMutability": "view",
      "type": "function"
    },
    {
      "inputs": [],
      "name": "voyageName",
      "outputs": [
        {
          "internalType": "bytes32",
          "name": "",
          "type": "bytes32"
        }
      ],
      "stateMutability": "view",
      "type": "function"
    }
  ],
  "transactionHash": "0x4bd61c96545d8641b5eec80adbdf9060714cc8f35505d63c829120b968503960",
  "args": [],
  "numDeployments": 1,
  "solcInputHash": "5581b7bd0906416eb346441aec54c4cd",
  "bytecode": "0x608060405234801561001057600080fd5b50600080546001600160a01b0319163390811782556040519091907f8be0079c531659141344cd1fd0a4f28419497f9722a3daafe3b4186f6b6457e0908290a36110018061005f6000396000f3fe608060405234801561001057600080fd5b50600436106102925760003560e01c80639894c89e11610160578063c2c855c2116100d8578063e30c39781161008c578063f0da7f1f11610071578063f0da7f1f146109fd578063f2fde38b14610a24578063fca513a814610a3757600080fd5b8063e30c397814610991578063e3e24cca146109a457600080fd5b8063dacb2d01116100bd578063dacb2d01146108fe578063de5185e214610911578063e014ddd11461096a57600080fd5b8063c2c855c21461087e578063cf80d212146108d757600080fd5b8063ac66e2481161012f578063b33f917b11610114578063b33f917b146107a5578063b9008f01146107cc578063b9bbb6f51461082557600080fd5b8063ac66e24814610757578063ad64caed1461077e57600080fd5b80639894c89e1461066b578063a47a94c014610692578063a5c84e37146106eb578063ab0b8f771461074457600080fd5b8063648cd56e1161020e578063869c5657116101c25780638da5cb5b116101a75780638da5cb5b146106135780638f32d59b1461062657806396711d581461064457600080fd5b8063869c5657146105c55780638c942ffd146105ec57600080fd5b80636dd4bbf8116101f35780636dd4bbf8146104ec578063767ed933146105455780637f007dd21461059e57600080fd5b8063648cd56e1461046c5780636d200fcf146104c557600080fd5b80633667a10c116102655780634e71e0c81161024a5780634e71e0c8146104145780635fc2f9431461041e5780636023f8161461044557600080fd5b80633667a10c1461036257806340ccb0ae146103bb57600080fd5b80631385437614610297578063187f7935146102d15780631d7bec201461031257806321f8a72114610339575b600080fd5b6102be7f6c6f616e4d616e6167657250726f78790000000000000000000000000000000081565b6040519081526020015b60405180910390f35b6102fa6102df366004610d72565b6002602052600090815260409020546001600160a01b031681565b6040516001600160a01b0390911681526020016102c8565b6102be7f73656e696f724465706f736974546f6b656e000000000000000000000000000081565b6102fa610347366004610d72565b6000908152600260205260409020546001600160a01b031690565b7f6a756e696f724465706f736974546f6b656e000000000000000000000000000060005260026020527f2f3ce8e37d7409018c710d384ee9295e0dd60b28fe2f71f09f2cfb3d4e395fae546001600160a01b03166102fa565b7f7661756c744d616e6167657250726f787900000000000000000000000000000060005260026020527f2310c519fdd89914b97993344b174b00a83f0dd5df36d8f1c0fd317b5ddb24b1546001600160a01b03166102fa565b61041c610a90565b005b6102be7f65787443616c6c41434c50726f7879000000000000000000000000000000000081565b6102be7f6c69717569646974794d616e616765720000000000000000000000000000000081565b7f6c69717569646974794d616e6167657253746f7261676500000000000000000060005260026020527f47996db6a9a0588c850d93d5e67477d4b1132089ca931ce855709d4b9ad828ff546001600160a01b03166102fa565b6102be7f6c69717569646974794465706f736974457363726f770000000000000000000081565b7f6c69717569646974794d616e6167657250726f7879000000000000000000000060005260026020527f262fd4f38b5822977d01a826ef3341259f4bc3c300454a7928ff04a5e62e32a5546001600160a01b03166102fa565b7f65787443616c6c41434c50726f7879000000000000000000000000000000000060005260026020527fb0a59ef8fb596eee0cebe9e890b52d4134888e8c4e491829756f4062ffc3c2d6546001600160a01b03166102fa565b6102be7f6c69717569646974794d616e6167657250726f7879000000000000000000000081565b6102be7f7661756c744d616e6167657250726f787900000000000000000000000000000081565b6102be7f7661756c7453746f72616765000000000000000000000000000000000000000081565b6000546102fa906001600160a01b031681565b6000546001600160a01b0316331460405190151581526020016102c8565b6102be7f766f79616765720000000000000000000000000000000000000000000000000081565b6102be7f7661756c744d616e61676572000000000000000000000000000000000000000081565b7f73656e696f724465706f736974546f6b656e000000000000000000000000000060005260026020527f7a1ca43a85e7798a596e631bf11e98bb757a24ca06b18bb3a5d00c879aff3e1f546001600160a01b03166102fa565b7f6c6f616e4d616e6167657250726f78790000000000000000000000000000000060005260026020527f5245d49cebaaf309f206544f6e1ebd38031f1a52f74f96304e20be8da8e0c553546001600160a01b03166102fa565b61041c610752366004610dd7565b610b18565b6102be7f70726963654f7261636c6500000000000000000000000000000000000000000081565b6102be7f6c6f616e4d616e6167657200000000000000000000000000000000000000000081565b6102be7f61636c4d616e616765720000000000000000000000000000000000000000000081565b7f7661756c7453746f72616765000000000000000000000000000000000000000060005260026020527f4948803233a464c16eb2e1719b77c1b8d7b74e70ef298731d024d0e7de20ac7f546001600160a01b03166102fa565b7f7661756c744d616e61676572000000000000000000000000000000000000000060005260026020527f1ff11d6a21c8c18ee92d707be045dfeb60cd5c0a9cb0dd1cce5d4fb85ecb96e5546001600160a01b03166102fa565b7f61636c4d616e616765720000000000000000000000000000000000000000000060005260026020527fce52b6ac8df39f2e678f662ac63e55a6861b901d7bee37e909e4b9de9921073b546001600160a01b03166102fa565b6102be7f73656375726974794465706f736974546f6b656e00000000000000000000000081565b6102fa61090c366004610e43565b610ca5565b7f766f79616765720000000000000000000000000000000000000000000000000060005260026020527f0138f0eab19bdcc20be0b2277572a73d5a7ede2d48746657f5486eebea20d2d3546001600160a01b03166102fa565b6102be7f6c69717569646974794d616e6167657253746f7261676500000000000000000081565b6001546102fa906001600160a01b031681565b7f6c6f616e4d616e6167657200000000000000000000000000000000000000000060005260026020527ff225249116681be4f5c649707ceda1280627df019beb5fa67eeda1418abd7d42546001600160a01b03166102fa565b6102be7f6a756e696f724465706f736974546f6b656e000000000000000000000000000081565b61041c610a32366004610ebf565b610ce9565b7f70726963654f7261636c6500000000000000000000000000000000000000000060005260026020527ff0a38d5cb0eb4e4484f3c9dc403bf429fc5f0b6238ab83f42b762cffc9c5f487546001600160a01b03166102fa565b6001546001600160a01b03163314610aa757600080fd5b600154600080546040516001600160a01b0393841693909116917f8be0079c531659141344cd1fd0a4f28419497f9722a3daafe3b4186f6b6457e091a3600180546000805473ffffffffffffffffffffffffffffffffffffffff199081166001600160a01b03841617909155169055565b6000546001600160a01b03163314610b775760405162461bcd60e51b815260206004820181905260248201527f4f776e61626c653a2063616c6c6572206973206e6f7420746865206f776e657260448201526064015b60405180910390fd5b828114610bc65760405162461bcd60e51b815260206004820152601860248201527f496e707574206c656e67746873206d757374206d6174636800000000000000006044820152606401610b6e565b60005b83811015610c9e576000858583818110610be557610be5610eef565b9050602002013590506000848484818110610c0257610c02610eef565b9050602002016020810190610c179190610ebf565b600083815260026020908152604091829020805473ffffffffffffffffffffffffffffffffffffffff19166001600160a01b0385169081179091558251868152918201529192507fefe884cc7f82a6cf3cf68f64221519dcf96b5cae9048e1bb008ee32cd05aaa91910160405180910390a150508080610c9690610f1e565b915050610bc9565b5050505050565b6000838152600260205260408120546001600160a01b0316838382610cde5760405162461bcd60e51b8152600401610b6e929190610f7e565b509095945050505050565b6000546001600160a01b03163314610d435760405162461bcd60e51b815260206004820181905260248201527f4f776e61626c653a2063616c6c6572206973206e6f7420746865206f776e65726044820152606401610b6e565b6001805473ffffffffffffffffffffffffffffffffffffffff19166001600160a01b0392909216919091179055565b600060208284031215610d8457600080fd5b5035919050565b60008083601f840112610d9d57600080fd5b50813567ffffffffffffffff811115610db557600080fd5b6020830191508360208260051b8501011115610dd057600080fd5b9250929050565b60008060008060408587031215610ded57600080fd5b843567ffffffffffffffff80821115610e0557600080fd5b610e1188838901610d8b565b90965094506020870135915080821115610e2a57600080fd5b50610e3787828801610d8b565b95989497509550505050565b600080600060408486031215610e5857600080fd5b83359250602084013567ffffffffffffffff80821115610e7757600080fd5b818601915086601f830112610e8b57600080fd5b813581811115610e9a57600080fd5b876020828501011115610eac57600080fd5b6020830194508093505050509250925092565b600060208284031215610ed157600080fd5b81356001600160a01b0381168114610ee857600080fd5b9392505050565b7f4e487b7100000000000000000000000000000000000000000000000000000000600052603260045260246000fd5b60007fffffffffffffffffffffffffffffffffffffffffffffffffffffffffffffffff821415610f77577f4e487b7100000000000000000000000000000000000000000000000000000000600052601160045260246000fd5b5060010190565b60208152816020820152818360408301376000818301604090810191909152601f9092017fffffffffffffffffffffffffffffffffffffffffffffffffffffffffffffffe016010191905056fea2646970667358221220939bd6e018be2fc590c1f087ca5d497a4833d500448945976921aa5d2f5ae37864736f6c63430008090033",
  "devdoc": {
    "kind": "dev",
    "methods": {
      "claimOwnership()": {
        "details": "Allows the pendingOwner address to finalize the transfer."
      },
      "isOwner()": {
        "details": "Returns true if the caller is the current owner."
      },
      "transferOwnership(address)": {
        "details": "Allows the current owner to set the pendingOwner address.",
        "params": {
          "newOwner": "The address to transfer ownership to."
        }
      }
    },
    "version": 1
  },
  "userdoc": {
    "kind": "user",
    "methods": {},
    "version": 1
  },
  "storageLayout": {
    "storage": [
      {
        "astId": 11838,
        "contract": "contracts/component/infra/AddressResolver.sol:AddressResolver",
        "label": "owner",
        "offset": 0,
        "slot": "0",
        "type": "t_address"
      },
      {
        "astId": 11840,
        "contract": "contracts/component/infra/AddressResolver.sol:AddressResolver",
        "label": "pendingOwner",
        "offset": 0,
        "slot": "1",
        "type": "t_address"
      },
      {
        "astId": 927,
        "contract": "contracts/component/infra/AddressResolver.sol:AddressResolver",
        "label": "repository",
        "offset": 0,
        "slot": "2",
        "type": "t_mapping(t_bytes32,t_address)"
      }
    ],
    "types": {
      "t_address": {
        "encoding": "inplace",
        "label": "address",
        "numberOfBytes": "20"
      },
      "t_bytes32": {
        "encoding": "inplace",
        "label": "bytes32",
        "numberOfBytes": "32"
      },
      "t_mapping(t_bytes32,t_address)": {
        "encoding": "mapping",
        "key": "t_bytes32",
        "label": "mapping(bytes32 => address)",
        "numberOfBytes": "32",
        "value": "t_address"
      }
    }
  }
}