{
  "address": "0xdaeE09624D120f9268A1f68990E4D96c3eC7aaAc",
  "abi": [
    {
      "anonymous": false,
      "inputs": [
        {
          "indexed": false,
          "internalType": "bytes32",
          "name": "name",
          "type": "bytes32"
        },
        {
          "indexed": false,
          "internalType": "address",
          "name": "destination",
          "type": "address"
        }
      ],
      "name": "AddressImported",
      "type": "event"
    },
    {
      "anonymous": false,
      "inputs": [
        {
          "indexed": true,
          "internalType": "address",
          "name": "previousOwner",
          "type": "address"
        },
        {
          "indexed": true,
          "internalType": "address",
          "name": "newOwner",
          "type": "address"
        }
      ],
      "name": "OwnershipTransferred",
      "type": "event"
    },
    {
      "inputs": [],
      "name": "aclManagerName",
      "outputs": [
        {
          "internalType": "bytes32",
          "name": "",
          "type": "bytes32"
        }
      ],
      "stateMutability": "view",
      "type": "function"
    },
    {
      "inputs": [],
      "name": "claimOwnership",
      "outputs": [],
      "stateMutability": "nonpayable",
      "type": "function"
    },
    {
      "inputs": [],
      "name": "extCallACLProxyName",
      "outputs": [
        {
          "internalType": "bytes32",
          "name": "",
          "type": "bytes32"
        }
      ],
      "stateMutability": "view",
      "type": "function"
    },
    {
      "inputs": [],
      "name": "getAclManager",
      "outputs": [
        {
          "internalType": "address",
          "name": "",
          "type": "address"
        }
      ],
      "stateMutability": "view",
      "type": "function"
    },
    {
      "inputs": [
        {
          "internalType": "bytes32",
          "name": "name",
          "type": "bytes32"
        }
      ],
      "name": "getAddress",
      "outputs": [
        {
          "internalType": "address",
          "name": "",
          "type": "address"
        }
      ],
      "stateMutability": "view",
      "type": "function"
    },
    {
      "inputs": [],
      "name": "getExtCallProxy",
      "outputs": [
        {
          "internalType": "address",
          "name": "",
          "type": "address"
        }
      ],
      "stateMutability": "view",
      "type": "function"
    },
    {
      "inputs": [],
      "name": "getJuniorDepositToken",
      "outputs": [
        {
          "internalType": "address",
          "name": "",
          "type": "address"
        }
      ],
      "stateMutability": "view",
      "type": "function"
    },
    {
      "inputs": [],
      "name": "getLiquidityManagerProxy",
      "outputs": [
        {
          "internalType": "address",
          "name": "",
          "type": "address"
        }
      ],
      "stateMutability": "view",
      "type": "function"
    },
    {
      "inputs": [],
      "name": "getLiquidityManagerStorage",
      "outputs": [
        {
          "internalType": "address",
          "name": "",
          "type": "address"
        }
      ],
      "stateMutability": "view",
      "type": "function"
    },
    {
      "inputs": [],
      "name": "getLoanManager",
      "outputs": [
        {
          "internalType": "address",
          "name": "",
          "type": "address"
        }
      ],
      "stateMutability": "view",
      "type": "function"
    },
    {
      "inputs": [],
      "name": "getLoanManagerProxy",
      "outputs": [
        {
          "internalType": "address",
          "name": "",
          "type": "address"
        }
      ],
      "stateMutability": "view",
      "type": "function"
    },
    {
      "inputs": [],
      "name": "getPriceOracle",
      "outputs": [
        {
          "internalType": "address",
          "name": "",
          "type": "address"
        }
      ],
      "stateMutability": "view",
      "type": "function"
    },
    {
      "inputs": [],
      "name": "getSeniorDepositToken",
      "outputs": [
        {
          "internalType": "address",
          "name": "",
          "type": "address"
        }
      ],
      "stateMutability": "view",
      "type": "function"
    },
    {
      "inputs": [],
      "name": "getStableDebtToken",
      "outputs": [
        {
          "internalType": "address",
          "name": "",
          "type": "address"
        }
      ],
      "stateMutability": "view",
      "type": "function"
    },
    {
      "inputs": [],
      "name": "getVaultManager",
      "outputs": [
        {
          "internalType": "address",
          "name": "",
          "type": "address"
        }
      ],
      "stateMutability": "view",
      "type": "function"
    },
    {
      "inputs": [],
      "name": "getVaultManagerProxy",
      "outputs": [
        {
          "internalType": "address",
          "name": "",
          "type": "address"
        }
      ],
      "stateMutability": "view",
      "type": "function"
    },
    {
      "inputs": [],
      "name": "getVaultStorage",
      "outputs": [
        {
          "internalType": "address",
          "name": "",
          "type": "address"
        }
      ],
      "stateMutability": "view",
      "type": "function"
    },
    {
      "inputs": [],
      "name": "getVoyage",
      "outputs": [
        {
          "internalType": "address",
          "name": "",
          "type": "address"
        }
      ],
      "stateMutability": "view",
      "type": "function"
    },
    {
      "inputs": [
        {
          "internalType": "bytes32[]",
          "name": "names",
          "type": "bytes32[]"
        },
        {
          "internalType": "address[]",
          "name": "destinations",
          "type": "address[]"
        }
      ],
      "name": "importAddresses",
      "outputs": [],
      "stateMutability": "nonpayable",
      "type": "function"
    },
    {
      "inputs": [],
      "name": "isOwner",
      "outputs": [
        {
          "internalType": "bool",
          "name": "",
          "type": "bool"
        }
      ],
      "stateMutability": "view",
      "type": "function"
    },
    {
      "inputs": [],
      "name": "juniorDepositTokenName",
      "outputs": [
        {
          "internalType": "bytes32",
          "name": "",
          "type": "bytes32"
        }
      ],
      "stateMutability": "view",
      "type": "function"
    },
    {
      "inputs": [],
      "name": "liquidityDepositEscrowName",
      "outputs": [
        {
          "internalType": "bytes32",
          "name": "",
          "type": "bytes32"
        }
      ],
      "stateMutability": "view",
      "type": "function"
    },
    {
      "inputs": [],
      "name": "liquidityManagerName",
      "outputs": [
        {
          "internalType": "bytes32",
          "name": "",
          "type": "bytes32"
        }
      ],
      "stateMutability": "view",
      "type": "function"
    },
    {
      "inputs": [],
      "name": "liquidityManagerProxyName",
      "outputs": [
        {
          "internalType": "bytes32",
          "name": "",
          "type": "bytes32"
        }
      ],
      "stateMutability": "view",
      "type": "function"
    },
    {
      "inputs": [],
      "name": "liquidityManagerStorageName",
      "outputs": [
        {
          "internalType": "bytes32",
          "name": "",
          "type": "bytes32"
        }
      ],
      "stateMutability": "view",
      "type": "function"
    },
    {
      "inputs": [],
      "name": "loanManagerName",
      "outputs": [
        {
          "internalType": "bytes32",
          "name": "",
          "type": "bytes32"
        }
      ],
      "stateMutability": "view",
      "type": "function"
    },
    {
      "inputs": [],
      "name": "loanManagerProxyName",
      "outputs": [
        {
          "internalType": "bytes32",
          "name": "",
          "type": "bytes32"
        }
      ],
      "stateMutability": "view",
      "type": "function"
    },
    {
      "inputs": [],
      "name": "owner",
      "outputs": [
        {
          "internalType": "address",
          "name": "",
          "type": "address"
        }
      ],
      "stateMutability": "view",
      "type": "function"
    },
    {
      "inputs": [],
      "name": "pendingOwner",
      "outputs": [
        {
          "internalType": "address",
          "name": "",
          "type": "address"
        }
      ],
      "stateMutability": "view",
      "type": "function"
    },
    {
      "inputs": [],
      "name": "priceOracleName",
      "outputs": [
        {
          "internalType": "bytes32",
          "name": "",
          "type": "bytes32"
        }
      ],
      "stateMutability": "view",
      "type": "function"
    },
    {
      "inputs": [
        {
          "internalType": "bytes32",
          "name": "",
          "type": "bytes32"
        }
      ],
      "name": "repository",
      "outputs": [
        {
          "internalType": "address",
          "name": "",
          "type": "address"
        }
      ],
      "stateMutability": "view",
      "type": "function"
    },
    {
      "inputs": [
        {
          "internalType": "bytes32",
          "name": "name",
          "type": "bytes32"
        },
        {
          "internalType": "string",
          "name": "reason",
          "type": "string"
        }
      ],
      "name": "requireAndGetAddress",
      "outputs": [
        {
          "internalType": "address",
          "name": "",
          "type": "address"
        }
      ],
      "stateMutability": "view",
      "type": "function"
    },
    {
      "inputs": [],
      "name": "securityDepositTokenName",
      "outputs": [
        {
          "internalType": "bytes32",
          "name": "",
          "type": "bytes32"
        }
      ],
      "stateMutability": "view",
      "type": "function"
    },
    {
      "inputs": [],
      "name": "seniorDepositTokenName",
      "outputs": [
        {
          "internalType": "bytes32",
          "name": "",
          "type": "bytes32"
        }
      ],
      "stateMutability": "view",
      "type": "function"
    },
    {
      "inputs": [],
      "name": "stableDebtTokenName",
      "outputs": [
        {
          "internalType": "bytes32",
          "name": "",
          "type": "bytes32"
        }
      ],
      "stateMutability": "view",
      "type": "function"
    },
    {
      "inputs": [
        {
          "internalType": "address",
          "name": "newOwner",
          "type": "address"
        }
      ],
      "name": "transferOwnership",
      "outputs": [],
      "stateMutability": "nonpayable",
      "type": "function"
    },
    {
      "inputs": [],
      "name": "vaultManagerName",
      "outputs": [
        {
          "internalType": "bytes32",
          "name": "",
          "type": "bytes32"
        }
      ],
      "stateMutability": "view",
      "type": "function"
    },
    {
      "inputs": [],
      "name": "vaultManagerProxyName",
      "outputs": [
        {
          "internalType": "bytes32",
          "name": "",
          "type": "bytes32"
        }
      ],
      "stateMutability": "view",
      "type": "function"
    },
    {
      "inputs": [],
      "name": "vaultStorageName",
      "outputs": [
        {
          "internalType": "bytes32",
          "name": "",
          "type": "bytes32"
        }
      ],
      "stateMutability": "view",
      "type": "function"
    },
    {
      "inputs": [],
      "name": "voyageName",
      "outputs": [
        {
          "internalType": "bytes32",
          "name": "",
          "type": "bytes32"
        }
      ],
      "stateMutability": "view",
      "type": "function"
    }
  ],
  "transactionHash": "0x32cc90776c0e19abb7ac3c83ca60272740fe61c16ef09ea8f5fb9cc1788cd319",
  "args": [],
  "numDeployments": 1,
  "solcInputHash": "3b48e5fc6cf21bdd2b3f8b312defed7c",
  "bytecode": "0x608060405234801561001057600080fd5b50600080546001600160a01b0319163390811782556040519091907f8be0079c531659141344cd1fd0a4f28419497f9722a3daafe3b4186f6b6457e0908290a36110b78061005f6000396000f3fe608060405234801561001057600080fd5b50600436106102c85760003560e01c80639894c89e1161017b578063c2c855c2116100d8578063e30c39781161008c578063f0da7f1f11610071578063f0da7f1f14610ab3578063f2fde38b14610ada578063fca513a814610aed57600080fd5b8063e30c397814610a47578063e3e24cca14610a5a57600080fd5b8063dacb2d01116100bd578063dacb2d01146109b4578063de5185e2146109c7578063e014ddd114610a2057600080fd5b8063c2c855c214610934578063cf80d2121461098d57600080fd5b8063ac66e2481161012f578063b33f917b11610114578063b33f917b1461085b578063b9008f0114610882578063b9bbb6f5146108db57600080fd5b8063ac66e2481461080d578063ad64caed1461083457600080fd5b8063a47a94c011610160578063a47a94c014610748578063a5c84e37146107a1578063ab0b8f77146107fa57600080fd5b80639894c89e146106fa57806399833d6d1461072157600080fd5b80636d200fcf116102295780638c942ffd116101dd5780638f32d59b116101c25780638f32d59b1461065c57806390ffd0521461067a57806396711d58146106d357600080fd5b80638c942ffd146106225780638da5cb5b1461064957600080fd5b8063767ed9331161020e578063767ed9331461057b5780637f007dd2146105d4578063869c5657146105fb57600080fd5b80636d200fcf146104fb5780636dd4bbf81461052257600080fd5b806340ccb0ae116102805780635fc2f943116102655780635fc2f943146104545780636023f8161461047b578063648cd56e146104a257600080fd5b806340ccb0ae146103f15780634e71e0c81461044a57600080fd5b80631d7bec20116102b15780631d7bec201461034857806321f8a7211461036f5780633667a10c1461039857600080fd5b806313854376146102cd578063187f793514610307575b600080fd5b6102f47f6c6f616e4d616e6167657250726f78790000000000000000000000000000000081565b6040519081526020015b60405180910390f35b610330610315366004610e28565b6002602052600090815260409020546001600160a01b031681565b6040516001600160a01b0390911681526020016102fe565b6102f47f73656e696f724465706f736974546f6b656e000000000000000000000000000081565b61033061037d366004610e28565b6000908152600260205260409020546001600160a01b031690565b7f6a756e696f724465706f736974546f6b656e000000000000000000000000000060005260026020527f2f3ce8e37d7409018c710d384ee9295e0dd60b28fe2f71f09f2cfb3d4e395fae546001600160a01b0316610330565b7f7661756c744d616e6167657250726f787900000000000000000000000000000060005260026020527f2310c519fdd89914b97993344b174b00a83f0dd5df36d8f1c0fd317b5ddb24b1546001600160a01b0316610330565b610452610b46565b005b6102f47f65787443616c6c41434c50726f7879000000000000000000000000000000000081565b6102f47f6c69717569646974794d616e616765720000000000000000000000000000000081565b7f6c69717569646974794d616e6167657253746f7261676500000000000000000060005260026020527f47996db6a9a0588c850d93d5e67477d4b1132089ca931ce855709d4b9ad828ff546001600160a01b0316610330565b6102f47f6c69717569646974794465706f736974457363726f770000000000000000000081565b7f6c69717569646974794d616e6167657250726f7879000000000000000000000060005260026020527f262fd4f38b5822977d01a826ef3341259f4bc3c300454a7928ff04a5e62e32a5546001600160a01b0316610330565b7f65787443616c6c41434c50726f7879000000000000000000000000000000000060005260026020527fb0a59ef8fb596eee0cebe9e890b52d4134888e8c4e491829756f4062ffc3c2d6546001600160a01b0316610330565b6102f47f6c69717569646974794d616e6167657250726f7879000000000000000000000081565b6102f47f7661756c744d616e6167657250726f787900000000000000000000000000000081565b6102f47f7661756c7453746f72616765000000000000000000000000000000000000000081565b600054610330906001600160a01b031681565b6000546001600160a01b0316331460405190151581526020016102fe565b7f737461626c6544656274546f6b656e000000000000000000000000000000000060005260026020527f335596b1e2ba706c5d9bd164ec9e7ef83d3ed3f5941922daa470bb7db628fca7546001600160a01b0316610330565b6102f47f766f79616765720000000000000000000000000000000000000000000000000081565b6102f47f7661756c744d616e61676572000000000000000000000000000000000000000081565b6102f47f737461626c6544656274546f6b656e000000000000000000000000000000000081565b7f73656e696f724465706f736974546f6b656e000000000000000000000000000060005260026020527f7a1ca43a85e7798a596e631bf11e98bb757a24ca06b18bb3a5d00c879aff3e1f546001600160a01b0316610330565b7f6c6f616e4d616e6167657250726f78790000000000000000000000000000000060005260026020527f5245d49cebaaf309f206544f6e1ebd38031f1a52f74f96304e20be8da8e0c553546001600160a01b0316610330565b610452610808366004610e8d565b610bce565b6102f47f70726963654f7261636c6500000000000000000000000000000000000000000081565b6102f47f6c6f616e4d616e6167657200000000000000000000000000000000000000000081565b6102f47f61636c4d616e616765720000000000000000000000000000000000000000000081565b7f7661756c7453746f72616765000000000000000000000000000000000000000060005260026020527f4948803233a464c16eb2e1719b77c1b8d7b74e70ef298731d024d0e7de20ac7f546001600160a01b0316610330565b7f7661756c744d616e61676572000000000000000000000000000000000000000060005260026020527f1ff11d6a21c8c18ee92d707be045dfeb60cd5c0a9cb0dd1cce5d4fb85ecb96e5546001600160a01b0316610330565b7f61636c4d616e616765720000000000000000000000000000000000000000000060005260026020527fce52b6ac8df39f2e678f662ac63e55a6861b901d7bee37e909e4b9de9921073b546001600160a01b0316610330565b6102f47f73656375726974794465706f736974546f6b656e00000000000000000000000081565b6103306109c2366004610ef9565b610d5b565b7f766f79616765720000000000000000000000000000000000000000000000000060005260026020527f0138f0eab19bdcc20be0b2277572a73d5a7ede2d48746657f5486eebea20d2d3546001600160a01b0316610330565b6102f47f6c69717569646974794d616e6167657253746f7261676500000000000000000081565b600154610330906001600160a01b031681565b7f6c6f616e4d616e6167657200000000000000000000000000000000000000000060005260026020527ff225249116681be4f5c649707ceda1280627df019beb5fa67eeda1418abd7d42546001600160a01b0316610330565b6102f47f6a756e696f724465706f736974546f6b656e000000000000000000000000000081565b610452610ae8366004610f75565b610d9f565b7f70726963654f7261636c6500000000000000000000000000000000000000000060005260026020527ff0a38d5cb0eb4e4484f3c9dc403bf429fc5f0b6238ab83f42b762cffc9c5f487546001600160a01b0316610330565b6001546001600160a01b03163314610b5d57600080fd5b600154600080546040516001600160a01b0393841693909116917f8be0079c531659141344cd1fd0a4f28419497f9722a3daafe3b4186f6b6457e091a3600180546000805473ffffffffffffffffffffffffffffffffffffffff199081166001600160a01b03841617909155169055565b6000546001600160a01b03163314610c2d5760405162461bcd60e51b815260206004820181905260248201527f4f776e61626c653a2063616c6c6572206973206e6f7420746865206f776e657260448201526064015b60405180910390fd5b828114610c7c5760405162461bcd60e51b815260206004820152601860248201527f496e707574206c656e67746873206d757374206d6174636800000000000000006044820152606401610c24565b60005b83811015610d54576000858583818110610c9b57610c9b610fa5565b9050602002013590506000848484818110610cb857610cb8610fa5565b9050602002016020810190610ccd9190610f75565b600083815260026020908152604091829020805473ffffffffffffffffffffffffffffffffffffffff19166001600160a01b0385169081179091558251868152918201529192507fefe884cc7f82a6cf3cf68f64221519dcf96b5cae9048e1bb008ee32cd05aaa91910160405180910390a150508080610d4c90610fd4565b915050610c7f565b5050505050565b6000838152600260205260408120546001600160a01b0316838382610d945760405162461bcd60e51b8152600401610c24929190611034565b509095945050505050565b6000546001600160a01b03163314610df95760405162461bcd60e51b815260206004820181905260248201527f4f776e61626c653a2063616c6c6572206973206e6f7420746865206f776e65726044820152606401610c24565b6001805473ffffffffffffffffffffffffffffffffffffffff19166001600160a01b0392909216919091179055565b600060208284031215610e3a57600080fd5b5035919050565b60008083601f840112610e5357600080fd5b50813567ffffffffffffffff811115610e6b57600080fd5b6020830191508360208260051b8501011115610e8657600080fd5b9250929050565b60008060008060408587031215610ea357600080fd5b843567ffffffffffffffff80821115610ebb57600080fd5b610ec788838901610e41565b90965094506020870135915080821115610ee057600080fd5b50610eed87828801610e41565b95989497509550505050565b600080600060408486031215610f0e57600080fd5b83359250602084013567ffffffffffffffff80821115610f2d57600080fd5b818601915086601f830112610f4157600080fd5b813581811115610f5057600080fd5b876020828501011115610f6257600080fd5b6020830194508093505050509250925092565b600060208284031215610f8757600080fd5b81356001600160a01b0381168114610f9e57600080fd5b9392505050565b7f4e487b7100000000000000000000000000000000000000000000000000000000600052603260045260246000fd5b60007fffffffffffffffffffffffffffffffffffffffffffffffffffffffffffffffff82141561102d577f4e487b7100000000000000000000000000000000000000000000000000000000600052601160045260246000fd5b5060010190565b60208152816020820152818360408301376000818301604090810191909152601f9092017fffffffffffffffffffffffffffffffffffffffffffffffffffffffffffffffe016010191905056fea26469706673582212203b5f41ae863e0e21e167c91576cf395c1ccb77eedaad4821d91dabc3be22ba0d64736f6c63430008090033",
  "devdoc": {
    "kind": "dev",
    "methods": {
      "claimOwnership()": {
        "details": "Allows the pendingOwner address to finalize the transfer."
      },
      "isOwner()": {
        "details": "Returns true if the caller is the current owner."
      },
      "transferOwnership(address)": {
        "details": "Allows the current owner to set the pendingOwner address.",
        "params": {
          "newOwner": "The address to transfer ownership to."
        }
      }
    },
    "version": 1
  },
  "userdoc": {
    "kind": "user",
    "methods": {},
    "version": 1
  },
  "storageLayout": {
    "storage": [
      {
        "astId": 10735,
        "contract": "contracts/component/infra/AddressResolver.sol:AddressResolver",
        "label": "owner",
        "offset": 0,
        "slot": "0",
        "type": "t_address"
      },
      {
        "astId": 10737,
        "contract": "contracts/component/infra/AddressResolver.sol:AddressResolver",
        "label": "pendingOwner",
        "offset": 0,
        "slot": "1",
        "type": "t_address"
      },
      {
        "astId": 933,
        "contract": "contracts/component/infra/AddressResolver.sol:AddressResolver",
        "label": "repository",
        "offset": 0,
        "slot": "2",
        "type": "t_mapping(t_bytes32,t_address)"
      }
    ],
    "types": {
      "t_address": {
        "encoding": "inplace",
        "label": "address",
        "numberOfBytes": "20"
      },
      "t_bytes32": {
        "encoding": "inplace",
        "label": "bytes32",
        "numberOfBytes": "32"
      },
      "t_mapping(t_bytes32,t_address)": {
        "encoding": "mapping",
        "key": "t_bytes32",
        "label": "mapping(bytes32 => address)",
        "numberOfBytes": "32",
        "value": "t_address"
      }
    }
  }
}