{
  "address": "0xEDa7c00C4048b01008d5Aa6805b6FF62D09aECD8",
  "abi": [
    {
      "anonymous": false,
      "inputs": [
        {
          "indexed": false,
          "internalType": "bytes32",
          "name": "name",
          "type": "bytes32"
        },
        {
          "indexed": false,
          "internalType": "address",
          "name": "destination",
          "type": "address"
        }
      ],
      "name": "AddressImported",
      "type": "event"
    },
    {
      "anonymous": false,
      "inputs": [
        {
          "indexed": true,
          "internalType": "address",
          "name": "previousOwner",
          "type": "address"
        },
        {
          "indexed": true,
          "internalType": "address",
          "name": "newOwner",
          "type": "address"
        }
      ],
      "name": "OwnershipTransferred",
      "type": "event"
    },
    {
      "inputs": [],
      "name": "aclManagerName",
      "outputs": [
        {
          "internalType": "bytes32",
          "name": "",
          "type": "bytes32"
        }
      ],
      "stateMutability": "view",
      "type": "function"
    },
    {
      "inputs": [],
      "name": "claimOwnership",
      "outputs": [],
      "stateMutability": "nonpayable",
      "type": "function"
    },
    {
      "inputs": [],
      "name": "extCallACLProxyName",
      "outputs": [
        {
          "internalType": "bytes32",
          "name": "",
          "type": "bytes32"
        }
      ],
      "stateMutability": "view",
      "type": "function"
    },
    {
      "inputs": [
        {
          "internalType": "bytes32",
          "name": "name",
          "type": "bytes32"
        }
      ],
      "name": "getAddress",
      "outputs": [
        {
          "internalType": "address",
          "name": "",
          "type": "address"
        }
      ],
      "stateMutability": "view",
      "type": "function"
    },
    {
      "inputs": [],
      "name": "getLiquidityManagerProxy",
      "outputs": [
        {
          "internalType": "address",
          "name": "",
          "type": "address"
        }
      ],
      "stateMutability": "view",
      "type": "function"
    },
    {
      "inputs": [
        {
          "internalType": "bytes32[]",
          "name": "names",
          "type": "bytes32[]"
        },
        {
          "internalType": "address[]",
          "name": "destinations",
          "type": "address[]"
        }
      ],
      "name": "importAddresses",
      "outputs": [],
      "stateMutability": "nonpayable",
      "type": "function"
    },
    {
      "inputs": [],
      "name": "isOwner",
      "outputs": [
        {
          "internalType": "bool",
          "name": "",
          "type": "bool"
        }
      ],
      "stateMutability": "view",
      "type": "function"
    },
    {
      "inputs": [],
      "name": "liquidityManagerName",
      "outputs": [
        {
          "internalType": "bytes32",
          "name": "",
          "type": "bytes32"
        }
      ],
      "stateMutability": "view",
      "type": "function"
    },
    {
      "inputs": [],
      "name": "liquidityManagerProxyName",
      "outputs": [
        {
          "internalType": "bytes32",
          "name": "",
          "type": "bytes32"
        }
      ],
      "stateMutability": "view",
      "type": "function"
    },
    {
      "inputs": [],
      "name": "liquidityManagerStorageName",
      "outputs": [
        {
          "internalType": "bytes32",
          "name": "",
          "type": "bytes32"
        }
      ],
      "stateMutability": "view",
      "type": "function"
    },
    {
      "inputs": [],
      "name": "loanManagerName",
      "outputs": [
        {
          "internalType": "bytes32",
          "name": "",
          "type": "bytes32"
        }
      ],
      "stateMutability": "view",
      "type": "function"
    },
    {
      "inputs": [],
      "name": "owner",
      "outputs": [
        {
          "internalType": "address",
          "name": "",
          "type": "address"
        }
      ],
      "stateMutability": "view",
      "type": "function"
    },
    {
      "inputs": [],
      "name": "pendingOwner",
      "outputs": [
        {
          "internalType": "address",
          "name": "",
          "type": "address"
        }
      ],
      "stateMutability": "view",
      "type": "function"
    },
    {
      "inputs": [
        {
          "internalType": "bytes32",
          "name": "",
          "type": "bytes32"
        }
      ],
      "name": "repository",
      "outputs": [
        {
          "internalType": "address",
          "name": "",
          "type": "address"
        }
      ],
      "stateMutability": "view",
      "type": "function"
    },
    {
      "inputs": [
        {
          "internalType": "bytes32",
          "name": "name",
          "type": "bytes32"
        },
        {
          "internalType": "string",
          "name": "reason",
          "type": "string"
        }
      ],
      "name": "requireAndGetAddress",
      "outputs": [
        {
          "internalType": "address",
          "name": "",
          "type": "address"
        }
      ],
      "stateMutability": "view",
      "type": "function"
    },
    {
      "inputs": [],
      "name": "securityDepositTokenName",
      "outputs": [
        {
          "internalType": "bytes32",
          "name": "",
          "type": "bytes32"
        }
      ],
      "stateMutability": "view",
      "type": "function"
    },
    {
      "inputs": [],
      "name": "stableDebtTokenName",
      "outputs": [
        {
          "internalType": "bytes32",
          "name": "",
          "type": "bytes32"
        }
      ],
      "stateMutability": "view",
      "type": "function"
    },
    {
      "inputs": [
        {
          "internalType": "address",
          "name": "newOwner",
          "type": "address"
        }
      ],
      "name": "transferOwnership",
      "outputs": [],
      "stateMutability": "nonpayable",
      "type": "function"
    },
    {
      "inputs": [],
      "name": "vaultManagerProxyName",
      "outputs": [
        {
          "internalType": "bytes32",
          "name": "",
          "type": "bytes32"
        }
      ],
      "stateMutability": "view",
      "type": "function"
    },
    {
      "inputs": [],
      "name": "vaultStorageName",
      "outputs": [
        {
          "internalType": "bytes32",
          "name": "",
          "type": "bytes32"
        }
      ],
      "stateMutability": "view",
      "type": "function"
    }
  ],
  "transactionHash": "0x3d2c00679e5fcace228cb9ba926f6f55fb3b5a563248cecacc13d57d5f0bdafc",
  "args": [],
  "numDeployments": 1,
  "solcInputHash": "0f898a17407875c075faf6ebb8a19730",
  "bytecode": "0x608060405234801561001057600080fd5b50336000806101000a81548173ffffffffffffffffffffffffffffffffffffffff021916908373ffffffffffffffffffffffffffffffffffffffff16021790555060008054906101000a900473ffffffffffffffffffffffffffffffffffffffff1673ffffffffffffffffffffffffffffffffffffffff16600073ffffffffffffffffffffffffffffffffffffffff167f8be0079c531659141344cd1fd0a4f28419497f9722a3daafe3b4186f6b6457e060405160405180910390a36110ca806100db6000396000f3fe608060405234801561001057600080fd5b506004361061012c5760003560e01c80638f32d59b116100ad578063cf80d21211610071578063cf80d21214610301578063dacb2d011461031f578063e014ddd11461034f578063e30c39781461036d578063f2fde38b1461038b5761012c565b80638f32d59b1461026d57806399833d6d1461028b578063ab0b8f77146102a9578063ad64caed146102c5578063b33f917b146102e35761012c565b80636dd4bbf8116100f45780636dd4bbf8146101d75780637f007dd2146101f5578063869c5657146102135780638c942ffd146102315780638da5cb5b1461024f5761012c565b8063187f79351461013157806321f8a721146101615780634e71e0c8146101915780635fc2f9431461019b5780636023f816146101b9575b600080fd5b61014b60048036038101906101469190610b2c565b6103a7565b6040516101589190610b9a565b60405180910390f35b61017b60048036038101906101769190610b2c565b6103da565b6040516101889190610b9a565b60405180910390f35b610199610417565b005b6101a36105b3565b6040516101b09190610bc4565b60405180910390f35b6101c16105d7565b6040516101ce9190610bc4565b60405180910390f35b6101df6105fb565b6040516101ec9190610b9a565b60405180910390f35b6101fd610656565b60405161020a9190610bc4565b60405180910390f35b61021b61067a565b6040516102289190610bc4565b60405180910390f35b61023961069e565b6040516102469190610bc4565b60405180910390f35b6102576106c2565b6040516102649190610b9a565b60405180910390f35b6102756106e6565b6040516102829190610bfa565b60405180910390f35b61029361073d565b6040516102a09190610bc4565b60405180910390f35b6102c360048036038101906102be9190610cd0565b610761565b005b6102cd6108ef565b6040516102da9190610bc4565b60405180910390f35b6102eb610913565b6040516102f89190610bc4565b60405180910390f35b610309610937565b6040516103169190610bc4565b60405180910390f35b61033960048036038101906103349190610da7565b61095b565b6040516103469190610b9a565b60405180910390f35b610357610a17565b6040516103649190610bc4565b60405180910390f35b610375610a3b565b6040516103829190610b9a565b60405180910390f35b6103a560048036038101906103a09190610e33565b610a61565b005b60026020528060005260406000206000915054906101000a900473ffffffffffffffffffffffffffffffffffffffff1681565b60006002600083815260200190815260200160002060009054906101000a900473ffffffffffffffffffffffffffffffffffffffff169050919050565b600160009054906101000a900473ffffffffffffffffffffffffffffffffffffffff1673ffffffffffffffffffffffffffffffffffffffff163373ffffffffffffffffffffffffffffffffffffffff161461047157600080fd5b600160009054906101000a900473ffffffffffffffffffffffffffffffffffffffff1673ffffffffffffffffffffffffffffffffffffffff1660008054906101000a900473ffffffffffffffffffffffffffffffffffffffff1673ffffffffffffffffffffffffffffffffffffffff167f8be0079c531659141344cd1fd0a4f28419497f9722a3daafe3b4186f6b6457e060405160405180910390a3600160009054906101000a900473ffffffffffffffffffffffffffffffffffffffff166000806101000a81548173ffffffffffffffffffffffffffffffffffffffff021916908373ffffffffffffffffffffffffffffffffffffffff1602179055506000600160006101000a81548173ffffffffffffffffffffffffffffffffffffffff021916908373ffffffffffffffffffffffffffffffffffffffff160217905550565b7f65787443616c6c41434c50726f7879000000000000000000000000000000000081565b7f6c69717569646974794d616e616765720000000000000000000000000000000081565b6000600260007f6c69717569646974794d616e6167657250726f78790000000000000000000000815260200190815260200160002060009054906101000a900473ffffffffffffffffffffffffffffffffffffffff16905090565b7f6c69717569646974794d616e6167657250726f7879000000000000000000000081565b7f7661756c744d616e6167657250726f787900000000000000000000000000000081565b7f7661756c7453746f72616765000000000000000000000000000000000000000081565b60008054906101000a900473ffffffffffffffffffffffffffffffffffffffff1681565b60008060009054906101000a900473ffffffffffffffffffffffffffffffffffffffff1673ffffffffffffffffffffffffffffffffffffffff163373ffffffffffffffffffffffffffffffffffffffff1614905090565b7f737461626c6544656274546f6b656e000000000000000000000000000000000081565b6107696106e6565b6107a8576040517f08c379a000000000000000000000000000000000000000000000000000000000815260040161079f90610ebd565b60405180910390fd5b8181905084849050146107f0576040517f08c379a00000000000000000000000000000000000000000000000000000000081526004016107e790610f29565b60405180910390fd5b60005b848490508110156108e857600085858381811061081357610812610f49565b5b905060200201359050600084848481811061083157610830610f49565b5b90506020020160208101906108469190610e33565b9050806002600084815260200190815260200160002060006101000a81548173ffffffffffffffffffffffffffffffffffffffff021916908373ffffffffffffffffffffffffffffffffffffffff1602179055507fefe884cc7f82a6cf3cf68f64221519dcf96b5cae9048e1bb008ee32cd05aaa9182826040516108cb929190610f78565b60405180910390a1505080806108e090610fda565b9150506107f3565b5050505050565b7f6c6f616e4d616e6167657200000000000000000000000000000000000000000081565b7f61636c4d616e616765720000000000000000000000000000000000000000000081565b7f73656375726974794465706f736974546f6b656e00000000000000000000000081565b6000806002600086815260200190815260200160002060009054906101000a900473ffffffffffffffffffffffffffffffffffffffff169050600073ffffffffffffffffffffffffffffffffffffffff168173ffffffffffffffffffffffffffffffffffffffff16141584849091610a0a576040517f08c379a0000000000000000000000000000000000000000000000000000000008152600401610a01929190611070565b60405180910390fd5b5050809150509392505050565b7f6c69717569646974794d616e6167657253746f7261676500000000000000000081565b600160009054906101000a900473ffffffffffffffffffffffffffffffffffffffff1681565b610a696106e6565b610aa8576040517f08c379a0000000000000000000000000000000000000000000000000000000008152600401610a9f90610ebd565b60405180910390fd5b80600160006101000a81548173ffffffffffffffffffffffffffffffffffffffff021916908373ffffffffffffffffffffffffffffffffffffffff16021790555050565b600080fd5b600080fd5b6000819050919050565b610b0981610af6565b8114610b1457600080fd5b50565b600081359050610b2681610b00565b92915050565b600060208284031215610b4257610b41610aec565b5b6000610b5084828501610b17565b91505092915050565b600073ffffffffffffffffffffffffffffffffffffffff82169050919050565b6000610b8482610b59565b9050919050565b610b9481610b79565b82525050565b6000602082019050610baf6000830184610b8b565b92915050565b610bbe81610af6565b82525050565b6000602082019050610bd96000830184610bb5565b92915050565b60008115159050919050565b610bf481610bdf565b82525050565b6000602082019050610c0f6000830184610beb565b92915050565b600080fd5b600080fd5b600080fd5b60008083601f840112610c3a57610c39610c15565b5b8235905067ffffffffffffffff811115610c5757610c56610c1a565b5b602083019150836020820283011115610c7357610c72610c1f565b5b9250929050565b60008083601f840112610c9057610c8f610c15565b5b8235905067ffffffffffffffff811115610cad57610cac610c1a565b5b602083019150836020820283011115610cc957610cc8610c1f565b5b9250929050565b60008060008060408587031215610cea57610ce9610aec565b5b600085013567ffffffffffffffff811115610d0857610d07610af1565b5b610d1487828801610c24565b9450945050602085013567ffffffffffffffff811115610d3757610d36610af1565b5b610d4387828801610c7a565b925092505092959194509250565b60008083601f840112610d6757610d66610c15565b5b8235905067ffffffffffffffff811115610d8457610d83610c1a565b5b602083019150836001820283011115610da057610d9f610c1f565b5b9250929050565b600080600060408486031215610dc057610dbf610aec565b5b6000610dce86828701610b17565b935050602084013567ffffffffffffffff811115610def57610dee610af1565b5b610dfb86828701610d51565b92509250509250925092565b610e1081610b79565b8114610e1b57600080fd5b50565b600081359050610e2d81610e07565b92915050565b600060208284031215610e4957610e48610aec565b5b6000610e5784828501610e1e565b91505092915050565b600082825260208201905092915050565b7f4f776e61626c653a2063616c6c6572206973206e6f7420746865206f776e6572600082015250565b6000610ea7602083610e60565b9150610eb282610e71565b602082019050919050565b60006020820190508181036000830152610ed681610e9a565b9050919050565b7f496e707574206c656e67746873206d757374206d617463680000000000000000600082015250565b6000610f13601883610e60565b9150610f1e82610edd565b602082019050919050565b60006020820190508181036000830152610f4281610f06565b9050919050565b7f4e487b7100000000000000000000000000000000000000000000000000000000600052603260045260246000fd5b6000604082019050610f8d6000830185610bb5565b610f9a6020830184610b8b565b9392505050565b7f4e487b7100000000000000000000000000000000000000000000000000000000600052601160045260246000fd5b6000819050919050565b6000610fe582610fd0565b91507fffffffffffffffffffffffffffffffffffffffffffffffffffffffffffffffff82141561101857611017610fa1565b5b600182019050919050565b82818337600083830152505050565b6000601f19601f8301169050919050565b600061104f8385610e60565b935061105c838584611023565b61106583611032565b840190509392505050565b6000602082019050818103600083015261108b818486611043565b9050939250505056fea26469706673582212208e75b9589f54e0bb1a35a1f203bcbf03c81ac4b7510b5c53c3cb65bd376e275064736f6c63430008090033",
  "devdoc": {
    "kind": "dev",
    "methods": {
      "claimOwnership()": {
        "details": "Allows the pendingOwner address to finalize the transfer."
      },
      "isOwner()": {
        "details": "Returns true if the caller is the current owner."
      },
      "transferOwnership(address)": {
        "details": "Allows the current owner to set the pendingOwner address.",
        "params": {
          "newOwner": "The address to transfer ownership to."
        }
      }
    },
    "version": 1
  },
  "userdoc": {
    "kind": "user",
    "methods": {},
    "version": 1
  },
  "storageLayout": {
    "storage": [
      {
        "astId": 7919,
        "contract": "contracts/component/infra/AddressResolver.sol:AddressResolver",
        "label": "owner",
        "offset": 0,
        "slot": "0",
        "type": "t_address"
      },
      {
        "astId": 7921,
        "contract": "contracts/component/infra/AddressResolver.sol:AddressResolver",
        "label": "pendingOwner",
        "offset": 0,
        "slot": "1",
        "type": "t_address"
      },
      {
        "astId": 528,
        "contract": "contracts/component/infra/AddressResolver.sol:AddressResolver",
        "label": "repository",
        "offset": 0,
        "slot": "2",
        "type": "t_mapping(t_bytes32,t_address)"
      }
    ],
    "types": {
      "t_address": {
        "encoding": "inplace",
        "label": "address",
        "numberOfBytes": "20"
      },
      "t_bytes32": {
        "encoding": "inplace",
        "label": "bytes32",
        "numberOfBytes": "32"
      },
      "t_mapping(t_bytes32,t_address)": {
        "encoding": "mapping",
        "key": "t_bytes32",
        "label": "mapping(bytes32 => address)",
        "numberOfBytes": "32",
        "value": "t_address"
      }
    }
  }
}