{
  "address": "0xF7A679dBA577488CDCB3D9Aa3fbDe35AbF3dF341",
  "abi": [
    {
      "anonymous": false,
      "inputs": [
        {
          "indexed": false,
          "internalType": "bytes32",
          "name": "name",
          "type": "bytes32"
        },
        {
          "indexed": false,
          "internalType": "address",
          "name": "destination",
          "type": "address"
        }
      ],
      "name": "AddressImported",
      "type": "event"
    },
    {
      "anonymous": false,
      "inputs": [
        {
          "indexed": true,
          "internalType": "address",
          "name": "previousOwner",
          "type": "address"
        },
        {
          "indexed": true,
          "internalType": "address",
          "name": "newOwner",
          "type": "address"
        }
      ],
      "name": "OwnershipTransferred",
      "type": "event"
    },
    {
      "inputs": [],
      "name": "aclManagerName",
      "outputs": [
        {
          "internalType": "bytes32",
          "name": "",
          "type": "bytes32"
        }
      ],
      "stateMutability": "view",
      "type": "function"
    },
    {
      "inputs": [],
      "name": "claimOwnership",
      "outputs": [],
      "stateMutability": "nonpayable",
      "type": "function"
    },
    {
      "inputs": [],
      "name": "extCallACLProxyName",
      "outputs": [
        {
          "internalType": "bytes32",
          "name": "",
          "type": "bytes32"
        }
      ],
      "stateMutability": "view",
      "type": "function"
    },
    {
      "inputs": [
        {
          "internalType": "bytes32",
          "name": "name",
          "type": "bytes32"
        }
      ],
      "name": "getAddress",
      "outputs": [
        {
          "internalType": "address",
          "name": "",
          "type": "address"
        }
      ],
      "stateMutability": "view",
      "type": "function"
    },
    {
      "inputs": [],
      "name": "getLiquidityDepositEscrow",
      "outputs": [
        {
          "internalType": "address",
          "name": "",
          "type": "address"
        }
      ],
      "stateMutability": "view",
      "type": "function"
    },
    {
      "inputs": [],
      "name": "getLiquidityManagerProxy",
      "outputs": [
        {
          "internalType": "address",
          "name": "",
          "type": "address"
        }
      ],
      "stateMutability": "view",
      "type": "function"
    },
    {
      "inputs": [],
      "name": "getLoanManager",
      "outputs": [
        {
          "internalType": "address",
          "name": "",
          "type": "address"
        }
      ],
      "stateMutability": "view",
      "type": "function"
    },
    {
      "inputs": [],
      "name": "getLoanManagerProxy",
      "outputs": [
        {
          "internalType": "address",
          "name": "",
          "type": "address"
        }
      ],
      "stateMutability": "view",
      "type": "function"
    },
    {
      "inputs": [],
      "name": "getStableDebtToken",
      "outputs": [
        {
          "internalType": "address",
          "name": "",
          "type": "address"
        }
      ],
      "stateMutability": "view",
      "type": "function"
    },
    {
      "inputs": [],
      "name": "getVaultStorage",
      "outputs": [
        {
          "internalType": "address",
          "name": "",
          "type": "address"
        }
      ],
      "stateMutability": "view",
      "type": "function"
    },
    {
      "inputs": [
        {
          "internalType": "bytes32[]",
          "name": "names",
          "type": "bytes32[]"
        },
        {
          "internalType": "address[]",
          "name": "destinations",
          "type": "address[]"
        }
      ],
      "name": "importAddresses",
      "outputs": [],
      "stateMutability": "nonpayable",
      "type": "function"
    },
    {
      "inputs": [],
      "name": "isOwner",
      "outputs": [
        {
          "internalType": "bool",
          "name": "",
          "type": "bool"
        }
      ],
      "stateMutability": "view",
      "type": "function"
    },
    {
      "inputs": [],
      "name": "liquidityDepositEscrowName",
      "outputs": [
        {
          "internalType": "bytes32",
          "name": "",
          "type": "bytes32"
        }
      ],
      "stateMutability": "view",
      "type": "function"
    },
    {
      "inputs": [],
      "name": "liquidityManagerName",
      "outputs": [
        {
          "internalType": "bytes32",
          "name": "",
          "type": "bytes32"
        }
      ],
      "stateMutability": "view",
      "type": "function"
    },
    {
      "inputs": [],
      "name": "liquidityManagerProxyName",
      "outputs": [
        {
          "internalType": "bytes32",
          "name": "",
          "type": "bytes32"
        }
      ],
      "stateMutability": "view",
      "type": "function"
    },
    {
      "inputs": [],
      "name": "liquidityManagerStorageName",
      "outputs": [
        {
          "internalType": "bytes32",
          "name": "",
          "type": "bytes32"
        }
      ],
      "stateMutability": "view",
      "type": "function"
    },
    {
      "inputs": [],
      "name": "loanManagerName",
      "outputs": [
        {
          "internalType": "bytes32",
          "name": "",
          "type": "bytes32"
        }
      ],
      "stateMutability": "view",
      "type": "function"
    },
    {
      "inputs": [],
      "name": "loanManagerProxyName",
      "outputs": [
        {
          "internalType": "bytes32",
          "name": "",
          "type": "bytes32"
        }
      ],
      "stateMutability": "view",
      "type": "function"
    },
    {
      "inputs": [],
      "name": "owner",
      "outputs": [
        {
          "internalType": "address",
          "name": "",
          "type": "address"
        }
      ],
      "stateMutability": "view",
      "type": "function"
    },
    {
      "inputs": [],
      "name": "pendingOwner",
      "outputs": [
        {
          "internalType": "address",
          "name": "",
          "type": "address"
        }
      ],
      "stateMutability": "view",
      "type": "function"
    },
    {
      "inputs": [
        {
          "internalType": "bytes32",
          "name": "",
          "type": "bytes32"
        }
      ],
      "name": "repository",
      "outputs": [
        {
          "internalType": "address",
          "name": "",
          "type": "address"
        }
      ],
      "stateMutability": "view",
      "type": "function"
    },
    {
      "inputs": [
        {
          "internalType": "bytes32",
          "name": "name",
          "type": "bytes32"
        },
        {
          "internalType": "string",
          "name": "reason",
          "type": "string"
        }
      ],
      "name": "requireAndGetAddress",
      "outputs": [
        {
          "internalType": "address",
          "name": "",
          "type": "address"
        }
      ],
      "stateMutability": "view",
      "type": "function"
    },
    {
      "inputs": [],
      "name": "securityDepositTokenName",
      "outputs": [
        {
          "internalType": "bytes32",
          "name": "",
          "type": "bytes32"
        }
      ],
      "stateMutability": "view",
      "type": "function"
    },
    {
      "inputs": [],
      "name": "stableDebtTokenName",
      "outputs": [
        {
          "internalType": "bytes32",
          "name": "",
          "type": "bytes32"
        }
      ],
      "stateMutability": "view",
      "type": "function"
    },
    {
      "inputs": [
        {
          "internalType": "address",
          "name": "newOwner",
          "type": "address"
        }
      ],
      "name": "transferOwnership",
      "outputs": [],
      "stateMutability": "nonpayable",
      "type": "function"
    },
    {
      "inputs": [],
      "name": "vaultManagerProxyName",
      "outputs": [
        {
          "internalType": "bytes32",
          "name": "",
          "type": "bytes32"
        }
      ],
      "stateMutability": "view",
      "type": "function"
    },
    {
      "inputs": [],
      "name": "vaultStorageName",
      "outputs": [
        {
          "internalType": "bytes32",
          "name": "",
          "type": "bytes32"
        }
      ],
      "stateMutability": "view",
      "type": "function"
    }
  ],
  "transactionHash": "0xc68f0ba5ff1654530a5323cb3039401a0098e9eb20234abbf4a8478f13710e0f",
  "args": [],
  "numDeployments": 1,
  "solcInputHash": "fa894278ca97a0719c19a1b496c9124e",
  "bytecode": "0x608060405234801561001057600080fd5b50600080546001600160a01b0319163390811782556040519091907f8be0079c531659141344cd1fd0a4f28419497f9722a3daafe3b4186f6b6457e0908290a3610c198061005f6000396000f3fe608060405234801561001057600080fd5b50600436106101b95760003560e01c80638f32d59b116100f9578063b9008f0111610097578063e014ddd111610071578063e014ddd114610602578063e30c397814610629578063e3e24cca1461063c578063f2fde38b1461069557600080fd5b8063b9008f011461056f578063cf80d212146105c8578063dacb2d01146105ef57600080fd5b8063a5c84e37116100d3578063a5c84e37146104b5578063ab0b8f771461050e578063ad64caed14610521578063b33f917b1461054857600080fd5b80638f32d59b1461041757806390ffd0521461043557806399833d6d1461048e57600080fd5b80636023f816116101665780637f007dd2116101405780637f007dd21461038f578063869c5657146103b65780638c942ffd146103dd5780638da5cb5b1461040457600080fd5b80636023f816146102e85780636d200fcf1461030f5780636dd4bbf81461033657600080fd5b806321f8a7211161019757806321f8a7211461028e5780634e71e0c8146102b75780635fc2f943146102c157600080fd5b80630f4a9a61146101be5780631385437614610230578063187f793514610265575b600080fd5b7f6c69717569646974794465706f736974457363726f770000000000000000000060005260026020527fe696d6efaff79ccfd08b85d8b5ff7184ded63ccd422f6eaa8f668328232d0dae546001600160a01b03165b6040516001600160a01b0390911681526020015b60405180910390f35b6102577f6c6f616e4d616e6167657250726f78790000000000000000000000000000000081565b604051908152602001610227565b61021361027336600461098a565b6002602052600090815260409020546001600160a01b031681565b61021361029c36600461098a565b6000908152600260205260409020546001600160a01b031690565b6102bf6106a8565b005b6102577f65787443616c6c41434c50726f7879000000000000000000000000000000000081565b6102577f6c69717569646974794d616e616765720000000000000000000000000000000081565b6102577f6c69717569646974794465706f736974457363726f770000000000000000000081565b7f6c69717569646974794d616e6167657250726f7879000000000000000000000060005260026020527f262fd4f38b5822977d01a826ef3341259f4bc3c300454a7928ff04a5e62e32a5546001600160a01b0316610213565b6102577f6c69717569646974794d616e6167657250726f7879000000000000000000000081565b6102577f7661756c744d616e6167657250726f787900000000000000000000000000000081565b6102577f7661756c7453746f72616765000000000000000000000000000000000000000081565b600054610213906001600160a01b031681565b6000546001600160a01b031633146040519015158152602001610227565b7f737461626c6544656274546f6b656e000000000000000000000000000000000060005260026020527f335596b1e2ba706c5d9bd164ec9e7ef83d3ed3f5941922daa470bb7db628fca7546001600160a01b0316610213565b6102577f737461626c6544656274546f6b656e000000000000000000000000000000000081565b7f6c6f616e4d616e6167657250726f78790000000000000000000000000000000060005260026020527f5245d49cebaaf309f206544f6e1ebd38031f1a52f74f96304e20be8da8e0c553546001600160a01b0316610213565b6102bf61051c3660046109ef565b610730565b6102577f6c6f616e4d616e6167657200000000000000000000000000000000000000000081565b6102577f61636c4d616e616765720000000000000000000000000000000000000000000081565b7f7661756c7453746f72616765000000000000000000000000000000000000000060005260026020527f4948803233a464c16eb2e1719b77c1b8d7b74e70ef298731d024d0e7de20ac7f546001600160a01b0316610213565b6102577f73656375726974794465706f736974546f6b656e00000000000000000000000081565b6102136105fd366004610a5b565b6108bd565b6102577f6c69717569646974794d616e6167657253746f7261676500000000000000000081565b600154610213906001600160a01b031681565b7f6c6f616e4d616e6167657200000000000000000000000000000000000000000060005260026020527ff225249116681be4f5c649707ceda1280627df019beb5fa67eeda1418abd7d42546001600160a01b0316610213565b6102bf6106a3366004610ad7565b610901565b6001546001600160a01b031633146106bf57600080fd5b600154600080546040516001600160a01b0393841693909116917f8be0079c531659141344cd1fd0a4f28419497f9722a3daafe3b4186f6b6457e091a3600180546000805473ffffffffffffffffffffffffffffffffffffffff199081166001600160a01b03841617909155169055565b6000546001600160a01b0316331461078f5760405162461bcd60e51b815260206004820181905260248201527f4f776e61626c653a2063616c6c6572206973206e6f7420746865206f776e657260448201526064015b60405180910390fd5b8281146107de5760405162461bcd60e51b815260206004820152601860248201527f496e707574206c656e67746873206d757374206d6174636800000000000000006044820152606401610786565b60005b838110156108b65760008585838181106107fd576107fd610b07565b905060200201359050600084848481811061081a5761081a610b07565b905060200201602081019061082f9190610ad7565b600083815260026020908152604091829020805473ffffffffffffffffffffffffffffffffffffffff19166001600160a01b0385169081179091558251868152918201529192507fefe884cc7f82a6cf3cf68f64221519dcf96b5cae9048e1bb008ee32cd05aaa91910160405180910390a1505080806108ae90610b36565b9150506107e1565b5050505050565b6000838152600260205260408120546001600160a01b03168383826108f65760405162461bcd60e51b8152600401610786929190610b96565b509095945050505050565b6000546001600160a01b0316331461095b5760405162461bcd60e51b815260206004820181905260248201527f4f776e61626c653a2063616c6c6572206973206e6f7420746865206f776e65726044820152606401610786565b6001805473ffffffffffffffffffffffffffffffffffffffff19166001600160a01b0392909216919091179055565b60006020828403121561099c57600080fd5b5035919050565b60008083601f8401126109b557600080fd5b50813567ffffffffffffffff8111156109cd57600080fd5b6020830191508360208260051b85010111156109e857600080fd5b9250929050565b60008060008060408587031215610a0557600080fd5b843567ffffffffffffffff80821115610a1d57600080fd5b610a29888389016109a3565b90965094506020870135915080821115610a4257600080fd5b50610a4f878288016109a3565b95989497509550505050565b600080600060408486031215610a7057600080fd5b83359250602084013567ffffffffffffffff80821115610a8f57600080fd5b818601915086601f830112610aa357600080fd5b813581811115610ab257600080fd5b876020828501011115610ac457600080fd5b6020830194508093505050509250925092565b600060208284031215610ae957600080fd5b81356001600160a01b0381168114610b0057600080fd5b9392505050565b7f4e487b7100000000000000000000000000000000000000000000000000000000600052603260045260246000fd5b60007fffffffffffffffffffffffffffffffffffffffffffffffffffffffffffffffff821415610b8f577f4e487b7100000000000000000000000000000000000000000000000000000000600052601160045260246000fd5b5060010190565b60208152816020820152818360408301376000818301604090810191909152601f9092017fffffffffffffffffffffffffffffffffffffffffffffffffffffffffffffffe016010191905056fea2646970667358221220561a21777771a011a4db6b8884f453ed8120d8bac4b9663ccd32ba067abb32f664736f6c63430008090033",
  "devdoc": {
    "kind": "dev",
    "methods": {
      "claimOwnership()": {
        "details": "Allows the pendingOwner address to finalize the transfer."
      },
      "isOwner()": {
        "details": "Returns true if the caller is the current owner."
      },
      "transferOwnership(address)": {
        "details": "Allows the current owner to set the pendingOwner address.",
        "params": {
          "newOwner": "The address to transfer ownership to."
        }
      }
    },
    "version": 1
  },
  "userdoc": {
    "kind": "user",
    "methods": {},
    "version": 1
  },
  "storageLayout": {
    "storage": [
      {
        "astId": 9172,
        "contract": "contracts/component/infra/AddressResolver.sol:AddressResolver",
        "label": "owner",
        "offset": 0,
        "slot": "0",
        "type": "t_address"
      },
      {
        "astId": 9174,
        "contract": "contracts/component/infra/AddressResolver.sol:AddressResolver",
        "label": "pendingOwner",
        "offset": 0,
        "slot": "1",
        "type": "t_address"
      },
      {
        "astId": 799,
        "contract": "contracts/component/infra/AddressResolver.sol:AddressResolver",
        "label": "repository",
        "offset": 0,
        "slot": "2",
        "type": "t_mapping(t_bytes32,t_address)"
      }
    ],
    "types": {
      "t_address": {
        "encoding": "inplace",
        "label": "address",
        "numberOfBytes": "20"
      },
      "t_bytes32": {
        "encoding": "inplace",
        "label": "bytes32",
        "numberOfBytes": "32"
      },
      "t_mapping(t_bytes32,t_address)": {
        "encoding": "mapping",
        "key": "t_bytes32",
        "label": "mapping(bytes32 => address)",
        "numberOfBytes": "32",
        "value": "t_address"
      }
    }
  }
}