{
  "address": "0x6372CFA37B039B1B1Ee315FF52741c0182376A86",
  "abi": [
    {
      "anonymous": false,
      "inputs": [
        {
          "indexed": false,
          "internalType": "bytes32",
          "name": "name",
          "type": "bytes32"
        },
        {
          "indexed": false,
          "internalType": "address",
          "name": "destination",
          "type": "address"
        }
      ],
      "name": "AddressImported",
      "type": "event"
    },
    {
      "anonymous": false,
      "inputs": [
        {
          "indexed": true,
          "internalType": "address",
          "name": "previousOwner",
          "type": "address"
        },
        {
          "indexed": true,
          "internalType": "address",
          "name": "newOwner",
          "type": "address"
        }
      ],
      "name": "OwnershipTransferred",
      "type": "event"
    },
    {
      "inputs": [],
      "name": "aclManagerName",
      "outputs": [
        {
          "internalType": "bytes32",
          "name": "",
          "type": "bytes32"
        }
      ],
      "stateMutability": "view",
      "type": "function"
    },
    {
      "inputs": [],
      "name": "getAclManager",
      "outputs": [
        {
          "internalType": "address",
          "name": "",
          "type": "address"
        }
      ],
      "stateMutability": "view",
      "type": "function"
    },
    {
      "inputs": [
        {
          "internalType": "bytes32",
          "name": "name",
          "type": "bytes32"
        }
      ],
      "name": "getAddress",
      "outputs": [
        {
          "internalType": "address",
          "name": "",
          "type": "address"
        }
      ],
      "stateMutability": "view",
      "type": "function"
    },
    {
      "inputs": [],
      "name": "getJuniorDepositToken",
      "outputs": [
        {
          "internalType": "address",
          "name": "",
          "type": "address"
        }
      ],
      "stateMutability": "view",
      "type": "function"
    },
    {
      "inputs": [],
      "name": "getPriceOracle",
      "outputs": [
        {
          "internalType": "address",
          "name": "",
          "type": "address"
        }
      ],
      "stateMutability": "view",
      "type": "function"
    },
    {
      "inputs": [],
      "name": "getSeniorDepositToken",
      "outputs": [
        {
          "internalType": "address",
          "name": "",
          "type": "address"
        }
      ],
      "stateMutability": "view",
      "type": "function"
    },
    {
      "inputs": [],
      "name": "getVoyage",
      "outputs": [
        {
          "internalType": "address",
          "name": "",
          "type": "address"
        }
      ],
      "stateMutability": "view",
      "type": "function"
    },
    {
      "inputs": [
        {
          "internalType": "bytes32[]",
          "name": "names",
          "type": "bytes32[]"
        },
        {
          "internalType": "address[]",
          "name": "destinations",
          "type": "address[]"
        }
      ],
      "name": "importAddresses",
      "outputs": [],
      "stateMutability": "nonpayable",
      "type": "function"
    },
    {
      "inputs": [],
      "name": "juniorDepositTokenName",
      "outputs": [
        {
          "internalType": "bytes32",
          "name": "",
          "type": "bytes32"
        }
      ],
      "stateMutability": "view",
      "type": "function"
    },
    {
      "inputs": [],
      "name": "liquidityDepositEscrowName",
      "outputs": [
        {
          "internalType": "bytes32",
          "name": "",
          "type": "bytes32"
        }
      ],
      "stateMutability": "view",
      "type": "function"
    },
    {
      "inputs": [],
      "name": "owner",
      "outputs": [
        {
          "internalType": "address",
          "name": "",
          "type": "address"
        }
      ],
      "stateMutability": "view",
      "type": "function"
    },
    {
      "inputs": [],
      "name": "priceOracleName",
      "outputs": [
        {
          "internalType": "bytes32",
          "name": "",
          "type": "bytes32"
        }
      ],
      "stateMutability": "view",
      "type": "function"
    },
    {
      "inputs": [],
      "name": "renounceOwnership",
      "outputs": [],
      "stateMutability": "nonpayable",
      "type": "function"
    },
    {
      "inputs": [
        {
          "internalType": "bytes32",
          "name": "",
          "type": "bytes32"
        }
      ],
      "name": "repository",
      "outputs": [
        {
          "internalType": "address",
          "name": "",
          "type": "address"
        }
      ],
      "stateMutability": "view",
      "type": "function"
    },
    {
      "inputs": [
        {
          "internalType": "bytes32",
          "name": "name",
          "type": "bytes32"
        },
        {
          "internalType": "string",
          "name": "reason",
          "type": "string"
        }
      ],
      "name": "requireAndGetAddress",
      "outputs": [
        {
          "internalType": "address",
          "name": "",
          "type": "address"
        }
      ],
      "stateMutability": "view",
      "type": "function"
    },
    {
      "inputs": [],
      "name": "seniorDepositTokenName",
      "outputs": [
        {
          "internalType": "bytes32",
          "name": "",
          "type": "bytes32"
        }
      ],
      "stateMutability": "view",
      "type": "function"
    },
    {
      "inputs": [
        {
          "internalType": "address",
          "name": "newOwner",
          "type": "address"
        }
      ],
      "name": "transferOwnership",
      "outputs": [],
      "stateMutability": "nonpayable",
      "type": "function"
    },
    {
      "inputs": [],
      "name": "voyageName",
      "outputs": [
        {
          "internalType": "bytes32",
          "name": "",
          "type": "bytes32"
        }
      ],
      "stateMutability": "view",
      "type": "function"
    }
  ],
  "transactionHash": "0x5e43a1329287e7c5353a6e0c9098961022b508d946aa5243347174462758ba96",
  "args": [],
  "numDeployments": 1,
  "solcInputHash": "686fcfb77ebcbd9335e616f0b479388f",
  "bytecode": "0x608060405234801561001057600080fd5b5061001a3361001f565b61006f565b600080546001600160a01b038381166001600160a01b0319831681178455604051919092169283917f8be0079c531659141344cd1fd0a4f28419497f9722a3daafe3b4186f6b6457e09190a35050565b610ace8061007e6000396000f3fe608060405234801561001057600080fd5b50600436106101365760003560e01c8063ab0b8f77116100b2578063dacb2d0111610081578063f0da7f1f11610066578063f0da7f1f14610420578063f2fde38b14610447578063fca513a81461045a57600080fd5b8063dacb2d01146103b4578063de5185e2146103c757600080fd5b8063ab0b8f77146102fa578063ac66e2481461030d578063b33f917b14610334578063c2c855c21461035b57600080fd5b80636d200fcf116101095780638da5cb5b116100ee5780638da5cb5b1461026957806396711d581461027a578063a47a94c0146102a157600080fd5b80636d200fcf14610238578063715018a61461025f57600080fd5b8063187f79351461013b5780631d7bec201461018157806321f8a721146101b65780633667a10c146101df575b600080fd5b61016461014936600461083f565b6001602052600090815260409020546001600160a01b031681565b6040516001600160a01b0390911681526020015b60405180910390f35b6101a87f73656e696f724465706f736974546f6b656e000000000000000000000000000081565b604051908152602001610178565b6101646101c436600461083f565b6000908152600160205260409020546001600160a01b031690565b7f6a756e696f724465706f736974546f6b656e000000000000000000000000000060005260016020527f513766928abaf384be81348626f3b17edbc8dd2b8c24ecd2caf727fdafea3b61546001600160a01b0316610164565b6101a87f6c69717569646974794465706f736974457363726f770000000000000000000081565b6102676104b3565b005b6000546001600160a01b0316610164565b6101a87f766f79616765720000000000000000000000000000000000000000000000000081565b7f73656e696f724465706f736974546f6b656e000000000000000000000000000060005260016020527fbf5f2060a7840f106a23315cc01fb998cd19f1a9bf35a5e60d4b5b2ca26861e4546001600160a01b0316610164565b6102676103083660046108a4565b61051e565b6101a87f70726963654f7261636c6500000000000000000000000000000000000000000081565b6101a87f61636c4d616e616765720000000000000000000000000000000000000000000081565b7f61636c4d616e616765720000000000000000000000000000000000000000000060005260016020527f50362aefe6873a4dfa0d58bb33e8f2924531fae1db5665e48ca19f6ae96c24cc546001600160a01b0316610164565b6101646103c2366004610910565b6106b1565b7f766f79616765720000000000000000000000000000000000000000000000000060005260016020527f1092f9f6471fd078eeecde8dba8eba3d854da6a36df88e8710bc4c22c909b258546001600160a01b0316610164565b6101a87f6a756e696f724465706f736974546f6b656e000000000000000000000000000081565b61026761045536600461098c565b6106f5565b7f70726963654f7261636c6500000000000000000000000000000000000000000060005260016020527f9b34706f448fc31ba7dcadcf4825d0592caeeaec9baaf1b404f145adb5b3d281546001600160a01b0316610164565b6000546001600160a01b031633146105125760405162461bcd60e51b815260206004820181905260248201527f4f776e61626c653a2063616c6c6572206973206e6f7420746865206f776e657260448201526064015b60405180910390fd5b61051c60006107d7565b565b6000546001600160a01b031633146105785760405162461bcd60e51b815260206004820181905260248201527f4f776e61626c653a2063616c6c6572206973206e6f7420746865206f776e65726044820152606401610509565b8281146105c75760405162461bcd60e51b815260206004820152601860248201527f496e707574206c656e67746873206d757374206d6174636800000000000000006044820152606401610509565b60005b838110156106aa5760008585838181106105e6576105e66109bc565b9050602002013590506000848484818110610603576106036109bc565b9050602002016020810190610618919061098c565b60008381526001602090815260409182902080547fffffffffffffffffffffffff0000000000000000000000000000000000000000166001600160a01b0385169081179091558251868152918201529192507fefe884cc7f82a6cf3cf68f64221519dcf96b5cae9048e1bb008ee32cd05aaa91910160405180910390a1505080806106a2906109eb565b9150506105ca565b5050505050565b6000838152600160205260408120546001600160a01b03168383826106ea5760405162461bcd60e51b8152600401610509929190610a4b565b509095945050505050565b6000546001600160a01b0316331461074f5760405162461bcd60e51b815260206004820181905260248201527f4f776e61626c653a2063616c6c6572206973206e6f7420746865206f776e65726044820152606401610509565b6001600160a01b0381166107cb5760405162461bcd60e51b815260206004820152602660248201527f4f776e61626c653a206e6577206f776e657220697320746865207a65726f206160448201527f64647265737300000000000000000000000000000000000000000000000000006064820152608401610509565b6107d4816107d7565b50565b600080546001600160a01b038381167fffffffffffffffffffffffff0000000000000000000000000000000000000000831681178455604051919092169283917f8be0079c531659141344cd1fd0a4f28419497f9722a3daafe3b4186f6b6457e09190a35050565b60006020828403121561085157600080fd5b5035919050565b60008083601f84011261086a57600080fd5b50813567ffffffffffffffff81111561088257600080fd5b6020830191508360208260051b850101111561089d57600080fd5b9250929050565b600080600080604085870312156108ba57600080fd5b843567ffffffffffffffff808211156108d257600080fd5b6108de88838901610858565b909650945060208701359150808211156108f757600080fd5b5061090487828801610858565b95989497509550505050565b60008060006040848603121561092557600080fd5b83359250602084013567ffffffffffffffff8082111561094457600080fd5b818601915086601f83011261095857600080fd5b81358181111561096757600080fd5b87602082850101111561097957600080fd5b6020830194508093505050509250925092565b60006020828403121561099e57600080fd5b81356001600160a01b03811681146109b557600080fd5b9392505050565b7f4e487b7100000000000000000000000000000000000000000000000000000000600052603260045260246000fd5b60007fffffffffffffffffffffffffffffffffffffffffffffffffffffffffffffffff821415610a44577f4e487b7100000000000000000000000000000000000000000000000000000000600052601160045260246000fd5b5060010190565b60208152816020820152818360408301376000818301604090810191909152601f9092017fffffffffffffffffffffffffffffffffffffffffffffffffffffffffffffffe016010191905056fea2646970667358221220dfe720bbacdacecf05bf0b0f09ea3f24686d7122f0c1158b7508c0b0f8cce76d64736f6c63430008090033",
  "devdoc": {
    "kind": "dev",
    "methods": {
      "owner()": {
        "details": "Returns the address of the current owner."
      },
      "renounceOwnership()": {
        "details": "Leaves the contract without owner. It will not be possible to call `onlyOwner` functions anymore. Can only be called by the current owner. NOTE: Renouncing ownership will leave the contract without an owner, thereby removing any functionality that is only available to the owner."
      },
      "transferOwnership(address)": {
        "details": "Transfers ownership of the contract to a new account (`newOwner`). Can only be called by the current owner."
      }
    },
    "version": 1
  },
  "userdoc": {
    "kind": "user",
    "methods": {},
    "version": 1
  },
  "storageLayout": {
    "storage": [
      {
        "astId": 389,
        "contract": "contracts/component/infra/AddressResolver.sol:AddressResolver",
        "label": "_owner",
        "offset": 0,
        "slot": "0",
        "type": "t_address"
      },
      {
        "astId": 7488,
        "contract": "contracts/component/infra/AddressResolver.sol:AddressResolver",
        "label": "repository",
        "offset": 0,
        "slot": "1",
        "type": "t_mapping(t_bytes32,t_address)"
      }
    ],
    "types": {
      "t_address": {
        "encoding": "inplace",
        "label": "address",
        "numberOfBytes": "20"
      },
      "t_bytes32": {
        "encoding": "inplace",
        "label": "bytes32",
        "numberOfBytes": "32"
      },
      "t_mapping(t_bytes32,t_address)": {
        "encoding": "mapping",
        "key": "t_bytes32",
        "label": "mapping(bytes32 => address)",
        "numberOfBytes": "32",
        "value": "t_address"
      }
    }
  }
}