{
  "address": "0x128e12E4474f37aA52B63F031fb5ca7e0Cf7179F",
  "abi": [
    {
      "anonymous": false,
      "inputs": [
        {
          "indexed": false,
          "internalType": "bytes32",
          "name": "name",
          "type": "bytes32"
        },
        {
          "indexed": false,
          "internalType": "address",
          "name": "destination",
          "type": "address"
        }
      ],
      "name": "AddressImported",
      "type": "event"
    },
    {
      "anonymous": false,
      "inputs": [
        {
          "indexed": true,
          "internalType": "address",
          "name": "previousOwner",
          "type": "address"
        },
        {
          "indexed": true,
          "internalType": "address",
          "name": "newOwner",
          "type": "address"
        }
      ],
      "name": "OwnershipTransferred",
      "type": "event"
    },
    {
      "inputs": [],
      "name": "aclManagerName",
      "outputs": [
        {
          "internalType": "bytes32",
          "name": "",
          "type": "bytes32"
        }
      ],
      "stateMutability": "view",
      "type": "function"
    },
    {
      "inputs": [],
      "name": "claimOwnership",
      "outputs": [],
      "stateMutability": "nonpayable",
      "type": "function"
    },
    {
      "inputs": [],
      "name": "extCallACLProxyName",
      "outputs": [
        {
          "internalType": "bytes32",
          "name": "",
          "type": "bytes32"
        }
      ],
      "stateMutability": "view",
      "type": "function"
    },
    {
      "inputs": [
        {
          "internalType": "bytes32",
          "name": "name",
          "type": "bytes32"
        }
      ],
      "name": "getAddress",
      "outputs": [
        {
          "internalType": "address",
          "name": "",
          "type": "address"
        }
      ],
      "stateMutability": "view",
      "type": "function"
    },
    {
      "inputs": [],
      "name": "getLiquidityManagerProxy",
      "outputs": [
        {
          "internalType": "address",
          "name": "",
          "type": "address"
        }
      ],
      "stateMutability": "view",
      "type": "function"
    },
    {
      "inputs": [],
      "name": "getVaultStorage",
      "outputs": [
        {
          "internalType": "address",
          "name": "",
          "type": "address"
        }
      ],
      "stateMutability": "view",
      "type": "function"
    },
    {
      "inputs": [
        {
          "internalType": "bytes32[]",
          "name": "names",
          "type": "bytes32[]"
        },
        {
          "internalType": "address[]",
          "name": "destinations",
          "type": "address[]"
        }
      ],
      "name": "importAddresses",
      "outputs": [],
      "stateMutability": "nonpayable",
      "type": "function"
    },
    {
      "inputs": [],
      "name": "isOwner",
      "outputs": [
        {
          "internalType": "bool",
          "name": "",
          "type": "bool"
        }
      ],
      "stateMutability": "view",
      "type": "function"
    },
    {
      "inputs": [],
      "name": "liquidityManagerName",
      "outputs": [
        {
          "internalType": "bytes32",
          "name": "",
          "type": "bytes32"
        }
      ],
      "stateMutability": "view",
      "type": "function"
    },
    {
      "inputs": [],
      "name": "liquidityManagerProxyName",
      "outputs": [
        {
          "internalType": "bytes32",
          "name": "",
          "type": "bytes32"
        }
      ],
      "stateMutability": "view",
      "type": "function"
    },
    {
      "inputs": [],
      "name": "liquidityManagerStorageName",
      "outputs": [
        {
          "internalType": "bytes32",
          "name": "",
          "type": "bytes32"
        }
      ],
      "stateMutability": "view",
      "type": "function"
    },
    {
      "inputs": [],
      "name": "loanManagerName",
      "outputs": [
        {
          "internalType": "bytes32",
          "name": "",
          "type": "bytes32"
        }
      ],
      "stateMutability": "view",
      "type": "function"
    },
    {
      "inputs": [],
      "name": "owner",
      "outputs": [
        {
          "internalType": "address",
          "name": "",
          "type": "address"
        }
      ],
      "stateMutability": "view",
      "type": "function"
    },
    {
      "inputs": [],
      "name": "pendingOwner",
      "outputs": [
        {
          "internalType": "address",
          "name": "",
          "type": "address"
        }
      ],
      "stateMutability": "view",
      "type": "function"
    },
    {
      "inputs": [
        {
          "internalType": "bytes32",
          "name": "",
          "type": "bytes32"
        }
      ],
      "name": "repository",
      "outputs": [
        {
          "internalType": "address",
          "name": "",
          "type": "address"
        }
      ],
      "stateMutability": "view",
      "type": "function"
    },
    {
      "inputs": [
        {
          "internalType": "bytes32",
          "name": "name",
          "type": "bytes32"
        },
        {
          "internalType": "string",
          "name": "reason",
          "type": "string"
        }
      ],
      "name": "requireAndGetAddress",
      "outputs": [
        {
          "internalType": "address",
          "name": "",
          "type": "address"
        }
      ],
      "stateMutability": "view",
      "type": "function"
    },
    {
      "inputs": [],
      "name": "securityDepositTokenName",
      "outputs": [
        {
          "internalType": "bytes32",
          "name": "",
          "type": "bytes32"
        }
      ],
      "stateMutability": "view",
      "type": "function"
    },
    {
      "inputs": [],
      "name": "stableDebtTokenName",
      "outputs": [
        {
          "internalType": "bytes32",
          "name": "",
          "type": "bytes32"
        }
      ],
      "stateMutability": "view",
      "type": "function"
    },
    {
      "inputs": [
        {
          "internalType": "address",
          "name": "newOwner",
          "type": "address"
        }
      ],
      "name": "transferOwnership",
      "outputs": [],
      "stateMutability": "nonpayable",
      "type": "function"
    },
    {
      "inputs": [],
      "name": "vaultManagerProxyName",
      "outputs": [
        {
          "internalType": "bytes32",
          "name": "",
          "type": "bytes32"
        }
      ],
      "stateMutability": "view",
      "type": "function"
    },
    {
      "inputs": [],
      "name": "vaultStorageName",
      "outputs": [
        {
          "internalType": "bytes32",
          "name": "",
          "type": "bytes32"
        }
      ],
      "stateMutability": "view",
      "type": "function"
    }
  ],
  "transactionHash": "0x8760fd84c020c079bc528505cb42956280eb31f63f8cf498417bf322883343b1",
  "args": [],
  "numDeployments": 1,
  "solcInputHash": "276ea4d8e79ed810d93e460ad3940ca8",
  "bytecode": "0x608060405234801561001057600080fd5b50600080546001600160a01b0319163390811782556040519091907f8be0079c531659141344cd1fd0a4f28419497f9722a3daafe3b4186f6b6457e0908290a3610a298061005f6000396000f3fe608060405234801561001057600080fd5b50600436106101775760003560e01c80638f32d59b116100d8578063b9008f011161008c578063e014ddd111610066578063e014ddd11461046b578063e30c397814610492578063f2fde38b146104a557600080fd5b8063b9008f01146103d8578063cf80d21214610431578063dacb2d011461045857600080fd5b8063ab0b8f77116100bd578063ab0b8f7714610377578063ad64caed1461038a578063b33f917b146103b157600080fd5b80638f32d59b1461033257806399833d6d1461035057600080fd5b80636dd4bbf81161012f578063869c565711610114578063869c5657146102d15780638c942ffd146102f85780638da5cb5b1461031f57600080fd5b80636dd4bbf8146102515780637f007dd2146102aa57600080fd5b80634e71e0c8116101605780634e71e0c8146101eb5780635fc2f943146101f55780636023f8161461022a57600080fd5b8063187f79351461017c57806321f8a721146101c2575b600080fd5b6101a561018a36600461079a565b6002602052600090815260409020546001600160a01b031681565b6040516001600160a01b0390911681526020015b60405180910390f35b6101a56101d036600461079a565b6000908152600260205260409020546001600160a01b031690565b6101f36104b8565b005b61021c7f65787443616c6c41434c50726f7879000000000000000000000000000000000081565b6040519081526020016101b9565b61021c7f6c69717569646974794d616e616765720000000000000000000000000000000081565b7f6c69717569646974794d616e6167657250726f7879000000000000000000000060005260026020527f262fd4f38b5822977d01a826ef3341259f4bc3c300454a7928ff04a5e62e32a5546001600160a01b03166101a5565b61021c7f6c69717569646974794d616e6167657250726f7879000000000000000000000081565b61021c7f7661756c744d616e6167657250726f787900000000000000000000000000000081565b61021c7f7661756c7453746f72616765000000000000000000000000000000000000000081565b6000546101a5906001600160a01b031681565b6000546001600160a01b0316331460405190151581526020016101b9565b61021c7f737461626c6544656274546f6b656e000000000000000000000000000000000081565b6101f36103853660046107ff565b610540565b61021c7f6c6f616e4d616e6167657200000000000000000000000000000000000000000081565b61021c7f61636c4d616e616765720000000000000000000000000000000000000000000081565b7f7661756c7453746f72616765000000000000000000000000000000000000000060005260026020527f4948803233a464c16eb2e1719b77c1b8d7b74e70ef298731d024d0e7de20ac7f546001600160a01b03166101a5565b61021c7f73656375726974794465706f736974546f6b656e00000000000000000000000081565b6101a561046636600461086b565b6106cd565b61021c7f6c69717569646974794d616e6167657253746f7261676500000000000000000081565b6001546101a5906001600160a01b031681565b6101f36104b33660046108e7565b610711565b6001546001600160a01b031633146104cf57600080fd5b600154600080546040516001600160a01b0393841693909116917f8be0079c531659141344cd1fd0a4f28419497f9722a3daafe3b4186f6b6457e091a3600180546000805473ffffffffffffffffffffffffffffffffffffffff199081166001600160a01b03841617909155169055565b6000546001600160a01b0316331461059f5760405162461bcd60e51b815260206004820181905260248201527f4f776e61626c653a2063616c6c6572206973206e6f7420746865206f776e657260448201526064015b60405180910390fd5b8281146105ee5760405162461bcd60e51b815260206004820152601860248201527f496e707574206c656e67746873206d757374206d6174636800000000000000006044820152606401610596565b60005b838110156106c657600085858381811061060d5761060d610917565b905060200201359050600084848481811061062a5761062a610917565b905060200201602081019061063f91906108e7565b600083815260026020908152604091829020805473ffffffffffffffffffffffffffffffffffffffff19166001600160a01b0385169081179091558251868152918201529192507fefe884cc7f82a6cf3cf68f64221519dcf96b5cae9048e1bb008ee32cd05aaa91910160405180910390a1505080806106be90610946565b9150506105f1565b5050505050565b6000838152600260205260408120546001600160a01b03168383826107065760405162461bcd60e51b81526004016105969291906109a6565b509095945050505050565b6000546001600160a01b0316331461076b5760405162461bcd60e51b815260206004820181905260248201527f4f776e61626c653a2063616c6c6572206973206e6f7420746865206f776e65726044820152606401610596565b6001805473ffffffffffffffffffffffffffffffffffffffff19166001600160a01b0392909216919091179055565b6000602082840312156107ac57600080fd5b5035919050565b60008083601f8401126107c557600080fd5b50813567ffffffffffffffff8111156107dd57600080fd5b6020830191508360208260051b85010111156107f857600080fd5b9250929050565b6000806000806040858703121561081557600080fd5b843567ffffffffffffffff8082111561082d57600080fd5b610839888389016107b3565b9096509450602087013591508082111561085257600080fd5b5061085f878288016107b3565b95989497509550505050565b60008060006040848603121561088057600080fd5b83359250602084013567ffffffffffffffff8082111561089f57600080fd5b818601915086601f8301126108b357600080fd5b8135818111156108c257600080fd5b8760208285010111156108d457600080fd5b6020830194508093505050509250925092565b6000602082840312156108f957600080fd5b81356001600160a01b038116811461091057600080fd5b9392505050565b7f4e487b7100000000000000000000000000000000000000000000000000000000600052603260045260246000fd5b60007fffffffffffffffffffffffffffffffffffffffffffffffffffffffffffffffff82141561099f577f4e487b7100000000000000000000000000000000000000000000000000000000600052601160045260246000fd5b5060010190565b60208152816020820152818360408301376000818301604090810191909152601f9092017fffffffffffffffffffffffffffffffffffffffffffffffffffffffffffffffe016010191905056fea26469706673582212205c026f5a56206aefec42c8aa3a6a39066b82c43c941007a205b3225b742db2da64736f6c63430008090033",
  "devdoc": {
    "kind": "dev",
    "methods": {
      "claimOwnership()": {
        "details": "Allows the pendingOwner address to finalize the transfer."
      },
      "isOwner()": {
        "details": "Returns true if the caller is the current owner."
      },
      "transferOwnership(address)": {
        "details": "Allows the current owner to set the pendingOwner address.",
        "params": {
          "newOwner": "The address to transfer ownership to."
        }
      }
    },
    "version": 1
  },
  "userdoc": {
    "kind": "user",
    "methods": {},
    "version": 1
  },
  "storageLayout": {
    "storage": [
      {
        "astId": 8741,
        "contract": "contracts/component/infra/AddressResolver.sol:AddressResolver",
        "label": "owner",
        "offset": 0,
        "slot": "0",
        "type": "t_address"
      },
      {
        "astId": 8743,
        "contract": "contracts/component/infra/AddressResolver.sol:AddressResolver",
        "label": "pendingOwner",
        "offset": 0,
        "slot": "1",
        "type": "t_address"
      },
      {
        "astId": 728,
        "contract": "contracts/component/infra/AddressResolver.sol:AddressResolver",
        "label": "repository",
        "offset": 0,
        "slot": "2",
        "type": "t_mapping(t_bytes32,t_address)"
      }
    ],
    "types": {
      "t_address": {
        "encoding": "inplace",
        "label": "address",
        "numberOfBytes": "20"
      },
      "t_bytes32": {
        "encoding": "inplace",
        "label": "bytes32",
        "numberOfBytes": "32"
      },
      "t_mapping(t_bytes32,t_address)": {
        "encoding": "mapping",
        "key": "t_bytes32",
        "label": "mapping(bytes32 => address)",
        "numberOfBytes": "32",
        "value": "t_address"
      }
    }
  }
}