{
  "address": "0x0f42Bf05696da8B34cB6e77e6656d08740032653",
  "abi": [
    {
      "anonymous": false,
      "inputs": [
        {
          "indexed": false,
          "internalType": "bytes32",
          "name": "name",
          "type": "bytes32"
        },
        {
          "indexed": false,
          "internalType": "address",
          "name": "destination",
          "type": "address"
        }
      ],
      "name": "AddressImported",
      "type": "event"
    },
    {
      "anonymous": false,
      "inputs": [
        {
          "indexed": true,
          "internalType": "address",
          "name": "previousOwner",
          "type": "address"
        },
        {
          "indexed": true,
          "internalType": "address",
          "name": "newOwner",
          "type": "address"
        }
      ],
      "name": "OwnershipTransferred",
      "type": "event"
    },
    {
      "inputs": [],
      "name": "aclManagerName",
      "outputs": [
        {
          "internalType": "bytes32",
          "name": "",
          "type": "bytes32"
        }
      ],
      "stateMutability": "view",
      "type": "function"
    },
    {
      "inputs": [],
      "name": "extCallACLProxyName",
      "outputs": [
        {
          "internalType": "bytes32",
          "name": "",
          "type": "bytes32"
        }
      ],
      "stateMutability": "view",
      "type": "function"
    },
    {
      "inputs": [],
      "name": "getAclManager",
      "outputs": [
        {
          "internalType": "address",
          "name": "",
          "type": "address"
        }
      ],
      "stateMutability": "view",
      "type": "function"
    },
    {
      "inputs": [
        {
          "internalType": "bytes32",
          "name": "name",
          "type": "bytes32"
        }
      ],
      "name": "getAddress",
      "outputs": [
        {
          "internalType": "address",
          "name": "",
          "type": "address"
        }
      ],
      "stateMutability": "view",
      "type": "function"
    },
    {
      "inputs": [],
      "name": "getExtCallProxy",
      "outputs": [
        {
          "internalType": "address",
          "name": "",
          "type": "address"
        }
      ],
      "stateMutability": "view",
      "type": "function"
    },
    {
      "inputs": [],
      "name": "getJuniorDepositToken",
      "outputs": [
        {
          "internalType": "address",
          "name": "",
          "type": "address"
        }
      ],
      "stateMutability": "view",
      "type": "function"
    },
    {
      "inputs": [],
      "name": "getLiquidityManagerProxy",
      "outputs": [
        {
          "internalType": "address",
          "name": "",
          "type": "address"
        }
      ],
      "stateMutability": "view",
      "type": "function"
    },
    {
      "inputs": [],
      "name": "getLiquidityManagerStorage",
      "outputs": [
        {
          "internalType": "address",
          "name": "",
          "type": "address"
        }
      ],
      "stateMutability": "view",
      "type": "function"
    },
    {
      "inputs": [],
      "name": "getLoanManager",
      "outputs": [
        {
          "internalType": "address",
          "name": "",
          "type": "address"
        }
      ],
      "stateMutability": "view",
      "type": "function"
    },
    {
      "inputs": [],
      "name": "getLoanManagerProxy",
      "outputs": [
        {
          "internalType": "address",
          "name": "",
          "type": "address"
        }
      ],
      "stateMutability": "view",
      "type": "function"
    },
    {
      "inputs": [],
      "name": "getPriceOracle",
      "outputs": [
        {
          "internalType": "address",
          "name": "",
          "type": "address"
        }
      ],
      "stateMutability": "view",
      "type": "function"
    },
    {
      "inputs": [],
      "name": "getSeniorDepositToken",
      "outputs": [
        {
          "internalType": "address",
          "name": "",
          "type": "address"
        }
      ],
      "stateMutability": "view",
      "type": "function"
    },
    {
      "inputs": [],
      "name": "getVaultManager",
      "outputs": [
        {
          "internalType": "address",
          "name": "",
          "type": "address"
        }
      ],
      "stateMutability": "view",
      "type": "function"
    },
    {
      "inputs": [],
      "name": "getVaultManagerProxy",
      "outputs": [
        {
          "internalType": "address",
          "name": "",
          "type": "address"
        }
      ],
      "stateMutability": "view",
      "type": "function"
    },
    {
      "inputs": [],
      "name": "getVaultStorage",
      "outputs": [
        {
          "internalType": "address",
          "name": "",
          "type": "address"
        }
      ],
      "stateMutability": "view",
      "type": "function"
    },
    {
      "inputs": [],
      "name": "getVoyage",
      "outputs": [
        {
          "internalType": "address",
          "name": "",
          "type": "address"
        }
      ],
      "stateMutability": "view",
      "type": "function"
    },
    {
      "inputs": [
        {
          "internalType": "bytes32[]",
          "name": "names",
          "type": "bytes32[]"
        },
        {
          "internalType": "address[]",
          "name": "destinations",
          "type": "address[]"
        }
      ],
      "name": "importAddresses",
      "outputs": [],
      "stateMutability": "nonpayable",
      "type": "function"
    },
    {
      "inputs": [],
      "name": "juniorDepositTokenName",
      "outputs": [
        {
          "internalType": "bytes32",
          "name": "",
          "type": "bytes32"
        }
      ],
      "stateMutability": "view",
      "type": "function"
    },
    {
      "inputs": [],
      "name": "liquidityDepositEscrowName",
      "outputs": [
        {
          "internalType": "bytes32",
          "name": "",
          "type": "bytes32"
        }
      ],
      "stateMutability": "view",
      "type": "function"
    },
    {
      "inputs": [],
      "name": "liquidityManagerName",
      "outputs": [
        {
          "internalType": "bytes32",
          "name": "",
          "type": "bytes32"
        }
      ],
      "stateMutability": "view",
      "type": "function"
    },
    {
      "inputs": [],
      "name": "liquidityManagerProxyName",
      "outputs": [
        {
          "internalType": "bytes32",
          "name": "",
          "type": "bytes32"
        }
      ],
      "stateMutability": "view",
      "type": "function"
    },
    {
      "inputs": [],
      "name": "liquidityManagerStorageName",
      "outputs": [
        {
          "internalType": "bytes32",
          "name": "",
          "type": "bytes32"
        }
      ],
      "stateMutability": "view",
      "type": "function"
    },
    {
      "inputs": [],
      "name": "loanManagerName",
      "outputs": [
        {
          "internalType": "bytes32",
          "name": "",
          "type": "bytes32"
        }
      ],
      "stateMutability": "view",
      "type": "function"
    },
    {
      "inputs": [],
      "name": "loanManagerProxyName",
      "outputs": [
        {
          "internalType": "bytes32",
          "name": "",
          "type": "bytes32"
        }
      ],
      "stateMutability": "view",
      "type": "function"
    },
    {
      "inputs": [],
      "name": "owner",
      "outputs": [
        {
          "internalType": "address",
          "name": "",
          "type": "address"
        }
      ],
      "stateMutability": "view",
      "type": "function"
    },
    {
      "inputs": [],
      "name": "priceOracleName",
      "outputs": [
        {
          "internalType": "bytes32",
          "name": "",
          "type": "bytes32"
        }
      ],
      "stateMutability": "view",
      "type": "function"
    },
    {
      "inputs": [],
      "name": "renounceOwnership",
      "outputs": [],
      "stateMutability": "nonpayable",
      "type": "function"
    },
    {
      "inputs": [
        {
          "internalType": "bytes32",
          "name": "",
          "type": "bytes32"
        }
      ],
      "name": "repository",
      "outputs": [
        {
          "internalType": "address",
          "name": "",
          "type": "address"
        }
      ],
      "stateMutability": "view",
      "type": "function"
    },
    {
      "inputs": [
        {
          "internalType": "bytes32",
          "name": "name",
          "type": "bytes32"
        },
        {
          "internalType": "string",
          "name": "reason",
          "type": "string"
        }
      ],
      "name": "requireAndGetAddress",
      "outputs": [
        {
          "internalType": "address",
          "name": "",
          "type": "address"
        }
      ],
      "stateMutability": "view",
      "type": "function"
    },
    {
      "inputs": [],
      "name": "securityDepositTokenName",
      "outputs": [
        {
          "internalType": "bytes32",
          "name": "",
          "type": "bytes32"
        }
      ],
      "stateMutability": "view",
      "type": "function"
    },
    {
      "inputs": [],
      "name": "seniorDepositTokenName",
      "outputs": [
        {
          "internalType": "bytes32",
          "name": "",
          "type": "bytes32"
        }
      ],
      "stateMutability": "view",
      "type": "function"
    },
    {
      "inputs": [
        {
          "internalType": "address",
          "name": "newOwner",
          "type": "address"
        }
      ],
      "name": "transferOwnership",
      "outputs": [],
      "stateMutability": "nonpayable",
      "type": "function"
    },
    {
      "inputs": [],
      "name": "vaultManagerName",
      "outputs": [
        {
          "internalType": "bytes32",
          "name": "",
          "type": "bytes32"
        }
      ],
      "stateMutability": "view",
      "type": "function"
    },
    {
      "inputs": [],
      "name": "vaultManagerProxyName",
      "outputs": [
        {
          "internalType": "bytes32",
          "name": "",
          "type": "bytes32"
        }
      ],
      "stateMutability": "view",
      "type": "function"
    },
    {
      "inputs": [],
      "name": "vaultStorageName",
      "outputs": [
        {
          "internalType": "bytes32",
          "name": "",
          "type": "bytes32"
        }
      ],
      "stateMutability": "view",
      "type": "function"
    },
    {
      "inputs": [],
      "name": "voyageName",
      "outputs": [
        {
          "internalType": "bytes32",
          "name": "",
          "type": "bytes32"
        }
      ],
      "stateMutability": "view",
      "type": "function"
    }
  ],
  "transactionHash": "0x8995e75fd1671700a16e69ce4d38a9b48902a40c913c9810b22d7badce49ad0e",
  "args": [],
  "numDeployments": 2,
  "solcInputHash": "12f50c75a18b6f714019b390413b1deb",
  "bytecode": "0x608060405234801561001057600080fd5b5061001a3361001f565b61006f565b600080546001600160a01b038381166001600160a01b0319831681178455604051919092169283917f8be0079c531659141344cd1fd0a4f28419497f9722a3daafe3b4186f6b6457e09190a35050565b6110428061007e6000396000f3fe608060405234801561001057600080fd5b506004361061025c5760003560e01c80639894c89e11610145578063c2c855c2116100bd578063e014ddd11161008c578063f0da7f1f11610071578063f0da7f1f14610994578063f2fde38b146109bb578063fca513a8146109ce57600080fd5b8063e014ddd114610914578063e3e24cca1461093b57600080fd5b8063c2c855c214610828578063cf80d21214610881578063dacb2d01146108a8578063de5185e2146108bb57600080fd5b8063ac66e24811610114578063b33f917b116100f9578063b33f917b1461074f578063b9008f0114610776578063b9bbb6f5146107cf57600080fd5b8063ac66e24814610701578063ad64caed1461072857600080fd5b80639894c89e14610615578063a47a94c01461063c578063a5c84e3714610695578063ab0b8f77146106ee57600080fd5b80636d200fcf116101d85780637f007dd2116101a75780638c942ffd1161018c5780638c942ffd146105b65780638da5cb5b146105dd57806396711d58146105ee57600080fd5b80637f007dd214610568578063869c56571461058f57600080fd5b80636d200fcf146104855780636dd4bbf8146104ac578063715018a614610505578063767ed9331461050f57600080fd5b80633667a10c1161022f5780635fc2f943116102145780635fc2f943146103de5780636023f81614610405578063648cd56e1461042c57600080fd5b80633667a10c1461032c57806340ccb0ae1461038557600080fd5b80631385437614610261578063187f79351461029b5780631d7bec20146102dc57806321f8a72114610303575b600080fd5b6102887f6c6f616e4d616e6167657250726f78790000000000000000000000000000000081565b6040519081526020015b60405180910390f35b6102c46102a9366004610db3565b6001602052600090815260409020546001600160a01b031681565b6040516001600160a01b039091168152602001610292565b6102887f73656e696f724465706f736974546f6b656e000000000000000000000000000081565b6102c4610311366004610db3565b6000908152600160205260409020546001600160a01b031690565b7f6a756e696f724465706f736974546f6b656e000000000000000000000000000060005260016020527f513766928abaf384be81348626f3b17edbc8dd2b8c24ecd2caf727fdafea3b61546001600160a01b03166102c4565b7f7661756c744d616e6167657250726f787900000000000000000000000000000060005260016020527fb2a6a48c3ef4da8aff67fd3a98db24790461e98e17dbabedf96c97b06e92adfe546001600160a01b03166102c4565b6102887f65787443616c6c41434c50726f7879000000000000000000000000000000000081565b6102887f6c69717569646974794d616e616765720000000000000000000000000000000081565b7f6c69717569646974794d616e6167657253746f7261676500000000000000000060005260016020527f12bd3486fa85d9ad18b001718fd3e1a5f6e85eea01dfa1fc7c832398726326e2546001600160a01b03166102c4565b6102887f6c69717569646974794465706f736974457363726f770000000000000000000081565b7f6c69717569646974794d616e6167657250726f7879000000000000000000000060005260016020527f13eedf618ce641aba0189f04510b920cc56b10fa2a74945df0bdb43d01f8aacd546001600160a01b03166102c4565b61050d610a27565b005b7f65787443616c6c41434c50726f7879000000000000000000000000000000000060005260016020527f50a1f50ab68b09f364646d840ca4dc9da55e7704df416c93126ff75bb97aa8de546001600160a01b03166102c4565b6102887f6c69717569646974794d616e6167657250726f7879000000000000000000000081565b6102887f7661756c744d616e6167657250726f787900000000000000000000000000000081565b6102887f7661756c7453746f72616765000000000000000000000000000000000000000081565b6000546001600160a01b03166102c4565b6102887f766f79616765720000000000000000000000000000000000000000000000000081565b6102887f7661756c744d616e61676572000000000000000000000000000000000000000081565b7f73656e696f724465706f736974546f6b656e000000000000000000000000000060005260016020527fbf5f2060a7840f106a23315cc01fb998cd19f1a9bf35a5e60d4b5b2ca26861e4546001600160a01b03166102c4565b7f6c6f616e4d616e6167657250726f78790000000000000000000000000000000060005260016020527ffbe3b11fe414a628aad8bf4abeba4bab5ccf0ce3cb1d456235a6a515e1504ad5546001600160a01b03166102c4565b61050d6106fc366004610e18565b610a92565b6102887f70726963654f7261636c6500000000000000000000000000000000000000000081565b6102887f6c6f616e4d616e6167657200000000000000000000000000000000000000000081565b6102887f61636c4d616e616765720000000000000000000000000000000000000000000081565b7f7661756c7453746f72616765000000000000000000000000000000000000000060005260016020527fb6be55c2ebc2902b16d52388537d7a22da8c571de40c1af24b3c35994695bc09546001600160a01b03166102c4565b7f7661756c744d616e61676572000000000000000000000000000000000000000060005260016020527fe92334f0d4bf73a433b32efd72933dba38a37893cfebac8709c17b97b99c37d7546001600160a01b03166102c4565b7f61636c4d616e616765720000000000000000000000000000000000000000000060005260016020527f50362aefe6873a4dfa0d58bb33e8f2924531fae1db5665e48ca19f6ae96c24cc546001600160a01b03166102c4565b6102887f73656375726974794465706f736974546f6b656e00000000000000000000000081565b6102c46108b6366004610e84565b610c25565b7f766f79616765720000000000000000000000000000000000000000000000000060005260016020527f1092f9f6471fd078eeecde8dba8eba3d854da6a36df88e8710bc4c22c909b258546001600160a01b03166102c4565b6102887f6c69717569646974794d616e6167657253746f7261676500000000000000000081565b7f6c6f616e4d616e6167657200000000000000000000000000000000000000000060005260016020527f16106cae4cf520a1dee49ee18f0ad32ce2de49c0062de4541f7f2ebfd0b7a50b546001600160a01b03166102c4565b6102887f6a756e696f724465706f736974546f6b656e000000000000000000000000000081565b61050d6109c9366004610f00565b610c69565b7f70726963654f7261636c6500000000000000000000000000000000000000000060005260016020527f9b34706f448fc31ba7dcadcf4825d0592caeeaec9baaf1b404f145adb5b3d281546001600160a01b03166102c4565b6000546001600160a01b03163314610a865760405162461bcd60e51b815260206004820181905260248201527f4f776e61626c653a2063616c6c6572206973206e6f7420746865206f776e657260448201526064015b60405180910390fd5b610a906000610d4b565b565b6000546001600160a01b03163314610aec5760405162461bcd60e51b815260206004820181905260248201527f4f776e61626c653a2063616c6c6572206973206e6f7420746865206f776e65726044820152606401610a7d565b828114610b3b5760405162461bcd60e51b815260206004820152601860248201527f496e707574206c656e67746873206d757374206d6174636800000000000000006044820152606401610a7d565b60005b83811015610c1e576000858583818110610b5a57610b5a610f30565b9050602002013590506000848484818110610b7757610b77610f30565b9050602002016020810190610b8c9190610f00565b60008381526001602090815260409182902080547fffffffffffffffffffffffff0000000000000000000000000000000000000000166001600160a01b0385169081179091558251868152918201529192507fefe884cc7f82a6cf3cf68f64221519dcf96b5cae9048e1bb008ee32cd05aaa91910160405180910390a150508080610c1690610f5f565b915050610b3e565b5050505050565b6000838152600160205260408120546001600160a01b0316838382610c5e5760405162461bcd60e51b8152600401610a7d929190610fbf565b509095945050505050565b6000546001600160a01b03163314610cc35760405162461bcd60e51b815260206004820181905260248201527f4f776e61626c653a2063616c6c6572206973206e6f7420746865206f776e65726044820152606401610a7d565b6001600160a01b038116610d3f5760405162461bcd60e51b815260206004820152602660248201527f4f776e61626c653a206e6577206f776e657220697320746865207a65726f206160448201527f64647265737300000000000000000000000000000000000000000000000000006064820152608401610a7d565b610d4881610d4b565b50565b600080546001600160a01b038381167fffffffffffffffffffffffff0000000000000000000000000000000000000000831681178455604051919092169283917f8be0079c531659141344cd1fd0a4f28419497f9722a3daafe3b4186f6b6457e09190a35050565b600060208284031215610dc557600080fd5b5035919050565b60008083601f840112610dde57600080fd5b50813567ffffffffffffffff811115610df657600080fd5b6020830191508360208260051b8501011115610e1157600080fd5b9250929050565b60008060008060408587031215610e2e57600080fd5b843567ffffffffffffffff80821115610e4657600080fd5b610e5288838901610dcc565b90965094506020870135915080821115610e6b57600080fd5b50610e7887828801610dcc565b95989497509550505050565b600080600060408486031215610e9957600080fd5b83359250602084013567ffffffffffffffff80821115610eb857600080fd5b818601915086601f830112610ecc57600080fd5b813581811115610edb57600080fd5b876020828501011115610eed57600080fd5b6020830194508093505050509250925092565b600060208284031215610f1257600080fd5b81356001600160a01b0381168114610f2957600080fd5b9392505050565b7f4e487b7100000000000000000000000000000000000000000000000000000000600052603260045260246000fd5b60007fffffffffffffffffffffffffffffffffffffffffffffffffffffffffffffffff821415610fb8577f4e487b7100000000000000000000000000000000000000000000000000000000600052601160045260246000fd5b5060010190565b60208152816020820152818360408301376000818301604090810191909152601f9092017fffffffffffffffffffffffffffffffffffffffffffffffffffffffffffffffe016010191905056fea26469706673582212206b029929160bae71c24f18246b20c89db4948bdda2c10d6a04aa02bbdc2b88bd64736f6c63430008090033",
  "devdoc": {
    "kind": "dev",
    "methods": {
      "owner()": {
        "details": "Returns the address of the current owner."
      },
      "renounceOwnership()": {
        "details": "Leaves the contract without owner. It will not be possible to call `onlyOwner` functions anymore. Can only be called by the current owner. NOTE: Renouncing ownership will leave the contract without an owner, thereby removing any functionality that is only available to the owner."
      },
      "transferOwnership(address)": {
        "details": "Transfers ownership of the contract to a new account (`newOwner`). Can only be called by the current owner."
      }
    },
    "version": 1
  },
  "userdoc": {
    "kind": "user",
    "methods": {},
    "version": 1
  },
  "storageLayout": {
    "storage": [
      {
        "astId": 389,
        "contract": "contracts/component/infra/AddressResolver.sol:AddressResolver",
        "label": "_owner",
        "offset": 0,
        "slot": "0",
        "type": "t_address"
      },
      {
        "astId": 4586,
        "contract": "contracts/component/infra/AddressResolver.sol:AddressResolver",
        "label": "repository",
        "offset": 0,
        "slot": "1",
        "type": "t_mapping(t_bytes32,t_address)"
      }
    ],
    "types": {
      "t_address": {
        "encoding": "inplace",
        "label": "address",
        "numberOfBytes": "20"
      },
      "t_bytes32": {
        "encoding": "inplace",
        "label": "bytes32",
        "numberOfBytes": "32"
      },
      "t_mapping(t_bytes32,t_address)": {
        "encoding": "mapping",
        "key": "t_bytes32",
        "label": "mapping(bytes32 => address)",
        "numberOfBytes": "32",
        "value": "t_address"
      }
    }
  }
}