{
  "address": "0xC86294B1350CF353E75Cb7f99a8460b44009d207",
  "abi": [
    {
      "inputs": [
        {
          "internalType": "address",
          "name": "_asset",
          "type": "address"
        }
      ],
      "name": "getDepositTokens",
      "outputs": [
        {
          "internalType": "address",
          "name": "senior",
          "type": "address"
        },
        {
          "internalType": "address",
          "name": "junior",
          "type": "address"
        }
      ],
      "stateMutability": "view",
      "type": "function"
    },
    {
      "inputs": [
        {
          "internalType": "address",
          "name": "_vault",
          "type": "address"
        },
        {
          "internalType": "address",
          "name": "_reserve",
          "type": "address"
        },
        {
          "internalType": "uint256",
          "name": "_drawDownId",
          "type": "uint256"
        }
      ],
      "name": "getDrawDownDetail",
      "outputs": [
        {
          "components": [
            {
              "internalType": "uint256",
              "name": "principal",
              "type": "uint256"
            },
            {
              "internalType": "uint256",
              "name": "term",
              "type": "uint256"
            },
            {
              "internalType": "uint256",
              "name": "epoch",
              "type": "uint256"
            },
            {
              "internalType": "uint256",
              "name": "nper",
              "type": "uint256"
            },
            {
              "internalType": "address",
              "name": "reserve",
              "type": "address"
            },
            {
              "components": [
                {
                  "internalType": "uint256",
                  "name": "principal",
                  "type": "uint256"
                },
                {
                  "internalType": "uint256",
                  "name": "interest",
                  "type": "uint256"
                },
                {
                  "internalType": "uint256",
                  "name": "pmt",
                  "type": "uint256"
                }
              ],
              "internalType": "struct PMT",
              "name": "pmt",
              "type": "tuple"
            },
            {
              "internalType": "uint256",
              "name": "apr",
              "type": "uint256"
            },
            {
              "internalType": "uint256",
              "name": "borrowAt",
              "type": "uint256"
            },
            {
              "internalType": "uint256",
              "name": "nextPaymentDue",
              "type": "uint256"
            },
            {
              "internalType": "uint256",
              "name": "totalPrincipalPaid",
              "type": "uint256"
            },
            {
              "internalType": "uint256",
              "name": "totalInterestPaid",
              "type": "uint256"
            },
            {
              "internalType": "uint256",
              "name": "paidTimes",
              "type": "uint256"
            }
          ],
          "internalType": "struct LibLoan.DebtDetail",
          "name": "",
          "type": "tuple"
        }
      ],
      "stateMutability": "view",
      "type": "function"
    },
    {
      "inputs": [
        {
          "internalType": "address",
          "name": "_reserve",
          "type": "address"
        }
      ],
      "name": "getPoolConfiguration",
      "outputs": [
        {
          "components": [
            {
              "internalType": "uint256",
              "name": "marginRequirement",
              "type": "uint256"
            },
            {
              "internalType": "uint256",
              "name": "minMargin",
              "type": "uint256"
            },
            {
              "internalType": "uint256",
              "name": "maxMargin",
              "type": "uint256"
            },
            {
              "internalType": "uint256",
              "name": "loanTenure",
              "type": "uint256"
            },
            {
              "internalType": "uint256",
              "name": "optimalTrancheRatio",
              "type": "uint256"
            },
            {
              "internalType": "uint256",
              "name": "optimalIncomeRatio",
              "type": "uint256"
            },
            {
              "internalType": "bool",
              "name": "isActive",
              "type": "bool"
            }
          ],
          "internalType": "struct DataProviderFacet.PoolConfiguration",
          "name": "",
          "type": "tuple"
        }
      ],
      "stateMutability": "view",
      "type": "function"
    },
    {
      "inputs": [
        {
          "internalType": "address",
          "name": "underlyingAsset",
          "type": "address"
        }
      ],
      "name": "getPoolData",
      "outputs": [
        {
          "components": [
            {
              "internalType": "uint256",
              "name": "totalLiquidity",
              "type": "uint256"
            },
            {
              "internalType": "uint256",
              "name": "juniorLiquidity",
              "type": "uint256"
            },
            {
              "internalType": "uint256",
              "name": "seniorLiquidity",
              "type": "uint256"
            },
            {
              "internalType": "uint256",
              "name": "juniorLiquidityRate",
              "type": "uint256"
            },
            {
              "internalType": "uint256",
              "name": "seniorLiquidityRate",
              "type": "uint256"
            },
            {
              "internalType": "uint256",
              "name": "totalDebt",
              "type": "uint256"
            },
            {
              "internalType": "uint256",
              "name": "utilizationRate",
              "type": "uint256"
            },
            {
              "internalType": "uint256",
              "name": "trancheRatio",
              "type": "uint256"
            },
            {
              "internalType": "uint256",
              "name": "decimals",
              "type": "uint256"
            },
            {
              "internalType": "string",
              "name": "symbol",
              "type": "string"
            },
            {
              "internalType": "bool",
              "name": "isActive",
              "type": "bool"
            }
          ],
          "internalType": "struct DataProviderFacet.PoolData",
          "name": "",
          "type": "tuple"
        }
      ],
      "stateMutability": "view",
      "type": "function"
    },
    {
      "inputs": [],
      "name": "getPoolTokens",
      "outputs": [
        {
          "components": [
            {
              "internalType": "string",
              "name": "symbol",
              "type": "string"
            },
            {
              "internalType": "address",
              "name": "tokenAddress",
              "type": "address"
            }
          ],
          "internalType": "struct DataProviderFacet.FungibleTokenData[]",
          "name": "tokens",
          "type": "tuple[]"
        }
      ],
      "stateMutability": "view",
      "type": "function"
    },
    {
      "inputs": [
        {
          "internalType": "address",
          "name": "_valut",
          "type": "address"
        },
        {
          "internalType": "address",
          "name": "_reserve",
          "type": "address"
        },
        {
          "internalType": "uint256",
          "name": "_drawDownId",
          "type": "uint256"
        }
      ],
      "name": "getRepayment",
      "outputs": [
        {
          "components": [
            {
              "internalType": "uint256",
              "name": "principal",
              "type": "uint256"
            },
            {
              "internalType": "uint256",
              "name": "interest",
              "type": "uint256"
            },
            {
              "internalType": "uint256",
              "name": "total",
              "type": "uint256"
            },
            {
              "internalType": "uint40",
              "name": "paidAt",
              "type": "uint40"
            },
            {
              "internalType": "bool",
              "name": "isLiquidated",
              "type": "bool"
            }
          ],
          "internalType": "struct RepaymentData[]",
          "name": "",
          "type": "tuple[]"
        }
      ],
      "stateMutability": "view",
      "type": "function"
    },
    {
      "inputs": [
        {
          "internalType": "address",
          "name": "_reserve",
          "type": "address"
        },
        {
          "internalType": "address",
          "name": "_user",
          "type": "address"
        }
      ],
      "name": "getUserPoolData",
      "outputs": [
        {
          "components": [
            {
              "internalType": "uint256",
              "name": "juniorTrancheBalance",
              "type": "uint256"
            },
            {
              "internalType": "uint256",
              "name": "withdrawableJuniorTrancheBalance",
              "type": "uint256"
            },
            {
              "internalType": "uint256",
              "name": "seniorTrancheBalance",
              "type": "uint256"
            },
            {
              "internalType": "uint256",
              "name": "withdrawableSeniorTrancheBalance",
              "type": "uint256"
            },
            {
              "internalType": "uint256",
              "name": "decimals",
              "type": "uint256"
            }
          ],
          "internalType": "struct DataProviderFacet.UserPoolData",
          "name": "",
          "type": "tuple"
        }
      ],
      "stateMutability": "view",
      "type": "function"
    },
    {
      "inputs": [
        {
          "internalType": "address",
          "name": "_user",
          "type": "address"
        }
      ],
      "name": "getVault",
      "outputs": [
        {
          "internalType": "address",
          "name": "",
          "type": "address"
        }
      ],
      "stateMutability": "view",
      "type": "function"
    },
    {
      "inputs": [
        {
          "internalType": "address",
          "name": "_reserve",
          "type": "address"
        }
      ],
      "name": "getVaultConfig",
      "outputs": [
        {
          "components": [
            {
              "internalType": "uint256",
              "name": "minMargin",
              "type": "uint256"
            },
            {
              "internalType": "uint256",
              "name": "maxMargin",
              "type": "uint256"
            },
            {
              "internalType": "uint256",
              "name": "marginRequirement",
              "type": "uint256"
            }
          ],
          "internalType": "struct VaultConfig",
          "name": "",
          "type": "tuple"
        }
      ],
      "stateMutability": "view",
      "type": "function"
    },
    {
      "inputs": [
        {
          "internalType": "address",
          "name": "_vault",
          "type": "address"
        },
        {
          "internalType": "address",
          "name": "_reserve",
          "type": "address"
        }
      ],
      "name": "getVaultData",
      "outputs": [
        {
          "components": [
            {
              "internalType": "uint256",
              "name": "overallLiquidityRate",
              "type": "uint256"
            },
            {
              "internalType": "uint256",
              "name": "juniorLiquidityRate",
              "type": "uint256"
            },
            {
              "internalType": "uint256",
              "name": "seniorLiquidityRate",
              "type": "uint256"
            },
            {
              "internalType": "uint256",
              "name": "totalDebt",
              "type": "uint256"
            },
            {
              "components": [
                {
                  "internalType": "uint256",
                  "name": "head",
                  "type": "uint256"
                },
                {
                  "internalType": "uint256",
                  "name": "tail",
                  "type": "uint256"
                }
              ],
              "internalType": "struct DrawDownList",
              "name": "drawDownList",
              "type": "tuple"
            },
            {
              "internalType": "uint256",
              "name": "totalMargin",
              "type": "uint256"
            },
            {
              "internalType": "uint256",
              "name": "withdrawableSecurityDeposit",
              "type": "uint256"
            },
            {
              "internalType": "uint256",
              "name": "creditLimit",
              "type": "uint256"
            },
            {
              "internalType": "uint256",
              "name": "spendableBalance",
              "type": "uint256"
            },
            {
              "internalType": "uint256",
              "name": "gav",
              "type": "uint256"
            },
            {
              "internalType": "uint256",
              "name": "ltv",
              "type": "uint256"
            },
            {
              "internalType": "uint256",
              "name": "healthFactor",
              "type": "uint256"
            }
          ],
          "internalType": "struct VaultData",
          "name": "",
          "type": "tuple"
        }
      ],
      "stateMutability": "view",
      "type": "function"
    },
    {
      "inputs": [
        {
          "internalType": "address",
          "name": "_user",
          "type": "address"
        },
        {
          "internalType": "address",
          "name": "_reserve",
          "type": "address"
        }
      ],
      "name": "pendingJuniorWithdrawals",
      "outputs": [
        {
          "internalType": "uint256[]",
          "name": "",
          "type": "uint256[]"
        },
        {
          "internalType": "uint256[]",
          "name": "",
          "type": "uint256[]"
        }
      ],
      "stateMutability": "view",
      "type": "function"
    },
    {
      "inputs": [
        {
          "internalType": "address",
          "name": "_user",
          "type": "address"
        },
        {
          "internalType": "address",
          "name": "_reserve",
          "type": "address"
        }
      ],
      "name": "pendingSeniorWithdrawals",
      "outputs": [
        {
          "internalType": "uint256[]",
          "name": "",
          "type": "uint256[]"
        },
        {
          "internalType": "uint256[]",
          "name": "",
          "type": "uint256[]"
        }
      ],
      "stateMutability": "view",
      "type": "function"
    }
  ],
  "args": [],
  "numDeployments": 1,
  "solcInputHash": "9e31516522b1cfe477b23cf57050ac2a",
  "bytecode": "0x608060405234801561001057600080fd5b506128e7806100206000396000f3fe608060405234801561001057600080fd5b50600436106100d45760003560e01c80637c7c983d116100815780639207216d1161005b5780639207216d14610292578063b2e7f0f2146102b2578063de1eb9a3146102c557600080fd5b80637c7c983d1461022a57806389c065681461024a5780638f70cc441461025f57600080fd5b806348c3c7e3116100b257806348c3c7e31461014a578063491db4a21461016a5780636f44bb69146101bf57600080fd5b80630eb9af38146100d957806310e7841d1461010957806313d21cdf1461012a575b600080fd5b6100ec6100e7366004612156565b6102e5565b6040516001600160a01b0390911681526020015b60405180910390f35b61011c610117366004612171565b610309565b6040516101009291906121df565b61013d610138366004612156565b6104b7565b6040516101009190612269565b61015d610158366004612171565b610724565b6040516101009190612300565b61017d610178366004612171565b610860565b6040516101009190600060a082019050825182526020830151602083015260408301516040830152606083015160608301526080830151608083015292915050565b6101d26101cd366004612156565b6109e0565b6040516101009190600060e082019050825182526020830151602083015260408301516040830152606083015160608301526080830151608083015260a083015160a083015260c0830151151560c083015292915050565b61023d6102383660046123a4565b610bde565b60405161010091906123e0565b610252610bf9565b604051610100919061249f565b61027261026d366004612156565b610d60565b604080516001600160a01b03938416815292909116602083015201610100565b6102a56102a03660046123a4565b610e9a565b604051610100919061253c565b61011c6102c0366004612171565b610ea7565b6102d86102d3366004612156565b610ff4565b60405161010091906125b3565b6001600160a01b038082166000908152600d60205260408120549091165b92915050565b606080600061032c846001600160a01b0316600090815260036020526040902090565b604080516102808101825282546102608201908152815260018301546020820152600283015481830152600383015460608201526004808401546080830152600584015460a0830152600684015460c083015260078401546001600160a01b0390811660e084015260088501548116610100840152600985015481166101208401819052600a86015480831661014086015264ffffffffff600160a01b8083048216610160880152600160c81b90920416610180860152600b8701546101a0860152600c8701546101c0860152600d8701546101e0860152600e8701548316610200860152600f9096015480831661022086015260ff969004959095161515610240840152925163676a669760e11b8152928916908301529250600091829163ced4cd2e906024015b60006040518083038186803b15801561046d57600080fd5b505afa158015610481573d6000803e3d6000fd5b505050506040513d6000823e601f3d908101601f191682016040526104a99190810190612690565b909890975095505050505050565b610516604051806101600160405280600081526020016000815260200160008152602001600081526020016000815260200160008152602001600081526020016000815260200160008152602001606081526020016000151581525090565b600061052183611021565b90506000839050610587604051806101600160405280600081526020016000815260200160008152602001600081526020016000815260200160008152602001600081526020016000815260200160008152602001606081526020016000151581525090565b8251602080830191909152830180516040830152835190516105a8916111f4565b81526105b5856000611207565b60608201526105c5856001611207565b6080820152604083015160a082015260208301516105e957600060e08201526105ff565b602083015183516105f991611358565b60e08201525b816001600160a01b031663313ce5676040518163ffffffff1660e01b815260040160206040518083038186803b15801561063857600080fd5b505afa15801561064c573d6000803e3d6000fd5b505050506040513d601f19601f8201168201806040525081019061067091906126f4565b60ff1661010082015261068285611392565b8160c0018181525050816001600160a01b03166395d89b416040518163ffffffff1660e01b815260040160006040518083038186803b1580156106c457600080fd5b505afa1580156106d8573d6000803e3d6000fd5b505050506040513d6000823e601f3d908101601f191682016040526107009190810190612717565b610120820152600061071186611656565b5050151561014083015250949350505050565b61072c612032565b610734612032565b600080610754604051806040016040528060008152602001600081525090565b6001600160a01b038681166000818152600660209081526040808320948c16835293815283822080546001820154878401528652600281015460039182015460808b0188905294845291529281209295509093509060028101546020870152600381015460408701526001810154865290506107d084846111f4565b60608601526107df88886116c8565b60a08601526107ee888861175f565b60c08601526107fd88886117aa565b60e086015261080c888861185c565b61010086015260608501511561084b5761084685606001516108408760a001518861012001516111f490919063ffffffff16565b90611358565b61084e565b60015b61014086015250929695505050505050565b6108926040518060a0016040528060008152602001600081526020016000815260200160008152602001600081525090565b6108c46040518060a0016040528060008152602001600081526020016000815260200160008152602001600081525090565b8360006108d3828660016118db565b905060006108e387876001611ac6565b905060006108f183836111f4565b90506000610901898960006118db565b905060006109118a8a6000611ac6565b9050600061091f83836111f4565b8089526020808a018590526040808b0187905260608b0189905280517f313ce56700000000000000000000000000000000000000000000000000000000815290519293506001600160a01b038a169263313ce56792600480840193919291829003018186803b15801561099157600080fd5b505afa1580156109a5573d6000803e3d6000fd5b505050506040513d601f19601f820116820180604052508101906109c991906126f4565b60ff16608089015250959998505050505050505050565b610a226040518060e001604052806000815260200160008152602001600081526020016000815260200160008152602001600081526020016000151581525090565b610a646040518060e001604052806000815260200160008152602001600081526020016000815260200160008152602001600081526020016000151581525090565b6001600160a01b03831660009081526003602052604081206040805161028081018252825461026082019081528152600183015460208201526002830154918101919091526003820154606082015260048201546080820152600582015460a0820152600682015460c082015260078201546001600160a01b0390811660e08301526008830154811661010083015260098301548116610120830152600a83015480821661014084015264ffffffffff600160a01b8083048216610160860152600160c81b90920416610180840152600b8401546101a0840152600c8401546101c0840152600d8401546101e0840152600e8401548216610200840152600f9093015490811661022083015260ff92900491909116151561024082015290506000610b8e85611cf1565b60408082015185528151602080870191909152820151908501526101e083015160a08501526101a0830151608085015290506000610bcb86611656565b5050151560c08501525091949350505050565b610be66120ae565b610bf1838584611d57565b949350505050565b60606000610c05611e4f565b90506000815167ffffffffffffffff811115610c2357610c236125d4565b604051908082528060200260200182016040528015610c6957816020015b604080518082019091526060815260006020820152815260200190600190039081610c415790505b50905060005b8251811015610d59576000838281518110610c8c57610c8c6127ab565b602002602001015190506040518060400160405280826001600160a01b03166395d89b416040518163ffffffff1660e01b815260040160006040518083038186803b158015610cda57600080fd5b505afa158015610cee573d6000803e3d6000fd5b505050506040513d6000823e601f3d908101601f19168201604052610d169190810190612717565b8152602001826001600160a01b0316815250838381518110610d3a57610d3a6127ab565b6020026020010181905250508080610d51906127d7565b915050610c6f565b5092915050565b6000806000610d83846001600160a01b0316600090815260036020526040902090565b6040805161028081018252825461026082019081528152600183015460208201526002830154918101919091526003820154606082015260048201546080820152600582015460a0820152600682015460c082015260078201546001600160a01b0390811660e083015260088301548116610100830152600983015481166101208301819052600a840154808316610140850181905264ffffffffff600160a01b8084048216610160880152600160c81b90930416610180860152600b8601546101a0860152600c8601546101c0860152600d8601546101e0860152600e8601548416610200860152600f9095015492831661022085015260ff920491909116151561024090920191909152909590945092505050565b6060610bf1848484611f10565b6060806000610eca846001600160a01b0316600090815260036020526040902090565b604080516102808101825282546102608201908152815260018301546020820152600283015481830152600383015460608201526004808401546080830152600584015460a0830152600684015460c083015260078401546001600160a01b0390811660e08401526008850154811661010084015260098501548116610120840152600a850154808216610140850181905264ffffffffff600160a01b8084048216610160880152600160c81b90930416610180860152600b8701546101a0860152600c8701546101c0860152600d8701546101e0860152600e8701548316610200860152600f9096015480831661022086015260ff919004161515610240840152925163676a669760e11b8152928916908301529250600091829163ced4cd2e90602401610455565b61101860405180606001604052806000815260200160008152602001600081525090565b61030382611cf1565b6110536040518060a0016040528060008152602001600081526020016000815260200160008152602001600081525090565b6001600160a01b03828116600090815260036020908152604080832060078352818420825160a0810184528581528085018690528084018690526060810186905260808101869052600983015484517f01e1d114000000000000000000000000000000000000000000000000000000008152945196979396929591949316926301e1d1149260048083019392829003018186803b1580156110f357600080fd5b505afa158015611107573d6000803e3d6000fd5b505050506040513d601f19601f8201168201806040525081019061112b91906127f2565b8152600a830154604080517f01e1d11400000000000000000000000000000000000000000000000000000000815290516001600160a01b03909216916301e1d11491600480820192602092909190829003018186803b15801561118d57600080fd5b505afa1580156111a1573d6000803e3d6000fd5b505050506040513d601f19601f820116820180604052508101906111c591906127f2565b602082015281546001830154600290930154608083015260608201929092526040810191909152949350505050565b6000611200828461280b565b9392505050565b6001600160a01b038216600090815260036020526040812081906040805161028081018252825461026082019081528152600183015460208201526002830154918101919091526003820154606082015260048201546080820152600582015460a0820152600682015460c082015260078201546001600160a01b0390811660e08301526008830154811661010083015260098301548116610120830152600a83015480821661014084015264ffffffffff600160a01b8083048216610160860152600160c81b90920416610180840152600b8401546101a0840152600c8401546101c0840152600d8401546101e0840152600e8401548216610200840152600f9093015490811661022083015260ff9290049190911615156102408201529050600083600181111561133c5761133c612823565b141561134d57604001519050610303565b606001519050610303565b600080611366600284612839565b9050610bf18361138c611385876b033b2e3c9fd0803ce8000000611fe4565b84906111f4565b90611ff0565b60008060006113b5846001600160a01b0316600090815260036020526040902090565b604080516102808101825282546102608201908152815260018084015460208084019190915260028086015484860152600386015460608086019190915260048701546080860152600587015460a0860152600687015460c08601526007808801546001600160a01b0390811660e08801526008890154811661010088015260098901548116610120880152600a89015480821661014089015264ffffffffff600160a01b80830482166101608b0152600160c81b90920416610180890152600b8a01546101a0890152600c8a01546101c0890152600d8a01546101e0890152600e8a01548216610200890152600f9099015480821661022089015260ff999004989098161515610240870152968b1660009081529689018352858720865191820187528054808352948101549382018490529091015494810194909452919450919291611502916111f4565b905060008361014001516001600160a01b031663350fd0be6040518163ffffffff1660e01b815260040160206040518083038186803b15801561154457600080fd5b505afa158015611558573d6000803e3d6000fd5b505050506040513d601f19601f8201168201806040525081019061157c91906127f2565b6101408501516040517f70a082310000000000000000000000000000000000000000000000000000000081526001600160a01b03918216600482015291925060009183918a16906370a082319060240160206040518083038186803b1580156115e457600080fd5b505afa1580156115f8573d6000803e3d6000fd5b505050506040513d601f19601f8201168201806040525081019061161c91906127f2565b611626919061285b565b905082156116475761164261163b82856111f4565b8490611358565b61164a565b60005b98975050505050505050565b6000806000806116948560408051602080820183526000918290526001600160a01b0393909316815260038352819020815192830190915254815290565b90506116ba81516301000000811615159163020000008216151591630400000016151590565b935093509350509193909250565b6040517f41204d880000000000000000000000000000000000000000000000000000000081526001600160a01b038281166004830152600091908416906341204d88906024015b60206040518083038186803b15801561172757600080fd5b505afa15801561173b573d6000803e3d6000fd5b505050506040513d601f19601f8201168201806040525081019061120091906127f2565b6040517fb94f21c70000000000000000000000000000000000000000000000000000000081526001600160a01b0382811660048301526000919084169063b94f21c79060240161170f565b6000806117b784846116c8565b905060006117c484611cf1565b604081015190915080611837576040517f08c379a000000000000000000000000000000000000000000000000000000000815260206004820152601e60248201527f6d617267696e20726571756972656d656e742063616e6e6f7420626520300000604482015260640160405180910390fd5b60006118468261084086611ffc565b90506118518161200c565b979650505050505050565b60008061186984846117aa565b90506000806118a985876001600160a01b039182166000908152600660209081526040808320939094168252919091522060028101546003909101549091565b909250905060006118ba83836111f4565b9050808410156118d1576000945050505050610303565b611851818561285b565b6001600160a01b03831660009081526003602052604081208190604080516102808101825282546102608201908152815260018084015460208301526002840154928201929092526003830154606082015260048301546080820152600583015460a0820152600683015460c082015260078301546001600160a01b0390811660e08301526008840154811661010083015260098401548116610120830152600a84015480821661014084015264ffffffffff600160a01b8083048216610160860152600160c81b90920416610180840152600b8501546101a0840152600c8501546101c0840152600d8501546101e0840152600e8501548216610200840152600f9094015490811661022083015260ff9390049290921615156102408301529091506000908490811115611a1257611a12612823565b611a225750610120810151611a2a565b506101408101515b6040517fce96cb770000000000000000000000000000000000000000000000000000000081526001600160a01b03868116600483015282169063ce96cb779060240160206040518083038186803b158015611a8457600080fd5b505afa158015611a98573d6000803e3d6000fd5b505050506040513d601f19601f82011682018060405250810190611abc91906127f2565b9695505050505050565b6001600160a01b03831660009081526003602052604081208190604080516102808101825282546102608201908152815260018084015460208301526002840154928201929092526003830154606082015260048301546080820152600583015460a0820152600683015460c082015260078301546001600160a01b0390811660e08301526008840154811661010083015260098401548116610120830152600a84015480821661014084015264ffffffffff600160a01b8083048216610160860152600160c81b90920416610180840152600b8501546101a0840152600c8501546101c0840152600d8501546101e0840152600e8501548216610200840152600f9094015490811661022083015260ff9390049290921615156102408301529091506000908490811115611bfd57611bfd612823565b611c0d5750610120810151611c15565b506101408101515b60405163676a669760e11b81526001600160a01b0386811660048301526000919083169063ced4cd2e9060240160006040518083038186803b158015611c5a57600080fd5b505afa158015611c6e573d6000803e3d6000fd5b505050506040513d6000823e601f3d908101601f19168201604052611c969190810190612690565b9150506000805b82518160ff161015611ce557828160ff1681518110611cbe57611cbe6127ab565b602002602001015182611cd1919061280b565b915080611cdd81612872565b915050611c9d565b50979650505050505050565b611d1560405180606001604052806000815260200160008152602001600081525090565b506001600160a01b03166000908152600e6020908152604091829020825160608101845281548152600182015492810192909252600201549181019190915290565b611d5f6120ae565b6001600160a01b038481166000908152600660209081526040808320938716835292815282822085835260058101909152918120909190611d9e6120ae565b81548152600282015460208083019190915260038301546040808401919091526004840154606080850191909152815190810182526005850154815260068501549281019290925260078401549082015260a0820152600882015460c0820152600982015460e0820152600a820154610100820152600c820154610140820152600b820154610120820152600e909101546101608201526001600160a01b0387166080820152925050509392505050565b600554606090600090819061ffff1667ffffffffffffffff811115611e7657611e766125d4565b604051908082528060200260200182016040528015611e9f578160200160208202803683370190505b50905060005b600583015461ffff16811015610d5957600081815260048401602052604090205482516001600160a01b0390911690839083908110611ee657611ee66127ab565b6001600160a01b039092166020928302919091019091015280611f08816127d7565b915050611ea5565b6001600160a01b0383811660009081526006602090815260408083209386168352928152828220848352600581018252838320600d810180548651818602810186019097528087526060969394929392869084015b82821015611fd45760008481526020908190206040805160a0810182526004860290920180548352600180820154848601526002820154928401929092526003015464ffffffffff8116606084015265010000000000900460ff16151560808301529083529092019101611f65565b5050505093505050509392505050565b60006112008284612892565b60006112008284612839565b600061030382633b9aca00611fe4565b60008061201e6002633b9aca00612839565b9050611200633b9aca0061138c83866111f4565b60405180610180016040528060008152602001600081526020016000815260200160008152602001612077604051806040016040528060008152602001600081525090565b8152602001600081526020016000815260200160008152602001600081526020016000815260200160008152602001600081525090565b6040518061018001604052806000815260200160008152602001600081526020016000815260200160006001600160a01b0316815260200161210a60405180606001604052806000815260200160008152602001600081525090565b81526020016000815260200160008152602001600081526020016000815260200160008152602001600081525090565b80356001600160a01b038116811461215157600080fd5b919050565b60006020828403121561216857600080fd5b6112008261213a565b6000806040838503121561218457600080fd5b61218d8361213a565b915061219b6020840161213a565b90509250929050565b600081518084526020808501945080840160005b838110156121d4578151875295820195908201906001016121b8565b509495945050505050565b6040815260006121f260408301856121a4565b828103602084015261220481856121a4565b95945050505050565b60005b83811015612228578181015183820152602001612210565b83811115612237576000848401525b50505050565b6000815180845261225581602086016020860161220d565b601f01601f19169290920160200192915050565b6020815281516020820152602082015160408201526040820151606082015260608201516080820152608082015160a082015260a082015160c082015260c082015160e0820152600060e083015161010081818501528085015191505061012081818501528085015191505061016061014081818601526122ee61018086018461223d565b95015115159301929092525090919050565b60006101a082019050825182526020830151602083015260408301516040830152606083015160608301526080830151612347608084018280518252602090810151910152565b5060a083015160c08381019190915283015160e08084019190915283015161010080840191909152830151610120808401919091528301516101408084019190915283015161016080840191909152909201516101809091015290565b6000806000606084860312156123b957600080fd5b6123c28461213a565b92506123d06020850161213a565b9150604084013590509250925092565b60006101c08201905082518252602083015160208301526040830151604083015260608301516060830152608083015161242560808401826001600160a01b03169052565b5060a083015161244c60a08401828051825260208082015190830152604090810151910152565b5060c08301516101008381019190915260e0840151610120808501919091529084015161014080850191909152908401516101608085019190915290840151610180840152909201516101a09091015290565b60006020808301818452808551808352604092508286019150828160051b87010184880160005b8381101561252e577fffffffffffffffffffffffffffffffffffffffffffffffffffffffffffffffc0898403018552815180518785526125088886018261223d565b918901516001600160a01b031694890194909452948701949250908601906001016124c6565b509098975050505050505050565b602080825282518282018190526000919060409081850190868401855b828110156125a6578151805185528681015187860152858101518686015260608082015164ffffffffff169086015260809081015115159085015260a09093019290850190600101612559565b5091979650505050505050565b81518152602080830151908201526040808301519082015260608101610303565b634e487b7160e01b600052604160045260246000fd5b604051601f8201601f1916810167ffffffffffffffff81118282101715612613576126136125d4565b604052919050565b600082601f83011261262c57600080fd5b8151602067ffffffffffffffff821115612648576126486125d4565b8160051b6126578282016125ea565b928352848101820192828101908785111561267157600080fd5b83870192505b8483101561185157825182529183019190830190612677565b600080604083850312156126a357600080fd5b825167ffffffffffffffff808211156126bb57600080fd5b6126c78683870161261b565b935060208501519150808211156126dd57600080fd5b506126ea8582860161261b565b9150509250929050565b60006020828403121561270657600080fd5b815160ff8116811461120057600080fd5b60006020828403121561272957600080fd5b815167ffffffffffffffff8082111561274157600080fd5b818401915084601f83011261275557600080fd5b815181811115612767576127676125d4565b61277a6020601f19601f840116016125ea565b915080825285602082850101111561279157600080fd5b6127a281602084016020860161220d565b50949350505050565b634e487b7160e01b600052603260045260246000fd5b634e487b7160e01b600052601160045260246000fd5b60006000198214156127eb576127eb6127c1565b5060010190565b60006020828403121561280457600080fd5b5051919050565b6000821982111561281e5761281e6127c1565b500190565b634e487b7160e01b600052602160045260246000fd5b60008261285657634e487b7160e01b600052601260045260246000fd5b500490565b60008282101561286d5761286d6127c1565b500390565b600060ff821660ff811415612889576128896127c1565b60010192915050565b60008160001904831182151516156128ac576128ac6127c1565b50029056fea26469706673582212203116b6726650f687599db5d5a7269f86f216c20f5e047ade9669789ceac677d664736f6c63430008090033",
  "devdoc": {
    "kind": "dev",
    "methods": {},
    "version": 1
  },
  "userdoc": {
    "kind": "user",
    "methods": {},
    "version": 1
  },
  "storageLayout": {
    "storage": [
      {
        "astId": 15406,
        "contract": "contracts/voyage/facets/DataProviderFacet.sol:DataProviderFacet",
        "label": "s",
        "offset": 0,
        "slot": "0",
        "type": "t_struct(AppStorage)20045_storage"
      }
    ],
    "types": {
      "t_address": {
        "encoding": "inplace",
        "label": "address",
        "numberOfBytes": "20"
      },
      "t_array(t_address)dyn_storage": {
        "base": "t_address",
        "encoding": "dynamic_array",
        "label": "address[]",
        "numberOfBytes": "32"
      },
      "t_array(t_bytes4)dyn_storage": {
        "base": "t_bytes4",
        "encoding": "dynamic_array",
        "label": "bytes4[]",
        "numberOfBytes": "32"
      },
      "t_array(t_struct(Facet)8203_storage)dyn_storage": {
        "base": "t_struct(Facet)8203_storage",
        "encoding": "dynamic_array",
        "label": "struct IDiamondLoupe.Facet[]",
        "numberOfBytes": "32"
      },
      "t_array(t_struct(FacetCut)8171_storage)dyn_storage": {
        "base": "t_struct(FacetCut)8171_storage",
        "encoding": "dynamic_array",
        "label": "struct IDiamondCut.FacetCut[]",
        "numberOfBytes": "32"
      },
      "t_array(t_struct(RepaymentData)19796_storage)dyn_storage": {
        "base": "t_struct(RepaymentData)19796_storage",
        "encoding": "dynamic_array",
        "label": "struct RepaymentData[]",
        "numberOfBytes": "32"
      },
      "t_bool": {
        "encoding": "inplace",
        "label": "bool",
        "numberOfBytes": "1"
      },
      "t_bytes32": {
        "encoding": "inplace",
        "label": "bytes32",
        "numberOfBytes": "32"
      },
      "t_bytes4": {
        "encoding": "inplace",
        "label": "bytes4",
        "numberOfBytes": "4"
      },
      "t_bytes_storage": {
        "encoding": "bytes",
        "label": "bytes",
        "numberOfBytes": "32"
      },
      "t_contract(DSGuard)14497": {
        "encoding": "inplace",
        "label": "contract DSGuard",
        "numberOfBytes": "20"
      },
      "t_contract(DSRoles)14886": {
        "encoding": "inplace",
        "label": "contract DSRoles",
        "numberOfBytes": "20"
      },
      "t_contract(IVaultFactory)19710": {
        "encoding": "inplace",
        "label": "contract IVaultFactory",
        "numberOfBytes": "20"
      },
      "t_contract(UpgradeableBeacon)2867": {
        "encoding": "inplace",
        "label": "contract UpgradeableBeacon",
        "numberOfBytes": "20"
      },
      "t_enum(FacetCutAction)8162": {
        "encoding": "inplace",
        "label": "enum IDiamondCut.FacetCutAction",
        "numberOfBytes": "1"
      },
      "t_mapping(t_address,t_address)": {
        "encoding": "mapping",
        "key": "t_address",
        "label": "mapping(address => address)",
        "numberOfBytes": "32",
        "value": "t_address"
      },
      "t_mapping(t_address,t_array(t_bytes4)dyn_storage)": {
        "encoding": "mapping",
        "key": "t_address",
        "label": "mapping(address => bytes4[])",
        "numberOfBytes": "32",
        "value": "t_array(t_bytes4)dyn_storage"
      },
      "t_mapping(t_address,t_array(t_struct(FacetCut)8171_storage)dyn_storage)": {
        "encoding": "mapping",
        "key": "t_address",
        "label": "mapping(address => struct IDiamondCut.FacetCut[])",
        "numberOfBytes": "32",
        "value": "t_array(t_struct(FacetCut)8171_storage)dyn_storage"
      },
      "t_mapping(t_address,t_mapping(t_address,t_struct(BorrowData)19851_storage))": {
        "encoding": "mapping",
        "key": "t_address",
        "label": "mapping(address => mapping(address => struct BorrowData))",
        "numberOfBytes": "32",
        "value": "t_mapping(t_address,t_struct(BorrowData)19851_storage)"
      },
      "t_mapping(t_address,t_mapping(t_bytes4,t_address))": {
        "encoding": "mapping",
        "key": "t_address",
        "label": "mapping(address => mapping(bytes4 => address))",
        "numberOfBytes": "32",
        "value": "t_mapping(t_bytes4,t_address)"
      },
      "t_mapping(t_address,t_mapping(t_bytes4,t_bool))": {
        "encoding": "mapping",
        "key": "t_address",
        "label": "mapping(address => mapping(bytes4 => bool))",
        "numberOfBytes": "32",
        "value": "t_mapping(t_bytes4,t_bool)"
      },
      "t_mapping(t_address,t_mapping(t_uint256,t_struct(NFTInfo)19903_storage))": {
        "encoding": "mapping",
        "key": "t_address",
        "label": "mapping(address => mapping(uint256 => struct NFTInfo))",
        "numberOfBytes": "32",
        "value": "t_mapping(t_uint256,t_struct(NFTInfo)19903_storage)"
      },
      "t_mapping(t_address,t_struct(BorrowData)19851_storage)": {
        "encoding": "mapping",
        "key": "t_address",
        "label": "mapping(address => struct BorrowData)",
        "numberOfBytes": "32",
        "value": "t_struct(BorrowData)19851_storage"
      },
      "t_mapping(t_address,t_struct(BorrowState)19858_storage)": {
        "encoding": "mapping",
        "key": "t_address",
        "label": "mapping(address => struct BorrowState)",
        "numberOfBytes": "32",
        "value": "t_struct(BorrowState)19858_storage"
      },
      "t_mapping(t_address,t_struct(ERC721AssetInfo)19908_storage)": {
        "encoding": "mapping",
        "key": "t_address",
        "label": "mapping(address => struct ERC721AssetInfo)",
        "numberOfBytes": "32",
        "value": "t_struct(ERC721AssetInfo)19908_storage"
      },
      "t_mapping(t_address,t_struct(ReserveData)19775_storage)": {
        "encoding": "mapping",
        "key": "t_address",
        "label": "mapping(address => struct ReserveData)",
        "numberOfBytes": "32",
        "value": "t_struct(ReserveData)19775_storage"
      },
      "t_mapping(t_address,t_struct(VaultConfig)19865_storage)": {
        "encoding": "mapping",
        "key": "t_address",
        "label": "mapping(address => struct VaultConfig)",
        "numberOfBytes": "32",
        "value": "t_struct(VaultConfig)19865_storage"
      },
      "t_mapping(t_address,t_uint256)": {
        "encoding": "mapping",
        "key": "t_address",
        "label": "mapping(address => uint256)",
        "numberOfBytes": "32",
        "value": "t_uint256"
      },
      "t_mapping(t_bytes32,t_address)": {
        "encoding": "mapping",
        "key": "t_bytes32",
        "label": "mapping(bytes32 => address)",
        "numberOfBytes": "32",
        "value": "t_address"
      },
      "t_mapping(t_bytes4,t_address)": {
        "encoding": "mapping",
        "key": "t_bytes4",
        "label": "mapping(bytes4 => address)",
        "numberOfBytes": "32",
        "value": "t_address"
      },
      "t_mapping(t_bytes4,t_bool)": {
        "encoding": "mapping",
        "key": "t_bytes4",
        "label": "mapping(bytes4 => bool)",
        "numberOfBytes": "32",
        "value": "t_bool"
      },
      "t_mapping(t_uint256,t_address)": {
        "encoding": "mapping",
        "key": "t_uint256",
        "label": "mapping(uint256 => address)",
        "numberOfBytes": "32",
        "value": "t_address"
      },
      "t_mapping(t_uint256,t_array(t_bytes4)dyn_storage)": {
        "encoding": "mapping",
        "key": "t_uint256",
        "label": "mapping(uint256 => bytes4[])",
        "numberOfBytes": "32",
        "value": "t_array(t_bytes4)dyn_storage"
      },
      "t_mapping(t_uint256,t_struct(DrawDown)19826_storage)": {
        "encoding": "mapping",
        "key": "t_uint256",
        "label": "mapping(uint256 => struct DrawDown)",
        "numberOfBytes": "32",
        "value": "t_struct(DrawDown)19826_storage"
      },
      "t_mapping(t_uint256,t_struct(NFTInfo)19903_storage)": {
        "encoding": "mapping",
        "key": "t_uint256",
        "label": "mapping(uint256 => struct NFTInfo)",
        "numberOfBytes": "32",
        "value": "t_struct(NFTInfo)19903_storage"
      },
      "t_mapping(t_uint256,t_struct(Snapshot)19482_storage)": {
        "encoding": "mapping",
        "key": "t_uint256",
        "label": "mapping(uint256 => struct Snapshot)",
        "numberOfBytes": "32",
        "value": "t_struct(Snapshot)19482_storage"
      },
      "t_struct(AppStorage)20045_storage": {
        "encoding": "inplace",
        "label": "struct AppStorage",
        "members": [
          {
            "astId": 19960,
            "contract": "contracts/voyage/facets/DataProviderFacet.sol:DataProviderFacet",
            "label": "_addresses",
            "offset": 0,
            "slot": "0",
            "type": "t_mapping(t_bytes32,t_address)"
          },
          {
            "astId": 19963,
            "contract": "contracts/voyage/facets/DataProviderFacet.sol:DataProviderFacet",
            "label": "seniorDepositTokenBeacon",
            "offset": 0,
            "slot": "1",
            "type": "t_contract(UpgradeableBeacon)2867"
          },
          {
            "astId": 19966,
            "contract": "contracts/voyage/facets/DataProviderFacet.sol:DataProviderFacet",
            "label": "juniorDepositTokenBeacon",
            "offset": 0,
            "slot": "2",
            "type": "t_contract(UpgradeableBeacon)2867"
          },
          {
            "astId": 19971,
            "contract": "contracts/voyage/facets/DataProviderFacet.sol:DataProviderFacet",
            "label": "_reserves",
            "offset": 0,
            "slot": "3",
            "type": "t_mapping(t_address,t_struct(ReserveData)19775_storage)"
          },
          {
            "astId": 19975,
            "contract": "contracts/voyage/facets/DataProviderFacet.sol:DataProviderFacet",
            "label": "_reserveList",
            "offset": 0,
            "slot": "4",
            "type": "t_mapping(t_uint256,t_address)"
          },
          {
            "astId": 19977,
            "contract": "contracts/voyage/facets/DataProviderFacet.sol:DataProviderFacet",
            "label": "_reservesCount",
            "offset": 0,
            "slot": "5",
            "type": "t_uint16"
          },
          {
            "astId": 19984,
            "contract": "contracts/voyage/facets/DataProviderFacet.sol:DataProviderFacet",
            "label": "_borrowData",
            "offset": 0,
            "slot": "6",
            "type": "t_mapping(t_address,t_mapping(t_address,t_struct(BorrowData)19851_storage))"
          },
          {
            "astId": 19989,
            "contract": "contracts/voyage/facets/DataProviderFacet.sol:DataProviderFacet",
            "label": "_borrowState",
            "offset": 0,
            "slot": "7",
            "type": "t_mapping(t_address,t_struct(BorrowState)19858_storage)"
          },
          {
            "astId": 19991,
            "contract": "contracts/voyage/facets/DataProviderFacet.sol:DataProviderFacet",
            "label": "_paused",
            "offset": 0,
            "slot": "8",
            "type": "t_bool"
          },
          {
            "astId": 19994,
            "contract": "contracts/voyage/facets/DataProviderFacet.sol:DataProviderFacet",
            "label": "marginEscrowBeacon",
            "offset": 1,
            "slot": "8",
            "type": "t_contract(UpgradeableBeacon)2867"
          },
          {
            "astId": 19997,
            "contract": "contracts/voyage/facets/DataProviderFacet.sol:DataProviderFacet",
            "label": "creditEscrowBeacon",
            "offset": 0,
            "slot": "9",
            "type": "t_contract(UpgradeableBeacon)2867"
          },
          {
            "astId": 20000,
            "contract": "contracts/voyage/facets/DataProviderFacet.sol:DataProviderFacet",
            "label": "subVaultBeacon",
            "offset": 0,
            "slot": "10",
            "type": "t_contract(UpgradeableBeacon)2867"
          },
          {
            "astId": 20003,
            "contract": "contracts/voyage/facets/DataProviderFacet.sol:DataProviderFacet",
            "label": "vaultFactory",
            "offset": 0,
            "slot": "11",
            "type": "t_contract(IVaultFactory)19710"
          },
          {
            "astId": 20006,
            "contract": "contracts/voyage/facets/DataProviderFacet.sol:DataProviderFacet",
            "label": "vaults",
            "offset": 0,
            "slot": "12",
            "type": "t_array(t_address)dyn_storage"
          },
          {
            "astId": 20010,
            "contract": "contracts/voyage/facets/DataProviderFacet.sol:DataProviderFacet",
            "label": "vaultMap",
            "offset": 0,
            "slot": "13",
            "type": "t_mapping(t_address,t_address)"
          },
          {
            "astId": 20015,
            "contract": "contracts/voyage/facets/DataProviderFacet.sol:DataProviderFacet",
            "label": "vaultConfigMap",
            "offset": 0,
            "slot": "14",
            "type": "t_mapping(t_address,t_struct(VaultConfig)19865_storage)"
          },
          {
            "astId": 20019,
            "contract": "contracts/voyage/facets/DataProviderFacet.sol:DataProviderFacet",
            "label": "marketPlaceToAsset",
            "offset": 0,
            "slot": "15",
            "type": "t_mapping(t_address,t_address)"
          },
          {
            "astId": 20024,
            "contract": "contracts/voyage/facets/DataProviderFacet.sol:DataProviderFacet",
            "label": "erc721AssetInfo",
            "offset": 0,
            "slot": "16",
            "type": "t_mapping(t_address,t_struct(ERC721AssetInfo)19908_storage)"
          },
          {
            "astId": 20031,
            "contract": "contracts/voyage/facets/DataProviderFacet.sol:DataProviderFacet",
            "label": "nftInfo",
            "offset": 0,
            "slot": "17",
            "type": "t_mapping(t_address,t_mapping(t_uint256,t_struct(NFTInfo)19903_storage))"
          },
          {
            "astId": 20033,
            "contract": "contracts/voyage/facets/DataProviderFacet.sol:DataProviderFacet",
            "label": "currentVersion",
            "offset": 0,
            "slot": "18",
            "type": "t_uint256"
          },
          {
            "astId": 20038,
            "contract": "contracts/voyage/facets/DataProviderFacet.sol:DataProviderFacet",
            "label": "snapshotMap",
            "offset": 0,
            "slot": "19",
            "type": "t_mapping(t_uint256,t_struct(Snapshot)19482_storage)"
          },
          {
            "astId": 20041,
            "contract": "contracts/voyage/facets/DataProviderFacet.sol:DataProviderFacet",
            "label": "auth",
            "offset": 0,
            "slot": "20",
            "type": "t_struct(Authorisation)19898_storage"
          },
          {
            "astId": 20044,
            "contract": "contracts/voyage/facets/DataProviderFacet.sol:DataProviderFacet",
            "label": "upgradeParam",
            "offset": 0,
            "slot": "22",
            "type": "t_struct(UpgradeParam)19956_storage"
          }
        ],
        "numberOfBytes": "992"
      },
      "t_struct(Authorisation)19898_storage": {
        "encoding": "inplace",
        "label": "struct Authorisation",
        "members": [
          {
            "astId": 19894,
            "contract": "contracts/voyage/facets/DataProviderFacet.sol:DataProviderFacet",
            "label": "rbac",
            "offset": 0,
            "slot": "0",
            "type": "t_contract(DSRoles)14886"
          },
          {
            "astId": 19897,
            "contract": "contracts/voyage/facets/DataProviderFacet.sol:DataProviderFacet",
            "label": "acl",
            "offset": 0,
            "slot": "1",
            "type": "t_contract(DSGuard)14497"
          }
        ],
        "numberOfBytes": "64"
      },
      "t_struct(BorrowData)19851_storage": {
        "encoding": "inplace",
        "label": "struct BorrowData",
        "members": [
          {
            "astId": 19833,
            "contract": "contracts/voyage/facets/DataProviderFacet.sol:DataProviderFacet",
            "label": "paidDrawDownNumber",
            "offset": 0,
            "slot": "0",
            "type": "t_uint256"
          },
          {
            "astId": 19835,
            "contract": "contracts/voyage/facets/DataProviderFacet.sol:DataProviderFacet",
            "label": "nextDrawDownNumber",
            "offset": 0,
            "slot": "1",
            "type": "t_uint256"
          },
          {
            "astId": 19837,
            "contract": "contracts/voyage/facets/DataProviderFacet.sol:DataProviderFacet",
            "label": "totalPrincipal",
            "offset": 0,
            "slot": "2",
            "type": "t_uint256"
          },
          {
            "astId": 19839,
            "contract": "contracts/voyage/facets/DataProviderFacet.sol:DataProviderFacet",
            "label": "totalInterest",
            "offset": 0,
            "slot": "3",
            "type": "t_uint256"
          },
          {
            "astId": 19841,
            "contract": "contracts/voyage/facets/DataProviderFacet.sol:DataProviderFacet",
            "label": "mapSize",
            "offset": 0,
            "slot": "4",
            "type": "t_uint256"
          },
          {
            "astId": 19846,
            "contract": "contracts/voyage/facets/DataProviderFacet.sol:DataProviderFacet",
            "label": "drawDowns",
            "offset": 0,
            "slot": "5",
            "type": "t_mapping(t_uint256,t_struct(DrawDown)19826_storage)"
          },
          {
            "astId": 19848,
            "contract": "contracts/voyage/facets/DataProviderFacet.sol:DataProviderFacet",
            "label": "totalPaid",
            "offset": 0,
            "slot": "6",
            "type": "t_uint256"
          },
          {
            "astId": 19850,
            "contract": "contracts/voyage/facets/DataProviderFacet.sol:DataProviderFacet",
            "label": "totalRedeemed",
            "offset": 0,
            "slot": "7",
            "type": "t_uint256"
          }
        ],
        "numberOfBytes": "256"
      },
      "t_struct(BorrowState)19858_storage": {
        "encoding": "inplace",
        "label": "struct BorrowState",
        "members": [
          {
            "astId": 19853,
            "contract": "contracts/voyage/facets/DataProviderFacet.sol:DataProviderFacet",
            "label": "totalDebt",
            "offset": 0,
            "slot": "0",
            "type": "t_uint256"
          },
          {
            "astId": 19855,
            "contract": "contracts/voyage/facets/DataProviderFacet.sol:DataProviderFacet",
            "label": "totalInterest",
            "offset": 0,
            "slot": "1",
            "type": "t_uint256"
          },
          {
            "astId": 19857,
            "contract": "contracts/voyage/facets/DataProviderFacet.sol:DataProviderFacet",
            "label": "avgBorrowRate",
            "offset": 0,
            "slot": "2",
            "type": "t_uint256"
          }
        ],
        "numberOfBytes": "96"
      },
      "t_struct(DrawDown)19826_storage": {
        "encoding": "inplace",
        "label": "struct DrawDown",
        "members": [
          {
            "astId": 19798,
            "contract": "contracts/voyage/facets/DataProviderFacet.sol:DataProviderFacet",
            "label": "principal",
            "offset": 0,
            "slot": "0",
            "type": "t_uint256"
          },
          {
            "astId": 19800,
            "contract": "contracts/voyage/facets/DataProviderFacet.sol:DataProviderFacet",
            "label": "interest",
            "offset": 0,
            "slot": "1",
            "type": "t_uint256"
          },
          {
            "astId": 19802,
            "contract": "contracts/voyage/facets/DataProviderFacet.sol:DataProviderFacet",
            "label": "term",
            "offset": 0,
            "slot": "2",
            "type": "t_uint256"
          },
          {
            "astId": 19804,
            "contract": "contracts/voyage/facets/DataProviderFacet.sol:DataProviderFacet",
            "label": "epoch",
            "offset": 0,
            "slot": "3",
            "type": "t_uint256"
          },
          {
            "astId": 19806,
            "contract": "contracts/voyage/facets/DataProviderFacet.sol:DataProviderFacet",
            "label": "nper",
            "offset": 0,
            "slot": "4",
            "type": "t_uint256"
          },
          {
            "astId": 19809,
            "contract": "contracts/voyage/facets/DataProviderFacet.sol:DataProviderFacet",
            "label": "pmt",
            "offset": 0,
            "slot": "5",
            "type": "t_struct(PMT)19785_storage"
          },
          {
            "astId": 19811,
            "contract": "contracts/voyage/facets/DataProviderFacet.sol:DataProviderFacet",
            "label": "apr",
            "offset": 0,
            "slot": "8",
            "type": "t_uint256"
          },
          {
            "astId": 19813,
            "contract": "contracts/voyage/facets/DataProviderFacet.sol:DataProviderFacet",
            "label": "borrowAt",
            "offset": 0,
            "slot": "9",
            "type": "t_uint256"
          },
          {
            "astId": 19815,
            "contract": "contracts/voyage/facets/DataProviderFacet.sol:DataProviderFacet",
            "label": "nextPaymentDue",
            "offset": 0,
            "slot": "10",
            "type": "t_uint256"
          },
          {
            "astId": 19817,
            "contract": "contracts/voyage/facets/DataProviderFacet.sol:DataProviderFacet",
            "label": "totalPrincipalPaid",
            "offset": 0,
            "slot": "11",
            "type": "t_uint256"
          },
          {
            "astId": 19819,
            "contract": "contracts/voyage/facets/DataProviderFacet.sol:DataProviderFacet",
            "label": "totalInterestPaid",
            "offset": 0,
            "slot": "12",
            "type": "t_uint256"
          },
          {
            "astId": 19823,
            "contract": "contracts/voyage/facets/DataProviderFacet.sol:DataProviderFacet",
            "label": "repayments",
            "offset": 0,
            "slot": "13",
            "type": "t_array(t_struct(RepaymentData)19796_storage)dyn_storage"
          },
          {
            "astId": 19825,
            "contract": "contracts/voyage/facets/DataProviderFacet.sol:DataProviderFacet",
            "label": "paidTimes",
            "offset": 0,
            "slot": "14",
            "type": "t_uint256"
          }
        ],
        "numberOfBytes": "480"
      },
      "t_struct(ERC721AssetInfo)19908_storage": {
        "encoding": "inplace",
        "label": "struct ERC721AssetInfo",
        "members": [
          {
            "astId": 19905,
            "contract": "contracts/voyage/facets/DataProviderFacet.sol:DataProviderFacet",
            "label": "marketplace",
            "offset": 0,
            "slot": "0",
            "type": "t_address"
          },
          {
            "astId": 19907,
            "contract": "contracts/voyage/facets/DataProviderFacet.sol:DataProviderFacet",
            "label": "erc20Addr",
            "offset": 0,
            "slot": "1",
            "type": "t_address"
          }
        ],
        "numberOfBytes": "64"
      },
      "t_struct(Facet)8203_storage": {
        "encoding": "inplace",
        "label": "struct IDiamondLoupe.Facet",
        "members": [
          {
            "astId": 8199,
            "contract": "contracts/voyage/facets/DataProviderFacet.sol:DataProviderFacet",
            "label": "facetAddress",
            "offset": 0,
            "slot": "0",
            "type": "t_address"
          },
          {
            "astId": 8202,
            "contract": "contracts/voyage/facets/DataProviderFacet.sol:DataProviderFacet",
            "label": "functionSelectors",
            "offset": 0,
            "slot": "1",
            "type": "t_array(t_bytes4)dyn_storage"
          }
        ],
        "numberOfBytes": "64"
      },
      "t_struct(FacetCut)8171_storage": {
        "encoding": "inplace",
        "label": "struct IDiamondCut.FacetCut",
        "members": [
          {
            "astId": 8164,
            "contract": "contracts/voyage/facets/DataProviderFacet.sol:DataProviderFacet",
            "label": "facetAddress",
            "offset": 0,
            "slot": "0",
            "type": "t_address"
          },
          {
            "astId": 8167,
            "contract": "contracts/voyage/facets/DataProviderFacet.sol:DataProviderFacet",
            "label": "action",
            "offset": 20,
            "slot": "0",
            "type": "t_enum(FacetCutAction)8162"
          },
          {
            "astId": 8170,
            "contract": "contracts/voyage/facets/DataProviderFacet.sol:DataProviderFacet",
            "label": "functionSelectors",
            "offset": 0,
            "slot": "1",
            "type": "t_array(t_bytes4)dyn_storage"
          }
        ],
        "numberOfBytes": "64"
      },
      "t_struct(NFTInfo)19903_storage": {
        "encoding": "inplace",
        "label": "struct NFTInfo",
        "members": [
          {
            "astId": 19900,
            "contract": "contracts/voyage/facets/DataProviderFacet.sol:DataProviderFacet",
            "label": "price",
            "offset": 0,
            "slot": "0",
            "type": "t_uint256"
          },
          {
            "astId": 19902,
            "contract": "contracts/voyage/facets/DataProviderFacet.sol:DataProviderFacet",
            "label": "timestamp",
            "offset": 0,
            "slot": "1",
            "type": "t_uint256"
          }
        ],
        "numberOfBytes": "64"
      },
      "t_struct(PMT)19785_storage": {
        "encoding": "inplace",
        "label": "struct PMT",
        "members": [
          {
            "astId": 19780,
            "contract": "contracts/voyage/facets/DataProviderFacet.sol:DataProviderFacet",
            "label": "principal",
            "offset": 0,
            "slot": "0",
            "type": "t_uint256"
          },
          {
            "astId": 19782,
            "contract": "contracts/voyage/facets/DataProviderFacet.sol:DataProviderFacet",
            "label": "interest",
            "offset": 0,
            "slot": "1",
            "type": "t_uint256"
          },
          {
            "astId": 19784,
            "contract": "contracts/voyage/facets/DataProviderFacet.sol:DataProviderFacet",
            "label": "pmt",
            "offset": 0,
            "slot": "2",
            "type": "t_uint256"
          }
        ],
        "numberOfBytes": "96"
      },
      "t_struct(RepaymentData)19796_storage": {
        "encoding": "inplace",
        "label": "struct RepaymentData",
        "members": [
          {
            "astId": 19787,
            "contract": "contracts/voyage/facets/DataProviderFacet.sol:DataProviderFacet",
            "label": "principal",
            "offset": 0,
            "slot": "0",
            "type": "t_uint256"
          },
          {
            "astId": 19789,
            "contract": "contracts/voyage/facets/DataProviderFacet.sol:DataProviderFacet",
            "label": "interest",
            "offset": 0,
            "slot": "1",
            "type": "t_uint256"
          },
          {
            "astId": 19791,
            "contract": "contracts/voyage/facets/DataProviderFacet.sol:DataProviderFacet",
            "label": "total",
            "offset": 0,
            "slot": "2",
            "type": "t_uint256"
          },
          {
            "astId": 19793,
            "contract": "contracts/voyage/facets/DataProviderFacet.sol:DataProviderFacet",
            "label": "paidAt",
            "offset": 0,
            "slot": "3",
            "type": "t_uint40"
          },
          {
            "astId": 19795,
            "contract": "contracts/voyage/facets/DataProviderFacet.sol:DataProviderFacet",
            "label": "isLiquidated",
            "offset": 5,
            "slot": "3",
            "type": "t_bool"
          }
        ],
        "numberOfBytes": "128"
      },
      "t_struct(ReserveConfigurationMap)19778_storage": {
        "encoding": "inplace",
        "label": "struct ReserveConfigurationMap",
        "members": [
          {
            "astId": 19777,
            "contract": "contracts/voyage/facets/DataProviderFacet.sol:DataProviderFacet",
            "label": "data",
            "offset": 0,
            "slot": "0",
            "type": "t_uint256"
          }
        ],
        "numberOfBytes": "32"
      },
      "t_struct(ReserveData)19775_storage": {
        "encoding": "inplace",
        "label": "struct ReserveData",
        "members": [
          {
            "astId": 19738,
            "contract": "contracts/voyage/facets/DataProviderFacet.sol:DataProviderFacet",
            "label": "configuration",
            "offset": 0,
            "slot": "0",
            "type": "t_struct(ReserveConfigurationMap)19778_storage"
          },
          {
            "astId": 19740,
            "contract": "contracts/voyage/facets/DataProviderFacet.sol:DataProviderFacet",
            "label": "currentOverallLiquidityRate",
            "offset": 0,
            "slot": "1",
            "type": "t_uint256"
          },
          {
            "astId": 19742,
            "contract": "contracts/voyage/facets/DataProviderFacet.sol:DataProviderFacet",
            "label": "currentJuniorLiquidityRate",
            "offset": 0,
            "slot": "2",
            "type": "t_uint256"
          },
          {
            "astId": 19744,
            "contract": "contracts/voyage/facets/DataProviderFacet.sol:DataProviderFacet",
            "label": "currentSeniorLiquidityRate",
            "offset": 0,
            "slot": "3",
            "type": "t_uint256"
          },
          {
            "astId": 19746,
            "contract": "contracts/voyage/facets/DataProviderFacet.sol:DataProviderFacet",
            "label": "currentBorrowRate",
            "offset": 0,
            "slot": "4",
            "type": "t_uint256"
          },
          {
            "astId": 19748,
            "contract": "contracts/voyage/facets/DataProviderFacet.sol:DataProviderFacet",
            "label": "marginRequirement",
            "offset": 0,
            "slot": "5",
            "type": "t_uint256"
          },
          {
            "astId": 19750,
            "contract": "contracts/voyage/facets/DataProviderFacet.sol:DataProviderFacet",
            "label": "decimals",
            "offset": 0,
            "slot": "6",
            "type": "t_uint256"
          },
          {
            "astId": 19752,
            "contract": "contracts/voyage/facets/DataProviderFacet.sol:DataProviderFacet",
            "label": "interestRateStrategyAddress",
            "offset": 0,
            "slot": "7",
            "type": "t_address"
          },
          {
            "astId": 19754,
            "contract": "contracts/voyage/facets/DataProviderFacet.sol:DataProviderFacet",
            "label": "loanStrategyAddress",
            "offset": 0,
            "slot": "8",
            "type": "t_address"
          },
          {
            "astId": 19756,
            "contract": "contracts/voyage/facets/DataProviderFacet.sol:DataProviderFacet",
            "label": "juniorDepositTokenAddress",
            "offset": 0,
            "slot": "9",
            "type": "t_address"
          },
          {
            "astId": 19758,
            "contract": "contracts/voyage/facets/DataProviderFacet.sol:DataProviderFacet",
            "label": "seniorDepositTokenAddress",
            "offset": 0,
            "slot": "10",
            "type": "t_address"
          },
          {
            "astId": 19760,
            "contract": "contracts/voyage/facets/DataProviderFacet.sol:DataProviderFacet",
            "label": "juniorLastUpdateTimestamp",
            "offset": 20,
            "slot": "10",
            "type": "t_uint40"
          },
          {
            "astId": 19762,
            "contract": "contracts/voyage/facets/DataProviderFacet.sol:DataProviderFacet",
            "label": "seniorLastUpdateTimestamp",
            "offset": 25,
            "slot": "10",
            "type": "t_uint40"
          },
          {
            "astId": 19764,
            "contract": "contracts/voyage/facets/DataProviderFacet.sol:DataProviderFacet",
            "label": "optimalTrancheRatio",
            "offset": 0,
            "slot": "11",
            "type": "t_uint256"
          },
          {
            "astId": 19766,
            "contract": "contracts/voyage/facets/DataProviderFacet.sol:DataProviderFacet",
            "label": "currentIncomeRatio",
            "offset": 0,
            "slot": "12",
            "type": "t_uint256"
          },
          {
            "astId": 19768,
            "contract": "contracts/voyage/facets/DataProviderFacet.sol:DataProviderFacet",
            "label": "optimalIncomeRatio",
            "offset": 0,
            "slot": "13",
            "type": "t_uint256"
          },
          {
            "astId": 19770,
            "contract": "contracts/voyage/facets/DataProviderFacet.sol:DataProviderFacet",
            "label": "nftAddress",
            "offset": 0,
            "slot": "14",
            "type": "t_address"
          },
          {
            "astId": 19772,
            "contract": "contracts/voyage/facets/DataProviderFacet.sol:DataProviderFacet",
            "label": "priceOracle",
            "offset": 0,
            "slot": "15",
            "type": "t_address"
          },
          {
            "astId": 19774,
            "contract": "contracts/voyage/facets/DataProviderFacet.sol:DataProviderFacet",
            "label": "initialized",
            "offset": 20,
            "slot": "15",
            "type": "t_bool"
          }
        ],
        "numberOfBytes": "512"
      },
      "t_struct(Snapshot)19482_storage": {
        "encoding": "inplace",
        "label": "struct Snapshot",
        "members": [
          {
            "astId": 19477,
            "contract": "contracts/voyage/facets/DataProviderFacet.sol:DataProviderFacet",
            "label": "facets",
            "offset": 0,
            "slot": "0",
            "type": "t_array(t_struct(Facet)8203_storage)dyn_storage"
          },
          {
            "astId": 19479,
            "contract": "contracts/voyage/facets/DataProviderFacet.sol:DataProviderFacet",
            "label": "init",
            "offset": 0,
            "slot": "1",
            "type": "t_address"
          },
          {
            "astId": 19481,
            "contract": "contracts/voyage/facets/DataProviderFacet.sol:DataProviderFacet",
            "label": "initArgs",
            "offset": 0,
            "slot": "2",
            "type": "t_bytes_storage"
          }
        ],
        "numberOfBytes": "96"
      },
      "t_struct(UpgradeParam)19956_storage": {
        "encoding": "inplace",
        "label": "struct UpgradeParam",
        "members": [
          {
            "astId": 19914,
            "contract": "contracts/voyage/facets/DataProviderFacet.sol:DataProviderFacet",
            "label": "existingSelectorFacetMap",
            "offset": 0,
            "slot": "0",
            "type": "t_mapping(t_address,t_mapping(t_bytes4,t_address))"
          },
          {
            "astId": 19919,
            "contract": "contracts/voyage/facets/DataProviderFacet.sol:DataProviderFacet",
            "label": "existingSelectors",
            "offset": 0,
            "slot": "1",
            "type": "t_mapping(t_address,t_array(t_bytes4)dyn_storage)"
          },
          {
            "astId": 19925,
            "contract": "contracts/voyage/facets/DataProviderFacet.sol:DataProviderFacet",
            "label": "newSelectorSet",
            "offset": 0,
            "slot": "2",
            "type": "t_mapping(t_address,t_mapping(t_bytes4,t_bool))"
          },
          {
            "astId": 19930,
            "contract": "contracts/voyage/facets/DataProviderFacet.sol:DataProviderFacet",
            "label": "newSelectors",
            "offset": 0,
            "slot": "3",
            "type": "t_mapping(t_address,t_array(t_bytes4)dyn_storage)"
          },
          {
            "astId": 19936,
            "contract": "contracts/voyage/facets/DataProviderFacet.sol:DataProviderFacet",
            "label": "facetCuts",
            "offset": 0,
            "slot": "4",
            "type": "t_mapping(t_address,t_array(t_struct(FacetCut)8171_storage)dyn_storage)"
          },
          {
            "astId": 19940,
            "contract": "contracts/voyage/facets/DataProviderFacet.sol:DataProviderFacet",
            "label": "facetCutSize",
            "offset": 0,
            "slot": "5",
            "type": "t_mapping(t_address,t_uint256)"
          },
          {
            "astId": 19945,
            "contract": "contracts/voyage/facets/DataProviderFacet.sol:DataProviderFacet",
            "label": "selectorsAdded",
            "offset": 0,
            "slot": "6",
            "type": "t_mapping(t_uint256,t_array(t_bytes4)dyn_storage)"
          },
          {
            "astId": 19950,
            "contract": "contracts/voyage/facets/DataProviderFacet.sol:DataProviderFacet",
            "label": "selectorsReplaced",
            "offset": 0,
            "slot": "7",
            "type": "t_mapping(t_uint256,t_array(t_bytes4)dyn_storage)"
          },
          {
            "astId": 19955,
            "contract": "contracts/voyage/facets/DataProviderFacet.sol:DataProviderFacet",
            "label": "selectorsRemoved",
            "offset": 0,
            "slot": "8",
            "type": "t_mapping(t_uint256,t_array(t_bytes4)dyn_storage)"
          }
        ],
        "numberOfBytes": "288"
      },
      "t_struct(VaultConfig)19865_storage": {
        "encoding": "inplace",
        "label": "struct VaultConfig",
        "members": [
          {
            "astId": 19860,
            "contract": "contracts/voyage/facets/DataProviderFacet.sol:DataProviderFacet",
            "label": "minMargin",
            "offset": 0,
            "slot": "0",
            "type": "t_uint256"
          },
          {
            "astId": 19862,
            "contract": "contracts/voyage/facets/DataProviderFacet.sol:DataProviderFacet",
            "label": "maxMargin",
            "offset": 0,
            "slot": "1",
            "type": "t_uint256"
          },
          {
            "astId": 19864,
            "contract": "contracts/voyage/facets/DataProviderFacet.sol:DataProviderFacet",
            "label": "marginRequirement",
            "offset": 0,
            "slot": "2",
            "type": "t_uint256"
          }
        ],
        "numberOfBytes": "96"
      },
      "t_uint16": {
        "encoding": "inplace",
        "label": "uint16",
        "numberOfBytes": "2"
      },
      "t_uint256": {
        "encoding": "inplace",
        "label": "uint256",
        "numberOfBytes": "32"
      },
      "t_uint40": {
        "encoding": "inplace",
        "label": "uint40",
        "numberOfBytes": "5"
      }
    }
  }
}