{
  "address": "0x52b28B865acc1f3b6025cCCC24475A87F2300CBE",
  "abi": [
    {
      "inputs": [
        {
          "internalType": "address",
          "name": "_user",
          "type": "address"
        },
        {
          "internalType": "address",
          "name": "_reserve",
          "type": "address"
        },
        {
          "internalType": "uint256",
          "name": "_drawDownId",
          "type": "uint256"
        }
      ],
      "name": "getDrawDownDetail",
      "outputs": [
        {
          "components": [
            {
              "internalType": "uint256",
              "name": "principal",
              "type": "uint256"
            },
            {
              "internalType": "uint256",
              "name": "term",
              "type": "uint256"
            },
            {
              "internalType": "uint256",
              "name": "epoch",
              "type": "uint256"
            },
            {
              "internalType": "uint256",
              "name": "nper",
              "type": "uint256"
            },
            {
              "components": [
                {
                  "internalType": "uint256",
                  "name": "principal",
                  "type": "uint256"
                },
                {
                  "internalType": "uint256",
                  "name": "interest",
                  "type": "uint256"
                },
                {
                  "internalType": "uint256",
                  "name": "pmt",
                  "type": "uint256"
                }
              ],
              "internalType": "struct PMT",
              "name": "pmt",
              "type": "tuple"
            },
            {
              "internalType": "uint256",
              "name": "apr",
              "type": "uint256"
            },
            {
              "internalType": "uint256",
              "name": "borrowAt",
              "type": "uint256"
            },
            {
              "internalType": "uint256",
              "name": "nextPaymentDue",
              "type": "uint256"
            },
            {
              "internalType": "uint256",
              "name": "totalPrincipalPaid",
              "type": "uint256"
            },
            {
              "internalType": "uint256",
              "name": "totalInterestPaid",
              "type": "uint256"
            },
            {
              "internalType": "uint256",
              "name": "paidTimes",
              "type": "uint256"
            }
          ],
          "internalType": "struct LibLoan.DebtDetail",
          "name": "",
          "type": "tuple"
        }
      ],
      "stateMutability": "view",
      "type": "function"
    },
    {
      "inputs": [
        {
          "internalType": "address",
          "name": "_reserve",
          "type": "address"
        }
      ],
      "name": "getPoolConfiguration",
      "outputs": [
        {
          "components": [
            {
              "internalType": "uint256",
              "name": "marginRequirement",
              "type": "uint256"
            },
            {
              "internalType": "uint256",
              "name": "minMargin",
              "type": "uint256"
            },
            {
              "internalType": "uint256",
              "name": "maxMargin",
              "type": "uint256"
            },
            {
              "internalType": "uint256",
              "name": "loanTenure",
              "type": "uint256"
            },
            {
              "internalType": "uint256",
              "name": "optimalTrancheRatio",
              "type": "uint256"
            },
            {
              "internalType": "uint256",
              "name": "optimalIncomeRatio",
              "type": "uint256"
            },
            {
              "internalType": "bool",
              "name": "isActive",
              "type": "bool"
            }
          ],
          "internalType": "struct DataProviderFacet.PoolConfiguration",
          "name": "",
          "type": "tuple"
        }
      ],
      "stateMutability": "view",
      "type": "function"
    },
    {
      "inputs": [
        {
          "internalType": "address",
          "name": "underlyingAsset",
          "type": "address"
        }
      ],
      "name": "getPoolData",
      "outputs": [
        {
          "components": [
            {
              "internalType": "uint256",
              "name": "totalLiquidity",
              "type": "uint256"
            },
            {
              "internalType": "uint256",
              "name": "juniorLiquidity",
              "type": "uint256"
            },
            {
              "internalType": "uint256",
              "name": "seniorLiquidity",
              "type": "uint256"
            },
            {
              "internalType": "uint256",
              "name": "juniorLiquidityRate",
              "type": "uint256"
            },
            {
              "internalType": "uint256",
              "name": "seniorLiquidityRate",
              "type": "uint256"
            },
            {
              "internalType": "uint256",
              "name": "totalDebt",
              "type": "uint256"
            },
            {
              "internalType": "uint256",
              "name": "utilizationRate",
              "type": "uint256"
            },
            {
              "internalType": "uint256",
              "name": "trancheRatio",
              "type": "uint256"
            },
            {
              "internalType": "uint256",
              "name": "decimals",
              "type": "uint256"
            },
            {
              "internalType": "string",
              "name": "symbol",
              "type": "string"
            },
            {
              "internalType": "bool",
              "name": "isActive",
              "type": "bool"
            }
          ],
          "internalType": "struct DataProviderFacet.PoolData",
          "name": "",
          "type": "tuple"
        }
      ],
      "stateMutability": "view",
      "type": "function"
    },
    {
      "inputs": [],
      "name": "getPoolTokens",
      "outputs": [
        {
          "components": [
            {
              "internalType": "string",
              "name": "symbol",
              "type": "string"
            },
            {
              "internalType": "address",
              "name": "tokenAddress",
              "type": "address"
            }
          ],
          "internalType": "struct DataProviderFacet.FungibleTokenData[]",
          "name": "tokens",
          "type": "tuple[]"
        }
      ],
      "stateMutability": "view",
      "type": "function"
    },
    {
      "inputs": [
        {
          "internalType": "address",
          "name": "_reserve",
          "type": "address"
        },
        {
          "internalType": "address",
          "name": "_user",
          "type": "address"
        }
      ],
      "name": "getUserPoolData",
      "outputs": [
        {
          "components": [
            {
              "internalType": "uint256",
              "name": "juniorTrancheBalance",
              "type": "uint256"
            },
            {
              "internalType": "uint256",
              "name": "withdrawableJuniorTrancheBalance",
              "type": "uint256"
            },
            {
              "internalType": "uint256",
              "name": "seniorTrancheBalance",
              "type": "uint256"
            },
            {
              "internalType": "uint256",
              "name": "withdrawableSeniorTrancheBalance",
              "type": "uint256"
            },
            {
              "internalType": "uint256",
              "name": "decimals",
              "type": "uint256"
            }
          ],
          "internalType": "struct DataProviderFacet.UserPoolData",
          "name": "",
          "type": "tuple"
        }
      ],
      "stateMutability": "view",
      "type": "function"
    },
    {
      "inputs": [
        {
          "internalType": "address",
          "name": "_user",
          "type": "address"
        }
      ],
      "name": "getUserVault",
      "outputs": [
        {
          "internalType": "address",
          "name": "",
          "type": "address"
        }
      ],
      "stateMutability": "view",
      "type": "function"
    },
    {
      "inputs": [
        {
          "internalType": "address",
          "name": "_user",
          "type": "address"
        },
        {
          "internalType": "address",
          "name": "_reserve",
          "type": "address"
        },
        {
          "internalType": "address",
          "name": "_sponsor",
          "type": "address"
        }
      ],
      "name": "getVaultData",
      "outputs": [
        {
          "components": [
            {
              "internalType": "uint256",
              "name": "borrowRate",
              "type": "uint256"
            },
            {
              "internalType": "uint256",
              "name": "totalDebt",
              "type": "uint256"
            },
            {
              "components": [
                {
                  "internalType": "uint256",
                  "name": "head",
                  "type": "uint256"
                },
                {
                  "internalType": "uint256",
                  "name": "tail",
                  "type": "uint256"
                }
              ],
              "internalType": "struct DrawDownList",
              "name": "drawDownList",
              "type": "tuple"
            },
            {
              "internalType": "uint256",
              "name": "totalMargin",
              "type": "uint256"
            },
            {
              "internalType": "uint256",
              "name": "withdrawableSecurityDeposit",
              "type": "uint256"
            },
            {
              "internalType": "uint256",
              "name": "creditLimit",
              "type": "uint256"
            },
            {
              "internalType": "uint256",
              "name": "spendableBalance",
              "type": "uint256"
            },
            {
              "internalType": "uint256",
              "name": "gav",
              "type": "uint256"
            },
            {
              "internalType": "uint256",
              "name": "ltv",
              "type": "uint256"
            },
            {
              "internalType": "uint256",
              "name": "healthFactor",
              "type": "uint256"
            }
          ],
          "internalType": "struct VaultData",
          "name": "",
          "type": "tuple"
        }
      ],
      "stateMutability": "view",
      "type": "function"
    },
    {
      "inputs": [
        {
          "internalType": "address",
          "name": "_user",
          "type": "address"
        },
        {
          "internalType": "address",
          "name": "_reserve",
          "type": "address"
        }
      ],
      "name": "pendingJuniorWithdrawals",
      "outputs": [
        {
          "internalType": "uint256[]",
          "name": "",
          "type": "uint256[]"
        },
        {
          "internalType": "uint256[]",
          "name": "",
          "type": "uint256[]"
        }
      ],
      "stateMutability": "view",
      "type": "function"
    },
    {
      "inputs": [
        {
          "internalType": "address",
          "name": "_user",
          "type": "address"
        },
        {
          "internalType": "address",
          "name": "_reserve",
          "type": "address"
        }
      ],
      "name": "pendingSeniorWithdrawals",
      "outputs": [
        {
          "internalType": "uint256[]",
          "name": "",
          "type": "uint256[]"
        },
        {
          "internalType": "uint256[]",
          "name": "",
          "type": "uint256[]"
        }
      ],
      "stateMutability": "view",
      "type": "function"
    }
  ],
  "transactionHash": "0x811b86ee6bf59276a0213ffbaf0ea771769e06f56827fbda6c53d1d48ea570f8",
  "args": [],
  "numDeployments": 2,
  "solcInputHash": "555707459f625c5cccea54db628334a8",
  "bytecode": "0x608060405234801561001057600080fd5b50612588806100206000396000f3fe608060405234801561001057600080fd5b50600436106100a35760003560e01c80636f44bb691161007657806389c065681161005b57806389c06568146101f2578063b2e7f0f214610207578063f2380a081461021a57600080fd5b80636f44bb69146101675780637c7c983d146101d257600080fd5b806310e7841d146100a857806313d21cdf146100d2578063491db4a2146100f25780636bf201a214610147575b600080fd5b6100bb6100b6366004611e8b565b610245565b6040516100c9929190611ef9565b60405180910390f35b6100e56100e0366004611f1e565b6103e6565b6040516100c99190611f95565b610105610100366004611e8b565b610653565b6040516100c99190600060a082019050825182526020830151602083015260408301516040830152606083015160608301526080830151608083015292915050565b61015a61015536600461202c565b6107d5565b6040516100c9919061206f565b61017a610175366004611f1e565b6108fc565b6040516100c99190600060e082019050825182526020830151602083015260408301516040830152606083015160608301526080830151608083015260a083015160a083015260c0830151151560c083015292915050565b6101e56101e03660046120f9565b610adf565b6040516100c99190612135565b6101fa610b16565b6040516100c991906121d8565b6100bb610215366004611e8b565b610c7d565b61022d610228366004611f1e565b610dbd565b6040516001600160a01b0390911681526020016100c9565b6060806000610268846001600160a01b0316600090815260016020526040902090565b604080516102608101825282546102408201908152815260018301546020820152600283015481830152600383015460608201526004808401546080830152600584015460a0830152600684015460c083015260078401546001600160a01b0390811660e084015260088501548116610100840152600985015481166101208401819052600a86015480831661014086015264ffffffffff600160a01b8083048216610160880152600160c81b90920416610180860152600b8701546101a0860152600c8701546101c0860152600d8701546101e0860152600e9096015480831661020086015260ff969004959095161515610220840152925163676a669760e11b8152928916908301529250600091829163ced4cd2e906024015b60006040518083038186803b15801561039c57600080fd5b505afa1580156103b0573d6000803e3d6000fd5b505050506040513d6000823e601f3d908101601f191682016040526103d89190810190612331565b909890975095505050505050565b610445604051806101600160405280600081526020016000815260200160008152602001600081526020016000815260200160008152602001600081526020016000815260200160008152602001606081526020016000151581525090565b600061045083610ddf565b905060008390506104b6604051806101600160405280600081526020016000815260200160008152602001600081526020016000815260200160008152602001600081526020016000815260200160008152602001606081526020016000151581525090565b8251602080830191909152830180516040830152835190516104d791610fb2565b81526104e4856000610fc5565b60608201526104f4856001610fc5565b6080820152604083015160a0820152602083015161051857600060e082015261052e565b6020830151835161052891611109565b60e08201525b816001600160a01b031663313ce5676040518163ffffffff1660e01b815260040160206040518083038186803b15801561056757600080fd5b505afa15801561057b573d6000803e3d6000fd5b505050506040513d601f19601f8201168201806040525081019061059f9190612395565b60ff166101008201526105b18561114b565b8160c0018181525050816001600160a01b03166395d89b416040518163ffffffff1660e01b815260040160006040518083038186803b1580156105f357600080fd5b505afa158015610607573d6000803e3d6000fd5b505050506040513d6000823e601f3d908101601f1916820160405261062f91908101906123b8565b610120820152600061064086611402565b5050151561014083015250949350505050565b6106856040518060a0016040528060008152602001600081526020016000815260200160008152602001600081525090565b6106b76040518060a0016040528060008152602001600081526020016000815260200160008152602001600081525090565b8360006106c682866001611474565b905060006106d687876001611652565b905060006106e48383610fb2565b905060006106f489896000611474565b905060006107048a8a6000611652565b905060006107128383610fb2565b8089526020808a018590526040808b0187905260608b0189905280517f313ce56700000000000000000000000000000000000000000000000000000000815290519293506001600160a01b038a169263313ce56792600480840193919291829003018186803b15801561078457600080fd5b505afa158015610798573d6000803e3d6000fd5b505050506040513d601f19601f820116820180604052508101906107bc9190612395565b60ff166080890152509596505050505050505b92915050565b6107dd611d85565b6107e5611d85565b6001600160a01b038086166000908152600860205260408120549091169050600080610824604051806040016040528060008152602001600081525090565b6001600160a01b0388811660009081526004602090815260408083209388168084528483528184208054600182015488860152875290845293909152600283015460039093015490880184905290875290935091506108838383610fb2565b60208601526108928989611870565b60608601526108a289898961192b565b60808601526108b189896119ee565b60a08601526108c08989611aa0565b60c08601526020850151606086015160e08701516108e992916108e39190610fb2565b90611109565b6101008601525092979650505050505050565b61093e6040518060e001604052806000815260200160008152602001600081526020016000815260200160008152602001600081526020016000151581525090565b6109806040518060e001604052806000815260200160008152602001600081526020016000815260200160008152602001600081526020016000151581525090565b6001600160a01b03838116600090815260016020818152604080842081516102608101835281546102408201908152815293810154928401929092526002820154908301526003810154606083015260048101546080830152600581015460a0830152600681015460c08301526007810154841660e08301526008810154841661010083015260098101548416610120830152600a81015480851661014084015264ffffffffff600160a01b8083048216610160860152600160c81b90920416610180840152600b8201546101a0840152600c8201546101c0840152600d8201546101e0840152600e9091015493841661020083015260ff9304929092161515610220830152610a8f85611b29565b60408082015185528151602080870191909152820151908501526101e083015160a08501526101a0830151608085015290506000610acc86611402565b5050151560c08501525091949350505050565b610ae7611df3565b6001600160a01b0384811660009081526008602052604090205416610b0d848285611b8f565b95945050505050565b60606000610b22611c76565b90506000815167ffffffffffffffff811115610b4057610b40612275565b604051908082528060200260200182016040528015610b8657816020015b604080518082019091526060815260006020820152815260200190600190039081610b5e5790505b50905060005b8251811015610c76576000838281518110610ba957610ba961244c565b602002602001015190506040518060400160405280826001600160a01b03166395d89b416040518163ffffffff1660e01b815260040160006040518083038186803b158015610bf757600080fd5b505afa158015610c0b573d6000803e3d6000fd5b505050506040513d6000823e601f3d908101601f19168201604052610c3391908101906123b8565b8152602001826001600160a01b0316815250838381518110610c5757610c5761244c565b6020026020010181905250508080610c6e90612478565b915050610b8c565b5092915050565b6060806000610ca0846001600160a01b0316600090815260016020526040902090565b604080516102608101825282546102408201908152815260018301546020820152600283015481830152600383015460608201526004808401546080830152600584015460a0830152600684015460c083015260078401546001600160a01b0390811660e08401526008850154811661010084015260098501548116610120840152600a850154808216610140850181905264ffffffffff600160a01b8084048216610160880152600160c81b90930416610180860152600b8701546101a0860152600c8701546101c0860152600d8701546101e0860152600e9096015480831661020086015260ff919004161515610220840152925163676a669760e11b8152928916908301529250600091829163ced4cd2e90602401610384565b6001600160a01b038082166000908152600860205260408120549091166107cf565b610e116040518060a0016040528060008152602001600081526020016000815260200160008152602001600081525090565b6001600160a01b03828116600090815260016020908152604080832060058352818420825160a0810184528581528085018690528084018690526060810186905260808101869052600983015484517f01e1d114000000000000000000000000000000000000000000000000000000008152945196979396929591949316926301e1d1149260048083019392829003018186803b158015610eb157600080fd5b505afa158015610ec5573d6000803e3d6000fd5b505050506040513d601f19601f82011682018060405250810190610ee99190612493565b8152600a830154604080517f01e1d11400000000000000000000000000000000000000000000000000000000815290516001600160a01b03909216916301e1d11491600480820192602092909190829003018186803b158015610f4b57600080fd5b505afa158015610f5f573d6000803e3d6000fd5b505050506040513d601f19601f82011682018060405250810190610f839190612493565b602082015281546001830154600290930154608083015260608201929092526040810191909152949350505050565b6000610fbe82846124ac565b9392505050565b6001600160a01b038216600090815260016020526040812081906040805161026081018252825461024082019081528152600183015460208201526002830154918101919091526003820154606082015260048201546080820152600582015460a0820152600682015460c082015260078201546001600160a01b0390811660e08301526008830154811661010083015260098301548116610120830152600a83015480821661014084015264ffffffffff600160a01b8083048216610160860152600160c81b90920416610180840152600b8401546101a0840152600c8401546101c0840152600d8401546101e0840152600e9093015490811661020083015260ff929004919091161515610220820152905060008360018111156110ed576110ed6124c4565b14156110fe576040015190506107cf565b6060015190506107cf565b6000806111176002846124da565b90506111438361113d611136876b033b2e3c9fd0803ce8000000611d37565b8490610fb2565b90611d43565b949350505050565b600080600061116e846001600160a01b0316600090815260016020526040902090565b60408051610260810182528254610240820190815281526001808401546020808401919091526002808601548486015260038601546060808601919091526004870154608086015260058088015460a0870152600688015460c087015260078801546001600160a01b0390811660e08801526008890154811661010088015260098901548116610120880152600a89015480821661014089015264ffffffffff600160a01b80830482166101608b0152600160c81b90920416610180890152600b8a01546101a0890152600c8a01546101c0890152600d8a01546101e0890152600e9099015480821661020089015260ff999004989098161515610220870152968b16600090815296890183528587208651918201875280548083529481015493820184905290910154948101949094529194509192916112ae91610fb2565b905060008361014001516001600160a01b031663350fd0be6040518163ffffffff1660e01b815260040160206040518083038186803b1580156112f057600080fd5b505afa158015611304573d6000803e3d6000fd5b505050506040513d601f19601f820116820180604052508101906113289190612493565b6101408501516040517f70a082310000000000000000000000000000000000000000000000000000000081526001600160a01b03918216600482015291925060009183918a16906370a082319060240160206040518083038186803b15801561139057600080fd5b505afa1580156113a4573d6000803e3d6000fd5b505050506040513d601f19601f820116820180604052508101906113c89190612493565b6113d291906124fc565b905082156113f3576113ee6113e78285610fb2565b8490611109565b6113f6565b60005b98975050505050505050565b6000806000806114408560408051602080820183526000918290526001600160a01b0393909316815260018352819020815192830190915254815290565b905061146681516301000000811615159163020000008216151591630400000016151590565b935093509350509193909250565b6001600160a01b03831660009081526001602052604081208190604080516102608101825282546102408201908152815260018084015460208301526002840154928201929092526003830154606082015260048301546080820152600583015460a0820152600683015460c082015260078301546001600160a01b0390811660e08301526008840154811661010083015260098401548116610120830152600a84015480821661014084015264ffffffffff600160a01b8083048216610160860152600160c81b90920416610180840152600b8501546101a0840152600c8501546101c0840152600d8501546101e0840152600e9094015490811661020083015260ff939004929092161515610220830152909150600090849081111561159e5761159e6124c4565b6115ae57506101208101516115b6565b506101408101515b6040517fce96cb770000000000000000000000000000000000000000000000000000000081526001600160a01b03868116600483015282169063ce96cb779060240160206040518083038186803b15801561161057600080fd5b505afa158015611624573d6000803e3d6000fd5b505050506040513d601f19601f820116820180604052508101906116489190612493565b9695505050505050565b6001600160a01b03831660009081526001602052604081208190604080516102608101825282546102408201908152815260018084015460208301526002840154928201929092526003830154606082015260048301546080820152600583015460a0820152600683015460c082015260078301546001600160a01b0390811660e08301526008840154811661010083015260098401548116610120830152600a84015480821661014084015264ffffffffff600160a01b8083048216610160860152600160c81b90920416610180840152600b8501546101a0840152600c8501546101c0840152600d8501546101e0840152600e9094015490811661020083015260ff939004929092161515610220830152909150600090849081111561177c5761177c6124c4565b61178c5750610120810151611794565b506101408101515b60405163676a669760e11b81526001600160a01b0386811660048301526000919083169063ced4cd2e9060240160006040518083038186803b1580156117d957600080fd5b505afa1580156117ed573d6000803e3d6000fd5b505050506040513d6000823e601f3d908101601f191682016040526118159190810190612331565b9150506000805b82518160ff16101561186457828160ff168151811061183d5761183d61244c565b60200260200101518261185091906124ac565b91508061185c81612513565b91505061181c565b50979650505050505050565b600080611895846001600160a01b039081166000908152600860205260409020541690565b6040517f41204d880000000000000000000000000000000000000000000000000000000081526001600160a01b038581166004830152919250908216906341204d889060240160206040518083038186803b1580156118f357600080fd5b505afa158015611907573d6000803e3d6000fd5b505050506040513d601f19601f820116820180604052508101906111439190612493565b600080611950856001600160a01b039081166000908152600860205260409020541690565b6040517f145c22b60000000000000000000000000000000000000000000000000000000081526001600160a01b03858116600483015286811660248301529192509082169063145c22b69060440160206040518083038186803b1580156119b657600080fd5b505afa1580156119ca573d6000803e3d6000fd5b505050506040513d601f19601f82011682018060405250810190610b0d9190612493565b6000806119fb8484611870565b90506000611a0884611b29565b604081015190915080611a7b576040517f08c379a000000000000000000000000000000000000000000000000000000000815260206004820152601e60248201527f6d617267696e20726571756972656d656e742063616e6e6f7420626520300000604482015260640160405180910390fd5b6000611a8a826108e386611d4f565b9050611a9581611d5f565b979650505050505050565b600080611aad84846119ee565b90506000806000611ad6876001600160a01b039081166000908152600860205260409020541690565b6001600160a01b0387811660009081526004602090815260408220928416825291909152909150611b078484610fb2565b905080851015611b1f576000955050505050506107cf565b6113f681866124fc565b611b4d60405180606001604052806000815260200160008152602001600081525090565b506001600160a01b0316600090815260096020908152604091829020825160608101845281548152600182015492810192909252600201549181019190915290565b611b97611df3565b6001600160a01b038481166000908152600460209081526040808320938716835292815282822085835260058101909152918120909190611bd6611df3565b8154815260018201546020808301919091526002830154604080840191909152600384015460608085019190915281519081018252600485015481526005850154928101929092526006840154908201526080820152600782015460a0820152600882015460c0820152600982015460e0820152600b820154610120820152600a820154610100820152600d909101546101408201529695505050505050565b600354606090600090819061ffff1667ffffffffffffffff811115611c9d57611c9d612275565b604051908082528060200260200182016040528015611cc6578160200160208202803683370190505b50905060005b600383015461ffff16811015610c7657600081815260028401602052604090205482516001600160a01b0390911690839083908110611d0d57611d0d61244c565b6001600160a01b039092166020928302919091019091015280611d2f81612478565b915050611ccc565b6000610fbe8284612533565b6000610fbe82846124da565b60006107cf82633b9aca00611d37565b600080611d716002633b9aca006124da565b9050610fbe633b9aca0061113d8386610fb2565b6040518061014001604052806000815260200160008152602001611dbc604051806040016040528060008152602001600081525090565b8152602001600081526020016000815260200160008152602001600081526020016000815260200160008152602001600081525090565b60405180610160016040528060008152602001600081526020016000815260200160008152602001611e3f60405180606001604052806000815260200160008152602001600081525090565b81526020016000815260200160008152602001600081526020016000815260200160008152602001600081525090565b80356001600160a01b0381168114611e8657600080fd5b919050565b60008060408385031215611e9e57600080fd5b611ea783611e6f565b9150611eb560208401611e6f565b90509250929050565b600081518084526020808501945080840160005b83811015611eee57815187529582019590820190600101611ed2565b509495945050505050565b604081526000611f0c6040830185611ebe565b8281036020840152610b0d8185611ebe565b600060208284031215611f3057600080fd5b610fbe82611e6f565b60005b83811015611f54578181015183820152602001611f3c565b83811115611f63576000848401525b50505050565b60008151808452611f81816020860160208601611f39565b601f01601f19169290920160200192915050565b6020815281516020820152602082015160408201526040820151606082015260608201516080820152608082015160a082015260a082015160c082015260c082015160e0820152600060e0830151610100818185015280850151915050610120818185015280850151915050610160610140818186015261201a610180860184611f69565b95015115159301929092525090919050565b60008060006060848603121561204157600080fd5b61204a84611e6f565b925061205860208501611e6f565b915061206660408501611e6f565b90509250925092565b600061016082019050825182526020830151602083015260408301516120a2604084018280518252602090810151910152565b5060608301516080830152608083015160a083015260a083015160c083015260c083015160e083015260e0830151610100818185015280850151915050610120818185015280850151610140850152505092915050565b60008060006060848603121561210e57600080fd5b61211784611e6f565b925061212560208501611e6f565b9150604084013590509250925092565b60006101a08201905082518252602083015160208301526040830151604083015260608301516060830152608083015161218660808401828051825260208082015190830152604090810151910152565b5060a083015160e08381019190915260c0840151610100808501919091529084015161012080850191909152908401516101408085019190915290840151610160840152909201516101809091015290565b60006020808301818452808551808352604092508286019150828160051b87010184880160005b83811015612267577fffffffffffffffffffffffffffffffffffffffffffffffffffffffffffffffc08984030185528151805187855261224188860182611f69565b918901516001600160a01b031694890194909452948701949250908601906001016121ff565b509098975050505050505050565b634e487b7160e01b600052604160045260246000fd5b604051601f8201601f1916810167ffffffffffffffff811182821017156122b4576122b4612275565b604052919050565b600082601f8301126122cd57600080fd5b8151602067ffffffffffffffff8211156122e9576122e9612275565b8160051b6122f882820161228b565b928352848101820192828101908785111561231257600080fd5b83870192505b84831015611a9557825182529183019190830190612318565b6000806040838503121561234457600080fd5b825167ffffffffffffffff8082111561235c57600080fd5b612368868387016122bc565b9350602085015191508082111561237e57600080fd5b5061238b858286016122bc565b9150509250929050565b6000602082840312156123a757600080fd5b815160ff81168114610fbe57600080fd5b6000602082840312156123ca57600080fd5b815167ffffffffffffffff808211156123e257600080fd5b818401915084601f8301126123f657600080fd5b81518181111561240857612408612275565b61241b6020601f19601f8401160161228b565b915080825285602082850101111561243257600080fd5b612443816020840160208601611f39565b50949350505050565b634e487b7160e01b600052603260045260246000fd5b634e487b7160e01b600052601160045260246000fd5b600060001982141561248c5761248c612462565b5060010190565b6000602082840312156124a557600080fd5b5051919050565b600082198211156124bf576124bf612462565b500190565b634e487b7160e01b600052602160045260246000fd5b6000826124f757634e487b7160e01b600052601260045260246000fd5b500490565b60008282101561250e5761250e612462565b500390565b600060ff821660ff81141561252a5761252a612462565b60010192915050565b600081600019048311821515161561254d5761254d612462565b50029056fea2646970667358221220b379f6fd95dd73a2ef5a64b6cda5f0871cee1066947069bc0b9e617b05cf514a64736f6c63430008090033",
  "devdoc": {
    "kind": "dev",
    "methods": {},
    "version": 1
  },
  "userdoc": {
    "kind": "user",
    "methods": {},
    "version": 1
  },
  "storageLayout": {
    "storage": [
      {
        "astId": 4498,
        "contract": "contracts/component/facets/DataProviderFacet.sol:DataProviderFacet",
        "label": "s",
        "offset": 0,
        "slot": "0",
        "type": "t_struct(AppStorage)11881_storage"
      }
    ],
    "types": {
      "t_address": {
        "encoding": "inplace",
        "label": "address",
        "numberOfBytes": "20"
      },
      "t_array(t_address)dyn_storage": {
        "base": "t_address",
        "encoding": "dynamic_array",
        "label": "address[]",
        "numberOfBytes": "32"
      },
      "t_array(t_struct(RepaymentData)11751_storage)dyn_storage": {
        "base": "t_struct(RepaymentData)11751_storage",
        "encoding": "dynamic_array",
        "label": "struct RepaymentData[]",
        "numberOfBytes": "32"
      },
      "t_bool": {
        "encoding": "inplace",
        "label": "bool",
        "numberOfBytes": "1"
      },
      "t_bytes32": {
        "encoding": "inplace",
        "label": "bytes32",
        "numberOfBytes": "32"
      },
      "t_contract(UpgradeableBeacon)1050": {
        "encoding": "inplace",
        "label": "contract UpgradeableBeacon",
        "numberOfBytes": "20"
      },
      "t_mapping(t_address,t_address)": {
        "encoding": "mapping",
        "key": "t_address",
        "label": "mapping(address => address)",
        "numberOfBytes": "32",
        "value": "t_address"
      },
      "t_mapping(t_address,t_mapping(t_address,t_struct(BorrowData)11800_storage))": {
        "encoding": "mapping",
        "key": "t_address",
        "label": "mapping(address => mapping(address => struct BorrowData))",
        "numberOfBytes": "32",
        "value": "t_mapping(t_address,t_struct(BorrowData)11800_storage)"
      },
      "t_mapping(t_address,t_struct(BorrowData)11800_storage)": {
        "encoding": "mapping",
        "key": "t_address",
        "label": "mapping(address => struct BorrowData)",
        "numberOfBytes": "32",
        "value": "t_struct(BorrowData)11800_storage"
      },
      "t_mapping(t_address,t_struct(BorrowState)11807_storage)": {
        "encoding": "mapping",
        "key": "t_address",
        "label": "mapping(address => struct BorrowState)",
        "numberOfBytes": "32",
        "value": "t_struct(BorrowState)11807_storage"
      },
      "t_mapping(t_address,t_struct(ReserveData)11730_storage)": {
        "encoding": "mapping",
        "key": "t_address",
        "label": "mapping(address => struct ReserveData)",
        "numberOfBytes": "32",
        "value": "t_struct(ReserveData)11730_storage"
      },
      "t_mapping(t_address,t_struct(VaultConfig)11814_storage)": {
        "encoding": "mapping",
        "key": "t_address",
        "label": "mapping(address => struct VaultConfig)",
        "numberOfBytes": "32",
        "value": "t_struct(VaultConfig)11814_storage"
      },
      "t_mapping(t_bytes32,t_address)": {
        "encoding": "mapping",
        "key": "t_bytes32",
        "label": "mapping(bytes32 => address)",
        "numberOfBytes": "32",
        "value": "t_address"
      },
      "t_mapping(t_uint256,t_address)": {
        "encoding": "mapping",
        "key": "t_uint256",
        "label": "mapping(uint256 => address)",
        "numberOfBytes": "32",
        "value": "t_address"
      },
      "t_mapping(t_uint256,t_struct(DrawDown)11779_storage)": {
        "encoding": "mapping",
        "key": "t_uint256",
        "label": "mapping(uint256 => struct DrawDown)",
        "numberOfBytes": "32",
        "value": "t_struct(DrawDown)11779_storage"
      },
      "t_struct(AppStorage)11881_storage": {
        "encoding": "inplace",
        "label": "struct AppStorage",
        "members": [
          {
            "astId": 11840,
            "contract": "contracts/component/facets/DataProviderFacet.sol:DataProviderFacet",
            "label": "_addresses",
            "offset": 0,
            "slot": "0",
            "type": "t_mapping(t_bytes32,t_address)"
          },
          {
            "astId": 11845,
            "contract": "contracts/component/facets/DataProviderFacet.sol:DataProviderFacet",
            "label": "_reserves",
            "offset": 0,
            "slot": "1",
            "type": "t_mapping(t_address,t_struct(ReserveData)11730_storage)"
          },
          {
            "astId": 11849,
            "contract": "contracts/component/facets/DataProviderFacet.sol:DataProviderFacet",
            "label": "_reserveList",
            "offset": 0,
            "slot": "2",
            "type": "t_mapping(t_uint256,t_address)"
          },
          {
            "astId": 11851,
            "contract": "contracts/component/facets/DataProviderFacet.sol:DataProviderFacet",
            "label": "_reservesCount",
            "offset": 0,
            "slot": "3",
            "type": "t_uint16"
          },
          {
            "astId": 11858,
            "contract": "contracts/component/facets/DataProviderFacet.sol:DataProviderFacet",
            "label": "_borrowData",
            "offset": 0,
            "slot": "4",
            "type": "t_mapping(t_address,t_mapping(t_address,t_struct(BorrowData)11800_storage))"
          },
          {
            "astId": 11863,
            "contract": "contracts/component/facets/DataProviderFacet.sol:DataProviderFacet",
            "label": "_borrowState",
            "offset": 0,
            "slot": "5",
            "type": "t_mapping(t_address,t_struct(BorrowState)11807_storage)"
          },
          {
            "astId": 11865,
            "contract": "contracts/component/facets/DataProviderFacet.sol:DataProviderFacet",
            "label": "_paused",
            "offset": 0,
            "slot": "6",
            "type": "t_bool"
          },
          {
            "astId": 11868,
            "contract": "contracts/component/facets/DataProviderFacet.sol:DataProviderFacet",
            "label": "upgradeableBeacon",
            "offset": 1,
            "slot": "6",
            "type": "t_contract(UpgradeableBeacon)1050"
          },
          {
            "astId": 11871,
            "contract": "contracts/component/facets/DataProviderFacet.sol:DataProviderFacet",
            "label": "vaults",
            "offset": 0,
            "slot": "7",
            "type": "t_array(t_address)dyn_storage"
          },
          {
            "astId": 11875,
            "contract": "contracts/component/facets/DataProviderFacet.sol:DataProviderFacet",
            "label": "vaultMap",
            "offset": 0,
            "slot": "8",
            "type": "t_mapping(t_address,t_address)"
          },
          {
            "astId": 11880,
            "contract": "contracts/component/facets/DataProviderFacet.sol:DataProviderFacet",
            "label": "vaultConfigMap",
            "offset": 0,
            "slot": "9",
            "type": "t_mapping(t_address,t_struct(VaultConfig)11814_storage)"
          }
        ],
        "numberOfBytes": "320"
      },
      "t_struct(BorrowData)11800_storage": {
        "encoding": "inplace",
        "label": "struct BorrowData",
        "members": [
          {
            "astId": 11786,
            "contract": "contracts/component/facets/DataProviderFacet.sol:DataProviderFacet",
            "label": "paidDrawDownNumber",
            "offset": 0,
            "slot": "0",
            "type": "t_uint256"
          },
          {
            "astId": 11788,
            "contract": "contracts/component/facets/DataProviderFacet.sol:DataProviderFacet",
            "label": "nextDrawDownNumber",
            "offset": 0,
            "slot": "1",
            "type": "t_uint256"
          },
          {
            "astId": 11790,
            "contract": "contracts/component/facets/DataProviderFacet.sol:DataProviderFacet",
            "label": "totalPrincipal",
            "offset": 0,
            "slot": "2",
            "type": "t_uint256"
          },
          {
            "astId": 11792,
            "contract": "contracts/component/facets/DataProviderFacet.sol:DataProviderFacet",
            "label": "totalInterest",
            "offset": 0,
            "slot": "3",
            "type": "t_uint256"
          },
          {
            "astId": 11794,
            "contract": "contracts/component/facets/DataProviderFacet.sol:DataProviderFacet",
            "label": "mapSize",
            "offset": 0,
            "slot": "4",
            "type": "t_uint256"
          },
          {
            "astId": 11799,
            "contract": "contracts/component/facets/DataProviderFacet.sol:DataProviderFacet",
            "label": "drawDowns",
            "offset": 0,
            "slot": "5",
            "type": "t_mapping(t_uint256,t_struct(DrawDown)11779_storage)"
          }
        ],
        "numberOfBytes": "192"
      },
      "t_struct(BorrowState)11807_storage": {
        "encoding": "inplace",
        "label": "struct BorrowState",
        "members": [
          {
            "astId": 11802,
            "contract": "contracts/component/facets/DataProviderFacet.sol:DataProviderFacet",
            "label": "totalDebt",
            "offset": 0,
            "slot": "0",
            "type": "t_uint256"
          },
          {
            "astId": 11804,
            "contract": "contracts/component/facets/DataProviderFacet.sol:DataProviderFacet",
            "label": "totalInterest",
            "offset": 0,
            "slot": "1",
            "type": "t_uint256"
          },
          {
            "astId": 11806,
            "contract": "contracts/component/facets/DataProviderFacet.sol:DataProviderFacet",
            "label": "avgBorrowRate",
            "offset": 0,
            "slot": "2",
            "type": "t_uint256"
          }
        ],
        "numberOfBytes": "96"
      },
      "t_struct(DrawDown)11779_storage": {
        "encoding": "inplace",
        "label": "struct DrawDown",
        "members": [
          {
            "astId": 11753,
            "contract": "contracts/component/facets/DataProviderFacet.sol:DataProviderFacet",
            "label": "principal",
            "offset": 0,
            "slot": "0",
            "type": "t_uint256"
          },
          {
            "astId": 11755,
            "contract": "contracts/component/facets/DataProviderFacet.sol:DataProviderFacet",
            "label": "term",
            "offset": 0,
            "slot": "1",
            "type": "t_uint256"
          },
          {
            "astId": 11757,
            "contract": "contracts/component/facets/DataProviderFacet.sol:DataProviderFacet",
            "label": "epoch",
            "offset": 0,
            "slot": "2",
            "type": "t_uint256"
          },
          {
            "astId": 11759,
            "contract": "contracts/component/facets/DataProviderFacet.sol:DataProviderFacet",
            "label": "nper",
            "offset": 0,
            "slot": "3",
            "type": "t_uint256"
          },
          {
            "astId": 11762,
            "contract": "contracts/component/facets/DataProviderFacet.sol:DataProviderFacet",
            "label": "pmt",
            "offset": 0,
            "slot": "4",
            "type": "t_struct(PMT)11740_storage"
          },
          {
            "astId": 11764,
            "contract": "contracts/component/facets/DataProviderFacet.sol:DataProviderFacet",
            "label": "apr",
            "offset": 0,
            "slot": "7",
            "type": "t_uint256"
          },
          {
            "astId": 11766,
            "contract": "contracts/component/facets/DataProviderFacet.sol:DataProviderFacet",
            "label": "borrowAt",
            "offset": 0,
            "slot": "8",
            "type": "t_uint256"
          },
          {
            "astId": 11768,
            "contract": "contracts/component/facets/DataProviderFacet.sol:DataProviderFacet",
            "label": "nextPaymentDue",
            "offset": 0,
            "slot": "9",
            "type": "t_uint256"
          },
          {
            "astId": 11770,
            "contract": "contracts/component/facets/DataProviderFacet.sol:DataProviderFacet",
            "label": "totalPrincipalPaid",
            "offset": 0,
            "slot": "10",
            "type": "t_uint256"
          },
          {
            "astId": 11772,
            "contract": "contracts/component/facets/DataProviderFacet.sol:DataProviderFacet",
            "label": "totalInterestPaid",
            "offset": 0,
            "slot": "11",
            "type": "t_uint256"
          },
          {
            "astId": 11776,
            "contract": "contracts/component/facets/DataProviderFacet.sol:DataProviderFacet",
            "label": "repayments",
            "offset": 0,
            "slot": "12",
            "type": "t_array(t_struct(RepaymentData)11751_storage)dyn_storage"
          },
          {
            "astId": 11778,
            "contract": "contracts/component/facets/DataProviderFacet.sol:DataProviderFacet",
            "label": "paidTimes",
            "offset": 0,
            "slot": "13",
            "type": "t_uint256"
          }
        ],
        "numberOfBytes": "448"
      },
      "t_struct(PMT)11740_storage": {
        "encoding": "inplace",
        "label": "struct PMT",
        "members": [
          {
            "astId": 11735,
            "contract": "contracts/component/facets/DataProviderFacet.sol:DataProviderFacet",
            "label": "principal",
            "offset": 0,
            "slot": "0",
            "type": "t_uint256"
          },
          {
            "astId": 11737,
            "contract": "contracts/component/facets/DataProviderFacet.sol:DataProviderFacet",
            "label": "interest",
            "offset": 0,
            "slot": "1",
            "type": "t_uint256"
          },
          {
            "astId": 11739,
            "contract": "contracts/component/facets/DataProviderFacet.sol:DataProviderFacet",
            "label": "pmt",
            "offset": 0,
            "slot": "2",
            "type": "t_uint256"
          }
        ],
        "numberOfBytes": "96"
      },
      "t_struct(RepaymentData)11751_storage": {
        "encoding": "inplace",
        "label": "struct RepaymentData",
        "members": [
          {
            "astId": 11742,
            "contract": "contracts/component/facets/DataProviderFacet.sol:DataProviderFacet",
            "label": "principal",
            "offset": 0,
            "slot": "0",
            "type": "t_uint256"
          },
          {
            "astId": 11744,
            "contract": "contracts/component/facets/DataProviderFacet.sol:DataProviderFacet",
            "label": "interest",
            "offset": 0,
            "slot": "1",
            "type": "t_uint256"
          },
          {
            "astId": 11746,
            "contract": "contracts/component/facets/DataProviderFacet.sol:DataProviderFacet",
            "label": "total",
            "offset": 0,
            "slot": "2",
            "type": "t_uint256"
          },
          {
            "astId": 11748,
            "contract": "contracts/component/facets/DataProviderFacet.sol:DataProviderFacet",
            "label": "paidAt",
            "offset": 0,
            "slot": "3",
            "type": "t_uint40"
          },
          {
            "astId": 11750,
            "contract": "contracts/component/facets/DataProviderFacet.sol:DataProviderFacet",
            "label": "isLiquidated",
            "offset": 5,
            "slot": "3",
            "type": "t_bool"
          }
        ],
        "numberOfBytes": "128"
      },
      "t_struct(ReserveConfigurationMap)11733_storage": {
        "encoding": "inplace",
        "label": "struct ReserveConfigurationMap",
        "members": [
          {
            "astId": 11732,
            "contract": "contracts/component/facets/DataProviderFacet.sol:DataProviderFacet",
            "label": "data",
            "offset": 0,
            "slot": "0",
            "type": "t_uint256"
          }
        ],
        "numberOfBytes": "32"
      },
      "t_struct(ReserveData)11730_storage": {
        "encoding": "inplace",
        "label": "struct ReserveData",
        "members": [
          {
            "astId": 11695,
            "contract": "contracts/component/facets/DataProviderFacet.sol:DataProviderFacet",
            "label": "configuration",
            "offset": 0,
            "slot": "0",
            "type": "t_struct(ReserveConfigurationMap)11733_storage"
          },
          {
            "astId": 11697,
            "contract": "contracts/component/facets/DataProviderFacet.sol:DataProviderFacet",
            "label": "currentOverallLiquidityRate",
            "offset": 0,
            "slot": "1",
            "type": "t_uint256"
          },
          {
            "astId": 11699,
            "contract": "contracts/component/facets/DataProviderFacet.sol:DataProviderFacet",
            "label": "currentJuniorLiquidityRate",
            "offset": 0,
            "slot": "2",
            "type": "t_uint256"
          },
          {
            "astId": 11701,
            "contract": "contracts/component/facets/DataProviderFacet.sol:DataProviderFacet",
            "label": "currentSeniorLiquidityRate",
            "offset": 0,
            "slot": "3",
            "type": "t_uint256"
          },
          {
            "astId": 11703,
            "contract": "contracts/component/facets/DataProviderFacet.sol:DataProviderFacet",
            "label": "currentBorrowRate",
            "offset": 0,
            "slot": "4",
            "type": "t_uint256"
          },
          {
            "astId": 11705,
            "contract": "contracts/component/facets/DataProviderFacet.sol:DataProviderFacet",
            "label": "marginRequirement",
            "offset": 0,
            "slot": "5",
            "type": "t_uint256"
          },
          {
            "astId": 11707,
            "contract": "contracts/component/facets/DataProviderFacet.sol:DataProviderFacet",
            "label": "decimals",
            "offset": 0,
            "slot": "6",
            "type": "t_uint256"
          },
          {
            "astId": 11709,
            "contract": "contracts/component/facets/DataProviderFacet.sol:DataProviderFacet",
            "label": "interestRateStrategyAddress",
            "offset": 0,
            "slot": "7",
            "type": "t_address"
          },
          {
            "astId": 11711,
            "contract": "contracts/component/facets/DataProviderFacet.sol:DataProviderFacet",
            "label": "loanStrategyAddress",
            "offset": 0,
            "slot": "8",
            "type": "t_address"
          },
          {
            "astId": 11713,
            "contract": "contracts/component/facets/DataProviderFacet.sol:DataProviderFacet",
            "label": "juniorDepositTokenAddress",
            "offset": 0,
            "slot": "9",
            "type": "t_address"
          },
          {
            "astId": 11715,
            "contract": "contracts/component/facets/DataProviderFacet.sol:DataProviderFacet",
            "label": "seniorDepositTokenAddress",
            "offset": 0,
            "slot": "10",
            "type": "t_address"
          },
          {
            "astId": 11717,
            "contract": "contracts/component/facets/DataProviderFacet.sol:DataProviderFacet",
            "label": "juniorLastUpdateTimestamp",
            "offset": 20,
            "slot": "10",
            "type": "t_uint40"
          },
          {
            "astId": 11719,
            "contract": "contracts/component/facets/DataProviderFacet.sol:DataProviderFacet",
            "label": "seniorLastUpdateTimestamp",
            "offset": 25,
            "slot": "10",
            "type": "t_uint40"
          },
          {
            "astId": 11721,
            "contract": "contracts/component/facets/DataProviderFacet.sol:DataProviderFacet",
            "label": "optimalTrancheRatio",
            "offset": 0,
            "slot": "11",
            "type": "t_uint256"
          },
          {
            "astId": 11723,
            "contract": "contracts/component/facets/DataProviderFacet.sol:DataProviderFacet",
            "label": "currentIncomeRatio",
            "offset": 0,
            "slot": "12",
            "type": "t_uint256"
          },
          {
            "astId": 11725,
            "contract": "contracts/component/facets/DataProviderFacet.sol:DataProviderFacet",
            "label": "optimalIncomeRatio",
            "offset": 0,
            "slot": "13",
            "type": "t_uint256"
          },
          {
            "astId": 11727,
            "contract": "contracts/component/facets/DataProviderFacet.sol:DataProviderFacet",
            "label": "nftAddress",
            "offset": 0,
            "slot": "14",
            "type": "t_address"
          },
          {
            "astId": 11729,
            "contract": "contracts/component/facets/DataProviderFacet.sol:DataProviderFacet",
            "label": "initialized",
            "offset": 20,
            "slot": "14",
            "type": "t_bool"
          }
        ],
        "numberOfBytes": "480"
      },
      "t_struct(VaultConfig)11814_storage": {
        "encoding": "inplace",
        "label": "struct VaultConfig",
        "members": [
          {
            "astId": 11809,
            "contract": "contracts/component/facets/DataProviderFacet.sol:DataProviderFacet",
            "label": "minMargin",
            "offset": 0,
            "slot": "0",
            "type": "t_uint256"
          },
          {
            "astId": 11811,
            "contract": "contracts/component/facets/DataProviderFacet.sol:DataProviderFacet",
            "label": "maxMargin",
            "offset": 0,
            "slot": "1",
            "type": "t_uint256"
          },
          {
            "astId": 11813,
            "contract": "contracts/component/facets/DataProviderFacet.sol:DataProviderFacet",
            "label": "marginRequirement",
            "offset": 0,
            "slot": "2",
            "type": "t_uint256"
          }
        ],
        "numberOfBytes": "96"
      },
      "t_uint16": {
        "encoding": "inplace",
        "label": "uint16",
        "numberOfBytes": "2"
      },
      "t_uint256": {
        "encoding": "inplace",
        "label": "uint256",
        "numberOfBytes": "32"
      },
      "t_uint40": {
        "encoding": "inplace",
        "label": "uint40",
        "numberOfBytes": "5"
      }
    }
  }
}