{
  "address": "0xB4A18837c31A45B0d787f9c71f5b418E830EC4a4",
  "abi": [
    {
      "inputs": [
        {
          "internalType": "uint256",
          "name": "_premiumFactor",
          "type": "uint256"
        },
        {
          "internalType": "uint256",
          "name": "_loanTenure",
          "type": "uint256"
        },
        {
          "internalType": "uint256",
          "name": "_weightedLTV",
          "type": "uint256"
        },
        {
          "internalType": "uint256",
          "name": "_weightedRepaymentRatio",
          "type": "uint256"
        }
      ],
      "stateMutability": "nonpayable",
      "type": "constructor"
    },
    {
      "inputs": [
        {
          "components": [
            {
              "internalType": "uint256",
              "name": "securityDeposit",
              "type": "uint256"
            },
            {
              "internalType": "uint256",
              "name": "currentBorrowRate",
              "type": "uint256"
            },
            {
              "internalType": "uint256",
              "name": "compoundedDebt",
              "type": "uint256"
            },
            {
              "internalType": "uint256",
              "name": "grossAssetValue",
              "type": "uint256"
            },
            {
              "internalType": "uint256",
              "name": "aggregateOptimalRepaymentRate",
              "type": "uint256"
            },
            {
              "internalType": "uint256",
              "name": "aggregateActualRepaymentRate",
              "type": "uint256"
            }
          ],
          "internalType": "struct DataTypes.HealthRiskParameter",
          "name": "hrp",
          "type": "tuple"
        }
      ],
      "name": "calculateHealthRisk",
      "outputs": [
        {
          "internalType": "uint256",
          "name": "",
          "type": "uint256"
        }
      ],
      "stateMutability": "view",
      "type": "function"
    },
    {
      "inputs": [],
      "name": "getLoanTenure",
      "outputs": [
        {
          "internalType": "uint256",
          "name": "",
          "type": "uint256"
        }
      ],
      "stateMutability": "view",
      "type": "function"
    },
    {
      "inputs": [],
      "name": "getPremiumFactor",
      "outputs": [
        {
          "internalType": "uint256",
          "name": "",
          "type": "uint256"
        }
      ],
      "stateMutability": "view",
      "type": "function"
    },
    {
      "inputs": [],
      "name": "getWeightedLTV",
      "outputs": [
        {
          "internalType": "uint256",
          "name": "",
          "type": "uint256"
        }
      ],
      "stateMutability": "view",
      "type": "function"
    },
    {
      "inputs": [],
      "name": "getWeightedRepaymentRatio",
      "outputs": [
        {
          "internalType": "uint256",
          "name": "",
          "type": "uint256"
        }
      ],
      "stateMutability": "view",
      "type": "function"
    }
  ],
  "transactionHash": "0x6b61d7d26ade0819ccb3329ffa34f14e38562510691186c7889a4b02f58f031b",
  "args": [
    "5000000000000000000000000000",
    "5000000000000000000000000000",
    "2000000000000000000000000000",
    "8000000000000000000000000000"
  ],
  "numDeployments": 1,
  "solcInputHash": "276ea4d8e79ed810d93e460ad3940ca8",
  "bytecode": "0x61010060405234801561001157600080fd5b506040516104d13803806104d183398101604081905261003091610047565b60809390935260a09190915260c05260e05261007d565b6000806000806080858703121561005d57600080fd5b505082516020840151604085015160609095015191969095509092509050565b60805160a05160c05160e0516104026100cf600039600081816101010152818161019301526101c0015260008181606e0152818161017201526101ea0152600060c80152600060a201526104026000f3fe608060405234801561001057600080fd5b50600436106100675760003560e01c80635f633ac7116100505780635f633ac7146100c65780636a69878c146100ec578063c0df3636146100ff57600080fd5b80633f7eaa011461006c57806356d61317146100a0575b600080fd5b7f00000000000000000000000000000000000000000000000000000000000000005b60405190815260200160405180910390f35b7f000000000000000000000000000000000000000000000000000000000000000061008e565b7f000000000000000000000000000000000000000000000000000000000000000061008e565b61008e6100fa3660046102b7565b610125565b7f000000000000000000000000000000000000000000000000000000000000000061008e565b6040810151815160608301516000928392610149926101439161021c565b9061022f565b9050600061016884608001518560a0015161022f90919063ffffffff16565b90506102146101b77f00000000000000000000000000000000000000000000000000000000000000007f000000000000000000000000000000000000000000000000000000000000000061021c565b6101436101e4847f0000000000000000000000000000000000000000000000000000000000000000610269565b61020e867f0000000000000000000000000000000000000000000000000000000000000000610269565b9061021c565b949350505050565b60006102288284610355565b9392505050565b60008061023d60028461036d565b90506102148361026361025c876b033b2e3c9fd0803ce800000061029f565b849061021c565b906102ab565b60006102286b033b2e3c9fd0803ce8000000610263610288868661029f565b61020e60026b033b2e3c9fd0803ce800000061036d565b6000610228828461038f565b6000610228828461036d565b600060c082840312156102c957600080fd5b60405160c0810181811067ffffffffffffffff821117156102fa57634e487b7160e01b600052604160045260246000fd5b8060405250823581526020830135602082015260408301356040820152606083013560608201526080830135608082015260a083013560a08201528091505092915050565b634e487b7160e01b600052601160045260246000fd5b600082198211156103685761036861033f565b500190565b60008261038a57634e487b7160e01b600052601260045260246000fd5b500490565b6000817fffffffffffffffffffffffffffffffffffffffffffffffffffffffffffffffff04831182151516156103c7576103c761033f565b50029056fea26469706673582212204ece372388411cd59b4da07d2765eade1b5abc74ab6b187d57f53bf62bba402364736f6c63430008090033",
  "libraries": {
    "WadRayMath": "0xF703E4b97Fd673aBA0EAfcd3f3fd277cD11b6023"
  },
  "devdoc": {
    "kind": "dev",
    "methods": {},
    "version": 1
  },
  "userdoc": {
    "kind": "user",
    "methods": {},
    "version": 1
  },
  "storageLayout": {
    "storage": [],
    "types": null
  }
}