{
  "address": "0xF305A355f032a1Fc08082c2BD692C8BDd73Ee964",
  "abi": [
    {
      "inputs": [
        {
          "internalType": "uint256",
          "name": "_term",
          "type": "uint256"
        },
        {
          "internalType": "uint256",
          "name": "_epoch",
          "type": "uint256"
        }
      ],
      "stateMutability": "nonpayable",
      "type": "constructor"
    },
    {
      "inputs": [],
      "name": "epoch",
      "outputs": [
        {
          "internalType": "uint256",
          "name": "",
          "type": "uint256"
        }
      ],
      "stateMutability": "view",
      "type": "function"
    },
    {
      "inputs": [],
      "name": "getEpoch",
      "outputs": [
        {
          "internalType": "uint256",
          "name": "",
          "type": "uint256"
        }
      ],
      "stateMutability": "view",
      "type": "function"
    },
    {
      "inputs": [],
      "name": "getTerm",
      "outputs": [
        {
          "internalType": "uint256",
          "name": "",
          "type": "uint256"
        }
      ],
      "stateMutability": "view",
      "type": "function"
    },
    {
      "inputs": [],
      "name": "term",
      "outputs": [
        {
          "internalType": "uint256",
          "name": "",
          "type": "uint256"
        }
      ],
      "stateMutability": "view",
      "type": "function"
    }
  ],
  "transactionHash": "0x9e0d123803286bfb5b8fe40ad40faf3f2c65d9630ee7cbb69c30f82336c15346",
  "args": [
    90,
    30
  ],
  "numDeployments": 1,
  "solcInputHash": "5581b7bd0906416eb346441aec54c4cd",
  "bytecode": "0x60c060405234801561001057600080fd5b506040516101b63803806101b683398101604081905261002f9161003d565b60809190915260a052610061565b6000806040838503121561005057600080fd5b505080516020909101519092909150565b60805160a051610126610090600039600081816081015260a8015260008181604d015260ce01526101266000f3fe6080604052348015600f57600080fd5b506004361060465760003560e01c8063124b65b414604b578063757991a814607f578063900cf0cf1460a4578063a10ffbed1460ca575b600080fd5b7f00000000000000000000000000000000000000000000000000000000000000005b60405190815260200160405180910390f35b7f0000000000000000000000000000000000000000000000000000000000000000606d565b606d7f000000000000000000000000000000000000000000000000000000000000000081565b606d7f00000000000000000000000000000000000000000000000000000000000000008156fea2646970667358221220fa94adced331ed96d2b246a00377e2665cf867003cc61ad0700d12ee0a3b7b6c64736f6c63430008090033",
  "devdoc": {
    "kind": "dev",
    "methods": {},
    "version": 1
  },
  "userdoc": {
    "kind": "user",
    "methods": {},
    "version": 1
  },
  "storageLayout": {
    "storage": [],
    "types": null
  }
}