{
  "address": "0x4572849dE81C498b0ce873Afb8D030528e65f46d",
  "abi": [
    {
      "inputs": [
        {
          "internalType": "uint256",
          "name": "_optimalUtilizationRate",
          "type": "uint256"
        },
        {
          "internalType": "uint256",
          "name": "_stableRateSlope1",
          "type": "uint256"
        },
        {
          "internalType": "uint256",
          "name": "_stableRateSlope2",
          "type": "uint256"
        },
        {
          "internalType": "uint256",
          "name": "_baseBorrowRate",
          "type": "uint256"
        }
      ],
      "stateMutability": "nonpayable",
      "type": "constructor"
    },
    {
      "inputs": [],
      "name": "OPTIMAL_UTILIZATION_RATE",
      "outputs": [
        {
          "internalType": "uint256",
          "name": "",
          "type": "uint256"
        }
      ],
      "stateMutability": "view",
      "type": "function"
    },
    {
      "inputs": [
        {
          "internalType": "address",
          "name": "reserve",
          "type": "address"
        },
        {
          "internalType": "uint256",
          "name": "availableLiquidity",
          "type": "uint256"
        },
        {
          "internalType": "uint256",
          "name": "totalStableDebt",
          "type": "uint256"
        },
        {
          "internalType": "uint256",
          "name": "averageBorrowRate",
          "type": "uint256"
        }
      ],
      "name": "calculateInterestRates",
      "outputs": [
        {
          "internalType": "uint256",
          "name": "",
          "type": "uint256"
        },
        {
          "internalType": "uint256",
          "name": "",
          "type": "uint256"
        }
      ],
      "stateMutability": "view",
      "type": "function"
    },
    {
      "inputs": [
        {
          "internalType": "address",
          "name": "reserve",
          "type": "address"
        },
        {
          "internalType": "address",
          "name": "juniorDepositToken",
          "type": "address"
        },
        {
          "internalType": "address",
          "name": "seniorDepositToken",
          "type": "address"
        },
        {
          "internalType": "uint256",
          "name": "liquidityAdded",
          "type": "uint256"
        },
        {
          "internalType": "uint256",
          "name": "liquidityTaken",
          "type": "uint256"
        },
        {
          "internalType": "uint256",
          "name": "totalStableDebt",
          "type": "uint256"
        },
        {
          "internalType": "uint256",
          "name": "averageBorrowRate",
          "type": "uint256"
        }
      ],
      "name": "calculateInterestRates",
      "outputs": [
        {
          "internalType": "uint256",
          "name": "",
          "type": "uint256"
        },
        {
          "internalType": "uint256",
          "name": "",
          "type": "uint256"
        }
      ],
      "stateMutability": "view",
      "type": "function"
    }
  ],
  "transactionHash": "0xee7c3b19207e9bcc0ee9baa7b8685fc258fee0b6477e60c9c5821380f1593b56",
  "args": [
    "500000000000000000000000000",
    "100000000000000000000000000",
    "200000000000000000000000000",
    "80000000000000000000000000"
  ],
  "numDeployments": 1,
  "solcInputHash": "18122cecad17c7f35277e81b5475a72e",
  "bytecode": "0x61010060405234801561001157600080fd5b50604051610c09380380610c0983398181016040528101906100339190610097565b83608081815250508060a081815250508260c081815250508160e08181525050505050506100fe565b600080fd5b6000819050919050565b61007481610061565b811461007f57600080fd5b50565b6000815190506100918161006b565b92915050565b600080600080608085870312156100b1576100b061005c565b5b60006100bf87828801610082565b94505060206100d087828801610082565b93505060406100e187828801610082565b92505060606100f287828801610082565b91505092959194509250565b60805160a05160c05160e051610ab061015960003960006102760152600081816102b601526103350152600060dd01526000818161015c01528181610191015281816102420152818161030c01526105410152610ab06000f3fe608060405234801561001057600080fd5b50600436106100415760003560e01c80636ee082ca1461004657806380a5f70f14610077578063a15f30ac146100a8575b600080fd5b610060600480360381019061005b919061073f565b6100c6565b60405161006e9291906107b5565b60405180910390f35b610091600480360381019061008c91906107de565b6103c5565b60405161009f9291906107b5565b60405180910390f35b6100b061053f565b6040516100bd9190610880565b60405180910390f35b6000806100d161067e565b848160000181815250507f00000000000000000000000000000000000000000000000000000000000000008160200181815250506000816040018181525050600081600001511461014e5761014961013682600001518861056390919063ffffffff16565b826000015161057990919063ffffffff16565b610151565b60005b8160600181815250507f000000000000000000000000000000000000000000000000000000000000000081606001511115610304576102f66102b161023a7f000000000000000000000000000000000000000000000000000000000000000073CD01b59C7216A196032717B21cC9Dac8f5506f4E63df29d0716040518163ffffffff1660e01b815260040160206040518083038186803b1580156101f457600080fd5b505af4158015610208573d6000803e3d6000fd5b505050506040513d601f19601f8201168201806040525081019061022c91906108b0565b6105d790919063ffffffff16565b6102a36102747f000000000000000000000000000000000000000000000000000000000000000086606001516105d790919063ffffffff16565b7f00000000000000000000000000000000000000000000000000000000000000006105ed90919063ffffffff16565b61057990919063ffffffff16565b6102e87f0000000000000000000000000000000000000000000000000000000000000000846020015161056390919063ffffffff16565b61056390919063ffffffff16565b81602001818152505061038d565b6103836103707f000000000000000000000000000000000000000000000000000000000000000061036284606001517f00000000000000000000000000000000000000000000000000000000000000006105ed90919063ffffffff16565b61057990919063ffffffff16565b826020015161056390919063ffffffff16565b8160200181815250505b6103a48160600151856105ed90919063ffffffff16565b81604001818152505080604001518160200151925092505094509492505050565b60008060008973ffffffffffffffffffffffffffffffffffffffff166370a082318a6040518263ffffffff1660e01b815260040161040391906108ec565b60206040518083038186803b15801561041b57600080fd5b505afa15801561042f573d6000803e3d6000fd5b505050506040513d601f19601f8201168201806040525081019061045391906108b0565b905060008a73ffffffffffffffffffffffffffffffffffffffff166370a082318a6040518263ffffffff1660e01b815260040161049091906108ec565b60206040518083038186803b1580156104a857600080fd5b505afa1580156104bc573d6000803e3d6000fd5b505050506040513d601f19601f820116820180604052508101906104e091906108b0565b905060006104f7828461056390919063ffffffff16565b905061051e886105108b8461056390919063ffffffff16565b6105d790919063ffffffff16565b905061052c8c8289896100c6565b9450945050505097509795505050505050565b7f000000000000000000000000000000000000000000000000000000000000000081565b600081836105719190610936565b905092915050565b60008060028361058991906109bb565b90506105ce836105c06105b16b033b2e3c9fd0803ce80000008861065290919063ffffffff16565b8461056390919063ffffffff16565b61066890919063ffffffff16565b91505092915050565b600081836105e591906109ec565b905092915050565b600061064a6b033b2e3c9fd0803ce800000061063c610615858761065290919063ffffffff16565b60026b033b2e3c9fd0803ce800000061062e91906109bb565b61056390919063ffffffff16565b61066890919063ffffffff16565b905092915050565b600081836106609190610a20565b905092915050565b6000818361067691906109bb565b905092915050565b6040518060800160405280600081526020016000815260200160008152602001600081525090565b600080fd5b600073ffffffffffffffffffffffffffffffffffffffff82169050919050565b60006106d6826106ab565b9050919050565b6106e6816106cb565b81146106f157600080fd5b50565b600081359050610703816106dd565b92915050565b6000819050919050565b61071c81610709565b811461072757600080fd5b50565b60008135905061073981610713565b92915050565b60008060008060808587031215610759576107586106a6565b5b6000610767878288016106f4565b94505060206107788782880161072a565b93505060406107898782880161072a565b925050606061079a8782880161072a565b91505092959194509250565b6107af81610709565b82525050565b60006040820190506107ca60008301856107a6565b6107d760208301846107a6565b9392505050565b600080600080600080600060e0888a0312156107fd576107fc6106a6565b5b600061080b8a828b016106f4565b975050602061081c8a828b016106f4565b965050604061082d8a828b016106f4565b955050606061083e8a828b0161072a565b945050608061084f8a828b0161072a565b93505060a06108608a828b0161072a565b92505060c06108718a828b0161072a565b91505092959891949750929550565b600060208201905061089560008301846107a6565b92915050565b6000815190506108aa81610713565b92915050565b6000602082840312156108c6576108c56106a6565b5b60006108d48482850161089b565b91505092915050565b6108e6816106cb565b82525050565b600060208201905061090160008301846108dd565b92915050565b7f4e487b7100000000000000000000000000000000000000000000000000000000600052601160045260246000fd5b600061094182610709565b915061094c83610709565b9250827fffffffffffffffffffffffffffffffffffffffffffffffffffffffffffffffff0382111561098157610980610907565b5b828201905092915050565b7f4e487b7100000000000000000000000000000000000000000000000000000000600052601260045260246000fd5b60006109c682610709565b91506109d183610709565b9250826109e1576109e061098c565b5b828204905092915050565b60006109f782610709565b9150610a0283610709565b925082821015610a1557610a14610907565b5b828203905092915050565b6000610a2b82610709565b9150610a3683610709565b9250817fffffffffffffffffffffffffffffffffffffffffffffffffffffffffffffffff0483118215151615610a6f57610a6e610907565b5b82820290509291505056fea264697066735822122012ae04b99c9fd98002902178a041941f8d7e8a6e6bfc44068ed9e4002b59c9d064736f6c63430008090033",
  "deployedBytecode": "0x608060405234801561001057600080fd5b50600436106100415760003560e01c80636ee082ca1461004657806380a5f70f14610077578063a15f30ac146100a8575b600080fd5b610060600480360381019061005b919061073f565b6100c6565b60405161006e9291906107b5565b60405180910390f35b610091600480360381019061008c91906107de565b6103c5565b60405161009f9291906107b5565b60405180910390f35b6100b061053f565b6040516100bd9190610880565b60405180910390f35b6000806100d161067e565b848160000181815250507f00000000000000000000000000000000000000000000000000000000000000008160200181815250506000816040018181525050600081600001511461014e5761014961013682600001518861056390919063ffffffff16565b826000015161057990919063ffffffff16565b610151565b60005b8160600181815250507f000000000000000000000000000000000000000000000000000000000000000081606001511115610304576102f66102b161023a7f000000000000000000000000000000000000000000000000000000000000000073__$acfa992bb9b9449e585e2b7d311f34c7d0$__63df29d0716040518163ffffffff1660e01b815260040160206040518083038186803b1580156101f457600080fd5b505af4158015610208573d6000803e3d6000fd5b505050506040513d601f19601f8201168201806040525081019061022c91906108b0565b6105d790919063ffffffff16565b6102a36102747f000000000000000000000000000000000000000000000000000000000000000086606001516105d790919063ffffffff16565b7f00000000000000000000000000000000000000000000000000000000000000006105ed90919063ffffffff16565b61057990919063ffffffff16565b6102e87f0000000000000000000000000000000000000000000000000000000000000000846020015161056390919063ffffffff16565b61056390919063ffffffff16565b81602001818152505061038d565b6103836103707f000000000000000000000000000000000000000000000000000000000000000061036284606001517f00000000000000000000000000000000000000000000000000000000000000006105ed90919063ffffffff16565b61057990919063ffffffff16565b826020015161056390919063ffffffff16565b8160200181815250505b6103a48160600151856105ed90919063ffffffff16565b81604001818152505080604001518160200151925092505094509492505050565b60008060008973ffffffffffffffffffffffffffffffffffffffff166370a082318a6040518263ffffffff1660e01b815260040161040391906108ec565b60206040518083038186803b15801561041b57600080fd5b505afa15801561042f573d6000803e3d6000fd5b505050506040513d601f19601f8201168201806040525081019061045391906108b0565b905060008a73ffffffffffffffffffffffffffffffffffffffff166370a082318a6040518263ffffffff1660e01b815260040161049091906108ec565b60206040518083038186803b1580156104a857600080fd5b505afa1580156104bc573d6000803e3d6000fd5b505050506040513d601f19601f820116820180604052508101906104e091906108b0565b905060006104f7828461056390919063ffffffff16565b905061051e886105108b8461056390919063ffffffff16565b6105d790919063ffffffff16565b905061052c8c8289896100c6565b9450945050505097509795505050505050565b7f000000000000000000000000000000000000000000000000000000000000000081565b600081836105719190610936565b905092915050565b60008060028361058991906109bb565b90506105ce836105c06105b16b033b2e3c9fd0803ce80000008861065290919063ffffffff16565b8461056390919063ffffffff16565b61066890919063ffffffff16565b91505092915050565b600081836105e591906109ec565b905092915050565b600061064a6b033b2e3c9fd0803ce800000061063c610615858761065290919063ffffffff16565b60026b033b2e3c9fd0803ce800000061062e91906109bb565b61056390919063ffffffff16565b61066890919063ffffffff16565b905092915050565b600081836106609190610a20565b905092915050565b6000818361067691906109bb565b905092915050565b6040518060800160405280600081526020016000815260200160008152602001600081525090565b600080fd5b600073ffffffffffffffffffffffffffffffffffffffff82169050919050565b60006106d6826106ab565b9050919050565b6106e6816106cb565b81146106f157600080fd5b50565b600081359050610703816106dd565b92915050565b6000819050919050565b61071c81610709565b811461072757600080fd5b50565b60008135905061073981610713565b92915050565b60008060008060808587031215610759576107586106a6565b5b6000610767878288016106f4565b94505060206107788782880161072a565b93505060406107898782880161072a565b925050606061079a8782880161072a565b91505092959194509250565b6107af81610709565b82525050565b60006040820190506107ca60008301856107a6565b6107d760208301846107a6565b9392505050565b600080600080600080600060e0888a0312156107fd576107fc6106a6565b5b600061080b8a828b016106f4565b975050602061081c8a828b016106f4565b965050604061082d8a828b016106f4565b955050606061083e8a828b0161072a565b945050608061084f8a828b0161072a565b93505060a06108608a828b0161072a565b92505060c06108718a828b0161072a565b91505092959891949750929550565b600060208201905061089560008301846107a6565b92915050565b6000815190506108aa81610713565b92915050565b6000602082840312156108c6576108c56106a6565b5b60006108d48482850161089b565b91505092915050565b6108e6816106cb565b82525050565b600060208201905061090160008301846108dd565b92915050565b7f4e487b7100000000000000000000000000000000000000000000000000000000600052601160045260246000fd5b600061094182610709565b915061094c83610709565b9250827fffffffffffffffffffffffffffffffffffffffffffffffffffffffffffffffff0382111561098157610980610907565b5b828201905092915050565b7f4e487b7100000000000000000000000000000000000000000000000000000000600052601260045260246000fd5b60006109c682610709565b91506109d183610709565b9250826109e1576109e061098c565b5b828204905092915050565b60006109f782610709565b9150610a0283610709565b925082821015610a1557610a14610907565b5b828203905092915050565b6000610a2b82610709565b9150610a3683610709565b9250817fffffffffffffffffffffffffffffffffffffffffffffffffffffffffffffffff0483118215151615610a6f57610a6e610907565b5b82820290509291505056fea264697066735822122012ae04b99c9fd98002902178a041941f8d7e8a6e6bfc44068ed9e4002b59c9d064736f6c63430008090033",
  "libraries": {
    "WadRayMath": "0xCD01b59C7216A196032717B21cC9Dac8f5506f4E"
  },
  "devdoc": {
    "kind": "dev",
    "methods": {
      "calculateInterestRates(address,address,address,uint256,uint256,uint256,uint256)": {
        "details": "Calculates the interest rates depending on the reserve's state and configuration",
        "params": {
          "averageBorrowRate": "The current average borrow rate*",
          "juniorDepositToken": "The address of junior deposit token",
          "liquidityAdded": "The liquidity added during the operation",
          "liquidityTaken": "The liquidity taken during the operation",
          "reserve": "The address of the reserve",
          "seniorDepositToken": "The address of senior deposit token",
          "totalStableDebt": "The total borrowed from the reserve a stable rate"
        }
      },
      "calculateInterestRates(address,uint256,uint256,uint256)": {
        "details": "Calculates the interest rates depending on the reserve's state and configurations.",
        "params": {
          "availableLiquidity": "The liquidity available in the corresponding aToken",
          "averageBorrowRate": "The current average borrow rate*",
          "reserve": "The address of the reserve",
          "totalStableDebt": "The total borrowed from the reserve a stable rate"
        },
        "returns": {
          "_0": "The liquidity rate, the stable borrow rate"
        }
      }
    },
    "version": 1
  },
  "userdoc": {
    "kind": "user",
    "methods": {
      "OPTIMAL_UTILIZATION_RATE()": {
        "notice": "this constant represents the utilization rate at which the pool aims to obtain most competitive borrow rates Expressed in RAY*"
      }
    },
    "version": 1
  },
  "storageLayout": {
    "storage": [],
    "types": null
  }
}