{
  "address": "0x6A852897F10E9ae2c93072EAD01A770fa96b2C01",
  "abi": [
    {
      "inputs": [
        {
          "internalType": "uint256",
          "name": "_optimalUtilizationRate",
          "type": "uint256"
        },
        {
          "internalType": "uint256",
          "name": "_stableRateSlope1",
          "type": "uint256"
        },
        {
          "internalType": "uint256",
          "name": "_stableRateSlope2",
          "type": "uint256"
        },
        {
          "internalType": "uint256",
          "name": "_baseBorrowRate",
          "type": "uint256"
        }
      ],
      "stateMutability": "nonpayable",
      "type": "constructor"
    },
    {
      "inputs": [],
      "name": "OPTIMAL_UTILIZATION_RATE",
      "outputs": [
        {
          "internalType": "uint256",
          "name": "",
          "type": "uint256"
        }
      ],
      "stateMutability": "view",
      "type": "function"
    },
    {
      "inputs": [
        {
          "internalType": "address",
          "name": "reserve",
          "type": "address"
        },
        {
          "internalType": "uint256",
          "name": "availableLiquidity",
          "type": "uint256"
        },
        {
          "internalType": "uint256",
          "name": "totalStableDebt",
          "type": "uint256"
        },
        {
          "internalType": "uint256",
          "name": "averageBorrowRate",
          "type": "uint256"
        }
      ],
      "name": "calculateInterestRates",
      "outputs": [
        {
          "internalType": "uint256",
          "name": "",
          "type": "uint256"
        },
        {
          "internalType": "uint256",
          "name": "",
          "type": "uint256"
        }
      ],
      "stateMutability": "view",
      "type": "function"
    },
    {
      "inputs": [
        {
          "internalType": "address",
          "name": "reserve",
          "type": "address"
        },
        {
          "internalType": "address",
          "name": "juniorDepositToken",
          "type": "address"
        },
        {
          "internalType": "address",
          "name": "seniorDepositToken",
          "type": "address"
        },
        {
          "internalType": "uint256",
          "name": "liquidityAdded",
          "type": "uint256"
        },
        {
          "internalType": "uint256",
          "name": "liquidityTaken",
          "type": "uint256"
        },
        {
          "internalType": "uint256",
          "name": "totalStableDebt",
          "type": "uint256"
        },
        {
          "internalType": "uint256",
          "name": "averageBorrowRate",
          "type": "uint256"
        }
      ],
      "name": "calculateInterestRates",
      "outputs": [
        {
          "internalType": "uint256",
          "name": "",
          "type": "uint256"
        },
        {
          "internalType": "uint256",
          "name": "",
          "type": "uint256"
        }
      ],
      "stateMutability": "view",
      "type": "function"
    }
  ],
  "transactionHash": "0x98beccec524765f65d77090324af9fca26b1bc0b45580eeddd0f003df44adbc7",
  "args": [
    "500000000000000000000000000",
    "100000000000000000000000000",
    "200000000000000000000000000",
    "80000000000000000000000000"
  ],
  "numDeployments": 1,
  "solcInputHash": "05c39977b28574de0bf36f6a271259a2",
  "bytecode": "0x61010060405234801561001157600080fd5b5060405161085238038061085283398101604081905261003091610047565b60809390935260a09290925260c05260e05261007d565b6000806000806080858703121561005d57600080fd5b505082516020840151604085015160609095015191969095509092509050565b60805160a05160c05160e05161077b6100d7600039600061024f01526000818161028501526102ea0152600060ee015260008181608b01528181610149015281816101790152818161022901526102c1015261077b6000f3fe608060405234801561001057600080fd5b50600436106100415760003560e01c80636ee082ca1461004657806380a5f70f14610073578063a15f30ac14610086575b600080fd5b6100596100543660046105b5565b6100bb565b604080519283526020830191909152015b60405180910390f35b6100596100813660046105ee565b610352565b6100ad7f000000000000000000000000000000000000000000000000000000000000000081565b60405190815260200161006a565b6000806100e96040518060800160405280600081526020016000815260200160008152602001600081525090565b8481527f0000000000000000000000000000000000000000000000000000000000000000602082015260006040820152841561013d578051610138906101309088906104dd565b8251906104f0565b610140565b60005b606082018190527f000000000000000000000000000000000000000000000000000000000000000010156102b9576102af61027a61021a7f000000000000000000000000000000000000000000000000000000000000000073780e127d90E9366947E70fcEe51C5C03890503eB63df29d0716040518163ffffffff1660e01b815260040160206040518083038186803b1580156101dc57600080fd5b505af41580156101f0573d6000803e3d6000fd5b505050506040513d601f19601f820116820180604052508101906102149190610656565b90610532565b60608401516102749061024d907f0000000000000000000000000000000000000000000000000000000000000000610532565b7f00000000000000000000000000000000000000000000000000000000000000009061053e565b906104f0565b60208301516102a9907f00000000000000000000000000000000000000000000000000000000000000006104dd565b906104dd565b6020820152610328565b6103226103177f000000000000000000000000000000000000000000000000000000000000000061027484606001517f000000000000000000000000000000000000000000000000000000000000000061053e90919063ffffffff16565b6020830151906104dd565b60208201525b606081015161033890859061053e565b604082018190526020909101519097909650945050505050565b6040517f70a0823100000000000000000000000000000000000000000000000000000000815273ffffffffffffffffffffffffffffffffffffffff878116600483015260009182918291908b16906370a082319060240160206040518083038186803b1580156103c157600080fd5b505afa1580156103d5573d6000803e3d6000fd5b505050506040513d601f19601f820116820180604052508101906103f99190610656565b6040517f70a0823100000000000000000000000000000000000000000000000000000000815273ffffffffffffffffffffffffffffffffffffffff8a811660048301529192506000918c16906370a082319060240160206040518083038186803b15801561046657600080fd5b505afa15801561047a573d6000803e3d6000fd5b505050506040513d601f19601f8201168201806040525081019061049e9190610656565b905060006104ac83836104dd565b90506104bc88610214838c6104dd565b90506104ca8c8289896100bb565b9450945050505097509795505050505050565b60006104e9828461069e565b9392505050565b6000806104fe6002846106b6565b905061052a8361052461051d876b033b2e3c9fd0803ce8000000610574565b84906104dd565b90610580565b949350505050565b60006104e982846106f1565b60006104e96b033b2e3c9fd0803ce800000061052461055d8686610574565b6102a960026b033b2e3c9fd0803ce80000006106b6565b60006104e98284610708565b60006104e982846106b6565b803573ffffffffffffffffffffffffffffffffffffffff811681146105b057600080fd5b919050565b600080600080608085870312156105cb57600080fd5b6105d48561058c565b966020860135965060408601359560600135945092505050565b600080600080600080600060e0888a03121561060957600080fd5b6106128861058c565b96506106206020890161058c565b955061062e6040890161058c565b969995985095966060810135965060808101359560a0820135955060c0909101359350915050565b60006020828403121561066857600080fd5b5051919050565b7f4e487b7100000000000000000000000000000000000000000000000000000000600052601160045260246000fd5b600082198211156106b1576106b161066f565b500190565b6000826106ec577f4e487b7100000000000000000000000000000000000000000000000000000000600052601260045260246000fd5b500490565b6000828210156107035761070361066f565b500390565b6000817fffffffffffffffffffffffffffffffffffffffffffffffffffffffffffffffff04831182151516156107405761074061066f565b50029056fea26469706673582212201035fc36d979d46ae0bb917d724492c68b44aea4411ad144873c3f1b599f09c164736f6c63430008090033",
  "deployedBytecode": "0x608060405234801561001057600080fd5b50600436106100415760003560e01c80636ee082ca1461004657806380a5f70f14610073578063a15f30ac14610086575b600080fd5b6100596100543660046105b5565b6100bb565b604080519283526020830191909152015b60405180910390f35b6100596100813660046105ee565b610352565b6100ad7f000000000000000000000000000000000000000000000000000000000000000081565b60405190815260200161006a565b6000806100e96040518060800160405280600081526020016000815260200160008152602001600081525090565b8481527f0000000000000000000000000000000000000000000000000000000000000000602082015260006040820152841561013d578051610138906101309088906104dd565b8251906104f0565b610140565b60005b606082018190527f000000000000000000000000000000000000000000000000000000000000000010156102b9576102af61027a61021a7f000000000000000000000000000000000000000000000000000000000000000073__$acfa992bb9b9449e585e2b7d311f34c7d0$__63df29d0716040518163ffffffff1660e01b815260040160206040518083038186803b1580156101dc57600080fd5b505af41580156101f0573d6000803e3d6000fd5b505050506040513d601f19601f820116820180604052508101906102149190610656565b90610532565b60608401516102749061024d907f0000000000000000000000000000000000000000000000000000000000000000610532565b7f00000000000000000000000000000000000000000000000000000000000000009061053e565b906104f0565b60208301516102a9907f00000000000000000000000000000000000000000000000000000000000000006104dd565b906104dd565b6020820152610328565b6103226103177f000000000000000000000000000000000000000000000000000000000000000061027484606001517f000000000000000000000000000000000000000000000000000000000000000061053e90919063ffffffff16565b6020830151906104dd565b60208201525b606081015161033890859061053e565b604082018190526020909101519097909650945050505050565b6040517f70a0823100000000000000000000000000000000000000000000000000000000815273ffffffffffffffffffffffffffffffffffffffff878116600483015260009182918291908b16906370a082319060240160206040518083038186803b1580156103c157600080fd5b505afa1580156103d5573d6000803e3d6000fd5b505050506040513d601f19601f820116820180604052508101906103f99190610656565b6040517f70a0823100000000000000000000000000000000000000000000000000000000815273ffffffffffffffffffffffffffffffffffffffff8a811660048301529192506000918c16906370a082319060240160206040518083038186803b15801561046657600080fd5b505afa15801561047a573d6000803e3d6000fd5b505050506040513d601f19601f8201168201806040525081019061049e9190610656565b905060006104ac83836104dd565b90506104bc88610214838c6104dd565b90506104ca8c8289896100bb565b9450945050505097509795505050505050565b60006104e9828461069e565b9392505050565b6000806104fe6002846106b6565b905061052a8361052461051d876b033b2e3c9fd0803ce8000000610574565b84906104dd565b90610580565b949350505050565b60006104e982846106f1565b60006104e96b033b2e3c9fd0803ce800000061052461055d8686610574565b6102a960026b033b2e3c9fd0803ce80000006106b6565b60006104e98284610708565b60006104e982846106b6565b803573ffffffffffffffffffffffffffffffffffffffff811681146105b057600080fd5b919050565b600080600080608085870312156105cb57600080fd5b6105d48561058c565b966020860135965060408601359560600135945092505050565b600080600080600080600060e0888a03121561060957600080fd5b6106128861058c565b96506106206020890161058c565b955061062e6040890161058c565b969995985095966060810135965060808101359560a0820135955060c0909101359350915050565b60006020828403121561066857600080fd5b5051919050565b7f4e487b7100000000000000000000000000000000000000000000000000000000600052601160045260246000fd5b600082198211156106b1576106b161066f565b500190565b6000826106ec577f4e487b7100000000000000000000000000000000000000000000000000000000600052601260045260246000fd5b500490565b6000828210156107035761070361066f565b500390565b6000817fffffffffffffffffffffffffffffffffffffffffffffffffffffffffffffffff04831182151516156107405761074061066f565b50029056fea26469706673582212201035fc36d979d46ae0bb917d724492c68b44aea4411ad144873c3f1b599f09c164736f6c63430008090033",
  "libraries": {
    "WadRayMath": "0x780e127d90E9366947E70fcEe51C5C03890503eB"
  },
  "devdoc": {
    "kind": "dev",
    "methods": {
      "calculateInterestRates(address,address,address,uint256,uint256,uint256,uint256)": {
        "details": "Calculates the interest rates depending on the reserve's state and configuration",
        "params": {
          "averageBorrowRate": "The current average borrow rate*",
          "juniorDepositToken": "The address of junior deposit token",
          "liquidityAdded": "The liquidity added during the operation",
          "liquidityTaken": "The liquidity taken during the operation",
          "reserve": "The address of the reserve",
          "seniorDepositToken": "The address of senior deposit token",
          "totalStableDebt": "The total borrowed from the reserve a stable rate"
        }
      },
      "calculateInterestRates(address,uint256,uint256,uint256)": {
        "details": "Calculates the interest rates depending on the reserve's state and configurations.",
        "params": {
          "availableLiquidity": "The liquidity available in the corresponding aToken",
          "averageBorrowRate": "The current average borrow rate*",
          "reserve": "The address of the reserve",
          "totalStableDebt": "The total borrowed from the reserve a stable rate"
        },
        "returns": {
          "_0": "The liquidity rate, the stable borrow rate"
        }
      }
    },
    "version": 1
  },
  "userdoc": {
    "kind": "user",
    "methods": {
      "OPTIMAL_UTILIZATION_RATE()": {
        "notice": "this constant represents the utilization rate at which the pool aims to obtain most competitive borrow rates Expressed in RAY*"
      }
    },
    "version": 1
  },
  "storageLayout": {
    "storage": [],
    "types": null
  }
}