{
  "address": "0xac55b3942E323F8bD1B15e8B54DDcDa19deD3d1D",
  "abi": [
    {
      "inputs": [
        {
          "internalType": "uint256",
          "name": "_optimalUtilizationRate",
          "type": "uint256"
        },
        {
          "internalType": "uint256",
          "name": "_stableRateSlope1",
          "type": "uint256"
        },
        {
          "internalType": "uint256",
          "name": "_stableRateSlope2",
          "type": "uint256"
        },
        {
          "internalType": "uint256",
          "name": "_baseBorrowRate",
          "type": "uint256"
        }
      ],
      "stateMutability": "nonpayable",
      "type": "constructor"
    },
    {
      "inputs": [],
      "name": "OPTIMAL_UTILIZATION_RATE",
      "outputs": [
        {
          "internalType": "uint256",
          "name": "",
          "type": "uint256"
        }
      ],
      "stateMutability": "view",
      "type": "function"
    },
    {
      "inputs": [
        {
          "internalType": "address",
          "name": "reserve",
          "type": "address"
        },
        {
          "internalType": "uint256",
          "name": "availableLiquidity",
          "type": "uint256"
        },
        {
          "internalType": "uint256",
          "name": "totalStableDebt",
          "type": "uint256"
        },
        {
          "internalType": "uint256",
          "name": "averageBorrowRate",
          "type": "uint256"
        }
      ],
      "name": "calculateInterestRates",
      "outputs": [
        {
          "internalType": "uint256",
          "name": "",
          "type": "uint256"
        },
        {
          "internalType": "uint256",
          "name": "",
          "type": "uint256"
        }
      ],
      "stateMutability": "view",
      "type": "function"
    },
    {
      "inputs": [
        {
          "internalType": "address",
          "name": "reserve",
          "type": "address"
        },
        {
          "internalType": "address",
          "name": "seniorDepositTokenAddress",
          "type": "address"
        },
        {
          "internalType": "uint256",
          "name": "liquidityAdded",
          "type": "uint256"
        },
        {
          "internalType": "uint256",
          "name": "liquidityTaken",
          "type": "uint256"
        },
        {
          "internalType": "uint256",
          "name": "totalStableDebt",
          "type": "uint256"
        },
        {
          "internalType": "uint256",
          "name": "averageBorrowRate",
          "type": "uint256"
        }
      ],
      "name": "calculateInterestRates",
      "outputs": [
        {
          "internalType": "uint256",
          "name": "",
          "type": "uint256"
        },
        {
          "internalType": "uint256",
          "name": "",
          "type": "uint256"
        }
      ],
      "stateMutability": "view",
      "type": "function"
    }
  ],
  "transactionHash": "0x21c87aba9aec2d41246431c82217dc8f4afa93f33f8646b85526ba801bd2cbbd",
  "args": [
    "800000000000000000000000000",
    "40000000000000000000000000",
    "1000000000000000000000000000",
    "180000000000000000000000000"
  ],
  "numDeployments": 1,
  "solcInputHash": "9e31516522b1cfe477b23cf57050ac2a",
  "bytecode": "0x61010060405234801561001157600080fd5b5060405161081838038061081883398101604081905261003091610047565b60809390935260a09290925260c05260e05261007d565b6000806000806080858703121561005d57600080fd5b505082516020840151604085015160609095015191969095509092509050565b60805160a05160c05160e0516107416100d7600039600061024f01526000818161028501526102ea0152600060ee015260008181608b01528181610149015281816101790152818161022901526102c101526107416000f3fe608060405234801561001057600080fd5b50600436106100415760003560e01c80636ee082ca1461004657806381c8c97214610073578063a15f30ac14610086575b600080fd5b61005961005436600461058e565b6100bb565b604080519283526020830191909152015b60405180910390f35b6100596100813660046105c7565b610352565b6100ad7f000000000000000000000000000000000000000000000000000000000000000081565b60405190815260200161006a565b6000806100e96040518060800160405280600081526020016000815260200160008152602001600081525090565b8481527f0000000000000000000000000000000000000000000000000000000000000000602082015260006040820152841561013d578051610138906101309088906104b6565b8251906104c9565b610140565b60005b606082018190527f000000000000000000000000000000000000000000000000000000000000000010156102b9576102af61027a61021a7f00000000000000000000000000000000000000000000000000000000000000007385cd50B9F05E6244eC973d75dAc84eE51803E87563df29d0716040518163ffffffff1660e01b815260040160206040518083038186803b1580156101dc57600080fd5b505af41580156101f0573d6000803e3d6000fd5b505050506040513d601f19601f82011682018060405250810190610214919061061c565b9061050b565b60608401516102749061024d907f000000000000000000000000000000000000000000000000000000000000000061050b565b7f000000000000000000000000000000000000000000000000000000000000000090610517565b906104c9565b60208301516102a9907f00000000000000000000000000000000000000000000000000000000000000006104b6565b906104b6565b6020820152610328565b6103226103177f000000000000000000000000000000000000000000000000000000000000000061027484606001517f000000000000000000000000000000000000000000000000000000000000000061051790919063ffffffff16565b6020830151906104b6565b60208201525b6060810151610338908590610517565b604082018190526020909101519097909650945050505050565b60008060008773ffffffffffffffffffffffffffffffffffffffff1663350fd0be6040518163ffffffff1660e01b815260040160206040518083038186803b15801561039d57600080fd5b505afa1580156103b1573d6000803e3d6000fd5b505050506040513d601f19601f820116820180604052508101906103d5919061061c565b6040517f70a0823100000000000000000000000000000000000000000000000000000000815273ffffffffffffffffffffffffffffffffffffffff8a811660048301529192506000918391908c16906370a082319060240160206040518083038186803b15801561044557600080fd5b505afa158015610459573d6000803e3d6000fd5b505050506040513d601f19601f8201168201806040525081019061047d919061061c565b6104879190610664565b905061049787610214838b6104b6565b90506104a58a8288886100bb565b935093505050965096945050505050565b60006104c2828461067b565b9392505050565b6000806104d7600284610693565b9050610503836104fd6104f6876b033b2e3c9fd0803ce800000061054d565b84906104b6565b90610559565b949350505050565b60006104c28284610664565b60006104c26b033b2e3c9fd0803ce80000006104fd610536868661054d565b6102a960026b033b2e3c9fd0803ce8000000610693565b60006104c282846106ce565b60006104c28284610693565b803573ffffffffffffffffffffffffffffffffffffffff8116811461058957600080fd5b919050565b600080600080608085870312156105a457600080fd5b6105ad85610565565b966020860135965060408601359560600135945092505050565b60008060008060008060c087890312156105e057600080fd5b6105e987610565565b95506105f760208801610565565b95989597505050506040840135936060810135936080820135935060a0909101359150565b60006020828403121561062e57600080fd5b5051919050565b7f4e487b7100000000000000000000000000000000000000000000000000000000600052601160045260246000fd5b60008282101561067657610676610635565b500390565b6000821982111561068e5761068e610635565b500190565b6000826106c9577f4e487b7100000000000000000000000000000000000000000000000000000000600052601260045260246000fd5b500490565b6000817fffffffffffffffffffffffffffffffffffffffffffffffffffffffffffffffff048311821515161561070657610706610635565b50029056fea2646970667358221220a1652029a5a258857ef764566e87b2f7f1ccfaf96cae7d3b6dfba194611f3b5464736f6c63430008090033",
  "deployedBytecode": "0x608060405234801561001057600080fd5b50600436106100415760003560e01c80636ee082ca1461004657806381c8c97214610073578063a15f30ac14610086575b600080fd5b61005961005436600461058e565b6100bb565b604080519283526020830191909152015b60405180910390f35b6100596100813660046105c7565b610352565b6100ad7f000000000000000000000000000000000000000000000000000000000000000081565b60405190815260200161006a565b6000806100e96040518060800160405280600081526020016000815260200160008152602001600081525090565b8481527f0000000000000000000000000000000000000000000000000000000000000000602082015260006040820152841561013d578051610138906101309088906104b6565b8251906104c9565b610140565b60005b606082018190527f000000000000000000000000000000000000000000000000000000000000000010156102b9576102af61027a61021a7f000000000000000000000000000000000000000000000000000000000000000073__$ef5c87afe2100660bcb9f7ea72d7fd8918$__63df29d0716040518163ffffffff1660e01b815260040160206040518083038186803b1580156101dc57600080fd5b505af41580156101f0573d6000803e3d6000fd5b505050506040513d601f19601f82011682018060405250810190610214919061061c565b9061050b565b60608401516102749061024d907f000000000000000000000000000000000000000000000000000000000000000061050b565b7f000000000000000000000000000000000000000000000000000000000000000090610517565b906104c9565b60208301516102a9907f00000000000000000000000000000000000000000000000000000000000000006104b6565b906104b6565b6020820152610328565b6103226103177f000000000000000000000000000000000000000000000000000000000000000061027484606001517f000000000000000000000000000000000000000000000000000000000000000061051790919063ffffffff16565b6020830151906104b6565b60208201525b6060810151610338908590610517565b604082018190526020909101519097909650945050505050565b60008060008773ffffffffffffffffffffffffffffffffffffffff1663350fd0be6040518163ffffffff1660e01b815260040160206040518083038186803b15801561039d57600080fd5b505afa1580156103b1573d6000803e3d6000fd5b505050506040513d601f19601f820116820180604052508101906103d5919061061c565b6040517f70a0823100000000000000000000000000000000000000000000000000000000815273ffffffffffffffffffffffffffffffffffffffff8a811660048301529192506000918391908c16906370a082319060240160206040518083038186803b15801561044557600080fd5b505afa158015610459573d6000803e3d6000fd5b505050506040513d601f19601f8201168201806040525081019061047d919061061c565b6104879190610664565b905061049787610214838b6104b6565b90506104a58a8288886100bb565b935093505050965096945050505050565b60006104c2828461067b565b9392505050565b6000806104d7600284610693565b9050610503836104fd6104f6876b033b2e3c9fd0803ce800000061054d565b84906104b6565b90610559565b949350505050565b60006104c28284610664565b60006104c26b033b2e3c9fd0803ce80000006104fd610536868661054d565b6102a960026b033b2e3c9fd0803ce8000000610693565b60006104c282846106ce565b60006104c28284610693565b803573ffffffffffffffffffffffffffffffffffffffff8116811461058957600080fd5b919050565b600080600080608085870312156105a457600080fd5b6105ad85610565565b966020860135965060408601359560600135945092505050565b60008060008060008060c087890312156105e057600080fd5b6105e987610565565b95506105f760208801610565565b95989597505050506040840135936060810135936080820135935060a0909101359150565b60006020828403121561062e57600080fd5b5051919050565b7f4e487b7100000000000000000000000000000000000000000000000000000000600052601160045260246000fd5b60008282101561067657610676610635565b500390565b6000821982111561068e5761068e610635565b500190565b6000826106c9577f4e487b7100000000000000000000000000000000000000000000000000000000600052601260045260246000fd5b500490565b6000817fffffffffffffffffffffffffffffffffffffffffffffffffffffffffffffffff048311821515161561070657610706610635565b50029056fea2646970667358221220a1652029a5a258857ef764566e87b2f7f1ccfaf96cae7d3b6dfba194611f3b5464736f6c63430008090033",
  "libraries": {
    "WadRayMath": "0x85cd50B9F05E6244eC973d75dAc84eE51803E875"
  },
  "devdoc": {
    "kind": "dev",
    "methods": {
      "calculateInterestRates(address,address,uint256,uint256,uint256,uint256)": {
        "details": "Calculates the interest rates depending on the reserve's state and configuration",
        "params": {
          "averageBorrowRate": "The current average borrow rate*",
          "liquidityAdded": "The liquidity added during the operation",
          "liquidityTaken": "The liquidity taken during the operation",
          "reserve": "The address of the reserve",
          "seniorDepositTokenAddress": "The address of senior deposit token",
          "totalStableDebt": "The total borrowed from the reserve a stable rate"
        }
      },
      "calculateInterestRates(address,uint256,uint256,uint256)": {
        "details": "Calculates the interest rates depending on the reserve's state and configurations.",
        "params": {
          "availableLiquidity": "The liquidity available in the corresponding aToken",
          "averageBorrowRate": "The current average borrow rate",
          "reserve": "The address of the reserve",
          "totalStableDebt": "The total borrowed from the reserve a stable rate"
        },
        "returns": {
          "_0": "The liquidity rate, the stable borrow rate*"
        }
      }
    },
    "version": 1
  },
  "userdoc": {
    "kind": "user",
    "methods": {
      "OPTIMAL_UTILIZATION_RATE()": {
        "notice": "this constant represents the utilization rate at which the pool aims to obtain most competitive borrow rates Expressed in RAY*"
      }
    },
    "version": 1
  },
  "storageLayout": {
    "storage": [],
    "types": null
  }
}