{
  "address": "0x472cCbe8e8302Dd2Ca7AB8dd58e90FeFC9e528f5",
  "abi": [
    {
      "inputs": [
        {
          "internalType": "uint256",
          "name": "_term",
          "type": "uint256"
        },
        {
          "internalType": "uint256",
          "name": "_epoch",
          "type": "uint256"
        },
        {
          "internalType": "uint256",
          "name": "_grace",
          "type": "uint256"
        },
        {
          "internalType": "uint256",
          "name": "_liquidationBonus",
          "type": "uint256"
        },
        {
          "internalType": "uint256",
          "name": "_marginRequirement",
          "type": "uint256"
        }
      ],
      "stateMutability": "nonpayable",
      "type": "constructor"
    },
    {
      "inputs": [],
      "name": "epoch",
      "outputs": [
        {
          "internalType": "uint256",
          "name": "",
          "type": "uint256"
        }
      ],
      "stateMutability": "view",
      "type": "function"
    },
    {
      "inputs": [],
      "name": "getEpoch",
      "outputs": [
        {
          "internalType": "uint256",
          "name": "",
          "type": "uint256"
        }
      ],
      "stateMutability": "view",
      "type": "function"
    },
    {
      "inputs": [],
      "name": "getGrace",
      "outputs": [
        {
          "internalType": "uint256",
          "name": "",
          "type": "uint256"
        }
      ],
      "stateMutability": "view",
      "type": "function"
    },
    {
      "inputs": [],
      "name": "getLiquidateBonus",
      "outputs": [
        {
          "internalType": "uint256",
          "name": "",
          "type": "uint256"
        }
      ],
      "stateMutability": "view",
      "type": "function"
    },
    {
      "inputs": [],
      "name": "getLiquidationParams",
      "outputs": [
        {
          "internalType": "uint256",
          "name": "",
          "type": "uint256"
        },
        {
          "internalType": "uint256",
          "name": "",
          "type": "uint256"
        },
        {
          "internalType": "uint256",
          "name": "",
          "type": "uint256"
        }
      ],
      "stateMutability": "view",
      "type": "function"
    },
    {
      "inputs": [],
      "name": "getMarginRequirement",
      "outputs": [
        {
          "internalType": "uint256",
          "name": "",
          "type": "uint256"
        }
      ],
      "stateMutability": "view",
      "type": "function"
    },
    {
      "inputs": [],
      "name": "getTerm",
      "outputs": [
        {
          "internalType": "uint256",
          "name": "",
          "type": "uint256"
        }
      ],
      "stateMutability": "view",
      "type": "function"
    },
    {
      "inputs": [],
      "name": "grace",
      "outputs": [
        {
          "internalType": "uint256",
          "name": "",
          "type": "uint256"
        }
      ],
      "stateMutability": "view",
      "type": "function"
    },
    {
      "inputs": [],
      "name": "liquidationBonus",
      "outputs": [
        {
          "internalType": "uint256",
          "name": "",
          "type": "uint256"
        }
      ],
      "stateMutability": "view",
      "type": "function"
    },
    {
      "inputs": [],
      "name": "marginRequirement",
      "outputs": [
        {
          "internalType": "uint256",
          "name": "",
          "type": "uint256"
        }
      ],
      "stateMutability": "view",
      "type": "function"
    },
    {
      "inputs": [],
      "name": "term",
      "outputs": [
        {
          "internalType": "uint256",
          "name": "",
          "type": "uint256"
        }
      ],
      "stateMutability": "view",
      "type": "function"
    }
  ],
  "transactionHash": "0xee41115433e4d0757607cc8f77696aae8481cefc7b87db1f130442cdf4003974",
  "args": [
    90,
    30,
    10,
    "100000000000000000000000000",
    "300000000000000000000000000"
  ],
  "numDeployments": 1,
  "solcInputHash": "69865adbcb28e0ed9c987fbab724fb9c",
  "bytecode": "0x61012060405234801561001157600080fd5b506040516104173803806104178339810160408190526100309161004b565b60809490945260a09290925260c05260e0526101005261008b565b600080600080600060a0868803121561006357600080fd5b5050835160208501516040860151606087015160809097015192989197509594509092509050565b60805160a05160c05160e051610100516103116101066000396000818160d00152818161015501526101c60152600081816101a00152818161021f015261029101526000818161012e0152818161017d01526102b70152600081816101f60152610246015260008181610105015261026d01526103116000f3fe608060405234801561001057600080fd5b50600436106100c95760003560e01c8063757991a811610081578063a10ffbed1161005b578063a10ffbed14610268578063cd6cfbd11461028f578063d5020679146102b557600080fd5b8063757991a8146101f45780637b7c1f4c1461021a578063900cf0cf1461024157600080fd5b80631eefddb1116100b25780631eefddb1146101295780632d4fbf041461015057806332c358ac1461017757600080fd5b8063088e84d1146100ce578063124b65b414610103575b600080fd5b7f00000000000000000000000000000000000000000000000000000000000000005b6040519081526020015b60405180910390f35b7f00000000000000000000000000000000000000000000000000000000000000006100f0565b6100f07f000000000000000000000000000000000000000000000000000000000000000081565b6100f07f000000000000000000000000000000000000000000000000000000000000000081565b604080517f000000000000000000000000000000000000000000000000000000000000000081527f000000000000000000000000000000000000000000000000000000000000000060208201527f0000000000000000000000000000000000000000000000000000000000000000918101919091526060016100fa565b7f00000000000000000000000000000000000000000000000000000000000000006100f0565b6100f07f000000000000000000000000000000000000000000000000000000000000000081565b6100f07f000000000000000000000000000000000000000000000000000000000000000081565b6100f07f000000000000000000000000000000000000000000000000000000000000000081565b7f00000000000000000000000000000000000000000000000000000000000000006100f0565b7f00000000000000000000000000000000000000000000000000000000000000006100f056fea2646970667358221220fdf446dac1308e6e0ddf6ac240b168adb59a78f443fd321f8466e7397844bc9764736f6c63430008090033",
  "devdoc": {
    "kind": "dev",
    "methods": {},
    "version": 1
  },
  "userdoc": {
    "kind": "user",
    "methods": {},
    "version": 1
  },
  "storageLayout": {
    "storage": [],
    "types": null
  }
}