{
  "address": "0x9f195876f74DD164a859f5f5462107E150281e30",
  "abi": [
    {
      "inputs": [
        {
          "internalType": "uint256",
          "name": "_premiumFactor",
          "type": "uint256"
        },
        {
          "internalType": "uint256",
          "name": "_loanTenure",
          "type": "uint256"
        },
        {
          "internalType": "uint256",
          "name": "_weightedLTV",
          "type": "uint256"
        },
        {
          "internalType": "uint256",
          "name": "_weightedRepaymentRatio",
          "type": "uint256"
        }
      ],
      "stateMutability": "nonpayable",
      "type": "constructor"
    },
    {
      "inputs": [
        {
          "components": [
            {
              "internalType": "uint256",
              "name": "securityDeposit",
              "type": "uint256"
            },
            {
              "internalType": "uint256",
              "name": "currentBorrowRate",
              "type": "uint256"
            },
            {
              "internalType": "uint256",
              "name": "compoundedDebt",
              "type": "uint256"
            },
            {
              "internalType": "uint256",
              "name": "grossAssetValue",
              "type": "uint256"
            }
          ],
          "internalType": "struct DataTypes.HealthRiskParameter",
          "name": "hrp",
          "type": "tuple"
        }
      ],
      "name": "calculateHealthRisk",
      "outputs": [
        {
          "internalType": "uint256",
          "name": "",
          "type": "uint256"
        }
      ],
      "stateMutability": "view",
      "type": "function"
    },
    {
      "inputs": [],
      "name": "getLoanTenure",
      "outputs": [
        {
          "internalType": "uint256",
          "name": "",
          "type": "uint256"
        }
      ],
      "stateMutability": "view",
      "type": "function"
    },
    {
      "inputs": [],
      "name": "getPremiumFactor",
      "outputs": [
        {
          "internalType": "uint256",
          "name": "",
          "type": "uint256"
        }
      ],
      "stateMutability": "view",
      "type": "function"
    },
    {
      "inputs": [],
      "name": "getWeightedLTV",
      "outputs": [
        {
          "internalType": "uint256",
          "name": "",
          "type": "uint256"
        }
      ],
      "stateMutability": "view",
      "type": "function"
    },
    {
      "inputs": [],
      "name": "getWeightedRepaymentRatio",
      "outputs": [
        {
          "internalType": "uint256",
          "name": "",
          "type": "uint256"
        }
      ],
      "stateMutability": "view",
      "type": "function"
    }
  ],
  "transactionHash": "0x69453f6a3ea34e9949ff82de65006bd85c8e68428fa100cb07224f1bbeacab91",
  "args": [
    "5000000000000000000000000000",
    "5000000000000000000000000000",
    "2000000000000000000000000000",
    "8000000000000000000000000000"
  ],
  "numDeployments": 2,
  "solcInputHash": "12f50c75a18b6f714019b390413b1deb",
  "bytecode": "0x61010060405234801561001157600080fd5b506040516104c93803806104c983398101604081905261003091610047565b60809390935260a09190915260c05260e05261007d565b6000806000806080858703121561005d57600080fd5b505082516020840151604085015160609095015191969095509092509050565b60805160a05160c05160e0516103fa6100cf600039600081816101010152818161019f01526101cc015260008181606e0152818161017e01526101f60152600060c80152600060a201526103fa6000f3fe608060405234801561001057600080fd5b50600436106100675760003560e01c80635f633ac7116100505780635f633ac7146100c6578063aa31bc71146100ec578063c0df3636146100ff57600080fd5b80633f7eaa011461006c57806356d61317146100a0575b600080fd5b7f00000000000000000000000000000000000000000000000000000000000000005b60405190815260200160405180910390f35b7f000000000000000000000000000000000000000000000000000000000000000061008e565b7f000000000000000000000000000000000000000000000000000000000000000061008e565b61008e6100fa3660046102c3565b610125565b7f000000000000000000000000000000000000000000000000000000000000000061008e565b600081604001516000141561014757506b033b2e3c9fd0803ce8000000919050565b6000610172836040015161016c8560000151866060015161022890919063ffffffff16565b9061023b565b905060016102206101c37f00000000000000000000000000000000000000000000000000000000000000007f0000000000000000000000000000000000000000000000000000000000000000610228565b61016c6101f0847f0000000000000000000000000000000000000000000000000000000000000000610275565b61021a867f0000000000000000000000000000000000000000000000000000000000000000610275565b90610228565b949350505050565b6000610234828461034d565b9392505050565b600080610249600284610365565b90506102208361026f610268876b033b2e3c9fd0803ce80000006102ab565b8490610228565b906102b7565b60006102346b033b2e3c9fd0803ce800000061026f61029486866102ab565b61021a60026b033b2e3c9fd0803ce8000000610365565b60006102348284610387565b60006102348284610365565b6000608082840312156102d557600080fd5b6040516080810181811067ffffffffffffffff8211171561030657634e487b7160e01b600052604160045260246000fd5b8060405250823581526020830135602082015260408301356040820152606083013560608201528091505092915050565b634e487b7160e01b600052601160045260246000fd5b6000821982111561036057610360610337565b500190565b60008261038257634e487b7160e01b600052601260045260246000fd5b500490565b6000817fffffffffffffffffffffffffffffffffffffffffffffffffffffffffffffffff04831182151516156103bf576103bf610337565b50029056fea26469706673582212209a8fac669b95820206dfcbbec8e5bd015df8f5536f82fb0dd2ad3b004e71cb2964736f6c63430008090033",
  "libraries": {
    "WadRayMath": "0x72270eD5E1DcbA8b302e223ECB15F853b4B72A53"
  },
  "devdoc": {
    "kind": "dev",
    "methods": {},
    "version": 1
  },
  "userdoc": {
    "kind": "user",
    "methods": {},
    "version": 1
  },
  "storageLayout": {
    "storage": [],
    "types": null
  }
}