{
  "address": "0x20693132DCE884f55836CcFEA156AFdaD543d6A6",
  "abi": [
    {
      "inputs": [],
      "name": "currentVersion",
      "outputs": [
        {
          "internalType": "uint256",
          "name": "",
          "type": "uint256"
        },
        {
          "internalType": "bytes32",
          "name": "",
          "type": "bytes32"
        }
      ],
      "stateMutability": "view",
      "type": "function"
    },
    {
      "inputs": [
        {
          "internalType": "uint256",
          "name": "_version",
          "type": "uint256"
        }
      ],
      "name": "isUpToDate",
      "outputs": [
        {
          "internalType": "bool",
          "name": "",
          "type": "bool"
        }
      ],
      "stateMutability": "view",
      "type": "function"
    },
    {
      "inputs": [
        {
          "internalType": "address",
          "name": "init",
          "type": "address"
        },
        {
          "internalType": "bytes",
          "name": "initArgs",
          "type": "bytes"
        },
        {
          "components": [
            {
              "internalType": "address",
              "name": "facetAddress",
              "type": "address"
            },
            {
              "internalType": "bytes4[]",
              "name": "functionSelectors",
              "type": "bytes4[]"
            }
          ],
          "internalType": "struct IDiamondLoupe.Facet[]",
          "name": "facets",
          "type": "tuple[]"
        }
      ],
      "name": "registerUpgrade",
      "outputs": [],
      "stateMutability": "nonpayable",
      "type": "function"
    }
  ],
  "transactionHash": "0x20f89e7ce264e36e56e6ce144ea7e9459b4d09ac281e6e7ba2ef2273ed761440",
  "args": [],
  "numDeployments": 1,
  "solcInputHash": "69865adbcb28e0ed9c987fbab724fb9c",
  "bytecode": "0x608060405234801561001057600080fd5b50610d9a806100206000396000f3fe608060405234801561001057600080fd5b50600436106100415760003560e01c8063686350d01461004657806399eefbc3146100705780639d888e8614610085575b600080fd5b61005b6100543660046108db565b6011541490565b60405190151581526020015b60405180910390f35b61008361007e366004610b16565b6100a2565b005b61008d610267565b60408051928352602083019190915201610067565b6100aa610460565b610114576040517f08c379a000000000000000000000000000000000000000000000000000000000815260206004820152601660248201527f63616c6c206973206e6f7420617574686f726973656400000000000000000000604482015260640160405180910390fd5b60016000601101600082825461012a9190610bf3565b909155505060115460008181526012602090815260409091206001810180547fffffffffffffffffffffffff00000000000000000000000000000000000000001673ffffffffffffffffffffffffffffffffffffffff881617905584516101999260029092019186019061079f565b5060005b825181101561026057600082815260126020526040902083518490839081106101c8576101c8610c0b565b602090810291909101810151825460018082018555600094855293839020825160029092020180547fffffffffffffffffffffffff00000000000000000000000000000000000000001673ffffffffffffffffffffffffffffffffffffffff9092169190911781558183015180519294919361024a9392850192910190610823565b505050808061025890610c21565b91505061019d565b5050505050565b601154600081815260126020908152604080832081518154938402810160809081019093526060810184815294958695909486949293928492918491879085015b8282101561038c57600084815260209081902060408051808201825260028602909201805473ffffffffffffffffffffffffffffffffffffffff16835260018101805483518187028101870190945280845293949193858301939283018282801561037457602002820191906000526020600020906000905b82829054906101000a900460e01b7bffffffffffffffffffffffffffffffffffffffffffffffffffffffff1916815260200190600401906020826003010492830192600103820291508084116103215790505b505050505081525050815260200190600101906102a8565b50505090825250600182015473ffffffffffffffffffffffffffffffffffffffff1660208201526002820180546040909201916103c890610c5a565b80601f01602080910402602001604051908101604052809291908181526020018280546103f490610c5a565b80156104415780601f1061041657610100808354040283529160200191610441565b820191906000526020600020905b81548152906001019060200180831161042457829003601f168201915b50505050508152505090508161045682610496565b9350935050509091565b60006104916013337fffffffff000000000000000000000000000000000000000000000000000000008435166105ed565b905090565b6000606060005b8351518110156105de576000846000015182815181106104bf576104bf610c0b565b6020026020010151905082816000015160405160200161050a919060609190911b7fffffffffffffffffffffffffffffffffffffffff00000000000000000000000016815260140190565b60408051601f19818403018152908290526105289291602001610cd0565b604051602081830303815290604052925060005b81602001515181101561059d57838260200151828151811061056057610560610c0b565b6020026020010151604051602001610579929190610ce5565b6040516020818303038152906040529350808061059590610c21565b91505061053c565b508051604051813f91906105b79086908490602001610d22565b604051602081830303815290604052945050505080806105d690610c21565b91505061049d565b50805160209091012092915050565b82546040517fb700961300000000000000000000000000000000000000000000000000000000815273ffffffffffffffffffffffffffffffffffffffff84811660048301523060248301527fffffffff0000000000000000000000000000000000000000000000000000000084166044830152600092169063b70096139060640160206040518083038186803b15801561068657600080fd5b505afa15801561069a573d6000803e3d6000fd5b505050506040513d601f19601f820116820180604052508101906106be9190610d3b565b80610797575060018401546040517fb700961300000000000000000000000000000000000000000000000000000000815273ffffffffffffffffffffffffffffffffffffffff85811660048301523060248301527fffffffff00000000000000000000000000000000000000000000000000000000851660448301529091169063b70096139060640160206040518083038186803b15801561075f57600080fd5b505afa158015610773573d6000803e3d6000fd5b505050506040513d601f19601f820116820180604052508101906107979190610d3b565b949350505050565b8280546107ab90610c5a565b90600052602060002090601f0160209004810192826107cd5760008555610813565b82601f106107e657805160ff1916838001178555610813565b82800160010185558215610813579182015b828111156108135782518255916020019190600101906107f8565b5061081f9291506108c6565b5090565b828054828255906000526020600020906007016008900481019282156108135791602002820160005b8382111561088d57835183826101000a81548163ffffffff021916908360e01c0217905550926020019260040160208160030104928301926001030261084c565b80156108bd5782816101000a81549063ffffffff021916905560040160208160030104928301926001030261088d565b505061081f9291505b5b8082111561081f57600081556001016108c7565b6000602082840312156108ed57600080fd5b5035919050565b803573ffffffffffffffffffffffffffffffffffffffff8116811461091857600080fd5b919050565b634e487b7160e01b600052604160045260246000fd5b6040805190810167ffffffffffffffff811182821017156109565761095661091d565b60405290565b604051601f8201601f1916810167ffffffffffffffff811182821017156109855761098561091d565b604052919050565b600067ffffffffffffffff8211156109a7576109a761091d565b5060051b60200190565b600082601f8301126109c257600080fd5b813560206109d76109d28361098d565b61095c565b828152600592831b85018201928282019190878511156109f657600080fd5b8387015b85811015610b0957803567ffffffffffffffff80821115610a1b5760008081fd5b818a019150604080601f19848e03011215610a365760008081fd5b610a3e610933565b610a498985016108f4565b81528184013583811115610a5d5760008081fd5b8085019450508c603f850112610a7557600092508283fd5b888401359250610a876109d28461098d565b83815292861b8401820192898101908e851115610aa45760008081fd5b948301945b84861015610af457853593507fffffffff0000000000000000000000000000000000000000000000000000000084168414610ae45760008081fd5b838252948a0194908a0190610aa9565b828b01525087525050509284019284016109fa565b5090979650505050505050565b600080600060608486031215610b2b57600080fd5b610b34846108f4565b925060208085013567ffffffffffffffff80821115610b5257600080fd5b818701915087601f830112610b6657600080fd5b813581811115610b7857610b7861091d565b610b8a84601f19601f8401160161095c565b8181528985838601011115610b9e57600080fd5b818585018683013760009181019094015291935060408601359180831115610bc557600080fd5b5050610bd3868287016109b1565b9150509250925092565b634e487b7160e01b600052601160045260246000fd5b60008219821115610c0657610c06610bdd565b500190565b634e487b7160e01b600052603260045260246000fd5b60007fffffffffffffffffffffffffffffffffffffffffffffffffffffffffffffffff821415610c5357610c53610bdd565b5060010190565b600181811c90821680610c6e57607f821691505b60208210811415610c8f57634e487b7160e01b600052602260045260246000fd5b50919050565b6000815160005b81811015610cb65760208185018101518683015201610c9c565b81811115610cc5576000828601525b509290920192915050565b6000610797610cdf8386610c95565b84610c95565b6000610cf18285610c95565b7fffffffff000000000000000000000000000000000000000000000000000000009390931683525050600401919050565b6000610d2e8285610c95565b9283525050602001919050565b600060208284031215610d4d57600080fd5b81518015158114610d5d57600080fd5b939250505056fea26469706673582212201126e72d0688cfd1a7899e9e0d9dd4d9e4aca4d9d65f44c4a950c0ec227713bf64736f6c63430008090033",
  "devdoc": {
    "kind": "dev",
    "methods": {},
    "version": 1
  },
  "userdoc": {
    "kind": "user",
    "methods": {},
    "version": 1
  },
  "storageLayout": {
    "storage": [
      {
        "astId": 19292,
        "contract": "contracts/voyage/facets/DiamondVersionFacet.sol:DiamondVersionFacet",
        "label": "s",
        "offset": 0,
        "slot": "0",
        "type": "t_struct(AppStorage)19278_storage"
      }
    ],
    "types": {
      "t_address": {
        "encoding": "inplace",
        "label": "address",
        "numberOfBytes": "20"
      },
      "t_array(t_address)dyn_storage": {
        "base": "t_address",
        "encoding": "dynamic_array",
        "label": "address[]",
        "numberOfBytes": "32"
      },
      "t_array(t_bytes4)dyn_storage": {
        "base": "t_bytes4",
        "encoding": "dynamic_array",
        "label": "bytes4[]",
        "numberOfBytes": "32"
      },
      "t_array(t_struct(Facet)8171_storage)dyn_storage": {
        "base": "t_struct(Facet)8171_storage",
        "encoding": "dynamic_array",
        "label": "struct IDiamondLoupe.Facet[]",
        "numberOfBytes": "32"
      },
      "t_array(t_struct(RepaymentData)19094_storage)dyn_storage": {
        "base": "t_struct(RepaymentData)19094_storage",
        "encoding": "dynamic_array",
        "label": "struct RepaymentData[]",
        "numberOfBytes": "32"
      },
      "t_bool": {
        "encoding": "inplace",
        "label": "bool",
        "numberOfBytes": "1"
      },
      "t_bytes32": {
        "encoding": "inplace",
        "label": "bytes32",
        "numberOfBytes": "32"
      },
      "t_bytes4": {
        "encoding": "inplace",
        "label": "bytes4",
        "numberOfBytes": "4"
      },
      "t_bytes_storage": {
        "encoding": "bytes",
        "label": "bytes",
        "numberOfBytes": "32"
      },
      "t_contract(DSGuard)14577": {
        "encoding": "inplace",
        "label": "contract DSGuard",
        "numberOfBytes": "20"
      },
      "t_contract(DSRoles)14966": {
        "encoding": "inplace",
        "label": "contract DSRoles",
        "numberOfBytes": "20"
      },
      "t_contract(IVaultFactory)18953": {
        "encoding": "inplace",
        "label": "contract IVaultFactory",
        "numberOfBytes": "20"
      },
      "t_contract(UpgradeableBeacon)2867": {
        "encoding": "inplace",
        "label": "contract UpgradeableBeacon",
        "numberOfBytes": "20"
      },
      "t_mapping(t_address,t_address)": {
        "encoding": "mapping",
        "key": "t_address",
        "label": "mapping(address => address)",
        "numberOfBytes": "32",
        "value": "t_address"
      },
      "t_mapping(t_address,t_mapping(t_address,t_struct(BorrowData)19149_storage))": {
        "encoding": "mapping",
        "key": "t_address",
        "label": "mapping(address => mapping(address => struct BorrowData))",
        "numberOfBytes": "32",
        "value": "t_mapping(t_address,t_struct(BorrowData)19149_storage)"
      },
      "t_mapping(t_address,t_mapping(t_uint256,t_struct(NFTInfo)19197_storage))": {
        "encoding": "mapping",
        "key": "t_address",
        "label": "mapping(address => mapping(uint256 => struct NFTInfo))",
        "numberOfBytes": "32",
        "value": "t_mapping(t_uint256,t_struct(NFTInfo)19197_storage)"
      },
      "t_mapping(t_address,t_struct(BorrowData)19149_storage)": {
        "encoding": "mapping",
        "key": "t_address",
        "label": "mapping(address => struct BorrowData)",
        "numberOfBytes": "32",
        "value": "t_struct(BorrowData)19149_storage"
      },
      "t_mapping(t_address,t_struct(BorrowState)19156_storage)": {
        "encoding": "mapping",
        "key": "t_address",
        "label": "mapping(address => struct BorrowState)",
        "numberOfBytes": "32",
        "value": "t_struct(BorrowState)19156_storage"
      },
      "t_mapping(t_address,t_struct(ReserveData)19073_storage)": {
        "encoding": "mapping",
        "key": "t_address",
        "label": "mapping(address => struct ReserveData)",
        "numberOfBytes": "32",
        "value": "t_struct(ReserveData)19073_storage"
      },
      "t_mapping(t_address,t_struct(VaultConfig)19163_storage)": {
        "encoding": "mapping",
        "key": "t_address",
        "label": "mapping(address => struct VaultConfig)",
        "numberOfBytes": "32",
        "value": "t_struct(VaultConfig)19163_storage"
      },
      "t_mapping(t_bytes32,t_address)": {
        "encoding": "mapping",
        "key": "t_bytes32",
        "label": "mapping(bytes32 => address)",
        "numberOfBytes": "32",
        "value": "t_address"
      },
      "t_mapping(t_uint256,t_address)": {
        "encoding": "mapping",
        "key": "t_uint256",
        "label": "mapping(uint256 => address)",
        "numberOfBytes": "32",
        "value": "t_address"
      },
      "t_mapping(t_uint256,t_struct(DrawDown)19124_storage)": {
        "encoding": "mapping",
        "key": "t_uint256",
        "label": "mapping(uint256 => struct DrawDown)",
        "numberOfBytes": "32",
        "value": "t_struct(DrawDown)19124_storage"
      },
      "t_mapping(t_uint256,t_struct(NFTInfo)19197_storage)": {
        "encoding": "mapping",
        "key": "t_uint256",
        "label": "mapping(uint256 => struct NFTInfo)",
        "numberOfBytes": "32",
        "value": "t_struct(NFTInfo)19197_storage"
      },
      "t_mapping(t_uint256,t_struct(Snapshot)18729_storage)": {
        "encoding": "mapping",
        "key": "t_uint256",
        "label": "mapping(uint256 => struct Snapshot)",
        "numberOfBytes": "32",
        "value": "t_struct(Snapshot)18729_storage"
      },
      "t_struct(AppStorage)19278_storage": {
        "encoding": "inplace",
        "label": "struct AppStorage",
        "members": [
          {
            "astId": 19201,
            "contract": "contracts/voyage/facets/DiamondVersionFacet.sol:DiamondVersionFacet",
            "label": "_addresses",
            "offset": 0,
            "slot": "0",
            "type": "t_mapping(t_bytes32,t_address)"
          },
          {
            "astId": 19204,
            "contract": "contracts/voyage/facets/DiamondVersionFacet.sol:DiamondVersionFacet",
            "label": "seniorDepositTokenBeacon",
            "offset": 0,
            "slot": "1",
            "type": "t_contract(UpgradeableBeacon)2867"
          },
          {
            "astId": 19207,
            "contract": "contracts/voyage/facets/DiamondVersionFacet.sol:DiamondVersionFacet",
            "label": "juniorDepositTokenBeacon",
            "offset": 0,
            "slot": "2",
            "type": "t_contract(UpgradeableBeacon)2867"
          },
          {
            "astId": 19212,
            "contract": "contracts/voyage/facets/DiamondVersionFacet.sol:DiamondVersionFacet",
            "label": "_reserves",
            "offset": 0,
            "slot": "3",
            "type": "t_mapping(t_address,t_struct(ReserveData)19073_storage)"
          },
          {
            "astId": 19216,
            "contract": "contracts/voyage/facets/DiamondVersionFacet.sol:DiamondVersionFacet",
            "label": "_reserveList",
            "offset": 0,
            "slot": "4",
            "type": "t_mapping(t_uint256,t_address)"
          },
          {
            "astId": 19218,
            "contract": "contracts/voyage/facets/DiamondVersionFacet.sol:DiamondVersionFacet",
            "label": "_reservesCount",
            "offset": 0,
            "slot": "5",
            "type": "t_uint16"
          },
          {
            "astId": 19225,
            "contract": "contracts/voyage/facets/DiamondVersionFacet.sol:DiamondVersionFacet",
            "label": "_borrowData",
            "offset": 0,
            "slot": "6",
            "type": "t_mapping(t_address,t_mapping(t_address,t_struct(BorrowData)19149_storage))"
          },
          {
            "astId": 19230,
            "contract": "contracts/voyage/facets/DiamondVersionFacet.sol:DiamondVersionFacet",
            "label": "_borrowState",
            "offset": 0,
            "slot": "7",
            "type": "t_mapping(t_address,t_struct(BorrowState)19156_storage)"
          },
          {
            "astId": 19232,
            "contract": "contracts/voyage/facets/DiamondVersionFacet.sol:DiamondVersionFacet",
            "label": "_paused",
            "offset": 0,
            "slot": "8",
            "type": "t_bool"
          },
          {
            "astId": 19235,
            "contract": "contracts/voyage/facets/DiamondVersionFacet.sol:DiamondVersionFacet",
            "label": "marginEscrowBeacon",
            "offset": 1,
            "slot": "8",
            "type": "t_contract(UpgradeableBeacon)2867"
          },
          {
            "astId": 19238,
            "contract": "contracts/voyage/facets/DiamondVersionFacet.sol:DiamondVersionFacet",
            "label": "creditEscrowBeacon",
            "offset": 0,
            "slot": "9",
            "type": "t_contract(UpgradeableBeacon)2867"
          },
          {
            "astId": 19241,
            "contract": "contracts/voyage/facets/DiamondVersionFacet.sol:DiamondVersionFacet",
            "label": "subVaultBeacon",
            "offset": 0,
            "slot": "10",
            "type": "t_contract(UpgradeableBeacon)2867"
          },
          {
            "astId": 19244,
            "contract": "contracts/voyage/facets/DiamondVersionFacet.sol:DiamondVersionFacet",
            "label": "vaultFactory",
            "offset": 0,
            "slot": "11",
            "type": "t_contract(IVaultFactory)18953"
          },
          {
            "astId": 19247,
            "contract": "contracts/voyage/facets/DiamondVersionFacet.sol:DiamondVersionFacet",
            "label": "vaults",
            "offset": 0,
            "slot": "12",
            "type": "t_array(t_address)dyn_storage"
          },
          {
            "astId": 19251,
            "contract": "contracts/voyage/facets/DiamondVersionFacet.sol:DiamondVersionFacet",
            "label": "vaultMap",
            "offset": 0,
            "slot": "13",
            "type": "t_mapping(t_address,t_address)"
          },
          {
            "astId": 19256,
            "contract": "contracts/voyage/facets/DiamondVersionFacet.sol:DiamondVersionFacet",
            "label": "vaultConfigMap",
            "offset": 0,
            "slot": "14",
            "type": "t_mapping(t_address,t_struct(VaultConfig)19163_storage)"
          },
          {
            "astId": 19260,
            "contract": "contracts/voyage/facets/DiamondVersionFacet.sol:DiamondVersionFacet",
            "label": "vaultStrategy",
            "offset": 0,
            "slot": "15",
            "type": "t_mapping(t_address,t_address)"
          },
          {
            "astId": 19267,
            "contract": "contracts/voyage/facets/DiamondVersionFacet.sol:DiamondVersionFacet",
            "label": "nftInfo",
            "offset": 0,
            "slot": "16",
            "type": "t_mapping(t_address,t_mapping(t_uint256,t_struct(NFTInfo)19197_storage))"
          },
          {
            "astId": 19269,
            "contract": "contracts/voyage/facets/DiamondVersionFacet.sol:DiamondVersionFacet",
            "label": "currentVersion",
            "offset": 0,
            "slot": "17",
            "type": "t_uint256"
          },
          {
            "astId": 19274,
            "contract": "contracts/voyage/facets/DiamondVersionFacet.sol:DiamondVersionFacet",
            "label": "snapshotMap",
            "offset": 0,
            "slot": "18",
            "type": "t_mapping(t_uint256,t_struct(Snapshot)18729_storage)"
          },
          {
            "astId": 19277,
            "contract": "contracts/voyage/facets/DiamondVersionFacet.sol:DiamondVersionFacet",
            "label": "auth",
            "offset": 0,
            "slot": "19",
            "type": "t_struct(Authorisation)19192_storage"
          }
        ],
        "numberOfBytes": "672"
      },
      "t_struct(Authorisation)19192_storage": {
        "encoding": "inplace",
        "label": "struct Authorisation",
        "members": [
          {
            "astId": 19188,
            "contract": "contracts/voyage/facets/DiamondVersionFacet.sol:DiamondVersionFacet",
            "label": "rbac",
            "offset": 0,
            "slot": "0",
            "type": "t_contract(DSRoles)14966"
          },
          {
            "astId": 19191,
            "contract": "contracts/voyage/facets/DiamondVersionFacet.sol:DiamondVersionFacet",
            "label": "acl",
            "offset": 0,
            "slot": "1",
            "type": "t_contract(DSGuard)14577"
          }
        ],
        "numberOfBytes": "64"
      },
      "t_struct(BorrowData)19149_storage": {
        "encoding": "inplace",
        "label": "struct BorrowData",
        "members": [
          {
            "astId": 19131,
            "contract": "contracts/voyage/facets/DiamondVersionFacet.sol:DiamondVersionFacet",
            "label": "paidDrawDownNumber",
            "offset": 0,
            "slot": "0",
            "type": "t_uint256"
          },
          {
            "astId": 19133,
            "contract": "contracts/voyage/facets/DiamondVersionFacet.sol:DiamondVersionFacet",
            "label": "nextDrawDownNumber",
            "offset": 0,
            "slot": "1",
            "type": "t_uint256"
          },
          {
            "astId": 19135,
            "contract": "contracts/voyage/facets/DiamondVersionFacet.sol:DiamondVersionFacet",
            "label": "totalPrincipal",
            "offset": 0,
            "slot": "2",
            "type": "t_uint256"
          },
          {
            "astId": 19137,
            "contract": "contracts/voyage/facets/DiamondVersionFacet.sol:DiamondVersionFacet",
            "label": "totalInterest",
            "offset": 0,
            "slot": "3",
            "type": "t_uint256"
          },
          {
            "astId": 19139,
            "contract": "contracts/voyage/facets/DiamondVersionFacet.sol:DiamondVersionFacet",
            "label": "mapSize",
            "offset": 0,
            "slot": "4",
            "type": "t_uint256"
          },
          {
            "astId": 19144,
            "contract": "contracts/voyage/facets/DiamondVersionFacet.sol:DiamondVersionFacet",
            "label": "drawDowns",
            "offset": 0,
            "slot": "5",
            "type": "t_mapping(t_uint256,t_struct(DrawDown)19124_storage)"
          },
          {
            "astId": 19146,
            "contract": "contracts/voyage/facets/DiamondVersionFacet.sol:DiamondVersionFacet",
            "label": "totalPaid",
            "offset": 0,
            "slot": "6",
            "type": "t_uint256"
          },
          {
            "astId": 19148,
            "contract": "contracts/voyage/facets/DiamondVersionFacet.sol:DiamondVersionFacet",
            "label": "totalRedeemed",
            "offset": 0,
            "slot": "7",
            "type": "t_uint256"
          }
        ],
        "numberOfBytes": "256"
      },
      "t_struct(BorrowState)19156_storage": {
        "encoding": "inplace",
        "label": "struct BorrowState",
        "members": [
          {
            "astId": 19151,
            "contract": "contracts/voyage/facets/DiamondVersionFacet.sol:DiamondVersionFacet",
            "label": "totalDebt",
            "offset": 0,
            "slot": "0",
            "type": "t_uint256"
          },
          {
            "astId": 19153,
            "contract": "contracts/voyage/facets/DiamondVersionFacet.sol:DiamondVersionFacet",
            "label": "totalInterest",
            "offset": 0,
            "slot": "1",
            "type": "t_uint256"
          },
          {
            "astId": 19155,
            "contract": "contracts/voyage/facets/DiamondVersionFacet.sol:DiamondVersionFacet",
            "label": "avgBorrowRate",
            "offset": 0,
            "slot": "2",
            "type": "t_uint256"
          }
        ],
        "numberOfBytes": "96"
      },
      "t_struct(DrawDown)19124_storage": {
        "encoding": "inplace",
        "label": "struct DrawDown",
        "members": [
          {
            "astId": 19096,
            "contract": "contracts/voyage/facets/DiamondVersionFacet.sol:DiamondVersionFacet",
            "label": "principal",
            "offset": 0,
            "slot": "0",
            "type": "t_uint256"
          },
          {
            "astId": 19098,
            "contract": "contracts/voyage/facets/DiamondVersionFacet.sol:DiamondVersionFacet",
            "label": "interest",
            "offset": 0,
            "slot": "1",
            "type": "t_uint256"
          },
          {
            "astId": 19100,
            "contract": "contracts/voyage/facets/DiamondVersionFacet.sol:DiamondVersionFacet",
            "label": "term",
            "offset": 0,
            "slot": "2",
            "type": "t_uint256"
          },
          {
            "astId": 19102,
            "contract": "contracts/voyage/facets/DiamondVersionFacet.sol:DiamondVersionFacet",
            "label": "epoch",
            "offset": 0,
            "slot": "3",
            "type": "t_uint256"
          },
          {
            "astId": 19104,
            "contract": "contracts/voyage/facets/DiamondVersionFacet.sol:DiamondVersionFacet",
            "label": "nper",
            "offset": 0,
            "slot": "4",
            "type": "t_uint256"
          },
          {
            "astId": 19107,
            "contract": "contracts/voyage/facets/DiamondVersionFacet.sol:DiamondVersionFacet",
            "label": "pmt",
            "offset": 0,
            "slot": "5",
            "type": "t_struct(PMT)19083_storage"
          },
          {
            "astId": 19109,
            "contract": "contracts/voyage/facets/DiamondVersionFacet.sol:DiamondVersionFacet",
            "label": "apr",
            "offset": 0,
            "slot": "8",
            "type": "t_uint256"
          },
          {
            "astId": 19111,
            "contract": "contracts/voyage/facets/DiamondVersionFacet.sol:DiamondVersionFacet",
            "label": "borrowAt",
            "offset": 0,
            "slot": "9",
            "type": "t_uint256"
          },
          {
            "astId": 19113,
            "contract": "contracts/voyage/facets/DiamondVersionFacet.sol:DiamondVersionFacet",
            "label": "nextPaymentDue",
            "offset": 0,
            "slot": "10",
            "type": "t_uint256"
          },
          {
            "astId": 19115,
            "contract": "contracts/voyage/facets/DiamondVersionFacet.sol:DiamondVersionFacet",
            "label": "totalPrincipalPaid",
            "offset": 0,
            "slot": "11",
            "type": "t_uint256"
          },
          {
            "astId": 19117,
            "contract": "contracts/voyage/facets/DiamondVersionFacet.sol:DiamondVersionFacet",
            "label": "totalInterestPaid",
            "offset": 0,
            "slot": "12",
            "type": "t_uint256"
          },
          {
            "astId": 19121,
            "contract": "contracts/voyage/facets/DiamondVersionFacet.sol:DiamondVersionFacet",
            "label": "repayments",
            "offset": 0,
            "slot": "13",
            "type": "t_array(t_struct(RepaymentData)19094_storage)dyn_storage"
          },
          {
            "astId": 19123,
            "contract": "contracts/voyage/facets/DiamondVersionFacet.sol:DiamondVersionFacet",
            "label": "paidTimes",
            "offset": 0,
            "slot": "14",
            "type": "t_uint256"
          }
        ],
        "numberOfBytes": "480"
      },
      "t_struct(Facet)8171_storage": {
        "encoding": "inplace",
        "label": "struct IDiamondLoupe.Facet",
        "members": [
          {
            "astId": 8167,
            "contract": "contracts/voyage/facets/DiamondVersionFacet.sol:DiamondVersionFacet",
            "label": "facetAddress",
            "offset": 0,
            "slot": "0",
            "type": "t_address"
          },
          {
            "astId": 8170,
            "contract": "contracts/voyage/facets/DiamondVersionFacet.sol:DiamondVersionFacet",
            "label": "functionSelectors",
            "offset": 0,
            "slot": "1",
            "type": "t_array(t_bytes4)dyn_storage"
          }
        ],
        "numberOfBytes": "64"
      },
      "t_struct(NFTInfo)19197_storage": {
        "encoding": "inplace",
        "label": "struct NFTInfo",
        "members": [
          {
            "astId": 19194,
            "contract": "contracts/voyage/facets/DiamondVersionFacet.sol:DiamondVersionFacet",
            "label": "price",
            "offset": 0,
            "slot": "0",
            "type": "t_uint256"
          },
          {
            "astId": 19196,
            "contract": "contracts/voyage/facets/DiamondVersionFacet.sol:DiamondVersionFacet",
            "label": "timestamp",
            "offset": 0,
            "slot": "1",
            "type": "t_uint256"
          }
        ],
        "numberOfBytes": "64"
      },
      "t_struct(PMT)19083_storage": {
        "encoding": "inplace",
        "label": "struct PMT",
        "members": [
          {
            "astId": 19078,
            "contract": "contracts/voyage/facets/DiamondVersionFacet.sol:DiamondVersionFacet",
            "label": "principal",
            "offset": 0,
            "slot": "0",
            "type": "t_uint256"
          },
          {
            "astId": 19080,
            "contract": "contracts/voyage/facets/DiamondVersionFacet.sol:DiamondVersionFacet",
            "label": "interest",
            "offset": 0,
            "slot": "1",
            "type": "t_uint256"
          },
          {
            "astId": 19082,
            "contract": "contracts/voyage/facets/DiamondVersionFacet.sol:DiamondVersionFacet",
            "label": "pmt",
            "offset": 0,
            "slot": "2",
            "type": "t_uint256"
          }
        ],
        "numberOfBytes": "96"
      },
      "t_struct(RepaymentData)19094_storage": {
        "encoding": "inplace",
        "label": "struct RepaymentData",
        "members": [
          {
            "astId": 19085,
            "contract": "contracts/voyage/facets/DiamondVersionFacet.sol:DiamondVersionFacet",
            "label": "principal",
            "offset": 0,
            "slot": "0",
            "type": "t_uint256"
          },
          {
            "astId": 19087,
            "contract": "contracts/voyage/facets/DiamondVersionFacet.sol:DiamondVersionFacet",
            "label": "interest",
            "offset": 0,
            "slot": "1",
            "type": "t_uint256"
          },
          {
            "astId": 19089,
            "contract": "contracts/voyage/facets/DiamondVersionFacet.sol:DiamondVersionFacet",
            "label": "total",
            "offset": 0,
            "slot": "2",
            "type": "t_uint256"
          },
          {
            "astId": 19091,
            "contract": "contracts/voyage/facets/DiamondVersionFacet.sol:DiamondVersionFacet",
            "label": "paidAt",
            "offset": 0,
            "slot": "3",
            "type": "t_uint40"
          },
          {
            "astId": 19093,
            "contract": "contracts/voyage/facets/DiamondVersionFacet.sol:DiamondVersionFacet",
            "label": "isLiquidated",
            "offset": 5,
            "slot": "3",
            "type": "t_bool"
          }
        ],
        "numberOfBytes": "128"
      },
      "t_struct(ReserveConfigurationMap)19076_storage": {
        "encoding": "inplace",
        "label": "struct ReserveConfigurationMap",
        "members": [
          {
            "astId": 19075,
            "contract": "contracts/voyage/facets/DiamondVersionFacet.sol:DiamondVersionFacet",
            "label": "data",
            "offset": 0,
            "slot": "0",
            "type": "t_uint256"
          }
        ],
        "numberOfBytes": "32"
      },
      "t_struct(ReserveData)19073_storage": {
        "encoding": "inplace",
        "label": "struct ReserveData",
        "members": [
          {
            "astId": 19036,
            "contract": "contracts/voyage/facets/DiamondVersionFacet.sol:DiamondVersionFacet",
            "label": "configuration",
            "offset": 0,
            "slot": "0",
            "type": "t_struct(ReserveConfigurationMap)19076_storage"
          },
          {
            "astId": 19038,
            "contract": "contracts/voyage/facets/DiamondVersionFacet.sol:DiamondVersionFacet",
            "label": "currentOverallLiquidityRate",
            "offset": 0,
            "slot": "1",
            "type": "t_uint256"
          },
          {
            "astId": 19040,
            "contract": "contracts/voyage/facets/DiamondVersionFacet.sol:DiamondVersionFacet",
            "label": "currentJuniorLiquidityRate",
            "offset": 0,
            "slot": "2",
            "type": "t_uint256"
          },
          {
            "astId": 19042,
            "contract": "contracts/voyage/facets/DiamondVersionFacet.sol:DiamondVersionFacet",
            "label": "currentSeniorLiquidityRate",
            "offset": 0,
            "slot": "3",
            "type": "t_uint256"
          },
          {
            "astId": 19044,
            "contract": "contracts/voyage/facets/DiamondVersionFacet.sol:DiamondVersionFacet",
            "label": "currentBorrowRate",
            "offset": 0,
            "slot": "4",
            "type": "t_uint256"
          },
          {
            "astId": 19046,
            "contract": "contracts/voyage/facets/DiamondVersionFacet.sol:DiamondVersionFacet",
            "label": "marginRequirement",
            "offset": 0,
            "slot": "5",
            "type": "t_uint256"
          },
          {
            "astId": 19048,
            "contract": "contracts/voyage/facets/DiamondVersionFacet.sol:DiamondVersionFacet",
            "label": "decimals",
            "offset": 0,
            "slot": "6",
            "type": "t_uint256"
          },
          {
            "astId": 19050,
            "contract": "contracts/voyage/facets/DiamondVersionFacet.sol:DiamondVersionFacet",
            "label": "interestRateStrategyAddress",
            "offset": 0,
            "slot": "7",
            "type": "t_address"
          },
          {
            "astId": 19052,
            "contract": "contracts/voyage/facets/DiamondVersionFacet.sol:DiamondVersionFacet",
            "label": "loanStrategyAddress",
            "offset": 0,
            "slot": "8",
            "type": "t_address"
          },
          {
            "astId": 19054,
            "contract": "contracts/voyage/facets/DiamondVersionFacet.sol:DiamondVersionFacet",
            "label": "juniorDepositTokenAddress",
            "offset": 0,
            "slot": "9",
            "type": "t_address"
          },
          {
            "astId": 19056,
            "contract": "contracts/voyage/facets/DiamondVersionFacet.sol:DiamondVersionFacet",
            "label": "seniorDepositTokenAddress",
            "offset": 0,
            "slot": "10",
            "type": "t_address"
          },
          {
            "astId": 19058,
            "contract": "contracts/voyage/facets/DiamondVersionFacet.sol:DiamondVersionFacet",
            "label": "juniorLastUpdateTimestamp",
            "offset": 20,
            "slot": "10",
            "type": "t_uint40"
          },
          {
            "astId": 19060,
            "contract": "contracts/voyage/facets/DiamondVersionFacet.sol:DiamondVersionFacet",
            "label": "seniorLastUpdateTimestamp",
            "offset": 25,
            "slot": "10",
            "type": "t_uint40"
          },
          {
            "astId": 19062,
            "contract": "contracts/voyage/facets/DiamondVersionFacet.sol:DiamondVersionFacet",
            "label": "optimalTrancheRatio",
            "offset": 0,
            "slot": "11",
            "type": "t_uint256"
          },
          {
            "astId": 19064,
            "contract": "contracts/voyage/facets/DiamondVersionFacet.sol:DiamondVersionFacet",
            "label": "currentIncomeRatio",
            "offset": 0,
            "slot": "12",
            "type": "t_uint256"
          },
          {
            "astId": 19066,
            "contract": "contracts/voyage/facets/DiamondVersionFacet.sol:DiamondVersionFacet",
            "label": "optimalIncomeRatio",
            "offset": 0,
            "slot": "13",
            "type": "t_uint256"
          },
          {
            "astId": 19068,
            "contract": "contracts/voyage/facets/DiamondVersionFacet.sol:DiamondVersionFacet",
            "label": "nftAddress",
            "offset": 0,
            "slot": "14",
            "type": "t_address"
          },
          {
            "astId": 19070,
            "contract": "contracts/voyage/facets/DiamondVersionFacet.sol:DiamondVersionFacet",
            "label": "priceOracle",
            "offset": 0,
            "slot": "15",
            "type": "t_address"
          },
          {
            "astId": 19072,
            "contract": "contracts/voyage/facets/DiamondVersionFacet.sol:DiamondVersionFacet",
            "label": "initialized",
            "offset": 20,
            "slot": "15",
            "type": "t_bool"
          }
        ],
        "numberOfBytes": "512"
      },
      "t_struct(Snapshot)18729_storage": {
        "encoding": "inplace",
        "label": "struct Snapshot",
        "members": [
          {
            "astId": 18724,
            "contract": "contracts/voyage/facets/DiamondVersionFacet.sol:DiamondVersionFacet",
            "label": "facets",
            "offset": 0,
            "slot": "0",
            "type": "t_array(t_struct(Facet)8171_storage)dyn_storage"
          },
          {
            "astId": 18726,
            "contract": "contracts/voyage/facets/DiamondVersionFacet.sol:DiamondVersionFacet",
            "label": "init",
            "offset": 0,
            "slot": "1",
            "type": "t_address"
          },
          {
            "astId": 18728,
            "contract": "contracts/voyage/facets/DiamondVersionFacet.sol:DiamondVersionFacet",
            "label": "initArgs",
            "offset": 0,
            "slot": "2",
            "type": "t_bytes_storage"
          }
        ],
        "numberOfBytes": "96"
      },
      "t_struct(VaultConfig)19163_storage": {
        "encoding": "inplace",
        "label": "struct VaultConfig",
        "members": [
          {
            "astId": 19158,
            "contract": "contracts/voyage/facets/DiamondVersionFacet.sol:DiamondVersionFacet",
            "label": "minMargin",
            "offset": 0,
            "slot": "0",
            "type": "t_uint256"
          },
          {
            "astId": 19160,
            "contract": "contracts/voyage/facets/DiamondVersionFacet.sol:DiamondVersionFacet",
            "label": "maxMargin",
            "offset": 0,
            "slot": "1",
            "type": "t_uint256"
          },
          {
            "astId": 19162,
            "contract": "contracts/voyage/facets/DiamondVersionFacet.sol:DiamondVersionFacet",
            "label": "marginRequirement",
            "offset": 0,
            "slot": "2",
            "type": "t_uint256"
          }
        ],
        "numberOfBytes": "96"
      },
      "t_uint16": {
        "encoding": "inplace",
        "label": "uint16",
        "numberOfBytes": "2"
      },
      "t_uint256": {
        "encoding": "inplace",
        "label": "uint256",
        "numberOfBytes": "32"
      },
      "t_uint40": {
        "encoding": "inplace",
        "label": "uint40",
        "numberOfBytes": "5"
      }
    }
  }
}