{
  "address": "0xAB6FB88ECc81DEd74E72F7Ac475e105BCd14c300",
  "abi": [
    {
      "inputs": [],
      "name": "currentVersion",
      "outputs": [
        {
          "internalType": "uint256",
          "name": "",
          "type": "uint256"
        },
        {
          "internalType": "bytes32",
          "name": "",
          "type": "bytes32"
        }
      ],
      "stateMutability": "view",
      "type": "function"
    },
    {
      "inputs": [
        {
          "internalType": "address",
          "name": "_vault",
          "type": "address"
        }
      ],
      "name": "getUpgrade",
      "outputs": [
        {
          "components": [
            {
              "internalType": "address",
              "name": "facetAddress",
              "type": "address"
            },
            {
              "internalType": "enum IDiamondCut.FacetCutAction",
              "name": "action",
              "type": "uint8"
            },
            {
              "internalType": "bytes4[]",
              "name": "functionSelectors",
              "type": "bytes4[]"
            }
          ],
          "internalType": "struct IDiamondCut.FacetCut[]",
          "name": "",
          "type": "tuple[]"
        }
      ],
      "stateMutability": "nonpayable",
      "type": "function"
    },
    {
      "inputs": [
        {
          "internalType": "uint256",
          "name": "_version",
          "type": "uint256"
        }
      ],
      "name": "isUpToDate",
      "outputs": [
        {
          "internalType": "bool",
          "name": "",
          "type": "bool"
        }
      ],
      "stateMutability": "view",
      "type": "function"
    },
    {
      "inputs": [
        {
          "internalType": "address",
          "name": "init",
          "type": "address"
        },
        {
          "internalType": "bytes",
          "name": "initArgs",
          "type": "bytes"
        },
        {
          "components": [
            {
              "internalType": "address",
              "name": "facetAddress",
              "type": "address"
            },
            {
              "internalType": "bytes4[]",
              "name": "functionSelectors",
              "type": "bytes4[]"
            }
          ],
          "internalType": "struct IDiamondLoupe.Facet[]",
          "name": "facets",
          "type": "tuple[]"
        }
      ],
      "name": "registerUpgrade",
      "outputs": [],
      "stateMutability": "nonpayable",
      "type": "function"
    }
  ],
  "args": [],
  "numDeployments": 1,
  "solcInputHash": "9e31516522b1cfe477b23cf57050ac2a",
  "bytecode": "0x608060405234801561001057600080fd5b50611e3f806100206000396000f3fe608060405234801561001057600080fd5b506004361061004c5760003560e01c8063092dfb1614610051578063686350d01461007a57806399eefbc31461009f5780639d888e86146100b4575b600080fd5b61006461005f366004611745565b6100d1565b604051610071919061177f565b60405180910390f35b61008f610088366004611879565b6012541490565b6040519015158152602001610071565b6100b26100ad366004611a7d565b610d9e565b005b6100bc610f33565b60408051928352602083019190915201610071565b336000908152601a60209081526040808320601254845260138352818420825181546080958102820186019094526060818101858152909693959394919384928491879085015b828210156101da5760008481526020908190206040805180820182526002860290920180546001600160a01b031683526001810180548351818702810187019094528084529394919385830193928301828280156101c257602002820191906000526020600020906000905b82829054906101000a900460e01b6001600160e01b031916815260200190600401906020826003010492830192600103820291508084116101845790505b50505050508152505081526020019060010190610118565b5050509082525060018201546001600160a01b0316602082015260028201805460409092019161020990611b46565b80601f016020809104026020016040519081016040528092919081815260200182805461023590611b46565b80156102825780601f1061025757610100808354040283529160200191610282565b820191906000526020600020905b81548152906001019060200180831161026557829003601f168201915b505050505081525050905060008490506000816001600160a01b0316637a0ed6276040518163ffffffff1660e01b815260040160006040518083038186803b1580156102cd57600080fd5b505afa1580156102e1573d6000803e3d6000fd5b505050506040513d6000823e601f3d908101601f191682016040526103099190810190611b81565b336000908152601660209081526040808320601783528184206018845282852060199094529184209495509390925b855181101561042857600086828151811061035557610355611cdc565b6020026020010151905060005b81602001515181101561041e5760008260200151828151811061038757610387611cdc565b60209081029190910181015186546001808201895560008981528481206008840401805463ffffffff60079095166004026101000a948502191660e086901c949094029390931790925586516001600160e01b03199093168252928b905260409020805473ffffffffffffffffffffffffffffffffffffffff19166001600160a01b03909216919091179055919091019050610362565b5050600101610338565b5060005b8751518110156109275760008860000151828151811061044e5761044e611cdc565b6020026020010151905060005b8160200151518110156105815760008260200151828151811061048057610480611cdc565b6020908102919091018101516001600160e01b0319811660009081528883526040808220805460ff19166001179055928b905291909120549091506001600160a01b0316801561052d5783516001600160a01b03828116911614610528576000858152601d602090815260408220805460018101825590835291206008820401805463ffffffff60079093166004026101000a928302191660e085901c929092029190911790555b610577565b6000858152601c602090815260408220805460018101825590835291206008820401805463ffffffff60079093166004026101000a928302191660e085901c929092029190911790555b505060010161045b565b506000828152601c60205260409020541561075057604080516060808201835260008083526020830152918101919091526000838152601c60209081526040918290208054835181840281018401909452808452909183018282801561063357602002820191906000526020600020906000905b82829054906101000a900460e01b6001600160e01b031916815260200190600401906020826003010492830192600103820291508084116105f55790505b5050505050604082015281516001600160a01b0316815260006020820181905250336000908152601b60205260409020548b5482918d91811061067857610678611cdc565b60009182526020918290208351600292830290910180546001600160a01b0390921673ffffffffffffffffffffffffffffffffffffffff198316811782559385015190939092849274ffffffffffffffffffffffffffffffffffffffffff191690911790600160a01b9084908111156106f3576106f3611769565b021790555060408201518051610713916001840191602090910190611576565b5050336000908152601b60205260408120805492509061073283611d08565b90915550506000838152601c6020526040812061074e91611622565b505b6000828152601d60205260409020541561091e57604080516060808201835260008083526020830152918101919091526000838152601d60209081526040918290208054835181840281018401909452808452909183018282801561080157602002820191906000526020600020906000905b82829054906101000a900460e01b6001600160e01b031916815260200190600401906020826003010492830192600103820291508084116107c35790505b5050505050604082015281516001600160a01b0316815260016020820181905250336000908152601b60205260409020548b5482918d91811061084657610846611cdc565b60009182526020918290208351600292830290910180546001600160a01b0390921673ffffffffffffffffffffffffffffffffffffffff198316811782559385015190939092849274ffffffffffffffffffffffffffffffffffffffffff191690911790600160a01b9084908111156108c1576108c1611769565b0217905550604082015180516108e1916001840191602090910190611576565b5050336000908152601b60205260408120805492509061090083611d08565b90915550506000838152601d6020526040812061091c91611622565b505b5060010161042c565b5060005b8354811015610bd55782600085838154811061094957610949611cdc565b6000918252602080832060088304015460079092166004026101000a90910460e01b6001600160e01b031916835282019290925260400190205460ff16610a08576000818152601e6020526040902084548590839081106109ac576109ac611cdc565b60009182526020808320600880840490910154855460018101875595855291909320928404909201805463ffffffff60046007948516810261010090810a90960482169690941690930290930a93840291909302199091161790555b6000818152601e602052604090205415610bcd57604080516060808201835260008083526020830152918101919091526000828152601e602090815260409182902080548351818402810184019094528084529091830182828015610ab957602002820191906000526020600020906000905b82829054906101000a900460e01b6001600160e01b03191681526020019060040190602082600301049283019260010382029150808411610a7b5790505b505050505060408201526000815260026020820181905250336000908152601b60205260409020548a5482918c918110610af557610af5611cdc565b60009182526020918290208351600292830290910180546001600160a01b0390921673ffffffffffffffffffffffffffffffffffffffff198316811782559385015190939092849274ffffffffffffffffffffffffffffffffffffffffff191690911790600160a01b908490811115610b7057610b70611769565b021790555060408201518051610b90916001840191602090910190611576565b5050336000908152601b602052604081208054925090610baf83611d08565b90915550506000828152601e60205260408120610bcb91611622565b505b60010161092b565b50336000908152601b602052604081205467ffffffffffffffff811115610bfe57610bfe611892565b604051908082528060200260200182016040528015610c4b57816020015b60408051606080820183526000808352602083015291810191909152815260200190600190039081610c1c5790505b50905060005b336000908152601b6020526040902054811015610d8757898181548110610c7a57610c7a611cdc565b60009182526020918290206040805160608101909152600292830290910180546001600160a01b03811683529193909290840191600160a01b900460ff1690811115610cc857610cc8611769565b6002811115610cd957610cd9611769565b815260200160018201805480602002602001604051908101604052809291908181526020018280548015610d5957602002820191906000526020600020906000905b82829054906101000a900460e01b6001600160e01b03191681526020019060040190602082600301049283019260010382029150808411610d1b5790505b505050505081525050828281518110610d7457610d74611cdc565b6020908102919091010152600101610c51565b50610d906110fd565b9a9950505050505050505050565b610da66112a1565b610e10576040517f08c379a000000000000000000000000000000000000000000000000000000000815260206004820152601660248201527f63616c6c206973206e6f7420617574686f726973656400000000000000000000604482015260640160405180910390fd5b600160006012016000828254610e269190611d41565b9091555050601254600081815260136020908152604090912060018101805473ffffffffffffffffffffffffffffffffffffffff19166001600160a01b0388161790558451610e7d9260029092019186019061164a565b5060005b8251811015610f2c5760008281526013602052604090208351849083908110610eac57610eac611cdc565b6020908102919091018101518254600180820185556000948552938390208251600290920201805473ffffffffffffffffffffffffffffffffffffffff19166001600160a01b0390921691909117815581830151805192949193610f169392850192910190611576565b5050508080610f2490611d08565b915050610e81565b5050505050565b601254600081815260136020908152604080832081518154938402810160809081019093526060810184815294958695909486949293928492918491879085015b828210156110365760008481526020908190206040805180820182526002860290920180546001600160a01b0316835260018101805483518187028101870190945280845293949193858301939283018282801561101e57602002820191906000526020600020906000905b82829054906101000a900460e01b6001600160e01b03191681526020019060040190602082600301049283019260010382029150808411610fe05790505b50505050508152505081526020019060010190610f74565b5050509082525060018201546001600160a01b0316602082015260028201805460409092019161106590611b46565b80601f016020809104026020016040519081016040528092919081815260200182805461109190611b46565b80156110de5780601f106110b3576101008083540402835291602001916110de565b820191906000526020600020905b8154815290600101906020018083116110c157829003601f168201915b5050505050815250509050816110f3826112bf565b9350935050509091565b601660005b3360009081526001830160205260409020548110156111a5573360009081526020838152604080832060018601909252822080549192918490811061114957611149611cdc565b6000918252602080832060088304015460079092166004026101000a90910460e01b6001600160e01b03191683528201929092526040019020805473ffffffffffffffffffffffffffffffffffffffff19169055600101611102565b5033600090815260018201602052604081206111c091611622565b60005b33600090815260038301602052604090205481101561125757336000908152600283016020908152604080832060038601909252822080549192918490811061120e5761120e611cdc565b6000918252602080832060088304015460079092166004026101000a90910460e01b6001600160e01b03191683528201929092526040019020805460ff191690556001016111c3565b50336000908152600382016020526040812061127291611622565b336000908152600482016020526040812061128c916116be565b33600090815260059091016020526040812055565b60006112ba6014336001600160e01b031984351661140e565b905090565b6000606060005b8351518110156113ff576000846000015182815181106112e8576112e8611cdc565b60200260200101519050828160000151604051602001611333919060609190911b7fffffffffffffffffffffffffffffffffffffffff00000000000000000000000016815260140190565b60408051601f19818403018152908290526113519291602001611d94565b604051602081830303815290604052925060005b8160200151518110156113c657838260200151828151811061138957611389611cdc565b60200260200101516040516020016113a2929190611da9565b604051602081830303815290604052935080806113be90611d08565b915050611365565b508051604051813f91906113e09086908490602001611dce565b60405160208183030381529060405294508360010193505050506112c6565b50805160209091012092915050565b82546040517fb70096130000000000000000000000000000000000000000000000000000000081526001600160a01b0384811660048301523060248301526001600160e01b031984166044830152600092169063b70096139060640160206040518083038186803b15801561148257600080fd5b505afa158015611496573d6000803e3d6000fd5b505050506040513d601f19601f820116820180604052508101906114ba9190611de7565b8061156e575060018401546040517fb70096130000000000000000000000000000000000000000000000000000000081526001600160a01b0385811660048301523060248301526001600160e01b0319851660448301529091169063b70096139060640160206040518083038186803b15801561153657600080fd5b505afa15801561154a573d6000803e3d6000fd5b505050506040513d601f19601f8201168201806040525081019061156e9190611de7565b949350505050565b828054828255906000526020600020906007016008900481019282156116125791602002820160005b838211156115e057835183826101000a81548163ffffffff021916908360e01c0217905550926020019260040160208160030104928301926001030261159f565b80156116105782816101000a81549063ffffffff02191690556004016020816003010492830192600103026115e0565b505b5061161e9291506116df565b5090565b50805460008255600701600890049060005260206000209081019061164791906116df565b50565b82805461165690611b46565b90600052602060002090601f0160209004810192826116785760008555611612565b82601f1061169157805160ff1916838001178555611612565b82800160010185558215611612579182015b828111156116125782518255916020019190600101906116a3565b508054600082556002029060005260206000209081019061164791906116f4565b5b8082111561161e57600081556001016116e0565b8082111561161e57805474ffffffffffffffffffffffffffffffffffffffffff1916815560006117276001830182611622565b506002016116f4565b6001600160a01b038116811461164757600080fd5b60006020828403121561175757600080fd5b813561176281611730565b9392505050565b634e487b7160e01b600052602160045260246000fd5b60006020808301818452808551808352604092508286019150828160051b87010184880160005b8381101561186b577fffffffffffffffffffffffffffffffffffffffffffffffffffffffffffffffc0898403018552815160608085016001600160a01b038351168652898301516003811061180b57634e487b7160e01b600052602160045260246000fd5b868b0152918801518886019190915280519182905288019060808501906000905b808210156118565783516001600160e01b0319168352928a0192918a01916001919091019061182c565b505095880195935050908601906001016117a6565b509098975050505050505050565b60006020828403121561188b57600080fd5b5035919050565b634e487b7160e01b600052604160045260246000fd5b6040805190810167ffffffffffffffff811182821017156118cb576118cb611892565b60405290565b604051601f8201601f1916810167ffffffffffffffff811182821017156118fa576118fa611892565b604052919050565b600067ffffffffffffffff82111561191c5761191c611892565b5060051b60200190565b6001600160e01b03198116811461164757600080fd5b600082601f83011261194d57600080fd5b8135602061196261195d83611902565b6118d1565b828152600592831b850182019282820191908785111561198157600080fd5b8387015b85811015611a7057803567ffffffffffffffff808211156119a65760008081fd5b818a019150604080601f19848e030112156119c15760008081fd5b6119c96118a8565b888401356119d681611730565b815283820135838111156119ea5760008081fd5b8085019450508c603f850112611a0257600092508283fd5b888401359250611a1461195d84611902565b83815292861b8401820192898101908e851115611a315760008081fd5b948301945b84861015611a5b5785359350611a4b84611926565b838252948a0194908a0190611a36565b828b0152508752505050928401928401611985565b5090979650505050505050565b600080600060608486031215611a9257600080fd5b8335611a9d81611730565b925060208481013567ffffffffffffffff80821115611abb57600080fd5b818701915087601f830112611acf57600080fd5b813581811115611ae157611ae1611892565b611af384601f19601f840116016118d1565b8181528985838601011115611b0757600080fd5b818585018683013760009181019094015291935060408601359180831115611b2e57600080fd5b5050611b3c8682870161193c565b9150509250925092565b600181811c90821680611b5a57607f821691505b60208210811415611b7b57634e487b7160e01b600052602260045260246000fd5b50919050565b60006020808385031215611b9457600080fd5b825167ffffffffffffffff80821115611bac57600080fd5b818501915085601f830112611bc057600080fd5b8151611bce61195d82611902565b81815260059190911b83018401908481019088831115611bed57600080fd5b8585015b83811015611ccf57805185811115611c095760008081fd5b86016040818c03601f1901811315611c215760008081fd5b611c296118a8565b89830151611c3681611730565b81528282015188811115611c4a5760008081fd5b8084019350508c603f840112611c605760008081fd5b89830151611c7061195d82611902565b81815260059190911b84018301908b8101908f831115611c905760008081fd5b948401945b82861015611cba5785519450611caa85611926565b848252948c0194908c0190611c95565b838d0152505085525050918601918601611bf1565b5098975050505050505050565b634e487b7160e01b600052603260045260246000fd5b634e487b7160e01b600052601160045260246000fd5b60007fffffffffffffffffffffffffffffffffffffffffffffffffffffffffffffffff821415611d3a57611d3a611cf2565b5060010190565b60008219821115611d5457611d54611cf2565b500190565b6000815160005b81811015611d7a5760208185018101518683015201611d60565b81811115611d89576000828601525b509290920192915050565b600061156e611da38386611d59565b84611d59565b6000611db58285611d59565b6001600160e01b03199390931683525050600401919050565b6000611dda8285611d59565b9283525050602001919050565b600060208284031215611df957600080fd5b8151801515811461176257600080fdfea264697066735822122042b2d7394a98bf2c67f5fbf6222eaee49ab4a3fe63ef475c48ad1b198c727f6c64736f6c63430008090033",
  "devdoc": {
    "kind": "dev",
    "methods": {},
    "version": 1
  },
  "userdoc": {
    "kind": "user",
    "methods": {},
    "version": 1
  },
  "storageLayout": {
    "storage": [
      {
        "astId": 20164,
        "contract": "contracts/voyage/facets/DiamondVersionFacet.sol:DiamondVersionFacet",
        "label": "s",
        "offset": 0,
        "slot": "0",
        "type": "t_struct(AppStorage)20045_storage"
      }
    ],
    "types": {
      "t_address": {
        "encoding": "inplace",
        "label": "address",
        "numberOfBytes": "20"
      },
      "t_array(t_address)dyn_storage": {
        "base": "t_address",
        "encoding": "dynamic_array",
        "label": "address[]",
        "numberOfBytes": "32"
      },
      "t_array(t_bytes4)dyn_storage": {
        "base": "t_bytes4",
        "encoding": "dynamic_array",
        "label": "bytes4[]",
        "numberOfBytes": "32"
      },
      "t_array(t_struct(Facet)8203_storage)dyn_storage": {
        "base": "t_struct(Facet)8203_storage",
        "encoding": "dynamic_array",
        "label": "struct IDiamondLoupe.Facet[]",
        "numberOfBytes": "32"
      },
      "t_array(t_struct(FacetCut)8171_storage)dyn_storage": {
        "base": "t_struct(FacetCut)8171_storage",
        "encoding": "dynamic_array",
        "label": "struct IDiamondCut.FacetCut[]",
        "numberOfBytes": "32"
      },
      "t_array(t_struct(RepaymentData)19796_storage)dyn_storage": {
        "base": "t_struct(RepaymentData)19796_storage",
        "encoding": "dynamic_array",
        "label": "struct RepaymentData[]",
        "numberOfBytes": "32"
      },
      "t_bool": {
        "encoding": "inplace",
        "label": "bool",
        "numberOfBytes": "1"
      },
      "t_bytes32": {
        "encoding": "inplace",
        "label": "bytes32",
        "numberOfBytes": "32"
      },
      "t_bytes4": {
        "encoding": "inplace",
        "label": "bytes4",
        "numberOfBytes": "4"
      },
      "t_bytes_storage": {
        "encoding": "bytes",
        "label": "bytes",
        "numberOfBytes": "32"
      },
      "t_contract(DSGuard)14497": {
        "encoding": "inplace",
        "label": "contract DSGuard",
        "numberOfBytes": "20"
      },
      "t_contract(DSRoles)14886": {
        "encoding": "inplace",
        "label": "contract DSRoles",
        "numberOfBytes": "20"
      },
      "t_contract(IVaultFactory)19710": {
        "encoding": "inplace",
        "label": "contract IVaultFactory",
        "numberOfBytes": "20"
      },
      "t_contract(UpgradeableBeacon)2867": {
        "encoding": "inplace",
        "label": "contract UpgradeableBeacon",
        "numberOfBytes": "20"
      },
      "t_enum(FacetCutAction)8162": {
        "encoding": "inplace",
        "label": "enum IDiamondCut.FacetCutAction",
        "numberOfBytes": "1"
      },
      "t_mapping(t_address,t_address)": {
        "encoding": "mapping",
        "key": "t_address",
        "label": "mapping(address => address)",
        "numberOfBytes": "32",
        "value": "t_address"
      },
      "t_mapping(t_address,t_array(t_bytes4)dyn_storage)": {
        "encoding": "mapping",
        "key": "t_address",
        "label": "mapping(address => bytes4[])",
        "numberOfBytes": "32",
        "value": "t_array(t_bytes4)dyn_storage"
      },
      "t_mapping(t_address,t_array(t_struct(FacetCut)8171_storage)dyn_storage)": {
        "encoding": "mapping",
        "key": "t_address",
        "label": "mapping(address => struct IDiamondCut.FacetCut[])",
        "numberOfBytes": "32",
        "value": "t_array(t_struct(FacetCut)8171_storage)dyn_storage"
      },
      "t_mapping(t_address,t_mapping(t_address,t_struct(BorrowData)19851_storage))": {
        "encoding": "mapping",
        "key": "t_address",
        "label": "mapping(address => mapping(address => struct BorrowData))",
        "numberOfBytes": "32",
        "value": "t_mapping(t_address,t_struct(BorrowData)19851_storage)"
      },
      "t_mapping(t_address,t_mapping(t_bytes4,t_address))": {
        "encoding": "mapping",
        "key": "t_address",
        "label": "mapping(address => mapping(bytes4 => address))",
        "numberOfBytes": "32",
        "value": "t_mapping(t_bytes4,t_address)"
      },
      "t_mapping(t_address,t_mapping(t_bytes4,t_bool))": {
        "encoding": "mapping",
        "key": "t_address",
        "label": "mapping(address => mapping(bytes4 => bool))",
        "numberOfBytes": "32",
        "value": "t_mapping(t_bytes4,t_bool)"
      },
      "t_mapping(t_address,t_mapping(t_uint256,t_struct(NFTInfo)19903_storage))": {
        "encoding": "mapping",
        "key": "t_address",
        "label": "mapping(address => mapping(uint256 => struct NFTInfo))",
        "numberOfBytes": "32",
        "value": "t_mapping(t_uint256,t_struct(NFTInfo)19903_storage)"
      },
      "t_mapping(t_address,t_struct(BorrowData)19851_storage)": {
        "encoding": "mapping",
        "key": "t_address",
        "label": "mapping(address => struct BorrowData)",
        "numberOfBytes": "32",
        "value": "t_struct(BorrowData)19851_storage"
      },
      "t_mapping(t_address,t_struct(BorrowState)19858_storage)": {
        "encoding": "mapping",
        "key": "t_address",
        "label": "mapping(address => struct BorrowState)",
        "numberOfBytes": "32",
        "value": "t_struct(BorrowState)19858_storage"
      },
      "t_mapping(t_address,t_struct(ERC721AssetInfo)19908_storage)": {
        "encoding": "mapping",
        "key": "t_address",
        "label": "mapping(address => struct ERC721AssetInfo)",
        "numberOfBytes": "32",
        "value": "t_struct(ERC721AssetInfo)19908_storage"
      },
      "t_mapping(t_address,t_struct(ReserveData)19775_storage)": {
        "encoding": "mapping",
        "key": "t_address",
        "label": "mapping(address => struct ReserveData)",
        "numberOfBytes": "32",
        "value": "t_struct(ReserveData)19775_storage"
      },
      "t_mapping(t_address,t_struct(VaultConfig)19865_storage)": {
        "encoding": "mapping",
        "key": "t_address",
        "label": "mapping(address => struct VaultConfig)",
        "numberOfBytes": "32",
        "value": "t_struct(VaultConfig)19865_storage"
      },
      "t_mapping(t_address,t_uint256)": {
        "encoding": "mapping",
        "key": "t_address",
        "label": "mapping(address => uint256)",
        "numberOfBytes": "32",
        "value": "t_uint256"
      },
      "t_mapping(t_bytes32,t_address)": {
        "encoding": "mapping",
        "key": "t_bytes32",
        "label": "mapping(bytes32 => address)",
        "numberOfBytes": "32",
        "value": "t_address"
      },
      "t_mapping(t_bytes4,t_address)": {
        "encoding": "mapping",
        "key": "t_bytes4",
        "label": "mapping(bytes4 => address)",
        "numberOfBytes": "32",
        "value": "t_address"
      },
      "t_mapping(t_bytes4,t_bool)": {
        "encoding": "mapping",
        "key": "t_bytes4",
        "label": "mapping(bytes4 => bool)",
        "numberOfBytes": "32",
        "value": "t_bool"
      },
      "t_mapping(t_uint256,t_address)": {
        "encoding": "mapping",
        "key": "t_uint256",
        "label": "mapping(uint256 => address)",
        "numberOfBytes": "32",
        "value": "t_address"
      },
      "t_mapping(t_uint256,t_array(t_bytes4)dyn_storage)": {
        "encoding": "mapping",
        "key": "t_uint256",
        "label": "mapping(uint256 => bytes4[])",
        "numberOfBytes": "32",
        "value": "t_array(t_bytes4)dyn_storage"
      },
      "t_mapping(t_uint256,t_struct(DrawDown)19826_storage)": {
        "encoding": "mapping",
        "key": "t_uint256",
        "label": "mapping(uint256 => struct DrawDown)",
        "numberOfBytes": "32",
        "value": "t_struct(DrawDown)19826_storage"
      },
      "t_mapping(t_uint256,t_struct(NFTInfo)19903_storage)": {
        "encoding": "mapping",
        "key": "t_uint256",
        "label": "mapping(uint256 => struct NFTInfo)",
        "numberOfBytes": "32",
        "value": "t_struct(NFTInfo)19903_storage"
      },
      "t_mapping(t_uint256,t_struct(Snapshot)19482_storage)": {
        "encoding": "mapping",
        "key": "t_uint256",
        "label": "mapping(uint256 => struct Snapshot)",
        "numberOfBytes": "32",
        "value": "t_struct(Snapshot)19482_storage"
      },
      "t_struct(AppStorage)20045_storage": {
        "encoding": "inplace",
        "label": "struct AppStorage",
        "members": [
          {
            "astId": 19960,
            "contract": "contracts/voyage/facets/DiamondVersionFacet.sol:DiamondVersionFacet",
            "label": "_addresses",
            "offset": 0,
            "slot": "0",
            "type": "t_mapping(t_bytes32,t_address)"
          },
          {
            "astId": 19963,
            "contract": "contracts/voyage/facets/DiamondVersionFacet.sol:DiamondVersionFacet",
            "label": "seniorDepositTokenBeacon",
            "offset": 0,
            "slot": "1",
            "type": "t_contract(UpgradeableBeacon)2867"
          },
          {
            "astId": 19966,
            "contract": "contracts/voyage/facets/DiamondVersionFacet.sol:DiamondVersionFacet",
            "label": "juniorDepositTokenBeacon",
            "offset": 0,
            "slot": "2",
            "type": "t_contract(UpgradeableBeacon)2867"
          },
          {
            "astId": 19971,
            "contract": "contracts/voyage/facets/DiamondVersionFacet.sol:DiamondVersionFacet",
            "label": "_reserves",
            "offset": 0,
            "slot": "3",
            "type": "t_mapping(t_address,t_struct(ReserveData)19775_storage)"
          },
          {
            "astId": 19975,
            "contract": "contracts/voyage/facets/DiamondVersionFacet.sol:DiamondVersionFacet",
            "label": "_reserveList",
            "offset": 0,
            "slot": "4",
            "type": "t_mapping(t_uint256,t_address)"
          },
          {
            "astId": 19977,
            "contract": "contracts/voyage/facets/DiamondVersionFacet.sol:DiamondVersionFacet",
            "label": "_reservesCount",
            "offset": 0,
            "slot": "5",
            "type": "t_uint16"
          },
          {
            "astId": 19984,
            "contract": "contracts/voyage/facets/DiamondVersionFacet.sol:DiamondVersionFacet",
            "label": "_borrowData",
            "offset": 0,
            "slot": "6",
            "type": "t_mapping(t_address,t_mapping(t_address,t_struct(BorrowData)19851_storage))"
          },
          {
            "astId": 19989,
            "contract": "contracts/voyage/facets/DiamondVersionFacet.sol:DiamondVersionFacet",
            "label": "_borrowState",
            "offset": 0,
            "slot": "7",
            "type": "t_mapping(t_address,t_struct(BorrowState)19858_storage)"
          },
          {
            "astId": 19991,
            "contract": "contracts/voyage/facets/DiamondVersionFacet.sol:DiamondVersionFacet",
            "label": "_paused",
            "offset": 0,
            "slot": "8",
            "type": "t_bool"
          },
          {
            "astId": 19994,
            "contract": "contracts/voyage/facets/DiamondVersionFacet.sol:DiamondVersionFacet",
            "label": "marginEscrowBeacon",
            "offset": 1,
            "slot": "8",
            "type": "t_contract(UpgradeableBeacon)2867"
          },
          {
            "astId": 19997,
            "contract": "contracts/voyage/facets/DiamondVersionFacet.sol:DiamondVersionFacet",
            "label": "creditEscrowBeacon",
            "offset": 0,
            "slot": "9",
            "type": "t_contract(UpgradeableBeacon)2867"
          },
          {
            "astId": 20000,
            "contract": "contracts/voyage/facets/DiamondVersionFacet.sol:DiamondVersionFacet",
            "label": "subVaultBeacon",
            "offset": 0,
            "slot": "10",
            "type": "t_contract(UpgradeableBeacon)2867"
          },
          {
            "astId": 20003,
            "contract": "contracts/voyage/facets/DiamondVersionFacet.sol:DiamondVersionFacet",
            "label": "vaultFactory",
            "offset": 0,
            "slot": "11",
            "type": "t_contract(IVaultFactory)19710"
          },
          {
            "astId": 20006,
            "contract": "contracts/voyage/facets/DiamondVersionFacet.sol:DiamondVersionFacet",
            "label": "vaults",
            "offset": 0,
            "slot": "12",
            "type": "t_array(t_address)dyn_storage"
          },
          {
            "astId": 20010,
            "contract": "contracts/voyage/facets/DiamondVersionFacet.sol:DiamondVersionFacet",
            "label": "vaultMap",
            "offset": 0,
            "slot": "13",
            "type": "t_mapping(t_address,t_address)"
          },
          {
            "astId": 20015,
            "contract": "contracts/voyage/facets/DiamondVersionFacet.sol:DiamondVersionFacet",
            "label": "vaultConfigMap",
            "offset": 0,
            "slot": "14",
            "type": "t_mapping(t_address,t_struct(VaultConfig)19865_storage)"
          },
          {
            "astId": 20019,
            "contract": "contracts/voyage/facets/DiamondVersionFacet.sol:DiamondVersionFacet",
            "label": "marketPlaceToAsset",
            "offset": 0,
            "slot": "15",
            "type": "t_mapping(t_address,t_address)"
          },
          {
            "astId": 20024,
            "contract": "contracts/voyage/facets/DiamondVersionFacet.sol:DiamondVersionFacet",
            "label": "erc721AssetInfo",
            "offset": 0,
            "slot": "16",
            "type": "t_mapping(t_address,t_struct(ERC721AssetInfo)19908_storage)"
          },
          {
            "astId": 20031,
            "contract": "contracts/voyage/facets/DiamondVersionFacet.sol:DiamondVersionFacet",
            "label": "nftInfo",
            "offset": 0,
            "slot": "17",
            "type": "t_mapping(t_address,t_mapping(t_uint256,t_struct(NFTInfo)19903_storage))"
          },
          {
            "astId": 20033,
            "contract": "contracts/voyage/facets/DiamondVersionFacet.sol:DiamondVersionFacet",
            "label": "currentVersion",
            "offset": 0,
            "slot": "18",
            "type": "t_uint256"
          },
          {
            "astId": 20038,
            "contract": "contracts/voyage/facets/DiamondVersionFacet.sol:DiamondVersionFacet",
            "label": "snapshotMap",
            "offset": 0,
            "slot": "19",
            "type": "t_mapping(t_uint256,t_struct(Snapshot)19482_storage)"
          },
          {
            "astId": 20041,
            "contract": "contracts/voyage/facets/DiamondVersionFacet.sol:DiamondVersionFacet",
            "label": "auth",
            "offset": 0,
            "slot": "20",
            "type": "t_struct(Authorisation)19898_storage"
          },
          {
            "astId": 20044,
            "contract": "contracts/voyage/facets/DiamondVersionFacet.sol:DiamondVersionFacet",
            "label": "upgradeParam",
            "offset": 0,
            "slot": "22",
            "type": "t_struct(UpgradeParam)19956_storage"
          }
        ],
        "numberOfBytes": "992"
      },
      "t_struct(Authorisation)19898_storage": {
        "encoding": "inplace",
        "label": "struct Authorisation",
        "members": [
          {
            "astId": 19894,
            "contract": "contracts/voyage/facets/DiamondVersionFacet.sol:DiamondVersionFacet",
            "label": "rbac",
            "offset": 0,
            "slot": "0",
            "type": "t_contract(DSRoles)14886"
          },
          {
            "astId": 19897,
            "contract": "contracts/voyage/facets/DiamondVersionFacet.sol:DiamondVersionFacet",
            "label": "acl",
            "offset": 0,
            "slot": "1",
            "type": "t_contract(DSGuard)14497"
          }
        ],
        "numberOfBytes": "64"
      },
      "t_struct(BorrowData)19851_storage": {
        "encoding": "inplace",
        "label": "struct BorrowData",
        "members": [
          {
            "astId": 19833,
            "contract": "contracts/voyage/facets/DiamondVersionFacet.sol:DiamondVersionFacet",
            "label": "paidDrawDownNumber",
            "offset": 0,
            "slot": "0",
            "type": "t_uint256"
          },
          {
            "astId": 19835,
            "contract": "contracts/voyage/facets/DiamondVersionFacet.sol:DiamondVersionFacet",
            "label": "nextDrawDownNumber",
            "offset": 0,
            "slot": "1",
            "type": "t_uint256"
          },
          {
            "astId": 19837,
            "contract": "contracts/voyage/facets/DiamondVersionFacet.sol:DiamondVersionFacet",
            "label": "totalPrincipal",
            "offset": 0,
            "slot": "2",
            "type": "t_uint256"
          },
          {
            "astId": 19839,
            "contract": "contracts/voyage/facets/DiamondVersionFacet.sol:DiamondVersionFacet",
            "label": "totalInterest",
            "offset": 0,
            "slot": "3",
            "type": "t_uint256"
          },
          {
            "astId": 19841,
            "contract": "contracts/voyage/facets/DiamondVersionFacet.sol:DiamondVersionFacet",
            "label": "mapSize",
            "offset": 0,
            "slot": "4",
            "type": "t_uint256"
          },
          {
            "astId": 19846,
            "contract": "contracts/voyage/facets/DiamondVersionFacet.sol:DiamondVersionFacet",
            "label": "drawDowns",
            "offset": 0,
            "slot": "5",
            "type": "t_mapping(t_uint256,t_struct(DrawDown)19826_storage)"
          },
          {
            "astId": 19848,
            "contract": "contracts/voyage/facets/DiamondVersionFacet.sol:DiamondVersionFacet",
            "label": "totalPaid",
            "offset": 0,
            "slot": "6",
            "type": "t_uint256"
          },
          {
            "astId": 19850,
            "contract": "contracts/voyage/facets/DiamondVersionFacet.sol:DiamondVersionFacet",
            "label": "totalRedeemed",
            "offset": 0,
            "slot": "7",
            "type": "t_uint256"
          }
        ],
        "numberOfBytes": "256"
      },
      "t_struct(BorrowState)19858_storage": {
        "encoding": "inplace",
        "label": "struct BorrowState",
        "members": [
          {
            "astId": 19853,
            "contract": "contracts/voyage/facets/DiamondVersionFacet.sol:DiamondVersionFacet",
            "label": "totalDebt",
            "offset": 0,
            "slot": "0",
            "type": "t_uint256"
          },
          {
            "astId": 19855,
            "contract": "contracts/voyage/facets/DiamondVersionFacet.sol:DiamondVersionFacet",
            "label": "totalInterest",
            "offset": 0,
            "slot": "1",
            "type": "t_uint256"
          },
          {
            "astId": 19857,
            "contract": "contracts/voyage/facets/DiamondVersionFacet.sol:DiamondVersionFacet",
            "label": "avgBorrowRate",
            "offset": 0,
            "slot": "2",
            "type": "t_uint256"
          }
        ],
        "numberOfBytes": "96"
      },
      "t_struct(DrawDown)19826_storage": {
        "encoding": "inplace",
        "label": "struct DrawDown",
        "members": [
          {
            "astId": 19798,
            "contract": "contracts/voyage/facets/DiamondVersionFacet.sol:DiamondVersionFacet",
            "label": "principal",
            "offset": 0,
            "slot": "0",
            "type": "t_uint256"
          },
          {
            "astId": 19800,
            "contract": "contracts/voyage/facets/DiamondVersionFacet.sol:DiamondVersionFacet",
            "label": "interest",
            "offset": 0,
            "slot": "1",
            "type": "t_uint256"
          },
          {
            "astId": 19802,
            "contract": "contracts/voyage/facets/DiamondVersionFacet.sol:DiamondVersionFacet",
            "label": "term",
            "offset": 0,
            "slot": "2",
            "type": "t_uint256"
          },
          {
            "astId": 19804,
            "contract": "contracts/voyage/facets/DiamondVersionFacet.sol:DiamondVersionFacet",
            "label": "epoch",
            "offset": 0,
            "slot": "3",
            "type": "t_uint256"
          },
          {
            "astId": 19806,
            "contract": "contracts/voyage/facets/DiamondVersionFacet.sol:DiamondVersionFacet",
            "label": "nper",
            "offset": 0,
            "slot": "4",
            "type": "t_uint256"
          },
          {
            "astId": 19809,
            "contract": "contracts/voyage/facets/DiamondVersionFacet.sol:DiamondVersionFacet",
            "label": "pmt",
            "offset": 0,
            "slot": "5",
            "type": "t_struct(PMT)19785_storage"
          },
          {
            "astId": 19811,
            "contract": "contracts/voyage/facets/DiamondVersionFacet.sol:DiamondVersionFacet",
            "label": "apr",
            "offset": 0,
            "slot": "8",
            "type": "t_uint256"
          },
          {
            "astId": 19813,
            "contract": "contracts/voyage/facets/DiamondVersionFacet.sol:DiamondVersionFacet",
            "label": "borrowAt",
            "offset": 0,
            "slot": "9",
            "type": "t_uint256"
          },
          {
            "astId": 19815,
            "contract": "contracts/voyage/facets/DiamondVersionFacet.sol:DiamondVersionFacet",
            "label": "nextPaymentDue",
            "offset": 0,
            "slot": "10",
            "type": "t_uint256"
          },
          {
            "astId": 19817,
            "contract": "contracts/voyage/facets/DiamondVersionFacet.sol:DiamondVersionFacet",
            "label": "totalPrincipalPaid",
            "offset": 0,
            "slot": "11",
            "type": "t_uint256"
          },
          {
            "astId": 19819,
            "contract": "contracts/voyage/facets/DiamondVersionFacet.sol:DiamondVersionFacet",
            "label": "totalInterestPaid",
            "offset": 0,
            "slot": "12",
            "type": "t_uint256"
          },
          {
            "astId": 19823,
            "contract": "contracts/voyage/facets/DiamondVersionFacet.sol:DiamondVersionFacet",
            "label": "repayments",
            "offset": 0,
            "slot": "13",
            "type": "t_array(t_struct(RepaymentData)19796_storage)dyn_storage"
          },
          {
            "astId": 19825,
            "contract": "contracts/voyage/facets/DiamondVersionFacet.sol:DiamondVersionFacet",
            "label": "paidTimes",
            "offset": 0,
            "slot": "14",
            "type": "t_uint256"
          }
        ],
        "numberOfBytes": "480"
      },
      "t_struct(ERC721AssetInfo)19908_storage": {
        "encoding": "inplace",
        "label": "struct ERC721AssetInfo",
        "members": [
          {
            "astId": 19905,
            "contract": "contracts/voyage/facets/DiamondVersionFacet.sol:DiamondVersionFacet",
            "label": "marketplace",
            "offset": 0,
            "slot": "0",
            "type": "t_address"
          },
          {
            "astId": 19907,
            "contract": "contracts/voyage/facets/DiamondVersionFacet.sol:DiamondVersionFacet",
            "label": "erc20Addr",
            "offset": 0,
            "slot": "1",
            "type": "t_address"
          }
        ],
        "numberOfBytes": "64"
      },
      "t_struct(Facet)8203_storage": {
        "encoding": "inplace",
        "label": "struct IDiamondLoupe.Facet",
        "members": [
          {
            "astId": 8199,
            "contract": "contracts/voyage/facets/DiamondVersionFacet.sol:DiamondVersionFacet",
            "label": "facetAddress",
            "offset": 0,
            "slot": "0",
            "type": "t_address"
          },
          {
            "astId": 8202,
            "contract": "contracts/voyage/facets/DiamondVersionFacet.sol:DiamondVersionFacet",
            "label": "functionSelectors",
            "offset": 0,
            "slot": "1",
            "type": "t_array(t_bytes4)dyn_storage"
          }
        ],
        "numberOfBytes": "64"
      },
      "t_struct(FacetCut)8171_storage": {
        "encoding": "inplace",
        "label": "struct IDiamondCut.FacetCut",
        "members": [
          {
            "astId": 8164,
            "contract": "contracts/voyage/facets/DiamondVersionFacet.sol:DiamondVersionFacet",
            "label": "facetAddress",
            "offset": 0,
            "slot": "0",
            "type": "t_address"
          },
          {
            "astId": 8167,
            "contract": "contracts/voyage/facets/DiamondVersionFacet.sol:DiamondVersionFacet",
            "label": "action",
            "offset": 20,
            "slot": "0",
            "type": "t_enum(FacetCutAction)8162"
          },
          {
            "astId": 8170,
            "contract": "contracts/voyage/facets/DiamondVersionFacet.sol:DiamondVersionFacet",
            "label": "functionSelectors",
            "offset": 0,
            "slot": "1",
            "type": "t_array(t_bytes4)dyn_storage"
          }
        ],
        "numberOfBytes": "64"
      },
      "t_struct(NFTInfo)19903_storage": {
        "encoding": "inplace",
        "label": "struct NFTInfo",
        "members": [
          {
            "astId": 19900,
            "contract": "contracts/voyage/facets/DiamondVersionFacet.sol:DiamondVersionFacet",
            "label": "price",
            "offset": 0,
            "slot": "0",
            "type": "t_uint256"
          },
          {
            "astId": 19902,
            "contract": "contracts/voyage/facets/DiamondVersionFacet.sol:DiamondVersionFacet",
            "label": "timestamp",
            "offset": 0,
            "slot": "1",
            "type": "t_uint256"
          }
        ],
        "numberOfBytes": "64"
      },
      "t_struct(PMT)19785_storage": {
        "encoding": "inplace",
        "label": "struct PMT",
        "members": [
          {
            "astId": 19780,
            "contract": "contracts/voyage/facets/DiamondVersionFacet.sol:DiamondVersionFacet",
            "label": "principal",
            "offset": 0,
            "slot": "0",
            "type": "t_uint256"
          },
          {
            "astId": 19782,
            "contract": "contracts/voyage/facets/DiamondVersionFacet.sol:DiamondVersionFacet",
            "label": "interest",
            "offset": 0,
            "slot": "1",
            "type": "t_uint256"
          },
          {
            "astId": 19784,
            "contract": "contracts/voyage/facets/DiamondVersionFacet.sol:DiamondVersionFacet",
            "label": "pmt",
            "offset": 0,
            "slot": "2",
            "type": "t_uint256"
          }
        ],
        "numberOfBytes": "96"
      },
      "t_struct(RepaymentData)19796_storage": {
        "encoding": "inplace",
        "label": "struct RepaymentData",
        "members": [
          {
            "astId": 19787,
            "contract": "contracts/voyage/facets/DiamondVersionFacet.sol:DiamondVersionFacet",
            "label": "principal",
            "offset": 0,
            "slot": "0",
            "type": "t_uint256"
          },
          {
            "astId": 19789,
            "contract": "contracts/voyage/facets/DiamondVersionFacet.sol:DiamondVersionFacet",
            "label": "interest",
            "offset": 0,
            "slot": "1",
            "type": "t_uint256"
          },
          {
            "astId": 19791,
            "contract": "contracts/voyage/facets/DiamondVersionFacet.sol:DiamondVersionFacet",
            "label": "total",
            "offset": 0,
            "slot": "2",
            "type": "t_uint256"
          },
          {
            "astId": 19793,
            "contract": "contracts/voyage/facets/DiamondVersionFacet.sol:DiamondVersionFacet",
            "label": "paidAt",
            "offset": 0,
            "slot": "3",
            "type": "t_uint40"
          },
          {
            "astId": 19795,
            "contract": "contracts/voyage/facets/DiamondVersionFacet.sol:DiamondVersionFacet",
            "label": "isLiquidated",
            "offset": 5,
            "slot": "3",
            "type": "t_bool"
          }
        ],
        "numberOfBytes": "128"
      },
      "t_struct(ReserveConfigurationMap)19778_storage": {
        "encoding": "inplace",
        "label": "struct ReserveConfigurationMap",
        "members": [
          {
            "astId": 19777,
            "contract": "contracts/voyage/facets/DiamondVersionFacet.sol:DiamondVersionFacet",
            "label": "data",
            "offset": 0,
            "slot": "0",
            "type": "t_uint256"
          }
        ],
        "numberOfBytes": "32"
      },
      "t_struct(ReserveData)19775_storage": {
        "encoding": "inplace",
        "label": "struct ReserveData",
        "members": [
          {
            "astId": 19738,
            "contract": "contracts/voyage/facets/DiamondVersionFacet.sol:DiamondVersionFacet",
            "label": "configuration",
            "offset": 0,
            "slot": "0",
            "type": "t_struct(ReserveConfigurationMap)19778_storage"
          },
          {
            "astId": 19740,
            "contract": "contracts/voyage/facets/DiamondVersionFacet.sol:DiamondVersionFacet",
            "label": "currentOverallLiquidityRate",
            "offset": 0,
            "slot": "1",
            "type": "t_uint256"
          },
          {
            "astId": 19742,
            "contract": "contracts/voyage/facets/DiamondVersionFacet.sol:DiamondVersionFacet",
            "label": "currentJuniorLiquidityRate",
            "offset": 0,
            "slot": "2",
            "type": "t_uint256"
          },
          {
            "astId": 19744,
            "contract": "contracts/voyage/facets/DiamondVersionFacet.sol:DiamondVersionFacet",
            "label": "currentSeniorLiquidityRate",
            "offset": 0,
            "slot": "3",
            "type": "t_uint256"
          },
          {
            "astId": 19746,
            "contract": "contracts/voyage/facets/DiamondVersionFacet.sol:DiamondVersionFacet",
            "label": "currentBorrowRate",
            "offset": 0,
            "slot": "4",
            "type": "t_uint256"
          },
          {
            "astId": 19748,
            "contract": "contracts/voyage/facets/DiamondVersionFacet.sol:DiamondVersionFacet",
            "label": "marginRequirement",
            "offset": 0,
            "slot": "5",
            "type": "t_uint256"
          },
          {
            "astId": 19750,
            "contract": "contracts/voyage/facets/DiamondVersionFacet.sol:DiamondVersionFacet",
            "label": "decimals",
            "offset": 0,
            "slot": "6",
            "type": "t_uint256"
          },
          {
            "astId": 19752,
            "contract": "contracts/voyage/facets/DiamondVersionFacet.sol:DiamondVersionFacet",
            "label": "interestRateStrategyAddress",
            "offset": 0,
            "slot": "7",
            "type": "t_address"
          },
          {
            "astId": 19754,
            "contract": "contracts/voyage/facets/DiamondVersionFacet.sol:DiamondVersionFacet",
            "label": "loanStrategyAddress",
            "offset": 0,
            "slot": "8",
            "type": "t_address"
          },
          {
            "astId": 19756,
            "contract": "contracts/voyage/facets/DiamondVersionFacet.sol:DiamondVersionFacet",
            "label": "juniorDepositTokenAddress",
            "offset": 0,
            "slot": "9",
            "type": "t_address"
          },
          {
            "astId": 19758,
            "contract": "contracts/voyage/facets/DiamondVersionFacet.sol:DiamondVersionFacet",
            "label": "seniorDepositTokenAddress",
            "offset": 0,
            "slot": "10",
            "type": "t_address"
          },
          {
            "astId": 19760,
            "contract": "contracts/voyage/facets/DiamondVersionFacet.sol:DiamondVersionFacet",
            "label": "juniorLastUpdateTimestamp",
            "offset": 20,
            "slot": "10",
            "type": "t_uint40"
          },
          {
            "astId": 19762,
            "contract": "contracts/voyage/facets/DiamondVersionFacet.sol:DiamondVersionFacet",
            "label": "seniorLastUpdateTimestamp",
            "offset": 25,
            "slot": "10",
            "type": "t_uint40"
          },
          {
            "astId": 19764,
            "contract": "contracts/voyage/facets/DiamondVersionFacet.sol:DiamondVersionFacet",
            "label": "optimalTrancheRatio",
            "offset": 0,
            "slot": "11",
            "type": "t_uint256"
          },
          {
            "astId": 19766,
            "contract": "contracts/voyage/facets/DiamondVersionFacet.sol:DiamondVersionFacet",
            "label": "currentIncomeRatio",
            "offset": 0,
            "slot": "12",
            "type": "t_uint256"
          },
          {
            "astId": 19768,
            "contract": "contracts/voyage/facets/DiamondVersionFacet.sol:DiamondVersionFacet",
            "label": "optimalIncomeRatio",
            "offset": 0,
            "slot": "13",
            "type": "t_uint256"
          },
          {
            "astId": 19770,
            "contract": "contracts/voyage/facets/DiamondVersionFacet.sol:DiamondVersionFacet",
            "label": "nftAddress",
            "offset": 0,
            "slot": "14",
            "type": "t_address"
          },
          {
            "astId": 19772,
            "contract": "contracts/voyage/facets/DiamondVersionFacet.sol:DiamondVersionFacet",
            "label": "priceOracle",
            "offset": 0,
            "slot": "15",
            "type": "t_address"
          },
          {
            "astId": 19774,
            "contract": "contracts/voyage/facets/DiamondVersionFacet.sol:DiamondVersionFacet",
            "label": "initialized",
            "offset": 20,
            "slot": "15",
            "type": "t_bool"
          }
        ],
        "numberOfBytes": "512"
      },
      "t_struct(Snapshot)19482_storage": {
        "encoding": "inplace",
        "label": "struct Snapshot",
        "members": [
          {
            "astId": 19477,
            "contract": "contracts/voyage/facets/DiamondVersionFacet.sol:DiamondVersionFacet",
            "label": "facets",
            "offset": 0,
            "slot": "0",
            "type": "t_array(t_struct(Facet)8203_storage)dyn_storage"
          },
          {
            "astId": 19479,
            "contract": "contracts/voyage/facets/DiamondVersionFacet.sol:DiamondVersionFacet",
            "label": "init",
            "offset": 0,
            "slot": "1",
            "type": "t_address"
          },
          {
            "astId": 19481,
            "contract": "contracts/voyage/facets/DiamondVersionFacet.sol:DiamondVersionFacet",
            "label": "initArgs",
            "offset": 0,
            "slot": "2",
            "type": "t_bytes_storage"
          }
        ],
        "numberOfBytes": "96"
      },
      "t_struct(UpgradeParam)19956_storage": {
        "encoding": "inplace",
        "label": "struct UpgradeParam",
        "members": [
          {
            "astId": 19914,
            "contract": "contracts/voyage/facets/DiamondVersionFacet.sol:DiamondVersionFacet",
            "label": "existingSelectorFacetMap",
            "offset": 0,
            "slot": "0",
            "type": "t_mapping(t_address,t_mapping(t_bytes4,t_address))"
          },
          {
            "astId": 19919,
            "contract": "contracts/voyage/facets/DiamondVersionFacet.sol:DiamondVersionFacet",
            "label": "existingSelectors",
            "offset": 0,
            "slot": "1",
            "type": "t_mapping(t_address,t_array(t_bytes4)dyn_storage)"
          },
          {
            "astId": 19925,
            "contract": "contracts/voyage/facets/DiamondVersionFacet.sol:DiamondVersionFacet",
            "label": "newSelectorSet",
            "offset": 0,
            "slot": "2",
            "type": "t_mapping(t_address,t_mapping(t_bytes4,t_bool))"
          },
          {
            "astId": 19930,
            "contract": "contracts/voyage/facets/DiamondVersionFacet.sol:DiamondVersionFacet",
            "label": "newSelectors",
            "offset": 0,
            "slot": "3",
            "type": "t_mapping(t_address,t_array(t_bytes4)dyn_storage)"
          },
          {
            "astId": 19936,
            "contract": "contracts/voyage/facets/DiamondVersionFacet.sol:DiamondVersionFacet",
            "label": "facetCuts",
            "offset": 0,
            "slot": "4",
            "type": "t_mapping(t_address,t_array(t_struct(FacetCut)8171_storage)dyn_storage)"
          },
          {
            "astId": 19940,
            "contract": "contracts/voyage/facets/DiamondVersionFacet.sol:DiamondVersionFacet",
            "label": "facetCutSize",
            "offset": 0,
            "slot": "5",
            "type": "t_mapping(t_address,t_uint256)"
          },
          {
            "astId": 19945,
            "contract": "contracts/voyage/facets/DiamondVersionFacet.sol:DiamondVersionFacet",
            "label": "selectorsAdded",
            "offset": 0,
            "slot": "6",
            "type": "t_mapping(t_uint256,t_array(t_bytes4)dyn_storage)"
          },
          {
            "astId": 19950,
            "contract": "contracts/voyage/facets/DiamondVersionFacet.sol:DiamondVersionFacet",
            "label": "selectorsReplaced",
            "offset": 0,
            "slot": "7",
            "type": "t_mapping(t_uint256,t_array(t_bytes4)dyn_storage)"
          },
          {
            "astId": 19955,
            "contract": "contracts/voyage/facets/DiamondVersionFacet.sol:DiamondVersionFacet",
            "label": "selectorsRemoved",
            "offset": 0,
            "slot": "8",
            "type": "t_mapping(t_uint256,t_array(t_bytes4)dyn_storage)"
          }
        ],
        "numberOfBytes": "288"
      },
      "t_struct(VaultConfig)19865_storage": {
        "encoding": "inplace",
        "label": "struct VaultConfig",
        "members": [
          {
            "astId": 19860,
            "contract": "contracts/voyage/facets/DiamondVersionFacet.sol:DiamondVersionFacet",
            "label": "minMargin",
            "offset": 0,
            "slot": "0",
            "type": "t_uint256"
          },
          {
            "astId": 19862,
            "contract": "contracts/voyage/facets/DiamondVersionFacet.sol:DiamondVersionFacet",
            "label": "maxMargin",
            "offset": 0,
            "slot": "1",
            "type": "t_uint256"
          },
          {
            "astId": 19864,
            "contract": "contracts/voyage/facets/DiamondVersionFacet.sol:DiamondVersionFacet",
            "label": "marginRequirement",
            "offset": 0,
            "slot": "2",
            "type": "t_uint256"
          }
        ],
        "numberOfBytes": "96"
      },
      "t_uint16": {
        "encoding": "inplace",
        "label": "uint16",
        "numberOfBytes": "2"
      },
      "t_uint256": {
        "encoding": "inplace",
        "label": "uint256",
        "numberOfBytes": "32"
      },
      "t_uint40": {
        "encoding": "inplace",
        "label": "uint40",
        "numberOfBytes": "5"
      }
    }
  }
}