{
  "address": "0xE6cd0D7C4e706dB27b692Ca813902e601d49B2B2",
  "abi": [
    {
      "inputs": [
        {
          "internalType": "uint256",
          "name": "rate",
          "type": "uint256"
        },
        {
          "internalType": "uint256",
          "name": "epoch",
          "type": "uint256"
        }
      ],
      "name": "adjustedAPR",
      "outputs": [
        {
          "internalType": "uint256",
          "name": "",
          "type": "uint256"
        }
      ],
      "stateMutability": "view",
      "type": "function"
    },
    {
      "inputs": [
        {
          "internalType": "uint256",
          "name": "rate",
          "type": "uint256"
        },
        {
          "internalType": "uint256",
          "name": "nper",
          "type": "uint256"
        },
        {
          "internalType": "uint256",
          "name": "pmt",
          "type": "uint256"
        },
        {
          "internalType": "bool",
          "name": "pmtsign",
          "type": "bool"
        },
        {
          "internalType": "uint256",
          "name": "pv",
          "type": "uint256"
        },
        {
          "internalType": "bool",
          "name": "pvsign",
          "type": "bool"
        }
      ],
      "name": "fv",
      "outputs": [
        {
          "internalType": "uint256",
          "name": "",
          "type": "uint256"
        }
      ],
      "stateMutability": "view",
      "type": "function"
    },
    {
      "inputs": [
        {
          "internalType": "uint256",
          "name": "rate",
          "type": "uint256"
        },
        {
          "internalType": "uint256",
          "name": "per",
          "type": "uint256"
        },
        {
          "internalType": "uint256",
          "name": "nper",
          "type": "uint256"
        },
        {
          "internalType": "uint256",
          "name": "pv",
          "type": "uint256"
        }
      ],
      "name": "ipmt",
      "outputs": [
        {
          "internalType": "uint256",
          "name": "",
          "type": "uint256"
        }
      ],
      "stateMutability": "view",
      "type": "function"
    },
    {
      "inputs": [
        {
          "internalType": "uint256",
          "name": "rate",
          "type": "uint256"
        },
        {
          "internalType": "uint256",
          "name": "nper",
          "type": "uint256"
        },
        {
          "internalType": "uint256",
          "name": "pv",
          "type": "uint256"
        }
      ],
      "name": "pmt",
      "outputs": [
        {
          "internalType": "uint256",
          "name": "",
          "type": "uint256"
        },
        {
          "internalType": "bool",
          "name": "",
          "type": "bool"
        }
      ],
      "stateMutability": "view",
      "type": "function"
    },
    {
      "inputs": [
        {
          "internalType": "uint256",
          "name": "rate",
          "type": "uint256"
        },
        {
          "internalType": "uint256",
          "name": "per",
          "type": "uint256"
        },
        {
          "internalType": "uint256",
          "name": "nper",
          "type": "uint256"
        },
        {
          "internalType": "uint256",
          "name": "pv",
          "type": "uint256"
        }
      ],
      "name": "ppmt",
      "outputs": [
        {
          "internalType": "uint256",
          "name": "",
          "type": "uint256"
        }
      ],
      "stateMutability": "view",
      "type": "function"
    }
  ],
  "transactionHash": "0x8fecdbc148580b497744027d126906d33e4943d26061aa93ef60bf078dbf3ce9",
  "args": [],
  "numDeployments": 2,
  "solcInputHash": "12f50c75a18b6f714019b390413b1deb",
  "bytecode": "0x6106e161003a600b82828239805160001a60731461002d57634e487b7160e01b600052600060045260246000fd5b30600052607381538281f3fe73000000000000000000000000000000000000000030146080604052600436106100715760003560e01c8063bd1634ff1161005a578063bd1634ff146100c4578063c389aec5146100d7578063ec429b35146100ea57600080fd5b80631ea96f9c1461007657806348a4da7a1461009c575b600080fd5b6100896100843660046104cc565b6100fd565b6040519081526020015b60405180910390f35b6100af6100aa3660046104fe565b610174565b60408051928352901515602083015201610093565b6100896100d236600461052a565b610200565b6100896100e5366004610561565b61026a565b6100896100f83660046104cc565b61033c565b600080600061010d878686610174565b909250905060006101356101308961012660018b6105e8565b86868a600161026a565b610371565b90506101686101636101538a6b033b2e3c9fd0803ce8000000610381565b61015d848c610394565b906103d0565b61040c565b98975050505050505050565b6000808061019885610192886b033b2e3c9fd0803ce8000000610381565b90610432565b90508585816101b5576b033b2e3c9fd0803ce800000091506101d2565b6101cf8261015d856b033b2e3c9fd0803ce80000006104a8565b90505b60006101dd87610371565b90506101f06101638361015d8488610394565b9960009950975050505050505050565b60008061022b836101926b033b2e3c9fd0803ce8000000610225886301e133806104b4565b90610381565b9050600061023d6301e13380856103d0565b905061025f81610259846b033b2e3c9fd0803ce80000006104a8565b90610394565b925050505b92915050565b600080610287876101928a6b033b2e3c9fd0803ce8000000610381565b9050600061029485610371565b905060006102a188610371565b905060006102af8484610394565b905060006102d66102cc866b033b2e3c9fd0803ce80000006104a8565b610259858f6103d0565b905060008780156102e5575089155b156102fb576102f483836104a8565b9050610322565b871580156103065750895b15610315576102f482846104a8565b61031f8383610381565b90505b61032b8161040c565b9d9c50505050505050505050505050565b600080600061034c878686610174565b9150915061036661035f888888886100fd565b83906104a8565b979650505050505050565b600061026482633b9aca006104c0565b600061038d82846105ff565b9392505050565b600061038d6b033b2e3c9fd0803ce80000006103ca6103b386866104c0565b61022560026b033b2e3c9fd0803ce8000000610646565b906104b4565b6000806103de600284610646565b9050610404836103ca6103fd876b033b2e3c9fd0803ce80000006104c0565b8490610381565b949350505050565b60008061041e6002633b9aca00610646565b905061038d633b9aca006103ca8386610381565b600061043f60028361065a565b610455576b033b2e3c9fd0803ce8000000610457565b825b9050610464600283610646565b91505b8115610264576104778384610394565b925061048460028361065a565b15610496576104938184610394565b90505b6104a1600283610646565b9150610467565b600061038d82846105e8565b600061038d8284610646565b600061038d828461066e565b600080600080608085870312156104e257600080fd5b5050823594602084013594506040840135936060013592509050565b60008060006060848603121561051357600080fd5b505081359360208301359350604090920135919050565b6000806040838503121561053d57600080fd5b50508035926020909101359150565b8035801515811461055c57600080fd5b919050565b60008060008060008060c0878903121561057a57600080fd5b8635955060208701359450604087013593506105986060880161054c565b9250608087013591506105ad60a0880161054c565b90509295509295509295565b7f4e487b7100000000000000000000000000000000000000000000000000000000600052601160045260246000fd5b6000828210156105fa576105fa6105b9565b500390565b60008219821115610612576106126105b9565b500190565b7f4e487b7100000000000000000000000000000000000000000000000000000000600052601260045260246000fd5b60008261065557610655610617565b500490565b60008261066957610669610617565b500690565b6000817fffffffffffffffffffffffffffffffffffffffffffffffffffffffffffffffff04831182151516156106a6576106a66105b9565b50029056fea2646970667358221220095340c832b4a4b27bc8f0a645760a552dd403434b19e181f18bc0e622232d4a64736f6c63430008090033",
  "devdoc": {
    "kind": "dev",
    "methods": {
      "adjustedAPR(uint256,uint256)": {
        "details": "Function to compute the adjusted equivalent nominal borrow rate",
        "params": {
          "epoch": "Payment period*",
          "rate": "The interest rate"
        }
      },
      "fv(uint256,uint256,uint256,bool,uint256,bool)": {
        "details": "Function to compute the future value",
        "params": {
          "nper": "Number of compounding periods",
          "pmt": "Payment",
          "pv": "Present value",
          "rate": "The interest rate"
        },
        "returns": {
          "_0": "The future value, in wad*"
        }
      },
      "ipmt(uint256,uint256,uint256,uint256)": {
        "details": "Function to compute the interest portion of a payment",
        "params": {
          "nper": "Number of compounding periods",
          "per": "The payment period to calculate the interest amount",
          "pv": "Present value",
          "rate": "The interest rate"
        },
        "returns": {
          "_0": "The interest portion of payment, in wad*"
        }
      },
      "pmt(uint256,uint256,uint256)": {
        "details": "Function to compute the payment against loan principal plus interest The payment is computed by solving the equation:  fv + pv*(1 + rate)**nper + pmt*(1 + rate*when(0))/rate*((1 + rate)**nper - 1) == 0",
        "params": {
          "nper": "Number of compounding periods",
          "pv": "Present value (amount borrowed)",
          "rate": "The interest rate per period, in Ray"
        },
        "returns": {
          "_0": "The fixed periodic payment, in wad*"
        }
      },
      "ppmt(uint256,uint256,uint256,uint256)": {
        "details": "Function to compute the payment against load principal",
        "params": {
          "nper": "Number of compounding periods",
          "per": "The payment period to calculate the interest amount",
          "pv": "Present value",
          "rate": "The interest rate"
        },
        "returns": {
          "_0": "The payment, in wad*"
        }
      }
    },
    "version": 1
  },
  "userdoc": {
    "kind": "user",
    "methods": {},
    "version": 1
  },
  "storageLayout": {
    "storage": [],
    "types": null
  }
}