{
  "address": "0xF8A6628eD1aFBF71e07199D2F9801087c1eDCda2",
  "abi": [
    {
      "inputs": [
        {
          "internalType": "address",
          "name": "_liquidityManager",
          "type": "address"
        }
      ],
      "stateMutability": "nonpayable",
      "type": "constructor"
    },
    {
      "anonymous": false,
      "inputs": [
        {
          "indexed": false,
          "internalType": "address",
          "name": "associatedContract",
          "type": "address"
        }
      ],
      "name": "AssociatedContractUpdated",
      "type": "event"
    },
    {
      "anonymous": false,
      "inputs": [
        {
          "indexed": true,
          "internalType": "address",
          "name": "previousOwner",
          "type": "address"
        },
        {
          "indexed": true,
          "internalType": "address",
          "name": "newOwner",
          "type": "address"
        }
      ],
      "name": "OwnershipTransferred",
      "type": "event"
    },
    {
      "inputs": [
        {
          "internalType": "address",
          "name": "_asset",
          "type": "address"
        }
      ],
      "name": "activeReserve",
      "outputs": [],
      "stateMutability": "nonpayable",
      "type": "function"
    },
    {
      "inputs": [
        {
          "internalType": "address",
          "name": "",
          "type": "address"
        }
      ],
      "name": "associatedContracts",
      "outputs": [
        {
          "internalType": "bool",
          "name": "",
          "type": "bool"
        }
      ],
      "stateMutability": "view",
      "type": "function"
    },
    {
      "inputs": [],
      "name": "claimOwnership",
      "outputs": [],
      "stateMutability": "nonpayable",
      "type": "function"
    },
    {
      "inputs": [
        {
          "internalType": "address",
          "name": "_asset",
          "type": "address"
        }
      ],
      "name": "getConfiguration",
      "outputs": [
        {
          "components": [
            {
              "internalType": "uint256",
              "name": "data",
              "type": "uint256"
            }
          ],
          "internalType": "struct DataTypes.ReserveConfigurationMap",
          "name": "",
          "type": "tuple"
        }
      ],
      "stateMutability": "view",
      "type": "function"
    },
    {
      "inputs": [
        {
          "internalType": "address",
          "name": "_reserve",
          "type": "address"
        }
      ],
      "name": "getDepositAndDebt",
      "outputs": [
        {
          "components": [
            {
              "internalType": "uint256",
              "name": "juniorDepositAmount",
              "type": "uint256"
            },
            {
              "internalType": "uint256",
              "name": "seniorDepositAmount",
              "type": "uint256"
            },
            {
              "internalType": "uint256",
              "name": "totalDebt",
              "type": "uint256"
            }
          ],
          "internalType": "struct DataTypes.DepositAndDebt",
          "name": "",
          "type": "tuple"
        }
      ],
      "stateMutability": "view",
      "type": "function"
    },
    {
      "inputs": [
        {
          "internalType": "address",
          "name": "_asset",
          "type": "address"
        }
      ],
      "name": "getFlags",
      "outputs": [
        {
          "internalType": "bool",
          "name": "",
          "type": "bool"
        },
        {
          "internalType": "bool",
          "name": "",
          "type": "bool"
        },
        {
          "internalType": "bool",
          "name": "",
          "type": "bool"
        }
      ],
      "stateMutability": "view",
      "type": "function"
    },
    {
      "inputs": [
        {
          "internalType": "address",
          "name": "_asset",
          "type": "address"
        }
      ],
      "name": "getJuniorLiquidityIndex",
      "outputs": [
        {
          "internalType": "uint256",
          "name": "",
          "type": "uint256"
        }
      ],
      "stateMutability": "view",
      "type": "function"
    },
    {
      "inputs": [
        {
          "internalType": "address",
          "name": "_asset",
          "type": "address"
        },
        {
          "internalType": "enum ReserveLogic.Tranche",
          "name": "_tranche",
          "type": "uint8"
        }
      ],
      "name": "getLiquidityRate",
      "outputs": [
        {
          "internalType": "uint256",
          "name": "",
          "type": "uint256"
        }
      ],
      "stateMutability": "view",
      "type": "function"
    },
    {
      "inputs": [
        {
          "internalType": "address",
          "name": "_asset",
          "type": "address"
        }
      ],
      "name": "getReserveData",
      "outputs": [
        {
          "components": [
            {
              "components": [
                {
                  "internalType": "uint256",
                  "name": "data",
                  "type": "uint256"
                }
              ],
              "internalType": "struct DataTypes.ReserveConfigurationMap",
              "name": "configuration",
              "type": "tuple"
            },
            {
              "internalType": "uint256",
              "name": "currentOverallLiquidityRate",
              "type": "uint256"
            },
            {
              "internalType": "uint256",
              "name": "currentSeniorIncomeAllocation",
              "type": "uint256"
            },
            {
              "internalType": "uint256",
              "name": "currentJuniorIncomeAllocation",
              "type": "uint256"
            },
            {
              "internalType": "uint256",
              "name": "juniorLiquidityIndex",
              "type": "uint256"
            },
            {
              "internalType": "uint256",
              "name": "seniorLiquidityIndex",
              "type": "uint256"
            },
            {
              "internalType": "uint256",
              "name": "juniorDepositAmount",
              "type": "uint256"
            },
            {
              "internalType": "uint256",
              "name": "seniorDepositAmount",
              "type": "uint256"
            },
            {
              "internalType": "uint256",
              "name": "totalBorrows",
              "type": "uint256"
            },
            {
              "internalType": "uint256",
              "name": "currentBorrowRate",
              "type": "uint256"
            },
            {
              "internalType": "uint256",
              "name": "securityRequirement",
              "type": "uint256"
            },
            {
              "internalType": "uint256",
              "name": "decimals",
              "type": "uint256"
            },
            {
              "internalType": "address",
              "name": "interestRateStrategyAddress",
              "type": "address"
            },
            {
              "internalType": "address",
              "name": "healthStrategyAddress",
              "type": "address"
            },
            {
              "internalType": "address",
              "name": "juniorDepositTokenAddress",
              "type": "address"
            },
            {
              "internalType": "address",
              "name": "seniorDepositTokenAddress",
              "type": "address"
            },
            {
              "internalType": "address",
              "name": "stableDebtAddress",
              "type": "address"
            },
            {
              "internalType": "uint40",
              "name": "juniorLastUpdateTimestamp",
              "type": "uint40"
            },
            {
              "internalType": "uint40",
              "name": "seniorLastUpdateTimestamp",
              "type": "uint40"
            },
            {
              "internalType": "uint256",
              "name": "optimalTrancheRatio",
              "type": "uint256"
            },
            {
              "internalType": "uint256",
              "name": "optimalIncomeRatio",
              "type": "uint256"
            }
          ],
          "internalType": "struct DataTypes.ReserveData",
          "name": "",
          "type": "tuple"
        }
      ],
      "stateMutability": "view",
      "type": "function"
    },
    {
      "inputs": [],
      "name": "getReserveList",
      "outputs": [
        {
          "internalType": "address[]",
          "name": "",
          "type": "address[]"
        }
      ],
      "stateMutability": "view",
      "type": "function"
    },
    {
      "inputs": [
        {
          "internalType": "address",
          "name": "_asset",
          "type": "address"
        },
        {
          "internalType": "enum ReserveLogic.Tranche",
          "name": "_tranche",
          "type": "uint8"
        }
      ],
      "name": "getReserveNormalizedIncome",
      "outputs": [
        {
          "internalType": "uint256",
          "name": "",
          "type": "uint256"
        }
      ],
      "stateMutability": "view",
      "type": "function"
    },
    {
      "inputs": [
        {
          "internalType": "address",
          "name": "_asset",
          "type": "address"
        }
      ],
      "name": "getSeniorLiquidityIndex",
      "outputs": [
        {
          "internalType": "uint256",
          "name": "",
          "type": "uint256"
        }
      ],
      "stateMutability": "view",
      "type": "function"
    },
    {
      "inputs": [
        {
          "internalType": "address",
          "name": "_asset",
          "type": "address"
        },
        {
          "internalType": "address",
          "name": "_juniorDepositTokenAddress",
          "type": "address"
        },
        {
          "internalType": "address",
          "name": "_seniorDepositTokenAddress",
          "type": "address"
        },
        {
          "internalType": "uint256",
          "name": "_juniorIncomeAllocation",
          "type": "uint256"
        },
        {
          "internalType": "uint256",
          "name": "_seniorIncomeAllocation",
          "type": "uint256"
        },
        {
          "internalType": "address",
          "name": "_stableDebtAddress",
          "type": "address"
        },
        {
          "internalType": "address",
          "name": "_interestRateStrategyAddress",
          "type": "address"
        },
        {
          "internalType": "address",
          "name": "_healthStrategyAddress",
          "type": "address"
        }
      ],
      "name": "initReserve",
      "outputs": [],
      "stateMutability": "nonpayable",
      "type": "function"
    },
    {
      "inputs": [],
      "name": "isOwner",
      "outputs": [
        {
          "internalType": "bool",
          "name": "",
          "type": "bool"
        }
      ],
      "stateMutability": "view",
      "type": "function"
    },
    {
      "inputs": [],
      "name": "owner",
      "outputs": [
        {
          "internalType": "address",
          "name": "",
          "type": "address"
        }
      ],
      "stateMutability": "view",
      "type": "function"
    },
    {
      "inputs": [],
      "name": "pause",
      "outputs": [],
      "stateMutability": "nonpayable",
      "type": "function"
    },
    {
      "inputs": [],
      "name": "paused",
      "outputs": [
        {
          "internalType": "bool",
          "name": "",
          "type": "bool"
        }
      ],
      "stateMutability": "view",
      "type": "function"
    },
    {
      "inputs": [],
      "name": "pendingOwner",
      "outputs": [
        {
          "internalType": "address",
          "name": "",
          "type": "address"
        }
      ],
      "stateMutability": "view",
      "type": "function"
    },
    {
      "inputs": [
        {
          "internalType": "address",
          "name": "_associatedContract",
          "type": "address"
        }
      ],
      "name": "setAssociatedContract",
      "outputs": [],
      "stateMutability": "nonpayable",
      "type": "function"
    },
    {
      "inputs": [
        {
          "internalType": "address",
          "name": "newOwner",
          "type": "address"
        }
      ],
      "name": "transferOwnership",
      "outputs": [],
      "stateMutability": "nonpayable",
      "type": "function"
    },
    {
      "inputs": [],
      "name": "unPause",
      "outputs": [],
      "stateMutability": "nonpayable",
      "type": "function"
    },
    {
      "inputs": [
        {
          "internalType": "address",
          "name": "_asset",
          "type": "address"
        },
        {
          "internalType": "uint256",
          "name": "_amount",
          "type": "uint256"
        },
        {
          "internalType": "address",
          "name": "_escrow",
          "type": "address"
        }
      ],
      "name": "updateStateOnBorrow",
      "outputs": [],
      "stateMutability": "nonpayable",
      "type": "function"
    },
    {
      "inputs": [
        {
          "internalType": "address",
          "name": "_asset",
          "type": "address"
        },
        {
          "internalType": "enum ReserveLogic.Tranche",
          "name": "_tranche",
          "type": "uint8"
        },
        {
          "internalType": "uint256",
          "name": "_amount",
          "type": "uint256"
        },
        {
          "internalType": "address",
          "name": "_escrow",
          "type": "address"
        }
      ],
      "name": "updateStateOnDeposit",
      "outputs": [],
      "stateMutability": "nonpayable",
      "type": "function"
    }
  ],
  "transactionHash": "0xde30c249ac63906861dc9d3fc0a46d44b68bea7905b8e041fe6eccdc549cac0b",
  "args": [
    "0x904393eFe3D1Db020b80C0Ce3E6034134dA4dD2C"
  ],
  "numDeployments": 1,
  "solcInputHash": "d2a2165c33059d6b473aeb9d4558b15b",
  "bytecode": "0x608060405234801561001057600080fd5b50604051611bcb380380611bcb83398101604081905261002f9161011c565b600080546001600160a01b0319163390811782556040518392907f8be0079c531659141344cd1fd0a4f28419497f9722a3daafe3b4186f6b6457e0908290a36000546001600160a01b03166100be5760405162461bcd60e51b815260206004820152601160248201527013dddb995c881b5d5cdd081899481cd95d607a1b604482015260640160405180910390fd5b6001600160a01b038116600081815260026020908152604091829020805460ff1916600117905590519182527f73f20cff579e8a4086fa607db83867595f1b6a798e718c0bfa0b94a404128e03910160405180910390a1505061014c565b60006020828403121561012e57600080fd5b81516001600160a01b038116811461014557600080fd5b9392505050565b611a708061015b6000396000f3fe608060405234801561001057600080fd5b506004361061018d5760003560e01c8063817ad5d3116100e3578063c44b11f71161008c578063f2fde38b11610066578063f2fde38b14610403578063f7b188a514610416578063f82041491461041e57600080fd5b8063c44b11f71461038c578063e30c3978146103dd578063f2e9b412146103f057600080fd5b80638da5cb5b116100bd5780638da5cb5b146103225780638f32d59b1461034d5780639cc67a0f1461036057600080fd5b8063817ad5d3146102d557806381f78151146103075780638456cb591461031a57600080fd5b806352f445ca1161014557806366d4c4131161011f57806366d4c4131461029a578063744cfab0146102af578063776f6891146102c257600080fd5b806352f445ca146102435780635748ff18146102565780635c975abb1461028957600080fd5b806335ea6a751161017657806335ea6a75146101e45780634c445bfe146102045780634e71e0c81461023957600080fd5b806303d6fa9514610192578063284592b2146101d1575b600080fd5b6101be6101a036600461160e565b6001600160a01b031660009081526003602052604090206004015490565b6040519081526020015b60405180910390f35b6101be6101df366004611638565b610431565b6101f76101f236600461160e565b6104f3565b6040516101c8919061166b565b61021761021236600461160e565b61072a565b60408051825181526020808401519082015291810151908201526060016101c8565b610241610793565b005b61024161025136600461160e565b61081b565b61027961026436600461160e565b60026020526000908152604090205460ff1681565b60405190151581526020016101c8565b60055462010000900460ff16610279565b6102a26108f2565b6040516101c8919061178b565b6102416102bd3660046117d8565b6109b3565b6101be6102d0366004611638565b610cd8565b6102e86102e336600461160e565b610cfa565b60408051931515845291151560208401521515908201526060016101c8565b61024161031536600461160e565b610d6c565b610241610e4b565b600054610335906001600160a01b031681565b6040516001600160a01b0390911681526020016101c8565b6000546001600160a01b03163314610279565b6101be61036e36600461160e565b6001600160a01b031660009081526003602052604090206005015490565b6103ce61039a36600461160e565b60408051602080820183526000918290526001600160a01b0393909316815260038352819020815192830190915254815290565b604051905181526020016101c8565b600154610335906001600160a01b031681565b6102416103fe366004611825565b610ee3565b61024161041136600461160e565b6110a0565b610241611129565b61024161042c366004611861565b6111bc565b6001600160a01b03821660009081526003602052604080822090517fbb43fb8000000000000000000000000000000000000000000000000000000000815273FDDE783dDF6780d4559415C1dE28Be00C9E318599163bb43fb809161049a91908690600401611900565b60206040518083038186803b1580156104b257600080fd5b505af41580156104c6573d6000803e3d6000fd5b505050506040513d601f19601f820116820180604052508101906104ea9190611932565b90505b92915050565b6105db604080516102c0810190915260006102a0820190815281908152602001600081526020016000815260200160008152602001600081526020016000815260200160008152602001600081526020016000815260200160008152602001600081526020016000815260200160006001600160a01b0316815260200160006001600160a01b0316815260200160006001600160a01b0316815260200160006001600160a01b0316815260200160006001600160a01b03168152602001600064ffffffffff168152602001600064ffffffffff16815260200160008152602001600081525090565b506001600160a01b0390811660009081526003602081815260409283902083516102c08101855281546102a08201908152815260018201549281019290925260028101549382019390935290820154606082015260048201546080820152600582015460a0820152600682015460c0820152600782015460e082015260088201546101008201526009820154610120820152600a820154610140820152600b820154610160820152600c8201548316610180820152600d82015483166101a0820152600e82015483166101c0820152600f82015483166101e0820152601082015492831661020082015264ffffffffff740100000000000000000000000000000000000000008404811661022083015279010000000000000000000000000000000000000000000000000090930490921661024083015260118101546102608301526012015461028082015290565b61074e60405180606001604052806000815260200160008152602001600081525090565b506001600160a01b0316600090815260036020908152604091829020825160608101845260068201548152600782015492810192909252600801549181019190915290565b6001546001600160a01b031633146107aa57600080fd5b600154600080546040516001600160a01b0393841693909116917f8be0079c531659141344cd1fd0a4f28419497f9722a3daafe3b4186f6b6457e091a3600180546000805473ffffffffffffffffffffffffffffffffffffffff199081166001600160a01b03841617909155169055565b6000546001600160a01b0316331461087a5760405162461bcd60e51b815260206004820181905260248201527f4f776e61626c653a2063616c6c6572206973206e6f7420746865206f776e657260448201526064015b60405180910390fd5b6001600160a01b03811660008181526002602090815260409182902080547fffffffffffffffffffffffffffffffffffffffffffffffffffffffffffffff0016600117905590519182527f73f20cff579e8a4086fa607db83867595f1b6a798e718c0bfa0b94a404128e03910160405180910390a150565b60055460609060009061ffff1667ffffffffffffffff8111156109175761091761194b565b604051908082528060200260200182016040528015610940578160200160208202803683370190505b50905060005b60055461ffff168110156109ad5760008181526004602052604090205482516001600160a01b039091169083908390811061098357610983611961565b6001600160a01b0390921660209283029190910190910152806109a58161198d565b915050610946565b50919050565b3360009081526002602052604090205460ff16610a385760405162461bcd60e51b815260206004820152603460248201527f4f6e6c7920746865206173736f63696174656420636f6e74726163742063616e60448201527f20706572666f726d207468697320616374696f6e0000000000000000000000006064820152608401610871565b6001600160a01b0384166000908152600360205260409081902090517f0eca322b00000000000000000000000000000000000000000000000000000000815260048101829052602481018490527339901b9469255018f8d2Ca21E835d5d06F44991D90630eca322b9060440160006040518083038186803b158015610abc57600080fd5b505af4158015610ad0573d6000803e3d6000fd5b50506040517fa4c88c0700000000000000000000000000000000000000000000000000000000815273FDDE783dDF6780d4559415C1dE28Be00C9E31859925063a4c88c079150610b269084908890600401611900565b60006040518083038186803b158015610b3e57600080fd5b505af4158015610b52573d6000803e3d6000fd5b50505050836001811115610b6857610b686118ea565b610c2157604051631909f27360e11b8152600481018290526001600160a01b038087166024830152831660448201526064810184905260006084820181905260a4820181905260c482015273FDDE783dDF6780d4559415C1dE28Be00C9E3185990633213e4e69060e40160006040518083038186803b158015610bea57600080fd5b505af4158015610bfe573d6000803e3d6000fd5b5050505082816006016000828254610c1691906119a8565b90915550610cd19050565b604051631909f27360e11b8152600481018290526001600160a01b038087166024830152831660448201526000606482018190526084820181905260a4820185905260c482015273FDDE783dDF6780d4559415C1dE28Be00C9E3185990633213e4e69060e40160006040518083038186803b158015610c9f57600080fd5b505af4158015610cb3573d6000803e3d6000fd5b5050505082816007016000828254610ccb91906119a8565b90915550505b5050505050565b6001600160a01b03821660009081526003602052604081206104ea9083611383565b600080600080610d388560408051602080820183526000918290526001600160a01b0393909316815260038352819020815192830190915254815290565b9050610d5e81516301000000811615159163020000008216151591630400000016151590565b935093509350509193909250565b3360009081526002602052604090205460ff16610df15760405162461bcd60e51b815260206004820152603460248201527f4f6e6c7920746865206173736f63696174656420636f6e74726163742063616e60448201527f20706572666f726d207468697320616374696f6e0000000000000000000000006064820152608401610871565b60408051602080820183526000918290526001600160a01b03841682526003815282822083519182019093529154825250610e2d81600161144d565b516001600160a01b0391909116600090815260036020526040902055565b3360009081526002602052604090205460ff16610ed05760405162461bcd60e51b815260206004820152603460248201527f4f6e6c7920746865206173736f63696174656420636f6e74726163742063616e60448201527f20706572666f726d207468697320616374696f6e0000000000000000000000006064820152608401610871565b6005805462ff0000191662010000179055565b3360009081526002602052604090205460ff16610f685760405162461bcd60e51b815260206004820152603460248201527f4f6e6c7920746865206173736f63696174656420636f6e74726163742063616e60448201527f20706572666f726d207468697320616374696f6e0000000000000000000000006064820152608401610871565b6001600160a01b0383166000908152600360205260409081902090517fa4c88c0700000000000000000000000000000000000000000000000000000000815273FDDE783dDF6780d4559415C1dE28Be00C9E318599063a4c88c0790610fd4908490600190600401611900565b60006040518083038186803b158015610fec57600080fd5b505af4158015611000573d6000803e3d6000fd5b5050604051631909f27360e11b8152600481018490526001600160a01b038088166024830152851660448201526000606482018190526084820181905260a482015260c4810186905273FDDE783dDF6780d4559415C1dE28Be00C9E318599250633213e4e6915060e40160006040518083038186803b15801561108257600080fd5b505af4158015611096573d6000803e3d6000fd5b5050505050505050565b6000546001600160a01b031633146110fa5760405162461bcd60e51b815260206004820181905260248201527f4f776e61626c653a2063616c6c6572206973206e6f7420746865206f776e65726044820152606401610871565b6001805473ffffffffffffffffffffffffffffffffffffffff19166001600160a01b0392909216919091179055565b3360009081526002602052604090205460ff166111ae5760405162461bcd60e51b815260206004820152603460248201527f4f6e6c7920746865206173736f63696174656420636f6e74726163742063616e60448201527f20706572666f726d207468697320616374696f6e0000000000000000000000006064820152608401610871565b6005805462ff000019169055565b3360009081526002602052604090205460ff166112415760405162461bcd60e51b815260206004820152603460248201527f4f6e6c7920746865206173736f63696174656420636f6e74726163742063616e60448201527f20706572666f726d207468697320616374696f6e0000000000000000000000006064820152608401610871565b6001600160a01b038881166000908152600360205260409081902090517f0c6e3741000000000000000000000000000000000000000000000000000000008152600481019190915288821660248201528782166044820152606481018790526084810186905284821660a482015283821660c482015290821660e482015273FDDE783dDF6780d4559415C1dE28Be00C9E3185990630c6e3741906101040160006040518083038186803b1580156112f757600080fd5b505af415801561130b573d6000803e3d6000fd5b50506005805461ffff9081166000908152600460205260408120805473ffffffffffffffffffffffffffffffffffffffff19166001600160a01b038f161790558254909116935090915061135e836119c0565b91906101000a81548161ffff021916908361ffff160217905550505050505050505050565b600080808084600181111561139a5761139a6118ea565b14156113d2575050601083015460048401547401000000000000000000000000000000000000000090910464ffffffffff1690611405565b50506010830154600584015479010000000000000000000000000000000000000000000000000090910464ffffffffff16905b4264ffffffffff168264ffffffffff1614156114245791506104ed9050565b60006114438261143d6114378989611492565b86611505565b90611552565b9695505050505050565b60188161145b57600061145e565b60015b83517ffffffffffffffffffffffffffffffffffffffffffffffffffffffffffeffffff1660ff9190911690911b1790915250565b6000806114b08460020154856003015461158e90919063ffffffff16565b905060008360018111156114c6576114c66118ea565b14156114f25760038401546114ea906114df908361159a565b600186015490611552565b9150506104ed565b60028401546114ea906114df908361159a565b6000806115194264ffffffffff85166115ce565b905061154a6b033b2e3c9fd0803ce80000006301e1338061153a87856115da565b61154491906119e2565b9061158e565b949350505050565b60006104ea6b033b2e3c9fd0803ce800000061158861157186866115da565b61154460026b033b2e3c9fd0803ce80000006119e2565b906115e6565b60006104ea82846119a8565b6000806115a86002846119e2565b905061154a836115886115c7876b033b2e3c9fd0803ce80000006115da565b849061158e565b60006104ea8284611a04565b60006104ea8284611a1b565b60006104ea82846119e2565b80356001600160a01b038116811461160957600080fd5b919050565b60006020828403121561162057600080fd5b6104ea826115f2565b80356002811061160957600080fd5b6000806040838503121561164b57600080fd5b611654836115f2565b915061166260208401611629565b90509250929050565b81515181526102a081016020830151602083015260408301516040830152606083015160608301526080830151608083015260a083015160a083015260c083015160c083015260e083015160e083015261010080840151818401525061012080840151818401525061014080840151818401525061016080840151818401525061018080840151611706828501826001600160a01b03169052565b50506101a0838101516001600160a01b03908116918401919091526101c0808501518216908401526101e08085015182169084015261020080850151909116908301526102208084015164ffffffffff908116918401919091526102408085015190911690830152610260808401519083015261028092830151929091019190915290565b6020808252825182820181905260009190848201906040850190845b818110156117cc5783516001600160a01b0316835292840192918401916001016117a7565b50909695505050505050565b600080600080608085870312156117ee57600080fd5b6117f7856115f2565b935061180560208601611629565b92506040850135915061181a606086016115f2565b905092959194509250565b60008060006060848603121561183a57600080fd5b611843846115f2565b925060208401359150611858604085016115f2565b90509250925092565b600080600080600080600080610100898b03121561187e57600080fd5b611887896115f2565b975061189560208a016115f2565b96506118a360408a016115f2565b955060608901359450608089013593506118bf60a08a016115f2565b92506118cd60c08a016115f2565b91506118db60e08a016115f2565b90509295985092959890939650565b634e487b7160e01b600052602160045260246000fd5b828152604081016002831061192557634e487b7160e01b600052602160045260246000fd5b8260208301529392505050565b60006020828403121561194457600080fd5b5051919050565b634e487b7160e01b600052604160045260246000fd5b634e487b7160e01b600052603260045260246000fd5b634e487b7160e01b600052601160045260246000fd5b60006000198214156119a1576119a1611977565b5060010190565b600082198211156119bb576119bb611977565b500190565b600061ffff808316818114156119d8576119d8611977565b6001019392505050565b6000826119ff57634e487b7160e01b600052601260045260246000fd5b500490565b600082821015611a1657611a16611977565b500390565b6000816000190483118215151615611a3557611a35611977565b50029056fea2646970667358221220fec01a590ca7d6ce53fa2c99c99d7011bfad5cffcc11601d3f9b1dae1491dc0664736f6c63430008090033",
  "deployedBytecode": "0x608060405234801561001057600080fd5b506004361061018d5760003560e01c8063817ad5d3116100e3578063c44b11f71161008c578063f2fde38b11610066578063f2fde38b14610403578063f7b188a514610416578063f82041491461041e57600080fd5b8063c44b11f71461038c578063e30c3978146103dd578063f2e9b412146103f057600080fd5b80638da5cb5b116100bd5780638da5cb5b146103225780638f32d59b1461034d5780639cc67a0f1461036057600080fd5b8063817ad5d3146102d557806381f78151146103075780638456cb591461031a57600080fd5b806352f445ca1161014557806366d4c4131161011f57806366d4c4131461029a578063744cfab0146102af578063776f6891146102c257600080fd5b806352f445ca146102435780635748ff18146102565780635c975abb1461028957600080fd5b806335ea6a751161017657806335ea6a75146101e45780634c445bfe146102045780634e71e0c81461023957600080fd5b806303d6fa9514610192578063284592b2146101d1575b600080fd5b6101be6101a036600461160e565b6001600160a01b031660009081526003602052604090206004015490565b6040519081526020015b60405180910390f35b6101be6101df366004611638565b610431565b6101f76101f236600461160e565b6104f3565b6040516101c8919061166b565b61021761021236600461160e565b61072a565b60408051825181526020808401519082015291810151908201526060016101c8565b610241610793565b005b61024161025136600461160e565b61081b565b61027961026436600461160e565b60026020526000908152604090205460ff1681565b60405190151581526020016101c8565b60055462010000900460ff16610279565b6102a26108f2565b6040516101c8919061178b565b6102416102bd3660046117d8565b6109b3565b6101be6102d0366004611638565b610cd8565b6102e86102e336600461160e565b610cfa565b60408051931515845291151560208401521515908201526060016101c8565b61024161031536600461160e565b610d6c565b610241610e4b565b600054610335906001600160a01b031681565b6040516001600160a01b0390911681526020016101c8565b6000546001600160a01b03163314610279565b6101be61036e36600461160e565b6001600160a01b031660009081526003602052604090206005015490565b6103ce61039a36600461160e565b60408051602080820183526000918290526001600160a01b0393909316815260038352819020815192830190915254815290565b604051905181526020016101c8565b600154610335906001600160a01b031681565b6102416103fe366004611825565b610ee3565b61024161041136600461160e565b6110a0565b610241611129565b61024161042c366004611861565b6111bc565b6001600160a01b03821660009081526003602052604080822090517fbb43fb8000000000000000000000000000000000000000000000000000000000815273__$d3b4366daeb9cadc7528af6145b50b2183$__9163bb43fb809161049a91908690600401611900565b60206040518083038186803b1580156104b257600080fd5b505af41580156104c6573d6000803e3d6000fd5b505050506040513d601f19601f820116820180604052508101906104ea9190611932565b90505b92915050565b6105db604080516102c0810190915260006102a0820190815281908152602001600081526020016000815260200160008152602001600081526020016000815260200160008152602001600081526020016000815260200160008152602001600081526020016000815260200160006001600160a01b0316815260200160006001600160a01b0316815260200160006001600160a01b0316815260200160006001600160a01b0316815260200160006001600160a01b03168152602001600064ffffffffff168152602001600064ffffffffff16815260200160008152602001600081525090565b506001600160a01b0390811660009081526003602081815260409283902083516102c08101855281546102a08201908152815260018201549281019290925260028101549382019390935290820154606082015260048201546080820152600582015460a0820152600682015460c0820152600782015460e082015260088201546101008201526009820154610120820152600a820154610140820152600b820154610160820152600c8201548316610180820152600d82015483166101a0820152600e82015483166101c0820152600f82015483166101e0820152601082015492831661020082015264ffffffffff740100000000000000000000000000000000000000008404811661022083015279010000000000000000000000000000000000000000000000000090930490921661024083015260118101546102608301526012015461028082015290565b61074e60405180606001604052806000815260200160008152602001600081525090565b506001600160a01b0316600090815260036020908152604091829020825160608101845260068201548152600782015492810192909252600801549181019190915290565b6001546001600160a01b031633146107aa57600080fd5b600154600080546040516001600160a01b0393841693909116917f8be0079c531659141344cd1fd0a4f28419497f9722a3daafe3b4186f6b6457e091a3600180546000805473ffffffffffffffffffffffffffffffffffffffff199081166001600160a01b03841617909155169055565b6000546001600160a01b0316331461087a5760405162461bcd60e51b815260206004820181905260248201527f4f776e61626c653a2063616c6c6572206973206e6f7420746865206f776e657260448201526064015b60405180910390fd5b6001600160a01b03811660008181526002602090815260409182902080547fffffffffffffffffffffffffffffffffffffffffffffffffffffffffffffff0016600117905590519182527f73f20cff579e8a4086fa607db83867595f1b6a798e718c0bfa0b94a404128e03910160405180910390a150565b60055460609060009061ffff1667ffffffffffffffff8111156109175761091761194b565b604051908082528060200260200182016040528015610940578160200160208202803683370190505b50905060005b60055461ffff168110156109ad5760008181526004602052604090205482516001600160a01b039091169083908390811061098357610983611961565b6001600160a01b0390921660209283029190910190910152806109a58161198d565b915050610946565b50919050565b3360009081526002602052604090205460ff16610a385760405162461bcd60e51b815260206004820152603460248201527f4f6e6c7920746865206173736f63696174656420636f6e74726163742063616e60448201527f20706572666f726d207468697320616374696f6e0000000000000000000000006064820152608401610871565b6001600160a01b0384166000908152600360205260409081902090517f0eca322b000000000000000000000000000000000000000000000000000000008152600481018290526024810184905273__$5201a97c05ba6aa659e2f36a933dd51801$__90630eca322b9060440160006040518083038186803b158015610abc57600080fd5b505af4158015610ad0573d6000803e3d6000fd5b50506040517fa4c88c0700000000000000000000000000000000000000000000000000000000815273__$d3b4366daeb9cadc7528af6145b50b2183$__925063a4c88c079150610b269084908890600401611900565b60006040518083038186803b158015610b3e57600080fd5b505af4158015610b52573d6000803e3d6000fd5b50505050836001811115610b6857610b686118ea565b610c2157604051631909f27360e11b8152600481018290526001600160a01b038087166024830152831660448201526064810184905260006084820181905260a4820181905260c482015273__$d3b4366daeb9cadc7528af6145b50b2183$__90633213e4e69060e40160006040518083038186803b158015610bea57600080fd5b505af4158015610bfe573d6000803e3d6000fd5b5050505082816006016000828254610c1691906119a8565b90915550610cd19050565b604051631909f27360e11b8152600481018290526001600160a01b038087166024830152831660448201526000606482018190526084820181905260a4820185905260c482015273__$d3b4366daeb9cadc7528af6145b50b2183$__90633213e4e69060e40160006040518083038186803b158015610c9f57600080fd5b505af4158015610cb3573d6000803e3d6000fd5b5050505082816007016000828254610ccb91906119a8565b90915550505b5050505050565b6001600160a01b03821660009081526003602052604081206104ea9083611383565b600080600080610d388560408051602080820183526000918290526001600160a01b0393909316815260038352819020815192830190915254815290565b9050610d5e81516301000000811615159163020000008216151591630400000016151590565b935093509350509193909250565b3360009081526002602052604090205460ff16610df15760405162461bcd60e51b815260206004820152603460248201527f4f6e6c7920746865206173736f63696174656420636f6e74726163742063616e60448201527f20706572666f726d207468697320616374696f6e0000000000000000000000006064820152608401610871565b60408051602080820183526000918290526001600160a01b03841682526003815282822083519182019093529154825250610e2d81600161144d565b516001600160a01b0391909116600090815260036020526040902055565b3360009081526002602052604090205460ff16610ed05760405162461bcd60e51b815260206004820152603460248201527f4f6e6c7920746865206173736f63696174656420636f6e74726163742063616e60448201527f20706572666f726d207468697320616374696f6e0000000000000000000000006064820152608401610871565b6005805462ff0000191662010000179055565b3360009081526002602052604090205460ff16610f685760405162461bcd60e51b815260206004820152603460248201527f4f6e6c7920746865206173736f63696174656420636f6e74726163742063616e60448201527f20706572666f726d207468697320616374696f6e0000000000000000000000006064820152608401610871565b6001600160a01b0383166000908152600360205260409081902090517fa4c88c0700000000000000000000000000000000000000000000000000000000815273__$d3b4366daeb9cadc7528af6145b50b2183$__9063a4c88c0790610fd4908490600190600401611900565b60006040518083038186803b158015610fec57600080fd5b505af4158015611000573d6000803e3d6000fd5b5050604051631909f27360e11b8152600481018490526001600160a01b038088166024830152851660448201526000606482018190526084820181905260a482015260c4810186905273__$d3b4366daeb9cadc7528af6145b50b2183$__9250633213e4e6915060e40160006040518083038186803b15801561108257600080fd5b505af4158015611096573d6000803e3d6000fd5b5050505050505050565b6000546001600160a01b031633146110fa5760405162461bcd60e51b815260206004820181905260248201527f4f776e61626c653a2063616c6c6572206973206e6f7420746865206f776e65726044820152606401610871565b6001805473ffffffffffffffffffffffffffffffffffffffff19166001600160a01b0392909216919091179055565b3360009081526002602052604090205460ff166111ae5760405162461bcd60e51b815260206004820152603460248201527f4f6e6c7920746865206173736f63696174656420636f6e74726163742063616e60448201527f20706572666f726d207468697320616374696f6e0000000000000000000000006064820152608401610871565b6005805462ff000019169055565b3360009081526002602052604090205460ff166112415760405162461bcd60e51b815260206004820152603460248201527f4f6e6c7920746865206173736f63696174656420636f6e74726163742063616e60448201527f20706572666f726d207468697320616374696f6e0000000000000000000000006064820152608401610871565b6001600160a01b038881166000908152600360205260409081902090517f0c6e3741000000000000000000000000000000000000000000000000000000008152600481019190915288821660248201528782166044820152606481018790526084810186905284821660a482015283821660c482015290821660e482015273__$d3b4366daeb9cadc7528af6145b50b2183$__90630c6e3741906101040160006040518083038186803b1580156112f757600080fd5b505af415801561130b573d6000803e3d6000fd5b50506005805461ffff9081166000908152600460205260408120805473ffffffffffffffffffffffffffffffffffffffff19166001600160a01b038f161790558254909116935090915061135e836119c0565b91906101000a81548161ffff021916908361ffff160217905550505050505050505050565b600080808084600181111561139a5761139a6118ea565b14156113d2575050601083015460048401547401000000000000000000000000000000000000000090910464ffffffffff1690611405565b50506010830154600584015479010000000000000000000000000000000000000000000000000090910464ffffffffff16905b4264ffffffffff168264ffffffffff1614156114245791506104ed9050565b60006114438261143d6114378989611492565b86611505565b90611552565b9695505050505050565b60188161145b57600061145e565b60015b83517ffffffffffffffffffffffffffffffffffffffffffffffffffffffffffeffffff1660ff9190911690911b1790915250565b6000806114b08460020154856003015461158e90919063ffffffff16565b905060008360018111156114c6576114c66118ea565b14156114f25760038401546114ea906114df908361159a565b600186015490611552565b9150506104ed565b60028401546114ea906114df908361159a565b6000806115194264ffffffffff85166115ce565b905061154a6b033b2e3c9fd0803ce80000006301e1338061153a87856115da565b61154491906119e2565b9061158e565b949350505050565b60006104ea6b033b2e3c9fd0803ce800000061158861157186866115da565b61154460026b033b2e3c9fd0803ce80000006119e2565b906115e6565b60006104ea82846119a8565b6000806115a86002846119e2565b905061154a836115886115c7876b033b2e3c9fd0803ce80000006115da565b849061158e565b60006104ea8284611a04565b60006104ea8284611a1b565b60006104ea82846119e2565b80356001600160a01b038116811461160957600080fd5b919050565b60006020828403121561162057600080fd5b6104ea826115f2565b80356002811061160957600080fd5b6000806040838503121561164b57600080fd5b611654836115f2565b915061166260208401611629565b90509250929050565b81515181526102a081016020830151602083015260408301516040830152606083015160608301526080830151608083015260a083015160a083015260c083015160c083015260e083015160e083015261010080840151818401525061012080840151818401525061014080840151818401525061016080840151818401525061018080840151611706828501826001600160a01b03169052565b50506101a0838101516001600160a01b03908116918401919091526101c0808501518216908401526101e08085015182169084015261020080850151909116908301526102208084015164ffffffffff908116918401919091526102408085015190911690830152610260808401519083015261028092830151929091019190915290565b6020808252825182820181905260009190848201906040850190845b818110156117cc5783516001600160a01b0316835292840192918401916001016117a7565b50909695505050505050565b600080600080608085870312156117ee57600080fd5b6117f7856115f2565b935061180560208601611629565b92506040850135915061181a606086016115f2565b905092959194509250565b60008060006060848603121561183a57600080fd5b611843846115f2565b925060208401359150611858604085016115f2565b90509250925092565b600080600080600080600080610100898b03121561187e57600080fd5b611887896115f2565b975061189560208a016115f2565b96506118a360408a016115f2565b955060608901359450608089013593506118bf60a08a016115f2565b92506118cd60c08a016115f2565b91506118db60e08a016115f2565b90509295985092959890939650565b634e487b7160e01b600052602160045260246000fd5b828152604081016002831061192557634e487b7160e01b600052602160045260246000fd5b8260208301529392505050565b60006020828403121561194457600080fd5b5051919050565b634e487b7160e01b600052604160045260246000fd5b634e487b7160e01b600052603260045260246000fd5b634e487b7160e01b600052601160045260246000fd5b60006000198214156119a1576119a1611977565b5060010190565b600082198211156119bb576119bb611977565b500190565b600061ffff808316818114156119d8576119d8611977565b6001019392505050565b6000826119ff57634e487b7160e01b600052601260045260246000fd5b500490565b600082821015611a1657611a16611977565b500390565b6000816000190483118215151615611a3557611a35611977565b50029056fea2646970667358221220fec01a590ca7d6ce53fa2c99c99d7011bfad5cffcc11601d3f9b1dae1491dc0664736f6c63430008090033",
  "libraries": {
    "ReserveLogic": "0xFDDE783dDF6780d4559415C1dE28Be00C9E31859",
    "ValidationLogic": "0x39901b9469255018f8d2Ca21E835d5d06F44991D"
  },
  "devdoc": {
    "kind": "dev",
    "methods": {
      "claimOwnership()": {
        "details": "Allows the pendingOwner address to finalize the transfer."
      },
      "isOwner()": {
        "details": "Returns true if the caller is the current owner."
      },
      "transferOwnership(address)": {
        "details": "Allows the current owner to set the pendingOwner address.",
        "params": {
          "newOwner": "The address to transfer ownership to."
        }
      }
    },
    "version": 1
  },
  "userdoc": {
    "kind": "user",
    "methods": {},
    "version": 1
  },
  "storageLayout": {
    "storage": [
      {
        "astId": 10302,
        "contract": "contracts/component/shared/storage/LiquidityManagerStorage.sol:LiquidityManagerStorage",
        "label": "owner",
        "offset": 0,
        "slot": "0",
        "type": "t_address"
      },
      {
        "astId": 10304,
        "contract": "contracts/component/shared/storage/LiquidityManagerStorage.sol:LiquidityManagerStorage",
        "label": "pendingOwner",
        "offset": 0,
        "slot": "1",
        "type": "t_address"
      },
      {
        "astId": 10627,
        "contract": "contracts/component/shared/storage/LiquidityManagerStorage.sol:LiquidityManagerStorage",
        "label": "associatedContracts",
        "offset": 0,
        "slot": "2",
        "type": "t_mapping(t_address,t_bool)"
      },
      {
        "astId": 3695,
        "contract": "contracts/component/shared/storage/LiquidityManagerStorage.sol:LiquidityManagerStorage",
        "label": "_reserves",
        "offset": 0,
        "slot": "3",
        "type": "t_mapping(t_address,t_struct(ReserveData)10737_storage)"
      },
      {
        "astId": 3699,
        "contract": "contracts/component/shared/storage/LiquidityManagerStorage.sol:LiquidityManagerStorage",
        "label": "_reserveList",
        "offset": 0,
        "slot": "4",
        "type": "t_mapping(t_uint256,t_address)"
      },
      {
        "astId": 3701,
        "contract": "contracts/component/shared/storage/LiquidityManagerStorage.sol:LiquidityManagerStorage",
        "label": "_reservesCount",
        "offset": 0,
        "slot": "5",
        "type": "t_uint16"
      },
      {
        "astId": 3703,
        "contract": "contracts/component/shared/storage/LiquidityManagerStorage.sol:LiquidityManagerStorage",
        "label": "_paused",
        "offset": 2,
        "slot": "5",
        "type": "t_bool"
      }
    ],
    "types": {
      "t_address": {
        "encoding": "inplace",
        "label": "address",
        "numberOfBytes": "20"
      },
      "t_bool": {
        "encoding": "inplace",
        "label": "bool",
        "numberOfBytes": "1"
      },
      "t_mapping(t_address,t_bool)": {
        "encoding": "mapping",
        "key": "t_address",
        "label": "mapping(address => bool)",
        "numberOfBytes": "32",
        "value": "t_bool"
      },
      "t_mapping(t_address,t_struct(ReserveData)10737_storage)": {
        "encoding": "mapping",
        "key": "t_address",
        "label": "mapping(address => struct DataTypes.ReserveData)",
        "numberOfBytes": "32",
        "value": "t_struct(ReserveData)10737_storage"
      },
      "t_mapping(t_uint256,t_address)": {
        "encoding": "mapping",
        "key": "t_uint256",
        "label": "mapping(uint256 => address)",
        "numberOfBytes": "32",
        "value": "t_address"
      },
      "t_struct(ReserveConfigurationMap)10740_storage": {
        "encoding": "inplace",
        "label": "struct DataTypes.ReserveConfigurationMap",
        "members": [
          {
            "astId": 10739,
            "contract": "contracts/component/shared/storage/LiquidityManagerStorage.sol:LiquidityManagerStorage",
            "label": "data",
            "offset": 0,
            "slot": "0",
            "type": "t_uint256"
          }
        ],
        "numberOfBytes": "32"
      },
      "t_struct(ReserveData)10737_storage": {
        "encoding": "inplace",
        "label": "struct DataTypes.ReserveData",
        "members": [
          {
            "astId": 10696,
            "contract": "contracts/component/shared/storage/LiquidityManagerStorage.sol:LiquidityManagerStorage",
            "label": "configuration",
            "offset": 0,
            "slot": "0",
            "type": "t_struct(ReserveConfigurationMap)10740_storage"
          },
          {
            "astId": 10698,
            "contract": "contracts/component/shared/storage/LiquidityManagerStorage.sol:LiquidityManagerStorage",
            "label": "currentOverallLiquidityRate",
            "offset": 0,
            "slot": "1",
            "type": "t_uint256"
          },
          {
            "astId": 10700,
            "contract": "contracts/component/shared/storage/LiquidityManagerStorage.sol:LiquidityManagerStorage",
            "label": "currentSeniorIncomeAllocation",
            "offset": 0,
            "slot": "2",
            "type": "t_uint256"
          },
          {
            "astId": 10702,
            "contract": "contracts/component/shared/storage/LiquidityManagerStorage.sol:LiquidityManagerStorage",
            "label": "currentJuniorIncomeAllocation",
            "offset": 0,
            "slot": "3",
            "type": "t_uint256"
          },
          {
            "astId": 10704,
            "contract": "contracts/component/shared/storage/LiquidityManagerStorage.sol:LiquidityManagerStorage",
            "label": "juniorLiquidityIndex",
            "offset": 0,
            "slot": "4",
            "type": "t_uint256"
          },
          {
            "astId": 10706,
            "contract": "contracts/component/shared/storage/LiquidityManagerStorage.sol:LiquidityManagerStorage",
            "label": "seniorLiquidityIndex",
            "offset": 0,
            "slot": "5",
            "type": "t_uint256"
          },
          {
            "astId": 10708,
            "contract": "contracts/component/shared/storage/LiquidityManagerStorage.sol:LiquidityManagerStorage",
            "label": "juniorDepositAmount",
            "offset": 0,
            "slot": "6",
            "type": "t_uint256"
          },
          {
            "astId": 10710,
            "contract": "contracts/component/shared/storage/LiquidityManagerStorage.sol:LiquidityManagerStorage",
            "label": "seniorDepositAmount",
            "offset": 0,
            "slot": "7",
            "type": "t_uint256"
          },
          {
            "astId": 10712,
            "contract": "contracts/component/shared/storage/LiquidityManagerStorage.sol:LiquidityManagerStorage",
            "label": "totalBorrows",
            "offset": 0,
            "slot": "8",
            "type": "t_uint256"
          },
          {
            "astId": 10714,
            "contract": "contracts/component/shared/storage/LiquidityManagerStorage.sol:LiquidityManagerStorage",
            "label": "currentBorrowRate",
            "offset": 0,
            "slot": "9",
            "type": "t_uint256"
          },
          {
            "astId": 10716,
            "contract": "contracts/component/shared/storage/LiquidityManagerStorage.sol:LiquidityManagerStorage",
            "label": "securityRequirement",
            "offset": 0,
            "slot": "10",
            "type": "t_uint256"
          },
          {
            "astId": 10718,
            "contract": "contracts/component/shared/storage/LiquidityManagerStorage.sol:LiquidityManagerStorage",
            "label": "decimals",
            "offset": 0,
            "slot": "11",
            "type": "t_uint256"
          },
          {
            "astId": 10720,
            "contract": "contracts/component/shared/storage/LiquidityManagerStorage.sol:LiquidityManagerStorage",
            "label": "interestRateStrategyAddress",
            "offset": 0,
            "slot": "12",
            "type": "t_address"
          },
          {
            "astId": 10722,
            "contract": "contracts/component/shared/storage/LiquidityManagerStorage.sol:LiquidityManagerStorage",
            "label": "healthStrategyAddress",
            "offset": 0,
            "slot": "13",
            "type": "t_address"
          },
          {
            "astId": 10724,
            "contract": "contracts/component/shared/storage/LiquidityManagerStorage.sol:LiquidityManagerStorage",
            "label": "juniorDepositTokenAddress",
            "offset": 0,
            "slot": "14",
            "type": "t_address"
          },
          {
            "astId": 10726,
            "contract": "contracts/component/shared/storage/LiquidityManagerStorage.sol:LiquidityManagerStorage",
            "label": "seniorDepositTokenAddress",
            "offset": 0,
            "slot": "15",
            "type": "t_address"
          },
          {
            "astId": 10728,
            "contract": "contracts/component/shared/storage/LiquidityManagerStorage.sol:LiquidityManagerStorage",
            "label": "stableDebtAddress",
            "offset": 0,
            "slot": "16",
            "type": "t_address"
          },
          {
            "astId": 10730,
            "contract": "contracts/component/shared/storage/LiquidityManagerStorage.sol:LiquidityManagerStorage",
            "label": "juniorLastUpdateTimestamp",
            "offset": 20,
            "slot": "16",
            "type": "t_uint40"
          },
          {
            "astId": 10732,
            "contract": "contracts/component/shared/storage/LiquidityManagerStorage.sol:LiquidityManagerStorage",
            "label": "seniorLastUpdateTimestamp",
            "offset": 25,
            "slot": "16",
            "type": "t_uint40"
          },
          {
            "astId": 10734,
            "contract": "contracts/component/shared/storage/LiquidityManagerStorage.sol:LiquidityManagerStorage",
            "label": "optimalTrancheRatio",
            "offset": 0,
            "slot": "17",
            "type": "t_uint256"
          },
          {
            "astId": 10736,
            "contract": "contracts/component/shared/storage/LiquidityManagerStorage.sol:LiquidityManagerStorage",
            "label": "optimalIncomeRatio",
            "offset": 0,
            "slot": "18",
            "type": "t_uint256"
          }
        ],
        "numberOfBytes": "608"
      },
      "t_uint16": {
        "encoding": "inplace",
        "label": "uint16",
        "numberOfBytes": "2"
      },
      "t_uint256": {
        "encoding": "inplace",
        "label": "uint256",
        "numberOfBytes": "32"
      },
      "t_uint40": {
        "encoding": "inplace",
        "label": "uint40",
        "numberOfBytes": "5"
      }
    }
  }
}