{
  "address": "0xB1ed7f48C682D90cF43e00357C4C8a7A5878257E",
  "abi": [
    {
      "anonymous": false,
      "inputs": [
        {
          "indexed": true,
          "internalType": "address",
          "name": "previousOwner",
          "type": "address"
        },
        {
          "indexed": true,
          "internalType": "address",
          "name": "newOwner",
          "type": "address"
        }
      ],
      "name": "OwnershipTransferred",
      "type": "event"
    },
    {
      "anonymous": false,
      "inputs": [
        {
          "indexed": false,
          "internalType": "contract Proxyable",
          "name": "newTarget",
          "type": "address"
        }
      ],
      "name": "TargetUpdated",
      "type": "event"
    },
    {
      "stateMutability": "payable",
      "type": "fallback"
    },
    {
      "inputs": [
        {
          "internalType": "bytes",
          "name": "callData",
          "type": "bytes"
        },
        {
          "internalType": "uint256",
          "name": "numTopics",
          "type": "uint256"
        },
        {
          "internalType": "bytes32",
          "name": "topic1",
          "type": "bytes32"
        },
        {
          "internalType": "bytes32",
          "name": "topic2",
          "type": "bytes32"
        },
        {
          "internalType": "bytes32",
          "name": "topic3",
          "type": "bytes32"
        },
        {
          "internalType": "bytes32",
          "name": "topic4",
          "type": "bytes32"
        }
      ],
      "name": "_emit",
      "outputs": [],
      "stateMutability": "nonpayable",
      "type": "function"
    },
    {
      "inputs": [],
      "name": "claimOwnership",
      "outputs": [],
      "stateMutability": "nonpayable",
      "type": "function"
    },
    {
      "inputs": [
        {
          "internalType": "address",
          "name": "_reserve",
          "type": "address"
        }
      ],
      "name": "getConfiguration",
      "outputs": [
        {
          "components": [
            {
              "internalType": "uint256",
              "name": "data",
              "type": "uint256"
            }
          ],
          "internalType": "struct DataTypes.ReserveConfigurationMap",
          "name": "",
          "type": "tuple"
        }
      ],
      "stateMutability": "view",
      "type": "function"
    },
    {
      "inputs": [],
      "name": "getEscrowAddress",
      "outputs": [
        {
          "internalType": "address",
          "name": "",
          "type": "address"
        }
      ],
      "stateMutability": "view",
      "type": "function"
    },
    {
      "inputs": [
        {
          "internalType": "address",
          "name": "_asset",
          "type": "address"
        }
      ],
      "name": "getFlags",
      "outputs": [
        {
          "internalType": "bool",
          "name": "",
          "type": "bool"
        },
        {
          "internalType": "bool",
          "name": "",
          "type": "bool"
        },
        {
          "internalType": "bool",
          "name": "",
          "type": "bool"
        }
      ],
      "stateMutability": "view",
      "type": "function"
    },
    {
      "inputs": [
        {
          "internalType": "address",
          "name": "_reserve",
          "type": "address"
        },
        {
          "internalType": "enum ReserveLogic.Tranche",
          "name": "_tranche",
          "type": "uint8"
        }
      ],
      "name": "getLiquidityRate",
      "outputs": [
        {
          "internalType": "uint256",
          "name": "",
          "type": "uint256"
        }
      ],
      "stateMutability": "view",
      "type": "function"
    },
    {
      "inputs": [
        {
          "internalType": "address",
          "name": "_reserve",
          "type": "address"
        }
      ],
      "name": "getReserveData",
      "outputs": [
        {
          "components": [
            {
              "components": [
                {
                  "internalType": "uint256",
                  "name": "data",
                  "type": "uint256"
                }
              ],
              "internalType": "struct DataTypes.ReserveConfigurationMap",
              "name": "configuration",
              "type": "tuple"
            },
            {
              "internalType": "uint256",
              "name": "currentOverallLiquidityRate",
              "type": "uint256"
            },
            {
              "internalType": "uint256",
              "name": "currentSeniorIncomeAllocation",
              "type": "uint256"
            },
            {
              "internalType": "uint256",
              "name": "currentJuniorIncomeAllocation",
              "type": "uint256"
            },
            {
              "internalType": "uint256",
              "name": "juniorLiquidityIndex",
              "type": "uint256"
            },
            {
              "internalType": "uint256",
              "name": "seniorLiquidityIndex",
              "type": "uint256"
            },
            {
              "internalType": "uint256",
              "name": "totalBorrows",
              "type": "uint256"
            },
            {
              "internalType": "uint256",
              "name": "currentBorrowRate",
              "type": "uint256"
            },
            {
              "internalType": "uint256",
              "name": "securityRequirement",
              "type": "uint256"
            },
            {
              "internalType": "uint256",
              "name": "decimals",
              "type": "uint256"
            },
            {
              "internalType": "address",
              "name": "interestRateStrategyAddress",
              "type": "address"
            },
            {
              "internalType": "address",
              "name": "healthStrategyAddress",
              "type": "address"
            },
            {
              "internalType": "address",
              "name": "juniorDepositTokenAddress",
              "type": "address"
            },
            {
              "internalType": "address",
              "name": "seniorDepositTokenAddress",
              "type": "address"
            },
            {
              "internalType": "address",
              "name": "stableDebtAddress",
              "type": "address"
            },
            {
              "internalType": "uint40",
              "name": "juniorLastUpdateTimestamp",
              "type": "uint40"
            },
            {
              "internalType": "uint40",
              "name": "seniorLastUpdateTimestamp",
              "type": "uint40"
            }
          ],
          "internalType": "struct DataTypes.ReserveData",
          "name": "",
          "type": "tuple"
        }
      ],
      "stateMutability": "view",
      "type": "function"
    },
    {
      "inputs": [],
      "name": "getReserveList",
      "outputs": [
        {
          "internalType": "address[]",
          "name": "",
          "type": "address[]"
        }
      ],
      "stateMutability": "view",
      "type": "function"
    },
    {
      "inputs": [
        {
          "internalType": "address",
          "name": "_asset",
          "type": "address"
        },
        {
          "internalType": "enum ReserveLogic.Tranche",
          "name": "_tranche",
          "type": "uint8"
        }
      ],
      "name": "getReserveNormalizedIncome",
      "outputs": [
        {
          "internalType": "uint256",
          "name": "",
          "type": "uint256"
        }
      ],
      "stateMutability": "view",
      "type": "function"
    },
    {
      "inputs": [],
      "name": "isOwner",
      "outputs": [
        {
          "internalType": "bool",
          "name": "",
          "type": "bool"
        }
      ],
      "stateMutability": "view",
      "type": "function"
    },
    {
      "inputs": [],
      "name": "owner",
      "outputs": [
        {
          "internalType": "address",
          "name": "",
          "type": "address"
        }
      ],
      "stateMutability": "view",
      "type": "function"
    },
    {
      "inputs": [],
      "name": "pendingOwner",
      "outputs": [
        {
          "internalType": "address",
          "name": "",
          "type": "address"
        }
      ],
      "stateMutability": "view",
      "type": "function"
    },
    {
      "inputs": [
        {
          "internalType": "contract Proxyable",
          "name": "_target",
          "type": "address"
        }
      ],
      "name": "setTarget",
      "outputs": [],
      "stateMutability": "nonpayable",
      "type": "function"
    },
    {
      "inputs": [],
      "name": "target",
      "outputs": [
        {
          "internalType": "contract Proxyable",
          "name": "",
          "type": "address"
        }
      ],
      "stateMutability": "view",
      "type": "function"
    },
    {
      "inputs": [
        {
          "internalType": "address",
          "name": "newOwner",
          "type": "address"
        }
      ],
      "name": "transferOwnership",
      "outputs": [],
      "stateMutability": "nonpayable",
      "type": "function"
    }
  ],
  "transactionHash": "0x512833f65bcf6cae9184d5d34569e6b9354198db1807c90808fe644e71b44052",
  "args": [],
  "numDeployments": 1,
  "solcInputHash": "e25eba194d10a5d1c74824e1f2d0ff93",
  "bytecode": "0x608060405234801561001057600080fd5b50336000806101000a81548173ffffffffffffffffffffffffffffffffffffffff021916908373ffffffffffffffffffffffffffffffffffffffff16021790555060008054906101000a900473ffffffffffffffffffffffffffffffffffffffff1673ffffffffffffffffffffffffffffffffffffffff16600073ffffffffffffffffffffffffffffffffffffffff167f8be0079c531659141344cd1fd0a4f28419497f9722a3daafe3b4186f6b6457e060405160405180910390a3611d33806100db6000396000f3fe6080604052600436106100ec5760003560e01c8063817ad5d31161008a578063c44b11f711610059578063c44b11f7146103aa578063d4b83992146103e7578063e30c397814610412578063f2fde38b1461043d576100ed565b8063817ad5d3146102ec5780638da5cb5b1461032b5780638f32d59b14610356578063907dff9714610381576100ed565b80634e71e0c8116100c65780634e71e0c81461024457806366d4c4131461025b578063776d1a0114610286578063776f6891146102af576100ed565b8063122fd48a1461019f578063284592b2146101ca57806335ea6a7514610207576100ed565b5b600260009054906101000a900473ffffffffffffffffffffffffffffffffffffffff1673ffffffffffffffffffffffffffffffffffffffff1663bc67f832336040518263ffffffff1660e01b81526004016101489190610fbb565b600060405180830381600087803b15801561016257600080fd5b505af1158015610176573d6000803e3d6000fd5b5050505060405136600082376000803683346002545af13d6000833e8061019b573d82fd5b3d82f35b3480156101ab57600080fd5b506101b4610466565b6040516101c19190610fbb565b60405180910390f35b3480156101d657600080fd5b506101f160048036038101906101ec919061103b565b61050d565b6040516101fe9190611094565b60405180910390f35b34801561021357600080fd5b5061022e600480360381019061022991906110af565b6105c4565b60405161023b9190611295565b60405180910390f35b34801561025057600080fd5b5061025961067f565b005b34801561026757600080fd5b5061027061081b565b60405161027d9190611360565b60405180910390f35b34801561029257600080fd5b506102ad60048036038101906102a891906113c0565b6108c7565b005b3480156102bb57600080fd5b506102d660048036038101906102d1919061103b565b610989565b6040516102e39190611094565b60405180910390f35b3480156102f857600080fd5b50610313600480360381019061030e91906110af565b610a40565b60405161032293929190611408565b60405180910390f35b34801561033757600080fd5b50610340610afd565b60405161034d9190610fbb565b60405180910390f35b34801561036257600080fd5b5061036b610b21565b604051610378919061143f565b60405180910390f35b34801561038d57600080fd5b506103a860048036038101906103a39190611521565b610b78565b005b3480156103b657600080fd5b506103d160048036038101906103cc91906110af565b610cd0565b6040516103de91906115ec565b60405180910390f35b3480156103f357600080fd5b506103fc610d8a565b6040516104099190611666565b60405180910390f35b34801561041e57600080fd5b50610427610db0565b6040516104349190610fbb565b60405180910390f35b34801561044957600080fd5b50610464600480360381019061045f91906110af565b610dd6565b005b6000600260009054906101000a900473ffffffffffffffffffffffffffffffffffffffff1673ffffffffffffffffffffffffffffffffffffffff1663122fd48a6040518163ffffffff1660e01b815260040160206040518083038186803b1580156104d057600080fd5b505afa1580156104e4573d6000803e3d6000fd5b505050506040513d601f19601f820116820180604052508101906105089190611696565b905090565b6000600260009054906101000a900473ffffffffffffffffffffffffffffffffffffffff1673ffffffffffffffffffffffffffffffffffffffff1663284592b284846040518363ffffffff1660e01b815260040161056c92919061173a565b60206040518083038186803b15801561058457600080fd5b505afa158015610598573d6000803e3d6000fd5b505050506040513d601f19601f820116820180604052508101906105bc9190611778565b905092915050565b6105cc610e61565b600260009054906101000a900473ffffffffffffffffffffffffffffffffffffffff1673ffffffffffffffffffffffffffffffffffffffff166335ea6a75836040518263ffffffff1660e01b81526004016106279190610fbb565b6102206040518083038186803b15801561064057600080fd5b505afa158015610654573d6000803e3d6000fd5b505050506040513d601f19601f820116820180604052508101906106789190611a2e565b9050919050565b600160009054906101000a900473ffffffffffffffffffffffffffffffffffffffff1673ffffffffffffffffffffffffffffffffffffffff163373ffffffffffffffffffffffffffffffffffffffff16146106d957600080fd5b600160009054906101000a900473ffffffffffffffffffffffffffffffffffffffff1673ffffffffffffffffffffffffffffffffffffffff1660008054906101000a900473ffffffffffffffffffffffffffffffffffffffff1673ffffffffffffffffffffffffffffffffffffffff167f8be0079c531659141344cd1fd0a4f28419497f9722a3daafe3b4186f6b6457e060405160405180910390a3600160009054906101000a900473ffffffffffffffffffffffffffffffffffffffff166000806101000a81548173ffffffffffffffffffffffffffffffffffffffff021916908373ffffffffffffffffffffffffffffffffffffffff1602179055506000600160006101000a81548173ffffffffffffffffffffffffffffffffffffffff021916908373ffffffffffffffffffffffffffffffffffffffff160217905550565b6060600260009054906101000a900473ffffffffffffffffffffffffffffffffffffffff1673ffffffffffffffffffffffffffffffffffffffff166366d4c4136040518163ffffffff1660e01b815260040160006040518083038186803b15801561088557600080fd5b505afa158015610899573d6000803e3d6000fd5b505050506040513d6000823e3d601f19601f820116820180604052508101906108c29190611b1f565b905090565b6108cf610b21565b61090e576040517f08c379a000000000000000000000000000000000000000000000000000000000815260040161090590611bc5565b60405180910390fd5b80600260006101000a81548173ffffffffffffffffffffffffffffffffffffffff021916908373ffffffffffffffffffffffffffffffffffffffff1602179055507f814250a3b8c79fcbe2ead2c131c952a278491c8f4322a79fe84b5040a810373e8160405161097e9190611666565b60405180910390a150565b6000600260009054906101000a900473ffffffffffffffffffffffffffffffffffffffff1673ffffffffffffffffffffffffffffffffffffffff1663776f689184846040518363ffffffff1660e01b81526004016109e892919061173a565b60206040518083038186803b158015610a0057600080fd5b505afa158015610a14573d6000803e3d6000fd5b505050506040513d601f19601f82011682018060405250810190610a389190611778565b905092915050565b6000806000600260009054906101000a900473ffffffffffffffffffffffffffffffffffffffff1673ffffffffffffffffffffffffffffffffffffffff1663817ad5d3856040518263ffffffff1660e01b8152600401610aa09190610fbb565b60606040518083038186803b158015610ab857600080fd5b505afa158015610acc573d6000803e3d6000fd5b505050506040513d601f19601f82011682018060405250810190610af09190611c11565b9250925092509193909250565b60008054906101000a900473ffffffffffffffffffffffffffffffffffffffff1681565b60008060009054906101000a900473ffffffffffffffffffffffffffffffffffffffff1673ffffffffffffffffffffffffffffffffffffffff163373ffffffffffffffffffffffffffffffffffffffff1614905090565b600260009054906101000a900473ffffffffffffffffffffffffffffffffffffffff1673ffffffffffffffffffffffffffffffffffffffff163373ffffffffffffffffffffffffffffffffffffffff1614610c08576040517f08c379a0000000000000000000000000000000000000000000000000000000008152600401610bff90611cb0565b60405180910390fd5b6000878790509050600088888080601f016020809104026020016040519081016040528093929190818152602001838380828437600081840152601f19601f8201169050808301925050505050505090508660008114610c875760018114610c925760028114610c9e5760038114610cab5760048114610cb957610cc4565b8260208301a0610cc4565b868360208401a1610cc4565b85878460208501a2610cc4565b8486888560208601a3610cc4565b838587898660208701a45b50505050505050505050565b610cd8610f67565b600260009054906101000a900473ffffffffffffffffffffffffffffffffffffffff1673ffffffffffffffffffffffffffffffffffffffff1663c44b11f7836040518263ffffffff1660e01b8152600401610d339190610fbb565b60206040518083038186803b158015610d4b57600080fd5b505afa158015610d5f573d6000803e3d6000fd5b505050506040513d601f19601f82011682018060405250810190610d839190611cd0565b9050919050565b600260009054906101000a900473ffffffffffffffffffffffffffffffffffffffff1681565b600160009054906101000a900473ffffffffffffffffffffffffffffffffffffffff1681565b610dde610b21565b610e1d576040517f08c379a0000000000000000000000000000000000000000000000000000000008152600401610e1490611bc5565b60405180910390fd5b80600160006101000a81548173ffffffffffffffffffffffffffffffffffffffff021916908373ffffffffffffffffffffffffffffffffffffffff16021790555050565b604051806102200160405280610e75610f67565b8152602001600081526020016000815260200160008152602001600081526020016000815260200160008152602001600081526020016000815260200160008152602001600073ffffffffffffffffffffffffffffffffffffffff168152602001600073ffffffffffffffffffffffffffffffffffffffff168152602001600073ffffffffffffffffffffffffffffffffffffffff168152602001600073ffffffffffffffffffffffffffffffffffffffff168152602001600073ffffffffffffffffffffffffffffffffffffffff168152602001600064ffffffffff168152602001600064ffffffffff1681525090565b6040518060200160405280600081525090565b600073ffffffffffffffffffffffffffffffffffffffff82169050919050565b6000610fa582610f7a565b9050919050565b610fb581610f9a565b82525050565b6000602082019050610fd06000830184610fac565b92915050565b6000604051905090565b600080fd5b600080fd5b610ff381610f9a565b8114610ffe57600080fd5b50565b60008135905061101081610fea565b92915050565b6002811061102357600080fd5b50565b60008135905061103581611016565b92915050565b6000806040838503121561105257611051610fe0565b5b600061106085828601611001565b925050602061107185828601611026565b9150509250929050565b6000819050919050565b61108e8161107b565b82525050565b60006020820190506110a96000830184611085565b92915050565b6000602082840312156110c5576110c4610fe0565b5b60006110d384828501611001565b91505092915050565b6110e58161107b565b82525050565b60208201600082015161110160008501826110dc565b50505050565b61111081610f9a565b82525050565b600064ffffffffff82169050919050565b61113081611116565b82525050565b6102208201600082015161114d60008501826110eb565b50602082015161116060208501826110dc565b50604082015161117360408501826110dc565b50606082015161118660608501826110dc565b50608082015161119960808501826110dc565b5060a08201516111ac60a08501826110dc565b5060c08201516111bf60c08501826110dc565b5060e08201516111d260e08501826110dc565b506101008201516111e76101008501826110dc565b506101208201516111fc6101208501826110dc565b50610140820151611211610140850182611107565b50610160820151611226610160850182611107565b5061018082015161123b610180850182611107565b506101a08201516112506101a0850182611107565b506101c08201516112656101c0850182611107565b506101e082015161127a6101e0850182611127565b5061020082015161128f610200850182611127565b50505050565b6000610220820190506112ab6000830184611136565b92915050565b600081519050919050565b600082825260208201905092915050565b6000819050602082019050919050565b60006112e98383611107565b60208301905092915050565b6000602082019050919050565b600061130d826112b1565b61131781856112bc565b9350611322836112cd565b8060005b8381101561135357815161133a88826112dd565b9750611345836112f5565b925050600181019050611326565b5085935050505092915050565b6000602082019050818103600083015261137a8184611302565b905092915050565b600061138d82610f9a565b9050919050565b61139d81611382565b81146113a857600080fd5b50565b6000813590506113ba81611394565b92915050565b6000602082840312156113d6576113d5610fe0565b5b60006113e4848285016113ab565b91505092915050565b60008115159050919050565b611402816113ed565b82525050565b600060608201905061141d60008301866113f9565b61142a60208301856113f9565b61143760408301846113f9565b949350505050565b600060208201905061145460008301846113f9565b92915050565b600080fd5b600080fd5b600080fd5b60008083601f84011261147f5761147e61145a565b5b8235905067ffffffffffffffff81111561149c5761149b61145f565b5b6020830191508360018202830111156114b8576114b7611464565b5b9250929050565b6114c88161107b565b81146114d357600080fd5b50565b6000813590506114e5816114bf565b92915050565b6000819050919050565b6114fe816114eb565b811461150957600080fd5b50565b60008135905061151b816114f5565b92915050565b600080600080600080600060c0888a0312156115405761153f610fe0565b5b600088013567ffffffffffffffff81111561155e5761155d610fe5565b5b61156a8a828b01611469565b9750975050602061157d8a828b016114d6565b955050604061158e8a828b0161150c565b945050606061159f8a828b0161150c565b93505060806115b08a828b0161150c565b92505060a06115c18a828b0161150c565b91505092959891949750929550565b6020820160008201516115e660008501826110dc565b50505050565b600060208201905061160160008301846115d0565b92915050565b6000819050919050565b600061162c61162761162284610f7a565b611607565b610f7a565b9050919050565b600061163e82611611565b9050919050565b600061165082611633565b9050919050565b61166081611645565b82525050565b600060208201905061167b6000830184611657565b92915050565b60008151905061169081610fea565b92915050565b6000602082840312156116ac576116ab610fe0565b5b60006116ba84828501611681565b91505092915050565b7f4e487b7100000000000000000000000000000000000000000000000000000000600052602160045260246000fd5b60028110611703576117026116c3565b5b50565b6000819050611714826116f2565b919050565b600061172482611706565b9050919050565b61173481611719565b82525050565b600060408201905061174f6000830185610fac565b61175c602083018461172b565b9392505050565b600081519050611772816114bf565b92915050565b60006020828403121561178e5761178d610fe0565b5b600061179c84828501611763565b91505092915050565b600080fd5b6000601f19601f8301169050919050565b7f4e487b7100000000000000000000000000000000000000000000000000000000600052604160045260246000fd5b6117f3826117aa565b810181811067ffffffffffffffff82111715611812576118116117bb565b5b80604052505050565b6000611825610fd6565b905061183182826117ea565b919050565b60006020828403121561184c5761184b6117a5565b5b611856602061181b565b9050600061186684828501611763565b60008301525092915050565b61187b81611116565b811461188657600080fd5b50565b60008151905061189881611872565b92915050565b600061022082840312156118b5576118b46117a5565b5b6118c061022061181b565b905060006118d084828501611836565b60008301525060206118e484828501611763565b60208301525060406118f884828501611763565b604083015250606061190c84828501611763565b606083015250608061192084828501611763565b60808301525060a061193484828501611763565b60a08301525060c061194884828501611763565b60c08301525060e061195c84828501611763565b60e08301525061010061197184828501611763565b6101008301525061012061198784828501611763565b6101208301525061014061199d84828501611681565b610140830152506101606119b384828501611681565b610160830152506101806119c984828501611681565b610180830152506101a06119df84828501611681565b6101a0830152506101c06119f584828501611681565b6101c0830152506101e0611a0b84828501611889565b6101e083015250610200611a2184828501611889565b6102008301525092915050565b60006102208284031215611a4557611a44610fe0565b5b6000611a538482850161189e565b91505092915050565b600067ffffffffffffffff821115611a7757611a766117bb565b5b602082029050602081019050919050565b6000611a9b611a9684611a5c565b61181b565b90508083825260208201905060208402830185811115611abe57611abd611464565b5b835b81811015611ae75780611ad38882611681565b845260208401935050602081019050611ac0565b5050509392505050565b600082601f830112611b0657611b0561145a565b5b8151611b16848260208601611a88565b91505092915050565b600060208284031215611b3557611b34610fe0565b5b600082015167ffffffffffffffff811115611b5357611b52610fe5565b5b611b5f84828501611af1565b91505092915050565b600082825260208201905092915050565b7f4f776e61626c653a2063616c6c6572206973206e6f7420746865206f776e6572600082015250565b6000611baf602083611b68565b9150611bba82611b79565b602082019050919050565b60006020820190508181036000830152611bde81611ba2565b9050919050565b611bee816113ed565b8114611bf957600080fd5b50565b600081519050611c0b81611be5565b92915050565b600080600060608486031215611c2a57611c29610fe0565b5b6000611c3886828701611bfc565b9350506020611c4986828701611bfc565b9250506040611c5a86828701611bfc565b9150509250925092565b7f4d7573742062652070726f787920746172676574000000000000000000000000600082015250565b6000611c9a601483611b68565b9150611ca582611c64565b602082019050919050565b60006020820190508181036000830152611cc981611c8d565b9050919050565b600060208284031215611ce657611ce5610fe0565b5b6000611cf484828501611836565b9150509291505056fea2646970667358221220bc4fde3118f9653e26d04c74929ee99a2f59f123e63ba2b5d2b0afeb9744433964736f6c63430008090033",
  "devdoc": {
    "kind": "dev",
    "methods": {
      "claimOwnership()": {
        "details": "Allows the pendingOwner address to finalize the transfer."
      },
      "isOwner()": {
        "details": "Returns true if the caller is the current owner."
      },
      "transferOwnership(address)": {
        "details": "Allows the current owner to set the pendingOwner address.",
        "params": {
          "newOwner": "The address to transfer ownership to."
        }
      }
    },
    "version": 1
  },
  "userdoc": {
    "kind": "user",
    "methods": {},
    "version": 1
  },
  "storageLayout": {
    "storage": [
      {
        "astId": 7987,
        "contract": "contracts/component/liquiditymanager/LiquidityManagerProxy.sol:LiquidityManagerProxy",
        "label": "owner",
        "offset": 0,
        "slot": "0",
        "type": "t_address"
      },
      {
        "astId": 7989,
        "contract": "contracts/component/liquiditymanager/LiquidityManagerProxy.sol:LiquidityManagerProxy",
        "label": "pendingOwner",
        "offset": 0,
        "slot": "1",
        "type": "t_address"
      },
      {
        "astId": 8094,
        "contract": "contracts/component/liquiditymanager/LiquidityManagerProxy.sol:LiquidityManagerProxy",
        "label": "target",
        "offset": 0,
        "slot": "2",
        "type": "t_contract(Proxyable)8302"
      }
    ],
    "types": {
      "t_address": {
        "encoding": "inplace",
        "label": "address",
        "numberOfBytes": "20"
      },
      "t_contract(Proxyable)8302": {
        "encoding": "inplace",
        "label": "contract Proxyable",
        "numberOfBytes": "20"
      }
    }
  }
}