{
  "address": "0x7f941D367811770b4c69E4E753438CBe7F3A28de",
  "abi": [
    {
      "inputs": [
        {
          "internalType": "address payable",
          "name": "_proxy",
          "type": "address"
        },
        {
          "internalType": "address",
          "name": "_voyager",
          "type": "address"
        }
      ],
      "stateMutability": "nonpayable",
      "type": "constructor"
    },
    {
      "anonymous": false,
      "inputs": [
        {
          "indexed": true,
          "internalType": "address",
          "name": "previousOwner",
          "type": "address"
        },
        {
          "indexed": true,
          "internalType": "address",
          "name": "newOwner",
          "type": "address"
        }
      ],
      "name": "OwnershipTransferred",
      "type": "event"
    },
    {
      "anonymous": false,
      "inputs": [
        {
          "indexed": false,
          "internalType": "address",
          "name": "proxyAddress",
          "type": "address"
        }
      ],
      "name": "ProxyUpdated",
      "type": "event"
    },
    {
      "inputs": [
        {
          "internalType": "address",
          "name": "_asset",
          "type": "address"
        }
      ],
      "name": "activeReserve",
      "outputs": [],
      "stateMutability": "nonpayable",
      "type": "function"
    },
    {
      "inputs": [],
      "name": "claimOwnership",
      "outputs": [],
      "stateMutability": "nonpayable",
      "type": "function"
    },
    {
      "inputs": [
        {
          "internalType": "address",
          "name": "_asset",
          "type": "address"
        },
        {
          "internalType": "enum ReserveLogic.Tranche",
          "name": "_tranche",
          "type": "uint8"
        },
        {
          "internalType": "uint256",
          "name": "_amount",
          "type": "uint256"
        },
        {
          "internalType": "address",
          "name": "_user",
          "type": "address"
        },
        {
          "internalType": "address",
          "name": "_onBehalfOf",
          "type": "address"
        }
      ],
      "name": "deposit",
      "outputs": [],
      "stateMutability": "nonpayable",
      "type": "function"
    },
    {
      "inputs": [
        {
          "internalType": "address",
          "name": "_asset",
          "type": "address"
        }
      ],
      "name": "getConfiguration",
      "outputs": [
        {
          "components": [
            {
              "internalType": "uint256",
              "name": "data",
              "type": "uint256"
            }
          ],
          "internalType": "struct DataTypes.ReserveConfigurationMap",
          "name": "",
          "type": "tuple"
        }
      ],
      "stateMutability": "view",
      "type": "function"
    },
    {
      "inputs": [],
      "name": "getDepositAndDebt",
      "outputs": [
        {
          "components": [
            {
              "internalType": "uint256",
              "name": "juniorDepositAmount",
              "type": "uint256"
            },
            {
              "internalType": "uint256",
              "name": "seniorDepositAmount",
              "type": "uint256"
            },
            {
              "internalType": "uint256",
              "name": "totalDebt",
              "type": "uint256"
            }
          ],
          "internalType": "struct DataTypes.DepositAndDebt",
          "name": "",
          "type": "tuple"
        }
      ],
      "stateMutability": "view",
      "type": "function"
    },
    {
      "inputs": [],
      "name": "getEscrowAddress",
      "outputs": [
        {
          "internalType": "address",
          "name": "",
          "type": "address"
        }
      ],
      "stateMutability": "view",
      "type": "function"
    },
    {
      "inputs": [
        {
          "internalType": "address",
          "name": "_asset",
          "type": "address"
        }
      ],
      "name": "getFlags",
      "outputs": [
        {
          "internalType": "bool",
          "name": "",
          "type": "bool"
        },
        {
          "internalType": "bool",
          "name": "",
          "type": "bool"
        },
        {
          "internalType": "bool",
          "name": "",
          "type": "bool"
        }
      ],
      "stateMutability": "view",
      "type": "function"
    },
    {
      "inputs": [
        {
          "internalType": "address",
          "name": "_asset",
          "type": "address"
        }
      ],
      "name": "getJuniorLiquidityIndex",
      "outputs": [
        {
          "internalType": "uint256",
          "name": "",
          "type": "uint256"
        }
      ],
      "stateMutability": "view",
      "type": "function"
    },
    {
      "inputs": [
        {
          "internalType": "address",
          "name": "_asset",
          "type": "address"
        },
        {
          "internalType": "enum ReserveLogic.Tranche",
          "name": "_tranche",
          "type": "uint8"
        }
      ],
      "name": "getLiquidityRate",
      "outputs": [
        {
          "internalType": "uint256",
          "name": "",
          "type": "uint256"
        }
      ],
      "stateMutability": "view",
      "type": "function"
    },
    {
      "inputs": [
        {
          "internalType": "address",
          "name": "_asset",
          "type": "address"
        }
      ],
      "name": "getReserveData",
      "outputs": [
        {
          "components": [
            {
              "components": [
                {
                  "internalType": "uint256",
                  "name": "data",
                  "type": "uint256"
                }
              ],
              "internalType": "struct DataTypes.ReserveConfigurationMap",
              "name": "configuration",
              "type": "tuple"
            },
            {
              "internalType": "uint256",
              "name": "currentOverallLiquidityRate",
              "type": "uint256"
            },
            {
              "internalType": "uint256",
              "name": "currentSeniorIncomeAllocation",
              "type": "uint256"
            },
            {
              "internalType": "uint256",
              "name": "currentJuniorIncomeAllocation",
              "type": "uint256"
            },
            {
              "internalType": "uint256",
              "name": "juniorLiquidityIndex",
              "type": "uint256"
            },
            {
              "internalType": "uint256",
              "name": "seniorLiquidityIndex",
              "type": "uint256"
            },
            {
              "internalType": "uint256",
              "name": "totalBorrows",
              "type": "uint256"
            },
            {
              "internalType": "uint256",
              "name": "currentBorrowRate",
              "type": "uint256"
            },
            {
              "internalType": "uint256",
              "name": "securityRequirement",
              "type": "uint256"
            },
            {
              "internalType": "uint256",
              "name": "decimals",
              "type": "uint256"
            },
            {
              "internalType": "address",
              "name": "interestRateStrategyAddress",
              "type": "address"
            },
            {
              "internalType": "address",
              "name": "healthStrategyAddress",
              "type": "address"
            },
            {
              "internalType": "address",
              "name": "juniorDepositTokenAddress",
              "type": "address"
            },
            {
              "internalType": "address",
              "name": "seniorDepositTokenAddress",
              "type": "address"
            },
            {
              "internalType": "address",
              "name": "stableDebtAddress",
              "type": "address"
            },
            {
              "internalType": "uint40",
              "name": "juniorLastUpdateTimestamp",
              "type": "uint40"
            },
            {
              "internalType": "uint40",
              "name": "seniorLastUpdateTimestamp",
              "type": "uint40"
            }
          ],
          "internalType": "struct DataTypes.ReserveData",
          "name": "",
          "type": "tuple"
        }
      ],
      "stateMutability": "view",
      "type": "function"
    },
    {
      "inputs": [],
      "name": "getReserveList",
      "outputs": [
        {
          "internalType": "address[]",
          "name": "",
          "type": "address[]"
        }
      ],
      "stateMutability": "view",
      "type": "function"
    },
    {
      "inputs": [
        {
          "internalType": "address",
          "name": "_asset",
          "type": "address"
        },
        {
          "internalType": "enum ReserveLogic.Tranche",
          "name": "_tranche",
          "type": "uint8"
        }
      ],
      "name": "getReserveNormalizedIncome",
      "outputs": [
        {
          "internalType": "uint256",
          "name": "",
          "type": "uint256"
        }
      ],
      "stateMutability": "view",
      "type": "function"
    },
    {
      "inputs": [
        {
          "internalType": "address",
          "name": "_asset",
          "type": "address"
        }
      ],
      "name": "getSeniorLiquidityIndex",
      "outputs": [
        {
          "internalType": "uint256",
          "name": "",
          "type": "uint256"
        }
      ],
      "stateMutability": "view",
      "type": "function"
    },
    {
      "inputs": [
        {
          "internalType": "address",
          "name": "_asset",
          "type": "address"
        },
        {
          "internalType": "address",
          "name": "_juniorDepositTokenAddress",
          "type": "address"
        },
        {
          "internalType": "address",
          "name": "_seniorDepositTokenAddress",
          "type": "address"
        },
        {
          "internalType": "uint256",
          "name": "_juniorIncomeAllocation",
          "type": "uint256"
        },
        {
          "internalType": "uint256",
          "name": "_seniorIncomeAllocation",
          "type": "uint256"
        },
        {
          "internalType": "address",
          "name": "_stableDebtAddress",
          "type": "address"
        },
        {
          "internalType": "address",
          "name": "_interestRateStrategyAddress",
          "type": "address"
        },
        {
          "internalType": "address",
          "name": "_healthStrategyAddress",
          "type": "address"
        }
      ],
      "name": "initReserve",
      "outputs": [],
      "stateMutability": "nonpayable",
      "type": "function"
    },
    {
      "inputs": [],
      "name": "isOwner",
      "outputs": [
        {
          "internalType": "bool",
          "name": "",
          "type": "bool"
        }
      ],
      "stateMutability": "view",
      "type": "function"
    },
    {
      "inputs": [],
      "name": "liquidityDepositEscrow",
      "outputs": [
        {
          "internalType": "contract LiquidityDepositEscrow",
          "name": "",
          "type": "address"
        }
      ],
      "stateMutability": "view",
      "type": "function"
    },
    {
      "inputs": [],
      "name": "messageSender",
      "outputs": [
        {
          "internalType": "address",
          "name": "",
          "type": "address"
        }
      ],
      "stateMutability": "view",
      "type": "function"
    },
    {
      "inputs": [],
      "name": "owner",
      "outputs": [
        {
          "internalType": "address",
          "name": "",
          "type": "address"
        }
      ],
      "stateMutability": "view",
      "type": "function"
    },
    {
      "inputs": [],
      "name": "pause",
      "outputs": [],
      "stateMutability": "nonpayable",
      "type": "function"
    },
    {
      "inputs": [],
      "name": "pendingOwner",
      "outputs": [
        {
          "internalType": "address",
          "name": "",
          "type": "address"
        }
      ],
      "stateMutability": "view",
      "type": "function"
    },
    {
      "inputs": [],
      "name": "proxy",
      "outputs": [
        {
          "internalType": "contract Proxy",
          "name": "",
          "type": "address"
        }
      ],
      "stateMutability": "view",
      "type": "function"
    },
    {
      "inputs": [
        {
          "internalType": "address",
          "name": "sender",
          "type": "address"
        }
      ],
      "name": "setMessageSender",
      "outputs": [],
      "stateMutability": "nonpayable",
      "type": "function"
    },
    {
      "inputs": [
        {
          "internalType": "address payable",
          "name": "_proxy",
          "type": "address"
        }
      ],
      "name": "setProxy",
      "outputs": [],
      "stateMutability": "nonpayable",
      "type": "function"
    },
    {
      "inputs": [
        {
          "internalType": "address",
          "name": "newOwner",
          "type": "address"
        }
      ],
      "name": "transferOwnership",
      "outputs": [],
      "stateMutability": "nonpayable",
      "type": "function"
    },
    {
      "inputs": [],
      "name": "unPause",
      "outputs": [],
      "stateMutability": "nonpayable",
      "type": "function"
    },
    {
      "inputs": [],
      "name": "voyager",
      "outputs": [
        {
          "internalType": "contract Voyager",
          "name": "",
          "type": "address"
        }
      ],
      "stateMutability": "view",
      "type": "function"
    }
  ],
  "transactionHash": "0xfa279d66a7987ad8dac5f14060e86d38c974d88b7174b88876f76e54984677ba",
  "args": [
    "0xB1ed7f48C682D90cF43e00357C4C8a7A5878257E",
    "0xf29cdfB7C1B6349366640a0223870F7995512D46"
  ],
  "numDeployments": 1,
  "solcInputHash": "e55a2fe9cd38f3924261117ac4ab7a78",
  "bytecode": "0x60806040523480156200001157600080fd5b506040516200601e3803806200601e83398181016040528101906200003791906200045b565b818181336000806101000a81548173ffffffffffffffffffffffffffffffffffffffff021916908373ffffffffffffffffffffffffffffffffffffffff16021790555060008054906101000a900473ffffffffffffffffffffffffffffffffffffffff1673ffffffffffffffffffffffffffffffffffffffff16600073ffffffffffffffffffffffffffffffffffffffff167f8be0079c531659141344cd1fd0a4f28419497f9722a3daafe3b4186f6b6457e060405160405180910390a3600073ffffffffffffffffffffffffffffffffffffffff1660008054906101000a900473ffffffffffffffffffffffffffffffffffffffff1673ffffffffffffffffffffffffffffffffffffffff16141562000188576040517f08c379a00000000000000000000000000000000000000000000000000000000081526004016200017f9062000503565b60405180910390fd5b80600260006101000a81548173ffffffffffffffffffffffffffffffffffffffff021916908373ffffffffffffffffffffffffffffffffffffffff1602179055507ffc80377ca9c49cc11ae6982f390a42db976d5530af7c43889264b13fbbd7c57e81604051620001fa919062000590565b60405180910390a15080600460006101000a81548173ffffffffffffffffffffffffffffffffffffffff021916908373ffffffffffffffffffffffffffffffffffffffff1602179055505050620002566200032f60201b60201c565b600560006101000a81548173ffffffffffffffffffffffffffffffffffffffff021916908373ffffffffffffffffffffffffffffffffffffffff160217905550600560009054906101000a900473ffffffffffffffffffffffffffffffffffffffff1673ffffffffffffffffffffffffffffffffffffffff166319ab453c826040518263ffffffff1660e01b8152600401620002f39190620005be565b600060405180830381600087803b1580156200030e57600080fd5b505af115801562000323573d6000803e3d6000fd5b50505050505062000648565b600080336040516020016200034591906200062b565b60405160208183030381529060405280519060200120905060006040518060200162000371906200039e565b6020820181038252601f19601f8201166040525090506000828251602084016000f5905080935050505090565b6125208062003afe83390190565b600080fd5b600073ffffffffffffffffffffffffffffffffffffffff82169050919050565b6000620003de82620003b1565b9050919050565b620003f081620003d1565b8114620003fc57600080fd5b50565b6000815190506200041081620003e5565b92915050565b60006200042382620003b1565b9050919050565b620004358162000416565b81146200044157600080fd5b50565b60008151905062000455816200042a565b92915050565b60008060408385031215620004755762000474620003ac565b5b60006200048585828601620003ff565b9250506020620004988582860162000444565b9150509250929050565b600082825260208201905092915050565b7f4f776e6572206d75737420626520736574000000000000000000000000000000600082015250565b6000620004eb601183620004a2565b9150620004f882620004b3565b602082019050919050565b600060208201905081810360008301526200051e81620004dc565b9050919050565b6000819050919050565b6000620005506200054a6200054484620003b1565b62000525565b620003b1565b9050919050565b600062000564826200052f565b9050919050565b6000620005788262000557565b9050919050565b6200058a816200056b565b82525050565b6000602082019050620005a760008301846200057f565b92915050565b620005b88162000416565b82525050565b6000602082019050620005d56000830184620005ad565b92915050565b60008160601b9050919050565b6000620005f582620005db565b9050919050565b60006200060982620005e8565b9050919050565b620006256200061f8262000416565b620005fc565b82525050565b600062000639828462000610565b60148201915081905092915050565b6134a680620006586000396000f3fe608060405234801561001057600080fd5b506004361061018e5760003560e01c806397107d6d116100de578063d67bdd2511610097578063f2fde38b11610071578063f2fde38b14610477578063f448e14014610493578063f7b188a5146104b1578063f8204149146104bb5761018e565b8063d67bdd251461041d578063e30c39781461043b578063ec556889146104595761018e565b806397107d6d1461034b5780639cc67a0f14610367578063b544639a14610397578063bc67f832146103b5578063c44b11f7146103d1578063c907e29a146104015761018e565b806366d4c4131161014b57806381f781511161012557806381f78151146102e95780638456cb59146103055780638da5cb5b1461030f5780638f32d59b1461032d5761018e565b806366d4c41314610269578063776f689114610287578063817ad5d3146102b75761018e565b806303d6fa95146101935780630d458395146101c3578063122fd48a146101e1578063284592b2146101ff57806335ea6a751461022f5780634e71e0c81461025f575b600080fd5b6101ad60048036038101906101a89190611f7d565b6104d7565b6040516101ba9190611fc3565b60405180910390f35b6101cb610570565b6040516101d8919061202f565b60405180910390f35b6101e9610608565b6040516101f69190612059565b60405180910390f35b61021960048036038101906102149190612099565b610617565b6040516102269190611fc3565b60405180910390f35b61024960048036038101906102449190611f7d565b610734565b6040516102569190612283565b60405180910390f35b610267610855565b005b6102716109f1565b60405161027e919061234e565b60405180910390f35b6102a1600480360381019061029c9190612099565b610a82565b6040516102ae9190611fc3565b60405180910390f35b6102d160048036038101906102cc9190611f7d565b610b9f565b6040516102e09392919061238b565b60405180910390f35b61030360048036038101906102fe9190611f7d565b610c41565b005b61030d610d47565b005b610317610dc0565b6040516103249190612059565b60405180910390f35b610335610de4565b60405161034291906123c2565b60405180910390f35b6103656004803603810190610360919061241b565b610e3b565b005b610381600480360381019061037c9190611f7d565b610efd565b60405161038e9190611fc3565b60405180910390f35b61039f610f96565b6040516103ac91906124a7565b60405180910390f35b6103cf60048036038101906103ca9190611f7d565b610fbc565b005b6103eb60048036038101906103e69190611f7d565b611008565b6040516103f891906124de565b60405180910390f35b61041b60048036038101906104169190612525565b611128565b005b6104256114c5565b6040516104329190612059565b60405180910390f35b6104436114eb565b6040516104509190612059565b60405180910390f35b610461611511565b60405161046e91906125d3565b60405180910390f35b610491600480360381019061048c9190611f7d565b611537565b005b61049b6115c2565b6040516104a8919061260f565b60405180910390f35b6104b96115e8565b005b6104d560048036038101906104d0919061262a565b611661565b005b60006104e1611888565b73ffffffffffffffffffffffffffffffffffffffff166303d6fa95836040518263ffffffff1660e01b81526004016105199190612059565b60206040518083038186803b15801561053157600080fd5b505afa158015610545573d6000803e3d6000fd5b505050506040513d601f19601f8201168201806040525081019061056991906126f5565b9050919050565b610578611dd1565b6000610582611888565b90508073ffffffffffffffffffffffffffffffffffffffff16630d4583956040518163ffffffff1660e01b815260040160606040518083038186803b1580156105ca57600080fd5b505afa1580156105de573d6000803e3d6000fd5b505050506040513d601f19601f820116820180604052508101906106029190612817565b91505090565b6000610612611a56565b905090565b600061062283611a80565b6040518060400160405280600281526020017f363000000000000000000000000000000000000000000000000000000000000081525090610699576040517f08c379a000000000000000000000000000000000000000000000000000000000815260040161069091906128cc565b60405180910390fd5b506106a2611888565b73ffffffffffffffffffffffffffffffffffffffff1663284592b284846040518363ffffffff1660e01b81526004016106dc929190612965565b60206040518083038186803b1580156106f457600080fd5b505afa158015610708573d6000803e3d6000fd5b505050506040513d601f19601f8201168201806040525081019061072c91906126f5565b905092915050565b61073c611df2565b61074582611a80565b6040518060400160405280600281526020017f3630000000000000000000000000000000000000000000000000000000000000815250906107bc576040517f08c379a00000000000000000000000000000000000000000000000000000000081526004016107b391906128cc565b60405180910390fd5b506107c5611888565b73ffffffffffffffffffffffffffffffffffffffff166335ea6a75836040518263ffffffff1660e01b81526004016107fd9190612059565b6102206040518083038186803b15801561081657600080fd5b505afa15801561082a573d6000803e3d6000fd5b505050506040513d601f19601f8201168201806040525081019061084e9190612b9b565b9050919050565b600160009054906101000a900473ffffffffffffffffffffffffffffffffffffffff1673ffffffffffffffffffffffffffffffffffffffff163373ffffffffffffffffffffffffffffffffffffffff16146108af57600080fd5b600160009054906101000a900473ffffffffffffffffffffffffffffffffffffffff1673ffffffffffffffffffffffffffffffffffffffff1660008054906101000a900473ffffffffffffffffffffffffffffffffffffffff1673ffffffffffffffffffffffffffffffffffffffff167f8be0079c531659141344cd1fd0a4f28419497f9722a3daafe3b4186f6b6457e060405160405180910390a3600160009054906101000a900473ffffffffffffffffffffffffffffffffffffffff166000806101000a81548173ffffffffffffffffffffffffffffffffffffffff021916908373ffffffffffffffffffffffffffffffffffffffff1602179055506000600160006101000a81548173ffffffffffffffffffffffffffffffffffffffff021916908373ffffffffffffffffffffffffffffffffffffffff160217905550565b60606109fb611888565b73ffffffffffffffffffffffffffffffffffffffff166366d4c4136040518163ffffffff1660e01b815260040160006040518083038186803b158015610a4057600080fd5b505afa158015610a54573d6000803e3d6000fd5b505050506040513d6000823e3d601f19601f82011682018060405250810190610a7d9190612c96565b905090565b6000610a8d83611a80565b6040518060400160405280600281526020017f363000000000000000000000000000000000000000000000000000000000000081525090610b04576040517f08c379a0000000000000000000000000000000000000000000000000000000008152600401610afb91906128cc565b60405180910390fd5b50610b0d611888565b73ffffffffffffffffffffffffffffffffffffffff1663776f689184846040518363ffffffff1660e01b8152600401610b47929190612965565b60206040518083038186803b158015610b5f57600080fd5b505afa158015610b73573d6000803e3d6000fd5b505050506040513d601f19601f82011682018060405250810190610b9791906126f5565b905092915050565b6000806000610bac611888565b73ffffffffffffffffffffffffffffffffffffffff1663817ad5d3856040518263ffffffff1660e01b8152600401610be49190612059565b60606040518083038186803b158015610bfc57600080fd5b505afa158015610c10573d6000803e3d6000fd5b505050506040513d601f19601f82011682018060405250810190610c349190612d0b565b9250925092509193909250565b610c49611aa3565b610c51611b35565b610c5a81611a80565b6040518060400160405280600281526020017f363000000000000000000000000000000000000000000000000000000000000081525090610cd1576040517f08c379a0000000000000000000000000000000000000000000000000000000008152600401610cc891906128cc565b60405180910390fd5b50610cda611888565b73ffffffffffffffffffffffffffffffffffffffff166381f78151826040518263ffffffff1660e01b8152600401610d129190612059565b600060405180830381600087803b158015610d2c57600080fd5b505af1158015610d40573d6000803e3d6000fd5b5050505050565b610d4f611aa3565b610d57611b35565b610d5f611888565b73ffffffffffffffffffffffffffffffffffffffff16638456cb596040518163ffffffff1660e01b8152600401600060405180830381600087803b158015610da657600080fd5b505af1158015610dba573d6000803e3d6000fd5b50505050565b60008054906101000a900473ffffffffffffffffffffffffffffffffffffffff1681565b60008060009054906101000a900473ffffffffffffffffffffffffffffffffffffffff1673ffffffffffffffffffffffffffffffffffffffff163373ffffffffffffffffffffffffffffffffffffffff1614905090565b610e43610de4565b610e82576040517f08c379a0000000000000000000000000000000000000000000000000000000008152600401610e7990612daa565b60405180910390fd5b80600260006101000a81548173ffffffffffffffffffffffffffffffffffffffff021916908373ffffffffffffffffffffffffffffffffffffffff1602179055507ffc80377ca9c49cc11ae6982f390a42db976d5530af7c43889264b13fbbd7c57e81604051610ef29190612deb565b60405180910390a150565b6000610f07611888565b73ffffffffffffffffffffffffffffffffffffffff16639cc67a0f836040518263ffffffff1660e01b8152600401610f3f9190612059565b60206040518083038186803b158015610f5757600080fd5b505afa158015610f6b573d6000803e3d6000fd5b505050506040513d601f19601f82011682018060405250810190610f8f91906126f5565b9050919050565b600560009054906101000a900473ffffffffffffffffffffffffffffffffffffffff1681565b610fc4611aa3565b80600360006101000a81548173ffffffffffffffffffffffffffffffffffffffff021916908373ffffffffffffffffffffffffffffffffffffffff16021790555050565b611010611ef8565b61101982611a80565b6040518060400160405280600281526020017f363000000000000000000000000000000000000000000000000000000000000081525090611090576040517f08c379a000000000000000000000000000000000000000000000000000000000815260040161108791906128cc565b60405180910390fd5b50611099611888565b73ffffffffffffffffffffffffffffffffffffffff1663c44b11f7836040518263ffffffff1660e01b81526004016110d19190612059565b60206040518083038186803b1580156110e957600080fd5b505afa1580156110fd573d6000803e3d6000fd5b505050506040513d601f19601f820116820180604052508101906111219190612e06565b9050919050565b611130611aa3565b600061113a611888565b9050600061114787610734565b90508173ffffffffffffffffffffffffffffffffffffffff1663c8caf6808888886040518463ffffffff1660e01b815260040161118693929190612e33565b600060405180830381600087803b1580156111a057600080fd5b505af11580156111b4573d6000803e3d6000fd5b505050508560018111156111cb576111ca6128ee565b5b600060018111156111df576111de6128ee565b5b14156112875780610180015173ffffffffffffffffffffffffffffffffffffffff1663156e29f684876112118b6104d7565b6040518463ffffffff1660e01b815260040161122f93929190612e6a565b602060405180830381600087803b15801561124957600080fd5b505af115801561125d573d6000803e3d6000fd5b505050506040513d601f19601f820116820180604052508101906112819190612ea1565b50611325565b806101a0015173ffffffffffffffffffffffffffffffffffffffff1663156e29f684876112b38b610efd565b6040518463ffffffff1660e01b81526004016112d193929190612e6a565b602060405180830381600087803b1580156112eb57600080fd5b505af11580156112ff573d6000803e3d6000fd5b505050506040513d601f19601f820116820180604052508101906113239190612ea1565b505b600560009054906101000a900473ffffffffffffffffffffffffffffffffffffffff1673ffffffffffffffffffffffffffffffffffffffff16638340f5498886886040518463ffffffff1660e01b815260040161138493929190612ece565b600060405180830381600087803b15801561139e57600080fd5b505af11580156113b2573d6000803e3d6000fd5b50505050600260009054906101000a900473ffffffffffffffffffffffffffffffffffffffff1673ffffffffffffffffffffffffffffffffffffffff1663907dff978786868960405160200161140b9493929190612f05565b60405160208183030381529060405260027fe0ad63c2e86a8ebf7f823e085c5359b98f68acaa20bcebbf2ca47c5ec7be00df8b60405160200161144e9190612f92565b60405160208183030381529060405261146690612ff4565b6000806040518763ffffffff1660e01b815260040161148a96959493929190613137565b600060405180830381600087803b1580156114a457600080fd5b505af11580156114b8573d6000803e3d6000fd5b5050505050505050505050565b600360009054906101000a900473ffffffffffffffffffffffffffffffffffffffff1681565b600160009054906101000a900473ffffffffffffffffffffffffffffffffffffffff1681565b600260009054906101000a900473ffffffffffffffffffffffffffffffffffffffff1681565b61153f610de4565b61157e576040517f08c379a000000000000000000000000000000000000000000000000000000000815260040161157590612daa565b60405180910390fd5b80600160006101000a81548173ffffffffffffffffffffffffffffffffffffffff021916908373ffffffffffffffffffffffffffffffffffffffff16021790555050565b600460009054906101000a900473ffffffffffffffffffffffffffffffffffffffff1681565b6115f0611aa3565b6115f8611b35565b611600611888565b73ffffffffffffffffffffffffffffffffffffffff1663f7b188a56040518163ffffffff1660e01b8152600401600060405180830381600087803b15801561164757600080fd5b505af115801561165b573d6000803e3d6000fd5b50505050565b611669611aa3565b611671611b35565b61167a88611a80565b6040518060400160405280600281526020017f3630000000000000000000000000000000000000000000000000000000000000815250906116f1576040517f08c379a00000000000000000000000000000000000000000000000000000000081526004016116e891906128cc565b60405180910390fd5b506116fa611888565b73ffffffffffffffffffffffffffffffffffffffff1663f820414989898989898989896040518963ffffffff1660e01b815260040161174098979695949392919061319f565b600060405180830381600087803b15801561175a57600080fd5b505af115801561176e573d6000803e3d6000fd5b50505050600260009054906101000a900473ffffffffffffffffffffffffffffffffffffffff1673ffffffffffffffffffffffffffffffffffffffff1663907dff97888888888888886040516020016117cd979695949392919061321d565b60405160208183030381529060405260027fe6fb69e9b1bcbe6be8cdfff8335420ef59e9a8c88539df9ed763a645fba626ae8c6040516020016118109190612f92565b60405160208183030381529060405261182890612ff4565b6000806040518763ffffffff1660e01b815260040161184c96959493929190613137565b600060405180830381600087803b15801561186657600080fd5b505af115801561187a573d6000803e3d6000fd5b505050505050505050505050565b6000600460009054906101000a900473ffffffffffffffffffffffffffffffffffffffff1673ffffffffffffffffffffffffffffffffffffffff166394f674436040518163ffffffff1660e01b815260040160206040518083038186803b1580156118f257600080fd5b505afa158015611906573d6000803e3d6000fd5b505050506040513d601f19601f8201168201806040525081019061192a919061328c565b73ffffffffffffffffffffffffffffffffffffffff166321f8a721600460009054906101000a900473ffffffffffffffffffffffffffffffffffffffff1673ffffffffffffffffffffffffffffffffffffffff1663e7bf1ece6040518163ffffffff1660e01b815260040160206040518083038186803b1580156119ad57600080fd5b505afa1580156119c1573d6000803e3d6000fd5b505050506040513d601f19601f820116820180604052508101906119e591906132e5565b6040518263ffffffff1660e01b8152600401611a019190613312565b60206040518083038186803b158015611a1957600080fd5b505afa158015611a2d573d6000803e3d6000fd5b505050506040513d601f19601f82011682018060405250810190611a51919061328c565b905090565b6000600560009054906101000a900473ffffffffffffffffffffffffffffffffffffffff16905090565b6000808273ffffffffffffffffffffffffffffffffffffffff163b119050919050565b600260009054906101000a900473ffffffffffffffffffffffffffffffffffffffff1673ffffffffffffffffffffffffffffffffffffffff163373ffffffffffffffffffffffffffffffffffffffff1614611b33576040517f08c379a0000000000000000000000000000000000000000000000000000000008152600401611b2a90613379565b60405180910390fd5b565b6000600460009054906101000a900473ffffffffffffffffffffffffffffffffffffffff16905060008173ffffffffffffffffffffffffffffffffffffffff166305a2ee2a6040518163ffffffff1660e01b815260040160206040518083038186803b158015611ba457600080fd5b505afa158015611bb8573d6000803e3d6000fd5b505050506040513d601f19601f82011682018060405250810190611bdc91906133d7565b73ffffffffffffffffffffffffffffffffffffffff166321f8a7218373ffffffffffffffffffffffffffffffffffffffff1663c1943f596040518163ffffffff1660e01b815260040160206040518083038186803b158015611c3d57600080fd5b505afa158015611c51573d6000803e3d6000fd5b505050506040513d601f19601f82011682018060405250810190611c7591906132e5565b6040518263ffffffff1660e01b8152600401611c919190613312565b60206040518083038186803b158015611ca957600080fd5b505afa158015611cbd573d6000803e3d6000fd5b505050506040513d601f19601f82011682018060405250810190611ce1919061328c565b90508073ffffffffffffffffffffffffffffffffffffffff1663df89b344600360009054906101000a900473ffffffffffffffffffffffffffffffffffffffff166040518263ffffffff1660e01b8152600401611d3e9190612059565b60206040518083038186803b158015611d5657600080fd5b505afa158015611d6a573d6000803e3d6000fd5b505050506040513d601f19601f82011682018060405250810190611d8e9190612ea1565b611dcd576040517f08c379a0000000000000000000000000000000000000000000000000000000008152600401611dc490613450565b60405180910390fd5b5050565b60405180606001604052806000815260200160008152602001600081525090565b604051806102200160405280611e06611ef8565b8152602001600081526020016000815260200160008152602001600081526020016000815260200160008152602001600081526020016000815260200160008152602001600073ffffffffffffffffffffffffffffffffffffffff168152602001600073ffffffffffffffffffffffffffffffffffffffff168152602001600073ffffffffffffffffffffffffffffffffffffffff168152602001600073ffffffffffffffffffffffffffffffffffffffff168152602001600073ffffffffffffffffffffffffffffffffffffffff168152602001600064ffffffffff168152602001600064ffffffffff1681525090565b6040518060200160405280600081525090565b6000604051905090565b600080fd5b600080fd5b600073ffffffffffffffffffffffffffffffffffffffff82169050919050565b6000611f4a82611f1f565b9050919050565b611f5a81611f3f565b8114611f6557600080fd5b50565b600081359050611f7781611f51565b92915050565b600060208284031215611f9357611f92611f15565b5b6000611fa184828501611f68565b91505092915050565b6000819050919050565b611fbd81611faa565b82525050565b6000602082019050611fd86000830184611fb4565b92915050565b611fe781611faa565b82525050565b6060820160008201516120036000850182611fde565b5060208201516120166020850182611fde565b5060408201516120296040850182611fde565b50505050565b60006060820190506120446000830184611fed565b92915050565b61205381611f3f565b82525050565b600060208201905061206e600083018461204a565b92915050565b6002811061208157600080fd5b50565b60008135905061209381612074565b92915050565b600080604083850312156120b0576120af611f15565b5b60006120be85828601611f68565b92505060206120cf85828601612084565b9150509250929050565b6020820160008201516120ef6000850182611fde565b50505050565b6120fe81611f3f565b82525050565b600064ffffffffff82169050919050565b61211e81612104565b82525050565b6102208201600082015161213b60008501826120d9565b50602082015161214e6020850182611fde565b5060408201516121616040850182611fde565b5060608201516121746060850182611fde565b5060808201516121876080850182611fde565b5060a082015161219a60a0850182611fde565b5060c08201516121ad60c0850182611fde565b5060e08201516121c060e0850182611fde565b506101008201516121d5610100850182611fde565b506101208201516121ea610120850182611fde565b506101408201516121ff6101408501826120f5565b506101608201516122146101608501826120f5565b506101808201516122296101808501826120f5565b506101a082015161223e6101a08501826120f5565b506101c08201516122536101c08501826120f5565b506101e08201516122686101e0850182612115565b5061020082015161227d610200850182612115565b50505050565b6000610220820190506122996000830184612124565b92915050565b600081519050919050565b600082825260208201905092915050565b6000819050602082019050919050565b60006122d783836120f5565b60208301905092915050565b6000602082019050919050565b60006122fb8261229f565b61230581856122aa565b9350612310836122bb565b8060005b8381101561234157815161232888826122cb565b9750612333836122e3565b925050600181019050612314565b5085935050505092915050565b6000602082019050818103600083015261236881846122f0565b905092915050565b60008115159050919050565b61238581612370565b82525050565b60006060820190506123a0600083018661237c565b6123ad602083018561237c565b6123ba604083018461237c565b949350505050565b60006020820190506123d7600083018461237c565b92915050565b60006123e882611f1f565b9050919050565b6123f8816123dd565b811461240357600080fd5b50565b600081359050612415816123ef565b92915050565b60006020828403121561243157612430611f15565b5b600061243f84828501612406565b91505092915050565b6000819050919050565b600061246d61246861246384611f1f565b612448565b611f1f565b9050919050565b600061247f82612452565b9050919050565b600061249182612474565b9050919050565b6124a181612486565b82525050565b60006020820190506124bc6000830184612498565b92915050565b6020820160008201516124d86000850182611fde565b50505050565b60006020820190506124f360008301846124c2565b92915050565b61250281611faa565b811461250d57600080fd5b50565b60008135905061251f816124f9565b92915050565b600080600080600060a0868803121561254157612540611f15565b5b600061254f88828901611f68565b955050602061256088828901612084565b945050604061257188828901612510565b935050606061258288828901611f68565b925050608061259388828901611f68565b9150509295509295909350565b60006125ab82612452565b9050919050565b60006125bd826125a0565b9050919050565b6125cd816125b2565b82525050565b60006020820190506125e860008301846125c4565b92915050565b60006125f982612474565b9050919050565b612609816125ee565b82525050565b60006020820190506126246000830184612600565b92915050565b600080600080600080600080610100898b03121561264b5761264a611f15565b5b60006126598b828c01611f68565b985050602061266a8b828c01611f68565b975050604061267b8b828c01611f68565b965050606061268c8b828c01612510565b955050608061269d8b828c01612510565b94505060a06126ae8b828c01611f68565b93505060c06126bf8b828c01611f68565b92505060e06126d08b828c01611f68565b9150509295985092959890939650565b6000815190506126ef816124f9565b92915050565b60006020828403121561270b5761270a611f15565b5b6000612719848285016126e0565b91505092915050565b600080fd5b6000601f19601f8301169050919050565b7f4e487b7100000000000000000000000000000000000000000000000000000000600052604160045260246000fd5b61277082612727565b810181811067ffffffffffffffff8211171561278f5761278e612738565b5b80604052505050565b60006127a2611f0b565b90506127ae8282612767565b919050565b6000606082840312156127c9576127c8612722565b5b6127d36060612798565b905060006127e3848285016126e0565b60008301525060206127f7848285016126e0565b602083015250604061280b848285016126e0565b60408301525092915050565b60006060828403121561282d5761282c611f15565b5b600061283b848285016127b3565b91505092915050565b600081519050919050565b600082825260208201905092915050565b60005b8381101561287e578082015181840152602081019050612863565b8381111561288d576000848401525b50505050565b600061289e82612844565b6128a8818561284f565b93506128b8818560208601612860565b6128c181612727565b840191505092915050565b600060208201905081810360008301526128e68184612893565b905092915050565b7f4e487b7100000000000000000000000000000000000000000000000000000000600052602160045260246000fd5b6002811061292e5761292d6128ee565b5b50565b600081905061293f8261291d565b919050565b600061294f82612931565b9050919050565b61295f81612944565b82525050565b600060408201905061297a600083018561204a565b6129876020830184612956565b9392505050565b6000602082840312156129a4576129a3612722565b5b6129ae6020612798565b905060006129be848285016126e0565b60008301525092915050565b6000815190506129d981611f51565b92915050565b6129e881612104565b81146129f357600080fd5b50565b600081519050612a05816129df565b92915050565b60006102208284031215612a2257612a21612722565b5b612a2d610220612798565b90506000612a3d8482850161298e565b6000830152506020612a51848285016126e0565b6020830152506040612a65848285016126e0565b6040830152506060612a79848285016126e0565b6060830152506080612a8d848285016126e0565b60808301525060a0612aa1848285016126e0565b60a08301525060c0612ab5848285016126e0565b60c08301525060e0612ac9848285016126e0565b60e083015250610100612ade848285016126e0565b61010083015250610120612af4848285016126e0565b61012083015250610140612b0a848285016129ca565b61014083015250610160612b20848285016129ca565b61016083015250610180612b36848285016129ca565b610180830152506101a0612b4c848285016129ca565b6101a0830152506101c0612b62848285016129ca565b6101c0830152506101e0612b78848285016129f6565b6101e083015250610200612b8e848285016129f6565b6102008301525092915050565b60006102208284031215612bb257612bb1611f15565b5b6000612bc084828501612a0b565b91505092915050565b600080fd5b600067ffffffffffffffff821115612be957612be8612738565b5b602082029050602081019050919050565b600080fd5b6000612c12612c0d84612bce565b612798565b90508083825260208201905060208402830185811115612c3557612c34612bfa565b5b835b81811015612c5e5780612c4a88826129ca565b845260208401935050602081019050612c37565b5050509392505050565b600082601f830112612c7d57612c7c612bc9565b5b8151612c8d848260208601612bff565b91505092915050565b600060208284031215612cac57612cab611f15565b5b600082015167ffffffffffffffff811115612cca57612cc9611f1a565b5b612cd684828501612c68565b91505092915050565b612ce881612370565b8114612cf357600080fd5b50565b600081519050612d0581612cdf565b92915050565b600080600060608486031215612d2457612d23611f15565b5b6000612d3286828701612cf6565b9350506020612d4386828701612cf6565b9250506040612d5486828701612cf6565b9150509250925092565b7f4f776e61626c653a2063616c6c6572206973206e6f7420746865206f776e6572600082015250565b6000612d9460208361284f565b9150612d9f82612d5e565b602082019050919050565b60006020820190508181036000830152612dc381612d87565b9050919050565b6000612dd582612474565b9050919050565b612de581612dca565b82525050565b6000602082019050612e006000830184612ddc565b92915050565b600060208284031215612e1c57612e1b611f15565b5b6000612e2a8482850161298e565b91505092915050565b6000606082019050612e48600083018661204a565b612e556020830185612956565b612e626040830184611fb4565b949350505050565b6000606082019050612e7f600083018661204a565b612e8c6020830185611fb4565b612e996040830184611fb4565b949350505050565b600060208284031215612eb757612eb6611f15565b5b6000612ec584828501612cf6565b91505092915050565b6000606082019050612ee3600083018661204a565b612ef0602083018561204a565b612efd6040830184611fb4565b949350505050565b6000608082019050612f1a6000830187612956565b612f27602083018661204a565b612f34604083018561204a565b612f416060830184611fb4565b95945050505050565b60008160601b9050919050565b6000612f6282612f4a565b9050919050565b6000612f7482612f57565b9050919050565b612f8c612f8782611f3f565b612f69565b82525050565b6000612f9e8284612f7b565b60148201915081905092915050565b600081519050919050565b6000819050602082019050919050565b6000819050919050565b6000612fde8251612fc8565b80915050919050565b600082821b905092915050565b6000612fff82612fad565b8261300984612fb8565b905061301481612fd2565b925060208210156130545761304f7fffffffffffffffffffffffffffffffffffffffffffffffffffffffffffffffff83602003600802612fe7565b831692505b5050919050565b600082825260208201905092915050565b600061307782612fad565b613081818561305b565b9350613091818560208601612860565b61309a81612727565b840191505092915050565b6000819050919050565b60006130ca6130c56130c0846130a5565b612448565b611faa565b9050919050565b6130da816130af565b82525050565b6130e981612fc8565b82525050565b6000819050919050565b60008160001b9050919050565b600061312161311c613117846130ef565b6130f9565b612fc8565b9050919050565b61313181613106565b82525050565b600060c0820190508181036000830152613151818961306c565b905061316060208301886130d1565b61316d60408301876130e0565b61317a60608301866130e0565b6131876080830185613128565b61319460a0830184613128565b979650505050505050565b6000610100820190506131b5600083018b61204a565b6131c2602083018a61204a565b6131cf604083018961204a565b6131dc6060830188611fb4565b6131e96080830187611fb4565b6131f660a083018661204a565b61320360c083018561204a565b61321060e083018461204a565b9998505050505050505050565b600060e082019050613232600083018a61204a565b61323f602083018961204a565b61324c6040830188611fb4565b6132596060830187611fb4565b613266608083018661204a565b61327360a083018561204a565b61328060c083018461204a565b98975050505050505050565b6000602082840312156132a2576132a1611f15565b5b60006132b0848285016129ca565b91505092915050565b6132c281612fc8565b81146132cd57600080fd5b50565b6000815190506132df816132b9565b92915050565b6000602082840312156132fb576132fa611f15565b5b6000613309848285016132d0565b91505092915050565b600060208201905061332760008301846130e0565b92915050565b7f4f6e6c79207468652070726f78792063616e2063616c6c000000000000000000600082015250565b600061336360178361284f565b915061336e8261332d565b602082019050919050565b6000602082019050818103600083015261339281613356565b9050919050565b60006133a482611f3f565b9050919050565b6133b481613399565b81146133bf57600080fd5b50565b6000815190506133d1816133ab565b92915050565b6000602082840312156133ed576133ec611f15565b5b60006133fb848285016133c2565b91505092915050565b7f4e6f74207661756c742061646d696e0000000000000000000000000000000000600082015250565b600061343a600f8361284f565b915061344582613404565b602082019050919050565b600060208201905081810360008301526134698161342d565b905091905056fea2646970667358221220efbc84a9ee7f73632c134f83b1421cdfd33319496371c68266097b8d21766acf64736f6c63430008090033608060405262093a80600360006101000a81548164ffffffffff021916908364ffffffffff16021790555034801561003657600080fd5b5060016000819055506124d28061004e6000396000f3fe60806040526004361061007b5760003560e01c80639932f0361161004e5780639932f0361461013f578063b8ba16fd1461017c578063beabacc8146101b9578063d9caed12146101e25761007b565b806319ab453c1461008057806370a08231146100a95780638340f549146100e6578063930f8f5e14610102575b600080fd5b34801561008c57600080fd5b506100a760048036038101906100a29190611786565b61020b565b005b3480156100b557600080fd5b506100d060048036038101906100cb9190611786565b61027f565b6040516100dd91906117cc565b60405180910390f35b61010060048036038101906100fb9190611813565b610311565b005b34801561010e57600080fd5b5061012960048036038101906101249190611866565b61037f565b60405161013691906117cc565b60405180910390f35b34801561014b57600080fd5b5061016660048036038101906101619190611866565b6104cb565b60405161017391906119b3565b60405180910390f35b34801561018857600080fd5b506101a3600480360381019061019e9190611786565b6105e0565b6040516101b091906117cc565b60405180910390f35b3480156101c557600080fd5b506101e060048036038101906101db9190611a13565b610629565b005b3480156101ee57600080fd5b5061020960048036038101906102049190611a13565b6106c4565b005b600360199054906101000a900460ff1661027c5780600360056101000a81548173ffffffffffffffffffffffffffffffffffffffff021916908373ffffffffffffffffffffffffffffffffffffffff1602179055506001600360196101000a81548160ff0219169083151502179055505b50565b60008173ffffffffffffffffffffffffffffffffffffffff166370a08231306040518263ffffffff1660e01b81526004016102ba9190611a75565b60206040518083038186803b1580156102d257600080fd5b505afa1580156102e6573d6000803e3d6000fd5b505050506040513d601f19601f8201168201806040525081019061030a9190611aa5565b9050919050565b60026000541415610357576040517f08c379a000000000000000000000000000000000000000000000000000000000815260040161034e90611b2f565b60405180910390fd5b60026000819055506103676106dc565b610372838383610978565b6001600081905550505050565b600080600260008573ffffffffffffffffffffffffffffffffffffffff1673ffffffffffffffffffffffffffffffffffffffff16815260200190815260200160002060008473ffffffffffffffffffffffffffffffffffffffff1673ffffffffffffffffffffffffffffffffffffffff16815260200190815260200160002090506000805b82805490508110156104bf57600360009054906101000a900464ffffffffff1664ffffffffff1683828154811061043e5761043d611b4f565b5b906000526020600020906002020160010160009054906101000a900464ffffffffff164261046c9190611bad565b64ffffffffff1611156104ac5782818154811061048c5761048b611b4f565b5b906000526020600020906002020160000154826104a99190611be1565b91505b80806104b790611c37565b915050610404565b50809250505092915050565b60606000600260008573ffffffffffffffffffffffffffffffffffffffff1673ffffffffffffffffffffffffffffffffffffffff16815260200190815260200160002060008473ffffffffffffffffffffffffffffffffffffffff1673ffffffffffffffffffffffffffffffffffffffff168152602001908152602001600020905080805480602002602001604051908101604052809291908181526020016000905b828210156105d35783829060005260206000209060020201604051806040016040529081600082015481526020016001820160009054906101000a900464ffffffffff1664ffffffffff1664ffffffffff16815250508152602001906001019061056e565b5050505091505092915050565b6000600160008373ffffffffffffffffffffffffffffffffffffffff1673ffffffffffffffffffffffffffffffffffffffff168152602001908152602001600020549050919050565b610631610c11565b8273ffffffffffffffffffffffffffffffffffffffff1663a9059cbb83836040518363ffffffff1660e01b815260040161066c929190611cdf565b602060405180830381600087803b15801561068657600080fd5b505af115801561069a573d6000803e3d6000fd5b505050506040513d601f19601f820116820180604052508101906106be9190611d40565b50505050565b6106cc6106dc565b6106d7838383610e8b565b505050565b6000600360059054906101000a900473ffffffffffffffffffffffffffffffffffffffff1690506000600360059054906101000a900473ffffffffffffffffffffffffffffffffffffffff1673ffffffffffffffffffffffffffffffffffffffff166305a2ee2a6040518163ffffffff1660e01b815260040160206040518083038186803b15801561076d57600080fd5b505afa158015610781573d6000803e3d6000fd5b505050506040513d601f19601f820116820180604052508101906107a59190611dab565b73ffffffffffffffffffffffffffffffffffffffff166321f8a7218373ffffffffffffffffffffffffffffffffffffffff1663c1943f596040518163ffffffff1660e01b815260040160206040518083038186803b15801561080657600080fd5b505afa15801561081a573d6000803e3d6000fd5b505050506040513d601f19601f8201168201806040525081019061083e9190611e0e565b6040518263ffffffff1660e01b815260040161085a9190611e4a565b60206040518083038186803b15801561087257600080fd5b505afa158015610886573d6000803e3d6000fd5b505050506040513d601f19601f820116820180604052508101906108aa9190611e7a565b90508073ffffffffffffffffffffffffffffffffffffffff1663abd02480336040518263ffffffff1660e01b81526004016108e59190611a75565b60206040518083038186803b1580156108fd57600080fd5b505afa158015610911573d6000803e3d6000fd5b505050506040513d601f19601f820116820180604052508101906109359190611d40565b610974576040517f08c379a000000000000000000000000000000000000000000000000000000000815260040161096b90611ef3565b60405180910390fd5b5050565b61098061125e565b73ffffffffffffffffffffffffffffffffffffffff168373ffffffffffffffffffffffffffffffffffffffff1614610a2757600034146109f5576040517f08c379a00000000000000000000000000000000000000000000000000000000081526004016109ec90611f85565b60405180910390fd5b610a228230838673ffffffffffffffffffffffffffffffffffffffff1661127a909392919063ffffffff16565b610a6a565b803414610a69576040517f08c379a0000000000000000000000000000000000000000000000000000000008152600401610a6090612017565b60405180910390fd5b5b80600160008573ffffffffffffffffffffffffffffffffffffffff1673ffffffffffffffffffffffffffffffffffffffff1681526020019081526020016000206000828254610ab99190611be1565b92505081905550600060405180604001604052808381526020014264ffffffffff168152509050600260008573ffffffffffffffffffffffffffffffffffffffff1673ffffffffffffffffffffffffffffffffffffffff16815260200190815260200160002060008473ffffffffffffffffffffffffffffffffffffffff1673ffffffffffffffffffffffffffffffffffffffff1681526020019081526020016000208190806001815401808255809150506001900390600052602060002090600202016000909190919091506000820151816000015560208201518160010160006101000a81548164ffffffffff021916908364ffffffffff16021790555050508273ffffffffffffffffffffffffffffffffffffffff167f8752a472e571a816aea92eec8dae9baf628e840f4929fbcc2d155e6233ff68a78584604051610c03929190612037565b60405180910390a250505050565b6000600360059054906101000a900473ffffffffffffffffffffffffffffffffffffffff16905060008173ffffffffffffffffffffffffffffffffffffffff166305a2ee2a6040518163ffffffff1660e01b815260040160206040518083038186803b158015610c8057600080fd5b505afa158015610c94573d6000803e3d6000fd5b505050506040513d601f19601f82011682018060405250810190610cb89190611dab565b73ffffffffffffffffffffffffffffffffffffffff166321f8a7218373ffffffffffffffffffffffffffffffffffffffff1663c1943f596040518163ffffffff1660e01b815260040160206040518083038186803b158015610d1957600080fd5b505afa158015610d2d573d6000803e3d6000fd5b505050506040513d601f19601f82011682018060405250810190610d519190611e0e565b6040518263ffffffff1660e01b8152600401610d6d9190611e4a565b60206040518083038186803b158015610d8557600080fd5b505afa158015610d99573d6000803e3d6000fd5b505050506040513d601f19601f82011682018060405250810190610dbd9190611e7a565b90508073ffffffffffffffffffffffffffffffffffffffff166395b32a66336040518263ffffffff1660e01b8152600401610df89190611a75565b60206040518083038186803b158015610e1057600080fd5b505afa158015610e24573d6000803e3d6000fd5b505050506040513d601f19601f82011682018060405250810190610e489190611d40565b610e87576040517f08c379a0000000000000000000000000000000000000000000000000000000008152600401610e7e90611ef3565b60405180910390fd5b5050565b6000600260008573ffffffffffffffffffffffffffffffffffffffff1673ffffffffffffffffffffffffffffffffffffffff16815260200190815260200160002060008473ffffffffffffffffffffffffffffffffffffffff1673ffffffffffffffffffffffffffffffffffffffff168152602001908152602001600020905060008080600090505b838054905081101561104b57600360009054906101000a900464ffffffffff1664ffffffffff16848281548110610f4e57610f4d611b4f565b5b906000526020600020906002020160010160009054906101000a900464ffffffffff1642610f7c9190611bad565b64ffffffffff16111561103857838181548110610f9c57610f9b611b4f565b5b90600052602060002090600202016000015483610fb99190611be1565b9250838181548110610fce57610fcd611b4f565b5b906000526020600020906002020160010160009054906101000a900464ffffffffff16915083818154811061100657611005611b4f565b5b90600052602060002090600202016000808201600090556001820160006101000a81549064ffffffffff021916905550505b808061104390611c37565b915050610f14565b508382101561108f576040517f08c379a0000000000000000000000000000000000000000000000000000000008152600401611086906120d2565b60405180910390fd5b838211156111a557600084836110a591906120f2565b9050600060405180604001604052808381526020018464ffffffffff168152509050600260008973ffffffffffffffffffffffffffffffffffffffff1673ffffffffffffffffffffffffffffffffffffffff16815260200190815260200160002060008873ffffffffffffffffffffffffffffffffffffffff1673ffffffffffffffffffffffffffffffffffffffff1681526020019081526020016000208190806001815401808255809150506001900390600052602060002090600202016000909190919091506000820151816000015560208201518160010160006101000a81548164ffffffffff021916908364ffffffffff160217905550505050505b83600160008873ffffffffffffffffffffffffffffffffffffffff1673ffffffffffffffffffffffffffffffffffffffff16815260200190815260200160002060008282546111f491906120f2565b92505081905550611206868686611303565b8473ffffffffffffffffffffffffffffffffffffffff167fd1c19fbcd4551a5edfb66d43d2e337c04837afda3482b42bdf569a8fccdae5fb878660405161124e929190612037565b60405180910390a2505050505050565b600073eeeeeeeeeeeeeeeeeeeeeeeeeeeeeeeeeeeeeeee905090565b6112fd846323b872dd60e01b85858560405160240161129b93929190612126565b604051602081830303815290604052907bffffffffffffffffffffffffffffffffffffffffffffffffffffffff19166020820180517bffffffffffffffffffffffffffffffffffffffffffffffffffffffff8381831617835250505050611420565b50505050565b61130b61125e565b73ffffffffffffffffffffffffffffffffffffffff168373ffffffffffffffffffffffffffffffffffffffff161461136d5761136882828573ffffffffffffffffffffffffffffffffffffffff166114e79092919063ffffffff16565b61141b565b60008273ffffffffffffffffffffffffffffffffffffffff16826040516113939061218e565b60006040518083038185875af1925050503d80600081146113d0576040519150601f19603f3d011682016040523d82523d6000602084013e6113d5565b606091505b5050905080611419576040517f08c379a0000000000000000000000000000000000000000000000000000000008152600401611410906121ef565b60405180910390fd5b505b505050565b6000611482826040518060400160405280602081526020017f5361666545524332303a206c6f772d6c6576656c2063616c6c206661696c65648152508573ffffffffffffffffffffffffffffffffffffffff1661156d9092919063ffffffff16565b90506000815111156114e257808060200190518101906114a29190611d40565b6114e1576040517f08c379a00000000000000000000000000000000000000000000000000000000081526004016114d890612281565b60405180910390fd5b5b505050565b6115688363a9059cbb60e01b8484604051602401611506929190612037565b604051602081830303815290604052907bffffffffffffffffffffffffffffffffffffffffffffffffffffffff19166020820180517bffffffffffffffffffffffffffffffffffffffffffffffffffffffff8381831617835250505050611420565b505050565b606061157c8484600085611585565b90509392505050565b6060824710156115ca576040517f08c379a00000000000000000000000000000000000000000000000000000000081526004016115c190612313565b60405180910390fd5b6115d385611699565b611612576040517f08c379a00000000000000000000000000000000000000000000000000000000081526004016116099061237f565b60405180910390fd5b6000808673ffffffffffffffffffffffffffffffffffffffff16858760405161163b919061240e565b60006040518083038185875af1925050503d8060008114611678576040519150601f19603f3d011682016040523d82523d6000602084013e61167d565b606091505b509150915061168d8282866116bc565b92505050949350505050565b6000808273ffffffffffffffffffffffffffffffffffffffff163b119050919050565b606083156116cc5782905061171c565b6000835111156116df5782518084602001fd5b816040517f08c379a0000000000000000000000000000000000000000000000000000000008152600401611713919061247a565b60405180910390fd5b9392505050565b600080fd5b600073ffffffffffffffffffffffffffffffffffffffff82169050919050565b600061175382611728565b9050919050565b61176381611748565b811461176e57600080fd5b50565b6000813590506117808161175a565b92915050565b60006020828403121561179c5761179b611723565b5b60006117aa84828501611771565b91505092915050565b6000819050919050565b6117c6816117b3565b82525050565b60006020820190506117e160008301846117bd565b92915050565b6117f0816117b3565b81146117fb57600080fd5b50565b60008135905061180d816117e7565b92915050565b60008060006060848603121561182c5761182b611723565b5b600061183a86828701611771565b935050602061184b86828701611771565b925050604061185c868287016117fe565b9150509250925092565b6000806040838503121561187d5761187c611723565b5b600061188b85828601611771565b925050602061189c85828601611771565b9150509250929050565b600081519050919050565b600082825260208201905092915050565b6000819050602082019050919050565b6118db816117b3565b82525050565b600064ffffffffff82169050919050565b6118fb816118e1565b82525050565b60408201600082015161191760008501826118d2565b50602082015161192a60208501826118f2565b50505050565b600061193c8383611901565b60408301905092915050565b6000602082019050919050565b6000611960826118a6565b61196a81856118b1565b9350611975836118c2565b8060005b838110156119a657815161198d8882611930565b975061199883611948565b925050600181019050611979565b5085935050505092915050565b600060208201905081810360008301526119cd8184611955565b905092915050565b60006119e082611728565b9050919050565b6119f0816119d5565b81146119fb57600080fd5b50565b600081359050611a0d816119e7565b92915050565b600080600060608486031215611a2c57611a2b611723565b5b6000611a3a86828701611771565b9350506020611a4b868287016119fe565b9250506040611a5c868287016117fe565b9150509250925092565b611a6f81611748565b82525050565b6000602082019050611a8a6000830184611a66565b92915050565b600081519050611a9f816117e7565b92915050565b600060208284031215611abb57611aba611723565b5b6000611ac984828501611a90565b91505092915050565b600082825260208201905092915050565b7f5265656e7472616e637947756172643a207265656e7472616e742063616c6c00600082015250565b6000611b19601f83611ad2565b9150611b2482611ae3565b602082019050919050565b60006020820190508181036000830152611b4881611b0c565b9050919050565b7f4e487b7100000000000000000000000000000000000000000000000000000000600052603260045260246000fd5b7f4e487b7100000000000000000000000000000000000000000000000000000000600052601160045260246000fd5b6000611bb8826118e1565b9150611bc3836118e1565b925082821015611bd657611bd5611b7e565b5b828203905092915050565b6000611bec826117b3565b9150611bf7836117b3565b9250827fffffffffffffffffffffffffffffffffffffffffffffffffffffffffffffffff03821115611c2c57611c2b611b7e565b5b828201905092915050565b6000611c42826117b3565b91507fffffffffffffffffffffffffffffffffffffffffffffffffffffffffffffffff821415611c7557611c74611b7e565b5b600182019050919050565b6000819050919050565b6000611ca5611ca0611c9b84611728565b611c80565b611728565b9050919050565b6000611cb782611c8a565b9050919050565b6000611cc982611cac565b9050919050565b611cd981611cbe565b82525050565b6000604082019050611cf46000830185611cd0565b611d0160208301846117bd565b9392505050565b60008115159050919050565b611d1d81611d08565b8114611d2857600080fd5b50565b600081519050611d3a81611d14565b92915050565b600060208284031215611d5657611d55611723565b5b6000611d6484828501611d2b565b91505092915050565b6000611d7882611748565b9050919050565b611d8881611d6d565b8114611d9357600080fd5b50565b600081519050611da581611d7f565b92915050565b600060208284031215611dc157611dc0611723565b5b6000611dcf84828501611d96565b91505092915050565b6000819050919050565b611deb81611dd8565b8114611df657600080fd5b50565b600081519050611e0881611de2565b92915050565b600060208284031215611e2457611e23611723565b5b6000611e3284828501611df9565b91505092915050565b611e4481611dd8565b82525050565b6000602082019050611e5f6000830184611e3b565b92915050565b600081519050611e748161175a565b92915050565b600060208284031215611e9057611e8f611723565b5b6000611e9e84828501611e65565b91505092915050565b7f4e6f74206c6971756964697479206d616e6167657220636f6e74726163740000600082015250565b6000611edd601e83611ad2565b9150611ee882611ea7565b602082019050919050565b60006020820190508181036000830152611f0c81611ed0565b9050919050565b7f557365722069732073656e64696e672045544820616c6f6e672077697468207460008201527f6865204552433230207472616e736665722e0000000000000000000000000000602082015250565b6000611f6f603283611ad2565b9150611f7a82611f13565b604082019050919050565b60006020820190508181036000830152611f9e81611f62565b9050919050565b7f54686520616d6f756e7420616e64207468652076616c75652073656e7420746f60008201527f206465706f73697420646f206e6f74206d617463680000000000000000000000602082015250565b6000612001603583611ad2565b915061200c82611fa5565b604082019050919050565b6000602082019050818103600083015261203081611ff4565b9050919050565b600060408201905061204c6000830185611a66565b61205960208301846117bd565b9392505050565b7f446f206e6f74206861766520656e6f75676820616d6f756e7420746f2077697460008201527f6864726177000000000000000000000000000000000000000000000000000000602082015250565b60006120bc602583611ad2565b91506120c782612060565b604082019050919050565b600060208201905081810360008301526120eb816120af565b9050919050565b60006120fd826117b3565b9150612108836117b3565b92508282101561211b5761211a611b7e565b5b828203905092915050565b600060608201905061213b6000830186611a66565b6121486020830185611a66565b61215560408301846117bd565b949350505050565b600081905092915050565b50565b600061217860008361215d565b915061218382612168565b600082019050919050565b60006121998261216b565b9150819050919050565b7f5472616e73666572206f6620455448206661696c656400000000000000000000600082015250565b60006121d9601683611ad2565b91506121e4826121a3565b602082019050919050565b60006020820190508181036000830152612208816121cc565b9050919050565b7f5361666545524332303a204552433230206f7065726174696f6e20646964206e60008201527f6f74207375636365656400000000000000000000000000000000000000000000602082015250565b600061226b602a83611ad2565b91506122768261220f565b604082019050919050565b6000602082019050818103600083015261229a8161225e565b9050919050565b7f416464726573733a20696e73756666696369656e742062616c616e636520666f60008201527f722063616c6c0000000000000000000000000000000000000000000000000000602082015250565b60006122fd602683611ad2565b9150612308826122a1565b604082019050919050565b6000602082019050818103600083015261232c816122f0565b9050919050565b7f416464726573733a2063616c6c20746f206e6f6e2d636f6e7472616374000000600082015250565b6000612369601d83611ad2565b915061237482612333565b602082019050919050565b600060208201905081810360008301526123988161235c565b9050919050565b600081519050919050565b60005b838110156123c85780820151818401526020810190506123ad565b838111156123d7576000848401525b50505050565b60006123e88261239f565b6123f2818561215d565b93506124028185602086016123aa565b80840191505092915050565b600061241a82846123dd565b915081905092915050565b600081519050919050565b6000601f19601f8301169050919050565b600061244c82612425565b6124568185611ad2565b93506124668185602086016123aa565b61246f81612430565b840191505092915050565b600060208201905081810360008301526124948184612441565b90509291505056fea264697066735822122027d690c8ee08012e2f7d1cfd330999be00c6bd5113880845b731dc1ecbda1e9264736f6c63430008090033",
  "devdoc": {
    "kind": "dev",
    "methods": {
      "activeReserve(address)": {
        "details": "Active a reserve for borrowing",
        "params": {
          "_asset": "The address of the reserve*"
        }
      },
      "claimOwnership()": {
        "details": "Allows the pendingOwner address to finalize the transfer."
      },
      "initReserve(address,address,address,uint256,uint256,address,address,address)": {
        "details": "Initializes a reserve, activating it, assigning two deposit tokens and an interest rate strategy Only callable by protocol operator",
        "params": {
          "_asset": "The address of the underlying asset of the reserve",
          "_interestRateStrategyAddress": "The address of the interest rate strategy contract*",
          "_juniorDepositTokenAddress": "The address of the junior deposit token that will be assigned to the reserve",
          "_juniorIncomeAllocation": "Junior income allocation, express in RAY",
          "_seniorDepositTokenAddress": "The address of the senior deposit token that will be assigned to the reserve",
          "_seniorIncomeAllocation": "Senior income allocation, express in RAY",
          "_stableDebtAddress": "The address of the StableDebtToken that will be assigned to the reserve"
        }
      },
      "isOwner()": {
        "details": "Returns true if the caller is the current owner."
      },
      "pause()": {
        "details": "Pause the protocol*"
      },
      "transferOwnership(address)": {
        "details": "Allows the current owner to set the pendingOwner address.",
        "params": {
          "newOwner": "The address to transfer ownership to."
        }
      },
      "unPause()": {
        "details": "UnPause the protocol*"
      }
    },
    "version": 1
  },
  "userdoc": {
    "kind": "user",
    "methods": {},
    "version": 1
  },
  "storageLayout": {
    "storage": [
      {
        "astId": 7987,
        "contract": "contracts/component/liquiditymanager/LiquidityManager.sol:LiquidityManager",
        "label": "owner",
        "offset": 0,
        "slot": "0",
        "type": "t_address"
      },
      {
        "astId": 7989,
        "contract": "contracts/component/liquiditymanager/LiquidityManager.sol:LiquidityManager",
        "label": "pendingOwner",
        "offset": 0,
        "slot": "1",
        "type": "t_address"
      },
      {
        "astId": 8180,
        "contract": "contracts/component/liquiditymanager/LiquidityManager.sol:LiquidityManager",
        "label": "proxy",
        "offset": 0,
        "slot": "2",
        "type": "t_contract(Proxy)8171"
      },
      {
        "astId": 8182,
        "contract": "contracts/component/liquiditymanager/LiquidityManager.sol:LiquidityManager",
        "label": "messageSender",
        "offset": 0,
        "slot": "3",
        "type": "t_address"
      },
      {
        "astId": 5887,
        "contract": "contracts/component/liquiditymanager/LiquidityManager.sol:LiquidityManager",
        "label": "voyager",
        "offset": 0,
        "slot": "4",
        "type": "t_contract(Voyager)486"
      },
      {
        "astId": 1230,
        "contract": "contracts/component/liquiditymanager/LiquidityManager.sol:LiquidityManager",
        "label": "liquidityDepositEscrow",
        "offset": 0,
        "slot": "5",
        "type": "t_contract(LiquidityDepositEscrow)2427"
      }
    ],
    "types": {
      "t_address": {
        "encoding": "inplace",
        "label": "address",
        "numberOfBytes": "20"
      },
      "t_contract(LiquidityDepositEscrow)2427": {
        "encoding": "inplace",
        "label": "contract LiquidityDepositEscrow",
        "numberOfBytes": "20"
      },
      "t_contract(Proxy)8171": {
        "encoding": "inplace",
        "label": "contract Proxy",
        "numberOfBytes": "20"
      },
      "t_contract(Voyager)486": {
        "encoding": "inplace",
        "label": "contract Voyager",
        "numberOfBytes": "20"
      }
    }
  }
}