{
  "address": "0xC9a80cfB2BFF020756120ED0694306521EF42E4F",
  "abi": [
    {
      "inputs": [
        {
          "internalType": "address",
          "name": "_liquidityManager",
          "type": "address"
        }
      ],
      "stateMutability": "nonpayable",
      "type": "constructor"
    },
    {
      "anonymous": false,
      "inputs": [
        {
          "indexed": false,
          "internalType": "address",
          "name": "associatedContract",
          "type": "address"
        }
      ],
      "name": "AssociatedContractUpdated",
      "type": "event"
    },
    {
      "anonymous": false,
      "inputs": [
        {
          "indexed": true,
          "internalType": "address",
          "name": "previousOwner",
          "type": "address"
        },
        {
          "indexed": true,
          "internalType": "address",
          "name": "newOwner",
          "type": "address"
        }
      ],
      "name": "OwnershipTransferred",
      "type": "event"
    },
    {
      "inputs": [
        {
          "internalType": "address",
          "name": "_asset",
          "type": "address"
        }
      ],
      "name": "activeReserve",
      "outputs": [],
      "stateMutability": "nonpayable",
      "type": "function"
    },
    {
      "inputs": [
        {
          "internalType": "address",
          "name": "",
          "type": "address"
        }
      ],
      "name": "associatedContracts",
      "outputs": [
        {
          "internalType": "bool",
          "name": "",
          "type": "bool"
        }
      ],
      "stateMutability": "view",
      "type": "function"
    },
    {
      "inputs": [],
      "name": "claimOwnership",
      "outputs": [],
      "stateMutability": "nonpayable",
      "type": "function"
    },
    {
      "inputs": [
        {
          "internalType": "address",
          "name": "_reserve",
          "type": "address"
        }
      ],
      "name": "getBorrowStat",
      "outputs": [
        {
          "components": [
            {
              "internalType": "uint256",
              "name": "totalDebt",
              "type": "uint256"
            },
            {
              "internalType": "uint256",
              "name": "totalInterest",
              "type": "uint256"
            },
            {
              "internalType": "uint256",
              "name": "avgBorrowRate",
              "type": "uint256"
            }
          ],
          "internalType": "struct DataTypes.BorrowStat",
          "name": "",
          "type": "tuple"
        }
      ],
      "stateMutability": "view",
      "type": "function"
    },
    {
      "inputs": [
        {
          "internalType": "address",
          "name": "_asset",
          "type": "address"
        }
      ],
      "name": "getConfiguration",
      "outputs": [
        {
          "components": [
            {
              "internalType": "uint256",
              "name": "data",
              "type": "uint256"
            }
          ],
          "internalType": "struct DataTypes.ReserveConfigurationMap",
          "name": "",
          "type": "tuple"
        }
      ],
      "stateMutability": "view",
      "type": "function"
    },
    {
      "inputs": [
        {
          "internalType": "address",
          "name": "_reserve",
          "type": "address"
        }
      ],
      "name": "getDepositAndDebt",
      "outputs": [
        {
          "components": [
            {
              "internalType": "uint256",
              "name": "juniorDepositAmount",
              "type": "uint256"
            },
            {
              "internalType": "uint256",
              "name": "seniorDepositAmount",
              "type": "uint256"
            },
            {
              "internalType": "uint256",
              "name": "totalDebt",
              "type": "uint256"
            },
            {
              "internalType": "uint256",
              "name": "totalInterest",
              "type": "uint256"
            },
            {
              "internalType": "uint256",
              "name": "avgBorrowRate",
              "type": "uint256"
            }
          ],
          "internalType": "struct DataTypes.DepositAndDebt",
          "name": "",
          "type": "tuple"
        }
      ],
      "stateMutability": "view",
      "type": "function"
    },
    {
      "inputs": [
        {
          "internalType": "address",
          "name": "_reserve",
          "type": "address"
        },
        {
          "internalType": "address",
          "name": "_vault",
          "type": "address"
        },
        {
          "internalType": "uint256",
          "name": "_drawDownId",
          "type": "uint256"
        }
      ],
      "name": "getDrawDownDetail",
      "outputs": [
        {
          "components": [
            {
              "internalType": "uint256",
              "name": "principal",
              "type": "uint256"
            },
            {
              "internalType": "uint256",
              "name": "term",
              "type": "uint256"
            },
            {
              "internalType": "uint256",
              "name": "epoch",
              "type": "uint256"
            },
            {
              "internalType": "uint256",
              "name": "nper",
              "type": "uint256"
            },
            {
              "components": [
                {
                  "internalType": "uint256",
                  "name": "principal",
                  "type": "uint256"
                },
                {
                  "internalType": "uint256",
                  "name": "interest",
                  "type": "uint256"
                },
                {
                  "internalType": "uint256",
                  "name": "pmt",
                  "type": "uint256"
                }
              ],
              "internalType": "struct DataTypes.PMT",
              "name": "pmt",
              "type": "tuple"
            },
            {
              "internalType": "uint256",
              "name": "apr",
              "type": "uint256"
            },
            {
              "internalType": "uint256",
              "name": "borrowAt",
              "type": "uint256"
            },
            {
              "internalType": "uint256",
              "name": "nextPaymentDue",
              "type": "uint256"
            },
            {
              "internalType": "uint256",
              "name": "totalPrincipalPaid",
              "type": "uint256"
            },
            {
              "internalType": "uint256",
              "name": "totalInterestPaid",
              "type": "uint256"
            },
            {
              "internalType": "uint256",
              "name": "paidTimes",
              "type": "uint256"
            }
          ],
          "internalType": "struct DataTypes.DebtDetail",
          "name": "",
          "type": "tuple"
        }
      ],
      "stateMutability": "view",
      "type": "function"
    },
    {
      "inputs": [
        {
          "internalType": "address",
          "name": "_reserve",
          "type": "address"
        },
        {
          "internalType": "address",
          "name": "_vault",
          "type": "address"
        }
      ],
      "name": "getDrawDownList",
      "outputs": [
        {
          "internalType": "uint256",
          "name": "",
          "type": "uint256"
        },
        {
          "internalType": "uint256",
          "name": "",
          "type": "uint256"
        }
      ],
      "stateMutability": "view",
      "type": "function"
    },
    {
      "inputs": [
        {
          "internalType": "address",
          "name": "_asset",
          "type": "address"
        }
      ],
      "name": "getFlags",
      "outputs": [
        {
          "internalType": "bool",
          "name": "",
          "type": "bool"
        },
        {
          "internalType": "bool",
          "name": "",
          "type": "bool"
        },
        {
          "internalType": "bool",
          "name": "",
          "type": "bool"
        }
      ],
      "stateMutability": "view",
      "type": "function"
    },
    {
      "inputs": [
        {
          "internalType": "address",
          "name": "_asset",
          "type": "address"
        }
      ],
      "name": "getJuniorLiquidityIndex",
      "outputs": [
        {
          "internalType": "uint256",
          "name": "",
          "type": "uint256"
        }
      ],
      "stateMutability": "view",
      "type": "function"
    },
    {
      "inputs": [
        {
          "internalType": "address",
          "name": "_asset",
          "type": "address"
        },
        {
          "internalType": "enum ReserveLogic.Tranche",
          "name": "_tranche",
          "type": "uint8"
        }
      ],
      "name": "getLiquidityRate",
      "outputs": [
        {
          "internalType": "uint256",
          "name": "",
          "type": "uint256"
        }
      ],
      "stateMutability": "view",
      "type": "function"
    },
    {
      "inputs": [
        {
          "internalType": "address",
          "name": "_reserve",
          "type": "address"
        },
        {
          "internalType": "address",
          "name": "_vault",
          "type": "address"
        },
        {
          "internalType": "uint256",
          "name": "_drawDown",
          "type": "uint256"
        }
      ],
      "name": "getPMT",
      "outputs": [
        {
          "internalType": "uint256",
          "name": "",
          "type": "uint256"
        },
        {
          "internalType": "uint256",
          "name": "",
          "type": "uint256"
        }
      ],
      "stateMutability": "view",
      "type": "function"
    },
    {
      "inputs": [
        {
          "internalType": "address",
          "name": "_asset",
          "type": "address"
        }
      ],
      "name": "getReserveData",
      "outputs": [
        {
          "components": [
            {
              "components": [
                {
                  "internalType": "uint256",
                  "name": "data",
                  "type": "uint256"
                }
              ],
              "internalType": "struct DataTypes.ReserveConfigurationMap",
              "name": "configuration",
              "type": "tuple"
            },
            {
              "internalType": "uint256",
              "name": "currentOverallLiquidityRate",
              "type": "uint256"
            },
            {
              "internalType": "uint256",
              "name": "currentJuniorLiquidityRate",
              "type": "uint256"
            },
            {
              "internalType": "uint256",
              "name": "currentSeniorLiquidityRate",
              "type": "uint256"
            },
            {
              "internalType": "uint256",
              "name": "juniorLiquidityIndex",
              "type": "uint256"
            },
            {
              "internalType": "uint256",
              "name": "seniorLiquidityIndex",
              "type": "uint256"
            },
            {
              "internalType": "uint256",
              "name": "currentBorrowRate",
              "type": "uint256"
            },
            {
              "internalType": "uint256",
              "name": "securityRequirement",
              "type": "uint256"
            },
            {
              "internalType": "uint256",
              "name": "decimals",
              "type": "uint256"
            },
            {
              "internalType": "address",
              "name": "interestRateStrategyAddress",
              "type": "address"
            },
            {
              "internalType": "address",
              "name": "healthStrategyAddress",
              "type": "address"
            },
            {
              "internalType": "address",
              "name": "loanStrategyAddress",
              "type": "address"
            },
            {
              "internalType": "address",
              "name": "juniorDepositTokenAddress",
              "type": "address"
            },
            {
              "internalType": "address",
              "name": "seniorDepositTokenAddress",
              "type": "address"
            },
            {
              "internalType": "uint40",
              "name": "juniorLastUpdateTimestamp",
              "type": "uint40"
            },
            {
              "internalType": "uint40",
              "name": "seniorLastUpdateTimestamp",
              "type": "uint40"
            },
            {
              "internalType": "uint256",
              "name": "optimalTrancheRatio",
              "type": "uint256"
            },
            {
              "internalType": "uint256",
              "name": "currentIncomeRatio",
              "type": "uint256"
            },
            {
              "internalType": "uint256",
              "name": "optimalIncomeRatio",
              "type": "uint256"
            }
          ],
          "internalType": "struct DataTypes.ReserveData",
          "name": "",
          "type": "tuple"
        }
      ],
      "stateMutability": "view",
      "type": "function"
    },
    {
      "inputs": [],
      "name": "getReserveList",
      "outputs": [
        {
          "internalType": "address[]",
          "name": "",
          "type": "address[]"
        }
      ],
      "stateMutability": "view",
      "type": "function"
    },
    {
      "inputs": [
        {
          "internalType": "address",
          "name": "_asset",
          "type": "address"
        },
        {
          "internalType": "enum ReserveLogic.Tranche",
          "name": "_tranche",
          "type": "uint8"
        }
      ],
      "name": "getReserveNormalizedIncome",
      "outputs": [
        {
          "internalType": "uint256",
          "name": "",
          "type": "uint256"
        }
      ],
      "stateMutability": "view",
      "type": "function"
    },
    {
      "inputs": [
        {
          "internalType": "address",
          "name": "_asset",
          "type": "address"
        }
      ],
      "name": "getSeniorLiquidityIndex",
      "outputs": [
        {
          "internalType": "uint256",
          "name": "",
          "type": "uint256"
        }
      ],
      "stateMutability": "view",
      "type": "function"
    },
    {
      "inputs": [
        {
          "internalType": "address",
          "name": "_reserve",
          "type": "address"
        }
      ],
      "name": "getTotalDebt",
      "outputs": [
        {
          "internalType": "uint256",
          "name": "",
          "type": "uint256"
        },
        {
          "internalType": "uint256",
          "name": "",
          "type": "uint256"
        }
      ],
      "stateMutability": "view",
      "type": "function"
    },
    {
      "inputs": [
        {
          "internalType": "address",
          "name": "_reserve",
          "type": "address"
        },
        {
          "internalType": "address",
          "name": "_vault",
          "type": "address"
        }
      ],
      "name": "getVaultDebt",
      "outputs": [
        {
          "internalType": "uint256",
          "name": "",
          "type": "uint256"
        },
        {
          "internalType": "uint256",
          "name": "",
          "type": "uint256"
        }
      ],
      "stateMutability": "view",
      "type": "function"
    },
    {
      "inputs": [
        {
          "internalType": "address",
          "name": "_asset",
          "type": "address"
        },
        {
          "internalType": "address",
          "name": "_juniorDepositTokenAddress",
          "type": "address"
        },
        {
          "internalType": "address",
          "name": "_seniorDepositTokenAddress",
          "type": "address"
        },
        {
          "internalType": "address",
          "name": "_interestRateStrategyAddress",
          "type": "address"
        },
        {
          "internalType": "address",
          "name": "_healthStrategyAddress",
          "type": "address"
        },
        {
          "internalType": "address",
          "name": "_loanStrategyAddress",
          "type": "address"
        },
        {
          "internalType": "uint256",
          "name": "_optimalIncomeRatio",
          "type": "uint256"
        }
      ],
      "name": "initReserve",
      "outputs": [],
      "stateMutability": "nonpayable",
      "type": "function"
    },
    {
      "inputs": [
        {
          "internalType": "address",
          "name": "_reserve",
          "type": "address"
        },
        {
          "internalType": "address",
          "name": "_vault",
          "type": "address"
        },
        {
          "internalType": "uint256",
          "name": "_principal",
          "type": "uint256"
        },
        {
          "internalType": "uint256",
          "name": "_term",
          "type": "uint256"
        },
        {
          "internalType": "uint256",
          "name": "_epoch",
          "type": "uint256"
        },
        {
          "internalType": "uint256",
          "name": "_apr",
          "type": "uint256"
        }
      ],
      "name": "insertDebt",
      "outputs": [],
      "stateMutability": "nonpayable",
      "type": "function"
    },
    {
      "inputs": [],
      "name": "isOwner",
      "outputs": [
        {
          "internalType": "bool",
          "name": "",
          "type": "bool"
        }
      ],
      "stateMutability": "view",
      "type": "function"
    },
    {
      "inputs": [],
      "name": "owner",
      "outputs": [
        {
          "internalType": "address",
          "name": "",
          "type": "address"
        }
      ],
      "stateMutability": "view",
      "type": "function"
    },
    {
      "inputs": [],
      "name": "pause",
      "outputs": [],
      "stateMutability": "nonpayable",
      "type": "function"
    },
    {
      "inputs": [],
      "name": "paused",
      "outputs": [
        {
          "internalType": "bool",
          "name": "",
          "type": "bool"
        }
      ],
      "stateMutability": "view",
      "type": "function"
    },
    {
      "inputs": [],
      "name": "pendingOwner",
      "outputs": [
        {
          "internalType": "address",
          "name": "",
          "type": "address"
        }
      ],
      "stateMutability": "view",
      "type": "function"
    },
    {
      "inputs": [
        {
          "internalType": "address",
          "name": "_reserve",
          "type": "address"
        },
        {
          "internalType": "address",
          "name": "_vault",
          "type": "address"
        },
        {
          "internalType": "uint256",
          "name": "_drawDownNumber",
          "type": "uint256"
        },
        {
          "internalType": "uint256",
          "name": "_principal",
          "type": "uint256"
        },
        {
          "internalType": "uint256",
          "name": "_interest",
          "type": "uint256"
        }
      ],
      "name": "repay",
      "outputs": [],
      "stateMutability": "nonpayable",
      "type": "function"
    },
    {
      "inputs": [
        {
          "internalType": "address",
          "name": "_associatedContract",
          "type": "address"
        }
      ],
      "name": "setAssociatedContract",
      "outputs": [],
      "stateMutability": "nonpayable",
      "type": "function"
    },
    {
      "inputs": [
        {
          "internalType": "address",
          "name": "newOwner",
          "type": "address"
        }
      ],
      "name": "transferOwnership",
      "outputs": [],
      "stateMutability": "nonpayable",
      "type": "function"
    },
    {
      "inputs": [],
      "name": "unPause",
      "outputs": [],
      "stateMutability": "nonpayable",
      "type": "function"
    },
    {
      "inputs": [
        {
          "internalType": "address",
          "name": "_asset",
          "type": "address"
        },
        {
          "internalType": "uint256",
          "name": "_amount",
          "type": "uint256"
        },
        {
          "internalType": "uint256",
          "name": "_totalDebt",
          "type": "uint256"
        },
        {
          "internalType": "uint256",
          "name": "_avgBorrowRate",
          "type": "uint256"
        }
      ],
      "name": "updateStateOnBorrow",
      "outputs": [],
      "stateMutability": "nonpayable",
      "type": "function"
    },
    {
      "inputs": [
        {
          "internalType": "address",
          "name": "_asset",
          "type": "address"
        },
        {
          "internalType": "enum ReserveLogic.Tranche",
          "name": "_tranche",
          "type": "uint8"
        },
        {
          "internalType": "uint256",
          "name": "_amount",
          "type": "uint256"
        },
        {
          "internalType": "uint256",
          "name": "_totalDebt",
          "type": "uint256"
        },
        {
          "internalType": "uint256",
          "name": "_avgBorrowRate",
          "type": "uint256"
        }
      ],
      "name": "updateStateOnDeposit",
      "outputs": [],
      "stateMutability": "nonpayable",
      "type": "function"
    },
    {
      "inputs": [
        {
          "internalType": "address",
          "name": "_asset",
          "type": "address"
        },
        {
          "internalType": "uint256",
          "name": "_amount",
          "type": "uint256"
        },
        {
          "internalType": "uint256",
          "name": "_totalDebt",
          "type": "uint256"
        },
        {
          "internalType": "uint256",
          "name": "_avgBorrowRate",
          "type": "uint256"
        }
      ],
      "name": "updateStateOnRepayment",
      "outputs": [],
      "stateMutability": "nonpayable",
      "type": "function"
    },
    {
      "inputs": [
        {
          "internalType": "address",
          "name": "_asset",
          "type": "address"
        },
        {
          "internalType": "enum ReserveLogic.Tranche",
          "name": "_tranche",
          "type": "uint8"
        },
        {
          "internalType": "uint256",
          "name": "_amount",
          "type": "uint256"
        },
        {
          "internalType": "uint256",
          "name": "_totalDebt",
          "type": "uint256"
        },
        {
          "internalType": "uint256",
          "name": "_avgBorrowRate",
          "type": "uint256"
        }
      ],
      "name": "updateStateOnWithdraw",
      "outputs": [],
      "stateMutability": "nonpayable",
      "type": "function"
    }
  ],
  "transactionHash": "0x3302324406eaa9d714afa09bcedcca424456e8ca55b7a994be34802fa2983b5c",
  "args": [
    "0x47B1edAd418486464544Fc4ba47EF4980FDB4b2d"
  ],
  "numDeployments": 1,
  "solcInputHash": "5581b7bd0906416eb346441aec54c4cd",
  "bytecode": "0x60806040523480156200001157600080fd5b506040516200292f3803806200292f833981016040819052620000349162000123565b600080546001600160a01b0319163390811782556040518392907f8be0079c531659141344cd1fd0a4f28419497f9722a3daafe3b4186f6b6457e0908290a36000546001600160a01b0316620000c45760405162461bcd60e51b815260206004820152601160248201527013dddb995c881b5d5cdd081899481cd95d607a1b604482015260640160405180910390fd5b6001600160a01b038116600081815260026020908152604091829020805460ff1916600117905590519182527f73f20cff579e8a4086fa607db83867595f1b6a798e718c0bfa0b94a404128e03910160405180910390a1505062000155565b6000602082840312156200013657600080fd5b81516001600160a01b03811681146200014e57600080fd5b9392505050565b6127ca80620001656000396000f3fe608060405234801561001057600080fd5b506004361061020b5760003560e01c806374e175df1161012a5780638da5cb5b116100bd578063e30c39781161008c578063f2fde38b11610071578063f2fde38b14610648578063f46a2bd41461065b578063f7b188a51461066e57600080fd5b8063e30c397814610622578063e3b69f7f1461063557600080fd5b80638da5cb5b146105675780638f32d59b146105925780639cc67a0f146105a5578063c44b11f7146105d157600080fd5b8063817ad5d3116100f9578063817ad5d3146104d657806381f78151146105085780638456cb591461051b5780638a0695fd1461052357600080fd5b806374e175df14610412578063776f6891146104535780637c7c983d146104665780637cb1ca251461048657600080fd5b806343ba2263116101a257806352f445ca1161017157806352f445ca146103a65780635748ff18146103b95780635c975abb146103ec57806366d4c413146103fd57600080fd5b806343ba2263146102f05780634c445bfe146103035780634d44ac4f146103585780634e71e0c81461039e57600080fd5b806335ea6a75116101de57806335ea6a751461028a57806336052e27146102aa5780633de5f35f146102bd5780633e4115a4146102dd57600080fd5b806303d6fa95146102105780630fc3a8be1461024f578063284592b2146102645780632bb25f9814610277575b600080fd5b61023c61021e3660046120a1565b6001600160a01b031660009081526003602052604090206004015490565b6040519081526020015b60405180910390f35b61026261025d3660046120cb565b610676565b005b61023c610272366004612118565b610994565b61026261028536600461214b565b610a56565b61029d6102983660046120a1565b610b78565b60405161024691906121a0565b6102626102b83660046122a7565b610d8b565b6102d06102cb3660046120a1565b610ed9565b60405161024691906122d6565b6102626102eb3660046122f7565b610f3f565b6102626102fe366004612330565b6110cc565b6103166103113660046120a1565b611281565b6040516102469190600060a082019050825182526020830151602083015260408301516040830152606083015160608301526080830151608083015292915050565b6103896103663660046120a1565b6001600160a01b0316600090815260056020526040902080546001909101549091565b60408051928352602083019190915201610246565b610262611451565b6102626103b43660046120a1565b6114d9565b6103dc6103c73660046120a1565b60026020526000908152604090205460ff1681565b6040519015158152602001610246565b60075462010000900460ff166103dc565b6104056115ab565b60405161024691906123af565b6103896104203660046123fc565b6001600160a01b039182166000908152600460209081526040808320939094168252919091522080546001909101549091565b61023c610461366004612118565b61166c565b610479610474366004612426565b61168e565b6040516102469190612462565b610389610494366004612426565b6001600160a01b039283166000908152600460208181526040808420959096168352938452848220928252600592830190935292909220908101549101549091565b6104e96104e43660046120a1565b611769565b6040805193151584529115156020840152151590820152606001610246565b6102626105163660046120a1565b6117db565b6102626118b1565b6103896105313660046123fc565b6001600160a01b039182166000908152600460209081526040808320939094168252919091522060028101546003909101549091565b60005461057a906001600160a01b031681565b6040516001600160a01b039091168152602001610246565b6000546001600160a01b031633146103dc565b61023c6105b33660046120a1565b6001600160a01b031660009081526003602052604090206005015490565b6106136105df3660046120a1565b60408051602080820183526000918290526001600160a01b0393909316815260038352819020815192830190915254815290565b60405190518152602001610246565b60015461057a906001600160a01b031681565b6102626106433660046122f7565b611940565b6102626106563660046120a1565b611acd565b6102626106693660046120cb565b611b56565b610262611d86565b3360009081526002602052604090205460ff166106f75760405162461bcd60e51b815260206004820152603460248201527f4f6e6c7920746865206173736f63696174656420636f6e74726163742063616e604482015273103832b93337b936903a3434b99030b1ba34b7b760611b60648201526084015b60405180910390fd5b6001600160a01b0385166000908152600360205260409081902090517f0eca322b000000000000000000000000000000000000000000000000000000008152600481018290526024810185905273A2cB811Ed72F02C20f91525b8589bec896A2218090630eca322b9060440160006040518083038186803b15801561077b57600080fd5b505af415801561078f573d6000803e3d6000fd5b505060405163a4c88c0760e01b815273196F9673101Bf31261AABaccfFc72EA8779e3D21925063a4c88c0791506107cc908490899060040161251b565b60006040518083038186803b1580156107e457600080fd5b505af41580156107f8573d6000803e3d6000fd5b5050505084600181111561080e5761080e612505565b6108d157600c810154600d82015460405163d077fbe560e01b8152600481018490526001600160a01b03808a16602483015292831660448201529116606482015260848101859052600060a4820181905260c4820181905260e48201526101048101849052610124810183905273196F9673101Bf31261AABaccfFc72EA8779e3D219063d077fbe590610144015b60006040518083038186803b1580156108b457600080fd5b505af41580156108c8573d6000803e3d6000fd5b5050505061098c565b600c810154600d82015460405163d077fbe560e01b8152600481018490526001600160a01b03808a16602483015292831660448201529116606482015260006084820181905260a4820181905260c4820186905260e48201526101048101849052610124810183905273196F9673101Bf31261AABaccfFc72EA8779e3D219063d077fbe590610144015b60006040518083038186803b15801561097357600080fd5b505af4158015610987573d6000803e3d6000fd5b505050505b505050505050565b6001600160a01b03821660009081526003602052604080822090517fbb43fb8000000000000000000000000000000000000000000000000000000000815273196F9673101Bf31261AABaccfFc72EA8779e3D219163bb43fb80916109fd9190869060040161251b565b60206040518083038186803b158015610a1557600080fd5b505af4158015610a29573d6000803e3d6000fd5b505050506040513d601f19601f82011682018060405250810190610a4d919061254d565b90505b92915050565b3360009081526002602052604090205460ff16610ad25760405162461bcd60e51b815260206004820152603460248201527f4f6e6c7920746865206173736f63696174656420636f6e74726163742063616e604482015273103832b93337b936903a3434b99030b1ba34b7b760611b60648201526084016106ee565b6001600160a01b038681166000818152600460208181526040808420958b168452948152848320938352600590529083902092517f58f9bd6e00000000000000000000000000000000000000000000000000000000815290810191909152602481019190915260448101859052606481018490526084810183905260a48101829052737740445cF520C253B4176904E177582226E29CcD906358f9bd6e9060c40161095b565b610c526040805161028081019091526000610260820190815281908152602001600081526020016000815260200160008152602001600081526020016000815260200160008152602001600081526020016000815260200160006001600160a01b0316815260200160006001600160a01b0316815260200160006001600160a01b0316815260200160006001600160a01b0316815260200160006001600160a01b03168152602001600064ffffffffff168152602001600064ffffffffff1681526020016000815260200160008152602001600081525090565b506001600160a01b0390811660009081526003602081815260409283902083516102808101855281546102608201908152815260018201549281019290925260028101549382019390935290820154606082015260048201546080820152600582015460a0820152600682015460c0820152600782015460e0820152600882015461010082015260098201548316610120820152600a8201548316610140820152600b8201548316610160820152600c8201548316610180820152600d8201549283166101a082015264ffffffffff74010000000000000000000000000000000000000000840481166101c08301527901000000000000000000000000000000000000000000000000009093049092166101e0830152600e810154610200830152600f8101546102208301526010015461024082015290565b3360009081526002602052604090205460ff16610e075760405162461bcd60e51b815260206004820152603460248201527f4f6e6c7920746865206173736f63696174656420636f6e74726163742063616e604482015273103832b93337b936903a3434b99030b1ba34b7b760611b60648201526084016106ee565b6001600160a01b038581166000818152600460208181526040808420958a168452948152848320938352600590529083902092517f027a1fa1000000000000000000000000000000000000000000000000000000008152908101919091526024810191909152604481018490526064810183905260848101829052737740445cF520C253B4176904E177582226E29CcD9063027a1fa19060a4015b60006040518083038186803b158015610eba57600080fd5b505af4158015610ece573d6000803e3d6000fd5b505050505050505050565b610efd60405180606001604052806000815260200160008152602001600081525090565b506001600160a01b0316600090815260056020908152604091829020825160608101845281548152600182015492810192909252600201549181019190915290565b3360009081526002602052604090205460ff16610fbb5760405162461bcd60e51b815260206004820152603460248201527f4f6e6c7920746865206173736f63696174656420636f6e74726163742063616e604482015273103832b93337b936903a3434b99030b1ba34b7b760611b60648201526084016106ee565b6001600160a01b03841660009081526003602052604090819020905163a4c88c0760e01b815273196F9673101Bf31261AABaccfFc72EA8779e3D219063a4c88c079061100e90849060019060040161251b565b60006040518083038186803b15801561102657600080fd5b505af415801561103a573d6000803e3d6000fd5b50505050600c810154600d82015460405163d077fbe560e01b8152600481018490526001600160a01b03808916602483015292831660448201529116606482015260006084820181905260a4820181905260c4820186905260e48201526101048101849052610124810183905273196F9673101Bf31261AABaccfFc72EA8779e3D219063d077fbe59061014401610ea2565b3360009081526002602052604090205460ff166111485760405162461bcd60e51b815260206004820152603460248201527f4f6e6c7920746865206173736f63696174656420636f6e74726163742063616e604482015273103832b93337b936903a3434b99030b1ba34b7b760611b60648201526084016106ee565b6001600160a01b038781166000908152600360205260409081902090517f19dfc3810000000000000000000000000000000000000000000000000000000081526004810191909152878216602482015286821660448201528582166064820152848216608482015290831660a482015260c4810182905273196F9673101Bf31261AABaccfFc72EA8779e3D21906319dfc3819060e40160006040518083038186803b1580156111f657600080fd5b505af415801561120a573d6000803e3d6000fd5b50506007805461ffff9081166000908152600660205260408120805473ffffffffffffffffffffffffffffffffffffffff19166001600160a01b038e161790558254909116935090915061125d8361257c565b91906101000a81548161ffff021916908361ffff1602179055505050505050505050565b6112b36040518060a0016040528060008152602001600081526020016000815260200160008152602001600081525090565b6001600160a01b03828116600090815260036020908152604080832060058352818420825160a081018452858152808501869052808401869052606081018690526080810195909552600c82015483517f18160ddd000000000000000000000000000000000000000000000000000000008152935192969195949116926318160ddd9260048083019392829003018186803b15801561135157600080fd5b505afa158015611365573d6000803e3d6000fd5b505050506040513d601f19601f82011682018060405250810190611389919061254d565b8152600d830154604080517f18160ddd00000000000000000000000000000000000000000000000000000000815290516001600160a01b03909216916318160ddd91600480820192602092909190829003018186803b1580156113eb57600080fd5b505afa1580156113ff573d6000803e3d6000fd5b505050506040513d601f19601f82011682018060405250810190611423919061254d565b6020820152815460018301546002909301546080830152606082019290925260408101919091529392505050565b6001546001600160a01b0316331461146857600080fd5b600154600080546040516001600160a01b0393841693909116917f8be0079c531659141344cd1fd0a4f28419497f9722a3daafe3b4186f6b6457e091a3600180546000805473ffffffffffffffffffffffffffffffffffffffff199081166001600160a01b03841617909155169055565b6000546001600160a01b031633146115335760405162461bcd60e51b815260206004820181905260248201527f4f776e61626c653a2063616c6c6572206973206e6f7420746865206f776e657260448201526064016106ee565b6001600160a01b03811660008181526002602090815260409182902080547fffffffffffffffffffffffffffffffffffffffffffffffffffffffffffffff0016600117905590519182527f73f20cff579e8a4086fa607db83867595f1b6a798e718c0bfa0b94a404128e03910160405180910390a150565b60075460609060009061ffff1667ffffffffffffffff8111156115d0576115d061259e565b6040519080825280602002602001820160405280156115f9578160200160208202803683370190505b50905060005b60075461ffff168110156116665760008181526006602052604090205482516001600160a01b039091169083908390811061163c5761163c6125b4565b6001600160a01b03909216602092830291909101909101528061165e816125ca565b9150506115ff565b50919050565b6001600160a01b0382166000908152600360205260408120610a4d9083611e10565b611696612009565b6001600160a01b03848116600090815260046020818152604080842094881684529390529082902091517f87596e2800000000000000000000000000000000000000000000000000000000815290810182905260248101849052737740445cF520C253B4176904E177582226E29CcD906387596e28906044016101a06040518083038186803b15801561172857600080fd5b505af415801561173c573d6000803e3d6000fd5b505050506040513d601f19601f820116820180604052508101906117609190612687565b95945050505050565b6000806000806117a78560408051602080820183526000918290526001600160a01b0393909316815260038352819020815192830190915254815290565b90506117cd81516301000000811615159163020000008216151591630400000016151590565b935093509350509193909250565b3360009081526002602052604090205460ff166118575760405162461bcd60e51b815260206004820152603460248201527f4f6e6c7920746865206173736f63696174656420636f6e74726163742063616e604482015273103832b93337b936903a3434b99030b1ba34b7b760611b60648201526084016106ee565b60408051602080820183526000918290526001600160a01b03841682526003815282822083519182019093529154825250611893816001611eda565b516001600160a01b0391909116600090815260036020526040902055565b3360009081526002602052604090205460ff1661192d5760405162461bcd60e51b815260206004820152603460248201527f4f6e6c7920746865206173736f63696174656420636f6e74726163742063616e604482015273103832b93337b936903a3434b99030b1ba34b7b760611b60648201526084016106ee565b6007805462ff0000191662010000179055565b3360009081526002602052604090205460ff166119bc5760405162461bcd60e51b815260206004820152603460248201527f4f6e6c7920746865206173736f63696174656420636f6e74726163742063616e604482015273103832b93337b936903a3434b99030b1ba34b7b760611b60648201526084016106ee565b6001600160a01b03841660009081526003602052604090819020905163a4c88c0760e01b815273196F9673101Bf31261AABaccfFc72EA8779e3D219063a4c88c0790611a0f90849060019060040161251b565b60006040518083038186803b158015611a2757600080fd5b505af4158015611a3b573d6000803e3d6000fd5b50505050600c810154600d82015460405163d077fbe560e01b8152600481018490526001600160a01b03808916602483015292831660448201529116606482015260006084820181905260a4820181905260c482015260e481018590526101048101849052610124810183905273196F9673101Bf31261AABaccfFc72EA8779e3D219063d077fbe59061014401610ea2565b6000546001600160a01b03163314611b275760405162461bcd60e51b815260206004820181905260248201527f4f776e61626c653a2063616c6c6572206973206e6f7420746865206f776e657260448201526064016106ee565b6001805473ffffffffffffffffffffffffffffffffffffffff19166001600160a01b0392909216919091179055565b3360009081526002602052604090205460ff16611bd25760405162461bcd60e51b815260206004820152603460248201527f4f6e6c7920746865206173736f63696174656420636f6e74726163742063616e604482015273103832b93337b936903a3434b99030b1ba34b7b760611b60648201526084016106ee565b6001600160a01b03851660009081526003602052604090819020905163a4c88c0760e01b815273196F9673101Bf31261AABaccfFc72EA8779e3D219063a4c88c0790611c24908490899060040161251b565b60006040518083038186803b158015611c3c57600080fd5b505af4158015611c50573d6000803e3d6000fd5b50505050846001811115611c6657611c66612505565b611cf857600c810154600d82015460405163d077fbe560e01b8152600481018490526001600160a01b03808a16602483015292831660448201529116606482015260006084820181905260a4820186905260c4820181905260e48201526101048101849052610124810183905273196F9673101Bf31261AABaccfFc72EA8779e3D219063d077fbe5906101440161089c565b600c810154600d82015460405163d077fbe560e01b8152600481018490526001600160a01b03808a16602483015292831660448201529116606482015260006084820181905260a4820181905260c4820181905260e48201526101048101849052610124810183905273196F9673101Bf31261AABaccfFc72EA8779e3D219063d077fbe5906101440161095b565b3360009081526002602052604090205460ff16611e025760405162461bcd60e51b815260206004820152603460248201527f4f6e6c7920746865206173736f63696174656420636f6e74726163742063616e604482015273103832b93337b936903a3434b99030b1ba34b7b760611b60648201526084016106ee565b6007805462ff000019169055565b6000808080846001811115611e2757611e27612505565b1415611e5f575050600d83015460048401547401000000000000000000000000000000000000000090910464ffffffffff1690611e92565b5050600d830154600584015479010000000000000000000000000000000000000000000000000090910464ffffffffff16905b4264ffffffffff168264ffffffffff161415611eb1579150610a509050565b6000611ed082611eca611ec48989611f1f565b86611f50565b90611f9d565b9695505050505050565b601881611ee8576000611eeb565b60015b83517ffffffffffffffffffffffffffffffffffffffffffffffffffffffffffeffffff1660ff9190911690911b1790915250565b600080826001811115611f3457611f34612505565b1415611f4557506002820154610a50565b506003820154610a50565b600080611f644264ffffffffff8516611fd9565b9050611f956b033b2e3c9fd0803ce80000006301e13380611f858785611fe5565b611f8f9190612724565b90611ff1565b949350505050565b6000610a4d6b033b2e3c9fd0803ce8000000611fd3611fbc8686611fe5565b611f8f60026b033b2e3c9fd0803ce8000000612724565b90611ffd565b6000610a4d8284612746565b6000610a4d828461275d565b6000610a4d828461277c565b6000610a4d8284612724565b6040518061016001604052806000815260200160008152602001600081526020016000815260200161205560405180606001604052806000815260200160008152602001600081525090565b81526020016000815260200160008152602001600081526020016000815260200160008152602001600081525090565b80356001600160a01b038116811461209c57600080fd5b919050565b6000602082840312156120b357600080fd5b610a4d82612085565b80356002811061209c57600080fd5b600080600080600060a086880312156120e357600080fd5b6120ec86612085565b94506120fa602087016120bc565b94979496505050506040830135926060810135926080909101359150565b6000806040838503121561212b57600080fd5b61213483612085565b9150612142602084016120bc565b90509250929050565b60008060008060008060c0878903121561216457600080fd5b61216d87612085565b955061217b60208801612085565b95989597505050506040840135936060810135936080820135935060a0909101359150565b815151815261026081016020830151602083015260408301516040830152606083015160608301526080830151608083015260a083015160a083015260c083015160c083015260e083015160e083015261010080840151818401525061012080840151612217828501826001600160a01b03169052565b5050610140838101516001600160a01b039081169184019190915261016080850151821690840152610180808501518216908401526101a080850151909116908301526101c08084015164ffffffffff908116918401919091526101e080850151909116908301526102008084015190830152610220808401519083015261024092830151929091019190915290565b600080600080600060a086880312156122bf57600080fd5b6122c886612085565b94506120fa60208701612085565b81518152602080830151908201526040808301519082015260608101610a50565b6000806000806080858703121561230d57600080fd5b61231685612085565b966020860135965060408601359560600135945092505050565b600080600080600080600060e0888a03121561234b57600080fd5b61235488612085565b965061236260208901612085565b955061237060408901612085565b945061237e60608901612085565b935061238c60808901612085565b925061239a60a08901612085565b915060c0880135905092959891949750929550565b6020808252825182820181905260009190848201906040850190845b818110156123f05783516001600160a01b0316835292840192918401916001016123cb565b50909695505050505050565b6000806040838503121561240f57600080fd5b61241883612085565b915061214260208401612085565b60008060006060848603121561243b57600080fd5b61244484612085565b925061245260208501612085565b9150604084013590509250925092565b60006101a0820190508251825260208301516020830152604083015160408301526060830151606083015260808301516124b360808401828051825260208082015190830152604090810151910152565b5060a083015160e08381019190915260c0840151610100808501919091529084015161012080850191909152908401516101408085019190915290840151610160840152909201516101809091015290565b634e487b7160e01b600052602160045260246000fd5b828152604081016002831061254057634e487b7160e01b600052602160045260246000fd5b8260208301529392505050565b60006020828403121561255f57600080fd5b5051919050565b634e487b7160e01b600052601160045260246000fd5b600061ffff8083168181141561259457612594612566565b6001019392505050565b634e487b7160e01b600052604160045260246000fd5b634e487b7160e01b600052603260045260246000fd5b60006000198214156125de576125de612566565b5060010190565b604051610160810167ffffffffffffffff8111828210171561261757634e487b7160e01b600052604160045260246000fd5b60405290565b60006060828403121561262f57600080fd5b6040516060810181811067ffffffffffffffff8211171561266057634e487b7160e01b600052604160045260246000fd5b80604052508091508251815260208301516020820152604083015160408201525092915050565b60006101a0828403121561269a57600080fd5b6126a26125e5565b825181526020830151602082015260408301516040820152606083015160608201526126d1846080850161261d565b608082015260e083015160a08201526101008084015160c08301526101208085015160e0840152610140808601518385015261016086015182850152610180860151818501525050508091505092915050565b60008261274157634e487b7160e01b600052601260045260246000fd5b500490565b60008282101561275857612758612566565b500390565b600081600019048311821515161561277757612777612566565b500290565b6000821982111561278f5761278f612566565b50019056fea2646970667358221220c32f0f7f855e5243b8126a4d085042cdd8649ebac877a516e0e9c0fe591c775664736f6c63430008090033",
  "deployedBytecode": "0x608060405234801561001057600080fd5b506004361061020b5760003560e01c806374e175df1161012a5780638da5cb5b116100bd578063e30c39781161008c578063f2fde38b11610071578063f2fde38b14610648578063f46a2bd41461065b578063f7b188a51461066e57600080fd5b8063e30c397814610622578063e3b69f7f1461063557600080fd5b80638da5cb5b146105675780638f32d59b146105925780639cc67a0f146105a5578063c44b11f7146105d157600080fd5b8063817ad5d3116100f9578063817ad5d3146104d657806381f78151146105085780638456cb591461051b5780638a0695fd1461052357600080fd5b806374e175df14610412578063776f6891146104535780637c7c983d146104665780637cb1ca251461048657600080fd5b806343ba2263116101a257806352f445ca1161017157806352f445ca146103a65780635748ff18146103b95780635c975abb146103ec57806366d4c413146103fd57600080fd5b806343ba2263146102f05780634c445bfe146103035780634d44ac4f146103585780634e71e0c81461039e57600080fd5b806335ea6a75116101de57806335ea6a751461028a57806336052e27146102aa5780633de5f35f146102bd5780633e4115a4146102dd57600080fd5b806303d6fa95146102105780630fc3a8be1461024f578063284592b2146102645780632bb25f9814610277575b600080fd5b61023c61021e3660046120a1565b6001600160a01b031660009081526003602052604090206004015490565b6040519081526020015b60405180910390f35b61026261025d3660046120cb565b610676565b005b61023c610272366004612118565b610994565b61026261028536600461214b565b610a56565b61029d6102983660046120a1565b610b78565b60405161024691906121a0565b6102626102b83660046122a7565b610d8b565b6102d06102cb3660046120a1565b610ed9565b60405161024691906122d6565b6102626102eb3660046122f7565b610f3f565b6102626102fe366004612330565b6110cc565b6103166103113660046120a1565b611281565b6040516102469190600060a082019050825182526020830151602083015260408301516040830152606083015160608301526080830151608083015292915050565b6103896103663660046120a1565b6001600160a01b0316600090815260056020526040902080546001909101549091565b60408051928352602083019190915201610246565b610262611451565b6102626103b43660046120a1565b6114d9565b6103dc6103c73660046120a1565b60026020526000908152604090205460ff1681565b6040519015158152602001610246565b60075462010000900460ff166103dc565b6104056115ab565b60405161024691906123af565b6103896104203660046123fc565b6001600160a01b039182166000908152600460209081526040808320939094168252919091522080546001909101549091565b61023c610461366004612118565b61166c565b610479610474366004612426565b61168e565b6040516102469190612462565b610389610494366004612426565b6001600160a01b039283166000908152600460208181526040808420959096168352938452848220928252600592830190935292909220908101549101549091565b6104e96104e43660046120a1565b611769565b6040805193151584529115156020840152151590820152606001610246565b6102626105163660046120a1565b6117db565b6102626118b1565b6103896105313660046123fc565b6001600160a01b039182166000908152600460209081526040808320939094168252919091522060028101546003909101549091565b60005461057a906001600160a01b031681565b6040516001600160a01b039091168152602001610246565b6000546001600160a01b031633146103dc565b61023c6105b33660046120a1565b6001600160a01b031660009081526003602052604090206005015490565b6106136105df3660046120a1565b60408051602080820183526000918290526001600160a01b0393909316815260038352819020815192830190915254815290565b60405190518152602001610246565b60015461057a906001600160a01b031681565b6102626106433660046122f7565b611940565b6102626106563660046120a1565b611acd565b6102626106693660046120cb565b611b56565b610262611d86565b3360009081526002602052604090205460ff166106f75760405162461bcd60e51b815260206004820152603460248201527f4f6e6c7920746865206173736f63696174656420636f6e74726163742063616e604482015273103832b93337b936903a3434b99030b1ba34b7b760611b60648201526084015b60405180910390fd5b6001600160a01b0385166000908152600360205260409081902090517f0eca322b000000000000000000000000000000000000000000000000000000008152600481018290526024810185905273__$5201a97c05ba6aa659e2f36a933dd51801$__90630eca322b9060440160006040518083038186803b15801561077b57600080fd5b505af415801561078f573d6000803e3d6000fd5b505060405163a4c88c0760e01b815273__$d3b4366daeb9cadc7528af6145b50b2183$__925063a4c88c0791506107cc908490899060040161251b565b60006040518083038186803b1580156107e457600080fd5b505af41580156107f8573d6000803e3d6000fd5b5050505084600181111561080e5761080e612505565b6108d157600c810154600d82015460405163d077fbe560e01b8152600481018490526001600160a01b03808a16602483015292831660448201529116606482015260848101859052600060a4820181905260c4820181905260e48201526101048101849052610124810183905273__$d3b4366daeb9cadc7528af6145b50b2183$__9063d077fbe590610144015b60006040518083038186803b1580156108b457600080fd5b505af41580156108c8573d6000803e3d6000fd5b5050505061098c565b600c810154600d82015460405163d077fbe560e01b8152600481018490526001600160a01b03808a16602483015292831660448201529116606482015260006084820181905260a4820181905260c4820186905260e48201526101048101849052610124810183905273__$d3b4366daeb9cadc7528af6145b50b2183$__9063d077fbe590610144015b60006040518083038186803b15801561097357600080fd5b505af4158015610987573d6000803e3d6000fd5b505050505b505050505050565b6001600160a01b03821660009081526003602052604080822090517fbb43fb8000000000000000000000000000000000000000000000000000000000815273__$d3b4366daeb9cadc7528af6145b50b2183$__9163bb43fb80916109fd9190869060040161251b565b60206040518083038186803b158015610a1557600080fd5b505af4158015610a29573d6000803e3d6000fd5b505050506040513d601f19601f82011682018060405250810190610a4d919061254d565b90505b92915050565b3360009081526002602052604090205460ff16610ad25760405162461bcd60e51b815260206004820152603460248201527f4f6e6c7920746865206173736f63696174656420636f6e74726163742063616e604482015273103832b93337b936903a3434b99030b1ba34b7b760611b60648201526084016106ee565b6001600160a01b038681166000818152600460208181526040808420958b168452948152848320938352600590529083902092517f58f9bd6e00000000000000000000000000000000000000000000000000000000815290810191909152602481019190915260448101859052606481018490526084810183905260a4810182905273__$7ead2494ca6203ebe374a3fcf65c6ee6f2$__906358f9bd6e9060c40161095b565b610c526040805161028081019091526000610260820190815281908152602001600081526020016000815260200160008152602001600081526020016000815260200160008152602001600081526020016000815260200160006001600160a01b0316815260200160006001600160a01b0316815260200160006001600160a01b0316815260200160006001600160a01b0316815260200160006001600160a01b03168152602001600064ffffffffff168152602001600064ffffffffff1681526020016000815260200160008152602001600081525090565b506001600160a01b0390811660009081526003602081815260409283902083516102808101855281546102608201908152815260018201549281019290925260028101549382019390935290820154606082015260048201546080820152600582015460a0820152600682015460c0820152600782015460e0820152600882015461010082015260098201548316610120820152600a8201548316610140820152600b8201548316610160820152600c8201548316610180820152600d8201549283166101a082015264ffffffffff74010000000000000000000000000000000000000000840481166101c08301527901000000000000000000000000000000000000000000000000009093049092166101e0830152600e810154610200830152600f8101546102208301526010015461024082015290565b3360009081526002602052604090205460ff16610e075760405162461bcd60e51b815260206004820152603460248201527f4f6e6c7920746865206173736f63696174656420636f6e74726163742063616e604482015273103832b93337b936903a3434b99030b1ba34b7b760611b60648201526084016106ee565b6001600160a01b038581166000818152600460208181526040808420958a168452948152848320938352600590529083902092517f027a1fa100000000000000000000000000000000000000000000000000000000815290810191909152602481019190915260448101849052606481018390526084810182905273__$7ead2494ca6203ebe374a3fcf65c6ee6f2$__9063027a1fa19060a4015b60006040518083038186803b158015610eba57600080fd5b505af4158015610ece573d6000803e3d6000fd5b505050505050505050565b610efd60405180606001604052806000815260200160008152602001600081525090565b506001600160a01b0316600090815260056020908152604091829020825160608101845281548152600182015492810192909252600201549181019190915290565b3360009081526002602052604090205460ff16610fbb5760405162461bcd60e51b815260206004820152603460248201527f4f6e6c7920746865206173736f63696174656420636f6e74726163742063616e604482015273103832b93337b936903a3434b99030b1ba34b7b760611b60648201526084016106ee565b6001600160a01b03841660009081526003602052604090819020905163a4c88c0760e01b815273__$d3b4366daeb9cadc7528af6145b50b2183$__9063a4c88c079061100e90849060019060040161251b565b60006040518083038186803b15801561102657600080fd5b505af415801561103a573d6000803e3d6000fd5b50505050600c810154600d82015460405163d077fbe560e01b8152600481018490526001600160a01b03808916602483015292831660448201529116606482015260006084820181905260a4820181905260c4820186905260e48201526101048101849052610124810183905273__$d3b4366daeb9cadc7528af6145b50b2183$__9063d077fbe59061014401610ea2565b3360009081526002602052604090205460ff166111485760405162461bcd60e51b815260206004820152603460248201527f4f6e6c7920746865206173736f63696174656420636f6e74726163742063616e604482015273103832b93337b936903a3434b99030b1ba34b7b760611b60648201526084016106ee565b6001600160a01b038781166000908152600360205260409081902090517f19dfc3810000000000000000000000000000000000000000000000000000000081526004810191909152878216602482015286821660448201528582166064820152848216608482015290831660a482015260c4810182905273__$d3b4366daeb9cadc7528af6145b50b2183$__906319dfc3819060e40160006040518083038186803b1580156111f657600080fd5b505af415801561120a573d6000803e3d6000fd5b50506007805461ffff9081166000908152600660205260408120805473ffffffffffffffffffffffffffffffffffffffff19166001600160a01b038e161790558254909116935090915061125d8361257c565b91906101000a81548161ffff021916908361ffff1602179055505050505050505050565b6112b36040518060a0016040528060008152602001600081526020016000815260200160008152602001600081525090565b6001600160a01b03828116600090815260036020908152604080832060058352818420825160a081018452858152808501869052808401869052606081018690526080810195909552600c82015483517f18160ddd000000000000000000000000000000000000000000000000000000008152935192969195949116926318160ddd9260048083019392829003018186803b15801561135157600080fd5b505afa158015611365573d6000803e3d6000fd5b505050506040513d601f19601f82011682018060405250810190611389919061254d565b8152600d830154604080517f18160ddd00000000000000000000000000000000000000000000000000000000815290516001600160a01b03909216916318160ddd91600480820192602092909190829003018186803b1580156113eb57600080fd5b505afa1580156113ff573d6000803e3d6000fd5b505050506040513d601f19601f82011682018060405250810190611423919061254d565b6020820152815460018301546002909301546080830152606082019290925260408101919091529392505050565b6001546001600160a01b0316331461146857600080fd5b600154600080546040516001600160a01b0393841693909116917f8be0079c531659141344cd1fd0a4f28419497f9722a3daafe3b4186f6b6457e091a3600180546000805473ffffffffffffffffffffffffffffffffffffffff199081166001600160a01b03841617909155169055565b6000546001600160a01b031633146115335760405162461bcd60e51b815260206004820181905260248201527f4f776e61626c653a2063616c6c6572206973206e6f7420746865206f776e657260448201526064016106ee565b6001600160a01b03811660008181526002602090815260409182902080547fffffffffffffffffffffffffffffffffffffffffffffffffffffffffffffff0016600117905590519182527f73f20cff579e8a4086fa607db83867595f1b6a798e718c0bfa0b94a404128e03910160405180910390a150565b60075460609060009061ffff1667ffffffffffffffff8111156115d0576115d061259e565b6040519080825280602002602001820160405280156115f9578160200160208202803683370190505b50905060005b60075461ffff168110156116665760008181526006602052604090205482516001600160a01b039091169083908390811061163c5761163c6125b4565b6001600160a01b03909216602092830291909101909101528061165e816125ca565b9150506115ff565b50919050565b6001600160a01b0382166000908152600360205260408120610a4d9083611e10565b611696612009565b6001600160a01b03848116600090815260046020818152604080842094881684529390529082902091517f87596e280000000000000000000000000000000000000000000000000000000081529081018290526024810184905273__$7ead2494ca6203ebe374a3fcf65c6ee6f2$__906387596e28906044016101a06040518083038186803b15801561172857600080fd5b505af415801561173c573d6000803e3d6000fd5b505050506040513d601f19601f820116820180604052508101906117609190612687565b95945050505050565b6000806000806117a78560408051602080820183526000918290526001600160a01b0393909316815260038352819020815192830190915254815290565b90506117cd81516301000000811615159163020000008216151591630400000016151590565b935093509350509193909250565b3360009081526002602052604090205460ff166118575760405162461bcd60e51b815260206004820152603460248201527f4f6e6c7920746865206173736f63696174656420636f6e74726163742063616e604482015273103832b93337b936903a3434b99030b1ba34b7b760611b60648201526084016106ee565b60408051602080820183526000918290526001600160a01b03841682526003815282822083519182019093529154825250611893816001611eda565b516001600160a01b0391909116600090815260036020526040902055565b3360009081526002602052604090205460ff1661192d5760405162461bcd60e51b815260206004820152603460248201527f4f6e6c7920746865206173736f63696174656420636f6e74726163742063616e604482015273103832b93337b936903a3434b99030b1ba34b7b760611b60648201526084016106ee565b6007805462ff0000191662010000179055565b3360009081526002602052604090205460ff166119bc5760405162461bcd60e51b815260206004820152603460248201527f4f6e6c7920746865206173736f63696174656420636f6e74726163742063616e604482015273103832b93337b936903a3434b99030b1ba34b7b760611b60648201526084016106ee565b6001600160a01b03841660009081526003602052604090819020905163a4c88c0760e01b815273__$d3b4366daeb9cadc7528af6145b50b2183$__9063a4c88c0790611a0f90849060019060040161251b565b60006040518083038186803b158015611a2757600080fd5b505af4158015611a3b573d6000803e3d6000fd5b50505050600c810154600d82015460405163d077fbe560e01b8152600481018490526001600160a01b03808916602483015292831660448201529116606482015260006084820181905260a4820181905260c482015260e481018590526101048101849052610124810183905273__$d3b4366daeb9cadc7528af6145b50b2183$__9063d077fbe59061014401610ea2565b6000546001600160a01b03163314611b275760405162461bcd60e51b815260206004820181905260248201527f4f776e61626c653a2063616c6c6572206973206e6f7420746865206f776e657260448201526064016106ee565b6001805473ffffffffffffffffffffffffffffffffffffffff19166001600160a01b0392909216919091179055565b3360009081526002602052604090205460ff16611bd25760405162461bcd60e51b815260206004820152603460248201527f4f6e6c7920746865206173736f63696174656420636f6e74726163742063616e604482015273103832b93337b936903a3434b99030b1ba34b7b760611b60648201526084016106ee565b6001600160a01b03851660009081526003602052604090819020905163a4c88c0760e01b815273__$d3b4366daeb9cadc7528af6145b50b2183$__9063a4c88c0790611c24908490899060040161251b565b60006040518083038186803b158015611c3c57600080fd5b505af4158015611c50573d6000803e3d6000fd5b50505050846001811115611c6657611c66612505565b611cf857600c810154600d82015460405163d077fbe560e01b8152600481018490526001600160a01b03808a16602483015292831660448201529116606482015260006084820181905260a4820186905260c4820181905260e48201526101048101849052610124810183905273__$d3b4366daeb9cadc7528af6145b50b2183$__9063d077fbe5906101440161089c565b600c810154600d82015460405163d077fbe560e01b8152600481018490526001600160a01b03808a16602483015292831660448201529116606482015260006084820181905260a4820181905260c4820181905260e48201526101048101849052610124810183905273__$d3b4366daeb9cadc7528af6145b50b2183$__9063d077fbe5906101440161095b565b3360009081526002602052604090205460ff16611e025760405162461bcd60e51b815260206004820152603460248201527f4f6e6c7920746865206173736f63696174656420636f6e74726163742063616e604482015273103832b93337b936903a3434b99030b1ba34b7b760611b60648201526084016106ee565b6007805462ff000019169055565b6000808080846001811115611e2757611e27612505565b1415611e5f575050600d83015460048401547401000000000000000000000000000000000000000090910464ffffffffff1690611e92565b5050600d830154600584015479010000000000000000000000000000000000000000000000000090910464ffffffffff16905b4264ffffffffff168264ffffffffff161415611eb1579150610a509050565b6000611ed082611eca611ec48989611f1f565b86611f50565b90611f9d565b9695505050505050565b601881611ee8576000611eeb565b60015b83517ffffffffffffffffffffffffffffffffffffffffffffffffffffffffffeffffff1660ff9190911690911b1790915250565b600080826001811115611f3457611f34612505565b1415611f4557506002820154610a50565b506003820154610a50565b600080611f644264ffffffffff8516611fd9565b9050611f956b033b2e3c9fd0803ce80000006301e13380611f858785611fe5565b611f8f9190612724565b90611ff1565b949350505050565b6000610a4d6b033b2e3c9fd0803ce8000000611fd3611fbc8686611fe5565b611f8f60026b033b2e3c9fd0803ce8000000612724565b90611ffd565b6000610a4d8284612746565b6000610a4d828461275d565b6000610a4d828461277c565b6000610a4d8284612724565b6040518061016001604052806000815260200160008152602001600081526020016000815260200161205560405180606001604052806000815260200160008152602001600081525090565b81526020016000815260200160008152602001600081526020016000815260200160008152602001600081525090565b80356001600160a01b038116811461209c57600080fd5b919050565b6000602082840312156120b357600080fd5b610a4d82612085565b80356002811061209c57600080fd5b600080600080600060a086880312156120e357600080fd5b6120ec86612085565b94506120fa602087016120bc565b94979496505050506040830135926060810135926080909101359150565b6000806040838503121561212b57600080fd5b61213483612085565b9150612142602084016120bc565b90509250929050565b60008060008060008060c0878903121561216457600080fd5b61216d87612085565b955061217b60208801612085565b95989597505050506040840135936060810135936080820135935060a0909101359150565b815151815261026081016020830151602083015260408301516040830152606083015160608301526080830151608083015260a083015160a083015260c083015160c083015260e083015160e083015261010080840151818401525061012080840151612217828501826001600160a01b03169052565b5050610140838101516001600160a01b039081169184019190915261016080850151821690840152610180808501518216908401526101a080850151909116908301526101c08084015164ffffffffff908116918401919091526101e080850151909116908301526102008084015190830152610220808401519083015261024092830151929091019190915290565b600080600080600060a086880312156122bf57600080fd5b6122c886612085565b94506120fa60208701612085565b81518152602080830151908201526040808301519082015260608101610a50565b6000806000806080858703121561230d57600080fd5b61231685612085565b966020860135965060408601359560600135945092505050565b600080600080600080600060e0888a03121561234b57600080fd5b61235488612085565b965061236260208901612085565b955061237060408901612085565b945061237e60608901612085565b935061238c60808901612085565b925061239a60a08901612085565b915060c0880135905092959891949750929550565b6020808252825182820181905260009190848201906040850190845b818110156123f05783516001600160a01b0316835292840192918401916001016123cb565b50909695505050505050565b6000806040838503121561240f57600080fd5b61241883612085565b915061214260208401612085565b60008060006060848603121561243b57600080fd5b61244484612085565b925061245260208501612085565b9150604084013590509250925092565b60006101a0820190508251825260208301516020830152604083015160408301526060830151606083015260808301516124b360808401828051825260208082015190830152604090810151910152565b5060a083015160e08381019190915260c0840151610100808501919091529084015161012080850191909152908401516101408085019190915290840151610160840152909201516101809091015290565b634e487b7160e01b600052602160045260246000fd5b828152604081016002831061254057634e487b7160e01b600052602160045260246000fd5b8260208301529392505050565b60006020828403121561255f57600080fd5b5051919050565b634e487b7160e01b600052601160045260246000fd5b600061ffff8083168181141561259457612594612566565b6001019392505050565b634e487b7160e01b600052604160045260246000fd5b634e487b7160e01b600052603260045260246000fd5b60006000198214156125de576125de612566565b5060010190565b604051610160810167ffffffffffffffff8111828210171561261757634e487b7160e01b600052604160045260246000fd5b60405290565b60006060828403121561262f57600080fd5b6040516060810181811067ffffffffffffffff8211171561266057634e487b7160e01b600052604160045260246000fd5b80604052508091508251815260208301516020820152604083015160408201525092915050565b60006101a0828403121561269a57600080fd5b6126a26125e5565b825181526020830151602082015260408301516040820152606083015160608201526126d1846080850161261d565b608082015260e083015160a08201526101008084015160c08301526101208085015160e0840152610140808601518385015261016086015182850152610180860151818501525050508091505092915050565b60008261274157634e487b7160e01b600052601260045260246000fd5b500490565b60008282101561275857612758612566565b500390565b600081600019048311821515161561277757612777612566565b500290565b6000821982111561278f5761278f612566565b50019056fea2646970667358221220c32f0f7f855e5243b8126a4d085042cdd8649ebac877a516e0e9c0fe591c775664736f6c63430008090033",
  "libraries": {
    "ReserveLogic": "0x196F9673101Bf31261AABaccfFc72EA8779e3D21",
    "DebtLogic": "0x7740445cF520C253B4176904E177582226E29CcD",
    "ValidationLogic": "0xA2cB811Ed72F02C20f91525b8589bec896A22180"
  },
  "devdoc": {
    "kind": "dev",
    "methods": {
      "claimOwnership()": {
        "details": "Allows the pendingOwner address to finalize the transfer."
      },
      "isOwner()": {
        "details": "Returns true if the caller is the current owner."
      },
      "transferOwnership(address)": {
        "details": "Allows the current owner to set the pendingOwner address.",
        "params": {
          "newOwner": "The address to transfer ownership to."
        }
      }
    },
    "version": 1
  },
  "userdoc": {
    "kind": "user",
    "methods": {},
    "version": 1
  },
  "storageLayout": {
    "storage": [
      {
        "astId": 11838,
        "contract": "contracts/component/shared/storage/LiquidityManagerStorage.sol:LiquidityManagerStorage",
        "label": "owner",
        "offset": 0,
        "slot": "0",
        "type": "t_address"
      },
      {
        "astId": 11840,
        "contract": "contracts/component/shared/storage/LiquidityManagerStorage.sol:LiquidityManagerStorage",
        "label": "pendingOwner",
        "offset": 0,
        "slot": "1",
        "type": "t_address"
      },
      {
        "astId": 12229,
        "contract": "contracts/component/shared/storage/LiquidityManagerStorage.sol:LiquidityManagerStorage",
        "label": "associatedContracts",
        "offset": 0,
        "slot": "2",
        "type": "t_mapping(t_address,t_bool)"
      },
      {
        "astId": 3800,
        "contract": "contracts/component/shared/storage/LiquidityManagerStorage.sol:LiquidityManagerStorage",
        "label": "_reserves",
        "offset": 0,
        "slot": "3",
        "type": "t_mapping(t_address,t_struct(ReserveData)12335_storage)"
      },
      {
        "astId": 3807,
        "contract": "contracts/component/shared/storage/LiquidityManagerStorage.sol:LiquidityManagerStorage",
        "label": "_borrowData",
        "offset": 0,
        "slot": "4",
        "type": "t_mapping(t_address,t_mapping(t_address,t_struct(BorrowData)12366_storage))"
      },
      {
        "astId": 3812,
        "contract": "contracts/component/shared/storage/LiquidityManagerStorage.sol:LiquidityManagerStorage",
        "label": "_borrowStat",
        "offset": 0,
        "slot": "5",
        "type": "t_mapping(t_address,t_struct(BorrowStat)12373_storage)"
      },
      {
        "astId": 3816,
        "contract": "contracts/component/shared/storage/LiquidityManagerStorage.sol:LiquidityManagerStorage",
        "label": "_reserveList",
        "offset": 0,
        "slot": "6",
        "type": "t_mapping(t_uint256,t_address)"
      },
      {
        "astId": 3818,
        "contract": "contracts/component/shared/storage/LiquidityManagerStorage.sol:LiquidityManagerStorage",
        "label": "_reservesCount",
        "offset": 0,
        "slot": "7",
        "type": "t_uint16"
      },
      {
        "astId": 3820,
        "contract": "contracts/component/shared/storage/LiquidityManagerStorage.sol:LiquidityManagerStorage",
        "label": "_paused",
        "offset": 2,
        "slot": "7",
        "type": "t_bool"
      }
    ],
    "types": {
      "t_address": {
        "encoding": "inplace",
        "label": "address",
        "numberOfBytes": "20"
      },
      "t_array(t_struct(RepaymentData)12441_storage)dyn_storage": {
        "base": "t_struct(RepaymentData)12441_storage",
        "encoding": "dynamic_array",
        "label": "struct DataTypes.RepaymentData[]",
        "numberOfBytes": "32"
      },
      "t_bool": {
        "encoding": "inplace",
        "label": "bool",
        "numberOfBytes": "1"
      },
      "t_mapping(t_address,t_bool)": {
        "encoding": "mapping",
        "key": "t_address",
        "label": "mapping(address => bool)",
        "numberOfBytes": "32",
        "value": "t_bool"
      },
      "t_mapping(t_address,t_mapping(t_address,t_struct(BorrowData)12366_storage))": {
        "encoding": "mapping",
        "key": "t_address",
        "label": "mapping(address => mapping(address => struct DataTypes.BorrowData))",
        "numberOfBytes": "32",
        "value": "t_mapping(t_address,t_struct(BorrowData)12366_storage)"
      },
      "t_mapping(t_address,t_struct(BorrowData)12366_storage)": {
        "encoding": "mapping",
        "key": "t_address",
        "label": "mapping(address => struct DataTypes.BorrowData)",
        "numberOfBytes": "32",
        "value": "t_struct(BorrowData)12366_storage"
      },
      "t_mapping(t_address,t_struct(BorrowStat)12373_storage)": {
        "encoding": "mapping",
        "key": "t_address",
        "label": "mapping(address => struct DataTypes.BorrowStat)",
        "numberOfBytes": "32",
        "value": "t_struct(BorrowStat)12373_storage"
      },
      "t_mapping(t_address,t_struct(ReserveData)12335_storage)": {
        "encoding": "mapping",
        "key": "t_address",
        "label": "mapping(address => struct DataTypes.ReserveData)",
        "numberOfBytes": "32",
        "value": "t_struct(ReserveData)12335_storage"
      },
      "t_mapping(t_uint256,t_address)": {
        "encoding": "mapping",
        "key": "t_uint256",
        "label": "mapping(uint256 => address)",
        "numberOfBytes": "32",
        "value": "t_address"
      },
      "t_mapping(t_uint256,t_struct(DrawDown)12408_storage)": {
        "encoding": "mapping",
        "key": "t_uint256",
        "label": "mapping(uint256 => struct DataTypes.DrawDown)",
        "numberOfBytes": "32",
        "value": "t_struct(DrawDown)12408_storage"
      },
      "t_struct(BorrowData)12366_storage": {
        "encoding": "inplace",
        "label": "struct DataTypes.BorrowData",
        "members": [
          {
            "astId": 12352,
            "contract": "contracts/component/shared/storage/LiquidityManagerStorage.sol:LiquidityManagerStorage",
            "label": "paidDrawDownNumber",
            "offset": 0,
            "slot": "0",
            "type": "t_uint256"
          },
          {
            "astId": 12354,
            "contract": "contracts/component/shared/storage/LiquidityManagerStorage.sol:LiquidityManagerStorage",
            "label": "nextDrawDownNumber",
            "offset": 0,
            "slot": "1",
            "type": "t_uint256"
          },
          {
            "astId": 12356,
            "contract": "contracts/component/shared/storage/LiquidityManagerStorage.sol:LiquidityManagerStorage",
            "label": "totalPrincipal",
            "offset": 0,
            "slot": "2",
            "type": "t_uint256"
          },
          {
            "astId": 12358,
            "contract": "contracts/component/shared/storage/LiquidityManagerStorage.sol:LiquidityManagerStorage",
            "label": "totalInterest",
            "offset": 0,
            "slot": "3",
            "type": "t_uint256"
          },
          {
            "astId": 12360,
            "contract": "contracts/component/shared/storage/LiquidityManagerStorage.sol:LiquidityManagerStorage",
            "label": "mapSize",
            "offset": 0,
            "slot": "4",
            "type": "t_uint256"
          },
          {
            "astId": 12365,
            "contract": "contracts/component/shared/storage/LiquidityManagerStorage.sol:LiquidityManagerStorage",
            "label": "drawDowns",
            "offset": 0,
            "slot": "5",
            "type": "t_mapping(t_uint256,t_struct(DrawDown)12408_storage)"
          }
        ],
        "numberOfBytes": "192"
      },
      "t_struct(BorrowStat)12373_storage": {
        "encoding": "inplace",
        "label": "struct DataTypes.BorrowStat",
        "members": [
          {
            "astId": 12368,
            "contract": "contracts/component/shared/storage/LiquidityManagerStorage.sol:LiquidityManagerStorage",
            "label": "totalDebt",
            "offset": 0,
            "slot": "0",
            "type": "t_uint256"
          },
          {
            "astId": 12370,
            "contract": "contracts/component/shared/storage/LiquidityManagerStorage.sol:LiquidityManagerStorage",
            "label": "totalInterest",
            "offset": 0,
            "slot": "1",
            "type": "t_uint256"
          },
          {
            "astId": 12372,
            "contract": "contracts/component/shared/storage/LiquidityManagerStorage.sol:LiquidityManagerStorage",
            "label": "avgBorrowRate",
            "offset": 0,
            "slot": "2",
            "type": "t_uint256"
          }
        ],
        "numberOfBytes": "96"
      },
      "t_struct(DrawDown)12408_storage": {
        "encoding": "inplace",
        "label": "struct DataTypes.DrawDown",
        "members": [
          {
            "astId": 12382,
            "contract": "contracts/component/shared/storage/LiquidityManagerStorage.sol:LiquidityManagerStorage",
            "label": "principal",
            "offset": 0,
            "slot": "0",
            "type": "t_uint256"
          },
          {
            "astId": 12384,
            "contract": "contracts/component/shared/storage/LiquidityManagerStorage.sol:LiquidityManagerStorage",
            "label": "term",
            "offset": 0,
            "slot": "1",
            "type": "t_uint256"
          },
          {
            "astId": 12386,
            "contract": "contracts/component/shared/storage/LiquidityManagerStorage.sol:LiquidityManagerStorage",
            "label": "epoch",
            "offset": 0,
            "slot": "2",
            "type": "t_uint256"
          },
          {
            "astId": 12388,
            "contract": "contracts/component/shared/storage/LiquidityManagerStorage.sol:LiquidityManagerStorage",
            "label": "nper",
            "offset": 0,
            "slot": "3",
            "type": "t_uint256"
          },
          {
            "astId": 12391,
            "contract": "contracts/component/shared/storage/LiquidityManagerStorage.sol:LiquidityManagerStorage",
            "label": "pmt",
            "offset": 0,
            "slot": "4",
            "type": "t_struct(PMT)12380_storage"
          },
          {
            "astId": 12393,
            "contract": "contracts/component/shared/storage/LiquidityManagerStorage.sol:LiquidityManagerStorage",
            "label": "apr",
            "offset": 0,
            "slot": "7",
            "type": "t_uint256"
          },
          {
            "astId": 12395,
            "contract": "contracts/component/shared/storage/LiquidityManagerStorage.sol:LiquidityManagerStorage",
            "label": "borrowAt",
            "offset": 0,
            "slot": "8",
            "type": "t_uint256"
          },
          {
            "astId": 12397,
            "contract": "contracts/component/shared/storage/LiquidityManagerStorage.sol:LiquidityManagerStorage",
            "label": "nextPaymentDue",
            "offset": 0,
            "slot": "9",
            "type": "t_uint256"
          },
          {
            "astId": 12399,
            "contract": "contracts/component/shared/storage/LiquidityManagerStorage.sol:LiquidityManagerStorage",
            "label": "totalPrincipalPaid",
            "offset": 0,
            "slot": "10",
            "type": "t_uint256"
          },
          {
            "astId": 12401,
            "contract": "contracts/component/shared/storage/LiquidityManagerStorage.sol:LiquidityManagerStorage",
            "label": "totalInterestPaid",
            "offset": 0,
            "slot": "11",
            "type": "t_uint256"
          },
          {
            "astId": 12405,
            "contract": "contracts/component/shared/storage/LiquidityManagerStorage.sol:LiquidityManagerStorage",
            "label": "repayments",
            "offset": 0,
            "slot": "12",
            "type": "t_array(t_struct(RepaymentData)12441_storage)dyn_storage"
          },
          {
            "astId": 12407,
            "contract": "contracts/component/shared/storage/LiquidityManagerStorage.sol:LiquidityManagerStorage",
            "label": "paidTimes",
            "offset": 0,
            "slot": "13",
            "type": "t_uint256"
          }
        ],
        "numberOfBytes": "448"
      },
      "t_struct(PMT)12380_storage": {
        "encoding": "inplace",
        "label": "struct DataTypes.PMT",
        "members": [
          {
            "astId": 12375,
            "contract": "contracts/component/shared/storage/LiquidityManagerStorage.sol:LiquidityManagerStorage",
            "label": "principal",
            "offset": 0,
            "slot": "0",
            "type": "t_uint256"
          },
          {
            "astId": 12377,
            "contract": "contracts/component/shared/storage/LiquidityManagerStorage.sol:LiquidityManagerStorage",
            "label": "interest",
            "offset": 0,
            "slot": "1",
            "type": "t_uint256"
          },
          {
            "astId": 12379,
            "contract": "contracts/component/shared/storage/LiquidityManagerStorage.sol:LiquidityManagerStorage",
            "label": "pmt",
            "offset": 0,
            "slot": "2",
            "type": "t_uint256"
          }
        ],
        "numberOfBytes": "96"
      },
      "t_struct(RepaymentData)12441_storage": {
        "encoding": "inplace",
        "label": "struct DataTypes.RepaymentData",
        "members": [
          {
            "astId": 12434,
            "contract": "contracts/component/shared/storage/LiquidityManagerStorage.sol:LiquidityManagerStorage",
            "label": "principal",
            "offset": 0,
            "slot": "0",
            "type": "t_uint256"
          },
          {
            "astId": 12436,
            "contract": "contracts/component/shared/storage/LiquidityManagerStorage.sol:LiquidityManagerStorage",
            "label": "interest",
            "offset": 0,
            "slot": "1",
            "type": "t_uint256"
          },
          {
            "astId": 12438,
            "contract": "contracts/component/shared/storage/LiquidityManagerStorage.sol:LiquidityManagerStorage",
            "label": "total",
            "offset": 0,
            "slot": "2",
            "type": "t_uint256"
          },
          {
            "astId": 12440,
            "contract": "contracts/component/shared/storage/LiquidityManagerStorage.sol:LiquidityManagerStorage",
            "label": "paidAt",
            "offset": 0,
            "slot": "3",
            "type": "t_uint40"
          }
        ],
        "numberOfBytes": "128"
      },
      "t_struct(ReserveConfigurationMap)12338_storage": {
        "encoding": "inplace",
        "label": "struct DataTypes.ReserveConfigurationMap",
        "members": [
          {
            "astId": 12337,
            "contract": "contracts/component/shared/storage/LiquidityManagerStorage.sol:LiquidityManagerStorage",
            "label": "data",
            "offset": 0,
            "slot": "0",
            "type": "t_uint256"
          }
        ],
        "numberOfBytes": "32"
      },
      "t_struct(ReserveData)12335_storage": {
        "encoding": "inplace",
        "label": "struct DataTypes.ReserveData",
        "members": [
          {
            "astId": 12298,
            "contract": "contracts/component/shared/storage/LiquidityManagerStorage.sol:LiquidityManagerStorage",
            "label": "configuration",
            "offset": 0,
            "slot": "0",
            "type": "t_struct(ReserveConfigurationMap)12338_storage"
          },
          {
            "astId": 12300,
            "contract": "contracts/component/shared/storage/LiquidityManagerStorage.sol:LiquidityManagerStorage",
            "label": "currentOverallLiquidityRate",
            "offset": 0,
            "slot": "1",
            "type": "t_uint256"
          },
          {
            "astId": 12302,
            "contract": "contracts/component/shared/storage/LiquidityManagerStorage.sol:LiquidityManagerStorage",
            "label": "currentJuniorLiquidityRate",
            "offset": 0,
            "slot": "2",
            "type": "t_uint256"
          },
          {
            "astId": 12304,
            "contract": "contracts/component/shared/storage/LiquidityManagerStorage.sol:LiquidityManagerStorage",
            "label": "currentSeniorLiquidityRate",
            "offset": 0,
            "slot": "3",
            "type": "t_uint256"
          },
          {
            "astId": 12306,
            "contract": "contracts/component/shared/storage/LiquidityManagerStorage.sol:LiquidityManagerStorage",
            "label": "juniorLiquidityIndex",
            "offset": 0,
            "slot": "4",
            "type": "t_uint256"
          },
          {
            "astId": 12308,
            "contract": "contracts/component/shared/storage/LiquidityManagerStorage.sol:LiquidityManagerStorage",
            "label": "seniorLiquidityIndex",
            "offset": 0,
            "slot": "5",
            "type": "t_uint256"
          },
          {
            "astId": 12310,
            "contract": "contracts/component/shared/storage/LiquidityManagerStorage.sol:LiquidityManagerStorage",
            "label": "currentBorrowRate",
            "offset": 0,
            "slot": "6",
            "type": "t_uint256"
          },
          {
            "astId": 12312,
            "contract": "contracts/component/shared/storage/LiquidityManagerStorage.sol:LiquidityManagerStorage",
            "label": "securityRequirement",
            "offset": 0,
            "slot": "7",
            "type": "t_uint256"
          },
          {
            "astId": 12314,
            "contract": "contracts/component/shared/storage/LiquidityManagerStorage.sol:LiquidityManagerStorage",
            "label": "decimals",
            "offset": 0,
            "slot": "8",
            "type": "t_uint256"
          },
          {
            "astId": 12316,
            "contract": "contracts/component/shared/storage/LiquidityManagerStorage.sol:LiquidityManagerStorage",
            "label": "interestRateStrategyAddress",
            "offset": 0,
            "slot": "9",
            "type": "t_address"
          },
          {
            "astId": 12318,
            "contract": "contracts/component/shared/storage/LiquidityManagerStorage.sol:LiquidityManagerStorage",
            "label": "healthStrategyAddress",
            "offset": 0,
            "slot": "10",
            "type": "t_address"
          },
          {
            "astId": 12320,
            "contract": "contracts/component/shared/storage/LiquidityManagerStorage.sol:LiquidityManagerStorage",
            "label": "loanStrategyAddress",
            "offset": 0,
            "slot": "11",
            "type": "t_address"
          },
          {
            "astId": 12322,
            "contract": "contracts/component/shared/storage/LiquidityManagerStorage.sol:LiquidityManagerStorage",
            "label": "juniorDepositTokenAddress",
            "offset": 0,
            "slot": "12",
            "type": "t_address"
          },
          {
            "astId": 12324,
            "contract": "contracts/component/shared/storage/LiquidityManagerStorage.sol:LiquidityManagerStorage",
            "label": "seniorDepositTokenAddress",
            "offset": 0,
            "slot": "13",
            "type": "t_address"
          },
          {
            "astId": 12326,
            "contract": "contracts/component/shared/storage/LiquidityManagerStorage.sol:LiquidityManagerStorage",
            "label": "juniorLastUpdateTimestamp",
            "offset": 20,
            "slot": "13",
            "type": "t_uint40"
          },
          {
            "astId": 12328,
            "contract": "contracts/component/shared/storage/LiquidityManagerStorage.sol:LiquidityManagerStorage",
            "label": "seniorLastUpdateTimestamp",
            "offset": 25,
            "slot": "13",
            "type": "t_uint40"
          },
          {
            "astId": 12330,
            "contract": "contracts/component/shared/storage/LiquidityManagerStorage.sol:LiquidityManagerStorage",
            "label": "optimalTrancheRatio",
            "offset": 0,
            "slot": "14",
            "type": "t_uint256"
          },
          {
            "astId": 12332,
            "contract": "contracts/component/shared/storage/LiquidityManagerStorage.sol:LiquidityManagerStorage",
            "label": "currentIncomeRatio",
            "offset": 0,
            "slot": "15",
            "type": "t_uint256"
          },
          {
            "astId": 12334,
            "contract": "contracts/component/shared/storage/LiquidityManagerStorage.sol:LiquidityManagerStorage",
            "label": "optimalIncomeRatio",
            "offset": 0,
            "slot": "16",
            "type": "t_uint256"
          }
        ],
        "numberOfBytes": "544"
      },
      "t_uint16": {
        "encoding": "inplace",
        "label": "uint16",
        "numberOfBytes": "2"
      },
      "t_uint256": {
        "encoding": "inplace",
        "label": "uint256",
        "numberOfBytes": "32"
      },
      "t_uint40": {
        "encoding": "inplace",
        "label": "uint40",
        "numberOfBytes": "5"
      }
    }
  }
}