{
  "address": "0x93dCdb4A26C3bE8DF7CCC47cae6052b73e7105D3",
  "abi": [
    {
      "inputs": [
        {
          "internalType": "address payable",
          "name": "_proxy",
          "type": "address"
        },
        {
          "internalType": "address",
          "name": "_voyager",
          "type": "address"
        }
      ],
      "stateMutability": "nonpayable",
      "type": "constructor"
    },
    {
      "anonymous": false,
      "inputs": [
        {
          "indexed": true,
          "internalType": "address",
          "name": "reserve",
          "type": "address"
        },
        {
          "indexed": false,
          "internalType": "enum ReserveLogic.Tranche",
          "name": "tranche",
          "type": "uint8"
        },
        {
          "indexed": false,
          "internalType": "address",
          "name": "user",
          "type": "address"
        },
        {
          "indexed": true,
          "internalType": "address",
          "name": "onBehalfOf",
          "type": "address"
        },
        {
          "indexed": false,
          "internalType": "uint256",
          "name": "amount",
          "type": "uint256"
        }
      ],
      "name": "Deposit",
      "type": "event"
    },
    {
      "anonymous": false,
      "inputs": [
        {
          "indexed": true,
          "internalType": "address",
          "name": "previousOwner",
          "type": "address"
        },
        {
          "indexed": true,
          "internalType": "address",
          "name": "newOwner",
          "type": "address"
        }
      ],
      "name": "OwnershipTransferred",
      "type": "event"
    },
    {
      "anonymous": false,
      "inputs": [
        {
          "indexed": false,
          "internalType": "address",
          "name": "proxyAddress",
          "type": "address"
        }
      ],
      "name": "ProxyUpdated",
      "type": "event"
    },
    {
      "inputs": [
        {
          "internalType": "address",
          "name": "_asset",
          "type": "address"
        }
      ],
      "name": "activeReserve",
      "outputs": [],
      "stateMutability": "nonpayable",
      "type": "function"
    },
    {
      "inputs": [],
      "name": "claimOwnership",
      "outputs": [],
      "stateMutability": "nonpayable",
      "type": "function"
    },
    {
      "inputs": [
        {
          "internalType": "address",
          "name": "_asset",
          "type": "address"
        },
        {
          "internalType": "enum ReserveLogic.Tranche",
          "name": "_tranche",
          "type": "uint8"
        },
        {
          "internalType": "uint256",
          "name": "_amount",
          "type": "uint256"
        },
        {
          "internalType": "address",
          "name": "_user",
          "type": "address"
        },
        {
          "internalType": "address",
          "name": "_onBehalfOf",
          "type": "address"
        }
      ],
      "name": "deposit",
      "outputs": [],
      "stateMutability": "nonpayable",
      "type": "function"
    },
    {
      "inputs": [
        {
          "internalType": "address",
          "name": "_asset",
          "type": "address"
        }
      ],
      "name": "getConfiguration",
      "outputs": [
        {
          "components": [
            {
              "internalType": "uint256",
              "name": "data",
              "type": "uint256"
            }
          ],
          "internalType": "struct DataTypes.ReserveConfigurationMap",
          "name": "",
          "type": "tuple"
        }
      ],
      "stateMutability": "view",
      "type": "function"
    },
    {
      "inputs": [],
      "name": "getEscrowAddress",
      "outputs": [
        {
          "internalType": "address",
          "name": "",
          "type": "address"
        }
      ],
      "stateMutability": "view",
      "type": "function"
    },
    {
      "inputs": [
        {
          "internalType": "address",
          "name": "_asset",
          "type": "address"
        }
      ],
      "name": "getFlags",
      "outputs": [
        {
          "internalType": "bool",
          "name": "",
          "type": "bool"
        },
        {
          "internalType": "bool",
          "name": "",
          "type": "bool"
        },
        {
          "internalType": "bool",
          "name": "",
          "type": "bool"
        }
      ],
      "stateMutability": "view",
      "type": "function"
    },
    {
      "inputs": [
        {
          "internalType": "address",
          "name": "_asset",
          "type": "address"
        }
      ],
      "name": "getJuniorLiquidityIndex",
      "outputs": [
        {
          "internalType": "uint256",
          "name": "",
          "type": "uint256"
        }
      ],
      "stateMutability": "view",
      "type": "function"
    },
    {
      "inputs": [
        {
          "internalType": "address",
          "name": "_asset",
          "type": "address"
        },
        {
          "internalType": "enum ReserveLogic.Tranche",
          "name": "_tranche",
          "type": "uint8"
        }
      ],
      "name": "getLiquidityRate",
      "outputs": [
        {
          "internalType": "uint256",
          "name": "",
          "type": "uint256"
        }
      ],
      "stateMutability": "view",
      "type": "function"
    },
    {
      "inputs": [
        {
          "internalType": "address",
          "name": "_asset",
          "type": "address"
        }
      ],
      "name": "getReserveData",
      "outputs": [
        {
          "components": [
            {
              "components": [
                {
                  "internalType": "uint256",
                  "name": "data",
                  "type": "uint256"
                }
              ],
              "internalType": "struct DataTypes.ReserveConfigurationMap",
              "name": "configuration",
              "type": "tuple"
            },
            {
              "internalType": "uint256",
              "name": "currentOverallLiquidityRate",
              "type": "uint256"
            },
            {
              "internalType": "uint256",
              "name": "currentSeniorIncomeAllocation",
              "type": "uint256"
            },
            {
              "internalType": "uint256",
              "name": "currentJuniorIncomeAllocation",
              "type": "uint256"
            },
            {
              "internalType": "uint256",
              "name": "juniorLiquidityIndex",
              "type": "uint256"
            },
            {
              "internalType": "uint256",
              "name": "seniorLiquidityIndex",
              "type": "uint256"
            },
            {
              "internalType": "uint256",
              "name": "totalBorrows",
              "type": "uint256"
            },
            {
              "internalType": "uint256",
              "name": "currentBorrowRate",
              "type": "uint256"
            },
            {
              "internalType": "uint256",
              "name": "securityRequirement",
              "type": "uint256"
            },
            {
              "internalType": "uint256",
              "name": "decimals",
              "type": "uint256"
            },
            {
              "internalType": "address",
              "name": "interestRateStrategyAddress",
              "type": "address"
            },
            {
              "internalType": "address",
              "name": "juniorDepositTokenAddress",
              "type": "address"
            },
            {
              "internalType": "address",
              "name": "seniorDepositTokenAddress",
              "type": "address"
            },
            {
              "internalType": "address",
              "name": "stableDebtAddress",
              "type": "address"
            },
            {
              "internalType": "uint40",
              "name": "juniorLastUpdateTimestamp",
              "type": "uint40"
            },
            {
              "internalType": "uint40",
              "name": "seniorLastUpdateTimestamp",
              "type": "uint40"
            }
          ],
          "internalType": "struct DataTypes.ReserveData",
          "name": "",
          "type": "tuple"
        }
      ],
      "stateMutability": "view",
      "type": "function"
    },
    {
      "inputs": [
        {
          "internalType": "address",
          "name": "_asset",
          "type": "address"
        },
        {
          "internalType": "enum ReserveLogic.Tranche",
          "name": "_tranche",
          "type": "uint8"
        }
      ],
      "name": "getReserveNormalizedIncome",
      "outputs": [
        {
          "internalType": "uint256",
          "name": "",
          "type": "uint256"
        }
      ],
      "stateMutability": "view",
      "type": "function"
    },
    {
      "inputs": [
        {
          "internalType": "address",
          "name": "_asset",
          "type": "address"
        }
      ],
      "name": "getSeniorLiquidityIndex",
      "outputs": [
        {
          "internalType": "uint256",
          "name": "",
          "type": "uint256"
        }
      ],
      "stateMutability": "view",
      "type": "function"
    },
    {
      "inputs": [
        {
          "internalType": "address",
          "name": "_asset",
          "type": "address"
        },
        {
          "internalType": "address",
          "name": "_juniorDepositTokenAddress",
          "type": "address"
        },
        {
          "internalType": "address",
          "name": "_seniorDepositTokenAddress",
          "type": "address"
        },
        {
          "internalType": "uint256",
          "name": "_juniorIncomeAllocation",
          "type": "uint256"
        },
        {
          "internalType": "uint256",
          "name": "_seniorIncomeAllocation",
          "type": "uint256"
        },
        {
          "internalType": "address",
          "name": "_stableDebtAddress",
          "type": "address"
        },
        {
          "internalType": "address",
          "name": "_interestRateStrategyAddress",
          "type": "address"
        }
      ],
      "name": "initReserve",
      "outputs": [],
      "stateMutability": "nonpayable",
      "type": "function"
    },
    {
      "inputs": [],
      "name": "isOwner",
      "outputs": [
        {
          "internalType": "bool",
          "name": "",
          "type": "bool"
        }
      ],
      "stateMutability": "view",
      "type": "function"
    },
    {
      "inputs": [],
      "name": "liquidityDepositEscrow",
      "outputs": [
        {
          "internalType": "contract LiquidityDepositEscrow",
          "name": "",
          "type": "address"
        }
      ],
      "stateMutability": "view",
      "type": "function"
    },
    {
      "inputs": [],
      "name": "messageSender",
      "outputs": [
        {
          "internalType": "address",
          "name": "",
          "type": "address"
        }
      ],
      "stateMutability": "view",
      "type": "function"
    },
    {
      "inputs": [],
      "name": "owner",
      "outputs": [
        {
          "internalType": "address",
          "name": "",
          "type": "address"
        }
      ],
      "stateMutability": "view",
      "type": "function"
    },
    {
      "inputs": [],
      "name": "pendingOwner",
      "outputs": [
        {
          "internalType": "address",
          "name": "",
          "type": "address"
        }
      ],
      "stateMutability": "view",
      "type": "function"
    },
    {
      "inputs": [],
      "name": "proxy",
      "outputs": [
        {
          "internalType": "contract Proxy",
          "name": "",
          "type": "address"
        }
      ],
      "stateMutability": "view",
      "type": "function"
    },
    {
      "inputs": [
        {
          "internalType": "address",
          "name": "_loadManager",
          "type": "address"
        }
      ],
      "name": "setLoanManagerToEscrow",
      "outputs": [],
      "stateMutability": "nonpayable",
      "type": "function"
    },
    {
      "inputs": [
        {
          "internalType": "address",
          "name": "sender",
          "type": "address"
        }
      ],
      "name": "setMessageSender",
      "outputs": [],
      "stateMutability": "nonpayable",
      "type": "function"
    },
    {
      "inputs": [
        {
          "internalType": "address payable",
          "name": "_proxy",
          "type": "address"
        }
      ],
      "name": "setProxy",
      "outputs": [],
      "stateMutability": "nonpayable",
      "type": "function"
    },
    {
      "inputs": [
        {
          "internalType": "address",
          "name": "newOwner",
          "type": "address"
        }
      ],
      "name": "transferOwnership",
      "outputs": [],
      "stateMutability": "nonpayable",
      "type": "function"
    },
    {
      "inputs": [],
      "name": "voyager",
      "outputs": [
        {
          "internalType": "contract Voyager",
          "name": "",
          "type": "address"
        }
      ],
      "stateMutability": "view",
      "type": "function"
    }
  ],
  "transactionHash": "0xcaa8483df43a67c979c53e2cde45491189b6c38734d482f69509bacd4702296b",
  "args": [
    "0x7B99A97B39d0cDF9b88B94A5c0EcA9D91F5930dC",
    "0xb52B14243881359190d9Dd7eb371608070699bd7"
  ],
  "numDeployments": 1,
  "solcInputHash": "eee69880cfa252642b6fd82566022b0c",
  "bytecode": "0x60806040523480156200001157600080fd5b5060405162005aa438038062005aa48339818101604052810190620000379190620003ca565b818181336000806101000a81548173ffffffffffffffffffffffffffffffffffffffff021916908373ffffffffffffffffffffffffffffffffffffffff16021790555060008054906101000a900473ffffffffffffffffffffffffffffffffffffffff1673ffffffffffffffffffffffffffffffffffffffff16600073ffffffffffffffffffffffffffffffffffffffff167f8be0079c531659141344cd1fd0a4f28419497f9722a3daafe3b4186f6b6457e060405160405180910390a3600073ffffffffffffffffffffffffffffffffffffffff1660008054906101000a900473ffffffffffffffffffffffffffffffffffffffff1673ffffffffffffffffffffffffffffffffffffffff16141562000188576040517f08c379a00000000000000000000000000000000000000000000000000000000081526004016200017f9062000472565b60405180910390fd5b80600260006101000a81548173ffffffffffffffffffffffffffffffffffffffff021916908373ffffffffffffffffffffffffffffffffffffffff1602179055507ffc80377ca9c49cc11ae6982f390a42db976d5530af7c43889264b13fbbd7c57e81604051620001fa9190620004ff565b60405180910390a15080600460006101000a81548173ffffffffffffffffffffffffffffffffffffffff021916908373ffffffffffffffffffffffffffffffffffffffff1602179055505050620002566200029e60201b60201c565b600560006101000a81548173ffffffffffffffffffffffffffffffffffffffff021916908373ffffffffffffffffffffffffffffffffffffffff160217905550505062000589565b60008033604051602001620002b491906200056c565b604051602081830303815290604052805190602001209050600060405180602001620002e0906200030d565b6020820181038252601f19601f8201166040525090506000828251602084016000f5905080935050505090565b612dc68062002cde83390190565b600080fd5b600073ffffffffffffffffffffffffffffffffffffffff82169050919050565b60006200034d8262000320565b9050919050565b6200035f8162000340565b81146200036b57600080fd5b50565b6000815190506200037f8162000354565b92915050565b6000620003928262000320565b9050919050565b620003a48162000385565b8114620003b057600080fd5b50565b600081519050620003c48162000399565b92915050565b60008060408385031215620003e457620003e36200031b565b5b6000620003f4858286016200036e565b92505060206200040785828601620003b3565b9150509250929050565b600082825260208201905092915050565b7f4f776e6572206d75737420626520736574000000000000000000000000000000600082015250565b60006200045a60118362000411565b9150620004678262000422565b602082019050919050565b600060208201905081810360008301526200048d816200044b565b9050919050565b6000819050919050565b6000620004bf620004b9620004b38462000320565b62000494565b62000320565b9050919050565b6000620004d3826200049e565b9050919050565b6000620004e782620004c6565b9050919050565b620004f981620004da565b82525050565b6000602082019050620005166000830184620004ee565b92915050565b60008160601b9050919050565b600062000536826200051c565b9050919050565b60006200054a8262000529565b9050919050565b62000566620005608262000385565b6200053d565b82525050565b60006200057a828462000551565b60148201915081905092915050565b61274580620005996000396000f3fe608060405234801561001057600080fd5b506004361061014d5760003560e01c806397107d6d116100c3578063c907e29a1161007c578063c907e29a146103b2578063d67bdd25146103ce578063e30c3978146103ec578063ec5568891461040a578063f2fde38b14610428578063f448e140146104445761014d565b806397107d6d146102e05780639cc67a0f146102fc578063b544639a1461032c578063bc67f8321461034a578063c44b11f714610366578063c827dc83146103965761014d565b80634e71e0c8116101155780634e71e0c81461021c578063776f689114610226578063817ad5d31461025657806381f78151146102885780638da5cb5b146102a45780638f32d59b146102c25761014d565b806303d6fa9514610152578063122fd48a146101825780631f1fc35f146101a0578063284592b2146101bc57806335ea6a75146101ec575b600080fd5b61016c600480360381019061016791906118cf565b610462565b6040516101799190611915565b60405180910390f35b61018a6104fb565b604051610197919061193f565b60405180910390f35b6101ba60048036038101906101b59190611986565b61050a565b005b6101d660048036038101906101d19190611a4d565b61061a565b6040516101e39190611915565b60405180910390f35b610206600480360381019061020191906118cf565b610737565b6040516102139190611c31565b60405180910390f35b610224610858565b005b610240600480360381019061023b9190611a4d565b6109f4565b60405161024d9190611915565b60405180910390f35b610270600480360381019061026b91906118cf565b610b11565b60405161027f93929190611c68565b60405180910390f35b6102a2600480360381019061029d91906118cf565b610bb3565b005b6102ac610cb1565b6040516102b9919061193f565b60405180910390f35b6102ca610cd5565b6040516102d79190611c9f565b60405180910390f35b6102fa60048036038101906102f59190611cf8565b610d2c565b005b610316600480360381019061031191906118cf565b610dee565b6040516103239190611915565b60405180910390f35b610334610e87565b6040516103419190611d84565b60405180910390f35b610364600480360381019061035f91906118cf565b610ead565b005b610380600480360381019061037b91906118cf565b610ef9565b60405161038d9190611dbb565b60405180910390f35b6103b060048036038101906103ab91906118cf565b611019565b005b6103cc60048036038101906103c79190611dd6565b611096565b005b6103d6611396565b6040516103e3919061193f565b60405180910390f35b6103f46113bc565b604051610401919061193f565b60405180910390f35b6104126113e2565b60405161041f9190611e84565b60405180910390f35b610442600480360381019061043d91906118cf565b611408565b005b61044c611493565b6040516104599190611ec0565b60405180910390f35b600061046c6114b9565b73ffffffffffffffffffffffffffffffffffffffff166303d6fa95836040518263ffffffff1660e01b81526004016104a4919061193f565b60206040518083038186803b1580156104bc57600080fd5b505afa1580156104d0573d6000803e3d6000fd5b505050506040513d601f19601f820116820180604052508101906104f49190611ef0565b9050919050565b6000610505611687565b905090565b6105126116b1565b61051b87611743565b6040518060400160405280600281526020017f363000000000000000000000000000000000000000000000000000000000000081525090610592576040517f08c379a00000000000000000000000000000000000000000000000000000000081526004016105899190611fb6565b60405180910390fd5b5061059b6114b9565b73ffffffffffffffffffffffffffffffffffffffff16631f1fc35f888888888888886040518863ffffffff1660e01b81526004016105df9796959493929190611fd8565b600060405180830381600087803b1580156105f957600080fd5b505af115801561060d573d6000803e3d6000fd5b5050505050505050505050565b600061062583611743565b6040518060400160405280600281526020017f36300000000000000000000000000000000000000000000000000000000000008152509061069c576040517f08c379a00000000000000000000000000000000000000000000000000000000081526004016106939190611fb6565b60405180910390fd5b506106a56114b9565b73ffffffffffffffffffffffffffffffffffffffff1663284592b284846040518363ffffffff1660e01b81526004016106df9291906120be565b60206040518083038186803b1580156106f757600080fd5b505afa15801561070b573d6000803e3d6000fd5b505050506040513d601f19601f8201168201806040525081019061072f9190611ef0565b905092915050565b61073f611766565b61074882611743565b6040518060400160405280600281526020017f3630000000000000000000000000000000000000000000000000000000000000815250906107bf576040517f08c379a00000000000000000000000000000000000000000000000000000000081526004016107b69190611fb6565b60405180910390fd5b506107c86114b9565b73ffffffffffffffffffffffffffffffffffffffff166335ea6a75836040518263ffffffff1660e01b8152600401610800919061193f565b6102006040518083038186803b15801561081957600080fd5b505afa15801561082d573d6000803e3d6000fd5b505050506040513d601f19601f82011682018060405250810190610851919061235e565b9050919050565b600160009054906101000a900473ffffffffffffffffffffffffffffffffffffffff1673ffffffffffffffffffffffffffffffffffffffff163373ffffffffffffffffffffffffffffffffffffffff16146108b257600080fd5b600160009054906101000a900473ffffffffffffffffffffffffffffffffffffffff1673ffffffffffffffffffffffffffffffffffffffff1660008054906101000a900473ffffffffffffffffffffffffffffffffffffffff1673ffffffffffffffffffffffffffffffffffffffff167f8be0079c531659141344cd1fd0a4f28419497f9722a3daafe3b4186f6b6457e060405160405180910390a3600160009054906101000a900473ffffffffffffffffffffffffffffffffffffffff166000806101000a81548173ffffffffffffffffffffffffffffffffffffffff021916908373ffffffffffffffffffffffffffffffffffffffff1602179055506000600160006101000a81548173ffffffffffffffffffffffffffffffffffffffff021916908373ffffffffffffffffffffffffffffffffffffffff160217905550565b60006109ff83611743565b6040518060400160405280600281526020017f363000000000000000000000000000000000000000000000000000000000000081525090610a76576040517f08c379a0000000000000000000000000000000000000000000000000000000008152600401610a6d9190611fb6565b60405180910390fd5b50610a7f6114b9565b73ffffffffffffffffffffffffffffffffffffffff1663776f689184846040518363ffffffff1660e01b8152600401610ab99291906120be565b60206040518083038186803b158015610ad157600080fd5b505afa158015610ae5573d6000803e3d6000fd5b505050506040513d601f19601f82011682018060405250810190610b099190611ef0565b905092915050565b6000806000610b1e6114b9565b73ffffffffffffffffffffffffffffffffffffffff1663817ad5d3856040518263ffffffff1660e01b8152600401610b56919061193f565b60606040518083038186803b158015610b6e57600080fd5b505afa158015610b82573d6000803e3d6000fd5b505050506040513d601f19601f82011682018060405250810190610ba691906123b8565b9250925092509193909250565b610bbb6116b1565b610bc481611743565b6040518060400160405280600281526020017f363000000000000000000000000000000000000000000000000000000000000081525090610c3b576040517f08c379a0000000000000000000000000000000000000000000000000000000008152600401610c329190611fb6565b60405180910390fd5b50610c446114b9565b73ffffffffffffffffffffffffffffffffffffffff166381f78151826040518263ffffffff1660e01b8152600401610c7c919061193f565b600060405180830381600087803b158015610c9657600080fd5b505af1158015610caa573d6000803e3d6000fd5b5050505050565b60008054906101000a900473ffffffffffffffffffffffffffffffffffffffff1681565b60008060009054906101000a900473ffffffffffffffffffffffffffffffffffffffff1673ffffffffffffffffffffffffffffffffffffffff163373ffffffffffffffffffffffffffffffffffffffff1614905090565b610d34610cd5565b610d73576040517f08c379a0000000000000000000000000000000000000000000000000000000008152600401610d6a90612457565b60405180910390fd5b80600260006101000a81548173ffffffffffffffffffffffffffffffffffffffff021916908373ffffffffffffffffffffffffffffffffffffffff1602179055507ffc80377ca9c49cc11ae6982f390a42db976d5530af7c43889264b13fbbd7c57e81604051610de39190612498565b60405180910390a150565b6000610df86114b9565b73ffffffffffffffffffffffffffffffffffffffff16639cc67a0f836040518263ffffffff1660e01b8152600401610e30919061193f565b60206040518083038186803b158015610e4857600080fd5b505afa158015610e5c573d6000803e3d6000fd5b505050506040513d601f19601f82011682018060405250810190610e809190611ef0565b9050919050565b600560009054906101000a900473ffffffffffffffffffffffffffffffffffffffff1681565b610eb56116b1565b80600360006101000a81548173ffffffffffffffffffffffffffffffffffffffff021916908373ffffffffffffffffffffffffffffffffffffffff16021790555050565b610f0161184f565b610f0a82611743565b6040518060400160405280600281526020017f363000000000000000000000000000000000000000000000000000000000000081525090610f81576040517f08c379a0000000000000000000000000000000000000000000000000000000008152600401610f789190611fb6565b60405180910390fd5b50610f8a6114b9565b73ffffffffffffffffffffffffffffffffffffffff1663c44b11f7836040518263ffffffff1660e01b8152600401610fc2919061193f565b60206040518083038186803b158015610fda57600080fd5b505afa158015610fee573d6000803e3d6000fd5b505050506040513d601f19601f8201168201806040525081019061101291906124b3565b9050919050565b6110216116b1565b611029611687565b73ffffffffffffffffffffffffffffffffffffffff1663f2ffaa0a826040518263ffffffff1660e01b8152600401611061919061193f565b600060405180830381600087803b15801561107b57600080fd5b505af115801561108f573d6000803e3d6000fd5b5050505050565b61109e6116b1565b60006110a86114b9565b905060006110b587610737565b90508173ffffffffffffffffffffffffffffffffffffffff1663c8caf6808888886040518463ffffffff1660e01b81526004016110f4939291906124e0565b600060405180830381600087803b15801561110e57600080fd5b505af1158015611122573d6000803e3d6000fd5b50505050600560009054906101000a900473ffffffffffffffffffffffffffffffffffffffff1673ffffffffffffffffffffffffffffffffffffffff16638340f5498886886040518463ffffffff1660e01b815260040161118593929190612517565b600060405180830381600087803b15801561119f57600080fd5b505af11580156111b3573d6000803e3d6000fd5b505050508560018111156111ca576111c9612047565b5b600060018111156111de576111dd612047565b5b14156112865780610160015173ffffffffffffffffffffffffffffffffffffffff1663156e29f684876112108b610462565b6040518463ffffffff1660e01b815260040161122e9392919061254e565b602060405180830381600087803b15801561124857600080fd5b505af115801561125c573d6000803e3d6000fd5b505050506040513d601f19601f820116820180604052508101906112809190612585565b50611324565b80610180015173ffffffffffffffffffffffffffffffffffffffff1663156e29f684876112b28b610dee565b6040518463ffffffff1660e01b81526004016112d09392919061254e565b602060405180830381600087803b1580156112ea57600080fd5b505af11580156112fe573d6000803e3d6000fd5b505050506040513d601f19601f820116820180604052508101906113229190612585565b505b8273ffffffffffffffffffffffffffffffffffffffff168773ffffffffffffffffffffffffffffffffffffffff167fafaa0bb33107f0b53eb43b8c8630ca1b02629e31cc227064a1efb0b979377fdc888789604051611385939291906125b2565b60405180910390a350505050505050565b600360009054906101000a900473ffffffffffffffffffffffffffffffffffffffff1681565b600160009054906101000a900473ffffffffffffffffffffffffffffffffffffffff1681565b600260009054906101000a900473ffffffffffffffffffffffffffffffffffffffff1681565b611410610cd5565b61144f576040517f08c379a000000000000000000000000000000000000000000000000000000000815260040161144690612457565b60405180910390fd5b80600160006101000a81548173ffffffffffffffffffffffffffffffffffffffff021916908373ffffffffffffffffffffffffffffffffffffffff16021790555050565b600460009054906101000a900473ffffffffffffffffffffffffffffffffffffffff1681565b6000600460009054906101000a900473ffffffffffffffffffffffffffffffffffffffff1673ffffffffffffffffffffffffffffffffffffffff166394f674436040518163ffffffff1660e01b815260040160206040518083038186803b15801561152357600080fd5b505afa158015611537573d6000803e3d6000fd5b505050506040513d601f19601f8201168201806040525081019061155b91906125e9565b73ffffffffffffffffffffffffffffffffffffffff166321f8a721600460009054906101000a900473ffffffffffffffffffffffffffffffffffffffff1673ffffffffffffffffffffffffffffffffffffffff1663e7bf1ece6040518163ffffffff1660e01b815260040160206040518083038186803b1580156115de57600080fd5b505afa1580156115f2573d6000803e3d6000fd5b505050506040513d601f19601f82011682018060405250810190611616919061264c565b6040518263ffffffff1660e01b81526004016116329190612688565b60206040518083038186803b15801561164a57600080fd5b505afa15801561165e573d6000803e3d6000fd5b505050506040513d601f19601f8201168201806040525081019061168291906125e9565b905090565b6000600560009054906101000a900473ffffffffffffffffffffffffffffffffffffffff16905090565b600260009054906101000a900473ffffffffffffffffffffffffffffffffffffffff1673ffffffffffffffffffffffffffffffffffffffff163373ffffffffffffffffffffffffffffffffffffffff1614611741576040517f08c379a0000000000000000000000000000000000000000000000000000000008152600401611738906126ef565b60405180910390fd5b565b6000808273ffffffffffffffffffffffffffffffffffffffff163b119050919050565b60405180610200016040528061177a61184f565b8152602001600081526020016000815260200160008152602001600081526020016000815260200160008152602001600081526020016000815260200160008152602001600073ffffffffffffffffffffffffffffffffffffffff168152602001600073ffffffffffffffffffffffffffffffffffffffff168152602001600073ffffffffffffffffffffffffffffffffffffffff168152602001600073ffffffffffffffffffffffffffffffffffffffff168152602001600064ffffffffff168152602001600064ffffffffff1681525090565b6040518060200160405280600081525090565b6000604051905090565b600080fd5b600073ffffffffffffffffffffffffffffffffffffffff82169050919050565b600061189c82611871565b9050919050565b6118ac81611891565b81146118b757600080fd5b50565b6000813590506118c9816118a3565b92915050565b6000602082840312156118e5576118e461186c565b5b60006118f3848285016118ba565b91505092915050565b6000819050919050565b61190f816118fc565b82525050565b600060208201905061192a6000830184611906565b92915050565b61193981611891565b82525050565b60006020820190506119546000830184611930565b92915050565b611963816118fc565b811461196e57600080fd5b50565b6000813590506119808161195a565b92915050565b600080600080600080600060e0888a0312156119a5576119a461186c565b5b60006119b38a828b016118ba565b97505060206119c48a828b016118ba565b96505060406119d58a828b016118ba565b95505060606119e68a828b01611971565b94505060806119f78a828b01611971565b93505060a0611a088a828b016118ba565b92505060c0611a198a828b016118ba565b91505092959891949750929550565b60028110611a3557600080fd5b50565b600081359050611a4781611a28565b92915050565b60008060408385031215611a6457611a6361186c565b5b6000611a72858286016118ba565b9250506020611a8385828601611a38565b9150509250929050565b611a96816118fc565b82525050565b602082016000820151611ab26000850182611a8d565b50505050565b611ac181611891565b82525050565b600064ffffffffff82169050919050565b611ae181611ac7565b82525050565b61020082016000820151611afe6000850182611a9c565b506020820151611b116020850182611a8d565b506040820151611b246040850182611a8d565b506060820151611b376060850182611a8d565b506080820151611b4a6080850182611a8d565b5060a0820151611b5d60a0850182611a8d565b5060c0820151611b7060c0850182611a8d565b5060e0820151611b8360e0850182611a8d565b50610100820151611b98610100850182611a8d565b50610120820151611bad610120850182611a8d565b50610140820151611bc2610140850182611ab8565b50610160820151611bd7610160850182611ab8565b50610180820151611bec610180850182611ab8565b506101a0820151611c016101a0850182611ab8565b506101c0820151611c166101c0850182611ad8565b506101e0820151611c2b6101e0850182611ad8565b50505050565b600061020082019050611c476000830184611ae7565b92915050565b60008115159050919050565b611c6281611c4d565b82525050565b6000606082019050611c7d6000830186611c59565b611c8a6020830185611c59565b611c976040830184611c59565b949350505050565b6000602082019050611cb46000830184611c59565b92915050565b6000611cc582611871565b9050919050565b611cd581611cba565b8114611ce057600080fd5b50565b600081359050611cf281611ccc565b92915050565b600060208284031215611d0e57611d0d61186c565b5b6000611d1c84828501611ce3565b91505092915050565b6000819050919050565b6000611d4a611d45611d4084611871565b611d25565b611871565b9050919050565b6000611d5c82611d2f565b9050919050565b6000611d6e82611d51565b9050919050565b611d7e81611d63565b82525050565b6000602082019050611d996000830184611d75565b92915050565b602082016000820151611db56000850182611a8d565b50505050565b6000602082019050611dd06000830184611d9f565b92915050565b600080600080600060a08688031215611df257611df161186c565b5b6000611e00888289016118ba565b9550506020611e1188828901611a38565b9450506040611e2288828901611971565b9350506060611e33888289016118ba565b9250506080611e44888289016118ba565b9150509295509295909350565b6000611e5c82611d2f565b9050919050565b6000611e6e82611e51565b9050919050565b611e7e81611e63565b82525050565b6000602082019050611e996000830184611e75565b92915050565b6000611eaa82611d51565b9050919050565b611eba81611e9f565b82525050565b6000602082019050611ed56000830184611eb1565b92915050565b600081519050611eea8161195a565b92915050565b600060208284031215611f0657611f0561186c565b5b6000611f1484828501611edb565b91505092915050565b600081519050919050565b600082825260208201905092915050565b60005b83811015611f57578082015181840152602081019050611f3c565b83811115611f66576000848401525b50505050565b6000601f19601f8301169050919050565b6000611f8882611f1d565b611f928185611f28565b9350611fa2818560208601611f39565b611fab81611f6c565b840191505092915050565b60006020820190508181036000830152611fd08184611f7d565b905092915050565b600060e082019050611fed600083018a611930565b611ffa6020830189611930565b6120076040830188611930565b6120146060830187611906565b6120216080830186611906565b61202e60a0830185611930565b61203b60c0830184611930565b98975050505050505050565b7f4e487b7100000000000000000000000000000000000000000000000000000000600052602160045260246000fd5b6002811061208757612086612047565b5b50565b600081905061209882612076565b919050565b60006120a88261208a565b9050919050565b6120b88161209d565b82525050565b60006040820190506120d36000830185611930565b6120e060208301846120af565b9392505050565b600080fd5b7f4e487b7100000000000000000000000000000000000000000000000000000000600052604160045260246000fd5b61212482611f6c565b810181811067ffffffffffffffff82111715612143576121426120ec565b5b80604052505050565b6000612156611862565b9050612162828261211b565b919050565b60006020828403121561217d5761217c6120e7565b5b612187602061214c565b9050600061219784828501611edb565b60008301525092915050565b6000815190506121b2816118a3565b92915050565b6121c181611ac7565b81146121cc57600080fd5b50565b6000815190506121de816121b8565b92915050565b600061020082840312156121fb576121fa6120e7565b5b61220661020061214c565b9050600061221684828501612167565b600083015250602061222a84828501611edb565b602083015250604061223e84828501611edb565b604083015250606061225284828501611edb565b606083015250608061226684828501611edb565b60808301525060a061227a84828501611edb565b60a08301525060c061228e84828501611edb565b60c08301525060e06122a284828501611edb565b60e0830152506101006122b784828501611edb565b610100830152506101206122cd84828501611edb565b610120830152506101406122e3848285016121a3565b610140830152506101606122f9848285016121a3565b6101608301525061018061230f848285016121a3565b610180830152506101a0612325848285016121a3565b6101a0830152506101c061233b848285016121cf565b6101c0830152506101e0612351848285016121cf565b6101e08301525092915050565b600061020082840312156123755761237461186c565b5b6000612383848285016121e4565b91505092915050565b61239581611c4d565b81146123a057600080fd5b50565b6000815190506123b28161238c565b92915050565b6000806000606084860312156123d1576123d061186c565b5b60006123df868287016123a3565b93505060206123f0868287016123a3565b9250506040612401868287016123a3565b9150509250925092565b7f4f776e61626c653a2063616c6c6572206973206e6f7420746865206f776e6572600082015250565b6000612441602083611f28565b915061244c8261240b565b602082019050919050565b6000602082019050818103600083015261247081612434565b9050919050565b600061248282611d51565b9050919050565b61249281612477565b82525050565b60006020820190506124ad6000830184612489565b92915050565b6000602082840312156124c9576124c861186c565b5b60006124d784828501612167565b91505092915050565b60006060820190506124f56000830186611930565b61250260208301856120af565b61250f6040830184611906565b949350505050565b600060608201905061252c6000830186611930565b6125396020830185611930565b6125466040830184611906565b949350505050565b60006060820190506125636000830186611930565b6125706020830185611906565b61257d6040830184611906565b949350505050565b60006020828403121561259b5761259a61186c565b5b60006125a9848285016123a3565b91505092915050565b60006060820190506125c760008301866120af565b6125d46020830185611930565b6125e16040830184611906565b949350505050565b6000602082840312156125ff576125fe61186c565b5b600061260d848285016121a3565b91505092915050565b6000819050919050565b61262981612616565b811461263457600080fd5b50565b60008151905061264681612620565b92915050565b6000602082840312156126625761266161186c565b5b600061267084828501612637565b91505092915050565b61268281612616565b82525050565b600060208201905061269d6000830184612679565b92915050565b7f4f6e6c79207468652070726f78792063616e2063616c6c000000000000000000600082015250565b60006126d9601783611f28565b91506126e4826126a3565b602082019050919050565b60006020820190508181036000830152612708816126cc565b905091905056fea2646970667358221220fe0bea7b9ba99d446ce8621c00794cc31fb55f700fa15b9b6cdfbd1914ffb10e64736f6c63430008090033608060405262093a80600560006101000a81548164ffffffffff021916908364ffffffffff16021790555034801561003657600080fd5b50336000806101000a81548173ffffffffffffffffffffffffffffffffffffffff021916908373ffffffffffffffffffffffffffffffffffffffff16021790555060008054906101000a900473ffffffffffffffffffffffffffffffffffffffff1673ffffffffffffffffffffffffffffffffffffffff16600073ffffffffffffffffffffffffffffffffffffffff167f8be0079c531659141344cd1fd0a4f28419497f9722a3daafe3b4186f6b6457e060405160405180910390a36001600281905550612cbd806101096000396000f3fe6080604052600436106101145760003560e01c8063930f8f5e116100a0578063d547741f11610064578063d547741f146103b8578063d9caed12146103e1578063e30c39781461040a578063f2fde38b14610435578063f2ffaa0a1461045e57610114565b8063930f8f5e146102ab5780639932f036146102e8578063a217fddf14610325578063a424a05614610350578063b8ba16fd1461037b57610114565b80634e71e0c8116100e75780634e71e0c8146101e55780638340f549146101fc5780638da5cb5b146102185780638f32d59b1461024357806391d148541461026e57610114565b806301ffc9a714610119578063248a9ca3146101565780632f2ff15d1461019357806336568abe146101bc575b600080fd5b34801561012557600080fd5b50610140600480360381019061013b9190611d34565b610487565b60405161014d9190611d7c565b60405180910390f35b34801561016257600080fd5b5061017d60048036038101906101789190611dcd565b610501565b60405161018a9190611e09565b60405180910390f35b34801561019f57600080fd5b506101ba60048036038101906101b59190611e82565b610521565b005b3480156101c857600080fd5b506101e360048036038101906101de9190611e82565b61054a565b005b3480156101f157600080fd5b506101fa6105cd565b005b61021660048036038101906102119190611ef8565b610769565b005b34801561022457600080fd5b5061022d610814565b60405161023a9190611f5a565b60405180910390f35b34801561024f57600080fd5b50610258610838565b6040516102659190611d7c565b60405180910390f35b34801561027a57600080fd5b5061029560048036038101906102909190611e82565b61088f565b6040516102a29190611d7c565b60405180910390f35b3480156102b757600080fd5b506102d260048036038101906102cd9190611f75565b6108fa565b6040516102df9190611fc4565b60405180910390f35b3480156102f457600080fd5b5061030f600480360381019061030a9190611f75565b610a09565b60405161031c91906120ec565b60405180910390f35b34801561033157600080fd5b5061033a610ae1565b6040516103479190611e09565b60405180910390f35b34801561035c57600080fd5b50610365610ae8565b6040516103729190611e09565b60405180910390f35b34801561038757600080fd5b506103a2600480360381019061039d919061210e565b610b0c565b6040516103af9190611fc4565b60405180910390f35b3480156103c457600080fd5b506103df60048036038101906103da9190611e82565b610b55565b005b3480156103ed57600080fd5b5061040860048036038101906104039190612179565b610b7e565b005b34801561041657600080fd5b5061041f610bd5565b60405161042c9190611f5a565b60405180910390f35b34801561044157600080fd5b5061045c6004803603810190610457919061210e565b610bfb565b005b34801561046a57600080fd5b506104856004803603810190610480919061210e565b610c86565b005b60007f7965db0b000000000000000000000000000000000000000000000000000000007bffffffffffffffffffffffffffffffffffffffffffffffffffffffff1916827bffffffffffffffffffffffffffffffffffffffffffffffffffffffff191614806104fa57506104f982610cfa565b5b9050919050565b600060066000838152602001908152602001600020600101549050919050565b61052a82610501565b61053b81610536610d64565b610d6c565b6105458383610e09565b505050565b610552610d64565b73ffffffffffffffffffffffffffffffffffffffff168173ffffffffffffffffffffffffffffffffffffffff16146105bf576040517f08c379a00000000000000000000000000000000000000000000000000000000081526004016105b69061224f565b60405180910390fd5b6105c98282610eea565b5050565b600160009054906101000a900473ffffffffffffffffffffffffffffffffffffffff1673ffffffffffffffffffffffffffffffffffffffff163373ffffffffffffffffffffffffffffffffffffffff161461062757600080fd5b600160009054906101000a900473ffffffffffffffffffffffffffffffffffffffff1673ffffffffffffffffffffffffffffffffffffffff1660008054906101000a900473ffffffffffffffffffffffffffffffffffffffff1673ffffffffffffffffffffffffffffffffffffffff167f8be0079c531659141344cd1fd0a4f28419497f9722a3daafe3b4186f6b6457e060405160405180910390a3600160009054906101000a900473ffffffffffffffffffffffffffffffffffffffff166000806101000a81548173ffffffffffffffffffffffffffffffffffffffff021916908373ffffffffffffffffffffffffffffffffffffffff1602179055506000600160006101000a81548173ffffffffffffffffffffffffffffffffffffffff021916908373ffffffffffffffffffffffffffffffffffffffff160217905550565b6002805414156107ae576040517f08c379a00000000000000000000000000000000000000000000000000000000081526004016107a5906122bb565b60405180910390fd5b600280819055506107bd610838565b6107fc576040517f08c379a00000000000000000000000000000000000000000000000000000000081526004016107f390612327565b60405180910390fd5b610807838383610fcc565b6001600281905550505050565b60008054906101000a900473ffffffffffffffffffffffffffffffffffffffff1681565b60008060009054906101000a900473ffffffffffffffffffffffffffffffffffffffff1673ffffffffffffffffffffffffffffffffffffffff163373ffffffffffffffffffffffffffffffffffffffff1614905090565b60006006600084815260200190815260200160002060000160008373ffffffffffffffffffffffffffffffffffffffff1673ffffffffffffffffffffffffffffffffffffffff16815260200190815260200160002060009054906101000a900460ff16905092915050565b600080600460008573ffffffffffffffffffffffffffffffffffffffff1673ffffffffffffffffffffffffffffffffffffffff16815260200190815260200160002090506000805b82805490508110156109fd57600560009054906101000a900464ffffffffff1664ffffffffff1683828154811061097c5761097b612347565b5b906000526020600020906002020160010160009054906101000a900464ffffffffff16426109aa91906123a5565b64ffffffffff1611156109ea578281815481106109ca576109c9612347565b5b906000526020600020906002020160000154826109e791906123d9565b91505b80806109f59061242f565b915050610942565b50809250505092915050565b60606000600460008573ffffffffffffffffffffffffffffffffffffffff1673ffffffffffffffffffffffffffffffffffffffff168152602001908152602001600020905080805480602002602001604051908101604052809291908181526020016000905b82821015610ad45783829060005260206000209060020201604051806040016040529081600082015481526020016001820160009054906101000a900464ffffffffff1664ffffffffff1664ffffffffff168152505081526020019060010190610a6f565b5050505091505092915050565b6000801b81565b7f5abf8f18cd2250f0e913a42d02d425f52ecab18635cec6156973ec60716bcdc881565b6000600360008373ffffffffffffffffffffffffffffffffffffffff1673ffffffffffffffffffffffffffffffffffffffff168152602001908152602001600020549050919050565b610b5e82610501565b610b6f81610b6a610d64565b610d6c565b610b798383610eea565b505050565b610b86610838565b610bc5576040517f08c379a0000000000000000000000000000000000000000000000000000000008152600401610bbc90612327565b60405180910390fd5b610bd0838383611228565b505050565b600160009054906101000a900473ffffffffffffffffffffffffffffffffffffffff1681565b610c03610838565b610c42576040517f08c379a0000000000000000000000000000000000000000000000000000000008152600401610c3990612327565b60405180910390fd5b80600160006101000a81548173ffffffffffffffffffffffffffffffffffffffff021916908373ffffffffffffffffffffffffffffffffffffffff16021790555050565b610c8e610838565b610ccd576040517f08c379a0000000000000000000000000000000000000000000000000000000008152600401610cc490612327565b60405180910390fd5b610cf77f5abf8f18cd2250f0e913a42d02d425f52ecab18635cec6156973ec60716bcdc8826115c8565b50565b60007f01ffc9a7000000000000000000000000000000000000000000000000000000007bffffffffffffffffffffffffffffffffffffffffffffffffffffffff1916827bffffffffffffffffffffffffffffffffffffffffffffffffffffffff1916149050919050565b600033905090565b610d76828261088f565b610e0557610d9b8173ffffffffffffffffffffffffffffffffffffffff1660146115d6565b610da98360001c60206115d6565b604051602001610dba92919061258a565b6040516020818303038152906040526040517f08c379a0000000000000000000000000000000000000000000000000000000008152600401610dfc919061260e565b60405180910390fd5b5050565b610e13828261088f565b610ee65760016006600084815260200190815260200160002060000160008373ffffffffffffffffffffffffffffffffffffffff1673ffffffffffffffffffffffffffffffffffffffff16815260200190815260200160002060006101000a81548160ff021916908315150217905550610e8b610d64565b73ffffffffffffffffffffffffffffffffffffffff168173ffffffffffffffffffffffffffffffffffffffff16837f2f8788117e7eff1d82e926ec794901d17c78024a50270940304540a733656f0d60405160405180910390a45b5050565b610ef4828261088f565b15610fc85760006006600084815260200190815260200160002060000160008373ffffffffffffffffffffffffffffffffffffffff1673ffffffffffffffffffffffffffffffffffffffff16815260200190815260200160002060006101000a81548160ff021916908315150217905550610f6d610d64565b73ffffffffffffffffffffffffffffffffffffffff168173ffffffffffffffffffffffffffffffffffffffff16837ff6391f5c32d9c69d2a47ea670b442974b53935d1edc7fd64eb21e047a839171b60405160405180910390a45b5050565b610fd4611812565b73ffffffffffffffffffffffffffffffffffffffff168373ffffffffffffffffffffffffffffffffffffffff161461107b5760003414611049576040517f08c379a0000000000000000000000000000000000000000000000000000000008152600401611040906126a2565b60405180910390fd5b6110768230838673ffffffffffffffffffffffffffffffffffffffff1661182e909392919063ffffffff16565b6110be565b8034146110bd576040517f08c379a00000000000000000000000000000000000000000000000000000000081526004016110b490612734565b60405180910390fd5b5b80600360008573ffffffffffffffffffffffffffffffffffffffff1673ffffffffffffffffffffffffffffffffffffffff168152602001908152602001600020600082825461110d91906123d9565b92505081905550600060405180604001604052808381526020014264ffffffffff168152509050600460008573ffffffffffffffffffffffffffffffffffffffff1673ffffffffffffffffffffffffffffffffffffffff1681526020019081526020016000208190806001815401808255809150506001900390600052602060002090600202016000909190919091506000820151816000015560208201518160010160006101000a81548164ffffffffff021916908364ffffffffff16021790555050508273ffffffffffffffffffffffffffffffffffffffff167f8752a472e571a816aea92eec8dae9baf628e840f4929fbcc2d155e6233ff68a7858460405161121a929190612754565b60405180910390a250505050565b611230610838565b61126f576040517f08c379a000000000000000000000000000000000000000000000000000000000815260040161126690612327565b60405180910390fd5b6000600460008573ffffffffffffffffffffffffffffffffffffffff1673ffffffffffffffffffffffffffffffffffffffff168152602001908152602001600020905060008080600090505b83805490508110156113f257600560009054906101000a900464ffffffffff1664ffffffffff168482815481106112f5576112f4612347565b5b906000526020600020906002020160010160009054906101000a900464ffffffffff164261132391906123a5565b64ffffffffff1611156113df5783818154811061134357611342612347565b5b9060005260206000209060020201600001548361136091906123d9565b925083818154811061137557611374612347565b5b906000526020600020906002020160010160009054906101000a900464ffffffffff1691508381815481106113ad576113ac612347565b5b90600052602060002090600202016000808201600090556001820160006101000a81549064ffffffffff021916905550505b80806113ea9061242f565b9150506112bb565b5083821015611436576040517f08c379a000000000000000000000000000000000000000000000000000000000815260040161142d906127ef565b60405180910390fd5b8382111561150f576000848361144c919061280f565b9050600060405180604001604052808381526020018464ffffffffff168152509050600460008973ffffffffffffffffffffffffffffffffffffffff1673ffffffffffffffffffffffffffffffffffffffff1681526020019081526020016000208190806001815401808255809150506001900390600052602060002090600202016000909190919091506000820151816000015560208201518160010160006101000a81548164ffffffffff021916908364ffffffffff160217905550505050505b83600360008873ffffffffffffffffffffffffffffffffffffffff1673ffffffffffffffffffffffffffffffffffffffff168152602001908152602001600020600082825461155e919061280f565b925050819055506115708686866118b7565b8473ffffffffffffffffffffffffffffffffffffffff167fd1c19fbcd4551a5edfb66d43d2e337c04837afda3482b42bdf569a8fccdae5fb87866040516115b8929190612754565b60405180910390a2505050505050565b6115d28282610e09565b5050565b6060600060028360026115e99190612843565b6115f391906123d9565b67ffffffffffffffff81111561160c5761160b61289d565b5b6040519080825280601f01601f19166020018201604052801561163e5781602001600182028036833780820191505090505b5090507f30000000000000000000000000000000000000000000000000000000000000008160008151811061167657611675612347565b5b60200101907effffffffffffffffffffffffffffffffffffffffffffffffffffffffffffff1916908160001a9053507f7800000000000000000000000000000000000000000000000000000000000000816001815181106116da576116d9612347565b5b60200101907effffffffffffffffffffffffffffffffffffffffffffffffffffffffffffff1916908160001a9053506000600184600261171a9190612843565b61172491906123d9565b90505b60018111156117c4577f3031323334353637383961626364656600000000000000000000000000000000600f86166010811061176657611765612347565b5b1a60f81b82828151811061177d5761177c612347565b5b60200101907effffffffffffffffffffffffffffffffffffffffffffffffffffffffffffff1916908160001a905350600485901c9450806117bd906128cc565b9050611727565b5060008414611808576040517f08c379a00000000000000000000000000000000000000000000000000000000081526004016117ff90612942565b60405180910390fd5b8091505092915050565b600073eeeeeeeeeeeeeeeeeeeeeeeeeeeeeeeeeeeeeeee905090565b6118b1846323b872dd60e01b85858560405160240161184f93929190612962565b604051602081830303815290604052907bffffffffffffffffffffffffffffffffffffffffffffffffffffffff19166020820180517bffffffffffffffffffffffffffffffffffffffffffffffffffffffff83818316178352505050506119d4565b50505050565b6118bf611812565b73ffffffffffffffffffffffffffffffffffffffff168373ffffffffffffffffffffffffffffffffffffffff16146119215761191c82828573ffffffffffffffffffffffffffffffffffffffff16611a9b9092919063ffffffff16565b6119cf565b60008273ffffffffffffffffffffffffffffffffffffffff1682604051611947906129ca565b60006040518083038185875af1925050503d8060008114611984576040519150601f19603f3d011682016040523d82523d6000602084013e611989565b606091505b50509050806119cd576040517f08c379a00000000000000000000000000000000000000000000000000000000081526004016119c490612a2b565b60405180910390fd5b505b505050565b6000611a36826040518060400160405280602081526020017f5361666545524332303a206c6f772d6c6576656c2063616c6c206661696c65648152508573ffffffffffffffffffffffffffffffffffffffff16611b219092919063ffffffff16565b9050600081511115611a965780806020019051810190611a569190612a77565b611a95576040517f08c379a0000000000000000000000000000000000000000000000000000000008152600401611a8c90612b16565b60405180910390fd5b5b505050565b611b1c8363a9059cbb60e01b8484604051602401611aba929190612754565b604051602081830303815290604052907bffffffffffffffffffffffffffffffffffffffffffffffffffffffff19166020820180517bffffffffffffffffffffffffffffffffffffffffffffffffffffffff83818316178352505050506119d4565b505050565b6060611b308484600085611b39565b90509392505050565b606082471015611b7e576040517f08c379a0000000000000000000000000000000000000000000000000000000008152600401611b7590612ba8565b60405180910390fd5b611b8785611c4d565b611bc6576040517f08c379a0000000000000000000000000000000000000000000000000000000008152600401611bbd90612c14565b60405180910390fd5b6000808673ffffffffffffffffffffffffffffffffffffffff168587604051611bef9190612c70565b60006040518083038185875af1925050503d8060008114611c2c576040519150601f19603f3d011682016040523d82523d6000602084013e611c31565b606091505b5091509150611c41828286611c70565b92505050949350505050565b6000808273ffffffffffffffffffffffffffffffffffffffff163b119050919050565b60608315611c8057829050611cd0565b600083511115611c935782518084602001fd5b816040517f08c379a0000000000000000000000000000000000000000000000000000000008152600401611cc7919061260e565b60405180910390fd5b9392505050565b600080fd5b60007fffffffff0000000000000000000000000000000000000000000000000000000082169050919050565b611d1181611cdc565b8114611d1c57600080fd5b50565b600081359050611d2e81611d08565b92915050565b600060208284031215611d4a57611d49611cd7565b5b6000611d5884828501611d1f565b91505092915050565b60008115159050919050565b611d7681611d61565b82525050565b6000602082019050611d916000830184611d6d565b92915050565b6000819050919050565b611daa81611d97565b8114611db557600080fd5b50565b600081359050611dc781611da1565b92915050565b600060208284031215611de357611de2611cd7565b5b6000611df184828501611db8565b91505092915050565b611e0381611d97565b82525050565b6000602082019050611e1e6000830184611dfa565b92915050565b600073ffffffffffffffffffffffffffffffffffffffff82169050919050565b6000611e4f82611e24565b9050919050565b611e5f81611e44565b8114611e6a57600080fd5b50565b600081359050611e7c81611e56565b92915050565b60008060408385031215611e9957611e98611cd7565b5b6000611ea785828601611db8565b9250506020611eb885828601611e6d565b9150509250929050565b6000819050919050565b611ed581611ec2565b8114611ee057600080fd5b50565b600081359050611ef281611ecc565b92915050565b600080600060608486031215611f1157611f10611cd7565b5b6000611f1f86828701611e6d565b9350506020611f3086828701611e6d565b9250506040611f4186828701611ee3565b9150509250925092565b611f5481611e44565b82525050565b6000602082019050611f6f6000830184611f4b565b92915050565b60008060408385031215611f8c57611f8b611cd7565b5b6000611f9a85828601611e6d565b9250506020611fab85828601611e6d565b9150509250929050565b611fbe81611ec2565b82525050565b6000602082019050611fd96000830184611fb5565b92915050565b600081519050919050565b600082825260208201905092915050565b6000819050602082019050919050565b61201481611ec2565b82525050565b600064ffffffffff82169050919050565b6120348161201a565b82525050565b604082016000820151612050600085018261200b565b506020820151612063602085018261202b565b50505050565b6000612075838361203a565b60408301905092915050565b6000602082019050919050565b600061209982611fdf565b6120a38185611fea565b93506120ae83611ffb565b8060005b838110156120df5781516120c68882612069565b97506120d183612081565b9250506001810190506120b2565b5085935050505092915050565b60006020820190508181036000830152612106818461208e565b905092915050565b60006020828403121561212457612123611cd7565b5b600061213284828501611e6d565b91505092915050565b600061214682611e24565b9050919050565b6121568161213b565b811461216157600080fd5b50565b6000813590506121738161214d565b92915050565b60008060006060848603121561219257612191611cd7565b5b60006121a086828701611e6d565b93505060206121b186828701612164565b92505060406121c286828701611ee3565b9150509250925092565b600082825260208201905092915050565b7f416363657373436f6e74726f6c3a2063616e206f6e6c792072656e6f756e636560008201527f20726f6c657320666f722073656c660000000000000000000000000000000000602082015250565b6000612239602f836121cc565b9150612244826121dd565b604082019050919050565b600060208201905081810360008301526122688161222c565b9050919050565b7f5265656e7472616e637947756172643a207265656e7472616e742063616c6c00600082015250565b60006122a5601f836121cc565b91506122b08261226f565b602082019050919050565b600060208201905081810360008301526122d481612298565b9050919050565b7f4f776e61626c653a2063616c6c6572206973206e6f7420746865206f776e6572600082015250565b60006123116020836121cc565b915061231c826122db565b602082019050919050565b6000602082019050818103600083015261234081612304565b9050919050565b7f4e487b7100000000000000000000000000000000000000000000000000000000600052603260045260246000fd5b7f4e487b7100000000000000000000000000000000000000000000000000000000600052601160045260246000fd5b60006123b08261201a565b91506123bb8361201a565b9250828210156123ce576123cd612376565b5b828203905092915050565b60006123e482611ec2565b91506123ef83611ec2565b9250827fffffffffffffffffffffffffffffffffffffffffffffffffffffffffffffffff0382111561242457612423612376565b5b828201905092915050565b600061243a82611ec2565b91507fffffffffffffffffffffffffffffffffffffffffffffffffffffffffffffffff82141561246d5761246c612376565b5b600182019050919050565b600081905092915050565b7f416363657373436f6e74726f6c3a206163636f756e7420000000000000000000600082015250565b60006124b9601783612478565b91506124c482612483565b601782019050919050565b600081519050919050565b60005b838110156124f85780820151818401526020810190506124dd565b83811115612507576000848401525b50505050565b6000612518826124cf565b6125228185612478565b93506125328185602086016124da565b80840191505092915050565b7f206973206d697373696e6720726f6c6520000000000000000000000000000000600082015250565b6000612574601183612478565b915061257f8261253e565b601182019050919050565b6000612595826124ac565b91506125a1828561250d565b91506125ac82612567565b91506125b8828461250d565b91508190509392505050565b6000601f19601f8301169050919050565b60006125e0826124cf565b6125ea81856121cc565b93506125fa8185602086016124da565b612603816125c4565b840191505092915050565b6000602082019050818103600083015261262881846125d5565b905092915050565b7f557365722069732073656e64696e672045544820616c6f6e672077697468207460008201527f6865204552433230207472616e736665722e0000000000000000000000000000602082015250565b600061268c6032836121cc565b915061269782612630565b604082019050919050565b600060208201905081810360008301526126bb8161267f565b9050919050565b7f54686520616d6f756e7420616e64207468652076616c75652073656e7420746f60008201527f206465706f73697420646f206e6f74206d617463680000000000000000000000602082015250565b600061271e6035836121cc565b9150612729826126c2565b604082019050919050565b6000602082019050818103600083015261274d81612711565b9050919050565b60006040820190506127696000830185611f4b565b6127766020830184611fb5565b9392505050565b7f446f206e6f74206861766520656e6f75676820616d6f756e7420746f2077697460008201527f6864726177000000000000000000000000000000000000000000000000000000602082015250565b60006127d96025836121cc565b91506127e48261277d565b604082019050919050565b60006020820190508181036000830152612808816127cc565b9050919050565b600061281a82611ec2565b915061282583611ec2565b92508282101561283857612837612376565b5b828203905092915050565b600061284e82611ec2565b915061285983611ec2565b9250817fffffffffffffffffffffffffffffffffffffffffffffffffffffffffffffffff048311821515161561289257612891612376565b5b828202905092915050565b7f4e487b7100000000000000000000000000000000000000000000000000000000600052604160045260246000fd5b60006128d782611ec2565b915060008214156128eb576128ea612376565b5b600182039050919050565b7f537472696e67733a20686578206c656e67746820696e73756666696369656e74600082015250565b600061292c6020836121cc565b9150612937826128f6565b602082019050919050565b6000602082019050818103600083015261295b8161291f565b9050919050565b60006060820190506129776000830186611f4b565b6129846020830185611f4b565b6129916040830184611fb5565b949350505050565b600081905092915050565b50565b60006129b4600083612999565b91506129bf826129a4565b600082019050919050565b60006129d5826129a7565b9150819050919050565b7f5472616e73666572206f6620455448206661696c656400000000000000000000600082015250565b6000612a156016836121cc565b9150612a20826129df565b602082019050919050565b60006020820190508181036000830152612a4481612a08565b9050919050565b612a5481611d61565b8114612a5f57600080fd5b50565b600081519050612a7181612a4b565b92915050565b600060208284031215612a8d57612a8c611cd7565b5b6000612a9b84828501612a62565b91505092915050565b7f5361666545524332303a204552433230206f7065726174696f6e20646964206e60008201527f6f74207375636365656400000000000000000000000000000000000000000000602082015250565b6000612b00602a836121cc565b9150612b0b82612aa4565b604082019050919050565b60006020820190508181036000830152612b2f81612af3565b9050919050565b7f416464726573733a20696e73756666696369656e742062616c616e636520666f60008201527f722063616c6c0000000000000000000000000000000000000000000000000000602082015250565b6000612b926026836121cc565b9150612b9d82612b36565b604082019050919050565b60006020820190508181036000830152612bc181612b85565b9050919050565b7f416464726573733a2063616c6c20746f206e6f6e2d636f6e7472616374000000600082015250565b6000612bfe601d836121cc565b9150612c0982612bc8565b602082019050919050565b60006020820190508181036000830152612c2d81612bf1565b9050919050565b600081519050919050565b6000612c4a82612c34565b612c548185612999565b9350612c648185602086016124da565b80840191505092915050565b6000612c7c8284612c3f565b91508190509291505056fea264697066735822122088d2424c721eedc7218b1d6f8a6189662eccfafd64cd34e74f1881e5fb1c49f664736f6c63430008090033",
  "devdoc": {
    "kind": "dev",
    "methods": {
      "claimOwnership()": {
        "details": "Allows the pendingOwner address to finalize the transfer."
      },
      "isOwner()": {
        "details": "Returns true if the caller is the current owner."
      },
      "transferOwnership(address)": {
        "details": "Allows the current owner to set the pendingOwner address.",
        "params": {
          "newOwner": "The address to transfer ownership to."
        }
      }
    },
    "version": 1
  },
  "userdoc": {
    "kind": "user",
    "methods": {},
    "version": 1
  },
  "storageLayout": {
    "storage": [
      {
        "astId": 6471,
        "contract": "contracts/component/liquiditymanager/LiquidityManager.sol:LiquidityManager",
        "label": "owner",
        "offset": 0,
        "slot": "0",
        "type": "t_address"
      },
      {
        "astId": 6473,
        "contract": "contracts/component/liquiditymanager/LiquidityManager.sol:LiquidityManager",
        "label": "pendingOwner",
        "offset": 0,
        "slot": "1",
        "type": "t_address"
      },
      {
        "astId": 6666,
        "contract": "contracts/component/liquiditymanager/LiquidityManager.sol:LiquidityManager",
        "label": "proxy",
        "offset": 0,
        "slot": "2",
        "type": "t_contract(Proxy)6657"
      },
      {
        "astId": 6668,
        "contract": "contracts/component/liquiditymanager/LiquidityManager.sol:LiquidityManager",
        "label": "messageSender",
        "offset": 0,
        "slot": "3",
        "type": "t_address"
      },
      {
        "astId": 4464,
        "contract": "contracts/component/liquiditymanager/LiquidityManager.sol:LiquidityManager",
        "label": "voyager",
        "offset": 0,
        "slot": "4",
        "type": "t_contract(Voyager)893"
      },
      {
        "astId": 1280,
        "contract": "contracts/component/liquiditymanager/LiquidityManager.sol:LiquidityManager",
        "label": "liquidityDepositEscrow",
        "offset": 0,
        "slot": "5",
        "type": "t_contract(LiquidityDepositEscrow)1975"
      }
    ],
    "types": {
      "t_address": {
        "encoding": "inplace",
        "label": "address",
        "numberOfBytes": "20"
      },
      "t_contract(LiquidityDepositEscrow)1975": {
        "encoding": "inplace",
        "label": "contract LiquidityDepositEscrow",
        "numberOfBytes": "20"
      },
      "t_contract(Proxy)6657": {
        "encoding": "inplace",
        "label": "contract Proxy",
        "numberOfBytes": "20"
      },
      "t_contract(Voyager)893": {
        "encoding": "inplace",
        "label": "contract Voyager",
        "numberOfBytes": "20"
      }
    }
  }
}