{
  "address": "0xeeb8e717114C2747900398a67F2615646FC654FE",
  "abi": [
    {
      "inputs": [
        {
          "internalType": "address",
          "name": "_liquidityManager",
          "type": "address"
        }
      ],
      "stateMutability": "nonpayable",
      "type": "constructor"
    },
    {
      "anonymous": false,
      "inputs": [
        {
          "indexed": false,
          "internalType": "address",
          "name": "associatedContract",
          "type": "address"
        }
      ],
      "name": "AssociatedContractUpdated",
      "type": "event"
    },
    {
      "anonymous": false,
      "inputs": [
        {
          "indexed": true,
          "internalType": "address",
          "name": "previousOwner",
          "type": "address"
        },
        {
          "indexed": true,
          "internalType": "address",
          "name": "newOwner",
          "type": "address"
        }
      ],
      "name": "OwnershipTransferred",
      "type": "event"
    },
    {
      "inputs": [
        {
          "internalType": "address",
          "name": "_asset",
          "type": "address"
        }
      ],
      "name": "activeReserve",
      "outputs": [],
      "stateMutability": "nonpayable",
      "type": "function"
    },
    {
      "inputs": [
        {
          "internalType": "address",
          "name": "",
          "type": "address"
        }
      ],
      "name": "associatedContracts",
      "outputs": [
        {
          "internalType": "bool",
          "name": "",
          "type": "bool"
        }
      ],
      "stateMutability": "view",
      "type": "function"
    },
    {
      "inputs": [],
      "name": "claimOwnership",
      "outputs": [],
      "stateMutability": "nonpayable",
      "type": "function"
    },
    {
      "inputs": [
        {
          "internalType": "address",
          "name": "_asset",
          "type": "address"
        }
      ],
      "name": "getConfiguration",
      "outputs": [
        {
          "components": [
            {
              "internalType": "uint256",
              "name": "data",
              "type": "uint256"
            }
          ],
          "internalType": "struct DataTypes.ReserveConfigurationMap",
          "name": "",
          "type": "tuple"
        }
      ],
      "stateMutability": "view",
      "type": "function"
    },
    {
      "inputs": [
        {
          "internalType": "address",
          "name": "_reserve",
          "type": "address"
        }
      ],
      "name": "getDepositAndDebt",
      "outputs": [
        {
          "components": [
            {
              "internalType": "uint256",
              "name": "juniorDepositAmount",
              "type": "uint256"
            },
            {
              "internalType": "uint256",
              "name": "seniorDepositAmount",
              "type": "uint256"
            },
            {
              "internalType": "uint256",
              "name": "totalDebt",
              "type": "uint256"
            },
            {
              "internalType": "uint256",
              "name": "avgStableRate",
              "type": "uint256"
            }
          ],
          "internalType": "struct DataTypes.DepositAndDebt",
          "name": "",
          "type": "tuple"
        }
      ],
      "stateMutability": "view",
      "type": "function"
    },
    {
      "inputs": [
        {
          "internalType": "address",
          "name": "_asset",
          "type": "address"
        }
      ],
      "name": "getFlags",
      "outputs": [
        {
          "internalType": "bool",
          "name": "",
          "type": "bool"
        },
        {
          "internalType": "bool",
          "name": "",
          "type": "bool"
        },
        {
          "internalType": "bool",
          "name": "",
          "type": "bool"
        }
      ],
      "stateMutability": "view",
      "type": "function"
    },
    {
      "inputs": [
        {
          "internalType": "address",
          "name": "_asset",
          "type": "address"
        }
      ],
      "name": "getJuniorLiquidityIndex",
      "outputs": [
        {
          "internalType": "uint256",
          "name": "",
          "type": "uint256"
        }
      ],
      "stateMutability": "view",
      "type": "function"
    },
    {
      "inputs": [
        {
          "internalType": "address",
          "name": "_asset",
          "type": "address"
        },
        {
          "internalType": "enum ReserveLogic.Tranche",
          "name": "_tranche",
          "type": "uint8"
        }
      ],
      "name": "getLiquidityRate",
      "outputs": [
        {
          "internalType": "uint256",
          "name": "",
          "type": "uint256"
        }
      ],
      "stateMutability": "view",
      "type": "function"
    },
    {
      "inputs": [
        {
          "internalType": "address",
          "name": "_asset",
          "type": "address"
        }
      ],
      "name": "getReserveData",
      "outputs": [
        {
          "components": [
            {
              "components": [
                {
                  "internalType": "uint256",
                  "name": "data",
                  "type": "uint256"
                }
              ],
              "internalType": "struct DataTypes.ReserveConfigurationMap",
              "name": "configuration",
              "type": "tuple"
            },
            {
              "internalType": "uint256",
              "name": "currentOverallLiquidityRate",
              "type": "uint256"
            },
            {
              "internalType": "uint256",
              "name": "currentJuniorLiquidityRate",
              "type": "uint256"
            },
            {
              "internalType": "uint256",
              "name": "currentSeniorLiquidityRate",
              "type": "uint256"
            },
            {
              "internalType": "uint256",
              "name": "juniorLiquidityIndex",
              "type": "uint256"
            },
            {
              "internalType": "uint256",
              "name": "seniorLiquidityIndex",
              "type": "uint256"
            },
            {
              "internalType": "uint256",
              "name": "currentBorrowRate",
              "type": "uint256"
            },
            {
              "internalType": "uint256",
              "name": "securityRequirement",
              "type": "uint256"
            },
            {
              "internalType": "uint256",
              "name": "decimals",
              "type": "uint256"
            },
            {
              "internalType": "address",
              "name": "interestRateStrategyAddress",
              "type": "address"
            },
            {
              "internalType": "address",
              "name": "healthStrategyAddress",
              "type": "address"
            },
            {
              "internalType": "address",
              "name": "juniorDepositTokenAddress",
              "type": "address"
            },
            {
              "internalType": "address",
              "name": "seniorDepositTokenAddress",
              "type": "address"
            },
            {
              "internalType": "address",
              "name": "debtTokenAddress",
              "type": "address"
            },
            {
              "internalType": "uint40",
              "name": "juniorLastUpdateTimestamp",
              "type": "uint40"
            },
            {
              "internalType": "uint40",
              "name": "seniorLastUpdateTimestamp",
              "type": "uint40"
            },
            {
              "internalType": "uint256",
              "name": "optimalTrancheRatio",
              "type": "uint256"
            },
            {
              "internalType": "uint256",
              "name": "currentIncomeRatio",
              "type": "uint256"
            },
            {
              "internalType": "uint256",
              "name": "optimalIncomeRatio",
              "type": "uint256"
            }
          ],
          "internalType": "struct DataTypes.ReserveData",
          "name": "",
          "type": "tuple"
        }
      ],
      "stateMutability": "view",
      "type": "function"
    },
    {
      "inputs": [],
      "name": "getReserveList",
      "outputs": [
        {
          "internalType": "address[]",
          "name": "",
          "type": "address[]"
        }
      ],
      "stateMutability": "view",
      "type": "function"
    },
    {
      "inputs": [
        {
          "internalType": "address",
          "name": "_asset",
          "type": "address"
        },
        {
          "internalType": "enum ReserveLogic.Tranche",
          "name": "_tranche",
          "type": "uint8"
        }
      ],
      "name": "getReserveNormalizedIncome",
      "outputs": [
        {
          "internalType": "uint256",
          "name": "",
          "type": "uint256"
        }
      ],
      "stateMutability": "view",
      "type": "function"
    },
    {
      "inputs": [
        {
          "internalType": "address",
          "name": "_asset",
          "type": "address"
        }
      ],
      "name": "getSeniorLiquidityIndex",
      "outputs": [
        {
          "internalType": "uint256",
          "name": "",
          "type": "uint256"
        }
      ],
      "stateMutability": "view",
      "type": "function"
    },
    {
      "inputs": [
        {
          "internalType": "address",
          "name": "_asset",
          "type": "address"
        },
        {
          "internalType": "address",
          "name": "_juniorDepositTokenAddress",
          "type": "address"
        },
        {
          "internalType": "address",
          "name": "_seniorDepositTokenAddress",
          "type": "address"
        },
        {
          "internalType": "address",
          "name": "_stableDebtAddress",
          "type": "address"
        },
        {
          "internalType": "address",
          "name": "_interestRateStrategyAddress",
          "type": "address"
        },
        {
          "internalType": "address",
          "name": "_healthStrategyAddress",
          "type": "address"
        },
        {
          "internalType": "uint256",
          "name": "_optimalIncomeRatio",
          "type": "uint256"
        }
      ],
      "name": "initReserve",
      "outputs": [],
      "stateMutability": "nonpayable",
      "type": "function"
    },
    {
      "inputs": [],
      "name": "isOwner",
      "outputs": [
        {
          "internalType": "bool",
          "name": "",
          "type": "bool"
        }
      ],
      "stateMutability": "view",
      "type": "function"
    },
    {
      "inputs": [],
      "name": "owner",
      "outputs": [
        {
          "internalType": "address",
          "name": "",
          "type": "address"
        }
      ],
      "stateMutability": "view",
      "type": "function"
    },
    {
      "inputs": [],
      "name": "pause",
      "outputs": [],
      "stateMutability": "nonpayable",
      "type": "function"
    },
    {
      "inputs": [],
      "name": "paused",
      "outputs": [
        {
          "internalType": "bool",
          "name": "",
          "type": "bool"
        }
      ],
      "stateMutability": "view",
      "type": "function"
    },
    {
      "inputs": [],
      "name": "pendingOwner",
      "outputs": [
        {
          "internalType": "address",
          "name": "",
          "type": "address"
        }
      ],
      "stateMutability": "view",
      "type": "function"
    },
    {
      "inputs": [
        {
          "internalType": "address",
          "name": "_associatedContract",
          "type": "address"
        }
      ],
      "name": "setAssociatedContract",
      "outputs": [],
      "stateMutability": "nonpayable",
      "type": "function"
    },
    {
      "inputs": [
        {
          "internalType": "address",
          "name": "newOwner",
          "type": "address"
        }
      ],
      "name": "transferOwnership",
      "outputs": [],
      "stateMutability": "nonpayable",
      "type": "function"
    },
    {
      "inputs": [],
      "name": "unPause",
      "outputs": [],
      "stateMutability": "nonpayable",
      "type": "function"
    },
    {
      "inputs": [
        {
          "internalType": "address",
          "name": "_asset",
          "type": "address"
        },
        {
          "internalType": "uint256",
          "name": "_amount",
          "type": "uint256"
        }
      ],
      "name": "updateStateOnBorrow",
      "outputs": [],
      "stateMutability": "nonpayable",
      "type": "function"
    },
    {
      "inputs": [
        {
          "internalType": "address",
          "name": "_asset",
          "type": "address"
        },
        {
          "internalType": "enum ReserveLogic.Tranche",
          "name": "_tranche",
          "type": "uint8"
        },
        {
          "internalType": "uint256",
          "name": "_amount",
          "type": "uint256"
        }
      ],
      "name": "updateStateOnDeposit",
      "outputs": [],
      "stateMutability": "nonpayable",
      "type": "function"
    },
    {
      "inputs": [
        {
          "internalType": "address",
          "name": "_asset",
          "type": "address"
        },
        {
          "internalType": "enum ReserveLogic.Tranche",
          "name": "_tranche",
          "type": "uint8"
        },
        {
          "internalType": "uint256",
          "name": "_amount",
          "type": "uint256"
        }
      ],
      "name": "updateStateOnWithdraw",
      "outputs": [],
      "stateMutability": "nonpayable",
      "type": "function"
    }
  ],
  "transactionHash": "0x6414eb78ec235d55961cc35616a51dd6f32d072e5abce66878949db629223095",
  "args": [
    "0xd3e901bfef5301e2263f462a567cd7261634b485"
  ],
  "numDeployments": 1,
  "solcInputHash": "5f639bf136e9892bc554d038e08ef4c2",
  "bytecode": "0x608060405234801561001057600080fd5b50604051611d5e380380611d5e83398101604081905261002f9161011c565b600080546001600160a01b0319163390811782556040518392907f8be0079c531659141344cd1fd0a4f28419497f9722a3daafe3b4186f6b6457e0908290a36000546001600160a01b03166100be5760405162461bcd60e51b815260206004820152601160248201527013dddb995c881b5d5cdd081899481cd95d607a1b604482015260640160405180910390fd5b6001600160a01b038116600081815260026020908152604091829020805460ff1916600117905590519182527f73f20cff579e8a4086fa607db83867595f1b6a798e718c0bfa0b94a404128e03910160405180910390a1505061014c565b60006020828403121561012e57600080fd5b81516001600160a01b038116811461014557600080fd5b9392505050565b611c038061015b6000396000f3fe608060405234801561001057600080fd5b50600436106101985760003560e01c8063817ad5d3116100e3578063b24c434b1161008c578063e30c397811610066578063e30c397814610432578063f2fde38b14610445578063f7b188a51461045857600080fd5b8063b24c434b146103bb578063c44b11f7146103ce578063c8caf6801461041f57600080fd5b80638da5cb5b116100bd5780638da5cb5b146103515780638f32d59b1461037c5780639cc67a0f1461038f57600080fd5b8063817ad5d31461030457806381f78151146103365780638456cb591461034957600080fd5b806352f445ca1161014557806366d4c4131161011f57806366d4c413146102c95780636de427df146102de578063776f6891146102f157600080fd5b806352f445ca146102725780635748ff18146102855780635c975abb146102b857600080fd5b806343ba22631161017657806343ba22631461020f5780634c445bfe146102245780634e71e0c81461026a57600080fd5b806303d6fa951461019d578063284592b2146101dc57806335ea6a75146101ef575b600080fd5b6101c96101ab3660046117c3565b6001600160a01b031660009081526003602052604090206004015490565b6040519081526020015b60405180910390f35b6101c96101ea3660046117ed565b610460565b6102026101fd3660046117c3565b610522565b6040516101d39190611820565b61022261021d366004611927565b610735565b005b6102376102323660046117c3565b6108ef565b6040516101d391908151815260208083015190820152604080830151908201526060918201519181019190915260800190565b610222610b23565b6102226102803660046117c3565b610bab565b6102a86102933660046117c3565b60026020526000908152604090205460ff1681565b60405190151581526020016101d3565b60055462010000900460ff166102a8565b6102d1610c7d565b6040516101d391906119a6565b6102226102ec3660046119f3565b610d3e565b6101c96102ff3660046117ed565b610edc565b6103176103123660046117c3565b610efe565b60408051931515845291151560208401521515908201526060016101d3565b6102226103443660046117c3565b610f70565b610222611046565b600054610364906001600160a01b031681565b6040516001600160a01b0390911681526020016101d3565b6000546001600160a01b031633146102a8565b6101c961039d3660046117c3565b6001600160a01b031660009081526003602052604090206005015490565b6102226103c9366004611a1d565b6110d5565b6104106103dc3660046117c3565b60408051602080820183526000918290526001600160a01b0393909316815260038352819020815192830190915254815290565b604051905181526020016101d3565b61022261042d366004611a1d565b611290565b600154610364906001600160a01b031681565b6102226104533660046117c3565b61149b565b610222611524565b6001600160a01b03821660009081526003602052604080822090517fbb43fb800000000000000000000000000000000000000000000000000000000081527386Bd265E5cb246a3b57726Af3B027C0AE77A6e2B9163bb43fb80916104c991908690600401611a6f565b60206040518083038186803b1580156104e157600080fd5b505af41580156104f5573d6000803e3d6000fd5b505050506040513d601f19601f820116820180604052508101906105199190611aa1565b90505b92915050565b6105fc6040805161028081019091526000610260820190815281908152602001600081526020016000815260200160008152602001600081526020016000815260200160008152602001600081526020016000815260200160006001600160a01b0316815260200160006001600160a01b0316815260200160006001600160a01b0316815260200160006001600160a01b0316815260200160006001600160a01b03168152602001600064ffffffffff168152602001600064ffffffffff1681526020016000815260200160008152602001600081525090565b506001600160a01b0390811660009081526003602081815260409283902083516102808101855281546102608201908152815260018201549281019290925260028101549382019390935290820154606082015260048201546080820152600582015460a0820152600682015460c0820152600782015460e0820152600882015461010082015260098201548316610120820152600a8201548316610140820152600b8201548316610160820152600c8201548316610180820152600d8201549283166101a082015264ffffffffff74010000000000000000000000000000000000000000840481166101c08301527901000000000000000000000000000000000000000000000000009093049092166101e0830152600e810154610200830152600f8101546102208301526010015461024082015290565b3360009081526002602052604090205460ff166107b65760405162461bcd60e51b815260206004820152603460248201527f4f6e6c7920746865206173736f63696174656420636f6e74726163742063616e604482015273103832b93337b936903a3434b99030b1ba34b7b760611b60648201526084015b60405180910390fd5b6001600160a01b038781166000908152600360205260409081902090517f19dfc3810000000000000000000000000000000000000000000000000000000081526004810191909152878216602482015286821660448201528582166064820152848216608482015290831660a482015260c481018290527386Bd265E5cb246a3b57726Af3B027C0AE77A6e2B906319dfc3819060e40160006040518083038186803b15801561086457600080fd5b505af4158015610878573d6000803e3d6000fd5b50506005805461ffff9081166000908152600460205260408120805473ffffffffffffffffffffffffffffffffffffffff19166001600160a01b038e16179055825490911693509091506108cb83611ad0565b91906101000a81548161ffff021916908361ffff1602179055505050505050505050565b61091a6040518060800160405280600081526020016000815260200160008152602001600081525090565b6001600160a01b03828116600090815260036020908152604080832081516080810183528481528084018590528083018590526060810194909452600b81015482517f18160ddd0000000000000000000000000000000000000000000000000000000081529251919516926318160ddd9260048082019391829003018186803b1580156109a657600080fd5b505afa1580156109ba573d6000803e3d6000fd5b505050506040513d601f19601f820116820180604052508101906109de9190611aa1565b8152600c820154604080517f18160ddd00000000000000000000000000000000000000000000000000000000815290516001600160a01b03909216916318160ddd91600480820192602092909190829003018186803b158015610a4057600080fd5b505afa158015610a54573d6000803e3d6000fd5b505050506040513d601f19601f82011682018060405250810190610a789190611aa1565b6020820152600d820154604080517ff731e9be00000000000000000000000000000000000000000000000000000000815281516001600160a01b039093169263f731e9be92600480840193919291829003018186803b158015610ada57600080fd5b505afa158015610aee573d6000803e3d6000fd5b505050506040513d601f19601f82011682018060405250810190610b129190611af2565b606083015260408201529392505050565b6001546001600160a01b03163314610b3a57600080fd5b600154600080546040516001600160a01b0393841693909116917f8be0079c531659141344cd1fd0a4f28419497f9722a3daafe3b4186f6b6457e091a3600180546000805473ffffffffffffffffffffffffffffffffffffffff199081166001600160a01b03841617909155169055565b6000546001600160a01b03163314610c055760405162461bcd60e51b815260206004820181905260248201527f4f776e61626c653a2063616c6c6572206973206e6f7420746865206f776e657260448201526064016107ad565b6001600160a01b03811660008181526002602090815260409182902080547fffffffffffffffffffffffffffffffffffffffffffffffffffffffffffffff0016600117905590519182527f73f20cff579e8a4086fa607db83867595f1b6a798e718c0bfa0b94a404128e03910160405180910390a150565b60055460609060009061ffff1667ffffffffffffffff811115610ca257610ca2611b16565b604051908082528060200260200182016040528015610ccb578160200160208202803683370190505b50905060005b60055461ffff16811015610d385760008181526004602052604090205482516001600160a01b0390911690839083908110610d0e57610d0e611b2c565b6001600160a01b039092166020928302919091019091015280610d3081611b42565b915050610cd1565b50919050565b3360009081526002602052604090205460ff16610dba5760405162461bcd60e51b815260206004820152603460248201527f4f6e6c7920746865206173736f63696174656420636f6e74726163742063616e604482015273103832b93337b936903a3434b99030b1ba34b7b760611b60648201526084016107ad565b6001600160a01b03821660009081526003602052604090819020905163a4c88c0760e01b81527386Bd265E5cb246a3b57726Af3B027C0AE77A6e2B9063a4c88c0790610e0d908490600190600401611a6f565b60006040518083038186803b158015610e2557600080fd5b505af4158015610e39573d6000803e3d6000fd5b50505050600b810154600c820154604051630aaa905d60e41b8152600481018490526001600160a01b0380871660248301529283166044820152911660648201526000608482015260a481018390527386Bd265E5cb246a3b57726Af3B027C0AE77A6e2B9063aaa905d09060c40160006040518083038186803b158015610ebf57600080fd5b505af4158015610ed3573d6000803e3d6000fd5b50505050505050565b6001600160a01b038216600090815260036020526040812061051990836115ae565b600080600080610f3c8560408051602080820183526000918290526001600160a01b0393909316815260038352819020815192830190915254815290565b9050610f6281516301000000811615159163020000008216151591630400000016151590565b935093509350509193909250565b3360009081526002602052604090205460ff16610fec5760405162461bcd60e51b815260206004820152603460248201527f4f6e6c7920746865206173736f63696174656420636f6e74726163742063616e604482015273103832b93337b936903a3434b99030b1ba34b7b760611b60648201526084016107ad565b60408051602080820183526000918290526001600160a01b03841682526003815282822083519182019093529154825250611028816001611678565b516001600160a01b0391909116600090815260036020526040902055565b3360009081526002602052604090205460ff166110c25760405162461bcd60e51b815260206004820152603460248201527f4f6e6c7920746865206173736f63696174656420636f6e74726163742063616e604482015273103832b93337b936903a3434b99030b1ba34b7b760611b60648201526084016107ad565b6005805462ff0000191662010000179055565b3360009081526002602052604090205460ff166111515760405162461bcd60e51b815260206004820152603460248201527f4f6e6c7920746865206173736f63696174656420636f6e74726163742063616e604482015273103832b93337b936903a3434b99030b1ba34b7b760611b60648201526084016107ad565b6001600160a01b03831660009081526003602052604090819020905163a4c88c0760e01b81527386Bd265E5cb246a3b57726Af3B027C0AE77A6e2B9063a4c88c07906111a39084908790600401611a6f565b60006040518083038186803b1580156111bb57600080fd5b505af41580156111cf573d6000803e3d6000fd5b505050508260018111156111e5576111e5611a59565b6111ee5761128a565b600b810154600c820154604051630aaa905d60e41b8152600481018490526001600160a01b0380881660248301529283166044820152911660648201526000608482015260a481018390527386Bd265E5cb246a3b57726Af3B027C0AE77A6e2B9063aaa905d09060c4015b60006040518083038186803b15801561127157600080fd5b505af4158015611285573d6000803e3d6000fd5b505050505b50505050565b3360009081526002602052604090205460ff1661130c5760405162461bcd60e51b815260206004820152603460248201527f4f6e6c7920746865206173736f63696174656420636f6e74726163742063616e604482015273103832b93337b936903a3434b99030b1ba34b7b760611b60648201526084016107ad565b6001600160a01b0383166000908152600360205260409081902090517f0eca322b000000000000000000000000000000000000000000000000000000008152600481018290526024810183905273aCD89bC141BfB37A6e430D05e7E7D428dE052EAF90630eca322b9060440160006040518083038186803b15801561139057600080fd5b505af41580156113a4573d6000803e3d6000fd5b505060405163a4c88c0760e01b81527386Bd265E5cb246a3b57726Af3B027C0AE77A6e2B925063a4c88c0791506113e19084908790600401611a6f565b60006040518083038186803b1580156113f957600080fd5b505af415801561140d573d6000803e3d6000fd5b5050505082600181111561142357611423611a59565b61142c5761128a565b600b810154600c820154604051630aaa905d60e41b8152600481018490526001600160a01b03808816602483015292831660448201529116606482015260848101839052600060a48201527386Bd265E5cb246a3b57726Af3B027C0AE77A6e2B9063aaa905d09060c401611259565b6000546001600160a01b031633146114f55760405162461bcd60e51b815260206004820181905260248201527f4f776e61626c653a2063616c6c6572206973206e6f7420746865206f776e657260448201526064016107ad565b6001805473ffffffffffffffffffffffffffffffffffffffff19166001600160a01b0392909216919091179055565b3360009081526002602052604090205460ff166115a05760405162461bcd60e51b815260206004820152603460248201527f4f6e6c7920746865206173736f63696174656420636f6e74726163742063616e604482015273103832b93337b936903a3434b99030b1ba34b7b760611b60648201526084016107ad565b6005805462ff000019169055565b60008080808460018111156115c5576115c5611a59565b14156115fd575050600d83015460048401547401000000000000000000000000000000000000000090910464ffffffffff1690611630565b5050600d830154600584015479010000000000000000000000000000000000000000000000000090910464ffffffffff16905b4264ffffffffff168264ffffffffff16141561164f57915061051c9050565b600061166e8261166861166289896116bd565b866116ee565b9061173b565b9695505050505050565b601881611686576000611689565b60015b83517ffffffffffffffffffffffffffffffffffffffffffffffffffffffffffeffffff1660ff9190911690911b1790915250565b6000808260018111156116d2576116d2611a59565b14156116e35750600282015461051c565b50600382015461051c565b6000806117024264ffffffffff8516611777565b90506117336b033b2e3c9fd0803ce80000006301e133806117238785611783565b61172d9190611b5d565b9061178f565b949350505050565b60006105196b033b2e3c9fd0803ce800000061177161175a8686611783565b61172d60026b033b2e3c9fd0803ce8000000611b5d565b9061179b565b60006105198284611b7f565b60006105198284611b96565b60006105198284611bb5565b60006105198284611b5d565b80356001600160a01b03811681146117be57600080fd5b919050565b6000602082840312156117d557600080fd5b610519826117a7565b8035600281106117be57600080fd5b6000806040838503121561180057600080fd5b611809836117a7565b9150611817602084016117de565b90509250929050565b815151815261026081016020830151602083015260408301516040830152606083015160608301526080830151608083015260a083015160a083015260c083015160c083015260e083015160e083015261010080840151818401525061012080840151611897828501826001600160a01b03169052565b5050610140838101516001600160a01b039081169184019190915261016080850151821690840152610180808501518216908401526101a080850151909116908301526101c08084015164ffffffffff908116918401919091526101e080850151909116908301526102008084015190830152610220808401519083015261024092830151929091019190915290565b600080600080600080600060e0888a03121561194257600080fd5b61194b886117a7565b9650611959602089016117a7565b9550611967604089016117a7565b9450611975606089016117a7565b9350611983608089016117a7565b925061199160a089016117a7565b915060c0880135905092959891949750929550565b6020808252825182820181905260009190848201906040850190845b818110156119e75783516001600160a01b0316835292840192918401916001016119c2565b50909695505050505050565b60008060408385031215611a0657600080fd5b611a0f836117a7565b946020939093013593505050565b600080600060608486031215611a3257600080fd5b611a3b846117a7565b9250611a49602085016117de565b9150604084013590509250925092565b634e487b7160e01b600052602160045260246000fd5b8281526040810160028310611a9457634e487b7160e01b600052602160045260246000fd5b8260208301529392505050565b600060208284031215611ab357600080fd5b5051919050565b634e487b7160e01b600052601160045260246000fd5b600061ffff80831681811415611ae857611ae8611aba565b6001019392505050565b60008060408385031215611b0557600080fd5b505080516020909101519092909150565b634e487b7160e01b600052604160045260246000fd5b634e487b7160e01b600052603260045260246000fd5b6000600019821415611b5657611b56611aba565b5060010190565b600082611b7a57634e487b7160e01b600052601260045260246000fd5b500490565b600082821015611b9157611b91611aba565b500390565b6000816000190483118215151615611bb057611bb0611aba565b500290565b60008219821115611bc857611bc8611aba565b50019056fea26469706673582212204394ca4bc757b3392a370216163c32145995f2cf9ef67d6b1d6e3128c5db8d5a64736f6c63430008090033",
  "deployedBytecode": "0x608060405234801561001057600080fd5b50600436106101985760003560e01c8063817ad5d3116100e3578063b24c434b1161008c578063e30c397811610066578063e30c397814610432578063f2fde38b14610445578063f7b188a51461045857600080fd5b8063b24c434b146103bb578063c44b11f7146103ce578063c8caf6801461041f57600080fd5b80638da5cb5b116100bd5780638da5cb5b146103515780638f32d59b1461037c5780639cc67a0f1461038f57600080fd5b8063817ad5d31461030457806381f78151146103365780638456cb591461034957600080fd5b806352f445ca1161014557806366d4c4131161011f57806366d4c413146102c95780636de427df146102de578063776f6891146102f157600080fd5b806352f445ca146102725780635748ff18146102855780635c975abb146102b857600080fd5b806343ba22631161017657806343ba22631461020f5780634c445bfe146102245780634e71e0c81461026a57600080fd5b806303d6fa951461019d578063284592b2146101dc57806335ea6a75146101ef575b600080fd5b6101c96101ab3660046117c3565b6001600160a01b031660009081526003602052604090206004015490565b6040519081526020015b60405180910390f35b6101c96101ea3660046117ed565b610460565b6102026101fd3660046117c3565b610522565b6040516101d39190611820565b61022261021d366004611927565b610735565b005b6102376102323660046117c3565b6108ef565b6040516101d391908151815260208083015190820152604080830151908201526060918201519181019190915260800190565b610222610b23565b6102226102803660046117c3565b610bab565b6102a86102933660046117c3565b60026020526000908152604090205460ff1681565b60405190151581526020016101d3565b60055462010000900460ff166102a8565b6102d1610c7d565b6040516101d391906119a6565b6102226102ec3660046119f3565b610d3e565b6101c96102ff3660046117ed565b610edc565b6103176103123660046117c3565b610efe565b60408051931515845291151560208401521515908201526060016101d3565b6102226103443660046117c3565b610f70565b610222611046565b600054610364906001600160a01b031681565b6040516001600160a01b0390911681526020016101d3565b6000546001600160a01b031633146102a8565b6101c961039d3660046117c3565b6001600160a01b031660009081526003602052604090206005015490565b6102226103c9366004611a1d565b6110d5565b6104106103dc3660046117c3565b60408051602080820183526000918290526001600160a01b0393909316815260038352819020815192830190915254815290565b604051905181526020016101d3565b61022261042d366004611a1d565b611290565b600154610364906001600160a01b031681565b6102226104533660046117c3565b61149b565b610222611524565b6001600160a01b03821660009081526003602052604080822090517fbb43fb8000000000000000000000000000000000000000000000000000000000815273__$d3b4366daeb9cadc7528af6145b50b2183$__9163bb43fb80916104c991908690600401611a6f565b60206040518083038186803b1580156104e157600080fd5b505af41580156104f5573d6000803e3d6000fd5b505050506040513d601f19601f820116820180604052508101906105199190611aa1565b90505b92915050565b6105fc6040805161028081019091526000610260820190815281908152602001600081526020016000815260200160008152602001600081526020016000815260200160008152602001600081526020016000815260200160006001600160a01b0316815260200160006001600160a01b0316815260200160006001600160a01b0316815260200160006001600160a01b0316815260200160006001600160a01b03168152602001600064ffffffffff168152602001600064ffffffffff1681526020016000815260200160008152602001600081525090565b506001600160a01b0390811660009081526003602081815260409283902083516102808101855281546102608201908152815260018201549281019290925260028101549382019390935290820154606082015260048201546080820152600582015460a0820152600682015460c0820152600782015460e0820152600882015461010082015260098201548316610120820152600a8201548316610140820152600b8201548316610160820152600c8201548316610180820152600d8201549283166101a082015264ffffffffff74010000000000000000000000000000000000000000840481166101c08301527901000000000000000000000000000000000000000000000000009093049092166101e0830152600e810154610200830152600f8101546102208301526010015461024082015290565b3360009081526002602052604090205460ff166107b65760405162461bcd60e51b815260206004820152603460248201527f4f6e6c7920746865206173736f63696174656420636f6e74726163742063616e604482015273103832b93337b936903a3434b99030b1ba34b7b760611b60648201526084015b60405180910390fd5b6001600160a01b038781166000908152600360205260409081902090517f19dfc3810000000000000000000000000000000000000000000000000000000081526004810191909152878216602482015286821660448201528582166064820152848216608482015290831660a482015260c4810182905273__$d3b4366daeb9cadc7528af6145b50b2183$__906319dfc3819060e40160006040518083038186803b15801561086457600080fd5b505af4158015610878573d6000803e3d6000fd5b50506005805461ffff9081166000908152600460205260408120805473ffffffffffffffffffffffffffffffffffffffff19166001600160a01b038e16179055825490911693509091506108cb83611ad0565b91906101000a81548161ffff021916908361ffff1602179055505050505050505050565b61091a6040518060800160405280600081526020016000815260200160008152602001600081525090565b6001600160a01b03828116600090815260036020908152604080832081516080810183528481528084018590528083018590526060810194909452600b81015482517f18160ddd0000000000000000000000000000000000000000000000000000000081529251919516926318160ddd9260048082019391829003018186803b1580156109a657600080fd5b505afa1580156109ba573d6000803e3d6000fd5b505050506040513d601f19601f820116820180604052508101906109de9190611aa1565b8152600c820154604080517f18160ddd00000000000000000000000000000000000000000000000000000000815290516001600160a01b03909216916318160ddd91600480820192602092909190829003018186803b158015610a4057600080fd5b505afa158015610a54573d6000803e3d6000fd5b505050506040513d601f19601f82011682018060405250810190610a789190611aa1565b6020820152600d820154604080517ff731e9be00000000000000000000000000000000000000000000000000000000815281516001600160a01b039093169263f731e9be92600480840193919291829003018186803b158015610ada57600080fd5b505afa158015610aee573d6000803e3d6000fd5b505050506040513d601f19601f82011682018060405250810190610b129190611af2565b606083015260408201529392505050565b6001546001600160a01b03163314610b3a57600080fd5b600154600080546040516001600160a01b0393841693909116917f8be0079c531659141344cd1fd0a4f28419497f9722a3daafe3b4186f6b6457e091a3600180546000805473ffffffffffffffffffffffffffffffffffffffff199081166001600160a01b03841617909155169055565b6000546001600160a01b03163314610c055760405162461bcd60e51b815260206004820181905260248201527f4f776e61626c653a2063616c6c6572206973206e6f7420746865206f776e657260448201526064016107ad565b6001600160a01b03811660008181526002602090815260409182902080547fffffffffffffffffffffffffffffffffffffffffffffffffffffffffffffff0016600117905590519182527f73f20cff579e8a4086fa607db83867595f1b6a798e718c0bfa0b94a404128e03910160405180910390a150565b60055460609060009061ffff1667ffffffffffffffff811115610ca257610ca2611b16565b604051908082528060200260200182016040528015610ccb578160200160208202803683370190505b50905060005b60055461ffff16811015610d385760008181526004602052604090205482516001600160a01b0390911690839083908110610d0e57610d0e611b2c565b6001600160a01b039092166020928302919091019091015280610d3081611b42565b915050610cd1565b50919050565b3360009081526002602052604090205460ff16610dba5760405162461bcd60e51b815260206004820152603460248201527f4f6e6c7920746865206173736f63696174656420636f6e74726163742063616e604482015273103832b93337b936903a3434b99030b1ba34b7b760611b60648201526084016107ad565b6001600160a01b03821660009081526003602052604090819020905163a4c88c0760e01b815273__$d3b4366daeb9cadc7528af6145b50b2183$__9063a4c88c0790610e0d908490600190600401611a6f565b60006040518083038186803b158015610e2557600080fd5b505af4158015610e39573d6000803e3d6000fd5b50505050600b810154600c820154604051630aaa905d60e41b8152600481018490526001600160a01b0380871660248301529283166044820152911660648201526000608482015260a4810183905273__$d3b4366daeb9cadc7528af6145b50b2183$__9063aaa905d09060c40160006040518083038186803b158015610ebf57600080fd5b505af4158015610ed3573d6000803e3d6000fd5b50505050505050565b6001600160a01b038216600090815260036020526040812061051990836115ae565b600080600080610f3c8560408051602080820183526000918290526001600160a01b0393909316815260038352819020815192830190915254815290565b9050610f6281516301000000811615159163020000008216151591630400000016151590565b935093509350509193909250565b3360009081526002602052604090205460ff16610fec5760405162461bcd60e51b815260206004820152603460248201527f4f6e6c7920746865206173736f63696174656420636f6e74726163742063616e604482015273103832b93337b936903a3434b99030b1ba34b7b760611b60648201526084016107ad565b60408051602080820183526000918290526001600160a01b03841682526003815282822083519182019093529154825250611028816001611678565b516001600160a01b0391909116600090815260036020526040902055565b3360009081526002602052604090205460ff166110c25760405162461bcd60e51b815260206004820152603460248201527f4f6e6c7920746865206173736f63696174656420636f6e74726163742063616e604482015273103832b93337b936903a3434b99030b1ba34b7b760611b60648201526084016107ad565b6005805462ff0000191662010000179055565b3360009081526002602052604090205460ff166111515760405162461bcd60e51b815260206004820152603460248201527f4f6e6c7920746865206173736f63696174656420636f6e74726163742063616e604482015273103832b93337b936903a3434b99030b1ba34b7b760611b60648201526084016107ad565b6001600160a01b03831660009081526003602052604090819020905163a4c88c0760e01b815273__$d3b4366daeb9cadc7528af6145b50b2183$__9063a4c88c07906111a39084908790600401611a6f565b60006040518083038186803b1580156111bb57600080fd5b505af41580156111cf573d6000803e3d6000fd5b505050508260018111156111e5576111e5611a59565b6111ee5761128a565b600b810154600c820154604051630aaa905d60e41b8152600481018490526001600160a01b0380881660248301529283166044820152911660648201526000608482015260a4810183905273__$d3b4366daeb9cadc7528af6145b50b2183$__9063aaa905d09060c4015b60006040518083038186803b15801561127157600080fd5b505af4158015611285573d6000803e3d6000fd5b505050505b50505050565b3360009081526002602052604090205460ff1661130c5760405162461bcd60e51b815260206004820152603460248201527f4f6e6c7920746865206173736f63696174656420636f6e74726163742063616e604482015273103832b93337b936903a3434b99030b1ba34b7b760611b60648201526084016107ad565b6001600160a01b0383166000908152600360205260409081902090517f0eca322b000000000000000000000000000000000000000000000000000000008152600481018290526024810183905273__$5201a97c05ba6aa659e2f36a933dd51801$__90630eca322b9060440160006040518083038186803b15801561139057600080fd5b505af41580156113a4573d6000803e3d6000fd5b505060405163a4c88c0760e01b815273__$d3b4366daeb9cadc7528af6145b50b2183$__925063a4c88c0791506113e19084908790600401611a6f565b60006040518083038186803b1580156113f957600080fd5b505af415801561140d573d6000803e3d6000fd5b5050505082600181111561142357611423611a59565b61142c5761128a565b600b810154600c820154604051630aaa905d60e41b8152600481018490526001600160a01b03808816602483015292831660448201529116606482015260848101839052600060a482015273__$d3b4366daeb9cadc7528af6145b50b2183$__9063aaa905d09060c401611259565b6000546001600160a01b031633146114f55760405162461bcd60e51b815260206004820181905260248201527f4f776e61626c653a2063616c6c6572206973206e6f7420746865206f776e657260448201526064016107ad565b6001805473ffffffffffffffffffffffffffffffffffffffff19166001600160a01b0392909216919091179055565b3360009081526002602052604090205460ff166115a05760405162461bcd60e51b815260206004820152603460248201527f4f6e6c7920746865206173736f63696174656420636f6e74726163742063616e604482015273103832b93337b936903a3434b99030b1ba34b7b760611b60648201526084016107ad565b6005805462ff000019169055565b60008080808460018111156115c5576115c5611a59565b14156115fd575050600d83015460048401547401000000000000000000000000000000000000000090910464ffffffffff1690611630565b5050600d830154600584015479010000000000000000000000000000000000000000000000000090910464ffffffffff16905b4264ffffffffff168264ffffffffff16141561164f57915061051c9050565b600061166e8261166861166289896116bd565b866116ee565b9061173b565b9695505050505050565b601881611686576000611689565b60015b83517ffffffffffffffffffffffffffffffffffffffffffffffffffffffffffeffffff1660ff9190911690911b1790915250565b6000808260018111156116d2576116d2611a59565b14156116e35750600282015461051c565b50600382015461051c565b6000806117024264ffffffffff8516611777565b90506117336b033b2e3c9fd0803ce80000006301e133806117238785611783565b61172d9190611b5d565b9061178f565b949350505050565b60006105196b033b2e3c9fd0803ce800000061177161175a8686611783565b61172d60026b033b2e3c9fd0803ce8000000611b5d565b9061179b565b60006105198284611b7f565b60006105198284611b96565b60006105198284611bb5565b60006105198284611b5d565b80356001600160a01b03811681146117be57600080fd5b919050565b6000602082840312156117d557600080fd5b610519826117a7565b8035600281106117be57600080fd5b6000806040838503121561180057600080fd5b611809836117a7565b9150611817602084016117de565b90509250929050565b815151815261026081016020830151602083015260408301516040830152606083015160608301526080830151608083015260a083015160a083015260c083015160c083015260e083015160e083015261010080840151818401525061012080840151611897828501826001600160a01b03169052565b5050610140838101516001600160a01b039081169184019190915261016080850151821690840152610180808501518216908401526101a080850151909116908301526101c08084015164ffffffffff908116918401919091526101e080850151909116908301526102008084015190830152610220808401519083015261024092830151929091019190915290565b600080600080600080600060e0888a03121561194257600080fd5b61194b886117a7565b9650611959602089016117a7565b9550611967604089016117a7565b9450611975606089016117a7565b9350611983608089016117a7565b925061199160a089016117a7565b915060c0880135905092959891949750929550565b6020808252825182820181905260009190848201906040850190845b818110156119e75783516001600160a01b0316835292840192918401916001016119c2565b50909695505050505050565b60008060408385031215611a0657600080fd5b611a0f836117a7565b946020939093013593505050565b600080600060608486031215611a3257600080fd5b611a3b846117a7565b9250611a49602085016117de565b9150604084013590509250925092565b634e487b7160e01b600052602160045260246000fd5b8281526040810160028310611a9457634e487b7160e01b600052602160045260246000fd5b8260208301529392505050565b600060208284031215611ab357600080fd5b5051919050565b634e487b7160e01b600052601160045260246000fd5b600061ffff80831681811415611ae857611ae8611aba565b6001019392505050565b60008060408385031215611b0557600080fd5b505080516020909101519092909150565b634e487b7160e01b600052604160045260246000fd5b634e487b7160e01b600052603260045260246000fd5b6000600019821415611b5657611b56611aba565b5060010190565b600082611b7a57634e487b7160e01b600052601260045260246000fd5b500490565b600082821015611b9157611b91611aba565b500390565b6000816000190483118215151615611bb057611bb0611aba565b500290565b60008219821115611bc857611bc8611aba565b50019056fea26469706673582212204394ca4bc757b3392a370216163c32145995f2cf9ef67d6b1d6e3128c5db8d5a64736f6c63430008090033",
  "libraries": {
    "ReserveLogic": "0x86Bd265E5cb246a3b57726Af3B027C0AE77A6e2B",
    "ValidationLogic": "0xaCD89bC141BfB37A6e430D05e7E7D428dE052EAF"
  },
  "devdoc": {
    "kind": "dev",
    "methods": {
      "claimOwnership()": {
        "details": "Allows the pendingOwner address to finalize the transfer."
      },
      "isOwner()": {
        "details": "Returns true if the caller is the current owner."
      },
      "transferOwnership(address)": {
        "details": "Allows the current owner to set the pendingOwner address.",
        "params": {
          "newOwner": "The address to transfer ownership to."
        }
      }
    },
    "version": 1
  },
  "userdoc": {
    "kind": "user",
    "methods": {},
    "version": 1
  },
  "storageLayout": {
    "storage": [
      {
        "astId": 9728,
        "contract": "contracts/component/shared/storage/LiquidityManagerStorage.sol:LiquidityManagerStorage",
        "label": "owner",
        "offset": 0,
        "slot": "0",
        "type": "t_address"
      },
      {
        "astId": 9730,
        "contract": "contracts/component/shared/storage/LiquidityManagerStorage.sol:LiquidityManagerStorage",
        "label": "pendingOwner",
        "offset": 0,
        "slot": "1",
        "type": "t_address"
      },
      {
        "astId": 10053,
        "contract": "contracts/component/shared/storage/LiquidityManagerStorage.sol:LiquidityManagerStorage",
        "label": "associatedContracts",
        "offset": 0,
        "slot": "2",
        "type": "t_mapping(t_address,t_bool)"
      },
      {
        "astId": 3023,
        "contract": "contracts/component/shared/storage/LiquidityManagerStorage.sol:LiquidityManagerStorage",
        "label": "_reserves",
        "offset": 0,
        "slot": "3",
        "type": "t_mapping(t_address,t_struct(ReserveData)10159_storage)"
      },
      {
        "astId": 3027,
        "contract": "contracts/component/shared/storage/LiquidityManagerStorage.sol:LiquidityManagerStorage",
        "label": "_reserveList",
        "offset": 0,
        "slot": "4",
        "type": "t_mapping(t_uint256,t_address)"
      },
      {
        "astId": 3029,
        "contract": "contracts/component/shared/storage/LiquidityManagerStorage.sol:LiquidityManagerStorage",
        "label": "_reservesCount",
        "offset": 0,
        "slot": "5",
        "type": "t_uint16"
      },
      {
        "astId": 3031,
        "contract": "contracts/component/shared/storage/LiquidityManagerStorage.sol:LiquidityManagerStorage",
        "label": "_paused",
        "offset": 2,
        "slot": "5",
        "type": "t_bool"
      }
    ],
    "types": {
      "t_address": {
        "encoding": "inplace",
        "label": "address",
        "numberOfBytes": "20"
      },
      "t_bool": {
        "encoding": "inplace",
        "label": "bool",
        "numberOfBytes": "1"
      },
      "t_mapping(t_address,t_bool)": {
        "encoding": "mapping",
        "key": "t_address",
        "label": "mapping(address => bool)",
        "numberOfBytes": "32",
        "value": "t_bool"
      },
      "t_mapping(t_address,t_struct(ReserveData)10159_storage)": {
        "encoding": "mapping",
        "key": "t_address",
        "label": "mapping(address => struct DataTypes.ReserveData)",
        "numberOfBytes": "32",
        "value": "t_struct(ReserveData)10159_storage"
      },
      "t_mapping(t_uint256,t_address)": {
        "encoding": "mapping",
        "key": "t_uint256",
        "label": "mapping(uint256 => address)",
        "numberOfBytes": "32",
        "value": "t_address"
      },
      "t_struct(ReserveConfigurationMap)10162_storage": {
        "encoding": "inplace",
        "label": "struct DataTypes.ReserveConfigurationMap",
        "members": [
          {
            "astId": 10161,
            "contract": "contracts/component/shared/storage/LiquidityManagerStorage.sol:LiquidityManagerStorage",
            "label": "data",
            "offset": 0,
            "slot": "0",
            "type": "t_uint256"
          }
        ],
        "numberOfBytes": "32"
      },
      "t_struct(ReserveData)10159_storage": {
        "encoding": "inplace",
        "label": "struct DataTypes.ReserveData",
        "members": [
          {
            "astId": 10122,
            "contract": "contracts/component/shared/storage/LiquidityManagerStorage.sol:LiquidityManagerStorage",
            "label": "configuration",
            "offset": 0,
            "slot": "0",
            "type": "t_struct(ReserveConfigurationMap)10162_storage"
          },
          {
            "astId": 10124,
            "contract": "contracts/component/shared/storage/LiquidityManagerStorage.sol:LiquidityManagerStorage",
            "label": "currentOverallLiquidityRate",
            "offset": 0,
            "slot": "1",
            "type": "t_uint256"
          },
          {
            "astId": 10126,
            "contract": "contracts/component/shared/storage/LiquidityManagerStorage.sol:LiquidityManagerStorage",
            "label": "currentJuniorLiquidityRate",
            "offset": 0,
            "slot": "2",
            "type": "t_uint256"
          },
          {
            "astId": 10128,
            "contract": "contracts/component/shared/storage/LiquidityManagerStorage.sol:LiquidityManagerStorage",
            "label": "currentSeniorLiquidityRate",
            "offset": 0,
            "slot": "3",
            "type": "t_uint256"
          },
          {
            "astId": 10130,
            "contract": "contracts/component/shared/storage/LiquidityManagerStorage.sol:LiquidityManagerStorage",
            "label": "juniorLiquidityIndex",
            "offset": 0,
            "slot": "4",
            "type": "t_uint256"
          },
          {
            "astId": 10132,
            "contract": "contracts/component/shared/storage/LiquidityManagerStorage.sol:LiquidityManagerStorage",
            "label": "seniorLiquidityIndex",
            "offset": 0,
            "slot": "5",
            "type": "t_uint256"
          },
          {
            "astId": 10134,
            "contract": "contracts/component/shared/storage/LiquidityManagerStorage.sol:LiquidityManagerStorage",
            "label": "currentBorrowRate",
            "offset": 0,
            "slot": "6",
            "type": "t_uint256"
          },
          {
            "astId": 10136,
            "contract": "contracts/component/shared/storage/LiquidityManagerStorage.sol:LiquidityManagerStorage",
            "label": "securityRequirement",
            "offset": 0,
            "slot": "7",
            "type": "t_uint256"
          },
          {
            "astId": 10138,
            "contract": "contracts/component/shared/storage/LiquidityManagerStorage.sol:LiquidityManagerStorage",
            "label": "decimals",
            "offset": 0,
            "slot": "8",
            "type": "t_uint256"
          },
          {
            "astId": 10140,
            "contract": "contracts/component/shared/storage/LiquidityManagerStorage.sol:LiquidityManagerStorage",
            "label": "interestRateStrategyAddress",
            "offset": 0,
            "slot": "9",
            "type": "t_address"
          },
          {
            "astId": 10142,
            "contract": "contracts/component/shared/storage/LiquidityManagerStorage.sol:LiquidityManagerStorage",
            "label": "healthStrategyAddress",
            "offset": 0,
            "slot": "10",
            "type": "t_address"
          },
          {
            "astId": 10144,
            "contract": "contracts/component/shared/storage/LiquidityManagerStorage.sol:LiquidityManagerStorage",
            "label": "juniorDepositTokenAddress",
            "offset": 0,
            "slot": "11",
            "type": "t_address"
          },
          {
            "astId": 10146,
            "contract": "contracts/component/shared/storage/LiquidityManagerStorage.sol:LiquidityManagerStorage",
            "label": "seniorDepositTokenAddress",
            "offset": 0,
            "slot": "12",
            "type": "t_address"
          },
          {
            "astId": 10148,
            "contract": "contracts/component/shared/storage/LiquidityManagerStorage.sol:LiquidityManagerStorage",
            "label": "debtTokenAddress",
            "offset": 0,
            "slot": "13",
            "type": "t_address"
          },
          {
            "astId": 10150,
            "contract": "contracts/component/shared/storage/LiquidityManagerStorage.sol:LiquidityManagerStorage",
            "label": "juniorLastUpdateTimestamp",
            "offset": 20,
            "slot": "13",
            "type": "t_uint40"
          },
          {
            "astId": 10152,
            "contract": "contracts/component/shared/storage/LiquidityManagerStorage.sol:LiquidityManagerStorage",
            "label": "seniorLastUpdateTimestamp",
            "offset": 25,
            "slot": "13",
            "type": "t_uint40"
          },
          {
            "astId": 10154,
            "contract": "contracts/component/shared/storage/LiquidityManagerStorage.sol:LiquidityManagerStorage",
            "label": "optimalTrancheRatio",
            "offset": 0,
            "slot": "14",
            "type": "t_uint256"
          },
          {
            "astId": 10156,
            "contract": "contracts/component/shared/storage/LiquidityManagerStorage.sol:LiquidityManagerStorage",
            "label": "currentIncomeRatio",
            "offset": 0,
            "slot": "15",
            "type": "t_uint256"
          },
          {
            "astId": 10158,
            "contract": "contracts/component/shared/storage/LiquidityManagerStorage.sol:LiquidityManagerStorage",
            "label": "optimalIncomeRatio",
            "offset": 0,
            "slot": "16",
            "type": "t_uint256"
          }
        ],
        "numberOfBytes": "544"
      },
      "t_uint16": {
        "encoding": "inplace",
        "label": "uint16",
        "numberOfBytes": "2"
      },
      "t_uint256": {
        "encoding": "inplace",
        "label": "uint256",
        "numberOfBytes": "32"
      },
      "t_uint40": {
        "encoding": "inplace",
        "label": "uint40",
        "numberOfBytes": "5"
      }
    }
  }
}