{
  "address": "0x7B99A97B39d0cDF9b88B94A5c0EcA9D91F5930dC",
  "abi": [
    {
      "anonymous": false,
      "inputs": [
        {
          "indexed": true,
          "internalType": "address",
          "name": "previousOwner",
          "type": "address"
        },
        {
          "indexed": true,
          "internalType": "address",
          "name": "newOwner",
          "type": "address"
        }
      ],
      "name": "OwnershipTransferred",
      "type": "event"
    },
    {
      "anonymous": false,
      "inputs": [
        {
          "indexed": false,
          "internalType": "contract Proxyable",
          "name": "newTarget",
          "type": "address"
        }
      ],
      "name": "TargetUpdated",
      "type": "event"
    },
    {
      "stateMutability": "payable",
      "type": "fallback"
    },
    {
      "inputs": [
        {
          "internalType": "bytes",
          "name": "callData",
          "type": "bytes"
        },
        {
          "internalType": "uint256",
          "name": "numTopics",
          "type": "uint256"
        },
        {
          "internalType": "bytes32",
          "name": "topic1",
          "type": "bytes32"
        },
        {
          "internalType": "bytes32",
          "name": "topic2",
          "type": "bytes32"
        },
        {
          "internalType": "bytes32",
          "name": "topic3",
          "type": "bytes32"
        },
        {
          "internalType": "bytes32",
          "name": "topic4",
          "type": "bytes32"
        }
      ],
      "name": "_emit",
      "outputs": [],
      "stateMutability": "nonpayable",
      "type": "function"
    },
    {
      "inputs": [],
      "name": "claimOwnership",
      "outputs": [],
      "stateMutability": "nonpayable",
      "type": "function"
    },
    {
      "inputs": [
        {
          "internalType": "address",
          "name": "_reserve",
          "type": "address"
        }
      ],
      "name": "getConfiguration",
      "outputs": [
        {
          "components": [
            {
              "internalType": "uint256",
              "name": "data",
              "type": "uint256"
            }
          ],
          "internalType": "struct DataTypes.ReserveConfigurationMap",
          "name": "",
          "type": "tuple"
        }
      ],
      "stateMutability": "view",
      "type": "function"
    },
    {
      "inputs": [],
      "name": "getEscrowAddress",
      "outputs": [
        {
          "internalType": "address",
          "name": "",
          "type": "address"
        }
      ],
      "stateMutability": "view",
      "type": "function"
    },
    {
      "inputs": [
        {
          "internalType": "address",
          "name": "_asset",
          "type": "address"
        }
      ],
      "name": "getFlags",
      "outputs": [
        {
          "internalType": "bool",
          "name": "",
          "type": "bool"
        },
        {
          "internalType": "bool",
          "name": "",
          "type": "bool"
        },
        {
          "internalType": "bool",
          "name": "",
          "type": "bool"
        }
      ],
      "stateMutability": "view",
      "type": "function"
    },
    {
      "inputs": [
        {
          "internalType": "address",
          "name": "_reserve",
          "type": "address"
        },
        {
          "internalType": "enum ReserveLogic.Tranche",
          "name": "_tranche",
          "type": "uint8"
        }
      ],
      "name": "getLiquidityRate",
      "outputs": [
        {
          "internalType": "uint256",
          "name": "",
          "type": "uint256"
        }
      ],
      "stateMutability": "view",
      "type": "function"
    },
    {
      "inputs": [
        {
          "internalType": "address",
          "name": "_reserve",
          "type": "address"
        }
      ],
      "name": "getReserveData",
      "outputs": [
        {
          "components": [
            {
              "components": [
                {
                  "internalType": "uint256",
                  "name": "data",
                  "type": "uint256"
                }
              ],
              "internalType": "struct DataTypes.ReserveConfigurationMap",
              "name": "configuration",
              "type": "tuple"
            },
            {
              "internalType": "uint256",
              "name": "currentOverallLiquidityRate",
              "type": "uint256"
            },
            {
              "internalType": "uint256",
              "name": "currentSeniorIncomeAllocation",
              "type": "uint256"
            },
            {
              "internalType": "uint256",
              "name": "currentJuniorIncomeAllocation",
              "type": "uint256"
            },
            {
              "internalType": "uint256",
              "name": "juniorLiquidityIndex",
              "type": "uint256"
            },
            {
              "internalType": "uint256",
              "name": "seniorLiquidityIndex",
              "type": "uint256"
            },
            {
              "internalType": "uint256",
              "name": "totalBorrows",
              "type": "uint256"
            },
            {
              "internalType": "uint256",
              "name": "currentBorrowRate",
              "type": "uint256"
            },
            {
              "internalType": "uint256",
              "name": "securityRequirement",
              "type": "uint256"
            },
            {
              "internalType": "uint256",
              "name": "decimals",
              "type": "uint256"
            },
            {
              "internalType": "address",
              "name": "interestRateStrategyAddress",
              "type": "address"
            },
            {
              "internalType": "address",
              "name": "juniorDepositTokenAddress",
              "type": "address"
            },
            {
              "internalType": "address",
              "name": "seniorDepositTokenAddress",
              "type": "address"
            },
            {
              "internalType": "address",
              "name": "stableDebtAddress",
              "type": "address"
            },
            {
              "internalType": "uint40",
              "name": "juniorLastUpdateTimestamp",
              "type": "uint40"
            },
            {
              "internalType": "uint40",
              "name": "seniorLastUpdateTimestamp",
              "type": "uint40"
            }
          ],
          "internalType": "struct DataTypes.ReserveData",
          "name": "",
          "type": "tuple"
        }
      ],
      "stateMutability": "view",
      "type": "function"
    },
    {
      "inputs": [
        {
          "internalType": "address",
          "name": "_asset",
          "type": "address"
        },
        {
          "internalType": "enum ReserveLogic.Tranche",
          "name": "_tranche",
          "type": "uint8"
        }
      ],
      "name": "getReserveNormalizedIncome",
      "outputs": [
        {
          "internalType": "uint256",
          "name": "",
          "type": "uint256"
        }
      ],
      "stateMutability": "view",
      "type": "function"
    },
    {
      "inputs": [],
      "name": "isOwner",
      "outputs": [
        {
          "internalType": "bool",
          "name": "",
          "type": "bool"
        }
      ],
      "stateMutability": "view",
      "type": "function"
    },
    {
      "inputs": [],
      "name": "owner",
      "outputs": [
        {
          "internalType": "address",
          "name": "",
          "type": "address"
        }
      ],
      "stateMutability": "view",
      "type": "function"
    },
    {
      "inputs": [],
      "name": "pendingOwner",
      "outputs": [
        {
          "internalType": "address",
          "name": "",
          "type": "address"
        }
      ],
      "stateMutability": "view",
      "type": "function"
    },
    {
      "inputs": [
        {
          "internalType": "contract Proxyable",
          "name": "_target",
          "type": "address"
        }
      ],
      "name": "setTarget",
      "outputs": [],
      "stateMutability": "nonpayable",
      "type": "function"
    },
    {
      "inputs": [],
      "name": "target",
      "outputs": [
        {
          "internalType": "contract Proxyable",
          "name": "",
          "type": "address"
        }
      ],
      "stateMutability": "view",
      "type": "function"
    },
    {
      "inputs": [
        {
          "internalType": "address",
          "name": "newOwner",
          "type": "address"
        }
      ],
      "name": "transferOwnership",
      "outputs": [],
      "stateMutability": "nonpayable",
      "type": "function"
    }
  ],
  "transactionHash": "0x2eb069c76f7687b1a5dcdf596139bdcf3cdee8c8f77f9886c9b5832039f3dea4",
  "args": [],
  "numDeployments": 1,
  "solcInputHash": "2196d022291140b1b6ee21061c33a3c8",
  "bytecode": "0x608060405234801561001057600080fd5b50336000806101000a81548173ffffffffffffffffffffffffffffffffffffffff021916908373ffffffffffffffffffffffffffffffffffffffff16021790555060008054906101000a900473ffffffffffffffffffffffffffffffffffffffff1673ffffffffffffffffffffffffffffffffffffffff16600073ffffffffffffffffffffffffffffffffffffffff167f8be0079c531659141344cd1fd0a4f28419497f9722a3daafe3b4186f6b6457e060405160405180910390a3611a73806100db6000396000f3fe6080604052600436106100e15760003560e01c80638da5cb5b1161007f578063c44b11f711610059578063c44b11f7146103bb578063d4b83992146103f8578063e30c397814610423578063f2fde38b1461044e576100e2565b80638da5cb5b1461033c5780638f32d59b14610367578063907dff9714610392576100e2565b80634e71e0c8116100bb5780634e71e0c814610280578063776d1a0114610297578063776f6891146102c0578063817ad5d3146102fd576100e2565b8063122fd48a146101db578063284592b21461020657806335ea6a7514610243576100e2565b5b6100ea610477565b610129576040517f08c379a000000000000000000000000000000000000000000000000000000000815260040161012090610f1f565b60405180910390fd5b600260009054906101000a900473ffffffffffffffffffffffffffffffffffffffff1673ffffffffffffffffffffffffffffffffffffffff1663bc67f832336040518263ffffffff1660e01b81526004016101849190610f80565b600060405180830381600087803b15801561019e57600080fd5b505af11580156101b2573d6000803e3d6000fd5b5050505060405136600082376000803683346002545af13d6000833e806101d7573d82fd5b3d82f35b3480156101e757600080fd5b506101f06104ce565b6040516101fd9190610f80565b60405180910390f35b34801561021257600080fd5b5061022d60048036038101906102289190611000565b610575565b60405161023a9190611059565b60405180910390f35b34801561024f57600080fd5b5061026a60048036038101906102659190611074565b61062c565b6040516102779190611245565b60405180910390f35b34801561028c57600080fd5b506102956106e7565b005b3480156102a357600080fd5b506102be60048036038101906102b9919061129f565b610883565b005b3480156102cc57600080fd5b506102e760048036038101906102e29190611000565b610945565b6040516102f49190611059565b60405180910390f35b34801561030957600080fd5b50610324600480360381019061031f9190611074565b6109fc565b604051610333939291906112e7565b60405180910390f35b34801561034857600080fd5b50610351610ab9565b60405161035e9190610f80565b60405180910390f35b34801561037357600080fd5b5061037c610477565b604051610389919061131e565b60405180910390f35b34801561039e57600080fd5b506103b960048036038101906103b49190611400565b610add565b005b3480156103c757600080fd5b506103e260048036038101906103dd9190611074565b610c35565b6040516103ef91906114cb565b60405180910390f35b34801561040457600080fd5b5061040d610cef565b60405161041a9190611545565b60405180910390f35b34801561042f57600080fd5b50610438610d15565b6040516104459190610f80565b60405180910390f35b34801561045a57600080fd5b5061047560048036038101906104709190611074565b610d3b565b005b60008060009054906101000a900473ffffffffffffffffffffffffffffffffffffffff1673ffffffffffffffffffffffffffffffffffffffff163373ffffffffffffffffffffffffffffffffffffffff1614905090565b6000600260009054906101000a900473ffffffffffffffffffffffffffffffffffffffff1673ffffffffffffffffffffffffffffffffffffffff1663122fd48a6040518163ffffffff1660e01b815260040160206040518083038186803b15801561053857600080fd5b505afa15801561054c573d6000803e3d6000fd5b505050506040513d601f19601f820116820180604052508101906105709190611575565b905090565b6000600260009054906101000a900473ffffffffffffffffffffffffffffffffffffffff1673ffffffffffffffffffffffffffffffffffffffff1663284592b284846040518363ffffffff1660e01b81526004016105d4929190611619565b60206040518083038186803b1580156105ec57600080fd5b505afa158015610600573d6000803e3d6000fd5b505050506040513d601f19601f820116820180604052508101906106249190611657565b905092915050565b610634610dc6565b600260009054906101000a900473ffffffffffffffffffffffffffffffffffffffff1673ffffffffffffffffffffffffffffffffffffffff166335ea6a75836040518263ffffffff1660e01b815260040161068f9190610f80565b6102006040518083038186803b1580156106a857600080fd5b505afa1580156106bc573d6000803e3d6000fd5b505050506040513d601f19601f820116820180604052508101906106e091906118f7565b9050919050565b600160009054906101000a900473ffffffffffffffffffffffffffffffffffffffff1673ffffffffffffffffffffffffffffffffffffffff163373ffffffffffffffffffffffffffffffffffffffff161461074157600080fd5b600160009054906101000a900473ffffffffffffffffffffffffffffffffffffffff1673ffffffffffffffffffffffffffffffffffffffff1660008054906101000a900473ffffffffffffffffffffffffffffffffffffffff1673ffffffffffffffffffffffffffffffffffffffff167f8be0079c531659141344cd1fd0a4f28419497f9722a3daafe3b4186f6b6457e060405160405180910390a3600160009054906101000a900473ffffffffffffffffffffffffffffffffffffffff166000806101000a81548173ffffffffffffffffffffffffffffffffffffffff021916908373ffffffffffffffffffffffffffffffffffffffff1602179055506000600160006101000a81548173ffffffffffffffffffffffffffffffffffffffff021916908373ffffffffffffffffffffffffffffffffffffffff160217905550565b61088b610477565b6108ca576040517f08c379a00000000000000000000000000000000000000000000000000000000081526004016108c190610f1f565b60405180910390fd5b80600260006101000a81548173ffffffffffffffffffffffffffffffffffffffff021916908373ffffffffffffffffffffffffffffffffffffffff1602179055507f814250a3b8c79fcbe2ead2c131c952a278491c8f4322a79fe84b5040a810373e8160405161093a9190611545565b60405180910390a150565b6000600260009054906101000a900473ffffffffffffffffffffffffffffffffffffffff1673ffffffffffffffffffffffffffffffffffffffff1663776f689184846040518363ffffffff1660e01b81526004016109a4929190611619565b60206040518083038186803b1580156109bc57600080fd5b505afa1580156109d0573d6000803e3d6000fd5b505050506040513d601f19601f820116820180604052508101906109f49190611657565b905092915050565b6000806000600260009054906101000a900473ffffffffffffffffffffffffffffffffffffffff1673ffffffffffffffffffffffffffffffffffffffff1663817ad5d3856040518263ffffffff1660e01b8152600401610a5c9190610f80565b60606040518083038186803b158015610a7457600080fd5b505afa158015610a88573d6000803e3d6000fd5b505050506040513d601f19601f82011682018060405250810190610aac9190611951565b9250925092509193909250565b60008054906101000a900473ffffffffffffffffffffffffffffffffffffffff1681565b600260009054906101000a900473ffffffffffffffffffffffffffffffffffffffff1673ffffffffffffffffffffffffffffffffffffffff163373ffffffffffffffffffffffffffffffffffffffff1614610b6d576040517f08c379a0000000000000000000000000000000000000000000000000000000008152600401610b64906119f0565b60405180910390fd5b6000878790509050600088888080601f016020809104026020016040519081016040528093929190818152602001838380828437600081840152601f19601f8201169050808301925050505050505090508660008114610bec5760018114610bf75760028114610c035760038114610c105760048114610c1e57610c29565b8260208301a0610c29565b868360208401a1610c29565b85878460208501a2610c29565b8486888560208601a3610c29565b838587898660208701a45b50505050505050505050565b610c3d610eaf565b600260009054906101000a900473ffffffffffffffffffffffffffffffffffffffff1673ffffffffffffffffffffffffffffffffffffffff1663c44b11f7836040518263ffffffff1660e01b8152600401610c989190610f80565b60206040518083038186803b158015610cb057600080fd5b505afa158015610cc4573d6000803e3d6000fd5b505050506040513d601f19601f82011682018060405250810190610ce89190611a10565b9050919050565b600260009054906101000a900473ffffffffffffffffffffffffffffffffffffffff1681565b600160009054906101000a900473ffffffffffffffffffffffffffffffffffffffff1681565b610d43610477565b610d82576040517f08c379a0000000000000000000000000000000000000000000000000000000008152600401610d7990610f1f565b60405180910390fd5b80600160006101000a81548173ffffffffffffffffffffffffffffffffffffffff021916908373ffffffffffffffffffffffffffffffffffffffff16021790555050565b604051806102000160405280610dda610eaf565b8152602001600081526020016000815260200160008152602001600081526020016000815260200160008152602001600081526020016000815260200160008152602001600073ffffffffffffffffffffffffffffffffffffffff168152602001600073ffffffffffffffffffffffffffffffffffffffff168152602001600073ffffffffffffffffffffffffffffffffffffffff168152602001600073ffffffffffffffffffffffffffffffffffffffff168152602001600064ffffffffff168152602001600064ffffffffff1681525090565b6040518060200160405280600081525090565b600082825260208201905092915050565b7f4f776e61626c653a2063616c6c6572206973206e6f7420746865206f776e6572600082015250565b6000610f09602083610ec2565b9150610f1482610ed3565b602082019050919050565b60006020820190508181036000830152610f3881610efc565b9050919050565b600073ffffffffffffffffffffffffffffffffffffffff82169050919050565b6000610f6a82610f3f565b9050919050565b610f7a81610f5f565b82525050565b6000602082019050610f956000830184610f71565b92915050565b6000604051905090565b600080fd5b600080fd5b610fb881610f5f565b8114610fc357600080fd5b50565b600081359050610fd581610faf565b92915050565b60028110610fe857600080fd5b50565b600081359050610ffa81610fdb565b92915050565b6000806040838503121561101757611016610fa5565b5b600061102585828601610fc6565b925050602061103685828601610feb565b9150509250929050565b6000819050919050565b61105381611040565b82525050565b600060208201905061106e600083018461104a565b92915050565b60006020828403121561108a57611089610fa5565b5b600061109884828501610fc6565b91505092915050565b6110aa81611040565b82525050565b6020820160008201516110c660008501826110a1565b50505050565b6110d581610f5f565b82525050565b600064ffffffffff82169050919050565b6110f5816110db565b82525050565b6102008201600082015161111260008501826110b0565b50602082015161112560208501826110a1565b50604082015161113860408501826110a1565b50606082015161114b60608501826110a1565b50608082015161115e60808501826110a1565b5060a082015161117160a08501826110a1565b5060c082015161118460c08501826110a1565b5060e082015161119760e08501826110a1565b506101008201516111ac6101008501826110a1565b506101208201516111c16101208501826110a1565b506101408201516111d66101408501826110cc565b506101608201516111eb6101608501826110cc565b506101808201516112006101808501826110cc565b506101a08201516112156101a08501826110cc565b506101c082015161122a6101c08501826110ec565b506101e082015161123f6101e08501826110ec565b50505050565b60006102008201905061125b60008301846110fb565b92915050565b600061126c82610f5f565b9050919050565b61127c81611261565b811461128757600080fd5b50565b60008135905061129981611273565b92915050565b6000602082840312156112b5576112b4610fa5565b5b60006112c38482850161128a565b91505092915050565b60008115159050919050565b6112e1816112cc565b82525050565b60006060820190506112fc60008301866112d8565b61130960208301856112d8565b61131660408301846112d8565b949350505050565b600060208201905061133360008301846112d8565b92915050565b600080fd5b600080fd5b600080fd5b60008083601f84011261135e5761135d611339565b5b8235905067ffffffffffffffff81111561137b5761137a61133e565b5b60208301915083600182028301111561139757611396611343565b5b9250929050565b6113a781611040565b81146113b257600080fd5b50565b6000813590506113c48161139e565b92915050565b6000819050919050565b6113dd816113ca565b81146113e857600080fd5b50565b6000813590506113fa816113d4565b92915050565b600080600080600080600060c0888a03121561141f5761141e610fa5565b5b600088013567ffffffffffffffff81111561143d5761143c610faa565b5b6114498a828b01611348565b9750975050602061145c8a828b016113b5565b955050604061146d8a828b016113eb565b945050606061147e8a828b016113eb565b935050608061148f8a828b016113eb565b92505060a06114a08a828b016113eb565b91505092959891949750929550565b6020820160008201516114c560008501826110a1565b50505050565b60006020820190506114e060008301846114af565b92915050565b6000819050919050565b600061150b61150661150184610f3f565b6114e6565b610f3f565b9050919050565b600061151d826114f0565b9050919050565b600061152f82611512565b9050919050565b61153f81611524565b82525050565b600060208201905061155a6000830184611536565b92915050565b60008151905061156f81610faf565b92915050565b60006020828403121561158b5761158a610fa5565b5b600061159984828501611560565b91505092915050565b7f4e487b7100000000000000000000000000000000000000000000000000000000600052602160045260246000fd5b600281106115e2576115e16115a2565b5b50565b60008190506115f3826115d1565b919050565b6000611603826115e5565b9050919050565b611613816115f8565b82525050565b600060408201905061162e6000830185610f71565b61163b602083018461160a565b9392505050565b6000815190506116518161139e565b92915050565b60006020828403121561166d5761166c610fa5565b5b600061167b84828501611642565b91505092915050565b600080fd5b6000601f19601f8301169050919050565b7f4e487b7100000000000000000000000000000000000000000000000000000000600052604160045260246000fd5b6116d282611689565b810181811067ffffffffffffffff821117156116f1576116f061169a565b5b80604052505050565b6000611704610f9b565b905061171082826116c9565b919050565b60006020828403121561172b5761172a611684565b5b61173560206116fa565b9050600061174584828501611642565b60008301525092915050565b61175a816110db565b811461176557600080fd5b50565b60008151905061177781611751565b92915050565b6000610200828403121561179457611793611684565b5b61179f6102006116fa565b905060006117af84828501611715565b60008301525060206117c384828501611642565b60208301525060406117d784828501611642565b60408301525060606117eb84828501611642565b60608301525060806117ff84828501611642565b60808301525060a061181384828501611642565b60a08301525060c061182784828501611642565b60c08301525060e061183b84828501611642565b60e08301525061010061185084828501611642565b6101008301525061012061186684828501611642565b6101208301525061014061187c84828501611560565b6101408301525061016061189284828501611560565b610160830152506101806118a884828501611560565b610180830152506101a06118be84828501611560565b6101a0830152506101c06118d484828501611768565b6101c0830152506101e06118ea84828501611768565b6101e08301525092915050565b6000610200828403121561190e5761190d610fa5565b5b600061191c8482850161177d565b91505092915050565b61192e816112cc565b811461193957600080fd5b50565b60008151905061194b81611925565b92915050565b60008060006060848603121561196a57611969610fa5565b5b60006119788682870161193c565b93505060206119898682870161193c565b925050604061199a8682870161193c565b9150509250925092565b7f4d7573742062652070726f787920746172676574000000000000000000000000600082015250565b60006119da601483610ec2565b91506119e5826119a4565b602082019050919050565b60006020820190508181036000830152611a09816119cd565b9050919050565b600060208284031215611a2657611a25610fa5565b5b6000611a3484828501611715565b9150509291505056fea2646970667358221220c5b2460e77a4765a0c3ac508ebd9bf469e0c3a0499fc00306b7b63724ca270e764736f6c63430008090033",
  "devdoc": {
    "kind": "dev",
    "methods": {
      "claimOwnership()": {
        "details": "Allows the pendingOwner address to finalize the transfer."
      },
      "isOwner()": {
        "details": "Returns true if the caller is the current owner."
      },
      "transferOwnership(address)": {
        "details": "Allows the current owner to set the pendingOwner address.",
        "params": {
          "newOwner": "The address to transfer ownership to."
        }
      }
    },
    "version": 1
  },
  "userdoc": {
    "kind": "user",
    "methods": {},
    "version": 1
  },
  "storageLayout": {
    "storage": [
      {
        "astId": 6863,
        "contract": "contracts/component/liquiditymanager/LiquidityManagerProxy.sol:LiquidityManagerProxy",
        "label": "owner",
        "offset": 0,
        "slot": "0",
        "type": "t_address"
      },
      {
        "astId": 6865,
        "contract": "contracts/component/liquiditymanager/LiquidityManagerProxy.sol:LiquidityManagerProxy",
        "label": "pendingOwner",
        "offset": 0,
        "slot": "1",
        "type": "t_address"
      },
      {
        "astId": 6970,
        "contract": "contracts/component/liquiditymanager/LiquidityManagerProxy.sol:LiquidityManagerProxy",
        "label": "target",
        "offset": 0,
        "slot": "2",
        "type": "t_contract(Proxyable)7180"
      }
    ],
    "types": {
      "t_address": {
        "encoding": "inplace",
        "label": "address",
        "numberOfBytes": "20"
      },
      "t_contract(Proxyable)7180": {
        "encoding": "inplace",
        "label": "contract Proxyable",
        "numberOfBytes": "20"
      }
    }
  }
}