{
  "address": "0xe337cad16011310281F17F411D872F795851C58B",
  "abi": [
    {
      "inputs": [
        {
          "internalType": "address",
          "name": "_liquidityManager",
          "type": "address"
        }
      ],
      "stateMutability": "nonpayable",
      "type": "constructor"
    },
    {
      "anonymous": false,
      "inputs": [
        {
          "indexed": false,
          "internalType": "address",
          "name": "associatedContract",
          "type": "address"
        }
      ],
      "name": "AssociatedContractUpdated",
      "type": "event"
    },
    {
      "anonymous": false,
      "inputs": [
        {
          "indexed": true,
          "internalType": "address",
          "name": "previousOwner",
          "type": "address"
        },
        {
          "indexed": true,
          "internalType": "address",
          "name": "newOwner",
          "type": "address"
        }
      ],
      "name": "OwnershipTransferred",
      "type": "event"
    },
    {
      "inputs": [
        {
          "internalType": "address",
          "name": "_asset",
          "type": "address"
        }
      ],
      "name": "activeReserve",
      "outputs": [],
      "stateMutability": "nonpayable",
      "type": "function"
    },
    {
      "inputs": [
        {
          "internalType": "address",
          "name": "",
          "type": "address"
        }
      ],
      "name": "associatedContracts",
      "outputs": [
        {
          "internalType": "bool",
          "name": "",
          "type": "bool"
        }
      ],
      "stateMutability": "view",
      "type": "function"
    },
    {
      "inputs": [
        {
          "internalType": "address",
          "name": "_reserve",
          "type": "address"
        }
      ],
      "name": "getBorrowStat",
      "outputs": [
        {
          "components": [
            {
              "internalType": "uint256",
              "name": "totalDebt",
              "type": "uint256"
            },
            {
              "internalType": "uint256",
              "name": "totalInterest",
              "type": "uint256"
            },
            {
              "internalType": "uint256",
              "name": "avgBorrowRate",
              "type": "uint256"
            }
          ],
          "internalType": "struct DataTypes.BorrowStat",
          "name": "",
          "type": "tuple"
        }
      ],
      "stateMutability": "view",
      "type": "function"
    },
    {
      "inputs": [
        {
          "internalType": "address",
          "name": "_asset",
          "type": "address"
        }
      ],
      "name": "getConfiguration",
      "outputs": [
        {
          "components": [
            {
              "internalType": "uint256",
              "name": "data",
              "type": "uint256"
            }
          ],
          "internalType": "struct DataTypes.ReserveConfigurationMap",
          "name": "",
          "type": "tuple"
        }
      ],
      "stateMutability": "view",
      "type": "function"
    },
    {
      "inputs": [
        {
          "internalType": "address",
          "name": "_reserve",
          "type": "address"
        }
      ],
      "name": "getDepositAndDebt",
      "outputs": [
        {
          "components": [
            {
              "internalType": "uint256",
              "name": "juniorDepositAmount",
              "type": "uint256"
            },
            {
              "internalType": "uint256",
              "name": "seniorDepositAmount",
              "type": "uint256"
            },
            {
              "internalType": "uint256",
              "name": "totalDebt",
              "type": "uint256"
            },
            {
              "internalType": "uint256",
              "name": "totalInterest",
              "type": "uint256"
            },
            {
              "internalType": "uint256",
              "name": "avgBorrowRate",
              "type": "uint256"
            }
          ],
          "internalType": "struct DataTypes.DepositAndDebt",
          "name": "",
          "type": "tuple"
        }
      ],
      "stateMutability": "view",
      "type": "function"
    },
    {
      "inputs": [
        {
          "internalType": "address",
          "name": "_reserve",
          "type": "address"
        },
        {
          "internalType": "address",
          "name": "_vault",
          "type": "address"
        },
        {
          "internalType": "uint256",
          "name": "_drawDownId",
          "type": "uint256"
        }
      ],
      "name": "getDrawDownDetail",
      "outputs": [
        {
          "components": [
            {
              "internalType": "uint256",
              "name": "principal",
              "type": "uint256"
            },
            {
              "internalType": "uint256",
              "name": "term",
              "type": "uint256"
            },
            {
              "internalType": "uint256",
              "name": "epoch",
              "type": "uint256"
            },
            {
              "internalType": "uint256",
              "name": "nper",
              "type": "uint256"
            },
            {
              "components": [
                {
                  "internalType": "uint256",
                  "name": "principal",
                  "type": "uint256"
                },
                {
                  "internalType": "uint256",
                  "name": "interest",
                  "type": "uint256"
                },
                {
                  "internalType": "uint256",
                  "name": "pmt",
                  "type": "uint256"
                }
              ],
              "internalType": "struct DataTypes.PMT",
              "name": "pmt",
              "type": "tuple"
            },
            {
              "internalType": "uint256",
              "name": "apr",
              "type": "uint256"
            },
            {
              "internalType": "uint256",
              "name": "borrowAt",
              "type": "uint256"
            },
            {
              "internalType": "uint256",
              "name": "nextPaymentDue",
              "type": "uint256"
            },
            {
              "internalType": "uint256",
              "name": "totalPrincipalPaid",
              "type": "uint256"
            },
            {
              "internalType": "uint256",
              "name": "totalInterestPaid",
              "type": "uint256"
            },
            {
              "internalType": "uint256",
              "name": "paidTimes",
              "type": "uint256"
            }
          ],
          "internalType": "struct DataTypes.DebtDetail",
          "name": "",
          "type": "tuple"
        }
      ],
      "stateMutability": "view",
      "type": "function"
    },
    {
      "inputs": [
        {
          "internalType": "address",
          "name": "_reserve",
          "type": "address"
        },
        {
          "internalType": "address",
          "name": "_vault",
          "type": "address"
        }
      ],
      "name": "getDrawDownList",
      "outputs": [
        {
          "internalType": "uint256",
          "name": "",
          "type": "uint256"
        },
        {
          "internalType": "uint256",
          "name": "",
          "type": "uint256"
        }
      ],
      "stateMutability": "view",
      "type": "function"
    },
    {
      "inputs": [
        {
          "internalType": "address",
          "name": "_asset",
          "type": "address"
        }
      ],
      "name": "getFlags",
      "outputs": [
        {
          "internalType": "bool",
          "name": "",
          "type": "bool"
        },
        {
          "internalType": "bool",
          "name": "",
          "type": "bool"
        },
        {
          "internalType": "bool",
          "name": "",
          "type": "bool"
        }
      ],
      "stateMutability": "view",
      "type": "function"
    },
    {
      "inputs": [
        {
          "internalType": "address",
          "name": "_asset",
          "type": "address"
        },
        {
          "internalType": "enum ReserveLogic.Tranche",
          "name": "_tranche",
          "type": "uint8"
        }
      ],
      "name": "getLiquidityRate",
      "outputs": [
        {
          "internalType": "uint256",
          "name": "",
          "type": "uint256"
        }
      ],
      "stateMutability": "view",
      "type": "function"
    },
    {
      "inputs": [
        {
          "internalType": "address",
          "name": "_reserve",
          "type": "address"
        },
        {
          "internalType": "address",
          "name": "_vault",
          "type": "address"
        },
        {
          "internalType": "uint256",
          "name": "_drawDown",
          "type": "uint256"
        }
      ],
      "name": "getPMT",
      "outputs": [
        {
          "internalType": "uint256",
          "name": "",
          "type": "uint256"
        },
        {
          "internalType": "uint256",
          "name": "",
          "type": "uint256"
        }
      ],
      "stateMutability": "view",
      "type": "function"
    },
    {
      "inputs": [
        {
          "internalType": "address",
          "name": "_asset",
          "type": "address"
        }
      ],
      "name": "getReserveData",
      "outputs": [
        {
          "components": [
            {
              "components": [
                {
                  "internalType": "uint256",
                  "name": "data",
                  "type": "uint256"
                }
              ],
              "internalType": "struct DataTypes.ReserveConfigurationMap",
              "name": "configuration",
              "type": "tuple"
            },
            {
              "internalType": "uint256",
              "name": "currentOverallLiquidityRate",
              "type": "uint256"
            },
            {
              "internalType": "uint256",
              "name": "currentJuniorLiquidityRate",
              "type": "uint256"
            },
            {
              "internalType": "uint256",
              "name": "currentSeniorLiquidityRate",
              "type": "uint256"
            },
            {
              "internalType": "uint256",
              "name": "currentBorrowRate",
              "type": "uint256"
            },
            {
              "internalType": "uint256",
              "name": "securityRequirement",
              "type": "uint256"
            },
            {
              "internalType": "uint256",
              "name": "decimals",
              "type": "uint256"
            },
            {
              "internalType": "address",
              "name": "interestRateStrategyAddress",
              "type": "address"
            },
            {
              "internalType": "address",
              "name": "healthStrategyAddress",
              "type": "address"
            },
            {
              "internalType": "address",
              "name": "loanStrategyAddress",
              "type": "address"
            },
            {
              "internalType": "address",
              "name": "juniorDepositTokenAddress",
              "type": "address"
            },
            {
              "internalType": "address",
              "name": "seniorDepositTokenAddress",
              "type": "address"
            },
            {
              "internalType": "uint40",
              "name": "juniorLastUpdateTimestamp",
              "type": "uint40"
            },
            {
              "internalType": "uint40",
              "name": "seniorLastUpdateTimestamp",
              "type": "uint40"
            },
            {
              "internalType": "uint256",
              "name": "optimalTrancheRatio",
              "type": "uint256"
            },
            {
              "internalType": "uint256",
              "name": "currentIncomeRatio",
              "type": "uint256"
            },
            {
              "internalType": "uint256",
              "name": "optimalIncomeRatio",
              "type": "uint256"
            }
          ],
          "internalType": "struct DataTypes.ReserveData",
          "name": "",
          "type": "tuple"
        }
      ],
      "stateMutability": "view",
      "type": "function"
    },
    {
      "inputs": [],
      "name": "getReserveList",
      "outputs": [
        {
          "internalType": "address[]",
          "name": "",
          "type": "address[]"
        }
      ],
      "stateMutability": "view",
      "type": "function"
    },
    {
      "inputs": [
        {
          "internalType": "address",
          "name": "_reserve",
          "type": "address"
        }
      ],
      "name": "getTotalDebt",
      "outputs": [
        {
          "internalType": "uint256",
          "name": "",
          "type": "uint256"
        },
        {
          "internalType": "uint256",
          "name": "",
          "type": "uint256"
        }
      ],
      "stateMutability": "view",
      "type": "function"
    },
    {
      "inputs": [
        {
          "internalType": "address",
          "name": "_reserve",
          "type": "address"
        },
        {
          "internalType": "address",
          "name": "_vault",
          "type": "address"
        }
      ],
      "name": "getVaultDebt",
      "outputs": [
        {
          "internalType": "uint256",
          "name": "",
          "type": "uint256"
        },
        {
          "internalType": "uint256",
          "name": "",
          "type": "uint256"
        }
      ],
      "stateMutability": "view",
      "type": "function"
    },
    {
      "inputs": [
        {
          "internalType": "address",
          "name": "_asset",
          "type": "address"
        },
        {
          "internalType": "address",
          "name": "_juniorDepositTokenAddress",
          "type": "address"
        },
        {
          "internalType": "address",
          "name": "_seniorDepositTokenAddress",
          "type": "address"
        },
        {
          "internalType": "address",
          "name": "_interestRateStrategyAddress",
          "type": "address"
        },
        {
          "internalType": "address",
          "name": "_healthStrategyAddress",
          "type": "address"
        },
        {
          "internalType": "address",
          "name": "_loanStrategyAddress",
          "type": "address"
        },
        {
          "internalType": "uint256",
          "name": "_optimalIncomeRatio",
          "type": "uint256"
        }
      ],
      "name": "initReserve",
      "outputs": [],
      "stateMutability": "nonpayable",
      "type": "function"
    },
    {
      "inputs": [
        {
          "internalType": "address",
          "name": "_reserve",
          "type": "address"
        },
        {
          "internalType": "address",
          "name": "_vault",
          "type": "address"
        },
        {
          "internalType": "uint256",
          "name": "_principal",
          "type": "uint256"
        },
        {
          "internalType": "uint256",
          "name": "_term",
          "type": "uint256"
        },
        {
          "internalType": "uint256",
          "name": "_epoch",
          "type": "uint256"
        },
        {
          "internalType": "uint256",
          "name": "_apr",
          "type": "uint256"
        }
      ],
      "name": "insertDebt",
      "outputs": [],
      "stateMutability": "nonpayable",
      "type": "function"
    },
    {
      "inputs": [],
      "name": "owner",
      "outputs": [
        {
          "internalType": "address",
          "name": "",
          "type": "address"
        }
      ],
      "stateMutability": "view",
      "type": "function"
    },
    {
      "inputs": [],
      "name": "pause",
      "outputs": [],
      "stateMutability": "nonpayable",
      "type": "function"
    },
    {
      "inputs": [],
      "name": "paused",
      "outputs": [
        {
          "internalType": "bool",
          "name": "",
          "type": "bool"
        }
      ],
      "stateMutability": "view",
      "type": "function"
    },
    {
      "inputs": [],
      "name": "renounceOwnership",
      "outputs": [],
      "stateMutability": "nonpayable",
      "type": "function"
    },
    {
      "inputs": [
        {
          "internalType": "address",
          "name": "_reserve",
          "type": "address"
        },
        {
          "internalType": "address",
          "name": "_vault",
          "type": "address"
        },
        {
          "internalType": "uint256",
          "name": "_drawDownNumber",
          "type": "uint256"
        },
        {
          "internalType": "uint256",
          "name": "_principal",
          "type": "uint256"
        },
        {
          "internalType": "uint256",
          "name": "_interest",
          "type": "uint256"
        }
      ],
      "name": "repay",
      "outputs": [],
      "stateMutability": "nonpayable",
      "type": "function"
    },
    {
      "inputs": [
        {
          "internalType": "address",
          "name": "_associatedContract",
          "type": "address"
        }
      ],
      "name": "setAssociatedContract",
      "outputs": [],
      "stateMutability": "nonpayable",
      "type": "function"
    },
    {
      "inputs": [
        {
          "internalType": "address",
          "name": "newOwner",
          "type": "address"
        }
      ],
      "name": "transferOwnership",
      "outputs": [],
      "stateMutability": "nonpayable",
      "type": "function"
    },
    {
      "inputs": [],
      "name": "unPause",
      "outputs": [],
      "stateMutability": "nonpayable",
      "type": "function"
    },
    {
      "inputs": [
        {
          "internalType": "address",
          "name": "_asset",
          "type": "address"
        },
        {
          "internalType": "uint256",
          "name": "_amount",
          "type": "uint256"
        },
        {
          "internalType": "uint256",
          "name": "_totalDebt",
          "type": "uint256"
        },
        {
          "internalType": "uint256",
          "name": "_avgBorrowRate",
          "type": "uint256"
        }
      ],
      "name": "updateStateOnBorrow",
      "outputs": [],
      "stateMutability": "nonpayable",
      "type": "function"
    },
    {
      "inputs": [
        {
          "internalType": "address",
          "name": "_asset",
          "type": "address"
        },
        {
          "internalType": "enum ReserveLogic.Tranche",
          "name": "_tranche",
          "type": "uint8"
        },
        {
          "internalType": "uint256",
          "name": "_amount",
          "type": "uint256"
        },
        {
          "internalType": "uint256",
          "name": "_totalDebt",
          "type": "uint256"
        },
        {
          "internalType": "uint256",
          "name": "_avgBorrowRate",
          "type": "uint256"
        }
      ],
      "name": "updateStateOnDeposit",
      "outputs": [],
      "stateMutability": "nonpayable",
      "type": "function"
    },
    {
      "inputs": [
        {
          "internalType": "address",
          "name": "_asset",
          "type": "address"
        },
        {
          "internalType": "uint256",
          "name": "_amount",
          "type": "uint256"
        },
        {
          "internalType": "uint256",
          "name": "_totalDebt",
          "type": "uint256"
        },
        {
          "internalType": "uint256",
          "name": "_avgBorrowRate",
          "type": "uint256"
        }
      ],
      "name": "updateStateOnRepayment",
      "outputs": [],
      "stateMutability": "nonpayable",
      "type": "function"
    },
    {
      "inputs": [
        {
          "internalType": "address",
          "name": "_asset",
          "type": "address"
        },
        {
          "internalType": "enum ReserveLogic.Tranche",
          "name": "_tranche",
          "type": "uint8"
        },
        {
          "internalType": "uint256",
          "name": "_amount",
          "type": "uint256"
        },
        {
          "internalType": "uint256",
          "name": "_totalDebt",
          "type": "uint256"
        },
        {
          "internalType": "uint256",
          "name": "_avgBorrowRate",
          "type": "uint256"
        }
      ],
      "name": "updateStateOnWithdraw",
      "outputs": [],
      "stateMutability": "nonpayable",
      "type": "function"
    }
  ],
  "transactionHash": "0xffe79bda245f65ca9a0c5ccaaa2c90bea6edda7462e0cc10dba9efd9e6a4e9df",
  "args": [
    "0x13aA52A79b16021107A0031Ae2c672A561F52287"
  ],
  "numDeployments": 2,
  "solcInputHash": "12f50c75a18b6f714019b390413b1deb",
  "bytecode": "0x60806040523480156200001157600080fd5b50604051620024b4380380620024b4833981016040819052620000349162000141565b806200004033620000f1565b6000546001600160a01b0316620000915760405162461bcd60e51b815260206004820152601160248201527013dddb995c881b5d5cdd081899481cd95d607a1b604482015260640160405180910390fd5b6001600160a01b038116600081815260016020818152604092839020805460ff191690921790915590519182527f73f20cff579e8a4086fa607db83867595f1b6a798e718c0bfa0b94a404128e03910160405180910390a1505062000173565b600080546001600160a01b038381166001600160a01b0319831681178455604051919092169283917f8be0079c531659141344cd1fd0a4f28419497f9722a3daafe3b4186f6b6457e09190a35050565b6000602082840312156200015457600080fd5b81516001600160a01b03811681146200016c57600080fd5b9392505050565b61233180620001836000396000f3fe608060405234801561001057600080fd5b50600436106101c45760003560e01c8063715018a6116100f95780638a0695fd11610097578063e3b69f7f11610071578063e3b69f7f146106fd578063f2fde38b14610710578063f46a2bd414610723578063f7b188a51461073657600080fd5b80638a0695fd1461064d5780638da5cb5b14610691578063c44b11f7146106ac57600080fd5b80637cb1ca25116100d35780637cb1ca25146105b0578063817ad5d31461060057806381f78151146106325780638456cb591461064557600080fd5b8063715018a61461054757806374e175df1461054f5780637c7c983d1461059057600080fd5b806343ba22631161016657806352f445ca1161014057806352f445ca146104db5780635748ff18146104ee5780635c975abb1461052157806366d4c4131461053257600080fd5b806343ba22631461042d5780634c445bfe146104405780634d44ac4f1461049557600080fd5b806335ea6a75116101a257806335ea6a751461021757806336052e27146103e75780633de5f35f146103fa5780633e4115a41461041a57600080fd5b80630fc3a8be146101c9578063284592b2146101de5780632bb25f9814610204575b600080fd5b6101dc6101d7366004611c81565b61073e565b005b6101f16101ec366004611cce565b6109f3565b6040519081526020015b60405180910390f35b6101dc610212366004611d01565b610ab5565b6103da610225366004611d56565b604080516102408101825260006102208201818152825260208201819052918101829052606081018290526080810182905260a0810182905260c0810182905260e08101829052610100810182905261012081018290526101408101829052610160810182905261018081018290526101a081018290526101c081018290526101e08101829052610200810191909152506001600160a01b0390811660009081526002602081815260409283902083516102408101855281546102208201908152815260018201549281019290925291820154928101929092526003810154606083015260048101546080830152600581015460a0830152600681015460c08301526007810154831660e08301526008810154831661010083015260098101548316610120830152600a8101548316610140830152600b81015492831661016083015264ffffffffff74010000000000000000000000000000000000000000840481166101808401527901000000000000000000000000000000000000000000000000009093049092166101a0820152600c8201546101c0820152600d8201546101e0820152600e9091015461020082015290565b6040516101fb9190611d71565b6101dc6103f5366004611e60565b610bd9565b61040d610408366004611d56565b610d29565b6040516101fb9190611e8f565b6101dc610428366004611eb0565b610d8f565b6101dc61043b366004611ee9565b610ea7565b61045361044e366004611d56565b611067565b6040516101fb9190600060a082019050825182526020830151602083015260408301516040830152606083015160608301526080830151608083015292915050565b6104c66104a3366004611d56565b6001600160a01b0316600090815260046020526040902080546001909101549091565b604080519283526020830191909152016101fb565b6101dc6104e9366004611d56565b611237565b6105116104fc366004611d56565b60016020526000908152604090205460ff1681565b60405190151581526020016101fb565b60065462010000900460ff16610511565b61053a61130a565b6040516101fb9190611f68565b6101dc6113cb565b6104c661055d366004611fb5565b6001600160a01b039182166000908152600360209081526040808320939094168252919091522080546001909101549091565b6105a361059e366004611fdf565b611431565b6040516101fb919061201b565b6104c66105be366004611fdf565b6001600160a01b039283166000908152600360209081526040808320949095168252928352838120918152600591820190925291902060048101549101549091565b61061361060e366004611d56565b61150c565b60408051931515845291151560208401521515908201526060016101fb565b6101dc610640366004611d56565b61157e565b6101dc611654565b6104c661065b366004611fb5565b6001600160a01b038083166000908152600360208181526040808420948616845293905291902060028101549101549250929050565b6000546040516001600160a01b0390911681526020016101fb565b6106ee6106ba366004611d56565b60408051602080820183526000918290526001600160a01b0393909316815260028352819020815192830190915254815290565b604051905181526020016101fb565b6101dc61070b366004611eb0565b6116e3565b6101dc61071e366004611d56565b6117fb565b6101dc610731366004611c81565b6118dd565b6101dc611aa3565b3360009081526001602052604090205460ff166107bf5760405162461bcd60e51b815260206004820152603460248201527f4f6e6c7920746865206173736f63696174656420636f6e74726163742063616e604482015273103832b93337b936903a3434b99030b1ba34b7b760611b60648201526084015b60405180910390fd5b6001600160a01b0385166000908152600260205260409081902090517f0eca322b000000000000000000000000000000000000000000000000000000008152600481018290526024810185905273dB140b54aFD058bC9f599c3Bcf05EcA28f09738c90630eca322b9060440160006040518083038186803b15801561084357600080fd5b505af4158015610857573d6000803e3d6000fd5b5050505084600181111561086d5761086d6120be565b61093057600a810154600b82015460405163d077fbe560e01b8152600481018490526001600160a01b03808a16602483015292831660448201529116606482015260848101859052600060a4820181905260c4820181905260e48201526101048101849052610124810183905273F7D66347fe6110c12682E32d664e4F1409AdC12D9063d077fbe590610144015b60006040518083038186803b15801561091357600080fd5b505af4158015610927573d6000803e3d6000fd5b505050506109eb565b600a810154600b82015460405163d077fbe560e01b8152600481018490526001600160a01b03808a16602483015292831660448201529116606482015260006084820181905260a4820181905260c4820186905260e48201526101048101849052610124810183905273F7D66347fe6110c12682E32d664e4F1409AdC12D9063d077fbe590610144015b60006040518083038186803b1580156109d257600080fd5b505af41580156109e6573d6000803e3d6000fd5b505050505b505050505050565b6001600160a01b03821660009081526002602052604080822090517fbb43fb8000000000000000000000000000000000000000000000000000000000815273F7D66347fe6110c12682E32d664e4F1409AdC12D9163bb43fb8091610a5c919086906004016120d4565b60206040518083038186803b158015610a7457600080fd5b505af4158015610a88573d6000803e3d6000fd5b505050506040513d601f19601f82011682018060405250810190610aac9190612106565b90505b92915050565b3360009081526001602052604090205460ff16610b315760405162461bcd60e51b815260206004820152603460248201527f4f6e6c7920746865206173736f63696174656420636f6e74726163742063616e604482015273103832b93337b936903a3434b99030b1ba34b7b760611b60648201526084016107b6565b6001600160a01b038681166000818152600360209081526040808320948a1683529381528382209282526004908190529083902092517f58f9bd6e00000000000000000000000000000000000000000000000000000000815290810191909152602481019190915260448101859052606481018490526084810183905260a4810182905273cD902a213B827316324D0FaC2732B96174e91967906358f9bd6e9060c4016109ba565b3360009081526001602052604090205460ff16610c555760405162461bcd60e51b815260206004820152603460248201527f4f6e6c7920746865206173736f63696174656420636f6e74726163742063616e604482015273103832b93337b936903a3434b99030b1ba34b7b760611b60648201526084016107b6565b6001600160a01b03858116600081815260036020908152604080832094891683529381528382209282526004908190529083902092517f027a1fa100000000000000000000000000000000000000000000000000000000815290810191909152602481019190915260448101849052606481018390526084810182905273cD902a213B827316324D0FaC2732B96174e919679063027a1fa19060a4015b60006040518083038186803b158015610d0a57600080fd5b505af4158015610d1e573d6000803e3d6000fd5b505050505050505050565b610d4d60405180606001604052806000815260200160008152602001600081525090565b506001600160a01b0316600090815260046020908152604091829020825160608101845281548152600182015492810192909252600201549181019190915290565b3360009081526001602052604090205460ff16610e0b5760405162461bcd60e51b815260206004820152603460248201527f4f6e6c7920746865206173736f63696174656420636f6e74726163742063616e604482015273103832b93337b936903a3434b99030b1ba34b7b760611b60648201526084016107b6565b6001600160a01b03848116600081815260026020526040808220600a810154600b820154925163d077fbe560e01b815260048101839052602481019590955285166044850152931660648301526084820181905260a4820181905260c4820186905260e48201526101048101849052610124810183905273F7D66347fe6110c12682E32d664e4F1409AdC12D9063d077fbe59061014401610cf2565b3360009081526001602052604090205460ff16610f235760405162461bcd60e51b815260206004820152603460248201527f4f6e6c7920746865206173736f63696174656420636f6e74726163742063616e604482015273103832b93337b936903a3434b99030b1ba34b7b760611b60648201526084016107b6565b6001600160a01b038781166000908152600260205260409081902090517f19dfc3810000000000000000000000000000000000000000000000000000000081526004810191909152878216602482015286821660448201528582166064820152848216608482015290831660a482015260c4810182905273F7D66347fe6110c12682E32d664e4F1409AdC12D906319dfc3819060e40160006040518083038186803b158015610fd157600080fd5b505af4158015610fe5573d6000803e3d6000fd5b50506006805461ffff908116600090815260056020526040812080547fffffffffffffffffffffffff0000000000000000000000000000000000000000166001600160a01b038e161790558254909116935090915061104383612135565b91906101000a81548161ffff021916908361ffff1602179055505050505050505050565b6110996040518060a0016040528060008152602001600081526020016000815260200160008152602001600081525090565b6001600160a01b0382811660009081526002602090815260408083206004808452828520835160a081018552868152808601879052808501879052606081018790526080810196909652600a83015484517f18160ddd000000000000000000000000000000000000000000000000000000008152945193979196959116936318160ddd93818401939091829003018186803b15801561113757600080fd5b505afa15801561114b573d6000803e3d6000fd5b505050506040513d601f19601f8201168201806040525081019061116f9190612106565b8152600b830154604080517f18160ddd00000000000000000000000000000000000000000000000000000000815290516001600160a01b03909216916318160ddd91600480820192602092909190829003018186803b1580156111d157600080fd5b505afa1580156111e5573d6000803e3d6000fd5b505050506040513d601f19601f820116820180604052508101906112099190612106565b6020820152815460018301546002909301546080830152606082019290925260408101919091529392505050565b6000546001600160a01b031633146112915760405162461bcd60e51b815260206004820181905260248201527f4f776e61626c653a2063616c6c6572206973206e6f7420746865206f776e657260448201526064016107b6565b6001600160a01b03811660008181526001602081815260409283902080547fffffffffffffffffffffffffffffffffffffffffffffffffffffffffffffff001690921790915590519182527f73f20cff579e8a4086fa607db83867595f1b6a798e718c0bfa0b94a404128e03910160405180910390a150565b60065460609060009061ffff1667ffffffffffffffff81111561132f5761132f612157565b604051908082528060200260200182016040528015611358578160200160208202803683370190505b50905060005b60065461ffff168110156113c55760008181526005602052604090205482516001600160a01b039091169083908390811061139b5761139b61216d565b6001600160a01b0390921660209283029190910190910152806113bd81612183565b91505061135e565b50919050565b6000546001600160a01b031633146114255760405162461bcd60e51b815260206004820181905260248201527f4f776e61626c653a2063616c6c6572206973206e6f7420746865206f776e657260448201526064016107b6565b61142f6000611b2d565b565b611439611bda565b6001600160a01b038481166000908152600360209081526040808320938716835292905281902090517f87596e28000000000000000000000000000000000000000000000000000000008152600481018290526024810184905273cD902a213B827316324D0FaC2732B96174e91967906387596e28906044016101a06040518083038186803b1580156114cb57600080fd5b505af41580156114df573d6000803e3d6000fd5b505050506040513d601f19601f82011682018060405250810190611503919061225e565b95945050505050565b60008060008061154a8560408051602080820183526000918290526001600160a01b0393909316815260028352819020815192830190915254815290565b905061157081516301000000811615159163020000008216151591630400000016151590565b935093509350509193909250565b3360009081526001602052604090205460ff166115fa5760405162461bcd60e51b815260206004820152603460248201527f4f6e6c7920746865206173736f63696174656420636f6e74726163742063616e604482015273103832b93337b936903a3434b99030b1ba34b7b760611b60648201526084016107b6565b60408051602080820183526000918290526001600160a01b03841682526002815282822083519182019093529154825250611636816001611b95565b516001600160a01b0391909116600090815260026020526040902055565b3360009081526001602052604090205460ff166116d05760405162461bcd60e51b815260206004820152603460248201527f4f6e6c7920746865206173736f63696174656420636f6e74726163742063616e604482015273103832b93337b936903a3434b99030b1ba34b7b760611b60648201526084016107b6565b6006805462ff0000191662010000179055565b3360009081526001602052604090205460ff1661175f5760405162461bcd60e51b815260206004820152603460248201527f4f6e6c7920746865206173736f63696174656420636f6e74726163742063616e604482015273103832b93337b936903a3434b99030b1ba34b7b760611b60648201526084016107b6565b6001600160a01b03848116600081815260026020526040808220600a810154600b820154925163d077fbe560e01b815260048101839052602481019590955285166044850152931660648301526084820181905260a4820181905260c482015260e481018590526101048101849052610124810183905273F7D66347fe6110c12682E32d664e4F1409AdC12D9063d077fbe59061014401610cf2565b6000546001600160a01b031633146118555760405162461bcd60e51b815260206004820181905260248201527f4f776e61626c653a2063616c6c6572206973206e6f7420746865206f776e657260448201526064016107b6565b6001600160a01b0381166118d15760405162461bcd60e51b815260206004820152602660248201527f4f776e61626c653a206e6577206f776e657220697320746865207a65726f206160448201527f646472657373000000000000000000000000000000000000000000000000000060648201526084016107b6565b6118da81611b2d565b50565b3360009081526001602052604090205460ff166119595760405162461bcd60e51b815260206004820152603460248201527f4f6e6c7920746865206173736f63696174656420636f6e74726163742063616e604482015273103832b93337b936903a3434b99030b1ba34b7b760611b60648201526084016107b6565b6001600160a01b0385166000908152600260205260409020846001811115611983576119836120be565b611a1557600a810154600b82015460405163d077fbe560e01b8152600481018490526001600160a01b03808a16602483015292831660448201529116606482015260006084820181905260a4820186905260c4820181905260e48201526101048101849052610124810183905273F7D66347fe6110c12682E32d664e4F1409AdC12D9063d077fbe590610144016108fb565b600a810154600b82015460405163d077fbe560e01b8152600481018490526001600160a01b03808a16602483015292831660448201529116606482015260006084820181905260a4820181905260c4820181905260e48201526101048101849052610124810183905273F7D66347fe6110c12682E32d664e4F1409AdC12D9063d077fbe590610144016109ba565b3360009081526001602052604090205460ff16611b1f5760405162461bcd60e51b815260206004820152603460248201527f4f6e6c7920746865206173736f63696174656420636f6e74726163742063616e604482015273103832b93337b936903a3434b99030b1ba34b7b760611b60648201526084016107b6565b6006805462ff000019169055565b600080546001600160a01b038381167fffffffffffffffffffffffff0000000000000000000000000000000000000000831681178455604051919092169283917f8be0079c531659141344cd1fd0a4f28419497f9722a3daafe3b4186f6b6457e09190a35050565b601881611ba3576000611ba6565b60015b83517ffffffffffffffffffffffffffffffffffffffffffffffffffffffffffeffffff1660ff9190911690911b1790915250565b60405180610160016040528060008152602001600081526020016000815260200160008152602001611c2660405180606001604052806000815260200160008152602001600081525090565b81526020016000815260200160008152602001600081526020016000815260200160008152602001600081525090565b80356001600160a01b0381168114611c6d57600080fd5b919050565b803560028110611c6d57600080fd5b600080600080600060a08688031215611c9957600080fd5b611ca286611c56565b9450611cb060208701611c72565b94979496505050506040830135926060810135926080909101359150565b60008060408385031215611ce157600080fd5b611cea83611c56565b9150611cf860208401611c72565b90509250929050565b60008060008060008060c08789031215611d1a57600080fd5b611d2387611c56565b9550611d3160208801611c56565b95989597505050506040840135936060810135936080820135935060a0909101359150565b600060208284031215611d6857600080fd5b610aac82611c56565b815151815261022081016020830151602083015260408301516040830152606083015160608301526080830151608083015260a083015160a083015260c083015160c083015260e0830151611dd160e08401826001600160a01b03169052565b50610100838101516001600160a01b0390811691840191909152610120808501518216908401526101408085015182169084015261016080850151909116908301526101808084015164ffffffffff908116918401919091526101a080850151909116908301526101c080840151908301526101e0808401519083015261020092830151929091019190915290565b600080600080600060a08688031215611e7857600080fd5b611e8186611c56565b9450611cb060208701611c56565b81518152602080830151908201526040808301519082015260608101610aaf565b60008060008060808587031215611ec657600080fd5b611ecf85611c56565b966020860135965060408601359560600135945092505050565b600080600080600080600060e0888a031215611f0457600080fd5b611f0d88611c56565b9650611f1b60208901611c56565b9550611f2960408901611c56565b9450611f3760608901611c56565b9350611f4560808901611c56565b9250611f5360a08901611c56565b915060c0880135905092959891949750929550565b6020808252825182820181905260009190848201906040850190845b81811015611fa95783516001600160a01b031683529284019291840191600101611f84565b50909695505050505050565b60008060408385031215611fc857600080fd5b611fd183611c56565b9150611cf860208401611c56565b600080600060608486031215611ff457600080fd5b611ffd84611c56565b925061200b60208501611c56565b9150604084013590509250925092565b60006101a08201905082518252602083015160208301526040830151604083015260608301516060830152608083015161206c60808401828051825260208082015190830152604090810151910152565b5060a083015160e08381019190915260c0840151610100808501919091529084015161012080850191909152908401516101408085019190915290840151610160840152909201516101809091015290565b634e487b7160e01b600052602160045260246000fd5b82815260408101600283106120f957634e487b7160e01b600052602160045260246000fd5b8260208301529392505050565b60006020828403121561211857600080fd5b5051919050565b634e487b7160e01b600052601160045260246000fd5b600061ffff8083168181141561214d5761214d61211f565b6001019392505050565b634e487b7160e01b600052604160045260246000fd5b634e487b7160e01b600052603260045260246000fd5b60007fffffffffffffffffffffffffffffffffffffffffffffffffffffffffffffffff8214156121b5576121b561211f565b5060010190565b604051610160810167ffffffffffffffff811182821017156121ee57634e487b7160e01b600052604160045260246000fd5b60405290565b60006060828403121561220657600080fd5b6040516060810181811067ffffffffffffffff8211171561223757634e487b7160e01b600052604160045260246000fd5b80604052508091508251815260208301516020820152604083015160408201525092915050565b60006101a0828403121561227157600080fd5b6122796121bc565b825181526020830151602082015260408301516040820152606083015160608201526122a884608085016121f4565b608082015260e083015160a08201526101008084015160c08301526101208085015160e084015261014080860151838501526101608601518285015261018086015181850152505050809150509291505056fea26469706673582212202e82be8f976697c082913aa4f20f5a86b56e25e402f164eff3c8230edbd1161e64736f6c63430008090033",
  "deployedBytecode": "0x608060405234801561001057600080fd5b50600436106101c45760003560e01c8063715018a6116100f95780638a0695fd11610097578063e3b69f7f11610071578063e3b69f7f146106fd578063f2fde38b14610710578063f46a2bd414610723578063f7b188a51461073657600080fd5b80638a0695fd1461064d5780638da5cb5b14610691578063c44b11f7146106ac57600080fd5b80637cb1ca25116100d35780637cb1ca25146105b0578063817ad5d31461060057806381f78151146106325780638456cb591461064557600080fd5b8063715018a61461054757806374e175df1461054f5780637c7c983d1461059057600080fd5b806343ba22631161016657806352f445ca1161014057806352f445ca146104db5780635748ff18146104ee5780635c975abb1461052157806366d4c4131461053257600080fd5b806343ba22631461042d5780634c445bfe146104405780634d44ac4f1461049557600080fd5b806335ea6a75116101a257806335ea6a751461021757806336052e27146103e75780633de5f35f146103fa5780633e4115a41461041a57600080fd5b80630fc3a8be146101c9578063284592b2146101de5780632bb25f9814610204575b600080fd5b6101dc6101d7366004611c81565b61073e565b005b6101f16101ec366004611cce565b6109f3565b6040519081526020015b60405180910390f35b6101dc610212366004611d01565b610ab5565b6103da610225366004611d56565b604080516102408101825260006102208201818152825260208201819052918101829052606081018290526080810182905260a0810182905260c0810182905260e08101829052610100810182905261012081018290526101408101829052610160810182905261018081018290526101a081018290526101c081018290526101e08101829052610200810191909152506001600160a01b0390811660009081526002602081815260409283902083516102408101855281546102208201908152815260018201549281019290925291820154928101929092526003810154606083015260048101546080830152600581015460a0830152600681015460c08301526007810154831660e08301526008810154831661010083015260098101548316610120830152600a8101548316610140830152600b81015492831661016083015264ffffffffff74010000000000000000000000000000000000000000840481166101808401527901000000000000000000000000000000000000000000000000009093049092166101a0820152600c8201546101c0820152600d8201546101e0820152600e9091015461020082015290565b6040516101fb9190611d71565b6101dc6103f5366004611e60565b610bd9565b61040d610408366004611d56565b610d29565b6040516101fb9190611e8f565b6101dc610428366004611eb0565b610d8f565b6101dc61043b366004611ee9565b610ea7565b61045361044e366004611d56565b611067565b6040516101fb9190600060a082019050825182526020830151602083015260408301516040830152606083015160608301526080830151608083015292915050565b6104c66104a3366004611d56565b6001600160a01b0316600090815260046020526040902080546001909101549091565b604080519283526020830191909152016101fb565b6101dc6104e9366004611d56565b611237565b6105116104fc366004611d56565b60016020526000908152604090205460ff1681565b60405190151581526020016101fb565b60065462010000900460ff16610511565b61053a61130a565b6040516101fb9190611f68565b6101dc6113cb565b6104c661055d366004611fb5565b6001600160a01b039182166000908152600360209081526040808320939094168252919091522080546001909101549091565b6105a361059e366004611fdf565b611431565b6040516101fb919061201b565b6104c66105be366004611fdf565b6001600160a01b039283166000908152600360209081526040808320949095168252928352838120918152600591820190925291902060048101549101549091565b61061361060e366004611d56565b61150c565b60408051931515845291151560208401521515908201526060016101fb565b6101dc610640366004611d56565b61157e565b6101dc611654565b6104c661065b366004611fb5565b6001600160a01b038083166000908152600360208181526040808420948616845293905291902060028101549101549250929050565b6000546040516001600160a01b0390911681526020016101fb565b6106ee6106ba366004611d56565b60408051602080820183526000918290526001600160a01b0393909316815260028352819020815192830190915254815290565b604051905181526020016101fb565b6101dc61070b366004611eb0565b6116e3565b6101dc61071e366004611d56565b6117fb565b6101dc610731366004611c81565b6118dd565b6101dc611aa3565b3360009081526001602052604090205460ff166107bf5760405162461bcd60e51b815260206004820152603460248201527f4f6e6c7920746865206173736f63696174656420636f6e74726163742063616e604482015273103832b93337b936903a3434b99030b1ba34b7b760611b60648201526084015b60405180910390fd5b6001600160a01b0385166000908152600260205260409081902090517f0eca322b000000000000000000000000000000000000000000000000000000008152600481018290526024810185905273__$5201a97c05ba6aa659e2f36a933dd51801$__90630eca322b9060440160006040518083038186803b15801561084357600080fd5b505af4158015610857573d6000803e3d6000fd5b5050505084600181111561086d5761086d6120be565b61093057600a810154600b82015460405163d077fbe560e01b8152600481018490526001600160a01b03808a16602483015292831660448201529116606482015260848101859052600060a4820181905260c4820181905260e48201526101048101849052610124810183905273__$d3b4366daeb9cadc7528af6145b50b2183$__9063d077fbe590610144015b60006040518083038186803b15801561091357600080fd5b505af4158015610927573d6000803e3d6000fd5b505050506109eb565b600a810154600b82015460405163d077fbe560e01b8152600481018490526001600160a01b03808a16602483015292831660448201529116606482015260006084820181905260a4820181905260c4820186905260e48201526101048101849052610124810183905273__$d3b4366daeb9cadc7528af6145b50b2183$__9063d077fbe590610144015b60006040518083038186803b1580156109d257600080fd5b505af41580156109e6573d6000803e3d6000fd5b505050505b505050505050565b6001600160a01b03821660009081526002602052604080822090517fbb43fb8000000000000000000000000000000000000000000000000000000000815273__$d3b4366daeb9cadc7528af6145b50b2183$__9163bb43fb8091610a5c919086906004016120d4565b60206040518083038186803b158015610a7457600080fd5b505af4158015610a88573d6000803e3d6000fd5b505050506040513d601f19601f82011682018060405250810190610aac9190612106565b90505b92915050565b3360009081526001602052604090205460ff16610b315760405162461bcd60e51b815260206004820152603460248201527f4f6e6c7920746865206173736f63696174656420636f6e74726163742063616e604482015273103832b93337b936903a3434b99030b1ba34b7b760611b60648201526084016107b6565b6001600160a01b038681166000818152600360209081526040808320948a1683529381528382209282526004908190529083902092517f58f9bd6e00000000000000000000000000000000000000000000000000000000815290810191909152602481019190915260448101859052606481018490526084810183905260a4810182905273__$7ead2494ca6203ebe374a3fcf65c6ee6f2$__906358f9bd6e9060c4016109ba565b3360009081526001602052604090205460ff16610c555760405162461bcd60e51b815260206004820152603460248201527f4f6e6c7920746865206173736f63696174656420636f6e74726163742063616e604482015273103832b93337b936903a3434b99030b1ba34b7b760611b60648201526084016107b6565b6001600160a01b03858116600081815260036020908152604080832094891683529381528382209282526004908190529083902092517f027a1fa100000000000000000000000000000000000000000000000000000000815290810191909152602481019190915260448101849052606481018390526084810182905273__$7ead2494ca6203ebe374a3fcf65c6ee6f2$__9063027a1fa19060a4015b60006040518083038186803b158015610d0a57600080fd5b505af4158015610d1e573d6000803e3d6000fd5b505050505050505050565b610d4d60405180606001604052806000815260200160008152602001600081525090565b506001600160a01b0316600090815260046020908152604091829020825160608101845281548152600182015492810192909252600201549181019190915290565b3360009081526001602052604090205460ff16610e0b5760405162461bcd60e51b815260206004820152603460248201527f4f6e6c7920746865206173736f63696174656420636f6e74726163742063616e604482015273103832b93337b936903a3434b99030b1ba34b7b760611b60648201526084016107b6565b6001600160a01b03848116600081815260026020526040808220600a810154600b820154925163d077fbe560e01b815260048101839052602481019590955285166044850152931660648301526084820181905260a4820181905260c4820186905260e48201526101048101849052610124810183905273__$d3b4366daeb9cadc7528af6145b50b2183$__9063d077fbe59061014401610cf2565b3360009081526001602052604090205460ff16610f235760405162461bcd60e51b815260206004820152603460248201527f4f6e6c7920746865206173736f63696174656420636f6e74726163742063616e604482015273103832b93337b936903a3434b99030b1ba34b7b760611b60648201526084016107b6565b6001600160a01b038781166000908152600260205260409081902090517f19dfc3810000000000000000000000000000000000000000000000000000000081526004810191909152878216602482015286821660448201528582166064820152848216608482015290831660a482015260c4810182905273__$d3b4366daeb9cadc7528af6145b50b2183$__906319dfc3819060e40160006040518083038186803b158015610fd157600080fd5b505af4158015610fe5573d6000803e3d6000fd5b50506006805461ffff908116600090815260056020526040812080547fffffffffffffffffffffffff0000000000000000000000000000000000000000166001600160a01b038e161790558254909116935090915061104383612135565b91906101000a81548161ffff021916908361ffff1602179055505050505050505050565b6110996040518060a0016040528060008152602001600081526020016000815260200160008152602001600081525090565b6001600160a01b0382811660009081526002602090815260408083206004808452828520835160a081018552868152808601879052808501879052606081018790526080810196909652600a83015484517f18160ddd000000000000000000000000000000000000000000000000000000008152945193979196959116936318160ddd93818401939091829003018186803b15801561113757600080fd5b505afa15801561114b573d6000803e3d6000fd5b505050506040513d601f19601f8201168201806040525081019061116f9190612106565b8152600b830154604080517f18160ddd00000000000000000000000000000000000000000000000000000000815290516001600160a01b03909216916318160ddd91600480820192602092909190829003018186803b1580156111d157600080fd5b505afa1580156111e5573d6000803e3d6000fd5b505050506040513d601f19601f820116820180604052508101906112099190612106565b6020820152815460018301546002909301546080830152606082019290925260408101919091529392505050565b6000546001600160a01b031633146112915760405162461bcd60e51b815260206004820181905260248201527f4f776e61626c653a2063616c6c6572206973206e6f7420746865206f776e657260448201526064016107b6565b6001600160a01b03811660008181526001602081815260409283902080547fffffffffffffffffffffffffffffffffffffffffffffffffffffffffffffff001690921790915590519182527f73f20cff579e8a4086fa607db83867595f1b6a798e718c0bfa0b94a404128e03910160405180910390a150565b60065460609060009061ffff1667ffffffffffffffff81111561132f5761132f612157565b604051908082528060200260200182016040528015611358578160200160208202803683370190505b50905060005b60065461ffff168110156113c55760008181526005602052604090205482516001600160a01b039091169083908390811061139b5761139b61216d565b6001600160a01b0390921660209283029190910190910152806113bd81612183565b91505061135e565b50919050565b6000546001600160a01b031633146114255760405162461bcd60e51b815260206004820181905260248201527f4f776e61626c653a2063616c6c6572206973206e6f7420746865206f776e657260448201526064016107b6565b61142f6000611b2d565b565b611439611bda565b6001600160a01b038481166000908152600360209081526040808320938716835292905281902090517f87596e28000000000000000000000000000000000000000000000000000000008152600481018290526024810184905273__$7ead2494ca6203ebe374a3fcf65c6ee6f2$__906387596e28906044016101a06040518083038186803b1580156114cb57600080fd5b505af41580156114df573d6000803e3d6000fd5b505050506040513d601f19601f82011682018060405250810190611503919061225e565b95945050505050565b60008060008061154a8560408051602080820183526000918290526001600160a01b0393909316815260028352819020815192830190915254815290565b905061157081516301000000811615159163020000008216151591630400000016151590565b935093509350509193909250565b3360009081526001602052604090205460ff166115fa5760405162461bcd60e51b815260206004820152603460248201527f4f6e6c7920746865206173736f63696174656420636f6e74726163742063616e604482015273103832b93337b936903a3434b99030b1ba34b7b760611b60648201526084016107b6565b60408051602080820183526000918290526001600160a01b03841682526002815282822083519182019093529154825250611636816001611b95565b516001600160a01b0391909116600090815260026020526040902055565b3360009081526001602052604090205460ff166116d05760405162461bcd60e51b815260206004820152603460248201527f4f6e6c7920746865206173736f63696174656420636f6e74726163742063616e604482015273103832b93337b936903a3434b99030b1ba34b7b760611b60648201526084016107b6565b6006805462ff0000191662010000179055565b3360009081526001602052604090205460ff1661175f5760405162461bcd60e51b815260206004820152603460248201527f4f6e6c7920746865206173736f63696174656420636f6e74726163742063616e604482015273103832b93337b936903a3434b99030b1ba34b7b760611b60648201526084016107b6565b6001600160a01b03848116600081815260026020526040808220600a810154600b820154925163d077fbe560e01b815260048101839052602481019590955285166044850152931660648301526084820181905260a4820181905260c482015260e481018590526101048101849052610124810183905273__$d3b4366daeb9cadc7528af6145b50b2183$__9063d077fbe59061014401610cf2565b6000546001600160a01b031633146118555760405162461bcd60e51b815260206004820181905260248201527f4f776e61626c653a2063616c6c6572206973206e6f7420746865206f776e657260448201526064016107b6565b6001600160a01b0381166118d15760405162461bcd60e51b815260206004820152602660248201527f4f776e61626c653a206e6577206f776e657220697320746865207a65726f206160448201527f646472657373000000000000000000000000000000000000000000000000000060648201526084016107b6565b6118da81611b2d565b50565b3360009081526001602052604090205460ff166119595760405162461bcd60e51b815260206004820152603460248201527f4f6e6c7920746865206173736f63696174656420636f6e74726163742063616e604482015273103832b93337b936903a3434b99030b1ba34b7b760611b60648201526084016107b6565b6001600160a01b0385166000908152600260205260409020846001811115611983576119836120be565b611a1557600a810154600b82015460405163d077fbe560e01b8152600481018490526001600160a01b03808a16602483015292831660448201529116606482015260006084820181905260a4820186905260c4820181905260e48201526101048101849052610124810183905273__$d3b4366daeb9cadc7528af6145b50b2183$__9063d077fbe590610144016108fb565b600a810154600b82015460405163d077fbe560e01b8152600481018490526001600160a01b03808a16602483015292831660448201529116606482015260006084820181905260a4820181905260c4820181905260e48201526101048101849052610124810183905273__$d3b4366daeb9cadc7528af6145b50b2183$__9063d077fbe590610144016109ba565b3360009081526001602052604090205460ff16611b1f5760405162461bcd60e51b815260206004820152603460248201527f4f6e6c7920746865206173736f63696174656420636f6e74726163742063616e604482015273103832b93337b936903a3434b99030b1ba34b7b760611b60648201526084016107b6565b6006805462ff000019169055565b600080546001600160a01b038381167fffffffffffffffffffffffff0000000000000000000000000000000000000000831681178455604051919092169283917f8be0079c531659141344cd1fd0a4f28419497f9722a3daafe3b4186f6b6457e09190a35050565b601881611ba3576000611ba6565b60015b83517ffffffffffffffffffffffffffffffffffffffffffffffffffffffffffeffffff1660ff9190911690911b1790915250565b60405180610160016040528060008152602001600081526020016000815260200160008152602001611c2660405180606001604052806000815260200160008152602001600081525090565b81526020016000815260200160008152602001600081526020016000815260200160008152602001600081525090565b80356001600160a01b0381168114611c6d57600080fd5b919050565b803560028110611c6d57600080fd5b600080600080600060a08688031215611c9957600080fd5b611ca286611c56565b9450611cb060208701611c72565b94979496505050506040830135926060810135926080909101359150565b60008060408385031215611ce157600080fd5b611cea83611c56565b9150611cf860208401611c72565b90509250929050565b60008060008060008060c08789031215611d1a57600080fd5b611d2387611c56565b9550611d3160208801611c56565b95989597505050506040840135936060810135936080820135935060a0909101359150565b600060208284031215611d6857600080fd5b610aac82611c56565b815151815261022081016020830151602083015260408301516040830152606083015160608301526080830151608083015260a083015160a083015260c083015160c083015260e0830151611dd160e08401826001600160a01b03169052565b50610100838101516001600160a01b0390811691840191909152610120808501518216908401526101408085015182169084015261016080850151909116908301526101808084015164ffffffffff908116918401919091526101a080850151909116908301526101c080840151908301526101e0808401519083015261020092830151929091019190915290565b600080600080600060a08688031215611e7857600080fd5b611e8186611c56565b9450611cb060208701611c56565b81518152602080830151908201526040808301519082015260608101610aaf565b60008060008060808587031215611ec657600080fd5b611ecf85611c56565b966020860135965060408601359560600135945092505050565b600080600080600080600060e0888a031215611f0457600080fd5b611f0d88611c56565b9650611f1b60208901611c56565b9550611f2960408901611c56565b9450611f3760608901611c56565b9350611f4560808901611c56565b9250611f5360a08901611c56565b915060c0880135905092959891949750929550565b6020808252825182820181905260009190848201906040850190845b81811015611fa95783516001600160a01b031683529284019291840191600101611f84565b50909695505050505050565b60008060408385031215611fc857600080fd5b611fd183611c56565b9150611cf860208401611c56565b600080600060608486031215611ff457600080fd5b611ffd84611c56565b925061200b60208501611c56565b9150604084013590509250925092565b60006101a08201905082518252602083015160208301526040830151604083015260608301516060830152608083015161206c60808401828051825260208082015190830152604090810151910152565b5060a083015160e08381019190915260c0840151610100808501919091529084015161012080850191909152908401516101408085019190915290840151610160840152909201516101809091015290565b634e487b7160e01b600052602160045260246000fd5b82815260408101600283106120f957634e487b7160e01b600052602160045260246000fd5b8260208301529392505050565b60006020828403121561211857600080fd5b5051919050565b634e487b7160e01b600052601160045260246000fd5b600061ffff8083168181141561214d5761214d61211f565b6001019392505050565b634e487b7160e01b600052604160045260246000fd5b634e487b7160e01b600052603260045260246000fd5b60007fffffffffffffffffffffffffffffffffffffffffffffffffffffffffffffffff8214156121b5576121b561211f565b5060010190565b604051610160810167ffffffffffffffff811182821017156121ee57634e487b7160e01b600052604160045260246000fd5b60405290565b60006060828403121561220657600080fd5b6040516060810181811067ffffffffffffffff8211171561223757634e487b7160e01b600052604160045260246000fd5b80604052508091508251815260208301516020820152604083015160408201525092915050565b60006101a0828403121561227157600080fd5b6122796121bc565b825181526020830151602082015260408301516040820152606083015160608201526122a884608085016121f4565b608082015260e083015160a08201526101008084015160c08301526101208085015160e084015261014080860151838501526101608601518285015261018086015181850152505050809150509291505056fea26469706673582212202e82be8f976697c082913aa4f20f5a86b56e25e402f164eff3c8230edbd1161e64736f6c63430008090033",
  "libraries": {
    "ReserveLogic": "0xF7D66347fe6110c12682E32d664e4F1409AdC12D",
    "DebtLogic": "0xcD902a213B827316324D0FaC2732B96174e91967",
    "ValidationLogic": "0xdB140b54aFD058bC9f599c3Bcf05EcA28f09738c"
  },
  "devdoc": {
    "kind": "dev",
    "methods": {
      "owner()": {
        "details": "Returns the address of the current owner."
      },
      "renounceOwnership()": {
        "details": "Leaves the contract without owner. It will not be possible to call `onlyOwner` functions anymore. Can only be called by the current owner. NOTE: Renouncing ownership will leave the contract without an owner, thereby removing any functionality that is only available to the owner."
      },
      "transferOwnership(address)": {
        "details": "Transfers ownership of the contract to a new account (`newOwner`). Can only be called by the current owner."
      }
    },
    "version": 1
  },
  "userdoc": {
    "kind": "user",
    "methods": {},
    "version": 1
  },
  "storageLayout": {
    "storage": [
      {
        "astId": 389,
        "contract": "contracts/component/shared/storage/LiquidityManagerStorage.sol:LiquidityManagerStorage",
        "label": "_owner",
        "offset": 0,
        "slot": "0",
        "type": "t_address"
      },
      {
        "astId": 16626,
        "contract": "contracts/component/shared/storage/LiquidityManagerStorage.sol:LiquidityManagerStorage",
        "label": "associatedContracts",
        "offset": 0,
        "slot": "1",
        "type": "t_mapping(t_address,t_bool)"
      },
      {
        "astId": 7521,
        "contract": "contracts/component/shared/storage/LiquidityManagerStorage.sol:LiquidityManagerStorage",
        "label": "_reserves",
        "offset": 0,
        "slot": "2",
        "type": "t_mapping(t_address,t_struct(ReserveData)16729_storage)"
      },
      {
        "astId": 7528,
        "contract": "contracts/component/shared/storage/LiquidityManagerStorage.sol:LiquidityManagerStorage",
        "label": "_borrowData",
        "offset": 0,
        "slot": "3",
        "type": "t_mapping(t_address,t_mapping(t_address,t_struct(BorrowData)16760_storage))"
      },
      {
        "astId": 7533,
        "contract": "contracts/component/shared/storage/LiquidityManagerStorage.sol:LiquidityManagerStorage",
        "label": "_borrowStat",
        "offset": 0,
        "slot": "4",
        "type": "t_mapping(t_address,t_struct(BorrowStat)16767_storage)"
      },
      {
        "astId": 7537,
        "contract": "contracts/component/shared/storage/LiquidityManagerStorage.sol:LiquidityManagerStorage",
        "label": "_reserveList",
        "offset": 0,
        "slot": "5",
        "type": "t_mapping(t_uint256,t_address)"
      },
      {
        "astId": 7539,
        "contract": "contracts/component/shared/storage/LiquidityManagerStorage.sol:LiquidityManagerStorage",
        "label": "_reservesCount",
        "offset": 0,
        "slot": "6",
        "type": "t_uint16"
      },
      {
        "astId": 7541,
        "contract": "contracts/component/shared/storage/LiquidityManagerStorage.sol:LiquidityManagerStorage",
        "label": "_paused",
        "offset": 2,
        "slot": "6",
        "type": "t_bool"
      }
    ],
    "types": {
      "t_address": {
        "encoding": "inplace",
        "label": "address",
        "numberOfBytes": "20"
      },
      "t_array(t_struct(RepaymentData)16835_storage)dyn_storage": {
        "base": "t_struct(RepaymentData)16835_storage",
        "encoding": "dynamic_array",
        "label": "struct DataTypes.RepaymentData[]",
        "numberOfBytes": "32"
      },
      "t_bool": {
        "encoding": "inplace",
        "label": "bool",
        "numberOfBytes": "1"
      },
      "t_mapping(t_address,t_bool)": {
        "encoding": "mapping",
        "key": "t_address",
        "label": "mapping(address => bool)",
        "numberOfBytes": "32",
        "value": "t_bool"
      },
      "t_mapping(t_address,t_mapping(t_address,t_struct(BorrowData)16760_storage))": {
        "encoding": "mapping",
        "key": "t_address",
        "label": "mapping(address => mapping(address => struct DataTypes.BorrowData))",
        "numberOfBytes": "32",
        "value": "t_mapping(t_address,t_struct(BorrowData)16760_storage)"
      },
      "t_mapping(t_address,t_struct(BorrowData)16760_storage)": {
        "encoding": "mapping",
        "key": "t_address",
        "label": "mapping(address => struct DataTypes.BorrowData)",
        "numberOfBytes": "32",
        "value": "t_struct(BorrowData)16760_storage"
      },
      "t_mapping(t_address,t_struct(BorrowStat)16767_storage)": {
        "encoding": "mapping",
        "key": "t_address",
        "label": "mapping(address => struct DataTypes.BorrowStat)",
        "numberOfBytes": "32",
        "value": "t_struct(BorrowStat)16767_storage"
      },
      "t_mapping(t_address,t_struct(ReserveData)16729_storage)": {
        "encoding": "mapping",
        "key": "t_address",
        "label": "mapping(address => struct DataTypes.ReserveData)",
        "numberOfBytes": "32",
        "value": "t_struct(ReserveData)16729_storage"
      },
      "t_mapping(t_uint256,t_address)": {
        "encoding": "mapping",
        "key": "t_uint256",
        "label": "mapping(uint256 => address)",
        "numberOfBytes": "32",
        "value": "t_address"
      },
      "t_mapping(t_uint256,t_struct(DrawDown)16802_storage)": {
        "encoding": "mapping",
        "key": "t_uint256",
        "label": "mapping(uint256 => struct DataTypes.DrawDown)",
        "numberOfBytes": "32",
        "value": "t_struct(DrawDown)16802_storage"
      },
      "t_struct(BorrowData)16760_storage": {
        "encoding": "inplace",
        "label": "struct DataTypes.BorrowData",
        "members": [
          {
            "astId": 16746,
            "contract": "contracts/component/shared/storage/LiquidityManagerStorage.sol:LiquidityManagerStorage",
            "label": "paidDrawDownNumber",
            "offset": 0,
            "slot": "0",
            "type": "t_uint256"
          },
          {
            "astId": 16748,
            "contract": "contracts/component/shared/storage/LiquidityManagerStorage.sol:LiquidityManagerStorage",
            "label": "nextDrawDownNumber",
            "offset": 0,
            "slot": "1",
            "type": "t_uint256"
          },
          {
            "astId": 16750,
            "contract": "contracts/component/shared/storage/LiquidityManagerStorage.sol:LiquidityManagerStorage",
            "label": "totalPrincipal",
            "offset": 0,
            "slot": "2",
            "type": "t_uint256"
          },
          {
            "astId": 16752,
            "contract": "contracts/component/shared/storage/LiquidityManagerStorage.sol:LiquidityManagerStorage",
            "label": "totalInterest",
            "offset": 0,
            "slot": "3",
            "type": "t_uint256"
          },
          {
            "astId": 16754,
            "contract": "contracts/component/shared/storage/LiquidityManagerStorage.sol:LiquidityManagerStorage",
            "label": "mapSize",
            "offset": 0,
            "slot": "4",
            "type": "t_uint256"
          },
          {
            "astId": 16759,
            "contract": "contracts/component/shared/storage/LiquidityManagerStorage.sol:LiquidityManagerStorage",
            "label": "drawDowns",
            "offset": 0,
            "slot": "5",
            "type": "t_mapping(t_uint256,t_struct(DrawDown)16802_storage)"
          }
        ],
        "numberOfBytes": "192"
      },
      "t_struct(BorrowStat)16767_storage": {
        "encoding": "inplace",
        "label": "struct DataTypes.BorrowStat",
        "members": [
          {
            "astId": 16762,
            "contract": "contracts/component/shared/storage/LiquidityManagerStorage.sol:LiquidityManagerStorage",
            "label": "totalDebt",
            "offset": 0,
            "slot": "0",
            "type": "t_uint256"
          },
          {
            "astId": 16764,
            "contract": "contracts/component/shared/storage/LiquidityManagerStorage.sol:LiquidityManagerStorage",
            "label": "totalInterest",
            "offset": 0,
            "slot": "1",
            "type": "t_uint256"
          },
          {
            "astId": 16766,
            "contract": "contracts/component/shared/storage/LiquidityManagerStorage.sol:LiquidityManagerStorage",
            "label": "avgBorrowRate",
            "offset": 0,
            "slot": "2",
            "type": "t_uint256"
          }
        ],
        "numberOfBytes": "96"
      },
      "t_struct(DrawDown)16802_storage": {
        "encoding": "inplace",
        "label": "struct DataTypes.DrawDown",
        "members": [
          {
            "astId": 16776,
            "contract": "contracts/component/shared/storage/LiquidityManagerStorage.sol:LiquidityManagerStorage",
            "label": "principal",
            "offset": 0,
            "slot": "0",
            "type": "t_uint256"
          },
          {
            "astId": 16778,
            "contract": "contracts/component/shared/storage/LiquidityManagerStorage.sol:LiquidityManagerStorage",
            "label": "term",
            "offset": 0,
            "slot": "1",
            "type": "t_uint256"
          },
          {
            "astId": 16780,
            "contract": "contracts/component/shared/storage/LiquidityManagerStorage.sol:LiquidityManagerStorage",
            "label": "epoch",
            "offset": 0,
            "slot": "2",
            "type": "t_uint256"
          },
          {
            "astId": 16782,
            "contract": "contracts/component/shared/storage/LiquidityManagerStorage.sol:LiquidityManagerStorage",
            "label": "nper",
            "offset": 0,
            "slot": "3",
            "type": "t_uint256"
          },
          {
            "astId": 16785,
            "contract": "contracts/component/shared/storage/LiquidityManagerStorage.sol:LiquidityManagerStorage",
            "label": "pmt",
            "offset": 0,
            "slot": "4",
            "type": "t_struct(PMT)16774_storage"
          },
          {
            "astId": 16787,
            "contract": "contracts/component/shared/storage/LiquidityManagerStorage.sol:LiquidityManagerStorage",
            "label": "apr",
            "offset": 0,
            "slot": "7",
            "type": "t_uint256"
          },
          {
            "astId": 16789,
            "contract": "contracts/component/shared/storage/LiquidityManagerStorage.sol:LiquidityManagerStorage",
            "label": "borrowAt",
            "offset": 0,
            "slot": "8",
            "type": "t_uint256"
          },
          {
            "astId": 16791,
            "contract": "contracts/component/shared/storage/LiquidityManagerStorage.sol:LiquidityManagerStorage",
            "label": "nextPaymentDue",
            "offset": 0,
            "slot": "9",
            "type": "t_uint256"
          },
          {
            "astId": 16793,
            "contract": "contracts/component/shared/storage/LiquidityManagerStorage.sol:LiquidityManagerStorage",
            "label": "totalPrincipalPaid",
            "offset": 0,
            "slot": "10",
            "type": "t_uint256"
          },
          {
            "astId": 16795,
            "contract": "contracts/component/shared/storage/LiquidityManagerStorage.sol:LiquidityManagerStorage",
            "label": "totalInterestPaid",
            "offset": 0,
            "slot": "11",
            "type": "t_uint256"
          },
          {
            "astId": 16799,
            "contract": "contracts/component/shared/storage/LiquidityManagerStorage.sol:LiquidityManagerStorage",
            "label": "repayments",
            "offset": 0,
            "slot": "12",
            "type": "t_array(t_struct(RepaymentData)16835_storage)dyn_storage"
          },
          {
            "astId": 16801,
            "contract": "contracts/component/shared/storage/LiquidityManagerStorage.sol:LiquidityManagerStorage",
            "label": "paidTimes",
            "offset": 0,
            "slot": "13",
            "type": "t_uint256"
          }
        ],
        "numberOfBytes": "448"
      },
      "t_struct(PMT)16774_storage": {
        "encoding": "inplace",
        "label": "struct DataTypes.PMT",
        "members": [
          {
            "astId": 16769,
            "contract": "contracts/component/shared/storage/LiquidityManagerStorage.sol:LiquidityManagerStorage",
            "label": "principal",
            "offset": 0,
            "slot": "0",
            "type": "t_uint256"
          },
          {
            "astId": 16771,
            "contract": "contracts/component/shared/storage/LiquidityManagerStorage.sol:LiquidityManagerStorage",
            "label": "interest",
            "offset": 0,
            "slot": "1",
            "type": "t_uint256"
          },
          {
            "astId": 16773,
            "contract": "contracts/component/shared/storage/LiquidityManagerStorage.sol:LiquidityManagerStorage",
            "label": "pmt",
            "offset": 0,
            "slot": "2",
            "type": "t_uint256"
          }
        ],
        "numberOfBytes": "96"
      },
      "t_struct(RepaymentData)16835_storage": {
        "encoding": "inplace",
        "label": "struct DataTypes.RepaymentData",
        "members": [
          {
            "astId": 16828,
            "contract": "contracts/component/shared/storage/LiquidityManagerStorage.sol:LiquidityManagerStorage",
            "label": "principal",
            "offset": 0,
            "slot": "0",
            "type": "t_uint256"
          },
          {
            "astId": 16830,
            "contract": "contracts/component/shared/storage/LiquidityManagerStorage.sol:LiquidityManagerStorage",
            "label": "interest",
            "offset": 0,
            "slot": "1",
            "type": "t_uint256"
          },
          {
            "astId": 16832,
            "contract": "contracts/component/shared/storage/LiquidityManagerStorage.sol:LiquidityManagerStorage",
            "label": "total",
            "offset": 0,
            "slot": "2",
            "type": "t_uint256"
          },
          {
            "astId": 16834,
            "contract": "contracts/component/shared/storage/LiquidityManagerStorage.sol:LiquidityManagerStorage",
            "label": "paidAt",
            "offset": 0,
            "slot": "3",
            "type": "t_uint40"
          }
        ],
        "numberOfBytes": "128"
      },
      "t_struct(ReserveConfigurationMap)16732_storage": {
        "encoding": "inplace",
        "label": "struct DataTypes.ReserveConfigurationMap",
        "members": [
          {
            "astId": 16731,
            "contract": "contracts/component/shared/storage/LiquidityManagerStorage.sol:LiquidityManagerStorage",
            "label": "data",
            "offset": 0,
            "slot": "0",
            "type": "t_uint256"
          }
        ],
        "numberOfBytes": "32"
      },
      "t_struct(ReserveData)16729_storage": {
        "encoding": "inplace",
        "label": "struct DataTypes.ReserveData",
        "members": [
          {
            "astId": 16696,
            "contract": "contracts/component/shared/storage/LiquidityManagerStorage.sol:LiquidityManagerStorage",
            "label": "configuration",
            "offset": 0,
            "slot": "0",
            "type": "t_struct(ReserveConfigurationMap)16732_storage"
          },
          {
            "astId": 16698,
            "contract": "contracts/component/shared/storage/LiquidityManagerStorage.sol:LiquidityManagerStorage",
            "label": "currentOverallLiquidityRate",
            "offset": 0,
            "slot": "1",
            "type": "t_uint256"
          },
          {
            "astId": 16700,
            "contract": "contracts/component/shared/storage/LiquidityManagerStorage.sol:LiquidityManagerStorage",
            "label": "currentJuniorLiquidityRate",
            "offset": 0,
            "slot": "2",
            "type": "t_uint256"
          },
          {
            "astId": 16702,
            "contract": "contracts/component/shared/storage/LiquidityManagerStorage.sol:LiquidityManagerStorage",
            "label": "currentSeniorLiquidityRate",
            "offset": 0,
            "slot": "3",
            "type": "t_uint256"
          },
          {
            "astId": 16704,
            "contract": "contracts/component/shared/storage/LiquidityManagerStorage.sol:LiquidityManagerStorage",
            "label": "currentBorrowRate",
            "offset": 0,
            "slot": "4",
            "type": "t_uint256"
          },
          {
            "astId": 16706,
            "contract": "contracts/component/shared/storage/LiquidityManagerStorage.sol:LiquidityManagerStorage",
            "label": "securityRequirement",
            "offset": 0,
            "slot": "5",
            "type": "t_uint256"
          },
          {
            "astId": 16708,
            "contract": "contracts/component/shared/storage/LiquidityManagerStorage.sol:LiquidityManagerStorage",
            "label": "decimals",
            "offset": 0,
            "slot": "6",
            "type": "t_uint256"
          },
          {
            "astId": 16710,
            "contract": "contracts/component/shared/storage/LiquidityManagerStorage.sol:LiquidityManagerStorage",
            "label": "interestRateStrategyAddress",
            "offset": 0,
            "slot": "7",
            "type": "t_address"
          },
          {
            "astId": 16712,
            "contract": "contracts/component/shared/storage/LiquidityManagerStorage.sol:LiquidityManagerStorage",
            "label": "healthStrategyAddress",
            "offset": 0,
            "slot": "8",
            "type": "t_address"
          },
          {
            "astId": 16714,
            "contract": "contracts/component/shared/storage/LiquidityManagerStorage.sol:LiquidityManagerStorage",
            "label": "loanStrategyAddress",
            "offset": 0,
            "slot": "9",
            "type": "t_address"
          },
          {
            "astId": 16716,
            "contract": "contracts/component/shared/storage/LiquidityManagerStorage.sol:LiquidityManagerStorage",
            "label": "juniorDepositTokenAddress",
            "offset": 0,
            "slot": "10",
            "type": "t_address"
          },
          {
            "astId": 16718,
            "contract": "contracts/component/shared/storage/LiquidityManagerStorage.sol:LiquidityManagerStorage",
            "label": "seniorDepositTokenAddress",
            "offset": 0,
            "slot": "11",
            "type": "t_address"
          },
          {
            "astId": 16720,
            "contract": "contracts/component/shared/storage/LiquidityManagerStorage.sol:LiquidityManagerStorage",
            "label": "juniorLastUpdateTimestamp",
            "offset": 20,
            "slot": "11",
            "type": "t_uint40"
          },
          {
            "astId": 16722,
            "contract": "contracts/component/shared/storage/LiquidityManagerStorage.sol:LiquidityManagerStorage",
            "label": "seniorLastUpdateTimestamp",
            "offset": 25,
            "slot": "11",
            "type": "t_uint40"
          },
          {
            "astId": 16724,
            "contract": "contracts/component/shared/storage/LiquidityManagerStorage.sol:LiquidityManagerStorage",
            "label": "optimalTrancheRatio",
            "offset": 0,
            "slot": "12",
            "type": "t_uint256"
          },
          {
            "astId": 16726,
            "contract": "contracts/component/shared/storage/LiquidityManagerStorage.sol:LiquidityManagerStorage",
            "label": "currentIncomeRatio",
            "offset": 0,
            "slot": "13",
            "type": "t_uint256"
          },
          {
            "astId": 16728,
            "contract": "contracts/component/shared/storage/LiquidityManagerStorage.sol:LiquidityManagerStorage",
            "label": "optimalIncomeRatio",
            "offset": 0,
            "slot": "14",
            "type": "t_uint256"
          }
        ],
        "numberOfBytes": "480"
      },
      "t_uint16": {
        "encoding": "inplace",
        "label": "uint16",
        "numberOfBytes": "2"
      },
      "t_uint256": {
        "encoding": "inplace",
        "label": "uint256",
        "numberOfBytes": "32"
      },
      "t_uint40": {
        "encoding": "inplace",
        "label": "uint40",
        "numberOfBytes": "5"
      }
    }
  }
}