{
  "address": "0xaF7dCD6c4B3D5D8a5Cb0d7b2DE39b441059a3BD5",
  "abi": [
    {
      "inputs": [
        {
          "internalType": "address",
          "name": "_liquidityManager",
          "type": "address"
        }
      ],
      "stateMutability": "nonpayable",
      "type": "constructor"
    },
    {
      "anonymous": false,
      "inputs": [
        {
          "indexed": false,
          "internalType": "address",
          "name": "associatedContract",
          "type": "address"
        }
      ],
      "name": "AssociatedContractUpdated",
      "type": "event"
    },
    {
      "anonymous": false,
      "inputs": [
        {
          "indexed": true,
          "internalType": "address",
          "name": "previousOwner",
          "type": "address"
        },
        {
          "indexed": true,
          "internalType": "address",
          "name": "newOwner",
          "type": "address"
        }
      ],
      "name": "OwnershipTransferred",
      "type": "event"
    },
    {
      "inputs": [
        {
          "internalType": "address",
          "name": "_asset",
          "type": "address"
        }
      ],
      "name": "activeReserve",
      "outputs": [],
      "stateMutability": "nonpayable",
      "type": "function"
    },
    {
      "inputs": [
        {
          "internalType": "address",
          "name": "",
          "type": "address"
        }
      ],
      "name": "associatedContracts",
      "outputs": [
        {
          "internalType": "bool",
          "name": "",
          "type": "bool"
        }
      ],
      "stateMutability": "view",
      "type": "function"
    },
    {
      "inputs": [],
      "name": "claimOwnership",
      "outputs": [],
      "stateMutability": "nonpayable",
      "type": "function"
    },
    {
      "inputs": [
        {
          "internalType": "address",
          "name": "_asset",
          "type": "address"
        }
      ],
      "name": "getConfiguration",
      "outputs": [
        {
          "components": [
            {
              "internalType": "uint256",
              "name": "data",
              "type": "uint256"
            }
          ],
          "internalType": "struct DataTypes.ReserveConfigurationMap",
          "name": "",
          "type": "tuple"
        }
      ],
      "stateMutability": "view",
      "type": "function"
    },
    {
      "inputs": [
        {
          "internalType": "address",
          "name": "_asset",
          "type": "address"
        }
      ],
      "name": "getFlags",
      "outputs": [
        {
          "internalType": "bool",
          "name": "",
          "type": "bool"
        },
        {
          "internalType": "bool",
          "name": "",
          "type": "bool"
        },
        {
          "internalType": "bool",
          "name": "",
          "type": "bool"
        }
      ],
      "stateMutability": "view",
      "type": "function"
    },
    {
      "inputs": [
        {
          "internalType": "address",
          "name": "_asset",
          "type": "address"
        }
      ],
      "name": "getJuniorLiquidityIndex",
      "outputs": [
        {
          "internalType": "uint256",
          "name": "",
          "type": "uint256"
        }
      ],
      "stateMutability": "view",
      "type": "function"
    },
    {
      "inputs": [
        {
          "internalType": "address",
          "name": "_asset",
          "type": "address"
        },
        {
          "internalType": "enum ReserveLogic.Tranche",
          "name": "_tranche",
          "type": "uint8"
        }
      ],
      "name": "getLiquidityRate",
      "outputs": [
        {
          "internalType": "uint256",
          "name": "",
          "type": "uint256"
        }
      ],
      "stateMutability": "view",
      "type": "function"
    },
    {
      "inputs": [
        {
          "internalType": "address",
          "name": "_asset",
          "type": "address"
        }
      ],
      "name": "getReserveData",
      "outputs": [
        {
          "components": [
            {
              "components": [
                {
                  "internalType": "uint256",
                  "name": "data",
                  "type": "uint256"
                }
              ],
              "internalType": "struct DataTypes.ReserveConfigurationMap",
              "name": "configuration",
              "type": "tuple"
            },
            {
              "internalType": "uint256",
              "name": "currentOverallLiquidityRate",
              "type": "uint256"
            },
            {
              "internalType": "uint256",
              "name": "currentSeniorIncomeAllocation",
              "type": "uint256"
            },
            {
              "internalType": "uint256",
              "name": "currentJuniorIncomeAllocation",
              "type": "uint256"
            },
            {
              "internalType": "uint256",
              "name": "juniorLiquidityIndex",
              "type": "uint256"
            },
            {
              "internalType": "uint256",
              "name": "seniorLiquidityIndex",
              "type": "uint256"
            },
            {
              "internalType": "uint256",
              "name": "totalBorrows",
              "type": "uint256"
            },
            {
              "internalType": "uint256",
              "name": "currentBorrowRate",
              "type": "uint256"
            },
            {
              "internalType": "uint256",
              "name": "securityRequirement",
              "type": "uint256"
            },
            {
              "internalType": "uint256",
              "name": "decimals",
              "type": "uint256"
            },
            {
              "internalType": "address",
              "name": "interestRateStrategyAddress",
              "type": "address"
            },
            {
              "internalType": "address",
              "name": "juniorDepositTokenAddress",
              "type": "address"
            },
            {
              "internalType": "address",
              "name": "seniorDepositTokenAddress",
              "type": "address"
            },
            {
              "internalType": "address",
              "name": "stableDebtAddress",
              "type": "address"
            },
            {
              "internalType": "uint40",
              "name": "juniorLastUpdateTimestamp",
              "type": "uint40"
            },
            {
              "internalType": "uint40",
              "name": "seniorLastUpdateTimestamp",
              "type": "uint40"
            }
          ],
          "internalType": "struct DataTypes.ReserveData",
          "name": "",
          "type": "tuple"
        }
      ],
      "stateMutability": "view",
      "type": "function"
    },
    {
      "inputs": [
        {
          "internalType": "address",
          "name": "_asset",
          "type": "address"
        },
        {
          "internalType": "enum ReserveLogic.Tranche",
          "name": "_tranche",
          "type": "uint8"
        }
      ],
      "name": "getReserveNormalizedIncome",
      "outputs": [
        {
          "internalType": "uint256",
          "name": "",
          "type": "uint256"
        }
      ],
      "stateMutability": "view",
      "type": "function"
    },
    {
      "inputs": [
        {
          "internalType": "address",
          "name": "_asset",
          "type": "address"
        }
      ],
      "name": "getSeniorLiquidityIndex",
      "outputs": [
        {
          "internalType": "uint256",
          "name": "",
          "type": "uint256"
        }
      ],
      "stateMutability": "view",
      "type": "function"
    },
    {
      "inputs": [
        {
          "internalType": "address",
          "name": "_asset",
          "type": "address"
        },
        {
          "internalType": "address",
          "name": "_juniorDepositTokenAddress",
          "type": "address"
        },
        {
          "internalType": "address",
          "name": "_seniorDepositTokenAddress",
          "type": "address"
        },
        {
          "internalType": "uint256",
          "name": "_juniorIncomeAllocation",
          "type": "uint256"
        },
        {
          "internalType": "uint256",
          "name": "_seniorIncomeAllocation",
          "type": "uint256"
        },
        {
          "internalType": "address",
          "name": "_stableDebtAddress",
          "type": "address"
        },
        {
          "internalType": "address",
          "name": "_interestRateStrategyAddress",
          "type": "address"
        }
      ],
      "name": "initReserve",
      "outputs": [],
      "stateMutability": "nonpayable",
      "type": "function"
    },
    {
      "inputs": [],
      "name": "isOwner",
      "outputs": [
        {
          "internalType": "bool",
          "name": "",
          "type": "bool"
        }
      ],
      "stateMutability": "view",
      "type": "function"
    },
    {
      "inputs": [],
      "name": "owner",
      "outputs": [
        {
          "internalType": "address",
          "name": "",
          "type": "address"
        }
      ],
      "stateMutability": "view",
      "type": "function"
    },
    {
      "inputs": [],
      "name": "paused",
      "outputs": [
        {
          "internalType": "bool",
          "name": "",
          "type": "bool"
        }
      ],
      "stateMutability": "view",
      "type": "function"
    },
    {
      "inputs": [],
      "name": "pendingOwner",
      "outputs": [
        {
          "internalType": "address",
          "name": "",
          "type": "address"
        }
      ],
      "stateMutability": "view",
      "type": "function"
    },
    {
      "inputs": [
        {
          "internalType": "address",
          "name": "_associatedContract",
          "type": "address"
        }
      ],
      "name": "setAssociatedContract",
      "outputs": [],
      "stateMutability": "nonpayable",
      "type": "function"
    },
    {
      "inputs": [
        {
          "internalType": "address",
          "name": "newOwner",
          "type": "address"
        }
      ],
      "name": "transferOwnership",
      "outputs": [],
      "stateMutability": "nonpayable",
      "type": "function"
    },
    {
      "inputs": [
        {
          "internalType": "address",
          "name": "_asset",
          "type": "address"
        },
        {
          "internalType": "enum ReserveLogic.Tranche",
          "name": "_tranche",
          "type": "uint8"
        },
        {
          "internalType": "uint256",
          "name": "_amount",
          "type": "uint256"
        }
      ],
      "name": "updateStateOnDeposit",
      "outputs": [],
      "stateMutability": "nonpayable",
      "type": "function"
    }
  ],
  "transactionHash": "0x526f02788d8e3278b9b306ccb0828278030bf770f83951c31c86f9d71d0d7311",
  "args": [
    "0x93dCdb4A26C3bE8DF7CCC47cae6052b73e7105D3"
  ],
  "numDeployments": 1,
  "solcInputHash": "2196d022291140b1b6ee21061c33a3c8",
  "bytecode": "0x60806040523480156200001157600080fd5b506040516200241938038062002419833981810160405281019062000037919062000289565b80336000806101000a81548173ffffffffffffffffffffffffffffffffffffffff021916908373ffffffffffffffffffffffffffffffffffffffff16021790555060008054906101000a900473ffffffffffffffffffffffffffffffffffffffff1673ffffffffffffffffffffffffffffffffffffffff16600073ffffffffffffffffffffffffffffffffffffffff167f8be0079c531659141344cd1fd0a4f28419497f9722a3daafe3b4186f6b6457e060405160405180910390a3600073ffffffffffffffffffffffffffffffffffffffff1660008054906101000a900473ffffffffffffffffffffffffffffffffffffffff1673ffffffffffffffffffffffffffffffffffffffff16141562000186576040517f08c379a00000000000000000000000000000000000000000000000000000000081526004016200017d906200031c565b60405180910390fd5b6001600260008373ffffffffffffffffffffffffffffffffffffffff1673ffffffffffffffffffffffffffffffffffffffff16815260200190815260200160002060006101000a81548160ff0219169083151502179055507f73f20cff579e8a4086fa607db83867595f1b6a798e718c0bfa0b94a404128e03816040516200020f91906200034f565b60405180910390a150506200036c565b600080fd5b600073ffffffffffffffffffffffffffffffffffffffff82169050919050565b6000620002518262000224565b9050919050565b620002638162000244565b81146200026f57600080fd5b50565b600081519050620002838162000258565b92915050565b600060208284031215620002a257620002a16200021f565b5b6000620002b28482850162000272565b91505092915050565b600082825260208201905092915050565b7f4f776e6572206d75737420626520736574000000000000000000000000000000600082015250565b600062000304601183620002bb565b91506200031182620002cc565b602082019050919050565b600060208201905081810360008301526200033781620002f5565b9050919050565b620003498162000244565b82525050565b60006020820190506200036660008301846200033e565b92915050565b61209d806200037c6000396000f3fe608060405234801561001057600080fd5b50600436106101165760003560e01c8063817ad5d3116100a25780639cc67a0f116100715780639cc67a0f146102f5578063c44b11f714610325578063c8caf68014610355578063e30c397814610371578063f2fde38b1461038f57610116565b8063817ad5d31461026b57806381f781511461029d5780638da5cb5b146102b95780638f32d59b146102d757610116565b80634e71e0c8116100e95780634e71e0c8146101c757806352f445ca146101d15780635748ff18146101ed5780635c975abb1461021d578063776f68911461023b57610116565b806303d6fa951461011b5780631f1fc35f1461014b578063284592b21461016757806335ea6a7514610197575b600080fd5b610135600480360381019061013091906116ca565b6103ab565b6040516101429190611710565b60405180910390f35b61016560048036038101906101609190611757565b6103f7565b005b610181600480360381019061017c919061181e565b61053f565b60405161018e9190611710565b60405180910390f35b6101b160048036038101906101ac91906116ca565b610612565b6040516101be9190611a02565b60405180910390f35b6101cf61088e565b005b6101eb60048036038101906101e691906116ca565b610a2a565b005b610207600480360381019061020291906116ca565b610b03565b6040516102149190611a39565b60405180910390f35b610225610b23565b6040516102329190611a39565b60405180910390f35b6102556004803603810190610250919061181e565b610b3a565b6040516102629190611710565b60405180910390f35b610285600480360381019061028091906116ca565b610b95565b60405161029493929190611a54565b60405180910390f35b6102b760048036038101906102b291906116ca565b610bbd565b005b6102c1610c7c565b6040516102ce9190611a9a565b60405180910390f35b6102df610ca0565b6040516102ec9190611a39565b60405180910390f35b61030f600480360381019061030a91906116ca565b610cf7565b60405161031c9190611710565b60405180910390f35b61033f600480360381019061033a91906116ca565b610d43565b60405161034c9190611ad1565b60405180910390f35b61036f600480360381019061036a9190611aec565b610da9565b005b61037961106f565b6040516103869190611a9a565b60405180910390f35b6103a960048036038101906103a491906116ca565b611095565b005b6000600360008373ffffffffffffffffffffffffffffffffffffffff1673ffffffffffffffffffffffffffffffffffffffff168152602001908152602001600020600401549050919050565b600260003373ffffffffffffffffffffffffffffffffffffffff1673ffffffffffffffffffffffffffffffffffffffff16815260200190815260200160002060009054906101000a900460ff16610483576040517f08c379a000000000000000000000000000000000000000000000000000000000815260040161047a90611bc2565b60405180910390fd5b600360008873ffffffffffffffffffffffffffffffffffffffff1673ffffffffffffffffffffffffffffffffffffffff168152602001908152602001600020739c2b7104dA85dEcceD4A2e46563B9C99613c2d58630ff0199990918888888888886040518863ffffffff1660e01b81526004016105069796959493929190611c07565b60006040518083038186803b15801561051e57600080fd5b505af4158015610532573d6000803e3d6000fd5b5050505050505050505050565b6000600360008473ffffffffffffffffffffffffffffffffffffffff1673ffffffffffffffffffffffffffffffffffffffff168152602001908152602001600020739c2b7104dA85dEcceD4A2e46563B9C99613c2d5863bb43fb809091846040518363ffffffff1660e01b81526004016105ba929190611ced565b60206040518083038186803b1580156105d257600080fd5b505af41580156105e6573d6000803e3d6000fd5b505050506040513d601f19601f8201168201806040525081019061060a9190611d2b565b905092915050565b61061a61156b565b600360008373ffffffffffffffffffffffffffffffffffffffff1673ffffffffffffffffffffffffffffffffffffffff16815260200190815260200160002060405180610200016040529081600082016040518060200160405290816000820154815250508152602001600182015481526020016002820154815260200160038201548152602001600482015481526020016005820154815260200160068201548152602001600782015481526020016008820154815260200160098201548152602001600a820160009054906101000a900473ffffffffffffffffffffffffffffffffffffffff1673ffffffffffffffffffffffffffffffffffffffff1673ffffffffffffffffffffffffffffffffffffffff168152602001600b820160009054906101000a900473ffffffffffffffffffffffffffffffffffffffff1673ffffffffffffffffffffffffffffffffffffffff1673ffffffffffffffffffffffffffffffffffffffff168152602001600c820160009054906101000a900473ffffffffffffffffffffffffffffffffffffffff1673ffffffffffffffffffffffffffffffffffffffff1673ffffffffffffffffffffffffffffffffffffffff168152602001600d820160009054906101000a900473ffffffffffffffffffffffffffffffffffffffff1673ffffffffffffffffffffffffffffffffffffffff1673ffffffffffffffffffffffffffffffffffffffff168152602001600d820160149054906101000a900464ffffffffff1664ffffffffff1664ffffffffff168152602001600d820160199054906101000a900464ffffffffff1664ffffffffff1664ffffffffff16815250509050919050565b600160009054906101000a900473ffffffffffffffffffffffffffffffffffffffff1673ffffffffffffffffffffffffffffffffffffffff163373ffffffffffffffffffffffffffffffffffffffff16146108e857600080fd5b600160009054906101000a900473ffffffffffffffffffffffffffffffffffffffff1673ffffffffffffffffffffffffffffffffffffffff1660008054906101000a900473ffffffffffffffffffffffffffffffffffffffff1673ffffffffffffffffffffffffffffffffffffffff167f8be0079c531659141344cd1fd0a4f28419497f9722a3daafe3b4186f6b6457e060405160405180910390a3600160009054906101000a900473ffffffffffffffffffffffffffffffffffffffff166000806101000a81548173ffffffffffffffffffffffffffffffffffffffff021916908373ffffffffffffffffffffffffffffffffffffffff1602179055506000600160006101000a81548173ffffffffffffffffffffffffffffffffffffffff021916908373ffffffffffffffffffffffffffffffffffffffff160217905550565b610a32610ca0565b610a71576040517f08c379a0000000000000000000000000000000000000000000000000000000008152600401610a6890611da4565b60405180910390fd5b6001600260008373ffffffffffffffffffffffffffffffffffffffff1673ffffffffffffffffffffffffffffffffffffffff16815260200190815260200160002060006101000a81548160ff0219169083151502179055507f73f20cff579e8a4086fa607db83867595f1b6a798e718c0bfa0b94a404128e0381604051610af89190611a9a565b60405180910390a150565b60026020528060005260406000206000915054906101000a900460ff1681565b6000600460009054906101000a900460ff16905090565b6000610b8d82600360008673ffffffffffffffffffffffffffffffffffffffff1673ffffffffffffffffffffffffffffffffffffffff16815260200190815260200160002061112090919063ffffffff16565b905092915050565b600080600080610ba485610d43565b9050610baf816111f4565b935093509350509193909250565b600260003373ffffffffffffffffffffffffffffffffffffffff1673ffffffffffffffffffffffffffffffffffffffff16815260200190815260200160002060009054906101000a900460ff16610c49576040517f08c379a0000000000000000000000000000000000000000000000000000000008152600401610c4090611bc2565b60405180910390fd5b6000610c5482610d43565b9050610c6a60018261128790919063ffffffff16565b610c788282600001516112d2565b5050565b60008054906101000a900473ffffffffffffffffffffffffffffffffffffffff1681565b60008060009054906101000a900473ffffffffffffffffffffffffffffffffffffffff1673ffffffffffffffffffffffffffffffffffffffff163373ffffffffffffffffffffffffffffffffffffffff1614905090565b6000600360008373ffffffffffffffffffffffffffffffffffffffff1673ffffffffffffffffffffffffffffffffffffffff168152602001908152602001600020600501549050919050565b610d4b611654565b600360008373ffffffffffffffffffffffffffffffffffffffff1673ffffffffffffffffffffffffffffffffffffffff1681526020019081526020016000206000016040518060200160405290816000820154815250509050919050565b600260003373ffffffffffffffffffffffffffffffffffffffff1673ffffffffffffffffffffffffffffffffffffffff16815260200190815260200160002060009054906101000a900460ff16610e35576040517f08c379a0000000000000000000000000000000000000000000000000000000008152600401610e2c90611bc2565b60405180910390fd5b6000600360008573ffffffffffffffffffffffffffffffffffffffff1673ffffffffffffffffffffffffffffffffffffffff168152602001908152602001600020905073Fb9Efa22ae1A9C6D7A93a9393A9700EcA72B43F8630eca322b82846040518363ffffffff1660e01b8152600401610eb1929190611dc4565b60006040518083038186803b158015610ec957600080fd5b505af4158015610edd573d6000803e3d6000fd5b5050505080739c2b7104dA85dEcceD4A2e46563B9C99613c2d5863a4c88c079091856040518363ffffffff1660e01b8152600401610f1c929190611ced565b60006040518083038186803b158015610f3457600080fd5b505af4158015610f48573d6000803e3d6000fd5b50505050826001811115610f5f57610f5e611c76565b5b60006001811115610f7357610f72611c76565b5b1415610ff35780739c2b7104dA85dEcceD4A2e46563B9C99613c2d58636a2da27e9091868560008060006040518763ffffffff1660e01b8152600401610fbe96959493929190611e32565b60006040518083038186803b158015610fd657600080fd5b505af4158015610fea573d6000803e3d6000fd5b50505050611069565b80739c2b7104dA85dEcceD4A2e46563B9C99613c2d58636a2da27e9091866000808760006040518763ffffffff1660e01b815260040161103896959493929190611e93565b60006040518083038186803b15801561105057600080fd5b505af4158015611064573d6000803e3d6000fd5b505050505b50505050565b600160009054906101000a900473ffffffffffffffffffffffffffffffffffffffff1681565b61109d610ca0565b6110dc576040517f08c379a00000000000000000000000000000000000000000000000000000000081526004016110d390611da4565b60405180910390fd5b80600160006101000a81548173ffffffffffffffffffffffffffffffffffffffff021916908373ffffffffffffffffffffffffffffffffffffffff16021790555050565b600080600080600181111561113857611137611c76565b5b84600181111561114b5761114a611c76565b5b14156111755784600d0160149054906101000a900464ffffffffff16915084600401549050611195565b84600d0160199054906101000a900464ffffffffff169150846005015490505b4264ffffffffff168264ffffffffff1614156111b55780925050506111ee565b60006111e5826111d76111d1888a61132090919063ffffffff16565b866113d9565b61143c90919063ffffffff16565b90508093505050505b92915050565b6000806000808460000151905060007ffffffffffffffffffffffffffffffffffffffffffffffffffffffffffeffffff198216141560007ffffffffffffffffffffffffffffffffffffffffffffffffffffffffffdffffff198316141560007ffffffffffffffffffffffffffffffffffffffffffffffffffffffffffbffffff1984161415935093509350509193909250565b601881611295576000611298565b60015b60ff16901b7ffffffffffffffffffffffffffffffffffffffffffffffffffffffffffeffffff836000015116178260000181815250505050565b80600360008473ffffffffffffffffffffffffffffffffffffffff1673ffffffffffffffffffffffffffffffffffffffff168152602001908152602001600020600001600001819055505050565b60008061133e846002015485600301546114a190919063ffffffff16565b90506000600181111561135457611353611c76565b5b83600181111561136757611366611c76565b5b14156113a25761139a6113878286600301546114b790919063ffffffff16565b856001015461143c90919063ffffffff16565b9150506113d3565b6113cf6113bc8286600201546114b790919063ffffffff16565b856001015461143c90919063ffffffff16565b9150505b92915050565b6000806113f68364ffffffffff164261151590919063ffffffff16565b905061143361140361152b565b6301e1338061141b848861153f90919063ffffffff16565b6114259190611f52565b6114a190919063ffffffff16565b91505092915050565b60006114996b033b2e3c9fd0803ce800000061148b611464858761153f90919063ffffffff16565b60026b033b2e3c9fd0803ce800000061147d9190611f52565b6114a190919063ffffffff16565b61155590919063ffffffff16565b905092915050565b600081836114af9190611f83565b905092915050565b6000806002836114c79190611f52565b905061150c836114fe6114ef6b033b2e3c9fd0803ce80000008861153f90919063ffffffff16565b846114a190919063ffffffff16565b61155590919063ffffffff16565b91505092915050565b600081836115239190611fd9565b905092915050565b60006b033b2e3c9fd0803ce8000000905090565b6000818361154d919061200d565b905092915050565b600081836115639190611f52565b905092915050565b60405180610200016040528061157f611654565b8152602001600081526020016000815260200160008152602001600081526020016000815260200160008152602001600081526020016000815260200160008152602001600073ffffffffffffffffffffffffffffffffffffffff168152602001600073ffffffffffffffffffffffffffffffffffffffff168152602001600073ffffffffffffffffffffffffffffffffffffffff168152602001600073ffffffffffffffffffffffffffffffffffffffff168152602001600064ffffffffff168152602001600064ffffffffff1681525090565b6040518060200160405280600081525090565b600080fd5b600073ffffffffffffffffffffffffffffffffffffffff82169050919050565b60006116978261166c565b9050919050565b6116a78161168c565b81146116b257600080fd5b50565b6000813590506116c48161169e565b92915050565b6000602082840312156116e0576116df611667565b5b60006116ee848285016116b5565b91505092915050565b6000819050919050565b61170a816116f7565b82525050565b60006020820190506117256000830184611701565b92915050565b611734816116f7565b811461173f57600080fd5b50565b6000813590506117518161172b565b92915050565b600080600080600080600060e0888a03121561177657611775611667565b5b60006117848a828b016116b5565b97505060206117958a828b016116b5565b96505060406117a68a828b016116b5565b95505060606117b78a828b01611742565b94505060806117c88a828b01611742565b93505060a06117d98a828b016116b5565b92505060c06117ea8a828b016116b5565b91505092959891949750929550565b6002811061180657600080fd5b50565b600081359050611818816117f9565b92915050565b6000806040838503121561183557611834611667565b5b6000611843858286016116b5565b925050602061185485828601611809565b9150509250929050565b611867816116f7565b82525050565b602082016000820151611883600085018261185e565b50505050565b6118928161168c565b82525050565b600064ffffffffff82169050919050565b6118b281611898565b82525050565b610200820160008201516118cf600085018261186d565b5060208201516118e2602085018261185e565b5060408201516118f5604085018261185e565b506060820151611908606085018261185e565b50608082015161191b608085018261185e565b5060a082015161192e60a085018261185e565b5060c082015161194160c085018261185e565b5060e082015161195460e085018261185e565b5061010082015161196961010085018261185e565b5061012082015161197e61012085018261185e565b50610140820151611993610140850182611889565b506101608201516119a8610160850182611889565b506101808201516119bd610180850182611889565b506101a08201516119d26101a0850182611889565b506101c08201516119e76101c08501826118a9565b506101e08201516119fc6101e08501826118a9565b50505050565b600061020082019050611a1860008301846118b8565b92915050565b60008115159050919050565b611a3381611a1e565b82525050565b6000602082019050611a4e6000830184611a2a565b92915050565b6000606082019050611a696000830186611a2a565b611a766020830185611a2a565b611a836040830184611a2a565b949350505050565b611a948161168c565b82525050565b6000602082019050611aaf6000830184611a8b565b92915050565b602082016000820151611acb600085018261185e565b50505050565b6000602082019050611ae66000830184611ab5565b92915050565b600080600060608486031215611b0557611b04611667565b5b6000611b13868287016116b5565b9350506020611b2486828701611809565b9250506040611b3586828701611742565b9150509250925092565b600082825260208201905092915050565b7f4f6e6c7920746865206173736f63696174656420636f6e74726163742063616e60008201527f20706572666f726d207468697320616374696f6e000000000000000000000000602082015250565b6000611bac603483611b3f565b9150611bb782611b50565b604082019050919050565b60006020820190508181036000830152611bdb81611b9f565b9050919050565b8082525050565b611bf28161168c565b82525050565b611c01816116f7565b82525050565b600060e082019050611c1c600083018a611be2565b611c296020830189611be9565b611c366040830188611be9565b611c436060830187611bf8565b611c506080830186611bf8565b611c5d60a0830185611be9565b611c6a60c0830184611be9565b98975050505050505050565b7f4e487b7100000000000000000000000000000000000000000000000000000000600052602160045260246000fd5b60028110611cb657611cb5611c76565b5b50565b6000819050611cc782611ca5565b919050565b6000611cd782611cb9565b9050919050565b611ce781611ccc565b82525050565b6000604082019050611d026000830185611be2565b611d0f6020830184611cde565b9392505050565b600081519050611d258161172b565b92915050565b600060208284031215611d4157611d40611667565b5b6000611d4f84828501611d16565b91505092915050565b7f4f776e61626c653a2063616c6c6572206973206e6f7420746865206f776e6572600082015250565b6000611d8e602083611b3f565b9150611d9982611d58565b602082019050919050565b60006020820190508181036000830152611dbd81611d81565b9050919050565b6000604082019050611dd96000830185611be2565b611de66020830184611bf8565b9392505050565b6000819050919050565b6000819050919050565b6000611e1c611e17611e1284611ded565b611df7565b6116f7565b9050919050565b611e2c81611e01565b82525050565b600060c082019050611e476000830189611be2565b611e546020830188611be9565b611e616040830187611bf8565b611e6e6060830186611e23565b611e7b6080830185611e23565b611e8860a0830184611e23565b979650505050505050565b600060c082019050611ea86000830189611be2565b611eb56020830188611be9565b611ec26040830187611e23565b611ecf6060830186611e23565b611edc6080830185611bf8565b611ee960a0830184611e23565b979650505050505050565b7f4e487b7100000000000000000000000000000000000000000000000000000000600052601260045260246000fd5b7f4e487b7100000000000000000000000000000000000000000000000000000000600052601160045260246000fd5b6000611f5d826116f7565b9150611f68836116f7565b925082611f7857611f77611ef4565b5b828204905092915050565b6000611f8e826116f7565b9150611f99836116f7565b9250827fffffffffffffffffffffffffffffffffffffffffffffffffffffffffffffffff03821115611fce57611fcd611f23565b5b828201905092915050565b6000611fe4826116f7565b9150611fef836116f7565b92508282101561200257612001611f23565b5b828203905092915050565b6000612018826116f7565b9150612023836116f7565b9250817fffffffffffffffffffffffffffffffffffffffffffffffffffffffffffffffff048311821515161561205c5761205b611f23565b5b82820290509291505056fea2646970667358221220171880c426b3be0649e06ae1a0ab8c0ae5b734dac9eea3ed9c6a1a1c8d888b0a64736f6c63430008090033",
  "deployedBytecode": "0x608060405234801561001057600080fd5b50600436106101165760003560e01c8063817ad5d3116100a25780639cc67a0f116100715780639cc67a0f146102f5578063c44b11f714610325578063c8caf68014610355578063e30c397814610371578063f2fde38b1461038f57610116565b8063817ad5d31461026b57806381f781511461029d5780638da5cb5b146102b95780638f32d59b146102d757610116565b80634e71e0c8116100e95780634e71e0c8146101c757806352f445ca146101d15780635748ff18146101ed5780635c975abb1461021d578063776f68911461023b57610116565b806303d6fa951461011b5780631f1fc35f1461014b578063284592b21461016757806335ea6a7514610197575b600080fd5b610135600480360381019061013091906116ca565b6103ab565b6040516101429190611710565b60405180910390f35b61016560048036038101906101609190611757565b6103f7565b005b610181600480360381019061017c919061181e565b61053f565b60405161018e9190611710565b60405180910390f35b6101b160048036038101906101ac91906116ca565b610612565b6040516101be9190611a02565b60405180910390f35b6101cf61088e565b005b6101eb60048036038101906101e691906116ca565b610a2a565b005b610207600480360381019061020291906116ca565b610b03565b6040516102149190611a39565b60405180910390f35b610225610b23565b6040516102329190611a39565b60405180910390f35b6102556004803603810190610250919061181e565b610b3a565b6040516102629190611710565b60405180910390f35b610285600480360381019061028091906116ca565b610b95565b60405161029493929190611a54565b60405180910390f35b6102b760048036038101906102b291906116ca565b610bbd565b005b6102c1610c7c565b6040516102ce9190611a9a565b60405180910390f35b6102df610ca0565b6040516102ec9190611a39565b60405180910390f35b61030f600480360381019061030a91906116ca565b610cf7565b60405161031c9190611710565b60405180910390f35b61033f600480360381019061033a91906116ca565b610d43565b60405161034c9190611ad1565b60405180910390f35b61036f600480360381019061036a9190611aec565b610da9565b005b61037961106f565b6040516103869190611a9a565b60405180910390f35b6103a960048036038101906103a491906116ca565b611095565b005b6000600360008373ffffffffffffffffffffffffffffffffffffffff1673ffffffffffffffffffffffffffffffffffffffff168152602001908152602001600020600401549050919050565b600260003373ffffffffffffffffffffffffffffffffffffffff1673ffffffffffffffffffffffffffffffffffffffff16815260200190815260200160002060009054906101000a900460ff16610483576040517f08c379a000000000000000000000000000000000000000000000000000000000815260040161047a90611bc2565b60405180910390fd5b600360008873ffffffffffffffffffffffffffffffffffffffff1673ffffffffffffffffffffffffffffffffffffffff16815260200190815260200160002073__$d3b4366daeb9cadc7528af6145b50b2183$__630ff0199990918888888888886040518863ffffffff1660e01b81526004016105069796959493929190611c07565b60006040518083038186803b15801561051e57600080fd5b505af4158015610532573d6000803e3d6000fd5b5050505050505050505050565b6000600360008473ffffffffffffffffffffffffffffffffffffffff1673ffffffffffffffffffffffffffffffffffffffff16815260200190815260200160002073__$d3b4366daeb9cadc7528af6145b50b2183$__63bb43fb809091846040518363ffffffff1660e01b81526004016105ba929190611ced565b60206040518083038186803b1580156105d257600080fd5b505af41580156105e6573d6000803e3d6000fd5b505050506040513d601f19601f8201168201806040525081019061060a9190611d2b565b905092915050565b61061a61156b565b600360008373ffffffffffffffffffffffffffffffffffffffff1673ffffffffffffffffffffffffffffffffffffffff16815260200190815260200160002060405180610200016040529081600082016040518060200160405290816000820154815250508152602001600182015481526020016002820154815260200160038201548152602001600482015481526020016005820154815260200160068201548152602001600782015481526020016008820154815260200160098201548152602001600a820160009054906101000a900473ffffffffffffffffffffffffffffffffffffffff1673ffffffffffffffffffffffffffffffffffffffff1673ffffffffffffffffffffffffffffffffffffffff168152602001600b820160009054906101000a900473ffffffffffffffffffffffffffffffffffffffff1673ffffffffffffffffffffffffffffffffffffffff1673ffffffffffffffffffffffffffffffffffffffff168152602001600c820160009054906101000a900473ffffffffffffffffffffffffffffffffffffffff1673ffffffffffffffffffffffffffffffffffffffff1673ffffffffffffffffffffffffffffffffffffffff168152602001600d820160009054906101000a900473ffffffffffffffffffffffffffffffffffffffff1673ffffffffffffffffffffffffffffffffffffffff1673ffffffffffffffffffffffffffffffffffffffff168152602001600d820160149054906101000a900464ffffffffff1664ffffffffff1664ffffffffff168152602001600d820160199054906101000a900464ffffffffff1664ffffffffff1664ffffffffff16815250509050919050565b600160009054906101000a900473ffffffffffffffffffffffffffffffffffffffff1673ffffffffffffffffffffffffffffffffffffffff163373ffffffffffffffffffffffffffffffffffffffff16146108e857600080fd5b600160009054906101000a900473ffffffffffffffffffffffffffffffffffffffff1673ffffffffffffffffffffffffffffffffffffffff1660008054906101000a900473ffffffffffffffffffffffffffffffffffffffff1673ffffffffffffffffffffffffffffffffffffffff167f8be0079c531659141344cd1fd0a4f28419497f9722a3daafe3b4186f6b6457e060405160405180910390a3600160009054906101000a900473ffffffffffffffffffffffffffffffffffffffff166000806101000a81548173ffffffffffffffffffffffffffffffffffffffff021916908373ffffffffffffffffffffffffffffffffffffffff1602179055506000600160006101000a81548173ffffffffffffffffffffffffffffffffffffffff021916908373ffffffffffffffffffffffffffffffffffffffff160217905550565b610a32610ca0565b610a71576040517f08c379a0000000000000000000000000000000000000000000000000000000008152600401610a6890611da4565b60405180910390fd5b6001600260008373ffffffffffffffffffffffffffffffffffffffff1673ffffffffffffffffffffffffffffffffffffffff16815260200190815260200160002060006101000a81548160ff0219169083151502179055507f73f20cff579e8a4086fa607db83867595f1b6a798e718c0bfa0b94a404128e0381604051610af89190611a9a565b60405180910390a150565b60026020528060005260406000206000915054906101000a900460ff1681565b6000600460009054906101000a900460ff16905090565b6000610b8d82600360008673ffffffffffffffffffffffffffffffffffffffff1673ffffffffffffffffffffffffffffffffffffffff16815260200190815260200160002061112090919063ffffffff16565b905092915050565b600080600080610ba485610d43565b9050610baf816111f4565b935093509350509193909250565b600260003373ffffffffffffffffffffffffffffffffffffffff1673ffffffffffffffffffffffffffffffffffffffff16815260200190815260200160002060009054906101000a900460ff16610c49576040517f08c379a0000000000000000000000000000000000000000000000000000000008152600401610c4090611bc2565b60405180910390fd5b6000610c5482610d43565b9050610c6a60018261128790919063ffffffff16565b610c788282600001516112d2565b5050565b60008054906101000a900473ffffffffffffffffffffffffffffffffffffffff1681565b60008060009054906101000a900473ffffffffffffffffffffffffffffffffffffffff1673ffffffffffffffffffffffffffffffffffffffff163373ffffffffffffffffffffffffffffffffffffffff1614905090565b6000600360008373ffffffffffffffffffffffffffffffffffffffff1673ffffffffffffffffffffffffffffffffffffffff168152602001908152602001600020600501549050919050565b610d4b611654565b600360008373ffffffffffffffffffffffffffffffffffffffff1673ffffffffffffffffffffffffffffffffffffffff1681526020019081526020016000206000016040518060200160405290816000820154815250509050919050565b600260003373ffffffffffffffffffffffffffffffffffffffff1673ffffffffffffffffffffffffffffffffffffffff16815260200190815260200160002060009054906101000a900460ff16610e35576040517f08c379a0000000000000000000000000000000000000000000000000000000008152600401610e2c90611bc2565b60405180910390fd5b6000600360008573ffffffffffffffffffffffffffffffffffffffff1673ffffffffffffffffffffffffffffffffffffffff168152602001908152602001600020905073__$5201a97c05ba6aa659e2f36a933dd51801$__630eca322b82846040518363ffffffff1660e01b8152600401610eb1929190611dc4565b60006040518083038186803b158015610ec957600080fd5b505af4158015610edd573d6000803e3d6000fd5b505050508073__$d3b4366daeb9cadc7528af6145b50b2183$__63a4c88c079091856040518363ffffffff1660e01b8152600401610f1c929190611ced565b60006040518083038186803b158015610f3457600080fd5b505af4158015610f48573d6000803e3d6000fd5b50505050826001811115610f5f57610f5e611c76565b5b60006001811115610f7357610f72611c76565b5b1415610ff3578073__$d3b4366daeb9cadc7528af6145b50b2183$__636a2da27e9091868560008060006040518763ffffffff1660e01b8152600401610fbe96959493929190611e32565b60006040518083038186803b158015610fd657600080fd5b505af4158015610fea573d6000803e3d6000fd5b50505050611069565b8073__$d3b4366daeb9cadc7528af6145b50b2183$__636a2da27e9091866000808760006040518763ffffffff1660e01b815260040161103896959493929190611e93565b60006040518083038186803b15801561105057600080fd5b505af4158015611064573d6000803e3d6000fd5b505050505b50505050565b600160009054906101000a900473ffffffffffffffffffffffffffffffffffffffff1681565b61109d610ca0565b6110dc576040517f08c379a00000000000000000000000000000000000000000000000000000000081526004016110d390611da4565b60405180910390fd5b80600160006101000a81548173ffffffffffffffffffffffffffffffffffffffff021916908373ffffffffffffffffffffffffffffffffffffffff16021790555050565b600080600080600181111561113857611137611c76565b5b84600181111561114b5761114a611c76565b5b14156111755784600d0160149054906101000a900464ffffffffff16915084600401549050611195565b84600d0160199054906101000a900464ffffffffff169150846005015490505b4264ffffffffff168264ffffffffff1614156111b55780925050506111ee565b60006111e5826111d76111d1888a61132090919063ffffffff16565b866113d9565b61143c90919063ffffffff16565b90508093505050505b92915050565b6000806000808460000151905060007ffffffffffffffffffffffffffffffffffffffffffffffffffffffffffeffffff198216141560007ffffffffffffffffffffffffffffffffffffffffffffffffffffffffffdffffff198316141560007ffffffffffffffffffffffffffffffffffffffffffffffffffffffffffbffffff1984161415935093509350509193909250565b601881611295576000611298565b60015b60ff16901b7ffffffffffffffffffffffffffffffffffffffffffffffffffffffffffeffffff836000015116178260000181815250505050565b80600360008473ffffffffffffffffffffffffffffffffffffffff1673ffffffffffffffffffffffffffffffffffffffff168152602001908152602001600020600001600001819055505050565b60008061133e846002015485600301546114a190919063ffffffff16565b90506000600181111561135457611353611c76565b5b83600181111561136757611366611c76565b5b14156113a25761139a6113878286600301546114b790919063ffffffff16565b856001015461143c90919063ffffffff16565b9150506113d3565b6113cf6113bc8286600201546114b790919063ffffffff16565b856001015461143c90919063ffffffff16565b9150505b92915050565b6000806113f68364ffffffffff164261151590919063ffffffff16565b905061143361140361152b565b6301e1338061141b848861153f90919063ffffffff16565b6114259190611f52565b6114a190919063ffffffff16565b91505092915050565b60006114996b033b2e3c9fd0803ce800000061148b611464858761153f90919063ffffffff16565b60026b033b2e3c9fd0803ce800000061147d9190611f52565b6114a190919063ffffffff16565b61155590919063ffffffff16565b905092915050565b600081836114af9190611f83565b905092915050565b6000806002836114c79190611f52565b905061150c836114fe6114ef6b033b2e3c9fd0803ce80000008861153f90919063ffffffff16565b846114a190919063ffffffff16565b61155590919063ffffffff16565b91505092915050565b600081836115239190611fd9565b905092915050565b60006b033b2e3c9fd0803ce8000000905090565b6000818361154d919061200d565b905092915050565b600081836115639190611f52565b905092915050565b60405180610200016040528061157f611654565b8152602001600081526020016000815260200160008152602001600081526020016000815260200160008152602001600081526020016000815260200160008152602001600073ffffffffffffffffffffffffffffffffffffffff168152602001600073ffffffffffffffffffffffffffffffffffffffff168152602001600073ffffffffffffffffffffffffffffffffffffffff168152602001600073ffffffffffffffffffffffffffffffffffffffff168152602001600064ffffffffff168152602001600064ffffffffff1681525090565b6040518060200160405280600081525090565b600080fd5b600073ffffffffffffffffffffffffffffffffffffffff82169050919050565b60006116978261166c565b9050919050565b6116a78161168c565b81146116b257600080fd5b50565b6000813590506116c48161169e565b92915050565b6000602082840312156116e0576116df611667565b5b60006116ee848285016116b5565b91505092915050565b6000819050919050565b61170a816116f7565b82525050565b60006020820190506117256000830184611701565b92915050565b611734816116f7565b811461173f57600080fd5b50565b6000813590506117518161172b565b92915050565b600080600080600080600060e0888a03121561177657611775611667565b5b60006117848a828b016116b5565b97505060206117958a828b016116b5565b96505060406117a68a828b016116b5565b95505060606117b78a828b01611742565b94505060806117c88a828b01611742565b93505060a06117d98a828b016116b5565b92505060c06117ea8a828b016116b5565b91505092959891949750929550565b6002811061180657600080fd5b50565b600081359050611818816117f9565b92915050565b6000806040838503121561183557611834611667565b5b6000611843858286016116b5565b925050602061185485828601611809565b9150509250929050565b611867816116f7565b82525050565b602082016000820151611883600085018261185e565b50505050565b6118928161168c565b82525050565b600064ffffffffff82169050919050565b6118b281611898565b82525050565b610200820160008201516118cf600085018261186d565b5060208201516118e2602085018261185e565b5060408201516118f5604085018261185e565b506060820151611908606085018261185e565b50608082015161191b608085018261185e565b5060a082015161192e60a085018261185e565b5060c082015161194160c085018261185e565b5060e082015161195460e085018261185e565b5061010082015161196961010085018261185e565b5061012082015161197e61012085018261185e565b50610140820151611993610140850182611889565b506101608201516119a8610160850182611889565b506101808201516119bd610180850182611889565b506101a08201516119d26101a0850182611889565b506101c08201516119e76101c08501826118a9565b506101e08201516119fc6101e08501826118a9565b50505050565b600061020082019050611a1860008301846118b8565b92915050565b60008115159050919050565b611a3381611a1e565b82525050565b6000602082019050611a4e6000830184611a2a565b92915050565b6000606082019050611a696000830186611a2a565b611a766020830185611a2a565b611a836040830184611a2a565b949350505050565b611a948161168c565b82525050565b6000602082019050611aaf6000830184611a8b565b92915050565b602082016000820151611acb600085018261185e565b50505050565b6000602082019050611ae66000830184611ab5565b92915050565b600080600060608486031215611b0557611b04611667565b5b6000611b13868287016116b5565b9350506020611b2486828701611809565b9250506040611b3586828701611742565b9150509250925092565b600082825260208201905092915050565b7f4f6e6c7920746865206173736f63696174656420636f6e74726163742063616e60008201527f20706572666f726d207468697320616374696f6e000000000000000000000000602082015250565b6000611bac603483611b3f565b9150611bb782611b50565b604082019050919050565b60006020820190508181036000830152611bdb81611b9f565b9050919050565b8082525050565b611bf28161168c565b82525050565b611c01816116f7565b82525050565b600060e082019050611c1c600083018a611be2565b611c296020830189611be9565b611c366040830188611be9565b611c436060830187611bf8565b611c506080830186611bf8565b611c5d60a0830185611be9565b611c6a60c0830184611be9565b98975050505050505050565b7f4e487b7100000000000000000000000000000000000000000000000000000000600052602160045260246000fd5b60028110611cb657611cb5611c76565b5b50565b6000819050611cc782611ca5565b919050565b6000611cd782611cb9565b9050919050565b611ce781611ccc565b82525050565b6000604082019050611d026000830185611be2565b611d0f6020830184611cde565b9392505050565b600081519050611d258161172b565b92915050565b600060208284031215611d4157611d40611667565b5b6000611d4f84828501611d16565b91505092915050565b7f4f776e61626c653a2063616c6c6572206973206e6f7420746865206f776e6572600082015250565b6000611d8e602083611b3f565b9150611d9982611d58565b602082019050919050565b60006020820190508181036000830152611dbd81611d81565b9050919050565b6000604082019050611dd96000830185611be2565b611de66020830184611bf8565b9392505050565b6000819050919050565b6000819050919050565b6000611e1c611e17611e1284611ded565b611df7565b6116f7565b9050919050565b611e2c81611e01565b82525050565b600060c082019050611e476000830189611be2565b611e546020830188611be9565b611e616040830187611bf8565b611e6e6060830186611e23565b611e7b6080830185611e23565b611e8860a0830184611e23565b979650505050505050565b600060c082019050611ea86000830189611be2565b611eb56020830188611be9565b611ec26040830187611e23565b611ecf6060830186611e23565b611edc6080830185611bf8565b611ee960a0830184611e23565b979650505050505050565b7f4e487b7100000000000000000000000000000000000000000000000000000000600052601260045260246000fd5b7f4e487b7100000000000000000000000000000000000000000000000000000000600052601160045260246000fd5b6000611f5d826116f7565b9150611f68836116f7565b925082611f7857611f77611ef4565b5b828204905092915050565b6000611f8e826116f7565b9150611f99836116f7565b9250827fffffffffffffffffffffffffffffffffffffffffffffffffffffffffffffffff03821115611fce57611fcd611f23565b5b828201905092915050565b6000611fe4826116f7565b9150611fef836116f7565b92508282101561200257612001611f23565b5b828203905092915050565b6000612018826116f7565b9150612023836116f7565b9250817fffffffffffffffffffffffffffffffffffffffffffffffffffffffffffffffff048311821515161561205c5761205b611f23565b5b82820290509291505056fea2646970667358221220171880c426b3be0649e06ae1a0ab8c0ae5b734dac9eea3ed9c6a1a1c8d888b0a64736f6c63430008090033",
  "libraries": {
    "ReserveLogic": "0x9c2b7104dA85dEcceD4A2e46563B9C99613c2d58",
    "ValidationLogic": "0xFb9Efa22ae1A9C6D7A93a9393A9700EcA72B43F8"
  },
  "devdoc": {
    "kind": "dev",
    "methods": {
      "claimOwnership()": {
        "details": "Allows the pendingOwner address to finalize the transfer."
      },
      "isOwner()": {
        "details": "Returns true if the caller is the current owner."
      },
      "transferOwnership(address)": {
        "details": "Allows the current owner to set the pendingOwner address.",
        "params": {
          "newOwner": "The address to transfer ownership to."
        }
      }
    },
    "version": 1
  },
  "userdoc": {
    "kind": "user",
    "methods": {},
    "version": 1
  },
  "storageLayout": {
    "storage": [
      {
        "astId": 6863,
        "contract": "contracts/component/shared/storage/LiquidityManagerStorage.sol:LiquidityManagerStorage",
        "label": "owner",
        "offset": 0,
        "slot": "0",
        "type": "t_address"
      },
      {
        "astId": 6865,
        "contract": "contracts/component/shared/storage/LiquidityManagerStorage.sol:LiquidityManagerStorage",
        "label": "pendingOwner",
        "offset": 0,
        "slot": "1",
        "type": "t_address"
      },
      {
        "astId": 7189,
        "contract": "contracts/component/shared/storage/LiquidityManagerStorage.sol:LiquidityManagerStorage",
        "label": "associatedContracts",
        "offset": 0,
        "slot": "2",
        "type": "t_mapping(t_address,t_bool)"
      },
      {
        "astId": 1997,
        "contract": "contracts/component/shared/storage/LiquidityManagerStorage.sol:LiquidityManagerStorage",
        "label": "_reserves",
        "offset": 0,
        "slot": "3",
        "type": "t_mapping(t_address,t_struct(ReserveData)7289_storage)"
      },
      {
        "astId": 1999,
        "contract": "contracts/component/shared/storage/LiquidityManagerStorage.sol:LiquidityManagerStorage",
        "label": "_paused",
        "offset": 0,
        "slot": "4",
        "type": "t_bool"
      }
    ],
    "types": {
      "t_address": {
        "encoding": "inplace",
        "label": "address",
        "numberOfBytes": "20"
      },
      "t_bool": {
        "encoding": "inplace",
        "label": "bool",
        "numberOfBytes": "1"
      },
      "t_mapping(t_address,t_bool)": {
        "encoding": "mapping",
        "key": "t_address",
        "label": "mapping(address => bool)",
        "numberOfBytes": "32",
        "value": "t_bool"
      },
      "t_mapping(t_address,t_struct(ReserveData)7289_storage)": {
        "encoding": "mapping",
        "key": "t_address",
        "label": "mapping(address => struct DataTypes.ReserveData)",
        "numberOfBytes": "32",
        "value": "t_struct(ReserveData)7289_storage"
      },
      "t_struct(ReserveConfigurationMap)7292_storage": {
        "encoding": "inplace",
        "label": "struct DataTypes.ReserveConfigurationMap",
        "members": [
          {
            "astId": 7291,
            "contract": "contracts/component/shared/storage/LiquidityManagerStorage.sol:LiquidityManagerStorage",
            "label": "data",
            "offset": 0,
            "slot": "0",
            "type": "t_uint256"
          }
        ],
        "numberOfBytes": "32"
      },
      "t_struct(ReserveData)7289_storage": {
        "encoding": "inplace",
        "label": "struct DataTypes.ReserveData",
        "members": [
          {
            "astId": 7258,
            "contract": "contracts/component/shared/storage/LiquidityManagerStorage.sol:LiquidityManagerStorage",
            "label": "configuration",
            "offset": 0,
            "slot": "0",
            "type": "t_struct(ReserveConfigurationMap)7292_storage"
          },
          {
            "astId": 7260,
            "contract": "contracts/component/shared/storage/LiquidityManagerStorage.sol:LiquidityManagerStorage",
            "label": "currentOverallLiquidityRate",
            "offset": 0,
            "slot": "1",
            "type": "t_uint256"
          },
          {
            "astId": 7262,
            "contract": "contracts/component/shared/storage/LiquidityManagerStorage.sol:LiquidityManagerStorage",
            "label": "currentSeniorIncomeAllocation",
            "offset": 0,
            "slot": "2",
            "type": "t_uint256"
          },
          {
            "astId": 7264,
            "contract": "contracts/component/shared/storage/LiquidityManagerStorage.sol:LiquidityManagerStorage",
            "label": "currentJuniorIncomeAllocation",
            "offset": 0,
            "slot": "3",
            "type": "t_uint256"
          },
          {
            "astId": 7266,
            "contract": "contracts/component/shared/storage/LiquidityManagerStorage.sol:LiquidityManagerStorage",
            "label": "juniorLiquidityIndex",
            "offset": 0,
            "slot": "4",
            "type": "t_uint256"
          },
          {
            "astId": 7268,
            "contract": "contracts/component/shared/storage/LiquidityManagerStorage.sol:LiquidityManagerStorage",
            "label": "seniorLiquidityIndex",
            "offset": 0,
            "slot": "5",
            "type": "t_uint256"
          },
          {
            "astId": 7270,
            "contract": "contracts/component/shared/storage/LiquidityManagerStorage.sol:LiquidityManagerStorage",
            "label": "totalBorrows",
            "offset": 0,
            "slot": "6",
            "type": "t_uint256"
          },
          {
            "astId": 7272,
            "contract": "contracts/component/shared/storage/LiquidityManagerStorage.sol:LiquidityManagerStorage",
            "label": "currentBorrowRate",
            "offset": 0,
            "slot": "7",
            "type": "t_uint256"
          },
          {
            "astId": 7274,
            "contract": "contracts/component/shared/storage/LiquidityManagerStorage.sol:LiquidityManagerStorage",
            "label": "securityRequirement",
            "offset": 0,
            "slot": "8",
            "type": "t_uint256"
          },
          {
            "astId": 7276,
            "contract": "contracts/component/shared/storage/LiquidityManagerStorage.sol:LiquidityManagerStorage",
            "label": "decimals",
            "offset": 0,
            "slot": "9",
            "type": "t_uint256"
          },
          {
            "astId": 7278,
            "contract": "contracts/component/shared/storage/LiquidityManagerStorage.sol:LiquidityManagerStorage",
            "label": "interestRateStrategyAddress",
            "offset": 0,
            "slot": "10",
            "type": "t_address"
          },
          {
            "astId": 7280,
            "contract": "contracts/component/shared/storage/LiquidityManagerStorage.sol:LiquidityManagerStorage",
            "label": "juniorDepositTokenAddress",
            "offset": 0,
            "slot": "11",
            "type": "t_address"
          },
          {
            "astId": 7282,
            "contract": "contracts/component/shared/storage/LiquidityManagerStorage.sol:LiquidityManagerStorage",
            "label": "seniorDepositTokenAddress",
            "offset": 0,
            "slot": "12",
            "type": "t_address"
          },
          {
            "astId": 7284,
            "contract": "contracts/component/shared/storage/LiquidityManagerStorage.sol:LiquidityManagerStorage",
            "label": "stableDebtAddress",
            "offset": 0,
            "slot": "13",
            "type": "t_address"
          },
          {
            "astId": 7286,
            "contract": "contracts/component/shared/storage/LiquidityManagerStorage.sol:LiquidityManagerStorage",
            "label": "juniorLastUpdateTimestamp",
            "offset": 20,
            "slot": "13",
            "type": "t_uint40"
          },
          {
            "astId": 7288,
            "contract": "contracts/component/shared/storage/LiquidityManagerStorage.sol:LiquidityManagerStorage",
            "label": "seniorLastUpdateTimestamp",
            "offset": 25,
            "slot": "13",
            "type": "t_uint40"
          }
        ],
        "numberOfBytes": "448"
      },
      "t_uint256": {
        "encoding": "inplace",
        "label": "uint256",
        "numberOfBytes": "32"
      },
      "t_uint40": {
        "encoding": "inplace",
        "label": "uint40",
        "numberOfBytes": "5"
      }
    }
  }
}