{
  "address": "0x47B1edAd418486464544Fc4ba47EF4980FDB4b2d",
  "abi": [
    {
      "inputs": [
        {
          "internalType": "address payable",
          "name": "_proxy",
          "type": "address"
        },
        {
          "internalType": "address",
          "name": "_voyager",
          "type": "address"
        }
      ],
      "stateMutability": "nonpayable",
      "type": "constructor"
    },
    {
      "anonymous": false,
      "inputs": [
        {
          "indexed": true,
          "internalType": "address",
          "name": "asset",
          "type": "address"
        },
        {
          "indexed": true,
          "internalType": "address",
          "name": "user",
          "type": "address"
        },
        {
          "indexed": true,
          "internalType": "uint8",
          "name": "tranche",
          "type": "uint8"
        },
        {
          "indexed": false,
          "internalType": "uint256",
          "name": "amount",
          "type": "uint256"
        }
      ],
      "name": "Deposit",
      "type": "event"
    },
    {
      "anonymous": false,
      "inputs": [
        {
          "indexed": true,
          "internalType": "address",
          "name": "previousOwner",
          "type": "address"
        },
        {
          "indexed": true,
          "internalType": "address",
          "name": "newOwner",
          "type": "address"
        }
      ],
      "name": "OwnershipTransferred",
      "type": "event"
    },
    {
      "anonymous": false,
      "inputs": [
        {
          "indexed": false,
          "internalType": "address",
          "name": "proxyAddress",
          "type": "address"
        }
      ],
      "name": "ProxyUpdated",
      "type": "event"
    },
    {
      "anonymous": false,
      "inputs": [
        {
          "indexed": true,
          "internalType": "address",
          "name": "_asset",
          "type": "address"
        }
      ],
      "name": "ReserveActivated",
      "type": "event"
    },
    {
      "anonymous": false,
      "inputs": [
        {
          "indexed": true,
          "internalType": "address",
          "name": "_asset",
          "type": "address"
        },
        {
          "indexed": false,
          "internalType": "address",
          "name": "_juniorDepositTokenAddress",
          "type": "address"
        },
        {
          "indexed": false,
          "internalType": "address",
          "name": "_seniorDepositTokenAddress",
          "type": "address"
        },
        {
          "indexed": false,
          "internalType": "address",
          "name": "_stableDebtAddress",
          "type": "address"
        },
        {
          "indexed": false,
          "internalType": "address",
          "name": "_interestRateStrategyAddress",
          "type": "address"
        },
        {
          "indexed": false,
          "internalType": "address",
          "name": "_healthStrategyAddress",
          "type": "address"
        },
        {
          "indexed": false,
          "internalType": "uint256",
          "name": "_optimalIncomeRatio",
          "type": "uint256"
        }
      ],
      "name": "ReserveInitialized",
      "type": "event"
    },
    {
      "inputs": [
        {
          "internalType": "address",
          "name": "_asset",
          "type": "address"
        }
      ],
      "name": "activeReserve",
      "outputs": [],
      "stateMutability": "nonpayable",
      "type": "function"
    },
    {
      "inputs": [
        {
          "internalType": "address",
          "name": "_reserve",
          "type": "address"
        },
        {
          "internalType": "address",
          "name": "_user",
          "type": "address"
        },
        {
          "internalType": "enum ReserveLogic.Tranche",
          "name": "_tranche",
          "type": "uint8"
        }
      ],
      "name": "balance",
      "outputs": [
        {
          "internalType": "uint256",
          "name": "",
          "type": "uint256"
        }
      ],
      "stateMutability": "view",
      "type": "function"
    },
    {
      "inputs": [],
      "name": "claimOwnership",
      "outputs": [],
      "stateMutability": "nonpayable",
      "type": "function"
    },
    {
      "inputs": [
        {
          "internalType": "address",
          "name": "_asset",
          "type": "address"
        },
        {
          "internalType": "enum ReserveLogic.Tranche",
          "name": "_tranche",
          "type": "uint8"
        },
        {
          "internalType": "uint256",
          "name": "_amount",
          "type": "uint256"
        },
        {
          "internalType": "address",
          "name": "_user",
          "type": "address"
        }
      ],
      "name": "deposit",
      "outputs": [],
      "stateMutability": "nonpayable",
      "type": "function"
    },
    {
      "inputs": [
        {
          "internalType": "address",
          "name": "_asset",
          "type": "address"
        }
      ],
      "name": "getConfiguration",
      "outputs": [
        {
          "components": [
            {
              "internalType": "uint256",
              "name": "data",
              "type": "uint256"
            }
          ],
          "internalType": "struct DataTypes.ReserveConfigurationMap",
          "name": "",
          "type": "tuple"
        }
      ],
      "stateMutability": "view",
      "type": "function"
    },
    {
      "inputs": [
        {
          "internalType": "address",
          "name": "_reserve",
          "type": "address"
        }
      ],
      "name": "getDepositAndDebt",
      "outputs": [
        {
          "components": [
            {
              "internalType": "uint256",
              "name": "juniorDepositAmount",
              "type": "uint256"
            },
            {
              "internalType": "uint256",
              "name": "seniorDepositAmount",
              "type": "uint256"
            },
            {
              "internalType": "uint256",
              "name": "totalDebt",
              "type": "uint256"
            },
            {
              "internalType": "uint256",
              "name": "totalInterest",
              "type": "uint256"
            },
            {
              "internalType": "uint256",
              "name": "avgBorrowRate",
              "type": "uint256"
            }
          ],
          "internalType": "struct DataTypes.DepositAndDebt",
          "name": "",
          "type": "tuple"
        }
      ],
      "stateMutability": "view",
      "type": "function"
    },
    {
      "inputs": [
        {
          "internalType": "address",
          "name": "_asset",
          "type": "address"
        }
      ],
      "name": "getFlags",
      "outputs": [
        {
          "internalType": "bool",
          "name": "",
          "type": "bool"
        },
        {
          "internalType": "bool",
          "name": "",
          "type": "bool"
        },
        {
          "internalType": "bool",
          "name": "",
          "type": "bool"
        }
      ],
      "stateMutability": "view",
      "type": "function"
    },
    {
      "inputs": [
        {
          "internalType": "address",
          "name": "_asset",
          "type": "address"
        }
      ],
      "name": "getJuniorLiquidityIndex",
      "outputs": [
        {
          "internalType": "uint256",
          "name": "",
          "type": "uint256"
        }
      ],
      "stateMutability": "view",
      "type": "function"
    },
    {
      "inputs": [
        {
          "internalType": "address",
          "name": "_asset",
          "type": "address"
        },
        {
          "internalType": "enum ReserveLogic.Tranche",
          "name": "_tranche",
          "type": "uint8"
        }
      ],
      "name": "getLiquidityRate",
      "outputs": [
        {
          "internalType": "uint256",
          "name": "",
          "type": "uint256"
        }
      ],
      "stateMutability": "view",
      "type": "function"
    },
    {
      "inputs": [
        {
          "internalType": "address",
          "name": "_asset",
          "type": "address"
        }
      ],
      "name": "getReserveData",
      "outputs": [
        {
          "components": [
            {
              "components": [
                {
                  "internalType": "uint256",
                  "name": "data",
                  "type": "uint256"
                }
              ],
              "internalType": "struct DataTypes.ReserveConfigurationMap",
              "name": "configuration",
              "type": "tuple"
            },
            {
              "internalType": "uint256",
              "name": "currentOverallLiquidityRate",
              "type": "uint256"
            },
            {
              "internalType": "uint256",
              "name": "currentJuniorLiquidityRate",
              "type": "uint256"
            },
            {
              "internalType": "uint256",
              "name": "currentSeniorLiquidityRate",
              "type": "uint256"
            },
            {
              "internalType": "uint256",
              "name": "juniorLiquidityIndex",
              "type": "uint256"
            },
            {
              "internalType": "uint256",
              "name": "seniorLiquidityIndex",
              "type": "uint256"
            },
            {
              "internalType": "uint256",
              "name": "currentBorrowRate",
              "type": "uint256"
            },
            {
              "internalType": "uint256",
              "name": "securityRequirement",
              "type": "uint256"
            },
            {
              "internalType": "uint256",
              "name": "decimals",
              "type": "uint256"
            },
            {
              "internalType": "address",
              "name": "interestRateStrategyAddress",
              "type": "address"
            },
            {
              "internalType": "address",
              "name": "healthStrategyAddress",
              "type": "address"
            },
            {
              "internalType": "address",
              "name": "loanStrategyAddress",
              "type": "address"
            },
            {
              "internalType": "address",
              "name": "juniorDepositTokenAddress",
              "type": "address"
            },
            {
              "internalType": "address",
              "name": "seniorDepositTokenAddress",
              "type": "address"
            },
            {
              "internalType": "uint40",
              "name": "juniorLastUpdateTimestamp",
              "type": "uint40"
            },
            {
              "internalType": "uint40",
              "name": "seniorLastUpdateTimestamp",
              "type": "uint40"
            },
            {
              "internalType": "uint256",
              "name": "optimalTrancheRatio",
              "type": "uint256"
            },
            {
              "internalType": "uint256",
              "name": "currentIncomeRatio",
              "type": "uint256"
            },
            {
              "internalType": "uint256",
              "name": "optimalIncomeRatio",
              "type": "uint256"
            }
          ],
          "internalType": "struct DataTypes.ReserveData",
          "name": "",
          "type": "tuple"
        }
      ],
      "stateMutability": "view",
      "type": "function"
    },
    {
      "inputs": [],
      "name": "getReserveList",
      "outputs": [
        {
          "internalType": "address[]",
          "name": "",
          "type": "address[]"
        }
      ],
      "stateMutability": "view",
      "type": "function"
    },
    {
      "inputs": [
        {
          "internalType": "address",
          "name": "_asset",
          "type": "address"
        },
        {
          "internalType": "enum ReserveLogic.Tranche",
          "name": "_tranche",
          "type": "uint8"
        }
      ],
      "name": "getReserveNormalizedIncome",
      "outputs": [
        {
          "internalType": "uint256",
          "name": "",
          "type": "uint256"
        }
      ],
      "stateMutability": "view",
      "type": "function"
    },
    {
      "inputs": [
        {
          "internalType": "address",
          "name": "_asset",
          "type": "address"
        }
      ],
      "name": "getSeniorLiquidityIndex",
      "outputs": [
        {
          "internalType": "uint256",
          "name": "",
          "type": "uint256"
        }
      ],
      "stateMutability": "view",
      "type": "function"
    },
    {
      "inputs": [
        {
          "internalType": "address",
          "name": "_asset",
          "type": "address"
        },
        {
          "internalType": "address",
          "name": "_juniorDepositTokenAddress",
          "type": "address"
        },
        {
          "internalType": "address",
          "name": "_seniorDepositTokenAddress",
          "type": "address"
        },
        {
          "internalType": "address",
          "name": "_interestRateStrategyAddress",
          "type": "address"
        },
        {
          "internalType": "address",
          "name": "_healthStrategyAddress",
          "type": "address"
        },
        {
          "internalType": "address",
          "name": "_loanStrategyAddress",
          "type": "address"
        },
        {
          "internalType": "uint256",
          "name": "_optimalIncomeRatio",
          "type": "uint256"
        }
      ],
      "name": "initReserve",
      "outputs": [],
      "stateMutability": "nonpayable",
      "type": "function"
    },
    {
      "inputs": [],
      "name": "isOwner",
      "outputs": [
        {
          "internalType": "bool",
          "name": "",
          "type": "bool"
        }
      ],
      "stateMutability": "view",
      "type": "function"
    },
    {
      "inputs": [],
      "name": "messageSender",
      "outputs": [
        {
          "internalType": "address",
          "name": "",
          "type": "address"
        }
      ],
      "stateMutability": "view",
      "type": "function"
    },
    {
      "inputs": [],
      "name": "owner",
      "outputs": [
        {
          "internalType": "address",
          "name": "",
          "type": "address"
        }
      ],
      "stateMutability": "view",
      "type": "function"
    },
    {
      "inputs": [],
      "name": "pause",
      "outputs": [],
      "stateMutability": "nonpayable",
      "type": "function"
    },
    {
      "inputs": [],
      "name": "pendingOwner",
      "outputs": [
        {
          "internalType": "address",
          "name": "",
          "type": "address"
        }
      ],
      "stateMutability": "view",
      "type": "function"
    },
    {
      "inputs": [],
      "name": "proxy",
      "outputs": [
        {
          "internalType": "contract Proxy",
          "name": "",
          "type": "address"
        }
      ],
      "stateMutability": "view",
      "type": "function"
    },
    {
      "inputs": [
        {
          "internalType": "address",
          "name": "sender",
          "type": "address"
        }
      ],
      "name": "setMessageSender",
      "outputs": [],
      "stateMutability": "nonpayable",
      "type": "function"
    },
    {
      "inputs": [
        {
          "internalType": "address payable",
          "name": "_proxy",
          "type": "address"
        }
      ],
      "name": "setProxy",
      "outputs": [],
      "stateMutability": "nonpayable",
      "type": "function"
    },
    {
      "inputs": [
        {
          "internalType": "enum ReserveLogic.Tranche",
          "name": "tranche",
          "type": "uint8"
        }
      ],
      "name": "trancheToBytes32",
      "outputs": [
        {
          "internalType": "bytes32",
          "name": "",
          "type": "bytes32"
        }
      ],
      "stateMutability": "view",
      "type": "function"
    },
    {
      "inputs": [
        {
          "internalType": "address",
          "name": "newOwner",
          "type": "address"
        }
      ],
      "name": "transferOwnership",
      "outputs": [],
      "stateMutability": "nonpayable",
      "type": "function"
    },
    {
      "inputs": [],
      "name": "unPause",
      "outputs": [],
      "stateMutability": "nonpayable",
      "type": "function"
    },
    {
      "inputs": [
        {
          "internalType": "address",
          "name": "_reserve",
          "type": "address"
        }
      ],
      "name": "utilizationRate",
      "outputs": [
        {
          "internalType": "uint256",
          "name": "",
          "type": "uint256"
        }
      ],
      "stateMutability": "view",
      "type": "function"
    },
    {
      "inputs": [],
      "name": "voyager",
      "outputs": [
        {
          "internalType": "contract Voyager",
          "name": "",
          "type": "address"
        }
      ],
      "stateMutability": "view",
      "type": "function"
    },
    {
      "inputs": [
        {
          "internalType": "address",
          "name": "_asset",
          "type": "address"
        },
        {
          "internalType": "enum ReserveLogic.Tranche",
          "name": "_tranche",
          "type": "uint8"
        },
        {
          "internalType": "uint256",
          "name": "_amount",
          "type": "uint256"
        },
        {
          "internalType": "address payable",
          "name": "_user",
          "type": "address"
        }
      ],
      "name": "withdraw",
      "outputs": [],
      "stateMutability": "nonpayable",
      "type": "function"
    },
    {
      "inputs": [
        {
          "internalType": "address",
          "name": "_reserve",
          "type": "address"
        },
        {
          "internalType": "address",
          "name": "_user",
          "type": "address"
        },
        {
          "internalType": "enum ReserveLogic.Tranche",
          "name": "_tranche",
          "type": "uint8"
        }
      ],
      "name": "withdrawAbleAmount",
      "outputs": [
        {
          "internalType": "uint256",
          "name": "",
          "type": "uint256"
        }
      ],
      "stateMutability": "view",
      "type": "function"
    }
  ],
  "transactionHash": "0x773b08b64729a0b668d6ee0d94d8e6a7081f4cb74b75a4eb3a584d3454642935",
  "args": [
    "0x27236481994cBFe5d854BaafFDa74F3976386a70",
    "0x5eBA979235019b271a99524f699E49F2791D236C"
  ],
  "numDeployments": 1,
  "solcInputHash": "5581b7bd0906416eb346441aec54c4cd",
  "bytecode": "0x60806040523480156200001157600080fd5b5060405162002c9e38038062002c9e83398101604081905262000034916200015f565b600080546001600160a01b0319163390811782556040518492849284929091907f8be0079c531659141344cd1fd0a4f28419497f9722a3daafe3b4186f6b6457e0908290a36000546001600160a01b0316620000ca5760405162461bcd60e51b815260206004820152601160248201527013dddb995c881b5d5cdd081899481cd95d607a1b604482015260640160405180910390fd5b600380546001600160a01b0319166001600160a01b0383169081179091556040519081527ffc80377ca9c49cc11ae6982f390a42db976d5530af7c43889264b13fbbd7c57e9060200160405180910390a150600280546001600160a01b0319166001600160a01b0392909216919091179055506200019e915050565b6001600160a01b03811681146200015c57600080fd5b50565b600080604083850312156200017357600080fd5b8251620001808162000146565b6020840151909250620001938162000146565b809150509250929050565b612af080620001ae6000396000f3fe608060405234801561001057600080fd5b50600436106101cf5760003560e01c806381f7815111610104578063c38354ef116100a2578063ec55688911610071578063ec5568891461043d578063f2fde38b14610450578063f448e14014610463578063f7b188a51461047657600080fd5b8063c38354ef146103e2578063c44b11f7146103f5578063d67bdd2514610417578063e30c39781461042a57600080fd5b80638f32d59b116100de5780638f32d59b1461038b57806397107d6d146103a95780639cc67a0f146103bc578063bc67f832146103cf57600080fd5b806381f78151146103455780638456cb59146103585780638da5cb5b1461036057600080fd5b80634c445bfe1161017157806366d4c4131161014b57806366d4c413146102d857806367fbddf3146102ed578063776f689114610300578063817ad5d31461031357600080fd5b80634c445bfe1461027b5780634e71e0c8146102d05780634f71c597146101fa57600080fd5b8063284592b2116101ad578063284592b21461022057806335ea6a751461023357806343ba226314610253578063452572f31461026857600080fd5b806303d6fa95146101d457806310202fcf146101fa578063207b27df1461020d575b600080fd5b6101e76101e236600461218e565b61047e565b6040519081526020015b60405180910390f35b6101e76102083660046121bf565b610523565b6101e761021b36600461218e565b6105e2565b6101e761022e366004612206565b6107e2565b61024661024136600461218e565b6108b9565b6040516101f1919061223b565b610266610261366004612342565b610a72565b005b6102666102763660046123cf565b610b88565b61028e61028936600461218e565b610e34565b6040516101f19190600060a082019050825182526020830151602083015260408301516040830152606083015160608301526080830151608083015292915050565b610266610f06565b6102e0610f8e565b6040516101f19190612420565b6101e76102fb36600461246d565b611011565b6101e761030e366004612206565b611090565b61032661032136600461218e565b61110e565b60408051931515845291151560208401521515908201526060016101f1565b61026661035336600461218e565b6111bc565b610266611298565b600054610373906001600160a01b031681565b6040516001600160a01b0390911681526020016101f1565b6000546001600160a01b0316331460405190151581526020016101f1565b6102666103b736600461218e565b611304565b6101e76103ca36600461218e565b6113bf565b6102666103dd36600461218e565b611412565b6102666103f03660046123cf565b611449565b61040861040336600461218e565b6116b4565b604051905181526020016101f1565b600454610373906001600160a01b031681565b600154610373906001600160a01b031681565b600354610373906001600160a01b031681565b61026661045e36600461218e565b61179f565b600254610373906001600160a01b031681565b610266611828565b600061048861187a565b6040517f03d6fa950000000000000000000000000000000000000000000000000000000081526001600160a01b03848116600483015291909116906303d6fa95906024015b60206040518083038186803b1580156104e557600080fd5b505afa1580156104f9573d6000803e3d6000fd5b505050506040513d601f19601f8201168201806040525081019061051d9190612488565b92915050565b60008061052f856108b9565b90506000836001811115610545576105456124a1565b610555575061018081015161055d565b506101a08101515b6040516370a0823160e01b81526001600160a01b0386811660048301528216906370a082319060240160206040518083038186803b15801561059e57600080fd5b505afa1580156105b2573d6000803e3d6000fd5b505050506040513d601f19601f820116820180604052508101906105d69190612488565b925050505b9392505050565b6000806105ee836108b9565b905060008060006105fd61187a565b6040517f4d44ac4f0000000000000000000000000000000000000000000000000000000081526001600160a01b03888116600483015291925090821690634d44ac4f90602401604080518083038186803b15801561065a57600080fd5b505afa15801561066e573d6000803e3d6000fd5b505050506040513d601f19601f8201168201806040525081019061069291906124b7565b909350915060006106a38484611980565b90506000856101a001516001600160a01b031663d41e97206040518163ffffffff1660e01b815260040160206040518083038186803b1580156106e557600080fd5b505afa1580156106f9573d6000803e3d6000fd5b505050506040513d601f19601f8201168201806040525081019061071d9190612488565b6101a08701516040516370a0823160e01b81526001600160a01b03918216600482015291925060009183918b16906370a082319060240160206040518083038186803b15801561076c57600080fd5b505afa158015610780573d6000803e3d6000fd5b505050506040513d601f19601f820116820180604052508101906107a49190612488565b6107ae91906124f1565b9050600083156107d1576107cc6107c58386611980565b859061198c565b6107d4565b60005b9a9950505050505050505050565b60006001600160a01b0383163b151560405180604001604052806002815260200161036360f41b815250906108335760405162461bcd60e51b815260040161082a9190612560565b60405180910390fd5b5061083c61187a565b6001600160a01b031663284592b284846040518363ffffffff1660e01b8152600401610869929190612595565b60206040518083038186803b15801561088157600080fd5b505afa158015610895573d6000803e3d6000fd5b505050506040513d601f19601f820116820180604052508101906105db9190612488565b6109936040805161028081019091526000610260820190815281908152602001600081526020016000815260200160008152602001600081526020016000815260200160008152602001600081526020016000815260200160006001600160a01b0316815260200160006001600160a01b0316815260200160006001600160a01b0316815260200160006001600160a01b0316815260200160006001600160a01b03168152602001600064ffffffffff168152602001600064ffffffffff1681526020016000815260200160008152602001600081525090565b604080518082019091526002815261036360f41b60208201526001600160a01b0383163b6109d45760405162461bcd60e51b815260040161082a9190612560565b506109dd61187a565b6040517f35ea6a750000000000000000000000000000000000000000000000000000000081526001600160a01b03848116600483015291909116906335ea6a75906024016102606040518083038186803b158015610a3a57600080fd5b505afa158015610a4e573d6000803e3d6000fd5b505050506040513d601f19601f8201168201806040525081019061051d9190612685565b610a7a6119ce565b610a82611a2a565b604080518082019091526002815261036360f41b60208201526001600160a01b0388163b610ac35760405162461bcd60e51b815260040161082a9190612560565b50610acc61187a565b6040517f43ba22630000000000000000000000000000000000000000000000000000000081526001600160a01b038981166004830152888116602483015287811660448301528681166064830152858116608483015284811660a483015260c4820184905291909116906343ba22639060e401600060405180830381600087803b158015610b5957600080fd5b505af1158015610b6d573d6000803e3d6000fd5b50505050610b7f878787878786611c23565b50505050505050565b610b906119ce565b6000610b9a61187a565b90506000610ba7866108b9565b9050600080866001811115610bbe57610bbe6124a1565b610bda578261018001519150610bd38861047e565b9050610bee565b826101a001519150610beb886113bf565b90505b6040516370a0823160e01b81526001600160a01b038681166004830152600091908416906370a082319060240160206040518083038186803b158015610c3357600080fd5b505afa158015610c47573d6000803e3d6000fd5b505050506040513d601f19601f82011682018060405250810190610c6b9190612488565b905086600019811415610c7b5750805b6040517f3de5f35f0000000000000000000000000000000000000000000000000000000081526001600160a01b038b8116600483015260009190881690633de5f35f9060240160606040518083038186803b158015610cd957600080fd5b505afa158015610ced573d6000803e3d6000fd5b505050506040513d601f19601f82011682018060405250810190610d1191906127a6565b60208101518151919250600091610d2791611980565b60408381015190517ff5298aca0000000000000000000000000000000000000000000000000000000081526001600160a01b038c811660048301526024820187905260448201899052929350909188169063f5298aca90606401600060405180830381600087803b158015610d9b57600080fd5b505af1158015610daf573d6000803e3d6000fd5b50505050886001600160a01b031663f46a2bd48e8e8786866040518663ffffffff1660e01b8152600401610de7959493929190612802565b600060405180830381600087803b158015610e0157600080fd5b505af1158015610e15573d6000803e3d6000fd5b50505050610e258d8b8e8e611d07565b50505050505050505050505050565b610e666040518060a0016040528060008152602001600081526020016000815260200160008152602001600081525090565b6000610e7061187a565b6040517f4c445bfe0000000000000000000000000000000000000000000000000000000081526001600160a01b03858116600483015291925090821690634c445bfe9060240160a06040518083038186803b158015610ece57600080fd5b505afa158015610ee2573d6000803e3d6000fd5b505050506040513d601f19601f820116820180604052508101906105db919061283b565b6001546001600160a01b03163314610f1d57600080fd5b600154600080546040516001600160a01b0393841693909116917f8be0079c531659141344cd1fd0a4f28419497f9722a3daafe3b4186f6b6457e091a3600180546000805473ffffffffffffffffffffffffffffffffffffffff199081166001600160a01b03841617909155169055565b6060610f9861187a565b6001600160a01b03166366d4c4136040518163ffffffff1660e01b815260040160006040518083038186803b158015610fd057600080fd5b505afa158015610fe4573d6000803e3d6000fd5b505050506040513d6000823e601f3d908101601f1916820160405261100c91908101906128ab565b905090565b6040517f10a01f1a00000000000000000000000000000000000000000000000000000000815260009073196F9673101Bf31261AABaccfFc72EA8779e3D21906310a01f1a9061106490859060040161295d565b60206040518083038186803b15801561107c57600080fd5b505af41580156104f9573d6000803e3d6000fd5b60006001600160a01b0383163b151560405180604001604052806002815260200161036360f41b815250906110d85760405162461bcd60e51b815260040161082a9190612560565b506110e161187a565b6001600160a01b031663776f689184846040518363ffffffff1660e01b8152600401610869929190612595565b600080600061111b61187a565b6040517f817ad5d30000000000000000000000000000000000000000000000000000000081526001600160a01b038681166004830152919091169063817ad5d39060240160606040518083038186803b15801561117757600080fd5b505afa15801561118b573d6000803e3d6000fd5b505050506040513d601f19601f820116820180604052508101906111af919061297b565b9250925092509193909250565b6111c46119ce565b6111cc611a2a565b604080518082019091526002815261036360f41b60208201526001600160a01b0382163b61120d5760405162461bcd60e51b815260040161082a9190612560565b5061121661187a565b6040517f81f781510000000000000000000000000000000000000000000000000000000081526001600160a01b03838116600483015291909116906381f7815190602401600060405180830381600087803b15801561127457600080fd5b505af1158015611288573d6000803e3d6000fd5b5050505061129581611dd6565b50565b6112a06119ce565b6112a8611a2a565b6112b061187a565b6001600160a01b0316638456cb596040518163ffffffff1660e01b8152600401600060405180830381600087803b1580156112ea57600080fd5b505af11580156112fe573d6000803e3d6000fd5b50505050565b6000546001600160a01b0316331461135e5760405162461bcd60e51b815260206004820181905260248201527f4f776e61626c653a2063616c6c6572206973206e6f7420746865206f776e6572604482015260640161082a565b6003805473ffffffffffffffffffffffffffffffffffffffff19166001600160a01b0383169081179091556040519081527ffc80377ca9c49cc11ae6982f390a42db976d5530af7c43889264b13fbbd7c57e9060200160405180910390a150565b60006113c961187a565b6040517f9cc67a0f0000000000000000000000000000000000000000000000000000000081526001600160a01b0384811660048301529190911690639cc67a0f906024016104cd565b61141a6119ce565b6004805473ffffffffffffffffffffffffffffffffffffffff19166001600160a01b0392909216919091179055565b6114516119ce565b600061145b61187a565b90506000611468866108b9565b6040517f3de5f35f0000000000000000000000000000000000000000000000000000000081526001600160a01b038881166004830152919250600091841690633de5f35f9060240160606040518083038186803b1580156114c857600080fd5b505afa1580156114dc573d6000803e3d6000fd5b505050506040513d601f19601f8201168201806040525081019061150091906127a6565b6020810151815191925060009161151691611980565b60408084015190517f0fc3a8be000000000000000000000000000000000000000000000000000000008152919250906001600160a01b03861690630fc3a8be9061156c908c908c908c9088908890600401612802565b600060405180830381600087803b15801561158657600080fd5b505af115801561159a573d6000803e3d6000fd5b505050506000808960018111156115b3576115b36124a1565b6115cf5785610180015191506115c88b61047e565b90506115e3565b856101a0015191506115e08b6113bf565b90505b6040517f156e29f60000000000000000000000000000000000000000000000000000000081526001600160a01b038981166004830152602482018b90526044820183905283169063156e29f690606401602060405180830381600087803b15801561164d57600080fd5b505af1158015611661573d6000803e3d6000fd5b505050506040513d601f19601f8201168201806040525081019061168591906129b5565b5061169b6001600160a01b038c1689848c611e78565b6116a78b898c8c611f00565b5050505050505050505050565b60408051602080820183526000825282518084019093526002835261036360f41b90830152906001600160a01b0383163b6117025760405162461bcd60e51b815260040161082a9190612560565b5061170b61187a565b6040517fc44b11f70000000000000000000000000000000000000000000000000000000081526001600160a01b038481166004830152919091169063c44b11f79060240160206040518083038186803b15801561176757600080fd5b505afa15801561177b573d6000803e3d6000fd5b505050506040513d601f19601f8201168201806040525081019061051d91906129d0565b6000546001600160a01b031633146117f95760405162461bcd60e51b815260206004820181905260248201527f4f776e61626c653a2063616c6c6572206973206e6f7420746865206f776e6572604482015260640161082a565b6001805473ffffffffffffffffffffffffffffffffffffffff19166001600160a01b0392909216919091179055565b6118306119ce565b611838611a2a565b61184061187a565b6001600160a01b031663f7b188a56040518163ffffffff1660e01b8152600401600060405180830381600087803b1580156112ea57600080fd5b600254604080517f94f6744300000000000000000000000000000000000000000000000000000000815290516000926001600160a01b0316916394f67443916004808301926020929190829003018186803b1580156118d857600080fd5b505afa1580156118ec573d6000803e3d6000fd5b505050506040513d601f19601f8201168201806040525081019061191091906129ec565b6001600160a01b031663648cd56e6040518163ffffffff1660e01b815260040160206040518083038186803b15801561194857600080fd5b505afa15801561195c573d6000803e3d6000fd5b505050506040513d601f19601f8201168201806040525081019061100c91906129ec565b60006105db8284612a09565b60008061199a600284612a21565b90506119c6836119c06119b9876b033b2e3c9fd0803ce8000000611f63565b8490611980565b90611f6f565b949350505050565b6003546001600160a01b03163314611a285760405162461bcd60e51b815260206004820152601760248201527f4f6e6c79207468652070726f78792063616e2063616c6c000000000000000000604482015260640161082a565b565b600254604080517f05a2ee2a00000000000000000000000000000000000000000000000000000000815290516001600160a01b039092169160009183916305a2ee2a91600480820192602092909190829003018186803b158015611a8d57600080fd5b505afa158015611aa1573d6000803e3d6000fd5b505050506040513d601f19601f82011682018060405250810190611ac591906129ec565b90506000816001600160a01b031663c2c855c26040518163ffffffff1660e01b815260040160206040518083038186803b158015611b0257600080fd5b505afa158015611b16573d6000803e3d6000fd5b505050506040513d601f19601f82011682018060405250810190611b3a91906129ec565b600480546040517fdf89b3440000000000000000000000000000000000000000000000000000000081526001600160a01b0391821692810192909252919250829182169063df89b3449060240160206040518083038186803b158015611b9f57600080fd5b505afa158015611bb3573d6000803e3d6000fd5b505050506040513d601f19601f82011682018060405250810190611bd791906129b5565b6112fe5760405162461bcd60e51b815260206004820152600f60248201527f4e6f74207661756c742061646d696e0000000000000000000000000000000000604482015260640161082a565b600354604080516001600160a01b038881166020830152878116928201929092528582166060820152848216608082015260a0810184905291169063907dff979060c00160405160208183030381529060405260027f87ab4fd631105632ce36b278113270da61b7acd7ed7528795619812cc3fd8bc2611ca98b6001600160a01b031690565b6000806040518763ffffffff1660e01b8152600401611ccd96959493929190612a43565b600060405180830381600087803b158015611ce757600080fd5b505af1158015611cfb573d6000803e3d6000fd5b50505050505050505050565b60035460408051602081018490526001600160a01b039092169163907dff97910160405160208183030381529060405260047fc8c2568a84dc78b4d28cb1be681ed0ee606f40b7c45dc349df83d5dad805890a611d6a896001600160a01b031690565b6001600160a01b038916611d7d89611011565b6040518763ffffffff1660e01b8152600401611d9e96959493929190612a43565b600060405180830381600087803b158015611db857600080fd5b505af1158015611dcc573d6000803e3d6000fd5b5050505050505050565b6003546060906001600160a01b031663907dff978260027f35b80cd8ea3440e9a8454f116fa658b858da1b64c86c48451f4559cefcdfb56c611e1e876001600160a01b031690565b6000806040518763ffffffff1660e01b8152600401611e4296959493929190612a43565b600060405180830381600087803b158015611e5c57600080fd5b505af1158015611e70573d6000803e3d6000fd5b505050505050565b604080516001600160a01b0385811660248301528416604482015260648082018490528251808303909101815260849091019091526020810180517bffffffffffffffffffffffffffffffffffffffffffffffffffffffff167f23b872dd000000000000000000000000000000000000000000000000000000001790526112fe908590611f7b565b60035460408051602081018490526001600160a01b039092169163907dff97910160405160208183030381529060405260047f349f2077a396d7412bc443893a8ca7ccd3b3b67032bbbec87a806436ec959c9f611d6a896001600160a01b031690565b60006105db8284612a7f565b60006105db8284612a21565b6000611fd0826040518060400160405280602081526020017f5361666545524332303a206c6f772d6c6576656c2063616c6c206661696c6564815250856001600160a01b03166120659092919063ffffffff16565b8051909150156120605780806020019051810190611fee91906129b5565b6120605760405162461bcd60e51b815260206004820152602a60248201527f5361666545524332303a204552433230206f7065726174696f6e20646964206e60448201527f6f74207375636365656400000000000000000000000000000000000000000000606482015260840161082a565b505050565b60606119c68484600085856001600160a01b0385163b6120c75760405162461bcd60e51b815260206004820152601d60248201527f416464726573733a2063616c6c20746f206e6f6e2d636f6e7472616374000000604482015260640161082a565b600080866001600160a01b031685876040516120e39190612a9e565b60006040518083038185875af1925050503d8060008114612120576040519150601f19603f3d011682016040523d82523d6000602084013e612125565b606091505b5091509150612135828286612140565b979650505050505050565b6060831561214f5750816105db565b82511561215f5782518084602001fd5b8160405162461bcd60e51b815260040161082a9190612560565b6001600160a01b038116811461129557600080fd5b6000602082840312156121a057600080fd5b81356105db81612179565b8035600281106121ba57600080fd5b919050565b6000806000606084860312156121d457600080fd5b83356121df81612179565b925060208401356121ef81612179565b91506121fd604085016121ab565b90509250925092565b6000806040838503121561221957600080fd5b823561222481612179565b9150612232602084016121ab565b90509250929050565b815151815261026081016020830151602083015260408301516040830152606083015160608301526080830151608083015260a083015160a083015260c083015160c083015260e083015160e0830152610100808401518184015250610120808401516122b2828501826001600160a01b03169052565b5050610140838101516001600160a01b039081169184019190915261016080850151821690840152610180808501518216908401526101a080850151909116908301526101c08084015164ffffffffff908116918401919091526101e080850151909116908301526102008084015190830152610220808401519083015261024092830151929091019190915290565b600080600080600080600060e0888a03121561235d57600080fd5b873561236881612179565b9650602088013561237881612179565b9550604088013561238881612179565b9450606088013561239881612179565b935060808801356123a881612179565b925060a08801356123b881612179565b8092505060c0880135905092959891949750929550565b600080600080608085870312156123e557600080fd5b84356123f081612179565b93506123fe602086016121ab565b925060408501359150606085013561241581612179565b939692955090935050565b6020808252825182820181905260009190848201906040850190845b818110156124615783516001600160a01b03168352928401929184019160010161243c565b50909695505050505050565b60006020828403121561247f57600080fd5b6105db826121ab565b60006020828403121561249a57600080fd5b5051919050565b634e487b7160e01b600052602160045260246000fd5b600080604083850312156124ca57600080fd5b505080516020909101519092909150565b634e487b7160e01b600052601160045260246000fd5b600082821015612503576125036124db565b500390565b60005b8381101561252357818101518382015260200161250b565b838111156112fe5750506000910152565b6000815180845261254c816020860160208601612508565b601f01601f19169290920160200192915050565b6020815260006105db6020830184612534565b6002811061259157634e487b7160e01b600052602160045260246000fd5b9052565b6001600160a01b0383168152604081016105db6020830184612573565b634e487b7160e01b600052604160045260246000fd5b604051610260810167ffffffffffffffff811182821017156125ec576125ec6125b2565b60405290565b604051601f8201601f1916810167ffffffffffffffff8111828210171561261b5761261b6125b2565b604052919050565b60006020828403121561263557600080fd5b6040516020810181811067ffffffffffffffff82111715612658576126586125b2565b6040529151825250919050565b80516121ba81612179565b805164ffffffffff811681146121ba57600080fd5b6000610260828403121561269857600080fd5b6126a06125c8565b6126aa8484612623565b81526020830151602082015260408301516040820152606083015160608201526080830151608082015260a083015160a082015260c083015160c082015260e083015160e082015261010080840151818301525061012061270c818501612665565b9082015261014061271e848201612665565b90820152610160612730848201612665565b90820152610180612742848201612665565b908201526101a0612754848201612665565b908201526101c0612766848201612670565b908201526101e0612778848201612670565b9082015261020083810151908201526102208084015190820152610240928301519281019290925250919050565b6000606082840312156127b857600080fd5b6040516060810181811067ffffffffffffffff821117156127db576127db6125b2565b80604052508251815260208301516020820152604083015160408201528091505092915050565b6001600160a01b038616815260a0810161281f6020830187612573565b8460408301528360608301528260808301529695505050505050565b600060a0828403121561284d57600080fd5b60405160a0810181811067ffffffffffffffff82111715612870576128706125b2565b806040525082518152602083015160208201526040830151604082015260608301516060820152608083015160808201528091505092915050565b600060208083850312156128be57600080fd5b825167ffffffffffffffff808211156128d657600080fd5b818501915085601f8301126128ea57600080fd5b8151818111156128fc576128fc6125b2565b8060051b915061290d8483016125f2565b818152918301840191848101908884111561292757600080fd5b938501935b83851015612951578451925061294183612179565b828252938501939085019061292c565b98975050505050505050565b6020810161051d8284612573565b805180151581146121ba57600080fd5b60008060006060848603121561299057600080fd5b6129998461296b565b92506129a76020850161296b565b91506121fd6040850161296b565b6000602082840312156129c757600080fd5b6105db8261296b565b6000602082840312156129e257600080fd5b6105db8383612623565b6000602082840312156129fe57600080fd5b81516105db81612179565b60008219821115612a1c57612a1c6124db565b500190565b600082612a3e57634e487b7160e01b600052601260045260246000fd5b500490565b60c081526000612a5660c0830189612534565b60208301979097525060408101949094526060840192909252608083015260a090910152919050565b6000816000190483118215151615612a9957612a996124db565b500290565b60008251612ab0818460208701612508565b919091019291505056fea2646970667358221220ecbd5f760173dc276abbd240bae90b246b712bf3bad4849f70fafb82acfec20f64736f6c63430008090033",
  "deployedBytecode": "0x608060405234801561001057600080fd5b50600436106101cf5760003560e01c806381f7815111610104578063c38354ef116100a2578063ec55688911610071578063ec5568891461043d578063f2fde38b14610450578063f448e14014610463578063f7b188a51461047657600080fd5b8063c38354ef146103e2578063c44b11f7146103f5578063d67bdd2514610417578063e30c39781461042a57600080fd5b80638f32d59b116100de5780638f32d59b1461038b57806397107d6d146103a95780639cc67a0f146103bc578063bc67f832146103cf57600080fd5b806381f78151146103455780638456cb59146103585780638da5cb5b1461036057600080fd5b80634c445bfe1161017157806366d4c4131161014b57806366d4c413146102d857806367fbddf3146102ed578063776f689114610300578063817ad5d31461031357600080fd5b80634c445bfe1461027b5780634e71e0c8146102d05780634f71c597146101fa57600080fd5b8063284592b2116101ad578063284592b21461022057806335ea6a751461023357806343ba226314610253578063452572f31461026857600080fd5b806303d6fa95146101d457806310202fcf146101fa578063207b27df1461020d575b600080fd5b6101e76101e236600461218e565b61047e565b6040519081526020015b60405180910390f35b6101e76102083660046121bf565b610523565b6101e761021b36600461218e565b6105e2565b6101e761022e366004612206565b6107e2565b61024661024136600461218e565b6108b9565b6040516101f1919061223b565b610266610261366004612342565b610a72565b005b6102666102763660046123cf565b610b88565b61028e61028936600461218e565b610e34565b6040516101f19190600060a082019050825182526020830151602083015260408301516040830152606083015160608301526080830151608083015292915050565b610266610f06565b6102e0610f8e565b6040516101f19190612420565b6101e76102fb36600461246d565b611011565b6101e761030e366004612206565b611090565b61032661032136600461218e565b61110e565b60408051931515845291151560208401521515908201526060016101f1565b61026661035336600461218e565b6111bc565b610266611298565b600054610373906001600160a01b031681565b6040516001600160a01b0390911681526020016101f1565b6000546001600160a01b0316331460405190151581526020016101f1565b6102666103b736600461218e565b611304565b6101e76103ca36600461218e565b6113bf565b6102666103dd36600461218e565b611412565b6102666103f03660046123cf565b611449565b61040861040336600461218e565b6116b4565b604051905181526020016101f1565b600454610373906001600160a01b031681565b600154610373906001600160a01b031681565b600354610373906001600160a01b031681565b61026661045e36600461218e565b61179f565b600254610373906001600160a01b031681565b610266611828565b600061048861187a565b6040517f03d6fa950000000000000000000000000000000000000000000000000000000081526001600160a01b03848116600483015291909116906303d6fa95906024015b60206040518083038186803b1580156104e557600080fd5b505afa1580156104f9573d6000803e3d6000fd5b505050506040513d601f19601f8201168201806040525081019061051d9190612488565b92915050565b60008061052f856108b9565b90506000836001811115610545576105456124a1565b610555575061018081015161055d565b506101a08101515b6040516370a0823160e01b81526001600160a01b0386811660048301528216906370a082319060240160206040518083038186803b15801561059e57600080fd5b505afa1580156105b2573d6000803e3d6000fd5b505050506040513d601f19601f820116820180604052508101906105d69190612488565b925050505b9392505050565b6000806105ee836108b9565b905060008060006105fd61187a565b6040517f4d44ac4f0000000000000000000000000000000000000000000000000000000081526001600160a01b03888116600483015291925090821690634d44ac4f90602401604080518083038186803b15801561065a57600080fd5b505afa15801561066e573d6000803e3d6000fd5b505050506040513d601f19601f8201168201806040525081019061069291906124b7565b909350915060006106a38484611980565b90506000856101a001516001600160a01b031663d41e97206040518163ffffffff1660e01b815260040160206040518083038186803b1580156106e557600080fd5b505afa1580156106f9573d6000803e3d6000fd5b505050506040513d601f19601f8201168201806040525081019061071d9190612488565b6101a08701516040516370a0823160e01b81526001600160a01b03918216600482015291925060009183918b16906370a082319060240160206040518083038186803b15801561076c57600080fd5b505afa158015610780573d6000803e3d6000fd5b505050506040513d601f19601f820116820180604052508101906107a49190612488565b6107ae91906124f1565b9050600083156107d1576107cc6107c58386611980565b859061198c565b6107d4565b60005b9a9950505050505050505050565b60006001600160a01b0383163b151560405180604001604052806002815260200161036360f41b815250906108335760405162461bcd60e51b815260040161082a9190612560565b60405180910390fd5b5061083c61187a565b6001600160a01b031663284592b284846040518363ffffffff1660e01b8152600401610869929190612595565b60206040518083038186803b15801561088157600080fd5b505afa158015610895573d6000803e3d6000fd5b505050506040513d601f19601f820116820180604052508101906105db9190612488565b6109936040805161028081019091526000610260820190815281908152602001600081526020016000815260200160008152602001600081526020016000815260200160008152602001600081526020016000815260200160006001600160a01b0316815260200160006001600160a01b0316815260200160006001600160a01b0316815260200160006001600160a01b0316815260200160006001600160a01b03168152602001600064ffffffffff168152602001600064ffffffffff1681526020016000815260200160008152602001600081525090565b604080518082019091526002815261036360f41b60208201526001600160a01b0383163b6109d45760405162461bcd60e51b815260040161082a9190612560565b506109dd61187a565b6040517f35ea6a750000000000000000000000000000000000000000000000000000000081526001600160a01b03848116600483015291909116906335ea6a75906024016102606040518083038186803b158015610a3a57600080fd5b505afa158015610a4e573d6000803e3d6000fd5b505050506040513d601f19601f8201168201806040525081019061051d9190612685565b610a7a6119ce565b610a82611a2a565b604080518082019091526002815261036360f41b60208201526001600160a01b0388163b610ac35760405162461bcd60e51b815260040161082a9190612560565b50610acc61187a565b6040517f43ba22630000000000000000000000000000000000000000000000000000000081526001600160a01b038981166004830152888116602483015287811660448301528681166064830152858116608483015284811660a483015260c4820184905291909116906343ba22639060e401600060405180830381600087803b158015610b5957600080fd5b505af1158015610b6d573d6000803e3d6000fd5b50505050610b7f878787878786611c23565b50505050505050565b610b906119ce565b6000610b9a61187a565b90506000610ba7866108b9565b9050600080866001811115610bbe57610bbe6124a1565b610bda578261018001519150610bd38861047e565b9050610bee565b826101a001519150610beb886113bf565b90505b6040516370a0823160e01b81526001600160a01b038681166004830152600091908416906370a082319060240160206040518083038186803b158015610c3357600080fd5b505afa158015610c47573d6000803e3d6000fd5b505050506040513d601f19601f82011682018060405250810190610c6b9190612488565b905086600019811415610c7b5750805b6040517f3de5f35f0000000000000000000000000000000000000000000000000000000081526001600160a01b038b8116600483015260009190881690633de5f35f9060240160606040518083038186803b158015610cd957600080fd5b505afa158015610ced573d6000803e3d6000fd5b505050506040513d601f19601f82011682018060405250810190610d1191906127a6565b60208101518151919250600091610d2791611980565b60408381015190517ff5298aca0000000000000000000000000000000000000000000000000000000081526001600160a01b038c811660048301526024820187905260448201899052929350909188169063f5298aca90606401600060405180830381600087803b158015610d9b57600080fd5b505af1158015610daf573d6000803e3d6000fd5b50505050886001600160a01b031663f46a2bd48e8e8786866040518663ffffffff1660e01b8152600401610de7959493929190612802565b600060405180830381600087803b158015610e0157600080fd5b505af1158015610e15573d6000803e3d6000fd5b50505050610e258d8b8e8e611d07565b50505050505050505050505050565b610e666040518060a0016040528060008152602001600081526020016000815260200160008152602001600081525090565b6000610e7061187a565b6040517f4c445bfe0000000000000000000000000000000000000000000000000000000081526001600160a01b03858116600483015291925090821690634c445bfe9060240160a06040518083038186803b158015610ece57600080fd5b505afa158015610ee2573d6000803e3d6000fd5b505050506040513d601f19601f820116820180604052508101906105db919061283b565b6001546001600160a01b03163314610f1d57600080fd5b600154600080546040516001600160a01b0393841693909116917f8be0079c531659141344cd1fd0a4f28419497f9722a3daafe3b4186f6b6457e091a3600180546000805473ffffffffffffffffffffffffffffffffffffffff199081166001600160a01b03841617909155169055565b6060610f9861187a565b6001600160a01b03166366d4c4136040518163ffffffff1660e01b815260040160006040518083038186803b158015610fd057600080fd5b505afa158015610fe4573d6000803e3d6000fd5b505050506040513d6000823e601f3d908101601f1916820160405261100c91908101906128ab565b905090565b6040517f10a01f1a00000000000000000000000000000000000000000000000000000000815260009073__$d3b4366daeb9cadc7528af6145b50b2183$__906310a01f1a9061106490859060040161295d565b60206040518083038186803b15801561107c57600080fd5b505af41580156104f9573d6000803e3d6000fd5b60006001600160a01b0383163b151560405180604001604052806002815260200161036360f41b815250906110d85760405162461bcd60e51b815260040161082a9190612560565b506110e161187a565b6001600160a01b031663776f689184846040518363ffffffff1660e01b8152600401610869929190612595565b600080600061111b61187a565b6040517f817ad5d30000000000000000000000000000000000000000000000000000000081526001600160a01b038681166004830152919091169063817ad5d39060240160606040518083038186803b15801561117757600080fd5b505afa15801561118b573d6000803e3d6000fd5b505050506040513d601f19601f820116820180604052508101906111af919061297b565b9250925092509193909250565b6111c46119ce565b6111cc611a2a565b604080518082019091526002815261036360f41b60208201526001600160a01b0382163b61120d5760405162461bcd60e51b815260040161082a9190612560565b5061121661187a565b6040517f81f781510000000000000000000000000000000000000000000000000000000081526001600160a01b03838116600483015291909116906381f7815190602401600060405180830381600087803b15801561127457600080fd5b505af1158015611288573d6000803e3d6000fd5b5050505061129581611dd6565b50565b6112a06119ce565b6112a8611a2a565b6112b061187a565b6001600160a01b0316638456cb596040518163ffffffff1660e01b8152600401600060405180830381600087803b1580156112ea57600080fd5b505af11580156112fe573d6000803e3d6000fd5b50505050565b6000546001600160a01b0316331461135e5760405162461bcd60e51b815260206004820181905260248201527f4f776e61626c653a2063616c6c6572206973206e6f7420746865206f776e6572604482015260640161082a565b6003805473ffffffffffffffffffffffffffffffffffffffff19166001600160a01b0383169081179091556040519081527ffc80377ca9c49cc11ae6982f390a42db976d5530af7c43889264b13fbbd7c57e9060200160405180910390a150565b60006113c961187a565b6040517f9cc67a0f0000000000000000000000000000000000000000000000000000000081526001600160a01b0384811660048301529190911690639cc67a0f906024016104cd565b61141a6119ce565b6004805473ffffffffffffffffffffffffffffffffffffffff19166001600160a01b0392909216919091179055565b6114516119ce565b600061145b61187a565b90506000611468866108b9565b6040517f3de5f35f0000000000000000000000000000000000000000000000000000000081526001600160a01b038881166004830152919250600091841690633de5f35f9060240160606040518083038186803b1580156114c857600080fd5b505afa1580156114dc573d6000803e3d6000fd5b505050506040513d601f19601f8201168201806040525081019061150091906127a6565b6020810151815191925060009161151691611980565b60408084015190517f0fc3a8be000000000000000000000000000000000000000000000000000000008152919250906001600160a01b03861690630fc3a8be9061156c908c908c908c9088908890600401612802565b600060405180830381600087803b15801561158657600080fd5b505af115801561159a573d6000803e3d6000fd5b505050506000808960018111156115b3576115b36124a1565b6115cf5785610180015191506115c88b61047e565b90506115e3565b856101a0015191506115e08b6113bf565b90505b6040517f156e29f60000000000000000000000000000000000000000000000000000000081526001600160a01b038981166004830152602482018b90526044820183905283169063156e29f690606401602060405180830381600087803b15801561164d57600080fd5b505af1158015611661573d6000803e3d6000fd5b505050506040513d601f19601f8201168201806040525081019061168591906129b5565b5061169b6001600160a01b038c1689848c611e78565b6116a78b898c8c611f00565b5050505050505050505050565b60408051602080820183526000825282518084019093526002835261036360f41b90830152906001600160a01b0383163b6117025760405162461bcd60e51b815260040161082a9190612560565b5061170b61187a565b6040517fc44b11f70000000000000000000000000000000000000000000000000000000081526001600160a01b038481166004830152919091169063c44b11f79060240160206040518083038186803b15801561176757600080fd5b505afa15801561177b573d6000803e3d6000fd5b505050506040513d601f19601f8201168201806040525081019061051d91906129d0565b6000546001600160a01b031633146117f95760405162461bcd60e51b815260206004820181905260248201527f4f776e61626c653a2063616c6c6572206973206e6f7420746865206f776e6572604482015260640161082a565b6001805473ffffffffffffffffffffffffffffffffffffffff19166001600160a01b0392909216919091179055565b6118306119ce565b611838611a2a565b61184061187a565b6001600160a01b031663f7b188a56040518163ffffffff1660e01b8152600401600060405180830381600087803b1580156112ea57600080fd5b600254604080517f94f6744300000000000000000000000000000000000000000000000000000000815290516000926001600160a01b0316916394f67443916004808301926020929190829003018186803b1580156118d857600080fd5b505afa1580156118ec573d6000803e3d6000fd5b505050506040513d601f19601f8201168201806040525081019061191091906129ec565b6001600160a01b031663648cd56e6040518163ffffffff1660e01b815260040160206040518083038186803b15801561194857600080fd5b505afa15801561195c573d6000803e3d6000fd5b505050506040513d601f19601f8201168201806040525081019061100c91906129ec565b60006105db8284612a09565b60008061199a600284612a21565b90506119c6836119c06119b9876b033b2e3c9fd0803ce8000000611f63565b8490611980565b90611f6f565b949350505050565b6003546001600160a01b03163314611a285760405162461bcd60e51b815260206004820152601760248201527f4f6e6c79207468652070726f78792063616e2063616c6c000000000000000000604482015260640161082a565b565b600254604080517f05a2ee2a00000000000000000000000000000000000000000000000000000000815290516001600160a01b039092169160009183916305a2ee2a91600480820192602092909190829003018186803b158015611a8d57600080fd5b505afa158015611aa1573d6000803e3d6000fd5b505050506040513d601f19601f82011682018060405250810190611ac591906129ec565b90506000816001600160a01b031663c2c855c26040518163ffffffff1660e01b815260040160206040518083038186803b158015611b0257600080fd5b505afa158015611b16573d6000803e3d6000fd5b505050506040513d601f19601f82011682018060405250810190611b3a91906129ec565b600480546040517fdf89b3440000000000000000000000000000000000000000000000000000000081526001600160a01b0391821692810192909252919250829182169063df89b3449060240160206040518083038186803b158015611b9f57600080fd5b505afa158015611bb3573d6000803e3d6000fd5b505050506040513d601f19601f82011682018060405250810190611bd791906129b5565b6112fe5760405162461bcd60e51b815260206004820152600f60248201527f4e6f74207661756c742061646d696e0000000000000000000000000000000000604482015260640161082a565b600354604080516001600160a01b038881166020830152878116928201929092528582166060820152848216608082015260a0810184905291169063907dff979060c00160405160208183030381529060405260027f87ab4fd631105632ce36b278113270da61b7acd7ed7528795619812cc3fd8bc2611ca98b6001600160a01b031690565b6000806040518763ffffffff1660e01b8152600401611ccd96959493929190612a43565b600060405180830381600087803b158015611ce757600080fd5b505af1158015611cfb573d6000803e3d6000fd5b50505050505050505050565b60035460408051602081018490526001600160a01b039092169163907dff97910160405160208183030381529060405260047fc8c2568a84dc78b4d28cb1be681ed0ee606f40b7c45dc349df83d5dad805890a611d6a896001600160a01b031690565b6001600160a01b038916611d7d89611011565b6040518763ffffffff1660e01b8152600401611d9e96959493929190612a43565b600060405180830381600087803b158015611db857600080fd5b505af1158015611dcc573d6000803e3d6000fd5b5050505050505050565b6003546060906001600160a01b031663907dff978260027f35b80cd8ea3440e9a8454f116fa658b858da1b64c86c48451f4559cefcdfb56c611e1e876001600160a01b031690565b6000806040518763ffffffff1660e01b8152600401611e4296959493929190612a43565b600060405180830381600087803b158015611e5c57600080fd5b505af1158015611e70573d6000803e3d6000fd5b505050505050565b604080516001600160a01b0385811660248301528416604482015260648082018490528251808303909101815260849091019091526020810180517bffffffffffffffffffffffffffffffffffffffffffffffffffffffff167f23b872dd000000000000000000000000000000000000000000000000000000001790526112fe908590611f7b565b60035460408051602081018490526001600160a01b039092169163907dff97910160405160208183030381529060405260047f349f2077a396d7412bc443893a8ca7ccd3b3b67032bbbec87a806436ec959c9f611d6a896001600160a01b031690565b60006105db8284612a7f565b60006105db8284612a21565b6000611fd0826040518060400160405280602081526020017f5361666545524332303a206c6f772d6c6576656c2063616c6c206661696c6564815250856001600160a01b03166120659092919063ffffffff16565b8051909150156120605780806020019051810190611fee91906129b5565b6120605760405162461bcd60e51b815260206004820152602a60248201527f5361666545524332303a204552433230206f7065726174696f6e20646964206e60448201527f6f74207375636365656400000000000000000000000000000000000000000000606482015260840161082a565b505050565b60606119c68484600085856001600160a01b0385163b6120c75760405162461bcd60e51b815260206004820152601d60248201527f416464726573733a2063616c6c20746f206e6f6e2d636f6e7472616374000000604482015260640161082a565b600080866001600160a01b031685876040516120e39190612a9e565b60006040518083038185875af1925050503d8060008114612120576040519150601f19603f3d011682016040523d82523d6000602084013e612125565b606091505b5091509150612135828286612140565b979650505050505050565b6060831561214f5750816105db565b82511561215f5782518084602001fd5b8160405162461bcd60e51b815260040161082a9190612560565b6001600160a01b038116811461129557600080fd5b6000602082840312156121a057600080fd5b81356105db81612179565b8035600281106121ba57600080fd5b919050565b6000806000606084860312156121d457600080fd5b83356121df81612179565b925060208401356121ef81612179565b91506121fd604085016121ab565b90509250925092565b6000806040838503121561221957600080fd5b823561222481612179565b9150612232602084016121ab565b90509250929050565b815151815261026081016020830151602083015260408301516040830152606083015160608301526080830151608083015260a083015160a083015260c083015160c083015260e083015160e0830152610100808401518184015250610120808401516122b2828501826001600160a01b03169052565b5050610140838101516001600160a01b039081169184019190915261016080850151821690840152610180808501518216908401526101a080850151909116908301526101c08084015164ffffffffff908116918401919091526101e080850151909116908301526102008084015190830152610220808401519083015261024092830151929091019190915290565b600080600080600080600060e0888a03121561235d57600080fd5b873561236881612179565b9650602088013561237881612179565b9550604088013561238881612179565b9450606088013561239881612179565b935060808801356123a881612179565b925060a08801356123b881612179565b8092505060c0880135905092959891949750929550565b600080600080608085870312156123e557600080fd5b84356123f081612179565b93506123fe602086016121ab565b925060408501359150606085013561241581612179565b939692955090935050565b6020808252825182820181905260009190848201906040850190845b818110156124615783516001600160a01b03168352928401929184019160010161243c565b50909695505050505050565b60006020828403121561247f57600080fd5b6105db826121ab565b60006020828403121561249a57600080fd5b5051919050565b634e487b7160e01b600052602160045260246000fd5b600080604083850312156124ca57600080fd5b505080516020909101519092909150565b634e487b7160e01b600052601160045260246000fd5b600082821015612503576125036124db565b500390565b60005b8381101561252357818101518382015260200161250b565b838111156112fe5750506000910152565b6000815180845261254c816020860160208601612508565b601f01601f19169290920160200192915050565b6020815260006105db6020830184612534565b6002811061259157634e487b7160e01b600052602160045260246000fd5b9052565b6001600160a01b0383168152604081016105db6020830184612573565b634e487b7160e01b600052604160045260246000fd5b604051610260810167ffffffffffffffff811182821017156125ec576125ec6125b2565b60405290565b604051601f8201601f1916810167ffffffffffffffff8111828210171561261b5761261b6125b2565b604052919050565b60006020828403121561263557600080fd5b6040516020810181811067ffffffffffffffff82111715612658576126586125b2565b6040529151825250919050565b80516121ba81612179565b805164ffffffffff811681146121ba57600080fd5b6000610260828403121561269857600080fd5b6126a06125c8565b6126aa8484612623565b81526020830151602082015260408301516040820152606083015160608201526080830151608082015260a083015160a082015260c083015160c082015260e083015160e082015261010080840151818301525061012061270c818501612665565b9082015261014061271e848201612665565b90820152610160612730848201612665565b90820152610180612742848201612665565b908201526101a0612754848201612665565b908201526101c0612766848201612670565b908201526101e0612778848201612670565b9082015261020083810151908201526102208084015190820152610240928301519281019290925250919050565b6000606082840312156127b857600080fd5b6040516060810181811067ffffffffffffffff821117156127db576127db6125b2565b80604052508251815260208301516020820152604083015160408201528091505092915050565b6001600160a01b038616815260a0810161281f6020830187612573565b8460408301528360608301528260808301529695505050505050565b600060a0828403121561284d57600080fd5b60405160a0810181811067ffffffffffffffff82111715612870576128706125b2565b806040525082518152602083015160208201526040830151604082015260608301516060820152608083015160808201528091505092915050565b600060208083850312156128be57600080fd5b825167ffffffffffffffff808211156128d657600080fd5b818501915085601f8301126128ea57600080fd5b8151818111156128fc576128fc6125b2565b8060051b915061290d8483016125f2565b818152918301840191848101908884111561292757600080fd5b938501935b83851015612951578451925061294183612179565b828252938501939085019061292c565b98975050505050505050565b6020810161051d8284612573565b805180151581146121ba57600080fd5b60008060006060848603121561299057600080fd5b6129998461296b565b92506129a76020850161296b565b91506121fd6040850161296b565b6000602082840312156129c757600080fd5b6105db8261296b565b6000602082840312156129e257600080fd5b6105db8383612623565b6000602082840312156129fe57600080fd5b81516105db81612179565b60008219821115612a1c57612a1c6124db565b500190565b600082612a3e57634e487b7160e01b600052601260045260246000fd5b500490565b60c081526000612a5660c0830189612534565b60208301979097525060408101949094526060840192909252608083015260a090910152919050565b6000816000190483118215151615612a9957612a996124db565b500290565b60008251612ab0818460208701612508565b919091019291505056fea2646970667358221220ecbd5f760173dc276abbd240bae90b246b712bf3bad4849f70fafb82acfec20f64736f6c63430008090033",
  "libraries": {
    "ReserveLogic": "0x196F9673101Bf31261AABaccfFc72EA8779e3D21"
  },
  "devdoc": {
    "kind": "dev",
    "methods": {
      "activeReserve(address)": {
        "details": "Active a reserve for borrowing",
        "params": {
          "_asset": "The address of the reserve*"
        }
      },
      "claimOwnership()": {
        "details": "Allows the pendingOwner address to finalize the transfer."
      },
      "initReserve(address,address,address,address,address,address,uint256)": {
        "details": "Initializes a reserve, activating it, assigning two deposit tokens and an interest rate strategy Only callable by protocol operator",
        "params": {
          "_asset": "The address of the underlying asset of the reserve",
          "_interestRateStrategyAddress": "The address of the interest rate strategy contract",
          "_juniorDepositTokenAddress": "The address of the junior deposit token that will be assigned to the reserve",
          "_optimalIncomeRatio": "The ratio of income ratio*",
          "_seniorDepositTokenAddress": "The address of the senior deposit token that will be assigned to the reserve"
        }
      },
      "isOwner()": {
        "details": "Returns true if the caller is the current owner."
      },
      "pause()": {
        "details": "Pause the protocol*"
      },
      "transferOwnership(address)": {
        "details": "Allows the current owner to set the pendingOwner address.",
        "params": {
          "newOwner": "The address to transfer ownership to."
        }
      },
      "unPause()": {
        "details": "UnPause the protocol*"
      }
    },
    "version": 1
  },
  "userdoc": {
    "kind": "user",
    "methods": {},
    "version": 1
  },
  "storageLayout": {
    "storage": [
      {
        "astId": 11838,
        "contract": "contracts/component/liquidity/LiquidityManager.sol:LiquidityManager",
        "label": "owner",
        "offset": 0,
        "slot": "0",
        "type": "t_address"
      },
      {
        "astId": 11840,
        "contract": "contracts/component/liquidity/LiquidityManager.sol:LiquidityManager",
        "label": "pendingOwner",
        "offset": 0,
        "slot": "1",
        "type": "t_address"
      },
      {
        "astId": 8715,
        "contract": "contracts/component/liquidity/LiquidityManager.sol:LiquidityManager",
        "label": "voyager",
        "offset": 0,
        "slot": "2",
        "type": "t_contract(Voyager)557"
      },
      {
        "astId": 12098,
        "contract": "contracts/component/liquidity/LiquidityManager.sol:LiquidityManager",
        "label": "proxy",
        "offset": 0,
        "slot": "3",
        "type": "t_contract(Proxy)12085"
      },
      {
        "astId": 12100,
        "contract": "contracts/component/liquidity/LiquidityManager.sol:LiquidityManager",
        "label": "messageSender",
        "offset": 0,
        "slot": "4",
        "type": "t_address"
      }
    ],
    "types": {
      "t_address": {
        "encoding": "inplace",
        "label": "address",
        "numberOfBytes": "20"
      },
      "t_contract(Proxy)12085": {
        "encoding": "inplace",
        "label": "contract Proxy",
        "numberOfBytes": "20"
      },
      "t_contract(Voyager)557": {
        "encoding": "inplace",
        "label": "contract Voyager",
        "numberOfBytes": "20"
      }
    }
  }
}