{
  "address": "0xCEF670C13E09fa80c05F18e59BF2cd2E65c29CA6",
  "abi": [
    {
      "inputs": [
        {
          "internalType": "address",
          "name": "_liquidityManager",
          "type": "address"
        }
      ],
      "stateMutability": "nonpayable",
      "type": "constructor"
    },
    {
      "anonymous": false,
      "inputs": [
        {
          "indexed": false,
          "internalType": "address",
          "name": "associatedContract",
          "type": "address"
        }
      ],
      "name": "AssociatedContractUpdated",
      "type": "event"
    },
    {
      "anonymous": false,
      "inputs": [
        {
          "indexed": true,
          "internalType": "address",
          "name": "previousOwner",
          "type": "address"
        },
        {
          "indexed": true,
          "internalType": "address",
          "name": "newOwner",
          "type": "address"
        }
      ],
      "name": "OwnershipTransferred",
      "type": "event"
    },
    {
      "inputs": [
        {
          "internalType": "address",
          "name": "_asset",
          "type": "address"
        }
      ],
      "name": "activeReserve",
      "outputs": [],
      "stateMutability": "nonpayable",
      "type": "function"
    },
    {
      "inputs": [
        {
          "internalType": "address",
          "name": "",
          "type": "address"
        }
      ],
      "name": "associatedContracts",
      "outputs": [
        {
          "internalType": "bool",
          "name": "",
          "type": "bool"
        }
      ],
      "stateMutability": "view",
      "type": "function"
    },
    {
      "inputs": [],
      "name": "claimOwnership",
      "outputs": [],
      "stateMutability": "nonpayable",
      "type": "function"
    },
    {
      "inputs": [
        {
          "internalType": "uint256",
          "name": "_amount",
          "type": "uint256"
        }
      ],
      "name": "decreaseJuniorDeposit",
      "outputs": [],
      "stateMutability": "nonpayable",
      "type": "function"
    },
    {
      "inputs": [
        {
          "internalType": "uint256",
          "name": "_amount",
          "type": "uint256"
        }
      ],
      "name": "decreaseSeniorDeposit",
      "outputs": [],
      "stateMutability": "nonpayable",
      "type": "function"
    },
    {
      "inputs": [
        {
          "internalType": "address",
          "name": "_asset",
          "type": "address"
        }
      ],
      "name": "getConfiguration",
      "outputs": [
        {
          "components": [
            {
              "internalType": "uint256",
              "name": "data",
              "type": "uint256"
            }
          ],
          "internalType": "struct DataTypes.ReserveConfigurationMap",
          "name": "",
          "type": "tuple"
        }
      ],
      "stateMutability": "view",
      "type": "function"
    },
    {
      "inputs": [],
      "name": "getDepositAndDebt",
      "outputs": [
        {
          "components": [
            {
              "internalType": "uint256",
              "name": "juniorDepositAmount",
              "type": "uint256"
            },
            {
              "internalType": "uint256",
              "name": "seniorDepositAmount",
              "type": "uint256"
            },
            {
              "internalType": "uint256",
              "name": "totalDebt",
              "type": "uint256"
            }
          ],
          "internalType": "struct DataTypes.DepositAndDebt",
          "name": "",
          "type": "tuple"
        }
      ],
      "stateMutability": "view",
      "type": "function"
    },
    {
      "inputs": [
        {
          "internalType": "address",
          "name": "_asset",
          "type": "address"
        }
      ],
      "name": "getFlags",
      "outputs": [
        {
          "internalType": "bool",
          "name": "",
          "type": "bool"
        },
        {
          "internalType": "bool",
          "name": "",
          "type": "bool"
        },
        {
          "internalType": "bool",
          "name": "",
          "type": "bool"
        }
      ],
      "stateMutability": "view",
      "type": "function"
    },
    {
      "inputs": [
        {
          "internalType": "address",
          "name": "_asset",
          "type": "address"
        }
      ],
      "name": "getJuniorLiquidityIndex",
      "outputs": [
        {
          "internalType": "uint256",
          "name": "",
          "type": "uint256"
        }
      ],
      "stateMutability": "view",
      "type": "function"
    },
    {
      "inputs": [
        {
          "internalType": "address",
          "name": "_asset",
          "type": "address"
        },
        {
          "internalType": "enum ReserveLogic.Tranche",
          "name": "_tranche",
          "type": "uint8"
        }
      ],
      "name": "getLiquidityRate",
      "outputs": [
        {
          "internalType": "uint256",
          "name": "",
          "type": "uint256"
        }
      ],
      "stateMutability": "view",
      "type": "function"
    },
    {
      "inputs": [
        {
          "internalType": "address",
          "name": "_asset",
          "type": "address"
        }
      ],
      "name": "getReserveData",
      "outputs": [
        {
          "components": [
            {
              "components": [
                {
                  "internalType": "uint256",
                  "name": "data",
                  "type": "uint256"
                }
              ],
              "internalType": "struct DataTypes.ReserveConfigurationMap",
              "name": "configuration",
              "type": "tuple"
            },
            {
              "internalType": "uint256",
              "name": "currentOverallLiquidityRate",
              "type": "uint256"
            },
            {
              "internalType": "uint256",
              "name": "currentSeniorIncomeAllocation",
              "type": "uint256"
            },
            {
              "internalType": "uint256",
              "name": "currentJuniorIncomeAllocation",
              "type": "uint256"
            },
            {
              "internalType": "uint256",
              "name": "juniorLiquidityIndex",
              "type": "uint256"
            },
            {
              "internalType": "uint256",
              "name": "seniorLiquidityIndex",
              "type": "uint256"
            },
            {
              "internalType": "uint256",
              "name": "totalBorrows",
              "type": "uint256"
            },
            {
              "internalType": "uint256",
              "name": "currentBorrowRate",
              "type": "uint256"
            },
            {
              "internalType": "uint256",
              "name": "securityRequirement",
              "type": "uint256"
            },
            {
              "internalType": "uint256",
              "name": "decimals",
              "type": "uint256"
            },
            {
              "internalType": "address",
              "name": "interestRateStrategyAddress",
              "type": "address"
            },
            {
              "internalType": "address",
              "name": "healthStrategyAddress",
              "type": "address"
            },
            {
              "internalType": "address",
              "name": "juniorDepositTokenAddress",
              "type": "address"
            },
            {
              "internalType": "address",
              "name": "seniorDepositTokenAddress",
              "type": "address"
            },
            {
              "internalType": "address",
              "name": "stableDebtAddress",
              "type": "address"
            },
            {
              "internalType": "uint40",
              "name": "juniorLastUpdateTimestamp",
              "type": "uint40"
            },
            {
              "internalType": "uint40",
              "name": "seniorLastUpdateTimestamp",
              "type": "uint40"
            }
          ],
          "internalType": "struct DataTypes.ReserveData",
          "name": "",
          "type": "tuple"
        }
      ],
      "stateMutability": "view",
      "type": "function"
    },
    {
      "inputs": [],
      "name": "getReserveList",
      "outputs": [
        {
          "internalType": "address[]",
          "name": "",
          "type": "address[]"
        }
      ],
      "stateMutability": "view",
      "type": "function"
    },
    {
      "inputs": [
        {
          "internalType": "address",
          "name": "_asset",
          "type": "address"
        },
        {
          "internalType": "enum ReserveLogic.Tranche",
          "name": "_tranche",
          "type": "uint8"
        }
      ],
      "name": "getReserveNormalizedIncome",
      "outputs": [
        {
          "internalType": "uint256",
          "name": "",
          "type": "uint256"
        }
      ],
      "stateMutability": "view",
      "type": "function"
    },
    {
      "inputs": [
        {
          "internalType": "address",
          "name": "_asset",
          "type": "address"
        }
      ],
      "name": "getSeniorLiquidityIndex",
      "outputs": [
        {
          "internalType": "uint256",
          "name": "",
          "type": "uint256"
        }
      ],
      "stateMutability": "view",
      "type": "function"
    },
    {
      "inputs": [
        {
          "internalType": "uint256",
          "name": "_amount",
          "type": "uint256"
        }
      ],
      "name": "increaseJuniorDeposit",
      "outputs": [],
      "stateMutability": "nonpayable",
      "type": "function"
    },
    {
      "inputs": [
        {
          "internalType": "uint256",
          "name": "_amount",
          "type": "uint256"
        }
      ],
      "name": "increaseSeniorDeposit",
      "outputs": [],
      "stateMutability": "nonpayable",
      "type": "function"
    },
    {
      "inputs": [
        {
          "internalType": "uint256",
          "name": "_amount",
          "type": "uint256"
        }
      ],
      "name": "increaseTotalDebt",
      "outputs": [],
      "stateMutability": "nonpayable",
      "type": "function"
    },
    {
      "inputs": [
        {
          "internalType": "address",
          "name": "_asset",
          "type": "address"
        },
        {
          "internalType": "address",
          "name": "_juniorDepositTokenAddress",
          "type": "address"
        },
        {
          "internalType": "address",
          "name": "_seniorDepositTokenAddress",
          "type": "address"
        },
        {
          "internalType": "uint256",
          "name": "_juniorIncomeAllocation",
          "type": "uint256"
        },
        {
          "internalType": "uint256",
          "name": "_seniorIncomeAllocation",
          "type": "uint256"
        },
        {
          "internalType": "address",
          "name": "_stableDebtAddress",
          "type": "address"
        },
        {
          "internalType": "address",
          "name": "_interestRateStrategyAddress",
          "type": "address"
        },
        {
          "internalType": "address",
          "name": "_healthStrategyAddress",
          "type": "address"
        }
      ],
      "name": "initReserve",
      "outputs": [],
      "stateMutability": "nonpayable",
      "type": "function"
    },
    {
      "inputs": [],
      "name": "isOwner",
      "outputs": [
        {
          "internalType": "bool",
          "name": "",
          "type": "bool"
        }
      ],
      "stateMutability": "view",
      "type": "function"
    },
    {
      "inputs": [],
      "name": "juniorDepositAmount",
      "outputs": [
        {
          "internalType": "uint256",
          "name": "",
          "type": "uint256"
        }
      ],
      "stateMutability": "view",
      "type": "function"
    },
    {
      "inputs": [],
      "name": "owner",
      "outputs": [
        {
          "internalType": "address",
          "name": "",
          "type": "address"
        }
      ],
      "stateMutability": "view",
      "type": "function"
    },
    {
      "inputs": [],
      "name": "pause",
      "outputs": [],
      "stateMutability": "nonpayable",
      "type": "function"
    },
    {
      "inputs": [],
      "name": "paused",
      "outputs": [
        {
          "internalType": "bool",
          "name": "",
          "type": "bool"
        }
      ],
      "stateMutability": "view",
      "type": "function"
    },
    {
      "inputs": [],
      "name": "pendingOwner",
      "outputs": [
        {
          "internalType": "address",
          "name": "",
          "type": "address"
        }
      ],
      "stateMutability": "view",
      "type": "function"
    },
    {
      "inputs": [],
      "name": "seniorDepositAmount",
      "outputs": [
        {
          "internalType": "uint256",
          "name": "",
          "type": "uint256"
        }
      ],
      "stateMutability": "view",
      "type": "function"
    },
    {
      "inputs": [
        {
          "internalType": "address",
          "name": "_associatedContract",
          "type": "address"
        }
      ],
      "name": "setAssociatedContract",
      "outputs": [],
      "stateMutability": "nonpayable",
      "type": "function"
    },
    {
      "inputs": [],
      "name": "totalDebt",
      "outputs": [
        {
          "internalType": "uint256",
          "name": "",
          "type": "uint256"
        }
      ],
      "stateMutability": "view",
      "type": "function"
    },
    {
      "inputs": [
        {
          "internalType": "address",
          "name": "newOwner",
          "type": "address"
        }
      ],
      "name": "transferOwnership",
      "outputs": [],
      "stateMutability": "nonpayable",
      "type": "function"
    },
    {
      "inputs": [],
      "name": "unPause",
      "outputs": [],
      "stateMutability": "nonpayable",
      "type": "function"
    },
    {
      "inputs": [
        {
          "internalType": "address",
          "name": "_asset",
          "type": "address"
        },
        {
          "internalType": "uint256",
          "name": "_amount",
          "type": "uint256"
        }
      ],
      "name": "updateStateOnBorrow",
      "outputs": [],
      "stateMutability": "nonpayable",
      "type": "function"
    },
    {
      "inputs": [
        {
          "internalType": "address",
          "name": "_asset",
          "type": "address"
        },
        {
          "internalType": "enum ReserveLogic.Tranche",
          "name": "_tranche",
          "type": "uint8"
        },
        {
          "internalType": "uint256",
          "name": "_amount",
          "type": "uint256"
        }
      ],
      "name": "updateStateOnDeposit",
      "outputs": [],
      "stateMutability": "nonpayable",
      "type": "function"
    }
  ],
  "transactionHash": "0xa8986ca4a03b9f35bb2ba0c7357eaca8a2a7898b5085835c0e20355d9282a4da",
  "args": [
    "0x7f941D367811770b4c69E4E753438CBe7F3A28de"
  ],
  "numDeployments": 1,
  "solcInputHash": "0f898a17407875c075faf6ebb8a19730",
  "bytecode": "0x60806040523480156200001157600080fd5b506040516200324038038062003240833981810160405281019062000037919062000289565b80336000806101000a81548173ffffffffffffffffffffffffffffffffffffffff021916908373ffffffffffffffffffffffffffffffffffffffff16021790555060008054906101000a900473ffffffffffffffffffffffffffffffffffffffff1673ffffffffffffffffffffffffffffffffffffffff16600073ffffffffffffffffffffffffffffffffffffffff167f8be0079c531659141344cd1fd0a4f28419497f9722a3daafe3b4186f6b6457e060405160405180910390a3600073ffffffffffffffffffffffffffffffffffffffff1660008054906101000a900473ffffffffffffffffffffffffffffffffffffffff1673ffffffffffffffffffffffffffffffffffffffff16141562000186576040517f08c379a00000000000000000000000000000000000000000000000000000000081526004016200017d906200031c565b60405180910390fd5b6001600260008373ffffffffffffffffffffffffffffffffffffffff1673ffffffffffffffffffffffffffffffffffffffff16815260200190815260200160002060006101000a81548160ff0219169083151502179055507f73f20cff579e8a4086fa607db83867595f1b6a798e718c0bfa0b94a404128e03816040516200020f91906200034f565b60405180910390a150506200036c565b600080fd5b600073ffffffffffffffffffffffffffffffffffffffff82169050919050565b6000620002518262000224565b9050919050565b620002638162000244565b81146200026f57600080fd5b50565b600081519050620002838162000258565b92915050565b600060208284031215620002a257620002a16200021f565b5b6000620002b28482850162000272565b91505092915050565b600082825260208201905092915050565b7f4f776e6572206d75737420626520736574000000000000000000000000000000600082015250565b600062000304601183620002bb565b91506200031182620002cc565b602082019050919050565b600060208201905081810360008301526200033781620002f5565b9050919050565b620003498162000244565b82525050565b60006020820190506200036660008301846200033e565b92915050565b612ec4806200037c6000396000f3fe608060405234801561001057600080fd5b50600436106101e55760003560e01c806382caae151161010f578063c8caf680116100a2578063f7b188a511610071578063f7b188a51461056c578063f815aa1e14610576578063f820414914610592578063fc7b9c18146105ae576101e5565b8063c8caf680146104fa578063e30c397814610516578063eba079f014610534578063f2fde38b14610550576101e5565b80639bd78901116100de5780639bd78901146104605780639cc67a0f1461047c578063c44b11f7146104ac578063c872ac90146104dc576101e5565b806382caae15146103fe5780638456cb591461041a5780638da5cb5b146104245780638f32d59b14610442576101e5565b8063530062ee116101875780636de427df116101565780636de427df14610364578063776f689114610380578063817ad5d3146103b057806381f78151146103e2576101e5565b8063530062ee146102da5780635748ff18146102f85780635c975abb1461032857806366d4c41314610346576101e5565b8063284592b2116101c3578063284592b21461025457806335ea6a75146102845780634e71e0c8146102b457806352f445ca146102be576101e5565b806303d6fa95146101ea5780630d4583951461021a578063146fac4514610238575b600080fd5b61020460048036038101906101ff91906121dd565b6105cc565b6040516102119190612223565b60405180910390f35b610222610618565b60405161022f919061228f565b60405180910390f35b610252600480360381019061024d91906122d6565b610653565b005b61026e60048036038101906102699190612328565b6106fb565b60405161027b9190612223565b60405180910390f35b61029e600480360381019061029991906121dd565b6107ce565b6040516102ab9190612512565b60405180910390f35b6102bc610aa0565b005b6102d860048036038101906102d391906121dd565b610c3c565b005b6102e2610d15565b6040516102ef9190612223565b60405180910390f35b610312600480360381019061030d91906121dd565b610d1b565b60405161031f9190612549565b60405180910390f35b610330610d3b565b60405161033d9190612549565b60405180910390f35b61034e610d52565b60405161035b9190612613565b60405180910390f35b61037e60048036038101906103799190612635565b610e70565b005b61039a60048036038101906103959190612328565b611025565b6040516103a79190612223565b60405180910390f35b6103ca60048036038101906103c591906121dd565b611080565b6040516103d993929190612675565b60405180910390f35b6103fc60048036038101906103f791906121dd565b6110a8565b005b610418600480360381019061041391906122d6565b611167565b005b61042261120f565b005b61042c6112b8565b60405161043991906126bb565b60405180910390f35b61044a6112dc565b6040516104579190612549565b60405180910390f35b61047a600480360381019061047591906122d6565b611333565b005b610496600480360381019061049191906121dd565b6113db565b6040516104a39190612223565b60405180910390f35b6104c660048036038101906104c191906121dd565b611427565b6040516104d391906126f2565b60405180910390f35b6104e461148d565b6040516104f19190612223565b60405180910390f35b610514600480360381019061050f919061270d565b611493565b005b61051e611759565b60405161052b91906126bb565b60405180910390f35b61054e600480360381019061054991906122d6565b61177f565b005b61056a600480360381019061056591906121dd565b611827565b005b6105746118b2565b005b610590600480360381019061058b91906122d6565b61195b565b005b6105ac60048036038101906105a79190612760565b611a03565b005b6105b6611bef565b6040516105c39190612223565b60405180910390f35b6000600360008373ffffffffffffffffffffffffffffffffffffffff1673ffffffffffffffffffffffffffffffffffffffff168152602001908152602001600020600401549050919050565b610620612040565b610628612040565b6006548160000181815250506007548160200181815250506008548160400181815250508091505090565b600260003373ffffffffffffffffffffffffffffffffffffffff1673ffffffffffffffffffffffffffffffffffffffff16815260200190815260200160002060009054906101000a900460ff166106df576040517f08c379a00000000000000000000000000000000000000000000000000000000081526004016106d690612899565b60405180910390fd5b80600860008282546106f191906128e8565b9250508190555050565b6000600360008473ffffffffffffffffffffffffffffffffffffffff1673ffffffffffffffffffffffffffffffffffffffff168152602001908152602001600020733a4B95f219037858F9AeE3Be86E5007F30d0128b63bb43fb809091846040518363ffffffff1660e01b81526004016107769291906129bc565b60206040518083038186803b15801561078e57600080fd5b505af41580156107a2573d6000803e3d6000fd5b505050506040513d601f19601f820116820180604052508101906107c691906129fa565b905092915050565b6107d6612061565b600360008373ffffffffffffffffffffffffffffffffffffffff1673ffffffffffffffffffffffffffffffffffffffff16815260200190815260200160002060405180610220016040529081600082016040518060200160405290816000820154815250508152602001600182015481526020016002820154815260200160038201548152602001600482015481526020016005820154815260200160068201548152602001600782015481526020016008820154815260200160098201548152602001600a820160009054906101000a900473ffffffffffffffffffffffffffffffffffffffff1673ffffffffffffffffffffffffffffffffffffffff1673ffffffffffffffffffffffffffffffffffffffff168152602001600b820160009054906101000a900473ffffffffffffffffffffffffffffffffffffffff1673ffffffffffffffffffffffffffffffffffffffff1673ffffffffffffffffffffffffffffffffffffffff168152602001600c820160009054906101000a900473ffffffffffffffffffffffffffffffffffffffff1673ffffffffffffffffffffffffffffffffffffffff1673ffffffffffffffffffffffffffffffffffffffff168152602001600d820160009054906101000a900473ffffffffffffffffffffffffffffffffffffffff1673ffffffffffffffffffffffffffffffffffffffff1673ffffffffffffffffffffffffffffffffffffffff168152602001600e820160009054906101000a900473ffffffffffffffffffffffffffffffffffffffff1673ffffffffffffffffffffffffffffffffffffffff1673ffffffffffffffffffffffffffffffffffffffff168152602001600e820160149054906101000a900464ffffffffff1664ffffffffff1664ffffffffff168152602001600e820160199054906101000a900464ffffffffff1664ffffffffff1664ffffffffff16815250509050919050565b600160009054906101000a900473ffffffffffffffffffffffffffffffffffffffff1673ffffffffffffffffffffffffffffffffffffffff163373ffffffffffffffffffffffffffffffffffffffff1614610afa57600080fd5b600160009054906101000a900473ffffffffffffffffffffffffffffffffffffffff1673ffffffffffffffffffffffffffffffffffffffff1660008054906101000a900473ffffffffffffffffffffffffffffffffffffffff1673ffffffffffffffffffffffffffffffffffffffff167f8be0079c531659141344cd1fd0a4f28419497f9722a3daafe3b4186f6b6457e060405160405180910390a3600160009054906101000a900473ffffffffffffffffffffffffffffffffffffffff166000806101000a81548173ffffffffffffffffffffffffffffffffffffffff021916908373ffffffffffffffffffffffffffffffffffffffff1602179055506000600160006101000a81548173ffffffffffffffffffffffffffffffffffffffff021916908373ffffffffffffffffffffffffffffffffffffffff160217905550565b610c446112dc565b610c83576040517f08c379a0000000000000000000000000000000000000000000000000000000008152600401610c7a90612a73565b60405180910390fd5b6001600260008373ffffffffffffffffffffffffffffffffffffffff1673ffffffffffffffffffffffffffffffffffffffff16815260200190815260200160002060006101000a81548160ff0219169083151502179055507f73f20cff579e8a4086fa607db83867595f1b6a798e718c0bfa0b94a404128e0381604051610d0a91906126bb565b60405180910390a150565b60065481565b60026020528060005260406000206000915054906101000a900460ff1681565b6000600560029054906101000a900460ff16905090565b60606000600560009054906101000a900461ffff1661ffff1667ffffffffffffffff811115610d8457610d83612a93565b5b604051908082528060200260200182016040528015610db25781602001602082028036833780820191505090505b50905060005b600560009054906101000a900461ffff1661ffff16811015610e68576004600082815260200190815260200160002060009054906101000a900473ffffffffffffffffffffffffffffffffffffffff16828281518110610e1b57610e1a612ac2565b5b602002602001019073ffffffffffffffffffffffffffffffffffffffff16908173ffffffffffffffffffffffffffffffffffffffff16815250508080610e6090612af1565b915050610db8565b508091505090565b600260003373ffffffffffffffffffffffffffffffffffffffff1673ffffffffffffffffffffffffffffffffffffffff16815260200190815260200160002060009054906101000a900460ff16610efc576040517f08c379a0000000000000000000000000000000000000000000000000000000008152600401610ef390612899565b60405180910390fd5b6000600360008473ffffffffffffffffffffffffffffffffffffffff1673ffffffffffffffffffffffffffffffffffffffff168152602001908152602001600020905080733a4B95f219037858F9AeE3Be86E5007F30d0128b63a4c88c07909160016040518363ffffffff1660e01b8152600401610f7b9291906129bc565b60006040518083038186803b158015610f9357600080fd5b505af4158015610fa7573d6000803e3d6000fd5b5050505080733a4B95f219037858F9AeE3Be86E5007F30d0128b636a2da27e9091856000806000886040518763ffffffff1660e01b8152600401610ff096959493929190612b9d565b60006040518083038186803b15801561100857600080fd5b505af415801561101c573d6000803e3d6000fd5b50505050505050565b600061107882600360008673ffffffffffffffffffffffffffffffffffffffff1673ffffffffffffffffffffffffffffffffffffffff168152602001908152602001600020611bf590919063ffffffff16565b905092915050565b60008060008061108f85611427565b905061109a81611cc9565b935093509350509193909250565b600260003373ffffffffffffffffffffffffffffffffffffffff1673ffffffffffffffffffffffffffffffffffffffff16815260200190815260200160002060009054906101000a900460ff16611134576040517f08c379a000000000000000000000000000000000000000000000000000000000815260040161112b90612899565b60405180910390fd5b600061113f82611427565b9050611155600182611d5c90919063ffffffff16565b611163828260000151611da7565b5050565b600260003373ffffffffffffffffffffffffffffffffffffffff1673ffffffffffffffffffffffffffffffffffffffff16815260200190815260200160002060009054906101000a900460ff166111f3576040517f08c379a00000000000000000000000000000000000000000000000000000000081526004016111ea90612899565b60405180910390fd5b80600760008282546112059190612bfe565b9250508190555050565b600260003373ffffffffffffffffffffffffffffffffffffffff1673ffffffffffffffffffffffffffffffffffffffff16815260200190815260200160002060009054906101000a900460ff1661129b576040517f08c379a000000000000000000000000000000000000000000000000000000000815260040161129290612899565b60405180910390fd5b6001600560026101000a81548160ff021916908315150217905550565b60008054906101000a900473ffffffffffffffffffffffffffffffffffffffff1681565b60008060009054906101000a900473ffffffffffffffffffffffffffffffffffffffff1673ffffffffffffffffffffffffffffffffffffffff163373ffffffffffffffffffffffffffffffffffffffff1614905090565b600260003373ffffffffffffffffffffffffffffffffffffffff1673ffffffffffffffffffffffffffffffffffffffff16815260200190815260200160002060009054906101000a900460ff166113bf576040517f08c379a00000000000000000000000000000000000000000000000000000000081526004016113b690612899565b60405180910390fd5b80600660008282546113d191906128e8565b9250508190555050565b6000600360008373ffffffffffffffffffffffffffffffffffffffff1673ffffffffffffffffffffffffffffffffffffffff168152602001908152602001600020600501549050919050565b61142f612167565b600360008373ffffffffffffffffffffffffffffffffffffffff1673ffffffffffffffffffffffffffffffffffffffff1681526020019081526020016000206000016040518060200160405290816000820154815250509050919050565b60075481565b600260003373ffffffffffffffffffffffffffffffffffffffff1673ffffffffffffffffffffffffffffffffffffffff16815260200190815260200160002060009054906101000a900460ff1661151f576040517f08c379a000000000000000000000000000000000000000000000000000000000815260040161151690612899565b60405180910390fd5b6000600360008573ffffffffffffffffffffffffffffffffffffffff1673ffffffffffffffffffffffffffffffffffffffff1681526020019081526020016000209050730fa9de6c78A063E21d828FBE1c9d6296F574994B630eca322b82846040518363ffffffff1660e01b815260040161159b929190612c32565b60006040518083038186803b1580156115b357600080fd5b505af41580156115c7573d6000803e3d6000fd5b5050505080733a4B95f219037858F9AeE3Be86E5007F30d0128b63a4c88c079091856040518363ffffffff1660e01b81526004016116069291906129bc565b60006040518083038186803b15801561161e57600080fd5b505af4158015611632573d6000803e3d6000fd5b5050505082600181111561164957611648612945565b5b6000600181111561165d5761165c612945565b5b14156116dd5780733a4B95f219037858F9AeE3Be86E5007F30d0128b636a2da27e9091868560008060006040518763ffffffff1660e01b81526004016116a896959493929190612c5b565b60006040518083038186803b1580156116c057600080fd5b505af41580156116d4573d6000803e3d6000fd5b50505050611753565b80733a4B95f219037858F9AeE3Be86E5007F30d0128b636a2da27e9091866000808760006040518763ffffffff1660e01b815260040161172296959493929190612cbc565b60006040518083038186803b15801561173a57600080fd5b505af415801561174e573d6000803e3d6000fd5b505050505b50505050565b600160009054906101000a900473ffffffffffffffffffffffffffffffffffffffff1681565b600260003373ffffffffffffffffffffffffffffffffffffffff1673ffffffffffffffffffffffffffffffffffffffff16815260200190815260200160002060009054906101000a900460ff1661180b576040517f08c379a000000000000000000000000000000000000000000000000000000000815260040161180290612899565b60405180910390fd5b806007600082825461181d91906128e8565b9250508190555050565b61182f6112dc565b61186e576040517f08c379a000000000000000000000000000000000000000000000000000000000815260040161186590612a73565b60405180910390fd5b80600160006101000a81548173ffffffffffffffffffffffffffffffffffffffff021916908373ffffffffffffffffffffffffffffffffffffffff16021790555050565b600260003373ffffffffffffffffffffffffffffffffffffffff1673ffffffffffffffffffffffffffffffffffffffff16815260200190815260200160002060009054906101000a900460ff1661193e576040517f08c379a000000000000000000000000000000000000000000000000000000000815260040161193590612899565b60405180910390fd5b6000600560026101000a81548160ff021916908315150217905550565b600260003373ffffffffffffffffffffffffffffffffffffffff1673ffffffffffffffffffffffffffffffffffffffff16815260200190815260200160002060009054906101000a900460ff166119e7576040517f08c379a00000000000000000000000000000000000000000000000000000000081526004016119de90612899565b60405180910390fd5b80600660008282546119f99190612bfe565b9250508190555050565b600260003373ffffffffffffffffffffffffffffffffffffffff1673ffffffffffffffffffffffffffffffffffffffff16815260200190815260200160002060009054906101000a900460ff16611a8f576040517f08c379a0000000000000000000000000000000000000000000000000000000008152600401611a8690612899565b60405180910390fd5b600360008973ffffffffffffffffffffffffffffffffffffffff1673ffffffffffffffffffffffffffffffffffffffff168152602001908152602001600020733a4B95f219037858F9AeE3Be86E5007F30d0128b630c6e37419091898989898989896040518963ffffffff1660e01b8152600401611b14989796959493929190612d1d565b60006040518083038186803b158015611b2c57600080fd5b505af4158015611b40573d6000803e3d6000fd5b505050508760046000600560009054906101000a900461ffff1661ffff16815260200190815260200160002060006101000a81548173ffffffffffffffffffffffffffffffffffffffff021916908373ffffffffffffffffffffffffffffffffffffffff1602179055506005600081819054906101000a900461ffff1680929190611bca90612da9565b91906101000a81548161ffff021916908361ffff160217905550505050505050505050565b60085481565b6000806000806001811115611c0d57611c0c612945565b5b846001811115611c2057611c1f612945565b5b1415611c4a5784600e0160149054906101000a900464ffffffffff16915084600401549050611c6a565b84600e0160199054906101000a900464ffffffffff169150846005015490505b4264ffffffffff168264ffffffffff161415611c8a578092505050611cc3565b6000611cba82611cac611ca6888a611df590919063ffffffff16565b86611eae565b611f1190919063ffffffff16565b90508093505050505b92915050565b6000806000808460000151905060007ffffffffffffffffffffffffffffffffffffffffffffffffffffffffffeffffff198216141560007ffffffffffffffffffffffffffffffffffffffffffffffffffffffffffdffffff198316141560007ffffffffffffffffffffffffffffffffffffffffffffffffffffffffffbffffff1984161415935093509350509193909250565b601881611d6a576000611d6d565b60015b60ff16901b7ffffffffffffffffffffffffffffffffffffffffffffffffffffffffffeffffff836000015116178260000181815250505050565b80600360008473ffffffffffffffffffffffffffffffffffffffff1673ffffffffffffffffffffffffffffffffffffffff168152602001908152602001600020600001600001819055505050565b600080611e1384600201548560030154611f7690919063ffffffff16565b905060006001811115611e2957611e28612945565b5b836001811115611e3c57611e3b612945565b5b1415611e7757611e6f611e5c828660030154611f8c90919063ffffffff16565b8560010154611f1190919063ffffffff16565b915050611ea8565b611ea4611e91828660020154611f8c90919063ffffffff16565b8560010154611f1190919063ffffffff16565b9150505b92915050565b600080611ecb8364ffffffffff1642611fea90919063ffffffff16565b9050611f08611ed8612000565b6301e13380611ef0848861201490919063ffffffff16565b611efa9190612e03565b611f7690919063ffffffff16565b91505092915050565b6000611f6e6b033b2e3c9fd0803ce8000000611f60611f39858761201490919063ffffffff16565b60026b033b2e3c9fd0803ce8000000611f529190612e03565b611f7690919063ffffffff16565b61202a90919063ffffffff16565b905092915050565b60008183611f8491906128e8565b905092915050565b600080600283611f9c9190612e03565b9050611fe183611fd3611fc46b033b2e3c9fd0803ce80000008861201490919063ffffffff16565b84611f7690919063ffffffff16565b61202a90919063ffffffff16565b91505092915050565b60008183611ff89190612bfe565b905092915050565b60006b033b2e3c9fd0803ce8000000905090565b600081836120229190612e34565b905092915050565b600081836120389190612e03565b905092915050565b60405180606001604052806000815260200160008152602001600081525090565b604051806102200160405280612075612167565b8152602001600081526020016000815260200160008152602001600081526020016000815260200160008152602001600081526020016000815260200160008152602001600073ffffffffffffffffffffffffffffffffffffffff168152602001600073ffffffffffffffffffffffffffffffffffffffff168152602001600073ffffffffffffffffffffffffffffffffffffffff168152602001600073ffffffffffffffffffffffffffffffffffffffff168152602001600073ffffffffffffffffffffffffffffffffffffffff168152602001600064ffffffffff168152602001600064ffffffffff1681525090565b6040518060200160405280600081525090565b600080fd5b600073ffffffffffffffffffffffffffffffffffffffff82169050919050565b60006121aa8261217f565b9050919050565b6121ba8161219f565b81146121c557600080fd5b50565b6000813590506121d7816121b1565b92915050565b6000602082840312156121f3576121f261217a565b5b6000612201848285016121c8565b91505092915050565b6000819050919050565b61221d8161220a565b82525050565b60006020820190506122386000830184612214565b92915050565b6122478161220a565b82525050565b606082016000820151612263600085018261223e565b506020820151612276602085018261223e565b506040820151612289604085018261223e565b50505050565b60006060820190506122a4600083018461224d565b92915050565b6122b38161220a565b81146122be57600080fd5b50565b6000813590506122d0816122aa565b92915050565b6000602082840312156122ec576122eb61217a565b5b60006122fa848285016122c1565b91505092915050565b6002811061231057600080fd5b50565b60008135905061232281612303565b92915050565b6000806040838503121561233f5761233e61217a565b5b600061234d858286016121c8565b925050602061235e85828601612313565b9150509250929050565b60208201600082015161237e600085018261223e565b50505050565b61238d8161219f565b82525050565b600064ffffffffff82169050919050565b6123ad81612393565b82525050565b610220820160008201516123ca6000850182612368565b5060208201516123dd602085018261223e565b5060408201516123f0604085018261223e565b506060820151612403606085018261223e565b506080820151612416608085018261223e565b5060a082015161242960a085018261223e565b5060c082015161243c60c085018261223e565b5060e082015161244f60e085018261223e565b5061010082015161246461010085018261223e565b5061012082015161247961012085018261223e565b5061014082015161248e610140850182612384565b506101608201516124a3610160850182612384565b506101808201516124b8610180850182612384565b506101a08201516124cd6101a0850182612384565b506101c08201516124e26101c0850182612384565b506101e08201516124f76101e08501826123a4565b5061020082015161250c6102008501826123a4565b50505050565b60006102208201905061252860008301846123b3565b92915050565b60008115159050919050565b6125438161252e565b82525050565b600060208201905061255e600083018461253a565b92915050565b600081519050919050565b600082825260208201905092915050565b6000819050602082019050919050565b600061259c8383612384565b60208301905092915050565b6000602082019050919050565b60006125c082612564565b6125ca818561256f565b93506125d583612580565b8060005b838110156126065781516125ed8882612590565b97506125f8836125a8565b9250506001810190506125d9565b5085935050505092915050565b6000602082019050818103600083015261262d81846125b5565b905092915050565b6000806040838503121561264c5761264b61217a565b5b600061265a858286016121c8565b925050602061266b858286016122c1565b9150509250929050565b600060608201905061268a600083018661253a565b612697602083018561253a565b6126a4604083018461253a565b949350505050565b6126b58161219f565b82525050565b60006020820190506126d060008301846126ac565b92915050565b6020820160008201516126ec600085018261223e565b50505050565b600060208201905061270760008301846126d6565b92915050565b6000806000606084860312156127265761272561217a565b5b6000612734868287016121c8565b935050602061274586828701612313565b9250506040612756868287016122c1565b9150509250925092565b600080600080600080600080610100898b0312156127815761278061217a565b5b600061278f8b828c016121c8565b98505060206127a08b828c016121c8565b97505060406127b18b828c016121c8565b96505060606127c28b828c016122c1565b95505060806127d38b828c016122c1565b94505060a06127e48b828c016121c8565b93505060c06127f58b828c016121c8565b92505060e06128068b828c016121c8565b9150509295985092959890939650565b600082825260208201905092915050565b7f4f6e6c7920746865206173736f63696174656420636f6e74726163742063616e60008201527f20706572666f726d207468697320616374696f6e000000000000000000000000602082015250565b6000612883603483612816565b915061288e82612827565b604082019050919050565b600060208201905081810360008301526128b281612876565b9050919050565b7f4e487b7100000000000000000000000000000000000000000000000000000000600052601160045260246000fd5b60006128f38261220a565b91506128fe8361220a565b9250827fffffffffffffffffffffffffffffffffffffffffffffffffffffffffffffffff03821115612933576129326128b9565b5b828201905092915050565b8082525050565b7f4e487b7100000000000000000000000000000000000000000000000000000000600052602160045260246000fd5b6002811061298557612984612945565b5b50565b600081905061299682612974565b919050565b60006129a682612988565b9050919050565b6129b68161299b565b82525050565b60006040820190506129d1600083018561293e565b6129de60208301846129ad565b9392505050565b6000815190506129f4816122aa565b92915050565b600060208284031215612a1057612a0f61217a565b5b6000612a1e848285016129e5565b91505092915050565b7f4f776e61626c653a2063616c6c6572206973206e6f7420746865206f776e6572600082015250565b6000612a5d602083612816565b9150612a6882612a27565b602082019050919050565b60006020820190508181036000830152612a8c81612a50565b9050919050565b7f4e487b7100000000000000000000000000000000000000000000000000000000600052604160045260246000fd5b7f4e487b7100000000000000000000000000000000000000000000000000000000600052603260045260246000fd5b6000612afc8261220a565b91507fffffffffffffffffffffffffffffffffffffffffffffffffffffffffffffffff821415612b2f57612b2e6128b9565b5b600182019050919050565b612b438161219f565b82525050565b6000819050919050565b6000819050919050565b6000612b78612b73612b6e84612b49565b612b53565b61220a565b9050919050565b612b8881612b5d565b82525050565b612b978161220a565b82525050565b600060c082019050612bb2600083018961293e565b612bbf6020830188612b3a565b612bcc6040830187612b7f565b612bd96060830186612b7f565b612be66080830185612b7f565b612bf360a0830184612b8e565b979650505050505050565b6000612c098261220a565b9150612c148361220a565b925082821015612c2757612c266128b9565b5b828203905092915050565b6000604082019050612c47600083018561293e565b612c546020830184612b8e565b9392505050565b600060c082019050612c70600083018961293e565b612c7d6020830188612b3a565b612c8a6040830187612b8e565b612c976060830186612b7f565b612ca46080830185612b7f565b612cb160a0830184612b7f565b979650505050505050565b600060c082019050612cd1600083018961293e565b612cde6020830188612b3a565b612ceb6040830187612b7f565b612cf86060830186612b7f565b612d056080830185612b8e565b612d1260a0830184612b7f565b979650505050505050565b600061010082019050612d33600083018b61293e565b612d40602083018a612b3a565b612d4d6040830189612b3a565b612d5a6060830188612b8e565b612d676080830187612b8e565b612d7460a0830186612b3a565b612d8160c0830185612b3a565b612d8e60e0830184612b3a565b9998505050505050505050565b600061ffff82169050919050565b6000612db482612d9b565b915061ffff821415612dc957612dc86128b9565b5b600182019050919050565b7f4e487b7100000000000000000000000000000000000000000000000000000000600052601260045260246000fd5b6000612e0e8261220a565b9150612e198361220a565b925082612e2957612e28612dd4565b5b828204905092915050565b6000612e3f8261220a565b9150612e4a8361220a565b9250817fffffffffffffffffffffffffffffffffffffffffffffffffffffffffffffffff0483118215151615612e8357612e826128b9565b5b82820290509291505056fea26469706673582212200714eb2ecce404c12cec02d9bbf8f2eb94218a8046905cef826167d1cd3de1dd64736f6c63430008090033",
  "deployedBytecode": "0x608060405234801561001057600080fd5b50600436106101e55760003560e01c806382caae151161010f578063c8caf680116100a2578063f7b188a511610071578063f7b188a51461056c578063f815aa1e14610576578063f820414914610592578063fc7b9c18146105ae576101e5565b8063c8caf680146104fa578063e30c397814610516578063eba079f014610534578063f2fde38b14610550576101e5565b80639bd78901116100de5780639bd78901146104605780639cc67a0f1461047c578063c44b11f7146104ac578063c872ac90146104dc576101e5565b806382caae15146103fe5780638456cb591461041a5780638da5cb5b146104245780638f32d59b14610442576101e5565b8063530062ee116101875780636de427df116101565780636de427df14610364578063776f689114610380578063817ad5d3146103b057806381f78151146103e2576101e5565b8063530062ee146102da5780635748ff18146102f85780635c975abb1461032857806366d4c41314610346576101e5565b8063284592b2116101c3578063284592b21461025457806335ea6a75146102845780634e71e0c8146102b457806352f445ca146102be576101e5565b806303d6fa95146101ea5780630d4583951461021a578063146fac4514610238575b600080fd5b61020460048036038101906101ff91906121dd565b6105cc565b6040516102119190612223565b60405180910390f35b610222610618565b60405161022f919061228f565b60405180910390f35b610252600480360381019061024d91906122d6565b610653565b005b61026e60048036038101906102699190612328565b6106fb565b60405161027b9190612223565b60405180910390f35b61029e600480360381019061029991906121dd565b6107ce565b6040516102ab9190612512565b60405180910390f35b6102bc610aa0565b005b6102d860048036038101906102d391906121dd565b610c3c565b005b6102e2610d15565b6040516102ef9190612223565b60405180910390f35b610312600480360381019061030d91906121dd565b610d1b565b60405161031f9190612549565b60405180910390f35b610330610d3b565b60405161033d9190612549565b60405180910390f35b61034e610d52565b60405161035b9190612613565b60405180910390f35b61037e60048036038101906103799190612635565b610e70565b005b61039a60048036038101906103959190612328565b611025565b6040516103a79190612223565b60405180910390f35b6103ca60048036038101906103c591906121dd565b611080565b6040516103d993929190612675565b60405180910390f35b6103fc60048036038101906103f791906121dd565b6110a8565b005b610418600480360381019061041391906122d6565b611167565b005b61042261120f565b005b61042c6112b8565b60405161043991906126bb565b60405180910390f35b61044a6112dc565b6040516104579190612549565b60405180910390f35b61047a600480360381019061047591906122d6565b611333565b005b610496600480360381019061049191906121dd565b6113db565b6040516104a39190612223565b60405180910390f35b6104c660048036038101906104c191906121dd565b611427565b6040516104d391906126f2565b60405180910390f35b6104e461148d565b6040516104f19190612223565b60405180910390f35b610514600480360381019061050f919061270d565b611493565b005b61051e611759565b60405161052b91906126bb565b60405180910390f35b61054e600480360381019061054991906122d6565b61177f565b005b61056a600480360381019061056591906121dd565b611827565b005b6105746118b2565b005b610590600480360381019061058b91906122d6565b61195b565b005b6105ac60048036038101906105a79190612760565b611a03565b005b6105b6611bef565b6040516105c39190612223565b60405180910390f35b6000600360008373ffffffffffffffffffffffffffffffffffffffff1673ffffffffffffffffffffffffffffffffffffffff168152602001908152602001600020600401549050919050565b610620612040565b610628612040565b6006548160000181815250506007548160200181815250506008548160400181815250508091505090565b600260003373ffffffffffffffffffffffffffffffffffffffff1673ffffffffffffffffffffffffffffffffffffffff16815260200190815260200160002060009054906101000a900460ff166106df576040517f08c379a00000000000000000000000000000000000000000000000000000000081526004016106d690612899565b60405180910390fd5b80600860008282546106f191906128e8565b9250508190555050565b6000600360008473ffffffffffffffffffffffffffffffffffffffff1673ffffffffffffffffffffffffffffffffffffffff16815260200190815260200160002073__$d3b4366daeb9cadc7528af6145b50b2183$__63bb43fb809091846040518363ffffffff1660e01b81526004016107769291906129bc565b60206040518083038186803b15801561078e57600080fd5b505af41580156107a2573d6000803e3d6000fd5b505050506040513d601f19601f820116820180604052508101906107c691906129fa565b905092915050565b6107d6612061565b600360008373ffffffffffffffffffffffffffffffffffffffff1673ffffffffffffffffffffffffffffffffffffffff16815260200190815260200160002060405180610220016040529081600082016040518060200160405290816000820154815250508152602001600182015481526020016002820154815260200160038201548152602001600482015481526020016005820154815260200160068201548152602001600782015481526020016008820154815260200160098201548152602001600a820160009054906101000a900473ffffffffffffffffffffffffffffffffffffffff1673ffffffffffffffffffffffffffffffffffffffff1673ffffffffffffffffffffffffffffffffffffffff168152602001600b820160009054906101000a900473ffffffffffffffffffffffffffffffffffffffff1673ffffffffffffffffffffffffffffffffffffffff1673ffffffffffffffffffffffffffffffffffffffff168152602001600c820160009054906101000a900473ffffffffffffffffffffffffffffffffffffffff1673ffffffffffffffffffffffffffffffffffffffff1673ffffffffffffffffffffffffffffffffffffffff168152602001600d820160009054906101000a900473ffffffffffffffffffffffffffffffffffffffff1673ffffffffffffffffffffffffffffffffffffffff1673ffffffffffffffffffffffffffffffffffffffff168152602001600e820160009054906101000a900473ffffffffffffffffffffffffffffffffffffffff1673ffffffffffffffffffffffffffffffffffffffff1673ffffffffffffffffffffffffffffffffffffffff168152602001600e820160149054906101000a900464ffffffffff1664ffffffffff1664ffffffffff168152602001600e820160199054906101000a900464ffffffffff1664ffffffffff1664ffffffffff16815250509050919050565b600160009054906101000a900473ffffffffffffffffffffffffffffffffffffffff1673ffffffffffffffffffffffffffffffffffffffff163373ffffffffffffffffffffffffffffffffffffffff1614610afa57600080fd5b600160009054906101000a900473ffffffffffffffffffffffffffffffffffffffff1673ffffffffffffffffffffffffffffffffffffffff1660008054906101000a900473ffffffffffffffffffffffffffffffffffffffff1673ffffffffffffffffffffffffffffffffffffffff167f8be0079c531659141344cd1fd0a4f28419497f9722a3daafe3b4186f6b6457e060405160405180910390a3600160009054906101000a900473ffffffffffffffffffffffffffffffffffffffff166000806101000a81548173ffffffffffffffffffffffffffffffffffffffff021916908373ffffffffffffffffffffffffffffffffffffffff1602179055506000600160006101000a81548173ffffffffffffffffffffffffffffffffffffffff021916908373ffffffffffffffffffffffffffffffffffffffff160217905550565b610c446112dc565b610c83576040517f08c379a0000000000000000000000000000000000000000000000000000000008152600401610c7a90612a73565b60405180910390fd5b6001600260008373ffffffffffffffffffffffffffffffffffffffff1673ffffffffffffffffffffffffffffffffffffffff16815260200190815260200160002060006101000a81548160ff0219169083151502179055507f73f20cff579e8a4086fa607db83867595f1b6a798e718c0bfa0b94a404128e0381604051610d0a91906126bb565b60405180910390a150565b60065481565b60026020528060005260406000206000915054906101000a900460ff1681565b6000600560029054906101000a900460ff16905090565b60606000600560009054906101000a900461ffff1661ffff1667ffffffffffffffff811115610d8457610d83612a93565b5b604051908082528060200260200182016040528015610db25781602001602082028036833780820191505090505b50905060005b600560009054906101000a900461ffff1661ffff16811015610e68576004600082815260200190815260200160002060009054906101000a900473ffffffffffffffffffffffffffffffffffffffff16828281518110610e1b57610e1a612ac2565b5b602002602001019073ffffffffffffffffffffffffffffffffffffffff16908173ffffffffffffffffffffffffffffffffffffffff16815250508080610e6090612af1565b915050610db8565b508091505090565b600260003373ffffffffffffffffffffffffffffffffffffffff1673ffffffffffffffffffffffffffffffffffffffff16815260200190815260200160002060009054906101000a900460ff16610efc576040517f08c379a0000000000000000000000000000000000000000000000000000000008152600401610ef390612899565b60405180910390fd5b6000600360008473ffffffffffffffffffffffffffffffffffffffff1673ffffffffffffffffffffffffffffffffffffffff16815260200190815260200160002090508073__$d3b4366daeb9cadc7528af6145b50b2183$__63a4c88c07909160016040518363ffffffff1660e01b8152600401610f7b9291906129bc565b60006040518083038186803b158015610f9357600080fd5b505af4158015610fa7573d6000803e3d6000fd5b505050508073__$d3b4366daeb9cadc7528af6145b50b2183$__636a2da27e9091856000806000886040518763ffffffff1660e01b8152600401610ff096959493929190612b9d565b60006040518083038186803b15801561100857600080fd5b505af415801561101c573d6000803e3d6000fd5b50505050505050565b600061107882600360008673ffffffffffffffffffffffffffffffffffffffff1673ffffffffffffffffffffffffffffffffffffffff168152602001908152602001600020611bf590919063ffffffff16565b905092915050565b60008060008061108f85611427565b905061109a81611cc9565b935093509350509193909250565b600260003373ffffffffffffffffffffffffffffffffffffffff1673ffffffffffffffffffffffffffffffffffffffff16815260200190815260200160002060009054906101000a900460ff16611134576040517f08c379a000000000000000000000000000000000000000000000000000000000815260040161112b90612899565b60405180910390fd5b600061113f82611427565b9050611155600182611d5c90919063ffffffff16565b611163828260000151611da7565b5050565b600260003373ffffffffffffffffffffffffffffffffffffffff1673ffffffffffffffffffffffffffffffffffffffff16815260200190815260200160002060009054906101000a900460ff166111f3576040517f08c379a00000000000000000000000000000000000000000000000000000000081526004016111ea90612899565b60405180910390fd5b80600760008282546112059190612bfe565b9250508190555050565b600260003373ffffffffffffffffffffffffffffffffffffffff1673ffffffffffffffffffffffffffffffffffffffff16815260200190815260200160002060009054906101000a900460ff1661129b576040517f08c379a000000000000000000000000000000000000000000000000000000000815260040161129290612899565b60405180910390fd5b6001600560026101000a81548160ff021916908315150217905550565b60008054906101000a900473ffffffffffffffffffffffffffffffffffffffff1681565b60008060009054906101000a900473ffffffffffffffffffffffffffffffffffffffff1673ffffffffffffffffffffffffffffffffffffffff163373ffffffffffffffffffffffffffffffffffffffff1614905090565b600260003373ffffffffffffffffffffffffffffffffffffffff1673ffffffffffffffffffffffffffffffffffffffff16815260200190815260200160002060009054906101000a900460ff166113bf576040517f08c379a00000000000000000000000000000000000000000000000000000000081526004016113b690612899565b60405180910390fd5b80600660008282546113d191906128e8565b9250508190555050565b6000600360008373ffffffffffffffffffffffffffffffffffffffff1673ffffffffffffffffffffffffffffffffffffffff168152602001908152602001600020600501549050919050565b61142f612167565b600360008373ffffffffffffffffffffffffffffffffffffffff1673ffffffffffffffffffffffffffffffffffffffff1681526020019081526020016000206000016040518060200160405290816000820154815250509050919050565b60075481565b600260003373ffffffffffffffffffffffffffffffffffffffff1673ffffffffffffffffffffffffffffffffffffffff16815260200190815260200160002060009054906101000a900460ff1661151f576040517f08c379a000000000000000000000000000000000000000000000000000000000815260040161151690612899565b60405180910390fd5b6000600360008573ffffffffffffffffffffffffffffffffffffffff1673ffffffffffffffffffffffffffffffffffffffff168152602001908152602001600020905073__$5201a97c05ba6aa659e2f36a933dd51801$__630eca322b82846040518363ffffffff1660e01b815260040161159b929190612c32565b60006040518083038186803b1580156115b357600080fd5b505af41580156115c7573d6000803e3d6000fd5b505050508073__$d3b4366daeb9cadc7528af6145b50b2183$__63a4c88c079091856040518363ffffffff1660e01b81526004016116069291906129bc565b60006040518083038186803b15801561161e57600080fd5b505af4158015611632573d6000803e3d6000fd5b5050505082600181111561164957611648612945565b5b6000600181111561165d5761165c612945565b5b14156116dd578073__$d3b4366daeb9cadc7528af6145b50b2183$__636a2da27e9091868560008060006040518763ffffffff1660e01b81526004016116a896959493929190612c5b565b60006040518083038186803b1580156116c057600080fd5b505af41580156116d4573d6000803e3d6000fd5b50505050611753565b8073__$d3b4366daeb9cadc7528af6145b50b2183$__636a2da27e9091866000808760006040518763ffffffff1660e01b815260040161172296959493929190612cbc565b60006040518083038186803b15801561173a57600080fd5b505af415801561174e573d6000803e3d6000fd5b505050505b50505050565b600160009054906101000a900473ffffffffffffffffffffffffffffffffffffffff1681565b600260003373ffffffffffffffffffffffffffffffffffffffff1673ffffffffffffffffffffffffffffffffffffffff16815260200190815260200160002060009054906101000a900460ff1661180b576040517f08c379a000000000000000000000000000000000000000000000000000000000815260040161180290612899565b60405180910390fd5b806007600082825461181d91906128e8565b9250508190555050565b61182f6112dc565b61186e576040517f08c379a000000000000000000000000000000000000000000000000000000000815260040161186590612a73565b60405180910390fd5b80600160006101000a81548173ffffffffffffffffffffffffffffffffffffffff021916908373ffffffffffffffffffffffffffffffffffffffff16021790555050565b600260003373ffffffffffffffffffffffffffffffffffffffff1673ffffffffffffffffffffffffffffffffffffffff16815260200190815260200160002060009054906101000a900460ff1661193e576040517f08c379a000000000000000000000000000000000000000000000000000000000815260040161193590612899565b60405180910390fd5b6000600560026101000a81548160ff021916908315150217905550565b600260003373ffffffffffffffffffffffffffffffffffffffff1673ffffffffffffffffffffffffffffffffffffffff16815260200190815260200160002060009054906101000a900460ff166119e7576040517f08c379a00000000000000000000000000000000000000000000000000000000081526004016119de90612899565b60405180910390fd5b80600660008282546119f99190612bfe565b9250508190555050565b600260003373ffffffffffffffffffffffffffffffffffffffff1673ffffffffffffffffffffffffffffffffffffffff16815260200190815260200160002060009054906101000a900460ff16611a8f576040517f08c379a0000000000000000000000000000000000000000000000000000000008152600401611a8690612899565b60405180910390fd5b600360008973ffffffffffffffffffffffffffffffffffffffff1673ffffffffffffffffffffffffffffffffffffffff16815260200190815260200160002073__$d3b4366daeb9cadc7528af6145b50b2183$__630c6e37419091898989898989896040518963ffffffff1660e01b8152600401611b14989796959493929190612d1d565b60006040518083038186803b158015611b2c57600080fd5b505af4158015611b40573d6000803e3d6000fd5b505050508760046000600560009054906101000a900461ffff1661ffff16815260200190815260200160002060006101000a81548173ffffffffffffffffffffffffffffffffffffffff021916908373ffffffffffffffffffffffffffffffffffffffff1602179055506005600081819054906101000a900461ffff1680929190611bca90612da9565b91906101000a81548161ffff021916908361ffff160217905550505050505050505050565b60085481565b6000806000806001811115611c0d57611c0c612945565b5b846001811115611c2057611c1f612945565b5b1415611c4a5784600e0160149054906101000a900464ffffffffff16915084600401549050611c6a565b84600e0160199054906101000a900464ffffffffff169150846005015490505b4264ffffffffff168264ffffffffff161415611c8a578092505050611cc3565b6000611cba82611cac611ca6888a611df590919063ffffffff16565b86611eae565b611f1190919063ffffffff16565b90508093505050505b92915050565b6000806000808460000151905060007ffffffffffffffffffffffffffffffffffffffffffffffffffffffffffeffffff198216141560007ffffffffffffffffffffffffffffffffffffffffffffffffffffffffffdffffff198316141560007ffffffffffffffffffffffffffffffffffffffffffffffffffffffffffbffffff1984161415935093509350509193909250565b601881611d6a576000611d6d565b60015b60ff16901b7ffffffffffffffffffffffffffffffffffffffffffffffffffffffffffeffffff836000015116178260000181815250505050565b80600360008473ffffffffffffffffffffffffffffffffffffffff1673ffffffffffffffffffffffffffffffffffffffff168152602001908152602001600020600001600001819055505050565b600080611e1384600201548560030154611f7690919063ffffffff16565b905060006001811115611e2957611e28612945565b5b836001811115611e3c57611e3b612945565b5b1415611e7757611e6f611e5c828660030154611f8c90919063ffffffff16565b8560010154611f1190919063ffffffff16565b915050611ea8565b611ea4611e91828660020154611f8c90919063ffffffff16565b8560010154611f1190919063ffffffff16565b9150505b92915050565b600080611ecb8364ffffffffff1642611fea90919063ffffffff16565b9050611f08611ed8612000565b6301e13380611ef0848861201490919063ffffffff16565b611efa9190612e03565b611f7690919063ffffffff16565b91505092915050565b6000611f6e6b033b2e3c9fd0803ce8000000611f60611f39858761201490919063ffffffff16565b60026b033b2e3c9fd0803ce8000000611f529190612e03565b611f7690919063ffffffff16565b61202a90919063ffffffff16565b905092915050565b60008183611f8491906128e8565b905092915050565b600080600283611f9c9190612e03565b9050611fe183611fd3611fc46b033b2e3c9fd0803ce80000008861201490919063ffffffff16565b84611f7690919063ffffffff16565b61202a90919063ffffffff16565b91505092915050565b60008183611ff89190612bfe565b905092915050565b60006b033b2e3c9fd0803ce8000000905090565b600081836120229190612e34565b905092915050565b600081836120389190612e03565b905092915050565b60405180606001604052806000815260200160008152602001600081525090565b604051806102200160405280612075612167565b8152602001600081526020016000815260200160008152602001600081526020016000815260200160008152602001600081526020016000815260200160008152602001600073ffffffffffffffffffffffffffffffffffffffff168152602001600073ffffffffffffffffffffffffffffffffffffffff168152602001600073ffffffffffffffffffffffffffffffffffffffff168152602001600073ffffffffffffffffffffffffffffffffffffffff168152602001600073ffffffffffffffffffffffffffffffffffffffff168152602001600064ffffffffff168152602001600064ffffffffff1681525090565b6040518060200160405280600081525090565b600080fd5b600073ffffffffffffffffffffffffffffffffffffffff82169050919050565b60006121aa8261217f565b9050919050565b6121ba8161219f565b81146121c557600080fd5b50565b6000813590506121d7816121b1565b92915050565b6000602082840312156121f3576121f261217a565b5b6000612201848285016121c8565b91505092915050565b6000819050919050565b61221d8161220a565b82525050565b60006020820190506122386000830184612214565b92915050565b6122478161220a565b82525050565b606082016000820151612263600085018261223e565b506020820151612276602085018261223e565b506040820151612289604085018261223e565b50505050565b60006060820190506122a4600083018461224d565b92915050565b6122b38161220a565b81146122be57600080fd5b50565b6000813590506122d0816122aa565b92915050565b6000602082840312156122ec576122eb61217a565b5b60006122fa848285016122c1565b91505092915050565b6002811061231057600080fd5b50565b60008135905061232281612303565b92915050565b6000806040838503121561233f5761233e61217a565b5b600061234d858286016121c8565b925050602061235e85828601612313565b9150509250929050565b60208201600082015161237e600085018261223e565b50505050565b61238d8161219f565b82525050565b600064ffffffffff82169050919050565b6123ad81612393565b82525050565b610220820160008201516123ca6000850182612368565b5060208201516123dd602085018261223e565b5060408201516123f0604085018261223e565b506060820151612403606085018261223e565b506080820151612416608085018261223e565b5060a082015161242960a085018261223e565b5060c082015161243c60c085018261223e565b5060e082015161244f60e085018261223e565b5061010082015161246461010085018261223e565b5061012082015161247961012085018261223e565b5061014082015161248e610140850182612384565b506101608201516124a3610160850182612384565b506101808201516124b8610180850182612384565b506101a08201516124cd6101a0850182612384565b506101c08201516124e26101c0850182612384565b506101e08201516124f76101e08501826123a4565b5061020082015161250c6102008501826123a4565b50505050565b60006102208201905061252860008301846123b3565b92915050565b60008115159050919050565b6125438161252e565b82525050565b600060208201905061255e600083018461253a565b92915050565b600081519050919050565b600082825260208201905092915050565b6000819050602082019050919050565b600061259c8383612384565b60208301905092915050565b6000602082019050919050565b60006125c082612564565b6125ca818561256f565b93506125d583612580565b8060005b838110156126065781516125ed8882612590565b97506125f8836125a8565b9250506001810190506125d9565b5085935050505092915050565b6000602082019050818103600083015261262d81846125b5565b905092915050565b6000806040838503121561264c5761264b61217a565b5b600061265a858286016121c8565b925050602061266b858286016122c1565b9150509250929050565b600060608201905061268a600083018661253a565b612697602083018561253a565b6126a4604083018461253a565b949350505050565b6126b58161219f565b82525050565b60006020820190506126d060008301846126ac565b92915050565b6020820160008201516126ec600085018261223e565b50505050565b600060208201905061270760008301846126d6565b92915050565b6000806000606084860312156127265761272561217a565b5b6000612734868287016121c8565b935050602061274586828701612313565b9250506040612756868287016122c1565b9150509250925092565b600080600080600080600080610100898b0312156127815761278061217a565b5b600061278f8b828c016121c8565b98505060206127a08b828c016121c8565b97505060406127b18b828c016121c8565b96505060606127c28b828c016122c1565b95505060806127d38b828c016122c1565b94505060a06127e48b828c016121c8565b93505060c06127f58b828c016121c8565b92505060e06128068b828c016121c8565b9150509295985092959890939650565b600082825260208201905092915050565b7f4f6e6c7920746865206173736f63696174656420636f6e74726163742063616e60008201527f20706572666f726d207468697320616374696f6e000000000000000000000000602082015250565b6000612883603483612816565b915061288e82612827565b604082019050919050565b600060208201905081810360008301526128b281612876565b9050919050565b7f4e487b7100000000000000000000000000000000000000000000000000000000600052601160045260246000fd5b60006128f38261220a565b91506128fe8361220a565b9250827fffffffffffffffffffffffffffffffffffffffffffffffffffffffffffffffff03821115612933576129326128b9565b5b828201905092915050565b8082525050565b7f4e487b7100000000000000000000000000000000000000000000000000000000600052602160045260246000fd5b6002811061298557612984612945565b5b50565b600081905061299682612974565b919050565b60006129a682612988565b9050919050565b6129b68161299b565b82525050565b60006040820190506129d1600083018561293e565b6129de60208301846129ad565b9392505050565b6000815190506129f4816122aa565b92915050565b600060208284031215612a1057612a0f61217a565b5b6000612a1e848285016129e5565b91505092915050565b7f4f776e61626c653a2063616c6c6572206973206e6f7420746865206f776e6572600082015250565b6000612a5d602083612816565b9150612a6882612a27565b602082019050919050565b60006020820190508181036000830152612a8c81612a50565b9050919050565b7f4e487b7100000000000000000000000000000000000000000000000000000000600052604160045260246000fd5b7f4e487b7100000000000000000000000000000000000000000000000000000000600052603260045260246000fd5b6000612afc8261220a565b91507fffffffffffffffffffffffffffffffffffffffffffffffffffffffffffffffff821415612b2f57612b2e6128b9565b5b600182019050919050565b612b438161219f565b82525050565b6000819050919050565b6000819050919050565b6000612b78612b73612b6e84612b49565b612b53565b61220a565b9050919050565b612b8881612b5d565b82525050565b612b978161220a565b82525050565b600060c082019050612bb2600083018961293e565b612bbf6020830188612b3a565b612bcc6040830187612b7f565b612bd96060830186612b7f565b612be66080830185612b7f565b612bf360a0830184612b8e565b979650505050505050565b6000612c098261220a565b9150612c148361220a565b925082821015612c2757612c266128b9565b5b828203905092915050565b6000604082019050612c47600083018561293e565b612c546020830184612b8e565b9392505050565b600060c082019050612c70600083018961293e565b612c7d6020830188612b3a565b612c8a6040830187612b8e565b612c976060830186612b7f565b612ca46080830185612b7f565b612cb160a0830184612b7f565b979650505050505050565b600060c082019050612cd1600083018961293e565b612cde6020830188612b3a565b612ceb6040830187612b7f565b612cf86060830186612b7f565b612d056080830185612b8e565b612d1260a0830184612b7f565b979650505050505050565b600061010082019050612d33600083018b61293e565b612d40602083018a612b3a565b612d4d6040830189612b3a565b612d5a6060830188612b8e565b612d676080830187612b8e565b612d7460a0830186612b3a565b612d8160c0830185612b3a565b612d8e60e0830184612b3a565b9998505050505050505050565b600061ffff82169050919050565b6000612db482612d9b565b915061ffff821415612dc957612dc86128b9565b5b600182019050919050565b7f4e487b7100000000000000000000000000000000000000000000000000000000600052601260045260246000fd5b6000612e0e8261220a565b9150612e198361220a565b925082612e2957612e28612dd4565b5b828204905092915050565b6000612e3f8261220a565b9150612e4a8361220a565b9250817fffffffffffffffffffffffffffffffffffffffffffffffffffffffffffffffff0483118215151615612e8357612e826128b9565b5b82820290509291505056fea26469706673582212200714eb2ecce404c12cec02d9bbf8f2eb94218a8046905cef826167d1cd3de1dd64736f6c63430008090033",
  "libraries": {
    "ReserveLogic": "0x3a4B95f219037858F9AeE3Be86E5007F30d0128b",
    "ValidationLogic": "0x0fa9de6c78A063E21d828FBE1c9d6296F574994B"
  },
  "devdoc": {
    "kind": "dev",
    "methods": {
      "claimOwnership()": {
        "details": "Allows the pendingOwner address to finalize the transfer."
      },
      "isOwner()": {
        "details": "Returns true if the caller is the current owner."
      },
      "transferOwnership(address)": {
        "details": "Allows the current owner to set the pendingOwner address.",
        "params": {
          "newOwner": "The address to transfer ownership to."
        }
      }
    },
    "version": 1
  },
  "userdoc": {
    "kind": "user",
    "methods": {},
    "version": 1
  },
  "storageLayout": {
    "storage": [
      {
        "astId": 7919,
        "contract": "contracts/component/shared/storage/LiquidityManagerStorage.sol:LiquidityManagerStorage",
        "label": "owner",
        "offset": 0,
        "slot": "0",
        "type": "t_address"
      },
      {
        "astId": 7921,
        "contract": "contracts/component/shared/storage/LiquidityManagerStorage.sol:LiquidityManagerStorage",
        "label": "pendingOwner",
        "offset": 0,
        "slot": "1",
        "type": "t_address"
      },
      {
        "astId": 8243,
        "contract": "contracts/component/shared/storage/LiquidityManagerStorage.sol:LiquidityManagerStorage",
        "label": "associatedContracts",
        "offset": 0,
        "slot": "2",
        "type": "t_mapping(t_address,t_bool)"
      },
      {
        "astId": 2391,
        "contract": "contracts/component/shared/storage/LiquidityManagerStorage.sol:LiquidityManagerStorage",
        "label": "_reserves",
        "offset": 0,
        "slot": "3",
        "type": "t_mapping(t_address,t_struct(ReserveData)8345_storage)"
      },
      {
        "astId": 2395,
        "contract": "contracts/component/shared/storage/LiquidityManagerStorage.sol:LiquidityManagerStorage",
        "label": "_reserveList",
        "offset": 0,
        "slot": "4",
        "type": "t_mapping(t_uint256,t_address)"
      },
      {
        "astId": 2397,
        "contract": "contracts/component/shared/storage/LiquidityManagerStorage.sol:LiquidityManagerStorage",
        "label": "_reservesCount",
        "offset": 0,
        "slot": "5",
        "type": "t_uint16"
      },
      {
        "astId": 2399,
        "contract": "contracts/component/shared/storage/LiquidityManagerStorage.sol:LiquidityManagerStorage",
        "label": "_paused",
        "offset": 2,
        "slot": "5",
        "type": "t_bool"
      },
      {
        "astId": 2401,
        "contract": "contracts/component/shared/storage/LiquidityManagerStorage.sol:LiquidityManagerStorage",
        "label": "juniorDepositAmount",
        "offset": 0,
        "slot": "6",
        "type": "t_uint256"
      },
      {
        "astId": 2403,
        "contract": "contracts/component/shared/storage/LiquidityManagerStorage.sol:LiquidityManagerStorage",
        "label": "seniorDepositAmount",
        "offset": 0,
        "slot": "7",
        "type": "t_uint256"
      },
      {
        "astId": 2405,
        "contract": "contracts/component/shared/storage/LiquidityManagerStorage.sol:LiquidityManagerStorage",
        "label": "totalDebt",
        "offset": 0,
        "slot": "8",
        "type": "t_uint256"
      }
    ],
    "types": {
      "t_address": {
        "encoding": "inplace",
        "label": "address",
        "numberOfBytes": "20"
      },
      "t_bool": {
        "encoding": "inplace",
        "label": "bool",
        "numberOfBytes": "1"
      },
      "t_mapping(t_address,t_bool)": {
        "encoding": "mapping",
        "key": "t_address",
        "label": "mapping(address => bool)",
        "numberOfBytes": "32",
        "value": "t_bool"
      },
      "t_mapping(t_address,t_struct(ReserveData)8345_storage)": {
        "encoding": "mapping",
        "key": "t_address",
        "label": "mapping(address => struct DataTypes.ReserveData)",
        "numberOfBytes": "32",
        "value": "t_struct(ReserveData)8345_storage"
      },
      "t_mapping(t_uint256,t_address)": {
        "encoding": "mapping",
        "key": "t_uint256",
        "label": "mapping(uint256 => address)",
        "numberOfBytes": "32",
        "value": "t_address"
      },
      "t_struct(ReserveConfigurationMap)8348_storage": {
        "encoding": "inplace",
        "label": "struct DataTypes.ReserveConfigurationMap",
        "members": [
          {
            "astId": 8347,
            "contract": "contracts/component/shared/storage/LiquidityManagerStorage.sol:LiquidityManagerStorage",
            "label": "data",
            "offset": 0,
            "slot": "0",
            "type": "t_uint256"
          }
        ],
        "numberOfBytes": "32"
      },
      "t_struct(ReserveData)8345_storage": {
        "encoding": "inplace",
        "label": "struct DataTypes.ReserveData",
        "members": [
          {
            "astId": 8312,
            "contract": "contracts/component/shared/storage/LiquidityManagerStorage.sol:LiquidityManagerStorage",
            "label": "configuration",
            "offset": 0,
            "slot": "0",
            "type": "t_struct(ReserveConfigurationMap)8348_storage"
          },
          {
            "astId": 8314,
            "contract": "contracts/component/shared/storage/LiquidityManagerStorage.sol:LiquidityManagerStorage",
            "label": "currentOverallLiquidityRate",
            "offset": 0,
            "slot": "1",
            "type": "t_uint256"
          },
          {
            "astId": 8316,
            "contract": "contracts/component/shared/storage/LiquidityManagerStorage.sol:LiquidityManagerStorage",
            "label": "currentSeniorIncomeAllocation",
            "offset": 0,
            "slot": "2",
            "type": "t_uint256"
          },
          {
            "astId": 8318,
            "contract": "contracts/component/shared/storage/LiquidityManagerStorage.sol:LiquidityManagerStorage",
            "label": "currentJuniorIncomeAllocation",
            "offset": 0,
            "slot": "3",
            "type": "t_uint256"
          },
          {
            "astId": 8320,
            "contract": "contracts/component/shared/storage/LiquidityManagerStorage.sol:LiquidityManagerStorage",
            "label": "juniorLiquidityIndex",
            "offset": 0,
            "slot": "4",
            "type": "t_uint256"
          },
          {
            "astId": 8322,
            "contract": "contracts/component/shared/storage/LiquidityManagerStorage.sol:LiquidityManagerStorage",
            "label": "seniorLiquidityIndex",
            "offset": 0,
            "slot": "5",
            "type": "t_uint256"
          },
          {
            "astId": 8324,
            "contract": "contracts/component/shared/storage/LiquidityManagerStorage.sol:LiquidityManagerStorage",
            "label": "totalBorrows",
            "offset": 0,
            "slot": "6",
            "type": "t_uint256"
          },
          {
            "astId": 8326,
            "contract": "contracts/component/shared/storage/LiquidityManagerStorage.sol:LiquidityManagerStorage",
            "label": "currentBorrowRate",
            "offset": 0,
            "slot": "7",
            "type": "t_uint256"
          },
          {
            "astId": 8328,
            "contract": "contracts/component/shared/storage/LiquidityManagerStorage.sol:LiquidityManagerStorage",
            "label": "securityRequirement",
            "offset": 0,
            "slot": "8",
            "type": "t_uint256"
          },
          {
            "astId": 8330,
            "contract": "contracts/component/shared/storage/LiquidityManagerStorage.sol:LiquidityManagerStorage",
            "label": "decimals",
            "offset": 0,
            "slot": "9",
            "type": "t_uint256"
          },
          {
            "astId": 8332,
            "contract": "contracts/component/shared/storage/LiquidityManagerStorage.sol:LiquidityManagerStorage",
            "label": "interestRateStrategyAddress",
            "offset": 0,
            "slot": "10",
            "type": "t_address"
          },
          {
            "astId": 8334,
            "contract": "contracts/component/shared/storage/LiquidityManagerStorage.sol:LiquidityManagerStorage",
            "label": "healthStrategyAddress",
            "offset": 0,
            "slot": "11",
            "type": "t_address"
          },
          {
            "astId": 8336,
            "contract": "contracts/component/shared/storage/LiquidityManagerStorage.sol:LiquidityManagerStorage",
            "label": "juniorDepositTokenAddress",
            "offset": 0,
            "slot": "12",
            "type": "t_address"
          },
          {
            "astId": 8338,
            "contract": "contracts/component/shared/storage/LiquidityManagerStorage.sol:LiquidityManagerStorage",
            "label": "seniorDepositTokenAddress",
            "offset": 0,
            "slot": "13",
            "type": "t_address"
          },
          {
            "astId": 8340,
            "contract": "contracts/component/shared/storage/LiquidityManagerStorage.sol:LiquidityManagerStorage",
            "label": "stableDebtAddress",
            "offset": 0,
            "slot": "14",
            "type": "t_address"
          },
          {
            "astId": 8342,
            "contract": "contracts/component/shared/storage/LiquidityManagerStorage.sol:LiquidityManagerStorage",
            "label": "juniorLastUpdateTimestamp",
            "offset": 20,
            "slot": "14",
            "type": "t_uint40"
          },
          {
            "astId": 8344,
            "contract": "contracts/component/shared/storage/LiquidityManagerStorage.sol:LiquidityManagerStorage",
            "label": "seniorLastUpdateTimestamp",
            "offset": 25,
            "slot": "14",
            "type": "t_uint40"
          }
        ],
        "numberOfBytes": "480"
      },
      "t_uint16": {
        "encoding": "inplace",
        "label": "uint16",
        "numberOfBytes": "2"
      },
      "t_uint256": {
        "encoding": "inplace",
        "label": "uint256",
        "numberOfBytes": "32"
      },
      "t_uint40": {
        "encoding": "inplace",
        "label": "uint40",
        "numberOfBytes": "5"
      }
    }
  }
}