{
  "address": "0xd288ed31e25A9aE27a2829581969839ea4195f80",
  "abi": [
    {
      "anonymous": false,
      "inputs": [
        {
          "indexed": true,
          "internalType": "address",
          "name": "previousOwner",
          "type": "address"
        },
        {
          "indexed": true,
          "internalType": "address",
          "name": "newOwner",
          "type": "address"
        }
      ],
      "name": "OwnershipTransferred",
      "type": "event"
    },
    {
      "anonymous": false,
      "inputs": [
        {
          "indexed": false,
          "internalType": "contract Proxyable",
          "name": "newTarget",
          "type": "address"
        }
      ],
      "name": "TargetUpdated",
      "type": "event"
    },
    {
      "stateMutability": "payable",
      "type": "fallback"
    },
    {
      "inputs": [
        {
          "internalType": "bytes",
          "name": "callData",
          "type": "bytes"
        },
        {
          "internalType": "uint256",
          "name": "numTopics",
          "type": "uint256"
        },
        {
          "internalType": "bytes32",
          "name": "topic1",
          "type": "bytes32"
        },
        {
          "internalType": "bytes32",
          "name": "topic2",
          "type": "bytes32"
        },
        {
          "internalType": "bytes32",
          "name": "topic3",
          "type": "bytes32"
        },
        {
          "internalType": "bytes32",
          "name": "topic4",
          "type": "bytes32"
        }
      ],
      "name": "_emit",
      "outputs": [],
      "stateMutability": "nonpayable",
      "type": "function"
    },
    {
      "inputs": [],
      "name": "claimOwnership",
      "outputs": [],
      "stateMutability": "nonpayable",
      "type": "function"
    },
    {
      "inputs": [],
      "name": "isOwner",
      "outputs": [
        {
          "internalType": "bool",
          "name": "",
          "type": "bool"
        }
      ],
      "stateMutability": "view",
      "type": "function"
    },
    {
      "inputs": [],
      "name": "owner",
      "outputs": [
        {
          "internalType": "address",
          "name": "",
          "type": "address"
        }
      ],
      "stateMutability": "view",
      "type": "function"
    },
    {
      "inputs": [],
      "name": "pendingOwner",
      "outputs": [
        {
          "internalType": "address",
          "name": "",
          "type": "address"
        }
      ],
      "stateMutability": "view",
      "type": "function"
    },
    {
      "inputs": [
        {
          "internalType": "contract Proxyable",
          "name": "_target",
          "type": "address"
        }
      ],
      "name": "setTarget",
      "outputs": [],
      "stateMutability": "nonpayable",
      "type": "function"
    },
    {
      "inputs": [],
      "name": "target",
      "outputs": [
        {
          "internalType": "contract Proxyable",
          "name": "",
          "type": "address"
        }
      ],
      "stateMutability": "view",
      "type": "function"
    },
    {
      "inputs": [
        {
          "internalType": "address",
          "name": "newOwner",
          "type": "address"
        }
      ],
      "name": "transferOwnership",
      "outputs": [],
      "stateMutability": "nonpayable",
      "type": "function"
    }
  ],
  "transactionHash": "0xbac6ede96ed43a423aa94617e086c258dbc1c4a1cc8d9964bb2f596b97ff9b0f",
  "args": [],
  "numDeployments": 1,
  "solcInputHash": "fa894278ca97a0719c19a1b496c9124e",
  "bytecode": "0x608060405234801561001057600080fd5b50600080546001600160a01b0319163390811782556040519091907f8be0079c531659141344cd1fd0a4f28419497f9722a3daafe3b4186f6b6457e0908290a361061f8061005f6000396000f3fe60806040526004361061007b5760003560e01c8063907dff971161004e578063907dff97146101b6578063d4b83992146101d6578063e30c3978146101f6578063f2fde38b146102165761007b565b80634e71e0c814610117578063776d1a011461012e5780638da5cb5b1461014e5780638f32d59b1461018b575b6002546040517fbc67f8320000000000000000000000000000000000000000000000000000000081523360048201526001600160a01b039091169063bc67f83290602401600060405180830381600087803b1580156100d957600080fd5b505af11580156100ed573d6000803e3d6000fd5b5050505060405136600082376000803683346002545af13d6000833e80610112573d82fd5b503d81f35b34801561012357600080fd5b5061012c610236565b005b34801561013a57600080fd5b5061012c61014936600461052c565b6102be565b34801561015a57600080fd5b5060005461016e906001600160a01b031681565b6040516001600160a01b0390911681526020015b60405180910390f35b34801561019757600080fd5b506000546001600160a01b031633146040519015158152602001610182565b3480156101c257600080fd5b5061012c6101d1366004610550565b61037e565b3480156101e257600080fd5b5060025461016e906001600160a01b031681565b34801561020257600080fd5b5060015461016e906001600160a01b031681565b34801561022257600080fd5b5061012c61023136600461052c565b61048b565b6001546001600160a01b0316331461024d57600080fd5b600154600080546040516001600160a01b0393841693909116917f8be0079c531659141344cd1fd0a4f28419497f9722a3daafe3b4186f6b6457e091a3600180546000805473ffffffffffffffffffffffffffffffffffffffff199081166001600160a01b03841617909155169055565b6000546001600160a01b0316331461031d5760405162461bcd60e51b815260206004820181905260248201527f4f776e61626c653a2063616c6c6572206973206e6f7420746865206f776e657260448201526064015b60405180910390fd5b6002805473ffffffffffffffffffffffffffffffffffffffff19166001600160a01b0383169081179091556040519081527f814250a3b8c79fcbe2ead2c131c952a278491c8f4322a79fe84b5040a810373e9060200160405180910390a150565b6002546001600160a01b031633146103d85760405162461bcd60e51b815260206004820152601460248201527f4d7573742062652070726f7879207461726765740000000000000000000000006044820152606401610314565b604080516020601f89018190048102820181019092528781528791600091908a908490819084018382808284376000920191909152509293508992505081159050610442576001811461044d5760028114610459576003811461046657600481146104745761047f565b8260208301a061047f565b868360208401a161047f565b85878460208501a261047f565b8486888560208601a361047f565b838587898660208701a45b50505050505050505050565b6000546001600160a01b031633146104e55760405162461bcd60e51b815260206004820181905260248201527f4f776e61626c653a2063616c6c6572206973206e6f7420746865206f776e65726044820152606401610314565b6001805473ffffffffffffffffffffffffffffffffffffffff19166001600160a01b0392909216919091179055565b6001600160a01b038116811461052957600080fd5b50565b60006020828403121561053e57600080fd5b813561054981610514565b9392505050565b600080600080600080600060c0888a03121561056b57600080fd5b873567ffffffffffffffff8082111561058357600080fd5b818a0191508a601f83011261059757600080fd5b8135818111156105a657600080fd5b8b60208285010111156105b857600080fd5b60209283019c909b50918a01359960408101359950606081013598506080810135975060a00135955090935050505056fea2646970667358221220b3a22adb35dcddc870580469085c78c45a219526f0d38ad817fc9c057c8a648964736f6c63430008090033",
  "devdoc": {
    "kind": "dev",
    "methods": {
      "claimOwnership()": {
        "details": "Allows the pendingOwner address to finalize the transfer."
      },
      "isOwner()": {
        "details": "Returns true if the caller is the current owner."
      },
      "transferOwnership(address)": {
        "details": "Allows the current owner to set the pendingOwner address.",
        "params": {
          "newOwner": "The address to transfer ownership to."
        }
      }
    },
    "version": 1
  },
  "userdoc": {
    "kind": "user",
    "methods": {},
    "version": 1
  },
  "storageLayout": {
    "storage": [
      {
        "astId": 9172,
        "contract": "contracts/component/loan/LoanManagerProxy.sol:LoanManagerProxy",
        "label": "owner",
        "offset": 0,
        "slot": "0",
        "type": "t_address"
      },
      {
        "astId": 9174,
        "contract": "contracts/component/loan/LoanManagerProxy.sol:LoanManagerProxy",
        "label": "pendingOwner",
        "offset": 0,
        "slot": "1",
        "type": "t_address"
      },
      {
        "astId": 9279,
        "contract": "contracts/component/loan/LoanManagerProxy.sol:LoanManagerProxy",
        "label": "target",
        "offset": 0,
        "slot": "2",
        "type": "t_contract(Proxyable)9488"
      }
    ],
    "types": {
      "t_address": {
        "encoding": "inplace",
        "label": "address",
        "numberOfBytes": "20"
      },
      "t_contract(Proxyable)9488": {
        "encoding": "inplace",
        "label": "contract Proxyable",
        "numberOfBytes": "20"
      }
    }
  }
}