{
  "address": "0xe228A72d415914fC1Ba2678D31cafa7ab6B62a78",
  "abi": [
    {
      "anonymous": false,
      "inputs": [
        {
          "indexed": true,
          "internalType": "address",
          "name": "previousOwner",
          "type": "address"
        },
        {
          "indexed": true,
          "internalType": "address",
          "name": "newOwner",
          "type": "address"
        }
      ],
      "name": "OwnershipTransferred",
      "type": "event"
    },
    {
      "anonymous": false,
      "inputs": [
        {
          "indexed": false,
          "internalType": "contract Proxyable",
          "name": "newTarget",
          "type": "address"
        }
      ],
      "name": "TargetUpdated",
      "type": "event"
    },
    {
      "stateMutability": "payable",
      "type": "fallback"
    },
    {
      "inputs": [
        {
          "internalType": "bytes",
          "name": "callData",
          "type": "bytes"
        },
        {
          "internalType": "uint256",
          "name": "numTopics",
          "type": "uint256"
        },
        {
          "internalType": "bytes32",
          "name": "topic1",
          "type": "bytes32"
        },
        {
          "internalType": "bytes32",
          "name": "topic2",
          "type": "bytes32"
        },
        {
          "internalType": "bytes32",
          "name": "topic3",
          "type": "bytes32"
        },
        {
          "internalType": "bytes32",
          "name": "topic4",
          "type": "bytes32"
        }
      ],
      "name": "_emit",
      "outputs": [],
      "stateMutability": "nonpayable",
      "type": "function"
    },
    {
      "inputs": [],
      "name": "_onlyAuthorized",
      "outputs": [],
      "stateMutability": "nonpayable",
      "type": "function"
    },
    {
      "inputs": [
        {
          "internalType": "address",
          "name": "_reserve",
          "type": "address"
        },
        {
          "internalType": "address",
          "name": "_vault",
          "type": "address"
        },
        {
          "internalType": "uint256",
          "name": "_drawDownId",
          "type": "uint256"
        }
      ],
      "name": "getDrawDownDetail",
      "outputs": [
        {
          "components": [
            {
              "internalType": "uint256",
              "name": "principal",
              "type": "uint256"
            },
            {
              "internalType": "uint256",
              "name": "term",
              "type": "uint256"
            },
            {
              "internalType": "uint256",
              "name": "epoch",
              "type": "uint256"
            },
            {
              "internalType": "uint256",
              "name": "nper",
              "type": "uint256"
            },
            {
              "components": [
                {
                  "internalType": "uint256",
                  "name": "principal",
                  "type": "uint256"
                },
                {
                  "internalType": "uint256",
                  "name": "interest",
                  "type": "uint256"
                },
                {
                  "internalType": "uint256",
                  "name": "pmt",
                  "type": "uint256"
                }
              ],
              "internalType": "struct DataTypes.PMT",
              "name": "pmt",
              "type": "tuple"
            },
            {
              "internalType": "uint256",
              "name": "apr",
              "type": "uint256"
            },
            {
              "internalType": "uint256",
              "name": "borrowAt",
              "type": "uint256"
            },
            {
              "internalType": "uint256",
              "name": "nextPaymentDue",
              "type": "uint256"
            },
            {
              "internalType": "uint256",
              "name": "totalPrincipalPaid",
              "type": "uint256"
            },
            {
              "internalType": "uint256",
              "name": "totalInterestPaid",
              "type": "uint256"
            },
            {
              "internalType": "uint256",
              "name": "paidTimes",
              "type": "uint256"
            }
          ],
          "internalType": "struct DataTypes.DebtDetail",
          "name": "",
          "type": "tuple"
        }
      ],
      "stateMutability": "view",
      "type": "function"
    },
    {
      "inputs": [
        {
          "internalType": "address",
          "name": "_reserve",
          "type": "address"
        },
        {
          "internalType": "address",
          "name": "_vault",
          "type": "address"
        }
      ],
      "name": "getDrawDownList",
      "outputs": [
        {
          "internalType": "uint256",
          "name": "",
          "type": "uint256"
        },
        {
          "internalType": "uint256",
          "name": "",
          "type": "uint256"
        }
      ],
      "stateMutability": "view",
      "type": "function"
    },
    {
      "inputs": [
        {
          "internalType": "address",
          "name": "_reserve",
          "type": "address"
        },
        {
          "internalType": "address",
          "name": "_vault",
          "type": "address"
        }
      ],
      "name": "getVaultDebt",
      "outputs": [
        {
          "internalType": "uint256",
          "name": "",
          "type": "uint256"
        },
        {
          "internalType": "uint256",
          "name": "",
          "type": "uint256"
        }
      ],
      "stateMutability": "view",
      "type": "function"
    },
    {
      "inputs": [],
      "name": "owner",
      "outputs": [
        {
          "internalType": "address",
          "name": "",
          "type": "address"
        }
      ],
      "stateMutability": "view",
      "type": "function"
    },
    {
      "inputs": [
        {
          "internalType": "address",
          "name": "_asset",
          "type": "address"
        }
      ],
      "name": "principalBalance",
      "outputs": [
        {
          "internalType": "uint256",
          "name": "",
          "type": "uint256"
        }
      ],
      "stateMutability": "view",
      "type": "function"
    },
    {
      "inputs": [],
      "name": "renounceOwnership",
      "outputs": [],
      "stateMutability": "nonpayable",
      "type": "function"
    },
    {
      "inputs": [
        {
          "internalType": "contract Proxyable",
          "name": "_target",
          "type": "address"
        }
      ],
      "name": "setTarget",
      "outputs": [],
      "stateMutability": "nonpayable",
      "type": "function"
    },
    {
      "inputs": [],
      "name": "target",
      "outputs": [
        {
          "internalType": "contract Proxyable",
          "name": "",
          "type": "address"
        }
      ],
      "stateMutability": "view",
      "type": "function"
    },
    {
      "inputs": [
        {
          "internalType": "address",
          "name": "newOwner",
          "type": "address"
        }
      ],
      "name": "transferOwnership",
      "outputs": [],
      "stateMutability": "nonpayable",
      "type": "function"
    }
  ],
  "transactionHash": "0xcab4a71f2f7787d34b082bc67455e1b17e9d1b66f0832c27b4f1f4d684d52787",
  "args": [],
  "numDeployments": 2,
  "solcInputHash": "12f50c75a18b6f714019b390413b1deb",
  "bytecode": "0x608060405234801561001057600080fd5b5061001a3361001f565b61006f565b600080546001600160a01b038381166001600160a01b0319831681178455604051919092169283917f8be0079c531659141344cd1fd0a4f28419497f9722a3daafe3b4186f6b6457e09190a35050565b6112588061007e6000396000f3fe6080604052600436106100bc5760003560e01c80638da5cb5b11610074578063e4503e041161004e578063e4503e0414610290578063e68fc0ee146102a5578063f2fde38b146102d3576100bc565b80638da5cb5b1461021e578063907dff9714610250578063d4b8399214610270576100bc565b8063776d1a01116100a5578063776d1a01146101b15780637c7c983d146101d15780638a0695fd146101fe576100bc565b8063715018a61461016057806374e175df14610177575b6100c46102f3565b6001546040517fbc67f8320000000000000000000000000000000000000000000000000000000081523360048201526001600160a01b039091169063bc67f83290602401600060405180830381600087803b15801561012257600080fd5b505af1158015610136573d6000803e3d6000fd5b5050505060405136600082376000803683346001545af13d6000833e8061015b573d82fd5b503d81f35b34801561016c57600080fd5b506101756107f0565b005b34801561018357600080fd5b50610197610192366004610e5b565b610856565b604080519283526020830191909152015b60405180910390f35b3480156101bd57600080fd5b506101756101cc366004610e94565b610903565b3480156101dd57600080fd5b506101f16101ec366004610eb8565b6109c9565b6040516101a89190610ef9565b34801561020a57600080fd5b50610197610219366004610e5b565b610a7f565b34801561022a57600080fd5b506000546001600160a01b03165b6040516001600160a01b0390911681526020016101a8565b34801561025c57600080fd5b5061017561026b366004610f9c565b610ad6565b34801561027c57600080fd5b50600154610238906001600160a01b031681565b34801561029c57600080fd5b506101756102f3565b3480156102b157600080fd5b506102c56102c0366004610e94565b610be3565b6040519081526020016101a8565b3480156102df57600080fd5b506101756102ee366004610e94565b610c80565b600154604080517ff448e14000000000000000000000000000000000000000000000000000000000815290516000926001600160a01b03169163f448e140916004808301926020929190829003018186803b15801561035157600080fd5b505afa158015610365573d6000803e3d6000fd5b505050506040513d601f19601f820116820180604052508101906103899190611035565b90506000600160009054906101000a90046001600160a01b03166001600160a01b031663f448e1406040518163ffffffff1660e01b815260040160206040518083038186803b1580156103db57600080fd5b505afa1580156103ef573d6000803e3d6000fd5b505050506040513d601f19601f820116820180604052508101906104139190611035565b6001600160a01b03166305a2ee2a6040518163ffffffff1660e01b815260040160206040518083038186803b15801561044b57600080fd5b505afa15801561045f573d6000803e3d6000fd5b505050506040513d601f19601f820116820180604052508101906104839190611035565b6001600160a01b031663c2c855c26040518163ffffffff1660e01b815260040160206040518083038186803b1580156104bb57600080fd5b505afa1580156104cf573d6000803e3d6000fd5b505050506040513d601f19601f820116820180604052508101906104f39190611035565b9050600160009054906101000a90046001600160a01b03166001600160a01b031663f448e1406040518163ffffffff1660e01b815260040160206040518083038186803b15801561054357600080fd5b505afa158015610557573d6000803e3d6000fd5b505050506040513d601f19601f8201168201806040525081019061057b9190611035565b6001600160a01b03166305a2ee2a6040518163ffffffff1660e01b815260040160206040518083038186803b1580156105b357600080fd5b505afa1580156105c7573d6000803e3d6000fd5b505050506040513d601f19601f820116820180604052508101906105eb9190611035565b6001600160a01b031663de5185e26040518163ffffffff1660e01b815260040160206040518083038186803b15801561062357600080fd5b505afa158015610637573d6000803e3d6000fd5b505050506040513d601f19601f8201168201806040525081019061065b9190611035565b6001600160a01b0316336001600160a01b0316148061070557506040517fdf89b3440000000000000000000000000000000000000000000000000000000081523360048201526001600160a01b0382169063df89b3449060240160206040518083038186803b1580156106cd57600080fd5b505afa1580156106e1573d6000803e3d6000fd5b505050506040513d601f19601f820116820180604052508101906107059190611052565b8061079b57506040517ff4070e2d0000000000000000000000000000000000000000000000000000000081523360048201526001600160a01b0382169063f4070e2d9060240160206040518083038186803b15801561076357600080fd5b505afa158015610777573d6000803e3d6000fd5b505050506040513d601f19601f8201168201806040525081019061079b9190611052565b6107ec5760405162461bcd60e51b815260206004820152601e60248201527f566f7961676572206f722061646d696e206f6e6c792066756e6374696f6e000060448201526064015b60405180910390fd5b5050565b6000546001600160a01b0316331461084a5760405162461bcd60e51b815260206004820181905260248201527f4f776e61626c653a2063616c6c6572206973206e6f7420746865206f776e657260448201526064016107e3565b6108546000610d62565b565b6001546040517f74e175df0000000000000000000000000000000000000000000000000000000081526001600160a01b038481166004830152838116602483015260009283929116906374e175df906044015b604080518083038186803b1580156108c057600080fd5b505afa1580156108d4573d6000803e3d6000fd5b505050506040513d601f19601f820116820180604052508101906108f89190611074565b915091509250929050565b6000546001600160a01b0316331461095d5760405162461bcd60e51b815260206004820181905260248201527f4f776e61626c653a2063616c6c6572206973206e6f7420746865206f776e657260448201526064016107e3565b600180547fffffffffffffffffffffffff0000000000000000000000000000000000000000166001600160a01b0383169081179091556040519081527f814250a3b8c79fcbe2ead2c131c952a278491c8f4322a79fe84b5040a810373e9060200160405180910390a150565b6109d1610dca565b6001546040517f7c7c983d0000000000000000000000000000000000000000000000000000000081526001600160a01b03868116600483015285811660248301526044820185905290911690637c7c983d906064016101a06040518083038186803b158015610a3f57600080fd5b505afa158015610a53573d6000803e3d6000fd5b505050506040513d601f19601f82011682018060405250810190610a77919061116c565b949350505050565b6001546040517f8a0695fd0000000000000000000000000000000000000000000000000000000081526001600160a01b03848116600483015283811660248301526000928392911690638a0695fd906044016108a9565b6001546001600160a01b03163314610b305760405162461bcd60e51b815260206004820152601460248201527f4d7573742062652070726f78792074617267657400000000000000000000000060448201526064016107e3565b604080516020601f89018190048102820181019092528781528791600091908a908490819084018382808284376000920191909152509293508992505081159050610b9a5760018114610ba55760028114610bb15760038114610bbe5760048114610bcc57610bd7565b8260208301a0610bd7565b868360208401a1610bd7565b85878460208501a2610bd7565b8486888560208601a3610bd7565b838587898660208701a45b50505050505050505050565b6001546040517fe68fc0ee0000000000000000000000000000000000000000000000000000000081526001600160a01b038381166004830152600092169063e68fc0ee9060240160206040518083038186803b158015610c4257600080fd5b505afa158015610c56573d6000803e3d6000fd5b505050506040513d601f19601f82011682018060405250810190610c7a9190611209565b92915050565b6000546001600160a01b03163314610cda5760405162461bcd60e51b815260206004820181905260248201527f4f776e61626c653a2063616c6c6572206973206e6f7420746865206f776e657260448201526064016107e3565b6001600160a01b038116610d565760405162461bcd60e51b815260206004820152602660248201527f4f776e61626c653a206e6577206f776e657220697320746865207a65726f206160448201527f646472657373000000000000000000000000000000000000000000000000000060648201526084016107e3565b610d5f81610d62565b50565b600080546001600160a01b038381167fffffffffffffffffffffffff0000000000000000000000000000000000000000831681178455604051919092169283917f8be0079c531659141344cd1fd0a4f28419497f9722a3daafe3b4186f6b6457e09190a35050565b60405180610160016040528060008152602001600081526020016000815260200160008152602001610e1660405180606001604052806000815260200160008152602001600081525090565b81526020016000815260200160008152602001600081526020016000815260200160008152602001600081525090565b6001600160a01b0381168114610d5f57600080fd5b60008060408385031215610e6e57600080fd5b8235610e7981610e46565b91506020830135610e8981610e46565b809150509250929050565b600060208284031215610ea657600080fd5b8135610eb181610e46565b9392505050565b600080600060608486031215610ecd57600080fd5b8335610ed881610e46565b92506020840135610ee881610e46565b929592945050506040919091013590565b60006101a082019050825182526020830151602083015260408301516040830152606083015160608301526080830151610f4a60808401828051825260208082015190830152604090810151910152565b5060a083015160e08381019190915260c0840151610100808501919091529084015161012080850191909152908401516101408085019190915290840151610160840152909201516101809091015290565b600080600080600080600060c0888a031215610fb757600080fd5b873567ffffffffffffffff80821115610fcf57600080fd5b818a0191508a601f830112610fe357600080fd5b813581811115610ff257600080fd5b8b602082850101111561100457600080fd5b60209283019c909b50918a01359960408101359950606081013598506080810135975060a001359550909350505050565b60006020828403121561104757600080fd5b8151610eb181610e46565b60006020828403121561106457600080fd5b81518015158114610eb157600080fd5b6000806040838503121561108757600080fd5b505080516020909101519092909150565b604051610160810167ffffffffffffffff811182821017156110e3577f4e487b7100000000000000000000000000000000000000000000000000000000600052604160045260246000fd5b60405290565b6000606082840312156110fb57600080fd5b6040516060810181811067ffffffffffffffff82111715611145577f4e487b7100000000000000000000000000000000000000000000000000000000600052604160045260246000fd5b80604052508091508251815260208301516020820152604083015160408201525092915050565b60006101a0828403121561117f57600080fd5b611187611098565b825181526020830151602082015260408301516040820152606083015160608201526111b684608085016110e9565b608082015260e083015160a08201526101008084015160c08301526101208085015160e0840152610140808601518385015261016086015182850152610180860151818501525050508091505092915050565b60006020828403121561121b57600080fd5b505191905056fea2646970667358221220197e6d5c1e96e5d3e2f3d08dd3b39c413581caf4a427afa8476ce5f29b5acae464736f6c63430008090033",
  "devdoc": {
    "kind": "dev",
    "methods": {
      "owner()": {
        "details": "Returns the address of the current owner."
      },
      "renounceOwnership()": {
        "details": "Leaves the contract without owner. It will not be possible to call `onlyOwner` functions anymore. Can only be called by the current owner. NOTE: Renouncing ownership will leave the contract without an owner, thereby removing any functionality that is only available to the owner."
      },
      "transferOwnership(address)": {
        "details": "Transfers ownership of the contract to a new account (`newOwner`). Can only be called by the current owner."
      }
    },
    "version": 1
  },
  "userdoc": {
    "kind": "user",
    "methods": {},
    "version": 1
  },
  "storageLayout": {
    "storage": [
      {
        "astId": 389,
        "contract": "contracts/component/loan/LoanManagerProxy.sol:LoanManagerProxy",
        "label": "_owner",
        "offset": 0,
        "slot": "0",
        "type": "t_address"
      },
      {
        "astId": 16339,
        "contract": "contracts/component/loan/LoanManagerProxy.sol:LoanManagerProxy",
        "label": "target",
        "offset": 0,
        "slot": "1",
        "type": "t_contract(Proxyable)16616"
      }
    ],
    "types": {
      "t_address": {
        "encoding": "inplace",
        "label": "address",
        "numberOfBytes": "20"
      },
      "t_contract(Proxyable)16616": {
        "encoding": "inplace",
        "label": "contract Proxyable",
        "numberOfBytes": "20"
      }
    }
  }
}