{
  "address": "0xD2ac8D581e7791cAaef38342a09C249F18Eb0610",
  "abi": [
    {
      "inputs": [
        {
          "internalType": "address payable",
          "name": "_voyager",
          "type": "address"
        }
      ],
      "stateMutability": "nonpayable",
      "type": "constructor"
    },
    {
      "inputs": [
        {
          "internalType": "address",
          "name": "_asset",
          "type": "address"
        }
      ],
      "name": "currentCumulativePrice",
      "outputs": [
        {
          "internalType": "uint256",
          "name": "",
          "type": "uint256"
        },
        {
          "internalType": "uint256",
          "name": "",
          "type": "uint256"
        }
      ],
      "stateMutability": "view",
      "type": "function"
    },
    {
      "inputs": [
        {
          "internalType": "address",
          "name": "_asset",
          "type": "address"
        }
      ],
      "name": "getAssetPrice",
      "outputs": [
        {
          "internalType": "uint256",
          "name": "",
          "type": "uint256"
        }
      ],
      "stateMutability": "view",
      "type": "function"
    },
    {
      "inputs": [
        {
          "internalType": "address",
          "name": "_asset",
          "type": "address"
        }
      ],
      "name": "updateAssetPrice",
      "outputs": [],
      "stateMutability": "nonpayable",
      "type": "function"
    },
    {
      "inputs": [
        {
          "internalType": "address[]",
          "name": "_assets",
          "type": "address[]"
        }
      ],
      "name": "updateAssetPrices",
      "outputs": [],
      "stateMutability": "nonpayable",
      "type": "function"
    },
    {
      "inputs": [
        {
          "internalType": "address",
          "name": "_asset",
          "type": "address"
        },
        {
          "internalType": "uint256",
          "name": "_price",
          "type": "uint256"
        }
      ],
      "name": "updateCumulative",
      "outputs": [],
      "stateMutability": "nonpayable",
      "type": "function"
    },
    {
      "inputs": [
        {
          "internalType": "address[]",
          "name": "_assets",
          "type": "address[]"
        },
        {
          "internalType": "uint256[]",
          "name": "_prices",
          "type": "uint256[]"
        }
      ],
      "name": "updateCumulativeBatch",
      "outputs": [],
      "stateMutability": "nonpayable",
      "type": "function"
    }
  ],
  "transactionHash": "0x061c21b2b7b0a0b5b8c00051c4a6218c69b8a4c0936cea46ca9e5727fecb6727",
  "args": [
    "0xb1d5004013c5932b71DE270c1Dc632793febB593"
  ],
  "numDeployments": 1,
  "solcInputHash": "555707459f625c5cccea54db628334a8",
  "bytecode": "0x608060405234801561001057600080fd5b506040516108bc3803806108bc83398101604081905261002f91610054565b600280546001600160a01b0319166001600160a01b0392909216919091179055610084565b60006020828403121561006657600080fd5b81516001600160a01b038116811461007d57600080fd5b9392505050565b610829806100936000396000f3fe608060405234801561001057600080fd5b50600436106100725760003560e01c8063b3596f0711610050578063b3596f07146100f7578063b62cad691461013e578063be1e3a901461015157600080fd5b80630a26ff5814610077578063541dd7ef1461008c5780636f34d114146100e4575b600080fd5b61008a6100853660046105ba565b610164565b005b6100ca61009a3660046105e6565b73ffffffffffffffffffffffffffffffffffffffff16600090815260016020819052604090912080549101549091565b604080519283526020830191909152015b60405180910390f35b61008a6100f236600461064f565b61017a565b6101306101053660046105e6565b73ffffffffffffffffffffffffffffffffffffffff1660009081526020819052604090206002015490565b6040519081526020016100db565b61008a61014c3660046105e6565b6101d3565b61008a61015f366004610691565b6101e7565b61016c61025b565b6101768282610485565b5050565b61018261025b565b60005b818110156101ce576101bc8383838181106101a2576101a26106fd565b90506020020160208101906101b791906105e6565b6104e3565b806101c681610729565b915050610185565b505050565b6101db61025b565b6101e4816104e3565b50565b6101ef61025b565b60005b838110156102545761024285858381811061020f5761020f6106fd565b905060200201602081019061022491906105e6565b848484818110610236576102366106fd565b90506020020135610485565b8061024c81610729565b9150506101f2565b5050505050565b600254604080517f05a2ee2a000000000000000000000000000000000000000000000000000000008152905160009273ffffffffffffffffffffffffffffffffffffffff16916305a2ee2a916004808301926020929190829003018186803b1580156102c657600080fd5b505afa1580156102da573d6000803e3d6000fd5b505050506040513d601f19601f820116820180604052508101906102fe9190610744565b73ffffffffffffffffffffffffffffffffffffffff1663c2c855c26040518163ffffffff1660e01b815260040160206040518083038186803b15801561034357600080fd5b505afa158015610357573d6000803e3d6000fd5b505050506040513d601f19601f8201168201806040525081019061037b9190610744565b6040517fb3cf20d700000000000000000000000000000000000000000000000000000000815233600482015290915073ffffffffffffffffffffffffffffffffffffffff82169063b3cf20d79060240160206040518083038186803b1580156103e357600080fd5b505afa1580156103f7573d6000803e3d6000fd5b505050506040513d601f19601f8201168201806040525081019061041b9190610761565b6101e4576040517f08c379a000000000000000000000000000000000000000000000000000000000815260206004820152601060248201527f4e6f74206f7261636c652061646d696e00000000000000000000000000000000604482015260640160405180910390fd5b73ffffffffffffffffffffffffffffffffffffffff821660009081526001602081905260408220908101549091906104be904290610561565b90506104d56104cd8483610574565b835490610580565b825550426001909101555050565b73ffffffffffffffffffffffffffffffffffffffff81166000908152602081815260408083206001928390529083208054920154909250600083600101548261052c9190610783565b905061054f8161054986600001548661056190919063ffffffff16565b9061058c565b60028501555090825560019091015550565b600061056d8284610783565b9392505050565b600061056d828461079a565b600061056d82846107b9565b600061056d82846107d1565b73ffffffffffffffffffffffffffffffffffffffff811681146101e457600080fd5b600080604083850312156105cd57600080fd5b82356105d881610598565b946020939093013593505050565b6000602082840312156105f857600080fd5b813561056d81610598565b60008083601f84011261061557600080fd5b50813567ffffffffffffffff81111561062d57600080fd5b6020830191508360208260051b850101111561064857600080fd5b9250929050565b6000806020838503121561066257600080fd5b823567ffffffffffffffff81111561067957600080fd5b61068585828601610603565b90969095509350505050565b600080600080604085870312156106a757600080fd5b843567ffffffffffffffff808211156106bf57600080fd5b6106cb88838901610603565b909650945060208701359150808211156106e457600080fd5b506106f187828801610603565b95989497509550505050565b634e487b7160e01b600052603260045260246000fd5b634e487b7160e01b600052601160045260246000fd5b600060001982141561073d5761073d610713565b5060010190565b60006020828403121561075657600080fd5b815161056d81610598565b60006020828403121561077357600080fd5b8151801515811461056d57600080fd5b60008282101561079557610795610713565b500390565b60008160001904831182151516156107b4576107b4610713565b500290565b600082198211156107cc576107cc610713565b500190565b6000826107ee57634e487b7160e01b600052601260045260246000fd5b50049056fea2646970667358221220a042f1c6bfc2f41c4bb61da8487b382dcdf4731333521ae1e064f94617e4416564736f6c63430008090033",
  "devdoc": {
    "kind": "dev",
    "methods": {},
    "version": 1
  },
  "userdoc": {
    "kind": "user",
    "methods": {},
    "version": 1
  },
  "storageLayout": {
    "storage": [
      {
        "astId": 7697,
        "contract": "contracts/component/infra/PriceOracle.sol:PriceOracle",
        "label": "prices",
        "offset": 0,
        "slot": "0",
        "type": "t_mapping(t_address,t_struct(CumulativePrice)7680_storage)"
      },
      {
        "astId": 7702,
        "contract": "contracts/component/infra/PriceOracle.sol:PriceOracle",
        "label": "ticket",
        "offset": 0,
        "slot": "1",
        "type": "t_mapping(t_address,t_struct(PriceData)7685_storage)"
      },
      {
        "astId": 7705,
        "contract": "contracts/component/infra/PriceOracle.sol:PriceOracle",
        "label": "voyager",
        "offset": 0,
        "slot": "2",
        "type": "t_contract(Voyager)4461"
      }
    ],
    "types": {
      "t_address": {
        "encoding": "inplace",
        "label": "address",
        "numberOfBytes": "20"
      },
      "t_contract(Voyager)4461": {
        "encoding": "inplace",
        "label": "contract Voyager",
        "numberOfBytes": "20"
      },
      "t_mapping(t_address,t_struct(CumulativePrice)7680_storage)": {
        "encoding": "mapping",
        "key": "t_address",
        "label": "mapping(address => struct PriceOracle.CumulativePrice)",
        "numberOfBytes": "32",
        "value": "t_struct(CumulativePrice)7680_storage"
      },
      "t_mapping(t_address,t_struct(PriceData)7685_storage)": {
        "encoding": "mapping",
        "key": "t_address",
        "label": "mapping(address => struct PriceOracle.PriceData)",
        "numberOfBytes": "32",
        "value": "t_struct(PriceData)7685_storage"
      },
      "t_struct(CumulativePrice)7680_storage": {
        "encoding": "inplace",
        "label": "struct PriceOracle.CumulativePrice",
        "members": [
          {
            "astId": 7675,
            "contract": "contracts/component/infra/PriceOracle.sol:PriceOracle",
            "label": "priceCumulativeLast",
            "offset": 0,
            "slot": "0",
            "type": "t_uint256"
          },
          {
            "astId": 7677,
            "contract": "contracts/component/infra/PriceOracle.sol:PriceOracle",
            "label": "blockTimestampLast",
            "offset": 0,
            "slot": "1",
            "type": "t_uint256"
          },
          {
            "astId": 7679,
            "contract": "contracts/component/infra/PriceOracle.sol:PriceOracle",
            "label": "priceAverage",
            "offset": 0,
            "slot": "2",
            "type": "t_uint256"
          }
        ],
        "numberOfBytes": "96"
      },
      "t_struct(PriceData)7685_storage": {
        "encoding": "inplace",
        "label": "struct PriceOracle.PriceData",
        "members": [
          {
            "astId": 7682,
            "contract": "contracts/component/infra/PriceOracle.sol:PriceOracle",
            "label": "priceCumulative",
            "offset": 0,
            "slot": "0",
            "type": "t_uint256"
          },
          {
            "astId": 7684,
            "contract": "contracts/component/infra/PriceOracle.sol:PriceOracle",
            "label": "blockTimestamp",
            "offset": 0,
            "slot": "1",
            "type": "t_uint256"
          }
        ],
        "numberOfBytes": "64"
      },
      "t_uint256": {
        "encoding": "inplace",
        "label": "uint256",
        "numberOfBytes": "32"
      }
    }
  }
}