{
  "address": "0x7C2503f561A08529d563A98e07A5624947224a95",
  "abi": [
    {
      "anonymous": false,
      "inputs": [
        {
          "indexed": true,
          "internalType": "address",
          "name": "previousOwner",
          "type": "address"
        },
        {
          "indexed": true,
          "internalType": "address",
          "name": "newOwner",
          "type": "address"
        }
      ],
      "name": "OwnershipTransferred",
      "type": "event"
    },
    {
      "inputs": [
        {
          "internalType": "address",
          "name": "_asset",
          "type": "address"
        }
      ],
      "name": "currentCumulativePrice",
      "outputs": [
        {
          "internalType": "uint256",
          "name": "",
          "type": "uint256"
        },
        {
          "internalType": "uint256",
          "name": "",
          "type": "uint256"
        }
      ],
      "stateMutability": "view",
      "type": "function"
    },
    {
      "inputs": [
        {
          "internalType": "address",
          "name": "_asset",
          "type": "address"
        }
      ],
      "name": "getAssetPrice",
      "outputs": [
        {
          "internalType": "uint256",
          "name": "",
          "type": "uint256"
        }
      ],
      "stateMutability": "view",
      "type": "function"
    },
    {
      "inputs": [],
      "name": "owner",
      "outputs": [
        {
          "internalType": "address",
          "name": "",
          "type": "address"
        }
      ],
      "stateMutability": "view",
      "type": "function"
    },
    {
      "inputs": [],
      "name": "renounceOwnership",
      "outputs": [],
      "stateMutability": "nonpayable",
      "type": "function"
    },
    {
      "inputs": [
        {
          "internalType": "address",
          "name": "newOwner",
          "type": "address"
        }
      ],
      "name": "transferOwnership",
      "outputs": [],
      "stateMutability": "nonpayable",
      "type": "function"
    },
    {
      "inputs": [
        {
          "internalType": "address",
          "name": "_asset",
          "type": "address"
        }
      ],
      "name": "updateAssetPrice",
      "outputs": [],
      "stateMutability": "nonpayable",
      "type": "function"
    },
    {
      "inputs": [
        {
          "internalType": "address[]",
          "name": "_assets",
          "type": "address[]"
        }
      ],
      "name": "updateAssetPrices",
      "outputs": [],
      "stateMutability": "nonpayable",
      "type": "function"
    },
    {
      "inputs": [
        {
          "internalType": "address",
          "name": "_asset",
          "type": "address"
        },
        {
          "internalType": "uint256",
          "name": "_price",
          "type": "uint256"
        }
      ],
      "name": "updateCumulative",
      "outputs": [],
      "stateMutability": "nonpayable",
      "type": "function"
    },
    {
      "inputs": [
        {
          "internalType": "address[]",
          "name": "_assets",
          "type": "address[]"
        },
        {
          "internalType": "uint256[]",
          "name": "_prices",
          "type": "uint256[]"
        }
      ],
      "name": "updateCumulativeBatch",
      "outputs": [],
      "stateMutability": "nonpayable",
      "type": "function"
    }
  ],
  "transactionHash": "0x92506a5f79c416d35418e914b9d50d2e5ae1d33a0f0abfdf87cc68c0bd8869d5",
  "args": [],
  "numDeployments": 1,
  "solcInputHash": "2ec44dbd2d40deb22548c4cc107473f0",
  "bytecode": "0x608060405234801561001057600080fd5b5061001a3361001f565b61006f565b600080546001600160a01b038381166001600160a01b0319831681178455604051919092169283917f8be0079c531659141344cd1fd0a4f28419497f9722a3daafe3b4186f6b6457e09190a35050565b6108e28061007e6000396000f3fe608060405234801561001057600080fd5b50600436106100a35760003560e01c80638da5cb5b11610076578063b62cad691161005b578063b62cad6914610178578063be1e3a901461018b578063f2fde38b1461019e57600080fd5b80638da5cb5b14610123578063b3596f071461013e57600080fd5b80630a26ff58146100a8578063541dd7ef146100bd5780636f34d11414610108578063715018a61461011b575b600080fd5b6100bb6100b63660046106b6565b6101b1565b005b6100ee6100cb3660046106e0565b6001600160a01b0316600090815260026020526040902080546001909101549091565b604080519283526020830191909152015b60405180910390f35b6100bb610116366004610747565b61021e565b6100bb6102c9565b6000546040516001600160a01b0390911681526020016100ff565b61016a61014c3660046106e0565b6001600160a01b031660009081526001602052604090206002015490565b6040519081526020016100ff565b6100bb6101863660046106e0565b61032f565b6100bb610199366004610789565b610395565b6100bb6101ac3660046106e0565b61045b565b6000546001600160a01b031633146102105760405162461bcd60e51b815260206004820181905260248201527f4f776e61626c653a2063616c6c6572206973206e6f7420746865206f776e657260448201526064015b60405180910390fd5b61021a828261053a565b5050565b6000546001600160a01b031633146102785760405162461bcd60e51b815260206004820181905260248201527f4f776e61626c653a2063616c6c6572206973206e6f7420746865206f776e65726044820152606401610207565b60005b818110156102c4576102b2838383818110610298576102986107f5565b90506020020160208101906102ad91906106e0565b61058a565b806102bc81610821565b91505061027b565b505050565b6000546001600160a01b031633146103235760405162461bcd60e51b815260206004820181905260248201527f4f776e61626c653a2063616c6c6572206973206e6f7420746865206f776e65726044820152606401610207565b61032d60006105fb565b565b6000546001600160a01b031633146103895760405162461bcd60e51b815260206004820181905260248201527f4f776e61626c653a2063616c6c6572206973206e6f7420746865206f776e65726044820152606401610207565b6103928161058a565b50565b6000546001600160a01b031633146103ef5760405162461bcd60e51b815260206004820181905260248201527f4f776e61626c653a2063616c6c6572206973206e6f7420746865206f776e65726044820152606401610207565b60005b838110156104545761044285858381811061040f5761040f6107f5565b905060200201602081019061042491906106e0565b848484818110610436576104366107f5565b9050602002013561053a565b8061044c81610821565b9150506103f2565b5050505050565b6000546001600160a01b031633146104b55760405162461bcd60e51b815260206004820181905260248201527f4f776e61626c653a2063616c6c6572206973206e6f7420746865206f776e65726044820152606401610207565b6001600160a01b0381166105315760405162461bcd60e51b815260206004820152602660248201527f4f776e61626c653a206e6577206f776e657220697320746865207a65726f206160448201527f64647265737300000000000000000000000000000000000000000000000000006064820152608401610207565b610392816105fb565b6001600160a01b03821660009081526002602052604081206001810154909190610565904290610663565b905061057c6105748483610676565b835490610682565b825550426001909101555050565b6001600160a01b038116600090815260016020818152604080842060029092528320805492015490925060008360010154826105c6919061083c565b90506105e9816105e386600001548661066390919063ffffffff16565b9061068e565b60028501555090825560019091015550565b600080546001600160a01b038381167fffffffffffffffffffffffff0000000000000000000000000000000000000000831681178455604051919092169283917f8be0079c531659141344cd1fd0a4f28419497f9722a3daafe3b4186f6b6457e09190a35050565b600061066f828461083c565b9392505050565b600061066f8284610853565b600061066f8284610872565b600061066f828461088a565b80356001600160a01b03811681146106b157600080fd5b919050565b600080604083850312156106c957600080fd5b6106d28361069a565b946020939093013593505050565b6000602082840312156106f257600080fd5b61066f8261069a565b60008083601f84011261070d57600080fd5b50813567ffffffffffffffff81111561072557600080fd5b6020830191508360208260051b850101111561074057600080fd5b9250929050565b6000806020838503121561075a57600080fd5b823567ffffffffffffffff81111561077157600080fd5b61077d858286016106fb565b90969095509350505050565b6000806000806040858703121561079f57600080fd5b843567ffffffffffffffff808211156107b757600080fd5b6107c3888389016106fb565b909650945060208701359150808211156107dc57600080fd5b506107e9878288016106fb565b95989497509550505050565b634e487b7160e01b600052603260045260246000fd5b634e487b7160e01b600052601160045260246000fd5b60006000198214156108355761083561080b565b5060010190565b60008282101561084e5761084e61080b565b500390565b600081600019048311821515161561086d5761086d61080b565b500290565b600082198211156108855761088561080b565b500190565b6000826108a757634e487b7160e01b600052601260045260246000fd5b50049056fea26469706673582212203306895fda3e26845f27bb71757ec3cf608a38c0b7860f4d388a275c31919a8e64736f6c63430008090033",
  "devdoc": {
    "kind": "dev",
    "methods": {
      "owner()": {
        "details": "Returns the address of the current owner."
      },
      "renounceOwnership()": {
        "details": "Leaves the contract without owner. It will not be possible to call `onlyOwner` functions anymore. Can only be called by the current owner. NOTE: Renouncing ownership will leave the contract without an owner, thereby removing any functionality that is only available to the owner."
      },
      "transferOwnership(address)": {
        "details": "Transfers ownership of the contract to a new account (`newOwner`). Can only be called by the current owner."
      }
    },
    "version": 1
  },
  "userdoc": {
    "kind": "user",
    "methods": {},
    "version": 1
  },
  "storageLayout": {
    "storage": [
      {
        "astId": 7,
        "contract": "contracts/component/infra/PriceOracle.sol:PriceOracle",
        "label": "_owner",
        "offset": 0,
        "slot": "0",
        "type": "t_address"
      },
      {
        "astId": 8742,
        "contract": "contracts/component/infra/PriceOracle.sol:PriceOracle",
        "label": "prices",
        "offset": 0,
        "slot": "1",
        "type": "t_mapping(t_address,t_struct(CumulativePrice)8732_storage)"
      },
      {
        "astId": 8747,
        "contract": "contracts/component/infra/PriceOracle.sol:PriceOracle",
        "label": "ticket",
        "offset": 0,
        "slot": "2",
        "type": "t_mapping(t_address,t_struct(PriceData)8737_storage)"
      }
    ],
    "types": {
      "t_address": {
        "encoding": "inplace",
        "label": "address",
        "numberOfBytes": "20"
      },
      "t_mapping(t_address,t_struct(CumulativePrice)8732_storage)": {
        "encoding": "mapping",
        "key": "t_address",
        "label": "mapping(address => struct PriceOracle.CumulativePrice)",
        "numberOfBytes": "32",
        "value": "t_struct(CumulativePrice)8732_storage"
      },
      "t_mapping(t_address,t_struct(PriceData)8737_storage)": {
        "encoding": "mapping",
        "key": "t_address",
        "label": "mapping(address => struct PriceOracle.PriceData)",
        "numberOfBytes": "32",
        "value": "t_struct(PriceData)8737_storage"
      },
      "t_struct(CumulativePrice)8732_storage": {
        "encoding": "inplace",
        "label": "struct PriceOracle.CumulativePrice",
        "members": [
          {
            "astId": 8727,
            "contract": "contracts/component/infra/PriceOracle.sol:PriceOracle",
            "label": "priceCumulativeLast",
            "offset": 0,
            "slot": "0",
            "type": "t_uint256"
          },
          {
            "astId": 8729,
            "contract": "contracts/component/infra/PriceOracle.sol:PriceOracle",
            "label": "blockTimestampLast",
            "offset": 0,
            "slot": "1",
            "type": "t_uint256"
          },
          {
            "astId": 8731,
            "contract": "contracts/component/infra/PriceOracle.sol:PriceOracle",
            "label": "priceAverage",
            "offset": 0,
            "slot": "2",
            "type": "t_uint256"
          }
        ],
        "numberOfBytes": "96"
      },
      "t_struct(PriceData)8737_storage": {
        "encoding": "inplace",
        "label": "struct PriceOracle.PriceData",
        "members": [
          {
            "astId": 8734,
            "contract": "contracts/component/infra/PriceOracle.sol:PriceOracle",
            "label": "priceCumulative",
            "offset": 0,
            "slot": "0",
            "type": "t_uint256"
          },
          {
            "astId": 8736,
            "contract": "contracts/component/infra/PriceOracle.sol:PriceOracle",
            "label": "blockTimestamp",
            "offset": 0,
            "slot": "1",
            "type": "t_uint256"
          }
        ],
        "numberOfBytes": "64"
      },
      "t_uint256": {
        "encoding": "inplace",
        "label": "uint256",
        "numberOfBytes": "32"
      }
    }
  }
}