{
  "address": "0x5cC67e5183C5322308747558C492194d73709a94",
  "abi": [
    {
      "anonymous": false,
      "inputs": [
        {
          "indexed": false,
          "internalType": "address",
          "name": "account",
          "type": "address"
        }
      ],
      "name": "Paused",
      "type": "event"
    },
    {
      "anonymous": false,
      "inputs": [
        {
          "indexed": false,
          "internalType": "address",
          "name": "account",
          "type": "address"
        }
      ],
      "name": "Unpaused",
      "type": "event"
    },
    {
      "inputs": [],
      "name": "pause",
      "outputs": [],
      "stateMutability": "nonpayable",
      "type": "function"
    },
    {
      "inputs": [],
      "name": "paused",
      "outputs": [
        {
          "internalType": "bool",
          "name": "",
          "type": "bool"
        }
      ],
      "stateMutability": "view",
      "type": "function"
    },
    {
      "inputs": [],
      "name": "unpause",
      "outputs": [],
      "stateMutability": "nonpayable",
      "type": "function"
    }
  ],
  "args": [],
  "numDeployments": 1,
  "solcInputHash": "686fcfb77ebcbd9335e616f0b479388f",
  "bytecode": "0x608060405234801561001057600080fd5b50610571806100206000396000f3fe608060405234801561001057600080fd5b50600436106100415760003560e01c80633f4ba83a146100465780635c975abb146100505780638456cb591461006a575b600080fd5b61004e610072565b005b60065460ff16604051901515815260200160405180910390f35b61004e6102bb565b60006100db7f616464726573735f7265736f6c7665720000000000000000000000000000000060009081526020527fbc00e0b13890defa5673414f271f9a202467a774b325edce723f5f9c26a5eb4e5473ffffffffffffffffffffffffffffffffffffffff1690565b73ffffffffffffffffffffffffffffffffffffffff1663c2c855c26040518163ffffffff1660e01b815260040160206040518083038186803b15801561012057600080fd5b505afa158015610134573d6000803e3d6000fd5b505050506040513d601f19601f8201168201806040525081019061015891906104dc565b6040517f1f77f8c600000000000000000000000000000000000000000000000000000000815233600482015290915073ffffffffffffffffffffffffffffffffffffffff821690631f77f8c69060240160206040518083038186803b1580156101c057600080fd5b505afa1580156101d4573d6000803e3d6000fd5b505050506040513d601f19601f820116820180604052508101906101f89190610519565b610263576040517f08c379a000000000000000000000000000000000000000000000000000000000815260206004820152601260248201527f4e6f742070726f746f636f6c2061646d696e000000000000000000000000000060448201526064015b60405180910390fd5b6006805460ff191690557f5db9ee0a495bf2e6ff9c91a7834c1ba4fdd244a5e8aa4e537bd38aeae4b073aa335b60405173ffffffffffffffffffffffffffffffffffffffff909116815260200160405180910390a150565b60006103247f616464726573735f7265736f6c7665720000000000000000000000000000000060009081526020527fbc00e0b13890defa5673414f271f9a202467a774b325edce723f5f9c26a5eb4e5473ffffffffffffffffffffffffffffffffffffffff1690565b73ffffffffffffffffffffffffffffffffffffffff1663c2c855c26040518163ffffffff1660e01b815260040160206040518083038186803b15801561036957600080fd5b505afa15801561037d573d6000803e3d6000fd5b505050506040513d601f19601f820116820180604052508101906103a191906104dc565b6040517f1f77f8c600000000000000000000000000000000000000000000000000000000815233600482015290915073ffffffffffffffffffffffffffffffffffffffff821690631f77f8c69060240160206040518083038186803b15801561040957600080fd5b505afa15801561041d573d6000803e3d6000fd5b505050506040513d601f19601f820116820180604052508101906104419190610519565b6104a7576040517f08c379a000000000000000000000000000000000000000000000000000000000815260206004820152601260248201527f4e6f742070726f746f636f6c2061646d696e0000000000000000000000000000604482015260640161025a565b6006805460ff191660011790557f62e78cea01bee320cd4e420270b5ea74000d11b0c9f74754ebdbfc544b05a2586102903390565b6000602082840312156104ee57600080fd5b815173ffffffffffffffffffffffffffffffffffffffff8116811461051257600080fd5b9392505050565b60006020828403121561052b57600080fd5b8151801515811461051257600080fdfea264697066735822122017714cd4de79d13b0dc1874cf867d925e36fd0c0cd279705e3edd6ccf55fa56c64736f6c63430008090033",
  "devdoc": {
    "kind": "dev",
    "methods": {},
    "version": 1
  },
  "userdoc": {
    "kind": "user",
    "methods": {},
    "version": 1
  },
  "storageLayout": {
    "storage": [
      {
        "astId": 11912,
        "contract": "contracts/component/facets/SecurityFacet.sol:SecurityFacet",
        "label": "s",
        "offset": 0,
        "slot": "0",
        "type": "t_struct(AppStorage)11898_storage"
      }
    ],
    "types": {
      "t_address": {
        "encoding": "inplace",
        "label": "address",
        "numberOfBytes": "20"
      },
      "t_array(t_address)dyn_storage": {
        "base": "t_address",
        "encoding": "dynamic_array",
        "label": "address[]",
        "numberOfBytes": "32"
      },
      "t_array(t_struct(RepaymentData)11768_storage)dyn_storage": {
        "base": "t_struct(RepaymentData)11768_storage",
        "encoding": "dynamic_array",
        "label": "struct RepaymentData[]",
        "numberOfBytes": "32"
      },
      "t_bool": {
        "encoding": "inplace",
        "label": "bool",
        "numberOfBytes": "1"
      },
      "t_bytes32": {
        "encoding": "inplace",
        "label": "bytes32",
        "numberOfBytes": "32"
      },
      "t_contract(UpgradeableBeacon)1050": {
        "encoding": "inplace",
        "label": "contract UpgradeableBeacon",
        "numberOfBytes": "20"
      },
      "t_mapping(t_address,t_address)": {
        "encoding": "mapping",
        "key": "t_address",
        "label": "mapping(address => address)",
        "numberOfBytes": "32",
        "value": "t_address"
      },
      "t_mapping(t_address,t_mapping(t_address,t_struct(BorrowData)11817_storage))": {
        "encoding": "mapping",
        "key": "t_address",
        "label": "mapping(address => mapping(address => struct BorrowData))",
        "numberOfBytes": "32",
        "value": "t_mapping(t_address,t_struct(BorrowData)11817_storage)"
      },
      "t_mapping(t_address,t_struct(BorrowData)11817_storage)": {
        "encoding": "mapping",
        "key": "t_address",
        "label": "mapping(address => struct BorrowData)",
        "numberOfBytes": "32",
        "value": "t_struct(BorrowData)11817_storage"
      },
      "t_mapping(t_address,t_struct(BorrowState)11824_storage)": {
        "encoding": "mapping",
        "key": "t_address",
        "label": "mapping(address => struct BorrowState)",
        "numberOfBytes": "32",
        "value": "t_struct(BorrowState)11824_storage"
      },
      "t_mapping(t_address,t_struct(ReserveData)11747_storage)": {
        "encoding": "mapping",
        "key": "t_address",
        "label": "mapping(address => struct ReserveData)",
        "numberOfBytes": "32",
        "value": "t_struct(ReserveData)11747_storage"
      },
      "t_mapping(t_address,t_struct(VaultConfig)11831_storage)": {
        "encoding": "mapping",
        "key": "t_address",
        "label": "mapping(address => struct VaultConfig)",
        "numberOfBytes": "32",
        "value": "t_struct(VaultConfig)11831_storage"
      },
      "t_mapping(t_bytes32,t_address)": {
        "encoding": "mapping",
        "key": "t_bytes32",
        "label": "mapping(bytes32 => address)",
        "numberOfBytes": "32",
        "value": "t_address"
      },
      "t_mapping(t_uint256,t_address)": {
        "encoding": "mapping",
        "key": "t_uint256",
        "label": "mapping(uint256 => address)",
        "numberOfBytes": "32",
        "value": "t_address"
      },
      "t_mapping(t_uint256,t_struct(DrawDown)11796_storage)": {
        "encoding": "mapping",
        "key": "t_uint256",
        "label": "mapping(uint256 => struct DrawDown)",
        "numberOfBytes": "32",
        "value": "t_struct(DrawDown)11796_storage"
      },
      "t_struct(AppStorage)11898_storage": {
        "encoding": "inplace",
        "label": "struct AppStorage",
        "members": [
          {
            "astId": 11857,
            "contract": "contracts/component/facets/SecurityFacet.sol:SecurityFacet",
            "label": "_addresses",
            "offset": 0,
            "slot": "0",
            "type": "t_mapping(t_bytes32,t_address)"
          },
          {
            "astId": 11862,
            "contract": "contracts/component/facets/SecurityFacet.sol:SecurityFacet",
            "label": "_reserves",
            "offset": 0,
            "slot": "1",
            "type": "t_mapping(t_address,t_struct(ReserveData)11747_storage)"
          },
          {
            "astId": 11866,
            "contract": "contracts/component/facets/SecurityFacet.sol:SecurityFacet",
            "label": "_reserveList",
            "offset": 0,
            "slot": "2",
            "type": "t_mapping(t_uint256,t_address)"
          },
          {
            "astId": 11868,
            "contract": "contracts/component/facets/SecurityFacet.sol:SecurityFacet",
            "label": "_reservesCount",
            "offset": 0,
            "slot": "3",
            "type": "t_uint16"
          },
          {
            "astId": 11875,
            "contract": "contracts/component/facets/SecurityFacet.sol:SecurityFacet",
            "label": "_borrowData",
            "offset": 0,
            "slot": "4",
            "type": "t_mapping(t_address,t_mapping(t_address,t_struct(BorrowData)11817_storage))"
          },
          {
            "astId": 11880,
            "contract": "contracts/component/facets/SecurityFacet.sol:SecurityFacet",
            "label": "_borrowState",
            "offset": 0,
            "slot": "5",
            "type": "t_mapping(t_address,t_struct(BorrowState)11824_storage)"
          },
          {
            "astId": 11882,
            "contract": "contracts/component/facets/SecurityFacet.sol:SecurityFacet",
            "label": "_paused",
            "offset": 0,
            "slot": "6",
            "type": "t_bool"
          },
          {
            "astId": 11885,
            "contract": "contracts/component/facets/SecurityFacet.sol:SecurityFacet",
            "label": "upgradeableBeacon",
            "offset": 1,
            "slot": "6",
            "type": "t_contract(UpgradeableBeacon)1050"
          },
          {
            "astId": 11888,
            "contract": "contracts/component/facets/SecurityFacet.sol:SecurityFacet",
            "label": "vaults",
            "offset": 0,
            "slot": "7",
            "type": "t_array(t_address)dyn_storage"
          },
          {
            "astId": 11892,
            "contract": "contracts/component/facets/SecurityFacet.sol:SecurityFacet",
            "label": "vaultMap",
            "offset": 0,
            "slot": "8",
            "type": "t_mapping(t_address,t_address)"
          },
          {
            "astId": 11897,
            "contract": "contracts/component/facets/SecurityFacet.sol:SecurityFacet",
            "label": "vaultConfigMap",
            "offset": 0,
            "slot": "9",
            "type": "t_mapping(t_address,t_struct(VaultConfig)11831_storage)"
          }
        ],
        "numberOfBytes": "320"
      },
      "t_struct(BorrowData)11817_storage": {
        "encoding": "inplace",
        "label": "struct BorrowData",
        "members": [
          {
            "astId": 11803,
            "contract": "contracts/component/facets/SecurityFacet.sol:SecurityFacet",
            "label": "paidDrawDownNumber",
            "offset": 0,
            "slot": "0",
            "type": "t_uint256"
          },
          {
            "astId": 11805,
            "contract": "contracts/component/facets/SecurityFacet.sol:SecurityFacet",
            "label": "nextDrawDownNumber",
            "offset": 0,
            "slot": "1",
            "type": "t_uint256"
          },
          {
            "astId": 11807,
            "contract": "contracts/component/facets/SecurityFacet.sol:SecurityFacet",
            "label": "totalPrincipal",
            "offset": 0,
            "slot": "2",
            "type": "t_uint256"
          },
          {
            "astId": 11809,
            "contract": "contracts/component/facets/SecurityFacet.sol:SecurityFacet",
            "label": "totalInterest",
            "offset": 0,
            "slot": "3",
            "type": "t_uint256"
          },
          {
            "astId": 11811,
            "contract": "contracts/component/facets/SecurityFacet.sol:SecurityFacet",
            "label": "mapSize",
            "offset": 0,
            "slot": "4",
            "type": "t_uint256"
          },
          {
            "astId": 11816,
            "contract": "contracts/component/facets/SecurityFacet.sol:SecurityFacet",
            "label": "drawDowns",
            "offset": 0,
            "slot": "5",
            "type": "t_mapping(t_uint256,t_struct(DrawDown)11796_storage)"
          }
        ],
        "numberOfBytes": "192"
      },
      "t_struct(BorrowState)11824_storage": {
        "encoding": "inplace",
        "label": "struct BorrowState",
        "members": [
          {
            "astId": 11819,
            "contract": "contracts/component/facets/SecurityFacet.sol:SecurityFacet",
            "label": "totalDebt",
            "offset": 0,
            "slot": "0",
            "type": "t_uint256"
          },
          {
            "astId": 11821,
            "contract": "contracts/component/facets/SecurityFacet.sol:SecurityFacet",
            "label": "totalInterest",
            "offset": 0,
            "slot": "1",
            "type": "t_uint256"
          },
          {
            "astId": 11823,
            "contract": "contracts/component/facets/SecurityFacet.sol:SecurityFacet",
            "label": "avgBorrowRate",
            "offset": 0,
            "slot": "2",
            "type": "t_uint256"
          }
        ],
        "numberOfBytes": "96"
      },
      "t_struct(DrawDown)11796_storage": {
        "encoding": "inplace",
        "label": "struct DrawDown",
        "members": [
          {
            "astId": 11770,
            "contract": "contracts/component/facets/SecurityFacet.sol:SecurityFacet",
            "label": "principal",
            "offset": 0,
            "slot": "0",
            "type": "t_uint256"
          },
          {
            "astId": 11772,
            "contract": "contracts/component/facets/SecurityFacet.sol:SecurityFacet",
            "label": "term",
            "offset": 0,
            "slot": "1",
            "type": "t_uint256"
          },
          {
            "astId": 11774,
            "contract": "contracts/component/facets/SecurityFacet.sol:SecurityFacet",
            "label": "epoch",
            "offset": 0,
            "slot": "2",
            "type": "t_uint256"
          },
          {
            "astId": 11776,
            "contract": "contracts/component/facets/SecurityFacet.sol:SecurityFacet",
            "label": "nper",
            "offset": 0,
            "slot": "3",
            "type": "t_uint256"
          },
          {
            "astId": 11779,
            "contract": "contracts/component/facets/SecurityFacet.sol:SecurityFacet",
            "label": "pmt",
            "offset": 0,
            "slot": "4",
            "type": "t_struct(PMT)11757_storage"
          },
          {
            "astId": 11781,
            "contract": "contracts/component/facets/SecurityFacet.sol:SecurityFacet",
            "label": "apr",
            "offset": 0,
            "slot": "7",
            "type": "t_uint256"
          },
          {
            "astId": 11783,
            "contract": "contracts/component/facets/SecurityFacet.sol:SecurityFacet",
            "label": "borrowAt",
            "offset": 0,
            "slot": "8",
            "type": "t_uint256"
          },
          {
            "astId": 11785,
            "contract": "contracts/component/facets/SecurityFacet.sol:SecurityFacet",
            "label": "nextPaymentDue",
            "offset": 0,
            "slot": "9",
            "type": "t_uint256"
          },
          {
            "astId": 11787,
            "contract": "contracts/component/facets/SecurityFacet.sol:SecurityFacet",
            "label": "totalPrincipalPaid",
            "offset": 0,
            "slot": "10",
            "type": "t_uint256"
          },
          {
            "astId": 11789,
            "contract": "contracts/component/facets/SecurityFacet.sol:SecurityFacet",
            "label": "totalInterestPaid",
            "offset": 0,
            "slot": "11",
            "type": "t_uint256"
          },
          {
            "astId": 11793,
            "contract": "contracts/component/facets/SecurityFacet.sol:SecurityFacet",
            "label": "repayments",
            "offset": 0,
            "slot": "12",
            "type": "t_array(t_struct(RepaymentData)11768_storage)dyn_storage"
          },
          {
            "astId": 11795,
            "contract": "contracts/component/facets/SecurityFacet.sol:SecurityFacet",
            "label": "paidTimes",
            "offset": 0,
            "slot": "13",
            "type": "t_uint256"
          }
        ],
        "numberOfBytes": "448"
      },
      "t_struct(PMT)11757_storage": {
        "encoding": "inplace",
        "label": "struct PMT",
        "members": [
          {
            "astId": 11752,
            "contract": "contracts/component/facets/SecurityFacet.sol:SecurityFacet",
            "label": "principal",
            "offset": 0,
            "slot": "0",
            "type": "t_uint256"
          },
          {
            "astId": 11754,
            "contract": "contracts/component/facets/SecurityFacet.sol:SecurityFacet",
            "label": "interest",
            "offset": 0,
            "slot": "1",
            "type": "t_uint256"
          },
          {
            "astId": 11756,
            "contract": "contracts/component/facets/SecurityFacet.sol:SecurityFacet",
            "label": "pmt",
            "offset": 0,
            "slot": "2",
            "type": "t_uint256"
          }
        ],
        "numberOfBytes": "96"
      },
      "t_struct(RepaymentData)11768_storage": {
        "encoding": "inplace",
        "label": "struct RepaymentData",
        "members": [
          {
            "astId": 11759,
            "contract": "contracts/component/facets/SecurityFacet.sol:SecurityFacet",
            "label": "principal",
            "offset": 0,
            "slot": "0",
            "type": "t_uint256"
          },
          {
            "astId": 11761,
            "contract": "contracts/component/facets/SecurityFacet.sol:SecurityFacet",
            "label": "interest",
            "offset": 0,
            "slot": "1",
            "type": "t_uint256"
          },
          {
            "astId": 11763,
            "contract": "contracts/component/facets/SecurityFacet.sol:SecurityFacet",
            "label": "total",
            "offset": 0,
            "slot": "2",
            "type": "t_uint256"
          },
          {
            "astId": 11765,
            "contract": "contracts/component/facets/SecurityFacet.sol:SecurityFacet",
            "label": "paidAt",
            "offset": 0,
            "slot": "3",
            "type": "t_uint40"
          },
          {
            "astId": 11767,
            "contract": "contracts/component/facets/SecurityFacet.sol:SecurityFacet",
            "label": "isLiquidated",
            "offset": 5,
            "slot": "3",
            "type": "t_bool"
          }
        ],
        "numberOfBytes": "128"
      },
      "t_struct(ReserveConfigurationMap)11750_storage": {
        "encoding": "inplace",
        "label": "struct ReserveConfigurationMap",
        "members": [
          {
            "astId": 11749,
            "contract": "contracts/component/facets/SecurityFacet.sol:SecurityFacet",
            "label": "data",
            "offset": 0,
            "slot": "0",
            "type": "t_uint256"
          }
        ],
        "numberOfBytes": "32"
      },
      "t_struct(ReserveData)11747_storage": {
        "encoding": "inplace",
        "label": "struct ReserveData",
        "members": [
          {
            "astId": 11710,
            "contract": "contracts/component/facets/SecurityFacet.sol:SecurityFacet",
            "label": "configuration",
            "offset": 0,
            "slot": "0",
            "type": "t_struct(ReserveConfigurationMap)11750_storage"
          },
          {
            "astId": 11712,
            "contract": "contracts/component/facets/SecurityFacet.sol:SecurityFacet",
            "label": "currentOverallLiquidityRate",
            "offset": 0,
            "slot": "1",
            "type": "t_uint256"
          },
          {
            "astId": 11714,
            "contract": "contracts/component/facets/SecurityFacet.sol:SecurityFacet",
            "label": "currentJuniorLiquidityRate",
            "offset": 0,
            "slot": "2",
            "type": "t_uint256"
          },
          {
            "astId": 11716,
            "contract": "contracts/component/facets/SecurityFacet.sol:SecurityFacet",
            "label": "currentSeniorLiquidityRate",
            "offset": 0,
            "slot": "3",
            "type": "t_uint256"
          },
          {
            "astId": 11718,
            "contract": "contracts/component/facets/SecurityFacet.sol:SecurityFacet",
            "label": "currentBorrowRate",
            "offset": 0,
            "slot": "4",
            "type": "t_uint256"
          },
          {
            "astId": 11720,
            "contract": "contracts/component/facets/SecurityFacet.sol:SecurityFacet",
            "label": "marginRequirement",
            "offset": 0,
            "slot": "5",
            "type": "t_uint256"
          },
          {
            "astId": 11722,
            "contract": "contracts/component/facets/SecurityFacet.sol:SecurityFacet",
            "label": "decimals",
            "offset": 0,
            "slot": "6",
            "type": "t_uint256"
          },
          {
            "astId": 11724,
            "contract": "contracts/component/facets/SecurityFacet.sol:SecurityFacet",
            "label": "interestRateStrategyAddress",
            "offset": 0,
            "slot": "7",
            "type": "t_address"
          },
          {
            "astId": 11726,
            "contract": "contracts/component/facets/SecurityFacet.sol:SecurityFacet",
            "label": "healthStrategyAddress",
            "offset": 0,
            "slot": "8",
            "type": "t_address"
          },
          {
            "astId": 11728,
            "contract": "contracts/component/facets/SecurityFacet.sol:SecurityFacet",
            "label": "loanStrategyAddress",
            "offset": 0,
            "slot": "9",
            "type": "t_address"
          },
          {
            "astId": 11730,
            "contract": "contracts/component/facets/SecurityFacet.sol:SecurityFacet",
            "label": "juniorDepositTokenAddress",
            "offset": 0,
            "slot": "10",
            "type": "t_address"
          },
          {
            "astId": 11732,
            "contract": "contracts/component/facets/SecurityFacet.sol:SecurityFacet",
            "label": "seniorDepositTokenAddress",
            "offset": 0,
            "slot": "11",
            "type": "t_address"
          },
          {
            "astId": 11734,
            "contract": "contracts/component/facets/SecurityFacet.sol:SecurityFacet",
            "label": "juniorLastUpdateTimestamp",
            "offset": 20,
            "slot": "11",
            "type": "t_uint40"
          },
          {
            "astId": 11736,
            "contract": "contracts/component/facets/SecurityFacet.sol:SecurityFacet",
            "label": "seniorLastUpdateTimestamp",
            "offset": 25,
            "slot": "11",
            "type": "t_uint40"
          },
          {
            "astId": 11738,
            "contract": "contracts/component/facets/SecurityFacet.sol:SecurityFacet",
            "label": "optimalTrancheRatio",
            "offset": 0,
            "slot": "12",
            "type": "t_uint256"
          },
          {
            "astId": 11740,
            "contract": "contracts/component/facets/SecurityFacet.sol:SecurityFacet",
            "label": "currentIncomeRatio",
            "offset": 0,
            "slot": "13",
            "type": "t_uint256"
          },
          {
            "astId": 11742,
            "contract": "contracts/component/facets/SecurityFacet.sol:SecurityFacet",
            "label": "optimalIncomeRatio",
            "offset": 0,
            "slot": "14",
            "type": "t_uint256"
          },
          {
            "astId": 11744,
            "contract": "contracts/component/facets/SecurityFacet.sol:SecurityFacet",
            "label": "nftAddress",
            "offset": 0,
            "slot": "15",
            "type": "t_address"
          },
          {
            "astId": 11746,
            "contract": "contracts/component/facets/SecurityFacet.sol:SecurityFacet",
            "label": "initialized",
            "offset": 20,
            "slot": "15",
            "type": "t_bool"
          }
        ],
        "numberOfBytes": "512"
      },
      "t_struct(VaultConfig)11831_storage": {
        "encoding": "inplace",
        "label": "struct VaultConfig",
        "members": [
          {
            "astId": 11826,
            "contract": "contracts/component/facets/SecurityFacet.sol:SecurityFacet",
            "label": "minMargin",
            "offset": 0,
            "slot": "0",
            "type": "t_uint256"
          },
          {
            "astId": 11828,
            "contract": "contracts/component/facets/SecurityFacet.sol:SecurityFacet",
            "label": "maxMargin",
            "offset": 0,
            "slot": "1",
            "type": "t_uint256"
          },
          {
            "astId": 11830,
            "contract": "contracts/component/facets/SecurityFacet.sol:SecurityFacet",
            "label": "marginRequirement",
            "offset": 0,
            "slot": "2",
            "type": "t_uint256"
          }
        ],
        "numberOfBytes": "96"
      },
      "t_uint16": {
        "encoding": "inplace",
        "label": "uint16",
        "numberOfBytes": "2"
      },
      "t_uint256": {
        "encoding": "inplace",
        "label": "uint256",
        "numberOfBytes": "32"
      },
      "t_uint40": {
        "encoding": "inplace",
        "label": "uint40",
        "numberOfBytes": "5"
      }
    }
  }
}