{
  "address": "0x5D2E65Ecb199b34cB7d215790d873a0B06D9D540",
  "abi": [
    {
      "anonymous": false,
      "inputs": [
        {
          "indexed": true,
          "internalType": "address",
          "name": "owner",
          "type": "address"
        },
        {
          "indexed": true,
          "internalType": "address",
          "name": "spender",
          "type": "address"
        },
        {
          "indexed": false,
          "internalType": "uint256",
          "name": "value",
          "type": "uint256"
        }
      ],
      "name": "Approval",
      "type": "event"
    },
    {
      "anonymous": false,
      "inputs": [
        {
          "indexed": true,
          "internalType": "address",
          "name": "from",
          "type": "address"
        },
        {
          "indexed": true,
          "internalType": "address",
          "name": "target",
          "type": "address"
        },
        {
          "indexed": false,
          "internalType": "uint256",
          "name": "value",
          "type": "uint256"
        },
        {
          "indexed": false,
          "internalType": "uint256",
          "name": "index",
          "type": "uint256"
        }
      ],
      "name": "Burn",
      "type": "event"
    },
    {
      "anonymous": false,
      "inputs": [
        {
          "indexed": true,
          "internalType": "address",
          "name": "underlyingAsset",
          "type": "address"
        },
        {
          "indexed": true,
          "internalType": "address",
          "name": "liquidityManagerProxy",
          "type": "address"
        },
        {
          "indexed": false,
          "internalType": "uint8",
          "name": "tokenDecimals",
          "type": "uint8"
        },
        {
          "indexed": false,
          "internalType": "string",
          "name": "tokenName",
          "type": "string"
        },
        {
          "indexed": false,
          "internalType": "string",
          "name": "tokenSymbol",
          "type": "string"
        },
        {
          "indexed": false,
          "internalType": "bytes",
          "name": "params",
          "type": "bytes"
        }
      ],
      "name": "Initialized",
      "type": "event"
    },
    {
      "anonymous": false,
      "inputs": [
        {
          "indexed": true,
          "internalType": "address",
          "name": "from",
          "type": "address"
        },
        {
          "indexed": false,
          "internalType": "uint256",
          "name": "value",
          "type": "uint256"
        },
        {
          "indexed": false,
          "internalType": "uint256",
          "name": "index",
          "type": "uint256"
        }
      ],
      "name": "Mint",
      "type": "event"
    },
    {
      "anonymous": false,
      "inputs": [
        {
          "indexed": true,
          "internalType": "address",
          "name": "from",
          "type": "address"
        },
        {
          "indexed": true,
          "internalType": "address",
          "name": "to",
          "type": "address"
        },
        {
          "indexed": false,
          "internalType": "uint256",
          "name": "value",
          "type": "uint256"
        }
      ],
      "name": "Transfer",
      "type": "event"
    },
    {
      "inputs": [],
      "name": "SENIOR_DEPOSIT_TOKEN_REVISION",
      "outputs": [
        {
          "internalType": "uint256",
          "name": "",
          "type": "uint256"
        }
      ],
      "stateMutability": "view",
      "type": "function"
    },
    {
      "inputs": [
        {
          "internalType": "address",
          "name": "owner",
          "type": "address"
        },
        {
          "internalType": "address",
          "name": "spender",
          "type": "address"
        }
      ],
      "name": "allowance",
      "outputs": [
        {
          "internalType": "uint256",
          "name": "",
          "type": "uint256"
        }
      ],
      "stateMutability": "view",
      "type": "function"
    },
    {
      "inputs": [
        {
          "internalType": "address",
          "name": "spender",
          "type": "address"
        },
        {
          "internalType": "uint256",
          "name": "amount",
          "type": "uint256"
        }
      ],
      "name": "approve",
      "outputs": [
        {
          "internalType": "bool",
          "name": "",
          "type": "bool"
        }
      ],
      "stateMutability": "nonpayable",
      "type": "function"
    },
    {
      "inputs": [
        {
          "internalType": "address",
          "name": "_user",
          "type": "address"
        }
      ],
      "name": "balanceOf",
      "outputs": [
        {
          "internalType": "uint256",
          "name": "",
          "type": "uint256"
        }
      ],
      "stateMutability": "view",
      "type": "function"
    },
    {
      "inputs": [
        {
          "internalType": "address",
          "name": "_user",
          "type": "address"
        },
        {
          "internalType": "address",
          "name": "_receiverOfUnderlying",
          "type": "address"
        },
        {
          "internalType": "uint256",
          "name": "_amount",
          "type": "uint256"
        },
        {
          "internalType": "uint256",
          "name": "_index",
          "type": "uint256"
        }
      ],
      "name": "burn",
      "outputs": [],
      "stateMutability": "nonpayable",
      "type": "function"
    },
    {
      "inputs": [],
      "name": "decimals",
      "outputs": [
        {
          "internalType": "uint8",
          "name": "",
          "type": "uint8"
        }
      ],
      "stateMutability": "view",
      "type": "function"
    },
    {
      "inputs": [
        {
          "internalType": "address",
          "name": "spender",
          "type": "address"
        },
        {
          "internalType": "uint256",
          "name": "subtractedValue",
          "type": "uint256"
        }
      ],
      "name": "decreaseAllowance",
      "outputs": [
        {
          "internalType": "bool",
          "name": "",
          "type": "bool"
        }
      ],
      "stateMutability": "nonpayable",
      "type": "function"
    },
    {
      "inputs": [
        {
          "internalType": "address",
          "name": "spender",
          "type": "address"
        },
        {
          "internalType": "uint256",
          "name": "addedValue",
          "type": "uint256"
        }
      ],
      "name": "increaseAllowance",
      "outputs": [
        {
          "internalType": "bool",
          "name": "",
          "type": "bool"
        }
      ],
      "stateMutability": "nonpayable",
      "type": "function"
    },
    {
      "inputs": [
        {
          "internalType": "contract AddressResolver",
          "name": "_addressResolver",
          "type": "address"
        },
        {
          "internalType": "address",
          "name": "_underlyingAsset",
          "type": "address"
        },
        {
          "internalType": "uint8",
          "name": "_seniorDepositTokenDecimals",
          "type": "uint8"
        },
        {
          "internalType": "string",
          "name": "_seniorDepositTokenName",
          "type": "string"
        },
        {
          "internalType": "string",
          "name": "_seniorDepositTokenSymbol",
          "type": "string"
        },
        {
          "internalType": "bytes",
          "name": "_params",
          "type": "bytes"
        }
      ],
      "name": "initialize",
      "outputs": [],
      "stateMutability": "nonpayable",
      "type": "function"
    },
    {
      "inputs": [],
      "name": "isInitialized",
      "outputs": [
        {
          "internalType": "bool",
          "name": "",
          "type": "bool"
        }
      ],
      "stateMutability": "view",
      "type": "function"
    },
    {
      "inputs": [
        {
          "internalType": "address",
          "name": "_user",
          "type": "address"
        },
        {
          "internalType": "uint256",
          "name": "_amount",
          "type": "uint256"
        },
        {
          "internalType": "uint256",
          "name": "_index",
          "type": "uint256"
        }
      ],
      "name": "mint",
      "outputs": [
        {
          "internalType": "bool",
          "name": "",
          "type": "bool"
        }
      ],
      "stateMutability": "nonpayable",
      "type": "function"
    },
    {
      "inputs": [],
      "name": "name",
      "outputs": [
        {
          "internalType": "string",
          "name": "",
          "type": "string"
        }
      ],
      "stateMutability": "view",
      "type": "function"
    },
    {
      "inputs": [
        {
          "internalType": "address",
          "name": "_user",
          "type": "address"
        }
      ],
      "name": "scaledBalanceOf",
      "outputs": [
        {
          "internalType": "uint256",
          "name": "",
          "type": "uint256"
        }
      ],
      "stateMutability": "view",
      "type": "function"
    },
    {
      "inputs": [],
      "name": "scaledTotalSupply",
      "outputs": [
        {
          "internalType": "uint256",
          "name": "",
          "type": "uint256"
        }
      ],
      "stateMutability": "view",
      "type": "function"
    },
    {
      "inputs": [],
      "name": "symbol",
      "outputs": [
        {
          "internalType": "string",
          "name": "",
          "type": "string"
        }
      ],
      "stateMutability": "view",
      "type": "function"
    },
    {
      "inputs": [],
      "name": "totalSupply",
      "outputs": [
        {
          "internalType": "uint256",
          "name": "",
          "type": "uint256"
        }
      ],
      "stateMutability": "view",
      "type": "function"
    },
    {
      "inputs": [
        {
          "internalType": "address",
          "name": "recipient",
          "type": "address"
        },
        {
          "internalType": "uint256",
          "name": "amount",
          "type": "uint256"
        }
      ],
      "name": "transfer",
      "outputs": [
        {
          "internalType": "bool",
          "name": "",
          "type": "bool"
        }
      ],
      "stateMutability": "nonpayable",
      "type": "function"
    },
    {
      "inputs": [
        {
          "internalType": "address",
          "name": "sender",
          "type": "address"
        },
        {
          "internalType": "address",
          "name": "recipient",
          "type": "address"
        },
        {
          "internalType": "uint256",
          "name": "amount",
          "type": "uint256"
        }
      ],
      "name": "transferFrom",
      "outputs": [
        {
          "internalType": "bool",
          "name": "",
          "type": "bool"
        }
      ],
      "stateMutability": "nonpayable",
      "type": "function"
    }
  ],
  "transactionHash": "0x83196d9026d37e8716905f2e93665d2ebcee7a8c10e23fffe3535151c9f8c6f1",
  "args": [],
  "numDeployments": 1,
  "solcInputHash": "99f304c05d396759818c8715e3c3dcf9",
  "bytecode": "0x6080604052600080553480156200001557600080fd5b506040518060400160405280601781526020017f53656e696f724465706f736974546f6b656e5f494d504c0000000000000000008152506040518060400160405280601781526020017f53656e696f724465706f736974546f6b656e5f494d504c000000000000000000815250600082603790805190602001906200009c929190620000bf565b508160389080519060200190620000b5929190620000bf565b50505050620001d4565b828054620000cd906200019e565b90600052602060002090601f016020900481019282620000f157600085556200013d565b82601f106200010c57805160ff19168380011785556200013d565b828001600101855582156200013d579182015b828111156200013c5782518255916020019190600101906200011f565b5b5090506200014c919062000150565b5090565b5b808211156200016b57600081600090555060010162000151565b5090565b7f4e487b7100000000000000000000000000000000000000000000000000000000600052602260045260246000fd5b60006002820490506001821680620001b757607f821691505b60208210811415620001ce57620001cd6200016f565b5b50919050565b61339c80620001e46000396000f3fe608060405234801561001057600080fd5b50600436106101165760003560e01c806339509351116100a2578063a457c2d711610071578063a457c2d71461030b578063a9059cbb1461033b578063b1bf962d1461036b578063d7020d0a14610389578063dd62ed3e146103a557610116565b8063395093511461027157806370a08231146102a15780637fdd585f146102d157806395d89b41146102ed57610116565b80631da24f3e116100e95780631da24f3e146101b757806323b872dd146101e75780632545d68a14610217578063313ce56714610235578063392e53cd1461025357610116565b806306fdde031461011b578063095ea7b314610139578063156e29f61461016957806318160ddd14610199575b600080fd5b6101236103d5565b6040516101309190612199565b60405180910390f35b610153600480360381019061014e9190612259565b610467565b60405161016091906122b4565b60405180910390f35b610183600480360381019061017e91906122cf565b610485565b60405161019091906122b4565b60405180910390f35b6101a161074d565b6040516101ae9190612331565b60405180910390f35b6101d160048036038101906101cc919061234c565b610841565b6040516101de9190612331565b60405180910390f35b61020160048036038101906101fc9190612379565b610853565b60405161020e91906122b4565b60405180910390f35b61021f61094b565b60405161022c9190612331565b60405180910390f35b61023d610950565b60405161024a91906123e8565b60405180910390f35b61025b610967565b60405161026891906122b4565b60405180910390f35b61028b60048036038101906102869190612259565b610994565b60405161029891906122b4565b60405180910390f35b6102bb60048036038101906102b6919061234c565b610a40565b6040516102c89190612331565b60405180910390f35b6102eb60048036038101906102e69190612528565b610b1d565b005b6102f5610e3d565b6040516103029190612199565b60405180910390f35b61032560048036038101906103209190612259565b610ecf565b60405161033291906122b4565b60405180910390f35b61035560048036038101906103509190612259565b610fba565b60405161036291906122b4565b60405180910390f35b610373610fd8565b6040516103809190612331565b60405180910390f35b6103a3600480360381019061039e9190612617565b610fe7565b005b6103bf60048036038101906103ba919061267e565b6112fc565b6040516103cc9190612331565b60405180910390f35b6060603780546103e4906126ed565b80601f0160208091040260200160405190810160405280929190818152602001828054610410906126ed565b801561045d5780601f106104325761010080835404028352916020019161045d565b820191906000526020600020905b81548152906001019060200180831161044057829003601f168201915b5050505050905090565b600061047b610474611383565b848461138b565b6001905092915050565b6000603960019054906101000a900473ffffffffffffffffffffffffffffffffffffffff1673ffffffffffffffffffffffffffffffffffffffff166321f8a7216040518163ffffffff1660e01b81526004016104e090612745565b60206040518083038186803b1580156104f857600080fd5b505afa15801561050c573d6000803e3d6000fd5b505050506040513d601f19601f820116820180604052508101906105309190612773565b73ffffffffffffffffffffffffffffffffffffffff1661054e611383565b73ffffffffffffffffffffffffffffffffffffffff16146040518060400160405280600281526020017f3230000000000000000000000000000000000000000000000000000000000000815250906105dc576040517f08c379a00000000000000000000000000000000000000000000000000000000081526004016105d39190612199565b60405180910390fd5b5060006105e885611556565b905060006105ff848661159f90919063ffffffff16565b905060008114156040518060400160405280600281526020017f32310000000000000000000000000000000000000000000000000000000000008152509061067d576040517f08c379a00000000000000000000000000000000000000000000000000000000081526004016106749190612199565b60405180910390fd5b5061068886826115fd565b8573ffffffffffffffffffffffffffffffffffffffff16600073ffffffffffffffffffffffffffffffffffffffff167fddf252ad1be2c89b69c2b068fc378daa952ba7f163c4a11628f55a4df523b3ef876040516106e69190612331565b60405180910390a38573ffffffffffffffffffffffffffffffffffffffff167f4c209b5fc8ad50758f13e2e1088ba56a560dff690a1c6fef26394f4c03821c4f86866040516107369291906127a0565b60405180910390a260008214925050509392505050565b600080610758611739565b9050600081141561076d57600091505061083e565b6000610777611743565b90506108398173ffffffffffffffffffffffffffffffffffffffff1663284592b2603a60009054906101000a900473ffffffffffffffffffffffffffffffffffffffff1660016040518363ffffffff1660e01b81526004016107da92919061284f565b60206040518083038186803b1580156107f257600080fd5b505afa158015610806573d6000803e3d6000fd5b505050506040513d601f19601f8201168201806040525081019061082a919061288d565b836117f890919063ffffffff16565b925050505b90565b600061084c82611556565b9050919050565b600061086084848461185d565b6000603560008673ffffffffffffffffffffffffffffffffffffffff1673ffffffffffffffffffffffffffffffffffffffff16815260200190815260200160002060006108ab611383565b73ffffffffffffffffffffffffffffffffffffffff1673ffffffffffffffffffffffffffffffffffffffff1681526020019081526020016000205490508281101561092b576040517f08c379a00000000000000000000000000000000000000000000000000000000081526004016109229061292c565b60405180910390fd5b61093f85610937611383565b85840361138b565b60019150509392505050565b600181565b6000603960009054906101000a900460ff16905090565b6000600160009054906101000a900460ff1615801561098f575060005461098c611ae1565b11155b905090565b6000610a366109a1611383565b8484603560006109af611383565b73ffffffffffffffffffffffffffffffffffffffff1673ffffffffffffffffffffffffffffffffffffffff16815260200190815260200160002060008873ffffffffffffffffffffffffffffffffffffffff1673ffffffffffffffffffffffffffffffffffffffff16815260200190815260200160002054610a31919061297b565b61138b565b6001905092915050565b600080610a4b611743565b9050610b158173ffffffffffffffffffffffffffffffffffffffff1663776f6891603a60009054906101000a900473ffffffffffffffffffffffffffffffffffffffff1660016040518363ffffffff1660e01b8152600401610aae92919061284f565b60206040518083038186803b158015610ac657600080fd5b505afa158015610ada573d6000803e3d6000fd5b505050506040513d601f19601f82011682018060405250810190610afe919061288d565b610b0785611556565b6117f890919063ffffffff16565b915050919050565b6000610b27611ae1565b9050600160009054906101000a900460ff1680610b485750610b47611aea565b5b80610b54575060005481115b610b93576040517f08c379a0000000000000000000000000000000000000000000000000000000008152600401610b8a90612a43565b60405180910390fd5b6000600160009054906101000a900460ff161590508015610bd05760018060006101000a81548160ff021916908315150217905550816000819055505b610c1d88888080601f016020809104026020016040519081016040528093929190818152602001838380828437600081840152601f19601f82011690508083019250505050505050611afb565b610c6a86868080601f016020809104026020016040519081016040528093929190818152602001838380828437600081840152601f19601f82011690508083019250505050505050611b15565b610c7389611b2f565b8a603960016101000a81548173ffffffffffffffffffffffffffffffffffffffff021916908373ffffffffffffffffffffffffffffffffffffffff16021790555089603a60006101000a81548173ffffffffffffffffffffffffffffffffffffffff021916908373ffffffffffffffffffffffffffffffffffffffff160217905550603960019054906101000a900473ffffffffffffffffffffffffffffffffffffffff1673ffffffffffffffffffffffffffffffffffffffff166321f8a7216040518163ffffffff1660e01b8152600401610d4e90612745565b60206040518083038186803b158015610d6657600080fd5b505afa158015610d7a573d6000803e3d6000fd5b505050506040513d601f19601f82011682018060405250810190610d9e9190612773565b73ffffffffffffffffffffffffffffffffffffffff168a73ffffffffffffffffffffffffffffffffffffffff167f5d8ce3e947367e84e7fa4f4ba36ebe75e6b6c6b93c25673faa4df0202b59c1388b8b8b8b8b8b8b604051610e069796959493929190612add565b60405180910390a38015610e30576000600160006101000a81548160ff0219169083151502179055505b5050505050505050505050565b606060388054610e4c906126ed565b80601f0160208091040260200160405190810160405280929190818152602001828054610e78906126ed565b8015610ec55780601f10610e9a57610100808354040283529160200191610ec5565b820191906000526020600020905b815481529060010190602001808311610ea857829003601f168201915b5050505050905090565b60008060356000610ede611383565b73ffffffffffffffffffffffffffffffffffffffff1673ffffffffffffffffffffffffffffffffffffffff16815260200190815260200160002060008573ffffffffffffffffffffffffffffffffffffffff1673ffffffffffffffffffffffffffffffffffffffff16815260200190815260200160002054905082811015610f9b576040517f08c379a0000000000000000000000000000000000000000000000000000000008152600401610f9290612baf565b60405180910390fd5b610faf610fa6611383565b8585840361138b565b600191505092915050565b6000610fce610fc7611383565b848461185d565b6001905092915050565b6000610fe2611739565b905090565b603960019054906101000a900473ffffffffffffffffffffffffffffffffffffffff1673ffffffffffffffffffffffffffffffffffffffff166321f8a7216040518163ffffffff1660e01b815260040161104090612745565b60206040518083038186803b15801561105857600080fd5b505afa15801561106c573d6000803e3d6000fd5b505050506040513d601f19601f820116820180604052508101906110909190612773565b73ffffffffffffffffffffffffffffffffffffffff166110ae611383565b73ffffffffffffffffffffffffffffffffffffffff16146040518060400160405280600281526020017f32300000000000000000000000000000000000000000000000000000000000008152509061113c576040517f08c379a00000000000000000000000000000000000000000000000000000000081526004016111339190612199565b60405180910390fd5b506000611152828461159f90919063ffffffff16565b905060008114156040518060400160405280600281526020017f3232000000000000000000000000000000000000000000000000000000000000815250906111d0576040517f08c379a00000000000000000000000000000000000000000000000000000000081526004016111c79190612199565b60405180910390fd5b506111db8582611b4d565b6112288484603a60009054906101000a900473ffffffffffffffffffffffffffffffffffffffff1673ffffffffffffffffffffffffffffffffffffffff16611ca39092919063ffffffff16565b600073ffffffffffffffffffffffffffffffffffffffff168573ffffffffffffffffffffffffffffffffffffffff167fddf252ad1be2c89b69c2b068fc378daa952ba7f163c4a11628f55a4df523b3ef856040516112869190612331565b60405180910390a38373ffffffffffffffffffffffffffffffffffffffff168573ffffffffffffffffffffffffffffffffffffffff167f5d624aa9c148153ab3446c1b154f660ee7701e549fe9b62dab7171b1c80e6fa285856040516112ed9291906127a0565b60405180910390a35050505050565b6000603560008473ffffffffffffffffffffffffffffffffffffffff1673ffffffffffffffffffffffffffffffffffffffff16815260200190815260200160002060008373ffffffffffffffffffffffffffffffffffffffff1673ffffffffffffffffffffffffffffffffffffffff16815260200190815260200160002054905092915050565b600033905090565b600073ffffffffffffffffffffffffffffffffffffffff168373ffffffffffffffffffffffffffffffffffffffff1614156113fb576040517f08c379a00000000000000000000000000000000000000000000000000000000081526004016113f290612c41565b60405180910390fd5b600073ffffffffffffffffffffffffffffffffffffffff168273ffffffffffffffffffffffffffffffffffffffff16141561146b576040517f08c379a000000000000000000000000000000000000000000000000000000000815260040161146290612cd3565b60405180910390fd5b80603560008573ffffffffffffffffffffffffffffffffffffffff1673ffffffffffffffffffffffffffffffffffffffff16815260200190815260200160002060008473ffffffffffffffffffffffffffffffffffffffff1673ffffffffffffffffffffffffffffffffffffffff168152602001908152602001600020819055508173ffffffffffffffffffffffffffffffffffffffff168373ffffffffffffffffffffffffffffffffffffffff167f8c5be1e5ebec7d5bd14f71427d1e84f3dd0314c0f7b2291e5b200ac8c7c3b925836040516115499190612331565b60405180910390a3505050565b6000603460008373ffffffffffffffffffffffffffffffffffffffff1673ffffffffffffffffffffffffffffffffffffffff168152602001908152602001600020549050919050565b6000806002836115af9190612d22565b90506115f4836115e66115d76b033b2e3c9fd0803ce800000088611d2990919063ffffffff16565b84611d3f90919063ffffffff16565b611d5590919063ffffffff16565b91505092915050565b600073ffffffffffffffffffffffffffffffffffffffff168273ffffffffffffffffffffffffffffffffffffffff16141561166d576040517f08c379a000000000000000000000000000000000000000000000000000000000815260040161166490612d9f565b60405180910390fd5b61167960008383611d6b565b600060365490506116938282611d3f90919063ffffffff16565b6036819055506000603460008573ffffffffffffffffffffffffffffffffffffffff1673ffffffffffffffffffffffffffffffffffffffff1681526020019081526020016000205490506116f08382611d3f90919063ffffffff16565b603460008673ffffffffffffffffffffffffffffffffffffffff1673ffffffffffffffffffffffffffffffffffffffff1681526020019081526020016000208190555050505050565b6000603654905090565b600080603960019054906101000a900473ffffffffffffffffffffffffffffffffffffffff1673ffffffffffffffffffffffffffffffffffffffff166321f8a7216040518163ffffffff1660e01b815260040161179f90612de5565b60206040518083038186803b1580156117b757600080fd5b505afa1580156117cb573d6000803e3d6000fd5b505050506040513d601f19601f820116820180604052508101906117ef9190612773565b90508091505090565b60006118556b033b2e3c9fd0803ce80000006118476118208587611d2990919063ffffffff16565b60026b033b2e3c9fd0803ce80000006118399190612d22565b611d3f90919063ffffffff16565b611d5590919063ffffffff16565b905092915050565b600073ffffffffffffffffffffffffffffffffffffffff168373ffffffffffffffffffffffffffffffffffffffff1614156118cd576040517f08c379a00000000000000000000000000000000000000000000000000000000081526004016118c490612e70565b60405180910390fd5b600073ffffffffffffffffffffffffffffffffffffffff168273ffffffffffffffffffffffffffffffffffffffff16141561193d576040517f08c379a000000000000000000000000000000000000000000000000000000000815260040161193490612f02565b60405180910390fd5b611948838383611d6b565b6000603460008573ffffffffffffffffffffffffffffffffffffffff1673ffffffffffffffffffffffffffffffffffffffff168152602001908152602001600020549050818110156119cf576040517f08c379a00000000000000000000000000000000000000000000000000000000081526004016119c690612f94565b60405180910390fd5b818103603460008673ffffffffffffffffffffffffffffffffffffffff1673ffffffffffffffffffffffffffffffffffffffff1681526020019081526020016000208190555081603460008573ffffffffffffffffffffffffffffffffffffffff1673ffffffffffffffffffffffffffffffffffffffff1681526020019081526020016000206000828254611a64919061297b565b925050819055508273ffffffffffffffffffffffffffffffffffffffff168473ffffffffffffffffffffffffffffffffffffffff167fddf252ad1be2c89b69c2b068fc378daa952ba7f163c4a11628f55a4df523b3ef84604051611ac89190612331565b60405180910390a3611adb848484611d70565b50505050565b60006001905090565b600080303b90506000811491505090565b8060379080519060200190611b1192919061205d565b5050565b8060389080519060200190611b2b92919061205d565b5050565b80603960006101000a81548160ff021916908360ff16021790555050565b600073ffffffffffffffffffffffffffffffffffffffff168273ffffffffffffffffffffffffffffffffffffffff161415611bbd576040517f08c379a0000000000000000000000000000000000000000000000000000000008152600401611bb490613026565b60405180910390fd5b611bc982600083611d6b565b60006036549050611be38282611d7590919063ffffffff16565b6036819055506000603460008573ffffffffffffffffffffffffffffffffffffffff1673ffffffffffffffffffffffffffffffffffffffff168152602001908152602001600020549050611c5a836040518060600160405280602281526020016133456022913983611d8b9092919063ffffffff16565b603460008673ffffffffffffffffffffffffffffffffffffffff1673ffffffffffffffffffffffffffffffffffffffff1681526020019081526020016000208190555050505050565b611d248363a9059cbb60e01b8484604051602401611cc2929190613046565b604051602081830303815290604052907bffffffffffffffffffffffffffffffffffffffffffffffffffffffff19166020820180517bffffffffffffffffffffffffffffffffffffffffffffffffffffffff8381831617835250505050611de0565b505050565b60008183611d37919061306f565b905092915050565b60008183611d4d919061297b565b905092915050565b60008183611d639190612d22565b905092915050565b505050565b505050565b60008183611d8391906130c9565b905092915050565b6000838311158290611dd3576040517f08c379a0000000000000000000000000000000000000000000000000000000008152600401611dca9190612199565b60405180910390fd5b5082840390509392505050565b6000611e42826040518060400160405280602081526020017f5361666545524332303a206c6f772d6c6576656c2063616c6c206661696c65648152508573ffffffffffffffffffffffffffffffffffffffff16611ea79092919063ffffffff16565b9050600081511115611ea25780806020019051810190611e629190613129565b611ea1576040517f08c379a0000000000000000000000000000000000000000000000000000000008152600401611e98906131c8565b60405180910390fd5b5b505050565b6060611eb68484600085611ebf565b90509392505050565b606082471015611f04576040517f08c379a0000000000000000000000000000000000000000000000000000000008152600401611efb9061325a565b60405180910390fd5b611f0d85611fd3565b611f4c576040517f08c379a0000000000000000000000000000000000000000000000000000000008152600401611f43906132c6565b60405180910390fd5b6000808673ffffffffffffffffffffffffffffffffffffffff168587604051611f75919061332d565b60006040518083038185875af1925050503d8060008114611fb2576040519150601f19603f3d011682016040523d82523d6000602084013e611fb7565b606091505b5091509150611fc7828286611ff6565b92505050949350505050565b6000808273ffffffffffffffffffffffffffffffffffffffff163b119050919050565b6060831561200657829050612056565b6000835111156120195782518084602001fd5b816040517f08c379a000000000000000000000000000000000000000000000000000000000815260040161204d9190612199565b60405180910390fd5b9392505050565b828054612069906126ed565b90600052602060002090601f01602090048101928261208b57600085556120d2565b82601f106120a457805160ff19168380011785556120d2565b828001600101855582156120d2579182015b828111156120d15782518255916020019190600101906120b6565b5b5090506120df91906120e3565b5090565b5b808211156120fc5760008160009055506001016120e4565b5090565b600081519050919050565b600082825260208201905092915050565b60005b8381101561213a57808201518184015260208101905061211f565b83811115612149576000848401525b50505050565b6000601f19601f8301169050919050565b600061216b82612100565b612175818561210b565b935061218581856020860161211c565b61218e8161214f565b840191505092915050565b600060208201905081810360008301526121b38184612160565b905092915050565b600080fd5b600080fd5b600073ffffffffffffffffffffffffffffffffffffffff82169050919050565b60006121f0826121c5565b9050919050565b612200816121e5565b811461220b57600080fd5b50565b60008135905061221d816121f7565b92915050565b6000819050919050565b61223681612223565b811461224157600080fd5b50565b6000813590506122538161222d565b92915050565b600080604083850312156122705761226f6121bb565b5b600061227e8582860161220e565b925050602061228f85828601612244565b9150509250929050565b60008115159050919050565b6122ae81612299565b82525050565b60006020820190506122c960008301846122a5565b92915050565b6000806000606084860312156122e8576122e76121bb565b5b60006122f68682870161220e565b935050602061230786828701612244565b925050604061231886828701612244565b9150509250925092565b61232b81612223565b82525050565b60006020820190506123466000830184612322565b92915050565b600060208284031215612362576123616121bb565b5b60006123708482850161220e565b91505092915050565b600080600060608486031215612392576123916121bb565b5b60006123a08682870161220e565b93505060206123b18682870161220e565b92505060406123c286828701612244565b9150509250925092565b600060ff82169050919050565b6123e2816123cc565b82525050565b60006020820190506123fd60008301846123d9565b92915050565b600061240e826121e5565b9050919050565b61241e81612403565b811461242957600080fd5b50565b60008135905061243b81612415565b92915050565b61244a816123cc565b811461245557600080fd5b50565b60008135905061246781612441565b92915050565b600080fd5b600080fd5b600080fd5b60008083601f8401126124925761249161246d565b5b8235905067ffffffffffffffff8111156124af576124ae612472565b5b6020830191508360018202830111156124cb576124ca612477565b5b9250929050565b60008083601f8401126124e8576124e761246d565b5b8235905067ffffffffffffffff81111561250557612504612472565b5b60208301915083600182028301111561252157612520612477565b5b9250929050565b600080600080600080600080600060c08a8c03121561254a576125496121bb565b5b60006125588c828d0161242c565b99505060206125698c828d0161220e565b985050604061257a8c828d01612458565b97505060608a013567ffffffffffffffff81111561259b5761259a6121c0565b5b6125a78c828d0161247c565b965096505060808a013567ffffffffffffffff8111156125ca576125c96121c0565b5b6125d68c828d0161247c565b945094505060a08a013567ffffffffffffffff8111156125f9576125f86121c0565b5b6126058c828d016124d2565b92509250509295985092959850929598565b60008060008060808587031215612631576126306121bb565b5b600061263f8782880161220e565b94505060206126508782880161220e565b935050604061266187828801612244565b925050606061267287828801612244565b91505092959194509250565b60008060408385031215612695576126946121bb565b5b60006126a38582860161220e565b92505060206126b48582860161220e565b9150509250929050565b7f4e487b7100000000000000000000000000000000000000000000000000000000600052602260045260246000fd5b6000600282049050600182168061270557607f821691505b60208210811415612719576127186126be565b5b50919050565b7f6c69717569646974794d616e6167657200000000000000000000000000000000815250565b60006020820190506127596000830161271f565b919050565b60008151905061276d816121f7565b92915050565b600060208284031215612789576127886121bb565b5b60006127978482850161275e565b91505092915050565b60006040820190506127b56000830185612322565b6127c26020830184612322565b9392505050565b6127d2816121e5565b82525050565b7f4e487b7100000000000000000000000000000000000000000000000000000000600052602160045260246000fd5b60028110612818576128176127d8565b5b50565b600081905061282982612807565b919050565b60006128398261281b565b9050919050565b6128498161282e565b82525050565b600060408201905061286460008301856127c9565b6128716020830184612840565b9392505050565b6000815190506128878161222d565b92915050565b6000602082840312156128a3576128a26121bb565b5b60006128b184828501612878565b91505092915050565b7f45524332303a207472616e7366657220616d6f756e742065786365656473206160008201527f6c6c6f77616e6365000000000000000000000000000000000000000000000000602082015250565b600061291660288361210b565b9150612921826128ba565b604082019050919050565b6000602082019050818103600083015261294581612909565b9050919050565b7f4e487b7100000000000000000000000000000000000000000000000000000000600052601160045260246000fd5b600061298682612223565b915061299183612223565b9250827fffffffffffffffffffffffffffffffffffffffffffffffffffffffffffffffff038211156129c6576129c561294c565b5b828201905092915050565b7f436f6e747261637420696e7374616e63652068617320616c726561647920626560008201527f656e20696e697469616c697a6564000000000000000000000000000000000000602082015250565b6000612a2d602e8361210b565b9150612a38826129d1565b604082019050919050565b60006020820190508181036000830152612a5c81612a20565b9050919050565b82818337600083830152505050565b6000612a7e838561210b565b9350612a8b838584612a63565b612a948361214f565b840190509392505050565b600082825260208201905092915050565b6000612abc8385612a9f565b9350612ac9838584612a63565b612ad28361214f565b840190509392505050565b6000608082019050612af2600083018a6123d9565b8181036020830152612b0581888a612a72565b90508181036040830152612b1a818688612a72565b90508181036060830152612b2f818486612ab0565b905098975050505050505050565b7f45524332303a2064656372656173656420616c6c6f77616e63652062656c6f7760008201527f207a65726f000000000000000000000000000000000000000000000000000000602082015250565b6000612b9960258361210b565b9150612ba482612b3d565b604082019050919050565b60006020820190508181036000830152612bc881612b8c565b9050919050565b7f45524332303a20617070726f76652066726f6d20746865207a65726f2061646460008201527f7265737300000000000000000000000000000000000000000000000000000000602082015250565b6000612c2b60248361210b565b9150612c3682612bcf565b604082019050919050565b60006020820190508181036000830152612c5a81612c1e565b9050919050565b7f45524332303a20617070726f766520746f20746865207a65726f20616464726560008201527f7373000000000000000000000000000000000000000000000000000000000000602082015250565b6000612cbd60228361210b565b9150612cc882612c61565b604082019050919050565b60006020820190508181036000830152612cec81612cb0565b9050919050565b7f4e487b7100000000000000000000000000000000000000000000000000000000600052601260045260246000fd5b6000612d2d82612223565b9150612d3883612223565b925082612d4857612d47612cf3565b5b828204905092915050565b7f45524332303a206d696e7420746f20746865207a65726f206164647265737300600082015250565b6000612d89601f8361210b565b9150612d9482612d53565b602082019050919050565b60006020820190508181036000830152612db881612d7c565b9050919050565b7f6c69717569646974794d616e6167657250726f78790000000000000000000000815250565b6000602082019050612df960008301612dbf565b919050565b7f45524332303a207472616e736665722066726f6d20746865207a65726f20616460008201527f6472657373000000000000000000000000000000000000000000000000000000602082015250565b6000612e5a60258361210b565b9150612e6582612dfe565b604082019050919050565b60006020820190508181036000830152612e8981612e4d565b9050919050565b7f45524332303a207472616e7366657220746f20746865207a65726f206164647260008201527f6573730000000000000000000000000000000000000000000000000000000000602082015250565b6000612eec60238361210b565b9150612ef782612e90565b604082019050919050565b60006020820190508181036000830152612f1b81612edf565b9050919050565b7f45524332303a207472616e7366657220616d6f756e742065786365656473206260008201527f616c616e63650000000000000000000000000000000000000000000000000000602082015250565b6000612f7e60268361210b565b9150612f8982612f22565b604082019050919050565b60006020820190508181036000830152612fad81612f71565b9050919050565b7f45524332303a206275726e2066726f6d20746865207a65726f2061646472657360008201527f7300000000000000000000000000000000000000000000000000000000000000602082015250565b600061301060218361210b565b915061301b82612fb4565b604082019050919050565b6000602082019050818103600083015261303f81613003565b9050919050565b600060408201905061305b60008301856127c9565b6130686020830184612322565b9392505050565b600061307a82612223565b915061308583612223565b9250817fffffffffffffffffffffffffffffffffffffffffffffffffffffffffffffffff04831182151516156130be576130bd61294c565b5b828202905092915050565b60006130d482612223565b91506130df83612223565b9250828210156130f2576130f161294c565b5b828203905092915050565b61310681612299565b811461311157600080fd5b50565b600081519050613123816130fd565b92915050565b60006020828403121561313f5761313e6121bb565b5b600061314d84828501613114565b91505092915050565b7f5361666545524332303a204552433230206f7065726174696f6e20646964206e60008201527f6f74207375636365656400000000000000000000000000000000000000000000602082015250565b60006131b2602a8361210b565b91506131bd82613156565b604082019050919050565b600060208201905081810360008301526131e1816131a5565b9050919050565b7f416464726573733a20696e73756666696369656e742062616c616e636520666f60008201527f722063616c6c0000000000000000000000000000000000000000000000000000602082015250565b600061324460268361210b565b915061324f826131e8565b604082019050919050565b6000602082019050818103600083015261327381613237565b9050919050565b7f416464726573733a2063616c6c20746f206e6f6e2d636f6e7472616374000000600082015250565b60006132b0601d8361210b565b91506132bb8261327a565b602082019050919050565b600060208201905081810360008301526132df816132a3565b9050919050565b600081519050919050565b600081905092915050565b6000613307826132e6565b61331181856132f1565b935061332181856020860161211c565b80840191505092915050565b600061333982846132fc565b91508190509291505056fe45524332303a206275726e20616d6f756e7420657863656564732062616c616e6365a26469706673582212200ea724cad0d1e2d69ec20961b3a2be91507a7d3db35dc9410cbc525cf3f0a00a64736f6c63430008090033",
  "devdoc": {
    "kind": "dev",
    "methods": {
      "allowance(address,address)": {
        "details": "See {IERC20-allowance}."
      },
      "approve(address,uint256)": {
        "details": "See {IERC20-approve}. Requirements: - `spender` cannot be the zero address."
      },
      "balanceOf(address)": {
        "details": "Calculates the balance of the user: principal balance + interest generated by the principal",
        "params": {
          "_user": "The user whose balance is calculated"
        },
        "returns": {
          "_0": "The balance of the user*"
        }
      },
      "burn(address,address,uint256,uint256)": {
        "details": "Burns JuniorDepositToken from `_user` and sends the equivalent amount of underlying to `_receiverOfUnderlying` - Only callable by the LiquidityManagerProxy, as extra state updates there need to the managed",
        "params": {
          "_amount": "The amount being burned",
          "_index": "The new liquidity index of the reserve*",
          "_receiverOfUnderlying": "The address that will receive the underlying",
          "_user": "The owner of the JuniorDepositToken, getting them burned"
        }
      },
      "decimals()": {
        "details": "Returns the decimals places of the token."
      },
      "decreaseAllowance(address,uint256)": {
        "details": "Atomically decreases the allowance granted to `spender` by the caller. This is an alternative to {approve} that can be used as a mitigation for problems described in {IERC20-approve}. Emits an {Approval} event indicating the updated allowance. Requirements: - `spender` cannot be the zero address. - `spender` must have allowance for the caller of at least `subtractedValue`."
      },
      "increaseAllowance(address,uint256)": {
        "details": "Atomically increases the allowance granted to `spender` by the caller. This is an alternative to {approve} that can be used as a mitigation for problems described in {IERC20-approve}. Emits an {Approval} event indicating the updated allowance. Requirements: - `spender` cannot be the zero address."
      },
      "initialize(address,address,uint8,string,string,bytes)": {
        "details": "Initializes the JuniorDepositToken",
        "params": {
          "_addressResolver": "The address of the AddressResolver",
          "_seniorDepositTokenDecimals": "The decimals of the SeniorDepositToken, same as the underlying asset's",
          "_seniorDepositTokenName": "The name of the SeniorDepositToken",
          "_seniorDepositTokenSymbol": "The symbol of the SeniorDepositToken*",
          "_underlyingAsset": "The address of the underlying asset of this SeniorDepositToken"
        }
      },
      "isInitialized()": {
        "details": "Returns true if the contract has been initialized*"
      },
      "mint(address,uint256,uint256)": {
        "details": "Mints `_amount` junior deposit token to `_user`",
        "params": {
          "_amount": "The amount of tokens getting minted",
          "_index": "The new liquidity index of the reserve",
          "_user": "The address receiving the minted tokens"
        },
        "returns": {
          "_0": "`true` if the previous balance of the user was 0*"
        }
      },
      "name()": {
        "details": "Returns the name of the token."
      },
      "scaledBalanceOf(address)": {
        "details": "Returns the scaled balance of the user. The scaled balance is the sum of all the updated stored balance divided by the reserve's liquidity index at the moment of the update",
        "params": {
          "_user": "The user whose balance is calculated"
        },
        "returns": {
          "_0": "THe scaled balance of the user*"
        }
      },
      "symbol()": {
        "details": "Returns the symbol of the token, usually a shorter version of the name."
      },
      "totalSupply()": {
        "details": "calculates the total supply of the specific junior deposit token since the balance of every single user increases over time, the totally supply does that too.",
        "returns": {
          "_0": "the current total supply*"
        }
      },
      "transfer(address,uint256)": {
        "details": "See {IERC20-transfer}. Requirements: - `recipient` cannot be the zero address. - the caller must have a balance of at least `amount`."
      },
      "transferFrom(address,address,uint256)": {
        "details": "See {IERC20-transferFrom}. Emits an {Approval} event indicating the updated allowance. This is not required by the EIP. See the note at the beginning of {ERC20}. Requirements: - `sender` and `recipient` cannot be the zero address. - `sender` must have a balance of at least `amount`. - the caller must have allowance for ``sender``'s tokens of at least `amount`."
      }
    },
    "version": 1
  },
  "userdoc": {
    "kind": "user",
    "methods": {},
    "version": 1
  },
  "storageLayout": {
    "storage": [
      {
        "astId": 7768,
        "contract": "contracts/tokenization/SeniorDepositToken.sol:SeniorDepositToken",
        "label": "lastInitializedRevision",
        "offset": 0,
        "slot": "0",
        "type": "t_uint256"
      },
      {
        "astId": 7771,
        "contract": "contracts/tokenization/SeniorDepositToken.sol:SeniorDepositToken",
        "label": "initializing",
        "offset": 0,
        "slot": "1",
        "type": "t_bool"
      },
      {
        "astId": 7891,
        "contract": "contracts/tokenization/SeniorDepositToken.sol:SeniorDepositToken",
        "label": "______gap",
        "offset": 0,
        "slot": "2",
        "type": "t_array(t_uint256)50_storage"
      },
      {
        "astId": 6968,
        "contract": "contracts/tokenization/SeniorDepositToken.sol:SeniorDepositToken",
        "label": "_balances",
        "offset": 0,
        "slot": "52",
        "type": "t_mapping(t_address,t_uint256)"
      },
      {
        "astId": 6974,
        "contract": "contracts/tokenization/SeniorDepositToken.sol:SeniorDepositToken",
        "label": "_allowances",
        "offset": 0,
        "slot": "53",
        "type": "t_mapping(t_address,t_mapping(t_address,t_uint256))"
      },
      {
        "astId": 6976,
        "contract": "contracts/tokenization/SeniorDepositToken.sol:SeniorDepositToken",
        "label": "_totalSupply",
        "offset": 0,
        "slot": "54",
        "type": "t_uint256"
      },
      {
        "astId": 6978,
        "contract": "contracts/tokenization/SeniorDepositToken.sol:SeniorDepositToken",
        "label": "_name",
        "offset": 0,
        "slot": "55",
        "type": "t_string_storage"
      },
      {
        "astId": 6980,
        "contract": "contracts/tokenization/SeniorDepositToken.sol:SeniorDepositToken",
        "label": "_symbol",
        "offset": 0,
        "slot": "56",
        "type": "t_string_storage"
      },
      {
        "astId": 6982,
        "contract": "contracts/tokenization/SeniorDepositToken.sol:SeniorDepositToken",
        "label": "_decimals",
        "offset": 0,
        "slot": "57",
        "type": "t_uint8"
      },
      {
        "astId": 8462,
        "contract": "contracts/tokenization/SeniorDepositToken.sol:SeniorDepositToken",
        "label": "addressResolver",
        "offset": 1,
        "slot": "57",
        "type": "t_contract(AddressResolver)1009"
      },
      {
        "astId": 8464,
        "contract": "contracts/tokenization/SeniorDepositToken.sol:SeniorDepositToken",
        "label": "underlyingAsset",
        "offset": 0,
        "slot": "58",
        "type": "t_address"
      }
    ],
    "types": {
      "t_address": {
        "encoding": "inplace",
        "label": "address",
        "numberOfBytes": "20"
      },
      "t_array(t_uint256)50_storage": {
        "base": "t_uint256",
        "encoding": "inplace",
        "label": "uint256[50]",
        "numberOfBytes": "1600"
      },
      "t_bool": {
        "encoding": "inplace",
        "label": "bool",
        "numberOfBytes": "1"
      },
      "t_contract(AddressResolver)1009": {
        "encoding": "inplace",
        "label": "contract AddressResolver",
        "numberOfBytes": "20"
      },
      "t_mapping(t_address,t_mapping(t_address,t_uint256))": {
        "encoding": "mapping",
        "key": "t_address",
        "label": "mapping(address => mapping(address => uint256))",
        "numberOfBytes": "32",
        "value": "t_mapping(t_address,t_uint256)"
      },
      "t_mapping(t_address,t_uint256)": {
        "encoding": "mapping",
        "key": "t_address",
        "label": "mapping(address => uint256)",
        "numberOfBytes": "32",
        "value": "t_uint256"
      },
      "t_string_storage": {
        "encoding": "bytes",
        "label": "string",
        "numberOfBytes": "32"
      },
      "t_uint256": {
        "encoding": "inplace",
        "label": "uint256",
        "numberOfBytes": "32"
      },
      "t_uint8": {
        "encoding": "inplace",
        "label": "uint8",
        "numberOfBytes": "1"
      }
    }
  }
}