{
  "address": "0xFb092B518f5aD5d003A257d20fF23f00e03efa03",
  "abi": [
    {
      "inputs": [
        {
          "internalType": "contract AddressResolver",
          "name": "_addressResolver",
          "type": "address"
        },
        {
          "internalType": "contract ERC20",
          "name": "_underlyingAsset",
          "type": "address"
        },
        {
          "internalType": "string",
          "name": "_name",
          "type": "string"
        },
        {
          "internalType": "string",
          "name": "_symbol",
          "type": "string"
        }
      ],
      "stateMutability": "nonpayable",
      "type": "constructor"
    },
    {
      "anonymous": false,
      "inputs": [
        {
          "indexed": true,
          "internalType": "address",
          "name": "owner",
          "type": "address"
        },
        {
          "indexed": true,
          "internalType": "address",
          "name": "spender",
          "type": "address"
        },
        {
          "indexed": false,
          "internalType": "uint256",
          "name": "amount",
          "type": "uint256"
        }
      ],
      "name": "Approval",
      "type": "event"
    },
    {
      "anonymous": false,
      "inputs": [
        {
          "indexed": false,
          "internalType": "address",
          "name": "receiver",
          "type": "address"
        },
        {
          "indexed": false,
          "internalType": "uint256",
          "name": "amount",
          "type": "uint256"
        }
      ],
      "name": "Claim",
      "type": "event"
    },
    {
      "anonymous": false,
      "inputs": [
        {
          "indexed": true,
          "internalType": "address",
          "name": "caller",
          "type": "address"
        },
        {
          "indexed": true,
          "internalType": "address",
          "name": "owner",
          "type": "address"
        },
        {
          "indexed": false,
          "internalType": "uint256",
          "name": "assets",
          "type": "uint256"
        },
        {
          "indexed": false,
          "internalType": "uint256",
          "name": "shares",
          "type": "uint256"
        }
      ],
      "name": "Deposit",
      "type": "event"
    },
    {
      "anonymous": false,
      "inputs": [
        {
          "indexed": true,
          "internalType": "address",
          "name": "from",
          "type": "address"
        },
        {
          "indexed": true,
          "internalType": "address",
          "name": "to",
          "type": "address"
        },
        {
          "indexed": false,
          "internalType": "uint256",
          "name": "amount",
          "type": "uint256"
        }
      ],
      "name": "Transfer",
      "type": "event"
    },
    {
      "anonymous": false,
      "inputs": [
        {
          "indexed": true,
          "internalType": "address",
          "name": "caller",
          "type": "address"
        },
        {
          "indexed": true,
          "internalType": "address",
          "name": "receiver",
          "type": "address"
        },
        {
          "indexed": true,
          "internalType": "address",
          "name": "owner",
          "type": "address"
        },
        {
          "indexed": false,
          "internalType": "uint256",
          "name": "assets",
          "type": "uint256"
        },
        {
          "indexed": false,
          "internalType": "uint256",
          "name": "shares",
          "type": "uint256"
        }
      ],
      "name": "Withdraw",
      "type": "event"
    },
    {
      "inputs": [],
      "name": "DOMAIN_SEPARATOR",
      "outputs": [
        {
          "internalType": "bytes32",
          "name": "",
          "type": "bytes32"
        }
      ],
      "stateMutability": "view",
      "type": "function"
    },
    {
      "inputs": [
        {
          "internalType": "address",
          "name": "",
          "type": "address"
        },
        {
          "internalType": "address",
          "name": "",
          "type": "address"
        }
      ],
      "name": "allowance",
      "outputs": [
        {
          "internalType": "uint256",
          "name": "",
          "type": "uint256"
        }
      ],
      "stateMutability": "view",
      "type": "function"
    },
    {
      "inputs": [
        {
          "internalType": "address",
          "name": "spender",
          "type": "address"
        },
        {
          "internalType": "uint256",
          "name": "amount",
          "type": "uint256"
        }
      ],
      "name": "approve",
      "outputs": [
        {
          "internalType": "bool",
          "name": "",
          "type": "bool"
        }
      ],
      "stateMutability": "nonpayable",
      "type": "function"
    },
    {
      "inputs": [],
      "name": "asset",
      "outputs": [
        {
          "internalType": "contract ERC20",
          "name": "",
          "type": "address"
        }
      ],
      "stateMutability": "view",
      "type": "function"
    },
    {
      "inputs": [
        {
          "internalType": "address",
          "name": "",
          "type": "address"
        }
      ],
      "name": "balanceOf",
      "outputs": [
        {
          "internalType": "uint256",
          "name": "",
          "type": "uint256"
        }
      ],
      "stateMutability": "view",
      "type": "function"
    },
    {
      "inputs": [
        {
          "internalType": "uint256",
          "name": "_index",
          "type": "uint256"
        }
      ],
      "name": "claim",
      "outputs": [],
      "stateMutability": "nonpayable",
      "type": "function"
    },
    {
      "inputs": [
        {
          "internalType": "uint256",
          "name": "shares",
          "type": "uint256"
        }
      ],
      "name": "convertToAssets",
      "outputs": [
        {
          "internalType": "uint256",
          "name": "",
          "type": "uint256"
        }
      ],
      "stateMutability": "view",
      "type": "function"
    },
    {
      "inputs": [
        {
          "internalType": "uint256",
          "name": "assets",
          "type": "uint256"
        }
      ],
      "name": "convertToShares",
      "outputs": [
        {
          "internalType": "uint256",
          "name": "",
          "type": "uint256"
        }
      ],
      "stateMutability": "view",
      "type": "function"
    },
    {
      "inputs": [],
      "name": "cooldown",
      "outputs": [
        {
          "internalType": "uint256",
          "name": "",
          "type": "uint256"
        }
      ],
      "stateMutability": "view",
      "type": "function"
    },
    {
      "inputs": [],
      "name": "decimals",
      "outputs": [
        {
          "internalType": "uint8",
          "name": "",
          "type": "uint8"
        }
      ],
      "stateMutability": "view",
      "type": "function"
    },
    {
      "inputs": [
        {
          "internalType": "uint256",
          "name": "assets",
          "type": "uint256"
        },
        {
          "internalType": "address",
          "name": "receiver",
          "type": "address"
        }
      ],
      "name": "deposit",
      "outputs": [
        {
          "internalType": "uint256",
          "name": "shares",
          "type": "uint256"
        }
      ],
      "stateMutability": "nonpayable",
      "type": "function"
    },
    {
      "inputs": [
        {
          "internalType": "address",
          "name": "",
          "type": "address"
        }
      ],
      "name": "maxDeposit",
      "outputs": [
        {
          "internalType": "uint256",
          "name": "",
          "type": "uint256"
        }
      ],
      "stateMutability": "view",
      "type": "function"
    },
    {
      "inputs": [
        {
          "internalType": "address",
          "name": "",
          "type": "address"
        }
      ],
      "name": "maxMint",
      "outputs": [
        {
          "internalType": "uint256",
          "name": "",
          "type": "uint256"
        }
      ],
      "stateMutability": "view",
      "type": "function"
    },
    {
      "inputs": [
        {
          "internalType": "address",
          "name": "owner",
          "type": "address"
        }
      ],
      "name": "maxRedeem",
      "outputs": [
        {
          "internalType": "uint256",
          "name": "",
          "type": "uint256"
        }
      ],
      "stateMutability": "view",
      "type": "function"
    },
    {
      "inputs": [
        {
          "internalType": "address",
          "name": "owner",
          "type": "address"
        }
      ],
      "name": "maxWithdraw",
      "outputs": [
        {
          "internalType": "uint256",
          "name": "",
          "type": "uint256"
        }
      ],
      "stateMutability": "view",
      "type": "function"
    },
    {
      "inputs": [
        {
          "internalType": "uint256",
          "name": "shares",
          "type": "uint256"
        },
        {
          "internalType": "address",
          "name": "receiver",
          "type": "address"
        }
      ],
      "name": "mint",
      "outputs": [
        {
          "internalType": "uint256",
          "name": "assets",
          "type": "uint256"
        }
      ],
      "stateMutability": "nonpayable",
      "type": "function"
    },
    {
      "inputs": [],
      "name": "name",
      "outputs": [
        {
          "internalType": "string",
          "name": "",
          "type": "string"
        }
      ],
      "stateMutability": "view",
      "type": "function"
    },
    {
      "inputs": [
        {
          "internalType": "address",
          "name": "",
          "type": "address"
        }
      ],
      "name": "nonces",
      "outputs": [
        {
          "internalType": "uint256",
          "name": "",
          "type": "uint256"
        }
      ],
      "stateMutability": "view",
      "type": "function"
    },
    {
      "inputs": [
        {
          "internalType": "address",
          "name": "owner",
          "type": "address"
        },
        {
          "internalType": "address",
          "name": "spender",
          "type": "address"
        },
        {
          "internalType": "uint256",
          "name": "value",
          "type": "uint256"
        },
        {
          "internalType": "uint256",
          "name": "deadline",
          "type": "uint256"
        },
        {
          "internalType": "uint8",
          "name": "v",
          "type": "uint8"
        },
        {
          "internalType": "bytes32",
          "name": "r",
          "type": "bytes32"
        },
        {
          "internalType": "bytes32",
          "name": "s",
          "type": "bytes32"
        }
      ],
      "name": "permit",
      "outputs": [],
      "stateMutability": "nonpayable",
      "type": "function"
    },
    {
      "inputs": [
        {
          "internalType": "uint256",
          "name": "assets",
          "type": "uint256"
        }
      ],
      "name": "previewDeposit",
      "outputs": [
        {
          "internalType": "uint256",
          "name": "",
          "type": "uint256"
        }
      ],
      "stateMutability": "view",
      "type": "function"
    },
    {
      "inputs": [
        {
          "internalType": "uint256",
          "name": "shares",
          "type": "uint256"
        }
      ],
      "name": "previewMint",
      "outputs": [
        {
          "internalType": "uint256",
          "name": "",
          "type": "uint256"
        }
      ],
      "stateMutability": "view",
      "type": "function"
    },
    {
      "inputs": [
        {
          "internalType": "uint256",
          "name": "shares",
          "type": "uint256"
        }
      ],
      "name": "previewRedeem",
      "outputs": [
        {
          "internalType": "uint256",
          "name": "",
          "type": "uint256"
        }
      ],
      "stateMutability": "view",
      "type": "function"
    },
    {
      "inputs": [
        {
          "internalType": "uint256",
          "name": "assets",
          "type": "uint256"
        }
      ],
      "name": "previewWithdraw",
      "outputs": [
        {
          "internalType": "uint256",
          "name": "",
          "type": "uint256"
        }
      ],
      "stateMutability": "view",
      "type": "function"
    },
    {
      "inputs": [
        {
          "internalType": "uint256",
          "name": "shares",
          "type": "uint256"
        },
        {
          "internalType": "address",
          "name": "receiver",
          "type": "address"
        },
        {
          "internalType": "address",
          "name": "owner",
          "type": "address"
        }
      ],
      "name": "redeem",
      "outputs": [
        {
          "internalType": "uint256",
          "name": "assets",
          "type": "uint256"
        }
      ],
      "stateMutability": "nonpayable",
      "type": "function"
    },
    {
      "inputs": [],
      "name": "symbol",
      "outputs": [
        {
          "internalType": "string",
          "name": "",
          "type": "string"
        }
      ],
      "stateMutability": "view",
      "type": "function"
    },
    {
      "inputs": [],
      "name": "totalAssets",
      "outputs": [
        {
          "internalType": "uint256",
          "name": "",
          "type": "uint256"
        }
      ],
      "stateMutability": "view",
      "type": "function"
    },
    {
      "inputs": [],
      "name": "totalSupply",
      "outputs": [
        {
          "internalType": "uint256",
          "name": "",
          "type": "uint256"
        }
      ],
      "stateMutability": "view",
      "type": "function"
    },
    {
      "inputs": [],
      "name": "totalUnbonding",
      "outputs": [
        {
          "internalType": "uint256",
          "name": "",
          "type": "uint256"
        }
      ],
      "stateMutability": "view",
      "type": "function"
    },
    {
      "inputs": [
        {
          "internalType": "address",
          "name": "to",
          "type": "address"
        },
        {
          "internalType": "uint256",
          "name": "amount",
          "type": "uint256"
        }
      ],
      "name": "transfer",
      "outputs": [
        {
          "internalType": "bool",
          "name": "",
          "type": "bool"
        }
      ],
      "stateMutability": "nonpayable",
      "type": "function"
    },
    {
      "inputs": [
        {
          "internalType": "address",
          "name": "from",
          "type": "address"
        },
        {
          "internalType": "address",
          "name": "to",
          "type": "address"
        },
        {
          "internalType": "uint256",
          "name": "amount",
          "type": "uint256"
        }
      ],
      "name": "transferFrom",
      "outputs": [
        {
          "internalType": "bool",
          "name": "",
          "type": "bool"
        }
      ],
      "stateMutability": "nonpayable",
      "type": "function"
    },
    {
      "inputs": [
        {
          "internalType": "address",
          "name": "_target",
          "type": "address"
        },
        {
          "internalType": "uint256",
          "name": "_amount",
          "type": "uint256"
        }
      ],
      "name": "transferUnderlyingTo",
      "outputs": [],
      "stateMutability": "nonpayable",
      "type": "function"
    },
    {
      "inputs": [
        {
          "internalType": "address",
          "name": "_user",
          "type": "address"
        }
      ],
      "name": "unbonding",
      "outputs": [
        {
          "internalType": "uint256[]",
          "name": "",
          "type": "uint256[]"
        },
        {
          "internalType": "uint256[]",
          "name": "",
          "type": "uint256[]"
        }
      ],
      "stateMutability": "view",
      "type": "function"
    },
    {
      "inputs": [
        {
          "internalType": "uint256",
          "name": "_amount",
          "type": "uint256"
        },
        {
          "internalType": "address",
          "name": "_receiver",
          "type": "address"
        },
        {
          "internalType": "address",
          "name": "_owner",
          "type": "address"
        }
      ],
      "name": "withdraw",
      "outputs": [
        {
          "internalType": "uint256",
          "name": "shares",
          "type": "uint256"
        }
      ],
      "stateMutability": "nonpayable",
      "type": "function"
    }
  ],
  "transactionHash": "0x91535f0ad00ee5b856111bb475c1f8ed161b0362d95842e76048e0ac46d25dc9",
  "args": [
    "0x0f42Bf05696da8B34cB6e77e6656d08740032653",
    "0xF122bDB19A2e92d70626d102A80F61919d51658D",
    "TUS Senior Tranche",
    "svTUS"
  ],
  "numDeployments": 2,
  "solcInputHash": "12f50c75a18b6f714019b390413b1deb",
  "bytecode": "0x61012060405262093a806009553480156200001957600080fd5b5060405162002553380380620025538339810160408190526200003c9162000355565b838383838282828282828181846001600160a01b031663313ce5676040518163ffffffff1660e01b815260040160206040518083038186803b1580156200008257600080fd5b505afa15801562000097573d6000803e3d6000fd5b505050506040513d601f19601f82011682018060405250810190620000bd9190620003ea565b8251620000d2906000906020860190620001c9565b508151620000e8906001906020850190620001c9565b5060ff81166080524660a052620000fe6200012d565b60c0525050506001600160a01b0392831660e0525050969096166101005250620004f798505050505050505050565b60007f8b73c3c69bb8fe3d512ecc4cf759cc79239f7b179b0ffacaa9a75d522b39400f600060405162000161919062000453565b6040805191829003822060208301939093528101919091527fc89efdaa54c0f20c7adf612882df0950f5a951637e0307cdcb4c672f298b8bc660608201524660808201523060a082015260c00160405160208183030381529060405280519060200120905090565b828054620001d79062000416565b90600052602060002090601f016020900481019282620001fb576000855562000246565b82601f106200021657805160ff191683800117855562000246565b8280016001018555821562000246579182015b828111156200024657825182559160200191906001019062000229565b506200025492915062000258565b5090565b5b8082111562000254576000815560010162000259565b6001600160a01b03811681146200028557600080fd5b50565b634e487b7160e01b600052604160045260246000fd5b600082601f830112620002b057600080fd5b81516001600160401b0380821115620002cd57620002cd62000288565b604051601f8301601f19908116603f01168101908282118183101715620002f857620002f862000288565b816040528381526020925086838588010111156200031557600080fd5b600091505b838210156200033957858201830151818301840152908201906200031a565b838211156200034b5760008385830101525b9695505050505050565b600080600080608085870312156200036c57600080fd5b845162000379816200026f565b60208601519094506200038c816200026f565b60408601519093506001600160401b0380821115620003aa57600080fd5b620003b8888389016200029e565b93506060870151915080821115620003cf57600080fd5b50620003de878288016200029e565b91505092959194509250565b600060208284031215620003fd57600080fd5b815160ff811681146200040f57600080fd5b9392505050565b600181811c908216806200042b57607f821691505b602082108114156200044d57634e487b7160e01b600052602260045260246000fd5b50919050565b600080835481600182811c9150808316806200047057607f831692505b60208084108214156200049157634e487b7160e01b86526022600452602486fd5b818015620004a85760018114620004ba57620004e9565b60ff19861689528489019650620004e9565b60008a81526020902060005b86811015620004e15781548b820152908501908301620004c6565b505084890196505b509498975050505050505050565b60805160a05160c05160e05161010051611fd162000582600039600081816105bd01528181610b600152610c4a0152600081816103090152818161053d0152818161067c01528181610a0201528181610adc01528181610d4301528181610dd101528181610e69015261118d0152600061099901526000610964015260006102aa0152611fd16000f3fe608060405234801561001057600080fd5b506004361061020b5760003560e01c806370a082311161012a578063ba087652116100bd578063ced4cd2e1161008c578063d905777e11610071578063d905777e1461049b578063dd62ed3e146104c4578063ef8b30f7146104ef57600080fd5b8063ced4cd2e14610467578063d505accf1461048857600080fd5b8063ba0876521461042e578063c63d75b614610343578063c6e6f59214610441578063ce96cb771461045457600080fd5b806395d89b41116100f957806395d89b41146103ed578063a9059cbb146103f5578063b3d7f6b914610408578063b460af941461041b57600080fd5b806370a0823114610391578063787a08a6146103b15780637ecebe00146103ba57806394bf804d146103da57600080fd5b8063350fd0be116101a2578063402d267d11610171578063402d267d146103435780634cdad506146103585780634efecaa51461036b5780636e553f651461037e57600080fd5b8063350fd0be146102de5780633644e515146102e7578063379607f5146102ef57806338d52e0f1461030457600080fd5b80630a28a477116101de5780630a28a4771461027657806318160ddd1461028957806323b872dd14610292578063313ce567146102a557600080fd5b806301e1d1141461021057806306fdde031461022b57806307a2d13a14610240578063095ea7b314610253575b600080fd5b610218610502565b6040519081526020015b60405180910390f35b610233610726565b6040516102229190611b3e565b61021861024e366004611b93565b6107b4565b610266610261366004611bc4565b6107e1565b6040519015158152602001610222565b610218610284366004611b93565b61084e565b61021860025481565b6102666102a0366004611bf0565b61086e565b6102cc7f000000000000000000000000000000000000000000000000000000000000000081565b60405160ff9091168152602001610222565b61021860085481565b610218610960565b6103026102fd366004611b93565b6109bb565b005b61032b7f000000000000000000000000000000000000000000000000000000000000000081565b6040516001600160a01b039091168152602001610222565b610218610351366004611c31565b5060001990565b610218610366366004611b93565b610b07565b610302610379366004611bc4565b610b12565b61021861038c366004611c4e565b610d6a565b61021861039f366004611c31565b60036020526000908152604090205481565b61021860095481565b6102186103c8366004611c31565b60056020526000908152604090205481565b6102186103e8366004611c4e565b610e4f565b610233610ede565b610266610403366004611bc4565b610eeb565b610218610416366004611b93565b610f63565b610218610429366004611c7e565b610f82565b61021861043c366004611c7e565b611063565b61021861044f366004611b93565b6111b4565b610218610462366004611c31565b6111d4565b61047a610475366004611c31565b6111f6565b604051610222929190611cfb565b610302610496366004611d29565b611336565b6102186104a9366004611c31565b6001600160a01b031660009081526003602052604090205490565b6102186104d2366004611da0565b600460209081526000928352604080842090915290825290205481565b6102186104fd366004611b93565b6115a4565b6040517f70a0823100000000000000000000000000000000000000000000000000000000815230600482015260009081906001600160a01b037f000000000000000000000000000000000000000000000000000000000000000016906370a082319060240160206040518083038186803b15801561057f57600080fd5b505afa158015610593573d6000803e3d6000fd5b505050506040513d601f19601f820116820180604052508101906105b79190611dce565b905060007f00000000000000000000000000000000000000000000000000000000000000006001600160a01b031663a5c84e376040518163ffffffff1660e01b815260040160206040518083038186803b15801561061457600080fd5b505afa158015610628573d6000803e3d6000fd5b505050506040513d601f19601f8201168201806040525081019061064c9190611de7565b6040517fe68fc0ee0000000000000000000000000000000000000000000000000000000081526001600160a01b037f00000000000000000000000000000000000000000000000000000000000000008116600483015291925060009183169063e68fc0ee9060240160206040518083038186803b1580156106cc57600080fd5b505afa1580156106e0573d6000803e3d6000fd5b505050506040513d601f19601f820116820180604052508101906107049190611dce565b6008549091506107148285611e1a565b61071e9190611e32565b935050505090565b6000805461073390611e49565b80601f016020809104026020016040519081016040528092919081815260200182805461075f90611e49565b80156107ac5780601f10610781576101008083540402835291602001916107ac565b820191906000526020600020905b81548152906001019060200180831161078f57829003601f168201915b505050505081565b60025460009080156107d8576107d36107cb610502565b8490836115af565b6107da565b825b9392505050565b3360008181526004602090815260408083206001600160a01b038716808552925280832085905551919290917f8c5be1e5ebec7d5bd14f71427d1e84f3dd0314c0f7b2291e5b200ac8c7c3b9259061083c9086815260200190565b60405180910390a35060015b92915050565b60025460009080156107d8576107d381610866610502565b8591906115ce565b6001600160a01b038316600090815260046020908152604080832033845290915281205460001981146108ca576108a58382611e32565b6001600160a01b03861660009081526004602090815260408083203384529091529020555b6001600160a01b038516600090815260036020526040812080548592906108f2908490611e32565b90915550506001600160a01b03808516600081815260036020526040908190208054870190555190918716907fddf252ad1be2c89b69c2b068fc378daa952ba7f163c4a11628f55a4df523b3ef9061094d9087815260200190565b60405180910390a3506001949350505050565b60007f00000000000000000000000000000000000000000000000000000000000000004614610996576109916115fc565b905090565b507f000000000000000000000000000000000000000000000000000000000000000090565b60006109c73383611696565b6040517f70a0823100000000000000000000000000000000000000000000000000000000815230600482015290915081906001600160a01b037f000000000000000000000000000000000000000000000000000000000000000016906370a082319060240160206040518083038186803b158015610a4457600080fd5b505afa158015610a58573d6000803e3d6000fd5b505050506040513d601f19601f82011682018060405250810190610a7c9190611dce565b1015610acf5760405162461bcd60e51b815260206004820181905260248201527f496e73756666696369656e74206c697175696469747920617661696c61626c6560448201526064015b60405180910390fd5b610b036001600160a01b037f000000000000000000000000000000000000000000000000000000000000000016338361183d565b5050565b6000610848826107b4565b6040517f21f8a7210000000000000000000000000000000000000000000000000000000081527f6c69717569646974794d616e616765720000000000000000000000000000000060048201527f00000000000000000000000000000000000000000000000000000000000000006001600160a01b0316906321f8a7219060240160206040518083038186803b158015610baa57600080fd5b505afa158015610bbe573d6000803e3d6000fd5b505050506040513d601f19601f82011682018060405250810190610be29190611de7565b6001600160a01b0316336001600160a01b03161480610ce157506040517f21f8a7210000000000000000000000000000000000000000000000000000000081527f6c6f616e4d616e6167657200000000000000000000000000000000000000000060048201527f00000000000000000000000000000000000000000000000000000000000000006001600160a01b0316906321f8a7219060240160206040518083038186803b158015610c9457600080fd5b505afa158015610ca8573d6000803e3d6000fd5b505050506040513d601f19601f82011682018060405250810190610ccc9190611de7565b6001600160a01b0316336001600160a01b0316145b6040518060400160405280600281526020017f323000000000000000000000000000000000000000000000000000000000000081525090610d355760405162461bcd60e51b8152600401610ac69190611b3e565b50610b036001600160a01b037f000000000000000000000000000000000000000000000000000000000000000016838361183d565b6000610d75836115a4565b905080610dc45760405162461bcd60e51b815260206004820152600b60248201527f5a45524f5f5348415245530000000000000000000000000000000000000000006044820152606401610ac6565b610df96001600160a01b037f0000000000000000000000000000000000000000000000000000000000000000163330866118e2565b610e03828261198e565b60408051848152602081018390526001600160a01b0384169133917fdcbc1c05240f31ff3ad067ef1ee35ce4997762752e3a095284754544f4c709d791015b60405180910390a3610848565b6000610e5a83610f63565b9050610e916001600160a01b037f0000000000000000000000000000000000000000000000000000000000000000163330846118e2565b610e9b828461198e565b60408051828152602081018590526001600160a01b0384169133917fdcbc1c05240f31ff3ad067ef1ee35ce4997762752e3a095284754544f4c709d79101610e42565b6001805461073390611e49565b33600090815260036020526040812080548391908390610f0c908490611e32565b90915550506001600160a01b038316600081815260036020526040908190208054850190555133907fddf252ad1be2c89b69c2b068fc378daa952ba7f163c4a11628f55a4df523b3ef9061083c9086815260200190565b60025460009080156107d8576107d3610f7a610502565b8490836115ce565b6000610f8d8461084e565b9050336001600160a01b03831614610ffd576001600160a01b03821660009081526004602090815260408083203384529091529020546000198114610ffb57610fd68282611e32565b6001600160a01b03841660009081526004602090815260408083203384529091529020555b505b61100782826119fa565b6110118285611a6e565b60408051858152602081018390526001600160a01b03808516929086169133917ffbde797d201c681b91056529119e0b02407c7bb96a4a2c75c01fc9667232c8db910160405180910390a49392505050565b6000336001600160a01b038316146110d3576001600160a01b038216600090815260046020908152604080832033845290915290205460001981146110d1576110ac8582611e32565b6001600160a01b03841660009081526004602090815260408083203384529091529020555b505b6110dc84610b07565b90508061112b5760405162461bcd60e51b815260206004820152600b60248201527f5a45524f5f4153534554530000000000000000000000000000000000000000006044820152606401610ac6565b61113582856119fa565b60408051828152602081018690526001600160a01b03808516929086169133917ffbde797d201c681b91056529119e0b02407c7bb96a4a2c75c01fc9667232c8db910160405180910390a46107da6001600160a01b037f000000000000000000000000000000000000000000000000000000000000000016848361183d565b60025460009080156107d8576107d3816111cc610502565b8591906115af565b6001600160a01b038116600090815260036020526040812054610848906107b4565b6001600160a01b038116600090815260076020908152604080832080548251818502810185019093528083526060948594909392919083018282801561125b57602002820191906000526020600020905b815481526020019060010190808311611247575b505050505090506000815167ffffffffffffffff81111561127e5761127e611e84565b6040519080825280602002602001820160405280156112a7578160200160208202803683370190505b50905060005b825181101561132b576001600160a01b038616600090815260066020526040812084519091908590849081106112e5576112e5611e9a565b602002602001015181526020019081526020016000205482828151811061130e5761130e611e9a565b60209081029190910101528061132381611eb0565b9150506112ad565b509094909350915050565b428410156113865760405162461bcd60e51b815260206004820152601760248201527f5045524d49545f444541444c494e455f455850495245440000000000000000006044820152606401610ac6565b60006001611392610960565b6001600160a01b038a811660008181526005602090815260409182902080546001810190915582517f6e71edae12b1b97f4d1f60370fef10105fa2faae0126114a169c64845d6126c98184015280840194909452938d166060840152608083018c905260a083019390935260c08083018b90528151808403909101815260e0830190915280519201919091207f19010000000000000000000000000000000000000000000000000000000000006101008301526101028201929092526101228101919091526101420160408051601f198184030181528282528051602091820120600084529083018083525260ff871690820152606081018590526080810184905260a0016020604051602081039080840390855afa1580156114b9573d6000803e3d6000fd5b5050604051601f1901519150506001600160a01b038116158015906114ef5750876001600160a01b0316816001600160a01b0316145b61153b5760405162461bcd60e51b815260206004820152600e60248201527f494e56414c49445f5349474e45520000000000000000000000000000000000006044820152606401610ac6565b6001600160a01b0390811660009081526004602090815260408083208a8516808552908352928190208990555188815291928a16917f8c5be1e5ebec7d5bd14f71427d1e84f3dd0314c0f7b2291e5b200ac8c7c3b925910160405180910390a350505050505050565b6000610848826111b4565b8282028115158415858304851417166115c757600080fd5b0492915050565b8282028115158415858304851417166115e657600080fd5b6001826001830304018115150290509392505050565b60007f8b73c3c69bb8fe3d512ecc4cf759cc79239f7b179b0ffacaa9a75d522b39400f600060405161162e9190611ecb565b6040805191829003822060208301939093528101919091527fc89efdaa54c0f20c7adf612882df0950f5a951637e0307cdcb4c672f298b8bc660608201524660808201523060a082015260c00160405160208183030381529060405280519060200120905090565b6001600160a01b0382166000908152600760205260408120805483106116fe5760405162461bcd60e51b815260206004820152600d60248201527f696e76616c696420696e646578000000000000000000000000000000000000006044820152606401610ac6565b600081848154811061171257611712611e9a565b90600052602060002001549050600954814261172e9190611e32565b1161177b5760405162461bcd60e51b815260206004820152600f60248201527f636f6f6c20646f776e206572726f7200000000000000000000000000000000006044820152606401610ac6565b8154600090839061178e90600190611e32565b8154811061179e5761179e611e9a565b90600052602060002001549050808386815481106117be576117be611e9a565b9060005260206000200181905550828054806117dc576117dc611f85565b6000828152602080822060001990840181018390559092019092556001600160a01b03881682526006815260408083208584529091528120805490829055600880549192839261182d908490611e32565b9091555090979650505050505050565b60006040517fa9059cbb000000000000000000000000000000000000000000000000000000008152836004820152826024820152602060006044836000895af13d15601f3d11600160005114161716915050806118dc5760405162461bcd60e51b815260206004820152600f60248201527f5452414e534645525f4641494c454400000000000000000000000000000000006044820152606401610ac6565b50505050565b60006040517f23b872dd0000000000000000000000000000000000000000000000000000000081528460048201528360248201528260448201526020600060648360008a5af13d15601f3d11600160005114161716915050806119875760405162461bcd60e51b815260206004820152601460248201527f5452414e534645525f46524f4d5f4641494c45440000000000000000000000006044820152606401610ac6565b5050505050565b80600260008282546119a09190611e1a565b90915550506001600160a01b0382166000818152600360209081526040808320805486019055518481527fddf252ad1be2c89b69c2b068fc378daa952ba7f163c4a11628f55a4df523b3ef91015b60405180910390a35050565b6001600160a01b03821660009081526003602052604081208054839290611a22908490611e32565b90915550506002805482900390556040518181526000906001600160a01b038416907fddf252ad1be2c89b69c2b068fc378daa952ba7f163c4a11628f55a4df523b3ef906020016119ee565b6001600160a01b038216600090815260066020908152604080832042845290915290205415611adf5760405162461bcd60e51b815260206004820152601060248201527f696e76616c6964207769746864726177000000000000000000000000000000006044820152606401610ac6565b6001600160a01b0382166000818152600660209081526040808320428085529083528184208690559383526007825282208054600181018255908352908220019190915560088054839290611b35908490611e1a565b90915550505050565b600060208083528351808285015260005b81811015611b6b57858101830151858201604001528201611b4f565b81811115611b7d576000604083870101525b50601f01601f1916929092016040019392505050565b600060208284031215611ba557600080fd5b5035919050565b6001600160a01b0381168114611bc157600080fd5b50565b60008060408385031215611bd757600080fd5b8235611be281611bac565b946020939093013593505050565b600080600060608486031215611c0557600080fd5b8335611c1081611bac565b92506020840135611c2081611bac565b929592945050506040919091013590565b600060208284031215611c4357600080fd5b81356107da81611bac565b60008060408385031215611c6157600080fd5b823591506020830135611c7381611bac565b809150509250929050565b600080600060608486031215611c9357600080fd5b833592506020840135611ca581611bac565b91506040840135611cb581611bac565b809150509250925092565b600081518084526020808501945080840160005b83811015611cf057815187529582019590820190600101611cd4565b509495945050505050565b604081526000611d0e6040830185611cc0565b8281036020840152611d208185611cc0565b95945050505050565b600080600080600080600060e0888a031215611d4457600080fd5b8735611d4f81611bac565b96506020880135611d5f81611bac565b95506040880135945060608801359350608088013560ff81168114611d8357600080fd5b9699959850939692959460a0840135945060c09093013592915050565b60008060408385031215611db357600080fd5b8235611dbe81611bac565b91506020830135611c7381611bac565b600060208284031215611de057600080fd5b5051919050565b600060208284031215611df957600080fd5b81516107da81611bac565b634e487b7160e01b600052601160045260246000fd5b60008219821115611e2d57611e2d611e04565b500190565b600082821015611e4457611e44611e04565b500390565b600181811c90821680611e5d57607f821691505b60208210811415611e7e57634e487b7160e01b600052602260045260246000fd5b50919050565b634e487b7160e01b600052604160045260246000fd5b634e487b7160e01b600052603260045260246000fd5b6000600019821415611ec457611ec4611e04565b5060010190565b600080835481600182811c915080831680611ee757607f831692505b6020808410821415611f0757634e487b7160e01b86526022600452602486fd5b818015611f1b5760018114611f4a57611f77565b7fffffffffffffffffffffffffffffffffffffffffffffffffffffffffffffff00861689528489019650611f77565b60008a81526020902060005b86811015611f6f5781548b820152908501908301611f56565b505084890196505b509498975050505050505050565b634e487b7160e01b600052603160045260246000fdfea2646970667358221220db83a7d92cdfb728aeb5ad91a8ebc90f6b586c4fa7a817d17410f267fcc3c20264736f6c63430008090033",
  "devdoc": {
    "kind": "dev",
    "methods": {},
    "version": 1
  },
  "userdoc": {
    "kind": "user",
    "methods": {},
    "version": 1
  },
  "storageLayout": {
    "storage": [
      {
        "astId": 3054,
        "contract": "contracts/tokenization/SeniorDepositToken.sol:SeniorDepositToken",
        "label": "name",
        "offset": 0,
        "slot": "0",
        "type": "t_string_storage"
      },
      {
        "astId": 3056,
        "contract": "contracts/tokenization/SeniorDepositToken.sol:SeniorDepositToken",
        "label": "symbol",
        "offset": 0,
        "slot": "1",
        "type": "t_string_storage"
      },
      {
        "astId": 3060,
        "contract": "contracts/tokenization/SeniorDepositToken.sol:SeniorDepositToken",
        "label": "totalSupply",
        "offset": 0,
        "slot": "2",
        "type": "t_uint256"
      },
      {
        "astId": 3064,
        "contract": "contracts/tokenization/SeniorDepositToken.sol:SeniorDepositToken",
        "label": "balanceOf",
        "offset": 0,
        "slot": "3",
        "type": "t_mapping(t_address,t_uint256)"
      },
      {
        "astId": 3070,
        "contract": "contracts/tokenization/SeniorDepositToken.sol:SeniorDepositToken",
        "label": "allowance",
        "offset": 0,
        "slot": "4",
        "type": "t_mapping(t_address,t_mapping(t_address,t_uint256))"
      },
      {
        "astId": 3078,
        "contract": "contracts/tokenization/SeniorDepositToken.sol:SeniorDepositToken",
        "label": "nonces",
        "offset": 0,
        "slot": "5",
        "type": "t_mapping(t_address,t_uint256)"
      },
      {
        "astId": 18596,
        "contract": "contracts/tokenization/SeniorDepositToken.sol:SeniorDepositToken",
        "label": "withdrawals",
        "offset": 0,
        "slot": "6",
        "type": "t_mapping(t_address,t_mapping(t_uint256,t_uint256))"
      },
      {
        "astId": 18601,
        "contract": "contracts/tokenization/SeniorDepositToken.sol:SeniorDepositToken",
        "label": "pendingTimestamp",
        "offset": 0,
        "slot": "7",
        "type": "t_mapping(t_address,t_array(t_uint256)dyn_storage)"
      },
      {
        "astId": 18604,
        "contract": "contracts/tokenization/SeniorDepositToken.sol:SeniorDepositToken",
        "label": "totalUnbonding",
        "offset": 0,
        "slot": "8",
        "type": "t_uint256"
      },
      {
        "astId": 18607,
        "contract": "contracts/tokenization/SeniorDepositToken.sol:SeniorDepositToken",
        "label": "cooldown",
        "offset": 0,
        "slot": "9",
        "type": "t_uint256"
      }
    ],
    "types": {
      "t_address": {
        "encoding": "inplace",
        "label": "address",
        "numberOfBytes": "20"
      },
      "t_array(t_uint256)dyn_storage": {
        "base": "t_uint256",
        "encoding": "dynamic_array",
        "label": "uint256[]",
        "numberOfBytes": "32"
      },
      "t_mapping(t_address,t_array(t_uint256)dyn_storage)": {
        "encoding": "mapping",
        "key": "t_address",
        "label": "mapping(address => uint256[])",
        "numberOfBytes": "32",
        "value": "t_array(t_uint256)dyn_storage"
      },
      "t_mapping(t_address,t_mapping(t_address,t_uint256))": {
        "encoding": "mapping",
        "key": "t_address",
        "label": "mapping(address => mapping(address => uint256))",
        "numberOfBytes": "32",
        "value": "t_mapping(t_address,t_uint256)"
      },
      "t_mapping(t_address,t_mapping(t_uint256,t_uint256))": {
        "encoding": "mapping",
        "key": "t_address",
        "label": "mapping(address => mapping(uint256 => uint256))",
        "numberOfBytes": "32",
        "value": "t_mapping(t_uint256,t_uint256)"
      },
      "t_mapping(t_address,t_uint256)": {
        "encoding": "mapping",
        "key": "t_address",
        "label": "mapping(address => uint256)",
        "numberOfBytes": "32",
        "value": "t_uint256"
      },
      "t_mapping(t_uint256,t_uint256)": {
        "encoding": "mapping",
        "key": "t_uint256",
        "label": "mapping(uint256 => uint256)",
        "numberOfBytes": "32",
        "value": "t_uint256"
      },
      "t_string_storage": {
        "encoding": "bytes",
        "label": "string",
        "numberOfBytes": "32"
      },
      "t_uint256": {
        "encoding": "inplace",
        "label": "uint256",
        "numberOfBytes": "32"
      }
    }
  }
}