{
  "address": "0x3700474da8af900Cf7554288Fef2DaE6D4E30219",
  "abi": [
    {
      "inputs": [
        {
          "internalType": "address",
          "name": "_voyager",
          "type": "address"
        },
        {
          "internalType": "contract ERC20",
          "name": "_underlyingAsset",
          "type": "address"
        },
        {
          "internalType": "string",
          "name": "_name",
          "type": "string"
        },
        {
          "internalType": "string",
          "name": "_symbol",
          "type": "string"
        }
      ],
      "stateMutability": "nonpayable",
      "type": "constructor"
    },
    {
      "anonymous": false,
      "inputs": [
        {
          "indexed": true,
          "internalType": "address",
          "name": "owner",
          "type": "address"
        },
        {
          "indexed": true,
          "internalType": "address",
          "name": "spender",
          "type": "address"
        },
        {
          "indexed": false,
          "internalType": "uint256",
          "name": "amount",
          "type": "uint256"
        }
      ],
      "name": "Approval",
      "type": "event"
    },
    {
      "anonymous": false,
      "inputs": [
        {
          "indexed": false,
          "internalType": "address",
          "name": "receiver",
          "type": "address"
        },
        {
          "indexed": false,
          "internalType": "uint256",
          "name": "amount",
          "type": "uint256"
        }
      ],
      "name": "Claim",
      "type": "event"
    },
    {
      "anonymous": false,
      "inputs": [
        {
          "indexed": true,
          "internalType": "address",
          "name": "caller",
          "type": "address"
        },
        {
          "indexed": true,
          "internalType": "address",
          "name": "owner",
          "type": "address"
        },
        {
          "indexed": false,
          "internalType": "uint256",
          "name": "assets",
          "type": "uint256"
        },
        {
          "indexed": false,
          "internalType": "uint256",
          "name": "shares",
          "type": "uint256"
        }
      ],
      "name": "Deposit",
      "type": "event"
    },
    {
      "anonymous": false,
      "inputs": [
        {
          "indexed": true,
          "internalType": "address",
          "name": "from",
          "type": "address"
        },
        {
          "indexed": true,
          "internalType": "address",
          "name": "to",
          "type": "address"
        },
        {
          "indexed": false,
          "internalType": "uint256",
          "name": "amount",
          "type": "uint256"
        }
      ],
      "name": "Transfer",
      "type": "event"
    },
    {
      "anonymous": false,
      "inputs": [
        {
          "indexed": true,
          "internalType": "address",
          "name": "caller",
          "type": "address"
        },
        {
          "indexed": true,
          "internalType": "address",
          "name": "receiver",
          "type": "address"
        },
        {
          "indexed": true,
          "internalType": "address",
          "name": "owner",
          "type": "address"
        },
        {
          "indexed": false,
          "internalType": "uint256",
          "name": "assets",
          "type": "uint256"
        },
        {
          "indexed": false,
          "internalType": "uint256",
          "name": "shares",
          "type": "uint256"
        }
      ],
      "name": "Withdraw",
      "type": "event"
    },
    {
      "inputs": [],
      "name": "DOMAIN_SEPARATOR",
      "outputs": [
        {
          "internalType": "bytes32",
          "name": "",
          "type": "bytes32"
        }
      ],
      "stateMutability": "view",
      "type": "function"
    },
    {
      "inputs": [
        {
          "internalType": "address",
          "name": "",
          "type": "address"
        },
        {
          "internalType": "address",
          "name": "",
          "type": "address"
        }
      ],
      "name": "allowance",
      "outputs": [
        {
          "internalType": "uint256",
          "name": "",
          "type": "uint256"
        }
      ],
      "stateMutability": "view",
      "type": "function"
    },
    {
      "inputs": [
        {
          "internalType": "address",
          "name": "spender",
          "type": "address"
        },
        {
          "internalType": "uint256",
          "name": "amount",
          "type": "uint256"
        }
      ],
      "name": "approve",
      "outputs": [
        {
          "internalType": "bool",
          "name": "",
          "type": "bool"
        }
      ],
      "stateMutability": "nonpayable",
      "type": "function"
    },
    {
      "inputs": [],
      "name": "asset",
      "outputs": [
        {
          "internalType": "contract ERC20",
          "name": "",
          "type": "address"
        }
      ],
      "stateMutability": "view",
      "type": "function"
    },
    {
      "inputs": [
        {
          "internalType": "address",
          "name": "",
          "type": "address"
        }
      ],
      "name": "balanceOf",
      "outputs": [
        {
          "internalType": "uint256",
          "name": "",
          "type": "uint256"
        }
      ],
      "stateMutability": "view",
      "type": "function"
    },
    {
      "inputs": [
        {
          "internalType": "uint256",
          "name": "_index",
          "type": "uint256"
        }
      ],
      "name": "claim",
      "outputs": [],
      "stateMutability": "nonpayable",
      "type": "function"
    },
    {
      "inputs": [
        {
          "internalType": "uint256",
          "name": "shares",
          "type": "uint256"
        }
      ],
      "name": "convertToAssets",
      "outputs": [
        {
          "internalType": "uint256",
          "name": "",
          "type": "uint256"
        }
      ],
      "stateMutability": "view",
      "type": "function"
    },
    {
      "inputs": [
        {
          "internalType": "uint256",
          "name": "assets",
          "type": "uint256"
        }
      ],
      "name": "convertToShares",
      "outputs": [
        {
          "internalType": "uint256",
          "name": "",
          "type": "uint256"
        }
      ],
      "stateMutability": "view",
      "type": "function"
    },
    {
      "inputs": [],
      "name": "cooldown",
      "outputs": [
        {
          "internalType": "uint256",
          "name": "",
          "type": "uint256"
        }
      ],
      "stateMutability": "view",
      "type": "function"
    },
    {
      "inputs": [],
      "name": "decimals",
      "outputs": [
        {
          "internalType": "uint8",
          "name": "",
          "type": "uint8"
        }
      ],
      "stateMutability": "view",
      "type": "function"
    },
    {
      "inputs": [
        {
          "internalType": "uint256",
          "name": "assets",
          "type": "uint256"
        },
        {
          "internalType": "address",
          "name": "receiver",
          "type": "address"
        }
      ],
      "name": "deposit",
      "outputs": [
        {
          "internalType": "uint256",
          "name": "shares",
          "type": "uint256"
        }
      ],
      "stateMutability": "nonpayable",
      "type": "function"
    },
    {
      "inputs": [
        {
          "internalType": "address",
          "name": "",
          "type": "address"
        }
      ],
      "name": "maxDeposit",
      "outputs": [
        {
          "internalType": "uint256",
          "name": "",
          "type": "uint256"
        }
      ],
      "stateMutability": "view",
      "type": "function"
    },
    {
      "inputs": [
        {
          "internalType": "address",
          "name": "",
          "type": "address"
        }
      ],
      "name": "maxMint",
      "outputs": [
        {
          "internalType": "uint256",
          "name": "",
          "type": "uint256"
        }
      ],
      "stateMutability": "view",
      "type": "function"
    },
    {
      "inputs": [
        {
          "internalType": "address",
          "name": "owner",
          "type": "address"
        }
      ],
      "name": "maxRedeem",
      "outputs": [
        {
          "internalType": "uint256",
          "name": "",
          "type": "uint256"
        }
      ],
      "stateMutability": "view",
      "type": "function"
    },
    {
      "inputs": [
        {
          "internalType": "address",
          "name": "owner",
          "type": "address"
        }
      ],
      "name": "maxWithdraw",
      "outputs": [
        {
          "internalType": "uint256",
          "name": "",
          "type": "uint256"
        }
      ],
      "stateMutability": "view",
      "type": "function"
    },
    {
      "inputs": [
        {
          "internalType": "uint256",
          "name": "shares",
          "type": "uint256"
        },
        {
          "internalType": "address",
          "name": "receiver",
          "type": "address"
        }
      ],
      "name": "mint",
      "outputs": [
        {
          "internalType": "uint256",
          "name": "assets",
          "type": "uint256"
        }
      ],
      "stateMutability": "nonpayable",
      "type": "function"
    },
    {
      "inputs": [],
      "name": "name",
      "outputs": [
        {
          "internalType": "string",
          "name": "",
          "type": "string"
        }
      ],
      "stateMutability": "view",
      "type": "function"
    },
    {
      "inputs": [
        {
          "internalType": "address",
          "name": "",
          "type": "address"
        }
      ],
      "name": "nonces",
      "outputs": [
        {
          "internalType": "uint256",
          "name": "",
          "type": "uint256"
        }
      ],
      "stateMutability": "view",
      "type": "function"
    },
    {
      "inputs": [
        {
          "internalType": "address",
          "name": "owner",
          "type": "address"
        },
        {
          "internalType": "address",
          "name": "spender",
          "type": "address"
        },
        {
          "internalType": "uint256",
          "name": "value",
          "type": "uint256"
        },
        {
          "internalType": "uint256",
          "name": "deadline",
          "type": "uint256"
        },
        {
          "internalType": "uint8",
          "name": "v",
          "type": "uint8"
        },
        {
          "internalType": "bytes32",
          "name": "r",
          "type": "bytes32"
        },
        {
          "internalType": "bytes32",
          "name": "s",
          "type": "bytes32"
        }
      ],
      "name": "permit",
      "outputs": [],
      "stateMutability": "nonpayable",
      "type": "function"
    },
    {
      "inputs": [
        {
          "internalType": "uint256",
          "name": "assets",
          "type": "uint256"
        }
      ],
      "name": "previewDeposit",
      "outputs": [
        {
          "internalType": "uint256",
          "name": "",
          "type": "uint256"
        }
      ],
      "stateMutability": "view",
      "type": "function"
    },
    {
      "inputs": [
        {
          "internalType": "uint256",
          "name": "shares",
          "type": "uint256"
        }
      ],
      "name": "previewMint",
      "outputs": [
        {
          "internalType": "uint256",
          "name": "",
          "type": "uint256"
        }
      ],
      "stateMutability": "view",
      "type": "function"
    },
    {
      "inputs": [
        {
          "internalType": "uint256",
          "name": "shares",
          "type": "uint256"
        }
      ],
      "name": "previewRedeem",
      "outputs": [
        {
          "internalType": "uint256",
          "name": "",
          "type": "uint256"
        }
      ],
      "stateMutability": "view",
      "type": "function"
    },
    {
      "inputs": [
        {
          "internalType": "uint256",
          "name": "assets",
          "type": "uint256"
        }
      ],
      "name": "previewWithdraw",
      "outputs": [
        {
          "internalType": "uint256",
          "name": "",
          "type": "uint256"
        }
      ],
      "stateMutability": "view",
      "type": "function"
    },
    {
      "inputs": [
        {
          "internalType": "uint256",
          "name": "shares",
          "type": "uint256"
        },
        {
          "internalType": "address",
          "name": "receiver",
          "type": "address"
        },
        {
          "internalType": "address",
          "name": "owner",
          "type": "address"
        }
      ],
      "name": "redeem",
      "outputs": [
        {
          "internalType": "uint256",
          "name": "assets",
          "type": "uint256"
        }
      ],
      "stateMutability": "nonpayable",
      "type": "function"
    },
    {
      "inputs": [],
      "name": "symbol",
      "outputs": [
        {
          "internalType": "string",
          "name": "",
          "type": "string"
        }
      ],
      "stateMutability": "view",
      "type": "function"
    },
    {
      "inputs": [],
      "name": "totalAssets",
      "outputs": [
        {
          "internalType": "uint256",
          "name": "",
          "type": "uint256"
        }
      ],
      "stateMutability": "view",
      "type": "function"
    },
    {
      "inputs": [],
      "name": "totalSupply",
      "outputs": [
        {
          "internalType": "uint256",
          "name": "",
          "type": "uint256"
        }
      ],
      "stateMutability": "view",
      "type": "function"
    },
    {
      "inputs": [],
      "name": "totalUnbonding",
      "outputs": [
        {
          "internalType": "uint256",
          "name": "",
          "type": "uint256"
        }
      ],
      "stateMutability": "view",
      "type": "function"
    },
    {
      "inputs": [
        {
          "internalType": "address",
          "name": "to",
          "type": "address"
        },
        {
          "internalType": "uint256",
          "name": "amount",
          "type": "uint256"
        }
      ],
      "name": "transfer",
      "outputs": [
        {
          "internalType": "bool",
          "name": "",
          "type": "bool"
        }
      ],
      "stateMutability": "nonpayable",
      "type": "function"
    },
    {
      "inputs": [
        {
          "internalType": "address",
          "name": "from",
          "type": "address"
        },
        {
          "internalType": "address",
          "name": "to",
          "type": "address"
        },
        {
          "internalType": "uint256",
          "name": "amount",
          "type": "uint256"
        }
      ],
      "name": "transferFrom",
      "outputs": [
        {
          "internalType": "bool",
          "name": "",
          "type": "bool"
        }
      ],
      "stateMutability": "nonpayable",
      "type": "function"
    },
    {
      "inputs": [
        {
          "internalType": "address",
          "name": "_target",
          "type": "address"
        },
        {
          "internalType": "uint256",
          "name": "_amount",
          "type": "uint256"
        }
      ],
      "name": "transferUnderlyingTo",
      "outputs": [],
      "stateMutability": "nonpayable",
      "type": "function"
    },
    {
      "inputs": [
        {
          "internalType": "address",
          "name": "_user",
          "type": "address"
        }
      ],
      "name": "unbonding",
      "outputs": [
        {
          "internalType": "uint256[]",
          "name": "",
          "type": "uint256[]"
        },
        {
          "internalType": "uint256[]",
          "name": "",
          "type": "uint256[]"
        }
      ],
      "stateMutability": "view",
      "type": "function"
    },
    {
      "inputs": [
        {
          "internalType": "uint256",
          "name": "_amount",
          "type": "uint256"
        },
        {
          "internalType": "address",
          "name": "_receiver",
          "type": "address"
        },
        {
          "internalType": "address",
          "name": "_owner",
          "type": "address"
        }
      ],
      "name": "withdraw",
      "outputs": [
        {
          "internalType": "uint256",
          "name": "shares",
          "type": "uint256"
        }
      ],
      "stateMutability": "nonpayable",
      "type": "function"
    }
  ],
  "transactionHash": "0xd93b9bbf4d1d3c363204a1838496f9455642c6430dee01078a24fb4c25fbf524",
  "args": [
    "0xed4B20ed8f97a23F5770225aA30C322CCda060E8",
    "0x911F37263c1d39AEFab6a699f3E36CEEe6C24ce7",
    "TUS Senior Tranche",
    "svTUS"
  ],
  "numDeployments": 1,
  "solcInputHash": "686fcfb77ebcbd9335e616f0b479388f",
  "bytecode": "0x61012060405262093a806009553480156200001957600080fd5b506040516200243b3803806200243b8339810160408190526200003c9162000355565b838383838282828282828181846001600160a01b031663313ce5676040518163ffffffff1660e01b815260040160206040518083038186803b1580156200008257600080fd5b505afa15801562000097573d6000803e3d6000fd5b505050506040513d601f19601f82011682018060405250810190620000bd9190620003ea565b8251620000d2906000906020860190620001c9565b508151620000e8906001906020850190620001c9565b5060ff81166080524660a052620000fe6200012d565b60c0525050506001600160a01b0392831660e0525050969096166101005250620004f798505050505050505050565b60007f8b73c3c69bb8fe3d512ecc4cf759cc79239f7b179b0ffacaa9a75d522b39400f600060405162000161919062000453565b6040805191829003822060208301939093528101919091527fc89efdaa54c0f20c7adf612882df0950f5a951637e0307cdcb4c672f298b8bc660608201524660808201523060a082015260c00160405160208183030381529060405280519060200120905090565b828054620001d79062000416565b90600052602060002090601f016020900481019282620001fb576000855562000246565b82601f106200021657805160ff191683800117855562000246565b8280016001018555821562000246579182015b828111156200024657825182559160200191906001019062000229565b506200025492915062000258565b5090565b5b8082111562000254576000815560010162000259565b6001600160a01b03811681146200028557600080fd5b50565b634e487b7160e01b600052604160045260246000fd5b600082601f830112620002b057600080fd5b81516001600160401b0380821115620002cd57620002cd62000288565b604051601f8301601f19908116603f01168101908282118183101715620002f857620002f862000288565b816040528381526020925086838588010111156200031557600080fd5b600091505b838210156200033957858201830151818301840152908201906200031a565b838211156200034b5760008385830101525b9695505050505050565b600080600080608085870312156200036c57600080fd5b845162000379816200026f565b60208601519094506200038c816200026f565b60408601519093506001600160401b0380821115620003aa57600080fd5b620003b8888389016200029e565b93506060870151915080821115620003cf57600080fd5b50620003de878288016200029e565b91505092959194509250565b600060208284031215620003fd57600080fd5b815160ff811681146200040f57600080fd5b9392505050565b600181811c908216806200042b57607f821691505b602082108114156200044d57634e487b7160e01b600052602260045260246000fd5b50919050565b600080835481600182811c9150808316806200047057607f831692505b60208084108214156200049157634e487b7160e01b86526022600452602486fd5b818015620004a85760018114620004ba57620004e9565b60ff19861689528489019650620004e9565b60008a81526020902060005b86811015620004e15781548b820152908501908301620004c6565b505084890196505b509498975050505050505050565b60805160a05160c05160e05161010051611ec06200057b600039600081816106530152610b510152600081816103090152818161053d0152818161062801528181610a0a01528181610ae401528181610ba501528181610c3301528181610ccb0152610fef015260006109a10152600061096c015260006102aa0152611ec06000f3fe608060405234801561001057600080fd5b506004361061020b5760003560e01c806370a082311161012a578063ba087652116100bd578063ced4cd2e1161008c578063d905777e11610071578063d905777e1461049b578063dd62ed3e146104c4578063ef8b30f7146104ef57600080fd5b8063ced4cd2e14610467578063d505accf1461048857600080fd5b8063ba0876521461042e578063c63d75b614610343578063c6e6f59214610441578063ce96cb771461045457600080fd5b806395d89b41116100f957806395d89b41146103ed578063a9059cbb146103f5578063b3d7f6b914610408578063b460af941461041b57600080fd5b806370a0823114610391578063787a08a6146103b15780637ecebe00146103ba57806394bf804d146103da57600080fd5b8063350fd0be116101a2578063402d267d11610171578063402d267d146103435780634cdad506146103585780634efecaa51461036b5780636e553f651461037e57600080fd5b8063350fd0be146102de5780633644e515146102e7578063379607f5146102ef57806338d52e0f1461030457600080fd5b80630a28a477116101de5780630a28a4771461027657806318160ddd1461028957806323b872dd14610292578063313ce567146102a557600080fd5b806301e1d1141461021057806306fdde031461022b57806307a2d13a14610240578063095ea7b314610253575b600080fd5b610218610502565b6040519081526020015b60405180910390f35b61023361072e565b6040516102229190611a81565b61021861024e366004611a94565b6107bc565b610266610261366004611ac9565b6107e9565b6040519015158152602001610222565b610218610284366004611a94565b610856565b61021860025481565b6102666102a0366004611af3565b610876565b6102cc7f000000000000000000000000000000000000000000000000000000000000000081565b60405160ff9091168152602001610222565b61021860085481565b610218610968565b6103026102fd366004611a94565b6109c3565b005b61032b7f000000000000000000000000000000000000000000000000000000000000000081565b6040516001600160a01b039091168152602001610222565b610218610351366004611b2f565b5060001990565b610218610366366004611a94565b610b0f565b610302610379366004611ac9565b610b1a565b61021861038c366004611b4a565b610bcc565b61021861039f366004611b2f565b60036020526000908152604090205481565b61021860095481565b6102186103c8366004611b2f565b60056020526000908152604090205481565b6102186103e8366004611b4a565b610cb1565b610233610d40565b610266610403366004611ac9565b610d4d565b610218610416366004611a94565b610dc5565b610218610429366004611b76565b610de4565b61021861043c366004611b76565b610ec5565b61021861044f366004611a94565b611016565b610218610462366004611b2f565b611036565b61047a610475366004611b2f565b611058565b604051610222929190611bed565b610302610496366004611c1b565b611198565b6102186104a9366004611b2f565b6001600160a01b031660009081526003602052604090205490565b6102186104d2366004611c8e565b600460209081526000928352604080842090915290825290205481565b6102186104fd366004611a94565b611406565b6040517f70a0823100000000000000000000000000000000000000000000000000000000815230600482015260009081906001600160a01b037f000000000000000000000000000000000000000000000000000000000000000016906370a082319060240160206040518083038186803b15801561057f57600080fd5b505afa158015610593573d6000803e3d6000fd5b505050506040513d601f19601f820116820180604052508101906105b79190611cb8565b90506105f86040518060400160405280601581526020017f756e6465726c79696e6742616c616e63653a202573000000000000000000000081525082611411565b6040517fe68fc0ee0000000000000000000000000000000000000000000000000000000081526001600160a01b037f0000000000000000000000000000000000000000000000000000000000000000811660048301526000917f00000000000000000000000000000000000000000000000000000000000000009091169063e68fc0ee9060240160206040518083038186803b15801561069757600080fd5b505afa1580156106ab573d6000803e3d6000fd5b505050506040513d601f19601f820116820180604052508101906106cf9190611cb8565b90506107106040518060400160405280601881526020017f6f75747374616e64696e675072696e636970616c3a202573000000000000000081525082611411565b60085461071d8284611ce7565b6107279190611cff565b9250505090565b6000805461073b90611d16565b80601f016020809104026020016040519081016040528092919081815260200182805461076790611d16565b80156107b45780601f10610789576101008083540402835291602001916107b4565b820191906000526020600020905b81548152906001019060200180831161079757829003601f168201915b505050505081565b60025460009080156107e0576107db6107d3610502565b849083611484565b6107e2565b825b9392505050565b3360008181526004602090815260408083206001600160a01b038716808552925280832085905551919290917f8c5be1e5ebec7d5bd14f71427d1e84f3dd0314c0f7b2291e5b200ac8c7c3b925906108449086815260200190565b60405180910390a35060015b92915050565b60025460009080156107e0576107db8161086e610502565b8591906114a3565b6001600160a01b038316600090815260046020908152604080832033845290915281205460001981146108d2576108ad8382611cff565b6001600160a01b03861660009081526004602090815260408083203384529091529020555b6001600160a01b038516600090815260036020526040812080548592906108fa908490611cff565b90915550506001600160a01b03808516600081815260036020526040908190208054870190555190918716907fddf252ad1be2c89b69c2b068fc378daa952ba7f163c4a11628f55a4df523b3ef906109559087815260200190565b60405180910390a3506001949350505050565b60007f0000000000000000000000000000000000000000000000000000000000000000461461099e576109996114d1565b905090565b507f000000000000000000000000000000000000000000000000000000000000000090565b60006109cf338361156b565b6040517f70a0823100000000000000000000000000000000000000000000000000000000815230600482015290915081906001600160a01b037f000000000000000000000000000000000000000000000000000000000000000016906370a082319060240160206040518083038186803b158015610a4c57600080fd5b505afa158015610a60573d6000803e3d6000fd5b505050506040513d601f19601f82011682018060405250810190610a849190611cb8565b1015610ad75760405162461bcd60e51b815260206004820181905260248201527f496e73756666696369656e74206c697175696469747920617661696c61626c6560448201526064015b60405180910390fd5b610b0b6001600160a01b037f0000000000000000000000000000000000000000000000000000000000000000163383611712565b5050565b6000610850826107bc565b60408051808201909152600281527f32300000000000000000000000000000000000000000000000000000000000006020820152337f00000000000000000000000000000000000000000000000000000000000000006001600160a01b031614610b975760405162461bcd60e51b8152600401610ace9190611a81565b50610b0b6001600160a01b037f0000000000000000000000000000000000000000000000000000000000000000168383611712565b6000610bd783611406565b905080610c265760405162461bcd60e51b815260206004820152600b60248201527f5a45524f5f5348415245530000000000000000000000000000000000000000006044820152606401610ace565b610c5b6001600160a01b037f0000000000000000000000000000000000000000000000000000000000000000163330866117b7565b610c658282611863565b60408051848152602081018390526001600160a01b0384169133917fdcbc1c05240f31ff3ad067ef1ee35ce4997762752e3a095284754544f4c709d791015b60405180910390a3610850565b6000610cbc83610dc5565b9050610cf36001600160a01b037f0000000000000000000000000000000000000000000000000000000000000000163330846117b7565b610cfd8284611863565b60408051828152602081018590526001600160a01b0384169133917fdcbc1c05240f31ff3ad067ef1ee35ce4997762752e3a095284754544f4c709d79101610ca4565b6001805461073b90611d16565b33600090815260036020526040812080548391908390610d6e908490611cff565b90915550506001600160a01b038316600081815260036020526040908190208054850190555133907fddf252ad1be2c89b69c2b068fc378daa952ba7f163c4a11628f55a4df523b3ef906108449086815260200190565b60025460009080156107e0576107db610ddc610502565b8490836114a3565b6000610def84610856565b9050336001600160a01b03831614610e5f576001600160a01b03821660009081526004602090815260408083203384529091529020546000198114610e5d57610e388282611cff565b6001600160a01b03841660009081526004602090815260408083203384529091529020555b505b610e6982826118cf565b610e738285611943565b60408051858152602081018390526001600160a01b03808516929086169133917ffbde797d201c681b91056529119e0b02407c7bb96a4a2c75c01fc9667232c8db910160405180910390a49392505050565b6000336001600160a01b03831614610f35576001600160a01b03821660009081526004602090815260408083203384529091529020546000198114610f3357610f0e8582611cff565b6001600160a01b03841660009081526004602090815260408083203384529091529020555b505b610f3e84610b0f565b905080610f8d5760405162461bcd60e51b815260206004820152600b60248201527f5a45524f5f4153534554530000000000000000000000000000000000000000006044820152606401610ace565b610f9782856118cf565b60408051828152602081018690526001600160a01b03808516929086169133917ffbde797d201c681b91056529119e0b02407c7bb96a4a2c75c01fc9667232c8db910160405180910390a46107e26001600160a01b037f0000000000000000000000000000000000000000000000000000000000000000168483611712565b60025460009080156107e0576107db8161102e610502565b859190611484565b6001600160a01b038116600090815260036020526040812054610850906107bc565b6001600160a01b03811660009081526007602090815260408083208054825181850281018501909352808352606094859490939291908301828280156110bd57602002820191906000526020600020905b8154815260200190600101908083116110a9575b505050505090506000815167ffffffffffffffff8111156110e0576110e0611d51565b604051908082528060200260200182016040528015611109578160200160208202803683370190505b50905060005b825181101561118d576001600160a01b0386166000908152600660205260408120845190919085908490811061114757611147611d67565b602002602001015181526020019081526020016000205482828151811061117057611170611d67565b60209081029190910101528061118581611d7d565b91505061110f565b509094909350915050565b428410156111e85760405162461bcd60e51b815260206004820152601760248201527f5045524d49545f444541444c494e455f455850495245440000000000000000006044820152606401610ace565b600060016111f4610968565b6001600160a01b038a811660008181526005602090815260409182902080546001810190915582517f6e71edae12b1b97f4d1f60370fef10105fa2faae0126114a169c64845d6126c98184015280840194909452938d166060840152608083018c905260a083019390935260c08083018b90528151808403909101815260e0830190915280519201919091207f19010000000000000000000000000000000000000000000000000000000000006101008301526101028201929092526101228101919091526101420160408051601f198184030181528282528051602091820120600084529083018083525260ff871690820152606081018590526080810184905260a0016020604051602081039080840390855afa15801561131b573d6000803e3d6000fd5b5050604051601f1901519150506001600160a01b038116158015906113515750876001600160a01b0316816001600160a01b0316145b61139d5760405162461bcd60e51b815260206004820152600e60248201527f494e56414c49445f5349474e45520000000000000000000000000000000000006044820152606401610ace565b6001600160a01b0390811660009081526004602090815260408083208a8516808552908352928190208990555188815291928a16917f8c5be1e5ebec7d5bd14f71427d1e84f3dd0314c0f7b2291e5b200ac8c7c3b925910160405180910390a350505050505050565b600061085082611016565b610b0b8282604051602401611427929190611d98565b60408051601f198184030181529190526020810180517bffffffffffffffffffffffffffffffffffffffffffffffffffffffff167f9710a9d000000000000000000000000000000000000000000000000000000000179052611a13565b82820281151584158583048514171661149c57600080fd5b0492915050565b8282028115158415858304851417166114bb57600080fd5b6001826001830304018115150290509392505050565b60007f8b73c3c69bb8fe3d512ecc4cf759cc79239f7b179b0ffacaa9a75d522b39400f60006040516115039190611dba565b6040805191829003822060208301939093528101919091527fc89efdaa54c0f20c7adf612882df0950f5a951637e0307cdcb4c672f298b8bc660608201524660808201523060a082015260c00160405160208183030381529060405280519060200120905090565b6001600160a01b0382166000908152600760205260408120805483106115d35760405162461bcd60e51b815260206004820152600d60248201527f696e76616c696420696e646578000000000000000000000000000000000000006044820152606401610ace565b60008184815481106115e7576115e7611d67565b9060005260206000200154905060095481426116039190611cff565b116116505760405162461bcd60e51b815260206004820152600f60248201527f636f6f6c20646f776e206572726f7200000000000000000000000000000000006044820152606401610ace565b8154600090839061166390600190611cff565b8154811061167357611673611d67565b906000526020600020015490508083868154811061169357611693611d67565b9060005260206000200181905550828054806116b1576116b1611e74565b6000828152602080822060001990840181018390559092019092556001600160a01b038816825260068152604080832085845290915281208054908290556008805491928392611702908490611cff565b9091555090979650505050505050565b60006040517fa9059cbb000000000000000000000000000000000000000000000000000000008152836004820152826024820152602060006044836000895af13d15601f3d11600160005114161716915050806117b15760405162461bcd60e51b815260206004820152600f60248201527f5452414e534645525f4641494c454400000000000000000000000000000000006044820152606401610ace565b50505050565b60006040517f23b872dd0000000000000000000000000000000000000000000000000000000081528460048201528360248201528260448201526020600060648360008a5af13d15601f3d116001600051141617169150508061185c5760405162461bcd60e51b815260206004820152601460248201527f5452414e534645525f46524f4d5f4641494c45440000000000000000000000006044820152606401610ace565b5050505050565b80600260008282546118759190611ce7565b90915550506001600160a01b0382166000818152600360209081526040808320805486019055518481527fddf252ad1be2c89b69c2b068fc378daa952ba7f163c4a11628f55a4df523b3ef91015b60405180910390a35050565b6001600160a01b038216600090815260036020526040812080548392906118f7908490611cff565b90915550506002805482900390556040518181526000906001600160a01b038416907fddf252ad1be2c89b69c2b068fc378daa952ba7f163c4a11628f55a4df523b3ef906020016118c3565b6001600160a01b0382166000908152600660209081526040808320428452909152902054156119b45760405162461bcd60e51b815260206004820152601060248201527f696e76616c6964207769746864726177000000000000000000000000000000006044820152606401610ace565b6001600160a01b0382166000818152600660209081526040808320428085529083528184208690559383526007825282208054600181018255908352908220019190915560088054839290611a0a908490611ce7565b90915550505050565b80516a636f6e736f6c652e6c6f67602083016000808483855afa5050505050565b6000815180845260005b81811015611a5a57602081850181015186830182015201611a3e565b81811115611a6c576000602083870101525b50601f01601f19169290920160200192915050565b6020815260006107e26020830184611a34565b600060208284031215611aa657600080fd5b5035919050565b80356001600160a01b0381168114611ac457600080fd5b919050565b60008060408385031215611adc57600080fd5b611ae583611aad565b946020939093013593505050565b600080600060608486031215611b0857600080fd5b611b1184611aad565b9250611b1f60208501611aad565b9150604084013590509250925092565b600060208284031215611b4157600080fd5b6107e282611aad565b60008060408385031215611b5d57600080fd5b82359150611b6d60208401611aad565b90509250929050565b600080600060608486031215611b8b57600080fd5b83359250611b9b60208501611aad565b9150611ba960408501611aad565b90509250925092565b600081518084526020808501945080840160005b83811015611be257815187529582019590820190600101611bc6565b509495945050505050565b604081526000611c006040830185611bb2565b8281036020840152611c128185611bb2565b95945050505050565b600080600080600080600060e0888a031215611c3657600080fd5b611c3f88611aad565b9650611c4d60208901611aad565b95506040880135945060608801359350608088013560ff81168114611c7157600080fd5b9699959850939692959460a0840135945060c09093013592915050565b60008060408385031215611ca157600080fd5b611caa83611aad565b9150611b6d60208401611aad565b600060208284031215611cca57600080fd5b5051919050565b634e487b7160e01b600052601160045260246000fd5b60008219821115611cfa57611cfa611cd1565b500190565b600082821015611d1157611d11611cd1565b500390565b600181811c90821680611d2a57607f821691505b60208210811415611d4b57634e487b7160e01b600052602260045260246000fd5b50919050565b634e487b7160e01b600052604160045260246000fd5b634e487b7160e01b600052603260045260246000fd5b6000600019821415611d9157611d91611cd1565b5060010190565b604081526000611dab6040830185611a34565b90508260208301529392505050565b600080835481600182811c915080831680611dd657607f831692505b6020808410821415611df657634e487b7160e01b86526022600452602486fd5b818015611e0a5760018114611e3957611e66565b7fffffffffffffffffffffffffffffffffffffffffffffffffffffffffffffff00861689528489019650611e66565b60008a81526020902060005b86811015611e5e5781548b820152908501908301611e45565b505084890196505b509498975050505050505050565b634e487b7160e01b600052603160045260246000fdfea2646970667358221220b7b3d6c97756004980d30a1010d95e6f3f95005b872b5fdf96b5ca84e141bd8564736f6c63430008090033",
  "devdoc": {
    "kind": "dev",
    "methods": {},
    "version": 1
  },
  "userdoc": {
    "kind": "user",
    "methods": {},
    "version": 1
  },
  "storageLayout": {
    "storage": [
      {
        "astId": 3868,
        "contract": "contracts/tokenization/SeniorDepositToken.sol:SeniorDepositToken",
        "label": "name",
        "offset": 0,
        "slot": "0",
        "type": "t_string_storage"
      },
      {
        "astId": 3870,
        "contract": "contracts/tokenization/SeniorDepositToken.sol:SeniorDepositToken",
        "label": "symbol",
        "offset": 0,
        "slot": "1",
        "type": "t_string_storage"
      },
      {
        "astId": 3874,
        "contract": "contracts/tokenization/SeniorDepositToken.sol:SeniorDepositToken",
        "label": "totalSupply",
        "offset": 0,
        "slot": "2",
        "type": "t_uint256"
      },
      {
        "astId": 3878,
        "contract": "contracts/tokenization/SeniorDepositToken.sol:SeniorDepositToken",
        "label": "balanceOf",
        "offset": 0,
        "slot": "3",
        "type": "t_mapping(t_address,t_uint256)"
      },
      {
        "astId": 3884,
        "contract": "contracts/tokenization/SeniorDepositToken.sol:SeniorDepositToken",
        "label": "allowance",
        "offset": 0,
        "slot": "4",
        "type": "t_mapping(t_address,t_mapping(t_address,t_uint256))"
      },
      {
        "astId": 3892,
        "contract": "contracts/tokenization/SeniorDepositToken.sol:SeniorDepositToken",
        "label": "nonces",
        "offset": 0,
        "slot": "5",
        "type": "t_mapping(t_address,t_uint256)"
      },
      {
        "astId": 15853,
        "contract": "contracts/tokenization/SeniorDepositToken.sol:SeniorDepositToken",
        "label": "withdrawals",
        "offset": 0,
        "slot": "6",
        "type": "t_mapping(t_address,t_mapping(t_uint256,t_uint256))"
      },
      {
        "astId": 15858,
        "contract": "contracts/tokenization/SeniorDepositToken.sol:SeniorDepositToken",
        "label": "pendingTimestamp",
        "offset": 0,
        "slot": "7",
        "type": "t_mapping(t_address,t_array(t_uint256)dyn_storage)"
      },
      {
        "astId": 15861,
        "contract": "contracts/tokenization/SeniorDepositToken.sol:SeniorDepositToken",
        "label": "totalUnbonding",
        "offset": 0,
        "slot": "8",
        "type": "t_uint256"
      },
      {
        "astId": 15864,
        "contract": "contracts/tokenization/SeniorDepositToken.sol:SeniorDepositToken",
        "label": "cooldown",
        "offset": 0,
        "slot": "9",
        "type": "t_uint256"
      }
    ],
    "types": {
      "t_address": {
        "encoding": "inplace",
        "label": "address",
        "numberOfBytes": "20"
      },
      "t_array(t_uint256)dyn_storage": {
        "base": "t_uint256",
        "encoding": "dynamic_array",
        "label": "uint256[]",
        "numberOfBytes": "32"
      },
      "t_mapping(t_address,t_array(t_uint256)dyn_storage)": {
        "encoding": "mapping",
        "key": "t_address",
        "label": "mapping(address => uint256[])",
        "numberOfBytes": "32",
        "value": "t_array(t_uint256)dyn_storage"
      },
      "t_mapping(t_address,t_mapping(t_address,t_uint256))": {
        "encoding": "mapping",
        "key": "t_address",
        "label": "mapping(address => mapping(address => uint256))",
        "numberOfBytes": "32",
        "value": "t_mapping(t_address,t_uint256)"
      },
      "t_mapping(t_address,t_mapping(t_uint256,t_uint256))": {
        "encoding": "mapping",
        "key": "t_address",
        "label": "mapping(address => mapping(uint256 => uint256))",
        "numberOfBytes": "32",
        "value": "t_mapping(t_uint256,t_uint256)"
      },
      "t_mapping(t_address,t_uint256)": {
        "encoding": "mapping",
        "key": "t_address",
        "label": "mapping(address => uint256)",
        "numberOfBytes": "32",
        "value": "t_uint256"
      },
      "t_mapping(t_uint256,t_uint256)": {
        "encoding": "mapping",
        "key": "t_uint256",
        "label": "mapping(uint256 => uint256)",
        "numberOfBytes": "32",
        "value": "t_uint256"
      },
      "t_string_storage": {
        "encoding": "bytes",
        "label": "string",
        "numberOfBytes": "32"
      },
      "t_uint256": {
        "encoding": "inplace",
        "label": "uint256",
        "numberOfBytes": "32"
      }
    }
  }
}