{
  "address": "0xFf4A0f4a4d56c91791351ED690aab2dc04140396",
  "abi": [
    {
      "anonymous": false,
      "inputs": [
        {
          "indexed": true,
          "internalType": "address",
          "name": "owner",
          "type": "address"
        },
        {
          "indexed": true,
          "internalType": "address",
          "name": "spender",
          "type": "address"
        },
        {
          "indexed": false,
          "internalType": "uint256",
          "name": "value",
          "type": "uint256"
        }
      ],
      "name": "Approval",
      "type": "event"
    },
    {
      "anonymous": false,
      "inputs": [
        {
          "indexed": true,
          "internalType": "address",
          "name": "from",
          "type": "address"
        },
        {
          "indexed": false,
          "internalType": "uint256",
          "name": "value",
          "type": "uint256"
        },
        {
          "indexed": false,
          "internalType": "uint256",
          "name": "index",
          "type": "uint256"
        }
      ],
      "name": "Burn",
      "type": "event"
    },
    {
      "anonymous": false,
      "inputs": [
        {
          "indexed": true,
          "internalType": "address",
          "name": "underlyingAsset",
          "type": "address"
        },
        {
          "indexed": true,
          "internalType": "address",
          "name": "liquidityManagerProxy",
          "type": "address"
        },
        {
          "indexed": false,
          "internalType": "uint8",
          "name": "tokenDecimals",
          "type": "uint8"
        },
        {
          "indexed": false,
          "internalType": "string",
          "name": "tokenName",
          "type": "string"
        },
        {
          "indexed": false,
          "internalType": "string",
          "name": "tokenSymbol",
          "type": "string"
        },
        {
          "indexed": false,
          "internalType": "bytes",
          "name": "params",
          "type": "bytes"
        }
      ],
      "name": "Initialized",
      "type": "event"
    },
    {
      "anonymous": false,
      "inputs": [
        {
          "indexed": true,
          "internalType": "address",
          "name": "from",
          "type": "address"
        },
        {
          "indexed": false,
          "internalType": "uint256",
          "name": "value",
          "type": "uint256"
        },
        {
          "indexed": false,
          "internalType": "uint256",
          "name": "index",
          "type": "uint256"
        }
      ],
      "name": "Mint",
      "type": "event"
    },
    {
      "anonymous": false,
      "inputs": [
        {
          "indexed": true,
          "internalType": "address",
          "name": "from",
          "type": "address"
        },
        {
          "indexed": true,
          "internalType": "address",
          "name": "to",
          "type": "address"
        },
        {
          "indexed": false,
          "internalType": "uint256",
          "name": "value",
          "type": "uint256"
        }
      ],
      "name": "Transfer",
      "type": "event"
    },
    {
      "inputs": [],
      "name": "SENIOR_DEPOSIT_TOKEN_REVISION",
      "outputs": [
        {
          "internalType": "uint256",
          "name": "",
          "type": "uint256"
        }
      ],
      "stateMutability": "view",
      "type": "function"
    },
    {
      "inputs": [
        {
          "internalType": "address",
          "name": "owner",
          "type": "address"
        },
        {
          "internalType": "address",
          "name": "spender",
          "type": "address"
        }
      ],
      "name": "allowance",
      "outputs": [
        {
          "internalType": "uint256",
          "name": "",
          "type": "uint256"
        }
      ],
      "stateMutability": "view",
      "type": "function"
    },
    {
      "inputs": [
        {
          "internalType": "address",
          "name": "spender",
          "type": "address"
        },
        {
          "internalType": "uint256",
          "name": "amount",
          "type": "uint256"
        }
      ],
      "name": "approve",
      "outputs": [
        {
          "internalType": "bool",
          "name": "",
          "type": "bool"
        }
      ],
      "stateMutability": "nonpayable",
      "type": "function"
    },
    {
      "inputs": [
        {
          "internalType": "address",
          "name": "_user",
          "type": "address"
        }
      ],
      "name": "balanceOf",
      "outputs": [
        {
          "internalType": "uint256",
          "name": "",
          "type": "uint256"
        }
      ],
      "stateMutability": "view",
      "type": "function"
    },
    {
      "inputs": [
        {
          "internalType": "address",
          "name": "_user",
          "type": "address"
        },
        {
          "internalType": "uint256",
          "name": "_amount",
          "type": "uint256"
        },
        {
          "internalType": "uint256",
          "name": "_index",
          "type": "uint256"
        }
      ],
      "name": "burn",
      "outputs": [],
      "stateMutability": "nonpayable",
      "type": "function"
    },
    {
      "inputs": [
        {
          "internalType": "uint256",
          "name": "_index",
          "type": "uint256"
        }
      ],
      "name": "claim",
      "outputs": [],
      "stateMutability": "nonpayable",
      "type": "function"
    },
    {
      "inputs": [],
      "name": "decimals",
      "outputs": [
        {
          "internalType": "uint8",
          "name": "",
          "type": "uint8"
        }
      ],
      "stateMutability": "view",
      "type": "function"
    },
    {
      "inputs": [
        {
          "internalType": "address",
          "name": "spender",
          "type": "address"
        },
        {
          "internalType": "uint256",
          "name": "subtractedValue",
          "type": "uint256"
        }
      ],
      "name": "decreaseAllowance",
      "outputs": [
        {
          "internalType": "bool",
          "name": "",
          "type": "bool"
        }
      ],
      "stateMutability": "nonpayable",
      "type": "function"
    },
    {
      "inputs": [
        {
          "internalType": "address",
          "name": "spender",
          "type": "address"
        },
        {
          "internalType": "uint256",
          "name": "addedValue",
          "type": "uint256"
        }
      ],
      "name": "increaseAllowance",
      "outputs": [
        {
          "internalType": "bool",
          "name": "",
          "type": "bool"
        }
      ],
      "stateMutability": "nonpayable",
      "type": "function"
    },
    {
      "inputs": [
        {
          "internalType": "contract AddressResolver",
          "name": "_addressResolver",
          "type": "address"
        },
        {
          "internalType": "address",
          "name": "_underlyingAsset",
          "type": "address"
        },
        {
          "internalType": "uint8",
          "name": "_seniorDepositTokenDecimals",
          "type": "uint8"
        },
        {
          "internalType": "string",
          "name": "_seniorDepositTokenName",
          "type": "string"
        },
        {
          "internalType": "string",
          "name": "_seniorDepositTokenSymbol",
          "type": "string"
        },
        {
          "internalType": "bytes",
          "name": "_params",
          "type": "bytes"
        }
      ],
      "name": "initialize",
      "outputs": [],
      "stateMutability": "nonpayable",
      "type": "function"
    },
    {
      "inputs": [],
      "name": "isInitialized",
      "outputs": [
        {
          "internalType": "bool",
          "name": "",
          "type": "bool"
        }
      ],
      "stateMutability": "view",
      "type": "function"
    },
    {
      "inputs": [],
      "name": "lockTime",
      "outputs": [
        {
          "internalType": "uint256",
          "name": "",
          "type": "uint256"
        }
      ],
      "stateMutability": "view",
      "type": "function"
    },
    {
      "inputs": [
        {
          "internalType": "address",
          "name": "_user",
          "type": "address"
        },
        {
          "internalType": "uint256",
          "name": "_amount",
          "type": "uint256"
        },
        {
          "internalType": "uint256",
          "name": "_index",
          "type": "uint256"
        }
      ],
      "name": "mint",
      "outputs": [
        {
          "internalType": "bool",
          "name": "",
          "type": "bool"
        }
      ],
      "stateMutability": "nonpayable",
      "type": "function"
    },
    {
      "inputs": [],
      "name": "name",
      "outputs": [
        {
          "internalType": "string",
          "name": "",
          "type": "string"
        }
      ],
      "stateMutability": "view",
      "type": "function"
    },
    {
      "inputs": [
        {
          "internalType": "address",
          "name": "_user",
          "type": "address"
        }
      ],
      "name": "pendingWithdrawal",
      "outputs": [
        {
          "internalType": "uint256[]",
          "name": "",
          "type": "uint256[]"
        }
      ],
      "stateMutability": "view",
      "type": "function"
    },
    {
      "inputs": [
        {
          "internalType": "address",
          "name": "_user",
          "type": "address"
        }
      ],
      "name": "scaledBalanceOf",
      "outputs": [
        {
          "internalType": "uint256",
          "name": "",
          "type": "uint256"
        }
      ],
      "stateMutability": "view",
      "type": "function"
    },
    {
      "inputs": [],
      "name": "scaledTotalSupply",
      "outputs": [
        {
          "internalType": "uint256",
          "name": "",
          "type": "uint256"
        }
      ],
      "stateMutability": "view",
      "type": "function"
    },
    {
      "inputs": [],
      "name": "symbol",
      "outputs": [
        {
          "internalType": "string",
          "name": "",
          "type": "string"
        }
      ],
      "stateMutability": "view",
      "type": "function"
    },
    {
      "inputs": [],
      "name": "totalPendingWithdrawal",
      "outputs": [
        {
          "internalType": "uint256",
          "name": "",
          "type": "uint256"
        }
      ],
      "stateMutability": "view",
      "type": "function"
    },
    {
      "inputs": [],
      "name": "totalSupply",
      "outputs": [
        {
          "internalType": "uint256",
          "name": "",
          "type": "uint256"
        }
      ],
      "stateMutability": "view",
      "type": "function"
    },
    {
      "inputs": [
        {
          "internalType": "address",
          "name": "recipient",
          "type": "address"
        },
        {
          "internalType": "uint256",
          "name": "amount",
          "type": "uint256"
        }
      ],
      "name": "transfer",
      "outputs": [
        {
          "internalType": "bool",
          "name": "",
          "type": "bool"
        }
      ],
      "stateMutability": "nonpayable",
      "type": "function"
    },
    {
      "inputs": [
        {
          "internalType": "address",
          "name": "sender",
          "type": "address"
        },
        {
          "internalType": "address",
          "name": "recipient",
          "type": "address"
        },
        {
          "internalType": "uint256",
          "name": "amount",
          "type": "uint256"
        }
      ],
      "name": "transferFrom",
      "outputs": [
        {
          "internalType": "bool",
          "name": "",
          "type": "bool"
        }
      ],
      "stateMutability": "nonpayable",
      "type": "function"
    },
    {
      "inputs": [
        {
          "internalType": "address",
          "name": "_target",
          "type": "address"
        },
        {
          "internalType": "uint256",
          "name": "_amount",
          "type": "uint256"
        }
      ],
      "name": "transferUnderlyingTo",
      "outputs": [],
      "stateMutability": "nonpayable",
      "type": "function"
    },
    {
      "inputs": [
        {
          "internalType": "address",
          "name": "_user",
          "type": "address"
        }
      ],
      "name": "withdrawalAble",
      "outputs": [
        {
          "internalType": "uint256",
          "name": "",
          "type": "uint256"
        }
      ],
      "stateMutability": "view",
      "type": "function"
    }
  ],
  "transactionHash": "0x10cd81d7832d1d8b51faab56c346f16627233aed8962f1cc7ec411f6b8d8eb91",
  "args": [],
  "numDeployments": 2,
  "solcInputHash": "871331f2b15163ae262450cdbd5935c8",
  "bytecode": "0x60806040526000805562093a806005553480156200001c57600080fd5b5060408051808201825260178082527f53656e696f724465706f736974546f6b656e5f494d504c0000000000000000006020808401828152855180870190965292855284015281519192916000916200007991603b919062000099565b5081516200008f90603c90602085019062000099565b505050506200017c565b828054620000a7906200013f565b90600052602060002090601f016020900481019282620000cb576000855562000116565b82601f10620000e657805160ff191683800117855562000116565b8280016001018555821562000116579182015b8281111562000116578251825591602001919060010190620000f9565b506200012492915062000128565b5090565b5b8082111562000124576000815560010162000129565b600181811c908216806200015457607f821691505b602082108114156200017657634e487b7160e01b600052602260045260246000fd5b50919050565b612551806200018c6000396000f3fe608060405234801561001057600080fd5b50600436106101985760003560e01c806339509351116100e3578063a457c2d71161008c578063d41e972011610066578063d41e972014610320578063dd62ed3e14610328578063f5298aca1461036157600080fd5b8063a457c2d7146102f2578063a9059cbb14610305578063b1bf962d1461031857600080fd5b806370a08231116100bd57806370a08231146102c45780637fdd585f146102d757806395d89b41146102ea57600080fd5b8063395093511461028b5780634efecaa51461029e57806352801efd146102b157600080fd5b80631da24f3e11610145578063313ce5671161011f578063313ce56714610259578063379607f51461026e578063392e53cd1461028357600080fd5b80631da24f3e1461022b57806323b872dd1461023e5780632545d68a1461025157600080fd5b80630d668087116101765780630d668087146101fe578063156e29f61461021057806318160ddd1461022357600080fd5b806306fdde031461019d578063095ea7b3146101bb5780630964c95b146101de575b600080fd5b6101a5610374565b6040516101b29190612001565b60405180910390f35b6101ce6101c936600461204c565b610406565b60405190151581526020016101b2565b6101f16101ec366004612078565b61041c565b6040516101b29190612095565b6005545b6040519081526020016101b2565b6101ce61021e3660046120d9565b610488565b61020261074f565b610202610239366004612078565b610827565b6101ce61024c36600461210e565b610847565b610202600181565b603d5460405160ff90911681526020016101b2565b61028161027c36600461214f565b610906565b005b6101ce610a14565b6101ce61029936600461204c565b610a32565b6102816102ac36600461204c565b610a6e565b6102026102bf366004612078565b610c2c565b6102026102d2366004612078565b610cc0565b6102816102e53660046121b1565b610d8f565b6101a5611038565b6101ce61030036600461204c565b611047565b6101ce61031336600461204c565b6110f8565b610202611105565b600454610202565b61020261033636600461228b565b6001600160a01b03918216600090815260396020908152604080832093909416825291909152205490565b61028161036f3660046120d9565b611110565b6060603b8054610383906122c4565b80601f01602080910402602001604051908101604052809291908181526020018280546103af906122c4565b80156103fc5780601f106103d1576101008083540402835291602001916103fc565b820191906000526020600020905b8154815290600101906020018083116103df57829003601f168201915b5050505050905090565b60006104133384846113b8565b50600192915050565b6001600160a01b03811660009081526003602090815260409182902080548351818402810184019094528084526060939283018282801561047c57602002820191906000526020600020905b815481526020019060010190808311610468575b50505050509050919050565b603d546040516321f8a72160e01b81527f6c69717569646974794d616e6167657200000000000000000000000000000000600482015260009161010090046001600160a01b0316906321f8a7219060240160206040518083038186803b1580156104f157600080fd5b505afa158015610505573d6000803e3d6000fd5b505050506040513d601f19601f8201168201806040525081019061052991906122ff565b6001600160a01b0316336001600160a01b031614806105f75750603d546040516321f8a72160e01b81527f6c6f616e4d616e6167657200000000000000000000000000000000000000000060048201526101009091046001600160a01b0316906321f8a7219060240160206040518083038186803b1580156105aa57600080fd5b505afa1580156105be573d6000803e3d6000fd5b505050506040513d601f19601f820116820180604052508101906105e291906122ff565b6001600160a01b0316336001600160a01b0316145b60405180604001604052806002815260200161032360f41b815250906106395760405162461bcd60e51b81526004016106309190612001565b60405180910390fd5b506001600160a01b0384166000908152603860205260408120549061065e8585611510565b60408051808201909152600281527f32310000000000000000000000000000000000000000000000000000000000006020820152909150816106b35760405162461bcd60e51b81526004016106309190612001565b506106be8682611552565b6040518581526001600160a01b038716906000907fddf252ad1be2c89b69c2b068fc378daa952ba7f163c4a11628f55a4df523b3ef9060200160405180910390a360408051868152602081018690526001600160a01b038816917f4c209b5fc8ad50758f13e2e1088ba56a560dff690a1c6fef26394f4c03821c4f910160405180910390a2501590505b9392505050565b60008061075b603a5490565b90508061076a57600091505090565b60006107746115fd565b603e546040517f776f6891000000000000000000000000000000000000000000000000000000008152919250610820916001600160a01b038085169263776f6891926107c9929091169060019060040161231c565b60206040518083038186803b1580156107e157600080fd5b505afa1580156107f5573d6000803e3d6000fd5b505050506040513d601f19601f820116820180604052508101906108199190612357565b83906116a1565b9250505090565b6001600160a01b0381166000908152603860205260408120545b92915050565b60006108548484846116dd565b6001600160a01b0384166000908152603960209081526040808320338452909152902054828110156108ee5760405162461bcd60e51b815260206004820152602860248201527f45524332303a207472616e7366657220616d6f756e742065786365656473206160448201527f6c6c6f77616e63650000000000000000000000000000000000000000000000006064820152608401610630565b6108fb85338584036113b8565b506001949350505050565b600061091233836118f6565b603e546040517f70a0823100000000000000000000000000000000000000000000000000000000815230600482015291925082916001600160a01b03909116906370a082319060240160206040518083038186803b15801561097357600080fd5b505afa158015610987573d6000803e3d6000fd5b505050506040513d601f19601f820116820180604052508101906109ab9190612357565b10156109f95760405162461bcd60e51b815260206004820181905260248201527f496e73756666696369656e74206c697175696469747920617661696c61626c656044820152606401610630565b603e54610a10906001600160a01b03163383611a9d565b5050565b60015460009060ff16158015610a2d5750600054600111155b905090565b3360008181526039602090815260408083206001600160a01b03871684529091528120549091610413918590610a69908690612386565b6113b8565b603d546040516321f8a72160e01b81527f6c69717569646974794d616e616765720000000000000000000000000000000060048201526101009091046001600160a01b0316906321f8a7219060240160206040518083038186803b158015610ad557600080fd5b505afa158015610ae9573d6000803e3d6000fd5b505050506040513d601f19601f82011682018060405250810190610b0d91906122ff565b6001600160a01b0316336001600160a01b03161480610bdb5750603d546040516321f8a72160e01b81527f6c6f616e4d616e6167657200000000000000000000000000000000000000000060048201526101009091046001600160a01b0316906321f8a7219060240160206040518083038186803b158015610b8e57600080fd5b505afa158015610ba2573d6000803e3d6000fd5b505050506040513d601f19601f82011682018060405250810190610bc691906122ff565b6001600160a01b0316336001600160a01b0316145b60405180604001604052806002815260200161032360f41b81525090610c145760405162461bcd60e51b81526004016106309190612001565b50603e54610a10906001600160a01b03168383611a9d565b6001600160a01b038116600090815260036020526040812081805b8254811015610cb8576001600160a01b03851660009081526002602052604081208454909190859084908110610c7f57610c7f61239e565b906000526020600020015481526020019081526020016000205482610ca49190612386565b915080610cb0816123b4565b915050610c47565b509392505050565b600080610ccb6115fd565b603e546040517f776f6891000000000000000000000000000000000000000000000000000000008152919250610748916001600160a01b038085169263776f689192610d20929091169060019060040161231c565b60206040518083038186803b158015610d3857600080fd5b505afa158015610d4c573d6000803e3d6000fd5b505050506040513d601f19601f82011682018060405250810190610d709190612357565b6001600160a01b038516600090815260386020526040902054906116a1565b6001805460ff1680610da05750303b155b80610dac575060005481115b610e1e5760405162461bcd60e51b815260206004820152602e60248201527f436f6e747261637420696e7374616e63652068617320616c726561647920626560448201527f656e20696e697469616c697a65640000000000000000000000000000000000006064820152608401610630565b60015460ff16158015610e3d576001805460ff19168117905560008290555b610e7c88888080601f016020809104026020016040519081016040528093929190818152602001838380828437600092019190915250611b2292505050565b610ebb86868080601f016020809104026020016040519081016040528093929190818152602001838380828437600092019190915250611b3592505050565b603d805460ff191660ff8b16179055603d80547fffffffffffffffffffffff0000000000000000000000000000000000000000ff166101006001600160a01b038e811682029290921792839055603e80547fffffffffffffffffffffffff0000000000000000000000000000000000000000168e84161790556040516321f8a72160e01b81527f6c69717569646974794d616e61676572000000000000000000000000000000006004820152920416906321f8a7219060240160206040518083038186803b158015610f8c57600080fd5b505afa158015610fa0573d6000803e3d6000fd5b505050506040513d601f19601f82011682018060405250810190610fc491906122ff565b6001600160a01b03168a6001600160a01b03167f5d8ce3e947367e84e7fa4f4ba36ebe75e6b6c6b93c25673faa4df0202b59c1388b8b8b8b8b8b8b60405161101297969594939291906123fa565b60405180910390a3801561102b576001805460ff191690555b5050505050505050505050565b6060603c8054610383906122c4565b3360009081526039602090815260408083206001600160a01b0386168452909152812054828110156110e15760405162461bcd60e51b815260206004820152602560248201527f45524332303a2064656372656173656420616c6c6f77616e63652062656c6f7760448201527f207a65726f0000000000000000000000000000000000000000000000000000006064820152608401610630565b6110ee33858584036113b8565b5060019392505050565b60006104133384846116dd565b6000610a2d603a5490565b603d546040516321f8a72160e01b81527f6c69717569646974794d616e616765720000000000000000000000000000000060048201526101009091046001600160a01b0316906321f8a7219060240160206040518083038186803b15801561117757600080fd5b505afa15801561118b573d6000803e3d6000fd5b505050506040513d601f19601f820116820180604052508101906111af91906122ff565b6001600160a01b0316336001600160a01b0316148061127d5750603d546040516321f8a72160e01b81527f6c6f616e4d616e6167657200000000000000000000000000000000000000000060048201526101009091046001600160a01b0316906321f8a7219060240160206040518083038186803b15801561123057600080fd5b505afa158015611244573d6000803e3d6000fd5b505050506040513d601f19601f8201168201806040525081019061126891906122ff565b6001600160a01b0316336001600160a01b0316145b60405180604001604052806002815260200161032360f41b815250906112b65760405162461bcd60e51b81526004016106309190612001565b5060006112c38383611510565b60408051808201909152600281527f32320000000000000000000000000000000000000000000000000000000000006020820152909150816113185760405162461bcd60e51b81526004016106309190612001565b506113238482611b48565b61132d8484611c17565b6040518381526000906001600160a01b038616907fddf252ad1be2c89b69c2b068fc378daa952ba7f163c4a11628f55a4df523b3ef9060200160405180910390a360408051848152602081018490526001600160a01b038616917f49995e5dd6158cf69ad3e9777c46755a1a826a446c6416992167462dad033b2a910160405180910390a250505050565b6001600160a01b0383166114335760405162461bcd60e51b8152602060048201526024808201527f45524332303a20617070726f76652066726f6d20746865207a65726f2061646460448201527f72657373000000000000000000000000000000000000000000000000000000006064820152608401610630565b6001600160a01b0382166114af5760405162461bcd60e51b815260206004820152602260248201527f45524332303a20617070726f766520746f20746865207a65726f20616464726560448201527f73730000000000000000000000000000000000000000000000000000000000006064820152608401610630565b6001600160a01b0383811660008181526039602090815260408083209487168084529482529182902085905590518481527f8c5be1e5ebec7d5bd14f71427d1e84f3dd0314c0f7b2291e5b200ac8c7c3b925910160405180910390a3505050565b60008061151e60028461244d565b905061154a8361154461153d876b033b2e3c9fd0803ce8000000611ce7565b8490611cf3565b90611cff565b949350505050565b6001600160a01b0382166115a85760405162461bcd60e51b815260206004820152601f60248201527f45524332303a206d696e7420746f20746865207a65726f2061646472657373006044820152606401610630565b603a546115b58183611cf3565b603a556001600160a01b0383166000908152603860205260409020546115db8184611cf3565b6001600160a01b03909416600090815260386020526040902093909355505050565b603d546040516321f8a72160e01b81527f6c69717569646974794d616e6167657250726f78790000000000000000000000600482015260009182916101009091046001600160a01b0316906321f8a7219060240160206040518083038186803b15801561166957600080fd5b505afa15801561167d573d6000803e3d6000fd5b505050506040513d601f19601f8201168201806040525081019061084191906122ff565b60006107486b033b2e3c9fd0803ce80000006115446116c08686611ce7565b6116d760026b033b2e3c9fd0803ce800000061244d565b90611cf3565b6001600160a01b0383166117595760405162461bcd60e51b815260206004820152602560248201527f45524332303a207472616e736665722066726f6d20746865207a65726f20616460448201527f64726573730000000000000000000000000000000000000000000000000000006064820152608401610630565b6001600160a01b0382166117d55760405162461bcd60e51b815260206004820152602360248201527f45524332303a207472616e7366657220746f20746865207a65726f206164647260448201527f65737300000000000000000000000000000000000000000000000000000000006064820152608401610630565b6001600160a01b038316600090815260386020526040902054818110156118645760405162461bcd60e51b815260206004820152602660248201527f45524332303a207472616e7366657220616d6f756e742065786365656473206260448201527f616c616e636500000000000000000000000000000000000000000000000000006064820152608401610630565b6001600160a01b0380851660009081526038602052604080822085850390559185168152908120805484929061189b908490612386565b92505081905550826001600160a01b0316846001600160a01b03167fddf252ad1be2c89b69c2b068fc378daa952ba7f163c4a11628f55a4df523b3ef846040516118e791815260200190565b60405180910390a35b50505050565b6001600160a01b03821660009081526003602052604081208054831061195e5760405162461bcd60e51b815260206004820152600d60248201527f696e76616c696420696e646578000000000000000000000000000000000000006044820152606401610630565b60008184815481106119725761197261239e565b90600052602060002001549050600554814261198e919061246f565b116119db5760405162461bcd60e51b815260206004820152600f60248201527f636f6f6c20646f776e206572726f7200000000000000000000000000000000006044820152606401610630565b815460009083906119ee9060019061246f565b815481106119fe576119fe61239e565b9060005260206000200154905080838681548110611a1e57611a1e61239e565b906000526020600020018190555082805480611a3c57611a3c612486565b6000828152602080822060001990840181018390559092019092556001600160a01b038816825260028152604080832085845290915281208054908290556004805491928392611a8d90849061246f565b9091555090979650505050505050565b604080516001600160a01b038416602482015260448082018490528251808303909101815260649091019091526020810180517bffffffffffffffffffffffffffffffffffffffffffffffffffffffff167fa9059cbb00000000000000000000000000000000000000000000000000000000179052611b1d908490611d0b565b505050565b8051610a1090603b906020840190611f3c565b8051610a1090603c906020840190611f3c565b6001600160a01b038216611bc45760405162461bcd60e51b815260206004820152602160248201527f45524332303a206275726e2066726f6d20746865207a65726f2061646472657360448201527f73000000000000000000000000000000000000000000000000000000000000006064820152608401610630565b603a54611bd18183611df0565b603a556001600160a01b03831660009081526038602090815260409182902054825160608101909352602280845290926115db928692906124fa90830139839190611dfc565b6001600160a01b038216600090815260026020908152604080832042845290915290205415611c885760405162461bcd60e51b815260206004820152601060248201527f696e76616c6964207769746864726177000000000000000000000000000000006044820152606401610630565b6001600160a01b0382166000818152600260209081526040808320428085529083528184208690559383526003825282208054600181018255908352908220019190915560048054839290611cde908490612386565b90915550505050565b6000610748828461249c565b60006107488284612386565b6000610748828461244d565b6000611d60826040518060400160405280602081526020017f5361666545524332303a206c6f772d6c6576656c2063616c6c206661696c6564815250856001600160a01b0316611e289092919063ffffffff16565b805190915015611b1d5780806020019051810190611d7e91906124bb565b611b1d5760405162461bcd60e51b815260206004820152602a60248201527f5361666545524332303a204552433230206f7065726174696f6e20646964206e60448201527f6f742073756363656564000000000000000000000000000000000000000000006064820152608401610630565b6000610748828461246f565b60008184841115611e205760405162461bcd60e51b81526004016106309190612001565b505050900390565b606061154a8484600085856001600160a01b0385163b611e8a5760405162461bcd60e51b815260206004820152601d60248201527f416464726573733a2063616c6c20746f206e6f6e2d636f6e74726163740000006044820152606401610630565b600080866001600160a01b03168587604051611ea691906124dd565b60006040518083038185875af1925050503d8060008114611ee3576040519150601f19603f3d011682016040523d82523d6000602084013e611ee8565b606091505b5091509150611ef8828286611f03565b979650505050505050565b60608315611f12575081610748565b825115611f225782518084602001fd5b8160405162461bcd60e51b81526004016106309190612001565b828054611f48906122c4565b90600052602060002090601f016020900481019282611f6a5760008555611fb0565b82601f10611f8357805160ff1916838001178555611fb0565b82800160010185558215611fb0579182015b82811115611fb0578251825591602001919060010190611f95565b50611fbc929150611fc0565b5090565b5b80821115611fbc5760008155600101611fc1565b60005b83811015611ff0578181015183820152602001611fd8565b838111156118f05750506000910152565b6020815260008251806020840152612020816040850160208701611fd5565b601f01601f19169190910160400192915050565b6001600160a01b038116811461204957600080fd5b50565b6000806040838503121561205f57600080fd5b823561206a81612034565b946020939093013593505050565b60006020828403121561208a57600080fd5b813561074881612034565b6020808252825182820181905260009190848201906040850190845b818110156120cd578351835292840192918401916001016120b1565b50909695505050505050565b6000806000606084860312156120ee57600080fd5b83356120f981612034565b95602085013595506040909401359392505050565b60008060006060848603121561212357600080fd5b833561212e81612034565b9250602084013561213e81612034565b929592945050506040919091013590565b60006020828403121561216157600080fd5b5035919050565b60008083601f84011261217a57600080fd5b50813567ffffffffffffffff81111561219257600080fd5b6020830191508360208285010111156121aa57600080fd5b9250929050565b600080600080600080600080600060c08a8c0312156121cf57600080fd5b89356121da81612034565b985060208a01356121ea81612034565b975060408a013560ff8116811461220057600080fd5b965060608a013567ffffffffffffffff8082111561221d57600080fd5b6122298d838e01612168565b909850965060808c013591508082111561224257600080fd5b61224e8d838e01612168565b909650945060a08c013591508082111561226757600080fd5b506122748c828d01612168565b915080935050809150509295985092959850929598565b6000806040838503121561229e57600080fd5b82356122a981612034565b915060208301356122b981612034565b809150509250929050565b600181811c908216806122d857607f821691505b602082108114156122f957634e487b7160e01b600052602260045260246000fd5b50919050565b60006020828403121561231157600080fd5b815161074881612034565b6001600160a01b0383168152604081016002831061234a57634e487b7160e01b600052602160045260246000fd5b8260208301529392505050565b60006020828403121561236957600080fd5b5051919050565b634e487b7160e01b600052601160045260246000fd5b6000821982111561239957612399612370565b500190565b634e487b7160e01b600052603260045260246000fd5b60006000198214156123c8576123c8612370565b5060010190565b818352818160208501375060006020828401015260006020601f19601f840116840101905092915050565b60ff8816815260806020820152600061241760808301888a6123cf565b828103604084015261242a8187896123cf565b9050828103606084015261243f8185876123cf565b9a9950505050505050505050565b60008261246a57634e487b7160e01b600052601260045260246000fd5b500490565b60008282101561248157612481612370565b500390565b634e487b7160e01b600052603160045260246000fd5b60008160001904831182151516156124b6576124b6612370565b500290565b6000602082840312156124cd57600080fd5b8151801515811461074857600080fd5b600082516124ef818460208701611fd5565b919091019291505056fe45524332303a206275726e20616d6f756e7420657863656564732062616c616e6365a26469706673582212208e05fde19fc0eccefc6644863603469b170c7f2847c290317cf180f02eb2db7864736f6c63430008090033",
  "devdoc": {
    "kind": "dev",
    "methods": {
      "allowance(address,address)": {
        "details": "See {IERC20-allowance}."
      },
      "approve(address,uint256)": {
        "details": "See {IERC20-approve}. Requirements: - `spender` cannot be the zero address."
      },
      "balanceOf(address)": {
        "details": "Calculates the balance of the user: principal balance + interest generated by the principal",
        "params": {
          "_user": "The user whose balance is calculated"
        },
        "returns": {
          "_0": "The balance of the user*"
        }
      },
      "burn(address,uint256,uint256)": {
        "details": "Burns JuniorDepositToken from `_user` and sends the equivalent amount of underlying to `_receiverOfUnderlying` - Only callable by the LiquidityManagerProxy, as extra state updates there need to the managed",
        "params": {
          "_amount": "The amount being burned",
          "_index": "The new liquidity index of the reserve*",
          "_user": "The owner of the JuniorDepositToken, getting them burned"
        }
      },
      "decimals()": {
        "details": "Returns the decimals places of the token."
      },
      "decreaseAllowance(address,uint256)": {
        "details": "Atomically decreases the allowance granted to `spender` by the caller. This is an alternative to {approve} that can be used as a mitigation for problems described in {IERC20-approve}. Emits an {Approval} event indicating the updated allowance. Requirements: - `spender` cannot be the zero address. - `spender` must have allowance for the caller of at least `subtractedValue`."
      },
      "increaseAllowance(address,uint256)": {
        "details": "Atomically increases the allowance granted to `spender` by the caller. This is an alternative to {approve} that can be used as a mitigation for problems described in {IERC20-approve}. Emits an {Approval} event indicating the updated allowance. Requirements: - `spender` cannot be the zero address."
      },
      "initialize(address,address,uint8,string,string,bytes)": {
        "details": "Initializes the JuniorDepositToken",
        "params": {
          "_addressResolver": "The address of the AddressResolver",
          "_seniorDepositTokenDecimals": "The decimals of the SeniorDepositToken, same as the underlying asset's",
          "_seniorDepositTokenName": "The name of the SeniorDepositToken",
          "_seniorDepositTokenSymbol": "The symbol of the SeniorDepositToken*",
          "_underlyingAsset": "The address of the underlying asset of this SeniorDepositToken"
        }
      },
      "isInitialized()": {
        "details": "Returns true if the contract has been initialized*"
      },
      "mint(address,uint256,uint256)": {
        "details": "Mints `_amount` junior deposit token to `_user`",
        "params": {
          "_amount": "The amount of tokens getting minted",
          "_index": "The new liquidity index of the reserve",
          "_user": "The address receiving the minted tokens"
        },
        "returns": {
          "_0": "`true` if the previous balance of the user was 0*"
        }
      },
      "name()": {
        "details": "Returns the name of the token."
      },
      "scaledBalanceOf(address)": {
        "details": "Returns the scaled balance of the user. The scaled balance is the sum of all the updated stored balance divided by the reserve's liquidity index at the moment of the update",
        "params": {
          "_user": "The user whose balance is calculated"
        },
        "returns": {
          "_0": "THe scaled balance of the user*"
        }
      },
      "symbol()": {
        "details": "Returns the symbol of the token, usually a shorter version of the name."
      },
      "totalSupply()": {
        "details": "calculates the total supply of the specific junior deposit token since the balance of every single user increases over time, the totally supply does that too.",
        "returns": {
          "_0": "the current total supply*"
        }
      },
      "transfer(address,uint256)": {
        "details": "See {IERC20-transfer}. Requirements: - `recipient` cannot be the zero address. - the caller must have a balance of at least `amount`."
      },
      "transferFrom(address,address,uint256)": {
        "details": "See {IERC20-transferFrom}. Emits an {Approval} event indicating the updated allowance. This is not required by the EIP. See the note at the beginning of {ERC20}. Requirements: - `sender` and `recipient` cannot be the zero address. - `sender` must have a balance of at least `amount`. - the caller must have allowance for ``sender``'s tokens of at least `amount`."
      }
    },
    "version": 1
  },
  "userdoc": {
    "kind": "user",
    "methods": {},
    "version": 1
  },
  "storageLayout": {
    "storage": [
      {
        "astId": 11965,
        "contract": "contracts/tokenization/SeniorDepositToken.sol:SeniorDepositToken",
        "label": "lastInitializedRevision",
        "offset": 0,
        "slot": "0",
        "type": "t_uint256"
      },
      {
        "astId": 11968,
        "contract": "contracts/tokenization/SeniorDepositToken.sol:SeniorDepositToken",
        "label": "initializing",
        "offset": 0,
        "slot": "1",
        "type": "t_bool"
      },
      {
        "astId": 11974,
        "contract": "contracts/tokenization/SeniorDepositToken.sol:SeniorDepositToken",
        "label": "withdrawals",
        "offset": 0,
        "slot": "2",
        "type": "t_mapping(t_address,t_mapping(t_uint256,t_uint256))"
      },
      {
        "astId": 11979,
        "contract": "contracts/tokenization/SeniorDepositToken.sol:SeniorDepositToken",
        "label": "pendingTimestamp",
        "offset": 0,
        "slot": "3",
        "type": "t_mapping(t_address,t_array(t_uint256)dyn_storage)"
      },
      {
        "astId": 11981,
        "contract": "contracts/tokenization/SeniorDepositToken.sol:SeniorDepositToken",
        "label": "totalPending",
        "offset": 0,
        "slot": "4",
        "type": "t_uint256"
      },
      {
        "astId": 11984,
        "contract": "contracts/tokenization/SeniorDepositToken.sol:SeniorDepositToken",
        "label": "lockupTime",
        "offset": 0,
        "slot": "5",
        "type": "t_uint256"
      },
      {
        "astId": 12102,
        "contract": "contracts/tokenization/SeniorDepositToken.sol:SeniorDepositToken",
        "label": "______gap",
        "offset": 0,
        "slot": "6",
        "type": "t_array(t_uint256)50_storage"
      },
      {
        "astId": 11273,
        "contract": "contracts/tokenization/SeniorDepositToken.sol:SeniorDepositToken",
        "label": "_balances",
        "offset": 0,
        "slot": "56",
        "type": "t_mapping(t_address,t_uint256)"
      },
      {
        "astId": 11279,
        "contract": "contracts/tokenization/SeniorDepositToken.sol:SeniorDepositToken",
        "label": "_allowances",
        "offset": 0,
        "slot": "57",
        "type": "t_mapping(t_address,t_mapping(t_address,t_uint256))"
      },
      {
        "astId": 11281,
        "contract": "contracts/tokenization/SeniorDepositToken.sol:SeniorDepositToken",
        "label": "_totalSupply",
        "offset": 0,
        "slot": "58",
        "type": "t_uint256"
      },
      {
        "astId": 11283,
        "contract": "contracts/tokenization/SeniorDepositToken.sol:SeniorDepositToken",
        "label": "_name",
        "offset": 0,
        "slot": "59",
        "type": "t_string_storage"
      },
      {
        "astId": 11285,
        "contract": "contracts/tokenization/SeniorDepositToken.sol:SeniorDepositToken",
        "label": "_symbol",
        "offset": 0,
        "slot": "60",
        "type": "t_string_storage"
      },
      {
        "astId": 11287,
        "contract": "contracts/tokenization/SeniorDepositToken.sol:SeniorDepositToken",
        "label": "_decimals",
        "offset": 0,
        "slot": "61",
        "type": "t_uint8"
      },
      {
        "astId": 12889,
        "contract": "contracts/tokenization/SeniorDepositToken.sol:SeniorDepositToken",
        "label": "addressResolver",
        "offset": 1,
        "slot": "61",
        "type": "t_contract(AddressResolver)1087"
      },
      {
        "astId": 12891,
        "contract": "contracts/tokenization/SeniorDepositToken.sol:SeniorDepositToken",
        "label": "underlyingAsset",
        "offset": 0,
        "slot": "62",
        "type": "t_address"
      }
    ],
    "types": {
      "t_address": {
        "encoding": "inplace",
        "label": "address",
        "numberOfBytes": "20"
      },
      "t_array(t_uint256)50_storage": {
        "base": "t_uint256",
        "encoding": "inplace",
        "label": "uint256[50]",
        "numberOfBytes": "1600"
      },
      "t_array(t_uint256)dyn_storage": {
        "base": "t_uint256",
        "encoding": "dynamic_array",
        "label": "uint256[]",
        "numberOfBytes": "32"
      },
      "t_bool": {
        "encoding": "inplace",
        "label": "bool",
        "numberOfBytes": "1"
      },
      "t_contract(AddressResolver)1087": {
        "encoding": "inplace",
        "label": "contract AddressResolver",
        "numberOfBytes": "20"
      },
      "t_mapping(t_address,t_array(t_uint256)dyn_storage)": {
        "encoding": "mapping",
        "key": "t_address",
        "label": "mapping(address => uint256[])",
        "numberOfBytes": "32",
        "value": "t_array(t_uint256)dyn_storage"
      },
      "t_mapping(t_address,t_mapping(t_address,t_uint256))": {
        "encoding": "mapping",
        "key": "t_address",
        "label": "mapping(address => mapping(address => uint256))",
        "numberOfBytes": "32",
        "value": "t_mapping(t_address,t_uint256)"
      },
      "t_mapping(t_address,t_mapping(t_uint256,t_uint256))": {
        "encoding": "mapping",
        "key": "t_address",
        "label": "mapping(address => mapping(uint256 => uint256))",
        "numberOfBytes": "32",
        "value": "t_mapping(t_uint256,t_uint256)"
      },
      "t_mapping(t_address,t_uint256)": {
        "encoding": "mapping",
        "key": "t_address",
        "label": "mapping(address => uint256)",
        "numberOfBytes": "32",
        "value": "t_uint256"
      },
      "t_mapping(t_uint256,t_uint256)": {
        "encoding": "mapping",
        "key": "t_uint256",
        "label": "mapping(uint256 => uint256)",
        "numberOfBytes": "32",
        "value": "t_uint256"
      },
      "t_string_storage": {
        "encoding": "bytes",
        "label": "string",
        "numberOfBytes": "32"
      },
      "t_uint256": {
        "encoding": "inplace",
        "label": "uint256",
        "numberOfBytes": "32"
      },
      "t_uint8": {
        "encoding": "inplace",
        "label": "uint8",
        "numberOfBytes": "1"
      }
    }
  }
}