{
  "address": "0xD284d99Cc71a6EAa9278bc39193065478d454e8B",
  "abi": [
    {
      "anonymous": false,
      "inputs": [
        {
          "indexed": true,
          "internalType": "address",
          "name": "owner",
          "type": "address"
        },
        {
          "indexed": true,
          "internalType": "address",
          "name": "spender",
          "type": "address"
        },
        {
          "indexed": false,
          "internalType": "uint256",
          "name": "value",
          "type": "uint256"
        }
      ],
      "name": "Approval",
      "type": "event"
    },
    {
      "anonymous": false,
      "inputs": [
        {
          "indexed": true,
          "internalType": "address",
          "name": "underlyingAsset",
          "type": "address"
        },
        {
          "indexed": false,
          "internalType": "uint8",
          "name": "debtTokenDecimals",
          "type": "uint8"
        },
        {
          "indexed": false,
          "internalType": "string",
          "name": "debtTokenName",
          "type": "string"
        },
        {
          "indexed": false,
          "internalType": "string",
          "name": "debtTokenSymbol",
          "type": "string"
        },
        {
          "indexed": false,
          "internalType": "bytes",
          "name": "params",
          "type": "bytes"
        }
      ],
      "name": "Initialized",
      "type": "event"
    },
    {
      "anonymous": false,
      "inputs": [
        {
          "indexed": true,
          "internalType": "address",
          "name": "from",
          "type": "address"
        },
        {
          "indexed": true,
          "internalType": "address",
          "name": "to",
          "type": "address"
        },
        {
          "indexed": false,
          "internalType": "uint256",
          "name": "value",
          "type": "uint256"
        }
      ],
      "name": "Transfer",
      "type": "event"
    },
    {
      "inputs": [],
      "name": "DEBT_TOKEN_REVISION",
      "outputs": [
        {
          "internalType": "uint256",
          "name": "",
          "type": "uint256"
        }
      ],
      "stateMutability": "view",
      "type": "function"
    },
    {
      "inputs": [
        {
          "internalType": "address",
          "name": "owner",
          "type": "address"
        },
        {
          "internalType": "address",
          "name": "spender",
          "type": "address"
        }
      ],
      "name": "allowance",
      "outputs": [
        {
          "internalType": "uint256",
          "name": "",
          "type": "uint256"
        }
      ],
      "stateMutability": "view",
      "type": "function"
    },
    {
      "inputs": [
        {
          "internalType": "address",
          "name": "spender",
          "type": "address"
        },
        {
          "internalType": "uint256",
          "name": "amount",
          "type": "uint256"
        }
      ],
      "name": "approve",
      "outputs": [
        {
          "internalType": "bool",
          "name": "",
          "type": "bool"
        }
      ],
      "stateMutability": "nonpayable",
      "type": "function"
    },
    {
      "inputs": [
        {
          "internalType": "address",
          "name": "_account",
          "type": "address"
        }
      ],
      "name": "balanceOf",
      "outputs": [
        {
          "internalType": "uint256",
          "name": "",
          "type": "uint256"
        }
      ],
      "stateMutability": "view",
      "type": "function"
    },
    {
      "inputs": [],
      "name": "decimals",
      "outputs": [
        {
          "internalType": "uint8",
          "name": "",
          "type": "uint8"
        }
      ],
      "stateMutability": "view",
      "type": "function"
    },
    {
      "inputs": [
        {
          "internalType": "address",
          "name": "spender",
          "type": "address"
        },
        {
          "internalType": "uint256",
          "name": "subtractedValue",
          "type": "uint256"
        }
      ],
      "name": "decreaseAllowance",
      "outputs": [
        {
          "internalType": "bool",
          "name": "",
          "type": "bool"
        }
      ],
      "stateMutability": "nonpayable",
      "type": "function"
    },
    {
      "inputs": [],
      "name": "getAverageStableRate",
      "outputs": [
        {
          "internalType": "uint256",
          "name": "",
          "type": "uint256"
        }
      ],
      "stateMutability": "view",
      "type": "function"
    },
    {
      "inputs": [],
      "name": "getTotalSupplyAndAvgRate",
      "outputs": [
        {
          "internalType": "uint256",
          "name": "",
          "type": "uint256"
        },
        {
          "internalType": "uint256",
          "name": "",
          "type": "uint256"
        }
      ],
      "stateMutability": "view",
      "type": "function"
    },
    {
      "inputs": [
        {
          "internalType": "address",
          "name": "spender",
          "type": "address"
        },
        {
          "internalType": "uint256",
          "name": "addedValue",
          "type": "uint256"
        }
      ],
      "name": "increaseAllowance",
      "outputs": [
        {
          "internalType": "bool",
          "name": "",
          "type": "bool"
        }
      ],
      "stateMutability": "nonpayable",
      "type": "function"
    },
    {
      "inputs": [
        {
          "internalType": "address",
          "name": "_underlyingAsset",
          "type": "address"
        },
        {
          "internalType": "uint8",
          "name": "_debtTokenDecimals",
          "type": "uint8"
        },
        {
          "internalType": "string",
          "name": "_debtTokenName",
          "type": "string"
        },
        {
          "internalType": "string",
          "name": "_debtTokenSymbol",
          "type": "string"
        },
        {
          "internalType": "bytes",
          "name": "_params",
          "type": "bytes"
        }
      ],
      "name": "initialize",
      "outputs": [],
      "stateMutability": "nonpayable",
      "type": "function"
    },
    {
      "inputs": [],
      "name": "isInitialized",
      "outputs": [
        {
          "internalType": "bool",
          "name": "",
          "type": "bool"
        }
      ],
      "stateMutability": "view",
      "type": "function"
    },
    {
      "inputs": [],
      "name": "name",
      "outputs": [
        {
          "internalType": "string",
          "name": "",
          "type": "string"
        }
      ],
      "stateMutability": "view",
      "type": "function"
    },
    {
      "inputs": [],
      "name": "symbol",
      "outputs": [
        {
          "internalType": "string",
          "name": "",
          "type": "string"
        }
      ],
      "stateMutability": "view",
      "type": "function"
    },
    {
      "inputs": [],
      "name": "totalSupply",
      "outputs": [
        {
          "internalType": "uint256",
          "name": "",
          "type": "uint256"
        }
      ],
      "stateMutability": "view",
      "type": "function"
    },
    {
      "inputs": [
        {
          "internalType": "address",
          "name": "recipient",
          "type": "address"
        },
        {
          "internalType": "uint256",
          "name": "amount",
          "type": "uint256"
        }
      ],
      "name": "transfer",
      "outputs": [
        {
          "internalType": "bool",
          "name": "",
          "type": "bool"
        }
      ],
      "stateMutability": "nonpayable",
      "type": "function"
    },
    {
      "inputs": [
        {
          "internalType": "address",
          "name": "sender",
          "type": "address"
        },
        {
          "internalType": "address",
          "name": "recipient",
          "type": "address"
        },
        {
          "internalType": "uint256",
          "name": "amount",
          "type": "uint256"
        }
      ],
      "name": "transferFrom",
      "outputs": [
        {
          "internalType": "bool",
          "name": "",
          "type": "bool"
        }
      ],
      "stateMutability": "nonpayable",
      "type": "function"
    }
  ],
  "transactionHash": "0x0610442f30ad4af5552e131e68f19a6de498bcc26d8870146952d19366966eac",
  "args": [],
  "numDeployments": 1,
  "solcInputHash": "99f304c05d396759818c8715e3c3dcf9",
  "bytecode": "0x6080604052600080553480156200001557600080fd5b506040518060400160405280600e81526020017f44454254544f4b454e5f494d504c0000000000000000000000000000000000008152506040518060400160405280600e81526020017f44454254544f4b454e5f494d504c000000000000000000000000000000000000815250600082603790805190602001906200009c929190620000bf565b508160389080519060200190620000b5929190620000bf565b50505050620001d4565b828054620000cd906200019e565b90600052602060002090601f016020900481019282620000f157600085556200013d565b82601f106200010c57805160ff19168380011785556200013d565b828001600101855582156200013d579182015b828111156200013c5782518255916020019190600101906200011f565b5b5090506200014c919062000150565b5090565b5b808211156200016b57600081600090555060010162000151565b5090565b7f4e487b7100000000000000000000000000000000000000000000000000000000600052602260045260246000fd5b60006002820490506001821680620001b757607f821691505b60208210811415620001ce57620001cd6200016f565b5b50919050565b61175980620001e46000396000f3fe608060405234801561001057600080fd5b50600436106101005760003560e01c80637e6b081311610097578063a9059cbb11610066578063a9059cbb146102c5578063b9a7b622146102f5578063dd62ed3e14610313578063f731e9be1461034357610100565b80637e6b08131461023d57806390f6fcf21461025957806395d89b4114610277578063a457c2d71461029557610100565b8063313ce567116100d3578063313ce567146101a1578063392e53cd146101bf57806339509351146101dd57806370a082311461020d57610100565b806306fdde0314610105578063095ea7b31461012357806318160ddd1461015357806323b872dd14610171575b600080fd5b61010d610362565b60405161011a9190610dc2565b60405180910390f35b61013d60048036038101906101389190610e8c565b6103f4565b60405161014a9190610ee7565b60405180910390f35b61015b610431565b6040516101689190610f11565b60405180910390f35b61018b60048036038101906101869190610f2c565b61043b565b6040516101989190610ee7565b60405180910390f35b6101a9610478565b6040516101b69190610f9b565b60405180910390f35b6101c761048f565b6040516101d49190610ee7565b60405180910390f35b6101f760048036038101906101f29190610e8c565b6104bc565b6040516102049190610ee7565b60405180910390f35b61022760048036038101906102229190610fb6565b6104f9565b6040516102349190610f11565b60405180910390f35b610257600480360381019061025291906111a4565b6105db565b005b61026161078e565b60405161026e9190610f11565b60405180910390f35b61027f610798565b60405161028c9190610dc2565b60405180910390f35b6102af60048036038101906102aa9190610e8c565b61082a565b6040516102bc9190610ee7565b60405180910390f35b6102df60048036038101906102da9190610e8c565b610867565b6040516102ec9190610ee7565b60405180910390f35b6102fd6108a4565b60405161030a9190610f11565b60405180910390f35b61032d60048036038101906103289190611276565b6108a9565b60405161033a9190610f11565b60405180910390f35b61034b6108e6565b6040516103599291906112b6565b60405180910390f35b6060603780546103719061130e565b80601f016020809104026020016040519081016040528092919081815260200182805461039d9061130e565b80156103ea5780601f106103bf576101008083540402835291602001916103ea565b820191906000526020600020905b8154815290600101906020018083116103cd57829003601f168201915b5050505050905090565b60006040517f08c379a00000000000000000000000000000000000000000000000000000000081526004016104289061138c565b60405180910390fd5b6000603654905090565b60006040517f08c379a000000000000000000000000000000000000000000000000000000000815260040161046f906113f8565b60405180910390fd5b6000603960009054906101000a900460ff16905090565b6000600160009054906101000a900460ff161580156104b757506000546104b4610903565b11155b905090565b60006040517f08c379a00000000000000000000000000000000000000000000000000000000081526004016104f090611464565b60405180910390fd5b6000806105058361090c565b90506000603d60008573ffffffffffffffffffffffffffffffffffffffff1673ffffffffffffffffffffffffffffffffffffffff168152602001908152602001600020549050600082141561055f576000925050506105d6565b60006105bb82603c60008873ffffffffffffffffffffffffffffffffffffffff1673ffffffffffffffffffffffffffffffffffffffff16815260200190815260200160002060009054906101000a900464ffffffffff16610955565b90506105d0818461096a90919063ffffffff16565b93505050505b919050565b60006105e5610903565b9050600160009054906101000a900460ff168061060657506106056109cf565b5b80610612575060005481115b610651576040517f08c379a0000000000000000000000000000000000000000000000000000000008152600401610648906114f6565b60405180910390fd5b6000600160009054906101000a900460ff16159050801561068e5760018060006101000a81548160ff021916908315150217905550816000819055505b610697866109e0565b6106a0856109fa565b6106a987610a14565b87603f60006101000a81548173ffffffffffffffffffffffffffffffffffffffff021916908373ffffffffffffffffffffffffffffffffffffffff160217905550603f60009054906101000a900473ffffffffffffffffffffffffffffffffffffffff1673ffffffffffffffffffffffffffffffffffffffff167f389060560c0359f25d35df53e1ca8e42dd4157a705d94c49b469409f4391ea70888888888860405161075a959493929190611554565b60405180910390a28015610784576000600160006101000a81548160ff0219169083151502179055505b5050505050505050565b6000603b54905090565b6060603880546107a79061130e565b80601f01602080910402602001604051908101604052809291908181526020018280546107d39061130e565b80156108205780601f106107f557610100808354040283529160200191610820565b820191906000526020600020905b81548152906001019060200180831161080357829003601f168201915b5050505050905090565b60006040517f08c379a000000000000000000000000000000000000000000000000000000000815260040161085e90611464565b60405180910390fd5b60006040517f08c379a000000000000000000000000000000000000000000000000000000000815260040161089b906113f8565b60405180910390fd5b600181565b60006040517f08c379a00000000000000000000000000000000000000000000000000000000081526004016108dd90611464565b60405180910390fd5b6000806000603b5490506108f981610a32565b8192509250509091565b60006001905090565b6000603460008373ffffffffffffffffffffffffffffffffffffffff1673ffffffffffffffffffffffffffffffffffffffff168152602001908152602001600020549050919050565b6000610962838342610a90565b905092915050565b60006109c76b033b2e3c9fd0803ce80000006109b96109928587610c1a90919063ffffffff16565b60026b033b2e3c9fd0803ce80000006109ab919061160e565b610c3090919063ffffffff16565b610c4690919063ffffffff16565b905092915050565b600080303b90506000811491505090565b80603790805190602001906109f6929190610c86565b5050565b8060389080519060200190610a10929190610c86565b5050565b80603960006101000a81548160ff021916908360ff16021790555050565b600080610a3d610431565b90506000811415610a52576000915050610a8b565b6000610a7184603e60009054906101000a900464ffffffffff16610955565b9050610a86818361096a90919063ffffffff16565b925050505b919050565b600080610aad8464ffffffffff1684610c5c90919063ffffffff16565b90506000811415610ac857610ac0610c72565b915050610c13565b6000600182610ad7919061163f565b9050600060028311610aea576000610af8565b600283610af7919061163f565b5b905060006301e1338088610b0c919061160e565b90506000610b23828361096a90919063ffffffff16565b90506000610b3a838361096a90919063ffffffff16565b905060006002610b6584610b57898b610c1a90919063ffffffff16565b610c1a90919063ffffffff16565b610b6f919061160e565b905060006006610bac84610b9e89610b908c8e610c1a90919063ffffffff16565b610c1a90919063ffffffff16565b610c1a90919063ffffffff16565b610bb6919061160e565b9050610c0881610bfa84610bec610bd68d8b610c1a90919063ffffffff16565b610bde610c72565b610c3090919063ffffffff16565b610c3090919063ffffffff16565b610c3090919063ffffffff16565b985050505050505050505b9392505050565b60008183610c289190611673565b905092915050565b60008183610c3e91906116cd565b905092915050565b60008183610c54919061160e565b905092915050565b60008183610c6a919061163f565b905092915050565b60006b033b2e3c9fd0803ce8000000905090565b828054610c929061130e565b90600052602060002090601f016020900481019282610cb45760008555610cfb565b82601f10610ccd57805160ff1916838001178555610cfb565b82800160010185558215610cfb579182015b82811115610cfa578251825591602001919060010190610cdf565b5b509050610d089190610d0c565b5090565b5b80821115610d25576000816000905550600101610d0d565b5090565b600081519050919050565b600082825260208201905092915050565b60005b83811015610d63578082015181840152602081019050610d48565b83811115610d72576000848401525b50505050565b6000601f19601f8301169050919050565b6000610d9482610d29565b610d9e8185610d34565b9350610dae818560208601610d45565b610db781610d78565b840191505092915050565b60006020820190508181036000830152610ddc8184610d89565b905092915050565b6000604051905090565b600080fd5b600080fd5b600073ffffffffffffffffffffffffffffffffffffffff82169050919050565b6000610e2382610df8565b9050919050565b610e3381610e18565b8114610e3e57600080fd5b50565b600081359050610e5081610e2a565b92915050565b6000819050919050565b610e6981610e56565b8114610e7457600080fd5b50565b600081359050610e8681610e60565b92915050565b60008060408385031215610ea357610ea2610dee565b5b6000610eb185828601610e41565b9250506020610ec285828601610e77565b9150509250929050565b60008115159050919050565b610ee181610ecc565b82525050565b6000602082019050610efc6000830184610ed8565b92915050565b610f0b81610e56565b82525050565b6000602082019050610f266000830184610f02565b92915050565b600080600060608486031215610f4557610f44610dee565b5b6000610f5386828701610e41565b9350506020610f6486828701610e41565b9250506040610f7586828701610e77565b9150509250925092565b600060ff82169050919050565b610f9581610f7f565b82525050565b6000602082019050610fb06000830184610f8c565b92915050565b600060208284031215610fcc57610fcb610dee565b5b6000610fda84828501610e41565b91505092915050565b610fec81610f7f565b8114610ff757600080fd5b50565b60008135905061100981610fe3565b92915050565b600080fd5b600080fd5b7f4e487b7100000000000000000000000000000000000000000000000000000000600052604160045260246000fd5b61105182610d78565b810181811067ffffffffffffffff821117156110705761106f611019565b5b80604052505050565b6000611083610de4565b905061108f8282611048565b919050565b600067ffffffffffffffff8211156110af576110ae611019565b5b6110b882610d78565b9050602081019050919050565b82818337600083830152505050565b60006110e76110e284611094565b611079565b90508281526020810184848401111561110357611102611014565b5b61110e8482856110c5565b509392505050565b600082601f83011261112b5761112a61100f565b5b813561113b8482602086016110d4565b91505092915050565b600080fd5b600080fd5b60008083601f8401126111645761116361100f565b5b8235905067ffffffffffffffff81111561118157611180611144565b5b60208301915083600182028301111561119d5761119c611149565b5b9250929050565b60008060008060008060a087890312156111c1576111c0610dee565b5b60006111cf89828a01610e41565b96505060206111e089828a01610ffa565b955050604087013567ffffffffffffffff81111561120157611200610df3565b5b61120d89828a01611116565b945050606087013567ffffffffffffffff81111561122e5761122d610df3565b5b61123a89828a01611116565b935050608087013567ffffffffffffffff81111561125b5761125a610df3565b5b61126789828a0161114e565b92509250509295509295509295565b6000806040838503121561128d5761128c610dee565b5b600061129b85828601610e41565b92505060206112ac85828601610e41565b9150509250929050565b60006040820190506112cb6000830185610f02565b6112d86020830184610f02565b9392505050565b7f4e487b7100000000000000000000000000000000000000000000000000000000600052602260045260246000fd5b6000600282049050600182168061132657607f821691505b6020821081141561133a576113396112df565b5b50919050565b7f415050524f56414c5f4e4f545f535550504f5254454400000000000000000000600082015250565b6000611376601683610d34565b915061138182611340565b602082019050919050565b600060208201905081810360008301526113a581611369565b9050919050565b7f5452414e534645525f4e4f545f535550504f5254454400000000000000000000600082015250565b60006113e2601683610d34565b91506113ed826113ac565b602082019050919050565b60006020820190508181036000830152611411816113d5565b9050919050565b7f414c4c4f57414e43455f4e4f545f535550504f52544544000000000000000000600082015250565b600061144e601783610d34565b915061145982611418565b602082019050919050565b6000602082019050818103600083015261147d81611441565b9050919050565b7f436f6e747261637420696e7374616e63652068617320616c726561647920626560008201527f656e20696e697469616c697a6564000000000000000000000000000000000000602082015250565b60006114e0602e83610d34565b91506114eb82611484565b604082019050919050565b6000602082019050818103600083015261150f816114d3565b9050919050565b600082825260208201905092915050565b60006115338385611516565b93506115408385846110c5565b61154983610d78565b840190509392505050565b60006080820190506115696000830188610f8c565b818103602083015261157b8187610d89565b9050818103604083015261158f8186610d89565b905081810360608301526115a4818486611527565b90509695505050505050565b7f4e487b7100000000000000000000000000000000000000000000000000000000600052601260045260246000fd5b7f4e487b7100000000000000000000000000000000000000000000000000000000600052601160045260246000fd5b600061161982610e56565b915061162483610e56565b925082611634576116336115b0565b5b828204905092915050565b600061164a82610e56565b915061165583610e56565b925082821015611668576116676115df565b5b828203905092915050565b600061167e82610e56565b915061168983610e56565b9250817fffffffffffffffffffffffffffffffffffffffffffffffffffffffffffffffff04831182151516156116c2576116c16115df565b5b828202905092915050565b60006116d882610e56565b91506116e383610e56565b9250827fffffffffffffffffffffffffffffffffffffffffffffffffffffffffffffffff03821115611718576117176115df565b5b82820190509291505056fea26469706673582212200c45c692a5ed39c298ca74b036de7645bc9700e221c730a1adda30fd377e1ce464736f6c63430008090033",
  "devdoc": {
    "kind": "dev",
    "methods": {
      "allowance(address,address)": {
        "details": "See {IERC20-allowance}."
      },
      "approve(address,uint256)": {
        "details": "See {IERC20-approve}. Requirements: - `spender` cannot be the zero address."
      },
      "balanceOf(address)": {
        "details": "Calculates the current user debt balance",
        "returns": {
          "_0": "The accumulated debt of the user*"
        }
      },
      "decimals()": {
        "details": "Returns the decimals places of the token."
      },
      "decreaseAllowance(address,uint256)": {
        "details": "Atomically decreases the allowance granted to `spender` by the caller. This is an alternative to {approve} that can be used as a mitigation for problems described in {IERC20-approve}. Emits an {Approval} event indicating the updated allowance. Requirements: - `spender` cannot be the zero address. - `spender` must have allowance for the caller of at least `subtractedValue`."
      },
      "getAverageStableRate()": {
        "details": "Returns the average stable rate*"
      },
      "getTotalSupplyAndAvgRate()": {
        "details": "Returns the the total supply and the average stable rate*"
      },
      "increaseAllowance(address,uint256)": {
        "details": "Atomically increases the allowance granted to `spender` by the caller. This is an alternative to {approve} that can be used as a mitigation for problems described in {IERC20-approve}. Emits an {Approval} event indicating the updated allowance. Requirements: - `spender` cannot be the zero address."
      },
      "isInitialized()": {
        "details": "Returns true if the contract has been initialized*"
      },
      "name()": {
        "details": "Returns the name of the token."
      },
      "symbol()": {
        "details": "Returns the symbol of the token, usually a shorter version of the name."
      },
      "totalSupply()": {
        "details": "See {IERC20-totalSupply}."
      },
      "transfer(address,uint256)": {
        "details": "Being non transferrable, the debt token does not implement any of the standard ERC20 functions for transfer and allowance.*"
      },
      "transferFrom(address,address,uint256)": {
        "details": "See {IERC20-transferFrom}. Emits an {Approval} event indicating the updated allowance. This is not required by the EIP. See the note at the beginning of {ERC20}. Requirements: - `sender` and `recipient` cannot be the zero address. - `sender` must have a balance of at least `amount`. - the caller must have allowance for ``sender``'s tokens of at least `amount`."
      }
    },
    "version": 1
  },
  "userdoc": {
    "kind": "user",
    "methods": {},
    "version": 1
  },
  "storageLayout": {
    "storage": [
      {
        "astId": 7659,
        "contract": "contracts/tokenization/StableDebtToken.sol:StableDebtToken",
        "label": "lastInitializedRevision",
        "offset": 0,
        "slot": "0",
        "type": "t_uint256"
      },
      {
        "astId": 7662,
        "contract": "contracts/tokenization/StableDebtToken.sol:StableDebtToken",
        "label": "initializing",
        "offset": 0,
        "slot": "1",
        "type": "t_bool"
      },
      {
        "astId": 7760,
        "contract": "contracts/tokenization/StableDebtToken.sol:StableDebtToken",
        "label": "______gap",
        "offset": 0,
        "slot": "2",
        "type": "t_array(t_uint256)50_storage"
      },
      {
        "astId": 6968,
        "contract": "contracts/tokenization/StableDebtToken.sol:StableDebtToken",
        "label": "_balances",
        "offset": 0,
        "slot": "52",
        "type": "t_mapping(t_address,t_uint256)"
      },
      {
        "astId": 6974,
        "contract": "contracts/tokenization/StableDebtToken.sol:StableDebtToken",
        "label": "_allowances",
        "offset": 0,
        "slot": "53",
        "type": "t_mapping(t_address,t_mapping(t_address,t_uint256))"
      },
      {
        "astId": 6976,
        "contract": "contracts/tokenization/StableDebtToken.sol:StableDebtToken",
        "label": "_totalSupply",
        "offset": 0,
        "slot": "54",
        "type": "t_uint256"
      },
      {
        "astId": 6978,
        "contract": "contracts/tokenization/StableDebtToken.sol:StableDebtToken",
        "label": "_name",
        "offset": 0,
        "slot": "55",
        "type": "t_string_storage"
      },
      {
        "astId": 6980,
        "contract": "contracts/tokenization/StableDebtToken.sol:StableDebtToken",
        "label": "_symbol",
        "offset": 0,
        "slot": "56",
        "type": "t_string_storage"
      },
      {
        "astId": 6982,
        "contract": "contracts/tokenization/StableDebtToken.sol:StableDebtToken",
        "label": "_decimals",
        "offset": 0,
        "slot": "57",
        "type": "t_uint8"
      },
      {
        "astId": 7528,
        "contract": "contracts/tokenization/StableDebtToken.sol:StableDebtToken",
        "label": "_borrowAllowances",
        "offset": 0,
        "slot": "58",
        "type": "t_mapping(t_address,t_mapping(t_address,t_uint256))"
      },
      {
        "astId": 8800,
        "contract": "contracts/tokenization/StableDebtToken.sol:StableDebtToken",
        "label": "_avgStableRate",
        "offset": 0,
        "slot": "59",
        "type": "t_uint256"
      },
      {
        "astId": 8804,
        "contract": "contracts/tokenization/StableDebtToken.sol:StableDebtToken",
        "label": "_timestamps",
        "offset": 0,
        "slot": "60",
        "type": "t_mapping(t_address,t_uint40)"
      },
      {
        "astId": 8808,
        "contract": "contracts/tokenization/StableDebtToken.sol:StableDebtToken",
        "label": "_usersStableRate",
        "offset": 0,
        "slot": "61",
        "type": "t_mapping(t_address,t_uint256)"
      },
      {
        "astId": 8810,
        "contract": "contracts/tokenization/StableDebtToken.sol:StableDebtToken",
        "label": "_totalSupplyTimestamp",
        "offset": 0,
        "slot": "62",
        "type": "t_uint40"
      },
      {
        "astId": 8813,
        "contract": "contracts/tokenization/StableDebtToken.sol:StableDebtToken",
        "label": "addressResolver",
        "offset": 5,
        "slot": "62",
        "type": "t_contract(AddressResolver)1009"
      },
      {
        "astId": 8815,
        "contract": "contracts/tokenization/StableDebtToken.sol:StableDebtToken",
        "label": "underlyingAsset",
        "offset": 0,
        "slot": "63",
        "type": "t_address"
      }
    ],
    "types": {
      "t_address": {
        "encoding": "inplace",
        "label": "address",
        "numberOfBytes": "20"
      },
      "t_array(t_uint256)50_storage": {
        "base": "t_uint256",
        "encoding": "inplace",
        "label": "uint256[50]",
        "numberOfBytes": "1600"
      },
      "t_bool": {
        "encoding": "inplace",
        "label": "bool",
        "numberOfBytes": "1"
      },
      "t_contract(AddressResolver)1009": {
        "encoding": "inplace",
        "label": "contract AddressResolver",
        "numberOfBytes": "20"
      },
      "t_mapping(t_address,t_mapping(t_address,t_uint256))": {
        "encoding": "mapping",
        "key": "t_address",
        "label": "mapping(address => mapping(address => uint256))",
        "numberOfBytes": "32",
        "value": "t_mapping(t_address,t_uint256)"
      },
      "t_mapping(t_address,t_uint256)": {
        "encoding": "mapping",
        "key": "t_address",
        "label": "mapping(address => uint256)",
        "numberOfBytes": "32",
        "value": "t_uint256"
      },
      "t_mapping(t_address,t_uint40)": {
        "encoding": "mapping",
        "key": "t_address",
        "label": "mapping(address => uint40)",
        "numberOfBytes": "32",
        "value": "t_uint40"
      },
      "t_string_storage": {
        "encoding": "bytes",
        "label": "string",
        "numberOfBytes": "32"
      },
      "t_uint256": {
        "encoding": "inplace",
        "label": "uint256",
        "numberOfBytes": "32"
      },
      "t_uint40": {
        "encoding": "inplace",
        "label": "uint40",
        "numberOfBytes": "5"
      },
      "t_uint8": {
        "encoding": "inplace",
        "label": "uint8",
        "numberOfBytes": "1"
      }
    }
  }
}