{
  "address": "0x66D951f5f80756D683dD917C636304465a37c222",
  "abi": [
    {
      "anonymous": false,
      "inputs": [
        {
          "indexed": true,
          "internalType": "address",
          "name": "owner",
          "type": "address"
        },
        {
          "indexed": true,
          "internalType": "address",
          "name": "spender",
          "type": "address"
        },
        {
          "indexed": false,
          "internalType": "uint256",
          "name": "value",
          "type": "uint256"
        }
      ],
      "name": "Approval",
      "type": "event"
    },
    {
      "anonymous": false,
      "inputs": [
        {
          "indexed": true,
          "internalType": "address",
          "name": "underlyingAsset",
          "type": "address"
        },
        {
          "indexed": false,
          "internalType": "uint8",
          "name": "debtTokenDecimals",
          "type": "uint8"
        },
        {
          "indexed": false,
          "internalType": "string",
          "name": "debtTokenName",
          "type": "string"
        },
        {
          "indexed": false,
          "internalType": "string",
          "name": "debtTokenSymbol",
          "type": "string"
        },
        {
          "indexed": false,
          "internalType": "bytes",
          "name": "params",
          "type": "bytes"
        }
      ],
      "name": "Initialized",
      "type": "event"
    },
    {
      "anonymous": false,
      "inputs": [
        {
          "indexed": true,
          "internalType": "address",
          "name": "user",
          "type": "address"
        },
        {
          "indexed": false,
          "internalType": "uint256",
          "name": "amount",
          "type": "uint256"
        },
        {
          "indexed": false,
          "internalType": "uint256",
          "name": "currentBalance",
          "type": "uint256"
        },
        {
          "indexed": false,
          "internalType": "uint256",
          "name": "balanceIncrease",
          "type": "uint256"
        },
        {
          "indexed": false,
          "internalType": "uint256",
          "name": "newRate",
          "type": "uint256"
        },
        {
          "indexed": false,
          "internalType": "uint256",
          "name": "avgStableRate",
          "type": "uint256"
        },
        {
          "indexed": false,
          "internalType": "uint256",
          "name": "newTotalSupply",
          "type": "uint256"
        }
      ],
      "name": "Mint",
      "type": "event"
    },
    {
      "anonymous": false,
      "inputs": [
        {
          "indexed": true,
          "internalType": "address",
          "name": "from",
          "type": "address"
        },
        {
          "indexed": true,
          "internalType": "address",
          "name": "to",
          "type": "address"
        },
        {
          "indexed": false,
          "internalType": "uint256",
          "name": "value",
          "type": "uint256"
        }
      ],
      "name": "Transfer",
      "type": "event"
    },
    {
      "inputs": [],
      "name": "DEBT_TOKEN_REVISION",
      "outputs": [
        {
          "internalType": "uint256",
          "name": "",
          "type": "uint256"
        }
      ],
      "stateMutability": "view",
      "type": "function"
    },
    {
      "inputs": [],
      "name": "SECONDS_PER_DAY",
      "outputs": [
        {
          "internalType": "uint256",
          "name": "",
          "type": "uint256"
        }
      ],
      "stateMutability": "view",
      "type": "function"
    },
    {
      "inputs": [
        {
          "internalType": "address",
          "name": "owner",
          "type": "address"
        },
        {
          "internalType": "address",
          "name": "spender",
          "type": "address"
        }
      ],
      "name": "allowance",
      "outputs": [
        {
          "internalType": "uint256",
          "name": "",
          "type": "uint256"
        }
      ],
      "stateMutability": "view",
      "type": "function"
    },
    {
      "inputs": [
        {
          "internalType": "address",
          "name": "spender",
          "type": "address"
        },
        {
          "internalType": "uint256",
          "name": "amount",
          "type": "uint256"
        }
      ],
      "name": "approve",
      "outputs": [
        {
          "internalType": "bool",
          "name": "",
          "type": "bool"
        }
      ],
      "stateMutability": "nonpayable",
      "type": "function"
    },
    {
      "inputs": [
        {
          "internalType": "address",
          "name": "_account",
          "type": "address"
        }
      ],
      "name": "balanceOf",
      "outputs": [
        {
          "internalType": "uint256",
          "name": "",
          "type": "uint256"
        }
      ],
      "stateMutability": "view",
      "type": "function"
    },
    {
      "inputs": [],
      "name": "decimals",
      "outputs": [
        {
          "internalType": "uint8",
          "name": "",
          "type": "uint8"
        }
      ],
      "stateMutability": "view",
      "type": "function"
    },
    {
      "inputs": [
        {
          "internalType": "address",
          "name": "spender",
          "type": "address"
        },
        {
          "internalType": "uint256",
          "name": "subtractedValue",
          "type": "uint256"
        }
      ],
      "name": "decreaseAllowance",
      "outputs": [
        {
          "internalType": "bool",
          "name": "",
          "type": "bool"
        }
      ],
      "stateMutability": "nonpayable",
      "type": "function"
    },
    {
      "inputs": [
        {
          "internalType": "address",
          "name": "_user",
          "type": "address"
        }
      ],
      "name": "getAggregateActualRepaymentRate",
      "outputs": [
        {
          "internalType": "uint256",
          "name": "",
          "type": "uint256"
        }
      ],
      "stateMutability": "view",
      "type": "function"
    },
    {
      "inputs": [
        {
          "internalType": "address",
          "name": "_user",
          "type": "address"
        }
      ],
      "name": "getAggregateOptimalRepaymentRate",
      "outputs": [
        {
          "internalType": "uint256",
          "name": "",
          "type": "uint256"
        }
      ],
      "stateMutability": "view",
      "type": "function"
    },
    {
      "inputs": [],
      "name": "getAverageStableRate",
      "outputs": [
        {
          "internalType": "uint256",
          "name": "",
          "type": "uint256"
        }
      ],
      "stateMutability": "view",
      "type": "function"
    },
    {
      "inputs": [],
      "name": "getTotalSupplyAndAvgRate",
      "outputs": [
        {
          "internalType": "uint256",
          "name": "",
          "type": "uint256"
        },
        {
          "internalType": "uint256",
          "name": "",
          "type": "uint256"
        }
      ],
      "stateMutability": "view",
      "type": "function"
    },
    {
      "inputs": [],
      "name": "getTotalSupplyLastUpdated",
      "outputs": [
        {
          "internalType": "uint40",
          "name": "",
          "type": "uint40"
        }
      ],
      "stateMutability": "view",
      "type": "function"
    },
    {
      "inputs": [
        {
          "internalType": "address",
          "name": "spender",
          "type": "address"
        },
        {
          "internalType": "uint256",
          "name": "addedValue",
          "type": "uint256"
        }
      ],
      "name": "increaseAllowance",
      "outputs": [
        {
          "internalType": "bool",
          "name": "",
          "type": "bool"
        }
      ],
      "stateMutability": "nonpayable",
      "type": "function"
    },
    {
      "inputs": [
        {
          "internalType": "address",
          "name": "_underlyingAsset",
          "type": "address"
        },
        {
          "internalType": "uint8",
          "name": "_debtTokenDecimals",
          "type": "uint8"
        },
        {
          "internalType": "string",
          "name": "_debtTokenName",
          "type": "string"
        },
        {
          "internalType": "string",
          "name": "_debtTokenSymbol",
          "type": "string"
        },
        {
          "internalType": "bytes",
          "name": "_params",
          "type": "bytes"
        }
      ],
      "name": "initialize",
      "outputs": [],
      "stateMutability": "nonpayable",
      "type": "function"
    },
    {
      "inputs": [],
      "name": "isInitialized",
      "outputs": [
        {
          "internalType": "bool",
          "name": "",
          "type": "bool"
        }
      ],
      "stateMutability": "view",
      "type": "function"
    },
    {
      "inputs": [
        {
          "internalType": "address",
          "name": "_user",
          "type": "address"
        },
        {
          "internalType": "uint256",
          "name": "_amount",
          "type": "uint256"
        },
        {
          "internalType": "uint256",
          "name": "_tenure",
          "type": "uint256"
        },
        {
          "internalType": "uint256",
          "name": "_rate",
          "type": "uint256"
        }
      ],
      "name": "mint",
      "outputs": [],
      "stateMutability": "nonpayable",
      "type": "function"
    },
    {
      "inputs": [],
      "name": "name",
      "outputs": [
        {
          "internalType": "string",
          "name": "",
          "type": "string"
        }
      ],
      "stateMutability": "view",
      "type": "function"
    },
    {
      "inputs": [
        {
          "internalType": "address",
          "name": "_account",
          "type": "address"
        }
      ],
      "name": "principalOf",
      "outputs": [
        {
          "internalType": "uint256",
          "name": "",
          "type": "uint256"
        }
      ],
      "stateMutability": "view",
      "type": "function"
    },
    {
      "inputs": [],
      "name": "symbol",
      "outputs": [
        {
          "internalType": "string",
          "name": "",
          "type": "string"
        }
      ],
      "stateMutability": "view",
      "type": "function"
    },
    {
      "inputs": [],
      "name": "totalSupply",
      "outputs": [
        {
          "internalType": "uint256",
          "name": "",
          "type": "uint256"
        }
      ],
      "stateMutability": "view",
      "type": "function"
    },
    {
      "inputs": [
        {
          "internalType": "address",
          "name": "recipient",
          "type": "address"
        },
        {
          "internalType": "uint256",
          "name": "amount",
          "type": "uint256"
        }
      ],
      "name": "transfer",
      "outputs": [
        {
          "internalType": "bool",
          "name": "",
          "type": "bool"
        }
      ],
      "stateMutability": "nonpayable",
      "type": "function"
    },
    {
      "inputs": [
        {
          "internalType": "address",
          "name": "sender",
          "type": "address"
        },
        {
          "internalType": "address",
          "name": "recipient",
          "type": "address"
        },
        {
          "internalType": "uint256",
          "name": "amount",
          "type": "uint256"
        }
      ],
      "name": "transferFrom",
      "outputs": [
        {
          "internalType": "bool",
          "name": "",
          "type": "bool"
        }
      ],
      "stateMutability": "nonpayable",
      "type": "function"
    },
    {
      "inputs": [],
      "name": "underlyingAssetAddress",
      "outputs": [
        {
          "internalType": "address",
          "name": "",
          "type": "address"
        }
      ],
      "stateMutability": "view",
      "type": "function"
    }
  ],
  "transactionHash": "0x7755503c8880c44fe23ae191b50e6de257c6bf165fe57528ce9850f927550e9f",
  "args": [],
  "numDeployments": 1,
  "solcInputHash": "276ea4d8e79ed810d93e460ad3940ca8",
  "bytecode": "0x6080604052600080553480156200001557600080fd5b50604080518082018252600e8082526d111150951513d2d15397d253541360921b60208084018281528551808701909652928552840152815191929160009162000063916037919062000083565b5081516200007990603890602085019062000083565b5050505062000166565b828054620000919062000129565b90600052602060002090601f016020900481019282620000b5576000855562000100565b82601f10620000d057805160ff191683800117855562000100565b8280016001018555821562000100579182015b8281111562000100578251825591602001919060010190620000e3565b506200010e92915062000112565b5090565b5b808211156200010e576000815560010162000113565b600181811c908216806200013e57607f821691505b602082108114156200016057634e487b7160e01b600052602260045260246000fd5b50919050565b61155580620001766000396000f3fe608060405234801561001057600080fd5b506004361061018d5760003560e01c80637e6b0813116100e3578063a647e8ec1161008c578063dd62ed3e11610066578063dd62ed3e146102eb578063e7484890146102f9578063f731e9be1461031257600080fd5b8063a647e8ec146102c2578063a9059cbb146102d5578063b9a7b622146102e357600080fd5b806390f6fcf2116100bd57806390f6fcf2146102b257806395d89b41146102ba578063a457c2d71461022c57600080fd5b80637e6b08131461026f578063804ba0a91461028457806389d1a0fc1461029757600080fd5b8063313ce5671161014557806361e20a1c1161011f57806361e20a1c1461023f57806370a082311461025257806374f0314f1461026557600080fd5b8063313ce5671461020f578063392e53cd14610224578063395093511461022c57600080fd5b806318160ddd1161017657806318160ddd146101d3578063196a4cb3146101e957806323b872dd146101fc57600080fd5b806306fdde0314610192578063095ea7b3146101b0575b600080fd5b61019a61032f565b6040516101a791906110f2565b60405180910390f35b6101c36101be36600461111d565b6103c1565b60405190151581526020016101a7565b6101db610411565b6040519081526020016101a7565b6101db6101f7366004611149565b610423565b6101c361020a366004611166565b6104dc565b60395460405160ff90911681526020016101a7565b6101c3610527565b6101c361023a36600461111d565b610543565b6101db61024d366004611149565b61058e565b6101db610260366004611149565b6105e1565b6101db6201518081565b61028261027d366004611293565b610672565b005b6101db610292366004611149565b6107d0565b6040805490516001600160a01b0390911681526020016101a7565b603b546101db565b61019a610899565b6102826102d036600461134d565b6108a8565b6101c361020a36600461111d565b6101db600181565b6101db61023a366004611388565b603d5460405164ffffffffff90911681526020016101a7565b61031a610c46565b604080519283526020830191909152016101a7565b60606037805461033e906113c1565b80601f016020809104026020016040519081016040528092919081815260200182805461036a906113c1565b80156103b75780601f1061038c576101008083540402835291602001916103b7565b820191906000526020600020905b81548152906001019060200180831161039a57829003601f168201915b5050505050905090565b60405162461bcd60e51b815260206004820152601660248201527f415050524f56414c5f4e4f545f535550504f525445440000000000000000000060448201526000906064015b60405180910390fd5b600061041e603b54610c5f565b905090565b6001600160a01b0381166000908152603e6020526040812081805b82548110156104d45760008181526002840160205260409020600481018054158015906104755750600282015464ffffffffff1642115b156104bf576104b26b033b2e3c9fd0803ce800000060028401546104a09064ffffffffff1642611412565b6104aa9190611429565b825490610ca7565b6104bc9085611448565b93505b505080806104cc90611460565b91505061043e565b509392505050565b60405162461bcd60e51b815260206004820152601660248201527f5452414e534645525f4e4f545f535550504f52544544000000000000000000006044820152600090606401610408565b60015460009060ff1615801561041e5750506000546001111590565b60405162461bcd60e51b815260206004820152601760248201527f414c4c4f57414e43455f4e4f545f535550504f525445440000000000000000006044820152600090606401610408565b6001600160a01b0381166000908152603e6020526040812081805b82548110156104d45760008181526002840160205260409020546105cd9083611448565b9150806105d981611460565b9150506105a9565b6001600160a01b0381166000908152603e6020526040812081805b82548110156104d4576000818152600280850160205260408220600381015491015490919061063390839064ffffffffff16610ce1565b60008481526002870160205260409020549091506106519082610cf5565b61065b9085611448565b93505050808061066a90611460565b9150506105fc565b6001805460ff16806106835750303b155b8061068f575060005481115b6107015760405162461bcd60e51b815260206004820152602e60248201527f436f6e747261637420696e7374616e63652068617320616c726561647920626560448201527f656e20696e697469616c697a65640000000000000000000000000000000000006064820152608401610408565b60015460ff16158015610720576001805460ff19168117905560008290555b61072986610d31565b61073285610d48565b6039805460ff191660ff8916179055604080547fffffffffffffffffffffffff0000000000000000000000000000000000000000166001600160a01b038a16908117825590517f389060560c0359f25d35df53e1ca8e42dd4157a705d94c49b469409f4391ea70906107ad908a908a908a908a908a9061147b565b60405180910390a280156107c6576001805460ff191690555b5050505050505050565b6001600160a01b0381166000908152603e60209081526040808320603c90925282205482805b83548110156108905760008181526002808601602052604082209081015490919061082990869064ffffffffff16610ce1565b825490915060009061083b9083610cf5565b905061086e61086761085c6b033b2e3c9fd0803ce800000062015180611429565b600186015490610cf5565b8290610ca7565b6108789086611448565b9450505050808061088890611460565b9150506107f6565b50949350505050565b60606038805461033e906113c1565b603f546040517f21f8a7210000000000000000000000000000000000000000000000000000000081527f6c6f616e4d616e6167657200000000000000000000000000000000000000000060048201526001600160a01b03909116906321f8a7219060240160206040518083038186803b15801561092457600080fd5b505afa158015610938573d6000803e3d6000fd5b505050506040513d601f19601f8201168201806040525081019061095c91906114e0565b6001600160a01b0316336001600160a01b0316146040518060400160405280600281526020017f3231000000000000000000000000000000000000000000000000000000000000815250906109c45760405162461bcd60e51b815260040161040891906110f2565b506109fe6040518060c001604052806000815260200160008152602001600081526020016000815260200160008152602001600081525090565b600080610a0a87610d5b565b9250925050610a17610411565b808452603b5460a0850152610a2d908790611448565b60368190556020840152610a4086610dab565b6040848101919091526001600160a01b0388166000818152603c6020908152838220546060880152918152603e8252828120805480835260028083019094529382208a8155600181018a905560038101899055909201805464ffffffffff19164264ffffffffff161790558154919291908390610abc83611460565b90915550610b0d9050610ad7610ad28a87611448565b610dab565b6040870151610ae69089610cf5565b610afd610af288610dab565b60608a015190610cf5565b610b079190611448565b90610ca7565b60808601819052610b1d90610dc1565b6001600160a01b038a166000908152603c602090815260409091206fffffffffffffffffffffffffffffffff92909216909155603d805464ffffffffff19164264ffffffffff16179055850151610bab90610ba690610b7b90610dab565b6040880151610b8b908a90610cf5565b610afd610b9b8a60000151610dab565b60a08b015190610cf5565b610dc1565b6fffffffffffffffffffffffffffffffff16603b81905560a0860152610bd089610e4d565b60808086015160a0808801516020808a0151604080518f81529283018b905282018990526060820194909452938401528201526001600160a01b038a16907f926683a213f5704409a772ad857ee2929a5b82b1f28900f733ebb3035ebba57c9060c00160405180910390a2505050505050505050565b603b546000908190610c5781610c5f565b939092509050565b600080610c6b60365490565b905080610c7b5750600092915050565b603d54600090610c9390859064ffffffffff16610ce1565b9050610c9f8282610cf5565b949350505050565b600080610cb56002846114fd565b9050610c9f83610cdb610cd4876b033b2e3c9fd0803ce8000000610ee1565b8490610eed565b90610ef9565b6000610cee838342610f05565b9392505050565b6000610cee6b033b2e3c9fd0803ce8000000610cdb610d148686610ee1565b610d2b60026b033b2e3c9fd0803ce80000006114fd565b90610eed565b8051610d44906037906020840190611015565b5050565b8051610d44906038906020840190611015565b600080600080610d6a8561058e565b905080610d8257600080600093509350935050610da4565b6000610d8d866105e1565b90508181610d9b8282611412565b94509450945050505b9193909250565b6000610dbb82633b9aca00610ee1565b92915050565b60006fffffffffffffffffffffffffffffffff821115610e495760405162461bcd60e51b815260206004820152602760248201527f53616665436173743a2076616c756520646f65736e27742066697420696e203160448201527f32382062697473000000000000000000000000000000000000000000000000006064820152608401610408565b5090565b6001600160a01b0381166000908152603e60205260408120905b8154811015610edc576000818152600280840160205260408220600381015491810154909290610e9f90839064ffffffffff16610ce1565b8354909150610eae9082610cf5565b83555050600201805464ffffffffff19164264ffffffffff1617905580610ed481611460565b915050610e67565b505050565b6000610cee8284611429565b6000610cee8284611448565b6000610cee82846114fd565b600080610f198364ffffffffff8616611009565b905080610f35576b033b2e3c9fd0803ce8000000915050610cee565b6000610f42600183611412565b9050600060028311610f55576000610f60565b610f60600284611412565b90506000610f726301e13380896114fd565b90506000610f808280610cf5565b90506000610f8e8284610cf5565b905060006002610fa884610fa28a8a610ee1565b90610ee1565b610fb291906114fd565b905060006006610fc884610fa289818d8d610ee1565b610fd291906114fd565b9050610ff981610d2b8481610fe78a8e610ee1565b6b033b2e3c9fd0803ce8000000610d2b565b9c9b505050505050505050505050565b6000610cee8284611412565b828054611021906113c1565b90600052602060002090601f0160209004810192826110435760008555611089565b82601f1061105c57805160ff1916838001178555611089565b82800160010185558215611089579182015b8281111561108957825182559160200191906001019061106e565b50610e499291505b80821115610e495760008155600101611091565b6000815180845260005b818110156110cb576020818501810151868301820152016110af565b818111156110dd576000602083870101525b50601f01601f19169290920160200192915050565b602081526000610cee60208301846110a5565b6001600160a01b038116811461111a57600080fd5b50565b6000806040838503121561113057600080fd5b823561113b81611105565b946020939093013593505050565b60006020828403121561115b57600080fd5b8135610cee81611105565b60008060006060848603121561117b57600080fd5b833561118681611105565b9250602084013561119681611105565b929592945050506040919091013590565b634e487b7160e01b600052604160045260246000fd5b600082601f8301126111ce57600080fd5b813567ffffffffffffffff808211156111e9576111e96111a7565b604051601f8301601f19908116603f01168101908282118183101715611211576112116111a7565b8160405283815286602085880101111561122a57600080fd5b836020870160208301376000602085830101528094505050505092915050565b60008083601f84011261125c57600080fd5b50813567ffffffffffffffff81111561127457600080fd5b60208301915083602082850101111561128c57600080fd5b9250929050565b60008060008060008060a087890312156112ac57600080fd5b86356112b781611105565b9550602087013560ff811681146112cd57600080fd5b9450604087013567ffffffffffffffff808211156112ea57600080fd5b6112f68a838b016111bd565b9550606089013591508082111561130c57600080fd5b6113188a838b016111bd565b9450608089013591508082111561132e57600080fd5b5061133b89828a0161124a565b979a9699509497509295939492505050565b6000806000806080858703121561136357600080fd5b843561136e81611105565b966020860135965060408601359560600135945092505050565b6000806040838503121561139b57600080fd5b82356113a681611105565b915060208301356113b681611105565b809150509250929050565b600181811c908216806113d557607f821691505b602082108114156113f657634e487b7160e01b600052602260045260246000fd5b50919050565b634e487b7160e01b600052601160045260246000fd5b600082821015611424576114246113fc565b500390565b6000816000190483118215151615611443576114436113fc565b500290565b6000821982111561145b5761145b6113fc565b500190565b6000600019821415611474576114746113fc565b5060010190565b60ff8616815260806020820152600061149760808301876110a5565b82810360408401526114a981876110a5565b90508281036060840152838152838560208301376000602085830101526020601f19601f8601168201019150509695505050505050565b6000602082840312156114f257600080fd5b8151610cee81611105565b60008261151a57634e487b7160e01b600052601260045260246000fd5b50049056fea2646970667358221220dcd2640972fd666199dd0c13417778450bbb68d5b368848ae4eeaffda083fc6f64736f6c63430008090033",
  "devdoc": {
    "kind": "dev",
    "methods": {
      "allowance(address,address)": {
        "details": "See {IERC20-allowance}."
      },
      "approve(address,uint256)": {
        "details": "See {IERC20-approve}. Requirements: - `spender` cannot be the zero address."
      },
      "balanceOf(address)": {
        "details": "Calculates the current user debt balance",
        "returns": {
          "_0": "The accumulated debt of the user*"
        }
      },
      "decimals()": {
        "details": "Returns the decimals places of the token."
      },
      "decreaseAllowance(address,uint256)": {
        "details": "Atomically decreases the allowance granted to `spender` by the caller. This is an alternative to {approve} that can be used as a mitigation for problems described in {IERC20-approve}. Emits an {Approval} event indicating the updated allowance. Requirements: - `spender` cannot be the zero address. - `spender` must have allowance for the caller of at least `subtractedValue`."
      },
      "getAverageStableRate()": {
        "details": "Returns the average stable rate*"
      },
      "getTotalSupplyAndAvgRate()": {
        "details": "Returns the the total supply and the average stable rate*"
      },
      "increaseAllowance(address,uint256)": {
        "details": "Atomically increases the allowance granted to `spender` by the caller. This is an alternative to {approve} that can be used as a mitigation for problems described in {IERC20-approve}. Emits an {Approval} event indicating the updated allowance. Requirements: - `spender` cannot be the zero address."
      },
      "isInitialized()": {
        "details": "Returns true if the contract has been initialized*"
      },
      "name()": {
        "details": "Returns the name of the token."
      },
      "principalOf(address)": {
        "details": "Calculate the current user debt principal*"
      },
      "symbol()": {
        "details": "Returns the symbol of the token, usually a shorter version of the name."
      },
      "totalSupply()": {
        "details": "See {IERC20-totalSupply}."
      },
      "transfer(address,uint256)": {
        "details": "Being non transferrable, the debt token does not implement any of the standard ERC20 functions for transfer and allowance.*"
      },
      "transferFrom(address,address,uint256)": {
        "details": "See {IERC20-transferFrom}. Emits an {Approval} event indicating the updated allowance. This is not required by the EIP. See the note at the beginning of {ERC20}. Requirements: - `sender` and `recipient` cannot be the zero address. - `sender` must have a balance of at least `amount`. - the caller must have allowance for ``sender``'s tokens of at least `amount`."
      }
    },
    "version": 1
  },
  "userdoc": {
    "kind": "user",
    "methods": {},
    "version": 1
  },
  "storageLayout": {
    "storage": [
      {
        "astId": 5704,
        "contract": "contracts/tokenization/StableDebtToken.sol:StableDebtToken",
        "label": "lastInitializedRevision",
        "offset": 0,
        "slot": "0",
        "type": "t_uint256"
      },
      {
        "astId": 5707,
        "contract": "contracts/tokenization/StableDebtToken.sol:StableDebtToken",
        "label": "initializing",
        "offset": 0,
        "slot": "1",
        "type": "t_bool"
      },
      {
        "astId": 5816,
        "contract": "contracts/tokenization/StableDebtToken.sol:StableDebtToken",
        "label": "______gap",
        "offset": 0,
        "slot": "2",
        "type": "t_array(t_uint256)50_storage"
      },
      {
        "astId": 9538,
        "contract": "contracts/tokenization/StableDebtToken.sol:StableDebtToken",
        "label": "_balances",
        "offset": 0,
        "slot": "52",
        "type": "t_mapping(t_address,t_uint256)"
      },
      {
        "astId": 9544,
        "contract": "contracts/tokenization/StableDebtToken.sol:StableDebtToken",
        "label": "_allowances",
        "offset": 0,
        "slot": "53",
        "type": "t_mapping(t_address,t_mapping(t_address,t_uint256))"
      },
      {
        "astId": 9546,
        "contract": "contracts/tokenization/StableDebtToken.sol:StableDebtToken",
        "label": "_totalSupply",
        "offset": 0,
        "slot": "54",
        "type": "t_uint256"
      },
      {
        "astId": 9548,
        "contract": "contracts/tokenization/StableDebtToken.sol:StableDebtToken",
        "label": "_name",
        "offset": 0,
        "slot": "55",
        "type": "t_string_storage"
      },
      {
        "astId": 9550,
        "contract": "contracts/tokenization/StableDebtToken.sol:StableDebtToken",
        "label": "_symbol",
        "offset": 0,
        "slot": "56",
        "type": "t_string_storage"
      },
      {
        "astId": 9552,
        "contract": "contracts/tokenization/StableDebtToken.sol:StableDebtToken",
        "label": "_decimals",
        "offset": 0,
        "slot": "57",
        "type": "t_uint8"
      },
      {
        "astId": 10098,
        "contract": "contracts/tokenization/StableDebtToken.sol:StableDebtToken",
        "label": "_borrowAllowances",
        "offset": 0,
        "slot": "58",
        "type": "t_mapping(t_address,t_mapping(t_address,t_uint256))"
      },
      {
        "astId": 11241,
        "contract": "contracts/tokenization/StableDebtToken.sol:StableDebtToken",
        "label": "_avgStableRate",
        "offset": 0,
        "slot": "59",
        "type": "t_uint256"
      },
      {
        "astId": 11245,
        "contract": "contracts/tokenization/StableDebtToken.sol:StableDebtToken",
        "label": "_usersStableRate",
        "offset": 0,
        "slot": "60",
        "type": "t_mapping(t_address,t_uint256)"
      },
      {
        "astId": 11247,
        "contract": "contracts/tokenization/StableDebtToken.sol:StableDebtToken",
        "label": "_totalSupplyTimestamp",
        "offset": 0,
        "slot": "61",
        "type": "t_uint40"
      },
      {
        "astId": 11252,
        "contract": "contracts/tokenization/StableDebtToken.sol:StableDebtToken",
        "label": "_borrowData",
        "offset": 0,
        "slot": "62",
        "type": "t_mapping(t_address,t_struct(BorrowData)9191_storage)"
      },
      {
        "astId": 11255,
        "contract": "contracts/tokenization/StableDebtToken.sol:StableDebtToken",
        "label": "addressResolver",
        "offset": 0,
        "slot": "63",
        "type": "t_contract(AddressResolver)846"
      },
      {
        "astId": 11257,
        "contract": "contracts/tokenization/StableDebtToken.sol:StableDebtToken",
        "label": "underlyingAsset",
        "offset": 0,
        "slot": "64",
        "type": "t_address"
      }
    ],
    "types": {
      "t_address": {
        "encoding": "inplace",
        "label": "address",
        "numberOfBytes": "20"
      },
      "t_array(t_uint256)50_storage": {
        "base": "t_uint256",
        "encoding": "inplace",
        "label": "uint256[50]",
        "numberOfBytes": "1600"
      },
      "t_bool": {
        "encoding": "inplace",
        "label": "bool",
        "numberOfBytes": "1"
      },
      "t_contract(AddressResolver)846": {
        "encoding": "inplace",
        "label": "contract AddressResolver",
        "numberOfBytes": "20"
      },
      "t_mapping(t_address,t_mapping(t_address,t_uint256))": {
        "encoding": "mapping",
        "key": "t_address",
        "label": "mapping(address => mapping(address => uint256))",
        "numberOfBytes": "32",
        "value": "t_mapping(t_address,t_uint256)"
      },
      "t_mapping(t_address,t_struct(BorrowData)9191_storage)": {
        "encoding": "mapping",
        "key": "t_address",
        "label": "mapping(address => struct DataTypes.BorrowData)",
        "numberOfBytes": "32",
        "value": "t_struct(BorrowData)9191_storage"
      },
      "t_mapping(t_address,t_uint256)": {
        "encoding": "mapping",
        "key": "t_address",
        "label": "mapping(address => uint256)",
        "numberOfBytes": "32",
        "value": "t_uint256"
      },
      "t_mapping(t_uint256,t_struct(DrawDown)9203_storage)": {
        "encoding": "mapping",
        "key": "t_uint256",
        "label": "mapping(uint256 => struct DataTypes.DrawDown)",
        "numberOfBytes": "32",
        "value": "t_struct(DrawDown)9203_storage"
      },
      "t_mapping(t_uint256,t_struct(Repayment)9210_storage)": {
        "encoding": "mapping",
        "key": "t_uint256",
        "label": "mapping(uint256 => struct DataTypes.Repayment)",
        "numberOfBytes": "32",
        "value": "t_struct(Repayment)9210_storage"
      },
      "t_mapping(t_uint256,t_uint256)": {
        "encoding": "mapping",
        "key": "t_uint256",
        "label": "mapping(uint256 => uint256)",
        "numberOfBytes": "32",
        "value": "t_uint256"
      },
      "t_string_storage": {
        "encoding": "bytes",
        "label": "string",
        "numberOfBytes": "32"
      },
      "t_struct(BorrowData)9191_storage": {
        "encoding": "inplace",
        "label": "struct DataTypes.BorrowData",
        "members": [
          {
            "astId": 9178,
            "contract": "contracts/tokenization/StableDebtToken.sol:StableDebtToken",
            "label": "drawDownNumber",
            "offset": 0,
            "slot": "0",
            "type": "t_uint256"
          },
          {
            "astId": 9180,
            "contract": "contracts/tokenization/StableDebtToken.sol:StableDebtToken",
            "label": "totalDebt",
            "offset": 0,
            "slot": "1",
            "type": "t_uint256"
          },
          {
            "astId": 9185,
            "contract": "contracts/tokenization/StableDebtToken.sol:StableDebtToken",
            "label": "drawDowns",
            "offset": 0,
            "slot": "2",
            "type": "t_mapping(t_uint256,t_struct(DrawDown)9203_storage)"
          },
          {
            "astId": 9190,
            "contract": "contracts/tokenization/StableDebtToken.sol:StableDebtToken",
            "label": "repayments",
            "offset": 0,
            "slot": "3",
            "type": "t_mapping(t_uint256,t_struct(Repayment)9210_storage)"
          }
        ],
        "numberOfBytes": "128"
      },
      "t_struct(DrawDown)9203_storage": {
        "encoding": "inplace",
        "label": "struct DataTypes.DrawDown",
        "members": [
          {
            "astId": 9193,
            "contract": "contracts/tokenization/StableDebtToken.sol:StableDebtToken",
            "label": "amount",
            "offset": 0,
            "slot": "0",
            "type": "t_uint256"
          },
          {
            "astId": 9195,
            "contract": "contracts/tokenization/StableDebtToken.sol:StableDebtToken",
            "label": "tenure",
            "offset": 0,
            "slot": "1",
            "type": "t_uint256"
          },
          {
            "astId": 9197,
            "contract": "contracts/tokenization/StableDebtToken.sol:StableDebtToken",
            "label": "timestamp",
            "offset": 0,
            "slot": "2",
            "type": "t_uint40"
          },
          {
            "astId": 9199,
            "contract": "contracts/tokenization/StableDebtToken.sol:StableDebtToken",
            "label": "borrowRate",
            "offset": 0,
            "slot": "3",
            "type": "t_uint256"
          },
          {
            "astId": 9202,
            "contract": "contracts/tokenization/StableDebtToken.sol:StableDebtToken",
            "label": "repayment",
            "offset": 0,
            "slot": "4",
            "type": "t_struct(Repayment)9210_storage"
          }
        ],
        "numberOfBytes": "192"
      },
      "t_struct(Repayment)9210_storage": {
        "encoding": "inplace",
        "label": "struct DataTypes.Repayment",
        "members": [
          {
            "astId": 9205,
            "contract": "contracts/tokenization/StableDebtToken.sol:StableDebtToken",
            "label": "totalPaid",
            "offset": 0,
            "slot": "0",
            "type": "t_uint256"
          },
          {
            "astId": 9209,
            "contract": "contracts/tokenization/StableDebtToken.sol:StableDebtToken",
            "label": "repayment",
            "offset": 0,
            "slot": "1",
            "type": "t_mapping(t_uint256,t_uint256)"
          }
        ],
        "numberOfBytes": "64"
      },
      "t_uint256": {
        "encoding": "inplace",
        "label": "uint256",
        "numberOfBytes": "32"
      },
      "t_uint40": {
        "encoding": "inplace",
        "label": "uint40",
        "numberOfBytes": "5"
      },
      "t_uint8": {
        "encoding": "inplace",
        "label": "uint8",
        "numberOfBytes": "1"
      }
    }
  }
}