{
  "address": "0xbf5945a1292BE94F00421694F6c9011D90895648",
  "abi": [
    {
      "anonymous": false,
      "inputs": [
        {
          "indexed": true,
          "internalType": "address",
          "name": "owner",
          "type": "address"
        },
        {
          "indexed": true,
          "internalType": "address",
          "name": "spender",
          "type": "address"
        },
        {
          "indexed": false,
          "internalType": "uint256",
          "name": "value",
          "type": "uint256"
        }
      ],
      "name": "Approval",
      "type": "event"
    },
    {
      "anonymous": false,
      "inputs": [
        {
          "indexed": true,
          "internalType": "address",
          "name": "underlyingAsset",
          "type": "address"
        },
        {
          "indexed": false,
          "internalType": "uint8",
          "name": "debtTokenDecimals",
          "type": "uint8"
        },
        {
          "indexed": false,
          "internalType": "string",
          "name": "debtTokenName",
          "type": "string"
        },
        {
          "indexed": false,
          "internalType": "string",
          "name": "debtTokenSymbol",
          "type": "string"
        },
        {
          "indexed": false,
          "internalType": "bytes",
          "name": "params",
          "type": "bytes"
        }
      ],
      "name": "Initialized",
      "type": "event"
    },
    {
      "anonymous": false,
      "inputs": [
        {
          "indexed": true,
          "internalType": "address",
          "name": "user",
          "type": "address"
        },
        {
          "indexed": false,
          "internalType": "uint256",
          "name": "amount",
          "type": "uint256"
        },
        {
          "indexed": false,
          "internalType": "uint256",
          "name": "currentBalance",
          "type": "uint256"
        },
        {
          "indexed": false,
          "internalType": "uint256",
          "name": "newRate",
          "type": "uint256"
        },
        {
          "indexed": false,
          "internalType": "uint256",
          "name": "avgStableRate",
          "type": "uint256"
        },
        {
          "indexed": false,
          "internalType": "uint256",
          "name": "newTotalSupply",
          "type": "uint256"
        }
      ],
      "name": "Mint",
      "type": "event"
    },
    {
      "anonymous": false,
      "inputs": [
        {
          "indexed": true,
          "internalType": "address",
          "name": "from",
          "type": "address"
        },
        {
          "indexed": true,
          "internalType": "address",
          "name": "to",
          "type": "address"
        },
        {
          "indexed": false,
          "internalType": "uint256",
          "name": "value",
          "type": "uint256"
        }
      ],
      "name": "Transfer",
      "type": "event"
    },
    {
      "inputs": [],
      "name": "DEBT_TOKEN_REVISION",
      "outputs": [
        {
          "internalType": "uint256",
          "name": "",
          "type": "uint256"
        }
      ],
      "stateMutability": "view",
      "type": "function"
    },
    {
      "inputs": [],
      "name": "SECONDS_PER_DAY",
      "outputs": [
        {
          "internalType": "uint256",
          "name": "",
          "type": "uint256"
        }
      ],
      "stateMutability": "view",
      "type": "function"
    },
    {
      "inputs": [
        {
          "internalType": "address",
          "name": "owner",
          "type": "address"
        },
        {
          "internalType": "address",
          "name": "spender",
          "type": "address"
        }
      ],
      "name": "allowance",
      "outputs": [
        {
          "internalType": "uint256",
          "name": "",
          "type": "uint256"
        }
      ],
      "stateMutability": "view",
      "type": "function"
    },
    {
      "inputs": [
        {
          "internalType": "address",
          "name": "spender",
          "type": "address"
        },
        {
          "internalType": "uint256",
          "name": "amount",
          "type": "uint256"
        }
      ],
      "name": "approve",
      "outputs": [
        {
          "internalType": "bool",
          "name": "",
          "type": "bool"
        }
      ],
      "stateMutability": "nonpayable",
      "type": "function"
    },
    {
      "inputs": [
        {
          "internalType": "address",
          "name": "_vaultAddr",
          "type": "address"
        }
      ],
      "name": "balanceOf",
      "outputs": [
        {
          "internalType": "uint256",
          "name": "",
          "type": "uint256"
        }
      ],
      "stateMutability": "view",
      "type": "function"
    },
    {
      "inputs": [
        {
          "internalType": "address",
          "name": "_vaultAddr",
          "type": "address"
        },
        {
          "internalType": "uint256",
          "name": "_drawDown",
          "type": "uint256"
        }
      ],
      "name": "balanceOfDrawdown",
      "outputs": [
        {
          "internalType": "uint256",
          "name": "",
          "type": "uint256"
        }
      ],
      "stateMutability": "view",
      "type": "function"
    },
    {
      "inputs": [
        {
          "internalType": "address",
          "name": "_vaultAddr",
          "type": "address"
        },
        {
          "internalType": "uint256",
          "name": "_drawDown",
          "type": "uint256"
        },
        {
          "internalType": "uint256",
          "name": "_amount",
          "type": "uint256"
        }
      ],
      "name": "burn",
      "outputs": [],
      "stateMutability": "nonpayable",
      "type": "function"
    },
    {
      "inputs": [],
      "name": "decimals",
      "outputs": [
        {
          "internalType": "uint8",
          "name": "",
          "type": "uint8"
        }
      ],
      "stateMutability": "view",
      "type": "function"
    },
    {
      "inputs": [
        {
          "internalType": "address",
          "name": "spender",
          "type": "address"
        },
        {
          "internalType": "uint256",
          "name": "subtractedValue",
          "type": "uint256"
        }
      ],
      "name": "decreaseAllowance",
      "outputs": [
        {
          "internalType": "bool",
          "name": "",
          "type": "bool"
        }
      ],
      "stateMutability": "nonpayable",
      "type": "function"
    },
    {
      "inputs": [
        {
          "internalType": "address",
          "name": "_vaultAddr",
          "type": "address"
        }
      ],
      "name": "drawDoneNumber",
      "outputs": [
        {
          "internalType": "uint256",
          "name": "",
          "type": "uint256"
        }
      ],
      "stateMutability": "view",
      "type": "function"
    },
    {
      "inputs": [
        {
          "internalType": "address",
          "name": "_vaultAddr",
          "type": "address"
        },
        {
          "internalType": "uint256",
          "name": "_drawDownNumber",
          "type": "uint256"
        }
      ],
      "name": "drawDown",
      "outputs": [
        {
          "components": [
            {
              "internalType": "uint256",
              "name": "amount",
              "type": "uint256"
            },
            {
              "internalType": "uint256",
              "name": "tenure",
              "type": "uint256"
            },
            {
              "internalType": "uint40",
              "name": "timestamp",
              "type": "uint40"
            },
            {
              "internalType": "uint256",
              "name": "borrowRate",
              "type": "uint256"
            }
          ],
          "internalType": "struct DataTypes.DebtDetail",
          "name": "",
          "type": "tuple"
        }
      ],
      "stateMutability": "view",
      "type": "function"
    },
    {
      "inputs": [
        {
          "internalType": "address",
          "name": "_vaultAddr",
          "type": "address"
        }
      ],
      "name": "getAggregateActualRepaymentRate",
      "outputs": [
        {
          "internalType": "uint256",
          "name": "",
          "type": "uint256"
        }
      ],
      "stateMutability": "view",
      "type": "function"
    },
    {
      "inputs": [
        {
          "internalType": "address",
          "name": "_vaultAddr",
          "type": "address"
        }
      ],
      "name": "getAggregateOptimalRepaymentRate",
      "outputs": [
        {
          "internalType": "uint256",
          "name": "",
          "type": "uint256"
        }
      ],
      "stateMutability": "view",
      "type": "function"
    },
    {
      "inputs": [],
      "name": "getAverageStableRate",
      "outputs": [
        {
          "internalType": "uint256",
          "name": "",
          "type": "uint256"
        }
      ],
      "stateMutability": "view",
      "type": "function"
    },
    {
      "inputs": [],
      "name": "getTotalSupplyAndAvgRate",
      "outputs": [
        {
          "internalType": "uint256",
          "name": "",
          "type": "uint256"
        },
        {
          "internalType": "uint256",
          "name": "",
          "type": "uint256"
        }
      ],
      "stateMutability": "view",
      "type": "function"
    },
    {
      "inputs": [],
      "name": "getTotalSupplyLastUpdated",
      "outputs": [
        {
          "internalType": "uint40",
          "name": "",
          "type": "uint40"
        }
      ],
      "stateMutability": "view",
      "type": "function"
    },
    {
      "inputs": [
        {
          "internalType": "address",
          "name": "spender",
          "type": "address"
        },
        {
          "internalType": "uint256",
          "name": "addedValue",
          "type": "uint256"
        }
      ],
      "name": "increaseAllowance",
      "outputs": [
        {
          "internalType": "bool",
          "name": "",
          "type": "bool"
        }
      ],
      "stateMutability": "nonpayable",
      "type": "function"
    },
    {
      "inputs": [
        {
          "internalType": "address",
          "name": "_underlyingAsset",
          "type": "address"
        },
        {
          "internalType": "uint8",
          "name": "_debtTokenDecimals",
          "type": "uint8"
        },
        {
          "internalType": "string",
          "name": "_debtTokenName",
          "type": "string"
        },
        {
          "internalType": "string",
          "name": "_debtTokenSymbol",
          "type": "string"
        },
        {
          "internalType": "address",
          "name": "_addressResolver",
          "type": "address"
        },
        {
          "internalType": "bytes",
          "name": "_params",
          "type": "bytes"
        }
      ],
      "name": "initialize",
      "outputs": [],
      "stateMutability": "nonpayable",
      "type": "function"
    },
    {
      "inputs": [],
      "name": "isInitialized",
      "outputs": [
        {
          "internalType": "bool",
          "name": "",
          "type": "bool"
        }
      ],
      "stateMutability": "view",
      "type": "function"
    },
    {
      "inputs": [
        {
          "internalType": "address",
          "name": "_vaultAddr",
          "type": "address"
        },
        {
          "internalType": "uint256",
          "name": "_amount",
          "type": "uint256"
        },
        {
          "internalType": "uint256",
          "name": "_tenure",
          "type": "uint256"
        },
        {
          "internalType": "uint256",
          "name": "_rate",
          "type": "uint256"
        }
      ],
      "name": "mint",
      "outputs": [],
      "stateMutability": "nonpayable",
      "type": "function"
    },
    {
      "inputs": [],
      "name": "name",
      "outputs": [
        {
          "internalType": "string",
          "name": "",
          "type": "string"
        }
      ],
      "stateMutability": "view",
      "type": "function"
    },
    {
      "inputs": [
        {
          "internalType": "address",
          "name": "_vaultAddr",
          "type": "address"
        }
      ],
      "name": "principalOf",
      "outputs": [
        {
          "internalType": "uint256",
          "name": "",
          "type": "uint256"
        }
      ],
      "stateMutability": "view",
      "type": "function"
    },
    {
      "inputs": [
        {
          "internalType": "address",
          "name": "_vaultAddr",
          "type": "address"
        },
        {
          "internalType": "uint256",
          "name": "_drawDownNumber",
          "type": "uint256"
        },
        {
          "internalType": "uint256",
          "name": "_tenure",
          "type": "uint256"
        }
      ],
      "name": "repaymentHistory",
      "outputs": [
        {
          "internalType": "uint256",
          "name": "",
          "type": "uint256"
        }
      ],
      "stateMutability": "view",
      "type": "function"
    },
    {
      "inputs": [
        {
          "internalType": "address",
          "name": "_vaultAddr",
          "type": "address"
        },
        {
          "internalType": "uint256",
          "name": "_drawDownNumber",
          "type": "uint256"
        }
      ],
      "name": "repaymentOverall",
      "outputs": [
        {
          "components": [
            {
              "internalType": "uint256",
              "name": "totalPaid",
              "type": "uint256"
            },
            {
              "internalType": "uint256",
              "name": "numPayments",
              "type": "uint256"
            }
          ],
          "internalType": "struct DataTypes.RepaymentDetail",
          "name": "",
          "type": "tuple"
        }
      ],
      "stateMutability": "view",
      "type": "function"
    },
    {
      "inputs": [],
      "name": "symbol",
      "outputs": [
        {
          "internalType": "string",
          "name": "",
          "type": "string"
        }
      ],
      "stateMutability": "view",
      "type": "function"
    },
    {
      "inputs": [],
      "name": "totalSupply",
      "outputs": [
        {
          "internalType": "uint256",
          "name": "",
          "type": "uint256"
        }
      ],
      "stateMutability": "view",
      "type": "function"
    },
    {
      "inputs": [
        {
          "internalType": "address",
          "name": "recipient",
          "type": "address"
        },
        {
          "internalType": "uint256",
          "name": "amount",
          "type": "uint256"
        }
      ],
      "name": "transfer",
      "outputs": [
        {
          "internalType": "bool",
          "name": "",
          "type": "bool"
        }
      ],
      "stateMutability": "nonpayable",
      "type": "function"
    },
    {
      "inputs": [
        {
          "internalType": "address",
          "name": "sender",
          "type": "address"
        },
        {
          "internalType": "address",
          "name": "recipient",
          "type": "address"
        },
        {
          "internalType": "uint256",
          "name": "amount",
          "type": "uint256"
        }
      ],
      "name": "transferFrom",
      "outputs": [
        {
          "internalType": "bool",
          "name": "",
          "type": "bool"
        }
      ],
      "stateMutability": "nonpayable",
      "type": "function"
    },
    {
      "inputs": [],
      "name": "underlyingAssetAddress",
      "outputs": [
        {
          "internalType": "address",
          "name": "",
          "type": "address"
        }
      ],
      "stateMutability": "view",
      "type": "function"
    }
  ],
  "transactionHash": "0x2423ad708f1077892b1ef2b93a3963470324741be0c5f03a19b0d69f012fdad7",
  "args": [],
  "numDeployments": 1,
  "solcInputHash": "3b48e5fc6cf21bdd2b3f8b312defed7c",
  "bytecode": "0x6080604052600080553480156200001557600080fd5b50604080518082018252600e8082526d111150951513d2d15397d253541360921b60208084018281528551808701909652928552840152815191929160009162000063916037919062000083565b5081516200007990603890602085019062000083565b5050505062000166565b828054620000919062000129565b90600052602060002090601f016020900481019282620000b5576000855562000100565b82601f10620000d057805160ff191683800117855562000100565b8280016001018555821562000100579182015b8281111562000100578251825591602001919060010190620000e3565b506200010e92915062000112565b5090565b5b808211156200010e576000815560010162000113565b600181811c908216806200013e57607f821691505b602082108114156200016057634e487b7160e01b600052602260045260246000fd5b50919050565b611bb780620001766000396000f3fe608060405234801561001057600080fd5b50600436106101cf5760003560e01c8063804ba0a911610104578063a647e8ec116100a2578063dd62ed3e11610071578063dd62ed3e1461045e578063e74848901461046c578063f5298aca14610485578063f731e9be1461049857600080fd5b8063a647e8ec146103b9578063a9059cbb146103cc578063b9a7b622146103da578063c8609b67146103e257600080fd5b806393373b7e116100de57806393373b7e1461037557806395d89b41146103885780639cbfe99214610390578063a457c2d7146102ce57600080fd5b8063804ba0a91461033f57806389d1a0fc1461035257806390f6fcf21461036d57600080fd5b8063313ce567116101715780633cd2df8f1161014b5780633cd2df8f146102e157806361e20a1c146102f657806370a082311461032257806374f0314f1461033557600080fd5b8063313ce567146102b1578063392e53cd146102c657806339509351146102ce57600080fd5b806318160ddd116101ad57806318160ddd14610236578063196a4cb31461023e5780631dce522b1461025157806323b872dd1461029e57600080fd5b806306fdde03146101d4578063095ea7b3146101f257806311a5118a14610215575b600080fd5b6101dc6104b5565b6040516101e991906116e7565b60405180910390f35b610205610200366004611722565b610547565b60405190151581526020016101e9565b610228610223366004611722565b610597565b6040519081526020016101e9565b610228610613565b61022861024c36600461174e565b610625565b61026461025f366004611722565b6106de565b6040516101e99190815181526020808301519082015260408083015164ffffffffff16908201526060918201519181019190915260800190565b6102056102ac36600461176b565b610773565b60395460405160ff90911681526020016101e9565b6102056107be565b6102056102dc366004611722565b6107da565b6102f46102ef366004611898565b610825565b005b61022861030436600461174e565b6001600160a01b03166000908152603d602052604090206001015490565b61022861033036600461174e565b610996565b6102286201518081565b61022861034d36600461174e565b610a29565b603f546040516001600160a01b0390911681526020016101e9565b603a54610228565b610228610383366004611963565b610b06565b6101dc610b3d565b61022861039e36600461174e565b6001600160a01b03166000908152603d602052604090205490565b6102f46103c7366004611998565b610b4c565b6102056102ac366004611722565b610228600181565b6104436103f0366004611722565b604080518082018252600080825260209182018190526001600160a01b03949094168452603d81528184209284526003909201825291829020825180840190935260078101548352600a01549082015290565b604080518251815260209283015192810192909252016101e9565b6102286102dc3660046119d3565b603c5460405164ffffffffff90911681526020016101e9565b6102f4610493366004611963565b610ee9565b6104a0611256565b604080519283526020830191909152016101e9565b6060603780546104c490611a0c565b80601f01602080910402602001604051908101604052809291908181526020018280546104f090611a0c565b801561053d5780601f106105125761010080835404028352916020019161053d565b820191906000526020600020905b81548152906001019060200180831161052057829003601f168201915b5050505050905090565b60405162461bcd60e51b815260206004820152601660248201527f415050524f56414c5f4e4f545f535550504f525445440000000000000000000060448201526000906064015b60405180910390fd5b6001600160a01b0382166000908152603d60209081526040808320848452600381019092528220600e810154600c9091015483919082906105e090839064ffffffffff1661126f565b60008781526003860160205260409020549091506105fe908261127c565b6106089084611a5d565b509695505050505050565b6000610620603a546112be565b905090565b6001600160a01b0381166000908152603d6020526040812081805b82548110156106d65760008181526003840160205260409020600781018054158015906106775750600c82015464ffffffffff1642115b156106c1576106b46b033b2e3c9fd0803ce8000000600c8401546106a29064ffffffffff1642611a75565b6106ac9190611a8c565b825490611306565b6106be9085611a5d565b93505b505080806106ce90611aab565b915050610640565b509392505050565b61071060405180608001604052806000815260200160008152602001600064ffffffffff168152602001600081525090565b506001600160a01b03919091166000908152603d602090815260408083209383526003909301815290829020825160808101845281548152600c82015464ffffffffff1693810193909352600d81015491830191909152600e0154606082015290565b60405162461bcd60e51b815260206004820152601660248201527f5452414e534645525f4e4f545f535550504f5254454400000000000000000000604482015260009060640161058e565b60015460009060ff161580156106205750506000546001111590565b60405162461bcd60e51b815260206004820152601760248201527f414c4c4f57414e43455f4e4f545f535550504f52544544000000000000000000604482015260009060640161058e565b6001805460ff16806108365750303b155b80610842575060005481115b6108b45760405162461bcd60e51b815260206004820152602e60248201527f436f6e747261637420696e7374616e63652068617320616c726561647920626560448201527f656e20696e697469616c697a6564000000000000000000000000000000000000606482015260840161058e565b60015460ff161580156108d3576001805460ff19168117905560008290555b6108dc8761133a565b6108e586611351565b6039805460ff191660ff8a16179055603f80546001600160a01b03808c167fffffffffffffffffffffffff00000000000000000000000000000000000000009283168117909355603e8054918916919092161790556040517f389060560c0359f25d35df53e1ca8e42dd4157a705d94c49b469409f4391ea7090610972908b908b908b908a908a90611ac6565b60405180910390a2801561098b576001805460ff191690555b505050505050505050565b6001600160a01b0381166000908152603d6020526040812081805b82548110156106d65760008181526003840160205260408120600e810154600c909101549091906109ea90839064ffffffffff1661126f565b6000848152600387016020526040902054909150610a08908261127c565b610a129085611a5d565b935050508080610a2190611aab565b9150506109b1565b6001600160a01b0381166000908152603d60209081526040808320603b90925282205482805b8354811015610afd5760008181526003850160205260408120600c810154909190610a8290869064ffffffffff1661126f565b60078301548354919250600091610a999190611a75565b90506000610aa7828461127c565b9050610ada610ad3610ac86b033b2e3c9fd0803ce800000062015180611a8c565b600d8701549061127c565b8290611306565b610ae49087611a5d565b9550505050508080610af590611aab565b915050610a4f565b50949350505050565b6001600160a01b0383166000908152603d602090815260408083208584526003018252808320600b019091529020545b9392505050565b6060603880546104c490611a0c565b603e60009054906101000a90046001600160a01b03166001600160a01b031663e3e24cca6040518163ffffffff1660e01b815260040160206040518083038186803b158015610b9a57600080fd5b505afa158015610bae573d6000803e3d6000fd5b505050506040513d601f19601f82011682018060405250810190610bd29190611b2b565b6001600160a01b0316336001600160a01b0316146040518060400160405280600281526020017f323100000000000000000000000000000000000000000000000000000000000081525090610c3a5760405162461bcd60e51b815260040161058e91906116e7565b50610c746040518060c001604052806000815260200160008152602001600081526020016000815260200160008152602001600081525090565b610c7c610613565b808252603a5460a0830152610c92908590611a5d565b60368190556020820152610ca585611364565b6001600160a01b0385166000908152603d6020526040902060010154610cca85611434565b6040838101919091526001600160a01b0387166000818152603b6020908152838220546060870152918152603d8252828120805480835260038201909352928120888155600d8101889055600e8101879055600c01805464ffffffffff19164264ffffffffff1617905560028301805491610d4483611aab565b90915550508154826000610d5783611aab565b919050555086826001016000828254610d709190611a5d565b90915550610dc19050610d8b610d868986611a5d565b611434565b6040860151610d9a908861127c565b610db1610da687611434565b60608901519061127c565b610dbb9190611a5d565b90611306565b60808501819052610dd19061144a565b6001600160a01b0389166000908152603b602090815260409091206fffffffffffffffffffffffffffffffff92909216909155603c805464ffffffffff19164264ffffffffff16179055840151610e5f90610e5a90610e2f90611434565b6040870151610e3f90899061127c565b610db1610e4f8960000151611434565b60a08a01519061127c565b61144a565b6fffffffffffffffffffffffffffffffff16603a81905560a0858101829052608080870151602080890151604080518e81529283018a90528201929092526060810194909452908301526001600160a01b038a16917f6b09923d887ff6b3a7daa9354d80782a148bde233fb233310ebc3a3ad70c3073910160405180910390a25050505050505050565b603e60009054906101000a90046001600160a01b03166001600160a01b031663e3e24cca6040518163ffffffff1660e01b815260040160206040518083038186803b158015610f3757600080fd5b505afa158015610f4b573d6000803e3d6000fd5b505050506040513d601f19601f82011682018060405250810190610f6f9190611b2b565b6001600160a01b0316336001600160a01b0316146040518060400160405280600281526020017f323100000000000000000000000000000000000000000000000000000000000081525090610fd75760405162461bcd60e51b815260040161058e91906116e7565b506000610fe2610613565b6001600160a01b0385166000908152603b6020526040812054919250908190848411611017576000603a819055603655611093565b61102184866114d6565b60368190559150600061103f61103686611434565b603a549061127c565b9050600061105661104f88611434565b849061127c565b90508181106110725760006036819055603a8190559450611090565b61108861107e85611434565b610dbb84846114d6565b603a81905594505b50505b61109c87611364565b6001600160a01b0387166000908152603d60209081526040808320898452600381019092528220805491929091889183916110d8908490611a75565b9091555050600c8101805464ffffffffff19164264ffffffffff1617905560018201805488919060009061110d908490611a75565b9091555050805461121e576001600160a01b0389166000818152603d602081815260408084208d855260038082018452918520858155600181018690556002808201879055928101805460ff19169055600481018690556005810186905560068101869055600781018690556008810186905560098101869055600a8101869055600c8101805464ffffffffff19169055600d8101869055600e018590559484529190529091018054916111c083611b48565b90915550506001600160a01b0389166000908152603d6020526040902060020154611219576001600160a01b0389166000908152603b60209081526040808320839055603d909152812081815560018101829055600201555b61098b565b600a810180546000818152600b8401602052604081208a9055825491929061124583611aab565b919050555050505050505050505050565b603a546000908190611267816112be565b939092509050565b6000610b368383426114e2565b6000610b366b033b2e3c9fd0803ce80000006112b861129b86866115e6565b6112b260026b033b2e3c9fd0803ce8000000611b5f565b906115f2565b906115fe565b6000806112ca60365490565b9050806112da5750600092915050565b603c546000906112f290859064ffffffffff1661126f565b90506112fe828261127c565b949350505050565b600080611314600284611b5f565b90506112fe836112b8611333876b033b2e3c9fd0803ce80000006115e6565b84906115f2565b805161134d90603790602084019061160a565b5050565b805161134d90603890602084019061160a565b6001600160a01b0381166000908152603d60205260408120905b815481101561142f5760008181526003830160205260408120600e810154600c820154919290916113b790839064ffffffffff1661126f565b83549091506000906113c9908361127c565b84549091506000906113db9084611a75565b828655600c8601805464ffffffffff19164264ffffffffff161790556001880180549192508291600090611410908490611a5d565b925050819055505050505050808061142790611aab565b91505061137e565b505050565b600061144482633b9aca006115e6565b92915050565b60006fffffffffffffffffffffffffffffffff8211156114d25760405162461bcd60e51b815260206004820152602760248201527f53616665436173743a2076616c756520646f65736e27742066697420696e203160448201527f3238206269747300000000000000000000000000000000000000000000000000606482015260840161058e565b5090565b6000610b368284611a75565b6000806114f68364ffffffffff86166114d6565b905080611512576b033b2e3c9fd0803ce8000000915050610b36565b600061151f600183611a75565b905060006002831161153257600061153d565b61153d600284611a75565b9050600061154f6301e1338089611b5f565b9050600061155d828061127c565b9050600061156b828461127c565b9050600060026115858461157f8a8a6115e6565b906115e6565b61158f9190611b5f565b9050600060066115a58461157f89818d8d6115e6565b6115af9190611b5f565b90506115d6816112b284816115c48a8e6115e6565b6b033b2e3c9fd0803ce80000006112b2565b9c9b505050505050505050505050565b6000610b368284611a8c565b6000610b368284611a5d565b6000610b368284611b5f565b82805461161690611a0c565b90600052602060002090601f016020900481019282611638576000855561167e565b82601f1061165157805160ff191683800117855561167e565b8280016001018555821561167e579182015b8281111561167e578251825591602001919060010190611663565b506114d29291505b808211156114d25760008155600101611686565b6000815180845260005b818110156116c0576020818501810151868301820152016116a4565b818111156116d2576000602083870101525b50601f01601f19169290920160200192915050565b602081526000610b36602083018461169a565b6001600160a01b038116811461170f57600080fd5b50565b803561171d816116fa565b919050565b6000806040838503121561173557600080fd5b8235611740816116fa565b946020939093013593505050565b60006020828403121561176057600080fd5b8135610b36816116fa565b60008060006060848603121561178057600080fd5b833561178b816116fa565b9250602084013561179b816116fa565b929592945050506040919091013590565b634e487b7160e01b600052604160045260246000fd5b600082601f8301126117d357600080fd5b813567ffffffffffffffff808211156117ee576117ee6117ac565b604051601f8301601f19908116603f01168101908282118183101715611816576118166117ac565b8160405283815286602085880101111561182f57600080fd5b836020870160208301376000602085830101528094505050505092915050565b60008083601f84011261186157600080fd5b50813567ffffffffffffffff81111561187957600080fd5b60208301915083602082850101111561189157600080fd5b9250929050565b600080600080600080600060c0888a0312156118b357600080fd5b87356118be816116fa565b9650602088013560ff811681146118d457600080fd5b9550604088013567ffffffffffffffff808211156118f157600080fd5b6118fd8b838c016117c2565b965060608a013591508082111561191357600080fd5b61191f8b838c016117c2565b955061192d60808b01611712565b945060a08a013591508082111561194357600080fd5b506119508a828b0161184f565b989b979a50959850939692959293505050565b60008060006060848603121561197857600080fd5b8335611983816116fa565b95602085013595506040909401359392505050565b600080600080608085870312156119ae57600080fd5b84356119b9816116fa565b966020860135965060408601359560600135945092505050565b600080604083850312156119e657600080fd5b82356119f1816116fa565b91506020830135611a01816116fa565b809150509250929050565b600181811c90821680611a2057607f821691505b60208210811415611a4157634e487b7160e01b600052602260045260246000fd5b50919050565b634e487b7160e01b600052601160045260246000fd5b60008219821115611a7057611a70611a47565b500190565b600082821015611a8757611a87611a47565b500390565b6000816000190483118215151615611aa657611aa6611a47565b500290565b6000600019821415611abf57611abf611a47565b5060010190565b60ff86168152608060208201526000611ae2608083018761169a565b8281036040840152611af4818761169a565b90508281036060840152838152838560208301376000602085830101526020601f19601f8601168201019150509695505050505050565b600060208284031215611b3d57600080fd5b8151610b36816116fa565b600081611b5757611b57611a47565b506000190190565b600082611b7c57634e487b7160e01b600052601260045260246000fd5b50049056fea2646970667358221220a4bc8d66caf73d56b960232413491dbe72656f19c9446da4f80f80018e3b99ba64736f6c63430008090033",
  "devdoc": {
    "kind": "dev",
    "methods": {
      "allowance(address,address)": {
        "details": "See {IERC20-allowance}."
      },
      "approve(address,uint256)": {
        "details": "See {IERC20-approve}. Requirements: - `spender` cannot be the zero address."
      },
      "balanceOf(address)": {
        "details": "Calculates the current vault debt balance",
        "returns": {
          "_0": "The accumulated debt of the vault*"
        }
      },
      "decimals()": {
        "details": "Returns the decimals places of the token."
      },
      "decreaseAllowance(address,uint256)": {
        "details": "Atomically decreases the allowance granted to `spender` by the caller. This is an alternative to {approve} that can be used as a mitigation for problems described in {IERC20-approve}. Emits an {Approval} event indicating the updated allowance. Requirements: - `spender` cannot be the zero address. - `spender` must have allowance for the caller of at least `subtractedValue`."
      },
      "getAverageStableRate()": {
        "details": "Returns the average stable rate*"
      },
      "getTotalSupplyAndAvgRate()": {
        "details": "Returns the the total supply and the average stable rate*"
      },
      "increaseAllowance(address,uint256)": {
        "details": "Atomically increases the allowance granted to `spender` by the caller. This is an alternative to {approve} that can be used as a mitigation for problems described in {IERC20-approve}. Emits an {Approval} event indicating the updated allowance. Requirements: - `spender` cannot be the zero address."
      },
      "isInitialized()": {
        "details": "Returns true if the contract has been initialized*"
      },
      "name()": {
        "details": "Returns the name of the token."
      },
      "principalOf(address)": {
        "details": "Calculate the current vault debt principal*"
      },
      "symbol()": {
        "details": "Returns the symbol of the token, usually a shorter version of the name."
      },
      "totalSupply()": {
        "details": "See {IERC20-totalSupply}."
      },
      "transfer(address,uint256)": {
        "details": "Being non transferrable, the debt token does not implement any of the standard ERC20 functions for transfer and allowance.*"
      },
      "transferFrom(address,address,uint256)": {
        "details": "See {IERC20-transferFrom}. Emits an {Approval} event indicating the updated allowance. This is not required by the EIP. See the note at the beginning of {ERC20}. Requirements: - `sender` and `recipient` cannot be the zero address. - `sender` must have a balance of at least `amount`. - the caller must have allowance for ``sender``'s tokens of at least `amount`."
      }
    },
    "version": 1
  },
  "userdoc": {
    "kind": "user",
    "methods": {},
    "version": 1
  },
  "storageLayout": {
    "storage": [
      {
        "astId": 15524,
        "contract": "contracts/tokenization/StableDebtToken.sol:StableDebtToken",
        "label": "lastInitializedRevision",
        "offset": 0,
        "slot": "0",
        "type": "t_uint256"
      },
      {
        "astId": 15527,
        "contract": "contracts/tokenization/StableDebtToken.sol:StableDebtToken",
        "label": "initializing",
        "offset": 0,
        "slot": "1",
        "type": "t_bool"
      },
      {
        "astId": 15625,
        "contract": "contracts/tokenization/StableDebtToken.sol:StableDebtToken",
        "label": "______gap",
        "offset": 0,
        "slot": "2",
        "type": "t_array(t_uint256)50_storage"
      },
      {
        "astId": 12434,
        "contract": "contracts/tokenization/StableDebtToken.sol:StableDebtToken",
        "label": "_balances",
        "offset": 0,
        "slot": "52",
        "type": "t_mapping(t_address,t_uint256)"
      },
      {
        "astId": 12440,
        "contract": "contracts/tokenization/StableDebtToken.sol:StableDebtToken",
        "label": "_allowances",
        "offset": 0,
        "slot": "53",
        "type": "t_mapping(t_address,t_mapping(t_address,t_uint256))"
      },
      {
        "astId": 12442,
        "contract": "contracts/tokenization/StableDebtToken.sol:StableDebtToken",
        "label": "_totalSupply",
        "offset": 0,
        "slot": "54",
        "type": "t_uint256"
      },
      {
        "astId": 12444,
        "contract": "contracts/tokenization/StableDebtToken.sol:StableDebtToken",
        "label": "_name",
        "offset": 0,
        "slot": "55",
        "type": "t_string_storage"
      },
      {
        "astId": 12446,
        "contract": "contracts/tokenization/StableDebtToken.sol:StableDebtToken",
        "label": "_symbol",
        "offset": 0,
        "slot": "56",
        "type": "t_string_storage"
      },
      {
        "astId": 12448,
        "contract": "contracts/tokenization/StableDebtToken.sol:StableDebtToken",
        "label": "_decimals",
        "offset": 0,
        "slot": "57",
        "type": "t_uint8"
      },
      {
        "astId": 14223,
        "contract": "contracts/tokenization/StableDebtToken.sol:StableDebtToken",
        "label": "_avgStableRate",
        "offset": 0,
        "slot": "58",
        "type": "t_uint256"
      },
      {
        "astId": 14227,
        "contract": "contracts/tokenization/StableDebtToken.sol:StableDebtToken",
        "label": "_vaultRate",
        "offset": 0,
        "slot": "59",
        "type": "t_mapping(t_address,t_uint256)"
      },
      {
        "astId": 14229,
        "contract": "contracts/tokenization/StableDebtToken.sol:StableDebtToken",
        "label": "_totalSupplyTimestamp",
        "offset": 0,
        "slot": "60",
        "type": "t_uint40"
      },
      {
        "astId": 14234,
        "contract": "contracts/tokenization/StableDebtToken.sol:StableDebtToken",
        "label": "_borrowData",
        "offset": 0,
        "slot": "61",
        "type": "t_mapping(t_address,t_struct(BorrowData)11259_storage)"
      },
      {
        "astId": 14237,
        "contract": "contracts/tokenization/StableDebtToken.sol:StableDebtToken",
        "label": "addressResolver",
        "offset": 0,
        "slot": "62",
        "type": "t_contract(AddressResolver)1171"
      },
      {
        "astId": 14239,
        "contract": "contracts/tokenization/StableDebtToken.sol:StableDebtToken",
        "label": "underlyingAsset",
        "offset": 0,
        "slot": "63",
        "type": "t_address"
      }
    ],
    "types": {
      "t_address": {
        "encoding": "inplace",
        "label": "address",
        "numberOfBytes": "20"
      },
      "t_array(t_uint256)50_storage": {
        "base": "t_uint256",
        "encoding": "inplace",
        "label": "uint256[50]",
        "numberOfBytes": "1600"
      },
      "t_bool": {
        "encoding": "inplace",
        "label": "bool",
        "numberOfBytes": "1"
      },
      "t_contract(AddressResolver)1171": {
        "encoding": "inplace",
        "label": "contract AddressResolver",
        "numberOfBytes": "20"
      },
      "t_mapping(t_address,t_mapping(t_address,t_uint256))": {
        "encoding": "mapping",
        "key": "t_address",
        "label": "mapping(address => mapping(address => uint256))",
        "numberOfBytes": "32",
        "value": "t_mapping(t_address,t_uint256)"
      },
      "t_mapping(t_address,t_struct(BorrowData)11259_storage)": {
        "encoding": "mapping",
        "key": "t_address",
        "label": "mapping(address => struct DataTypes.BorrowData)",
        "numberOfBytes": "32",
        "value": "t_struct(BorrowData)11259_storage"
      },
      "t_mapping(t_address,t_uint256)": {
        "encoding": "mapping",
        "key": "t_address",
        "label": "mapping(address => uint256)",
        "numberOfBytes": "32",
        "value": "t_uint256"
      },
      "t_mapping(t_uint256,t_struct(DrawDown)11283_storage)": {
        "encoding": "mapping",
        "key": "t_uint256",
        "label": "mapping(uint256 => struct DataTypes.DrawDown)",
        "numberOfBytes": "32",
        "value": "t_struct(DrawDown)11283_storage"
      },
      "t_mapping(t_uint256,t_uint256)": {
        "encoding": "mapping",
        "key": "t_uint256",
        "label": "mapping(uint256 => uint256)",
        "numberOfBytes": "32",
        "value": "t_uint256"
      },
      "t_string_storage": {
        "encoding": "bytes",
        "label": "string",
        "numberOfBytes": "32"
      },
      "t_struct(BorrowData)11259_storage": {
        "encoding": "inplace",
        "label": "struct DataTypes.BorrowData",
        "members": [
          {
            "astId": 11249,
            "contract": "contracts/tokenization/StableDebtToken.sol:StableDebtToken",
            "label": "drawDownNumber",
            "offset": 0,
            "slot": "0",
            "type": "t_uint256"
          },
          {
            "astId": 11251,
            "contract": "contracts/tokenization/StableDebtToken.sol:StableDebtToken",
            "label": "totalDebt",
            "offset": 0,
            "slot": "1",
            "type": "t_uint256"
          },
          {
            "astId": 11253,
            "contract": "contracts/tokenization/StableDebtToken.sol:StableDebtToken",
            "label": "mapSize",
            "offset": 0,
            "slot": "2",
            "type": "t_uint256"
          },
          {
            "astId": 11258,
            "contract": "contracts/tokenization/StableDebtToken.sol:StableDebtToken",
            "label": "drawDowns",
            "offset": 0,
            "slot": "3",
            "type": "t_mapping(t_uint256,t_struct(DrawDown)11283_storage)"
          }
        ],
        "numberOfBytes": "128"
      },
      "t_struct(DrawDown)11283_storage": {
        "encoding": "inplace",
        "label": "struct DataTypes.DrawDown",
        "members": [
          {
            "astId": 11261,
            "contract": "contracts/tokenization/StableDebtToken.sol:StableDebtToken",
            "label": "amount",
            "offset": 0,
            "slot": "0",
            "type": "t_uint256"
          },
          {
            "astId": 11263,
            "contract": "contracts/tokenization/StableDebtToken.sol:StableDebtToken",
            "label": "term",
            "offset": 0,
            "slot": "1",
            "type": "t_uint256"
          },
          {
            "astId": 11265,
            "contract": "contracts/tokenization/StableDebtToken.sol:StableDebtToken",
            "label": "epoch",
            "offset": 0,
            "slot": "2",
            "type": "t_uint256"
          },
          {
            "astId": 11267,
            "contract": "contracts/tokenization/StableDebtToken.sol:StableDebtToken",
            "label": "nper",
            "offset": 0,
            "slot": "3",
            "type": "t_uint8"
          },
          {
            "astId": 11269,
            "contract": "contracts/tokenization/StableDebtToken.sol:StableDebtToken",
            "label": "pmt",
            "offset": 0,
            "slot": "4",
            "type": "t_uint256"
          },
          {
            "astId": 11271,
            "contract": "contracts/tokenization/StableDebtToken.sol:StableDebtToken",
            "label": "vaultBorrowRate",
            "offset": 0,
            "slot": "5",
            "type": "t_uint256"
          },
          {
            "astId": 11273,
            "contract": "contracts/tokenization/StableDebtToken.sol:StableDebtToken",
            "label": "adjustedBorrowRate",
            "offset": 0,
            "slot": "6",
            "type": "t_uint256"
          },
          {
            "astId": 11276,
            "contract": "contracts/tokenization/StableDebtToken.sol:StableDebtToken",
            "label": "repayment",
            "offset": 0,
            "slot": "7",
            "type": "t_struct(Repayment)11305_storage"
          },
          {
            "astId": 11278,
            "contract": "contracts/tokenization/StableDebtToken.sol:StableDebtToken",
            "label": "timestamp",
            "offset": 0,
            "slot": "12",
            "type": "t_uint40"
          },
          {
            "astId": 11280,
            "contract": "contracts/tokenization/StableDebtToken.sol:StableDebtToken",
            "label": "tenure",
            "offset": 0,
            "slot": "13",
            "type": "t_uint256"
          },
          {
            "astId": 11282,
            "contract": "contracts/tokenization/StableDebtToken.sol:StableDebtToken",
            "label": "borrowRate",
            "offset": 0,
            "slot": "14",
            "type": "t_uint256"
          }
        ],
        "numberOfBytes": "480"
      },
      "t_struct(Repayment)11305_storage": {
        "encoding": "inplace",
        "label": "struct DataTypes.Repayment",
        "members": [
          {
            "astId": 11294,
            "contract": "contracts/tokenization/StableDebtToken.sol:StableDebtToken",
            "label": "totalPaid",
            "offset": 0,
            "slot": "0",
            "type": "t_uint256"
          },
          {
            "astId": 11296,
            "contract": "contracts/tokenization/StableDebtToken.sol:StableDebtToken",
            "label": "principalPaid",
            "offset": 0,
            "slot": "1",
            "type": "t_uint256"
          },
          {
            "astId": 11298,
            "contract": "contracts/tokenization/StableDebtToken.sol:StableDebtToken",
            "label": "interestPaid",
            "offset": 0,
            "slot": "2",
            "type": "t_uint256"
          },
          {
            "astId": 11300,
            "contract": "contracts/tokenization/StableDebtToken.sol:StableDebtToken",
            "label": "numPayments",
            "offset": 0,
            "slot": "3",
            "type": "t_uint256"
          },
          {
            "astId": 11304,
            "contract": "contracts/tokenization/StableDebtToken.sol:StableDebtToken",
            "label": "payments",
            "offset": 0,
            "slot": "4",
            "type": "t_mapping(t_uint256,t_uint256)"
          }
        ],
        "numberOfBytes": "160"
      },
      "t_uint256": {
        "encoding": "inplace",
        "label": "uint256",
        "numberOfBytes": "32"
      },
      "t_uint40": {
        "encoding": "inplace",
        "label": "uint40",
        "numberOfBytes": "5"
      },
      "t_uint8": {
        "encoding": "inplace",
        "label": "uint8",
        "numberOfBytes": "1"
      }
    }
  }
}