{
  "address": "0x5ADCE9435a9433af10e3cef246535611Fa7A9800",
  "abi": [
    {
      "anonymous": false,
      "inputs": [
        {
          "indexed": true,
          "internalType": "address",
          "name": "owner",
          "type": "address"
        },
        {
          "indexed": true,
          "internalType": "address",
          "name": "spender",
          "type": "address"
        },
        {
          "indexed": false,
          "internalType": "uint256",
          "name": "value",
          "type": "uint256"
        }
      ],
      "name": "Approval",
      "type": "event"
    },
    {
      "anonymous": false,
      "inputs": [
        {
          "indexed": true,
          "internalType": "address",
          "name": "underlyingAsset",
          "type": "address"
        },
        {
          "indexed": false,
          "internalType": "uint8",
          "name": "debtTokenDecimals",
          "type": "uint8"
        },
        {
          "indexed": false,
          "internalType": "string",
          "name": "debtTokenName",
          "type": "string"
        },
        {
          "indexed": false,
          "internalType": "string",
          "name": "debtTokenSymbol",
          "type": "string"
        },
        {
          "indexed": false,
          "internalType": "bytes",
          "name": "params",
          "type": "bytes"
        }
      ],
      "name": "Initialized",
      "type": "event"
    },
    {
      "anonymous": false,
      "inputs": [
        {
          "indexed": true,
          "internalType": "address",
          "name": "user",
          "type": "address"
        },
        {
          "indexed": false,
          "internalType": "uint256",
          "name": "amount",
          "type": "uint256"
        },
        {
          "indexed": false,
          "internalType": "uint256",
          "name": "currentBalance",
          "type": "uint256"
        },
        {
          "indexed": false,
          "internalType": "uint256",
          "name": "balanceIncrease",
          "type": "uint256"
        },
        {
          "indexed": false,
          "internalType": "uint256",
          "name": "newRate",
          "type": "uint256"
        },
        {
          "indexed": false,
          "internalType": "uint256",
          "name": "avgStableRate",
          "type": "uint256"
        },
        {
          "indexed": false,
          "internalType": "uint256",
          "name": "newTotalSupply",
          "type": "uint256"
        }
      ],
      "name": "Mint",
      "type": "event"
    },
    {
      "anonymous": false,
      "inputs": [
        {
          "indexed": true,
          "internalType": "address",
          "name": "from",
          "type": "address"
        },
        {
          "indexed": true,
          "internalType": "address",
          "name": "to",
          "type": "address"
        },
        {
          "indexed": false,
          "internalType": "uint256",
          "name": "value",
          "type": "uint256"
        }
      ],
      "name": "Transfer",
      "type": "event"
    },
    {
      "inputs": [],
      "name": "DEBT_TOKEN_REVISION",
      "outputs": [
        {
          "internalType": "uint256",
          "name": "",
          "type": "uint256"
        }
      ],
      "stateMutability": "view",
      "type": "function"
    },
    {
      "inputs": [],
      "name": "SECONDS_PER_DAY",
      "outputs": [
        {
          "internalType": "uint256",
          "name": "",
          "type": "uint256"
        }
      ],
      "stateMutability": "view",
      "type": "function"
    },
    {
      "inputs": [
        {
          "internalType": "address",
          "name": "owner",
          "type": "address"
        },
        {
          "internalType": "address",
          "name": "spender",
          "type": "address"
        }
      ],
      "name": "allowance",
      "outputs": [
        {
          "internalType": "uint256",
          "name": "",
          "type": "uint256"
        }
      ],
      "stateMutability": "view",
      "type": "function"
    },
    {
      "inputs": [
        {
          "internalType": "address",
          "name": "spender",
          "type": "address"
        },
        {
          "internalType": "uint256",
          "name": "amount",
          "type": "uint256"
        }
      ],
      "name": "approve",
      "outputs": [
        {
          "internalType": "bool",
          "name": "",
          "type": "bool"
        }
      ],
      "stateMutability": "nonpayable",
      "type": "function"
    },
    {
      "inputs": [
        {
          "internalType": "address",
          "name": "_account",
          "type": "address"
        }
      ],
      "name": "balanceOf",
      "outputs": [
        {
          "internalType": "uint256",
          "name": "",
          "type": "uint256"
        }
      ],
      "stateMutability": "view",
      "type": "function"
    },
    {
      "inputs": [],
      "name": "decimals",
      "outputs": [
        {
          "internalType": "uint8",
          "name": "",
          "type": "uint8"
        }
      ],
      "stateMutability": "view",
      "type": "function"
    },
    {
      "inputs": [
        {
          "internalType": "address",
          "name": "spender",
          "type": "address"
        },
        {
          "internalType": "uint256",
          "name": "subtractedValue",
          "type": "uint256"
        }
      ],
      "name": "decreaseAllowance",
      "outputs": [
        {
          "internalType": "bool",
          "name": "",
          "type": "bool"
        }
      ],
      "stateMutability": "nonpayable",
      "type": "function"
    },
    {
      "inputs": [
        {
          "internalType": "address",
          "name": "_user",
          "type": "address"
        }
      ],
      "name": "getAggregateActualRepaymentRate",
      "outputs": [
        {
          "internalType": "uint256",
          "name": "",
          "type": "uint256"
        }
      ],
      "stateMutability": "view",
      "type": "function"
    },
    {
      "inputs": [
        {
          "internalType": "address",
          "name": "_user",
          "type": "address"
        }
      ],
      "name": "getAggregateOptimalRepaymentRate",
      "outputs": [
        {
          "internalType": "uint256",
          "name": "",
          "type": "uint256"
        }
      ],
      "stateMutability": "view",
      "type": "function"
    },
    {
      "inputs": [],
      "name": "getAverageStableRate",
      "outputs": [
        {
          "internalType": "uint256",
          "name": "",
          "type": "uint256"
        }
      ],
      "stateMutability": "view",
      "type": "function"
    },
    {
      "inputs": [],
      "name": "getTotalSupplyAndAvgRate",
      "outputs": [
        {
          "internalType": "uint256",
          "name": "",
          "type": "uint256"
        },
        {
          "internalType": "uint256",
          "name": "",
          "type": "uint256"
        }
      ],
      "stateMutability": "view",
      "type": "function"
    },
    {
      "inputs": [],
      "name": "getTotalSupplyLastUpdated",
      "outputs": [
        {
          "internalType": "uint40",
          "name": "",
          "type": "uint40"
        }
      ],
      "stateMutability": "view",
      "type": "function"
    },
    {
      "inputs": [
        {
          "internalType": "address",
          "name": "spender",
          "type": "address"
        },
        {
          "internalType": "uint256",
          "name": "addedValue",
          "type": "uint256"
        }
      ],
      "name": "increaseAllowance",
      "outputs": [
        {
          "internalType": "bool",
          "name": "",
          "type": "bool"
        }
      ],
      "stateMutability": "nonpayable",
      "type": "function"
    },
    {
      "inputs": [
        {
          "internalType": "address",
          "name": "_underlyingAsset",
          "type": "address"
        },
        {
          "internalType": "uint8",
          "name": "_debtTokenDecimals",
          "type": "uint8"
        },
        {
          "internalType": "string",
          "name": "_debtTokenName",
          "type": "string"
        },
        {
          "internalType": "string",
          "name": "_debtTokenSymbol",
          "type": "string"
        },
        {
          "internalType": "bytes",
          "name": "_params",
          "type": "bytes"
        }
      ],
      "name": "initialize",
      "outputs": [],
      "stateMutability": "nonpayable",
      "type": "function"
    },
    {
      "inputs": [],
      "name": "isInitialized",
      "outputs": [
        {
          "internalType": "bool",
          "name": "",
          "type": "bool"
        }
      ],
      "stateMutability": "view",
      "type": "function"
    },
    {
      "inputs": [
        {
          "internalType": "address",
          "name": "_user",
          "type": "address"
        },
        {
          "internalType": "uint256",
          "name": "_amount",
          "type": "uint256"
        },
        {
          "internalType": "uint256",
          "name": "_tenure",
          "type": "uint256"
        },
        {
          "internalType": "uint256",
          "name": "_rate",
          "type": "uint256"
        }
      ],
      "name": "mint",
      "outputs": [],
      "stateMutability": "nonpayable",
      "type": "function"
    },
    {
      "inputs": [],
      "name": "name",
      "outputs": [
        {
          "internalType": "string",
          "name": "",
          "type": "string"
        }
      ],
      "stateMutability": "view",
      "type": "function"
    },
    {
      "inputs": [
        {
          "internalType": "address",
          "name": "_account",
          "type": "address"
        }
      ],
      "name": "principalOf",
      "outputs": [
        {
          "internalType": "uint256",
          "name": "",
          "type": "uint256"
        }
      ],
      "stateMutability": "view",
      "type": "function"
    },
    {
      "inputs": [],
      "name": "symbol",
      "outputs": [
        {
          "internalType": "string",
          "name": "",
          "type": "string"
        }
      ],
      "stateMutability": "view",
      "type": "function"
    },
    {
      "inputs": [],
      "name": "totalSupply",
      "outputs": [
        {
          "internalType": "uint256",
          "name": "",
          "type": "uint256"
        }
      ],
      "stateMutability": "view",
      "type": "function"
    },
    {
      "inputs": [
        {
          "internalType": "address",
          "name": "recipient",
          "type": "address"
        },
        {
          "internalType": "uint256",
          "name": "amount",
          "type": "uint256"
        }
      ],
      "name": "transfer",
      "outputs": [
        {
          "internalType": "bool",
          "name": "",
          "type": "bool"
        }
      ],
      "stateMutability": "nonpayable",
      "type": "function"
    },
    {
      "inputs": [
        {
          "internalType": "address",
          "name": "sender",
          "type": "address"
        },
        {
          "internalType": "address",
          "name": "recipient",
          "type": "address"
        },
        {
          "internalType": "uint256",
          "name": "amount",
          "type": "uint256"
        }
      ],
      "name": "transferFrom",
      "outputs": [
        {
          "internalType": "bool",
          "name": "",
          "type": "bool"
        }
      ],
      "stateMutability": "nonpayable",
      "type": "function"
    },
    {
      "inputs": [],
      "name": "underlyingAssetAddress",
      "outputs": [
        {
          "internalType": "address",
          "name": "",
          "type": "address"
        }
      ],
      "stateMutability": "view",
      "type": "function"
    }
  ],
  "transactionHash": "0x4623e5d10e0b290b61d138dab88a752c3ac2f0ed010f00e9462fbfbbb9a9e996",
  "args": [],
  "numDeployments": 1,
  "solcInputHash": "18122cecad17c7f35277e81b5475a72e",
  "bytecode": "0x6080604052600080553480156200001557600080fd5b506040518060400160405280600e81526020017f44454254544f4b454e5f494d504c0000000000000000000000000000000000008152506040518060400160405280600e81526020017f44454254544f4b454e5f494d504c000000000000000000000000000000000000815250600082603790805190602001906200009c929190620000bf565b508160389080519060200190620000b5929190620000bf565b50505050620001d4565b828054620000cd906200019e565b90600052602060002090601f016020900481019282620000f157600085556200013d565b82601f106200010c57805160ff19168380011785556200013d565b828001600101855582156200013d579182015b828111156200013c5782518255916020019190600101906200011f565b5b5090506200014c919062000150565b5090565b5b808211156200016b57600081600090555060010162000151565b5090565b7f4e487b7100000000000000000000000000000000000000000000000000000000600052602260045260246000fd5b60006002820490506001821680620001b757607f821691505b60208210811415620001ce57620001cd6200016f565b5b50919050565b6125eb80620001e46000396000f3fe608060405234801561001057600080fd5b506004361061014d5760003560e01c80637e6b0813116100c3578063a647e8ec1161007c578063a647e8ec146103de578063a9059cbb146103fa578063b9a7b6221461042a578063dd62ed3e14610448578063e748489014610478578063f731e9be146104965761014d565b80637e6b081314610308578063804ba0a91461032457806389d1a0fc1461035457806390f6fcf21461037257806395d89b4114610390578063a457c2d7146103ae5761014d565b8063313ce56711610115578063313ce5671461021e578063392e53cd1461023c578063395093511461025a57806361e20a1c1461028a57806370a08231146102ba57806374f0314f146102ea5761014d565b806306fdde0314610152578063095ea7b31461017057806318160ddd146101a0578063196a4cb3146101be57806323b872dd146101ee575b600080fd5b61015a6104b5565b60405161016791906119cb565b60405180910390f35b61018a60048036038101906101859190611a95565b610547565b6040516101979190611af0565b60405180910390f35b6101a8610584565b6040516101b59190611b1a565b60405180910390f35b6101d860048036038101906101d39190611b35565b610596565b6040516101e59190611b1a565b60405180910390f35b61020860048036038101906102039190611b62565b6106c2565b6040516102159190611af0565b60405180910390f35b6102266106ff565b6040516102339190611bd1565b60405180910390f35b610244610716565b6040516102519190611af0565b60405180910390f35b610274600480360381019061026f9190611a95565b610743565b6040516102819190611af0565b60405180910390f35b6102a4600480360381019061029f9190611b35565b610780565b6040516102b19190611b1a565b60405180910390f35b6102d460048036038101906102cf9190611b35565b61081c565b6040516102e19190611b1a565b60405180910390f35b6102f2610920565b6040516102ff9190611b1a565b60405180910390f35b610322600480360381019061031d9190611dad565b610927565b005b61033e60048036038101906103399190611b35565b610ada565b60405161034b9190611b1a565b60405180910390f35b61035c610c3a565b6040516103699190611e8e565b60405180910390f35b61037a610c64565b6040516103879190611b1a565b60405180910390f35b610398610c6e565b6040516103a591906119cb565b60405180910390f35b6103c860048036038101906103c39190611a95565b610d00565b6040516103d59190611af0565b60405180910390f35b6103f860048036038101906103f39190611ea9565b610d3d565b005b610414600480360381019061040f9190611a95565b61122d565b6040516104219190611af0565b60405180910390f35b61043261126a565b60405161043f9190611b1a565b60405180910390f35b610462600480360381019061045d9190611f10565b61126f565b60405161046f9190611b1a565b60405180910390f35b6104806112ac565b60405161048d9190611f70565b60405180910390f35b61049e6112c7565b6040516104ac929190611f8b565b60405180910390f35b6060603780546104c490611fe3565b80601f01602080910402602001604051908101604052809291908181526020018280546104f090611fe3565b801561053d5780601f106105125761010080835404028352916020019161053d565b820191906000526020600020905b81548152906001019060200180831161052057829003601f168201915b5050505050905090565b60006040517f08c379a000000000000000000000000000000000000000000000000000000000815260040161057b90612061565b60405180910390fd5b6000610591603b546112e4565b905090565b600080603e60008473ffffffffffffffffffffffffffffffffffffffff1673ffffffffffffffffffffffffffffffffffffffff1681526020019081526020016000209050600080600090505b82600001548110156106b757600083600201600083815260200190815260200160002090506000816004019050600081600001541415801561063f57508160020160009054906101000a900464ffffffffff1664ffffffffff1642115b156106a25761069461064f611342565b8360020160009054906101000a900464ffffffffff1664ffffffffff164261067791906120b0565b61068191906120e4565b826000015461135690919063ffffffff16565b8461069f919061213e565b93505b505080806106af90612194565b9150506105e2565b508092505050919050565b60006040517f08c379a00000000000000000000000000000000000000000000000000000000081526004016106f690612229565b60405180910390fd5b6000603960009054906101000a900460ff16905090565b6000600160009054906101000a900460ff1615801561073e575060005461073b6113b4565b11155b905090565b60006040517f08c379a000000000000000000000000000000000000000000000000000000000815260040161077790612295565b60405180910390fd5b600080603e60008473ffffffffffffffffffffffffffffffffffffffff1673ffffffffffffffffffffffffffffffffffffffff1681526020019081526020016000209050600080600090505b82600001548110156108115782600201600082815260200190815260200160002060000154826107fc919061213e565b9150808061080990612194565b9150506107cc565b508092505050919050565b600080603e60008473ffffffffffffffffffffffffffffffffffffffff1673ffffffffffffffffffffffffffffffffffffffff1681526020019081526020016000209050600080600090505b826000015481101561091557600083600201600083815260200190815260200160002060030154905060006108c68286600201600086815260200190815260200160002060020160009054906101000a900464ffffffffff166113bd565b90506108f381866002016000868152602001908152602001600020600001546113d290919063ffffffff16565b846108fe919061213e565b93505050808061090d90612194565b915050610868565b508092505050919050565b6201518081565b60006109316113b4565b9050600160009054906101000a900460ff16806109525750610951611437565b5b8061095e575060005481115b61099d576040517f08c379a000000000000000000000000000000000000000000000000000000000815260040161099490612327565b60405180910390fd5b6000600160009054906101000a900460ff1615905080156109da5760018060006101000a81548160ff021916908315150217905550816000819055505b6109e386611448565b6109ec85611462565b6109f58761147c565b87604060006101000a81548173ffffffffffffffffffffffffffffffffffffffff021916908373ffffffffffffffffffffffffffffffffffffffff160217905550604060009054906101000a900473ffffffffffffffffffffffffffffffffffffffff1673ffffffffffffffffffffffffffffffffffffffff167f389060560c0359f25d35df53e1ca8e42dd4157a705d94c49b469409f4391ea708888888888604051610aa6959493929190612385565b60405180910390a28015610ad0576000600160006101000a81548160ff0219169083151502179055505b5050505050505050565b600080603e60008473ffffffffffffffffffffffffffffffffffffffff1673ffffffffffffffffffffffffffffffffffffffff16815260200190815260200160002090506000603c60008573ffffffffffffffffffffffffffffffffffffffff1673ffffffffffffffffffffffffffffffffffffffff168152602001908152602001600020549050600080600090505b8360000154811015610c2e57600084600201600083815260200190815260200160002090506000610bb0858360020160009054906101000a900464ffffffffff166113bd565b90506000610bcb8284600001546113d290919063ffffffff16565b9050610c0b610bfc610bdb611342565b62015180610be991906120e4565b85600101546113d290919063ffffffff16565b8261135690919063ffffffff16565b85610c16919061213e565b94505050508080610c2690612194565b915050610b6a565b50809350505050919050565b6000604060009054906101000a900473ffffffffffffffffffffffffffffffffffffffff16905090565b6000603b54905090565b606060388054610c7d90611fe3565b80601f0160208091040260200160405190810160405280929190818152602001828054610ca990611fe3565b8015610cf65780601f10610ccb57610100808354040283529160200191610cf6565b820191906000526020600020905b815481529060010190602001808311610cd957829003601f168201915b5050505050905090565b60006040517f08c379a0000000000000000000000000000000000000000000000000000000008152600401610d3490612295565b60405180910390fd5b603f60009054906101000a900473ffffffffffffffffffffffffffffffffffffffff1673ffffffffffffffffffffffffffffffffffffffff166321f8a7216040518163ffffffff1660e01b8152600401610d9690612407565b60206040518083038186803b158015610dae57600080fd5b505afa158015610dc2573d6000803e3d6000fd5b505050506040513d601f19601f82011682018060405250810190610de69190612435565b73ffffffffffffffffffffffffffffffffffffffff16610e0461149a565b73ffffffffffffffffffffffffffffffffffffffff16146040518060400160405280600281526020017f323100000000000000000000000000000000000000000000000000000000000081525090610e92576040517f08c379a0000000000000000000000000000000000000000000000000000000008152600401610e8991906119cb565b60405180910390fd5b50610e9b611859565b600080610ea7876114a2565b9250925050610eb4610584565b836000018181525050603b548360a0018181525050858360000151610ed9919061213e565b6036819055836020018181525050610ef0866114f8565b836040018181525050603c60008873ffffffffffffffffffffffffffffffffffffffff1673ffffffffffffffffffffffffffffffffffffffff168152602001908152602001600020548360600181815250506000603e60008973ffffffffffffffffffffffffffffffffffffffff1673ffffffffffffffffffffffffffffffffffffffff16815260200190815260200160002090506000816000015490508782600201600083815260200190815260200160002060000181905550868260020160008381526020019081526020016000206001018190555085826002016000838152602001908152602001600020600301819055504282600201600083815260200190815260200160002060020160006101000a81548164ffffffffff021916908364ffffffffff16021790555081600001600081548092919061103390612194565b919050555061109d61104f898661104a919061213e565b6114f8565b6110668888604001516113d290919063ffffffff16565b611085611072886114f8565b89606001516113d290919063ffffffff16565b61108f919061213e565b61135690919063ffffffff16565b8560800181815250506110b38560800151611518565b6fffffffffffffffffffffffffffffffff16603c60008b73ffffffffffffffffffffffffffffffffffffffff1673ffffffffffffffffffffffffffffffffffffffff1681526020019081526020016000208190555042603d60006101000a81548164ffffffffff021916908364ffffffffff16021790555061119561119061113e87602001516114f8565b61115588604001518a6113d290919063ffffffff16565b6111786111658a600001516114f8565b8a60a001516113d290919063ffffffff16565b611182919061213e565b61135690919063ffffffff16565b611518565b6fffffffffffffffffffffffffffffffff16603b8190558560a00181815250506111be89611577565b8873ffffffffffffffffffffffffffffffffffffffff167f926683a213f5704409a772ad857ee2929a5b82b1f28900f733ebb3035ebba57c89868689608001518a60a001518b6020015160405161121a96959493929190612462565b60405180910390a2505050505050505050565b60006040517f08c379a000000000000000000000000000000000000000000000000000000000815260040161126190612229565b60405180910390fd5b600181565b60006040517f08c379a00000000000000000000000000000000000000000000000000000000081526004016112a390612295565b60405180910390fd5b6000603d60009054906101000a900464ffffffffff16905090565b6000806000603b5490506112da816112e4565b8192509250509091565b6000806112ef61166d565b9050600081141561130457600091505061133d565b600061132384603d60009054906101000a900464ffffffffff166113bd565b905061133881836113d290919063ffffffff16565b925050505b919050565b60006b033b2e3c9fd0803ce8000000905090565b60008060028361136691906124f2565b90506113ab8361139d61138e6b033b2e3c9fd0803ce80000008861167790919063ffffffff16565b8461168d90919063ffffffff16565b6116a390919063ffffffff16565b91505092915050565b60006001905090565b60006113ca8383426116b9565b905092915050565b600061142f6b033b2e3c9fd0803ce80000006114216113fa858761167790919063ffffffff16565b60026b033b2e3c9fd0803ce800000061141391906124f2565b61168d90919063ffffffff16565b6116a390919063ffffffff16565b905092915050565b600080303b90506000811491505090565b806037908051906020019061145e92919061188f565b5050565b806038908051906020019061147892919061188f565b5050565b80603960006101000a81548160ff021916908360ff16021790555050565b600033905090565b6000806000806114b185610780565b905060008114156114cd576000806000935093509350506114f1565b60006114d88661081c565b9050818183836114e891906120b0565b94509450945050505b9193909250565b6000611511633b9aca008361167790919063ffffffff16565b9050919050565b60006fffffffffffffffffffffffffffffffff801682111561156f576040517f08c379a000000000000000000000000000000000000000000000000000000000815260040161156690612595565b60405180910390fd5b819050919050565b6000603e60008373ffffffffffffffffffffffffffffffffffffffff1673ffffffffffffffffffffffffffffffffffffffff168152602001908152602001600020905060005b81600001548110156116685760008260020160008381526020019081526020016000209050600081600301549050600061160c828460020160009054906101000a900464ffffffffff166113bd565b90506116258184600001546113d290919063ffffffff16565b8360000181905550428360020160006101000a81548164ffffffffff021916908364ffffffffff160217905550505050808061166090612194565b9150506115bd565b505050565b6000603654905090565b6000818361168591906120e4565b905092915050565b6000818361169b919061213e565b905092915050565b600081836116b191906124f2565b905092915050565b6000806116d68464ffffffffff168461184390919063ffffffff16565b905060008114156116f1576116e9611342565b91505061183c565b600060018261170091906120b0565b9050600060028311611713576000611721565b60028361172091906120b0565b5b905060006301e133808861173591906124f2565b9050600061174c82836113d290919063ffffffff16565b9050600061176383836113d290919063ffffffff16565b90506000600261178e84611780898b61167790919063ffffffff16565b61167790919063ffffffff16565b61179891906124f2565b9050600060066117d5846117c7896117b98c8e61167790919063ffffffff16565b61167790919063ffffffff16565b61167790919063ffffffff16565b6117df91906124f2565b905061183181611823846118156117ff8d8b61167790919063ffffffff16565b611807611342565b61168d90919063ffffffff16565b61168d90919063ffffffff16565b61168d90919063ffffffff16565b985050505050505050505b9392505050565b6000818361185191906120b0565b905092915050565b6040518060c001604052806000815260200160008152602001600081526020016000815260200160008152602001600081525090565b82805461189b90611fe3565b90600052602060002090601f0160209004810192826118bd5760008555611904565b82601f106118d657805160ff1916838001178555611904565b82800160010185558215611904579182015b828111156119035782518255916020019190600101906118e8565b5b5090506119119190611915565b5090565b5b8082111561192e576000816000905550600101611916565b5090565b600081519050919050565b600082825260208201905092915050565b60005b8381101561196c578082015181840152602081019050611951565b8381111561197b576000848401525b50505050565b6000601f19601f8301169050919050565b600061199d82611932565b6119a7818561193d565b93506119b781856020860161194e565b6119c081611981565b840191505092915050565b600060208201905081810360008301526119e58184611992565b905092915050565b6000604051905090565b600080fd5b600080fd5b600073ffffffffffffffffffffffffffffffffffffffff82169050919050565b6000611a2c82611a01565b9050919050565b611a3c81611a21565b8114611a4757600080fd5b50565b600081359050611a5981611a33565b92915050565b6000819050919050565b611a7281611a5f565b8114611a7d57600080fd5b50565b600081359050611a8f81611a69565b92915050565b60008060408385031215611aac57611aab6119f7565b5b6000611aba85828601611a4a565b9250506020611acb85828601611a80565b9150509250929050565b60008115159050919050565b611aea81611ad5565b82525050565b6000602082019050611b056000830184611ae1565b92915050565b611b1481611a5f565b82525050565b6000602082019050611b2f6000830184611b0b565b92915050565b600060208284031215611b4b57611b4a6119f7565b5b6000611b5984828501611a4a565b91505092915050565b600080600060608486031215611b7b57611b7a6119f7565b5b6000611b8986828701611a4a565b9350506020611b9a86828701611a4a565b9250506040611bab86828701611a80565b9150509250925092565b600060ff82169050919050565b611bcb81611bb5565b82525050565b6000602082019050611be66000830184611bc2565b92915050565b611bf581611bb5565b8114611c0057600080fd5b50565b600081359050611c1281611bec565b92915050565b600080fd5b600080fd5b7f4e487b7100000000000000000000000000000000000000000000000000000000600052604160045260246000fd5b611c5a82611981565b810181811067ffffffffffffffff82111715611c7957611c78611c22565b5b80604052505050565b6000611c8c6119ed565b9050611c988282611c51565b919050565b600067ffffffffffffffff821115611cb857611cb7611c22565b5b611cc182611981565b9050602081019050919050565b82818337600083830152505050565b6000611cf0611ceb84611c9d565b611c82565b905082815260208101848484011115611d0c57611d0b611c1d565b5b611d17848285611cce565b509392505050565b600082601f830112611d3457611d33611c18565b5b8135611d44848260208601611cdd565b91505092915050565b600080fd5b600080fd5b60008083601f840112611d6d57611d6c611c18565b5b8235905067ffffffffffffffff811115611d8a57611d89611d4d565b5b602083019150836001820283011115611da657611da5611d52565b5b9250929050565b60008060008060008060a08789031215611dca57611dc96119f7565b5b6000611dd889828a01611a4a565b9650506020611de989828a01611c03565b955050604087013567ffffffffffffffff811115611e0a57611e096119fc565b5b611e1689828a01611d1f565b945050606087013567ffffffffffffffff811115611e3757611e366119fc565b5b611e4389828a01611d1f565b935050608087013567ffffffffffffffff811115611e6457611e636119fc565b5b611e7089828a01611d57565b92509250509295509295509295565b611e8881611a21565b82525050565b6000602082019050611ea36000830184611e7f565b92915050565b60008060008060808587031215611ec357611ec26119f7565b5b6000611ed187828801611a4a565b9450506020611ee287828801611a80565b9350506040611ef387828801611a80565b9250506060611f0487828801611a80565b91505092959194509250565b60008060408385031215611f2757611f266119f7565b5b6000611f3585828601611a4a565b9250506020611f4685828601611a4a565b9150509250929050565b600064ffffffffff82169050919050565b611f6a81611f50565b82525050565b6000602082019050611f856000830184611f61565b92915050565b6000604082019050611fa06000830185611b0b565b611fad6020830184611b0b565b9392505050565b7f4e487b7100000000000000000000000000000000000000000000000000000000600052602260045260246000fd5b60006002820490506001821680611ffb57607f821691505b6020821081141561200f5761200e611fb4565b5b50919050565b7f415050524f56414c5f4e4f545f535550504f5254454400000000000000000000600082015250565b600061204b60168361193d565b915061205682612015565b602082019050919050565b6000602082019050818103600083015261207a8161203e565b9050919050565b7f4e487b7100000000000000000000000000000000000000000000000000000000600052601160045260246000fd5b60006120bb82611a5f565b91506120c683611a5f565b9250828210156120d9576120d8612081565b5b828203905092915050565b60006120ef82611a5f565b91506120fa83611a5f565b9250817fffffffffffffffffffffffffffffffffffffffffffffffffffffffffffffffff048311821515161561213357612132612081565b5b828202905092915050565b600061214982611a5f565b915061215483611a5f565b9250827fffffffffffffffffffffffffffffffffffffffffffffffffffffffffffffffff0382111561218957612188612081565b5b828201905092915050565b600061219f82611a5f565b91507fffffffffffffffffffffffffffffffffffffffffffffffffffffffffffffffff8214156121d2576121d1612081565b5b600182019050919050565b7f5452414e534645525f4e4f545f535550504f5254454400000000000000000000600082015250565b600061221360168361193d565b915061221e826121dd565b602082019050919050565b6000602082019050818103600083015261224281612206565b9050919050565b7f414c4c4f57414e43455f4e4f545f535550504f52544544000000000000000000600082015250565b600061227f60178361193d565b915061228a82612249565b602082019050919050565b600060208201905081810360008301526122ae81612272565b9050919050565b7f436f6e747261637420696e7374616e63652068617320616c726561647920626560008201527f656e20696e697469616c697a6564000000000000000000000000000000000000602082015250565b6000612311602e8361193d565b915061231c826122b5565b604082019050919050565b6000602082019050818103600083015261234081612304565b9050919050565b600082825260208201905092915050565b60006123648385612347565b9350612371838584611cce565b61237a83611981565b840190509392505050565b600060808201905061239a6000830188611bc2565b81810360208301526123ac8187611992565b905081810360408301526123c08186611992565b905081810360608301526123d5818486612358565b90509695505050505050565b7f6c6f616e4d616e61676572000000000000000000000000000000000000000000815250565b600060208201905061241b600083016123e1565b919050565b60008151905061242f81611a33565b92915050565b60006020828403121561244b5761244a6119f7565b5b600061245984828501612420565b91505092915050565b600060c0820190506124776000830189611b0b565b6124846020830188611b0b565b6124916040830187611b0b565b61249e6060830186611b0b565b6124ab6080830185611b0b565b6124b860a0830184611b0b565b979650505050505050565b7f4e487b7100000000000000000000000000000000000000000000000000000000600052601260045260246000fd5b60006124fd82611a5f565b915061250883611a5f565b925082612518576125176124c3565b5b828204905092915050565b7f53616665436173743a2076616c756520646f65736e27742066697420696e203160008201527f3238206269747300000000000000000000000000000000000000000000000000602082015250565b600061257f60278361193d565b915061258a82612523565b604082019050919050565b600060208201905081810360008301526125ae81612572565b905091905056fea2646970667358221220a1fea4648c6ef3557cbda7ed94212dff5e36c8932d8bbb6c9266d754107a1d0764736f6c63430008090033",
  "devdoc": {
    "kind": "dev",
    "methods": {
      "allowance(address,address)": {
        "details": "See {IERC20-allowance}."
      },
      "approve(address,uint256)": {
        "details": "See {IERC20-approve}. Requirements: - `spender` cannot be the zero address."
      },
      "balanceOf(address)": {
        "details": "Calculates the current user debt balance",
        "returns": {
          "_0": "The accumulated debt of the user*"
        }
      },
      "decimals()": {
        "details": "Returns the decimals places of the token."
      },
      "decreaseAllowance(address,uint256)": {
        "details": "Atomically decreases the allowance granted to `spender` by the caller. This is an alternative to {approve} that can be used as a mitigation for problems described in {IERC20-approve}. Emits an {Approval} event indicating the updated allowance. Requirements: - `spender` cannot be the zero address. - `spender` must have allowance for the caller of at least `subtractedValue`."
      },
      "getAverageStableRate()": {
        "details": "Returns the average stable rate*"
      },
      "getTotalSupplyAndAvgRate()": {
        "details": "Returns the the total supply and the average stable rate*"
      },
      "increaseAllowance(address,uint256)": {
        "details": "Atomically increases the allowance granted to `spender` by the caller. This is an alternative to {approve} that can be used as a mitigation for problems described in {IERC20-approve}. Emits an {Approval} event indicating the updated allowance. Requirements: - `spender` cannot be the zero address."
      },
      "isInitialized()": {
        "details": "Returns true if the contract has been initialized*"
      },
      "name()": {
        "details": "Returns the name of the token."
      },
      "principalOf(address)": {
        "details": "Calculate the current user debt principal*"
      },
      "symbol()": {
        "details": "Returns the symbol of the token, usually a shorter version of the name."
      },
      "totalSupply()": {
        "details": "See {IERC20-totalSupply}."
      },
      "transfer(address,uint256)": {
        "details": "Being non transferrable, the debt token does not implement any of the standard ERC20 functions for transfer and allowance.*"
      },
      "transferFrom(address,address,uint256)": {
        "details": "See {IERC20-transferFrom}. Emits an {Approval} event indicating the updated allowance. This is not required by the EIP. See the note at the beginning of {ERC20}. Requirements: - `sender` and `recipient` cannot be the zero address. - `sender` must have a balance of at least `amount`. - the caller must have allowance for ``sender``'s tokens of at least `amount`."
      }
    },
    "version": 1
  },
  "userdoc": {
    "kind": "user",
    "methods": {},
    "version": 1
  },
  "storageLayout": {
    "storage": [
      {
        "astId": 5853,
        "contract": "contracts/tokenization/StableDebtToken.sol:StableDebtToken",
        "label": "lastInitializedRevision",
        "offset": 0,
        "slot": "0",
        "type": "t_uint256"
      },
      {
        "astId": 5856,
        "contract": "contracts/tokenization/StableDebtToken.sol:StableDebtToken",
        "label": "initializing",
        "offset": 0,
        "slot": "1",
        "type": "t_bool"
      },
      {
        "astId": 5965,
        "contract": "contracts/tokenization/StableDebtToken.sol:StableDebtToken",
        "label": "______gap",
        "offset": 0,
        "slot": "2",
        "type": "t_array(t_uint256)50_storage"
      },
      {
        "astId": 9777,
        "contract": "contracts/tokenization/StableDebtToken.sol:StableDebtToken",
        "label": "_balances",
        "offset": 0,
        "slot": "52",
        "type": "t_mapping(t_address,t_uint256)"
      },
      {
        "astId": 9783,
        "contract": "contracts/tokenization/StableDebtToken.sol:StableDebtToken",
        "label": "_allowances",
        "offset": 0,
        "slot": "53",
        "type": "t_mapping(t_address,t_mapping(t_address,t_uint256))"
      },
      {
        "astId": 9785,
        "contract": "contracts/tokenization/StableDebtToken.sol:StableDebtToken",
        "label": "_totalSupply",
        "offset": 0,
        "slot": "54",
        "type": "t_uint256"
      },
      {
        "astId": 9787,
        "contract": "contracts/tokenization/StableDebtToken.sol:StableDebtToken",
        "label": "_name",
        "offset": 0,
        "slot": "55",
        "type": "t_string_storage"
      },
      {
        "astId": 9789,
        "contract": "contracts/tokenization/StableDebtToken.sol:StableDebtToken",
        "label": "_symbol",
        "offset": 0,
        "slot": "56",
        "type": "t_string_storage"
      },
      {
        "astId": 9791,
        "contract": "contracts/tokenization/StableDebtToken.sol:StableDebtToken",
        "label": "_decimals",
        "offset": 0,
        "slot": "57",
        "type": "t_uint8"
      },
      {
        "astId": 10337,
        "contract": "contracts/tokenization/StableDebtToken.sol:StableDebtToken",
        "label": "_borrowAllowances",
        "offset": 0,
        "slot": "58",
        "type": "t_mapping(t_address,t_mapping(t_address,t_uint256))"
      },
      {
        "astId": 11480,
        "contract": "contracts/tokenization/StableDebtToken.sol:StableDebtToken",
        "label": "_avgStableRate",
        "offset": 0,
        "slot": "59",
        "type": "t_uint256"
      },
      {
        "astId": 11484,
        "contract": "contracts/tokenization/StableDebtToken.sol:StableDebtToken",
        "label": "_usersStableRate",
        "offset": 0,
        "slot": "60",
        "type": "t_mapping(t_address,t_uint256)"
      },
      {
        "astId": 11486,
        "contract": "contracts/tokenization/StableDebtToken.sol:StableDebtToken",
        "label": "_totalSupplyTimestamp",
        "offset": 0,
        "slot": "61",
        "type": "t_uint40"
      },
      {
        "astId": 11491,
        "contract": "contracts/tokenization/StableDebtToken.sol:StableDebtToken",
        "label": "_borrowData",
        "offset": 0,
        "slot": "62",
        "type": "t_mapping(t_address,t_struct(BorrowData)9297_storage)"
      },
      {
        "astId": 11494,
        "contract": "contracts/tokenization/StableDebtToken.sol:StableDebtToken",
        "label": "addressResolver",
        "offset": 0,
        "slot": "63",
        "type": "t_contract(AddressResolver)830"
      },
      {
        "astId": 11496,
        "contract": "contracts/tokenization/StableDebtToken.sol:StableDebtToken",
        "label": "underlyingAsset",
        "offset": 0,
        "slot": "64",
        "type": "t_address"
      }
    ],
    "types": {
      "t_address": {
        "encoding": "inplace",
        "label": "address",
        "numberOfBytes": "20"
      },
      "t_array(t_uint256)50_storage": {
        "base": "t_uint256",
        "encoding": "inplace",
        "label": "uint256[50]",
        "numberOfBytes": "1600"
      },
      "t_bool": {
        "encoding": "inplace",
        "label": "bool",
        "numberOfBytes": "1"
      },
      "t_contract(AddressResolver)830": {
        "encoding": "inplace",
        "label": "contract AddressResolver",
        "numberOfBytes": "20"
      },
      "t_mapping(t_address,t_mapping(t_address,t_uint256))": {
        "encoding": "mapping",
        "key": "t_address",
        "label": "mapping(address => mapping(address => uint256))",
        "numberOfBytes": "32",
        "value": "t_mapping(t_address,t_uint256)"
      },
      "t_mapping(t_address,t_struct(BorrowData)9297_storage)": {
        "encoding": "mapping",
        "key": "t_address",
        "label": "mapping(address => struct DataTypes.BorrowData)",
        "numberOfBytes": "32",
        "value": "t_struct(BorrowData)9297_storage"
      },
      "t_mapping(t_address,t_uint256)": {
        "encoding": "mapping",
        "key": "t_address",
        "label": "mapping(address => uint256)",
        "numberOfBytes": "32",
        "value": "t_uint256"
      },
      "t_mapping(t_uint256,t_struct(DrawDown)9309_storage)": {
        "encoding": "mapping",
        "key": "t_uint256",
        "label": "mapping(uint256 => struct DataTypes.DrawDown)",
        "numberOfBytes": "32",
        "value": "t_struct(DrawDown)9309_storage"
      },
      "t_mapping(t_uint256,t_struct(Repayment)9316_storage)": {
        "encoding": "mapping",
        "key": "t_uint256",
        "label": "mapping(uint256 => struct DataTypes.Repayment)",
        "numberOfBytes": "32",
        "value": "t_struct(Repayment)9316_storage"
      },
      "t_mapping(t_uint256,t_uint256)": {
        "encoding": "mapping",
        "key": "t_uint256",
        "label": "mapping(uint256 => uint256)",
        "numberOfBytes": "32",
        "value": "t_uint256"
      },
      "t_string_storage": {
        "encoding": "bytes",
        "label": "string",
        "numberOfBytes": "32"
      },
      "t_struct(BorrowData)9297_storage": {
        "encoding": "inplace",
        "label": "struct DataTypes.BorrowData",
        "members": [
          {
            "astId": 9284,
            "contract": "contracts/tokenization/StableDebtToken.sol:StableDebtToken",
            "label": "drawDownNumber",
            "offset": 0,
            "slot": "0",
            "type": "t_uint256"
          },
          {
            "astId": 9286,
            "contract": "contracts/tokenization/StableDebtToken.sol:StableDebtToken",
            "label": "totalDebt",
            "offset": 0,
            "slot": "1",
            "type": "t_uint256"
          },
          {
            "astId": 9291,
            "contract": "contracts/tokenization/StableDebtToken.sol:StableDebtToken",
            "label": "drawDowns",
            "offset": 0,
            "slot": "2",
            "type": "t_mapping(t_uint256,t_struct(DrawDown)9309_storage)"
          },
          {
            "astId": 9296,
            "contract": "contracts/tokenization/StableDebtToken.sol:StableDebtToken",
            "label": "repayments",
            "offset": 0,
            "slot": "3",
            "type": "t_mapping(t_uint256,t_struct(Repayment)9316_storage)"
          }
        ],
        "numberOfBytes": "128"
      },
      "t_struct(DrawDown)9309_storage": {
        "encoding": "inplace",
        "label": "struct DataTypes.DrawDown",
        "members": [
          {
            "astId": 9299,
            "contract": "contracts/tokenization/StableDebtToken.sol:StableDebtToken",
            "label": "amount",
            "offset": 0,
            "slot": "0",
            "type": "t_uint256"
          },
          {
            "astId": 9301,
            "contract": "contracts/tokenization/StableDebtToken.sol:StableDebtToken",
            "label": "tenure",
            "offset": 0,
            "slot": "1",
            "type": "t_uint256"
          },
          {
            "astId": 9303,
            "contract": "contracts/tokenization/StableDebtToken.sol:StableDebtToken",
            "label": "timestamp",
            "offset": 0,
            "slot": "2",
            "type": "t_uint40"
          },
          {
            "astId": 9305,
            "contract": "contracts/tokenization/StableDebtToken.sol:StableDebtToken",
            "label": "borrowRate",
            "offset": 0,
            "slot": "3",
            "type": "t_uint256"
          },
          {
            "astId": 9308,
            "contract": "contracts/tokenization/StableDebtToken.sol:StableDebtToken",
            "label": "repayment",
            "offset": 0,
            "slot": "4",
            "type": "t_struct(Repayment)9316_storage"
          }
        ],
        "numberOfBytes": "192"
      },
      "t_struct(Repayment)9316_storage": {
        "encoding": "inplace",
        "label": "struct DataTypes.Repayment",
        "members": [
          {
            "astId": 9311,
            "contract": "contracts/tokenization/StableDebtToken.sol:StableDebtToken",
            "label": "totalPaid",
            "offset": 0,
            "slot": "0",
            "type": "t_uint256"
          },
          {
            "astId": 9315,
            "contract": "contracts/tokenization/StableDebtToken.sol:StableDebtToken",
            "label": "repayment",
            "offset": 0,
            "slot": "1",
            "type": "t_mapping(t_uint256,t_uint256)"
          }
        ],
        "numberOfBytes": "64"
      },
      "t_uint256": {
        "encoding": "inplace",
        "label": "uint256",
        "numberOfBytes": "32"
      },
      "t_uint40": {
        "encoding": "inplace",
        "label": "uint40",
        "numberOfBytes": "5"
      },
      "t_uint8": {
        "encoding": "inplace",
        "label": "uint8",
        "numberOfBytes": "1"
      }
    }
  }
}