{
  "address": "0xFE2CE29B9813B581e649B31B87bC562F4Ec3372e",
  "abi": [
    {
      "anonymous": false,
      "inputs": [
        {
          "indexed": true,
          "internalType": "address",
          "name": "owner",
          "type": "address"
        },
        {
          "indexed": true,
          "internalType": "address",
          "name": "spender",
          "type": "address"
        },
        {
          "indexed": false,
          "internalType": "uint256",
          "name": "value",
          "type": "uint256"
        }
      ],
      "name": "Approval",
      "type": "event"
    },
    {
      "anonymous": false,
      "inputs": [
        {
          "indexed": true,
          "internalType": "address",
          "name": "underlyingAsset",
          "type": "address"
        },
        {
          "indexed": false,
          "internalType": "uint8",
          "name": "debtTokenDecimals",
          "type": "uint8"
        },
        {
          "indexed": false,
          "internalType": "string",
          "name": "debtTokenName",
          "type": "string"
        },
        {
          "indexed": false,
          "internalType": "string",
          "name": "debtTokenSymbol",
          "type": "string"
        },
        {
          "indexed": false,
          "internalType": "bytes",
          "name": "params",
          "type": "bytes"
        }
      ],
      "name": "Initialized",
      "type": "event"
    },
    {
      "anonymous": false,
      "inputs": [
        {
          "indexed": true,
          "internalType": "address",
          "name": "user",
          "type": "address"
        },
        {
          "indexed": false,
          "internalType": "uint256",
          "name": "amount",
          "type": "uint256"
        },
        {
          "indexed": false,
          "internalType": "uint256",
          "name": "currentBalance",
          "type": "uint256"
        },
        {
          "indexed": false,
          "internalType": "uint256",
          "name": "balanceIncrease",
          "type": "uint256"
        },
        {
          "indexed": false,
          "internalType": "uint256",
          "name": "newRate",
          "type": "uint256"
        },
        {
          "indexed": false,
          "internalType": "uint256",
          "name": "avgStableRate",
          "type": "uint256"
        },
        {
          "indexed": false,
          "internalType": "uint256",
          "name": "newTotalSupply",
          "type": "uint256"
        }
      ],
      "name": "Mint",
      "type": "event"
    },
    {
      "anonymous": false,
      "inputs": [
        {
          "indexed": true,
          "internalType": "address",
          "name": "from",
          "type": "address"
        },
        {
          "indexed": true,
          "internalType": "address",
          "name": "to",
          "type": "address"
        },
        {
          "indexed": false,
          "internalType": "uint256",
          "name": "value",
          "type": "uint256"
        }
      ],
      "name": "Transfer",
      "type": "event"
    },
    {
      "inputs": [],
      "name": "DEBT_TOKEN_REVISION",
      "outputs": [
        {
          "internalType": "uint256",
          "name": "",
          "type": "uint256"
        }
      ],
      "stateMutability": "view",
      "type": "function"
    },
    {
      "inputs": [],
      "name": "SECONDS_PER_DAY",
      "outputs": [
        {
          "internalType": "uint256",
          "name": "",
          "type": "uint256"
        }
      ],
      "stateMutability": "view",
      "type": "function"
    },
    {
      "inputs": [
        {
          "internalType": "address",
          "name": "owner",
          "type": "address"
        },
        {
          "internalType": "address",
          "name": "spender",
          "type": "address"
        }
      ],
      "name": "allowance",
      "outputs": [
        {
          "internalType": "uint256",
          "name": "",
          "type": "uint256"
        }
      ],
      "stateMutability": "view",
      "type": "function"
    },
    {
      "inputs": [
        {
          "internalType": "address",
          "name": "spender",
          "type": "address"
        },
        {
          "internalType": "uint256",
          "name": "amount",
          "type": "uint256"
        }
      ],
      "name": "approve",
      "outputs": [
        {
          "internalType": "bool",
          "name": "",
          "type": "bool"
        }
      ],
      "stateMutability": "nonpayable",
      "type": "function"
    },
    {
      "inputs": [
        {
          "internalType": "address",
          "name": "_account",
          "type": "address"
        }
      ],
      "name": "balanceOf",
      "outputs": [
        {
          "internalType": "uint256",
          "name": "",
          "type": "uint256"
        }
      ],
      "stateMutability": "view",
      "type": "function"
    },
    {
      "inputs": [],
      "name": "decimals",
      "outputs": [
        {
          "internalType": "uint8",
          "name": "",
          "type": "uint8"
        }
      ],
      "stateMutability": "view",
      "type": "function"
    },
    {
      "inputs": [
        {
          "internalType": "address",
          "name": "spender",
          "type": "address"
        },
        {
          "internalType": "uint256",
          "name": "subtractedValue",
          "type": "uint256"
        }
      ],
      "name": "decreaseAllowance",
      "outputs": [
        {
          "internalType": "bool",
          "name": "",
          "type": "bool"
        }
      ],
      "stateMutability": "nonpayable",
      "type": "function"
    },
    {
      "inputs": [
        {
          "internalType": "address",
          "name": "_user",
          "type": "address"
        }
      ],
      "name": "getAggregateActualRepaymentRate",
      "outputs": [
        {
          "internalType": "uint256",
          "name": "",
          "type": "uint256"
        }
      ],
      "stateMutability": "view",
      "type": "function"
    },
    {
      "inputs": [
        {
          "internalType": "address",
          "name": "_user",
          "type": "address"
        }
      ],
      "name": "getAggregateOptimalRepaymentRate",
      "outputs": [
        {
          "internalType": "uint256",
          "name": "",
          "type": "uint256"
        }
      ],
      "stateMutability": "view",
      "type": "function"
    },
    {
      "inputs": [],
      "name": "getAverageStableRate",
      "outputs": [
        {
          "internalType": "uint256",
          "name": "",
          "type": "uint256"
        }
      ],
      "stateMutability": "view",
      "type": "function"
    },
    {
      "inputs": [],
      "name": "getTotalSupplyAndAvgRate",
      "outputs": [
        {
          "internalType": "uint256",
          "name": "",
          "type": "uint256"
        },
        {
          "internalType": "uint256",
          "name": "",
          "type": "uint256"
        }
      ],
      "stateMutability": "view",
      "type": "function"
    },
    {
      "inputs": [],
      "name": "getTotalSupplyLastUpdated",
      "outputs": [
        {
          "internalType": "uint40",
          "name": "",
          "type": "uint40"
        }
      ],
      "stateMutability": "view",
      "type": "function"
    },
    {
      "inputs": [
        {
          "internalType": "address",
          "name": "spender",
          "type": "address"
        },
        {
          "internalType": "uint256",
          "name": "addedValue",
          "type": "uint256"
        }
      ],
      "name": "increaseAllowance",
      "outputs": [
        {
          "internalType": "bool",
          "name": "",
          "type": "bool"
        }
      ],
      "stateMutability": "nonpayable",
      "type": "function"
    },
    {
      "inputs": [
        {
          "internalType": "address",
          "name": "_underlyingAsset",
          "type": "address"
        },
        {
          "internalType": "uint8",
          "name": "_debtTokenDecimals",
          "type": "uint8"
        },
        {
          "internalType": "string",
          "name": "_debtTokenName",
          "type": "string"
        },
        {
          "internalType": "string",
          "name": "_debtTokenSymbol",
          "type": "string"
        },
        {
          "internalType": "address",
          "name": "_addressResolver",
          "type": "address"
        },
        {
          "internalType": "bytes",
          "name": "_params",
          "type": "bytes"
        }
      ],
      "name": "initialize",
      "outputs": [],
      "stateMutability": "nonpayable",
      "type": "function"
    },
    {
      "inputs": [],
      "name": "isInitialized",
      "outputs": [
        {
          "internalType": "bool",
          "name": "",
          "type": "bool"
        }
      ],
      "stateMutability": "view",
      "type": "function"
    },
    {
      "inputs": [
        {
          "internalType": "address",
          "name": "_user",
          "type": "address"
        },
        {
          "internalType": "uint256",
          "name": "_amount",
          "type": "uint256"
        },
        {
          "internalType": "uint256",
          "name": "_tenure",
          "type": "uint256"
        },
        {
          "internalType": "uint256",
          "name": "_rate",
          "type": "uint256"
        }
      ],
      "name": "mint",
      "outputs": [],
      "stateMutability": "nonpayable",
      "type": "function"
    },
    {
      "inputs": [],
      "name": "name",
      "outputs": [
        {
          "internalType": "string",
          "name": "",
          "type": "string"
        }
      ],
      "stateMutability": "view",
      "type": "function"
    },
    {
      "inputs": [
        {
          "internalType": "address",
          "name": "_account",
          "type": "address"
        }
      ],
      "name": "principalOf",
      "outputs": [
        {
          "internalType": "uint256",
          "name": "",
          "type": "uint256"
        }
      ],
      "stateMutability": "view",
      "type": "function"
    },
    {
      "inputs": [],
      "name": "symbol",
      "outputs": [
        {
          "internalType": "string",
          "name": "",
          "type": "string"
        }
      ],
      "stateMutability": "view",
      "type": "function"
    },
    {
      "inputs": [],
      "name": "totalSupply",
      "outputs": [
        {
          "internalType": "uint256",
          "name": "",
          "type": "uint256"
        }
      ],
      "stateMutability": "view",
      "type": "function"
    },
    {
      "inputs": [
        {
          "internalType": "address",
          "name": "recipient",
          "type": "address"
        },
        {
          "internalType": "uint256",
          "name": "amount",
          "type": "uint256"
        }
      ],
      "name": "transfer",
      "outputs": [
        {
          "internalType": "bool",
          "name": "",
          "type": "bool"
        }
      ],
      "stateMutability": "nonpayable",
      "type": "function"
    },
    {
      "inputs": [
        {
          "internalType": "address",
          "name": "sender",
          "type": "address"
        },
        {
          "internalType": "address",
          "name": "recipient",
          "type": "address"
        },
        {
          "internalType": "uint256",
          "name": "amount",
          "type": "uint256"
        }
      ],
      "name": "transferFrom",
      "outputs": [
        {
          "internalType": "bool",
          "name": "",
          "type": "bool"
        }
      ],
      "stateMutability": "nonpayable",
      "type": "function"
    },
    {
      "inputs": [],
      "name": "underlyingAssetAddress",
      "outputs": [
        {
          "internalType": "address",
          "name": "",
          "type": "address"
        }
      ],
      "stateMutability": "view",
      "type": "function"
    }
  ],
  "transactionHash": "0xda90498d19075d26f5746f228d5d7ba7ed560d21f6e0280fd180aa71cd523814",
  "args": [],
  "numDeployments": 1,
  "solcInputHash": "fa894278ca97a0719c19a1b496c9124e",
  "bytecode": "0x6080604052600080553480156200001557600080fd5b50604080518082018252600e8082526d111150951513d2d15397d253541360921b60208084018281528551808701909652928552840152815191929160009162000063916037919062000083565b5081516200007990603890602085019062000083565b5050505062000166565b828054620000919062000129565b90600052602060002090601f016020900481019282620000b5576000855562000100565b82601f10620000d057805160ff191683800117855562000100565b8280016001018555821562000100579182015b8281111562000100578251825591602001919060010190620000e3565b506200010e92915062000112565b5090565b5b808211156200010e576000815560010162000113565b600181811c908216806200013e57607f821691505b602082108114156200016057634e487b7160e01b600052602260045260246000fd5b50919050565b61156e80620001766000396000f3fe608060405234801561001057600080fd5b506004361061018d5760003560e01c806374f0314f116100e3578063a647e8ec1161008c578063dd62ed3e11610066578063dd62ed3e146102eb578063e7484890146102f9578063f731e9be1461031257600080fd5b8063a647e8ec146102c2578063a9059cbb146102d5578063b9a7b622146102e357600080fd5b806390f6fcf2116100bd57806390f6fcf2146102b257806395d89b41146102ba578063a457c2d71461022c57600080fd5b806374f0314f1461027a578063804ba0a91461028457806389d1a0fc1461029757600080fd5b8063313ce567116101455780633cd2df8f1161011f5780633cd2df8f1461023f57806361e20a1c1461025457806370a082311461026757600080fd5b8063313ce5671461020f578063392e53cd14610224578063395093511461022c57600080fd5b806318160ddd1161017657806318160ddd146101d3578063196a4cb3146101e957806323b872dd146101fc57600080fd5b806306fdde0314610192578063095ea7b3146101b0575b600080fd5b61019a61032f565b6040516101a791906110ea565b60405180910390f35b6101c36101be366004611125565b6103c1565b60405190151581526020016101a7565b6101db610411565b6040519081526020016101a7565b6101db6101f7366004611151565b610423565b6101c361020a36600461116e565b6104dc565b60395460405160ff90911681526020016101a7565b6101c3610527565b6101c361023a366004611125565b610543565b61025261024d36600461129b565b61058e565b005b6101db610262366004611151565b6106fe565b6101db610275366004611151565b610751565b6101db6201518081565b6101db610292366004611151565b6107e2565b6040805490516001600160a01b0390911681526020016101a7565b603b546101db565b61019a6108bf565b6102526102d0366004611366565b6108ce565b6101c361020a366004611125565b6101db600181565b6101db61023a3660046113a1565b603d5460405164ffffffffff90911681526020016101a7565b61031a610c3e565b604080519283526020830191909152016101a7565b60606037805461033e906113da565b80601f016020809104026020016040519081016040528092919081815260200182805461036a906113da565b80156103b75780601f1061038c576101008083540402835291602001916103b7565b820191906000526020600020905b81548152906001019060200180831161039a57829003601f168201915b5050505050905090565b60405162461bcd60e51b815260206004820152601660248201527f415050524f56414c5f4e4f545f535550504f525445440000000000000000000060448201526000906064015b60405180910390fd5b600061041e603b54610c57565b905090565b6001600160a01b0381166000908152603e6020526040812081805b82548110156104d45760008181526002840160205260409020600481018054158015906104755750600282015464ffffffffff1642115b156104bf576104b26b033b2e3c9fd0803ce800000060028401546104a09064ffffffffff164261142b565b6104aa9190611442565b825490610c9f565b6104bc9085611461565b93505b505080806104cc90611479565b91505061043e565b509392505050565b60405162461bcd60e51b815260206004820152601660248201527f5452414e534645525f4e4f545f535550504f52544544000000000000000000006044820152600090606401610408565b60015460009060ff1615801561041e5750506000546001111590565b60405162461bcd60e51b815260206004820152601760248201527f414c4c4f57414e43455f4e4f545f535550504f525445440000000000000000006044820152600090606401610408565b6001805460ff168061059f5750303b155b806105ab575060005481115b61061d5760405162461bcd60e51b815260206004820152602e60248201527f436f6e747261637420696e7374616e63652068617320616c726561647920626560448201527f656e20696e697469616c697a65640000000000000000000000000000000000006064820152608401610408565b60015460ff1615801561063c576001805460ff19168117905560008290555b61064587610cd9565b61064e86610cf0565b6039805460ff191660ff8a16179055604080547fffffffffffffffffffffffff00000000000000000000000000000000000000009081166001600160a01b038c81169182178455603f80549093169089161790915590517f389060560c0359f25d35df53e1ca8e42dd4157a705d94c49b469409f4391ea70906106da908b908b908b908a908a90611494565b60405180910390a280156106f3576001805460ff191690555b505050505050505050565b6001600160a01b0381166000908152603e6020526040812081805b82548110156104d457600081815260028401602052604090205461073d9083611461565b91508061074981611479565b915050610719565b6001600160a01b0381166000908152603e6020526040812081805b82548110156104d457600081815260028085016020526040822060038101549101549091906107a390839064ffffffffff16610d03565b60008481526002870160205260409020549091506107c19082610d17565b6107cb9085611461565b9350505080806107da90611479565b91505061076c565b6001600160a01b0381166000908152603e60209081526040808320603c90925282205482805b83548110156108b65760008181526002808601602052604082209081015490919061083b90869064ffffffffff16610d03565b60048301548354919250600091610852919061142b565b905060006108608284610d17565b905061089361088c6108816b033b2e3c9fd0803ce800000062015180611442565b600187015490610d17565b8290610c9f565b61089d9087611461565b95505050505080806108ae90611479565b915050610808565b50949350505050565b60606038805461033e906113da565b603f60009054906101000a90046001600160a01b03166001600160a01b031663e3e24cca6040518163ffffffff1660e01b815260040160206040518083038186803b15801561091c57600080fd5b505afa158015610930573d6000803e3d6000fd5b505050506040513d601f19601f8201168201806040525081019061095491906114f9565b6001600160a01b0316336001600160a01b0316146040518060400160405280600281526020017f3231000000000000000000000000000000000000000000000000000000000000815250906109bc5760405162461bcd60e51b815260040161040891906110ea565b506109f66040518060c001604052806000815260200160008152602001600081526020016000815260200160008152602001600081525090565b600080610a0287610d53565b9250925050610a0f610411565b808452603b5460a0850152610a25908790611461565b60368190556020840152610a3886610da3565b6040848101919091526001600160a01b0388166000818152603c6020908152838220546060880152918152603e8252828120805480835260028083019094529382208a8155600181018a905560038101899055909201805464ffffffffff19164264ffffffffff161790558154919291908390610ab483611479565b90915550610b059050610acf610aca8a87611461565b610da3565b6040870151610ade9089610d17565b610af5610aea88610da3565b60608a015190610d17565b610aff9190611461565b90610c9f565b60808601819052610b1590610db9565b6001600160a01b038a166000908152603c602090815260409091206fffffffffffffffffffffffffffffffff92909216909155603d805464ffffffffff19164264ffffffffff16179055850151610ba390610b9e90610b7390610da3565b6040880151610b83908a90610d17565b610af5610b938a60000151610da3565b60a08b015190610d17565b610db9565b6fffffffffffffffffffffffffffffffff16603b81905560a0860152610bc889610e45565b60808086015160a0808801516020808a0151604080518f81529283018b905282018990526060820194909452938401528201526001600160a01b038a16907f926683a213f5704409a772ad857ee2929a5b82b1f28900f733ebb3035ebba57c9060c00160405180910390a2505050505050505050565b603b546000908190610c4f81610c57565b939092509050565b600080610c6360365490565b905080610c735750600092915050565b603d54600090610c8b90859064ffffffffff16610d03565b9050610c978282610d17565b949350505050565b600080610cad600284611516565b9050610c9783610cd3610ccc876b033b2e3c9fd0803ce8000000610ed9565b8490610ee5565b90610ef1565b8051610cec90603790602084019061100d565b5050565b8051610cec90603890602084019061100d565b6000610d10838342610efd565b9392505050565b6000610d106b033b2e3c9fd0803ce8000000610cd3610d368686610ed9565b610d4d60026b033b2e3c9fd0803ce8000000611516565b90610ee5565b600080600080610d62856106fe565b905080610d7a57600080600093509350935050610d9c565b6000610d8586610751565b90508181610d93828261142b565b94509450945050505b9193909250565b6000610db382633b9aca00610ed9565b92915050565b60006fffffffffffffffffffffffffffffffff821115610e415760405162461bcd60e51b815260206004820152602760248201527f53616665436173743a2076616c756520646f65736e27742066697420696e203160448201527f32382062697473000000000000000000000000000000000000000000000000006064820152608401610408565b5090565b6001600160a01b0381166000908152603e60205260408120905b8154811015610ed4576000818152600280840160205260408220600381015491810154909290610e9790839064ffffffffff16610d03565b8354909150610ea69082610d17565b83555050600201805464ffffffffff19164264ffffffffff1617905580610ecc81611479565b915050610e5f565b505050565b6000610d108284611442565b6000610d108284611461565b6000610d108284611516565b600080610f118364ffffffffff8616611001565b905080610f2d576b033b2e3c9fd0803ce8000000915050610d10565b6000610f3a60018361142b565b9050600060028311610f4d576000610f58565b610f5860028461142b565b90506000610f6a6301e1338089611516565b90506000610f788280610d17565b90506000610f868284610d17565b905060006002610fa084610f9a8a8a610ed9565b90610ed9565b610faa9190611516565b905060006006610fc084610f9a89818d8d610ed9565b610fca9190611516565b9050610ff181610d4d8481610fdf8a8e610ed9565b6b033b2e3c9fd0803ce8000000610d4d565b9c9b505050505050505050505050565b6000610d10828461142b565b828054611019906113da565b90600052602060002090601f01602090048101928261103b5760008555611081565b82601f1061105457805160ff1916838001178555611081565b82800160010185558215611081579182015b82811115611081578251825591602001919060010190611066565b50610e419291505b80821115610e415760008155600101611089565b6000815180845260005b818110156110c3576020818501810151868301820152016110a7565b818111156110d5576000602083870101525b50601f01601f19169290920160200192915050565b602081526000610d10602083018461109d565b6001600160a01b038116811461111257600080fd5b50565b8035611120816110fd565b919050565b6000806040838503121561113857600080fd5b8235611143816110fd565b946020939093013593505050565b60006020828403121561116357600080fd5b8135610d10816110fd565b60008060006060848603121561118357600080fd5b833561118e816110fd565b9250602084013561119e816110fd565b929592945050506040919091013590565b634e487b7160e01b600052604160045260246000fd5b600082601f8301126111d657600080fd5b813567ffffffffffffffff808211156111f1576111f16111af565b604051601f8301601f19908116603f01168101908282118183101715611219576112196111af565b8160405283815286602085880101111561123257600080fd5b836020870160208301376000602085830101528094505050505092915050565b60008083601f84011261126457600080fd5b50813567ffffffffffffffff81111561127c57600080fd5b60208301915083602082850101111561129457600080fd5b9250929050565b600080600080600080600060c0888a0312156112b657600080fd5b87356112c1816110fd565b9650602088013560ff811681146112d757600080fd5b9550604088013567ffffffffffffffff808211156112f457600080fd5b6113008b838c016111c5565b965060608a013591508082111561131657600080fd5b6113228b838c016111c5565b955061133060808b01611115565b945060a08a013591508082111561134657600080fd5b506113538a828b01611252565b989b979a50959850939692959293505050565b6000806000806080858703121561137c57600080fd5b8435611387816110fd565b966020860135965060408601359560600135945092505050565b600080604083850312156113b457600080fd5b82356113bf816110fd565b915060208301356113cf816110fd565b809150509250929050565b600181811c908216806113ee57607f821691505b6020821081141561140f57634e487b7160e01b600052602260045260246000fd5b50919050565b634e487b7160e01b600052601160045260246000fd5b60008282101561143d5761143d611415565b500390565b600081600019048311821515161561145c5761145c611415565b500290565b6000821982111561147457611474611415565b500190565b600060001982141561148d5761148d611415565b5060010190565b60ff861681526080602082015260006114b0608083018761109d565b82810360408401526114c2818761109d565b90508281036060840152838152838560208301376000602085830101526020601f19601f8601168201019150509695505050505050565b60006020828403121561150b57600080fd5b8151610d10816110fd565b60008261153357634e487b7160e01b600052601260045260246000fd5b50049056fea26469706673582212204c4b0c53f6316e9e60ac4397a0969acd61584f422689b8277687a6391a052b6064736f6c63430008090033",
  "devdoc": {
    "kind": "dev",
    "methods": {
      "allowance(address,address)": {
        "details": "See {IERC20-allowance}."
      },
      "approve(address,uint256)": {
        "details": "See {IERC20-approve}. Requirements: - `spender` cannot be the zero address."
      },
      "balanceOf(address)": {
        "details": "Calculates the current user debt balance",
        "returns": {
          "_0": "The accumulated debt of the user*"
        }
      },
      "decimals()": {
        "details": "Returns the decimals places of the token."
      },
      "decreaseAllowance(address,uint256)": {
        "details": "Atomically decreases the allowance granted to `spender` by the caller. This is an alternative to {approve} that can be used as a mitigation for problems described in {IERC20-approve}. Emits an {Approval} event indicating the updated allowance. Requirements: - `spender` cannot be the zero address. - `spender` must have allowance for the caller of at least `subtractedValue`."
      },
      "getAverageStableRate()": {
        "details": "Returns the average stable rate*"
      },
      "getTotalSupplyAndAvgRate()": {
        "details": "Returns the the total supply and the average stable rate*"
      },
      "increaseAllowance(address,uint256)": {
        "details": "Atomically increases the allowance granted to `spender` by the caller. This is an alternative to {approve} that can be used as a mitigation for problems described in {IERC20-approve}. Emits an {Approval} event indicating the updated allowance. Requirements: - `spender` cannot be the zero address."
      },
      "isInitialized()": {
        "details": "Returns true if the contract has been initialized*"
      },
      "name()": {
        "details": "Returns the name of the token."
      },
      "principalOf(address)": {
        "details": "Calculate the current user debt principal*"
      },
      "symbol()": {
        "details": "Returns the symbol of the token, usually a shorter version of the name."
      },
      "totalSupply()": {
        "details": "See {IERC20-totalSupply}."
      },
      "transfer(address,uint256)": {
        "details": "Being non transferrable, the debt token does not implement any of the standard ERC20 functions for transfer and allowance.*"
      },
      "transferFrom(address,address,uint256)": {
        "details": "See {IERC20-transferFrom}. Emits an {Approval} event indicating the updated allowance. This is not required by the EIP. See the note at the beginning of {ERC20}. Requirements: - `sender` and `recipient` cannot be the zero address. - `sender` must have a balance of at least `amount`. - the caller must have allowance for ``sender``'s tokens of at least `amount`."
      }
    },
    "version": 1
  },
  "userdoc": {
    "kind": "user",
    "methods": {},
    "version": 1
  },
  "storageLayout": {
    "storage": [
      {
        "astId": 6098,
        "contract": "contracts/tokenization/StableDebtToken.sol:StableDebtToken",
        "label": "lastInitializedRevision",
        "offset": 0,
        "slot": "0",
        "type": "t_uint256"
      },
      {
        "astId": 6101,
        "contract": "contracts/tokenization/StableDebtToken.sol:StableDebtToken",
        "label": "initializing",
        "offset": 0,
        "slot": "1",
        "type": "t_bool"
      },
      {
        "astId": 6210,
        "contract": "contracts/tokenization/StableDebtToken.sol:StableDebtToken",
        "label": "______gap",
        "offset": 0,
        "slot": "2",
        "type": "t_array(t_uint256)50_storage"
      },
      {
        "astId": 9969,
        "contract": "contracts/tokenization/StableDebtToken.sol:StableDebtToken",
        "label": "_balances",
        "offset": 0,
        "slot": "52",
        "type": "t_mapping(t_address,t_uint256)"
      },
      {
        "astId": 9975,
        "contract": "contracts/tokenization/StableDebtToken.sol:StableDebtToken",
        "label": "_allowances",
        "offset": 0,
        "slot": "53",
        "type": "t_mapping(t_address,t_mapping(t_address,t_uint256))"
      },
      {
        "astId": 9977,
        "contract": "contracts/tokenization/StableDebtToken.sol:StableDebtToken",
        "label": "_totalSupply",
        "offset": 0,
        "slot": "54",
        "type": "t_uint256"
      },
      {
        "astId": 9979,
        "contract": "contracts/tokenization/StableDebtToken.sol:StableDebtToken",
        "label": "_name",
        "offset": 0,
        "slot": "55",
        "type": "t_string_storage"
      },
      {
        "astId": 9981,
        "contract": "contracts/tokenization/StableDebtToken.sol:StableDebtToken",
        "label": "_symbol",
        "offset": 0,
        "slot": "56",
        "type": "t_string_storage"
      },
      {
        "astId": 9983,
        "contract": "contracts/tokenization/StableDebtToken.sol:StableDebtToken",
        "label": "_decimals",
        "offset": 0,
        "slot": "57",
        "type": "t_uint8"
      },
      {
        "astId": 10529,
        "contract": "contracts/tokenization/StableDebtToken.sol:StableDebtToken",
        "label": "_borrowAllowances",
        "offset": 0,
        "slot": "58",
        "type": "t_mapping(t_address,t_mapping(t_address,t_uint256))"
      },
      {
        "astId": 11679,
        "contract": "contracts/tokenization/StableDebtToken.sol:StableDebtToken",
        "label": "_avgStableRate",
        "offset": 0,
        "slot": "59",
        "type": "t_uint256"
      },
      {
        "astId": 11683,
        "contract": "contracts/tokenization/StableDebtToken.sol:StableDebtToken",
        "label": "_usersStableRate",
        "offset": 0,
        "slot": "60",
        "type": "t_mapping(t_address,t_uint256)"
      },
      {
        "astId": 11685,
        "contract": "contracts/tokenization/StableDebtToken.sol:StableDebtToken",
        "label": "_totalSupplyTimestamp",
        "offset": 0,
        "slot": "61",
        "type": "t_uint40"
      },
      {
        "astId": 11690,
        "contract": "contracts/tokenization/StableDebtToken.sol:StableDebtToken",
        "label": "_borrowData",
        "offset": 0,
        "slot": "62",
        "type": "t_mapping(t_address,t_struct(BorrowData)9622_storage)"
      },
      {
        "astId": 11693,
        "contract": "contracts/tokenization/StableDebtToken.sol:StableDebtToken",
        "label": "addressResolver",
        "offset": 0,
        "slot": "63",
        "type": "t_contract(AddressResolver)957"
      },
      {
        "astId": 11695,
        "contract": "contracts/tokenization/StableDebtToken.sol:StableDebtToken",
        "label": "underlyingAsset",
        "offset": 0,
        "slot": "64",
        "type": "t_address"
      }
    ],
    "types": {
      "t_address": {
        "encoding": "inplace",
        "label": "address",
        "numberOfBytes": "20"
      },
      "t_array(t_uint256)50_storage": {
        "base": "t_uint256",
        "encoding": "inplace",
        "label": "uint256[50]",
        "numberOfBytes": "1600"
      },
      "t_bool": {
        "encoding": "inplace",
        "label": "bool",
        "numberOfBytes": "1"
      },
      "t_contract(AddressResolver)957": {
        "encoding": "inplace",
        "label": "contract AddressResolver",
        "numberOfBytes": "20"
      },
      "t_mapping(t_address,t_mapping(t_address,t_uint256))": {
        "encoding": "mapping",
        "key": "t_address",
        "label": "mapping(address => mapping(address => uint256))",
        "numberOfBytes": "32",
        "value": "t_mapping(t_address,t_uint256)"
      },
      "t_mapping(t_address,t_struct(BorrowData)9622_storage)": {
        "encoding": "mapping",
        "key": "t_address",
        "label": "mapping(address => struct DataTypes.BorrowData)",
        "numberOfBytes": "32",
        "value": "t_struct(BorrowData)9622_storage"
      },
      "t_mapping(t_address,t_uint256)": {
        "encoding": "mapping",
        "key": "t_address",
        "label": "mapping(address => uint256)",
        "numberOfBytes": "32",
        "value": "t_uint256"
      },
      "t_mapping(t_uint256,t_struct(DrawDown)9634_storage)": {
        "encoding": "mapping",
        "key": "t_uint256",
        "label": "mapping(uint256 => struct DataTypes.DrawDown)",
        "numberOfBytes": "32",
        "value": "t_struct(DrawDown)9634_storage"
      },
      "t_mapping(t_uint256,t_struct(Repayment)9641_storage)": {
        "encoding": "mapping",
        "key": "t_uint256",
        "label": "mapping(uint256 => struct DataTypes.Repayment)",
        "numberOfBytes": "32",
        "value": "t_struct(Repayment)9641_storage"
      },
      "t_mapping(t_uint256,t_uint256)": {
        "encoding": "mapping",
        "key": "t_uint256",
        "label": "mapping(uint256 => uint256)",
        "numberOfBytes": "32",
        "value": "t_uint256"
      },
      "t_string_storage": {
        "encoding": "bytes",
        "label": "string",
        "numberOfBytes": "32"
      },
      "t_struct(BorrowData)9622_storage": {
        "encoding": "inplace",
        "label": "struct DataTypes.BorrowData",
        "members": [
          {
            "astId": 9609,
            "contract": "contracts/tokenization/StableDebtToken.sol:StableDebtToken",
            "label": "drawDownNumber",
            "offset": 0,
            "slot": "0",
            "type": "t_uint256"
          },
          {
            "astId": 9611,
            "contract": "contracts/tokenization/StableDebtToken.sol:StableDebtToken",
            "label": "totalDebt",
            "offset": 0,
            "slot": "1",
            "type": "t_uint256"
          },
          {
            "astId": 9616,
            "contract": "contracts/tokenization/StableDebtToken.sol:StableDebtToken",
            "label": "drawDowns",
            "offset": 0,
            "slot": "2",
            "type": "t_mapping(t_uint256,t_struct(DrawDown)9634_storage)"
          },
          {
            "astId": 9621,
            "contract": "contracts/tokenization/StableDebtToken.sol:StableDebtToken",
            "label": "repayments",
            "offset": 0,
            "slot": "3",
            "type": "t_mapping(t_uint256,t_struct(Repayment)9641_storage)"
          }
        ],
        "numberOfBytes": "128"
      },
      "t_struct(DrawDown)9634_storage": {
        "encoding": "inplace",
        "label": "struct DataTypes.DrawDown",
        "members": [
          {
            "astId": 9624,
            "contract": "contracts/tokenization/StableDebtToken.sol:StableDebtToken",
            "label": "amount",
            "offset": 0,
            "slot": "0",
            "type": "t_uint256"
          },
          {
            "astId": 9626,
            "contract": "contracts/tokenization/StableDebtToken.sol:StableDebtToken",
            "label": "tenure",
            "offset": 0,
            "slot": "1",
            "type": "t_uint256"
          },
          {
            "astId": 9628,
            "contract": "contracts/tokenization/StableDebtToken.sol:StableDebtToken",
            "label": "timestamp",
            "offset": 0,
            "slot": "2",
            "type": "t_uint40"
          },
          {
            "astId": 9630,
            "contract": "contracts/tokenization/StableDebtToken.sol:StableDebtToken",
            "label": "borrowRate",
            "offset": 0,
            "slot": "3",
            "type": "t_uint256"
          },
          {
            "astId": 9633,
            "contract": "contracts/tokenization/StableDebtToken.sol:StableDebtToken",
            "label": "repayment",
            "offset": 0,
            "slot": "4",
            "type": "t_struct(Repayment)9641_storage"
          }
        ],
        "numberOfBytes": "192"
      },
      "t_struct(Repayment)9641_storage": {
        "encoding": "inplace",
        "label": "struct DataTypes.Repayment",
        "members": [
          {
            "astId": 9636,
            "contract": "contracts/tokenization/StableDebtToken.sol:StableDebtToken",
            "label": "totalPaid",
            "offset": 0,
            "slot": "0",
            "type": "t_uint256"
          },
          {
            "astId": 9640,
            "contract": "contracts/tokenization/StableDebtToken.sol:StableDebtToken",
            "label": "repayment",
            "offset": 0,
            "slot": "1",
            "type": "t_mapping(t_uint256,t_uint256)"
          }
        ],
        "numberOfBytes": "64"
      },
      "t_uint256": {
        "encoding": "inplace",
        "label": "uint256",
        "numberOfBytes": "32"
      },
      "t_uint40": {
        "encoding": "inplace",
        "label": "uint40",
        "numberOfBytes": "5"
      },
      "t_uint8": {
        "encoding": "inplace",
        "label": "uint8",
        "numberOfBytes": "1"
      }
    }
  }
}