{
  "address": "0xf56319E39CB77F7E5C6b4E56c5378513F0dB6B07",
  "abi": [
    {
      "anonymous": false,
      "inputs": [
        {
          "indexed": true,
          "internalType": "address",
          "name": "previousOwner",
          "type": "address"
        },
        {
          "indexed": true,
          "internalType": "address",
          "name": "newOwner",
          "type": "address"
        }
      ],
      "name": "OwnershipTransferred",
      "type": "event"
    },
    {
      "anonymous": false,
      "inputs": [
        {
          "indexed": false,
          "internalType": "contract Proxyable",
          "name": "newTarget",
          "type": "address"
        }
      ],
      "name": "TargetUpdated",
      "type": "event"
    },
    {
      "stateMutability": "payable",
      "type": "fallback"
    },
    {
      "inputs": [
        {
          "internalType": "bytes",
          "name": "callData",
          "type": "bytes"
        },
        {
          "internalType": "uint256",
          "name": "numTopics",
          "type": "uint256"
        },
        {
          "internalType": "bytes32",
          "name": "topic1",
          "type": "bytes32"
        },
        {
          "internalType": "bytes32",
          "name": "topic2",
          "type": "bytes32"
        },
        {
          "internalType": "bytes32",
          "name": "topic3",
          "type": "bytes32"
        },
        {
          "internalType": "bytes32",
          "name": "topic4",
          "type": "bytes32"
        }
      ],
      "name": "_emit",
      "outputs": [],
      "stateMutability": "nonpayable",
      "type": "function"
    },
    {
      "inputs": [],
      "name": "claimOwnership",
      "outputs": [],
      "stateMutability": "nonpayable",
      "type": "function"
    },
    {
      "inputs": [],
      "name": "getAllVaults",
      "outputs": [
        {
          "internalType": "address[]",
          "name": "",
          "type": "address[]"
        }
      ],
      "stateMutability": "view",
      "type": "function"
    },
    {
      "inputs": [
        {
          "internalType": "address",
          "name": "_user",
          "type": "address"
        },
        {
          "internalType": "address",
          "name": "_reserve",
          "type": "address"
        }
      ],
      "name": "getAvailableCredit",
      "outputs": [
        {
          "internalType": "uint256",
          "name": "",
          "type": "uint256"
        }
      ],
      "stateMutability": "view",
      "type": "function"
    },
    {
      "inputs": [
        {
          "internalType": "address",
          "name": "_user",
          "type": "address"
        },
        {
          "internalType": "address",
          "name": "_reserve",
          "type": "address"
        }
      ],
      "name": "getCreditLimit",
      "outputs": [
        {
          "internalType": "uint256",
          "name": "",
          "type": "uint256"
        }
      ],
      "stateMutability": "view",
      "type": "function"
    },
    {
      "inputs": [
        {
          "internalType": "address",
          "name": "_user",
          "type": "address"
        }
      ],
      "name": "getGav",
      "outputs": [
        {
          "internalType": "uint256",
          "name": "",
          "type": "uint256"
        }
      ],
      "stateMutability": "view",
      "type": "function"
    },
    {
      "inputs": [
        {
          "internalType": "address",
          "name": "_user",
          "type": "address"
        },
        {
          "internalType": "address",
          "name": "_reserve",
          "type": "address"
        }
      ],
      "name": "getSecurityDeposit",
      "outputs": [
        {
          "internalType": "uint256",
          "name": "",
          "type": "uint256"
        }
      ],
      "stateMutability": "view",
      "type": "function"
    },
    {
      "inputs": [
        {
          "internalType": "address",
          "name": "_user",
          "type": "address"
        }
      ],
      "name": "getVault",
      "outputs": [
        {
          "internalType": "address",
          "name": "",
          "type": "address"
        }
      ],
      "stateMutability": "view",
      "type": "function"
    },
    {
      "inputs": [
        {
          "internalType": "address",
          "name": "_reserve",
          "type": "address"
        }
      ],
      "name": "getVaultConfig",
      "outputs": [
        {
          "components": [
            {
              "internalType": "uint256",
              "name": "minSecurityDeposit",
              "type": "uint256"
            },
            {
              "internalType": "uint256",
              "name": "maxSecurityDeposit",
              "type": "uint256"
            },
            {
              "internalType": "uint256",
              "name": "securityDepositRequirement",
              "type": "uint256"
            }
          ],
          "internalType": "struct DataTypes.VaultConfig",
          "name": "",
          "type": "tuple"
        }
      ],
      "stateMutability": "view",
      "type": "function"
    },
    {
      "inputs": [
        {
          "internalType": "address",
          "name": "_vaultUser",
          "type": "address"
        },
        {
          "internalType": "address",
          "name": "_reserve",
          "type": "address"
        },
        {
          "internalType": "address",
          "name": "_sponsor",
          "type": "address"
        }
      ],
      "name": "getWithdrawableDeposit",
      "outputs": [
        {
          "internalType": "uint256",
          "name": "",
          "type": "uint256"
        }
      ],
      "stateMutability": "view",
      "type": "function"
    },
    {
      "inputs": [],
      "name": "isOwner",
      "outputs": [
        {
          "internalType": "bool",
          "name": "",
          "type": "bool"
        }
      ],
      "stateMutability": "view",
      "type": "function"
    },
    {
      "inputs": [],
      "name": "owner",
      "outputs": [
        {
          "internalType": "address",
          "name": "",
          "type": "address"
        }
      ],
      "stateMutability": "view",
      "type": "function"
    },
    {
      "inputs": [],
      "name": "pendingOwner",
      "outputs": [
        {
          "internalType": "address",
          "name": "",
          "type": "address"
        }
      ],
      "stateMutability": "view",
      "type": "function"
    },
    {
      "inputs": [
        {
          "internalType": "contract Proxyable",
          "name": "_target",
          "type": "address"
        }
      ],
      "name": "setTarget",
      "outputs": [],
      "stateMutability": "nonpayable",
      "type": "function"
    },
    {
      "inputs": [],
      "name": "target",
      "outputs": [
        {
          "internalType": "contract Proxyable",
          "name": "",
          "type": "address"
        }
      ],
      "stateMutability": "view",
      "type": "function"
    },
    {
      "inputs": [
        {
          "internalType": "address",
          "name": "newOwner",
          "type": "address"
        }
      ],
      "name": "transferOwnership",
      "outputs": [],
      "stateMutability": "nonpayable",
      "type": "function"
    }
  ],
  "transactionHash": "0x2585a6d4a3786d755fcf6b14861eeb903856a615facfed5edb44e62c78bcee9f",
  "args": [],
  "numDeployments": 2,
  "solcInputHash": "871331f2b15163ae262450cdbd5935c8",
  "bytecode": "0x608060405234801561001057600080fd5b50600080546001600160a01b0319163390811782556040519091907f8be0079c531659141344cd1fd0a4f28419497f9722a3daafe3b4186f6b6457e0908290a3610ec28061005f6000396000f3fe6080604052600436106100f35760003560e01c8063907dff971161008a578063de1eb9a311610059578063de1eb9a31461033e578063e30c397814610380578063eafe74b5146103a0578063f2fde38b146103c0576100f3565b8063907dff97146102bc57806397331bf9146102dc578063aefa7a08146102fe578063d4b839921461031e576100f3565b80636e19433a116100c65780636e19433a14610231578063776d1a01146102515780638da5cb5b146102715780638f32d59b14610291576100f3565b80630eb9af381461018f5780631a075aae146101cc5780634e71e0c8146101fa5780635db22de614610211575b6002546040517fbc67f8320000000000000000000000000000000000000000000000000000000081523360048201526001600160a01b039091169063bc67f83290602401600060405180830381600087803b15801561015157600080fd5b505af1158015610165573d6000803e3d6000fd5b5050505060405136600082376000803683346002545af13d6000833e8061018a573d82fd5b503d81f35b34801561019b57600080fd5b506101af6101aa366004610b61565b6103e0565b6040516001600160a01b0390911681526020015b60405180910390f35b3480156101d857600080fd5b506101ec6101e7366004610b7e565b61047d565b6040519081526020016101c3565b34801561020657600080fd5b5061020f610524565b005b34801561021d57600080fd5b506101ec61022c366004610b7e565b6105ac565b34801561023d57600080fd5b506101ec61024c366004610bb7565b610600565b34801561025d57600080fd5b5061020f61026c366004610b61565b6106af565b34801561027d57600080fd5b506000546101af906001600160a01b031681565b34801561029d57600080fd5b506000546001600160a01b0316331460405190151581526020016101c3565b3480156102c857600080fd5b5061020f6102d7366004610c02565b61076f565b3480156102e857600080fd5b506102f161087c565b6040516101c39190610c9b565b34801561030a57600080fd5b506101ec610319366004610b61565b61091b565b34801561032a57600080fd5b506002546101af906001600160a01b031681565b34801561034a57600080fd5b5061035e610359366004610b61565b6109b2565b60408051825181526020808401519082015291810151908201526060016101c3565b34801561038c57600080fd5b506001546101af906001600160a01b031681565b3480156103ac57600080fd5b506101ec6103bb366004610b7e565b610a6c565b3480156103cc57600080fd5b5061020f6103db366004610b61565b610ac0565b6002546040517f0eb9af380000000000000000000000000000000000000000000000000000000081526001600160a01b0383811660048301526000921690630eb9af389060240160206040518083038186803b15801561043f57600080fd5b505afa158015610453573d6000803e3d6000fd5b505050506040513d601f19601f820116820180604052508101906104779190610ce8565b92915050565b6002546040517f1a075aae0000000000000000000000000000000000000000000000000000000081526001600160a01b03848116600483015283811660248301526000921690631a075aae906044015b60206040518083038186803b1580156104e557600080fd5b505afa1580156104f9573d6000803e3d6000fd5b505050506040513d601f19601f8201168201806040525081019061051d9190610d05565b9392505050565b6001546001600160a01b0316331461053b57600080fd5b600154600080546040516001600160a01b0393841693909116917f8be0079c531659141344cd1fd0a4f28419497f9722a3daafe3b4186f6b6457e091a3600180546000805473ffffffffffffffffffffffffffffffffffffffff199081166001600160a01b03841617909155169055565b6002546040517f5db22de60000000000000000000000000000000000000000000000000000000081526001600160a01b03848116600483015283811660248301526000921690635db22de6906044016104cd565b6002546040517f6e19433a0000000000000000000000000000000000000000000000000000000081526001600160a01b038581166004830152848116602483015283811660448301526000921690636e19433a9060640160206040518083038186803b15801561066f57600080fd5b505afa158015610683573d6000803e3d6000fd5b505050506040513d601f19601f820116820180604052508101906106a79190610d05565b949350505050565b6000546001600160a01b0316331461070e5760405162461bcd60e51b815260206004820181905260248201527f4f776e61626c653a2063616c6c6572206973206e6f7420746865206f776e657260448201526064015b60405180910390fd5b6002805473ffffffffffffffffffffffffffffffffffffffff19166001600160a01b0383169081179091556040519081527f814250a3b8c79fcbe2ead2c131c952a278491c8f4322a79fe84b5040a810373e9060200160405180910390a150565b6002546001600160a01b031633146107c95760405162461bcd60e51b815260206004820152601460248201527f4d7573742062652070726f7879207461726765740000000000000000000000006044820152606401610705565b604080516020601f89018190048102820181019092528781528791600091908a908490819084018382808284376000920191909152509293508992505081159050610833576001811461083e576002811461084a5760038114610857576004811461086557610870565b8260208301a0610870565b868360208401a1610870565b85878460208501a2610870565b8486888560208601a3610870565b838587898660208701a45b50505050505050505050565b600254604080517f97331bf900000000000000000000000000000000000000000000000000000000815290516060926001600160a01b0316916397331bf9916004808301926000929190829003018186803b1580156108da57600080fd5b505afa1580156108ee573d6000803e3d6000fd5b505050506040513d6000823e601f3d908101601f191682016040526109169190810190610d7e565b905090565b6002546040517faefa7a080000000000000000000000000000000000000000000000000000000081526001600160a01b038381166004830152600092169063aefa7a089060240160206040518083038186803b15801561097a57600080fd5b505afa15801561098e573d6000803e3d6000fd5b505050506040513d601f19601f820116820180604052508101906104779190610d05565b6109d660405180606001604052806000815260200160008152602001600081525090565b6002546040517fde1eb9a30000000000000000000000000000000000000000000000000000000081526001600160a01b0384811660048301529091169063de1eb9a39060240160606040518083038186803b158015610a3457600080fd5b505afa158015610a48573d6000803e3d6000fd5b505050506040513d601f19601f820116820180604052508101906104779190610e30565b6002546040517feafe74b50000000000000000000000000000000000000000000000000000000081526001600160a01b0384811660048301528381166024830152600092169063eafe74b5906044016104cd565b6000546001600160a01b03163314610b1a5760405162461bcd60e51b815260206004820181905260248201527f4f776e61626c653a2063616c6c6572206973206e6f7420746865206f776e65726044820152606401610705565b6001805473ffffffffffffffffffffffffffffffffffffffff19166001600160a01b0392909216919091179055565b6001600160a01b0381168114610b5e57600080fd5b50565b600060208284031215610b7357600080fd5b813561051d81610b49565b60008060408385031215610b9157600080fd5b8235610b9c81610b49565b91506020830135610bac81610b49565b809150509250929050565b600080600060608486031215610bcc57600080fd5b8335610bd781610b49565b92506020840135610be781610b49565b91506040840135610bf781610b49565b809150509250925092565b600080600080600080600060c0888a031215610c1d57600080fd5b873567ffffffffffffffff80821115610c3557600080fd5b818a0191508a601f830112610c4957600080fd5b813581811115610c5857600080fd5b8b6020828501011115610c6a57600080fd5b60209283019c909b50918a01359960408101359950606081013598506080810135975060a001359550909350505050565b6020808252825182820181905260009190848201906040850190845b81811015610cdc5783516001600160a01b031683529284019291840191600101610cb7565b50909695505050505050565b600060208284031215610cfa57600080fd5b815161051d81610b49565b600060208284031215610d1757600080fd5b5051919050565b7f4e487b7100000000000000000000000000000000000000000000000000000000600052604160045260246000fd5b604051601f8201601f1916810167ffffffffffffffff81118282101715610d7657610d76610d1e565b604052919050565b60006020808385031215610d9157600080fd5b825167ffffffffffffffff80821115610da957600080fd5b818501915085601f830112610dbd57600080fd5b815181811115610dcf57610dcf610d1e565b8060051b9150610de0848301610d4d565b8181529183018401918481019088841115610dfa57600080fd5b938501935b83851015610e245784519250610e1483610b49565b8282529385019390850190610dff565b98975050505050505050565b600060608284031215610e4257600080fd5b6040516060810181811067ffffffffffffffff82111715610e6557610e65610d1e565b8060405250825181526020830151602082015260408301516040820152809150509291505056fea2646970667358221220ce7145cb906c491c970da528505f1df78ec2608fca8b8a96921d680acd3ca26664736f6c63430008090033",
  "devdoc": {
    "kind": "dev",
    "methods": {
      "claimOwnership()": {
        "details": "Allows the pendingOwner address to finalize the transfer."
      },
      "isOwner()": {
        "details": "Returns true if the caller is the current owner."
      },
      "transferOwnership(address)": {
        "details": "Allows the current owner to set the pendingOwner address.",
        "params": {
          "newOwner": "The address to transfer ownership to."
        }
      }
    },
    "version": 1
  },
  "userdoc": {
    "kind": "user",
    "methods": {},
    "version": 1
  },
  "storageLayout": {
    "storage": [
      {
        "astId": 9740,
        "contract": "contracts/component/vault/VaultManagerProxy.sol:VaultManagerProxy",
        "label": "owner",
        "offset": 0,
        "slot": "0",
        "type": "t_address"
      },
      {
        "astId": 9742,
        "contract": "contracts/component/vault/VaultManagerProxy.sol:VaultManagerProxy",
        "label": "pendingOwner",
        "offset": 0,
        "slot": "1",
        "type": "t_address"
      },
      {
        "astId": 9847,
        "contract": "contracts/component/vault/VaultManagerProxy.sol:VaultManagerProxy",
        "label": "target",
        "offset": 0,
        "slot": "2",
        "type": "t_contract(Proxyable)10056"
      }
    ],
    "types": {
      "t_address": {
        "encoding": "inplace",
        "label": "address",
        "numberOfBytes": "20"
      },
      "t_contract(Proxyable)10056": {
        "encoding": "inplace",
        "label": "contract Proxyable",
        "numberOfBytes": "20"
      }
    }
  }
}