{
  "address": "0xba3e95d8645de4fF7698efCe1D3E5Aadb7eC53f9",
  "abi": [
    {
      "anonymous": false,
      "inputs": [
        {
          "indexed": true,
          "internalType": "address",
          "name": "previousOwner",
          "type": "address"
        },
        {
          "indexed": true,
          "internalType": "address",
          "name": "newOwner",
          "type": "address"
        }
      ],
      "name": "OwnershipTransferred",
      "type": "event"
    },
    {
      "anonymous": false,
      "inputs": [
        {
          "indexed": false,
          "internalType": "contract Proxyable",
          "name": "newTarget",
          "type": "address"
        }
      ],
      "name": "TargetUpdated",
      "type": "event"
    },
    {
      "stateMutability": "payable",
      "type": "fallback"
    },
    {
      "inputs": [
        {
          "internalType": "bytes",
          "name": "callData",
          "type": "bytes"
        },
        {
          "internalType": "uint256",
          "name": "numTopics",
          "type": "uint256"
        },
        {
          "internalType": "bytes32",
          "name": "topic1",
          "type": "bytes32"
        },
        {
          "internalType": "bytes32",
          "name": "topic2",
          "type": "bytes32"
        },
        {
          "internalType": "bytes32",
          "name": "topic3",
          "type": "bytes32"
        },
        {
          "internalType": "bytes32",
          "name": "topic4",
          "type": "bytes32"
        }
      ],
      "name": "_emit",
      "outputs": [],
      "stateMutability": "nonpayable",
      "type": "function"
    },
    {
      "inputs": [],
      "name": "claimOwnership",
      "outputs": [],
      "stateMutability": "nonpayable",
      "type": "function"
    },
    {
      "inputs": [
        {
          "internalType": "address",
          "name": "_vaultUser",
          "type": "address"
        },
        {
          "internalType": "address",
          "name": "_reserve",
          "type": "address"
        },
        {
          "internalType": "address",
          "name": "_sponsor",
          "type": "address"
        }
      ],
      "name": "eligibleAmount",
      "outputs": [
        {
          "internalType": "uint256",
          "name": "",
          "type": "uint256"
        }
      ],
      "stateMutability": "view",
      "type": "function"
    },
    {
      "inputs": [
        {
          "internalType": "address",
          "name": "_user",
          "type": "address"
        },
        {
          "internalType": "address",
          "name": "_reserve",
          "type": "address"
        }
      ],
      "name": "getCreditLimit",
      "outputs": [
        {
          "internalType": "uint256",
          "name": "",
          "type": "uint256"
        }
      ],
      "stateMutability": "view",
      "type": "function"
    },
    {
      "inputs": [
        {
          "internalType": "address",
          "name": "_reserve",
          "type": "address"
        }
      ],
      "name": "getMaxSecurityDeposit",
      "outputs": [
        {
          "internalType": "uint256",
          "name": "",
          "type": "uint256"
        }
      ],
      "stateMutability": "view",
      "type": "function"
    },
    {
      "inputs": [
        {
          "internalType": "address",
          "name": "_reserve",
          "type": "address"
        }
      ],
      "name": "getSecurityDepositRequirement",
      "outputs": [
        {
          "internalType": "uint256",
          "name": "",
          "type": "uint256"
        }
      ],
      "stateMutability": "view",
      "type": "function"
    },
    {
      "inputs": [
        {
          "internalType": "address",
          "name": "_user",
          "type": "address"
        }
      ],
      "name": "getVault",
      "outputs": [
        {
          "internalType": "address",
          "name": "",
          "type": "address"
        }
      ],
      "stateMutability": "view",
      "type": "function"
    },
    {
      "inputs": [],
      "name": "isOwner",
      "outputs": [
        {
          "internalType": "bool",
          "name": "",
          "type": "bool"
        }
      ],
      "stateMutability": "view",
      "type": "function"
    },
    {
      "inputs": [],
      "name": "owner",
      "outputs": [
        {
          "internalType": "address",
          "name": "",
          "type": "address"
        }
      ],
      "stateMutability": "view",
      "type": "function"
    },
    {
      "inputs": [],
      "name": "pendingOwner",
      "outputs": [
        {
          "internalType": "address",
          "name": "",
          "type": "address"
        }
      ],
      "stateMutability": "view",
      "type": "function"
    },
    {
      "inputs": [
        {
          "internalType": "contract Proxyable",
          "name": "_target",
          "type": "address"
        }
      ],
      "name": "setTarget",
      "outputs": [],
      "stateMutability": "nonpayable",
      "type": "function"
    },
    {
      "inputs": [],
      "name": "target",
      "outputs": [
        {
          "internalType": "contract Proxyable",
          "name": "",
          "type": "address"
        }
      ],
      "stateMutability": "view",
      "type": "function"
    },
    {
      "inputs": [
        {
          "internalType": "address",
          "name": "newOwner",
          "type": "address"
        }
      ],
      "name": "transferOwnership",
      "outputs": [],
      "stateMutability": "nonpayable",
      "type": "function"
    }
  ],
  "transactionHash": "0x805bf38dae634dbcbfb66fec1225a97c8d4c6fdb7695f294f47ef5f9364fafa5",
  "args": [],
  "numDeployments": 1,
  "solcInputHash": "276ea4d8e79ed810d93e460ad3940ca8",
  "bytecode": "0x608060405234801561001057600080fd5b50600080546001600160a01b0319163390811782556040519091907f8be0079c531659141344cd1fd0a4f28419497f9722a3daafe3b4186f6b6457e0908290a3610aad8061005f6000396000f3fe6080604052600436106100d25760003560e01c80638e47b49b1161007f578063d4b8399211610059578063d4b83992146102bb578063e30c3978146102db578063ebe37d79146102fb578063f2fde38b1461031b576100d2565b80638e47b49b146102505780638f32d59b14610270578063907dff971461029b576100d2565b80635db22de6116100b05780635db22de6146101f0578063776d1a01146102105780638da5cb5b14610230576100d2565b80630eb9af381461016e57806310f6c8b5146101ab5780634e71e0c8146101d9575b6002546040517fbc67f8320000000000000000000000000000000000000000000000000000000081523360048201526001600160a01b039091169063bc67f83290602401600060405180830381600087803b15801561013057600080fd5b505af1158015610144573d6000803e3d6000fd5b5050505060405136600082376000803683346002545af13d6000833e80610169573d82fd5b503d81f35b34801561017a57600080fd5b5061018e610189366004610907565b61033b565b6040516001600160a01b0390911681526020015b60405180910390f35b3480156101b757600080fd5b506101cb6101c6366004610907565b6103d8565b6040519081526020016101a2565b3480156101e557600080fd5b506101ee610470565b005b3480156101fc57600080fd5b506101cb61020b366004610924565b6104f8565b34801561021c57600080fd5b506101ee61022b366004610907565b61059e565b34801561023c57600080fd5b5060005461018e906001600160a01b031681565b34801561025c57600080fd5b506101cb61026b366004610907565b61065e565b34801561027c57600080fd5b506000546001600160a01b0316331460405190151581526020016101a2565b3480156102a757600080fd5b506101ee6102b636600461095d565b6106aa565b3480156102c757600080fd5b5060025461018e906001600160a01b031681565b3480156102e757600080fd5b5060015461018e906001600160a01b031681565b34801561030757600080fd5b506101cb6103163660046109f6565b6107b7565b34801561032757600080fd5b506101ee610336366004610907565b610866565b6002546040517f0eb9af380000000000000000000000000000000000000000000000000000000081526001600160a01b0383811660048301526000921690630eb9af389060240160206040518083038186803b15801561039a57600080fd5b505afa1580156103ae573d6000803e3d6000fd5b505050506040513d601f19601f820116820180604052508101906103d29190610a41565b92915050565b6002546040517f10f6c8b50000000000000000000000000000000000000000000000000000000081526001600160a01b03838116600483015260009216906310f6c8b5906024015b60206040518083038186803b15801561043857600080fd5b505afa15801561044c573d6000803e3d6000fd5b505050506040513d601f19601f820116820180604052508101906103d29190610a5e565b6001546001600160a01b0316331461048757600080fd5b600154600080546040516001600160a01b0393841693909116917f8be0079c531659141344cd1fd0a4f28419497f9722a3daafe3b4186f6b6457e091a3600180546000805473ffffffffffffffffffffffffffffffffffffffff199081166001600160a01b03841617909155169055565b6002546040517f5db22de60000000000000000000000000000000000000000000000000000000081526001600160a01b03848116600483015283811660248301526000921690635db22de69060440160206040518083038186803b15801561055f57600080fd5b505afa158015610573573d6000803e3d6000fd5b505050506040513d601f19601f820116820180604052508101906105979190610a5e565b9392505050565b6000546001600160a01b031633146105fd5760405162461bcd60e51b815260206004820181905260248201527f4f776e61626c653a2063616c6c6572206973206e6f7420746865206f776e657260448201526064015b60405180910390fd5b6002805473ffffffffffffffffffffffffffffffffffffffff19166001600160a01b0383169081179091556040519081527f814250a3b8c79fcbe2ead2c131c952a278491c8f4322a79fe84b5040a810373e9060200160405180910390a150565b6002546040517f8e47b49b0000000000000000000000000000000000000000000000000000000081526001600160a01b0383811660048301526000921690638e47b49b90602401610420565b6002546001600160a01b031633146107045760405162461bcd60e51b815260206004820152601460248201527f4d7573742062652070726f78792074617267657400000000000000000000000060448201526064016105f4565b604080516020601f89018190048102820181019092528781528791600091908a90849081908401838280828437600092019190915250929350899250508115905061076e57600181146107795760028114610785576003811461079257600481146107a0576107ab565b8260208301a06107ab565b868360208401a16107ab565b85878460208501a26107ab565b8486888560208601a36107ab565b838587898660208701a45b50505050505050505050565b6002546040517febe37d790000000000000000000000000000000000000000000000000000000081526001600160a01b03858116600483015284811660248301528381166044830152600092169063ebe37d799060640160206040518083038186803b15801561082657600080fd5b505afa15801561083a573d6000803e3d6000fd5b505050506040513d601f19601f8201168201806040525081019061085e9190610a5e565b949350505050565b6000546001600160a01b031633146108c05760405162461bcd60e51b815260206004820181905260248201527f4f776e61626c653a2063616c6c6572206973206e6f7420746865206f776e657260448201526064016105f4565b6001805473ffffffffffffffffffffffffffffffffffffffff19166001600160a01b0392909216919091179055565b6001600160a01b038116811461090457600080fd5b50565b60006020828403121561091957600080fd5b8135610597816108ef565b6000806040838503121561093757600080fd5b8235610942816108ef565b91506020830135610952816108ef565b809150509250929050565b600080600080600080600060c0888a03121561097857600080fd5b873567ffffffffffffffff8082111561099057600080fd5b818a0191508a601f8301126109a457600080fd5b8135818111156109b357600080fd5b8b60208285010111156109c557600080fd5b60209283019c909b50918a01359960408101359950606081013598506080810135975060a001359550909350505050565b600080600060608486031215610a0b57600080fd5b8335610a16816108ef565b92506020840135610a26816108ef565b91506040840135610a36816108ef565b809150509250925092565b600060208284031215610a5357600080fd5b8151610597816108ef565b600060208284031215610a7057600080fd5b505191905056fea264697066735822122016016108649aa03a47e375ab2a9c71b052606901d9e841ef7cdf70acee2a29b364736f6c63430008090033",
  "devdoc": {
    "kind": "dev",
    "methods": {
      "claimOwnership()": {
        "details": "Allows the pendingOwner address to finalize the transfer."
      },
      "isOwner()": {
        "details": "Returns true if the caller is the current owner."
      },
      "transferOwnership(address)": {
        "details": "Allows the current owner to set the pendingOwner address.",
        "params": {
          "newOwner": "The address to transfer ownership to."
        }
      }
    },
    "version": 1
  },
  "userdoc": {
    "kind": "user",
    "methods": {},
    "version": 1
  },
  "storageLayout": {
    "storage": [
      {
        "astId": 8741,
        "contract": "contracts/component/vault/VaultManagerProxy.sol:VaultManagerProxy",
        "label": "owner",
        "offset": 0,
        "slot": "0",
        "type": "t_address"
      },
      {
        "astId": 8743,
        "contract": "contracts/component/vault/VaultManagerProxy.sol:VaultManagerProxy",
        "label": "pendingOwner",
        "offset": 0,
        "slot": "1",
        "type": "t_address"
      },
      {
        "astId": 8848,
        "contract": "contracts/component/vault/VaultManagerProxy.sol:VaultManagerProxy",
        "label": "target",
        "offset": 0,
        "slot": "2",
        "type": "t_contract(Proxyable)9057"
      }
    ],
    "types": {
      "t_address": {
        "encoding": "inplace",
        "label": "address",
        "numberOfBytes": "20"
      },
      "t_contract(Proxyable)9057": {
        "encoding": "inplace",
        "label": "contract Proxyable",
        "numberOfBytes": "20"
      }
    }
  }
}