{
  "address": "0xd9E4836D6F7Be5a50fcA1858C09351cd589B9B1a",
  "abi": [
    {
      "inputs": [
        {
          "internalType": "address",
          "name": "owner",
          "type": "address"
        },
        {
          "internalType": "address",
          "name": "voyage",
          "type": "address"
        },
        {
          "internalType": "bytes32",
          "name": "salt",
          "type": "bytes32"
        }
      ],
      "name": "createVault",
      "outputs": [
        {
          "internalType": "address",
          "name": "",
          "type": "address"
        }
      ],
      "stateMutability": "nonpayable",
      "type": "function"
    }
  ],
  "transactionHash": "0xa11eb7c9520db2ae4571e38ccd0c5dc44d737fcb33660f28d0970323a8706e92",
  "args": [],
  "numDeployments": 1,
  "solcInputHash": "69865adbcb28e0ed9c987fbab724fb9c",
  "bytecode": "0x608060405234801561001057600080fd5b506158f4806100206000396000f3fe60806040523480156200001157600080fd5b50600436106200002e5760003560e01c80631008df281462000033575b600080fd5b6200004a620000443660046200026d565b62000073565b60405173ffffffffffffffffffffffffffffffffffffffff909116815260200160405180910390f35b60008060405180602001620000889062000235565b601f1982820381018352601f90910116604081815273ffffffffffffffffffffffffffffffffffffffff8089166020840152871690820152909150600090829060600160408051601f1981840301815290829052620000eb9291602001620002ec565b60405160208183030381529060405290506200010a6000858362000114565b9695505050505050565b600080844710156200016d5760405162461bcd60e51b815260206004820152601d60248201527f437265617465323a20696e73756666696369656e742062616c616e636500000060448201526064015b60405180910390fd5b8251620001bd5760405162461bcd60e51b815260206004820181905260248201527f437265617465323a2062797465636f6465206c656e677468206973207a65726f604482015260640162000164565b8383516020850187f5905073ffffffffffffffffffffffffffffffffffffffff81166200022d5760405162461bcd60e51b815260206004820152601960248201527f437265617465323a204661696c6564206f6e206465706c6f7900000000000000604482015260640162000164565b949350505050565b6155b9806200030683390190565b803573ffffffffffffffffffffffffffffffffffffffff811681146200026857600080fd5b919050565b6000806000606084860312156200028357600080fd5b6200028e8462000243565b92506200029e6020850162000243565b9150604084013590509250925092565b6000815160005b81811015620002d15760208185018101518683015201620002b5565b81811115620002e1576000828601525b509290920192915050565b60006200022d620002fe8386620002ae565b84620002ae56fe60806040523480156200001157600080fd5b50604051620055b9380380620055b98339810160408190526200003491620015b5565b806200004b816200015f60201b620000c81760201c565b620000e46040516200005d906200156e565b604051809103906000f0801580156200007a573d6000803e3d6000fd5b5060405162000089906200157c565b604051809103906000f080158015620000a6573d6000803e3d6000fd5b50604051620000b5906200158a565b604051809103906000f080158015620000d2573d6000803e3d6000fd5b50620001e360201b6200016a1760201c565b5080620000fb6200055660201b620005301760201c565b60010160006101000a8154816001600160a01b0302191690836001600160a01b0316021790555081620001386200055660201b620005301760201c565b80546001600160a01b0319166001600160a01b039290921691909117905550620018409050565b7fc8fcad8db84d3cc18b4c41d551ea0ee66dd599cde068d998e57d5e09332c132080546001600160a01b031981166001600160a01b038481169182179093556040516000805160206200550d833981519152939092169182907f8be0079c531659141344cd1fd0a4f28419497f9722a3daafe3b4186f6b6457e090600090a3505050565b60408051600380825260808201909252600091816020015b60408051606080820183526000808352602083015291810191909152815260200190600190039081620001fb5750506040805160018082528183019092529192506000919060208083019080368337019050509050631f931c1c60e01b816000815181106200026e576200026e620015ed565b6001600160e01b031990921660209283029190910182015260408051606081019091526001600160a01b0387168152908101600081526020018281525082600081518110620002c157620002c1620015ed565b602090810291909101015260408051600580825260c0820190925290816020016020820280368337019050509050637a0ed62760e01b816000815181106200030d576200030d620015ed565b6001600160e01b03199092166020928302919091019091015280516356fe50af60e11b9082906001908110620003475762000347620015ed565b6001600160e01b03199092166020928302919091019091015280516314bbdacb60e21b9082906002908110620003815762000381620015ed565b6001600160e01b03199092166020928302919091019091015280516366ffd66360e11b9082906003908110620003bb57620003bb620015ed565b6001600160e01b03199092166020928302919091019091015280516301ffc9a760e01b9082906004908110620003f557620003f5620015ed565b6001600160e01b031990921660209283029190910182015260408051606081019091526001600160a01b0386168152908101600081526020018281525082600181518110620004485762000448620015ed565b6020908102919091010152604080516002808252606082019092529081602001602082028036833701905050905063f2fde38b60e01b81600081518110620004945762000494620015ed565b6001600160e01b0319909216602092830291909101909101528051638da5cb5b60e01b9082906001908110620004ce57620004ce620015ed565b6001600160e01b031990921660209283029190910182015260408051606081019091526001600160a01b0385168152908101600081526020018281525082600281518110620005215762000521620015ed565b60200260200101819052506200054f826000604051806020016040528060008152506200057a60201b60201c565b5050505050565b7f6b66fb191a0c2858702608aa0de6da89e2207d9c2c8550be7b1fc507d6ae749990565b60005b8351811015620007895760008482815181106200059e576200059e620015ed565b602002602001015160200151905060006002811115620005c257620005c262001603565b816002811115620005d757620005d762001603565b1415620006365762000630858381518110620005f757620005f7620015ed565b602002602001015160000151868481518110620006185762000618620015ed565b602002602001015160400151620007d860201b60201c565b62000773565b60018160028111156200064d576200064d62001603565b1415620006a657620006308583815181106200066d576200066d620015ed565b6020026020010151600001518684815181106200068e576200068e620015ed565b60200260200101516040015162000ab960201b60201c565b6002816002811115620006bd57620006bd62001603565b1415620007165762000630858381518110620006dd57620006dd620015ed565b602002602001015160000151868481518110620006fe57620006fe620015ed565b60200260200101516040015162000dbe60201b60201c565b60405162461bcd60e51b815260206004820152602760248201527f4c69624469616d6f6e644375743a20496e636f727265637420466163657443756044820152663a20b1ba34b7b760c91b60648201526084015b60405180910390fd5b508062000780816200162f565b9150506200057d565b507f8faa70878671ccd212d20771b795c50af8fd3ff6cf27f4bde57e5d4de0aeb673838383604051620007bf93929190620016aa565b60405180910390a1620007d3828262000f23565b505050565b60008151116200082e5760405162461bcd60e51b815260206004820152602b60248201526000805160206200559983398151915260448201526a1858d95d081d1bc818dd5d60aa1b60648201526084016200076a565b6000805160206200550d8339815191526001600160a01b0383166200089a5760405162461bcd60e51b815260206004820152602c60248201526000805160206200555583398151915260448201526b65206164647265737328302960a01b60648201526084016200076a565b6001600160a01b038316600090815260018201602052604090205461ffff81166200094057620008e484604051806060016040528060248152602001620055756024913962001142565b6002820180546001600160a01b038616600081815260018087016020908152604083208201805461ffff191661ffff90961695909517909455845490810185559381529190912090910180546001600160a01b03191690911790555b60005b83518110156200054f576000848281518110620009645762000964620015ed565b6020908102919091018101516001600160e01b031981166000908152918690526040909120549091506001600160a01b0316801562000a0c5760405162461bcd60e51b815260206004820152603560248201527f4c69624469616d6f6e644375743a2043616e2774206164642066756e6374696f60448201527f6e207468617420616c726561647920657869737473000000000000000000000060648201526084016200076a565b6001600160a01b03871660008181526001878101602090815260408084208054938401815584528184206008840401805463ffffffff60079095166004026101000a948502191660e089901c94909402939093179092556001600160e01b031986168352889052902080546001600160b01b031916909117600160a01b61ffff8716021790558362000a9e81620017b1565b9450505050808062000ab0906200162f565b91505062000943565b600081511162000b0f5760405162461bcd60e51b815260206004820152602b60248201526000805160206200559983398151915260448201526a1858d95d081d1bc818dd5d60aa1b60648201526084016200076a565b6000805160206200550d8339815191526001600160a01b03831662000b7b5760405162461bcd60e51b815260206004820152602c60248201526000805160206200555583398151915260448201526b65206164647265737328302960a01b60648201526084016200076a565b6001600160a01b038316600090815260018201602052604090205461ffff811662000c215762000bc584604051806060016040528060248152602001620055756024913962001142565b6002820180546001600160a01b038616600081815260018087016020908152604083208201805461ffff191661ffff90961695909517909455845490810185559381529190912090910180546001600160a01b03191690911790555b60005b83518110156200054f57600084828151811062000c455762000c45620015ed565b6020908102919091018101516001600160e01b031981166000908152918690526040909120549091506001600160a01b0390811690871681141562000cf35760405162461bcd60e51b815260206004820152603860248201527f4c69624469616d6f6e644375743a2043616e2774207265706c6163652066756e60448201527f6374696f6e20776974682073616d652066756e6374696f6e000000000000000060648201526084016200076a565b62000cff818362001166565b6001600160e01b03198216600081815260208781526040808320805461ffff60a01b1916600160a01b61ffff8b16021781556001600160a01b038c168085526001808c0185529285208054938401815585528385206008840401805463ffffffff60079095166004026101000a948502191660e08a901c94909402939093179092559390925287905281546001600160a01b0319161790558362000da381620017b1565b9450505050808062000db5906200162f565b91505062000c24565b600081511162000e145760405162461bcd60e51b815260206004820152602b60248201526000805160206200559983398151915260448201526a1858d95d081d1bc818dd5d60aa1b60648201526084016200076a565b6000805160206200550d8339815191526001600160a01b0383161562000ea35760405162461bcd60e51b815260206004820152603660248201527f4c69624469616d6f6e644375743a2052656d6f7665206661636574206164647260448201527f657373206d75737420626520616464726573732830290000000000000000000060648201526084016200076a565b60005b825181101562000f1d57600083828151811062000ec75762000ec7620015ed565b6020908102919091018101516001600160e01b031981166000908152918590526040909120549091506001600160a01b031662000f05818362001166565b5050808062000f14906200162f565b91505062000ea6565b50505050565b6001600160a01b03821662000fad5780511562000fa95760405162461bcd60e51b815260206004820152603c60248201527f4c69624469616d6f6e644375743a205f696e697420697320616464726573732860448201527f3029206275745f63616c6c64617461206973206e6f7420656d7074790000000060648201526084016200076a565b5050565b6000815111620010265760405162461bcd60e51b815260206004820152603d60248201527f4c69624469616d6f6e644375743a205f63616c6c6461746120697320656d707460448201527f7920627574205f696e6974206973206e6f74206164647265737328302900000060648201526084016200076a565b6001600160a01b03821630146200105c576200105c826040518060600160405280602881526020016200552d6028913962001142565b600080836001600160a01b031683604051620010799190620017d6565b600060405180830381855af49150503d8060008114620010b6576040519150601f19603f3d011682016040523d82523d6000602084013e620010bb565b606091505b50915091508162000f1d57805115620010ea578060405162461bcd60e51b81526004016200076a9190620017f4565b60405162461bcd60e51b815260206004820152602660248201527f4c69624469616d6f6e644375743a205f696e69742066756e6374696f6e2072656044820152651d995c9d195960d21b60648201526084016200076a565b813b818162000f1d5760405162461bcd60e51b81526004016200076a9190620017f4565b6000805160206200550d8339815191526001600160a01b038316620011f45760405162461bcd60e51b815260206004820152603760248201527f4c69624469616d6f6e644375743a2043616e27742072656d6f76652066756e6360448201527f74696f6e207468617420646f65736e277420657869737400000000000000000060648201526084016200076a565b6001600160a01b038316301415620012665760405162461bcd60e51b815260206004820152602e60248201527f4c69624469616d6f6e644375743a2043616e27742072656d6f766520696d6d7560448201526d3a30b1363290333ab731ba34b7b760911b60648201526084016200076a565b6001600160e01b03198216600090815260208281526040808320546001600160a01b0387168452600180860190935290832054600160a01b90910461ffff169291620012b29162001810565b9050808214620013a5576001600160a01b03851660009081526001840160205260408120805483908110620012eb57620012eb620015ed565b600091825260208083206008830401546001600160a01b038a168452600188019091526040909220805460079092166004026101000a90920460e01b9250829190859081106200133f576200133f620015ed565b600091825260208083206008830401805463ffffffff60079094166004026101000a938402191660e09590951c929092029390931790556001600160e01b031992909216825284905260409020805461ffff60a01b1916600160a01b61ffff8516021790555b6001600160a01b03851660009081526001840160205260409020805480620013d157620013d16200182a565b60008281526020808220600860001990940193840401805463ffffffff600460078716026101000a0219169055919092556001600160e01b0319861682528490526040902080546001600160b01b0319169055806200054f576002830154600090620014409060019062001810565b6001600160a01b038716600090815260018087016020526040909120015490915061ffff1680821462001506576000856002018381548110620014875762001487620015ed565b6000918252602090912001546002870180546001600160a01b039092169250829184908110620014bb57620014bb620015ed565b600091825260208083209190910180546001600160a01b0319166001600160a01b0394851617905592909116815260018781019092526040902001805461ffff191661ffff83161790555b846002018054806200151c576200151c6200182a565b60008281526020808220830160001990810180546001600160a01b03191690559092019092556001600160a01b03891682526001878101909152604090912001805461ffff1916905550505050505050565b61184480620031b083390190565b61082380620049f483390190565b6102f6806200521783390190565b80516001600160a01b0381168114620015b057600080fd5b919050565b60008060408385031215620015c957600080fd5b620015d48362001598565b9150620015e46020840162001598565b90509250929050565b634e487b7160e01b600052603260045260246000fd5b634e487b7160e01b600052602160045260246000fd5b634e487b7160e01b600052601160045260246000fd5b600060001982141562001646576200164662001619565b5060010190565b60005b838110156200166a57818101518382015260200162001650565b8381111562000f1d5750506000910152565b60008151808452620016968160208601602086016200164d565b601f01601f19169290920160200192915050565b60006060808301818452808751808352608092508286019150828160051b8701016020808b0160005b848110156200177f57898403607f19018652815180516001600160a01b031685528381015189860190600381106200171b57634e487b7160e01b600052602160045260246000fd5b868601526040918201519186018a905281519081905290840190600090898701905b80831015620017695783516001600160e01b03191682529286019260019290920191908601906200173d565b50978501979550505090820190600101620016d3565b50506001600160a01b038a16908801528681036040880152620017a381896200167c565b9a9950505050505050505050565b600061ffff80831681811415620017cc57620017cc62001619565b6001019392505050565b60008251620017ea8184602087016200164d565b9190910192915050565b6020815260006200180960208301846200167c565b9392505050565b60008282101562001825576200182562001619565b500390565b634e487b7160e01b600052603160045260246000fd5b61196080620018506000396000f3fe60806040523661000b57005b600080356001600160e01b03191681527fc8fcad8db84d3cc18b4c41d551ea0ee66dd599cde068d998e57d5e09332c131c602081905260409091205481906001600160a01b0316806100a45760405162461bcd60e51b815260206004820181905260248201527f4469616d6f6e643a2046756e6374696f6e20646f6573206e6f7420657869737460448201526064015b60405180910390fd5b3660008037600080366000845af43d6000803e8080156100c3573d6000f35b3d6000fd5b7fc8fcad8db84d3cc18b4c41d551ea0ee66dd599cde068d998e57d5e09332c1320805473ffffffffffffffffffffffffffffffffffffffff1981166001600160a01b038481169182179093556040517fc8fcad8db84d3cc18b4c41d551ea0ee66dd599cde068d998e57d5e09332c131c939092169182907f8be0079c531659141344cd1fd0a4f28419497f9722a3daafe3b4186f6b6457e090600090a3505050565b60408051600380825260808201909252600091816020015b604080516060808201835260008083526020830152918101919091528152602001906001900390816101825750506040805160018082528183019092529192506000919060208083019080368337019050509050631f931c1c60e01b816000815181106101f1576101f1611669565b6001600160e01b031990921660209283029190910182015260408051606081019091526001600160a01b038716815290810160008152602001828152508260008151811061024157610241611669565b602090810291909101015260408051600580825260c0820190925290816020016020820280368337019050509050637a0ed62760e01b8160008151811061028a5761028a611669565b6001600160e01b03199092166020928302919091019091015280517fadfca15e0000000000000000000000000000000000000000000000000000000090829060019081106102da576102da611669565b6001600160e01b03199092166020928302919091019091015280517f52ef6b2c00000000000000000000000000000000000000000000000000000000908290600290811061032a5761032a611669565b6001600160e01b03199092166020928302919091019091015280517fcdffacc600000000000000000000000000000000000000000000000000000000908290600390811061037a5761037a611669565b6001600160e01b03199092166020928302919091019091015280517f01ffc9a70000000000000000000000000000000000000000000000000000000090829060049081106103ca576103ca611669565b6001600160e01b031990921660209283029190910182015260408051606081019091526001600160a01b038616815290810160008152602001828152508260018151811061041a5761041a611669565b6020908102919091010152604080516002808252606082019092529081602001602082028036833701905050905063f2fde38b60e01b8160008151811061046357610463611669565b6001600160e01b03199092166020928302919091019091015280517f8da5cb5b0000000000000000000000000000000000000000000000000000000090829060019081106104b3576104b3611669565b6001600160e01b031990921660209283029190910182015260408051606081019091526001600160a01b038516815290810160008152602001828152508260028151811061050357610503611669565b602002602001018190525061052982600060405180602001604052806000815250610554565b5050505050565b7f6b66fb191a0c2858702608aa0de6da89e2207d9c2c8550be7b1fc507d6ae749990565b60005b835181101561073357600084828151811061057457610574611669565b6020026020010151602001519050600060028111156105955761059561167f565b8160028111156105a7576105a761167f565b14156105f6576105f18583815181106105c2576105c2611669565b6020026020010151600001518684815181106105e0576105e0611669565b60200260200101516040015161077e565b610720565b600181600281111561060a5761060a61167f565b1415610654576105f185838151811061062557610625611669565b60200260200101516000015186848151811061064357610643611669565b602002602001015160400151610ac7565b60028160028111156106685761066861167f565b14156106b2576105f185838151811061068357610683611669565b6020026020010151600001518684815181106106a1576106a1611669565b602002602001015160400151610e41565b60405162461bcd60e51b815260206004820152602760248201527f4c69624469616d6f6e644375743a20496e636f7272656374204661636574437560448201527f74416374696f6e00000000000000000000000000000000000000000000000000606482015260840161009b565b508061072b816116ab565b915050610557565b507f8faa70878671ccd212d20771b795c50af8fd3ff6cf27f4bde57e5d4de0aeb6738383836040516107679392919061173c565b60405180910390a16107798282610fcd565b505050565b60008151116107f55760405162461bcd60e51b815260206004820152602b60248201527f4c69624469616d6f6e644375743a204e6f2073656c6563746f727320696e206660448201527f6163657420746f20637574000000000000000000000000000000000000000000606482015260840161009b565b7fc8fcad8db84d3cc18b4c41d551ea0ee66dd599cde068d998e57d5e09332c131c6001600160a01b0383166108925760405162461bcd60e51b815260206004820152602c60248201527f4c69624469616d6f6e644375743a204164642066616365742063616e2774206260448201527f6520616464726573732830290000000000000000000000000000000000000000606482015260840161009b565b6001600160a01b038316600090815260018201602052604090205461ffff8116610941576108d884604051806060016040528060248152602001611907602491396111f1565b6002820180546001600160a01b038616600081815260018087016020908152604083208201805461ffff191661ffff909616959095179094558454908101855593815291909120909101805473ffffffffffffffffffffffffffffffffffffffff191690911790555b60005b835181101561052957600084828151811061096157610961611669565b6020908102919091018101516001600160e01b031981166000908152918690526040909120549091506001600160a01b03168015610a075760405162461bcd60e51b815260206004820152603560248201527f4c69624469616d6f6e644375743a2043616e2774206164642066756e6374696f60448201527f6e207468617420616c7265616479206578697374730000000000000000000000606482015260840161009b565b6001600160a01b03871660008181526001878101602090815260408084208054938401815584528184206008840401805463ffffffff60079095166004026101000a948502191660e089901c94909402939093179092556001600160e01b031986168352889052902080547fffffffffffffffffffff0000000000000000000000000000000000000000000016909117600160a01b61ffff87160217905583610aaf81611859565b94505050508080610abf906116ab565b915050610944565b6000815111610b3e5760405162461bcd60e51b815260206004820152602b60248201527f4c69624469616d6f6e644375743a204e6f2073656c6563746f727320696e206660448201527f6163657420746f20637574000000000000000000000000000000000000000000606482015260840161009b565b7fc8fcad8db84d3cc18b4c41d551ea0ee66dd599cde068d998e57d5e09332c131c6001600160a01b038316610bdb5760405162461bcd60e51b815260206004820152602c60248201527f4c69624469616d6f6e644375743a204164642066616365742063616e2774206260448201527f6520616464726573732830290000000000000000000000000000000000000000606482015260840161009b565b6001600160a01b038316600090815260018201602052604090205461ffff8116610c8a57610c2184604051806060016040528060248152602001611907602491396111f1565b6002820180546001600160a01b038616600081815260018087016020908152604083208201805461ffff191661ffff909616959095179094558454908101855593815291909120909101805473ffffffffffffffffffffffffffffffffffffffff191690911790555b60005b8351811015610529576000848281518110610caa57610caa611669565b6020908102919091018101516001600160e01b031981166000908152918690526040909120549091506001600160a01b03908116908716811415610d565760405162461bcd60e51b815260206004820152603860248201527f4c69624469616d6f6e644375743a2043616e2774207265706c6163652066756e60448201527f6374696f6e20776974682073616d652066756e6374696f6e0000000000000000606482015260840161009b565b610d608183611212565b6001600160e01b0319821660008181526020878152604080832080547fffffffffffffffffffff0000ffffffffffffffffffffffffffffffffffffffff16600160a01b61ffff8b16021781556001600160a01b038c168085526001808c0185529285208054938401815585528385206008840401805463ffffffff60079095166004026101000a948502191660e08a901c949094029390931790925593909252879052815473ffffffffffffffffffffffffffffffffffffffff191617905583610e2981611859565b94505050508080610e39906116ab565b915050610c8d565b6000815111610eb85760405162461bcd60e51b815260206004820152602b60248201527f4c69624469616d6f6e644375743a204e6f2073656c6563746f727320696e206660448201527f6163657420746f20637574000000000000000000000000000000000000000000606482015260840161009b565b7fc8fcad8db84d3cc18b4c41d551ea0ee66dd599cde068d998e57d5e09332c131c6001600160a01b03831615610f565760405162461bcd60e51b815260206004820152603660248201527f4c69624469616d6f6e644375743a2052656d6f7665206661636574206164647260448201527f657373206d757374206265206164647265737328302900000000000000000000606482015260840161009b565b60005b8251811015610fc7576000838281518110610f7657610f76611669565b6020908102919091018101516001600160e01b031981166000908152918590526040909120549091506001600160a01b0316610fb28183611212565b50508080610fbf906116ab565b915050610f59565b50505050565b6001600160a01b038216611054578051156110505760405162461bcd60e51b815260206004820152603c60248201527f4c69624469616d6f6e644375743a205f696e697420697320616464726573732860448201527f3029206275745f63616c6c64617461206973206e6f7420656d70747900000000606482015260840161009b565b5050565b60008151116110cb5760405162461bcd60e51b815260206004820152603d60248201527f4c69624469616d6f6e644375743a205f63616c6c6461746120697320656d707460448201527f7920627574205f696e6974206973206e6f742061646472657373283029000000606482015260840161009b565b6001600160a01b03821630146110fd576110fd826040518060600160405280602881526020016118df602891396111f1565b600080836001600160a01b031683604051611118919061187b565b600060405180830381855af49150503d8060008114611153576040519150601f19603f3d011682016040523d82523d6000602084013e611158565b606091505b509150915081610fc757805115611183578060405162461bcd60e51b815260040161009b9190611897565b60405162461bcd60e51b815260206004820152602660248201527f4c69624469616d6f6e644375743a205f696e69742066756e6374696f6e20726560448201527f7665727465640000000000000000000000000000000000000000000000000000606482015260840161009b565b813b8181610fc75760405162461bcd60e51b815260040161009b9190611897565b7fc8fcad8db84d3cc18b4c41d551ea0ee66dd599cde068d998e57d5e09332c131c6001600160a01b0383166112af5760405162461bcd60e51b815260206004820152603760248201527f4c69624469616d6f6e644375743a2043616e27742072656d6f76652066756e6360448201527f74696f6e207468617420646f65736e2774206578697374000000000000000000606482015260840161009b565b6001600160a01b03831630141561132e5760405162461bcd60e51b815260206004820152602e60248201527f4c69624469616d6f6e644375743a2043616e27742072656d6f766520696d6d7560448201527f7461626c652066756e6374696f6e000000000000000000000000000000000000606482015260840161009b565b6001600160e01b03198216600090815260208281526040808320546001600160a01b0387168452600180860190935290832054600160a01b90910461ffff169291611378916118b1565b905080821461147e576001600160a01b038516600090815260018401602052604081208054839081106113ad576113ad611669565b600091825260208083206008830401546001600160a01b038a168452600188019091526040909220805460079092166004026101000a90920460e01b9250829190859081106113fe576113fe611669565b600091825260208083206008830401805463ffffffff60079094166004026101000a938402191660e09590951c929092029390931790556001600160e01b03199290921682528490526040902080547fffffffffffffffffffff0000ffffffffffffffffffffffffffffffffffffffff16600160a01b61ffff8516021790555b6001600160a01b038516600090815260018401602052604090208054806114a7576114a76118c8565b60008281526020808220600860001990940193840401805463ffffffff600460078716026101000a0219169055919092556001600160e01b0319861682528490526040902080547fffffffffffffffffffff000000000000000000000000000000000000000000001690558061052957600283015460009061152b906001906118b1565b6001600160a01b038716600090815260018087016020526040909120015490915061ffff168082146115f757600085600201838154811061156e5761156e611669565b6000918252602090912001546002870180546001600160a01b03909216925082918490811061159f5761159f611669565b6000918252602080832091909101805473ffffffffffffffffffffffffffffffffffffffff19166001600160a01b0394851617905592909116815260018781019092526040902001805461ffff191661ffff83161790555b8460020180548061160a5761160a6118c8565b600082815260208082208301600019908101805473ffffffffffffffffffffffffffffffffffffffff191690559092019092556001600160a01b03891682526001878101909152604090912001805461ffff1916905550505050505050565b634e487b7160e01b600052603260045260246000fd5b634e487b7160e01b600052602160045260246000fd5b634e487b7160e01b600052601160045260246000fd5b60006000198214156116bf576116bf611695565b5060010190565b60005b838110156116e15781810151838201526020016116c9565b83811115610fc75750506000910152565b6000815180845261170a8160208601602086016116c6565b601f017fffffffffffffffffffffffffffffffffffffffffffffffffffffffffffffffe0169290920160200192915050565b60006060808301818452808751808352608092508286019150828160051b8701016020808b0160005b84811015611829577fffffffffffffffffffffffffffffffffffffffffffffffffffffffffffffff808a850301865281518885016001600160a01b03825116865284820151600381106117c857634e487b7160e01b600052602160045260246000fd5b868601526040918201519186018a905281519081905290840190600090898701905b808310156118145783516001600160e01b03191682529286019260019290920191908601906117ea565b50978501979550505090820190600101611765565b50506001600160a01b038a1690880152868103604088015261184b81896116f2565b9a9950505050505050505050565b600061ffff8083168181141561187157611871611695565b6001019392505050565b6000825161188d8184602087016116c6565b9190910192915050565b6020815260006118aa60208301846116f2565b9392505050565b6000828210156118c3576118c3611695565b500390565b634e487b7160e01b600052603160045260246000fdfe4c69624469616d6f6e644375743a205f696e6974206164647265737320686173206e6f20636f64654c69624469616d6f6e644375743a204e657720666163657420686173206e6f20636f6465a2646970667358221220779dc9d41ad22c8aa2cc954a2efaf782a27ede4c982c2894486e461515216c1664736f6c63430008090033608060405234801561001057600080fd5b50611824806100206000396000f3fe608060405234801561001057600080fd5b506004361061002b5760003560e01c80631f931c1c14610030575b600080fd5b61004361003e3660046112c1565b610045565b005b61004d61009e565b61009761005a8587611407565b8484848080601f01602080910402602001604051908101604052809392919081815260200183838082843760009201919091525061014792505050565b5050505050565b7fc8fcad8db84d3cc18b4c41d551ea0ee66dd599cde068d998e57d5e09332c131c600401546001600160a01b031633146101455760405162461bcd60e51b815260206004820152602260248201527f4c69624469616d6f6e643a204d75737420626520636f6e7472616374206f776e60448201527f657200000000000000000000000000000000000000000000000000000000000060648201526084015b60405180910390fd5b565b60005b83518110156103265760008482815181106101675761016761154b565b60200260200101516020015190506000600281111561018857610188611561565b81600281111561019a5761019a611561565b14156101e9576101e48583815181106101b5576101b561154b565b6020026020010151600001518684815181106101d3576101d361154b565b602002602001015160400151610371565b610313565b60018160028111156101fd576101fd611561565b1415610247576101e48583815181106102185761021861154b565b6020026020010151600001518684815181106102365761023661154b565b6020026020010151604001516106ba565b600281600281111561025b5761025b611561565b14156102a5576101e48583815181106102765761027661154b565b6020026020010151600001518684815181106102945761029461154b565b602002602001015160400151610a34565b60405162461bcd60e51b815260206004820152602760248201527f4c69624469616d6f6e644375743a20496e636f7272656374204661636574437560448201527f74416374696f6e00000000000000000000000000000000000000000000000000606482015260840161013c565b508061031e8161158d565b91505061014a565b507f8faa70878671ccd212d20771b795c50af8fd3ff6cf27f4bde57e5d4de0aeb67383838360405161035a93929190611600565b60405180910390a161036c8282610bc0565b505050565b60008151116103e85760405162461bcd60e51b815260206004820152602b60248201527f4c69624469616d6f6e644375743a204e6f2073656c6563746f727320696e206660448201527f6163657420746f20637574000000000000000000000000000000000000000000606482015260840161013c565b7fc8fcad8db84d3cc18b4c41d551ea0ee66dd599cde068d998e57d5e09332c131c6001600160a01b0383166104855760405162461bcd60e51b815260206004820152602c60248201527f4c69624469616d6f6e644375743a204164642066616365742063616e2774206260448201527f6520616464726573732830290000000000000000000000000000000000000000606482015260840161013c565b6001600160a01b038316600090815260018201602052604090205461ffff8116610534576104cb846040518060600160405280602481526020016117cb60249139610de4565b6002820180546001600160a01b038616600081815260018087016020908152604083208201805461ffff191661ffff909616959095179094558454908101855593815291909120909101805473ffffffffffffffffffffffffffffffffffffffff191690911790555b60005b83518110156100975760008482815181106105545761055461154b565b6020908102919091018101516001600160e01b031981166000908152918690526040909120549091506001600160a01b031680156105fa5760405162461bcd60e51b815260206004820152603560248201527f4c69624469616d6f6e644375743a2043616e2774206164642066756e6374696f60448201527f6e207468617420616c7265616479206578697374730000000000000000000000606482015260840161013c565b6001600160a01b03871660008181526001878101602090815260408084208054938401815584528184206008840401805463ffffffff60079095166004026101000a948502191660e089901c94909402939093179092556001600160e01b031986168352889052902080547fffffffffffffffffffff0000000000000000000000000000000000000000000016909117600160a01b61ffff871602179055836106a28161171d565b945050505080806106b29061158d565b915050610537565b60008151116107315760405162461bcd60e51b815260206004820152602b60248201527f4c69624469616d6f6e644375743a204e6f2073656c6563746f727320696e206660448201527f6163657420746f20637574000000000000000000000000000000000000000000606482015260840161013c565b7fc8fcad8db84d3cc18b4c41d551ea0ee66dd599cde068d998e57d5e09332c131c6001600160a01b0383166107ce5760405162461bcd60e51b815260206004820152602c60248201527f4c69624469616d6f6e644375743a204164642066616365742063616e2774206260448201527f6520616464726573732830290000000000000000000000000000000000000000606482015260840161013c565b6001600160a01b038316600090815260018201602052604090205461ffff811661087d57610814846040518060600160405280602481526020016117cb60249139610de4565b6002820180546001600160a01b038616600081815260018087016020908152604083208201805461ffff191661ffff909616959095179094558454908101855593815291909120909101805473ffffffffffffffffffffffffffffffffffffffff191690911790555b60005b835181101561009757600084828151811061089d5761089d61154b565b6020908102919091018101516001600160e01b031981166000908152918690526040909120549091506001600160a01b039081169087168114156109495760405162461bcd60e51b815260206004820152603860248201527f4c69624469616d6f6e644375743a2043616e2774207265706c6163652066756e60448201527f6374696f6e20776974682073616d652066756e6374696f6e0000000000000000606482015260840161013c565b6109538183610e05565b6001600160e01b0319821660008181526020878152604080832080547fffffffffffffffffffff0000ffffffffffffffffffffffffffffffffffffffff16600160a01b61ffff8b16021781556001600160a01b038c168085526001808c0185529285208054938401815585528385206008840401805463ffffffff60079095166004026101000a948502191660e08a901c949094029390931790925593909252879052815473ffffffffffffffffffffffffffffffffffffffff191617905583610a1c8161171d565b94505050508080610a2c9061158d565b915050610880565b6000815111610aab5760405162461bcd60e51b815260206004820152602b60248201527f4c69624469616d6f6e644375743a204e6f2073656c6563746f727320696e206660448201527f6163657420746f20637574000000000000000000000000000000000000000000606482015260840161013c565b7fc8fcad8db84d3cc18b4c41d551ea0ee66dd599cde068d998e57d5e09332c131c6001600160a01b03831615610b495760405162461bcd60e51b815260206004820152603660248201527f4c69624469616d6f6e644375743a2052656d6f7665206661636574206164647260448201527f657373206d757374206265206164647265737328302900000000000000000000606482015260840161013c565b60005b8251811015610bba576000838281518110610b6957610b6961154b565b6020908102919091018101516001600160e01b031981166000908152918590526040909120549091506001600160a01b0316610ba58183610e05565b50508080610bb29061158d565b915050610b4c565b50505050565b6001600160a01b038216610c4757805115610c435760405162461bcd60e51b815260206004820152603c60248201527f4c69624469616d6f6e644375743a205f696e697420697320616464726573732860448201527f3029206275745f63616c6c64617461206973206e6f7420656d70747900000000606482015260840161013c565b5050565b6000815111610cbe5760405162461bcd60e51b815260206004820152603d60248201527f4c69624469616d6f6e644375743a205f63616c6c6461746120697320656d707460448201527f7920627574205f696e6974206973206e6f742061646472657373283029000000606482015260840161013c565b6001600160a01b0382163014610cf057610cf0826040518060600160405280602881526020016117a360289139610de4565b600080836001600160a01b031683604051610d0b919061173f565b600060405180830381855af49150503d8060008114610d46576040519150601f19603f3d011682016040523d82523d6000602084013e610d4b565b606091505b509150915081610bba57805115610d76578060405162461bcd60e51b815260040161013c919061175b565b60405162461bcd60e51b815260206004820152602660248201527f4c69624469616d6f6e644375743a205f696e69742066756e6374696f6e20726560448201527f7665727465640000000000000000000000000000000000000000000000000000606482015260840161013c565b813b8181610bba5760405162461bcd60e51b815260040161013c919061175b565b7fc8fcad8db84d3cc18b4c41d551ea0ee66dd599cde068d998e57d5e09332c131c6001600160a01b038316610ea25760405162461bcd60e51b815260206004820152603760248201527f4c69624469616d6f6e644375743a2043616e27742072656d6f76652066756e6360448201527f74696f6e207468617420646f65736e2774206578697374000000000000000000606482015260840161013c565b6001600160a01b038316301415610f215760405162461bcd60e51b815260206004820152602e60248201527f4c69624469616d6f6e644375743a2043616e27742072656d6f766520696d6d7560448201527f7461626c652066756e6374696f6e000000000000000000000000000000000000606482015260840161013c565b6001600160e01b03198216600090815260208281526040808320546001600160a01b0387168452600180860190935290832054600160a01b90910461ffff169291610f6b91611775565b9050808214611071576001600160a01b03851660009081526001840160205260408120805483908110610fa057610fa061154b565b600091825260208083206008830401546001600160a01b038a168452600188019091526040909220805460079092166004026101000a90920460e01b925082919085908110610ff157610ff161154b565b600091825260208083206008830401805463ffffffff60079094166004026101000a938402191660e09590951c929092029390931790556001600160e01b03199290921682528490526040902080547fffffffffffffffffffff0000ffffffffffffffffffffffffffffffffffffffff16600160a01b61ffff8516021790555b6001600160a01b0385166000908152600184016020526040902080548061109a5761109a61178c565b60008281526020808220600860001990940193840401805463ffffffff600460078716026101000a0219169055919092556001600160e01b0319861682528490526040902080547fffffffffffffffffffff000000000000000000000000000000000000000000001690558061009757600283015460009061111e90600190611775565b6001600160a01b038716600090815260018087016020526040909120015490915061ffff168082146111ea5760008560020183815481106111615761116161154b565b6000918252602090912001546002870180546001600160a01b0390921692508291849081106111925761119261154b565b6000918252602080832091909101805473ffffffffffffffffffffffffffffffffffffffff19166001600160a01b0394851617905592909116815260018781019092526040902001805461ffff191661ffff83161790555b846002018054806111fd576111fd61178c565b600082815260208082208301600019908101805473ffffffffffffffffffffffffffffffffffffffff191690559092019092556001600160a01b03891682526001878101909152604090912001805461ffff1916905550505050505050565b80356001600160a01b038116811461127357600080fd5b919050565b60008083601f84011261128a57600080fd5b50813567ffffffffffffffff8111156112a257600080fd5b6020830191508360208285010111156112ba57600080fd5b9250929050565b6000806000806000606086880312156112d957600080fd5b853567ffffffffffffffff808211156112f157600080fd5b818801915088601f83011261130557600080fd5b81358181111561131457600080fd5b8960208260051b850101111561132957600080fd5b6020830197508096505061133f6020890161125c565b9450604088013591508082111561135557600080fd5b5061136288828901611278565b969995985093965092949392505050565b634e487b7160e01b600052604160045260246000fd5b6040516060810167ffffffffffffffff811182821017156113ac576113ac611373565b60405290565b604051601f8201601f1916810167ffffffffffffffff811182821017156113db576113db611373565b604052919050565b600067ffffffffffffffff8211156113fd576113fd611373565b5060051b60200190565b600061141a611415846113e3565b6113b2565b83815260208082019190600586811b86013681111561143857600080fd5b865b8181101561153e57803567ffffffffffffffff8082111561145b5760008081fd5b818a019150606082360312156114715760008081fd5b611479611389565b6114828361125c565b815286830135600381106114965760008081fd5b81880152604083810135838111156114ae5760008081fd5b939093019236601f8501126114c557600092508283fd5b833592506114d5611415846113e3565b83815292871b840188019288810190368511156114f25760008081fd5b948901945b848610156115275785356001600160e01b0319811681146115185760008081fd5b825294890194908901906114f7565b91830191909152508852505094830194830161143a565b5092979650505050505050565b634e487b7160e01b600052603260045260246000fd5b634e487b7160e01b600052602160045260246000fd5b634e487b7160e01b600052601160045260246000fd5b60006000198214156115a1576115a1611577565b5060010190565b60005b838110156115c35781810151838201526020016115ab565b83811115610bba5750506000910152565b600081518084526115ec8160208601602086016115a8565b601f01601f19169290920160200192915050565b60006060808301818452808751808352608092508286019150828160051b8701016020808b0160005b848110156116ed577fffffffffffffffffffffffffffffffffffffffffffffffffffffffffffffff808a850301865281518885016001600160a01b038251168652848201516003811061168c57634e487b7160e01b600052602160045260246000fd5b868601526040918201519186018a905281519081905290840190600090898701905b808310156116d85783516001600160e01b03191682529286019260019290920191908601906116ae565b50978501979550505090820190600101611629565b50506001600160a01b038a1690880152868103604088015261170f81896115d4565b9a9950505050505050505050565b600061ffff8083168181141561173557611735611577565b6001019392505050565b600082516117518184602087016115a8565b9190910192915050565b60208152600061176e60208301846115d4565b9392505050565b60008282101561178757611787611577565b500390565b634e487b7160e01b600052603160045260246000fdfe4c69624469616d6f6e644375743a205f696e6974206164647265737320686173206e6f20636f64654c69624469616d6f6e644375743a204e657720666163657420686173206e6f20636f6465a2646970667358221220c6d94093754d99516716c0a24227dc9a3cf2355e55b931a9e6c6476904ceea9464736f6c63430008090033608060405234801561001057600080fd5b50610803806100206000396000f3fe608060405234801561001057600080fd5b50600436106100675760003560e01c80637a0ed627116100505780637a0ed627146100fa578063adfca15e1461010f578063cdffacc61461012f57600080fd5b806301ffc9a71461006c57806352ef6b2c146100e5575b600080fd5b6100d061007a366004610569565b7fffffffff000000000000000000000000000000000000000000000000000000001660009081527fc8fcad8db84d3cc18b4c41d551ea0ee66dd599cde068d998e57d5e09332c131f602052604090205460ff1690565b60405190151581526020015b60405180910390f35b6100ed6101cb565b6040516100dc91906105b2565b61010261025d565b6040516100dc9190610669565b61012261011d366004610711565b610469565b6040516100dc9190610747565b6101a661013d366004610569565b7fffffffff000000000000000000000000000000000000000000000000000000001660009081527fc8fcad8db84d3cc18b4c41d551ea0ee66dd599cde068d998e57d5e09332c131c602052604090205473ffffffffffffffffffffffffffffffffffffffff1690565b60405173ffffffffffffffffffffffffffffffffffffffff90911681526020016100dc565b606060007fc8fcad8db84d3cc18b4c41d551ea0ee66dd599cde068d998e57d5e09332c131c6002810180546040805160208084028201810190925282815293945083018282801561025257602002820191906000526020600020905b815473ffffffffffffffffffffffffffffffffffffffff168152600190910190602001808311610227575b505050505091505090565b7fc8fcad8db84d3cc18b4c41d551ea0ee66dd599cde068d998e57d5e09332c131e546060907fc8fcad8db84d3cc18b4c41d551ea0ee66dd599cde068d998e57d5e09332c131c908067ffffffffffffffff8111156102bd576102bd61075a565b60405190808252806020026020018201604052801561030357816020015b6040805180820190915260008152606060208201528152602001906001900390816102db5790505b50925060005b8181101561046357600083600201828154811061032857610328610770565b9060005260206000200160009054906101000a900473ffffffffffffffffffffffffffffffffffffffff1690508085838151811061036857610368610770565b60209081029190910181015173ffffffffffffffffffffffffffffffffffffffff928316905290821660009081526001860182526040908190208054825181850281018501909352808352919290919083018282801561042957602002820191906000526020600020906000905b82829054906101000a900460e01b7bffffffffffffffffffffffffffffffffffffffffffffffffffffffff1916815260200190600401906020826003010492830192600103820291508084116103d65790505b505050505085838151811061044057610440610770565b60200260200101516020018190525050808061045b90610786565b915050610309565b50505090565b73ffffffffffffffffffffffffffffffffffffffff811660009081527fc8fcad8db84d3cc18b4c41d551ea0ee66dd599cde068d998e57d5e09332c131d602090815260409182902080548351818402810184019094528084526060937fc8fcad8db84d3cc18b4c41d551ea0ee66dd599cde068d998e57d5e09332c131c939092919083018282801561055c57602002820191906000526020600020906000905b82829054906101000a900460e01b7bffffffffffffffffffffffffffffffffffffffffffffffffffffffff1916815260200190600401906020826003010492830192600103820291508084116105095790505b5050505050915050919050565b60006020828403121561057b57600080fd5b81357fffffffff00000000000000000000000000000000000000000000000000000000811681146105ab57600080fd5b9392505050565b6020808252825182820181905260009190848201906040850190845b8181101561060057835173ffffffffffffffffffffffffffffffffffffffff16835292840192918401916001016105ce565b50909695505050505050565b600081518084526020808501945080840160005b8381101561065e5781517fffffffff000000000000000000000000000000000000000000000000000000001687529582019590820190600101610620565b509495945050505050565b60006020808301818452808551808352604092508286019150828160051b87010184880160005b83811015610703578883037fffffffffffffffffffffffffffffffffffffffffffffffffffffffffffffffc00185528151805173ffffffffffffffffffffffffffffffffffffffff1684528701518784018790526106f08785018261060c565b9588019593505090860190600101610690565b509098975050505050505050565b60006020828403121561072357600080fd5b813573ffffffffffffffffffffffffffffffffffffffff811681146105ab57600080fd5b6020815260006105ab602083018461060c565b634e487b7160e01b600052604160045260246000fd5b634e487b7160e01b600052603260045260246000fd5b60007fffffffffffffffffffffffffffffffffffffffffffffffffffffffffffffffff8214156107c657634e487b7160e01b600052601160045260246000fd5b506001019056fea264697066735822122029e51f6416543d8732be725ae64f5ba25ae3c9d093c1161c6312c947e351475664736f6c63430008090033608060405234801561001057600080fd5b506102d6806100206000396000f3fe608060405234801561001057600080fd5b50600436106100365760003560e01c80638da5cb5b1461003b578063f2fde38b1461006c575b600080fd5b610043610081565b60405173ffffffffffffffffffffffffffffffffffffffff909116815260200160405180910390f35b61007f61007a366004610263565b6100c6565b005b60006100c17fc8fcad8db84d3cc18b4c41d551ea0ee66dd599cde068d998e57d5e09332c13205473ffffffffffffffffffffffffffffffffffffffff1690565b905090565b6100ce6100da565b6100d7816101a9565b50565b7fc8fcad8db84d3cc18b4c41d551ea0ee66dd599cde068d998e57d5e09332c131c6004015473ffffffffffffffffffffffffffffffffffffffff1633146101a7576040517f08c379a000000000000000000000000000000000000000000000000000000000815260206004820152602260248201527f4c69624469616d6f6e643a204d75737420626520636f6e7472616374206f776e60448201527f6572000000000000000000000000000000000000000000000000000000000000606482015260840160405180910390fd5b565b7fc8fcad8db84d3cc18b4c41d551ea0ee66dd599cde068d998e57d5e09332c132080547fffffffffffffffffffffffff0000000000000000000000000000000000000000811673ffffffffffffffffffffffffffffffffffffffff8481169182179093556040517fc8fcad8db84d3cc18b4c41d551ea0ee66dd599cde068d998e57d5e09332c131c939092169182907f8be0079c531659141344cd1fd0a4f28419497f9722a3daafe3b4186f6b6457e090600090a3505050565b60006020828403121561027557600080fd5b813573ffffffffffffffffffffffffffffffffffffffff8116811461029957600080fd5b939250505056fea264697066735822122072bf8f9db378e7c5d3674f2f48c0cc6ad99c1d41e2f6849faa24daa59f50c8aa64736f6c63430008090033c8fcad8db84d3cc18b4c41d551ea0ee66dd599cde068d998e57d5e09332c131c4c69624469616d6f6e644375743a205f696e6974206164647265737320686173206e6f20636f64654c69624469616d6f6e644375743a204164642066616365742063616e277420624c69624469616d6f6e644375743a204e657720666163657420686173206e6f20636f64654c69624469616d6f6e644375743a204e6f2073656c6563746f727320696e2066a2646970667358221220d7959f775640ff2053df7106b6d60e69d15ef42eda5f0a9e874afce95441584e64736f6c63430008090033",
  "devdoc": {
    "kind": "dev",
    "methods": {},
    "version": 1
  },
  "userdoc": {
    "kind": "user",
    "methods": {},
    "version": 1
  },
  "storageLayout": {
    "storage": [],
    "types": null
  }
}