{
  "address": "0xc5c8f20b4eBDE131Fd7bA2E7371D94FAD1d33B8f",
  "abi": [
    {
      "inputs": [
        {
          "internalType": "contract ERC20",
          "name": "token",
          "type": "address"
        },
        {
          "internalType": "address",
          "name": "to",
          "type": "address"
        },
        {
          "internalType": "uint256",
          "name": "amount",
          "type": "uint256"
        }
      ],
      "name": "approve",
      "outputs": [],
      "stateMutability": "payable",
      "type": "function"
    },
    {
      "inputs": [
        {
          "components": [
            {
              "internalType": "address",
              "name": "target",
              "type": "address"
            },
            {
              "internalType": "bytes",
              "name": "callData",
              "type": "bytes"
            }
          ],
          "internalType": "struct IVault.Call[]",
          "name": "calls",
          "type": "tuple[]"
        }
      ],
      "name": "callExternal",
      "outputs": [
        {
          "internalType": "bytes[]",
          "name": "",
          "type": "bytes[]"
        }
      ],
      "stateMutability": "nonpayable",
      "type": "function"
    },
    {
      "inputs": [
        {
          "internalType": "address",
          "name": "_sponsor",
          "type": "address"
        },
        {
          "internalType": "address",
          "name": "_reserve",
          "type": "address"
        },
        {
          "internalType": "uint256",
          "name": "_amount",
          "type": "uint256"
        }
      ],
      "name": "depositMargin",
      "outputs": [],
      "stateMutability": "payable",
      "type": "function"
    },
    {
      "inputs": [
        {
          "internalType": "address",
          "name": "_reserve",
          "type": "address"
        }
      ],
      "name": "getActualSecurityDeposit",
      "outputs": [
        {
          "internalType": "uint256",
          "name": "",
          "type": "uint256"
        }
      ],
      "stateMutability": "view",
      "type": "function"
    },
    {
      "inputs": [
        {
          "internalType": "address",
          "name": "_reserve",
          "type": "address"
        }
      ],
      "name": "getCurrentMargin",
      "outputs": [
        {
          "internalType": "uint256",
          "name": "",
          "type": "uint256"
        }
      ],
      "stateMutability": "view",
      "type": "function"
    },
    {
      "inputs": [
        {
          "internalType": "address",
          "name": "_erc721Addr",
          "type": "address"
        }
      ],
      "name": "getTotalNFTNumbers",
      "outputs": [
        {
          "internalType": "uint256",
          "name": "",
          "type": "uint256"
        }
      ],
      "stateMutability": "view",
      "type": "function"
    },
    {
      "inputs": [
        {
          "internalType": "address",
          "name": "_asset",
          "type": "address"
        }
      ],
      "name": "initAsset",
      "outputs": [
        {
          "internalType": "address",
          "name": "",
          "type": "address"
        }
      ],
      "stateMutability": "nonpayable",
      "type": "function"
    },
    {
      "inputs": [
        {
          "internalType": "address",
          "name": "_voyager",
          "type": "address"
        },
        {
          "internalType": "address",
          "name": "_owner",
          "type": "address"
        }
      ],
      "name": "initialize",
      "outputs": [],
      "stateMutability": "nonpayable",
      "type": "function"
    },
    {
      "inputs": [
        {
          "internalType": "bytes32",
          "name": "hash",
          "type": "bytes32"
        },
        {
          "internalType": "bytes",
          "name": "signature",
          "type": "bytes"
        }
      ],
      "name": "isValidSignature",
      "outputs": [
        {
          "internalType": "bytes4",
          "name": "magicValue",
          "type": "bytes4"
        }
      ],
      "stateMutability": "view",
      "type": "function"
    },
    {
      "inputs": [
        {
          "internalType": "address",
          "name": "_asset",
          "type": "address"
        }
      ],
      "name": "marginEscrow",
      "outputs": [
        {
          "internalType": "contract MarginEscrow",
          "name": "",
          "type": "address"
        }
      ],
      "stateMutability": "view",
      "type": "function"
    },
    {
      "inputs": [
        {
          "internalType": "address",
          "name": "_reserve",
          "type": "address"
        }
      ],
      "name": "marginRequirement",
      "outputs": [
        {
          "internalType": "uint256",
          "name": "",
          "type": "uint256"
        }
      ],
      "stateMutability": "view",
      "type": "function"
    },
    {
      "inputs": [
        {
          "internalType": "address",
          "name": "operator",
          "type": "address"
        },
        {
          "internalType": "address",
          "name": "from",
          "type": "address"
        },
        {
          "internalType": "uint256",
          "name": "tokenId",
          "type": "uint256"
        },
        {
          "internalType": "bytes",
          "name": "data",
          "type": "bytes"
        }
      ],
      "name": "onERC721Received",
      "outputs": [
        {
          "internalType": "bytes4",
          "name": "",
          "type": "bytes4"
        }
      ],
      "stateMutability": "nonpayable",
      "type": "function"
    },
    {
      "inputs": [
        {
          "internalType": "contract ERC20",
          "name": "token",
          "type": "address"
        },
        {
          "internalType": "uint256",
          "name": "amount",
          "type": "uint256"
        },
        {
          "internalType": "address",
          "name": "from",
          "type": "address"
        },
        {
          "internalType": "address",
          "name": "recipient",
          "type": "address"
        }
      ],
      "name": "pullToken",
      "outputs": [],
      "stateMutability": "payable",
      "type": "function"
    },
    {
      "inputs": [
        {
          "internalType": "address payable",
          "name": "_sponsor",
          "type": "address"
        },
        {
          "internalType": "address",
          "name": "_reserve",
          "type": "address"
        },
        {
          "internalType": "uint256",
          "name": "_amount",
          "type": "uint256"
        }
      ],
      "name": "redeemMargin",
      "outputs": [],
      "stateMutability": "payable",
      "type": "function"
    },
    {
      "inputs": [
        {
          "internalType": "address",
          "name": "_reserve",
          "type": "address"
        },
        {
          "internalType": "address payable",
          "name": "_to",
          "type": "address"
        },
        {
          "internalType": "uint256",
          "name": "_amount",
          "type": "uint256"
        }
      ],
      "name": "slash",
      "outputs": [
        {
          "internalType": "uint256",
          "name": "",
          "type": "uint256"
        }
      ],
      "stateMutability": "nonpayable",
      "type": "function"
    },
    {
      "inputs": [
        {
          "internalType": "bytes4",
          "name": "interfaceId",
          "type": "bytes4"
        }
      ],
      "name": "supportsInterface",
      "outputs": [
        {
          "internalType": "bool",
          "name": "",
          "type": "bool"
        }
      ],
      "stateMutability": "view",
      "type": "function"
    },
    {
      "inputs": [
        {
          "internalType": "address",
          "name": "_reserve",
          "type": "address"
        }
      ],
      "name": "totalDebt",
      "outputs": [
        {
          "internalType": "uint256",
          "name": "total",
          "type": "uint256"
        }
      ],
      "stateMutability": "view",
      "type": "function"
    },
    {
      "inputs": [
        {
          "internalType": "address",
          "name": "_reserve",
          "type": "address"
        }
      ],
      "name": "totalWithdrawableMargin",
      "outputs": [
        {
          "internalType": "uint256",
          "name": "",
          "type": "uint256"
        }
      ],
      "stateMutability": "view",
      "type": "function"
    },
    {
      "inputs": [
        {
          "internalType": "address",
          "name": "_erc721Addr",
          "type": "address"
        },
        {
          "internalType": "address",
          "name": "_to",
          "type": "address"
        },
        {
          "internalType": "uint256",
          "name": "_num",
          "type": "uint256"
        }
      ],
      "name": "transferNFT",
      "outputs": [],
      "stateMutability": "nonpayable",
      "type": "function"
    },
    {
      "inputs": [
        {
          "internalType": "address",
          "name": "_reserve",
          "type": "address"
        },
        {
          "internalType": "address",
          "name": "_erc721Addr",
          "type": "address"
        },
        {
          "internalType": "uint256",
          "name": "_tokenId",
          "type": "uint256"
        }
      ],
      "name": "withdrawNFT",
      "outputs": [],
      "stateMutability": "nonpayable",
      "type": "function"
    },
    {
      "inputs": [
        {
          "internalType": "address",
          "name": "_reserve",
          "type": "address"
        },
        {
          "internalType": "address",
          "name": "_user",
          "type": "address"
        }
      ],
      "name": "withdrawableMargin",
      "outputs": [
        {
          "internalType": "uint256",
          "name": "",
          "type": "uint256"
        }
      ],
      "stateMutability": "view",
      "type": "function"
    }
  ],
  "transactionHash": "0x28427821fcb1320792aae1db97d70bf65c2a12e5b045cfa8eed49e0b8652a73c",
  "args": [],
  "numDeployments": 1,
  "solcInputHash": "2ec44dbd2d40deb22548c4cc107473f0",
  "bytecode": "0x608060405234801561001057600080fd5b506001600055615c8a806100256000396000f3fe608060405260043610620001875760003560e01c8063652bdc4711620000db578063bff863ec1162000089578063e74f82391162000060578063e74f823914620004f5578063f3c058e8146200051a578063f9e4745b146200057657600080fd5b8063bff863ec14620004a2578063d26aaa3e14620004c7578063e1f21c6714620004de57600080fd5b8063798d2e8811620000be578063798d2e88146200041a578063b94f21c7146200043f578063bf709e94146200046457600080fd5b8063652bdc4714620003c157806369e9cae114620003f557600080fd5b80631ff517ff116200013957806341204d88116200011c57806341204d881462000360578063485cc9551462000385578063564a6c9814620003aa57600080fd5b80631ff517ff14620002df5780632ffc918e146200030457600080fd5b8063150b7a02116200016e578063150b7a02146200022f57806315250bb714620002865780631626ba7e14620002ba57600080fd5b806301ffc9a7146200018c5780630261d8a01462000216575b600080fd5b3480156200019957600080fd5b5062000201620001ab36600462002ff9565b7fffffffff000000000000000000000000000000000000000000000000000000001660009081527f6b66fb191a0c2858702608aa0de6da89e2207d9c2c8550be7b1fc507d6ae749d602052604090205460ff1690565b60405190151581526020015b60405180910390f35b6200022d6200022736600462003056565b6200059b565b005b3480156200023c57600080fd5b50620002546200024e3660046200309c565b620007a0565b6040517fffffffff0000000000000000000000000000000000000000000000000000000090911681526020016200020d565b3480156200029357600080fd5b50620002ab620002a536600462003144565b620007e4565b6040519081526020016200020d565b348015620002c757600080fd5b5062000254620002d9366004620031d9565b620008bc565b348015620002ec57600080fd5b50620002ab620002fe36600462003144565b6200095e565b3480156200031157600080fd5b50620002ab6200032336600462003144565b6001600160a01b031660009081527f6b66fb191a0c2858702608aa0de6da89e2207d9c2c8550be7b1fc507d6ae749c602052604090206001015490565b3480156200036d57600080fd5b50620002ab6200037f36600462003144565b62000a4b565b3480156200039257600080fd5b506200022d620003a43660046200326b565b62000afb565b6200022d620003bb36600462003056565b62000dfa565b348015620003ce57600080fd5b50620003e6620003e0366004620032a9565b6200127c565b6040516200020d919062003380565b3480156200040257600080fd5b506200022d6200041436600462003056565b6200139a565b3480156200042757600080fd5b50620002ab6200043936600462003144565b62001544565b3480156200044c57600080fd5b50620002ab6200045e36600462003144565b620015d1565b3480156200047157600080fd5b50620004896200048336600462003144565b62001646565b6040516001600160a01b0390911681526020016200020d565b348015620004af57600080fd5b506200022d620004c136600462003056565b6200187d565b6200022d620004d836600462003404565b62001c44565b6200022d620004ef36600462003056565b62001c61565b3480156200050257600080fd5b50620002ab6200051436600462003056565b62001c77565b3480156200052757600080fd5b50620004896200053936600462003144565b6001600160a01b0390811660009081527f6b66fb191a0c2858702608aa0de6da89e2207d9c2c8550be7b1fc507d6ae749b60205260409020541690565b3480156200058357600080fd5b50620002ab620005953660046200326b565b62001e29565b60026000541415620005f45760405162461bcd60e51b815260206004820152601f60248201527f5265656e7472616e637947756172643a207265656e7472616e742063616c6c0060448201526064015b60405180910390fd5b60026000557f6b66fb191a0c2858702608aa0de6da89e2207d9c2c8550be7b1fc507d6ae7499600101546001600160a01b03163314620006655760405162461bcd60e51b815260206004820152600b60248201526a2737ba102b37bcb0b3b2b960a91b6044820152606401620005eb565b6001600160a01b0382811660009081527f6b66fb191a0c2858702608aa0de6da89e2207d9c2c8550be7b1fc507d6ae749b60205260409020541680620006ee5760405162461bcd60e51b815260206004820152601c60248201527f5661756c743a206173736574206e6f7420696e697469616c69736564000000006044820152606401620005eb565b6040517fb460af94000000000000000000000000000000000000000000000000000000008152600481018390526001600160a01b0385811660248301819052604483015282169063b460af9490606401602060405180830381600087803b1580156200075957600080fd5b505af11580156200076e573d6000803e3d6000fd5b505050506040513d601f19601f820116820180604052508101906200079491906200345e565b50506001600055505050565b3360009081527f6b66fb191a0c2858702608aa0de6da89e2207d9c2c8550be7b1fc507d6ae749c60205260408120620007db90854262001efd565b95945050505050565b600080620008197f6b66fb191a0c2858702608aa0de6da89e2207d9c2c8550be7b1fc507d6ae749a546001600160a01b031690565b6040517fde1eb9a30000000000000000000000000000000000000000000000000000000081526001600160a01b038581166004830152919091169063de1eb9a39060240160606040518083038186803b1580156200087657600080fd5b505afa1580156200088b573d6000803e3d6000fd5b505050506040513d601f19601f82011682018060405250810190620008b1919062003478565b604001519392505050565b600080620008cb848462001f5b565b90506001600160a01b0381167f6b66fb191a0c2858702608aa0de6da89e2207d9c2c8550be7b1fc507d6ae7499546001600160a01b031614156200093357507f1626ba7e00000000000000000000000000000000000000000000000000000000905062000958565b507fffffffff0000000000000000000000000000000000000000000000000000000090505b92915050565b6000806000620009957f6b66fb191a0c2858702608aa0de6da89e2207d9c2c8550be7b1fc507d6ae749a546001600160a01b031690565b6040517f8a0695fd0000000000000000000000000000000000000000000000000000000081526001600160a01b0386811660048301523060248301529190911690638a0695fd90604401604080518083038186803b158015620009f757600080fd5b505afa15801562000a0c573d6000803e3d6000fd5b505050506040513d601f19601f8201168201806040525081019062000a329190620034d8565b909250905062000a43828262002237565b949350505050565b6001600160a01b0380821660009081527f6b66fb191a0c2858702608aa0de6da89e2207d9c2c8550be7b1fc507d6ae749b60205260408120549091166001600160a01b031663eaa674d16040518163ffffffff1660e01b815260040160206040518083038186803b15801562000ac057600080fd5b505afa15801562000ad5573d6000803e3d6000fd5b505050506040513d601f19601f820116820180604052508101906200095891906200345e565b600154610100900460ff1662000b185760015460ff161562000b1c565b303b155b62000b905760405162461bcd60e51b815260206004820152602e60248201527f496e697469616c697a61626c653a20636f6e747261637420697320616c72656160448201527f647920696e697469616c697a65640000000000000000000000000000000000006064820152608401620005eb565b600154610100900460ff1615801562000bd057600180547fffffffffffffffffffffffffffffffffffffffffffffffffffffffffffff0000166101011790555b7f6b66fb191a0c2858702608aa0de6da89e2207d9c2c8550be7b1fc507d6ae749a80546001600160a01b038086167fffffffffffffffffffffffff0000000000000000000000000000000000000000928316179092557f6b66fb191a0c2858702608aa0de6da89e2207d9c2c8550be7b1fc507d6ae749980549285169290911691909117905562000cd07f01ffc9a7000000000000000000000000000000000000000000000000000000006000527f6b66fb191a0c2858702608aa0de6da89e2207d9c2c8550be7b1fc507d6ae749d6020527f7da529308f76c4fb1391f36a408fa9a5e05e9694dc37b1b4eadf103b51e3d91c805460ff19166001179055565b7f6b66fb191a0c2858702608aa0de6da89e2207d9c2c8550be7b1fc507d6ae749d6020527f62c1536286c840bc46890894b15fcb2ca19909c5e873d0472abceb5076ac6afd8054600160ff1991821681179092557f5003b6e25173f98984c6952be0317b871b2847e636afaa395fb14c443a5f240880548216831790557f95ade2c383550e59fb0776ee96917416509142785655bd090ea6cc2fdc5b5e9b80548216831790557f69e9cae1000000000000000000000000000000000000000000000000000000006000527fc5a8cc76a11deb949fd21ac296ed6183aaf4726824db2427bb3f116745c6ee7780549091169091179055801562000df557600180547fffffffffffffffffffffffffffffffffffffffffffffffffffffffffffff00ff1690555b505050565b6002600054141562000e4f5760405162461bcd60e51b815260206004820152601f60248201527f5265656e7472616e637947756172643a207265656e7472616e742063616c6c006044820152606401620005eb565b60026000557f6b66fb191a0c2858702608aa0de6da89e2207d9c2c8550be7b1fc507d6ae7499600101546001600160a01b0316331462000ec05760405162461bcd60e51b815260206004820152600b60248201526a2737ba102b37bcb0b3b2b960a91b6044820152606401620005eb565b600062000ef47f6b66fb191a0c2858702608aa0de6da89e2207d9c2c8550be7b1fc507d6ae749a546001600160a01b031690565b6040517fde1eb9a30000000000000000000000000000000000000000000000000000000081526001600160a01b038581166004830152919091169063de1eb9a39060240160606040518083038186803b15801562000f5157600080fd5b505afa15801562000f66573d6000803e3d6000fd5b505050506040513d601f19601f8201168201806040525081019062000f8c919062003478565b6001600160a01b0384811660009081527f6b66fb191a0c2858702608aa0de6da89e2207d9c2c8550be7b1fc507d6ae749b60205260409020549192501680620010185760405162461bcd60e51b815260206004820152601c60248201527f5661756c743a206173736574206e6f7420696e697469616c69736564000000006044820152606401620005eb565b6000826020015190506000826001600160a01b031663eaa674d16040518163ffffffff1660e01b815260040160206040518083038186803b1580156200105d57600080fd5b505afa15801562001072573d6000803e3d6000fd5b505050506040513d601f19601f820116820180604052508101906200109891906200345e565b905081620010a7868362003513565b1115620010f75760405162461bcd60e51b815260206004820152601c60248201527f5661756c743a206465706f73697420616d6f756e7420657863656564000000006044820152606401620005eb565b8351858111156200114b5760405162461bcd60e51b815260206004820152601860248201527f5661756c743a206465706f73697420746f6f20736d616c6c00000000000000006044820152606401620005eb565b620011cd846001600160a01b03166338d52e0f6040518163ffffffff1660e01b815260040160206040518083038186803b1580156200118957600080fd5b505afa1580156200119e573d6000803e3d6000fd5b505050506040513d601f19601f82011682018060405250810190620011c491906200352e565b878a3062001c44565b6040517f6e553f65000000000000000000000000000000000000000000000000000000008152600481018790526001600160a01b038981166024830152851690636e553f6590604401602060405180830381600087803b1580156200123157600080fd5b505af115801562001246573d6000803e3d6000fd5b505050506040513d601f19601f820116820180604052508101906200126c91906200345e565b5050600160005550505050505050565b606060008267ffffffffffffffff8111156200129c576200129c62003164565b604051908082528060200260200182016040528015620012d157816020015b6060815260200190600190039081620012bb5790505b50905060005b8381101562001392576200135c858583818110620012f957620012f96200354e565b90506020028101906200130d919062003564565b6200131d90602081019062003144565b8686848181106200133257620013326200354e565b905060200281019062001346919062003564565b62001356906020810190620035a3565b62002245565b8282815181106200137157620013716200354e565b60200260200101819052508080620013899062003612565b915050620012d7565b509392505050565b60026000541415620013ef5760405162461bcd60e51b815260206004820152601f60248201527f5265656e7472616e637947756172643a207265656e7472616e742063616c6c006044820152606401620005eb565b60026000557f6b66fb191a0c2858702608aa0de6da89e2207d9c2c8550be7b1fc507d6ae7499600101546001600160a01b03163314620014605760405162461bcd60e51b815260206004820152600b60248201526a2737ba102b37bcb0b3b2b960a91b6044820152606401620005eb565b60005b8181101562001539576001600160a01b03841660009081527f6b66fb191a0c2858702608aa0de6da89e2207d9c2c8550be7b1fc507d6ae749c602052604081208190620014b09062002489565b6040516323b872dd60e01b81523060048201526001600160a01b03888116602483015260448201849052929450909250908716906323b872dd90606401600060405180830381600087803b1580156200150857600080fd5b505af11580156200151d573d6000803e3d6000fd5b5050505050508080620015309062003612565b91505062001463565b505060016000555050565b6001600160a01b0381811660008181527f6b66fb191a0c2858702608aa0de6da89e2207d9c2c8550be7b1fc507d6ae749b602090815260408083205481517f70a08231000000000000000000000000000000000000000000000000000000008152951660048601525191936370a082319260248083019392829003018186803b15801562000ac057600080fd5b6001600160a01b0380821660009081527f6b66fb191a0c2858702608aa0de6da89e2207d9c2c8550be7b1fc507d6ae749b60205260408120549091166001600160a01b0316634b6211526040518163ffffffff1660e01b815260040160206040518083038186803b15801562000ac057600080fd5b60007f6b66fb191a0c2858702608aa0de6da89e2207d9c2c8550be7b1fc507d6ae7499600101546001600160a01b03163314620016b45760405162461bcd60e51b815260206004820152600b60248201526a2737ba102b37bcb0b3b2b960a91b6044820152606401620005eb565b6001600160a01b0382166200170c5760405162461bcd60e51b815260206004820152601e60248201527f5f6173736574206d75737420626520612076616c6964206164647265737300006044820152606401620005eb565b6001600160a01b0382811660009081527f6b66fb191a0c2858702608aa0de6da89e2207d9c2c8550be7b1fc507d6ae749b60205260409020547f6b66fb191a0c2858702608aa0de6da89e2207d9c2c8550be7b1fc507d6ae7499911615620017b75760405162461bcd60e51b815260206004820152601960248201527f617373657420616c726561647920696e697469616c69736564000000000000006044820152606401620005eb565b600181015460405160009130916001600160a01b03909116908690620017dd9062002feb565b6001600160a01b03938416815291831660208301529091166040820152606001604051809103906000f0801580156200181a573d6000803e3d6000fd5b506001600160a01b038581166000818152600286016020526040902080547fffffffffffffffffffffffff000000000000000000000000000000000000000016928416929092179091559091506200187690826000196200256d565b9392505050565b60007f6b66fb191a0c2858702608aa0de6da89e2207d9c2c8550be7b1fc507d6ae7499600101546040517f142390410000000000000000000000000000000000000000000000000000000081526001600160a01b0385811660048301526024820185905290911691506000908290631423904190604401604080518083038186803b1580156200190c57600080fd5b505afa15801562001921573d6000803e3d6000fd5b505050506040513d601f19601f8201168201806040525081019062001947919062003630565b905060007f6b66fb191a0c2858702608aa0de6da89e2207d9c2c8550be7b1fc507d6ae7499600101546040517fb235fc090000000000000000000000000000000000000000000000000000000081526001600160a01b03888116600483015230602483015290911691506000908190839063b235fc0990604401604080518083038186803b158015620019d957600080fd5b505afa158015620019ee573d6000803e3d6000fd5b505050506040513d601f19601f8201168201806040525081019062001a149190620034d8565b915091508082101562001a905760405162461bcd60e51b815260206004820152602660248201527f5661756c743a20696e76616c696420746f74616c207061696420616e6420726560448201527f6465656d656400000000000000000000000000000000000000000000000000006064820152608401620005eb565b600062001a9e83836200270a565b855190915081101562001af45760405162461bcd60e51b815260206004820152601960248201527f5661756c743a20696e76616c6964207769746864726177616c000000000000006044820152606401620005eb565b84516040517f345aeecf0000000000000000000000000000000000000000000000000000000081526001600160a01b038b8116600483015230602483015260448201929092529085169063345aeecf90606401600060405180830381600087803b15801562001b6257600080fd5b505af115801562001b77573d6000803e3d6000fd5b5050505062001bd187866020015162001bad7f6b66fb191a0c2858702608aa0de6da89e2207d9c2c8550be7b1fc507d6ae749990565b6001600160a01b038c16600090815260039190910160205260409020919062002718565b6040516323b872dd60e01b8152306004820152336024820152604481018890526001600160a01b038916906323b872dd90606401600060405180830381600087803b15801562001c2057600080fd5b505af115801562001c35573d6000803e3d6000fd5b50505050505050505050505050565b62001c5b6001600160a01b03851683838662002944565b50505050565b62000df56001600160a01b0384168383620029d9565b60006002600054141562001cce5760405162461bcd60e51b815260206004820152601f60248201527f5265656e7472616e637947756172643a207265656e7472616e742063616c6c006044820152606401620005eb565b60026000557f6b66fb191a0c2858702608aa0de6da89e2207d9c2c8550be7b1fc507d6ae7499600101546001600160a01b0316331462001d3f5760405162461bcd60e51b815260206004820152600b60248201526a2737ba102b37bcb0b3b2b960a91b6044820152606401620005eb565b60007f6b66fb191a0c2858702608aa0de6da89e2207d9c2c8550be7b1fc507d6ae74996001600160a01b0386811660009081526002929092016020526040918290205491517f3d82e3c1000000000000000000000000000000000000000000000000000000008152600481018690528682166024820152911691508190633d82e3c190604401602060405180830381600087803b15801562001de057600080fd5b505af115801562001df5573d6000803e3d6000fd5b505050506040513d601f19601f8201168201806040525081019062001e1b91906200345e565b600160005595945050505050565b6001600160a01b0380831660009081527f6b66fb191a0c2858702608aa0de6da89e2207d9c2c8550be7b1fc507d6ae749b60205260408120549091166040517f701d8b240000000000000000000000000000000000000000000000000000000081526001600160a01b038481166004830152919091169063701d8b249060240160206040518083038186803b15801562001ec257600080fd5b505afa15801562001ed7573d6000803e3d6000fd5b505050506040513d601f19601f820116820180604052508101906200187691906200345e565b825462001f1a578254600181018455600084815260208120909101555b825460018181018555600085815260209020608085901b841792018290558085015462001f479162002237565b6001850181905562001c5b90859062002a7a565b6000815160411462001fd65760405162461bcd60e51b815260206004820152603a60248201527f5369676e617475726556616c696461746f72237265636f7665725369676e657260448201527f3a20696e76616c6964207369676e6174757265206c656e6774680000000000006064820152608401620005eb565b60208201516040830151606084015160001a7f7fffffffffffffffffffffffffffffff5d576e7357a4501ddfe92f46681b20a0821115620020805760405162461bcd60e51b815260206004820152603d60248201527f5369676e617475726556616c696461746f72237265636f7665725369676e657260448201527f3a20696e76616c6964207369676e6174757265202773272076616c75650000006064820152608401620005eb565b8060ff16601b141580156200209957508060ff16601c14155b156200210e5760405162461bcd60e51b815260206004820152603d60248201527f5369676e617475726556616c696461746f72237265636f7665725369676e657260448201527f3a20696e76616c6964207369676e6174757265202776272076616c75650000006064820152608401620005eb565b6040517f19457468657265756d205369676e6564204d6573736167653a0a3332000000006020820152603c8101879052600190605c0160408051601f198184030181528282528051602091820120600084529083018083525260ff841690820152606081018590526080810184905260a0016020604051602081039080840390855afa158015620021a3573d6000803e3d6000fd5b5050604051601f1901519450506001600160a01b0384166200222e5760405162461bcd60e51b815260206004820152603060248201527f5369676e617475726556616c696461746f72237265636f7665725369676e657260448201527f3a20494e56414c49445f5349474e4552000000000000000000000000000000006064820152608401620005eb565b50505092915050565b600062001876828462003513565b7f6b66fb191a0c2858702608aa0de6da89e2207d9c2c8550be7b1fc507d6ae749a546060906001600160a01b0316600062002284600482868862003683565b6200228f91620036af565b90506000620022a2856004818962003683565b8080601f01602080910402602001604051908101604052809392919081815260200183838082843760009201829052506040517f6fd8db71000000000000000000000000000000000000000000000000000000008152949550938493506001600160a01b0388169250636fd8db71915062002326908c9088908890600401620036f8565b600060405180830381600087803b1580156200234157600080fd5b505af115801562002356573d6000803e3d6000fd5b505050506040513d6000823e601f3d908101601f1916820160405262002380919081019062003744565b915091506000808a6001600160a01b03168a8a604051620023a3929190620037dc565b6000604051808303816000865af19150503d8060008114620023e2576040519150601f19603f3d011682016040523d82523d6000602084013e620023e7565b606091505b509150915081620023f757600080fd5b6001600160a01b038416156200247b57600080856001600160a01b031685604051620024249190620037ec565b6000604051808303816000865af19150503d806000811462002463576040519150601f19603f3d011682016040523d82523d6000602084013e62002468565b606091505b5091509150816200247857600080fd5b50505b9a9950505050505050505050565b600080600083600001600181548110620024a757620024a76200354e565b9060005260206000200154905083600001846001015481548110620024d057620024d06200354e565b906000526020600020015484600001600181548110620024f457620024f46200354e565b6000918252602090912001556001840154845485919081106200251b576200251b6200354e565b600091825260208220015560018481015462002537916200270a565b84600101819055506200254c84600162002b73565b608081901c946fffffffffffffffffffffffffffffffff9091169350915050565b8015806200261457506040517fdd62ed3e0000000000000000000000000000000000000000000000000000000081523060048201526001600160a01b03838116602483015284169063dd62ed3e9060440160206040518083038186803b158015620025d757600080fd5b505afa158015620025ec573d6000803e3d6000fd5b505050506040513d601f19601f820116820180604052508101906200261291906200345e565b155b620026885760405162461bcd60e51b815260206004820152603660248201527f5361666545524332303a20617070726f76652066726f6d206e6f6e2d7a65726f60448201527f20746f206e6f6e2d7a65726f20616c6c6f77616e6365000000000000000000006064820152608401620005eb565b604080516001600160a01b038416602482015260448082018490528251808303909101815260649091019091526020810180517bffffffffffffffffffffffffffffffffffffffffffffffffffffffff167f095ea7b30000000000000000000000000000000000000000000000000000000017905262000df590849062002c7e565b600062001876828462003800565b608082901b81176001805b600186810154620027349162002237565b8110156200278057828660000182815481106200275557620027556200354e565b906000526020600020015414156200276b578091505b80620027778162003612565b91505062002723565b508460010154811415620027e1578454859080620027a257620027a26200381a565b60019003818190600052602060002001600090559055620027d2600186600101546200270a90919063ffffffff16565b85600101819055505050505050565b6000856000018281548110620027fb57620027fb6200354e565b9060005260206000200154866000018760010154815481106200282257620028226200354e565b90600052602060002001541190508560000182815481106200284857620028486200354e565b9060005260206000200154866000018760010154815481106200286f576200286f6200354e565b9060005260206000200154876000018860010154815481106200289657620028966200354e565b906000526020600020016000896000018681548110620028ba57620028ba6200354e565b60009182526020909120019290925591909155508554869080620028e257620028e26200381a565b6001900381819060005260206000200160009055905562002912600187600101546200270a90919063ffffffff16565b6001870155801562002930576200292a868362002b73565b6200293c565b6200293c868362002a7a565b505050505050565b60006040516323b872dd60e01b81528460048201528360248201528260448201526020600060648360008a5af13d15601f3d1160016000511416171691505080620029d25760405162461bcd60e51b815260206004820152601460248201527f5452414e534645525f46524f4d5f4641494c45440000000000000000000000006044820152606401620005eb565b5050505050565b60006040517f095ea7b3000000000000000000000000000000000000000000000000000000008152836004820152826024820152602060006044836000895af13d15601f3d116001600051141617169150508062001c5b5760405162461bcd60e51b815260206004820152600e60248201527f415050524f56455f4641494c45440000000000000000000000000000000000006044820152606401620005eb565b81548190819060009085908390811062002a985762002a986200354e565b906000526020600020015490505b8462002ab484600262002d6a565b8154811062002ac75762002ac76200354e565b906000526020600020015481101562002b3f578462002ae884600262002d6a565b8154811062002afb5762002afb6200354e565b906000526020600020015485600001848154811062002b1e5762002b1e6200354e565b60009182526020909120015562002b3783600262002d6a565b925062002aa6565b818314620029d2578085600001848154811062002b605762002b606200354e565b6000918252602090912001555050505050565b81548190819060009085908390811062002b915762002b916200354e565b90600052602060002001549050600062002bac868562002d78565b90505b8560010154811115801562002be5575085600001818154811062002bd75762002bd76200354e565b906000526020600020015482115b1562002c495785600001818154811062002c035762002c036200354e565b906000526020600020015486600001858154811062002c265762002c266200354e565b60009182526020909120015592508262002c41868262002d78565b905062002baf565b8284146200293c578186600001858154811062002c6a5762002c6a6200354e565b600091825260209091200155505050505050565b600062002cd5826040518060400160405280602081526020017f5361666545524332303a206c6f772d6c6576656c2063616c6c206661696c6564815250856001600160a01b031662002e3c9092919063ffffffff16565b80519091501562000df5578080602001905181019062002cf6919062003830565b62000df55760405162461bcd60e51b815260206004820152602a60248201527f5361666545524332303a204552433230206f7065726174696f6e20646964206e60448201527f6f742073756363656564000000000000000000000000000000000000000000006064820152608401620005eb565b600062001876828462003854565b60018083015460009162002d9a9062002d9385600262002e4d565b9062002237565b111562002db65762002dae82600262002e4d565b905062000958565b8262002dca600162002d9385600262002e4d565b8154811062002ddd5762002ddd6200354e565b6000918252602090912001548362002df784600262002e4d565b8154811062002e0a5762002e0a6200354e565b9060005260206000200154101562002e295762002dae82600262002e4d565b62002dae600162002d9384600262002e4d565b606062000a43848460008562002e5b565b600062001876828462003877565b60608247101562002ed55760405162461bcd60e51b815260206004820152602660248201527f416464726573733a20696e73756666696369656e742062616c616e636520666f60448201527f722063616c6c00000000000000000000000000000000000000000000000000006064820152608401620005eb565b6001600160a01b0385163b62002f2e5760405162461bcd60e51b815260206004820152601d60248201527f416464726573733a2063616c6c20746f206e6f6e2d636f6e74726163740000006044820152606401620005eb565b600080866001600160a01b0316858760405162002f4c9190620037ec565b60006040518083038185875af1925050503d806000811462002f8b576040519150601f19603f3d011682016040523d82523d6000602084013e62002f90565b606091505b509150915062002fa282828662002fad565b979650505050505050565b6060831562002fbe57508162001876565b82511562002fcf5782518084602001fd5b8160405162461bcd60e51b8152600401620005eb919062003899565b6123a680620038af83390190565b6000602082840312156200300c57600080fd5b81357fffffffff00000000000000000000000000000000000000000000000000000000811681146200187657600080fd5b6001600160a01b03811681146200305357600080fd5b50565b6000806000606084860312156200306c57600080fd5b833562003079816200303d565b925060208401356200308b816200303d565b929592945050506040919091013590565b600080600080600060808688031215620030b557600080fd5b8535620030c2816200303d565b94506020860135620030d4816200303d565b935060408601359250606086013567ffffffffffffffff80821115620030f957600080fd5b818801915088601f8301126200310e57600080fd5b8135818111156200311e57600080fd5b8960208285010111156200313157600080fd5b9699959850939650602001949392505050565b6000602082840312156200315757600080fd5b813562001876816200303d565b634e487b7160e01b600052604160045260246000fd5b604051601f8201601f1916810167ffffffffffffffff81118282101715620031a657620031a662003164565b604052919050565b600067ffffffffffffffff821115620031cb57620031cb62003164565b50601f01601f191660200190565b60008060408385031215620031ed57600080fd5b82359150602083013567ffffffffffffffff8111156200320c57600080fd5b8301601f810185136200321e57600080fd5b8035620032356200322f82620031ae565b6200317a565b8181528660208385010111156200324b57600080fd5b816020840160208301376000602083830101528093505050509250929050565b600080604083850312156200327f57600080fd5b82356200328c816200303d565b915060208301356200329e816200303d565b809150509250929050565b60008060208385031215620032bd57600080fd5b823567ffffffffffffffff80821115620032d657600080fd5b818501915085601f830112620032eb57600080fd5b813581811115620032fb57600080fd5b8660208260051b85010111156200331157600080fd5b60209290920196919550909350505050565b60005b838110156200334057818101518382015260200162003326565b8381111562001c5b5750506000910152565b600081518084526200336c81602086016020860162003323565b601f01601f19169290920160200192915050565b6000602080830181845280855180835260408601915060408160051b870101925083870160005b82811015620033f7577fffffffffffffffffffffffffffffffffffffffffffffffffffffffffffffffc0888603018452620033e485835162003352565b94509285019290850190600101620033a7565b5092979650505050505050565b600080600080608085870312156200341b57600080fd5b843562003428816200303d565b935060208501359250604085013562003441816200303d565b9150606085013562003453816200303d565b939692955090935050565b6000602082840312156200347157600080fd5b5051919050565b6000606082840312156200348b57600080fd5b6040516060810181811067ffffffffffffffff82111715620034b157620034b162003164565b80604052508251815260208301516020820152604083015160408201528091505092915050565b60008060408385031215620034ec57600080fd5b505080516020909101519092909150565b634e487b7160e01b600052601160045260246000fd5b60008219821115620035295762003529620034fd565b500190565b6000602082840312156200354157600080fd5b815162001876816200303d565b634e487b7160e01b600052603260045260246000fd5b600082357fffffffffffffffffffffffffffffffffffffffffffffffffffffffffffffffc18336030181126200359957600080fd5b9190910192915050565b60008083357fffffffffffffffffffffffffffffffffffffffffffffffffffffffffffffffe1843603018112620035d957600080fd5b83018035915067ffffffffffffffff821115620035f557600080fd5b6020019150368190038213156200360b57600080fd5b9250929050565b6000600019821415620036295762003629620034fd565b5060010190565b6000604082840312156200364357600080fd5b6040516040810181811067ffffffffffffffff8211171562003669576200366962003164565b604052825181526020928301519281019290925250919050565b600080858511156200369457600080fd5b83861115620036a257600080fd5b5050820193919092039150565b7fffffffff000000000000000000000000000000000000000000000000000000008135818116916004851015620036f05780818660040360031b1b83161692505b505092915050565b6001600160a01b03841681527fffffffff0000000000000000000000000000000000000000000000000000000083166020820152606060408201526000620007db606083018462003352565b600080604083850312156200375857600080fd5b825162003765816200303d565b602084015190925067ffffffffffffffff8111156200378357600080fd5b8301601f810185136200379557600080fd5b8051620037a66200322f82620031ae565b818152866020838501011115620037bc57600080fd5b620037cf82602083016020860162003323565b8093505050509250929050565b8183823760009101908152919050565b600082516200359981846020870162003323565b600082821015620038155762003815620034fd565b500390565b634e487b7160e01b600052603160045260246000fd5b6000602082840312156200384357600080fd5b815180151581146200187657600080fd5b6000826200387257634e487b7160e01b600052601260045260246000fd5b500490565b6000816000190483118215151615620038945762003894620034fd565b500290565b6020815260006200187660208301846200335256fe6101006040523480156200001257600080fd5b50604051620023a6380380620023a6833981016040819052620000359162000389565b80816001600160a01b03166306fdde036040518163ffffffff1660e01b815260040160006040518083038186803b1580156200007057600080fd5b505afa15801562000085573d6000803e3d6000fd5b505050506040513d6000823e601f3d908101601f19168201604052620000af9190810190620003e9565b826001600160a01b03166395d89b416040518163ffffffff1660e01b815260040160006040518083038186803b158015620000e957600080fd5b505afa158015620000fe573d6000803e3d6000fd5b505050506040513d6000823e601f3d908101601f19168201604052620001289190810190620003e9565b8181846001600160a01b031663313ce5676040518163ffffffff1660e01b815260040160206040518083038186803b1580156200016457600080fd5b505afa15801562000179573d6000803e3d6000fd5b505050506040513d601f19601f820116820180604052508101906200019f9190620004c5565b8251620001b4906000906020860190620002c6565b508151620001ca906001906020850190620002c6565b5060ff81166080524660a052620001e06200022a565b60c0525050506001600160a01b0392831660e05250506001600655600780549382166001600160a01b031994851617905560088054949091169390921692909217905550620005d2565b60007f8b73c3c69bb8fe3d512ecc4cf759cc79239f7b179b0ffacaa9a75d522b39400f60006040516200025e91906200052e565b6040805191829003822060208301939093528101919091527fc89efdaa54c0f20c7adf612882df0950f5a951637e0307cdcb4c672f298b8bc660608201524660808201523060a082015260c00160405160208183030381529060405280519060200120905090565b828054620002d490620004f1565b90600052602060002090601f016020900481019282620002f8576000855562000343565b82601f106200031357805160ff191683800117855562000343565b8280016001018555821562000343579182015b828111156200034357825182559160200191906001019062000326565b506200035192915062000355565b5090565b5b8082111562000351576000815560010162000356565b80516001600160a01b03811681146200038457600080fd5b919050565b6000806000606084860312156200039f57600080fd5b620003aa846200036c565b9250620003ba602085016200036c565b9150620003ca604085016200036c565b90509250925092565b634e487b7160e01b600052604160045260246000fd5b60006020808385031215620003fd57600080fd5b82516001600160401b03808211156200041557600080fd5b818501915085601f8301126200042a57600080fd5b8151818111156200043f576200043f620003d3565b604051601f8201601f19908116603f011681019083821181831017156200046a576200046a620003d3565b8160405282815288868487010111156200048357600080fd5b600093505b82841015620004a7578484018601518185018701529285019262000488565b82841115620004b95760008684830101525b98975050505050505050565b600060208284031215620004d857600080fd5b815160ff81168114620004ea57600080fd5b9392505050565b600181811c908216806200050657607f821691505b602082108114156200052857634e487b7160e01b600052602260045260246000fd5b50919050565b600080835481600182811c9150808316806200054b57607f831692505b60208084108214156200056c57634e487b7160e01b86526022600452602486fd5b8180156200058357600181146200059557620005c4565b60ff19861689528489019650620005c4565b60008a81526020902060005b86811015620005bc5781548b820152908501908301620005a1565b505084890196505b509498975050505050505050565b60805160a05160c05160e051611d696200063d600039600081816103960152818161071f01528181610b4701528181610d3801528181610dca01528181610e91015281816111c801526118b901526000610a14015260006109e40152600061033b0152611d696000f3fe6080604052600436106102345760003560e01c806370a0823111610138578063c6e6f592116100b0578063dd62ed3e1161007f578063ef8b30f711610064578063ef8b30f71461068e578063f448e140146106ae578063fbfa77cf146106ce57600080fd5b8063dd62ed3e14610641578063eaa674d11461067957600080fd5b8063c6e6f592146105ab578063ce96cb77146105cb578063d505accf146105eb578063d905777e1461060b57600080fd5b8063a9059cbb11610107578063b460af94116100ec578063b460af941461056b578063ba0876521461058b578063c63d75b6146103e357600080fd5b8063a9059cbb1461052b578063b3d7f6b91461054b57600080fd5b806370a082311461049c5780637ecebe00146104c957806394bf804d146104f657806395d89b411461051657600080fd5b80633644e515116101cb5780634b6211521161019a5780634efecaa51161017f5780634efecaa51461043a5780636e553f651461045c578063701d8b241461047c57600080fd5b80634b621152146104055780634cdad5061461041a57600080fd5b80633644e5151461036f57806338d52e0f146103845780633d82e3c1146103d0578063402d267d146103e357600080fd5b80630a28a477116102075780630a28a477146102d357806318160ddd146102f357806323b872dd14610309578063313ce5671461032957600080fd5b806301e1d1141461023957806306fdde031461026157806307a2d13a14610283578063095ea7b3146102a3575b600080fd5b34801561024557600080fd5b5061024e6106ee565b6040519081526020015b60405180910390f35b34801561026d57600080fd5b506102766107a6565b6040516102589190611978565b34801561028f57600080fd5b5061024e61029e3660046119cd565b610834565b3480156102af57600080fd5b506102c36102be3660046119fe565b610861565b6040519015158152602001610258565b3480156102df57600080fd5b5061024e6102ee3660046119cd565b6108ce565b3480156102ff57600080fd5b5061024e60025481565b34801561031557600080fd5b506102c3610324366004611a2a565b6108ee565b34801561033557600080fd5b5061035d7f000000000000000000000000000000000000000000000000000000000000000081565b60405160ff9091168152602001610258565b34801561037b57600080fd5b5061024e6109e0565b34801561039057600080fd5b506103b87f000000000000000000000000000000000000000000000000000000000000000081565b6040516001600160a01b039091168152602001610258565b61024e6103de366004611a6b565b610a36565b3480156103ef57600080fd5b5061024e6103fe366004611a9b565b5060001990565b34801561041157600080fd5b5061024e610b1c565b34801561042657600080fd5b5061024e6104353660046119cd565b610cc6565b34801561044657600080fd5b5061045a6104553660046119fe565b610cd1565b005b34801561046857600080fd5b5061024e610477366004611a6b565b610d63565b34801561048857600080fd5b5061024e610497366004611a9b565b610e48565b3480156104a857600080fd5b5061024e6104b7366004611a9b565b60036020526000908152604090205481565b3480156104d557600080fd5b5061024e6104e4366004611a9b565b60056020526000908152604090205481565b34801561050257600080fd5b5061024e610511366004611a6b565b610e77565b34801561052257600080fd5b50610276610f06565b34801561053757600080fd5b506102c36105463660046119fe565b610f13565b34801561055757600080fd5b5061024e6105663660046119cd565b610f8b565b34801561057757600080fd5b5061024e610586366004611ab8565b610faa565b34801561059757600080fd5b5061024e6105a6366004611ab8565b61109e565b3480156105b757600080fd5b5061024e6105c63660046119cd565b6111ef565b3480156105d757600080fd5b5061024e6105e6366004611a9b565b61120f565b3480156105f757600080fd5b5061045a610606366004611afa565b611231565b34801561061757600080fd5b5061024e610626366004611a9b565b6001600160a01b031660009081526003602052604090205490565b34801561064d57600080fd5b5061024e61065c366004611b71565b600460209081526000928352604080842090915290825290205481565b34801561068557600080fd5b5061024e61149f565b34801561069a57600080fd5b5061024e6106a93660046119cd565b6114a9565b3480156106ba57600080fd5b506007546103b8906001600160a01b031681565b3480156106da57600080fd5b506008546103b8906001600160a01b031681565b6040517f70a082310000000000000000000000000000000000000000000000000000000081523060048201526000907f00000000000000000000000000000000000000000000000000000000000000006001600160a01b0316906370a082319060240160206040518083038186803b15801561076957600080fd5b505afa15801561077d573d6000803e3d6000fd5b505050506040513d601f19601f820116820180604052508101906107a19190611b9f565b905090565b600080546107b390611bb8565b80601f01602080910402602001604051908101604052809291908181526020018280546107df90611bb8565b801561082c5780601f106108015761010080835404028352916020019161082c565b820191906000526020600020905b81548152906001019060200180831161080f57829003601f168201915b505050505081565b60025460009080156108585761085361084b6106ee565b8490836114b4565b61085a565b825b9392505050565b3360008181526004602090815260408083206001600160a01b038716808552925280832085905551919290917f8c5be1e5ebec7d5bd14f71427d1e84f3dd0314c0f7b2291e5b200ac8c7c3b925906108bc9086815260200190565b60405180910390a35060015b92915050565b600254600090801561085857610853816108e66106ee565b8591906114d3565b6001600160a01b0383166000908152600460209081526040808320338452909152812054600019811461094a576109258382611c09565b6001600160a01b03861660009081526004602090815260408083203384529091529020555b6001600160a01b03851660009081526003602052604081208054859290610972908490611c09565b90915550506001600160a01b03808516600081815260036020526040908190208054870190555190918716907fddf252ad1be2c89b69c2b068fc378daa952ba7f163c4a11628f55a4df523b3ef906109cd9087815260200190565b60405180910390a3506001949350505050565b60007f00000000000000000000000000000000000000000000000000000000000000004614610a11576107a1611501565b507f000000000000000000000000000000000000000000000000000000000000000090565b600060026006541415610a905760405162461bcd60e51b815260206004820152601f60248201527f5265656e7472616e637947756172643a207265656e7472616e742063616c6c0060448201526064015b60405180910390fd5b60026006556008546001600160a01b03163314610aef5760405162461bcd60e51b815260206004820152600960248201527f4e6f74207661756c7400000000000000000000000000000000000000000000006044820152606401610a87565b6000610af96106ee565b905083811015610b07578093505b610b118385610cd1565b505060016006555090565b6008546040517f1ff517ff0000000000000000000000000000000000000000000000000000000081527f00000000000000000000000000000000000000000000000000000000000000006001600160a01b038181166004840152600093169183908390631ff517ff9060240160206040518083038186803b158015610ba057600080fd5b505afa158015610bb4573d6000803e3d6000fd5b505050506040513d601f19601f82011682018060405250810190610bd89190611b9f565b6040517f15250bb70000000000000000000000000000000000000000000000000000000081526001600160a01b0384811660048301529192506000918516906315250bb79060240160206040518083038186803b158015610c3857600080fd5b505afa158015610c4c573d6000803e3d6000fd5b505050506040513d601f19601f82011682018060405250810190610c709190611b9f565b90506000610c7c61149f565b90506000610c9b610c9684610c908761159b565b906115ab565b6115ed565b9050808210610cb957610cae8282611613565b965050505050505090565b6000965050505050505090565b60006108c882610834565b6008546001600160a01b03163314610d2b5760405162461bcd60e51b815260206004820152600960248201527f4e6f74207661756c7400000000000000000000000000000000000000000000006044820152606401610a87565b610d5f6001600160a01b037f000000000000000000000000000000000000000000000000000000000000000016838361161f565b5050565b6000610d6e836114a9565b905080610dbd5760405162461bcd60e51b815260206004820152600b60248201527f5a45524f5f5348415245530000000000000000000000000000000000000000006044820152606401610a87565b610df26001600160a01b037f0000000000000000000000000000000000000000000000000000000000000000163330866116c4565b610dfc8282611770565b60408051848152602081018390526001600160a01b0384169133917fdcbc1c05240f31ff3ad067ef1ee35ce4997762752e3a095284754544f4c709d791015b60405180910390a36108c8565b600080610e53610b1c565b90506000610e608461120f565b9050808210610e70579392505050565b5092915050565b6000610e8283610f8b565b9050610eb96001600160a01b037f0000000000000000000000000000000000000000000000000000000000000000163330846116c4565b610ec38284611770565b60408051828152602081018590526001600160a01b0384169133917fdcbc1c05240f31ff3ad067ef1ee35ce4997762752e3a095284754544f4c709d79101610e3b565b600180546107b390611bb8565b33600090815260036020526040812080548391908390610f34908490611c09565b90915550506001600160a01b038316600081815260036020526040908190208054850190555133907fddf252ad1be2c89b69c2b068fc378daa952ba7f163c4a11628f55a4df523b3ef906108bc9086815260200190565b600254600090801561085857610853610fa26106ee565b8490836114d3565b6008546000906001600160a01b031633146110075760405162461bcd60e51b815260206004820152600960248201527f4e6f74207661756c7400000000000000000000000000000000000000000000006044820152606401610a87565b600061101283610e48565b90508481101561108a5760405162461bcd60e51b815260206004820152602360248201527f416d6f756e74206578636565647320776974686472617761626c652062616c6160448201527f6e636500000000000000000000000000000000000000000000000000000000006064820152608401610a87565b6110958585856117dc565b95945050505050565b6000336001600160a01b0383161461110e576001600160a01b0382166000908152600460209081526040808320338452909152902054600019811461110c576110e78582611c09565b6001600160a01b03841660009081526004602090815260408083203384529091529020555b505b61111784610cc6565b9050806111665760405162461bcd60e51b815260206004820152600b60248201527f5a45524f5f4153534554530000000000000000000000000000000000000000006044820152606401610a87565b61117082856118e0565b60408051828152602081018690526001600160a01b03808516929086169133917ffbde797d201c681b91056529119e0b02407c7bb96a4a2c75c01fc9667232c8db910160405180910390a461085a6001600160a01b037f000000000000000000000000000000000000000000000000000000000000000016848361161f565b600254600090801561085857610853816112076106ee565b8591906114b4565b6001600160a01b0381166000908152600360205260408120546108c890610834565b428410156112815760405162461bcd60e51b815260206004820152601760248201527f5045524d49545f444541444c494e455f455850495245440000000000000000006044820152606401610a87565b6000600161128d6109e0565b6001600160a01b038a811660008181526005602090815260409182902080546001810190915582517f6e71edae12b1b97f4d1f60370fef10105fa2faae0126114a169c64845d6126c98184015280840194909452938d166060840152608083018c905260a083019390935260c08083018b90528151808403909101815260e0830190915280519201919091207f19010000000000000000000000000000000000000000000000000000000000006101008301526101028201929092526101228101919091526101420160408051601f198184030181528282528051602091820120600084529083018083525260ff871690820152606081018590526080810184905260a0016020604051602081039080840390855afa1580156113b4573d6000803e3d6000fd5b5050604051601f1901519150506001600160a01b038116158015906113ea5750876001600160a01b0316816001600160a01b0316145b6114365760405162461bcd60e51b815260206004820152600e60248201527f494e56414c49445f5349474e45520000000000000000000000000000000000006044820152606401610a87565b6001600160a01b0390811660009081526004602090815260408083208a8516808552908352928190208990555188815291928a16917f8c5be1e5ebec7d5bd14f71427d1e84f3dd0314c0f7b2291e5b200ac8c7c3b925910160405180910390a350505050505050565b60006107a16106ee565b60006108c8826111ef565b8282028115158415858304851417166114cc57600080fd5b0492915050565b8282028115158415858304851417166114eb57600080fd5b6001826001830304018115150290509392505050565b60007f8b73c3c69bb8fe3d512ecc4cf759cc79239f7b179b0ffacaa9a75d522b39400f60006040516115339190611c20565b6040805191829003822060208301939093528101919091527fc89efdaa54c0f20c7adf612882df0950f5a951637e0307cdcb4c672f298b8bc660608201524660808201523060a082015260c00160405160208183030381529060405280519060200120905090565b60006108c882633b9aca00611954565b600061085a6b033b2e3c9fd0803ce80000006115e76115ca8686611954565b6115e160026b033b2e3c9fd0803ce8000000611cda565b90611960565b9061196c565b6000806115ff6002633b9aca00611cda565b905061085a633b9aca006115e78386611960565b600061085a8284611c09565b60006040517fa9059cbb000000000000000000000000000000000000000000000000000000008152836004820152826024820152602060006044836000895af13d15601f3d11600160005114161716915050806116be5760405162461bcd60e51b815260206004820152600f60248201527f5452414e534645525f4641494c454400000000000000000000000000000000006044820152606401610a87565b50505050565b60006040517f23b872dd0000000000000000000000000000000000000000000000000000000081528460048201528360248201528260448201526020600060648360008a5af13d15601f3d11600160005114161716915050806117695760405162461bcd60e51b815260206004820152601460248201527f5452414e534645525f46524f4d5f4641494c45440000000000000000000000006044820152606401610a87565b5050505050565b80600260008282546117829190611cfc565b90915550506001600160a01b0382166000818152600360209081526040808320805486019055518481527fddf252ad1be2c89b69c2b068fc378daa952ba7f163c4a11628f55a4df523b3ef91015b60405180910390a35050565b60006117e7846108ce565b9050336001600160a01b03831614611857576001600160a01b03821660009081526004602090815260408083203384529091529020546000198114611855576118308282611c09565b6001600160a01b03841660009081526004602090815260408083203384529091529020555b505b61186182826118e0565b60408051858152602081018390526001600160a01b03808516929086169133917ffbde797d201c681b91056529119e0b02407c7bb96a4a2c75c01fc9667232c8db910160405180910390a461085a6001600160a01b037f000000000000000000000000000000000000000000000000000000000000000016848661161f565b6001600160a01b03821660009081526003602052604081208054839290611908908490611c09565b90915550506002805482900390556040518181526000906001600160a01b038416907fddf252ad1be2c89b69c2b068fc378daa952ba7f163c4a11628f55a4df523b3ef906020016117d0565b600061085a8284611d14565b600061085a8284611cfc565b600061085a8284611cda565b600060208083528351808285015260005b818110156119a557858101830151858201604001528201611989565b818111156119b7576000604083870101525b50601f01601f1916929092016040019392505050565b6000602082840312156119df57600080fd5b5035919050565b6001600160a01b03811681146119fb57600080fd5b50565b60008060408385031215611a1157600080fd5b8235611a1c816119e6565b946020939093013593505050565b600080600060608486031215611a3f57600080fd5b8335611a4a816119e6565b92506020840135611a5a816119e6565b929592945050506040919091013590565b60008060408385031215611a7e57600080fd5b823591506020830135611a90816119e6565b809150509250929050565b600060208284031215611aad57600080fd5b813561085a816119e6565b600080600060608486031215611acd57600080fd5b833592506020840135611adf816119e6565b91506040840135611aef816119e6565b809150509250925092565b600080600080600080600060e0888a031215611b1557600080fd5b8735611b20816119e6565b96506020880135611b30816119e6565b95506040880135945060608801359350608088013560ff81168114611b5457600080fd5b9699959850939692959460a0840135945060c09093013592915050565b60008060408385031215611b8457600080fd5b8235611b8f816119e6565b91506020830135611a90816119e6565b600060208284031215611bb157600080fd5b5051919050565b600181811c90821680611bcc57607f821691505b60208210811415611bed57634e487b7160e01b600052602260045260246000fd5b50919050565b634e487b7160e01b600052601160045260246000fd5b600082821015611c1b57611c1b611bf3565b500390565b600080835481600182811c915080831680611c3c57607f831692505b6020808410821415611c5c57634e487b7160e01b86526022600452602486fd5b818015611c705760018114611c9f57611ccc565b7fffffffffffffffffffffffffffffffffffffffffffffffffffffffffffffff00861689528489019650611ccc565b60008a81526020902060005b86811015611cc45781548b820152908501908301611cab565b505084890196505b509498975050505050505050565b600082611cf757634e487b7160e01b600052601260045260246000fd5b500490565b60008219821115611d0f57611d0f611bf3565b500190565b6000816000190483118215151615611d2e57611d2e611bf3565b50029056fea26469706673582212209582688ac8b1768ed00944f41c245ca01660291ba8145f470b342cbf7795f33664736f6c63430008090033a26469706673582212206ea55bc96163f24825969d33d5dae7a213364035341e355c7efe9cb00661d34064736f6c63430008090033",
  "devdoc": {
    "kind": "dev",
    "methods": {
      "depositMargin(address,address,uint256)": {
        "params": {
          "_amount": "deposit amount",
          "_reserve": "reserve address",
          "_sponsor": "address of margin depositer"
        }
      },
      "isValidSignature(bytes32,bytes)": {
        "params": {
          "hash": "Hash of the data to be signed",
          "signature": "Signature byte array associated with _data"
        }
      },
      "marginEscrow(address)": {
        "details": "If the returned address is 0x0, the asset is not supported",
        "params": {
          "_asset": "address of the underlying ERC20 being escrowed"
        },
        "returns": {
          "_0": "MarginEscrow"
        }
      },
      "onERC721Received(address,address,uint256,bytes)": {
        "details": "Whenever an {IERC721} `tokenId` token is transferred to this contract via {IERC721-safeTransferFrom} by `operator` from `from`, this function is called. It must return its Solidity selector to confirm the token transfer. If any other value is returned or the interface is not implemented by the recipient, the transfer will be reverted. The selector can be obtained in Solidity with `IERC721.onERC721Received.selector`."
      },
      "redeemMargin(address,address,uint256)": {
        "params": {
          "_amount": "redeem amount",
          "_reserve": "reserve address",
          "_sponsor": "sponsor address"
        }
      },
      "slash(address,address,uint256)": {
        "returns": {
          "_0": "Returns the actual value that has been transferred"
        }
      },
      "transferNFT(address,address,uint256)": {
        "params": {
          "_erc721Addr": "NFT address",
          "_num": "Number of nfts to transfer",
          "_to": "whom to transfer"
        }
      }
    },
    "version": 1
  },
  "userdoc": {
    "kind": "user",
    "methods": {
      "callExternal((address,bytes)[])": {
        "notice": "To accept external calls from authorised client, used for pursing NFT or doing approve etc."
      },
      "depositMargin(address,address,uint256)": {
        "notice": "Transfer some margin deposit"
      },
      "isValidSignature(bytes32,bytes)": {
        "notice": "Should return whether the signature provided is valid for the provided data"
      },
      "marginEscrow(address)": {
        "notice": "Returns the margin escrow for a given asset supported by the Vault"
      },
      "redeemMargin(address,address,uint256)": {
        "notice": "Redeem underlying reserve"
      },
      "supportsInterface(bytes4)": {
        "notice": "Returns true if this contract implements the interface defined by `interfaceId`. See the corresponding  https://eips.ethereum.org/EIPS/eip-165#how-interfaces-are-identified[EIP section] to learn more about how these ids are created. This function call must use less than 30 000 gas."
      },
      "transferNFT(address,address,uint256)": {
        "notice": "Transfer nft out"
      }
    },
    "version": 1
  },
  "storageLayout": {
    "storage": [
      {
        "astId": 845,
        "contract": "contracts/component/vault/Vault.sol:Vault",
        "label": "_status",
        "offset": 0,
        "slot": "0",
        "type": "t_uint256"
      },
      {
        "astId": 675,
        "contract": "contracts/component/vault/Vault.sol:Vault",
        "label": "_initialized",
        "offset": 0,
        "slot": "1",
        "type": "t_bool"
      },
      {
        "astId": 678,
        "contract": "contracts/component/vault/Vault.sol:Vault",
        "label": "_initializing",
        "offset": 1,
        "slot": "1",
        "type": "t_bool"
      }
    ],
    "types": {
      "t_bool": {
        "encoding": "inplace",
        "label": "bool",
        "numberOfBytes": "1"
      },
      "t_uint256": {
        "encoding": "inplace",
        "label": "uint256",
        "numberOfBytes": "32"
      }
    }
  }
}