{
  "address": "0x09C309d418B41f2Ab08B852d5562e6a9cAa798Eb",
  "abi": [
    {
      "inputs": [
        {
          "internalType": "address",
          "name": "_vaultManager",
          "type": "address"
        }
      ],
      "stateMutability": "nonpayable",
      "type": "constructor"
    },
    {
      "anonymous": false,
      "inputs": [
        {
          "indexed": false,
          "internalType": "address",
          "name": "associatedContract",
          "type": "address"
        }
      ],
      "name": "AssociatedContractUpdated",
      "type": "event"
    },
    {
      "anonymous": false,
      "inputs": [
        {
          "indexed": true,
          "internalType": "address",
          "name": "previousOwner",
          "type": "address"
        },
        {
          "indexed": true,
          "internalType": "address",
          "name": "newOwner",
          "type": "address"
        }
      ],
      "name": "OwnershipTransferred",
      "type": "event"
    },
    {
      "inputs": [
        {
          "internalType": "uint256",
          "name": "",
          "type": "uint256"
        }
      ],
      "name": "allVaults",
      "outputs": [
        {
          "internalType": "address",
          "name": "",
          "type": "address"
        }
      ],
      "stateMutability": "view",
      "type": "function"
    },
    {
      "inputs": [
        {
          "internalType": "address",
          "name": "",
          "type": "address"
        }
      ],
      "name": "associatedContracts",
      "outputs": [
        {
          "internalType": "bool",
          "name": "",
          "type": "bool"
        }
      ],
      "stateMutability": "view",
      "type": "function"
    },
    {
      "inputs": [],
      "name": "getAllVaults",
      "outputs": [
        {
          "internalType": "address[]",
          "name": "",
          "type": "address[]"
        }
      ],
      "stateMutability": "view",
      "type": "function"
    },
    {
      "inputs": [
        {
          "internalType": "address",
          "name": "",
          "type": "address"
        }
      ],
      "name": "getVault",
      "outputs": [
        {
          "internalType": "address",
          "name": "",
          "type": "address"
        }
      ],
      "stateMutability": "view",
      "type": "function"
    },
    {
      "inputs": [
        {
          "internalType": "address",
          "name": "_user",
          "type": "address"
        }
      ],
      "name": "getVaultAddress",
      "outputs": [
        {
          "internalType": "address",
          "name": "",
          "type": "address"
        }
      ],
      "stateMutability": "view",
      "type": "function"
    },
    {
      "inputs": [
        {
          "internalType": "address",
          "name": "_reserve",
          "type": "address"
        }
      ],
      "name": "getVaultConfig",
      "outputs": [
        {
          "components": [
            {
              "internalType": "uint256",
              "name": "minSecurityDeposit",
              "type": "uint256"
            },
            {
              "internalType": "uint256",
              "name": "maxSecurityDeposit",
              "type": "uint256"
            },
            {
              "internalType": "uint256",
              "name": "securityDepositRequirement",
              "type": "uint256"
            }
          ],
          "internalType": "struct DataTypes.VaultConfig",
          "name": "",
          "type": "tuple"
        }
      ],
      "stateMutability": "view",
      "type": "function"
    },
    {
      "inputs": [],
      "name": "owner",
      "outputs": [
        {
          "internalType": "address",
          "name": "",
          "type": "address"
        }
      ],
      "stateMutability": "view",
      "type": "function"
    },
    {
      "inputs": [
        {
          "internalType": "address",
          "name": "_player",
          "type": "address"
        },
        {
          "internalType": "address",
          "name": "vault",
          "type": "address"
        }
      ],
      "name": "pushNewVault",
      "outputs": [
        {
          "internalType": "uint256",
          "name": "",
          "type": "uint256"
        }
      ],
      "stateMutability": "nonpayable",
      "type": "function"
    },
    {
      "inputs": [],
      "name": "renounceOwnership",
      "outputs": [],
      "stateMutability": "nonpayable",
      "type": "function"
    },
    {
      "inputs": [
        {
          "internalType": "address",
          "name": "_associatedContract",
          "type": "address"
        }
      ],
      "name": "setAssociatedContract",
      "outputs": [],
      "stateMutability": "nonpayable",
      "type": "function"
    },
    {
      "inputs": [
        {
          "internalType": "address",
          "name": "_reserve",
          "type": "address"
        },
        {
          "internalType": "uint256",
          "name": "_amount",
          "type": "uint256"
        }
      ],
      "name": "setMaxSecurityDeposit",
      "outputs": [],
      "stateMutability": "nonpayable",
      "type": "function"
    },
    {
      "inputs": [
        {
          "internalType": "address",
          "name": "_reserve",
          "type": "address"
        },
        {
          "internalType": "uint256",
          "name": "_amount",
          "type": "uint256"
        }
      ],
      "name": "setMinSecurityDeposit",
      "outputs": [],
      "stateMutability": "nonpayable",
      "type": "function"
    },
    {
      "inputs": [
        {
          "internalType": "address",
          "name": "_reserve",
          "type": "address"
        },
        {
          "internalType": "uint256",
          "name": "_requirement",
          "type": "uint256"
        }
      ],
      "name": "setSecurityDepositRequirement",
      "outputs": [],
      "stateMutability": "nonpayable",
      "type": "function"
    },
    {
      "inputs": [
        {
          "internalType": "address",
          "name": "newOwner",
          "type": "address"
        }
      ],
      "name": "transferOwnership",
      "outputs": [],
      "stateMutability": "nonpayable",
      "type": "function"
    },
    {
      "inputs": [
        {
          "internalType": "address",
          "name": "",
          "type": "address"
        }
      ],
      "name": "vaultConfig",
      "outputs": [
        {
          "internalType": "uint256",
          "name": "minSecurityDeposit",
          "type": "uint256"
        },
        {
          "internalType": "uint256",
          "name": "maxSecurityDeposit",
          "type": "uint256"
        },
        {
          "internalType": "uint256",
          "name": "securityDepositRequirement",
          "type": "uint256"
        }
      ],
      "stateMutability": "view",
      "type": "function"
    }
  ],
  "transactionHash": "0x41376925bd5a6fcad405684e09902d0e00efedac9209f62d8b71734f4f8a6656",
  "args": [
    "0x951A838ab600DBbD5A2dE822C0D14f9DB3C26DCC"
  ],
  "numDeployments": 2,
  "solcInputHash": "12f50c75a18b6f714019b390413b1deb",
  "bytecode": "0x608060405234801561001057600080fd5b50604051610c64380380610c6483398101604081905261002f91610138565b80610039336100e8565b6000546001600160a01b03166100895760405162461bcd60e51b815260206004820152601160248201527013dddb995c881b5d5cdd081899481cd95d607a1b604482015260640160405180910390fd5b6001600160a01b038116600081815260016020818152604092839020805460ff191690921790915590519182527f73f20cff579e8a4086fa607db83867595f1b6a798e718c0bfa0b94a404128e03910160405180910390a15050610168565b600080546001600160a01b038381166001600160a01b0319831681178455604051919092169283917f8be0079c531659141344cd1fd0a4f28419497f9722a3daafe3b4186f6b6457e09190a35050565b60006020828403121561014a57600080fd5b81516001600160a01b038116811461016157600080fd5b9392505050565b610aed806101776000396000f3fe608060405234801561001057600080fd5b50600436106100f55760003560e01c806397331bf911610097578063de1eb9a311610066578063de1eb9a314610223578063ef88c31e14610258578063f2fde38b14610284578063f857ef671461029757600080fd5b806397331bf9146101c7578063a3fdd98f146101dc578063d3f3e96f146101fd578063d60cad231461021057600080fd5b80635748ff18116100d35780635748ff1814610168578063715018a61461019b5780638da5cb5b146101a35780639094a91e146101b457600080fd5b80630eb9af38146100fa57806352f445ca1461014057806353b83e9214610155575b600080fd5b6101236101083660046109d2565b6003602052600090815260409020546001600160a01b031681565b6040516001600160a01b0390911681526020015b60405180910390f35b61015361014e3660046109d2565b6102e1565b005b6101536101633660046109f4565b6103b9565b61018b6101763660046109d2565b60016020526000908152604090205460ff1681565b6040519015158152602001610137565b61015361045d565b6000546001600160a01b0316610123565b6101236101c2366004610a1e565b6104c3565b6101cf6104ed565b6040516101379190610a37565b6101ef6101ea366004610a84565b61054f565b604051908152602001610137565b61015361020b3660046109f4565b6106cc565b61015361021e3660046109f4565b610770565b6102366102313660046109d2565b610811565b6040805182518152602080840151908201529181015190820152606001610137565b6101236102663660046109d2565b6001600160a01b039081166000908152600360205260409020541690565b6101536102923660046109d2565b610877565b6102c66102a53660046109d2565b60046020526000908152604090208054600182015460029092015490919083565b60408051938452602084019290925290820152606001610137565b6000546001600160a01b031633146103405760405162461bcd60e51b815260206004820181905260248201527f4f776e61626c653a2063616c6c6572206973206e6f7420746865206f776e657260448201526064015b60405180910390fd5b6001600160a01b03811660008181526001602081815260409283902080547fffffffffffffffffffffffffffffffffffffffffffffffffffffffffffffff001690921790915590519182527f73f20cff579e8a4086fa607db83867595f1b6a798e718c0bfa0b94a404128e03910160405180910390a150565b3360009081526001602052604090205460ff1661043e5760405162461bcd60e51b815260206004820152603460248201527f4f6e6c7920746865206173736f63696174656420636f6e74726163742063616e60448201527f20706572666f726d207468697320616374696f6e0000000000000000000000006064820152608401610337565b6001600160a01b03909116600090815260046020526040902060010155565b6000546001600160a01b031633146104b75760405162461bcd60e51b815260206004820181905260248201527f4f776e61626c653a2063616c6c6572206973206e6f7420746865206f776e65726044820152606401610337565b6104c16000610959565b565b600281815481106104d357600080fd5b6000918252602090912001546001600160a01b0316905081565b6060600280548060200260200160405190810160405280929190818152602001828054801561054557602002820191906000526020600020905b81546001600160a01b03168152600190910190602001808311610527575b5050505050905090565b3360009081526001602052604081205460ff166105d45760405162461bcd60e51b815260206004820152603460248201527f4f6e6c7920746865206173736f63696174656420636f6e74726163742063616e60448201527f20706572666f726d207468697320616374696f6e0000000000000000000000006064820152608401610337565b60028054600181019091557f405787fa12a823e0f2b7631cc41b3ba8828b3321ca811111fa75cd3aa3bb5ace01805473ffffffffffffffffffffffffffffffffffffffff19166001600160a01b0384811691909117909155838116600090815260036020526040902054161561068c5760405162461bcd60e51b815260206004820152600c60248201527f7661756c742065786973747300000000000000000000000000000000000000006044820152606401610337565b506001600160a01b039182166000908152600360205260409020805473ffffffffffffffffffffffffffffffffffffffff19169190921617905560025490565b3360009081526001602052604090205460ff166107515760405162461bcd60e51b815260206004820152603460248201527f4f6e6c7920746865206173736f63696174656420636f6e74726163742063616e60448201527f20706572666f726d207468697320616374696f6e0000000000000000000000006064820152608401610337565b6001600160a01b03909116600090815260046020526040902060020155565b3360009081526001602052604090205460ff166107f55760405162461bcd60e51b815260206004820152603460248201527f4f6e6c7920746865206173736f63696174656420636f6e74726163742063616e60448201527f20706572666f726d207468697320616374696f6e0000000000000000000000006064820152608401610337565b6001600160a01b03909116600090815260046020526040902055565b61083560405180606001604052806000815260200160008152602001600081525090565b506001600160a01b0316600090815260046020908152604091829020825160608101845281548152600182015492810192909252600201549181019190915290565b6000546001600160a01b031633146108d15760405162461bcd60e51b815260206004820181905260248201527f4f776e61626c653a2063616c6c6572206973206e6f7420746865206f776e65726044820152606401610337565b6001600160a01b03811661094d5760405162461bcd60e51b815260206004820152602660248201527f4f776e61626c653a206e6577206f776e657220697320746865207a65726f206160448201527f64647265737300000000000000000000000000000000000000000000000000006064820152608401610337565b61095681610959565b50565b600080546001600160a01b0383811673ffffffffffffffffffffffffffffffffffffffff19831681178455604051919092169283917f8be0079c531659141344cd1fd0a4f28419497f9722a3daafe3b4186f6b6457e09190a35050565b80356001600160a01b03811681146109cd57600080fd5b919050565b6000602082840312156109e457600080fd5b6109ed826109b6565b9392505050565b60008060408385031215610a0757600080fd5b610a10836109b6565b946020939093013593505050565b600060208284031215610a3057600080fd5b5035919050565b6020808252825182820181905260009190848201906040850190845b81811015610a785783516001600160a01b031683529284019291840191600101610a53565b50909695505050505050565b60008060408385031215610a9757600080fd5b610aa0836109b6565b9150610aae602084016109b6565b9050925092905056fea2646970667358221220eb1a7edddc001db3131e00b0c0edd9bd20446d392d238739c4e1fe86a96ffdcd64736f6c63430008090033",
  "devdoc": {
    "kind": "dev",
    "methods": {
      "getAllVaults()": {
        "details": "Get all credit account addresses*"
      },
      "getVaultAddress(address)": {
        "details": "Get Vault address for a specific user",
        "params": {
          "_user": "the address of the player*"
        }
      },
      "owner()": {
        "details": "Returns the address of the current owner."
      },
      "renounceOwnership()": {
        "details": "Leaves the contract without owner. It will not be possible to call `onlyOwner` functions anymore. Can only be called by the current owner. NOTE: Renouncing ownership will leave the contract without an owner, thereby removing any functionality that is only available to the owner."
      },
      "transferOwnership(address)": {
        "details": "Transfers ownership of the contract to a new account (`newOwner`). Can only be called by the current owner."
      }
    },
    "version": 1
  },
  "userdoc": {
    "kind": "user",
    "methods": {},
    "version": 1
  },
  "storageLayout": {
    "storage": [
      {
        "astId": 389,
        "contract": "contracts/component/vault/VaultStorage.sol:VaultStorage",
        "label": "_owner",
        "offset": 0,
        "slot": "0",
        "type": "t_address"
      },
      {
        "astId": 16626,
        "contract": "contracts/component/vault/VaultStorage.sol:VaultStorage",
        "label": "associatedContracts",
        "offset": 0,
        "slot": "1",
        "type": "t_mapping(t_address,t_bool)"
      },
      {
        "astId": 11283,
        "contract": "contracts/component/vault/VaultStorage.sol:VaultStorage",
        "label": "allVaults",
        "offset": 0,
        "slot": "2",
        "type": "t_array(t_address)dyn_storage"
      },
      {
        "astId": 11287,
        "contract": "contracts/component/vault/VaultStorage.sol:VaultStorage",
        "label": "getVault",
        "offset": 0,
        "slot": "3",
        "type": "t_mapping(t_address,t_address)"
      },
      {
        "astId": 11292,
        "contract": "contracts/component/vault/VaultStorage.sol:VaultStorage",
        "label": "vaultConfig",
        "offset": 0,
        "slot": "4",
        "type": "t_mapping(t_address,t_struct(VaultConfig)16739_storage)"
      }
    ],
    "types": {
      "t_address": {
        "encoding": "inplace",
        "label": "address",
        "numberOfBytes": "20"
      },
      "t_array(t_address)dyn_storage": {
        "base": "t_address",
        "encoding": "dynamic_array",
        "label": "address[]",
        "numberOfBytes": "32"
      },
      "t_bool": {
        "encoding": "inplace",
        "label": "bool",
        "numberOfBytes": "1"
      },
      "t_mapping(t_address,t_address)": {
        "encoding": "mapping",
        "key": "t_address",
        "label": "mapping(address => address)",
        "numberOfBytes": "32",
        "value": "t_address"
      },
      "t_mapping(t_address,t_bool)": {
        "encoding": "mapping",
        "key": "t_address",
        "label": "mapping(address => bool)",
        "numberOfBytes": "32",
        "value": "t_bool"
      },
      "t_mapping(t_address,t_struct(VaultConfig)16739_storage)": {
        "encoding": "mapping",
        "key": "t_address",
        "label": "mapping(address => struct DataTypes.VaultConfig)",
        "numberOfBytes": "32",
        "value": "t_struct(VaultConfig)16739_storage"
      },
      "t_struct(VaultConfig)16739_storage": {
        "encoding": "inplace",
        "label": "struct DataTypes.VaultConfig",
        "members": [
          {
            "astId": 16734,
            "contract": "contracts/component/vault/VaultStorage.sol:VaultStorage",
            "label": "minSecurityDeposit",
            "offset": 0,
            "slot": "0",
            "type": "t_uint256"
          },
          {
            "astId": 16736,
            "contract": "contracts/component/vault/VaultStorage.sol:VaultStorage",
            "label": "maxSecurityDeposit",
            "offset": 0,
            "slot": "1",
            "type": "t_uint256"
          },
          {
            "astId": 16738,
            "contract": "contracts/component/vault/VaultStorage.sol:VaultStorage",
            "label": "securityDepositRequirement",
            "offset": 0,
            "slot": "2",
            "type": "t_uint256"
          }
        ],
        "numberOfBytes": "96"
      },
      "t_uint256": {
        "encoding": "inplace",
        "label": "uint256",
        "numberOfBytes": "32"
      }
    }
  }
}