{
  "address": "0xEF57b68Fd9A8f5f35C0E03091d3696D88cBB4d6B",
  "abi": [
    {
      "anonymous": false,
      "inputs": [
        {
          "indexed": true,
          "internalType": "address",
          "name": "previousOwner",
          "type": "address"
        },
        {
          "indexed": true,
          "internalType": "address",
          "name": "newOwner",
          "type": "address"
        }
      ],
      "name": "OwnershipTransferred",
      "type": "event"
    },
    {
      "anonymous": false,
      "inputs": [
        {
          "indexed": false,
          "internalType": "contract Proxyable",
          "name": "newTarget",
          "type": "address"
        }
      ],
      "name": "TargetUpdated",
      "type": "event"
    },
    {
      "stateMutability": "payable",
      "type": "fallback"
    },
    {
      "inputs": [
        {
          "internalType": "bytes",
          "name": "callData",
          "type": "bytes"
        },
        {
          "internalType": "uint256",
          "name": "numTopics",
          "type": "uint256"
        },
        {
          "internalType": "bytes32",
          "name": "topic1",
          "type": "bytes32"
        },
        {
          "internalType": "bytes32",
          "name": "topic2",
          "type": "bytes32"
        },
        {
          "internalType": "bytes32",
          "name": "topic3",
          "type": "bytes32"
        },
        {
          "internalType": "bytes32",
          "name": "topic4",
          "type": "bytes32"
        }
      ],
      "name": "_emit",
      "outputs": [],
      "stateMutability": "nonpayable",
      "type": "function"
    },
    {
      "inputs": [],
      "name": "claimOwnership",
      "outputs": [],
      "stateMutability": "nonpayable",
      "type": "function"
    },
    {
      "inputs": [
        {
          "internalType": "address",
          "name": "_vaultUser",
          "type": "address"
        },
        {
          "internalType": "address",
          "name": "_reserve",
          "type": "address"
        },
        {
          "internalType": "address",
          "name": "_sponsor",
          "type": "address"
        }
      ],
      "name": "eligibleAmount",
      "outputs": [
        {
          "internalType": "uint256",
          "name": "",
          "type": "uint256"
        }
      ],
      "stateMutability": "view",
      "type": "function"
    },
    {
      "inputs": [
        {
          "internalType": "address",
          "name": "_user",
          "type": "address"
        },
        {
          "internalType": "address",
          "name": "_reserve",
          "type": "address"
        }
      ],
      "name": "getAvailableCredit",
      "outputs": [
        {
          "internalType": "uint256",
          "name": "",
          "type": "uint256"
        }
      ],
      "stateMutability": "view",
      "type": "function"
    },
    {
      "inputs": [
        {
          "internalType": "address",
          "name": "_user",
          "type": "address"
        },
        {
          "internalType": "address",
          "name": "_reserve",
          "type": "address"
        }
      ],
      "name": "getCreditLimit",
      "outputs": [
        {
          "internalType": "uint256",
          "name": "",
          "type": "uint256"
        }
      ],
      "stateMutability": "view",
      "type": "function"
    },
    {
      "inputs": [
        {
          "internalType": "address",
          "name": "_reserve",
          "type": "address"
        }
      ],
      "name": "getMaxSecurityDeposit",
      "outputs": [
        {
          "internalType": "uint256",
          "name": "",
          "type": "uint256"
        }
      ],
      "stateMutability": "view",
      "type": "function"
    },
    {
      "inputs": [
        {
          "internalType": "address",
          "name": "_user",
          "type": "address"
        },
        {
          "internalType": "address",
          "name": "_reserve",
          "type": "address"
        }
      ],
      "name": "getSecurityDeposit",
      "outputs": [
        {
          "internalType": "uint256",
          "name": "",
          "type": "uint256"
        }
      ],
      "stateMutability": "view",
      "type": "function"
    },
    {
      "inputs": [
        {
          "internalType": "address",
          "name": "_reserve",
          "type": "address"
        }
      ],
      "name": "getSecurityDepositRequirement",
      "outputs": [
        {
          "internalType": "uint256",
          "name": "",
          "type": "uint256"
        }
      ],
      "stateMutability": "view",
      "type": "function"
    },
    {
      "inputs": [
        {
          "internalType": "address",
          "name": "_user",
          "type": "address"
        }
      ],
      "name": "getVault",
      "outputs": [
        {
          "internalType": "address",
          "name": "",
          "type": "address"
        }
      ],
      "stateMutability": "view",
      "type": "function"
    },
    {
      "inputs": [],
      "name": "isOwner",
      "outputs": [
        {
          "internalType": "bool",
          "name": "",
          "type": "bool"
        }
      ],
      "stateMutability": "view",
      "type": "function"
    },
    {
      "inputs": [],
      "name": "owner",
      "outputs": [
        {
          "internalType": "address",
          "name": "",
          "type": "address"
        }
      ],
      "stateMutability": "view",
      "type": "function"
    },
    {
      "inputs": [],
      "name": "pendingOwner",
      "outputs": [
        {
          "internalType": "address",
          "name": "",
          "type": "address"
        }
      ],
      "stateMutability": "view",
      "type": "function"
    },
    {
      "inputs": [
        {
          "internalType": "contract Proxyable",
          "name": "_target",
          "type": "address"
        }
      ],
      "name": "setTarget",
      "outputs": [],
      "stateMutability": "nonpayable",
      "type": "function"
    },
    {
      "inputs": [],
      "name": "target",
      "outputs": [
        {
          "internalType": "contract Proxyable",
          "name": "",
          "type": "address"
        }
      ],
      "stateMutability": "view",
      "type": "function"
    },
    {
      "inputs": [
        {
          "internalType": "address",
          "name": "newOwner",
          "type": "address"
        }
      ],
      "name": "transferOwnership",
      "outputs": [],
      "stateMutability": "nonpayable",
      "type": "function"
    }
  ],
  "transactionHash": "0x962895545b5ddfad6bdb0830094754d3a63a3fbe6126518a2cc7ed265287341e",
  "args": [],
  "numDeployments": 1,
  "solcInputHash": "fa894278ca97a0719c19a1b496c9124e",
  "bytecode": "0x608060405234801561001057600080fd5b50600080546001600160a01b0319163390811782556040519091907f8be0079c531659141344cd1fd0a4f28419497f9722a3daafe3b4186f6b6457e0908290a3610bac8061005f6000396000f3fe6080604052600436106100e85760003560e01c80638e47b49b1161008a578063e30c397811610059578063e30c397814610311578063eafe74b514610331578063ebe37d7914610351578063f2fde38b14610371576100e8565b80638e47b49b146102865780638f32d59b146102a6578063907dff97146102d1578063d4b83992146102f1576100e8565b80634e71e0c8116100c65780634e71e0c81461020f5780635db22de614610226578063776d1a01146102465780638da5cb5b14610266576100e8565b80630eb9af381461018457806310f6c8b5146101c15780631a075aae146101ef575b6002546040517fbc67f8320000000000000000000000000000000000000000000000000000000081523360048201526001600160a01b039091169063bc67f83290602401600060405180830381600087803b15801561014657600080fd5b505af115801561015a573d6000803e3d6000fd5b5050505060405136600082376000803683346002545af13d6000833e8061017f573d82fd5b503d81f35b34801561019057600080fd5b506101a461019f366004610a06565b610391565b6040516001600160a01b0390911681526020015b60405180910390f35b3480156101cd57600080fd5b506101e16101dc366004610a06565b61042e565b6040519081526020016101b8565b3480156101fb57600080fd5b506101e161020a366004610a23565b6104c6565b34801561021b57600080fd5b5061022461056d565b005b34801561023257600080fd5b506101e1610241366004610a23565b6105f5565b34801561025257600080fd5b50610224610261366004610a06565b610649565b34801561027257600080fd5b506000546101a4906001600160a01b031681565b34801561029257600080fd5b506101e16102a1366004610a06565b610709565b3480156102b257600080fd5b506000546001600160a01b0316331460405190151581526020016101b8565b3480156102dd57600080fd5b506102246102ec366004610a5c565b610755565b3480156102fd57600080fd5b506002546101a4906001600160a01b031681565b34801561031d57600080fd5b506001546101a4906001600160a01b031681565b34801561033d57600080fd5b506101e161034c366004610a23565b610862565b34801561035d57600080fd5b506101e161036c366004610af5565b6108b6565b34801561037d57600080fd5b5061022461038c366004610a06565b610965565b6002546040517f0eb9af380000000000000000000000000000000000000000000000000000000081526001600160a01b0383811660048301526000921690630eb9af389060240160206040518083038186803b1580156103f057600080fd5b505afa158015610404573d6000803e3d6000fd5b505050506040513d601f19601f820116820180604052508101906104289190610b40565b92915050565b6002546040517f10f6c8b50000000000000000000000000000000000000000000000000000000081526001600160a01b03838116600483015260009216906310f6c8b5906024015b60206040518083038186803b15801561048e57600080fd5b505afa1580156104a2573d6000803e3d6000fd5b505050506040513d601f19601f820116820180604052508101906104289190610b5d565b6002546040517f1a075aae0000000000000000000000000000000000000000000000000000000081526001600160a01b03848116600483015283811660248301526000921690631a075aae906044015b60206040518083038186803b15801561052e57600080fd5b505afa158015610542573d6000803e3d6000fd5b505050506040513d601f19601f820116820180604052508101906105669190610b5d565b9392505050565b6001546001600160a01b0316331461058457600080fd5b600154600080546040516001600160a01b0393841693909116917f8be0079c531659141344cd1fd0a4f28419497f9722a3daafe3b4186f6b6457e091a3600180546000805473ffffffffffffffffffffffffffffffffffffffff199081166001600160a01b03841617909155169055565b6002546040517f5db22de60000000000000000000000000000000000000000000000000000000081526001600160a01b03848116600483015283811660248301526000921690635db22de690604401610516565b6000546001600160a01b031633146106a85760405162461bcd60e51b815260206004820181905260248201527f4f776e61626c653a2063616c6c6572206973206e6f7420746865206f776e657260448201526064015b60405180910390fd5b6002805473ffffffffffffffffffffffffffffffffffffffff19166001600160a01b0383169081179091556040519081527f814250a3b8c79fcbe2ead2c131c952a278491c8f4322a79fe84b5040a810373e9060200160405180910390a150565b6002546040517f8e47b49b0000000000000000000000000000000000000000000000000000000081526001600160a01b0383811660048301526000921690638e47b49b90602401610476565b6002546001600160a01b031633146107af5760405162461bcd60e51b815260206004820152601460248201527f4d7573742062652070726f787920746172676574000000000000000000000000604482015260640161069f565b604080516020601f89018190048102820181019092528781528791600091908a90849081908401838280828437600092019190915250929350899250508115905061081957600181146108245760028114610830576003811461083d576004811461084b57610856565b8260208301a0610856565b868360208401a1610856565b85878460208501a2610856565b8486888560208601a3610856565b838587898660208701a45b50505050505050505050565b6002546040517feafe74b50000000000000000000000000000000000000000000000000000000081526001600160a01b0384811660048301528381166024830152600092169063eafe74b590604401610516565b6002546040517febe37d790000000000000000000000000000000000000000000000000000000081526001600160a01b03858116600483015284811660248301528381166044830152600092169063ebe37d799060640160206040518083038186803b15801561092557600080fd5b505afa158015610939573d6000803e3d6000fd5b505050506040513d601f19601f8201168201806040525081019061095d9190610b5d565b949350505050565b6000546001600160a01b031633146109bf5760405162461bcd60e51b815260206004820181905260248201527f4f776e61626c653a2063616c6c6572206973206e6f7420746865206f776e6572604482015260640161069f565b6001805473ffffffffffffffffffffffffffffffffffffffff19166001600160a01b0392909216919091179055565b6001600160a01b0381168114610a0357600080fd5b50565b600060208284031215610a1857600080fd5b8135610566816109ee565b60008060408385031215610a3657600080fd5b8235610a41816109ee565b91506020830135610a51816109ee565b809150509250929050565b600080600080600080600060c0888a031215610a7757600080fd5b873567ffffffffffffffff80821115610a8f57600080fd5b818a0191508a601f830112610aa357600080fd5b813581811115610ab257600080fd5b8b6020828501011115610ac457600080fd5b60209283019c909b50918a01359960408101359950606081013598506080810135975060a001359550909350505050565b600080600060608486031215610b0a57600080fd5b8335610b15816109ee565b92506020840135610b25816109ee565b91506040840135610b35816109ee565b809150509250925092565b600060208284031215610b5257600080fd5b8151610566816109ee565b600060208284031215610b6f57600080fd5b505191905056fea264697066735822122017a07ac6b6c86e48a25d31a70e23e9e957f41a1b56954b0cc39cc5b8096f706d64736f6c63430008090033",
  "devdoc": {
    "kind": "dev",
    "methods": {
      "claimOwnership()": {
        "details": "Allows the pendingOwner address to finalize the transfer."
      },
      "isOwner()": {
        "details": "Returns true if the caller is the current owner."
      },
      "transferOwnership(address)": {
        "details": "Allows the current owner to set the pendingOwner address.",
        "params": {
          "newOwner": "The address to transfer ownership to."
        }
      }
    },
    "version": 1
  },
  "userdoc": {
    "kind": "user",
    "methods": {},
    "version": 1
  },
  "storageLayout": {
    "storage": [
      {
        "astId": 9172,
        "contract": "contracts/component/vault/VaultManagerProxy.sol:VaultManagerProxy",
        "label": "owner",
        "offset": 0,
        "slot": "0",
        "type": "t_address"
      },
      {
        "astId": 9174,
        "contract": "contracts/component/vault/VaultManagerProxy.sol:VaultManagerProxy",
        "label": "pendingOwner",
        "offset": 0,
        "slot": "1",
        "type": "t_address"
      },
      {
        "astId": 9279,
        "contract": "contracts/component/vault/VaultManagerProxy.sol:VaultManagerProxy",
        "label": "target",
        "offset": 0,
        "slot": "2",
        "type": "t_contract(Proxyable)9488"
      }
    ],
    "types": {
      "t_address": {
        "encoding": "inplace",
        "label": "address",
        "numberOfBytes": "20"
      },
      "t_contract(Proxyable)9488": {
        "encoding": "inplace",
        "label": "contract Proxyable",
        "numberOfBytes": "20"
      }
    }
  }
}