{
  "address": "0xd98054f9Fac1767Bb91995dFcE865Fe87Be73958",
  "abi": [
    {
      "inputs": [
        {
          "components": [
            {
              "internalType": "address",
              "name": "initOwner",
              "type": "address"
            }
          ],
          "internalType": "struct VaultInitDiamond.Args",
          "name": "_args",
          "type": "tuple"
        }
      ],
      "name": "init",
      "outputs": [],
      "stateMutability": "nonpayable",
      "type": "function"
    }
  ],
  "transactionHash": "0x293181852070f1982aa4caf2700e2452ae8e6443f29a2d47c6b61c11e2ed77e4",
  "args": [],
  "numDeployments": 1,
  "solcInputHash": "16d6ab37bd1a3d6bdf5bed347f9371f7",
  "bytecode": "0x608060405234801561001057600080fd5b5060fc8061001f6000396000f3fe6080604052348015600f57600080fd5b506004361060285760003560e01c80633cfffd3914602d575b600080fd5b603b6038366004603d565b50565b005b600060208284031215604e57600080fd5b6040516020810181811067ffffffffffffffff821117156097577f4e487b7100000000000000000000000000000000000000000000000000000000600052604160045260246000fd5b604052823573ffffffffffffffffffffffffffffffffffffffff8116811460bd57600080fd5b8152939250505056fea26469706673582212202caf90007daf505e3dea190231d73a7d36d6376caece00d30958c5b49530af4264736f6c63430008090033",
  "devdoc": {
    "kind": "dev",
    "methods": {},
    "version": 1
  },
  "userdoc": {
    "kind": "user",
    "methods": {},
    "version": 1
  },
  "storageLayout": {
    "storage": [],
    "types": null
  }
}