{
  "address": "0x0be2B498b5C5714E344d4D8A992207f6f6C219b7",
  "abi": [
    {
      "anonymous": false,
      "inputs": [
        {
          "indexed": false,
          "internalType": "address",
          "name": "_vault",
          "type": "address"
        },
        {
          "indexed": false,
          "internalType": "address",
          "name": "_owner",
          "type": "address"
        },
        {
          "indexed": false,
          "internalType": "uint256",
          "name": "_numVaults",
          "type": "uint256"
        }
      ],
      "name": "VaultCreated",
      "type": "event"
    },
    {
      "anonymous": false,
      "inputs": [
        {
          "indexed": false,
          "internalType": "address",
          "name": "_vault",
          "type": "address"
        },
        {
          "indexed": false,
          "internalType": "address",
          "name": "_reserve",
          "type": "address"
        }
      ],
      "name": "VaultInitialized",
      "type": "event"
    },
    {
      "anonymous": false,
      "inputs": [
        {
          "indexed": true,
          "internalType": "address",
          "name": "_vault",
          "type": "address"
        },
        {
          "indexed": true,
          "internalType": "address",
          "name": "_asset",
          "type": "address"
        },
        {
          "indexed": false,
          "internalType": "address",
          "name": "_sponsor",
          "type": "address"
        },
        {
          "indexed": false,
          "internalType": "uint256",
          "name": "_amount",
          "type": "uint256"
        }
      ],
      "name": "VaultMarginCredited",
      "type": "event"
    },
    {
      "anonymous": false,
      "inputs": [
        {
          "indexed": true,
          "internalType": "address",
          "name": "_vault",
          "type": "address"
        },
        {
          "indexed": true,
          "internalType": "address",
          "name": "_asset",
          "type": "address"
        },
        {
          "indexed": false,
          "internalType": "address",
          "name": "_sponsor",
          "type": "address"
        },
        {
          "indexed": false,
          "internalType": "uint256",
          "name": "_amount",
          "type": "uint256"
        }
      ],
      "name": "VaultMarginRedeemed",
      "type": "event"
    },
    {
      "inputs": [
        {
          "internalType": "address",
          "name": "owner",
          "type": "address"
        },
        {
          "internalType": "address",
          "name": "_reserve",
          "type": "address"
        }
      ],
      "name": "createVault",
      "outputs": [
        {
          "internalType": "address",
          "name": "",
          "type": "address"
        }
      ],
      "stateMutability": "nonpayable",
      "type": "function"
    },
    {
      "inputs": [
        {
          "internalType": "address",
          "name": "_sponsor",
          "type": "address"
        },
        {
          "internalType": "address",
          "name": "_owner",
          "type": "address"
        },
        {
          "internalType": "address",
          "name": "_reserve",
          "type": "address"
        },
        {
          "internalType": "uint256",
          "name": "_amount",
          "type": "uint256"
        }
      ],
      "name": "depositMargin",
      "outputs": [],
      "stateMutability": "nonpayable",
      "type": "function"
    },
    {
      "inputs": [],
      "name": "getAllVaults",
      "outputs": [
        {
          "internalType": "address[]",
          "name": "",
          "type": "address[]"
        }
      ],
      "stateMutability": "view",
      "type": "function"
    },
    {
      "inputs": [
        {
          "internalType": "address",
          "name": "_user",
          "type": "address"
        },
        {
          "internalType": "address",
          "name": "_reserve",
          "type": "address"
        }
      ],
      "name": "getAvailableCredit",
      "outputs": [
        {
          "internalType": "uint256",
          "name": "",
          "type": "uint256"
        }
      ],
      "stateMutability": "view",
      "type": "function"
    },
    {
      "inputs": [
        {
          "internalType": "address",
          "name": "_user",
          "type": "address"
        },
        {
          "internalType": "address",
          "name": "_reserve",
          "type": "address"
        }
      ],
      "name": "getCreditLimit",
      "outputs": [
        {
          "internalType": "uint256",
          "name": "",
          "type": "uint256"
        }
      ],
      "stateMutability": "view",
      "type": "function"
    },
    {
      "inputs": [
        {
          "internalType": "address",
          "name": "_user",
          "type": "address"
        },
        {
          "internalType": "address",
          "name": "_reserve",
          "type": "address"
        }
      ],
      "name": "getMargin",
      "outputs": [
        {
          "internalType": "uint256",
          "name": "",
          "type": "uint256"
        }
      ],
      "stateMutability": "view",
      "type": "function"
    },
    {
      "inputs": [
        {
          "internalType": "address",
          "name": "_owner",
          "type": "address"
        }
      ],
      "name": "getVault",
      "outputs": [
        {
          "internalType": "address",
          "name": "",
          "type": "address"
        }
      ],
      "stateMutability": "view",
      "type": "function"
    },
    {
      "inputs": [
        {
          "internalType": "address",
          "name": "_reserve",
          "type": "address"
        }
      ],
      "name": "getVaultConfig",
      "outputs": [
        {
          "components": [
            {
              "internalType": "uint256",
              "name": "minMargin",
              "type": "uint256"
            },
            {
              "internalType": "uint256",
              "name": "maxMargin",
              "type": "uint256"
            },
            {
              "internalType": "uint256",
              "name": "marginRequirement",
              "type": "uint256"
            }
          ],
          "internalType": "struct VaultConfig",
          "name": "",
          "type": "tuple"
        }
      ],
      "stateMutability": "view",
      "type": "function"
    },
    {
      "inputs": [
        {
          "internalType": "address",
          "name": "_owner",
          "type": "address"
        },
        {
          "internalType": "address",
          "name": "_reserve",
          "type": "address"
        },
        {
          "internalType": "address",
          "name": "_sponsor",
          "type": "address"
        }
      ],
      "name": "getWithdrawableDeposit",
      "outputs": [
        {
          "internalType": "uint256",
          "name": "",
          "type": "uint256"
        }
      ],
      "stateMutability": "view",
      "type": "function"
    },
    {
      "inputs": [
        {
          "internalType": "address payable",
          "name": "_sponsor",
          "type": "address"
        },
        {
          "internalType": "address",
          "name": "_owner",
          "type": "address"
        },
        {
          "internalType": "address",
          "name": "_reserve",
          "type": "address"
        },
        {
          "internalType": "uint256",
          "name": "_amount",
          "type": "uint256"
        }
      ],
      "name": "redeemMargin",
      "outputs": [],
      "stateMutability": "nonpayable",
      "type": "function"
    },
    {
      "inputs": [
        {
          "internalType": "address",
          "name": "_reserve",
          "type": "address"
        },
        {
          "internalType": "uint256",
          "name": "_requirement",
          "type": "uint256"
        }
      ],
      "name": "setMarginRequirement",
      "outputs": [],
      "stateMutability": "nonpayable",
      "type": "function"
    },
    {
      "inputs": [
        {
          "internalType": "address",
          "name": "_reserve",
          "type": "address"
        },
        {
          "internalType": "uint256",
          "name": "_amount",
          "type": "uint256"
        }
      ],
      "name": "setMaxMargin",
      "outputs": [],
      "stateMutability": "nonpayable",
      "type": "function"
    },
    {
      "inputs": [
        {
          "internalType": "address",
          "name": "_reserve",
          "type": "address"
        },
        {
          "internalType": "uint256",
          "name": "_amount",
          "type": "uint256"
        }
      ],
      "name": "setMinMargin",
      "outputs": [],
      "stateMutability": "nonpayable",
      "type": "function"
    },
    {
      "inputs": [
        {
          "internalType": "address",
          "name": "_impl",
          "type": "address"
        }
      ],
      "name": "updateVaultImplContract",
      "outputs": [],
      "stateMutability": "nonpayable",
      "type": "function"
    }
  ],
  "args": [],
  "numDeployments": 1,
  "solcInputHash": "686fcfb77ebcbd9335e616f0b479388f",
  "bytecode": "0x608060405234801561001057600080fd5b506001600a55615ee9806100256000396000f3fe60806040523480156200001157600080fd5b5060043610620000fd5760003560e01c806397331bf91162000097578063cc92d31c116200006e578063cc92d31c1462000218578063de1b689f146200022f578063de1eb9a31462000246578063eafe74b5146200028057600080fd5b806397331bf914620001d1578063a28f7a6e14620001ea578063bd899163146200020157600080fd5b80635db22de611620000d85780635db22de614620001755780636e19433a146200018c578063783f659414620001a3578063904ac4b714620001ba57600080fd5b80630db5860214620001025780630eb9af38146200012c578063336298c8146200015c575b600080fd5b620001196200011336600462001650565b62000297565b6040519081526020015b60405180910390f35b620001436200013d3660046200168e565b620002ae565b6040516001600160a01b03909116815260200162000123565b620001736200016d3660046200168e565b620002d1565b005b620001196200018636600462001650565b62000474565b620001196200019d366004620016ae565b62000482565b62000173620001b436600462001700565b62000499565b62000173620001cb36600462001758565b62000585565b620001db62000733565b60405162000123919062001787565b62000173620001fb36600462001700565b6200079a565b620001736200021236600462001758565b6200087c565b620001436200022936600462001650565b62000a2d565b620001736200024036600462001758565b62000c27565b6200025d620002573660046200168e565b62000dd8565b604080518251815260208084015190820152918101519082015260600162000123565b620001196200029136600462001650565b62000e08565b6000620002a5838362000e16565b90505b92915050565b6001600160a01b03808216600090815260086020526040812054909116620002a8565b6000620003216f30b2323932b9b9afb932b9b7b63b32b960811b60009081526020527fbc00e0b13890defa5673414f271f9a202467a774b325edce723f5f9c26a5eb4e546001600160a01b031690565b6001600160a01b031663c2c855c26040518163ffffffff1660e01b815260040160206040518083038186803b1580156200035a57600080fd5b505afa1580156200036f573d6000803e3d6000fd5b505050506040513d601f19601f82011682018060405250810190620003959190620017d6565b604051630fbbfc6360e11b81523360048201529091506001600160a01b03821690631f77f8c69060240160206040518083038186803b158015620003d857600080fd5b505afa158015620003ed573d6000803e3d6000fd5b505050506040513d601f19601f82011682018060405250810190620004139190620017f6565b620004655760405162461bcd60e51b815260206004820152601260248201527f4e6f742070726f746f636f6c2061646d696e000000000000000000000000000060448201526064015b60405180910390fd5b620004708262000ed6565b5050565b6000620002a5838362000f62565b60006200049184848462001008565b949350505050565b6001600160a01b038381166000908152600860205260408082205481517f0261d8a0000000000000000000000000000000000000000000000000000000008152888516600482015286851660248201526044810186905291519316928392630261d8a0926064808201939182900301818387803b1580156200051a57600080fd5b505af11580156200052f573d6000803e3d6000fd5b5050604080516001600160a01b038981168252602082018790528088169450851692507fe72adc7545e1e695ad5935d15f6980c4fda37d41d66f914fbc7e52a18ec2406591015b60405180910390a35050505050565b6000620005d56f30b2323932b9b9afb932b9b7b63b32b960811b60009081526020527fbc00e0b13890defa5673414f271f9a202467a774b325edce723f5f9c26a5eb4e546001600160a01b031690565b6001600160a01b031663c2c855c26040518163ffffffff1660e01b815260040160206040518083038186803b1580156200060e57600080fd5b505afa15801562000623573d6000803e3d6000fd5b505050506040513d601f19601f82011682018060405250810190620006499190620017d6565b604051630fbbfc6360e11b81523360048201529091506001600160a01b03821690631f77f8c69060240160206040518083038186803b1580156200068c57600080fd5b505afa158015620006a1573d6000803e3d6000fd5b505050506040513d601f19601f82011682018060405250810190620006c79190620017f6565b620007155760405162461bcd60e51b815260206004820152601260248201527f4e6f742070726f746f636f6c2061646d696e000000000000000000000000000060448201526064016200045c565b506001600160a01b0391909116600090815260096020526040902055565b606060006007018054806020026020016040519081016040528092919081815260200182805480156200079057602002820191906000526020600020905b81546001600160a01b0316815260019091019060200180831162000771575b5050505050905090565b6001600160a01b038381166000908152600860205260408082205481517f564a6c9800000000000000000000000000000000000000000000000000000000815288851660048201528685166024820152604481018690529151931692839263564a6c98926064808201939182900301818387803b1580156200081b57600080fd5b505af115801562000830573d6000803e3d6000fd5b5050604080516001600160a01b038981168252602082018790528088169450851692507f8821e8f18c942dd0aa25db0f5a70bc9a91eab3208d4888b245916644e2e74776910162000576565b6000620008cc6f30b2323932b9b9afb932b9b7b63b32b960811b60009081526020527fbc00e0b13890defa5673414f271f9a202467a774b325edce723f5f9c26a5eb4e546001600160a01b031690565b6001600160a01b031663c2c855c26040518163ffffffff1660e01b815260040160206040518083038186803b1580156200090557600080fd5b505afa1580156200091a573d6000803e3d6000fd5b505050506040513d601f19601f82011682018060405250810190620009409190620017d6565b604051630fbbfc6360e11b81523360048201529091506001600160a01b03821690631f77f8c69060240160206040518083038186803b1580156200098357600080fd5b505afa15801562000998573d6000803e3d6000fd5b505050506040513d601f19601f82011682018060405250810190620009be9190620017f6565b62000a0c5760405162461bcd60e51b815260206004820152601260248201527f4e6f742070726f746f636f6c2061646d696e000000000000000000000000000060448201526064016200045c565b506001600160a01b0391909116600090815260096020526040902060020155565b60008062000a7e6f30b2323932b9b9afb932b9b7b63b32b960811b60009081526020527fbc00e0b13890defa5673414f271f9a202467a774b325edce723f5f9c26a5eb4e546001600160a01b031690565b6001600160a01b031663c2c855c26040518163ffffffff1660e01b815260040160206040518083038186803b15801562000ab757600080fd5b505afa15801562000acc573d6000803e3d6000fd5b505050506040513d601f19601f8201168201806040525081019062000af29190620017d6565b604051630fbbfc6360e11b81523360048201529091506001600160a01b03821690631f77f8c69060240160206040518083038186803b15801562000b3557600080fd5b505afa15801562000b4a573d6000803e3d6000fd5b505050506040513d601f19601f8201168201806040525081019062000b709190620017f6565b62000bbe5760405162461bcd60e51b815260206004820152601260248201527f4e6f742070726f746f636f6c2061646d696e000000000000000000000000000060448201526064016200045c565b60008062000bce308787620010d9565b604080516001600160a01b0380851682528a16602082015290810182905291935091507f0b045af6aff86dd2cda5342fd0329a354dc66759ff1eda00d7ecf13a76c7fb3b9060600160405180910390a150949350505050565b600062000c776f30b2323932b9b9afb932b9b7b63b32b960811b60009081526020527fbc00e0b13890defa5673414f271f9a202467a774b325edce723f5f9c26a5eb4e546001600160a01b031690565b6001600160a01b031663c2c855c26040518163ffffffff1660e01b815260040160206040518083038186803b15801562000cb057600080fd5b505afa15801562000cc5573d6000803e3d6000fd5b505050506040513d601f19601f8201168201806040525081019062000ceb9190620017d6565b604051630fbbfc6360e11b81523360048201529091506001600160a01b03821690631f77f8c69060240160206040518083038186803b15801562000d2e57600080fd5b505afa15801562000d43573d6000803e3d6000fd5b505050506040513d601f19601f8201168201806040525081019062000d699190620017f6565b62000db75760405162461bcd60e51b815260206004820152601260248201527f4e6f742070726f746f636f6c2061646d696e000000000000000000000000000060448201526064016200045c565b506001600160a01b0391909116600090815260096020526040902060010155565b62000dfd60405180606001604052806000815260200160008152602001600081525090565b620002a8826200144a565b6000620002a58383620014b1565b60008062000e3c846001600160a01b039081166000908152600860205260409020541690565b6040517f41204d880000000000000000000000000000000000000000000000000000000081526001600160a01b038581166004830152919250908216906341204d889060240160206040518083038186803b15801562000e9b57600080fd5b505afa15801562000eb0573d6000803e3d6000fd5b505050506040513d601f19601f820116820180604052508101906200049191906200181a565b60008060068101546040517f3659cfe60000000000000000000000000000000000000000000000000000000081526001600160a01b03858116600483015292935061010090910490911690633659cfe690602401600060405180830381600087803b15801562000f4557600080fd5b505af115801562000f5a573d6000803e3d6000fd5b505050505050565b60008062000f71848462000e16565b9050600062000f80846200144a565b60408101519091508062000fd75760405162461bcd60e51b815260206004820152601e60248201527f6d617267696e20726571756972656d656e742063616e6e6f742062652030000060448201526064016200045c565b600062000ff08262000fe9866200154f565b9062001561565b905062000ffd81620015a3565b979650505050505050565b6000806200102e856001600160a01b039081166000908152600860205260409020541690565b6040517f145c22b60000000000000000000000000000000000000000000000000000000081526001600160a01b03858116600483015286811660248301529192509082169063145c22b69060440160206040518083038186803b1580156200109557600080fd5b505afa158015620010aa573d6000803e3d6000fd5b505050506040513d601f19601f82011682018060405250810190620010d091906200181a565b95945050505050565b6006546000908190819061010090046001600160a01b03166200118d5760006040516200110690620015ff565b604051809103906000f08015801562001123573d6000803e3d6000fd5b5090508060405162001135906200160d565b6001600160a01b039091168152602001604051809103906000f08015801562001162573d6000803e3d6000fd5b508260060160016101000a8154816001600160a01b0302191690836001600160a01b03160217905550505b60006040516200119d906200161b565b604051809103906000f080158015620011ba573d6000803e3d6000fd5b506006830154604080516001600160a01b038b811660248301528a8116604483015289811660648301528481166084808401919091528351808403909101815260a490920183526020820180517bffffffffffffffffffffffffffffffffffffffffffffffffffffffff167ff8c8765e00000000000000000000000000000000000000000000000000000000179052915193945060009361010090930490911691620012669062001629565b6200127392919062001834565b604051809103906000f08015801562001290573d6000803e3d6000fd5b506040517fc4d66de80000000000000000000000000000000000000000000000000000000081526001600160a01b038083166004830152919250829184169063c4d66de890602401600060405180830381600087803b158015620012f357600080fd5b505af115801562001308573d6000803e3d6000fd5b505050506001600160a01b038116620013645760405162461bcd60e51b815260206004820152601360248201527f6465706c6f79207661756c74206661696c65640000000000000000000000000060448201526064016200045c565b6001600160a01b0388811660009081526008860160205260409020541615620013d05760405162461bcd60e51b815260206004820152601360248201527f6f6e65207661756c7420706572206f776e65720000000000000000000000000060448201526064016200045c565b6007840180546001810182556000828152602080822090920180546001600160a01b038087167fffffffffffffffffffffffff000000000000000000000000000000000000000092831681179093558d16835260089098019092526040902080549096161790945592549294509192505050935093915050565b6200146f60405180606001604052806000815260200160008152602001600081525090565b506001600160a01b0316600090815260096020908152604091829020825160608101845281548152600182015492810192909252600201549181019190915290565b600080620014c0848462000f62565b90506000806000620014ea876001600160a01b039081166000908152600860205260409020541690565b6001600160a01b03878116600090815260046020908152604082209284168252919091529091506200151d8484620015d5565b9050808510156200153757600095505050505050620002a8565b620015438186620018ea565b98975050505050505050565b6000620002a882633b9aca00620015e3565b6000806200157160028462001904565b905062000491836200159c62001594876b033b2e3c9fd0803ce8000000620015e3565b8490620015d5565b90620015f1565b600080620015b76002633b9aca0062001904565b9050620015ce633b9aca006200159c8386620015d5565b9392505050565b6000620002a5828462001940565b6000620002a582846200195b565b6000620002a5828462001904565b61208d806200199c83390190565b6105e18062003a2983390190565b6113e8806200400a83390190565b610ac280620053f283390190565b6001600160a01b03811681146200164d57600080fd5b50565b600080604083850312156200166457600080fd5b8235620016718162001637565b91506020830135620016838162001637565b809150509250929050565b600060208284031215620016a157600080fd5b8135620015ce8162001637565b600080600060608486031215620016c457600080fd5b8335620016d18162001637565b92506020840135620016e38162001637565b91506040840135620016f58162001637565b809150509250925092565b600080600080608085870312156200171757600080fd5b8435620017248162001637565b93506020850135620017368162001637565b92506040850135620017488162001637565b9396929550929360600135925050565b600080604083850312156200176c57600080fd5b8235620017798162001637565b946020939093013593505050565b6020808252825182820181905260009190848201906040850190845b81811015620017ca5783516001600160a01b031683529284019291840191600101620017a3565b50909695505050505050565b600060208284031215620017e957600080fd5b8151620015ce8162001637565b6000602082840312156200180957600080fd5b81518015158114620015ce57600080fd5b6000602082840312156200182d57600080fd5b5051919050565b6001600160a01b038316815260006020604081840152835180604085015260005b81811015620018735785810183015185820160600152820162001855565b8181111562001886576000606083870101525b50601f017fffffffffffffffffffffffffffffffffffffffffffffffffffffffffffffffe01692909201606001949350505050565b7f4e487b7100000000000000000000000000000000000000000000000000000000600052601160045260246000fd5b600082821015620018ff57620018ff620018bb565b500390565b6000826200193b577f4e487b7100000000000000000000000000000000000000000000000000000000600052601260045260246000fd5b500490565b60008219821115620019565762001956620018bb565b500190565b6000817fffffffffffffffffffffffffffffffffffffffffffffffffffffffffffffffff0483118215151615620019965762001996620018bb565b50029056fe608060405234801561001057600080fd5b506001600055612068806100256000396000f3fe6080604052600436106100d25760003560e01c806341204d881161007f578063798d2e8811610059578063798d2e88146102bc578063e2bb9e51146102dc578063e74f823914610323578063f8c8765e1461034357600080fd5b806341204d8814610269578063564a6c981461028957806369e9cae11461029c57600080fd5b8063145c22b6116100b0578063145c22b6146101925780631626ba7e146101c05780632ffc918e1461021157600080fd5b806301ffc9a7146100d757806302299dd01461015d5780630261d8a01461017f575b600080fd5b3480156100e357600080fd5b506101486100f2366004611c1d565b7fffffffff000000000000000000000000000000000000000000000000000000001660009081527f6b66fb191a0c2858702608aa0de6da89e2207d9c2c8550be7b1fc507d6ae749c602052604090205460ff1690565b60405190151581526020015b60405180910390f35b34801561016957600080fd5b5061017d610178366004611c77565b610363565b005b61017d61018d366004611ca3565b6103fc565b34801561019e57600080fd5b506101b26101ad366004611ce4565b6105d4565b604051908152602001610154565b3480156101cc57600080fd5b506101e06101db366004611d64565b6105e9565b6040517fffffffff000000000000000000000000000000000000000000000000000000009091168152602001610154565b34801561021d57600080fd5b506101b261022c366004611e03565b6001600160a01b031660009081527f6b66fb191a0c2858702608aa0de6da89e2207d9c2c8550be7b1fc507d6ae749b602052604090206001015490565b34801561027557600080fd5b506101b2610284366004611e03565b6106c4565b61017d610297366004611ca3565b61077b565b3480156102a857600080fd5b5061017d6102b7366004611ca3565b610af0565b3480156102c857600080fd5b506101b26102d7366004611e03565b610c8b565b3480156102e857600080fd5b507f6b66fb191a0c2858702608aa0de6da89e2207d9c2c8550be7b1fc507d6ae749a546040516001600160a01b039091168152602001610154565b34801561032f57600080fd5b506101b261033e366004611ca3565b610cf7565b34801561034f57600080fd5b5061017d61035e366004611e20565b610e75565b6001546201000090046001600160a01b031633146103b65760405162461bcd60e51b815260206004820152600b60248201526a2737ba102b37bcb0b3b2b960a91b60448201526064015b60405180910390fd5b6001600160a01b03821660009081527f6b66fb191a0c2858702608aa0de6da89e2207d9c2c8550be7b1fc507d6ae749b602052604090206103f89082426111fd565b5050565b6002600054141561044f5760405162461bcd60e51b815260206004820152601f60248201527f5265656e7472616e637947756172643a207265656e7472616e742063616c6c0060448201526064016103ad565b60026000556001546201000090046001600160a01b031633146104a25760405162461bcd60e51b815260206004820152600b60248201526a2737ba102b37bcb0b3b2b960a91b60448201526064016103ad565b6104ac8383611240565b8111156105215760405162461bcd60e51b815260206004820152603a60248201527f5661756c743a2063616e6e6f742072656465656d206d6f7265207468616e207760448201527f6974686472617761626c65206465706f73697420616d6f756e7400000000000060648201526084016103ad565b7f6b66fb191a0c2858702608aa0de6da89e2207d9c2c8550be7b1fc507d6ae7499600101546040517fd9caed120000000000000000000000000000000000000000000000000000000081526001600160a01b0384811660048301528581166024830152604482018490529091169063d9caed1290606401600060405180830381600087803b1580156105b257600080fd5b505af11580156105c6573d6000803e3d6000fd5b505060016000555050505050565b60006105e08383611240565b90505b92915050565b6000806105f684846114b9565b90506106376040518060400160405280600881526020017f73656e6465723a200000000000000000000000000000000000000000000000008152508261178b565b6001600160a01b0381167f6b66fb191a0c2858702608aa0de6da89e2207d9c2c8550be7b1fc507d6ae7499546001600160a01b0316141561069b57507f1626ba7e0000000000000000000000000000000000000000000000000000000090506105e3565b507fffffffff000000000000000000000000000000000000000000000000000000009392505050565b7f6b66fb191a0c2858702608aa0de6da89e2207d9c2c8550be7b1fc507d6ae749a546040517fb8ba16fd0000000000000000000000000000000000000000000000000000000081526001600160a01b038381166004830152600092169063b8ba16fd906024015b60206040518083038186803b15801561074357600080fd5b505afa158015610757573d6000803e3d6000fd5b505050506040513d601f19601f820116820180604052508101906105e39190611e7c565b600260005414156107ce5760405162461bcd60e51b815260206004820152601f60248201527f5265656e7472616e637947756172643a207265656e7472616e742063616c6c0060448201526064016103ad565b60026000556001546201000090046001600160a01b031633146108215760405162461bcd60e51b815260206004820152600b60248201526a2737ba102b37bcb0b3b2b960a91b60448201526064016103ad565b6001546000906201000090046001600160a01b03166040517fde1eb9a30000000000000000000000000000000000000000000000000000000081526001600160a01b038581166004830152919091169063de1eb9a39060240160606040518083038186803b15801561089257600080fd5b505afa1580156108a6573d6000803e3d6000fd5b505050506040513d601f19601f820116820180604052508101906108ca9190611e95565b602081015190915060007f6b66fb191a0c2858702608aa0de6da89e2207d9c2c8550be7b1fc507d6ae7499600101546040517fb8ba16fd0000000000000000000000000000000000000000000000000000000081526001600160a01b0387811660048301529091169063b8ba16fd9060240160206040518083038186803b15801561095457600080fd5b505afa158015610968573d6000803e3d6000fd5b505050506040513d601f19601f8201168201806040525081019061098c9190611e7c565b9050816109998583611f07565b11156109e75760405162461bcd60e51b815260206004820152601c60248201527f5661756c743a206465706f73697420616d6f756e74206578636565640000000060448201526064016103ad565b825184811115610a395760405162461bcd60e51b815260206004820152601860248201527f5661756c743a206465706f73697420746f6f20736d616c6c000000000000000060448201526064016103ad565b7f6b66fb191a0c2858702608aa0de6da89e2207d9c2c8550be7b1fc507d6ae7499600101546040517f8340f5490000000000000000000000000000000000000000000000000000000081526001600160a01b03888116600483015289811660248301526044820188905290911690638340f54990606401600060405180830381600087803b158015610aca57600080fd5b505af1158015610ade573d6000803e3d6000fd5b50506001600055505050505050505050565b60026000541415610b435760405162461bcd60e51b815260206004820152601f60248201527f5265656e7472616e637947756172643a207265656e7472616e742063616c6c0060448201526064016103ad565b60026000556001546201000090046001600160a01b03163314610b965760405162461bcd60e51b815260206004820152600b60248201526a2737ba102b37bcb0b3b2b960a91b60448201526064016103ad565b60005b81811015610c80576001600160a01b03841660009081527f6b66fb191a0c2858702608aa0de6da89e2207d9c2c8550be7b1fc507d6ae749b602052604081208190610be3906117fe565b6040517f23b872dd0000000000000000000000000000000000000000000000000000000081523060048201526001600160a01b03888116602483015260448201849052929450909250908716906323b872dd90606401600060405180830381600087803b158015610c5357600080fd5b505af1158015610c67573d6000803e3d6000fd5b5050505050508080610c7890611f1f565b915050610b99565b505060016000555050565b7f6b66fb191a0c2858702608aa0de6da89e2207d9c2c8550be7b1fc507d6ae749a546040517f70a082310000000000000000000000000000000000000000000000000000000081526001600160a01b0391821660048201526000918316906370a082319060240161072b565b600060026000541415610d4c5760405162461bcd60e51b815260206004820152601f60248201527f5265656e7472616e637947756172643a207265656e7472616e742063616c6c0060448201526064016103ad565b60026000556001546201000090046001600160a01b03163314610d9f5760405162461bcd60e51b815260206004820152600b60248201526a2737ba102b37bcb0b3b2b960a91b60448201526064016103ad565b7f6b66fb191a0c2858702608aa0de6da89e2207d9c2c8550be7b1fc507d6ae7499600101546040517fe74f82390000000000000000000000000000000000000000000000000000000081526001600160a01b0386811660048301528581166024830152604482018590529091169063e74f823990606401602060405180830381600087803b158015610e3057600080fd5b505af1158015610e44573d6000803e3d6000fd5b505050506040513d601f19601f82011682018060405250810190610e689190611e7c565b6001600055949350505050565b600154610100900460ff16610e905760015460ff1615610e94565b303b155b610f065760405162461bcd60e51b815260206004820152602e60248201527f496e697469616c697a61626c653a20636f6e747261637420697320616c72656160448201527f647920696e697469616c697a656400000000000000000000000000000000000060648201526084016103ad565b600154610100900460ff16158015610f4557600180547fffffffffffffffffffffffffffffffffffffffffffffffffffffffffffff0000166101011790555b600180547fffffffffffffffffffff0000000000000000000000000000000000000000ffff16620100006001600160a01b03881602179055817f6b66fb191a0c2858702608aa0de6da89e2207d9c2c8550be7b1fc507d6ae749960010180547fffffffffffffffffffffffff0000000000000000000000000000000000000000166001600160a01b0392909216919091179055837f6b66fb191a0c2858702608aa0de6da89e2207d9c2c8550be7b1fc507d6ae749980547fffffffffffffffffffffffff0000000000000000000000000000000000000000166001600160a01b03929092169190911790556110a97f01ffc9a7000000000000000000000000000000000000000000000000000000006000527f6b66fb191a0c2858702608aa0de6da89e2207d9c2c8550be7b1fc507d6ae749c6020527f48d41088fec10f1351c6af3f09c022a1302f5a862fe0ef095157e59fb46a168f805460ff19166001179055565b7f6b66fb191a0c2858702608aa0de6da89e2207d9c2c8550be7b1fc507d6ae749c6020527f345bf60859998a4ebbafb395ad524070b9094421c2d66cc084a346fd689fd9748054600160ff1991821681179092557f6cae3d7221d58b67afbae6105c789659f1fbaf72850af8536b9eeaef631555cd80548216831790557f2d4c046ad959611df3c2cfef8cfef1aeef56dae29aa4e8118a7eb372755076f480548216831790557f599864b0091087109fd8a79a19d9b120cc47f4774463086d86a1068d95e04dcc80548216831790557f69e9cae1000000000000000000000000000000000000000000000000000000006000527fa0b5cf6aa9a170ce548244ceb7f3204cf90674c6efac4b8c1a7ebdbfb1a26e168054909116909117905580156111f657600180547fffffffffffffffffffffffffffffffffffffffffffffffffffffffffffff00ff1690555b5050505050565b825460018181018555600085815260209020608085901b8417920182905580850154611228916118d2565b6001850181905561123a9085906118de565b50505050565b60008061125c6001546001600160a01b03620100009091041690565b6040517fde1eb9a30000000000000000000000000000000000000000000000000000000081526001600160a01b038581166004830152919091169063de1eb9a39060240160606040518083038186803b1580156112b857600080fd5b505afa1580156112cc573d6000803e3d6000fd5b505050506040513d601f19601f820116820180604052508101906112f09190611e95565b60408101519091506000806113146001546001600160a01b03620100009091041690565b6040517f8a0695fd0000000000000000000000000000000000000000000000000000000081526001600160a01b0388811660048301523060248301529190911690638a0695fd90604401604080518083038186803b15801561137557600080fd5b505afa158015611389573d6000803e3d6000fd5b505050506040513d601f19601f820116820180604052508101906113ad9190611f3a565b909250905060006113be83836118d2565b905060007f6b66fb191a0c2858702608aa0de6da89e2207d9c2c8550be7b1fc507d6ae7499600101546040517f930f8f5e0000000000000000000000000000000000000000000000000000000081526001600160a01b038a811660048301528b811660248301529091169063930f8f5e9060440160206040518083038186803b15801561144a57600080fd5b505afa15801561145e573d6000803e3d6000fd5b505050506040513d601f19601f820116820180604052508101906114829190611e7c565b905060006114a161149c87611496866119bf565b906119cf565b611a11565b6114ab9083611f5e565b9a9950505050505050505050565b600081516041146115325760405162461bcd60e51b815260206004820152603a60248201527f5369676e617475726556616c696461746f72237265636f7665725369676e657260448201527f3a20696e76616c6964207369676e6174757265206c656e67746800000000000060648201526084016103ad565b60208201516040830151606084015160001a7f7fffffffffffffffffffffffffffffff5d576e7357a4501ddfe92f46681b20a08211156115da5760405162461bcd60e51b815260206004820152603d60248201527f5369676e617475726556616c696461746f72237265636f7665725369676e657260448201527f3a20696e76616c6964207369676e6174757265202773272076616c756500000060648201526084016103ad565b8060ff16601b141580156115f257508060ff16601c14155b156116655760405162461bcd60e51b815260206004820152603d60248201527f5369676e617475726556616c696461746f72237265636f7665725369676e657260448201527f3a20696e76616c6964207369676e6174757265202776272076616c756500000060648201526084016103ad565b6040517f19457468657265756d205369676e6564204d6573736167653a0a3332000000006020820152603c8101879052600190605c0160408051601f198184030181528282528051602091820120600084529083018083525260ff841690820152606081018590526080810184905260a0016020604051602081039080840390855afa1580156116f9573d6000803e3d6000fd5b5050604051601f1901519450506001600160a01b0384166117825760405162461bcd60e51b815260206004820152603060248201527f5369676e617475726556616c696461746f72237265636f7665725369676e657260448201527f3a20494e56414c49445f5349474e45520000000000000000000000000000000060648201526084016103ad565b50505092915050565b6103f882826040516024016117a1929190611f75565b60408051601f198184030181529190526020810180517bffffffffffffffffffffffffffffffffffffffffffffffffffffffff167f319af33300000000000000000000000000000000000000000000000000000000179052611a3e565b60008060008360000160018154811061181957611819611fdb565b906000526020600020015490508360000184600101548154811061183f5761183f611fdb565b90600052602060002001548460000160018154811061186057611860611fdb565b60009182526020909120015560018401548454859190811061188457611884611fdb565b600091825260208220015560018481015461189e91611a5f565b84600101819055506118b1846001611a6b565b608081901c946fffffffffffffffffffffffffffffffff9091169350915050565b60006105e08284611f07565b8154819081906000908590839081106118f9576118f9611fdb565b906000526020600020015490505b84611913846002611b60565b8154811061192357611923611fdb565b906000526020600020015481101561198f5784611941846002611b60565b8154811061195157611951611fdb565b906000526020600020015485600001848154811061197157611971611fdb565b600091825260209091200155611988836002611b60565b9250611907565b8183146111f657808560000184815481106119ac576119ac611fdb565b6000918252602090912001555050505050565b60006105e382633b9aca00611b6c565b60006105e06b033b2e3c9fd0803ce8000000611a0b6119ee8686611b6c565b611a0560026b033b2e3c9fd0803ce8000000611ff1565b906118d2565b90611b60565b600080611a236002633b9aca00611ff1565b9050611a37633b9aca00611a0b83866118d2565b9392505050565b80516a636f6e736f6c652e6c6f67602083016000808483855afa5050505050565b60006105e08284611f5e565b815481908190600090859083908110611a8657611a86611fdb565b906000526020600020015490506000611a9f8685611b78565b90505b85600101548111158015611ad45750856000018181548110611ac657611ac6611fdb565b906000526020600020015482115b15611b2e57856000018181548110611aee57611aee611fdb565b9060005260206000200154866000018581548110611b0e57611b0e611fdb565b600091825260209091200155925082611b278682611b78565b9050611aa2565b828414611b585781866000018581548110611b4b57611b4b611fdb565b6000918252602090912001555b505050505050565b60006105e08284611ff1565b60006105e08284612013565b600180830154600091611b9090611a05856002611b6c565b1115611ba857611ba1826002611b6c565b90506105e3565b82611bb96001611a05856002611b6c565b81548110611bc957611bc9611fdb565b60009182526020909120015483611be1846002611b6c565b81548110611bf157611bf1611fdb565b90600052602060002001541015611c0d57611ba1826002611b6c565b611ba16001611a05846002611b6c565b600060208284031215611c2f57600080fd5b81357fffffffff0000000000000000000000000000000000000000000000000000000081168114611a3757600080fd5b6001600160a01b0381168114611c7457600080fd5b50565b60008060408385031215611c8a57600080fd5b8235611c9581611c5f565b946020939093013593505050565b600080600060608486031215611cb857600080fd5b8335611cc381611c5f565b92506020840135611cd381611c5f565b929592945050506040919091013590565b60008060408385031215611cf757600080fd5b8235611d0281611c5f565b91506020830135611d1281611c5f565b809150509250929050565b634e487b7160e01b600052604160045260246000fd5b604051601f8201601f1916810167ffffffffffffffff81118282101715611d5c57611d5c611d1d565b604052919050565b60008060408385031215611d7757600080fd5b8235915060208084013567ffffffffffffffff80821115611d9757600080fd5b818601915086601f830112611dab57600080fd5b813581811115611dbd57611dbd611d1d565b611dcf84601f19601f84011601611d33565b91508082528784828501011115611de557600080fd5b80848401858401376000848284010152508093505050509250929050565b600060208284031215611e1557600080fd5b8135611a3781611c5f565b60008060008060808587031215611e3657600080fd5b8435611e4181611c5f565b93506020850135611e5181611c5f565b92506040850135611e6181611c5f565b91506060850135611e7181611c5f565b939692955090935050565b600060208284031215611e8e57600080fd5b5051919050565b600060608284031215611ea757600080fd5b6040516060810181811067ffffffffffffffff82111715611eca57611eca611d1d565b80604052508251815260208301516020820152604083015160408201528091505092915050565b634e487b7160e01b600052601160045260246000fd5b60008219821115611f1a57611f1a611ef1565b500190565b6000600019821415611f3357611f33611ef1565b5060010190565b60008060408385031215611f4d57600080fd5b505080516020909101519092909150565b600082821015611f7057611f70611ef1565b500390565b604081526000835180604084015260005b81811015611fa35760208187018101516060868401015201611f86565b81811115611fb5576000606083860101525b506001600160a01b0393909316602083015250601f91909101601f191601606001919050565b634e487b7160e01b600052603260045260246000fd5b60008261200e57634e487b7160e01b600052601260045260246000fd5b500490565b600081600019048311821515161561202d5761202d611ef1565b50029056fea2646970667358221220b225cf3951ec7adc53703ece0dc8bf124c623ff8b6183af5a3dea496cf6e5e1864736f6c63430008090033608060405234801561001057600080fd5b506040516105e13803806105e183398101604081905261002f91610151565b61003833610047565b61004181610097565b50610181565b600080546001600160a01b038381166001600160a01b0319831681178455604051919092169283917f8be0079c531659141344cd1fd0a4f28419497f9722a3daafe3b4186f6b6457e09190a35050565b6100aa8161014260201b6102bd1760201c565b6101205760405162461bcd60e51b815260206004820152603360248201527f5570677261646561626c65426561636f6e3a20696d706c656d656e746174696f60448201527f6e206973206e6f74206120636f6e747261637400000000000000000000000000606482015260840160405180910390fd5b600180546001600160a01b0319166001600160a01b0392909216919091179055565b6001600160a01b03163b151590565b60006020828403121561016357600080fd5b81516001600160a01b038116811461017a57600080fd5b9392505050565b610451806101906000396000f3fe608060405234801561001057600080fd5b50600436106100675760003560e01c8063715018a611610050578063715018a6146100aa5780638da5cb5b146100b2578063f2fde38b146100c357600080fd5b80633659cfe61461006c5780635c60da1b14610081575b600080fd5b61007f61007a3660046103eb565b6100d6565b005b6001546001600160a01b03165b6040516001600160a01b03909116815260200160405180910390f35b61007f610175565b6000546001600160a01b031661008e565b61007f6100d13660046103eb565b6101db565b6000546001600160a01b031633146101355760405162461bcd60e51b815260206004820181905260248201527f4f776e61626c653a2063616c6c6572206973206e6f7420746865206f776e657260448201526064015b60405180910390fd5b61013e816102cc565b6040516001600160a01b038216907fbc7cd75a20ee27fd9adebab32041f755214dbc6bffa90cc0225b39da2e5c2d3b90600090a250565b6000546001600160a01b031633146101cf5760405162461bcd60e51b815260206004820181905260248201527f4f776e61626c653a2063616c6c6572206973206e6f7420746865206f776e6572604482015260640161012c565b6101d96000610383565b565b6000546001600160a01b031633146102355760405162461bcd60e51b815260206004820181905260248201527f4f776e61626c653a2063616c6c6572206973206e6f7420746865206f776e6572604482015260640161012c565b6001600160a01b0381166102b15760405162461bcd60e51b815260206004820152602660248201527f4f776e61626c653a206e6577206f776e657220697320746865207a65726f206160448201527f6464726573730000000000000000000000000000000000000000000000000000606482015260840161012c565b6102ba81610383565b50565b6001600160a01b03163b151590565b6001600160a01b0381163b6103495760405162461bcd60e51b815260206004820152603360248201527f5570677261646561626c65426561636f6e3a20696d706c656d656e746174696f60448201527f6e206973206e6f74206120636f6e747261637400000000000000000000000000606482015260840161012c565b600180547fffffffffffffffffffffffff0000000000000000000000000000000000000000166001600160a01b0392909216919091179055565b600080546001600160a01b038381167fffffffffffffffffffffffff0000000000000000000000000000000000000000831681178455604051919092169283917f8be0079c531659141344cd1fd0a4f28419497f9722a3daafe3b4186f6b6457e09190a35050565b6000602082840312156103fd57600080fd5b81356001600160a01b038116811461041457600080fd5b939250505056fea2646970667358221220481185d8c4c8cad6fe97c490a4a85a544333370ad7c3c50b99461aa6e74c651f64736f6c6343000809003360806040526003805464ffffffffff191662093a8017905534801561002357600080fd5b5060016000556113b0806100386000396000f3fe6080604052600436106100965760003560e01c8063b8ba16fd11610069578063d9caed121161004e578063d9caed12146101b6578063e74f8239146101d6578063fbfa77cf146101e957600080fd5b8063b8ba16fd14610160578063c4d66de81461019657600080fd5b80630d8e6e2c1461009b5780638340f549146100f0578063930f8f5e146101055780639932f03614610133575b600080fd5b3480156100a757600080fd5b50604080518082018252601281527f4d617267696e457363726f7720302e302e310000000000000000000000000000602082015290516100e791906110ff565b60405180910390f35b6101036100fe36600461114a565b61022c565b005b34801561011157600080fd5b5061012561012036600461118b565b610303565b6040519081526020016100e7565b34801561013f57600080fd5b5061015361014e36600461118b565b6103d6565b6040516100e791906111c4565b34801561016c57600080fd5b5061012561017b36600461121a565b6001600160a01b031660009081526001602052604090205490565b3480156101a257600080fd5b506101036101b136600461121a565b61046e565b3480156101c257600080fd5b506101036101d136600461114a565b6105c6565b6101256101e436600461114a565b61063b565b3480156101f557600080fd5b506003546102149067010000000000000090046001600160a01b031681565b6040516001600160a01b0390911681526020016100e7565b600260005414156102845760405162461bcd60e51b815260206004820152601f60248201527f5265656e7472616e637947756172643a207265656e7472616e742063616c6c0060448201526064015b60405180910390fd5b600260005560035467010000000000000090046001600160a01b031633146102ee5760405162461bcd60e51b815260206004820152600960248201527f4e6f74207661756c740000000000000000000000000000000000000000000000604482015260640161027b565b6102f98383836107b3565b5050600160005550565b6001600160a01b038083166000908152600260209081526040808320938516835292905290812081805b82548110156103cd57600354835464ffffffffff9091169084908390811061035757610357611237565b600091825260209091206001600290920201015461037c9064ffffffffff1642611295565b64ffffffffff1611156103bb5782818154811061039b5761039b611237565b906000526020600020906002020160000154826103b891906112bb565b91505b806103c5816112d3565b91505061032d565b50949350505050565b6001600160a01b038083166000908152600260209081526040808320938516835292815282822080548451818402810184019095528085526060949193919284929084015b8282101561046157600084815260209081902060408051808201909152600285029091018054825260019081015464ffffffffff1682840152908352909201910161041b565b5050505091505092915050565b6003546601000000000000900460ff166104975760035465010000000000900460ff161561049b565b303b155b61050d5760405162461bcd60e51b815260206004820152602e60248201527f496e697469616c697a61626c653a20636f6e747261637420697320616c72656160448201527f647920696e697469616c697a6564000000000000000000000000000000000000606482015260840161027b565b6003546601000000000000900460ff1615801561055657600380547fffffffffffffffffffffffffffffffffffffffffffffffffff0000ffffffffff1666010100000000001790555b600380547fffffffffff0000000000000000000000000000000000000000ffffffffffffff166701000000000000006001600160a01b0385160217905580156105c257600380547fffffffffffffffffffffffffffffffffffffffffffffffffff00ffffffffffff1690555b5050565b60035467010000000000000090046001600160a01b0316331461062b5760405162461bcd60e51b815260206004820152600960248201527f4e6f74207661756c740000000000000000000000000000000000000000000000604482015260640161027b565b6106368383836109bd565b505050565b6000600260005414156106905760405162461bcd60e51b815260206004820152601f60248201527f5265656e7472616e637947756172643a207265656e7472616e742063616c6c00604482015260640161027b565b600260005560035467010000000000000090046001600160a01b031633146106fa5760405162461bcd60e51b815260206004820152600960248201527f4e6f74207661756c740000000000000000000000000000000000000000000000604482015260640161027b565b6040517f70a082310000000000000000000000000000000000000000000000000000000081523060048201526000906001600160a01b038616906370a082319060240160206040518083038186803b15801561075557600080fd5b505afa158015610769573d6000803e3d6000fd5b505050506040513d601f19601f8201168201806040525081019061078d919061130c565b90508281101561079b578092505b6107a6858585610c79565b5050600160005592915050565b6001600160a01b03831673eeeeeeeeeeeeeeeeeeeeeeeeeeeeeeeeeeeeeeee1461086557341561084b5760405162461bcd60e51b815260206004820152603260248201527f557365722069732073656e64696e672045544820616c6f6e672077697468207460448201527f6865204552433230207472616e736665722e0000000000000000000000000000606482015260840161027b565b6108606001600160a01b038416833084610d5a565b6108da565b8034146108da5760405162461bcd60e51b815260206004820152603560248201527f54686520616d6f756e7420616e64207468652076616c75652073656e7420746f60448201527f206465706f73697420646f206e6f74206d617463680000000000000000000000606482015260840161027b565b6001600160a01b038316600090815260016020526040812080548392906109029084906112bb565b90915550506040805180820182528281524264ffffffffff90811660208084019182526001600160a01b0388811660008181526002808552888220938b168083529385528882208054600180820183559184529286902089519390920290910191825594519401805464ffffffffff1916949095169390931790935584519182528101859052919290917f8752a472e571a816aea92eec8dae9baf628e840f4929fbcc2d155e6233ff68a7910160405180910390a250505050565b6001600160a01b03808416600090815260026020908152604080832093861683529290529081209080805b8354811015610af257600354845464ffffffffff90911690859083908110610a1257610a12611237565b6000918252602090912060016002909202010154610a379064ffffffffff1642611295565b64ffffffffff161115610ae057838181548110610a5657610a56611237565b90600052602060002090600202016000015483610a7391906112bb565b9250838181548110610a8757610a87611237565b906000526020600020906002020160010160009054906101000a900464ffffffffff169150838181548110610abe57610abe611237565b600091825260208220600290910201908155600101805464ffffffffff191690555b80610aea816112d3565b9150506109e8565b5083821015610b695760405162461bcd60e51b815260206004820152602560248201527f446f206e6f74206861766520656e6f75676820616d6f756e7420746f2077697460448201527f6864726177000000000000000000000000000000000000000000000000000000606482015260840161027b565b83821115610bf2576000610b7d8584611325565b60408051808201825291825264ffffffffff84811660208085019182526001600160a01b038c811660009081526002808452868220928e16825291835294852080546001808201835591875292909520955191029094019384555192909101805464ffffffffff191692909116919091179055505b6001600160a01b03861660009081526001602052604081208054869290610c1a908490611325565b90915550610c2b9050868686610c79565b604080516001600160a01b038881168252602082018790528716917fd1c19fbcd4551a5edfb66d43d2e337c04837afda3482b42bdf569a8fccdae5fb910160405180910390a2505050505050565b6001600160a01b03831673eeeeeeeeeeeeeeeeeeeeeeeeeeeeeeeeeeeeeeee14610cb1576106366001600160a01b0384168383610e0b565b6000826001600160a01b03168260405160006040518083038185875af1925050503d8060008114610cfe576040519150601f19603f3d011682016040523d82523d6000602084013e610d03565b606091505b5050905080610d545760405162461bcd60e51b815260206004820152601660248201527f5472616e73666572206f6620455448206661696c656400000000000000000000604482015260640161027b565b50505050565b6040516001600160a01b0380851660248301528316604482015260648101829052610d549085907f23b872dd00000000000000000000000000000000000000000000000000000000906084015b60408051601f198184030181529190526020810180517bffffffffffffffffffffffffffffffffffffffffffffffffffffffff167fffffffff0000000000000000000000000000000000000000000000000000000090931692909217909152610e54565b6040516001600160a01b0383166024820152604481018290526106369084907fa9059cbb0000000000000000000000000000000000000000000000000000000090606401610da7565b6000610ea9826040518060400160405280602081526020017f5361666545524332303a206c6f772d6c6576656c2063616c6c206661696c6564815250856001600160a01b0316610f399092919063ffffffff16565b8051909150156106365780806020019051810190610ec7919061133c565b6106365760405162461bcd60e51b815260206004820152602a60248201527f5361666545524332303a204552433230206f7065726174696f6e20646964206e60448201527f6f74207375636365656400000000000000000000000000000000000000000000606482015260840161027b565b6060610f488484600085610f52565b90505b9392505050565b606082471015610fca5760405162461bcd60e51b815260206004820152602660248201527f416464726573733a20696e73756666696369656e742062616c616e636520666f60448201527f722063616c6c0000000000000000000000000000000000000000000000000000606482015260840161027b565b6001600160a01b0385163b6110215760405162461bcd60e51b815260206004820152601d60248201527f416464726573733a2063616c6c20746f206e6f6e2d636f6e7472616374000000604482015260640161027b565b600080866001600160a01b0316858760405161103d919061135e565b60006040518083038185875af1925050503d806000811461107a576040519150601f19603f3d011682016040523d82523d6000602084013e61107f565b606091505b509150915061108f82828661109a565b979650505050505050565b606083156110a9575081610f4b565b8251156110b95782518084602001fd5b8160405162461bcd60e51b815260040161027b91906110ff565b60005b838110156110ee5781810151838201526020016110d6565b83811115610d545750506000910152565b602081526000825180602084015261111e8160408501602087016110d3565b601f01601f19169190910160400192915050565b6001600160a01b038116811461114757600080fd5b50565b60008060006060848603121561115f57600080fd5b833561116a81611132565b9250602084013561117a81611132565b929592945050506040919091013590565b6000806040838503121561119e57600080fd5b82356111a981611132565b915060208301356111b981611132565b809150509250929050565b602080825282518282018190526000919060409081850190868401855b8281101561120d5781518051855286015164ffffffffff168685015292840192908501906001016111e1565b5091979650505050505050565b60006020828403121561122c57600080fd5b8135610f4b81611132565b7f4e487b7100000000000000000000000000000000000000000000000000000000600052603260045260246000fd5b7f4e487b7100000000000000000000000000000000000000000000000000000000600052601160045260246000fd5b600064ffffffffff838116908316818110156112b3576112b3611266565b039392505050565b600082198211156112ce576112ce611266565b500190565b60007fffffffffffffffffffffffffffffffffffffffffffffffffffffffffffffffff82141561130557611305611266565b5060010190565b60006020828403121561131e57600080fd5b5051919050565b60008282101561133757611337611266565b500390565b60006020828403121561134e57600080fd5b81518015158114610f4b57600080fd5b600082516113708184602087016110d3565b919091019291505056fea26469706673582212204a5851d4e4fe390d93ab5452ccc8779471b6b577c67c8d06b9bb2d486ce0f56264736f6c63430008090033608060405260405162000ac238038062000ac28339810160408190526200002691620004e6565b6200005360017fa3f0ad74e5423aebfd80d3ef4346578335a9a72aeaee59ff6cb3582b35133d51620005b4565b60008051602062000a7b83398151915214620000735762000073620005da565b620000818282600062000089565b505062000661565b62000094836200016e565b6040516001600160a01b038416907f1cf3b03a6cf19fa2baba4df148e9dcabedea7f8a5c07840e207e5c089be95d3e90600090a2600082511180620000d65750805b15620001695762000167836001600160a01b0316635c60da1b6040518163ffffffff1660e01b815260040160206040518083038186803b1580156200011a57600080fd5b505afa1580156200012f573d6000803e3d6000fd5b505050506040513d601f19601f82011682018060405250810190620001559190620005f0565b836200031f60201b620000291760201c565b505b505050565b62000184816200034e60201b620000551760201c565b620001e45760405162461bcd60e51b815260206004820152602560248201527f455243313936373a206e657720626561636f6e206973206e6f74206120636f6e6044820152641d1c9858dd60da1b60648201526084015b60405180910390fd5b6200026e816001600160a01b0316635c60da1b6040518163ffffffff1660e01b815260040160206040518083038186803b1580156200022257600080fd5b505afa15801562000237573d6000803e3d6000fd5b505050506040513d601f19601f820116820180604052508101906200025d9190620005f0565b6200034e60201b620000551760201c565b620002d55760405162461bcd60e51b815260206004820152603060248201527f455243313936373a20626561636f6e20696d706c656d656e746174696f6e206960448201526f1cc81b9bdd08184818dbdb9d1c9858dd60821b6064820152608401620001db565b80620002fe60008051602062000a7b83398151915260001b6200035d60201b620000711760201c565b80546001600160a01b0319166001600160a01b039290921691909117905550565b606062000347838360405180606001604052806027815260200162000a9b6027913962000360565b9392505050565b6001600160a01b03163b151590565b90565b60606001600160a01b0384163b620003ca5760405162461bcd60e51b815260206004820152602660248201527f416464726573733a2064656c65676174652063616c6c20746f206e6f6e2d636f6044820152651b9d1c9858dd60d21b6064820152608401620001db565b600080856001600160a01b031685604051620003e791906200060e565b600060405180830381855af49150503d806000811462000424576040519150601f19603f3d011682016040523d82523d6000602084013e62000429565b606091505b5090925090506200043c82828662000446565b9695505050505050565b606083156200045757508162000347565b825115620004685782518084602001fd5b8160405162461bcd60e51b8152600401620001db91906200062c565b80516001600160a01b03811681146200049c57600080fd5b919050565b634e487b7160e01b600052604160045260246000fd5b60005b83811015620004d4578181015183820152602001620004ba565b83811115620001675750506000910152565b60008060408385031215620004fa57600080fd5b620005058362000484565b60208401519092506001600160401b03808211156200052357600080fd5b818501915085601f8301126200053857600080fd5b8151818111156200054d576200054d620004a1565b604051601f8201601f19908116603f01168101908382118183101715620005785762000578620004a1565b816040528281528860208487010111156200059257600080fd5b620005a5836020830160208801620004b7565b80955050505050509250929050565b600082821015620005d557634e487b7160e01b600052601160045260246000fd5b500390565b634e487b7160e01b600052600160045260246000fd5b6000602082840312156200060357600080fd5b620003478262000484565b6000825162000622818460208701620004b7565b9190910192915050565b60208152600082518060208401526200064d816040850160208701620004b7565b601f01601f19169190910160400192915050565b61040a80620006716000396000f3fe60806040523661001357610011610017565b005b6100115b610027610022610074565b610136565b565b606061004e83836040518060600160405280602781526020016103ae6027913961015a565b9392505050565b73ffffffffffffffffffffffffffffffffffffffff163b151590565b90565b60006100b47fa3f0ad74e5423aebfd80d3ef4346578335a9a72aeaee59ff6cb3582b35133d505473ffffffffffffffffffffffffffffffffffffffff1690565b73ffffffffffffffffffffffffffffffffffffffff16635c60da1b6040518163ffffffff1660e01b815260040160206040518083038186803b1580156100f957600080fd5b505afa15801561010d573d6000803e3d6000fd5b505050506040513d601f19601f8201168201806040525081019061013191906102da565b905090565b3660008037600080366000845af43d6000803e808015610155573d6000f35b3d6000fd5b606073ffffffffffffffffffffffffffffffffffffffff84163b610205576040517f08c379a000000000000000000000000000000000000000000000000000000000815260206004820152602660248201527f416464726573733a2064656c65676174652063616c6c20746f206e6f6e2d636f60448201527f6e7472616374000000000000000000000000000000000000000000000000000060648201526084015b60405180910390fd5b6000808573ffffffffffffffffffffffffffffffffffffffff168560405161022d9190610340565b600060405180830381855af49150503d8060008114610268576040519150601f19603f3d011682016040523d82523d6000602084013e61026d565b606091505b509150915061027d828286610287565b9695505050505050565b6060831561029657508161004e565b8251156102a65782518084602001fd5b816040517f08c379a00000000000000000000000000000000000000000000000000000000081526004016101fc919061035c565b6000602082840312156102ec57600080fd5b815173ffffffffffffffffffffffffffffffffffffffff8116811461004e57600080fd5b60005b8381101561032b578181015183820152602001610313565b8381111561033a576000848401525b50505050565b60008251610352818460208701610310565b9190910192915050565b602081526000825180602084015261037b816040850160208701610310565b601f017fffffffffffffffffffffffffffffffffffffffffffffffffffffffffffffffe016919091016040019291505056fe416464726573733a206c6f772d6c6576656c2064656c65676174652063616c6c206661696c6564a2646970667358221220f7300e1f68fbc928364524a935fe311c690e39b9efd0b2ef0bb1cda13ceef20c64736f6c63430008090033a3f0ad74e5423aebfd80d3ef4346578335a9a72aeaee59ff6cb3582b35133d50416464726573733a206c6f772d6c6576656c2064656c65676174652063616c6c206661696c6564a2646970667358221220a54fc930a27c635cbb51d2a15bcefd2ed33644c7ee4f5f7f68a727453417b01364736f6c63430008090033",
  "devdoc": {
    "kind": "dev",
    "methods": {
      "depositMargin(address,address,address,uint256)": {
        "params": {
          "_amount": "amount user is willing to deposit",
          "_owner": "vault admin address",
          "_reserve": "reserve address",
          "_sponsor": "deposits the reserve into the amount"
        }
      },
      "getAvailableCredit(address,address)": {
        "details": "Get available credit",
        "params": {
          "_reserve": "reserve address*",
          "_user": "user address"
        }
      },
      "getCreditLimit(address,address)": {
        "details": "Get credit limit for a specific reserve",
        "params": {
          "_user": "user address"
        },
        "returns": {
          "_0": "_reserve reserve address*"
        }
      },
      "redeemMargin(address,address,address,uint256)": {
        "details": "Delegate call to Vault's redeemSecurity",
        "params": {
          "_amount": "redeem amount*",
          "_owner": "user address",
          "_reserve": "reserve address",
          "_sponsor": "sponsor address"
        }
      },
      "setMarginRequirement(address,uint256)": {
        "details": "Update the margin requirement",
        "params": {
          "_requirement": "expressed in Ray",
          "_reserve": "reserve address"
        }
      },
      "setMaxMargin(address,uint256)": {
        "details": "Set max margin for _reserve",
        "params": {
          "_amount": "max amount sponsor can deposit",
          "_reserve": "reserve address"
        }
      },
      "setMinMargin(address,uint256)": {
        "details": "Set min margin for _reserve",
        "params": {
          "_amount": "min amount sponsor can deposit",
          "_reserve": "reserve address"
        }
      },
      "updateVaultImplContract(address)": {
        "details": "Update the vault impl address",
        "params": {
          "_impl": "vault impl contract"
        }
      }
    },
    "version": 1
  },
  "userdoc": {
    "kind": "user",
    "methods": {},
    "version": 1
  },
  "storageLayout": {
    "storage": [
      {
        "astId": 11912,
        "contract": "contracts/component/facets/VaultFacet.sol:VaultFacet",
        "label": "s",
        "offset": 0,
        "slot": "0",
        "type": "t_struct(AppStorage)11898_storage"
      },
      {
        "astId": 1227,
        "contract": "contracts/component/facets/VaultFacet.sol:VaultFacet",
        "label": "_status",
        "offset": 0,
        "slot": "10",
        "type": "t_uint256"
      }
    ],
    "types": {
      "t_address": {
        "encoding": "inplace",
        "label": "address",
        "numberOfBytes": "20"
      },
      "t_array(t_address)dyn_storage": {
        "base": "t_address",
        "encoding": "dynamic_array",
        "label": "address[]",
        "numberOfBytes": "32"
      },
      "t_array(t_struct(RepaymentData)11768_storage)dyn_storage": {
        "base": "t_struct(RepaymentData)11768_storage",
        "encoding": "dynamic_array",
        "label": "struct RepaymentData[]",
        "numberOfBytes": "32"
      },
      "t_bool": {
        "encoding": "inplace",
        "label": "bool",
        "numberOfBytes": "1"
      },
      "t_bytes32": {
        "encoding": "inplace",
        "label": "bytes32",
        "numberOfBytes": "32"
      },
      "t_contract(UpgradeableBeacon)1050": {
        "encoding": "inplace",
        "label": "contract UpgradeableBeacon",
        "numberOfBytes": "20"
      },
      "t_mapping(t_address,t_address)": {
        "encoding": "mapping",
        "key": "t_address",
        "label": "mapping(address => address)",
        "numberOfBytes": "32",
        "value": "t_address"
      },
      "t_mapping(t_address,t_mapping(t_address,t_struct(BorrowData)11817_storage))": {
        "encoding": "mapping",
        "key": "t_address",
        "label": "mapping(address => mapping(address => struct BorrowData))",
        "numberOfBytes": "32",
        "value": "t_mapping(t_address,t_struct(BorrowData)11817_storage)"
      },
      "t_mapping(t_address,t_struct(BorrowData)11817_storage)": {
        "encoding": "mapping",
        "key": "t_address",
        "label": "mapping(address => struct BorrowData)",
        "numberOfBytes": "32",
        "value": "t_struct(BorrowData)11817_storage"
      },
      "t_mapping(t_address,t_struct(BorrowState)11824_storage)": {
        "encoding": "mapping",
        "key": "t_address",
        "label": "mapping(address => struct BorrowState)",
        "numberOfBytes": "32",
        "value": "t_struct(BorrowState)11824_storage"
      },
      "t_mapping(t_address,t_struct(ReserveData)11747_storage)": {
        "encoding": "mapping",
        "key": "t_address",
        "label": "mapping(address => struct ReserveData)",
        "numberOfBytes": "32",
        "value": "t_struct(ReserveData)11747_storage"
      },
      "t_mapping(t_address,t_struct(VaultConfig)11831_storage)": {
        "encoding": "mapping",
        "key": "t_address",
        "label": "mapping(address => struct VaultConfig)",
        "numberOfBytes": "32",
        "value": "t_struct(VaultConfig)11831_storage"
      },
      "t_mapping(t_bytes32,t_address)": {
        "encoding": "mapping",
        "key": "t_bytes32",
        "label": "mapping(bytes32 => address)",
        "numberOfBytes": "32",
        "value": "t_address"
      },
      "t_mapping(t_uint256,t_address)": {
        "encoding": "mapping",
        "key": "t_uint256",
        "label": "mapping(uint256 => address)",
        "numberOfBytes": "32",
        "value": "t_address"
      },
      "t_mapping(t_uint256,t_struct(DrawDown)11796_storage)": {
        "encoding": "mapping",
        "key": "t_uint256",
        "label": "mapping(uint256 => struct DrawDown)",
        "numberOfBytes": "32",
        "value": "t_struct(DrawDown)11796_storage"
      },
      "t_struct(AppStorage)11898_storage": {
        "encoding": "inplace",
        "label": "struct AppStorage",
        "members": [
          {
            "astId": 11857,
            "contract": "contracts/component/facets/VaultFacet.sol:VaultFacet",
            "label": "_addresses",
            "offset": 0,
            "slot": "0",
            "type": "t_mapping(t_bytes32,t_address)"
          },
          {
            "astId": 11862,
            "contract": "contracts/component/facets/VaultFacet.sol:VaultFacet",
            "label": "_reserves",
            "offset": 0,
            "slot": "1",
            "type": "t_mapping(t_address,t_struct(ReserveData)11747_storage)"
          },
          {
            "astId": 11866,
            "contract": "contracts/component/facets/VaultFacet.sol:VaultFacet",
            "label": "_reserveList",
            "offset": 0,
            "slot": "2",
            "type": "t_mapping(t_uint256,t_address)"
          },
          {
            "astId": 11868,
            "contract": "contracts/component/facets/VaultFacet.sol:VaultFacet",
            "label": "_reservesCount",
            "offset": 0,
            "slot": "3",
            "type": "t_uint16"
          },
          {
            "astId": 11875,
            "contract": "contracts/component/facets/VaultFacet.sol:VaultFacet",
            "label": "_borrowData",
            "offset": 0,
            "slot": "4",
            "type": "t_mapping(t_address,t_mapping(t_address,t_struct(BorrowData)11817_storage))"
          },
          {
            "astId": 11880,
            "contract": "contracts/component/facets/VaultFacet.sol:VaultFacet",
            "label": "_borrowState",
            "offset": 0,
            "slot": "5",
            "type": "t_mapping(t_address,t_struct(BorrowState)11824_storage)"
          },
          {
            "astId": 11882,
            "contract": "contracts/component/facets/VaultFacet.sol:VaultFacet",
            "label": "_paused",
            "offset": 0,
            "slot": "6",
            "type": "t_bool"
          },
          {
            "astId": 11885,
            "contract": "contracts/component/facets/VaultFacet.sol:VaultFacet",
            "label": "upgradeableBeacon",
            "offset": 1,
            "slot": "6",
            "type": "t_contract(UpgradeableBeacon)1050"
          },
          {
            "astId": 11888,
            "contract": "contracts/component/facets/VaultFacet.sol:VaultFacet",
            "label": "vaults",
            "offset": 0,
            "slot": "7",
            "type": "t_array(t_address)dyn_storage"
          },
          {
            "astId": 11892,
            "contract": "contracts/component/facets/VaultFacet.sol:VaultFacet",
            "label": "vaultMap",
            "offset": 0,
            "slot": "8",
            "type": "t_mapping(t_address,t_address)"
          },
          {
            "astId": 11897,
            "contract": "contracts/component/facets/VaultFacet.sol:VaultFacet",
            "label": "vaultConfigMap",
            "offset": 0,
            "slot": "9",
            "type": "t_mapping(t_address,t_struct(VaultConfig)11831_storage)"
          }
        ],
        "numberOfBytes": "320"
      },
      "t_struct(BorrowData)11817_storage": {
        "encoding": "inplace",
        "label": "struct BorrowData",
        "members": [
          {
            "astId": 11803,
            "contract": "contracts/component/facets/VaultFacet.sol:VaultFacet",
            "label": "paidDrawDownNumber",
            "offset": 0,
            "slot": "0",
            "type": "t_uint256"
          },
          {
            "astId": 11805,
            "contract": "contracts/component/facets/VaultFacet.sol:VaultFacet",
            "label": "nextDrawDownNumber",
            "offset": 0,
            "slot": "1",
            "type": "t_uint256"
          },
          {
            "astId": 11807,
            "contract": "contracts/component/facets/VaultFacet.sol:VaultFacet",
            "label": "totalPrincipal",
            "offset": 0,
            "slot": "2",
            "type": "t_uint256"
          },
          {
            "astId": 11809,
            "contract": "contracts/component/facets/VaultFacet.sol:VaultFacet",
            "label": "totalInterest",
            "offset": 0,
            "slot": "3",
            "type": "t_uint256"
          },
          {
            "astId": 11811,
            "contract": "contracts/component/facets/VaultFacet.sol:VaultFacet",
            "label": "mapSize",
            "offset": 0,
            "slot": "4",
            "type": "t_uint256"
          },
          {
            "astId": 11816,
            "contract": "contracts/component/facets/VaultFacet.sol:VaultFacet",
            "label": "drawDowns",
            "offset": 0,
            "slot": "5",
            "type": "t_mapping(t_uint256,t_struct(DrawDown)11796_storage)"
          }
        ],
        "numberOfBytes": "192"
      },
      "t_struct(BorrowState)11824_storage": {
        "encoding": "inplace",
        "label": "struct BorrowState",
        "members": [
          {
            "astId": 11819,
            "contract": "contracts/component/facets/VaultFacet.sol:VaultFacet",
            "label": "totalDebt",
            "offset": 0,
            "slot": "0",
            "type": "t_uint256"
          },
          {
            "astId": 11821,
            "contract": "contracts/component/facets/VaultFacet.sol:VaultFacet",
            "label": "totalInterest",
            "offset": 0,
            "slot": "1",
            "type": "t_uint256"
          },
          {
            "astId": 11823,
            "contract": "contracts/component/facets/VaultFacet.sol:VaultFacet",
            "label": "avgBorrowRate",
            "offset": 0,
            "slot": "2",
            "type": "t_uint256"
          }
        ],
        "numberOfBytes": "96"
      },
      "t_struct(DrawDown)11796_storage": {
        "encoding": "inplace",
        "label": "struct DrawDown",
        "members": [
          {
            "astId": 11770,
            "contract": "contracts/component/facets/VaultFacet.sol:VaultFacet",
            "label": "principal",
            "offset": 0,
            "slot": "0",
            "type": "t_uint256"
          },
          {
            "astId": 11772,
            "contract": "contracts/component/facets/VaultFacet.sol:VaultFacet",
            "label": "term",
            "offset": 0,
            "slot": "1",
            "type": "t_uint256"
          },
          {
            "astId": 11774,
            "contract": "contracts/component/facets/VaultFacet.sol:VaultFacet",
            "label": "epoch",
            "offset": 0,
            "slot": "2",
            "type": "t_uint256"
          },
          {
            "astId": 11776,
            "contract": "contracts/component/facets/VaultFacet.sol:VaultFacet",
            "label": "nper",
            "offset": 0,
            "slot": "3",
            "type": "t_uint256"
          },
          {
            "astId": 11779,
            "contract": "contracts/component/facets/VaultFacet.sol:VaultFacet",
            "label": "pmt",
            "offset": 0,
            "slot": "4",
            "type": "t_struct(PMT)11757_storage"
          },
          {
            "astId": 11781,
            "contract": "contracts/component/facets/VaultFacet.sol:VaultFacet",
            "label": "apr",
            "offset": 0,
            "slot": "7",
            "type": "t_uint256"
          },
          {
            "astId": 11783,
            "contract": "contracts/component/facets/VaultFacet.sol:VaultFacet",
            "label": "borrowAt",
            "offset": 0,
            "slot": "8",
            "type": "t_uint256"
          },
          {
            "astId": 11785,
            "contract": "contracts/component/facets/VaultFacet.sol:VaultFacet",
            "label": "nextPaymentDue",
            "offset": 0,
            "slot": "9",
            "type": "t_uint256"
          },
          {
            "astId": 11787,
            "contract": "contracts/component/facets/VaultFacet.sol:VaultFacet",
            "label": "totalPrincipalPaid",
            "offset": 0,
            "slot": "10",
            "type": "t_uint256"
          },
          {
            "astId": 11789,
            "contract": "contracts/component/facets/VaultFacet.sol:VaultFacet",
            "label": "totalInterestPaid",
            "offset": 0,
            "slot": "11",
            "type": "t_uint256"
          },
          {
            "astId": 11793,
            "contract": "contracts/component/facets/VaultFacet.sol:VaultFacet",
            "label": "repayments",
            "offset": 0,
            "slot": "12",
            "type": "t_array(t_struct(RepaymentData)11768_storage)dyn_storage"
          },
          {
            "astId": 11795,
            "contract": "contracts/component/facets/VaultFacet.sol:VaultFacet",
            "label": "paidTimes",
            "offset": 0,
            "slot": "13",
            "type": "t_uint256"
          }
        ],
        "numberOfBytes": "448"
      },
      "t_struct(PMT)11757_storage": {
        "encoding": "inplace",
        "label": "struct PMT",
        "members": [
          {
            "astId": 11752,
            "contract": "contracts/component/facets/VaultFacet.sol:VaultFacet",
            "label": "principal",
            "offset": 0,
            "slot": "0",
            "type": "t_uint256"
          },
          {
            "astId": 11754,
            "contract": "contracts/component/facets/VaultFacet.sol:VaultFacet",
            "label": "interest",
            "offset": 0,
            "slot": "1",
            "type": "t_uint256"
          },
          {
            "astId": 11756,
            "contract": "contracts/component/facets/VaultFacet.sol:VaultFacet",
            "label": "pmt",
            "offset": 0,
            "slot": "2",
            "type": "t_uint256"
          }
        ],
        "numberOfBytes": "96"
      },
      "t_struct(RepaymentData)11768_storage": {
        "encoding": "inplace",
        "label": "struct RepaymentData",
        "members": [
          {
            "astId": 11759,
            "contract": "contracts/component/facets/VaultFacet.sol:VaultFacet",
            "label": "principal",
            "offset": 0,
            "slot": "0",
            "type": "t_uint256"
          },
          {
            "astId": 11761,
            "contract": "contracts/component/facets/VaultFacet.sol:VaultFacet",
            "label": "interest",
            "offset": 0,
            "slot": "1",
            "type": "t_uint256"
          },
          {
            "astId": 11763,
            "contract": "contracts/component/facets/VaultFacet.sol:VaultFacet",
            "label": "total",
            "offset": 0,
            "slot": "2",
            "type": "t_uint256"
          },
          {
            "astId": 11765,
            "contract": "contracts/component/facets/VaultFacet.sol:VaultFacet",
            "label": "paidAt",
            "offset": 0,
            "slot": "3",
            "type": "t_uint40"
          },
          {
            "astId": 11767,
            "contract": "contracts/component/facets/VaultFacet.sol:VaultFacet",
            "label": "isLiquidated",
            "offset": 5,
            "slot": "3",
            "type": "t_bool"
          }
        ],
        "numberOfBytes": "128"
      },
      "t_struct(ReserveConfigurationMap)11750_storage": {
        "encoding": "inplace",
        "label": "struct ReserveConfigurationMap",
        "members": [
          {
            "astId": 11749,
            "contract": "contracts/component/facets/VaultFacet.sol:VaultFacet",
            "label": "data",
            "offset": 0,
            "slot": "0",
            "type": "t_uint256"
          }
        ],
        "numberOfBytes": "32"
      },
      "t_struct(ReserveData)11747_storage": {
        "encoding": "inplace",
        "label": "struct ReserveData",
        "members": [
          {
            "astId": 11710,
            "contract": "contracts/component/facets/VaultFacet.sol:VaultFacet",
            "label": "configuration",
            "offset": 0,
            "slot": "0",
            "type": "t_struct(ReserveConfigurationMap)11750_storage"
          },
          {
            "astId": 11712,
            "contract": "contracts/component/facets/VaultFacet.sol:VaultFacet",
            "label": "currentOverallLiquidityRate",
            "offset": 0,
            "slot": "1",
            "type": "t_uint256"
          },
          {
            "astId": 11714,
            "contract": "contracts/component/facets/VaultFacet.sol:VaultFacet",
            "label": "currentJuniorLiquidityRate",
            "offset": 0,
            "slot": "2",
            "type": "t_uint256"
          },
          {
            "astId": 11716,
            "contract": "contracts/component/facets/VaultFacet.sol:VaultFacet",
            "label": "currentSeniorLiquidityRate",
            "offset": 0,
            "slot": "3",
            "type": "t_uint256"
          },
          {
            "astId": 11718,
            "contract": "contracts/component/facets/VaultFacet.sol:VaultFacet",
            "label": "currentBorrowRate",
            "offset": 0,
            "slot": "4",
            "type": "t_uint256"
          },
          {
            "astId": 11720,
            "contract": "contracts/component/facets/VaultFacet.sol:VaultFacet",
            "label": "marginRequirement",
            "offset": 0,
            "slot": "5",
            "type": "t_uint256"
          },
          {
            "astId": 11722,
            "contract": "contracts/component/facets/VaultFacet.sol:VaultFacet",
            "label": "decimals",
            "offset": 0,
            "slot": "6",
            "type": "t_uint256"
          },
          {
            "astId": 11724,
            "contract": "contracts/component/facets/VaultFacet.sol:VaultFacet",
            "label": "interestRateStrategyAddress",
            "offset": 0,
            "slot": "7",
            "type": "t_address"
          },
          {
            "astId": 11726,
            "contract": "contracts/component/facets/VaultFacet.sol:VaultFacet",
            "label": "healthStrategyAddress",
            "offset": 0,
            "slot": "8",
            "type": "t_address"
          },
          {
            "astId": 11728,
            "contract": "contracts/component/facets/VaultFacet.sol:VaultFacet",
            "label": "loanStrategyAddress",
            "offset": 0,
            "slot": "9",
            "type": "t_address"
          },
          {
            "astId": 11730,
            "contract": "contracts/component/facets/VaultFacet.sol:VaultFacet",
            "label": "juniorDepositTokenAddress",
            "offset": 0,
            "slot": "10",
            "type": "t_address"
          },
          {
            "astId": 11732,
            "contract": "contracts/component/facets/VaultFacet.sol:VaultFacet",
            "label": "seniorDepositTokenAddress",
            "offset": 0,
            "slot": "11",
            "type": "t_address"
          },
          {
            "astId": 11734,
            "contract": "contracts/component/facets/VaultFacet.sol:VaultFacet",
            "label": "juniorLastUpdateTimestamp",
            "offset": 20,
            "slot": "11",
            "type": "t_uint40"
          },
          {
            "astId": 11736,
            "contract": "contracts/component/facets/VaultFacet.sol:VaultFacet",
            "label": "seniorLastUpdateTimestamp",
            "offset": 25,
            "slot": "11",
            "type": "t_uint40"
          },
          {
            "astId": 11738,
            "contract": "contracts/component/facets/VaultFacet.sol:VaultFacet",
            "label": "optimalTrancheRatio",
            "offset": 0,
            "slot": "12",
            "type": "t_uint256"
          },
          {
            "astId": 11740,
            "contract": "contracts/component/facets/VaultFacet.sol:VaultFacet",
            "label": "currentIncomeRatio",
            "offset": 0,
            "slot": "13",
            "type": "t_uint256"
          },
          {
            "astId": 11742,
            "contract": "contracts/component/facets/VaultFacet.sol:VaultFacet",
            "label": "optimalIncomeRatio",
            "offset": 0,
            "slot": "14",
            "type": "t_uint256"
          },
          {
            "astId": 11744,
            "contract": "contracts/component/facets/VaultFacet.sol:VaultFacet",
            "label": "nftAddress",
            "offset": 0,
            "slot": "15",
            "type": "t_address"
          },
          {
            "astId": 11746,
            "contract": "contracts/component/facets/VaultFacet.sol:VaultFacet",
            "label": "initialized",
            "offset": 20,
            "slot": "15",
            "type": "t_bool"
          }
        ],
        "numberOfBytes": "512"
      },
      "t_struct(VaultConfig)11831_storage": {
        "encoding": "inplace",
        "label": "struct VaultConfig",
        "members": [
          {
            "astId": 11826,
            "contract": "contracts/component/facets/VaultFacet.sol:VaultFacet",
            "label": "minMargin",
            "offset": 0,
            "slot": "0",
            "type": "t_uint256"
          },
          {
            "astId": 11828,
            "contract": "contracts/component/facets/VaultFacet.sol:VaultFacet",
            "label": "maxMargin",
            "offset": 0,
            "slot": "1",
            "type": "t_uint256"
          },
          {
            "astId": 11830,
            "contract": "contracts/component/facets/VaultFacet.sol:VaultFacet",
            "label": "marginRequirement",
            "offset": 0,
            "slot": "2",
            "type": "t_uint256"
          }
        ],
        "numberOfBytes": "96"
      },
      "t_uint16": {
        "encoding": "inplace",
        "label": "uint16",
        "numberOfBytes": "2"
      },
      "t_uint256": {
        "encoding": "inplace",
        "label": "uint256",
        "numberOfBytes": "32"
      },
      "t_uint40": {
        "encoding": "inplace",
        "label": "uint40",
        "numberOfBytes": "5"
      }
    }
  }
}