{
  "address": "0xf29cdfB7C1B6349366640a0223870F7995512D46",
  "abi": [
    {
      "anonymous": false,
      "inputs": [
        {
          "indexed": false,
          "internalType": "bool",
          "name": "",
          "type": "bool"
        },
        {
          "indexed": false,
          "internalType": "bytes",
          "name": "",
          "type": "bytes"
        }
      ],
      "name": "CallResult",
      "type": "event"
    },
    {
      "anonymous": false,
      "inputs": [
        {
          "indexed": true,
          "internalType": "address",
          "name": "previousOwner",
          "type": "address"
        },
        {
          "indexed": true,
          "internalType": "address",
          "name": "newOwner",
          "type": "address"
        }
      ],
      "name": "OwnershipTransferred",
      "type": "event"
    },
    {
      "inputs": [],
      "name": "aclManagerName",
      "outputs": [
        {
          "internalType": "bytes32",
          "name": "",
          "type": "bytes32"
        }
      ],
      "stateMutability": "view",
      "type": "function"
    },
    {
      "inputs": [],
      "name": "addressResolver",
      "outputs": [
        {
          "internalType": "contract AddressResolver",
          "name": "",
          "type": "address"
        }
      ],
      "stateMutability": "view",
      "type": "function"
    },
    {
      "inputs": [],
      "name": "claimOwnership",
      "outputs": [],
      "stateMutability": "nonpayable",
      "type": "function"
    },
    {
      "inputs": [],
      "name": "createVault",
      "outputs": [
        {
          "internalType": "address",
          "name": "",
          "type": "address"
        }
      ],
      "stateMutability": "nonpayable",
      "type": "function"
    },
    {
      "inputs": [
        {
          "internalType": "address",
          "name": "_asset",
          "type": "address"
        },
        {
          "internalType": "enum ReserveLogic.Tranche",
          "name": "_tranche",
          "type": "uint8"
        },
        {
          "internalType": "uint256",
          "name": "_amount",
          "type": "uint256"
        },
        {
          "internalType": "address",
          "name": "_onBehalfOf",
          "type": "address"
        }
      ],
      "name": "deposit",
      "outputs": [],
      "stateMutability": "nonpayable",
      "type": "function"
    },
    {
      "inputs": [
        {
          "internalType": "address",
          "name": "_vaultUser",
          "type": "address"
        },
        {
          "internalType": "address",
          "name": "_reserve",
          "type": "address"
        },
        {
          "internalType": "uint256",
          "name": "_amount",
          "type": "uint256"
        }
      ],
      "name": "depositSecurity",
      "outputs": [],
      "stateMutability": "nonpayable",
      "type": "function"
    },
    {
      "inputs": [
        {
          "internalType": "address",
          "name": "_vaultUser",
          "type": "address"
        },
        {
          "internalType": "address",
          "name": "_reserve",
          "type": "address"
        },
        {
          "internalType": "address",
          "name": "_sponsor",
          "type": "address"
        }
      ],
      "name": "eligibleAmount",
      "outputs": [
        {
          "internalType": "uint256",
          "name": "",
          "type": "uint256"
        }
      ],
      "stateMutability": "view",
      "type": "function"
    },
    {
      "inputs": [],
      "name": "extCallACLProxyName",
      "outputs": [
        {
          "internalType": "bytes32",
          "name": "",
          "type": "bytes32"
        }
      ],
      "stateMutability": "view",
      "type": "function"
    },
    {
      "inputs": [],
      "name": "getACLManagerName",
      "outputs": [
        {
          "internalType": "bytes32",
          "name": "",
          "type": "bytes32"
        }
      ],
      "stateMutability": "view",
      "type": "function"
    },
    {
      "inputs": [],
      "name": "getAddressResolverAddress",
      "outputs": [
        {
          "internalType": "address",
          "name": "",
          "type": "address"
        }
      ],
      "stateMutability": "view",
      "type": "function"
    },
    {
      "inputs": [
        {
          "internalType": "address",
          "name": "_user",
          "type": "address"
        }
      ],
      "name": "getAggregateActualRepaymentRate",
      "outputs": [
        {
          "internalType": "uint256",
          "name": "",
          "type": "uint256"
        }
      ],
      "stateMutability": "view",
      "type": "function"
    },
    {
      "inputs": [
        {
          "internalType": "address",
          "name": "_user",
          "type": "address"
        }
      ],
      "name": "getAggregateOptimalRepaymentRate",
      "outputs": [
        {
          "internalType": "uint256",
          "name": "",
          "type": "uint256"
        }
      ],
      "stateMutability": "view",
      "type": "function"
    },
    {
      "inputs": [
        {
          "internalType": "address",
          "name": "_user",
          "type": "address"
        },
        {
          "internalType": "address",
          "name": "_reserve",
          "type": "address"
        }
      ],
      "name": "getAvailableCredit",
      "outputs": [
        {
          "internalType": "uint256",
          "name": "",
          "type": "uint256"
        }
      ],
      "stateMutability": "view",
      "type": "function"
    },
    {
      "inputs": [
        {
          "internalType": "address",
          "name": "_user",
          "type": "address"
        }
      ],
      "name": "getCompoundedDebt",
      "outputs": [
        {
          "internalType": "uint256",
          "name": "",
          "type": "uint256"
        }
      ],
      "stateMutability": "view",
      "type": "function"
    },
    {
      "inputs": [
        {
          "internalType": "address",
          "name": "_asset",
          "type": "address"
        }
      ],
      "name": "getConfiguration",
      "outputs": [
        {
          "components": [
            {
              "internalType": "uint256",
              "name": "data",
              "type": "uint256"
            }
          ],
          "internalType": "struct DataTypes.ReserveConfigurationMap",
          "name": "",
          "type": "tuple"
        }
      ],
      "stateMutability": "view",
      "type": "function"
    },
    {
      "inputs": [
        {
          "internalType": "address",
          "name": "_user",
          "type": "address"
        },
        {
          "internalType": "address",
          "name": "_reserve",
          "type": "address"
        }
      ],
      "name": "getCreditLimit",
      "outputs": [
        {
          "internalType": "uint256",
          "name": "",
          "type": "uint256"
        }
      ],
      "stateMutability": "view",
      "type": "function"
    },
    {
      "inputs": [],
      "name": "getExtCallACLProxyAddress",
      "outputs": [
        {
          "internalType": "address payable",
          "name": "",
          "type": "address"
        }
      ],
      "stateMutability": "view",
      "type": "function"
    },
    {
      "inputs": [],
      "name": "getExtCallACLProxyName",
      "outputs": [
        {
          "internalType": "bytes32",
          "name": "",
          "type": "bytes32"
        }
      ],
      "stateMutability": "view",
      "type": "function"
    },
    {
      "inputs": [],
      "name": "getLiquidityManagerEscrowContractAddress",
      "outputs": [
        {
          "internalType": "address",
          "name": "",
          "type": "address"
        }
      ],
      "stateMutability": "view",
      "type": "function"
    },
    {
      "inputs": [],
      "name": "getLiquidityManagerProxyAddress",
      "outputs": [
        {
          "internalType": "address payable",
          "name": "",
          "type": "address"
        }
      ],
      "stateMutability": "view",
      "type": "function"
    },
    {
      "inputs": [],
      "name": "getLiquidityManagerProxyName",
      "outputs": [
        {
          "internalType": "bytes32",
          "name": "",
          "type": "bytes32"
        }
      ],
      "stateMutability": "view",
      "type": "function"
    },
    {
      "inputs": [],
      "name": "getLiquidityManagerStorageName",
      "outputs": [
        {
          "internalType": "bytes32",
          "name": "",
          "type": "bytes32"
        }
      ],
      "stateMutability": "view",
      "type": "function"
    },
    {
      "inputs": [],
      "name": "getLoanManagerName",
      "outputs": [
        {
          "internalType": "bytes32",
          "name": "",
          "type": "bytes32"
        }
      ],
      "stateMutability": "view",
      "type": "function"
    },
    {
      "inputs": [
        {
          "internalType": "address",
          "name": "_reserve",
          "type": "address"
        }
      ],
      "name": "getMaxSecurityDeposit",
      "outputs": [
        {
          "internalType": "uint256",
          "name": "",
          "type": "uint256"
        }
      ],
      "stateMutability": "view",
      "type": "function"
    },
    {
      "inputs": [
        {
          "internalType": "address",
          "name": "_asset",
          "type": "address"
        }
      ],
      "name": "getReserveData",
      "outputs": [
        {
          "components": [
            {
              "components": [
                {
                  "internalType": "uint256",
                  "name": "data",
                  "type": "uint256"
                }
              ],
              "internalType": "struct DataTypes.ReserveConfigurationMap",
              "name": "configuration",
              "type": "tuple"
            },
            {
              "internalType": "uint256",
              "name": "currentOverallLiquidityRate",
              "type": "uint256"
            },
            {
              "internalType": "uint256",
              "name": "currentSeniorIncomeAllocation",
              "type": "uint256"
            },
            {
              "internalType": "uint256",
              "name": "currentJuniorIncomeAllocation",
              "type": "uint256"
            },
            {
              "internalType": "uint256",
              "name": "juniorLiquidityIndex",
              "type": "uint256"
            },
            {
              "internalType": "uint256",
              "name": "seniorLiquidityIndex",
              "type": "uint256"
            },
            {
              "internalType": "uint256",
              "name": "totalBorrows",
              "type": "uint256"
            },
            {
              "internalType": "uint256",
              "name": "currentBorrowRate",
              "type": "uint256"
            },
            {
              "internalType": "uint256",
              "name": "securityRequirement",
              "type": "uint256"
            },
            {
              "internalType": "uint256",
              "name": "decimals",
              "type": "uint256"
            },
            {
              "internalType": "address",
              "name": "interestRateStrategyAddress",
              "type": "address"
            },
            {
              "internalType": "address",
              "name": "healthStrategyAddress",
              "type": "address"
            },
            {
              "internalType": "address",
              "name": "juniorDepositTokenAddress",
              "type": "address"
            },
            {
              "internalType": "address",
              "name": "seniorDepositTokenAddress",
              "type": "address"
            },
            {
              "internalType": "address",
              "name": "stableDebtAddress",
              "type": "address"
            },
            {
              "internalType": "uint40",
              "name": "juniorLastUpdateTimestamp",
              "type": "uint40"
            },
            {
              "internalType": "uint40",
              "name": "seniorLastUpdateTimestamp",
              "type": "uint40"
            }
          ],
          "internalType": "struct DataTypes.ReserveData",
          "name": "",
          "type": "tuple"
        }
      ],
      "stateMutability": "view",
      "type": "function"
    },
    {
      "inputs": [
        {
          "internalType": "address",
          "name": "_asset",
          "type": "address"
        }
      ],
      "name": "getReserveFlags",
      "outputs": [
        {
          "internalType": "bool",
          "name": "",
          "type": "bool"
        },
        {
          "internalType": "bool",
          "name": "",
          "type": "bool"
        },
        {
          "internalType": "bool",
          "name": "",
          "type": "bool"
        }
      ],
      "stateMutability": "view",
      "type": "function"
    },
    {
      "inputs": [
        {
          "internalType": "address",
          "name": "_asset",
          "type": "address"
        },
        {
          "internalType": "enum ReserveLogic.Tranche",
          "name": "_tranche",
          "type": "uint8"
        }
      ],
      "name": "getReserveNormalizedIncome",
      "outputs": [
        {
          "internalType": "uint256",
          "name": "",
          "type": "uint256"
        }
      ],
      "stateMutability": "view",
      "type": "function"
    },
    {
      "inputs": [
        {
          "internalType": "address",
          "name": "_user",
          "type": "address"
        },
        {
          "internalType": "address",
          "name": "_reserve",
          "type": "address"
        }
      ],
      "name": "getSecurityDeposit",
      "outputs": [
        {
          "internalType": "uint256",
          "name": "",
          "type": "uint256"
        }
      ],
      "stateMutability": "view",
      "type": "function"
    },
    {
      "inputs": [
        {
          "internalType": "address",
          "name": "_reserve",
          "type": "address"
        }
      ],
      "name": "getSecurityDepositRequirement",
      "outputs": [
        {
          "internalType": "uint256",
          "name": "",
          "type": "uint256"
        }
      ],
      "stateMutability": "view",
      "type": "function"
    },
    {
      "inputs": [],
      "name": "getSecurityDepositTokenName",
      "outputs": [
        {
          "internalType": "bytes32",
          "name": "",
          "type": "bytes32"
        }
      ],
      "stateMutability": "view",
      "type": "function"
    },
    {
      "inputs": [],
      "name": "getStableDebtTokenName",
      "outputs": [
        {
          "internalType": "bytes32",
          "name": "",
          "type": "bytes32"
        }
      ],
      "stateMutability": "view",
      "type": "function"
    },
    {
      "inputs": [
        {
          "internalType": "address",
          "name": "_user",
          "type": "address"
        }
      ],
      "name": "getVault",
      "outputs": [
        {
          "internalType": "address",
          "name": "",
          "type": "address"
        }
      ],
      "stateMutability": "view",
      "type": "function"
    },
    {
      "inputs": [],
      "name": "getVaultManagerProxyAddress",
      "outputs": [
        {
          "internalType": "address payable",
          "name": "",
          "type": "address"
        }
      ],
      "stateMutability": "view",
      "type": "function"
    },
    {
      "inputs": [],
      "name": "getVaultManagerProxyName",
      "outputs": [
        {
          "internalType": "bytes32",
          "name": "",
          "type": "bytes32"
        }
      ],
      "stateMutability": "view",
      "type": "function"
    },
    {
      "inputs": [],
      "name": "getVaultStorageName",
      "outputs": [
        {
          "internalType": "bytes32",
          "name": "",
          "type": "bytes32"
        }
      ],
      "stateMutability": "view",
      "type": "function"
    },
    {
      "inputs": [],
      "name": "isOwner",
      "outputs": [
        {
          "internalType": "bool",
          "name": "",
          "type": "bool"
        }
      ],
      "stateMutability": "view",
      "type": "function"
    },
    {
      "inputs": [],
      "name": "liquidityManagerName",
      "outputs": [
        {
          "internalType": "bytes32",
          "name": "",
          "type": "bytes32"
        }
      ],
      "stateMutability": "view",
      "type": "function"
    },
    {
      "inputs": [],
      "name": "liquidityManagerProxyName",
      "outputs": [
        {
          "internalType": "bytes32",
          "name": "",
          "type": "bytes32"
        }
      ],
      "stateMutability": "view",
      "type": "function"
    },
    {
      "inputs": [],
      "name": "liquidityManagerStorageName",
      "outputs": [
        {
          "internalType": "bytes32",
          "name": "",
          "type": "bytes32"
        }
      ],
      "stateMutability": "view",
      "type": "function"
    },
    {
      "inputs": [
        {
          "internalType": "address",
          "name": "_asset",
          "type": "address"
        },
        {
          "internalType": "enum ReserveLogic.Tranche",
          "name": "_tranche",
          "type": "uint8"
        }
      ],
      "name": "liquidityRate",
      "outputs": [
        {
          "internalType": "uint256",
          "name": "",
          "type": "uint256"
        }
      ],
      "stateMutability": "view",
      "type": "function"
    },
    {
      "inputs": [],
      "name": "loanManagerName",
      "outputs": [
        {
          "internalType": "bytes32",
          "name": "",
          "type": "bytes32"
        }
      ],
      "stateMutability": "view",
      "type": "function"
    },
    {
      "inputs": [],
      "name": "owner",
      "outputs": [
        {
          "internalType": "address",
          "name": "",
          "type": "address"
        }
      ],
      "stateMutability": "view",
      "type": "function"
    },
    {
      "inputs": [],
      "name": "pendingOwner",
      "outputs": [
        {
          "internalType": "address",
          "name": "",
          "type": "address"
        }
      ],
      "stateMutability": "view",
      "type": "function"
    },
    {
      "inputs": [
        {
          "internalType": "address",
          "name": "_vaultUser",
          "type": "address"
        },
        {
          "internalType": "address",
          "name": "_reserve",
          "type": "address"
        },
        {
          "internalType": "uint256",
          "name": "_amount",
          "type": "uint256"
        }
      ],
      "name": "redeemSecurity",
      "outputs": [],
      "stateMutability": "nonpayable",
      "type": "function"
    },
    {
      "inputs": [],
      "name": "securityDepositTokenName",
      "outputs": [
        {
          "internalType": "bytes32",
          "name": "",
          "type": "bytes32"
        }
      ],
      "stateMutability": "view",
      "type": "function"
    },
    {
      "inputs": [
        {
          "internalType": "address",
          "name": "_addressResolver",
          "type": "address"
        }
      ],
      "name": "setAddressResolverAddress",
      "outputs": [],
      "stateMutability": "nonpayable",
      "type": "function"
    },
    {
      "inputs": [
        {
          "internalType": "address",
          "name": "_vaultUser",
          "type": "address"
        },
        {
          "internalType": "address",
          "name": "_reserve",
          "type": "address"
        },
        {
          "internalType": "address payable",
          "name": "_to",
          "type": "address"
        },
        {
          "internalType": "uint256",
          "name": "_amount",
          "type": "uint256"
        }
      ],
      "name": "slash",
      "outputs": [],
      "stateMutability": "nonpayable",
      "type": "function"
    },
    {
      "inputs": [],
      "name": "stableDebtTokenName",
      "outputs": [
        {
          "internalType": "bytes32",
          "name": "",
          "type": "bytes32"
        }
      ],
      "stateMutability": "view",
      "type": "function"
    },
    {
      "inputs": [
        {
          "internalType": "address",
          "name": "newOwner",
          "type": "address"
        }
      ],
      "name": "transferOwnership",
      "outputs": [],
      "stateMutability": "nonpayable",
      "type": "function"
    },
    {
      "inputs": [
        {
          "internalType": "address",
          "name": "_vaultUser",
          "type": "address"
        },
        {
          "internalType": "address",
          "name": "_reserve",
          "type": "address"
        },
        {
          "internalType": "address",
          "name": "_sponsor",
          "type": "address"
        }
      ],
      "name": "underlyingBalance",
      "outputs": [
        {
          "internalType": "uint256",
          "name": "",
          "type": "uint256"
        }
      ],
      "stateMutability": "view",
      "type": "function"
    },
    {
      "inputs": [],
      "name": "vaultManagerProxyName",
      "outputs": [
        {
          "internalType": "bytes32",
          "name": "",
          "type": "bytes32"
        }
      ],
      "stateMutability": "view",
      "type": "function"
    },
    {
      "inputs": [],
      "name": "vaultStorageName",
      "outputs": [
        {
          "internalType": "bytes32",
          "name": "",
          "type": "bytes32"
        }
      ],
      "stateMutability": "view",
      "type": "function"
    },
    {
      "inputs": [
        {
          "internalType": "address[]",
          "name": "_address",
          "type": "address[]"
        }
      ],
      "name": "whitelistAddress",
      "outputs": [],
      "stateMutability": "nonpayable",
      "type": "function"
    },
    {
      "inputs": [
        {
          "internalType": "bytes32[]",
          "name": "_function",
          "type": "bytes32[]"
        }
      ],
      "name": "whitelistFunction",
      "outputs": [],
      "stateMutability": "nonpayable",
      "type": "function"
    }
  ],
  "transactionHash": "0x342e5854fbb3289ca1ba6fa6a632c0541519e7d66d78d6b10327b2f748569ca3",
  "args": [],
  "numDeployments": 1,
  "solcInputHash": "e55a2fe9cd38f3924261117ac4ab7a78",
  "bytecode": "0x608060405234801561001057600080fd5b50336000806101000a81548173ffffffffffffffffffffffffffffffffffffffff021916908373ffffffffffffffffffffffffffffffffffffffff16021790555060008054906101000a900473ffffffffffffffffffffffffffffffffffffffff1673ffffffffffffffffffffffffffffffffffffffff16600073ffffffffffffffffffffffffffffffffffffffff167f8be0079c531659141344cd1fd0a4f28419497f9722a3daafe3b4186f6b6457e060405160405180910390a3613f76806100db6000396000f3fe608060405234801561001057600080fd5b50600436106103415760003560e01c8063869c5657116101b8578063b550906f11610104578063cff08f99116100a2578063e7bf1ece1161007c578063e7bf1ece146109fe578063eafe74b514610a1c578063ebe37d7914610a4c578063f2fde38b14610a7c57610341565b8063cff08f9914610992578063e014ddd1146109c2578063e30c3978146109e057610341565b8063c38354ef116100de578063c38354ef1461090a578063c44b11f714610926578063c8345cbe14610956578063cf80d2121461097457610341565b8063b550906f146108b2578063b75fc04a146108d0578063c1943f59146108ec57610341565b80638f32d59b11610171578063ad64caed1161014b578063ad64caed14610828578063b31d61b014610846578063b33f917b14610862578063b36484d81461088057610341565b80638f32d59b146107ce57806394f67443146107ec57806399833d6d1461080a57610341565b8063869c5657146106e45780638b51bb8f146107025780638c942ffd146107325780638da5cb5b146107505780638e47b49b1461076e5780638e8f62471461079e57610341565b806345e14879116102925780635db22de61161023057806366f230261161020a57806366f230261461064a578063776f6891146106665780637f007dd214610696578063804ba0a9146106b457610341565b80635db22de6146105de5780635fc2f9431461060e5780636023f8161461062c57610341565b806355a83dcb1161026c57806355a83dcb14610566578063587982f7146105845780635bb65ab8146105a25780635d12928b146105c057610341565b806345e14879146105245780634e151f25146105405780634e71e0c81461055c57610341565b80631a075aae116102ff578063283761a4116102d9578063283761a41461049c57806335ea6a75146104ba5780633aa63c61146104ea5780633e4d66811461050657610341565b80631a075aae146104305780631af31a121461046057806327d7b6241461047e57610341565b806273902c1461034657806305a2ee2a1461036457806308c76502146103825780630eb9af38146103a057806310f6c8b5146103d0578063196a4cb314610400575b600080fd5b61034e610a98565b60405161035b9190612d28565b60405180910390f35b61036c610b24565b6040516103799190612da2565b60405180910390f35b61038a610b4a565b6040516103979190612dde565b60405180910390f35b6103ba60048036038101906103b59190612e39565b610c21565b6040516103c79190612d28565b60405180910390f35b6103ea60048036038101906103e59190612e39565b610cba565b6040516103f79190612e7f565b60405180910390f35b61041a60048036038101906104159190612e39565b610d53565b6040516104279190612e7f565b60405180910390f35b61044a60048036038101906104459190612e9a565b610eaf565b6040516104579190612e7f565b60405180910390f35b610468610f4b565b6040516104759190612dde565b60405180910390f35b610486611022565b6040516104939190612dde565b60405180910390f35b6104a46110f9565b6040516104b19190612ef3565b60405180910390f35b6104d460048036038101906104cf9190612e39565b611121565b6040516104e191906130c7565b60405180910390f35b61050460048036038101906104ff919061313b565b611242565b005b61050e6112c0565b60405161051b9190612ef3565b60405180910390f35b61053e60048036038101906105399190613207565b6112e8565b005b61055a60048036038101906105559190613254565b61136e565b005b6105646115ab565b005b61056e611747565b60405161057b9190612ef3565b60405180910390f35b61058c61176f565b6040516105999190612ef3565b60405180910390f35b6105aa611797565b6040516105b79190612ef3565b60405180910390f35b6105c86117bf565b6040516105d59190612d28565b60405180910390f35b6105f860048036038101906105f39190612e9a565b611a24565b6040516106059190612e7f565b60405180910390f35b610616611ac0565b6040516106239190612ef3565b60405180910390f35b610634611ae4565b6040516106419190612ef3565b60405180910390f35b610664600480360381019061065f9190613254565b611b08565b005b610680600480360381019061067b91906132cc565b611d45565b60405161068d9190612e7f565b60405180910390f35b61069e611de1565b6040516106ab9190612ef3565b60405180910390f35b6106ce60048036038101906106c99190612e39565b611e05565b6040516106db9190612e7f565b60405180910390f35b6106ec611f61565b6040516106f99190612ef3565b60405180910390f35b61071c6004803603810190610717919061330c565b611f85565b6040516107299190612e7f565b60405180910390f35b61073a612024565b6040516107479190612ef3565b60405180910390f35b610758612048565b6040516107659190612d28565b60405180910390f35b61078860048036038101906107839190612e39565b61206c565b6040516107959190612e7f565b60405180910390f35b6107b860048036038101906107b39190612e39565b612105565b6040516107c59190612e7f565b60405180910390f35b6107d6612261565b6040516107e3919061337a565b60405180910390f35b6107f46122b8565b6040516108019190612d28565b60405180910390f35b6108126122e2565b60405161081f9190612ef3565b60405180910390f35b610830612306565b60405161083d9190612ef3565b60405180910390f35b610860600480360381019061085b91906133eb565b61232a565b005b61086a6123b0565b6040516108779190612ef3565b60405180910390f35b61089a60048036038101906108959190612e39565b6123d4565b6040516108a993929190613438565b60405180910390f35b6108ba612476565b6040516108c79190612ef3565b60405180910390f35b6108ea60048036038101906108e59190612e39565b61249e565b005b6108f4612529565b6040516109019190612ef3565b60405180910390f35b610924600480360381019061091f919061346f565b612551565b005b610940600480360381019061093b9190612e39565b6125d1565b60405161094d91906134f2565b60405180910390f35b61095e6126f1565b60405161096b9190612ef3565b60405180910390f35b61097c612719565b6040516109899190612ef3565b60405180910390f35b6109ac60048036038101906109a791906132cc565b61273d565b6040516109b99190612e7f565b60405180910390f35b6109ca6127d9565b6040516109d79190612ef3565b60405180910390f35b6109e86127fd565b6040516109f59190612d28565b60405180910390f35b610a06612823565b604051610a139190612ef3565b60405180910390f35b610a366004803603810190610a319190612e9a565b61284b565b604051610a439190612e7f565b60405180910390f35b610a666004803603810190610a61919061330c565b6128e7565b604051610a739190612e7f565b60405180910390f35b610a966004803603810190610a919190612e39565b612986565b005b6000610aa2611022565b73ffffffffffffffffffffffffffffffffffffffff1663122fd48a6040518163ffffffff1660e01b815260040160206040518083038186803b158015610ae757600080fd5b505afa158015610afb573d6000803e3d6000fd5b505050506040513d601f19601f82011682018060405250810190610b1f9190613522565b905090565b600260009054906101000a900473ffffffffffffffffffffffffffffffffffffffff1681565b600080600260009054906101000a900473ffffffffffffffffffffffffffffffffffffffff1673ffffffffffffffffffffffffffffffffffffffff166321f8a7217f65787443616c6c41434c50726f787900000000000000000000000000000000006040518263ffffffff1660e01b8152600401610bc89190612ef3565b60206040518083038186803b158015610be057600080fd5b505afa158015610bf4573d6000803e3d6000fd5b505050506040513d601f19601f82011682018060405250810190610c189190613522565b90508091505090565b6000610c2b610f4b565b73ffffffffffffffffffffffffffffffffffffffff16630eb9af38836040518263ffffffff1660e01b8152600401610c639190612d28565b60206040518083038186803b158015610c7b57600080fd5b505afa158015610c8f573d6000803e3d6000fd5b505050506040513d601f19601f82011682018060405250810190610cb39190613522565b9050919050565b6000610cc4610f4b565b73ffffffffffffffffffffffffffffffffffffffff166310f6c8b5836040518263ffffffff1660e01b8152600401610cfc9190612d28565b60206040518083038186803b158015610d1457600080fd5b505afa158015610d28573d6000803e3d6000fd5b505050506040513d601f19601f82011682018060405250810190610d4c9190613564565b9050919050565b6000600260009054906101000a900473ffffffffffffffffffffffffffffffffffffffff1673ffffffffffffffffffffffffffffffffffffffff166321f8a7217f737461626c6544656274546f6b656e00000000000000000000000000000000006040518263ffffffff1660e01b8152600401610dd09190612ef3565b60206040518083038186803b158015610de857600080fd5b505afa158015610dfc573d6000803e3d6000fd5b505050506040513d601f19601f82011682018060405250810190610e209190613522565b73ffffffffffffffffffffffffffffffffffffffff1663196a4cb3836040518263ffffffff1660e01b8152600401610e589190612d28565b60206040518083038186803b158015610e7057600080fd5b505afa158015610e84573d6000803e3d6000fd5b505050506040513d601f19601f82011682018060405250810190610ea89190613564565b9050919050565b6000610eb9610f4b565b73ffffffffffffffffffffffffffffffffffffffff16631a075aae84846040518363ffffffff1660e01b8152600401610ef3929190613591565b60206040518083038186803b158015610f0b57600080fd5b505afa158015610f1f573d6000803e3d6000fd5b505050506040513d601f19601f82011682018060405250810190610f439190613564565b905092915050565b600080600260009054906101000a900473ffffffffffffffffffffffffffffffffffffffff1673ffffffffffffffffffffffffffffffffffffffff166321f8a7217f7661756c744d616e6167657250726f78790000000000000000000000000000006040518263ffffffff1660e01b8152600401610fc99190612ef3565b60206040518083038186803b158015610fe157600080fd5b505afa158015610ff5573d6000803e3d6000fd5b505050506040513d601f19601f820116820180604052508101906110199190613522565b90508091505090565b600080600260009054906101000a900473ffffffffffffffffffffffffffffffffffffffff1673ffffffffffffffffffffffffffffffffffffffff166321f8a7217f6c69717569646974794d616e6167657250726f787900000000000000000000006040518263ffffffff1660e01b81526004016110a09190612ef3565b60206040518083038186803b1580156110b857600080fd5b505afa1580156110cc573d6000803e3d6000fd5b505050506040513d601f19601f820116820180604052508101906110f09190613522565b90508091505090565b60007f7661756c7453746f726167650000000000000000000000000000000000000000905090565b611129612bce565b61113282612a11565b6040518060400160405280600281526020017f3630000000000000000000000000000000000000000000000000000000000000815250906111a9576040517f08c379a00000000000000000000000000000000000000000000000000000000081526004016111a09190613653565b60405180910390fd5b506111b2611022565b73ffffffffffffffffffffffffffffffffffffffff166335ea6a75836040518263ffffffff1660e01b81526004016111ea9190612d28565b6102206040518083038186803b15801561120357600080fd5b505afa158015611217573d6000803e3d6000fd5b505050506040513d601f19601f8201168201806040525081019061123b91906138ed565b9050919050565b61124a610f4b565b73ffffffffffffffffffffffffffffffffffffffff16633aa63c61858585856040518563ffffffff1660e01b8152600401611288949392919061391b565b600060405180830381600087803b1580156112a257600080fd5b505af11580156112b6573d6000803e3d6000fd5b5050505050505050565b60007f6c69717569646974794d616e6167657250726f78790000000000000000000000905090565b6112f0612a34565b60006112fa610b4a565b90508073ffffffffffffffffffffffffffffffffffffffff166345e1487984846040518363ffffffff1660e01b81526004016113379291906139e1565b600060405180830381600087803b15801561135157600080fd5b505af1158015611365573d6000803e3d6000fd5b50505050505050565b7f72656465656d5365637572697479000000000000000000000000000000000000611397610b4a565b73ffffffffffffffffffffffffffffffffffffffff16635fae0576336040518263ffffffff1660e01b81526004016113cf9190612d28565b60206040518083038186803b1580156113e757600080fd5b505afa1580156113fb573d6000803e3d6000fd5b505050506040513d601f19601f8201168201806040525081019061141f9190613a31565b61145e576040517f08c379a000000000000000000000000000000000000000000000000000000000815260040161145590613aaa565b60405180910390fd5b611466610b4a565b73ffffffffffffffffffffffffffffffffffffffff1663128358c5826040518263ffffffff1660e01b815260040161149e9190612ef3565b60206040518083038186803b1580156114b657600080fd5b505afa1580156114ca573d6000803e3d6000fd5b505050506040513d601f19601f820116820180604052508101906114ee9190613a31565b61152d576040517f08c379a000000000000000000000000000000000000000000000000000000000815260040161152490613b3c565b60405180910390fd5b611535610f4b565b73ffffffffffffffffffffffffffffffffffffffff1663365a0717338686866040518563ffffffff1660e01b81526004016115739493929190613b5c565b600060405180830381600087803b15801561158d57600080fd5b505af11580156115a1573d6000803e3d6000fd5b5050505050505050565b600160009054906101000a900473ffffffffffffffffffffffffffffffffffffffff1673ffffffffffffffffffffffffffffffffffffffff163373ffffffffffffffffffffffffffffffffffffffff161461160557600080fd5b600160009054906101000a900473ffffffffffffffffffffffffffffffffffffffff1673ffffffffffffffffffffffffffffffffffffffff1660008054906101000a900473ffffffffffffffffffffffffffffffffffffffff1673ffffffffffffffffffffffffffffffffffffffff167f8be0079c531659141344cd1fd0a4f28419497f9722a3daafe3b4186f6b6457e060405160405180910390a3600160009054906101000a900473ffffffffffffffffffffffffffffffffffffffff166000806101000a81548173ffffffffffffffffffffffffffffffffffffffff021916908373ffffffffffffffffffffffffffffffffffffffff1602179055506000600160006101000a81548173ffffffffffffffffffffffffffffffffffffffff021916908373ffffffffffffffffffffffffffffffffffffffff160217905550565b60007f7661756c744d616e6167657250726f7879000000000000000000000000000000905090565b60007f65787443616c6c41434c50726f78790000000000000000000000000000000000905090565b60007f737461626c6544656274546f6b656e0000000000000000000000000000000000905090565b60007f6372656174655661756c740000000000000000000000000000000000000000006117ea610b4a565b73ffffffffffffffffffffffffffffffffffffffff16635fae0576336040518263ffffffff1660e01b81526004016118229190612d28565b60206040518083038186803b15801561183a57600080fd5b505afa15801561184e573d6000803e3d6000fd5b505050506040513d601f19601f820116820180604052508101906118729190613a31565b6118b1576040517f08c379a00000000000000000000000000000000000000000000000000000000081526004016118a890613aaa565b60405180910390fd5b6118b9610b4a565b73ffffffffffffffffffffffffffffffffffffffff1663128358c5826040518263ffffffff1660e01b81526004016118f19190612ef3565b60206040518083038186803b15801561190957600080fd5b505afa15801561191d573d6000803e3d6000fd5b505050506040513d601f19601f820116820180604052508101906119419190613a31565b611980576040517f08c379a000000000000000000000000000000000000000000000000000000000815260040161197790613b3c565b60405180910390fd5b600061198a610f4b565b905060008190508073ffffffffffffffffffffffffffffffffffffffff1663b4bd6f46336040518263ffffffff1660e01b81526004016119ca9190612d28565b602060405180830381600087803b1580156119e457600080fd5b505af11580156119f8573d6000803e3d6000fd5b505050506040513d601f19601f82011682018060405250810190611a1c9190613522565b935050505090565b6000611a2e610f4b565b73ffffffffffffffffffffffffffffffffffffffff16635db22de684846040518363ffffffff1660e01b8152600401611a68929190613591565b60206040518083038186803b158015611a8057600080fd5b505afa158015611a94573d6000803e3d6000fd5b505050506040513d601f19601f82011682018060405250810190611ab89190613564565b905092915050565b7f65787443616c6c41434c50726f7879000000000000000000000000000000000081565b7f6c69717569646974794d616e616765720000000000000000000000000000000081565b7f6465706f73697453656375726974790000000000000000000000000000000000611b31610b4a565b73ffffffffffffffffffffffffffffffffffffffff16635fae0576336040518263ffffffff1660e01b8152600401611b699190612d28565b60206040518083038186803b158015611b8157600080fd5b505afa158015611b95573d6000803e3d6000fd5b505050506040513d601f19601f82011682018060405250810190611bb99190613a31565b611bf8576040517f08c379a0000000000000000000000000000000000000000000000000000000008152600401611bef90613aaa565b60405180910390fd5b611c00610b4a565b73ffffffffffffffffffffffffffffffffffffffff1663128358c5826040518263ffffffff1660e01b8152600401611c389190612ef3565b60206040518083038186803b158015611c5057600080fd5b505afa158015611c64573d6000803e3d6000fd5b505050506040513d601f19601f82011682018060405250810190611c889190613a31565b611cc7576040517f08c379a0000000000000000000000000000000000000000000000000000000008152600401611cbe90613b3c565b60405180910390fd5b611ccf610f4b565b73ffffffffffffffffffffffffffffffffffffffff1663f7e140ce338686866040518563ffffffff1660e01b8152600401611d0d9493929190613ba1565b600060405180830381600087803b158015611d2757600080fd5b505af1158015611d3b573d6000803e3d6000fd5b5050505050505050565b6000611d4f611022565b73ffffffffffffffffffffffffffffffffffffffff1663776f689184846040518363ffffffff1660e01b8152600401611d89929190613c5d565b60206040518083038186803b158015611da157600080fd5b505afa158015611db5573d6000803e3d6000fd5b505050506040513d601f19601f82011682018060405250810190611dd99190613564565b905092915050565b7f6c69717569646974794d616e6167657250726f7879000000000000000000000081565b6000600260009054906101000a900473ffffffffffffffffffffffffffffffffffffffff1673ffffffffffffffffffffffffffffffffffffffff166321f8a7217f737461626c6544656274546f6b656e00000000000000000000000000000000006040518263ffffffff1660e01b8152600401611e829190612ef3565b60206040518083038186803b158015611e9a57600080fd5b505afa158015611eae573d6000803e3d6000fd5b505050506040513d601f19601f82011682018060405250810190611ed29190613522565b73ffffffffffffffffffffffffffffffffffffffff1663804ba0a9836040518263ffffffff1660e01b8152600401611f0a9190612d28565b60206040518083038186803b158015611f2257600080fd5b505afa158015611f36573d6000803e3d6000fd5b505050506040513d601f19601f82011682018060405250810190611f5a9190613564565b9050919050565b7f7661756c744d616e6167657250726f787900000000000000000000000000000081565b6000611f8f610f4b565b73ffffffffffffffffffffffffffffffffffffffff16638b51bb8f8585856040518463ffffffff1660e01b8152600401611fcb93929190613c86565b60206040518083038186803b158015611fe357600080fd5b505afa158015611ff7573d6000803e3d6000fd5b505050506040513d601f19601f8201168201806040525081019061201b9190613564565b90509392505050565b7f7661756c7453746f72616765000000000000000000000000000000000000000081565b60008054906101000a900473ffffffffffffffffffffffffffffffffffffffff1681565b6000612076610f4b565b73ffffffffffffffffffffffffffffffffffffffff16638e47b49b836040518263ffffffff1660e01b81526004016120ae9190612d28565b60206040518083038186803b1580156120c657600080fd5b505afa1580156120da573d6000803e3d6000fd5b505050506040513d601f19601f820116820180604052508101906120fe9190613564565b9050919050565b6000600260009054906101000a900473ffffffffffffffffffffffffffffffffffffffff1673ffffffffffffffffffffffffffffffffffffffff166321f8a7217f737461626c6544656274546f6b656e00000000000000000000000000000000006040518263ffffffff1660e01b81526004016121829190612ef3565b60206040518083038186803b15801561219a57600080fd5b505afa1580156121ae573d6000803e3d6000fd5b505050506040513d601f19601f820116820180604052508101906121d29190613522565b73ffffffffffffffffffffffffffffffffffffffff166370a08231836040518263ffffffff1660e01b815260040161220a9190612d28565b60206040518083038186803b15801561222257600080fd5b505afa158015612236573d6000803e3d6000fd5b505050506040513d601f19601f8201168201806040525081019061225a9190613564565b9050919050565b60008060009054906101000a900473ffffffffffffffffffffffffffffffffffffffff1673ffffffffffffffffffffffffffffffffffffffff163373ffffffffffffffffffffffffffffffffffffffff1614905090565b6000600260009054906101000a900473ffffffffffffffffffffffffffffffffffffffff16905090565b7f737461626c6544656274546f6b656e000000000000000000000000000000000081565b7f6c6f616e4d616e6167657200000000000000000000000000000000000000000081565b612332612a34565b600061233c610b4a565b90508073ffffffffffffffffffffffffffffffffffffffff1663b31d61b084846040518363ffffffff1660e01b8152600401612379929190613d71565b600060405180830381600087803b15801561239357600080fd5b505af11580156123a7573d6000803e3d6000fd5b50505050505050565b7f61636c4d616e616765720000000000000000000000000000000000000000000081565b60008060006123e1611022565b73ffffffffffffffffffffffffffffffffffffffff1663817ad5d3856040518263ffffffff1660e01b81526004016124199190612d28565b60606040518083038186803b15801561243157600080fd5b505afa158015612445573d6000803e3d6000fd5b505050506040513d601f19601f820116820180604052508101906124699190613d95565b9250925092509193909250565b60007f6c6f616e4d616e61676572000000000000000000000000000000000000000000905090565b6124a6612261565b6124e5576040517f08c379a00000000000000000000000000000000000000000000000000000000081526004016124dc90613e34565b60405180910390fd5b80600260006101000a81548173ffffffffffffffffffffffffffffffffffffffff021916908373ffffffffffffffffffffffffffffffffffffffff16021790555050565b60007f61636c4d616e6167657200000000000000000000000000000000000000000000905090565b612559611022565b73ffffffffffffffffffffffffffffffffffffffff1663c907e29a85858533866040518663ffffffff1660e01b8152600401612599959493929190613e54565b600060405180830381600087803b1580156125b357600080fd5b505af11580156125c7573d6000803e3d6000fd5b5050505050505050565b6125d9612cd4565b6125e282612a11565b6040518060400160405280600281526020017f363000000000000000000000000000000000000000000000000000000000000081525090612659576040517f08c379a00000000000000000000000000000000000000000000000000000000081526004016126509190613653565b60405180910390fd5b50612662611022565b73ffffffffffffffffffffffffffffffffffffffff1663c44b11f7836040518263ffffffff1660e01b815260040161269a9190612d28565b60206040518083038186803b1580156126b257600080fd5b505afa1580156126c6573d6000803e3d6000fd5b505050506040513d601f19601f820116820180604052508101906126ea9190613ea7565b9050919050565b60007f73656375726974794465706f736974546f6b656e000000000000000000000000905090565b7f73656375726974794465706f736974546f6b656e00000000000000000000000081565b6000612747611022565b73ffffffffffffffffffffffffffffffffffffffff1663284592b284846040518363ffffffff1660e01b8152600401612781929190613c5d565b60206040518083038186803b15801561279957600080fd5b505afa1580156127ad573d6000803e3d6000fd5b505050506040513d601f19601f820116820180604052508101906127d19190613564565b905092915050565b7f6c69717569646974794d616e6167657253746f7261676500000000000000000081565b600160009054906101000a900473ffffffffffffffffffffffffffffffffffffffff1681565b60007f6c69717569646974794d616e6167657253746f72616765000000000000000000905090565b6000612855610f4b565b73ffffffffffffffffffffffffffffffffffffffff1663eafe74b584846040518363ffffffff1660e01b815260040161288f929190613591565b60206040518083038186803b1580156128a757600080fd5b505afa1580156128bb573d6000803e3d6000fd5b505050506040513d601f19601f820116820180604052508101906128df9190613564565b905092915050565b60006128f1610f4b565b73ffffffffffffffffffffffffffffffffffffffff1663ebe37d798585856040518463ffffffff1660e01b815260040161292d93929190613c86565b60206040518083038186803b15801561294557600080fd5b505afa158015612959573d6000803e3d6000fd5b505050506040513d601f19601f8201168201806040525081019061297d9190613564565b90509392505050565b61298e612261565b6129cd576040517f08c379a00000000000000000000000000000000000000000000000000000000081526004016129c490613e34565b60405180910390fd5b80600160006101000a81548173ffffffffffffffffffffffffffffffffffffffff021916908373ffffffffffffffffffffffffffffffffffffffff16021790555050565b6000808273ffffffffffffffffffffffffffffffffffffffff163b119050919050565b6000600260009054906101000a900473ffffffffffffffffffffffffffffffffffffffff1673ffffffffffffffffffffffffffffffffffffffff166321f8a7217f61636c4d616e61676572000000000000000000000000000000000000000000006040518263ffffffff1660e01b8152600401612ab19190612ef3565b60206040518083038186803b158015612ac957600080fd5b505afa158015612add573d6000803e3d6000fd5b505050506040513d601f19601f82011682018060405250810190612b019190613522565b90508073ffffffffffffffffffffffffffffffffffffffff16631f77f8c6326040518263ffffffff1660e01b8152600401612b3c9190612d28565b60206040518083038186803b158015612b5457600080fd5b505afa158015612b68573d6000803e3d6000fd5b505050506040513d601f19601f82011682018060405250810190612b8c9190613a31565b612bcb576040517f08c379a0000000000000000000000000000000000000000000000000000000008152600401612bc290613f20565b60405180910390fd5b50565b604051806102200160405280612be2612cd4565b8152602001600081526020016000815260200160008152602001600081526020016000815260200160008152602001600081526020016000815260200160008152602001600073ffffffffffffffffffffffffffffffffffffffff168152602001600073ffffffffffffffffffffffffffffffffffffffff168152602001600073ffffffffffffffffffffffffffffffffffffffff168152602001600073ffffffffffffffffffffffffffffffffffffffff168152602001600073ffffffffffffffffffffffffffffffffffffffff168152602001600064ffffffffff168152602001600064ffffffffff1681525090565b6040518060200160405280600081525090565b600073ffffffffffffffffffffffffffffffffffffffff82169050919050565b6000612d1282612ce7565b9050919050565b612d2281612d07565b82525050565b6000602082019050612d3d6000830184612d19565b92915050565b6000819050919050565b6000612d68612d63612d5e84612ce7565b612d43565b612ce7565b9050919050565b6000612d7a82612d4d565b9050919050565b6000612d8c82612d6f565b9050919050565b612d9c81612d81565b82525050565b6000602082019050612db76000830184612d93565b92915050565b6000612dc882612ce7565b9050919050565b612dd881612dbd565b82525050565b6000602082019050612df36000830184612dcf565b92915050565b6000604051905090565b600080fd5b600080fd5b612e1681612d07565b8114612e2157600080fd5b50565b600081359050612e3381612e0d565b92915050565b600060208284031215612e4f57612e4e612e03565b5b6000612e5d84828501612e24565b91505092915050565b6000819050919050565b612e7981612e66565b82525050565b6000602082019050612e946000830184612e70565b92915050565b60008060408385031215612eb157612eb0612e03565b5b6000612ebf85828601612e24565b9250506020612ed085828601612e24565b9150509250929050565b6000819050919050565b612eed81612eda565b82525050565b6000602082019050612f086000830184612ee4565b92915050565b612f1781612e66565b82525050565b602082016000820151612f336000850182612f0e565b50505050565b612f4281612d07565b82525050565b600064ffffffffff82169050919050565b612f6281612f48565b82525050565b61022082016000820151612f7f6000850182612f1d565b506020820151612f926020850182612f0e565b506040820151612fa56040850182612f0e565b506060820151612fb86060850182612f0e565b506080820151612fcb6080850182612f0e565b5060a0820151612fde60a0850182612f0e565b5060c0820151612ff160c0850182612f0e565b5060e082015161300460e0850182612f0e565b50610100820151613019610100850182612f0e565b5061012082015161302e610120850182612f0e565b50610140820151613043610140850182612f39565b50610160820151613058610160850182612f39565b5061018082015161306d610180850182612f39565b506101a08201516130826101a0850182612f39565b506101c08201516130976101c0850182612f39565b506101e08201516130ac6101e0850182612f59565b506102008201516130c1610200850182612f59565b50505050565b6000610220820190506130dd6000830184612f68565b92915050565b6130ec81612dbd565b81146130f757600080fd5b50565b600081359050613109816130e3565b92915050565b61311881612e66565b811461312357600080fd5b50565b6000813590506131358161310f565b92915050565b6000806000806080858703121561315557613154612e03565b5b600061316387828801612e24565b945050602061317487828801612e24565b9350506040613185878288016130fa565b925050606061319687828801613126565b91505092959194509250565b600080fd5b600080fd5b600080fd5b60008083601f8401126131c7576131c66131a2565b5b8235905067ffffffffffffffff8111156131e4576131e36131a7565b5b602083019150836020820283011115613200576131ff6131ac565b5b9250929050565b6000806020838503121561321e5761321d612e03565b5b600083013567ffffffffffffffff81111561323c5761323b612e08565b5b613248858286016131b1565b92509250509250929050565b60008060006060848603121561326d5761326c612e03565b5b600061327b86828701612e24565b935050602061328c86828701612e24565b925050604061329d86828701613126565b9150509250925092565b600281106132b457600080fd5b50565b6000813590506132c6816132a7565b92915050565b600080604083850312156132e3576132e2612e03565b5b60006132f185828601612e24565b9250506020613302858286016132b7565b9150509250929050565b60008060006060848603121561332557613324612e03565b5b600061333386828701612e24565b935050602061334486828701612e24565b925050604061335586828701612e24565b9150509250925092565b60008115159050919050565b6133748161335f565b82525050565b600060208201905061338f600083018461336b565b92915050565b60008083601f8401126133ab576133aa6131a2565b5b8235905067ffffffffffffffff8111156133c8576133c76131a7565b5b6020830191508360208202830111156133e4576133e36131ac565b5b9250929050565b6000806020838503121561340257613401612e03565b5b600083013567ffffffffffffffff8111156134205761341f612e08565b5b61342c85828601613395565b92509250509250929050565b600060608201905061344d600083018661336b565b61345a602083018561336b565b613467604083018461336b565b949350505050565b6000806000806080858703121561348957613488612e03565b5b600061349787828801612e24565b94505060206134a8878288016132b7565b93505060406134b987828801613126565b92505060606134ca87828801612e24565b91505092959194509250565b6020820160008201516134ec6000850182612f0e565b50505050565b600060208201905061350760008301846134d6565b92915050565b60008151905061351c81612e0d565b92915050565b60006020828403121561353857613537612e03565b5b60006135468482850161350d565b91505092915050565b60008151905061355e8161310f565b92915050565b60006020828403121561357a57613579612e03565b5b60006135888482850161354f565b91505092915050565b60006040820190506135a66000830185612d19565b6135b36020830184612d19565b9392505050565b600081519050919050565b600082825260208201905092915050565b60005b838110156135f45780820151818401526020810190506135d9565b83811115613603576000848401525b50505050565b6000601f19601f8301169050919050565b6000613625826135ba565b61362f81856135c5565b935061363f8185602086016135d6565b61364881613609565b840191505092915050565b6000602082019050818103600083015261366d818461361a565b905092915050565b600080fd5b7f4e487b7100000000000000000000000000000000000000000000000000000000600052604160045260246000fd5b6136b282613609565b810181811067ffffffffffffffff821117156136d1576136d061367a565b5b80604052505050565b60006136e4612df9565b90506136f082826136a9565b919050565b60006020828403121561370b5761370a613675565b5b61371560206136da565b905060006137258482850161354f565b60008301525092915050565b61373a81612f48565b811461374557600080fd5b50565b60008151905061375781613731565b92915050565b6000610220828403121561377457613773613675565b5b61377f6102206136da565b9050600061378f848285016136f5565b60008301525060206137a38482850161354f565b60208301525060406137b78482850161354f565b60408301525060606137cb8482850161354f565b60608301525060806137df8482850161354f565b60808301525060a06137f38482850161354f565b60a08301525060c06138078482850161354f565b60c08301525060e061381b8482850161354f565b60e0830152506101006138308482850161354f565b610100830152506101206138468482850161354f565b6101208301525061014061385c8482850161350d565b610140830152506101606138728482850161350d565b610160830152506101806138888482850161350d565b610180830152506101a061389e8482850161350d565b6101a0830152506101c06138b48482850161350d565b6101c0830152506101e06138ca84828501613748565b6101e0830152506102006138e084828501613748565b6102008301525092915050565b6000610220828403121561390457613903612e03565b5b60006139128482850161375d565b91505092915050565b60006080820190506139306000830187612d19565b61393d6020830186612d19565b61394a6040830185612dcf565b6139576060830184612e70565b95945050505050565b600082825260208201905092915050565b600080fd5b82818337600083830152505050565b60006139918385613960565b93507f07ffffffffffffffffffffffffffffffffffffffffffffffffffffffffffffff8311156139c4576139c3613971565b5b6020830292506139d5838584613976565b82840190509392505050565b600060208201905081810360008301526139fc818486613985565b90509392505050565b613a0e8161335f565b8114613a1957600080fd5b50565b600081519050613a2b81613a05565b92915050565b600060208284031215613a4757613a46612e03565b5b6000613a5584828501613a1c565b91505092915050565b7f566f79616765723a206e6f742077686974656c69737465642061646472657373600082015250565b6000613a946020836135c5565b9150613a9f82613a5e565b602082019050919050565b60006020820190508181036000830152613ac381613a87565b9050919050565b7f566f79616765723a206e6f742077686974656c69737465642066756e6374696f60008201527f6e73000000000000000000000000000000000000000000000000000000000000602082015250565b6000613b266022836135c5565b9150613b3182613aca565b604082019050919050565b60006020820190508181036000830152613b5581613b19565b9050919050565b6000608082019050613b716000830187612dcf565b613b7e6020830186612d19565b613b8b6040830185612d19565b613b986060830184612e70565b95945050505050565b6000608082019050613bb66000830187612d19565b613bc36020830186612d19565b613bd06040830185612d19565b613bdd6060830184612e70565b95945050505050565b7f4e487b7100000000000000000000000000000000000000000000000000000000600052602160045260246000fd5b60028110613c2657613c25613be6565b5b50565b6000819050613c3782613c15565b919050565b6000613c4782613c29565b9050919050565b613c5781613c3c565b82525050565b6000604082019050613c726000830185612d19565b613c7f6020830184613c4e565b9392505050565b6000606082019050613c9b6000830186612d19565b613ca86020830185612d19565b613cb56040830184612d19565b949350505050565b600082825260208201905092915050565b6000819050919050565b6000613ce48383612f39565b60208301905092915050565b6000613cff6020840184612e24565b905092915050565b6000602082019050919050565b6000613d208385613cbd565b9350613d2b82613cce565b8060005b85811015613d6457613d418284613cf0565b613d4b8882613cd8565b9750613d5683613d07565b925050600181019050613d2f565b5085925050509392505050565b60006020820190508181036000830152613d8c818486613d14565b90509392505050565b600080600060608486031215613dae57613dad612e03565b5b6000613dbc86828701613a1c565b9350506020613dcd86828701613a1c565b9250506040613dde86828701613a1c565b9150509250925092565b7f4f776e61626c653a2063616c6c6572206973206e6f7420746865206f776e6572600082015250565b6000613e1e6020836135c5565b9150613e2982613de8565b602082019050919050565b60006020820190508181036000830152613e4d81613e11565b9050919050565b600060a082019050613e696000830188612d19565b613e766020830187613c4e565b613e836040830186612e70565b613e906060830185612d19565b613e9d6080830184612d19565b9695505050505050565b600060208284031215613ebd57613ebc612e03565b5b6000613ecb848285016136f5565b91505092915050565b7f4e6f74207661756c742061646d696e0000000000000000000000000000000000600082015250565b6000613f0a600f836135c5565b9150613f1582613ed4565b602082019050919050565b60006020820190508181036000830152613f3981613efd565b905091905056fea2646970667358221220a90e58564593c26d6a11bd2051d2732c0c2d9d900d66b410c75dbc504563bb9f64736f6c63430008090033",
  "devdoc": {
    "kind": "dev",
    "methods": {
      "claimOwnership()": {
        "details": "Allows the pendingOwner address to finalize the transfer."
      },
      "createVault()": {
        "details": "Create an empty Vault for msg.sender, in addition to this, a vault also deploy a SecurityDepositEscrow contract which the fund will be held in",
        "returns": {
          "_0": "address of Vault*"
        }
      },
      "deposit(address,uint8,uint256,address)": {
        "details": "Deposits an `amount` of underlying asset into the reserve, receiving in return overlying tokens: Either Junior Deposit Token or Senior Deposit token",
        "params": {
          "_amount": "The amount to be deposited",
          "_asset": "The address of the underlying asset to deposit",
          "_onBehalfOf": "The address that will receive the deposit tokens, same as msg.sender if the user   wants to receive them on his own wallet, or a different address if the beneficiary of deposit token   is a different wallet*",
          "_tranche": "The tranche of the liquidity pool the user wants to deposit to"
        }
      },
      "depositSecurity(address,address,uint256)": {
        "details": "Deposit specific amount of security deposit to user owned Vault",
        "params": {
          "_amount": "deposit amount*",
          "_reserve": "address of reserve",
          "_vaultUser": "the user address that will be sponsored"
        }
      },
      "eligibleAmount(address,address,address)": {
        "details": "Eligible amount that can be withdraw, calculated by deposit records without considering slash",
        "params": {
          "_reserve": "reserve address",
          "_sponsor": "sponsor address*",
          "_vaultUser": "user address"
        }
      },
      "getAddressResolverAddress()": {
        "details": "Get addressResolver contract address",
        "returns": {
          "_0": "address of the resolver contract*"
        }
      },
      "getAvailableCredit(address,address)": {
        "details": "Get available credit",
        "params": {
          "_reserve": "address of reserve*",
          "_user": "user address"
        }
      },
      "getConfiguration(address)": {
        "details": "Returns the configuration of the reserve",
        "params": {
          "_asset": "The address of the underlying asset of the reserve"
        },
        "returns": {
          "_0": "The state of the reserve*"
        }
      },
      "getCreditLimit(address,address)": {
        "details": "Get maximum reserve amount the use can borrow",
        "params": {
          "_reserve": "reserve contract address*",
          "_user": "user address"
        }
      },
      "getExtCallACLProxyAddress()": {
        "details": "Get ExtCallACLProxy contract address*"
      },
      "getLiquidityManagerEscrowContractAddress()": {
        "details": "Get EscrowContract owned by LiquidityManager*"
      },
      "getLiquidityManagerProxyAddress()": {
        "details": "Get LiquidityManagerProxy contract address*"
      },
      "getMaxSecurityDeposit(address)": {
        "details": "Get max security deposit for _reserve",
        "params": {
          "_reserve": "reserve address"
        },
        "returns": {
          "_0": "max deposit amount"
        }
      },
      "getReserveData(address)": {
        "details": "Returns the state and configuration of the reserve",
        "params": {
          "_asset": "The address of the underlying asset of the reserve"
        },
        "returns": {
          "_0": "The state of the reserve*"
        }
      },
      "getReserveFlags(address)": {
        "details": "Returns the reserve flags",
        "params": {
          "_asset": "The address of asset"
        },
        "returns": {
          "_0": "The state flags representing active, frozen, borrowing enabled*"
        }
      },
      "getReserveNormalizedIncome(address,uint8)": {
        "details": "Returns the normalized income per unit of asset",
        "params": {
          "_asset": "The address of the underlying asset of the reserve",
          "_tranche": "The tranche of the reserve, either Junior or Senior"
        },
        "returns": {
          "_0": "The reserve's normalized income*"
        }
      },
      "getSecurityDepositRequirement(address)": {
        "details": "Get current security deposit requirement",
        "params": {
          "_reserve": "reserve address"
        },
        "returns": {
          "_0": "requirement, expressed in Ray*"
        }
      },
      "getVault(address)": {
        "details": "Get vault address",
        "params": {
          "_user": "The owner of the vault*"
        }
      },
      "getVaultManagerProxyAddress()": {
        "details": "Get VaultManagerProxy contract address",
        "returns": {
          "_0": "address of the VaultManager*"
        }
      },
      "isOwner()": {
        "details": "Returns true if the caller is the current owner."
      },
      "liquidityRate(address,uint8)": {
        "details": "Get current liquidity rate for a specific reserve for it junior tranche or senior tranche",
        "params": {
          "_asset": "The address of the underlying asset of the reserve",
          "_tranche": "Either junior tranche or senior tranche*"
        }
      },
      "redeemSecurity(address,address,uint256)": {
        "details": "Redeem specific amount of security deposit to user owned Vault",
        "params": {
          "_amount": "deposit amount*",
          "_reserve": "address of reserve",
          "_vaultUser": "the user address that has be sponsored"
        }
      },
      "setAddressResolverAddress(address)": {
        "details": "Update addressResolver contract address",
        "params": {
          "_addressResolver": "address of the resolver contract*"
        }
      },
      "transferOwnership(address)": {
        "details": "Allows the current owner to set the pendingOwner address.",
        "params": {
          "newOwner": "The address to transfer ownership to."
        }
      },
      "underlyingBalance(address,address,address)": {
        "details": "Get underlying balance of security deposit token",
        "params": {
          "_reserve": "address of reserve",
          "_sponsor": "sponsor address*",
          "_vaultUser": "_vaultUser the user address that has be sponsored"
        }
      }
    },
    "version": 1
  },
  "userdoc": {
    "kind": "user",
    "methods": {},
    "version": 1
  },
  "storageLayout": {
    "storage": [
      {
        "astId": 7987,
        "contract": "contracts/component/Voyager.sol:Voyager",
        "label": "owner",
        "offset": 0,
        "slot": "0",
        "type": "t_address"
      },
      {
        "astId": 7989,
        "contract": "contracts/component/Voyager.sol:Voyager",
        "label": "pendingOwner",
        "offset": 0,
        "slot": "1",
        "type": "t_address"
      },
      {
        "astId": 685,
        "contract": "contracts/component/Voyager.sol:Voyager",
        "label": "addressResolver",
        "offset": 0,
        "slot": "2",
        "type": "t_contract(AddressResolver)636"
      }
    ],
    "types": {
      "t_address": {
        "encoding": "inplace",
        "label": "address",
        "numberOfBytes": "20"
      },
      "t_contract(AddressResolver)636": {
        "encoding": "inplace",
        "label": "contract AddressResolver",
        "numberOfBytes": "20"
      }
    }
  }
}