{
  "address": "0xb52B14243881359190d9Dd7eb371608070699bd7",
  "abi": [
    {
      "inputs": [
        {
          "internalType": "address",
          "name": "_operator",
          "type": "address"
        }
      ],
      "stateMutability": "nonpayable",
      "type": "constructor"
    },
    {
      "anonymous": false,
      "inputs": [
        {
          "indexed": false,
          "internalType": "bool",
          "name": "",
          "type": "bool"
        },
        {
          "indexed": false,
          "internalType": "bytes",
          "name": "",
          "type": "bytes"
        }
      ],
      "name": "CallResult",
      "type": "event"
    },
    {
      "anonymous": false,
      "inputs": [
        {
          "indexed": true,
          "internalType": "bytes32",
          "name": "role",
          "type": "bytes32"
        },
        {
          "indexed": true,
          "internalType": "bytes32",
          "name": "previousAdminRole",
          "type": "bytes32"
        },
        {
          "indexed": true,
          "internalType": "bytes32",
          "name": "newAdminRole",
          "type": "bytes32"
        }
      ],
      "name": "RoleAdminChanged",
      "type": "event"
    },
    {
      "anonymous": false,
      "inputs": [
        {
          "indexed": true,
          "internalType": "bytes32",
          "name": "role",
          "type": "bytes32"
        },
        {
          "indexed": true,
          "internalType": "address",
          "name": "account",
          "type": "address"
        },
        {
          "indexed": true,
          "internalType": "address",
          "name": "sender",
          "type": "address"
        }
      ],
      "name": "RoleGranted",
      "type": "event"
    },
    {
      "anonymous": false,
      "inputs": [
        {
          "indexed": true,
          "internalType": "bytes32",
          "name": "role",
          "type": "bytes32"
        },
        {
          "indexed": true,
          "internalType": "address",
          "name": "account",
          "type": "address"
        },
        {
          "indexed": true,
          "internalType": "address",
          "name": "sender",
          "type": "address"
        }
      ],
      "name": "RoleRevoked",
      "type": "event"
    },
    {
      "inputs": [],
      "name": "DEFAULT_ADMIN_ROLE",
      "outputs": [
        {
          "internalType": "bytes32",
          "name": "",
          "type": "bytes32"
        }
      ],
      "stateMutability": "view",
      "type": "function"
    },
    {
      "inputs": [],
      "name": "OPERATOR",
      "outputs": [
        {
          "internalType": "bytes32",
          "name": "",
          "type": "bytes32"
        }
      ],
      "stateMutability": "view",
      "type": "function"
    },
    {
      "inputs": [
        {
          "internalType": "address",
          "name": "_asset",
          "type": "address"
        }
      ],
      "name": "activeReserve",
      "outputs": [],
      "stateMutability": "nonpayable",
      "type": "function"
    },
    {
      "inputs": [],
      "name": "addressResolver",
      "outputs": [
        {
          "internalType": "address",
          "name": "",
          "type": "address"
        }
      ],
      "stateMutability": "view",
      "type": "function"
    },
    {
      "inputs": [],
      "name": "claimExtCallACLProxyOwnership",
      "outputs": [],
      "stateMutability": "nonpayable",
      "type": "function"
    },
    {
      "inputs": [],
      "name": "claimLiquidityManagerProxyOwnership",
      "outputs": [],
      "stateMutability": "nonpayable",
      "type": "function"
    },
    {
      "inputs": [],
      "name": "claimVaultManagerProxyOwnership",
      "outputs": [],
      "stateMutability": "nonpayable",
      "type": "function"
    },
    {
      "inputs": [],
      "name": "createVault",
      "outputs": [
        {
          "internalType": "address",
          "name": "",
          "type": "address"
        }
      ],
      "stateMutability": "nonpayable",
      "type": "function"
    },
    {
      "inputs": [
        {
          "internalType": "address",
          "name": "_asset",
          "type": "address"
        },
        {
          "internalType": "enum ReserveLogic.Tranche",
          "name": "_tranche",
          "type": "uint8"
        },
        {
          "internalType": "uint256",
          "name": "_amount",
          "type": "uint256"
        },
        {
          "internalType": "address",
          "name": "_onBehalfOf",
          "type": "address"
        }
      ],
      "name": "deposit",
      "outputs": [],
      "stateMutability": "nonpayable",
      "type": "function"
    },
    {
      "inputs": [
        {
          "internalType": "address",
          "name": "_vaultUser",
          "type": "address"
        },
        {
          "internalType": "address",
          "name": "_reserve",
          "type": "address"
        },
        {
          "internalType": "uint256",
          "name": "_amount",
          "type": "uint256"
        }
      ],
      "name": "depositSecurity",
      "outputs": [],
      "stateMutability": "nonpayable",
      "type": "function"
    },
    {
      "inputs": [
        {
          "internalType": "address",
          "name": "_vaultUser",
          "type": "address"
        },
        {
          "internalType": "address",
          "name": "_reserve",
          "type": "address"
        },
        {
          "internalType": "address",
          "name": "_sponsor",
          "type": "address"
        }
      ],
      "name": "eligibleAmount",
      "outputs": [
        {
          "internalType": "uint256",
          "name": "",
          "type": "uint256"
        }
      ],
      "stateMutability": "view",
      "type": "function"
    },
    {
      "inputs": [],
      "name": "extCallACLProxyName",
      "outputs": [
        {
          "internalType": "bytes32",
          "name": "",
          "type": "bytes32"
        }
      ],
      "stateMutability": "view",
      "type": "function"
    },
    {
      "inputs": [],
      "name": "getAddressResolverAddress",
      "outputs": [
        {
          "internalType": "address",
          "name": "",
          "type": "address"
        }
      ],
      "stateMutability": "view",
      "type": "function"
    },
    {
      "inputs": [
        {
          "internalType": "address",
          "name": "_asset",
          "type": "address"
        }
      ],
      "name": "getConfiguration",
      "outputs": [
        {
          "components": [
            {
              "internalType": "uint256",
              "name": "data",
              "type": "uint256"
            }
          ],
          "internalType": "struct DataTypes.ReserveConfigurationMap",
          "name": "",
          "type": "tuple"
        }
      ],
      "stateMutability": "view",
      "type": "function"
    },
    {
      "inputs": [
        {
          "internalType": "address",
          "name": "_user",
          "type": "address"
        },
        {
          "internalType": "address",
          "name": "_reserve",
          "type": "address"
        }
      ],
      "name": "getCreditLimit",
      "outputs": [
        {
          "internalType": "uint256",
          "name": "",
          "type": "uint256"
        }
      ],
      "stateMutability": "view",
      "type": "function"
    },
    {
      "inputs": [],
      "name": "getExtCallACLProxyAddress",
      "outputs": [
        {
          "internalType": "address payable",
          "name": "",
          "type": "address"
        }
      ],
      "stateMutability": "view",
      "type": "function"
    },
    {
      "inputs": [],
      "name": "getExtCallACLProxyName",
      "outputs": [
        {
          "internalType": "bytes32",
          "name": "",
          "type": "bytes32"
        }
      ],
      "stateMutability": "view",
      "type": "function"
    },
    {
      "inputs": [],
      "name": "getLiquidityManagerEscrowContractAddress",
      "outputs": [
        {
          "internalType": "address",
          "name": "",
          "type": "address"
        }
      ],
      "stateMutability": "view",
      "type": "function"
    },
    {
      "inputs": [],
      "name": "getLiquidityManagerProxyAddress",
      "outputs": [
        {
          "internalType": "address payable",
          "name": "",
          "type": "address"
        }
      ],
      "stateMutability": "view",
      "type": "function"
    },
    {
      "inputs": [],
      "name": "getLiquidityManagerProxyName",
      "outputs": [
        {
          "internalType": "bytes32",
          "name": "",
          "type": "bytes32"
        }
      ],
      "stateMutability": "view",
      "type": "function"
    },
    {
      "inputs": [],
      "name": "getLiquidityManagerStorageName",
      "outputs": [
        {
          "internalType": "bytes32",
          "name": "",
          "type": "bytes32"
        }
      ],
      "stateMutability": "view",
      "type": "function"
    },
    {
      "inputs": [],
      "name": "getLoanManagerName",
      "outputs": [
        {
          "internalType": "bytes32",
          "name": "",
          "type": "bytes32"
        }
      ],
      "stateMutability": "view",
      "type": "function"
    },
    {
      "inputs": [
        {
          "internalType": "address",
          "name": "_reserve",
          "type": "address"
        }
      ],
      "name": "getMaxSecurityDeposit",
      "outputs": [
        {
          "internalType": "uint256",
          "name": "",
          "type": "uint256"
        }
      ],
      "stateMutability": "view",
      "type": "function"
    },
    {
      "inputs": [
        {
          "internalType": "address",
          "name": "_asset",
          "type": "address"
        }
      ],
      "name": "getReserveData",
      "outputs": [
        {
          "components": [
            {
              "components": [
                {
                  "internalType": "uint256",
                  "name": "data",
                  "type": "uint256"
                }
              ],
              "internalType": "struct DataTypes.ReserveConfigurationMap",
              "name": "configuration",
              "type": "tuple"
            },
            {
              "internalType": "uint256",
              "name": "currentOverallLiquidityRate",
              "type": "uint256"
            },
            {
              "internalType": "uint256",
              "name": "currentSeniorIncomeAllocation",
              "type": "uint256"
            },
            {
              "internalType": "uint256",
              "name": "currentJuniorIncomeAllocation",
              "type": "uint256"
            },
            {
              "internalType": "uint256",
              "name": "juniorLiquidityIndex",
              "type": "uint256"
            },
            {
              "internalType": "uint256",
              "name": "seniorLiquidityIndex",
              "type": "uint256"
            },
            {
              "internalType": "uint256",
              "name": "totalBorrows",
              "type": "uint256"
            },
            {
              "internalType": "uint256",
              "name": "currentBorrowRate",
              "type": "uint256"
            },
            {
              "internalType": "uint256",
              "name": "securityRequirement",
              "type": "uint256"
            },
            {
              "internalType": "uint256",
              "name": "decimals",
              "type": "uint256"
            },
            {
              "internalType": "address",
              "name": "interestRateStrategyAddress",
              "type": "address"
            },
            {
              "internalType": "address",
              "name": "juniorDepositTokenAddress",
              "type": "address"
            },
            {
              "internalType": "address",
              "name": "seniorDepositTokenAddress",
              "type": "address"
            },
            {
              "internalType": "address",
              "name": "stableDebtAddress",
              "type": "address"
            },
            {
              "internalType": "uint40",
              "name": "juniorLastUpdateTimestamp",
              "type": "uint40"
            },
            {
              "internalType": "uint40",
              "name": "seniorLastUpdateTimestamp",
              "type": "uint40"
            }
          ],
          "internalType": "struct DataTypes.ReserveData",
          "name": "",
          "type": "tuple"
        }
      ],
      "stateMutability": "view",
      "type": "function"
    },
    {
      "inputs": [
        {
          "internalType": "address",
          "name": "_asset",
          "type": "address"
        }
      ],
      "name": "getReserveFlags",
      "outputs": [
        {
          "internalType": "bool",
          "name": "",
          "type": "bool"
        },
        {
          "internalType": "bool",
          "name": "",
          "type": "bool"
        },
        {
          "internalType": "bool",
          "name": "",
          "type": "bool"
        }
      ],
      "stateMutability": "view",
      "type": "function"
    },
    {
      "inputs": [
        {
          "internalType": "address",
          "name": "_asset",
          "type": "address"
        },
        {
          "internalType": "enum ReserveLogic.Tranche",
          "name": "_tranche",
          "type": "uint8"
        }
      ],
      "name": "getReserveNormalizedIncome",
      "outputs": [
        {
          "internalType": "uint256",
          "name": "",
          "type": "uint256"
        }
      ],
      "stateMutability": "view",
      "type": "function"
    },
    {
      "inputs": [
        {
          "internalType": "bytes32",
          "name": "role",
          "type": "bytes32"
        }
      ],
      "name": "getRoleAdmin",
      "outputs": [
        {
          "internalType": "bytes32",
          "name": "",
          "type": "bytes32"
        }
      ],
      "stateMutability": "view",
      "type": "function"
    },
    {
      "inputs": [
        {
          "internalType": "address",
          "name": "_reserve",
          "type": "address"
        }
      ],
      "name": "getSecurityDepositRequirement",
      "outputs": [
        {
          "internalType": "uint256",
          "name": "",
          "type": "uint256"
        }
      ],
      "stateMutability": "view",
      "type": "function"
    },
    {
      "inputs": [],
      "name": "getSecurityDepositTokenName",
      "outputs": [
        {
          "internalType": "bytes32",
          "name": "",
          "type": "bytes32"
        }
      ],
      "stateMutability": "view",
      "type": "function"
    },
    {
      "inputs": [],
      "name": "getVaultManagerProxyAddress",
      "outputs": [
        {
          "internalType": "address payable",
          "name": "",
          "type": "address"
        }
      ],
      "stateMutability": "view",
      "type": "function"
    },
    {
      "inputs": [],
      "name": "getVaultManagerProxyName",
      "outputs": [
        {
          "internalType": "bytes32",
          "name": "",
          "type": "bytes32"
        }
      ],
      "stateMutability": "view",
      "type": "function"
    },
    {
      "inputs": [],
      "name": "getVaultStorageName",
      "outputs": [
        {
          "internalType": "bytes32",
          "name": "",
          "type": "bytes32"
        }
      ],
      "stateMutability": "view",
      "type": "function"
    },
    {
      "inputs": [
        {
          "internalType": "bytes32",
          "name": "role",
          "type": "bytes32"
        },
        {
          "internalType": "address",
          "name": "account",
          "type": "address"
        }
      ],
      "name": "grantRole",
      "outputs": [],
      "stateMutability": "nonpayable",
      "type": "function"
    },
    {
      "inputs": [
        {
          "internalType": "bytes32",
          "name": "role",
          "type": "bytes32"
        },
        {
          "internalType": "address",
          "name": "account",
          "type": "address"
        }
      ],
      "name": "hasRole",
      "outputs": [
        {
          "internalType": "bool",
          "name": "",
          "type": "bool"
        }
      ],
      "stateMutability": "view",
      "type": "function"
    },
    {
      "inputs": [
        {
          "internalType": "address",
          "name": "_asset",
          "type": "address"
        },
        {
          "internalType": "address",
          "name": "_juniorDepositTokenAddress",
          "type": "address"
        },
        {
          "internalType": "address",
          "name": "_seniorDepositTokenAddress",
          "type": "address"
        },
        {
          "internalType": "uint256",
          "name": "_juniorIncomeAllocation",
          "type": "uint256"
        },
        {
          "internalType": "uint256",
          "name": "_seniorIncomeAllocation",
          "type": "uint256"
        },
        {
          "internalType": "address",
          "name": "_stableDebtAddress",
          "type": "address"
        },
        {
          "internalType": "address",
          "name": "_interestRateStrategyAddress",
          "type": "address"
        }
      ],
      "name": "initReserve",
      "outputs": [],
      "stateMutability": "nonpayable",
      "type": "function"
    },
    {
      "inputs": [
        {
          "internalType": "address",
          "name": "_user",
          "type": "address"
        },
        {
          "internalType": "address",
          "name": "_reserve",
          "type": "address"
        }
      ],
      "name": "initVault",
      "outputs": [],
      "stateMutability": "nonpayable",
      "type": "function"
    },
    {
      "inputs": [],
      "name": "liquidityManagerName",
      "outputs": [
        {
          "internalType": "bytes32",
          "name": "",
          "type": "bytes32"
        }
      ],
      "stateMutability": "view",
      "type": "function"
    },
    {
      "inputs": [],
      "name": "liquidityManagerProxyName",
      "outputs": [
        {
          "internalType": "bytes32",
          "name": "",
          "type": "bytes32"
        }
      ],
      "stateMutability": "view",
      "type": "function"
    },
    {
      "inputs": [],
      "name": "liquidityManagerStorageName",
      "outputs": [
        {
          "internalType": "bytes32",
          "name": "",
          "type": "bytes32"
        }
      ],
      "stateMutability": "view",
      "type": "function"
    },
    {
      "inputs": [
        {
          "internalType": "address",
          "name": "_asset",
          "type": "address"
        },
        {
          "internalType": "enum ReserveLogic.Tranche",
          "name": "_tranche",
          "type": "uint8"
        }
      ],
      "name": "liquidityRate",
      "outputs": [
        {
          "internalType": "uint256",
          "name": "",
          "type": "uint256"
        }
      ],
      "stateMutability": "view",
      "type": "function"
    },
    {
      "inputs": [],
      "name": "loanManagerName",
      "outputs": [
        {
          "internalType": "bytes32",
          "name": "",
          "type": "bytes32"
        }
      ],
      "stateMutability": "view",
      "type": "function"
    },
    {
      "inputs": [
        {
          "internalType": "address",
          "name": "_vaultUser",
          "type": "address"
        },
        {
          "internalType": "address",
          "name": "_reserve",
          "type": "address"
        },
        {
          "internalType": "uint256",
          "name": "_amount",
          "type": "uint256"
        }
      ],
      "name": "redeemSecurity",
      "outputs": [],
      "stateMutability": "nonpayable",
      "type": "function"
    },
    {
      "inputs": [
        {
          "internalType": "address",
          "name": "_reserve",
          "type": "address"
        }
      ],
      "name": "removeMaxSecurityDeposit",
      "outputs": [],
      "stateMutability": "nonpayable",
      "type": "function"
    },
    {
      "inputs": [
        {
          "internalType": "address",
          "name": "_reserve",
          "type": "address"
        }
      ],
      "name": "removeSecurityDepositRequirement",
      "outputs": [],
      "stateMutability": "nonpayable",
      "type": "function"
    },
    {
      "inputs": [
        {
          "internalType": "bytes32",
          "name": "role",
          "type": "bytes32"
        },
        {
          "internalType": "address",
          "name": "account",
          "type": "address"
        }
      ],
      "name": "renounceRole",
      "outputs": [],
      "stateMutability": "nonpayable",
      "type": "function"
    },
    {
      "inputs": [
        {
          "internalType": "bytes32",
          "name": "role",
          "type": "bytes32"
        },
        {
          "internalType": "address",
          "name": "account",
          "type": "address"
        }
      ],
      "name": "revokeRole",
      "outputs": [],
      "stateMutability": "nonpayable",
      "type": "function"
    },
    {
      "inputs": [],
      "name": "securityDepositTokenName",
      "outputs": [
        {
          "internalType": "bytes32",
          "name": "",
          "type": "bytes32"
        }
      ],
      "stateMutability": "view",
      "type": "function"
    },
    {
      "inputs": [
        {
          "internalType": "address",
          "name": "_addressResolver",
          "type": "address"
        }
      ],
      "name": "setAddressResolverAddress",
      "outputs": [],
      "stateMutability": "nonpayable",
      "type": "function"
    },
    {
      "inputs": [
        {
          "internalType": "address",
          "name": "_loadManager",
          "type": "address"
        }
      ],
      "name": "setLoanManagerToEscrow",
      "outputs": [],
      "stateMutability": "nonpayable",
      "type": "function"
    },
    {
      "inputs": [
        {
          "internalType": "address",
          "name": "_reserve",
          "type": "address"
        },
        {
          "internalType": "uint256",
          "name": "_amount",
          "type": "uint256"
        }
      ],
      "name": "setMaxSecurityDeposit",
      "outputs": [],
      "stateMutability": "nonpayable",
      "type": "function"
    },
    {
      "inputs": [
        {
          "internalType": "address",
          "name": "asset",
          "type": "address"
        },
        {
          "internalType": "address",
          "name": "rateStrategyAddress",
          "type": "address"
        }
      ],
      "name": "setReserveInterestRateStrategyAddress",
      "outputs": [],
      "stateMutability": "nonpayable",
      "type": "function"
    },
    {
      "inputs": [
        {
          "internalType": "address",
          "name": "_vaultUser",
          "type": "address"
        },
        {
          "internalType": "address",
          "name": "_reserve",
          "type": "address"
        },
        {
          "internalType": "address payable",
          "name": "_to",
          "type": "address"
        },
        {
          "internalType": "uint256",
          "name": "_amount",
          "type": "uint256"
        }
      ],
      "name": "slash",
      "outputs": [],
      "stateMutability": "nonpayable",
      "type": "function"
    },
    {
      "inputs": [
        {
          "internalType": "bytes4",
          "name": "interfaceId",
          "type": "bytes4"
        }
      ],
      "name": "supportsInterface",
      "outputs": [
        {
          "internalType": "bool",
          "name": "",
          "type": "bool"
        }
      ],
      "stateMutability": "view",
      "type": "function"
    },
    {
      "inputs": [
        {
          "internalType": "address",
          "name": "_vaultUser",
          "type": "address"
        },
        {
          "internalType": "address",
          "name": "_reserve",
          "type": "address"
        },
        {
          "internalType": "address",
          "name": "_sponsor",
          "type": "address"
        }
      ],
      "name": "underlyingBalance",
      "outputs": [
        {
          "internalType": "uint256",
          "name": "",
          "type": "uint256"
        }
      ],
      "stateMutability": "view",
      "type": "function"
    },
    {
      "inputs": [
        {
          "internalType": "address",
          "name": "_reserve",
          "type": "address"
        },
        {
          "internalType": "uint256",
          "name": "_requirement",
          "type": "uint256"
        }
      ],
      "name": "updateSecurityDepositRequirement",
      "outputs": [],
      "stateMutability": "nonpayable",
      "type": "function"
    },
    {
      "inputs": [],
      "name": "vaultManagerProxyName",
      "outputs": [
        {
          "internalType": "bytes32",
          "name": "",
          "type": "bytes32"
        }
      ],
      "stateMutability": "view",
      "type": "function"
    },
    {
      "inputs": [],
      "name": "vaultStorageName",
      "outputs": [
        {
          "internalType": "bytes32",
          "name": "",
          "type": "bytes32"
        }
      ],
      "stateMutability": "view",
      "type": "function"
    },
    {
      "inputs": [
        {
          "internalType": "address[]",
          "name": "_address",
          "type": "address[]"
        }
      ],
      "name": "whitelistAddress",
      "outputs": [],
      "stateMutability": "nonpayable",
      "type": "function"
    },
    {
      "inputs": [
        {
          "internalType": "bytes32[]",
          "name": "_function",
          "type": "bytes32[]"
        }
      ],
      "name": "whitelistFunction",
      "outputs": [],
      "stateMutability": "nonpayable",
      "type": "function"
    }
  ],
  "transactionHash": "0x9fc1739b2eaf055c3565db76b456a81c9c8842536bf0675137f0cbcd65ef0776",
  "args": [
    "0xc4940D382C8EAFD2526D1ad56B36CD9674285c43"
  ],
  "numDeployments": 1,
  "solcInputHash": "eee69880cfa252642b6fd82566022b0c",
  "bytecode": "0x60806040523480156200001157600080fd5b5060405162004b2338038062004b23833981810160405281019062000037919062000253565b620000697f523a704056dcd17bcf83bed8b68c59416dac1119be77755efe3bde0a64e46e0c826200007060201b60201c565b5062000285565b6200008282826200008660201b60201c565b5050565b6200009882826200017760201b60201c565b6200017357600160008084815260200190815260200160002060000160008373ffffffffffffffffffffffffffffffffffffffff1673ffffffffffffffffffffffffffffffffffffffff16815260200190815260200160002060006101000a81548160ff02191690831515021790555062000118620001e160201b60201c565b73ffffffffffffffffffffffffffffffffffffffff168173ffffffffffffffffffffffffffffffffffffffff16837f2f8788117e7eff1d82e926ec794901d17c78024a50270940304540a733656f0d60405160405180910390a45b5050565b600080600084815260200190815260200160002060000160008373ffffffffffffffffffffffffffffffffffffffff1673ffffffffffffffffffffffffffffffffffffffff16815260200190815260200160002060009054906101000a900460ff16905092915050565b600033905090565b600080fd5b600073ffffffffffffffffffffffffffffffffffffffff82169050919050565b60006200021b82620001ee565b9050919050565b6200022d816200020e565b81146200023957600080fd5b50565b6000815190506200024d8162000222565b92915050565b6000602082840312156200026c576200026b620001e9565b5b60006200027c848285016200023c565b91505092915050565b61488e80620002956000396000f3fe608060405234801561001057600080fd5b50600436106103985760003560e01c8063776f6891116101e9578063b75fc04a1161010f578063cf80d212116100ad578063e014ddd11161007c578063e014ddd114610a89578063e7bf1ece14610aa7578063ebe37d7914610ac5578063fe5cd40e14610af557610398565b8063cf80d21214610a03578063cff08f9914610a21578063d547741f14610a51578063d8dc4ee114610a6d57610398565b8063c38354ef116100e9578063c38354ef1461097d578063c44b11f714610999578063c827dc83146109c9578063c8345cbe146109e557610398565b8063b75fc04a1461094d578063c041d78714610969578063c134e58e1461097357610398565b806391d1485411610187578063ad64caed11610156578063ad64caed146108c3578063b31d61b0146108e1578063b36484d8146108fd578063b550906f1461092f57610398565b806391d148541461083957806394f6744314610869578063983d273714610887578063a217fddf146108a557610398565b8063869c5657116101c3578063869c56571461079d5780638b51bb8f146107bb5780638c942ffd146107eb5780638e47b49b1461080957610398565b8063776f6891146107335780637f007dd21461076357806381f781511461078157610398565b806335ea6a75116102ce57806355a83dcb1161026c5780635fc2f9431161023b5780635fc2f943146106d15780636023f816146106ef57806366f230261461070d578063724d47891461072957610398565b806355a83dcb14610647578063587982f7146106655780635d12928b146106835780635db22de6146106a157610398565b80633e4d6681116102a85780633e4d6681146105d557806345e14879146105f35780634e151f251461060f57806353b83e921461062b57610398565b806335ea6a751461056d57806336568abe1461059d5780633aa63c61146105b957610398565b80631d2118f91161033b57806327d7b6241161031557806327d7b624146104f9578063283761a4146105175780632f2ff15d1461053557806331c0ec9b1461055157610398565b80631d2118f9146104915780631f1fc35f146104ad578063248a9ca3146104c957610398565b806308c765021161037757806308c765021461040957806310f6c8b51461042757806319c1e7fc146104575780631af31a121461047357610398565b806273902c1461039d57806301ffc9a7146103bb57806305a2ee2a146103eb575b600080fd5b6103a5610b11565b6040516103b291906131e1565b60405180910390f35b6103d560048036038101906103d09190613268565b610b9d565b6040516103e291906132b0565b60405180910390f35b6103f3610c17565b60405161040091906131e1565b60405180910390f35b610411610c3d565b60405161041e91906132ec565b60405180910390f35b610441600480360381019061043c9190613333565b610d14565b60405161044e9190613379565b60405180910390f35b610471600480360381019061046c9190613333565b610dad565b005b61047b610e55565b60405161048891906132ec565b60405180910390f35b6104ab60048036038101906104a69190613394565b610f2c565b005b6104c760048036038101906104c29190613400565b610f63565b005b6104e360048036038101906104de91906134d8565b61101d565b6040516104f09190613514565b60405180910390f35b61050161103c565b60405161050e91906132ec565b60405180910390f35b61051f611113565b60405161052c9190613514565b60405180910390f35b61054f600480360381019061054a919061352f565b61113b565b005b61056b6004803603810190610566919061356f565b611164565b005b61058760048036038101906105829190613333565b61120f565b6040516105949190613753565b60405180910390f35b6105b760048036038101906105b2919061352f565b611330565b005b6105d360048036038101906105ce919061379b565b6113b3565b005b6105dd611431565b6040516105ea9190613514565b60405180910390f35b61060d60048036038101906106089190613867565b611459565b005b610629600480360381019061062491906138b4565b61150a565b005b6106456004803603810190610640919061356f565b611747565b005b61064f6117f2565b60405161065c9190613514565b60405180910390f35b61066d61181a565b60405161067a9190613514565b60405180910390f35b61068b611842565b60405161069891906131e1565b60405180910390f35b6106bb60048036038101906106b69190613394565b611aa7565b6040516106c89190613379565b60405180910390f35b6106d9611b43565b6040516106e69190613514565b60405180910390f35b6106f7611b67565b6040516107049190613514565b60405180910390f35b610727600480360381019061072291906138b4565b611b8b565b005b610731611dc8565b005b61074d6004803603810190610748919061392c565b611e6a565b60405161075a9190613379565b60405180910390f35b61076b611f06565b6040516107789190613514565b60405180910390f35b61079b60048036038101906107969190613333565b611f2a565b005b6107a5611fd2565b6040516107b29190613514565b60405180910390f35b6107d560048036038101906107d0919061396c565b611ff6565b6040516107e29190613379565b60405180910390f35b6107f3612095565b6040516108009190613514565b60405180910390f35b610823600480360381019061081e9190613333565b6120b9565b6040516108309190613379565b60405180910390f35b610853600480360381019061084e919061352f565b612152565b60405161086091906132b0565b60405180910390f35b6108716121bc565b60405161087e91906131e1565b60405180910390f35b61088f6121e6565b60405161089c9190613514565b60405180910390f35b6108ad61220a565b6040516108ba9190613514565b60405180910390f35b6108cb612211565b6040516108d89190613514565b60405180910390f35b6108fb60048036038101906108f69190613a15565b612235565b005b61091760048036038101906109129190613333565b6122e6565b60405161092693929190613a62565b60405180910390f35b610937612388565b6040516109449190613514565b60405180910390f35b61096760048036038101906109629190613333565b6123b0565b005b610971612427565b005b61097b6124c9565b005b61099760048036038101906109929190613a99565b61256b565b005b6109b360048036038101906109ae9190613333565b6125eb565b6040516109c09190613b1c565b60405180910390f35b6109e360048036038101906109de9190613333565b61270b565b005b6109ed6127b3565b6040516109fa9190613514565b60405180910390f35b610a0b6127db565b604051610a189190613514565b60405180910390f35b610a3b6004803603810190610a36919061392c565b6127ff565b604051610a489190613379565b60405180910390f35b610a6b6004803603810190610a66919061352f565b61289b565b005b610a876004803603810190610a829190613333565b6128c4565b005b610a9161296c565b604051610a9e9190613514565b60405180910390f35b610aaf612990565b604051610abc9190613514565b60405180910390f35b610adf6004803603810190610ada919061396c565b6129b8565b604051610aec9190613379565b60405180910390f35b610b0f6004803603810190610b0a9190613394565b612a57565b005b6000610b1b61103c565b73ffffffffffffffffffffffffffffffffffffffff1663122fd48a6040518163ffffffff1660e01b815260040160206040518083038186803b158015610b6057600080fd5b505afa158015610b74573d6000803e3d6000fd5b505050506040513d601f19601f82011682018060405250810190610b989190613b4c565b905090565b60007f7965db0b000000000000000000000000000000000000000000000000000000007bffffffffffffffffffffffffffffffffffffffffffffffffffffffff1916827bffffffffffffffffffffffffffffffffffffffffffffffffffffffff19161480610c105750610c0f82612b75565b5b9050919050565b600160009054906101000a900473ffffffffffffffffffffffffffffffffffffffff1681565b600080600160009054906101000a900473ffffffffffffffffffffffffffffffffffffffff1673ffffffffffffffffffffffffffffffffffffffff166321f8a7217f65787443616c6c41434c50726f787900000000000000000000000000000000006040518263ffffffff1660e01b8152600401610cbb9190613514565b60206040518083038186803b158015610cd357600080fd5b505afa158015610ce7573d6000803e3d6000fd5b505050506040513d601f19601f82011682018060405250810190610d0b9190613b4c565b90508091505090565b6000610d1e610e55565b73ffffffffffffffffffffffffffffffffffffffff166310f6c8b5836040518263ffffffff1660e01b8152600401610d5691906131e1565b60206040518083038186803b158015610d6e57600080fd5b505afa158015610d82573d6000803e3d6000fd5b505050506040513d601f19601f82011682018060405250810190610da69190613b8e565b9050919050565b7f523a704056dcd17bcf83bed8b68c59416dac1119be77755efe3bde0a64e46e0c610ddf81610dda612bdf565b612be7565b610de7610e55565b73ffffffffffffffffffffffffffffffffffffffff166319c1e7fc836040518263ffffffff1660e01b8152600401610e1f91906131e1565b600060405180830381600087803b158015610e3957600080fd5b505af1158015610e4d573d6000803e3d6000fd5b505050505050565b600080600160009054906101000a900473ffffffffffffffffffffffffffffffffffffffff1673ffffffffffffffffffffffffffffffffffffffff166321f8a7217f7661756c744d616e6167657250726f78790000000000000000000000000000006040518263ffffffff1660e01b8152600401610ed39190613514565b60206040518083038186803b158015610eeb57600080fd5b505afa158015610eff573d6000803e3d6000fd5b505050506040513d601f19601f82011682018060405250810190610f239190613b4c565b90508091505090565b7f523a704056dcd17bcf83bed8b68c59416dac1119be77755efe3bde0a64e46e0c610f5e81610f59612bdf565b612be7565b505050565b7f523a704056dcd17bcf83bed8b68c59416dac1119be77755efe3bde0a64e46e0c610f9581610f90612bdf565b612be7565b610f9d61103c565b73ffffffffffffffffffffffffffffffffffffffff16631f1fc35f898989898989896040518863ffffffff1660e01b8152600401610fe19796959493929190613bbb565b600060405180830381600087803b158015610ffb57600080fd5b505af115801561100f573d6000803e3d6000fd5b505050505050505050505050565b6000806000838152602001908152602001600020600101549050919050565b600080600160009054906101000a900473ffffffffffffffffffffffffffffffffffffffff1673ffffffffffffffffffffffffffffffffffffffff166321f8a7217f6c69717569646974794d616e6167657250726f787900000000000000000000006040518263ffffffff1660e01b81526004016110ba9190613514565b60206040518083038186803b1580156110d257600080fd5b505afa1580156110e6573d6000803e3d6000fd5b505050506040513d601f19601f8201168201806040525081019061110a9190613b4c565b90508091505090565b60007f7661756c7453746f726167650000000000000000000000000000000000000000905090565b6111448261101d565b61115581611150612bdf565b612be7565b61115f8383612c84565b505050565b7f523a704056dcd17bcf83bed8b68c59416dac1119be77755efe3bde0a64e46e0c61119681611191612bdf565b612be7565b61119e610e55565b73ffffffffffffffffffffffffffffffffffffffff166331c0ec9b84846040518363ffffffff1660e01b81526004016111d8929190613c2a565b600060405180830381600087803b1580156111f257600080fd5b505af1158015611206573d6000803e3d6000fd5b50505050505050565b6112176130a4565b61122082612d64565b6040518060400160405280600281526020017f363000000000000000000000000000000000000000000000000000000000000081525090611297576040517f08c379a000000000000000000000000000000000000000000000000000000000815260040161128e9190613cec565b60405180910390fd5b506112a061103c565b73ffffffffffffffffffffffffffffffffffffffff166335ea6a75836040518263ffffffff1660e01b81526004016112d891906131e1565b6102006040518083038186803b1580156112f157600080fd5b505afa158015611305573d6000803e3d6000fd5b505050506040513d601f19601f820116820180604052508101906113299190613f70565b9050919050565b611338612bdf565b73ffffffffffffffffffffffffffffffffffffffff168173ffffffffffffffffffffffffffffffffffffffff16146113a5576040517f08c379a000000000000000000000000000000000000000000000000000000000815260040161139c90614010565b60405180910390fd5b6113af8282612d87565b5050565b6113bb610e55565b73ffffffffffffffffffffffffffffffffffffffff16633aa63c61858585856040518563ffffffff1660e01b81526004016113f99493929190614030565b600060405180830381600087803b15801561141357600080fd5b505af1158015611427573d6000803e3d6000fd5b5050505050505050565b60007f6c69717569646974794d616e6167657250726f78790000000000000000000000905090565b7f523a704056dcd17bcf83bed8b68c59416dac1119be77755efe3bde0a64e46e0c61148b81611486612bdf565b612be7565b6000611495610c3d565b90508073ffffffffffffffffffffffffffffffffffffffff166345e1487985856040518363ffffffff1660e01b81526004016114d29291906140f6565b600060405180830381600087803b1580156114ec57600080fd5b505af1158015611500573d6000803e3d6000fd5b5050505050505050565b7f72656465656d5365637572697479000000000000000000000000000000000000611533610c3d565b73ffffffffffffffffffffffffffffffffffffffff16635fae0576336040518263ffffffff1660e01b815260040161156b91906131e1565b60206040518083038186803b15801561158357600080fd5b505afa158015611597573d6000803e3d6000fd5b505050506040513d601f19601f820116820180604052508101906115bb9190614146565b6115fa576040517f08c379a00000000000000000000000000000000000000000000000000000000081526004016115f1906141bf565b60405180910390fd5b611602610c3d565b73ffffffffffffffffffffffffffffffffffffffff1663128358c5826040518263ffffffff1660e01b815260040161163a9190613514565b60206040518083038186803b15801561165257600080fd5b505afa158015611666573d6000803e3d6000fd5b505050506040513d601f19601f8201168201806040525081019061168a9190614146565b6116c9576040517f08c379a00000000000000000000000000000000000000000000000000000000081526004016116c090614251565b60405180910390fd5b6116d1610e55565b73ffffffffffffffffffffffffffffffffffffffff1663365a0717338686866040518563ffffffff1660e01b815260040161170f9493929190614271565b600060405180830381600087803b15801561172957600080fd5b505af115801561173d573d6000803e3d6000fd5b5050505050505050565b7f523a704056dcd17bcf83bed8b68c59416dac1119be77755efe3bde0a64e46e0c61177981611774612bdf565b612be7565b611781610e55565b73ffffffffffffffffffffffffffffffffffffffff166353b83e9284846040518363ffffffff1660e01b81526004016117bb929190613c2a565b600060405180830381600087803b1580156117d557600080fd5b505af11580156117e9573d6000803e3d6000fd5b50505050505050565b60007f7661756c744d616e6167657250726f7879000000000000000000000000000000905090565b60007f65787443616c6c41434c50726f78790000000000000000000000000000000000905090565b60007f6372656174655661756c7400000000000000000000000000000000000000000061186d610c3d565b73ffffffffffffffffffffffffffffffffffffffff16635fae0576336040518263ffffffff1660e01b81526004016118a591906131e1565b60206040518083038186803b1580156118bd57600080fd5b505afa1580156118d1573d6000803e3d6000fd5b505050506040513d601f19601f820116820180604052508101906118f59190614146565b611934576040517f08c379a000000000000000000000000000000000000000000000000000000000815260040161192b906141bf565b60405180910390fd5b61193c610c3d565b73ffffffffffffffffffffffffffffffffffffffff1663128358c5826040518263ffffffff1660e01b81526004016119749190613514565b60206040518083038186803b15801561198c57600080fd5b505afa1580156119a0573d6000803e3d6000fd5b505050506040513d601f19601f820116820180604052508101906119c49190614146565b611a03576040517f08c379a00000000000000000000000000000000000000000000000000000000081526004016119fa90614251565b60405180910390fd5b6000611a0d610e55565b905060008190508073ffffffffffffffffffffffffffffffffffffffff1663b4bd6f46336040518263ffffffff1660e01b8152600401611a4d91906131e1565b602060405180830381600087803b158015611a6757600080fd5b505af1158015611a7b573d6000803e3d6000fd5b505050506040513d601f19601f82011682018060405250810190611a9f9190613b4c565b935050505090565b6000611ab1610e55565b73ffffffffffffffffffffffffffffffffffffffff16635db22de684846040518363ffffffff1660e01b8152600401611aeb9291906142b6565b60206040518083038186803b158015611b0357600080fd5b505afa158015611b17573d6000803e3d6000fd5b505050506040513d601f19601f82011682018060405250810190611b3b9190613b8e565b905092915050565b7f65787443616c6c41434c50726f7879000000000000000000000000000000000081565b7f6c69717569646974794d616e616765720000000000000000000000000000000081565b7f6465706f73697453656375726974790000000000000000000000000000000000611bb4610c3d565b73ffffffffffffffffffffffffffffffffffffffff16635fae0576336040518263ffffffff1660e01b8152600401611bec91906131e1565b60206040518083038186803b158015611c0457600080fd5b505afa158015611c18573d6000803e3d6000fd5b505050506040513d601f19601f82011682018060405250810190611c3c9190614146565b611c7b576040517f08c379a0000000000000000000000000000000000000000000000000000000008152600401611c72906141bf565b60405180910390fd5b611c83610c3d565b73ffffffffffffffffffffffffffffffffffffffff1663128358c5826040518263ffffffff1660e01b8152600401611cbb9190613514565b60206040518083038186803b158015611cd357600080fd5b505afa158015611ce7573d6000803e3d6000fd5b505050506040513d601f19601f82011682018060405250810190611d0b9190614146565b611d4a576040517f08c379a0000000000000000000000000000000000000000000000000000000008152600401611d4190614251565b60405180910390fd5b611d52610e55565b73ffffffffffffffffffffffffffffffffffffffff1663f7e140ce338686866040518563ffffffff1660e01b8152600401611d9094939291906142df565b600060405180830381600087803b158015611daa57600080fd5b505af1158015611dbe573d6000803e3d6000fd5b5050505050505050565b7f523a704056dcd17bcf83bed8b68c59416dac1119be77755efe3bde0a64e46e0c611dfa81611df5612bdf565b612be7565b6000611e04610c3d565b90508073ffffffffffffffffffffffffffffffffffffffff16634e71e0c86040518163ffffffff1660e01b8152600401600060405180830381600087803b158015611e4e57600080fd5b505af1158015611e62573d6000803e3d6000fd5b505050505050565b6000611e7461103c565b73ffffffffffffffffffffffffffffffffffffffff1663776f689184846040518363ffffffff1660e01b8152600401611eae92919061439b565b60206040518083038186803b158015611ec657600080fd5b505afa158015611eda573d6000803e3d6000fd5b505050506040513d601f19601f82011682018060405250810190611efe9190613b8e565b905092915050565b7f6c69717569646974794d616e6167657250726f7879000000000000000000000081565b7f523a704056dcd17bcf83bed8b68c59416dac1119be77755efe3bde0a64e46e0c611f5c81611f57612bdf565b612be7565b611f6461103c565b73ffffffffffffffffffffffffffffffffffffffff166381f78151836040518263ffffffff1660e01b8152600401611f9c91906131e1565b600060405180830381600087803b158015611fb657600080fd5b505af1158015611fca573d6000803e3d6000fd5b505050505050565b7f7661756c744d616e6167657250726f787900000000000000000000000000000081565b6000612000610e55565b73ffffffffffffffffffffffffffffffffffffffff16638b51bb8f8585856040518463ffffffff1660e01b815260040161203c939291906143c4565b60206040518083038186803b15801561205457600080fd5b505afa158015612068573d6000803e3d6000fd5b505050506040513d601f19601f8201168201806040525081019061208c9190613b8e565b90509392505050565b7f7661756c7453746f72616765000000000000000000000000000000000000000081565b60006120c3610e55565b73ffffffffffffffffffffffffffffffffffffffff16638e47b49b836040518263ffffffff1660e01b81526004016120fb91906131e1565b60206040518083038186803b15801561211357600080fd5b505afa158015612127573d6000803e3d6000fd5b505050506040513d601f19601f8201168201806040525081019061214b9190613b8e565b9050919050565b600080600084815260200190815260200160002060000160008373ffffffffffffffffffffffffffffffffffffffff1673ffffffffffffffffffffffffffffffffffffffff16815260200190815260200160002060009054906101000a900460ff16905092915050565b6000600160009054906101000a900473ffffffffffffffffffffffffffffffffffffffff16905090565b7f523a704056dcd17bcf83bed8b68c59416dac1119be77755efe3bde0a64e46e0c81565b6000801b81565b7f6c6f616e4d616e6167657200000000000000000000000000000000000000000081565b7f523a704056dcd17bcf83bed8b68c59416dac1119be77755efe3bde0a64e46e0c61226781612262612bdf565b612be7565b6000612271610c3d565b90508073ffffffffffffffffffffffffffffffffffffffff1663b31d61b085856040518363ffffffff1660e01b81526004016122ae9291906144af565b600060405180830381600087803b1580156122c857600080fd5b505af11580156122dc573d6000803e3d6000fd5b5050505050505050565b60008060006122f361103c565b73ffffffffffffffffffffffffffffffffffffffff1663817ad5d3856040518263ffffffff1660e01b815260040161232b91906131e1565b60606040518083038186803b15801561234357600080fd5b505afa158015612357573d6000803e3d6000fd5b505050506040513d601f19601f8201168201806040525081019061237b91906144d3565b9250925092509193909250565b60007f6c6f616e4d616e61676572000000000000000000000000000000000000000000905090565b7f523a704056dcd17bcf83bed8b68c59416dac1119be77755efe3bde0a64e46e0c6123e2816123dd612bdf565b612be7565b81600160006101000a81548173ffffffffffffffffffffffffffffffffffffffff021916908373ffffffffffffffffffffffffffffffffffffffff1602179055505050565b7f523a704056dcd17bcf83bed8b68c59416dac1119be77755efe3bde0a64e46e0c61245981612454612bdf565b612be7565b6000612463610e55565b90508073ffffffffffffffffffffffffffffffffffffffff16634e71e0c86040518163ffffffff1660e01b8152600401600060405180830381600087803b1580156124ad57600080fd5b505af11580156124c1573d6000803e3d6000fd5b505050505050565b7f523a704056dcd17bcf83bed8b68c59416dac1119be77755efe3bde0a64e46e0c6124fb816124f6612bdf565b612be7565b600061250561103c565b90508073ffffffffffffffffffffffffffffffffffffffff16634e71e0c86040518163ffffffff1660e01b8152600401600060405180830381600087803b15801561254f57600080fd5b505af1158015612563573d6000803e3d6000fd5b505050505050565b61257361103c565b73ffffffffffffffffffffffffffffffffffffffff1663c907e29a85858533866040518663ffffffff1660e01b81526004016125b3959493929190614526565b600060405180830381600087803b1580156125cd57600080fd5b505af11580156125e1573d6000803e3d6000fd5b5050505050505050565b6125f361318d565b6125fc82612d64565b6040518060400160405280600281526020017f363000000000000000000000000000000000000000000000000000000000000081525090612673576040517f08c379a000000000000000000000000000000000000000000000000000000000815260040161266a9190613cec565b60405180910390fd5b5061267c61103c565b73ffffffffffffffffffffffffffffffffffffffff1663c44b11f7836040518263ffffffff1660e01b81526004016126b491906131e1565b60206040518083038186803b1580156126cc57600080fd5b505afa1580156126e0573d6000803e3d6000fd5b505050506040513d601f19601f820116820180604052508101906127049190614579565b9050919050565b7f523a704056dcd17bcf83bed8b68c59416dac1119be77755efe3bde0a64e46e0c61273d81612738612bdf565b612be7565b61274561103c565b73ffffffffffffffffffffffffffffffffffffffff1663c827dc83836040518263ffffffff1660e01b815260040161277d91906131e1565b600060405180830381600087803b15801561279757600080fd5b505af11580156127ab573d6000803e3d6000fd5b505050505050565b60007f73656375726974794465706f736974546f6b656e000000000000000000000000905090565b7f73656375726974794465706f736974546f6b656e00000000000000000000000081565b600061280961103c565b73ffffffffffffffffffffffffffffffffffffffff1663284592b284846040518363ffffffff1660e01b815260040161284392919061439b565b60206040518083038186803b15801561285b57600080fd5b505afa15801561286f573d6000803e3d6000fd5b505050506040513d601f19601f820116820180604052508101906128939190613b8e565b905092915050565b6128a48261101d565b6128b5816128b0612bdf565b612be7565b6128bf8383612d87565b505050565b7f523a704056dcd17bcf83bed8b68c59416dac1119be77755efe3bde0a64e46e0c6128f6816128f1612bdf565b612be7565b6128fe610e55565b73ffffffffffffffffffffffffffffffffffffffff1663d8dc4ee1836040518263ffffffff1660e01b815260040161293691906131e1565b600060405180830381600087803b15801561295057600080fd5b505af1158015612964573d6000803e3d6000fd5b505050505050565b7f6c69717569646974794d616e6167657253746f7261676500000000000000000081565b60007f6c69717569646974794d616e6167657253746f72616765000000000000000000905090565b60006129c2610e55565b73ffffffffffffffffffffffffffffffffffffffff1663ebe37d798585856040518463ffffffff1660e01b81526004016129fe939291906143c4565b60206040518083038186803b158015612a1657600080fd5b505afa158015612a2a573d6000803e3d6000fd5b505050506040513d601f19601f82011682018060405250810190612a4e9190613b8e565b90509392505050565b7f523a704056dcd17bcf83bed8b68c59416dac1119be77755efe3bde0a64e46e0c612a8981612a84612bdf565b612be7565b6000612a93610e55565b90508073ffffffffffffffffffffffffffffffffffffffff1663f3e8789b85856040518363ffffffff1660e01b8152600401612ad09291906142b6565b600060405180830381600087803b158015612aea57600080fd5b505af1158015612afe573d6000803e3d6000fd5b505050508073ffffffffffffffffffffffffffffffffffffffff166361a875af85856040518363ffffffff1660e01b8152600401612b3d9291906142b6565b600060405180830381600087803b158015612b5757600080fd5b505af1158015612b6b573d6000803e3d6000fd5b5050505050505050565b60007f01ffc9a7000000000000000000000000000000000000000000000000000000007bffffffffffffffffffffffffffffffffffffffffffffffffffffffff1916827bffffffffffffffffffffffffffffffffffffffffffffffffffffffff1916149050919050565b600033905090565b612bf18282612152565b612c8057612c168173ffffffffffffffffffffffffffffffffffffffff166014612e68565b612c248360001c6020612e68565b604051602001612c3592919061467a565b6040516020818303038152906040526040517f08c379a0000000000000000000000000000000000000000000000000000000008152600401612c779190613cec565b60405180910390fd5b5050565b612c8e8282612152565b612d6057600160008084815260200190815260200160002060000160008373ffffffffffffffffffffffffffffffffffffffff1673ffffffffffffffffffffffffffffffffffffffff16815260200190815260200160002060006101000a81548160ff021916908315150217905550612d05612bdf565b73ffffffffffffffffffffffffffffffffffffffff168173ffffffffffffffffffffffffffffffffffffffff16837f2f8788117e7eff1d82e926ec794901d17c78024a50270940304540a733656f0d60405160405180910390a45b5050565b6000808273ffffffffffffffffffffffffffffffffffffffff163b119050919050565b612d918282612152565b15612e6457600080600084815260200190815260200160002060000160008373ffffffffffffffffffffffffffffffffffffffff1673ffffffffffffffffffffffffffffffffffffffff16815260200190815260200160002060006101000a81548160ff021916908315150217905550612e09612bdf565b73ffffffffffffffffffffffffffffffffffffffff168173ffffffffffffffffffffffffffffffffffffffff16837ff6391f5c32d9c69d2a47ea670b442974b53935d1edc7fd64eb21e047a839171b60405160405180910390a45b5050565b606060006002836002612e7b91906146e3565b612e85919061473d565b67ffffffffffffffff811115612e9e57612e9d613d13565b5b6040519080825280601f01601f191660200182016040528015612ed05781602001600182028036833780820191505090505b5090507f300000000000000000000000000000000000000000000000000000000000000081600081518110612f0857612f07614793565b5b60200101907effffffffffffffffffffffffffffffffffffffffffffffffffffffffffffff1916908160001a9053507f780000000000000000000000000000000000000000000000000000000000000081600181518110612f6c57612f6b614793565b5b60200101907effffffffffffffffffffffffffffffffffffffffffffffffffffffffffffff1916908160001a90535060006001846002612fac91906146e3565b612fb6919061473d565b90505b6001811115613056577f3031323334353637383961626364656600000000000000000000000000000000600f861660108110612ff857612ff7614793565b5b1a60f81b82828151811061300f5761300e614793565b5b60200101907effffffffffffffffffffffffffffffffffffffffffffffffffffffffffffff1916908160001a905350600485901c94508061304f906147c2565b9050612fb9565b506000841461309a576040517f08c379a000000000000000000000000000000000000000000000000000000000815260040161309190614838565b60405180910390fd5b8091505092915050565b6040518061020001604052806130b861318d565b8152602001600081526020016000815260200160008152602001600081526020016000815260200160008152602001600081526020016000815260200160008152602001600073ffffffffffffffffffffffffffffffffffffffff168152602001600073ffffffffffffffffffffffffffffffffffffffff168152602001600073ffffffffffffffffffffffffffffffffffffffff168152602001600073ffffffffffffffffffffffffffffffffffffffff168152602001600064ffffffffff168152602001600064ffffffffff1681525090565b6040518060200160405280600081525090565b600073ffffffffffffffffffffffffffffffffffffffff82169050919050565b60006131cb826131a0565b9050919050565b6131db816131c0565b82525050565b60006020820190506131f660008301846131d2565b92915050565b6000604051905090565b600080fd5b600080fd5b60007fffffffff0000000000000000000000000000000000000000000000000000000082169050919050565b61324581613210565b811461325057600080fd5b50565b6000813590506132628161323c565b92915050565b60006020828403121561327e5761327d613206565b5b600061328c84828501613253565b91505092915050565b60008115159050919050565b6132aa81613295565b82525050565b60006020820190506132c560008301846132a1565b92915050565b60006132d6826131a0565b9050919050565b6132e6816132cb565b82525050565b600060208201905061330160008301846132dd565b92915050565b613310816131c0565b811461331b57600080fd5b50565b60008135905061332d81613307565b92915050565b60006020828403121561334957613348613206565b5b60006133578482850161331e565b91505092915050565b6000819050919050565b61337381613360565b82525050565b600060208201905061338e600083018461336a565b92915050565b600080604083850312156133ab576133aa613206565b5b60006133b98582860161331e565b92505060206133ca8582860161331e565b9150509250929050565b6133dd81613360565b81146133e857600080fd5b50565b6000813590506133fa816133d4565b92915050565b600080600080600080600060e0888a03121561341f5761341e613206565b5b600061342d8a828b0161331e565b975050602061343e8a828b0161331e565b965050604061344f8a828b0161331e565b95505060606134608a828b016133eb565b94505060806134718a828b016133eb565b93505060a06134828a828b0161331e565b92505060c06134938a828b0161331e565b91505092959891949750929550565b6000819050919050565b6134b5816134a2565b81146134c057600080fd5b50565b6000813590506134d2816134ac565b92915050565b6000602082840312156134ee576134ed613206565b5b60006134fc848285016134c3565b91505092915050565b61350e816134a2565b82525050565b60006020820190506135296000830184613505565b92915050565b6000806040838503121561354657613545613206565b5b6000613554858286016134c3565b92505060206135658582860161331e565b9150509250929050565b6000806040838503121561358657613585613206565b5b60006135948582860161331e565b92505060206135a5858286016133eb565b9150509250929050565b6135b881613360565b82525050565b6020820160008201516135d460008501826135af565b50505050565b6135e3816131c0565b82525050565b600064ffffffffff82169050919050565b613603816135e9565b82525050565b6102008201600082015161362060008501826135be565b50602082015161363360208501826135af565b50604082015161364660408501826135af565b50606082015161365960608501826135af565b50608082015161366c60808501826135af565b5060a082015161367f60a08501826135af565b5060c082015161369260c08501826135af565b5060e08201516136a560e08501826135af565b506101008201516136ba6101008501826135af565b506101208201516136cf6101208501826135af565b506101408201516136e46101408501826135da565b506101608201516136f96101608501826135da565b5061018082015161370e6101808501826135da565b506101a08201516137236101a08501826135da565b506101c08201516137386101c08501826135fa565b506101e082015161374d6101e08501826135fa565b50505050565b6000610200820190506137696000830184613609565b92915050565b613778816132cb565b811461378357600080fd5b50565b6000813590506137958161376f565b92915050565b600080600080608085870312156137b5576137b4613206565b5b60006137c38782880161331e565b94505060206137d48782880161331e565b93505060406137e587828801613786565b92505060606137f6878288016133eb565b91505092959194509250565b600080fd5b600080fd5b600080fd5b60008083601f84011261382757613826613802565b5b8235905067ffffffffffffffff81111561384457613843613807565b5b6020830191508360208202830111156138605761385f61380c565b5b9250929050565b6000806020838503121561387e5761387d613206565b5b600083013567ffffffffffffffff81111561389c5761389b61320b565b5b6138a885828601613811565b92509250509250929050565b6000806000606084860312156138cd576138cc613206565b5b60006138db8682870161331e565b93505060206138ec8682870161331e565b92505060406138fd868287016133eb565b9150509250925092565b6002811061391457600080fd5b50565b60008135905061392681613907565b92915050565b6000806040838503121561394357613942613206565b5b60006139518582860161331e565b925050602061396285828601613917565b9150509250929050565b60008060006060848603121561398557613984613206565b5b60006139938682870161331e565b93505060206139a48682870161331e565b92505060406139b58682870161331e565b9150509250925092565b60008083601f8401126139d5576139d4613802565b5b8235905067ffffffffffffffff8111156139f2576139f1613807565b5b602083019150836020820283011115613a0e57613a0d61380c565b5b9250929050565b60008060208385031215613a2c57613a2b613206565b5b600083013567ffffffffffffffff811115613a4a57613a4961320b565b5b613a56858286016139bf565b92509250509250929050565b6000606082019050613a7760008301866132a1565b613a8460208301856132a1565b613a9160408301846132a1565b949350505050565b60008060008060808587031215613ab357613ab2613206565b5b6000613ac18782880161331e565b9450506020613ad287828801613917565b9350506040613ae3878288016133eb565b9250506060613af48782880161331e565b91505092959194509250565b602082016000820151613b1660008501826135af565b50505050565b6000602082019050613b316000830184613b00565b92915050565b600081519050613b4681613307565b92915050565b600060208284031215613b6257613b61613206565b5b6000613b7084828501613b37565b91505092915050565b600081519050613b88816133d4565b92915050565b600060208284031215613ba457613ba3613206565b5b6000613bb284828501613b79565b91505092915050565b600060e082019050613bd0600083018a6131d2565b613bdd60208301896131d2565b613bea60408301886131d2565b613bf7606083018761336a565b613c04608083018661336a565b613c1160a08301856131d2565b613c1e60c08301846131d2565b98975050505050505050565b6000604082019050613c3f60008301856131d2565b613c4c602083018461336a565b9392505050565b600081519050919050565b600082825260208201905092915050565b60005b83811015613c8d578082015181840152602081019050613c72565b83811115613c9c576000848401525b50505050565b6000601f19601f8301169050919050565b6000613cbe82613c53565b613cc88185613c5e565b9350613cd8818560208601613c6f565b613ce181613ca2565b840191505092915050565b60006020820190508181036000830152613d068184613cb3565b905092915050565b600080fd5b7f4e487b7100000000000000000000000000000000000000000000000000000000600052604160045260246000fd5b613d4b82613ca2565b810181811067ffffffffffffffff82111715613d6a57613d69613d13565b5b80604052505050565b6000613d7d6131fc565b9050613d898282613d42565b919050565b600060208284031215613da457613da3613d0e565b5b613dae6020613d73565b90506000613dbe84828501613b79565b60008301525092915050565b613dd3816135e9565b8114613dde57600080fd5b50565b600081519050613df081613dca565b92915050565b60006102008284031215613e0d57613e0c613d0e565b5b613e18610200613d73565b90506000613e2884828501613d8e565b6000830152506020613e3c84828501613b79565b6020830152506040613e5084828501613b79565b6040830152506060613e6484828501613b79565b6060830152506080613e7884828501613b79565b60808301525060a0613e8c84828501613b79565b60a08301525060c0613ea084828501613b79565b60c08301525060e0613eb484828501613b79565b60e083015250610100613ec984828501613b79565b61010083015250610120613edf84828501613b79565b61012083015250610140613ef584828501613b37565b61014083015250610160613f0b84828501613b37565b61016083015250610180613f2184828501613b37565b610180830152506101a0613f3784828501613b37565b6101a0830152506101c0613f4d84828501613de1565b6101c0830152506101e0613f6384828501613de1565b6101e08301525092915050565b60006102008284031215613f8757613f86613206565b5b6000613f9584828501613df6565b91505092915050565b7f416363657373436f6e74726f6c3a2063616e206f6e6c792072656e6f756e636560008201527f20726f6c657320666f722073656c660000000000000000000000000000000000602082015250565b6000613ffa602f83613c5e565b915061400582613f9e565b604082019050919050565b6000602082019050818103600083015261402981613fed565b9050919050565b600060808201905061404560008301876131d2565b61405260208301866131d2565b61405f60408301856132dd565b61406c606083018461336a565b95945050505050565b600082825260208201905092915050565b600080fd5b82818337600083830152505050565b60006140a68385614075565b93507f07ffffffffffffffffffffffffffffffffffffffffffffffffffffffffffffff8311156140d9576140d8614086565b5b6020830292506140ea83858461408b565b82840190509392505050565b6000602082019050818103600083015261411181848661409a565b90509392505050565b61412381613295565b811461412e57600080fd5b50565b6000815190506141408161411a565b92915050565b60006020828403121561415c5761415b613206565b5b600061416a84828501614131565b91505092915050565b7f566f79616765723a206e6f742077686974656c69737465642061646472657373600082015250565b60006141a9602083613c5e565b91506141b482614173565b602082019050919050565b600060208201905081810360008301526141d88161419c565b9050919050565b7f566f79616765723a206e6f742077686974656c69737465642066756e6374696f60008201527f6e73000000000000000000000000000000000000000000000000000000000000602082015250565b600061423b602283613c5e565b9150614246826141df565b604082019050919050565b6000602082019050818103600083015261426a8161422e565b9050919050565b600060808201905061428660008301876132dd565b61429360208301866131d2565b6142a060408301856131d2565b6142ad606083018461336a565b95945050505050565b60006040820190506142cb60008301856131d2565b6142d860208301846131d2565b9392505050565b60006080820190506142f460008301876131d2565b61430160208301866131d2565b61430e60408301856131d2565b61431b606083018461336a565b95945050505050565b7f4e487b7100000000000000000000000000000000000000000000000000000000600052602160045260246000fd5b6002811061436457614363614324565b5b50565b600081905061437582614353565b919050565b600061438582614367565b9050919050565b6143958161437a565b82525050565b60006040820190506143b060008301856131d2565b6143bd602083018461438c565b9392505050565b60006060820190506143d960008301866131d2565b6143e660208301856131d2565b6143f360408301846131d2565b949350505050565b600082825260208201905092915050565b6000819050919050565b600061442283836135da565b60208301905092915050565b600061443d602084018461331e565b905092915050565b6000602082019050919050565b600061445e83856143fb565b93506144698261440c565b8060005b858110156144a25761447f828461442e565b6144898882614416565b975061449483614445565b92505060018101905061446d565b5085925050509392505050565b600060208201905081810360008301526144ca818486614452565b90509392505050565b6000806000606084860312156144ec576144eb613206565b5b60006144fa86828701614131565b935050602061450b86828701614131565b925050604061451c86828701614131565b9150509250925092565b600060a08201905061453b60008301886131d2565b614548602083018761438c565b614555604083018661336a565b61456260608301856131d2565b61456f60808301846131d2565b9695505050505050565b60006020828403121561458f5761458e613206565b5b600061459d84828501613d8e565b91505092915050565b600081905092915050565b7f416363657373436f6e74726f6c3a206163636f756e7420000000000000000000600082015250565b60006145e76017836145a6565b91506145f2826145b1565b601782019050919050565b600061460882613c53565b61461281856145a6565b9350614622818560208601613c6f565b80840191505092915050565b7f206973206d697373696e6720726f6c6520000000000000000000000000000000600082015250565b60006146646011836145a6565b915061466f8261462e565b601182019050919050565b6000614685826145da565b915061469182856145fd565b915061469c82614657565b91506146a882846145fd565b91508190509392505050565b7f4e487b7100000000000000000000000000000000000000000000000000000000600052601160045260246000fd5b60006146ee82613360565b91506146f983613360565b9250817fffffffffffffffffffffffffffffffffffffffffffffffffffffffffffffffff0483118215151615614732576147316146b4565b5b828202905092915050565b600061474882613360565b915061475383613360565b9250827fffffffffffffffffffffffffffffffffffffffffffffffffffffffffffffffff03821115614788576147876146b4565b5b828201905092915050565b7f4e487b7100000000000000000000000000000000000000000000000000000000600052603260045260246000fd5b60006147cd82613360565b915060008214156147e1576147e06146b4565b5b600182039050919050565b7f537472696e67733a20686578206c656e67746820696e73756666696369656e74600082015250565b6000614822602083613c5e565b915061482d826147ec565b602082019050919050565b6000602082019050818103600083015261485181614815565b905091905056fea2646970667358221220fab8944da903cddc1207552c1af430f13cdf66157bc6df2b5aba8b1043eae26c64736f6c63430008090033",
  "devdoc": {
    "kind": "dev",
    "methods": {
      "activeReserve(address)": {
        "details": "Active a reserve for borrowing",
        "params": {
          "_asset": "The address of the reserve*"
        }
      },
      "createVault()": {
        "details": "Create an empty Vault for msg.sender, in addition to this, a vault also deploy a SecurityDepositEscrow contract which the fund will be held in",
        "returns": {
          "_0": "address of Vault*"
        }
      },
      "deposit(address,uint8,uint256,address)": {
        "details": "Deposits an `amount` of underlying asset into the reserve, receiving in return overlying tokens: Either Junior Deposit Token or Senior Deposit token",
        "params": {
          "_amount": "The amount to be deposited",
          "_asset": "The address of the underlying asset to deposit",
          "_onBehalfOf": "The address that will receive the deposit tokens, same as msg.sender if the user   wants to receive them on his own wallet, or a different address if the beneficiary of deposit token   is a different wallet*",
          "_tranche": "The tranche of the liquidity pool the user wants to deposit to"
        }
      },
      "depositSecurity(address,address,uint256)": {
        "details": "Deposit specific amount of security deposit to user owned Vault",
        "params": {
          "_amount": "deposit amount*",
          "_reserve": "address of reserve",
          "_vaultUser": "the user address that will be sponsored"
        }
      },
      "eligibleAmount(address,address,address)": {
        "details": "Eligible amount that can be withdraw, calculated by deposit records without considering slash",
        "params": {
          "_reserve": "reserve address",
          "_sponsor": "sponsor address*",
          "_vaultUser": "user address"
        }
      },
      "getAddressResolverAddress()": {
        "details": "Get addressResolver contract address",
        "returns": {
          "_0": "address of the resolver contract*"
        }
      },
      "getConfiguration(address)": {
        "details": "Returns the configuration of the reserve",
        "params": {
          "_asset": "The address of the underlying asset of the reserve"
        },
        "returns": {
          "_0": "The state of the reserve*"
        }
      },
      "getCreditLimit(address,address)": {
        "details": "Get maximum reserve amount the use can borrow",
        "params": {
          "_reserve": "reserve contract address*",
          "_user": "user address"
        }
      },
      "getExtCallACLProxyAddress()": {
        "details": "Get ExtCallACLProxy contract address*"
      },
      "getLiquidityManagerEscrowContractAddress()": {
        "details": "Get EscrowContract owned by LiquidityManager*"
      },
      "getLiquidityManagerProxyAddress()": {
        "details": "Get LiquidityManagerProxy contract address*"
      },
      "getMaxSecurityDeposit(address)": {
        "details": "Get max security deposit for _reserve",
        "params": {
          "_reserve": "reserve address"
        },
        "returns": {
          "_0": "max deposit amount"
        }
      },
      "getReserveData(address)": {
        "details": "Returns the state and configuration of the reserve",
        "params": {
          "_asset": "The address of the underlying asset of the reserve"
        },
        "returns": {
          "_0": "The state of the reserve*"
        }
      },
      "getReserveFlags(address)": {
        "details": "Returns the reserve flags",
        "params": {
          "_asset": "The address of asset"
        },
        "returns": {
          "_0": "The state flags representing active, frozen, borrowing enabled*"
        }
      },
      "getReserveNormalizedIncome(address,uint8)": {
        "details": "Returns the normalized income per unit of asset",
        "params": {
          "_asset": "The address of the underlying asset of the reserve",
          "_tranche": "The tranche of the reserve, either Junior or Senior"
        },
        "returns": {
          "_0": "The reserve's normalized income*"
        }
      },
      "getRoleAdmin(bytes32)": {
        "details": "Returns the admin role that controls `role`. See {grantRole} and {revokeRole}. To change a role's admin, use {_setRoleAdmin}."
      },
      "getSecurityDepositRequirement(address)": {
        "details": "Get current security deposit requirement",
        "params": {
          "_reserve": "reserve address"
        },
        "returns": {
          "_0": "requirement, expressed in Ray*"
        }
      },
      "getVaultManagerProxyAddress()": {
        "details": "Get VaultManagerProxy contract address",
        "returns": {
          "_0": "address of the VaultManager*"
        }
      },
      "grantRole(bytes32,address)": {
        "details": "Grants `role` to `account`. If `account` had not been already granted `role`, emits a {RoleGranted} event. Requirements: - the caller must have ``role``'s admin role."
      },
      "hasRole(bytes32,address)": {
        "details": "Returns `true` if `account` has been granted `role`."
      },
      "initReserve(address,address,address,uint256,uint256,address,address)": {
        "details": "Initializes a reserve, activating it, assigning two deposit tokens and an interest rate strategy Only callable by protocol operator",
        "params": {
          "_asset": "The address of the underlying asset of the reserve",
          "_interestRateStrategyAddress": "The address of the interest rate strategy contract*",
          "_juniorDepositTokenAddress": "The address of the junior deposit token that will be assigned to the reserve",
          "_juniorIncomeAllocation": "Junior income allocation, express in RAY",
          "_seniorDepositTokenAddress": "The address of the senior deposit token that will be assigned to the reserve",
          "_seniorIncomeAllocation": "Senior income allocation, express in RAY",
          "_stableDebtAddress": "The address of the StableDebtToken that will be assigned to the reserve"
        }
      },
      "liquidityRate(address,uint8)": {
        "details": "Get current liquidity rate for a specific reserve for it junior tranche or senior tranche",
        "params": {
          "_asset": "The address of the underlying asset of the reserve",
          "_tranche": "Either junior tranche or senior tranche*"
        }
      },
      "redeemSecurity(address,address,uint256)": {
        "details": "Redeem specific amount of security deposit to user owned Vault",
        "params": {
          "_amount": "deposit amount*",
          "_reserve": "address of reserve",
          "_vaultUser": "the user address that has be sponsored"
        }
      },
      "removeMaxSecurityDeposit(address)": {
        "details": "Remove max security deposit for _reserve",
        "params": {
          "_reserve": "reserve address"
        }
      },
      "removeSecurityDepositRequirement(address)": {
        "details": "Remove security deposit",
        "params": {
          "_reserve": "reserve address"
        }
      },
      "renounceRole(bytes32,address)": {
        "details": "Revokes `role` from the calling account. Roles are often managed via {grantRole} and {revokeRole}: this function's purpose is to provide a mechanism for accounts to lose their privileges if they are compromised (such as when a trusted device is misplaced). If the calling account had been revoked `role`, emits a {RoleRevoked} event. Requirements: - the caller must be `account`."
      },
      "revokeRole(bytes32,address)": {
        "details": "Revokes `role` from `account`. If `account` had been granted `role`, emits a {RoleRevoked} event. Requirements: - the caller must have ``role``'s admin role."
      },
      "setAddressResolverAddress(address)": {
        "details": "Update addressResolver contract address",
        "params": {
          "_addressResolver": "address of the resolver contract*"
        }
      },
      "setMaxSecurityDeposit(address,uint256)": {
        "details": "Set max security deposit for _reserve",
        "params": {
          "_amount": "max amount sponsor can deposit",
          "_reserve": "reserve address"
        }
      },
      "supportsInterface(bytes4)": {
        "details": "See {IERC165-supportsInterface}."
      },
      "underlyingBalance(address,address,address)": {
        "details": "Get underlying balance of security deposit token",
        "params": {
          "_reserve": "address of reserve",
          "_sponsor": "sponsor address*",
          "_vaultUser": "_vaultUser the user address that has be sponsored"
        }
      },
      "updateSecurityDepositRequirement(address,uint256)": {
        "details": "Update the security deposit requirement",
        "params": {
          "_requirement": "expressed in Ray",
          "_reserve": "reserve address"
        }
      }
    },
    "version": 1
  },
  "userdoc": {
    "kind": "user",
    "methods": {
      "initVault(address,address)": {
        "notice": "Init a deployed Vault, ensure it has overlying security deposit token and corresponding staking contract _vaultUser the user/owner of this vault _reserve the underlying asset address e.g. TUS*"
      }
    },
    "version": 1
  },
  "storageLayout": {
    "storage": [
      {
        "astId": 8482,
        "contract": "contracts/component/Voyager.sol:Voyager",
        "label": "_roles",
        "offset": 0,
        "slot": "0",
        "type": "t_mapping(t_bytes32,t_struct(RoleData)8477_storage)"
      },
      {
        "astId": 44,
        "contract": "contracts/component/Voyager.sol:Voyager",
        "label": "addressResolver",
        "offset": 0,
        "slot": "1",
        "type": "t_address"
      }
    ],
    "types": {
      "t_address": {
        "encoding": "inplace",
        "label": "address",
        "numberOfBytes": "20"
      },
      "t_bool": {
        "encoding": "inplace",
        "label": "bool",
        "numberOfBytes": "1"
      },
      "t_bytes32": {
        "encoding": "inplace",
        "label": "bytes32",
        "numberOfBytes": "32"
      },
      "t_mapping(t_address,t_bool)": {
        "encoding": "mapping",
        "key": "t_address",
        "label": "mapping(address => bool)",
        "numberOfBytes": "32",
        "value": "t_bool"
      },
      "t_mapping(t_bytes32,t_struct(RoleData)8477_storage)": {
        "encoding": "mapping",
        "key": "t_bytes32",
        "label": "mapping(bytes32 => struct AccessControl.RoleData)",
        "numberOfBytes": "32",
        "value": "t_struct(RoleData)8477_storage"
      },
      "t_struct(RoleData)8477_storage": {
        "encoding": "inplace",
        "label": "struct AccessControl.RoleData",
        "members": [
          {
            "astId": 8474,
            "contract": "contracts/component/Voyager.sol:Voyager",
            "label": "members",
            "offset": 0,
            "slot": "0",
            "type": "t_mapping(t_address,t_bool)"
          },
          {
            "astId": 8476,
            "contract": "contracts/component/Voyager.sol:Voyager",
            "label": "adminRole",
            "offset": 0,
            "slot": "1",
            "type": "t_bytes32"
          }
        ],
        "numberOfBytes": "64"
      }
    }
  }
}