{
  "address": "0x3c098410F4477C45e6E3ad968cb57bd813F596b9",
  "abi": [
    {
      "inputs": [],
      "name": "IllegalLoanParameters",
      "type": "error"
    },
    {
      "inputs": [],
      "name": "IllegalMarginParameters",
      "type": "error"
    },
    {
      "inputs": [],
      "name": "InvalidGracePeriod",
      "type": "error"
    },
    {
      "inputs": [],
      "name": "InvalidIncomeRatio",
      "type": "error"
    },
    {
      "inputs": [],
      "name": "InvalidLiquidationBonus",
      "type": "error"
    },
    {
      "inputs": [],
      "name": "InvalidLoanInterval",
      "type": "error"
    },
    {
      "inputs": [],
      "name": "InvalidLoanTerm",
      "type": "error"
    },
    {
      "anonymous": false,
      "inputs": [
        {
          "indexed": true,
          "internalType": "address",
          "name": "_collection",
          "type": "address"
        },
        {
          "indexed": false,
          "internalType": "uint256",
          "name": "_incomeRatio",
          "type": "uint256"
        }
      ],
      "name": "IncomeRatioUpdated",
      "type": "event"
    },
    {
      "anonymous": false,
      "inputs": [
        {
          "indexed": true,
          "internalType": "address",
          "name": "_collection",
          "type": "address"
        },
        {
          "indexed": false,
          "internalType": "uint256",
          "name": "_liquidationBonus",
          "type": "uint256"
        }
      ],
      "name": "LiquidationConfigurationUpdated",
      "type": "event"
    },
    {
      "anonymous": false,
      "inputs": [
        {
          "indexed": true,
          "internalType": "address",
          "name": "_collection",
          "type": "address"
        },
        {
          "indexed": false,
          "internalType": "uint256",
          "name": "_epoch",
          "type": "uint256"
        },
        {
          "indexed": false,
          "internalType": "uint256",
          "name": "_term",
          "type": "uint256"
        },
        {
          "indexed": false,
          "internalType": "uint256",
          "name": "_gracePeriod",
          "type": "uint256"
        }
      ],
      "name": "LoanParametersUpdated",
      "type": "event"
    },
    {
      "anonymous": false,
      "inputs": [
        {
          "indexed": true,
          "internalType": "address",
          "name": "_collection",
          "type": "address"
        },
        {
          "indexed": false,
          "internalType": "uint256",
          "name": "_min",
          "type": "uint256"
        },
        {
          "indexed": false,
          "internalType": "uint256",
          "name": "_max",
          "type": "uint256"
        },
        {
          "indexed": false,
          "internalType": "uint256",
          "name": "_marginRequirement",
          "type": "uint256"
        }
      ],
      "name": "MarginParametersUpdated",
      "type": "event"
    },
    {
      "inputs": [
        {
          "internalType": "address",
          "name": "_collection",
          "type": "address"
        },
        {
          "internalType": "uint256",
          "name": "_ratio",
          "type": "uint256"
        }
      ],
      "name": "setIncomeRatio",
      "outputs": [],
      "stateMutability": "nonpayable",
      "type": "function"
    },
    {
      "inputs": [
        {
          "internalType": "address",
          "name": "_collection",
          "type": "address"
        },
        {
          "internalType": "uint256",
          "name": "_liquidationBonus",
          "type": "uint256"
        }
      ],
      "name": "setLiquidationBonus",
      "outputs": [],
      "stateMutability": "nonpayable",
      "type": "function"
    },
    {
      "inputs": [
        {
          "internalType": "address",
          "name": "_collection",
          "type": "address"
        },
        {
          "internalType": "uint256",
          "name": "_epoch",
          "type": "uint256"
        },
        {
          "internalType": "uint256",
          "name": "_term",
          "type": "uint256"
        },
        {
          "internalType": "uint256",
          "name": "_gracePeriod",
          "type": "uint256"
        }
      ],
      "name": "setLoanParams",
      "outputs": [],
      "stateMutability": "nonpayable",
      "type": "function"
    }
  ],
  "transactionHash": "0x528ee8b6bbf7441902359e54852f794839f4463522f0031521c6eb5dfc883cf0",
  "args": [],
  "numDeployments": 1,
  "solcInputHash": "c9e2852726c34147f2de6a7208824664",
  "bytecode": "0x608060405234801561001057600080fd5b506001600055610991806100256000396000f3fe608060405234801561001057600080fd5b50600436106100415760003560e01c80634a35675e146100465780637cadffd91461005b578063df87d72e1461006e575b600080fd5b6100596100543660046108cf565b610081565b005b6100596100693660046108cf565b6101c3565b61005961007c3660046108f9565b6102f7565b610089610490565b6100da5760405162461bcd60e51b815260206004820152601660248201527f63616c6c206973206e6f7420617574686f72697365640000000000000000000060448201526064015b60405180910390fd5b604080516020808201835260009182905273ffffffffffffffffffffffffffffffffffffffff851682527fcefae263aa054db53617928bc915f31f052caa2df6a635924d36f37f8c9c519681528282208351918201909352915482525061014181836104e5565b73ffffffffffffffffffffffffffffffffffffffff831660008181527fcefae263aa054db53617928bc915f31f052caa2df6a635924d36f37f8c9c519660209081526040918290208451905590518481527fbe257e0f4d0c7ee5a19da899fe4ef73863386295c2fb98fe20281eb69021bd9391015b60405180910390a2505050565b6101cb610490565b6102175760405162461bcd60e51b815260206004820152601660248201527f63616c6c206973206e6f7420617574686f72697365640000000000000000000060448201526064016100d1565b604080516020808201835260009182905273ffffffffffffffffffffffffffffffffffffffff851682527fcefae263aa054db53617928bc915f31f052caa2df6a635924d36f37f8c9c519681528282208351918201909352915482525061027e8183610550565b73ffffffffffffffffffffffffffffffffffffffff831660008181527fcefae263aa054db53617928bc915f31f052caa2df6a635924d36f37f8c9c519660209081526040918290208451905590518481527fb84732f2071b65b08b32bf3c3183b61af04ab7f30871cdf04d37b13160da9c2991016101b6565b6102ff610490565b61034b5760405162461bcd60e51b815260206004820152601660248201527f63616c6c206973206e6f7420617574686f72697365640000000000000000000060448201526064016100d1565b81831115610385576040517fd3e53cad00000000000000000000000000000000000000000000000000000000815260040160405180910390fd5b604080516020808201835260009182905273ffffffffffffffffffffffffffffffffffffffff871682527fcefae263aa054db53617928bc915f31f052caa2df6a635924d36f37f8c9c51968152828220835191820190935291548252506103ec81856105b5565b6103f6818461061f565b610400818361068a565b73ffffffffffffffffffffffffffffffffffffffff851660008181527fcefae263aa054db53617928bc915f31f052caa2df6a635924d36f37f8c9c5196602090815260409182902084519055815187815290810186905280820185905290517f074acf6de5d0d7d8dc35ade57c12481ee2fa0d05f59a45da1b897c7adee4a6d39181900360600190a25050505050565b60006104e07fcefae263aa054db53617928bc915f31f052caa2df6a635924d36f37f8c9c51a7337fffffffff000000000000000000000000000000000000000000000000000000008435166106f4565b905090565b612710811115610521576040517fef01b74c00000000000000000000000000000000000000000000000000000000815260040160405180910390fd5b81517ffffffffffffffffffffffffffffffff0000fffffffffffffffffffffffffffff1660749190911b179052565b61ffff81111561058c576040517f54198c1c00000000000000000000000000000000000000000000000000000000815260040160405180910390fd5b81517fffffffffffffffffffffffffffffffffffffffffffffffffffffffffffff000016179052565b60ff8111156105f0576040517fa3f2d2ad00000000000000000000000000000000000000000000000000000000815260040160405180910390fd5b81517ffffffffffffffffffffffffffffff00fffffffffffffffffffffffffffffffff1660849190911b179052565b61ffff81111561065b576040517fcc1a62dd00000000000000000000000000000000000000000000000000000000815260040160405180910390fd5b81517ffffffffffffffffffffffffff0000fffffffffffffffffffffffffffffffffff16608c9190911b179052565b60ff8111156106c5576040517fd7c43e0f00000000000000000000000000000000000000000000000000000000815260040160405180910390fd5b81517ffffffffffffffffffffffff00fffffffffffffffffffffffffffffffffffffff16609c9190911b179052565b82546040517fb700961300000000000000000000000000000000000000000000000000000000815273ffffffffffffffffffffffffffffffffffffffff84811660048301523060248301527fffffffff0000000000000000000000000000000000000000000000000000000084166044830152600092169063b70096139060640160206040518083038186803b15801561078d57600080fd5b505afa1580156107a1573d6000803e3d6000fd5b505050506040513d601f19601f820116820180604052508101906107c59190610932565b8061089e575060018401546040517fb700961300000000000000000000000000000000000000000000000000000000815273ffffffffffffffffffffffffffffffffffffffff85811660048301523060248301527fffffffff00000000000000000000000000000000000000000000000000000000851660448301529091169063b70096139060640160206040518083038186803b15801561086657600080fd5b505afa15801561087a573d6000803e3d6000fd5b505050506040513d601f19601f8201168201806040525081019061089e9190610932565b949350505050565b803573ffffffffffffffffffffffffffffffffffffffff811681146108ca57600080fd5b919050565b600080604083850312156108e257600080fd5b6108eb836108a6565b946020939093013593505050565b6000806000806080858703121561090f57600080fd5b610918856108a6565b966020860135965060408601359560600135945092505050565b60006020828403121561094457600080fd5b8151801515811461095457600080fd5b939250505056fea26469706673582212209d456af173df8f6be046339faf1f5e1286094528dbb6d17b8c02440f5b1f193464736f6c63430008090033",
  "devdoc": {
    "kind": "dev",
    "methods": {
      "setLiquidationBonus(address,uint256)": {
        "details": "maximum size of _liquidationBonus is 2^16, ~600%",
        "params": {
          "_collection": "address of the underlying NFT collection",
          "_liquidationBonus": "liquidation bonus, percentage expressed as basis points"
        }
      }
    },
    "version": 1
  },
  "userdoc": {
    "kind": "user",
    "methods": {},
    "version": 1
  },
  "storageLayout": {
    "storage": [
      {
        "astId": 4525,
        "contract": "contracts/voyage/facets/ConfigurationFacet.sol:ConfigurationFacet",
        "label": "_status",
        "offset": 0,
        "slot": "0",
        "type": "t_uint256"
      }
    ],
    "types": {
      "t_uint256": {
        "encoding": "inplace",
        "label": "uint256",
        "numberOfBytes": "32"
      }
    }
  }
}