{
  "address": "0xD2A8C197296D6c7E7d5eB797c288371a73b990f8",
  "abi": [
    {
      "anonymous": false,
      "inputs": [
        {
          "indexed": false,
          "internalType": "uint8",
          "name": "version",
          "type": "uint8"
        }
      ],
      "name": "Initialized",
      "type": "event"
    },
    {
      "inputs": [
        {
          "internalType": "address",
          "name": "_owner",
          "type": "address"
        }
      ],
      "name": "initialize",
      "outputs": [],
      "stateMutability": "nonpayable",
      "type": "function"
    },
    {
      "inputs": [
        {
          "internalType": "address",
          "name": "_asset",
          "type": "address"
        },
        {
          "internalType": "address",
          "name": "_target",
          "type": "address"
        },
        {
          "internalType": "uint256",
          "name": "_amount",
          "type": "uint256"
        }
      ],
      "name": "transferUnderlyingTo",
      "outputs": [],
      "stateMutability": "nonpayable",
      "type": "function"
    }
  ],
  "transactionHash": "0xac61ba61ea19ccdbba22b7131541f532360aeb1c9dbcde1fc85fb179cc4f84e5",
  "args": [],
  "numDeployments": 1,
  "solcInputHash": "64736b687302d4e0a12a155efce9fbfe",
  "bytecode": "0x608060405234801561001057600080fd5b5060016000556107a7806100256000396000f3fe608060405234801561001057600080fd5b50600436106100365760003560e01c80639c60d0f61461003b578063c4d66de814610050575b600080fd5b61004e61004936600461065b565b610063565b005b61004e61005e366004610697565b6100fb565b60015462010000900473ffffffffffffffffffffffffffffffffffffffff1633146100d55760405162461bcd60e51b815260206004820152600960248201527f4e6f74206f776e6572000000000000000000000000000000000000000000000060448201526064015b60405180910390fd5b6100f673ffffffffffffffffffffffffffffffffffffffff841683836101ad565b505050565b6000610107600161023a565b9050801561011f576001805461ff0019166101001790555b600180547fffffffffffffffffffff0000000000000000000000000000000000000000ffff166201000073ffffffffffffffffffffffffffffffffffffffff85160217905580156101a9576001805461ff00191681556040519081527f7f26b83ff96e1f2b6a682f133852f6798a09c465da95921460cefb38474024989060200160405180910390a15b5050565b6040805173ffffffffffffffffffffffffffffffffffffffff8416602482015260448082018490528251808303909101815260649091019091526020810180517bffffffffffffffffffffffffffffffffffffffffffffffffffffffff167fa9059cbb000000000000000000000000000000000000000000000000000000001790526100f6908490610391565b600154600090610100900460ff16156102d9578160ff16600114801561025f5750303b155b6102d15760405162461bcd60e51b815260206004820152602e60248201527f496e697469616c697a61626c653a20636f6e747261637420697320616c72656160448201527f647920696e697469616c697a656400000000000000000000000000000000000060648201526084016100cc565b506000919050565b60015460ff8084169116106103565760405162461bcd60e51b815260206004820152602e60248201527f496e697469616c697a61626c653a20636f6e747261637420697320616c72656160448201527f647920696e697469616c697a656400000000000000000000000000000000000060648201526084016100cc565b50600180547fffffffffffffffffffffffffffffffffffffffffffffffffffffffffffffff001660ff9290921691909117815590565b919050565b60006103f3826040518060400160405280602081526020017f5361666545524332303a206c6f772d6c6576656c2063616c6c206661696c65648152508573ffffffffffffffffffffffffffffffffffffffff166104839092919063ffffffff16565b8051909150156100f6578080602001905181019061041191906106b2565b6100f65760405162461bcd60e51b815260206004820152602a60248201527f5361666545524332303a204552433230206f7065726174696f6e20646964206e60448201527f6f7420737563636565640000000000000000000000000000000000000000000060648201526084016100cc565b6060610492848460008561049c565b90505b9392505050565b6060824710156105145760405162461bcd60e51b815260206004820152602660248201527f416464726573733a20696e73756666696369656e742062616c616e636520666f60448201527f722063616c6c000000000000000000000000000000000000000000000000000060648201526084016100cc565b73ffffffffffffffffffffffffffffffffffffffff85163b6105785760405162461bcd60e51b815260206004820152601d60248201527f416464726573733a2063616c6c20746f206e6f6e2d636f6e747261637400000060448201526064016100cc565b6000808673ffffffffffffffffffffffffffffffffffffffff1685876040516105a19190610704565b60006040518083038185875af1925050503d80600081146105de576040519150601f19603f3d011682016040523d82523d6000602084013e6105e3565b606091505b50915091506105f38282866105fe565b979650505050505050565b6060831561060d575081610495565b82511561061d5782518084602001fd5b8160405162461bcd60e51b81526004016100cc9190610720565b803573ffffffffffffffffffffffffffffffffffffffff8116811461038c57600080fd5b60008060006060848603121561067057600080fd5b61067984610637565b925061068760208501610637565b9150604084013590509250925092565b6000602082840312156106a957600080fd5b61049582610637565b6000602082840312156106c457600080fd5b8151801515811461049557600080fd5b60005b838110156106ef5781810151838201526020016106d7565b838111156106fe576000848401525b50505050565b600082516107168184602087016106d4565b9190910192915050565b602081526000825180602084015261073f8160408501602087016106d4565b601f017fffffffffffffffffffffffffffffffffffffffffffffffffffffffffffffffe016919091016040019291505056fea26469706673582212200ce29b3b90492641e531bd79c5b1cd4d37a121af36c8b4f31baaf292f1019aac64736f6c63430008090033",
  "devdoc": {
    "kind": "dev",
    "methods": {},
    "version": 1
  },
  "userdoc": {
    "kind": "user",
    "methods": {},
    "version": 1
  },
  "storageLayout": {
    "storage": [
      {
        "astId": 3044,
        "contract": "contracts/vault/escrow/CreditEscrow.sol:CreditEscrow",
        "label": "_status",
        "offset": 0,
        "slot": "0",
        "type": "t_uint256"
      },
      {
        "astId": 6,
        "contract": "contracts/vault/escrow/CreditEscrow.sol:CreditEscrow",
        "label": "_initialized",
        "offset": 0,
        "slot": "1",
        "type": "t_uint8"
      },
      {
        "astId": 9,
        "contract": "contracts/vault/escrow/CreditEscrow.sol:CreditEscrow",
        "label": "_initializing",
        "offset": 1,
        "slot": "1",
        "type": "t_bool"
      },
      {
        "astId": 10849,
        "contract": "contracts/vault/escrow/CreditEscrow.sol:CreditEscrow",
        "label": "owner",
        "offset": 2,
        "slot": "1",
        "type": "t_address"
      }
    ],
    "types": {
      "t_address": {
        "encoding": "inplace",
        "label": "address",
        "numberOfBytes": "20"
      },
      "t_bool": {
        "encoding": "inplace",
        "label": "bool",
        "numberOfBytes": "1"
      },
      "t_uint256": {
        "encoding": "inplace",
        "label": "uint256",
        "numberOfBytes": "32"
      },
      "t_uint8": {
        "encoding": "inplace",
        "label": "uint8",
        "numberOfBytes": "1"
      }
    }
  }
}