{
  "address": "0x5857103E504E5f1734B05A9C9979ca2b006e1421",
  "abi": [
    {
      "inputs": [
        {
          "internalType": "uint256",
          "name": "_optimalUtilizationRate",
          "type": "uint256"
        },
        {
          "internalType": "uint256",
          "name": "_stableRateSlope",
          "type": "uint256"
        },
        {
          "internalType": "uint256",
          "name": "_baseBorrowRate",
          "type": "uint256"
        }
      ],
      "stateMutability": "nonpayable",
      "type": "constructor"
    },
    {
      "inputs": [],
      "name": "OPTIMAL_UTILIZATION_RATE",
      "outputs": [
        {
          "internalType": "uint256",
          "name": "",
          "type": "uint256"
        }
      ],
      "stateMutability": "view",
      "type": "function"
    },
    {
      "inputs": [
        {
          "internalType": "address",
          "name": "reserve",
          "type": "address"
        },
        {
          "internalType": "address",
          "name": "seniorDepositTokenAddress",
          "type": "address"
        },
        {
          "internalType": "uint256",
          "name": "liquidityAdded",
          "type": "uint256"
        },
        {
          "internalType": "uint256",
          "name": "liquidityTaken",
          "type": "uint256"
        },
        {
          "internalType": "uint256",
          "name": "totalStableDebt",
          "type": "uint256"
        }
      ],
      "name": "calculateBorrowRate",
      "outputs": [
        {
          "internalType": "uint256",
          "name": "",
          "type": "uint256"
        }
      ],
      "stateMutability": "view",
      "type": "function"
    }
  ],
  "transactionHash": "0x7e244ad53b4102bd51ed66939f07570fa4892b405fa93fde7acb5ce3f5dfc319",
  "args": [
    "800000000000000000000000000",
    "40000000000000000000000000",
    "180000000000000000000000000"
  ],
  "numDeployments": 1,
  "solcInputHash": "12dd858cd3471725424835f3a0db1659",
  "bytecode": "0x60e060405234801561001057600080fd5b506040516106aa3803806106aa83398101604081905261002f91610043565b60809290925260a09190915260c052610071565b60008060006060848603121561005857600080fd5b8351925060208401519150604084015190509250925092565b60805160a05160c0516105f76100b3600039600061037e0152600060b901526000818160650152818161027a015281816102a4015261034e01526105f76000f3fe608060405234801561001057600080fd5b50600436106100365760003560e01c80635ccc6ab21461003b578063a15f30ac14610060575b600080fd5b61004e610049366004610485565b610087565b60405190815260200160405180910390f35b61004e7f000000000000000000000000000000000000000000000000000000000000000081565b60006100b46040518060800160405280600081526020016000815260200160008152602001600081525090565b8281527f0000000000000000000000000000000000000000000000000000000000000000602080830191909152604080517f350fd0be000000000000000000000000000000000000000000000000000000008152905160009273ffffffffffffffffffffffffffffffffffffffff8a169263350fd0be9260048083019392829003018186803b15801561014657600080fd5b505afa15801561015a573d6000803e3d6000fd5b505050506040513d601f19601f8201168201806040525081019061017e91906104d2565b6040517f70a0823100000000000000000000000000000000000000000000000000000000815273ffffffffffffffffffffffffffffffffffffffff89811660048301529192506000918391908b16906370a082319060240160206040518083038186803b1580156101ee57600080fd5b505afa158015610202573d6000803e3d6000fd5b505050506040513d601f19601f8201168201806040525081019061022691906104d2565b610230919061051a565b90508561023d8883610531565b610247919061051a565b83519091501561026e578251610269906102619083610531565b8451906103ce565b610271565b60005b606084018190527f000000000000000000000000000000000000000000000000000000000000000010156103be576103a97f0000000000000000000000000000000000000000000000000000000000000000730846101B7Bd14dF6a9CB6C90004607Cee1fA352263df29d0716040518163ffffffff1660e01b815260040160206040518083038186803b15801561030757600080fd5b505af415801561031b573d6000803e3d6000fd5b505050506040513d601f19601f8201168201806040525081019061033f91906104d2565b610349919061051a565b6103a37f0000000000000000000000000000000000000000000000000000000000000000866060015161037c919061051a565b7f000000000000000000000000000000000000000000000000000000000000000090610411565b906103ce565b83602001516103b89190610531565b60208401525b5050602001519695505050505050565b6000806103dc600284610549565b9050826103f56b033b2e3c9fd0803ce800000086610584565b6103ff9083610531565b6104099190610549565b949350505050565b60006b033b2e3c9fd0803ce800000061042a8385610584565b61044160026b033b2e3c9fd0803ce8000000610549565b61044b9190610531565b6104559190610549565b9392505050565b803573ffffffffffffffffffffffffffffffffffffffff8116811461048057600080fd5b919050565b600080600080600060a0868803121561049d57600080fd5b6104a68661045c565b94506104b46020870161045c565b94979496505050506040830135926060810135926080909101359150565b6000602082840312156104e457600080fd5b5051919050565b7f4e487b7100000000000000000000000000000000000000000000000000000000600052601160045260246000fd5b60008282101561052c5761052c6104eb565b500390565b60008219821115610544576105446104eb565b500190565b60008261057f577f4e487b7100000000000000000000000000000000000000000000000000000000600052601260045260246000fd5b500490565b6000817fffffffffffffffffffffffffffffffffffffffffffffffffffffffffffffffff04831182151516156105bc576105bc6104eb565b50029056fea2646970667358221220577a56082198bea470197b20eeed2b51685254d60bc430db4b9f2b38476dad6c64736f6c63430008090033",
  "deployedBytecode": "0x608060405234801561001057600080fd5b50600436106100365760003560e01c80635ccc6ab21461003b578063a15f30ac14610060575b600080fd5b61004e610049366004610485565b610087565b60405190815260200160405180910390f35b61004e7f000000000000000000000000000000000000000000000000000000000000000081565b60006100b46040518060800160405280600081526020016000815260200160008152602001600081525090565b8281527f0000000000000000000000000000000000000000000000000000000000000000602080830191909152604080517f350fd0be000000000000000000000000000000000000000000000000000000008152905160009273ffffffffffffffffffffffffffffffffffffffff8a169263350fd0be9260048083019392829003018186803b15801561014657600080fd5b505afa15801561015a573d6000803e3d6000fd5b505050506040513d601f19601f8201168201806040525081019061017e91906104d2565b6040517f70a0823100000000000000000000000000000000000000000000000000000000815273ffffffffffffffffffffffffffffffffffffffff89811660048301529192506000918391908b16906370a082319060240160206040518083038186803b1580156101ee57600080fd5b505afa158015610202573d6000803e3d6000fd5b505050506040513d601f19601f8201168201806040525081019061022691906104d2565b610230919061051a565b90508561023d8883610531565b610247919061051a565b83519091501561026e578251610269906102619083610531565b8451906103ce565b610271565b60005b606084018190527f000000000000000000000000000000000000000000000000000000000000000010156103be576103a97f000000000000000000000000000000000000000000000000000000000000000073__$ef5c87afe2100660bcb9f7ea72d7fd8918$__63df29d0716040518163ffffffff1660e01b815260040160206040518083038186803b15801561030757600080fd5b505af415801561031b573d6000803e3d6000fd5b505050506040513d601f19601f8201168201806040525081019061033f91906104d2565b610349919061051a565b6103a37f0000000000000000000000000000000000000000000000000000000000000000866060015161037c919061051a565b7f000000000000000000000000000000000000000000000000000000000000000090610411565b906103ce565b83602001516103b89190610531565b60208401525b5050602001519695505050505050565b6000806103dc600284610549565b9050826103f56b033b2e3c9fd0803ce800000086610584565b6103ff9083610531565b6104099190610549565b949350505050565b60006b033b2e3c9fd0803ce800000061042a8385610584565b61044160026b033b2e3c9fd0803ce8000000610549565b61044b9190610531565b6104559190610549565b9392505050565b803573ffffffffffffffffffffffffffffffffffffffff8116811461048057600080fd5b919050565b600080600080600060a0868803121561049d57600080fd5b6104a68661045c565b94506104b46020870161045c565b94979496505050506040830135926060810135926080909101359150565b6000602082840312156104e457600080fd5b5051919050565b7f4e487b7100000000000000000000000000000000000000000000000000000000600052601160045260246000fd5b60008282101561052c5761052c6104eb565b500390565b60008219821115610544576105446104eb565b500190565b60008261057f577f4e487b7100000000000000000000000000000000000000000000000000000000600052601260045260246000fd5b500490565b6000817fffffffffffffffffffffffffffffffffffffffffffffffffffffffffffffffff04831182151516156105bc576105bc6104eb565b50029056fea2646970667358221220577a56082198bea470197b20eeed2b51685254d60bc430db4b9f2b38476dad6c64736f6c63430008090033",
  "libraries": {
    "WadRayMath": "0x0846101B7Bd14dF6a9CB6C90004607Cee1fA3522"
  },
  "devdoc": {
    "kind": "dev",
    "methods": {},
    "version": 1
  },
  "userdoc": {
    "kind": "user",
    "methods": {
      "OPTIMAL_UTILIZATION_RATE()": {
        "notice": "this constant represents the utilization rate at which the pool aims to obtain most competitive borrow rates Expressed in RAY*"
      }
    },
    "version": 1
  },
  "storageLayout": {
    "storage": [],
    "types": null
  }
}