{
  "address": "0x0a44c43E6A884F1c0d3B223E23Ad1cb7E3D14930",
  "abi": [
    {
      "inputs": [
        {
          "internalType": "uint256",
          "name": "_optimalUtilizationRate",
          "type": "uint256"
        },
        {
          "internalType": "uint256",
          "name": "_stableRateSlope1",
          "type": "uint256"
        },
        {
          "internalType": "uint256",
          "name": "_stableRateSlope2",
          "type": "uint256"
        },
        {
          "internalType": "uint256",
          "name": "_baseBorrowRate",
          "type": "uint256"
        }
      ],
      "stateMutability": "nonpayable",
      "type": "constructor"
    },
    {
      "inputs": [],
      "name": "OPTIMAL_UTILIZATION_RATE",
      "outputs": [
        {
          "internalType": "uint256",
          "name": "",
          "type": "uint256"
        }
      ],
      "stateMutability": "view",
      "type": "function"
    },
    {
      "inputs": [
        {
          "internalType": "address",
          "name": "reserve",
          "type": "address"
        },
        {
          "internalType": "uint256",
          "name": "availableLiquidity",
          "type": "uint256"
        },
        {
          "internalType": "uint256",
          "name": "totalStableDebt",
          "type": "uint256"
        },
        {
          "internalType": "uint256",
          "name": "averageBorrowRate",
          "type": "uint256"
        }
      ],
      "name": "calculateInterestRates",
      "outputs": [
        {
          "internalType": "uint256",
          "name": "",
          "type": "uint256"
        },
        {
          "internalType": "uint256",
          "name": "",
          "type": "uint256"
        }
      ],
      "stateMutability": "view",
      "type": "function"
    },
    {
      "inputs": [
        {
          "internalType": "address",
          "name": "reserve",
          "type": "address"
        },
        {
          "internalType": "address",
          "name": "seniorDepositTokenAddress",
          "type": "address"
        },
        {
          "internalType": "uint256",
          "name": "liquidityAdded",
          "type": "uint256"
        },
        {
          "internalType": "uint256",
          "name": "liquidityTaken",
          "type": "uint256"
        },
        {
          "internalType": "uint256",
          "name": "totalStableDebt",
          "type": "uint256"
        },
        {
          "internalType": "uint256",
          "name": "averageBorrowRate",
          "type": "uint256"
        }
      ],
      "name": "calculateInterestRates",
      "outputs": [
        {
          "internalType": "uint256",
          "name": "",
          "type": "uint256"
        },
        {
          "internalType": "uint256",
          "name": "",
          "type": "uint256"
        }
      ],
      "stateMutability": "view",
      "type": "function"
    }
  ],
  "transactionHash": "0x2d170674470fae42ca869211a9a4f9b4e87f1dff6410706cc77f3c29004e620f",
  "args": [
    "800000000000000000000000000",
    "40000000000000000000000000",
    "1000000000000000000000000000",
    "180000000000000000000000000"
  ],
  "numDeployments": 1,
  "solcInputHash": "27c64b6a42a340338e0c33daf46094a1",
  "bytecode": "0x61010060405234801561001157600080fd5b5060405161080138038061080183398101604081905261003091610047565b60809390935260a09290925260c05260e05261007d565b6000806000806080858703121561005d57600080fd5b505082516020840151604085015160609095015191969095509092509050565b60805160a05160c05160e05161072a6100d7600039600061024c01526000818161027901526102e90152600060ee015260008181608b01528181610148015281816101720152818161021c01526102c0015261072a6000f3fe608060405234801561001057600080fd5b50600436106100415760003560e01c80636ee082ca1461004657806381c8c97214610073578063a15f30ac14610086575b600080fd5b610059610054366004610577565b6100bb565b604080519283526020830191909152015b60405180910390f35b6100596100813660046105b0565b610355565b6100ad7f000000000000000000000000000000000000000000000000000000000000000081565b60405190815260200161006a565b6000806100e96040518060800160405280600081526020016000815260200160008152602001600081525090565b8481527f0000000000000000000000000000000000000000000000000000000000000000602082015260006040820152841561013c5780516101379061012f9088610634565b8251906104c0565b61013f565b60005b606082018190527f000000000000000000000000000000000000000000000000000000000000000010156102bb576102777f000000000000000000000000000000000000000000000000000000000000000073b6E6b1f0fDe64d3F9eBC933B27E7E4Ca1cDf5f3A63df29d0716040518163ffffffff1660e01b815260040160206040518083038186803b1580156101d557600080fd5b505af41580156101e9573d6000803e3d6000fd5b505050506040513d601f19601f8201168201806040525081019061020d919061064c565b6102179190610665565b6102717f0000000000000000000000000000000000000000000000000000000000000000846060015161024a9190610665565b7f000000000000000000000000000000000000000000000000000000000000000090610503565b906104c0565b7f000000000000000000000000000000000000000000000000000000000000000082602001516102a79190610634565b6102b19190610634565b602082015261032b565b6103167f000000000000000000000000000000000000000000000000000000000000000061027183606001517f000000000000000000000000000000000000000000000000000000000000000061050390919063ffffffff16565b81602001516103259190610634565b60208201525b606081015161033b908590610503565b604082018190526020909101519097909650945050505050565b60008060008773ffffffffffffffffffffffffffffffffffffffff1663350fd0be6040518163ffffffff1660e01b815260040160206040518083038186803b1580156103a057600080fd5b505afa1580156103b4573d6000803e3d6000fd5b505050506040513d601f19601f820116820180604052508101906103d8919061064c565b6040517f70a0823100000000000000000000000000000000000000000000000000000000815273ffffffffffffffffffffffffffffffffffffffff8a811660048301529192506000918391908c16906370a082319060240160206040518083038186803b15801561044857600080fd5b505afa15801561045c573d6000803e3d6000fd5b505050506040513d601f19601f82011682018060405250810190610480919061064c565b61048a9190610665565b9050866104978983610634565b6104a19190610665565b90506104af8a8288886100bb565b935093505050965096945050505050565b6000806104ce60028461067c565b9050826104e76b033b2e3c9fd0803ce8000000866106b7565b6104f19083610634565b6104fb919061067c565b949350505050565b60006b033b2e3c9fd0803ce800000061051c83856106b7565b61053360026b033b2e3c9fd0803ce800000061067c565b61053d9190610634565b610547919061067c565b9392505050565b803573ffffffffffffffffffffffffffffffffffffffff8116811461057257600080fd5b919050565b6000806000806080858703121561058d57600080fd5b6105968561054e565b966020860135965060408601359560600135945092505050565b60008060008060008060c087890312156105c957600080fd5b6105d28761054e565b95506105e06020880161054e565b95989597505050506040840135936060810135936080820135935060a0909101359150565b7f4e487b7100000000000000000000000000000000000000000000000000000000600052601160045260246000fd5b6000821982111561064757610647610605565b500190565b60006020828403121561065e57600080fd5b5051919050565b60008282101561067757610677610605565b500390565b6000826106b2577f4e487b7100000000000000000000000000000000000000000000000000000000600052601260045260246000fd5b500490565b6000817fffffffffffffffffffffffffffffffffffffffffffffffffffffffffffffffff04831182151516156106ef576106ef610605565b50029056fea26469706673582212208093ab1084ed2f3595688e95cc59422edd83c5570c44e36d22795ee4174f1d6564736f6c63430008090033",
  "deployedBytecode": "0x608060405234801561001057600080fd5b50600436106100415760003560e01c80636ee082ca1461004657806381c8c97214610073578063a15f30ac14610086575b600080fd5b610059610054366004610577565b6100bb565b604080519283526020830191909152015b60405180910390f35b6100596100813660046105b0565b610355565b6100ad7f000000000000000000000000000000000000000000000000000000000000000081565b60405190815260200161006a565b6000806100e96040518060800160405280600081526020016000815260200160008152602001600081525090565b8481527f0000000000000000000000000000000000000000000000000000000000000000602082015260006040820152841561013c5780516101379061012f9088610634565b8251906104c0565b61013f565b60005b606082018190527f000000000000000000000000000000000000000000000000000000000000000010156102bb576102777f000000000000000000000000000000000000000000000000000000000000000073__$ef5c87afe2100660bcb9f7ea72d7fd8918$__63df29d0716040518163ffffffff1660e01b815260040160206040518083038186803b1580156101d557600080fd5b505af41580156101e9573d6000803e3d6000fd5b505050506040513d601f19601f8201168201806040525081019061020d919061064c565b6102179190610665565b6102717f0000000000000000000000000000000000000000000000000000000000000000846060015161024a9190610665565b7f000000000000000000000000000000000000000000000000000000000000000090610503565b906104c0565b7f000000000000000000000000000000000000000000000000000000000000000082602001516102a79190610634565b6102b19190610634565b602082015261032b565b6103167f000000000000000000000000000000000000000000000000000000000000000061027183606001517f000000000000000000000000000000000000000000000000000000000000000061050390919063ffffffff16565b81602001516103259190610634565b60208201525b606081015161033b908590610503565b604082018190526020909101519097909650945050505050565b60008060008773ffffffffffffffffffffffffffffffffffffffff1663350fd0be6040518163ffffffff1660e01b815260040160206040518083038186803b1580156103a057600080fd5b505afa1580156103b4573d6000803e3d6000fd5b505050506040513d601f19601f820116820180604052508101906103d8919061064c565b6040517f70a0823100000000000000000000000000000000000000000000000000000000815273ffffffffffffffffffffffffffffffffffffffff8a811660048301529192506000918391908c16906370a082319060240160206040518083038186803b15801561044857600080fd5b505afa15801561045c573d6000803e3d6000fd5b505050506040513d601f19601f82011682018060405250810190610480919061064c565b61048a9190610665565b9050866104978983610634565b6104a19190610665565b90506104af8a8288886100bb565b935093505050965096945050505050565b6000806104ce60028461067c565b9050826104e76b033b2e3c9fd0803ce8000000866106b7565b6104f19083610634565b6104fb919061067c565b949350505050565b60006b033b2e3c9fd0803ce800000061051c83856106b7565b61053360026b033b2e3c9fd0803ce800000061067c565b61053d9190610634565b610547919061067c565b9392505050565b803573ffffffffffffffffffffffffffffffffffffffff8116811461057257600080fd5b919050565b6000806000806080858703121561058d57600080fd5b6105968561054e565b966020860135965060408601359560600135945092505050565b60008060008060008060c087890312156105c957600080fd5b6105d28761054e565b95506105e06020880161054e565b95989597505050506040840135936060810135936080820135935060a0909101359150565b7f4e487b7100000000000000000000000000000000000000000000000000000000600052601160045260246000fd5b6000821982111561064757610647610605565b500190565b60006020828403121561065e57600080fd5b5051919050565b60008282101561067757610677610605565b500390565b6000826106b2577f4e487b7100000000000000000000000000000000000000000000000000000000600052601260045260246000fd5b500490565b6000817fffffffffffffffffffffffffffffffffffffffffffffffffffffffffffffffff04831182151516156106ef576106ef610605565b50029056fea26469706673582212208093ab1084ed2f3595688e95cc59422edd83c5570c44e36d22795ee4174f1d6564736f6c63430008090033",
  "libraries": {
    "WadRayMath": "0xb6E6b1f0fDe64d3F9eBC933B27E7E4Ca1cDf5f3A"
  },
  "devdoc": {
    "kind": "dev",
    "methods": {
      "calculateInterestRates(address,address,uint256,uint256,uint256,uint256)": {
        "details": "Calculates the interest rates depending on the reserve's state and configuration",
        "params": {
          "averageBorrowRate": "The current average borrow rate*",
          "liquidityAdded": "The liquidity added during the operation",
          "liquidityTaken": "The liquidity taken during the operation",
          "reserve": "The address of the reserve",
          "seniorDepositTokenAddress": "The address of senior deposit token",
          "totalStableDebt": "The total borrowed from the reserve a stable rate"
        }
      },
      "calculateInterestRates(address,uint256,uint256,uint256)": {
        "details": "Calculates the interest rates depending on the reserve's state and configurations.",
        "params": {
          "availableLiquidity": "The liquidity available in the corresponding aToken",
          "averageBorrowRate": "The current average borrow rate",
          "reserve": "The address of the reserve",
          "totalStableDebt": "The total borrowed from the reserve a stable rate"
        },
        "returns": {
          "_0": "The liquidity rate, the stable borrow rate*"
        }
      }
    },
    "version": 1
  },
  "userdoc": {
    "kind": "user",
    "methods": {
      "OPTIMAL_UTILIZATION_RATE()": {
        "notice": "this constant represents the utilization rate at which the pool aims to obtain most competitive borrow rates Expressed in RAY*"
      }
    },
    "version": 1
  },
  "storageLayout": {
    "storage": [],
    "types": null
  }
}