{
  "address": "0x0AfB83C68bC0060dd4eA0162a055D4A482C40E56",
  "abi": [
    {
      "inputs": [],
      "name": "currentVersion",
      "outputs": [
        {
          "internalType": "uint256",
          "name": "",
          "type": "uint256"
        },
        {
          "internalType": "bytes32",
          "name": "",
          "type": "bytes32"
        }
      ],
      "stateMutability": "view",
      "type": "function"
    },
    {
      "inputs": [
        {
          "internalType": "address",
          "name": "_vault",
          "type": "address"
        }
      ],
      "name": "getUpgrade",
      "outputs": [
        {
          "components": [
            {
              "internalType": "address",
              "name": "facetAddress",
              "type": "address"
            },
            {
              "internalType": "enum IDiamondCut.FacetCutAction",
              "name": "action",
              "type": "uint8"
            },
            {
              "internalType": "bytes4[]",
              "name": "functionSelectors",
              "type": "bytes4[]"
            }
          ],
          "internalType": "struct IDiamondCut.FacetCut[]",
          "name": "",
          "type": "tuple[]"
        }
      ],
      "stateMutability": "nonpayable",
      "type": "function"
    },
    {
      "inputs": [
        {
          "internalType": "uint256",
          "name": "_version",
          "type": "uint256"
        }
      ],
      "name": "isUpToDate",
      "outputs": [
        {
          "internalType": "bool",
          "name": "",
          "type": "bool"
        }
      ],
      "stateMutability": "view",
      "type": "function"
    },
    {
      "inputs": [
        {
          "internalType": "address",
          "name": "init",
          "type": "address"
        },
        {
          "internalType": "bytes",
          "name": "initArgs",
          "type": "bytes"
        },
        {
          "components": [
            {
              "internalType": "address",
              "name": "facetAddress",
              "type": "address"
            },
            {
              "internalType": "bytes4[]",
              "name": "functionSelectors",
              "type": "bytes4[]"
            }
          ],
          "internalType": "struct IDiamondLoupe.Facet[]",
          "name": "facets",
          "type": "tuple[]"
        }
      ],
      "name": "registerUpgrade",
      "outputs": [],
      "stateMutability": "nonpayable",
      "type": "function"
    }
  ],
  "transactionHash": "0xe02d118db4b725e8b6ae7d9e22e57f0fe5a646a4324478c5219833e61d3e88d6",
  "args": [],
  "numDeployments": 1,
  "solcInputHash": "c9e2852726c34147f2de6a7208824664",
  "bytecode": "0x608060405234801561001057600080fd5b506122d5806100206000396000f3fe608060405234801561001057600080fd5b506004361061004c5760003560e01c8063092dfb1614610051578063686350d01461007a57806399eefbc3146100be5780639d888e86146100d3575b600080fd5b61006461005f366004611bdb565b6100f0565b6040516100719190611c15565b60405180910390f35b6100ae610088366004611d0f565b7fcefae263aa054db53617928bc915f31f052caa2df6a635924d36f37f8c9c51a5541490565b6040519015158152602001610071565b6100d16100cc366004611f13565b611147565b005b6100db61134d565b60408051928352602083019190915201610071565b3360009081527fcefae263aa054db53617928bc915f31f052caa2df6a635924d36f37f8c9c51b1602090815260408083207fcefae263aa054db53617928bc915f31f052caa2df6a635924d36f37f8c9c51a55484527fcefae263aa054db53617928bc915f31f052caa2df6a635924d36f37f8c9c51a68352818420825181546080958102820186019094526060808201858152909693959394919384928491879085015b828210156102565760008481526020908190206040805180820182526002860290920180546001600160a01b0316835260018101805483518187028101870190945280845293949193858301939283018282801561023e57602002820191906000526020600020906000905b82829054906101000a900460e01b6001600160e01b031916815260200190600401906020826003010492830192600103820291508084116102005790505b50505050508152505081526020019060010190610194565b5050509082525060018201546001600160a01b0316602082015260028201805460409092019161028590611fdc565b80601f01602080910402602001604051908101604052809291908181526020018280546102b190611fdc565b80156102fe5780601f106102d3576101008083540402835291602001916102fe565b820191906000526020600020905b8154815290600101906020018083116102e157829003601f168201915b505050505081525050905060008490506000816001600160a01b0316637a0ed6276040518163ffffffff1660e01b815260040160006040518083038186803b15801561034957600080fd5b505afa15801561035d573d6000803e3d6000fd5b505050506040513d6000823e601f3d908101601f191682016040526103859190810190612017565b3360009081527fcefae263aa054db53617928bc915f31f052caa2df6a635924d36f37f8c9c51ad602090815260408083207fcefae263aa054db53617928bc915f31f052caa2df6a635924d36f37f8c9c51ae83528184207fcefae263aa054db53617928bc915f31f052caa2df6a635924d36f37f8c9c51af84528285207fcefae263aa054db53617928bc915f31f052caa2df6a635924d36f37f8c9c51b09094529184209495509390925b855181101561052057600086828151811061044d5761044d612172565b6020026020010151905060005b8160200151518110156105165760008260200151828151811061047f5761047f612172565b60209081029190910181015186546001808201895560008981528481206008840401805463ffffffff60079095166004026101000a948502191660e086901c949094029390931790925586516001600160e01b03199093168252928b905260409020805473ffffffffffffffffffffffffffffffffffffffff19166001600160a01b0390921691909117905591909101905061045a565b5050600101610430565b5060005b875151811015610bc25760008860000151828151811061054657610546612172565b6020026020010151905060005b8160200151518110156106ba5760008260200151828151811061057857610578612172565b6020908102919091018101516001600160e01b0319811660009081528883526040808220805460ff19166001179055928b905291909120549091506001600160a01b031680156106445783516001600160a01b0382811691161461063f5760008581527fcefae263aa054db53617928bc915f31f052caa2df6a635924d36f37f8c9c51b4602090815260408220805460018101825590835291206008820401805463ffffffff60079093166004026101000a928302191660e085901c929092029190911790555b6106b0565b7fcefae263aa054db53617928bc915f31f052caa2df6a635924d36f37f8c9c51936000868152602091820182526040812080546001810182559082529190206008820401805463ffffffff60079093166004026101000a928302191660e085901c929092029190911790555b5050600101610553565b5060008281527fcefae263aa054db53617928bc915f31f052caa2df6a635924d36f37f8c9c51b360205260409020541561093a576040805160608082018352600080835260208301529181019190915260008381527fcefae263aa054db53617928bc915f31f052caa2df6a635924d36f37f8c9c51b36020908152604091829020805483518184028101840190945280845290918301828280156107aa57602002820191906000526020600020906000905b82829054906101000a900460e01b6001600160e01b0319168152602001906004019060208260030104928301926001038202915080841161076c5790505b5050505050604082015281516001600160a01b03168152600060208201819052503360009081527fcefae263aa054db53617928bc915f31f052caa2df6a635924d36f37f8c9c51b260205260409020548b5482918d91811061080e5761080e612172565b60009182526020918290208351600292830290910180546001600160a01b0390921673ffffffffffffffffffffffffffffffffffffffff198316811782559385015190939092849274ffffffffffffffffffffffffffffffffffffffffff191690911790600160a01b90849081111561088957610889611bff565b0217905550604082015180516108a9916001840191602090910190611a0c565b509050506108d47fcefae263aa054db53617928bc915f31f052caa2df6a635924d36f37f8c9c519390565b336000908152601f909101602052604081208054916108f28361219e565b919050555061091e7fcefae263aa054db53617928bc915f31f052caa2df6a635924d36f37f8c9c519390565b600084815260209182019091526040812061093891611ab8565b505b60008281527fcefae263aa054db53617928bc915f31f052caa2df6a635924d36f37f8c9c51b4602052604090205415610bb9576040805160608082018352600080835260208301529181019190915260008381527fcefae263aa054db53617928bc915f31f052caa2df6a635924d36f37f8c9c51b4602090815260409182902080548351818402810184019094528084529091830182828015610a2957602002820191906000526020600020906000905b82829054906101000a900460e01b6001600160e01b031916815260200190600401906020826003010492830192600103820291508084116109eb5790505b5050505050604082015281516001600160a01b03168152600160208201819052503360009081527fcefae263aa054db53617928bc915f31f052caa2df6a635924d36f37f8c9c51b260205260409020548b5482918d918110610a8d57610a8d612172565b60009182526020918290208351600292830290910180546001600160a01b0390921673ffffffffffffffffffffffffffffffffffffffff198316811782559385015190939092849274ffffffffffffffffffffffffffffffffffffffffff191690911790600160a01b908490811115610b0857610b08611bff565b021790555060408201518051610b28916001840191602090910190611a0c565b50905050610b537fcefae263aa054db53617928bc915f31f052caa2df6a635924d36f37f8c9c519390565b336000908152601f90910160205260408120805491610b718361219e565b9190505550610b9d7fcefae263aa054db53617928bc915f31f052caa2df6a635924d36f37f8c9c519390565b6000848152602190910160205260408120610bb791611ab8565b505b50600101610524565b5060005b8354811015610f4057826000858381548110610be457610be4612172565b6000918252602080832060088304015460079092166004026101000a90910460e01b6001600160e01b031916835282019290925260400190205460ff16610cc25760008181527fcefae263aa054db53617928bc915f31f052caa2df6a635924d36f37f8c9c51b5602052604090208454859083908110610c6657610c66612172565b60009182526020808320600880840490910154855460018101875595855291909320928404909201805463ffffffff60046007948516810261010090810a90960482169690941690930290930a93840291909302199091161790555b60008181527fcefae263aa054db53617928bc915f31f052caa2df6a635924d36f37f8c9c51b5602052604090205415610f38576040805160608082018352600080835260208301529181019190915260008281527fcefae263aa054db53617928bc915f31f052caa2df6a635924d36f37f8c9c51b5602090815260409182902080548351818402810184019094528084529091830182828015610db157602002820191906000526020600020906000905b82829054906101000a900460e01b6001600160e01b03191681526020019060040190602082600301049283019260010382029150808411610d735790505b5050505050604082015260008152600260208201819052503360009081527fcefae263aa054db53617928bc915f31f052caa2df6a635924d36f37f8c9c51b260205260409020548a5482918c918110610e0c57610e0c612172565b60009182526020918290208351600292830290910180546001600160a01b0390921673ffffffffffffffffffffffffffffffffffffffff198316811782559385015190939092849274ffffffffffffffffffffffffffffffffffffffffff191690911790600160a01b908490811115610e8757610e87611bff565b021790555060408201518051610ea7916001840191602090910190611a0c565b50905050610ed27fcefae263aa054db53617928bc915f31f052caa2df6a635924d36f37f8c9c519390565b336000908152601f90910160205260408120805491610ef08361219e565b9190505550610f1c7fcefae263aa054db53617928bc915f31f052caa2df6a635924d36f37f8c9c519390565b6000838152602290910160205260408120610f3691611ab8565b505b600101610bc6565b503360009081527fcefae263aa054db53617928bc915f31f052caa2df6a635924d36f37f8c9c51b2602052604081205467ffffffffffffffff811115610f8857610f88611d28565b604051908082528060200260200182016040528015610fd557816020015b60408051606080820183526000808352602083015291810191909152815260200190600190039081610fa65790505b50905060005b3360009081527fcefae263aa054db53617928bc915f31f052caa2df6a635924d36f37f8c9c51b260205260409020548110156111305789818154811061102357611023612172565b60009182526020918290206040805160608101909152600292830290910180546001600160a01b03811683529193909290840191600160a01b900460ff169081111561107157611071611bff565b600281111561108257611082611bff565b81526020016001820180548060200260200160405190810160405280929190818152602001828054801561110257602002820191906000526020600020906000905b82829054906101000a900460e01b6001600160e01b031916815260200190600401906020826003010492830192600103820291508084116110c45790505b50505050508152505082828151811061111d5761111d612172565b6020908102919091010152600101610fdb565b50611139611555565b9a9950505050505050505050565b61114f611718565b6111b9576040517f08c379a000000000000000000000000000000000000000000000000000000000815260206004820152601660248201527f63616c6c206973206e6f7420617574686f726973656400000000000000000000604482015260640160405180910390fd5b60017fcefae263aa054db53617928bc915f31f052caa2df6a635924d36f37f8c9c519360120160008282546111ee91906121d7565b90915550507fcefae263aa054db53617928bc915f31f052caa2df6a635924d36f37f8c9c51a55460008181527fcefae263aa054db53617928bc915f31f052caa2df6a635924d36f37f8c9c51a66020908152604090912060018101805473ffffffffffffffffffffffffffffffffffffffff19166001600160a01b038816179055845161128392600290920191860190611ae0565b5060005b82518110156113465760008281527fcefae263aa054db53617928bc915f31f052caa2df6a635924d36f37f8c9c51a66020526040902083518490839081106112d1576112d1612172565b6020908102919091018101518254600180820185556000948552938390208251600290920201805473ffffffffffffffffffffffffffffffffffffffff19166001600160a01b039092169190911781558183015180519294919361133b9392850192910190611a0c565b505050600101611287565b5050505050565b7fcefae263aa054db53617928bc915f31f052caa2df6a635924d36f37f8c9c51a55460008181527fcefae263aa054db53617928bc915f31f052caa2df6a635924d36f37f8c9c51a66020908152604080832081518154938402810160809081019093526060810184815294958695909486949293928492918491879085015b8282101561148e5760008481526020908190206040805180820182526002860290920180546001600160a01b0316835260018101805483518187028101870190945280845293949193858301939283018282801561147657602002820191906000526020600020906000905b82829054906101000a900460e01b6001600160e01b031916815260200190600401906020826003010492830192600103820291508084116114385790505b505050505081525050815260200190600101906113cc565b5050509082525060018201546001600160a01b031660208201526002820180546040909201916114bd90611fdc565b80601f01602080910402602001604051908101604052809291908181526020018280546114e990611fdc565b80156115365780601f1061150b57610100808354040283529160200191611536565b820191906000526020600020905b81548152906001019060200180831161151957829003601f168201915b50505050508152505090508161154b82611755565b9350935050509091565b7fcefae263aa054db53617928bc915f31f052caa2df6a635924d36f37f8c9c51ad60005b33600090815260018301602052604090205481101561161c57336000908152602083815260408083206001860190925282208054919291849081106115c0576115c0612172565b6000918252602080832060088304015460079092166004026101000a90910460e01b6001600160e01b03191683528201929092526040019020805473ffffffffffffffffffffffffffffffffffffffff19169055600101611579565b50336000908152600182016020526040812061163791611ab8565b60005b3360009081526003830160205260409020548110156116ce57336000908152600283016020908152604080832060038601909252822080549192918490811061168557611685612172565b6000918252602080832060088304015460079092166004026101000a90910460e01b6001600160e01b03191683528201929092526040019020805460ff1916905560010161163a565b5033600090815260038201602052604081206116e991611ab8565b336000908152600482016020526040812061170391611b54565b33600090815260059091016020526040812055565b60006117507fcefae263aa054db53617928bc915f31f052caa2df6a635924d36f37f8c9c51a7336001600160e01b03198435166118a4565b905090565b6000606060005b8351518110156118955760008460000151828151811061177e5761177e612172565b602002602001015190508281600001516040516020016117c9919060609190911b7fffffffffffffffffffffffffffffffffffffffff00000000000000000000000016815260140190565b60408051601f19818403018152908290526117e7929160200161222a565b604051602081830303815290604052925060005b81602001515181101561185c57838260200151828151811061181f5761181f612172565b602002602001015160405160200161183892919061223f565b604051602081830303815290604052935080806118549061219e565b9150506117fb565b508051604051813f91906118769086908490602001612264565b604051602081830303815290604052945083600101935050505061175c565b50805160209091012092915050565b82546040517fb70096130000000000000000000000000000000000000000000000000000000081526001600160a01b0384811660048301523060248301526001600160e01b031984166044830152600092169063b70096139060640160206040518083038186803b15801561191857600080fd5b505afa15801561192c573d6000803e3d6000fd5b505050506040513d601f19601f82011682018060405250810190611950919061227d565b80611a04575060018401546040517fb70096130000000000000000000000000000000000000000000000000000000081526001600160a01b0385811660048301523060248301526001600160e01b0319851660448301529091169063b70096139060640160206040518083038186803b1580156119cc57600080fd5b505afa1580156119e0573d6000803e3d6000fd5b505050506040513d601f19601f82011682018060405250810190611a04919061227d565b949350505050565b82805482825590600052602060002090600701600890048101928215611aa85791602002820160005b83821115611a7657835183826101000a81548163ffffffff021916908360e01c02179055509260200192600401602081600301049283019260010302611a35565b8015611aa65782816101000a81549063ffffffff0219169055600401602081600301049283019260010302611a76565b505b50611ab4929150611b75565b5090565b508054600082556007016008900490600052602060002090810190611add9190611b75565b50565b828054611aec90611fdc565b90600052602060002090601f016020900481019282611b0e5760008555611aa8565b82601f10611b2757805160ff1916838001178555611aa8565b82800160010185558215611aa8579182015b82811115611aa8578251825591602001919060010190611b39565b5080546000825560020290600052602060002090810190611add9190611b8a565b5b80821115611ab45760008155600101611b76565b80821115611ab457805474ffffffffffffffffffffffffffffffffffffffffff191681556000611bbd6001830182611ab8565b50600201611b8a565b6001600160a01b0381168114611add57600080fd5b600060208284031215611bed57600080fd5b8135611bf881611bc6565b9392505050565b634e487b7160e01b600052602160045260246000fd5b60006020808301818452808551808352604092508286019150828160051b87010184880160005b83811015611d01577fffffffffffffffffffffffffffffffffffffffffffffffffffffffffffffffc0898403018552815160608085016001600160a01b0383511686528983015160038110611ca157634e487b7160e01b600052602160045260246000fd5b868b0152918801518886019190915280519182905288019060808501906000905b80821015611cec5783516001600160e01b0319168352928a0192918a019160019190910190611cc2565b50509588019593505090860190600101611c3c565b509098975050505050505050565b600060208284031215611d2157600080fd5b5035919050565b634e487b7160e01b600052604160045260246000fd5b6040805190810167ffffffffffffffff81118282101715611d6157611d61611d28565b60405290565b604051601f8201601f1916810167ffffffffffffffff81118282101715611d9057611d90611d28565b604052919050565b600067ffffffffffffffff821115611db257611db2611d28565b5060051b60200190565b6001600160e01b031981168114611add57600080fd5b600082601f830112611de357600080fd5b81356020611df8611df383611d98565b611d67565b828152600592831b8501820192828201919087851115611e1757600080fd5b8387015b85811015611f0657803567ffffffffffffffff80821115611e3c5760008081fd5b818a019150604080601f19848e03011215611e575760008081fd5b611e5f611d3e565b88840135611e6c81611bc6565b81528382013583811115611e805760008081fd5b8085019450508c603f850112611e9857600092508283fd5b888401359250611eaa611df384611d98565b83815292861b8401820192898101908e851115611ec75760008081fd5b948301945b84861015611ef15785359350611ee184611dbc565b838252948a0194908a0190611ecc565b828b0152508752505050928401928401611e1b565b5090979650505050505050565b600080600060608486031215611f2857600080fd5b8335611f3381611bc6565b925060208481013567ffffffffffffffff80821115611f5157600080fd5b818701915087601f830112611f6557600080fd5b813581811115611f7757611f77611d28565b611f8984601f19601f84011601611d67565b8181528985838601011115611f9d57600080fd5b818585018683013760009181019094015291935060408601359180831115611fc457600080fd5b5050611fd286828701611dd2565b9150509250925092565b600181811c90821680611ff057607f821691505b6020821081141561201157634e487b7160e01b600052602260045260246000fd5b50919050565b6000602080838503121561202a57600080fd5b825167ffffffffffffffff8082111561204257600080fd5b818501915085601f83011261205657600080fd5b8151612064611df382611d98565b81815260059190911b8301840190848101908883111561208357600080fd5b8585015b838110156121655780518581111561209f5760008081fd5b86016040818c03601f19018113156120b75760008081fd5b6120bf611d3e565b898301516120cc81611bc6565b815282820151888111156120e05760008081fd5b8084019350508c603f8401126120f65760008081fd5b89830151612106611df382611d98565b81815260059190911b84018301908b8101908f8311156121265760008081fd5b948401945b82861015612150578551945061214085611dbc565b848252948c0194908c019061212b565b838d0152505085525050918601918601612087565b5098975050505050505050565b634e487b7160e01b600052603260045260246000fd5b634e487b7160e01b600052601160045260246000fd5b60007fffffffffffffffffffffffffffffffffffffffffffffffffffffffffffffffff8214156121d0576121d0612188565b5060010190565b600082198211156121ea576121ea612188565b500190565b6000815160005b8181101561221057602081850181015186830152016121f6565b8181111561221f576000828601525b509290920192915050565b6000611a0461223983866121ef565b846121ef565b600061224b82856121ef565b6001600160e01b03199390931683525050600401919050565b600061227082856121ef565b9283525050602001919050565b60006020828403121561228f57600080fd5b81518015158114611bf857600080fdfea2646970667358221220fc97e51e8455958c98e1bd95f2d928c52641ed153c8aed8459afe5fc3b5eda3564736f6c63430008090033",
  "devdoc": {
    "kind": "dev",
    "methods": {},
    "version": 1
  },
  "userdoc": {
    "kind": "user",
    "methods": {},
    "version": 1
  },
  "storageLayout": {
    "storage": [],
    "types": null
  }
}