{
  "address": "0x9b4ECE6623a59a8ee04164227bAa6593E6bee815",
  "abi": [
    {
      "inputs": [
        {
          "components": [
            {
              "internalType": "address",
              "name": "initOwner",
              "type": "address"
            },
            {
              "internalType": "address",
              "name": "marginEscrowImpl",
              "type": "address"
            },
            {
              "internalType": "address",
              "name": "creditEscrowImpl",
              "type": "address"
            },
            {
              "internalType": "address",
              "name": "seniorDepositTokenImpl",
              "type": "address"
            },
            {
              "internalType": "address",
              "name": "juniorDepositTokenImpl",
              "type": "address"
            },
            {
              "internalType": "address",
              "name": "vaultFactory",
              "type": "address"
            },
            {
              "internalType": "address",
              "name": "diamondCutFacet",
              "type": "address"
            },
            {
              "internalType": "address",
              "name": "diamondLoupeFacet",
              "type": "address"
            },
            {
              "internalType": "address",
              "name": "ownershipFacet",
              "type": "address"
            },
            {
              "internalType": "address",
              "name": "weth9",
              "type": "address"
            }
          ],
          "internalType": "struct InitDiamond.Args",
          "name": "_args",
          "type": "tuple"
        }
      ],
      "name": "init",
      "outputs": [],
      "stateMutability": "nonpayable",
      "type": "function"
    }
  ],
  "transactionHash": "0x183e2a16236b66d315e7d02ba650647ea3f15bb0513c7282355bcd8004ee409c",
  "args": [],
  "numDeployments": 1,
  "solcInputHash": "64736b687302d4e0a12a155efce9fbfe",
  "bytecode": "0x608060405234801561001057600080fd5b50612597806100206000396000f3fe608060405234801561001057600080fd5b506004361061002b5760003560e01c8063c724363b14610030575b600080fd5b61004361003e366004610774565b610045565b005b7fc8fcad8db84d3cc18b4c41d551ea0ee66dd599cde068d998e57d5e09332c131f6020527f699d9daa71b280d05a152715774afa0a81a312594b2d731d6b0b2552b7d6f69f805460017fffffffffffffffffffffffffffffffffffffffffffffffffffffffffffffff0091821681179092557ff97e938d8af42f52387bb74b8b526fda8f184cc2aa534340a8d75a88fbecc77580548216831790557f65d510a5d8f7ef134ec444f7f34ee808c8eeb5177cdfd16be0c40fe1ab43369580548216831790557f7f5828d0000000000000000000000000000000000000000000000000000000006000527f5622121b47b8cd0120c4efe45dd5483242f54a3d49bd7679be565d47694918c380548216909217909155610120820151600580547fffffffffffffffffffff0000000000000000000000000000000000000000ffff16620100006001600160a01b0393841602179055600880549092169091556018547fc8fcad8db84d3cc18b4c41d551ea0ee66dd599cde068d998e57d5e09332c131c9116610222576040516101d7906106e0565b604051809103906000f0801580156101f3573d6000803e3d6000fd5b506018805473ffffffffffffffffffffffffffffffffffffffff19166001600160a01b03929092169190911790555b6019546001600160a01b03166103cd5760405161023e906106ed565b604051809103906000f08015801561025a573d6000803e3d6000fd5b506019805473ffffffffffffffffffffffffffffffffffffffff19166001600160a01b0392831617905560185483516040517fd381ba7c00000000000000000000000000000000000000000000000000000000815290831660048201526001602482015291169063d381ba7c90604401600060405180830381600087803b1580156102e457600080fd5b505af11580156102f8573d6000803e3d6000fd5b505060195484516040517ff0217ce500000000000000000000000000000000000000000000000000000000815260609190911b7fffffffffffffffffffffffffffffffffffffffff0000000000000000000000001660048201527fffffffffffffffffffffffffffffffffffffffffffffffffffffffffffffffff602482018190526044820181905293506001600160a01b03909116915063f0217ce590606401600060405180830381600087803b1580156103b357600080fd5b505af11580156103c7573d6000803e3d6000fd5b50505050505b60085461010090046001600160a01b031661045f5781602001516040516103f3906106fa565b6001600160a01b039091168152602001604051809103906000f08015801561041f573d6000803e3d6000fd5b50600880546001600160a01b0392909216610100027fffffffffffffffffffffff0000000000000000000000000000000000000000ff9092169190911790555b6009546001600160a01b03166104db578160400151604051610480906106fa565b6001600160a01b039091168152602001604051809103906000f0801580156104ac573d6000803e3d6000fd5b506009805473ffffffffffffffffffffffffffffffffffffffff19166001600160a01b03929092169190911790555b6001546001600160a01b03166105575781606001516040516104fc906106fa565b6001600160a01b039091168152602001604051809103906000f080158015610528573d6000803e3d6000fd5b506001805473ffffffffffffffffffffffffffffffffffffffff19166001600160a01b03929092169190911790555b6002546001600160a01b03166105d3578160800151604051610578906106fa565b6001600160a01b039091168152602001604051809103906000f0801580156105a4573d6000803e3d6000fd5b506002805473ffffffffffffffffffffffffffffffffffffffff19166001600160a01b03929092169190911790555b600f546001600160a01b03166106155760a0820151600f805473ffffffffffffffffffffffffffffffffffffffff19166001600160a01b039092169190911790555b600c546001600160a01b03166106575760c0820151600c805473ffffffffffffffffffffffffffffffffffffffff19166001600160a01b039092169190911790555b600d546001600160a01b03166106995760e0820151600d805473ffffffffffffffffffffffffffffffffffffffff19166001600160a01b039092169190911790555b600e546001600160a01b03166106dc57610100820151600e805473ffffffffffffffffffffffffffffffffffffffff19166001600160a01b039092169190911790555b5050565b610d488061083d83390190565b6109fc8061158583390190565b6105e180611f8183390190565b604051610140810167ffffffffffffffff81118282101715610752577f4e487b7100000000000000000000000000000000000000000000000000000000600052604160045260246000fd5b60405290565b80356001600160a01b038116811461076f57600080fd5b919050565b6000610140828403121561078757600080fd5b61078f610707565b61079883610758565b81526107a660208401610758565b60208201526107b760408401610758565b60408201526107c860608401610758565b60608201526107d960808401610758565b60808201526107ea60a08401610758565b60a08201526107fb60c08401610758565b60c082015261080c60e08401610758565b60e082015261010061081f818501610758565b90820152610120610831848201610758565b90820152939250505056fe608060405234801561001057600080fd5b50600180546001600160a01b031916339081179091556040517fce241d7ca1f669fee44b6fc00b8eba2df3bb514eed0f6f668f8f89096e81ed9490600090a2610cea8061005e6000396000f3fe608060405234801561001057600080fd5b50600436106100ea5760003560e01c80638da5cb5b1161008c578063bf7e214f11610066578063bf7e214f14610232578063c6b0263e14610245578063d381ba7c14610258578063fbf807731461026b57600080fd5b80638da5cb5b146101e1578063a078f7371461020c578063b70096131461021f57600080fd5b80632f47571f116100c85780632f47571f1461015357806367aff484146101a85780637a9e5e4b146101bb5780637d40583d146101ce57600080fd5b806306a36aee146100ef57806313af40351461012b57806327538e9014610140575b600080fd5b6101186100fd36600461096f565b6001600160a01b031660009081526003602052604090205490565b6040519081526020015b60405180910390f35b61013e61013936600461096f565b610297565b005b61011861014e3660046109a9565b610360565b6101986101613660046109a9565b6001600160a01b03821660009081526005602090815260408083206001600160e01b03198516845290915290205460ff1692915050565b6040519015158152602001610122565b61013e6101b63660046109fd565b610395565b61013e6101c936600461096f565b610472565b61013e6101dc366004610a46565b610534565b6001546101f4906001600160a01b031681565b6040516001600160a01b039091168152602001610122565b61019861021a366004610a9e565b610651565b61019861022d366004610aca565b610688565b6000546101f4906001600160a01b031681565b61013e610253366004610b11565b610723565b61013e610266366004610b3f565b6107c6565b61019861027936600461096f565b6001600160a01b031660009081526002602052604090205460ff1690565b6102ad336000356001600160e01b031916610853565b6102fe5760405162461bcd60e51b815260206004820152601460248201527f64732d617574682d756e617574686f72697a656400000000000000000000000060448201526064015b60405180910390fd5b600180547fffffffffffffffffffffffff0000000000000000000000000000000000000000166001600160a01b0383169081179091556040517fce241d7ca1f669fee44b6fc00b8eba2df3bb514eed0f6f668f8f89096e81ed9490600090a250565b6001600160a01b03821660009081526004602090815260408083206001600160e01b0319851684529091529020545b92915050565b6103ab336000356001600160e01b031916610853565b6103f75760405162461bcd60e51b815260206004820152601460248201527f64732d617574682d756e617574686f72697a656400000000000000000000000060448201526064016102f5565b6001600160a01b0383166000908152600360205260408120549061041f60ff85166002610c8b565b90508215610449576001600160a01b0385166000908152600360205260409020828217905561046b565b6001600160a01b03851660009081526003602052604090206000198218831690555b5050505050565b610488336000356001600160e01b031916610853565b6104d45760405162461bcd60e51b815260206004820152601460248201527f64732d617574682d756e617574686f72697a656400000000000000000000000060448201526064016102f5565b600080547fffffffffffffffffffffffff0000000000000000000000000000000000000000166001600160a01b038316908117825560405190917f1abebea81bfa2637f28358c371278fb15ede7ea8dd28d2e03b112ff6d936ada491a250565b61054a336000356001600160e01b031916610853565b6105965760405162461bcd60e51b815260206004820152601460248201527f64732d617574682d756e617574686f72697a656400000000000000000000000060448201526064016102f5565b6001600160a01b03831660009081526004602090815260408083206001600160e01b031986168452909152812054906105d360ff87166002610c8b565b90508215610612576001600160a01b03851660009081526004602090815260408083206001600160e01b03198816845290915290208282179055610649565b6001600160a01b03851660009081526004602090815260408083206001600160e01b03198816845290915290206000198218831690555b505050505050565b6001600160a01b038216600090815260036020526040812054600061067a60ff85166002610c8b565b919091161515949350505050565b6001600160a01b03831660009081526002602052604081205460ff16806106dc57506001600160a01b03831660009081526005602090815260408083206001600160e01b03198616845290915290205460ff165b156106e95750600161071c565b6001600160a01b0384166000908152600360205260408120549061070d8585610360565b919091161515915061071c9050565b9392505050565b610739336000356001600160e01b031916610853565b6107855760405162461bcd60e51b815260206004820152601460248201527f64732d617574682d756e617574686f72697a656400000000000000000000000060448201526064016102f5565b6001600160a01b0390921660009081526005602090815260408083206001600160e01b0319909416835292905220805491151560ff19909216919091179055565b6107dc336000356001600160e01b031916610853565b6108285760405162461bcd60e51b815260206004820152601460248201527f64732d617574682d756e617574686f72697a656400000000000000000000000060448201526064016102f5565b6001600160a01b03919091166000908152600260205260409020805460ff1916911515919091179055565b60006001600160a01b03831630141561086e5750600161038f565b6001546001600160a01b038481169116141561088c5750600161038f565b6000546001600160a01b03166108a45750600061038f565b6000546040517fb70096130000000000000000000000000000000000000000000000000000000081526001600160a01b0385811660048301523060248301526001600160e01b0319851660448301529091169063b70096139060640160206040518083038186803b15801561091857600080fd5b505afa15801561092c573d6000803e3d6000fd5b505050506040513d601f19601f820116820180604052508101906109509190610c97565b905061038f565b6001600160a01b038116811461096c57600080fd5b50565b60006020828403121561098157600080fd5b813561071c81610957565b80356001600160e01b0319811681146109a457600080fd5b919050565b600080604083850312156109bc57600080fd5b82356109c781610957565b91506109d56020840161098c565b90509250929050565b803560ff811681146109a457600080fd5b801515811461096c57600080fd5b600080600060608486031215610a1257600080fd5b8335610a1d81610957565b9250610a2b602085016109de565b91506040840135610a3b816109ef565b809150509250925092565b60008060008060808587031215610a5c57600080fd5b610a65856109de565b93506020850135610a7581610957565b9250610a836040860161098c565b91506060850135610a93816109ef565b939692955090935050565b60008060408385031215610ab157600080fd5b8235610abc81610957565b91506109d5602084016109de565b600080600060608486031215610adf57600080fd5b8335610aea81610957565b92506020840135610afa81610957565b9150610b086040850161098c565b90509250925092565b600080600060608486031215610b2657600080fd5b8335610b3181610957565b9250610a2b6020850161098c565b60008060408385031215610b5257600080fd5b8235610b5d81610957565b91506020830135610b6d816109ef565b809150509250929050565b7f4e487b7100000000000000000000000000000000000000000000000000000000600052601160045260246000fd5b600181815b80851115610be2578160001904821115610bc857610bc8610b78565b80851615610bd557918102915b93841c9390800290610bac565b509250929050565b600082610bf95750600161038f565b81610c065750600061038f565b8160018114610c1c5760028114610c2657610c42565b600191505061038f565b60ff841115610c3757610c37610b78565b50506001821b61038f565b5060208310610133831016604e8410600b8410161715610c65575081810a61038f565b610c6f8383610ba7565b8060001904821115610c8357610c83610b78565b029392505050565b600061071c8383610bea565b600060208284031215610ca957600080fd5b815161071c816109ef56fea2646970667358221220f49fe75c358cd770b5e904179aa563ad0117475693ed30e85d9c471cae90b23a64736f6c63430008090033608060405234801561001057600080fd5b50600180546001600160a01b031916339081179091556040517fce241d7ca1f669fee44b6fc00b8eba2df3bb514eed0f6f668f8f89096e81ed9490600090a261099e8061005e6000396000f3fe608060405234801561001057600080fd5b50600436106100be5760003560e01c8063a8542f6611610076578063bf7e214f1161005b578063bf7e214f1461017b578063cbeea68c1461018e578063f0217ce5146101a157600080fd5b8063a8542f6614610141578063b70096131461015857600080fd5b806379d88d87116100a757806379d88d87146100eb5780637a9e5e4b146100fe5780638da5cb5b1461011157600080fd5b806313af4035146100c35780632bc3217d146100d8575b600080fd5b6100d66100d136600461085d565b6101b4565b005b6100d66100e6366004610881565b61027d565b6100d66100f93660046108c2565b6102b1565b6100d661010c36600461085d565b61036c565b600154610124906001600160a01b031681565b6040516001600160a01b0390911681526020015b60405180910390f35b61014a60001981565b604051908152602001610138565b61016b6101663660046108ee565b61042e565b6040519015158152602001610138565b600054610124906001600160a01b031681565b6100d661019c366004610881565b610656565b6100d66101af3660046108c2565b610681565b6101ca336000356001600160e01b03191661073f565b61021b5760405162461bcd60e51b815260206004820152601460248201527f64732d617574682d756e617574686f72697a656400000000000000000000000060448201526064015b60405180910390fd5b600180547fffffffffffffffffffffffff0000000000000000000000000000000000000000166001600160a01b0383169081179091556040517fce241d7ca1f669fee44b6fc00b8eba2df3bb514eed0f6f668f8f89096e81ed9490600090a250565b6102ac8360601b6bffffffffffffffffffffffff19168360601b6bffffffffffffffffffffffff1916836102b1565b505050565b6102c7336000356001600160e01b03191661073f565b6103135760405162461bcd60e51b815260206004820152601460248201527f64732d617574682d756e617574686f72697a65640000000000000000000000006044820152606401610212565b60008381526002602090815260408083208584528252808320848452909152808220805460ff19169055518291849186917f95ba64c95d85e67ac83a0476c4a62ac2cf8ab2d0407545b8c9d79c3eefa6282991a4505050565b610382336000356001600160e01b03191661073f565b6103ce5760405162461bcd60e51b815260206004820152601460248201527f64732d617574682d756e617574686f72697a65640000000000000000000000006044820152606401610212565b600080547fffffffffffffffffffffffff0000000000000000000000000000000000000000166001600160a01b038316908117825560405190917f1abebea81bfa2637f28358c371278fb15ede7ea8dd28d2e03b112ff6d936ada491a250565b7fffffffffffffffffffffffffffffffffffffffff000000000000000000000000606084811b821660008181526002602090815260408083209488901b9095168083529381528482206001600160e01b03198716835290529283205490919060ff16806104be575060008281526002602090815260408083208484528252808320600019845290915290205460ff165b806104f657506000828152600260209081526040808320600019845282528083206001600160e01b03198816845290915290205460ff165b80610521575060008281526002602090815260408083206000198452825280832090915290205460ff165b8061056e575060008181527f38b5b2ceac7637132d27514ffcf440b705287635075af7b8bd5adcaa6a4cc5bb602090815260408083206001600160e01b03198816845290915290205460ff165b806105b3575060008181527f38b5b2ceac7637132d27514ffcf440b705287635075af7b8bd5adcaa6a4cc5bb60209081526040808320600019845290915290205460ff165b806105f657506001600160e01b0319841660009081527f47fa60fbc027ac3984ea309688a33182f4193c478b40ba8d294eb2cd3ddc4d97602052604090205460ff165b8061064c57506000196000527f47fa60fbc027ac3984ea309688a33182f4193c478b40ba8d294eb2cd3ddc4d976020527ff423d1317b37667cd26005728bffa7c8b0499e133951fcf8e814d4fc5f4c98f65460ff165b9695505050505050565b6102ac8360601b6bffffffffffffffffffffffff19168360601b6bffffffffffffffffffffffff1916835b610697336000356001600160e01b03191661073f565b6106e35760405162461bcd60e51b815260206004820152601460248201527f64732d617574682d756e617574686f72697a65640000000000000000000000006044820152606401610212565b60008381526002602090815260408083208584528252808320848452909152808220805460ff19166001179055518291849186917f6f50375045128971c5469d343039ba7b8e30a5b190453737b28bda6f7a30677191a4505050565b60006001600160a01b03831630141561075a5750600161083f565b6001546001600160a01b03848116911614156107785750600161083f565b6000546001600160a01b03166107905750600061083f565b6000546040517fb70096130000000000000000000000000000000000000000000000000000000081526001600160a01b0385811660048301523060248301526001600160e01b0319851660448301529091169063b70096139060640160206040518083038186803b15801561080457600080fd5b505afa158015610818573d6000803e3d6000fd5b505050506040513d601f19601f8201168201806040525081019061083c9190610946565b90505b92915050565b6001600160a01b038116811461085a57600080fd5b50565b60006020828403121561086f57600080fd5b813561087a81610845565b9392505050565b60008060006060848603121561089657600080fd5b83356108a181610845565b925060208401356108b181610845565b929592945050506040919091013590565b6000806000606084860312156108d757600080fd5b505081359360208301359350604090920135919050565b60008060006060848603121561090357600080fd5b833561090e81610845565b9250602084013561091e81610845565b915060408401356001600160e01b03198116811461093b57600080fd5b809150509250925092565b60006020828403121561095857600080fd5b8151801515811461087a57600080fdfea26469706673582212208473569783ec2b64a608c0911c2a2998ea8de5e3046b943b20df253174b6a7c764736f6c63430008090033608060405234801561001057600080fd5b506040516105e13803806105e183398101604081905261002f91610151565b61003833610047565b61004181610097565b50610181565b600080546001600160a01b038381166001600160a01b0319831681178455604051919092169283917f8be0079c531659141344cd1fd0a4f28419497f9722a3daafe3b4186f6b6457e09190a35050565b6100aa8161014260201b6102bd1760201c565b6101205760405162461bcd60e51b815260206004820152603360248201527f5570677261646561626c65426561636f6e3a20696d706c656d656e746174696f60448201527f6e206973206e6f74206120636f6e747261637400000000000000000000000000606482015260840160405180910390fd5b600180546001600160a01b0319166001600160a01b0392909216919091179055565b6001600160a01b03163b151590565b60006020828403121561016357600080fd5b81516001600160a01b038116811461017a57600080fd5b9392505050565b610451806101906000396000f3fe608060405234801561001057600080fd5b50600436106100675760003560e01c8063715018a611610050578063715018a6146100aa5780638da5cb5b146100b2578063f2fde38b146100c357600080fd5b80633659cfe61461006c5780635c60da1b14610081575b600080fd5b61007f61007a3660046103eb565b6100d6565b005b6001546001600160a01b03165b6040516001600160a01b03909116815260200160405180910390f35b61007f610175565b6000546001600160a01b031661008e565b61007f6100d13660046103eb565b6101db565b6000546001600160a01b031633146101355760405162461bcd60e51b815260206004820181905260248201527f4f776e61626c653a2063616c6c6572206973206e6f7420746865206f776e657260448201526064015b60405180910390fd5b61013e816102cc565b6040516001600160a01b038216907fbc7cd75a20ee27fd9adebab32041f755214dbc6bffa90cc0225b39da2e5c2d3b90600090a250565b6000546001600160a01b031633146101cf5760405162461bcd60e51b815260206004820181905260248201527f4f776e61626c653a2063616c6c6572206973206e6f7420746865206f776e6572604482015260640161012c565b6101d96000610383565b565b6000546001600160a01b031633146102355760405162461bcd60e51b815260206004820181905260248201527f4f776e61626c653a2063616c6c6572206973206e6f7420746865206f776e6572604482015260640161012c565b6001600160a01b0381166102b15760405162461bcd60e51b815260206004820152602660248201527f4f776e61626c653a206e6577206f776e657220697320746865207a65726f206160448201527f6464726573730000000000000000000000000000000000000000000000000000606482015260840161012c565b6102ba81610383565b50565b6001600160a01b03163b151590565b6001600160a01b0381163b6103495760405162461bcd60e51b815260206004820152603360248201527f5570677261646561626c65426561636f6e3a20696d706c656d656e746174696f60448201527f6e206973206e6f74206120636f6e747261637400000000000000000000000000606482015260840161012c565b600180547fffffffffffffffffffffffff0000000000000000000000000000000000000000166001600160a01b0392909216919091179055565b600080546001600160a01b038381167fffffffffffffffffffffffff0000000000000000000000000000000000000000831681178455604051919092169283917f8be0079c531659141344cd1fd0a4f28419497f9722a3daafe3b4186f6b6457e09190a35050565b6000602082840312156103fd57600080fd5b81356001600160a01b038116811461041457600080fd5b939250505056fea2646970667358221220481185d8c4c8cad6fe97c490a4a85a544333370ad7c3c50b99461aa6e74c651f64736f6c63430008090033a264697066735822122034fc7d685292519f1866fafee8b1d1dd7fe17247ed9f42a7ed9c3116e985aacc64736f6c63430008090033",
  "devdoc": {
    "kind": "dev",
    "methods": {},
    "version": 1
  },
  "userdoc": {
    "kind": "user",
    "methods": {},
    "version": 1
  },
  "storageLayout": {
    "storage": [
      {
        "astId": 13855,
        "contract": "contracts/voyage/InitDiamond.sol:InitDiamond",
        "label": "s",
        "offset": 0,
        "slot": "0",
        "type": "t_struct(AppStorage)20987_storage"
      }
    ],
    "types": {
      "t_address": {
        "encoding": "inplace",
        "label": "address",
        "numberOfBytes": "20"
      },
      "t_array(t_address)dyn_storage": {
        "base": "t_address",
        "encoding": "dynamic_array",
        "label": "address[]",
        "numberOfBytes": "32"
      },
      "t_array(t_bytes4)dyn_storage": {
        "base": "t_bytes4",
        "encoding": "dynamic_array",
        "label": "bytes4[]",
        "numberOfBytes": "32"
      },
      "t_array(t_struct(Facet)7894_storage)dyn_storage": {
        "base": "t_struct(Facet)7894_storage",
        "encoding": "dynamic_array",
        "label": "struct IDiamondLoupe.Facet[]",
        "numberOfBytes": "32"
      },
      "t_array(t_struct(FacetCut)7862_storage)dyn_storage": {
        "base": "t_struct(FacetCut)7862_storage",
        "encoding": "dynamic_array",
        "label": "struct IDiamondCut.FacetCut[]",
        "numberOfBytes": "32"
      },
      "t_array(t_struct(RepaymentData)20716_storage)dyn_storage": {
        "base": "t_struct(RepaymentData)20716_storage",
        "encoding": "dynamic_array",
        "label": "struct RepaymentData[]",
        "numberOfBytes": "32"
      },
      "t_bool": {
        "encoding": "inplace",
        "label": "bool",
        "numberOfBytes": "1"
      },
      "t_bytes32": {
        "encoding": "inplace",
        "label": "bytes32",
        "numberOfBytes": "32"
      },
      "t_bytes4": {
        "encoding": "inplace",
        "label": "bytes4",
        "numberOfBytes": "4"
      },
      "t_bytes_storage": {
        "encoding": "bytes",
        "label": "bytes",
        "numberOfBytes": "32"
      },
      "t_contract(DSGuard)14682": {
        "encoding": "inplace",
        "label": "contract DSGuard",
        "numberOfBytes": "20"
      },
      "t_contract(DSRoles)15071": {
        "encoding": "inplace",
        "label": "contract DSRoles",
        "numberOfBytes": "20"
      },
      "t_contract(IVaultFactory)20638": {
        "encoding": "inplace",
        "label": "contract IVaultFactory",
        "numberOfBytes": "20"
      },
      "t_contract(IWETH9)9162": {
        "encoding": "inplace",
        "label": "contract IWETH9",
        "numberOfBytes": "20"
      },
      "t_contract(UpgradeableBeacon)2867": {
        "encoding": "inplace",
        "label": "contract UpgradeableBeacon",
        "numberOfBytes": "20"
      },
      "t_enum(FacetCutAction)7853": {
        "encoding": "inplace",
        "label": "enum IDiamondCut.FacetCutAction",
        "numberOfBytes": "1"
      },
      "t_mapping(t_address,t_address)": {
        "encoding": "mapping",
        "key": "t_address",
        "label": "mapping(address => address)",
        "numberOfBytes": "32",
        "value": "t_address"
      },
      "t_mapping(t_address,t_array(t_bytes4)dyn_storage)": {
        "encoding": "mapping",
        "key": "t_address",
        "label": "mapping(address => bytes4[])",
        "numberOfBytes": "32",
        "value": "t_array(t_bytes4)dyn_storage"
      },
      "t_mapping(t_address,t_array(t_struct(FacetCut)7862_storage)dyn_storage)": {
        "encoding": "mapping",
        "key": "t_address",
        "label": "mapping(address => struct IDiamondCut.FacetCut[])",
        "numberOfBytes": "32",
        "value": "t_array(t_struct(FacetCut)7862_storage)dyn_storage"
      },
      "t_mapping(t_address,t_mapping(t_address,t_struct(BorrowData)20771_storage))": {
        "encoding": "mapping",
        "key": "t_address",
        "label": "mapping(address => mapping(address => struct BorrowData))",
        "numberOfBytes": "32",
        "value": "t_mapping(t_address,t_struct(BorrowData)20771_storage)"
      },
      "t_mapping(t_address,t_mapping(t_address,t_struct(VaultConfig)20787_storage))": {
        "encoding": "mapping",
        "key": "t_address",
        "label": "mapping(address => mapping(address => struct VaultConfig))",
        "numberOfBytes": "32",
        "value": "t_mapping(t_address,t_struct(VaultConfig)20787_storage)"
      },
      "t_mapping(t_address,t_mapping(t_bytes4,t_address))": {
        "encoding": "mapping",
        "key": "t_address",
        "label": "mapping(address => mapping(bytes4 => address))",
        "numberOfBytes": "32",
        "value": "t_mapping(t_bytes4,t_address)"
      },
      "t_mapping(t_address,t_mapping(t_bytes4,t_bool))": {
        "encoding": "mapping",
        "key": "t_address",
        "label": "mapping(address => mapping(bytes4 => bool))",
        "numberOfBytes": "32",
        "value": "t_mapping(t_bytes4,t_bool)"
      },
      "t_mapping(t_address,t_mapping(t_uint256,t_struct(NFTInfo)20824_storage))": {
        "encoding": "mapping",
        "key": "t_address",
        "label": "mapping(address => mapping(uint256 => struct NFTInfo))",
        "numberOfBytes": "32",
        "value": "t_mapping(t_uint256,t_struct(NFTInfo)20824_storage)"
      },
      "t_mapping(t_address,t_struct(BorrowData)20771_storage)": {
        "encoding": "mapping",
        "key": "t_address",
        "label": "mapping(address => struct BorrowData)",
        "numberOfBytes": "32",
        "value": "t_struct(BorrowData)20771_storage"
      },
      "t_mapping(t_address,t_struct(BorrowState)20778_storage)": {
        "encoding": "mapping",
        "key": "t_address",
        "label": "mapping(address => struct BorrowState)",
        "numberOfBytes": "32",
        "value": "t_struct(BorrowState)20778_storage"
      },
      "t_mapping(t_address,t_struct(ERC721AssetInfo)20829_storage)": {
        "encoding": "mapping",
        "key": "t_address",
        "label": "mapping(address => struct ERC721AssetInfo)",
        "numberOfBytes": "32",
        "value": "t_struct(ERC721AssetInfo)20829_storage"
      },
      "t_mapping(t_address,t_struct(ReserveData)20695_storage)": {
        "encoding": "mapping",
        "key": "t_address",
        "label": "mapping(address => struct ReserveData)",
        "numberOfBytes": "32",
        "value": "t_struct(ReserveData)20695_storage"
      },
      "t_mapping(t_address,t_struct(VaultConfig)20787_storage)": {
        "encoding": "mapping",
        "key": "t_address",
        "label": "mapping(address => struct VaultConfig)",
        "numberOfBytes": "32",
        "value": "t_struct(VaultConfig)20787_storage"
      },
      "t_mapping(t_address,t_uint256)": {
        "encoding": "mapping",
        "key": "t_address",
        "label": "mapping(address => uint256)",
        "numberOfBytes": "32",
        "value": "t_uint256"
      },
      "t_mapping(t_bytes32,t_address)": {
        "encoding": "mapping",
        "key": "t_bytes32",
        "label": "mapping(bytes32 => address)",
        "numberOfBytes": "32",
        "value": "t_address"
      },
      "t_mapping(t_bytes4,t_address)": {
        "encoding": "mapping",
        "key": "t_bytes4",
        "label": "mapping(bytes4 => address)",
        "numberOfBytes": "32",
        "value": "t_address"
      },
      "t_mapping(t_bytes4,t_bool)": {
        "encoding": "mapping",
        "key": "t_bytes4",
        "label": "mapping(bytes4 => bool)",
        "numberOfBytes": "32",
        "value": "t_bool"
      },
      "t_mapping(t_uint256,t_address)": {
        "encoding": "mapping",
        "key": "t_uint256",
        "label": "mapping(uint256 => address)",
        "numberOfBytes": "32",
        "value": "t_address"
      },
      "t_mapping(t_uint256,t_array(t_bytes4)dyn_storage)": {
        "encoding": "mapping",
        "key": "t_uint256",
        "label": "mapping(uint256 => bytes4[])",
        "numberOfBytes": "32",
        "value": "t_array(t_bytes4)dyn_storage"
      },
      "t_mapping(t_uint256,t_struct(Loan)20746_storage)": {
        "encoding": "mapping",
        "key": "t_uint256",
        "label": "mapping(uint256 => struct Loan)",
        "numberOfBytes": "32",
        "value": "t_struct(Loan)20746_storage"
      },
      "t_mapping(t_uint256,t_struct(NFTInfo)20824_storage)": {
        "encoding": "mapping",
        "key": "t_uint256",
        "label": "mapping(uint256 => struct NFTInfo)",
        "numberOfBytes": "32",
        "value": "t_struct(NFTInfo)20824_storage"
      },
      "t_mapping(t_uint256,t_struct(Snapshot)20447_storage)": {
        "encoding": "mapping",
        "key": "t_uint256",
        "label": "mapping(uint256 => struct Snapshot)",
        "numberOfBytes": "32",
        "value": "t_struct(Snapshot)20447_storage"
      },
      "t_struct(AppStorage)20987_storage": {
        "encoding": "inplace",
        "label": "struct AppStorage",
        "members": [
          {
            "astId": 20888,
            "contract": "contracts/voyage/InitDiamond.sol:InitDiamond",
            "label": "_addresses",
            "offset": 0,
            "slot": "0",
            "type": "t_mapping(t_bytes32,t_address)"
          },
          {
            "astId": 20891,
            "contract": "contracts/voyage/InitDiamond.sol:InitDiamond",
            "label": "seniorDepositTokenBeacon",
            "offset": 0,
            "slot": "1",
            "type": "t_contract(UpgradeableBeacon)2867"
          },
          {
            "astId": 20894,
            "contract": "contracts/voyage/InitDiamond.sol:InitDiamond",
            "label": "juniorDepositTokenBeacon",
            "offset": 0,
            "slot": "2",
            "type": "t_contract(UpgradeableBeacon)2867"
          },
          {
            "astId": 20899,
            "contract": "contracts/voyage/InitDiamond.sol:InitDiamond",
            "label": "_reserves",
            "offset": 0,
            "slot": "3",
            "type": "t_mapping(t_address,t_struct(ReserveData)20695_storage)"
          },
          {
            "astId": 20903,
            "contract": "contracts/voyage/InitDiamond.sol:InitDiamond",
            "label": "_reserveList",
            "offset": 0,
            "slot": "4",
            "type": "t_mapping(t_uint256,t_address)"
          },
          {
            "astId": 20905,
            "contract": "contracts/voyage/InitDiamond.sol:InitDiamond",
            "label": "_reservesCount",
            "offset": 0,
            "slot": "5",
            "type": "t_uint16"
          },
          {
            "astId": 20908,
            "contract": "contracts/voyage/InitDiamond.sol:InitDiamond",
            "label": "WETH9",
            "offset": 2,
            "slot": "5",
            "type": "t_contract(IWETH9)9162"
          },
          {
            "astId": 20915,
            "contract": "contracts/voyage/InitDiamond.sol:InitDiamond",
            "label": "_borrowData",
            "offset": 0,
            "slot": "6",
            "type": "t_mapping(t_address,t_mapping(t_address,t_struct(BorrowData)20771_storage))"
          },
          {
            "astId": 20920,
            "contract": "contracts/voyage/InitDiamond.sol:InitDiamond",
            "label": "_borrowState",
            "offset": 0,
            "slot": "7",
            "type": "t_mapping(t_address,t_struct(BorrowState)20778_storage)"
          },
          {
            "astId": 20922,
            "contract": "contracts/voyage/InitDiamond.sol:InitDiamond",
            "label": "_paused",
            "offset": 0,
            "slot": "8",
            "type": "t_bool"
          },
          {
            "astId": 20925,
            "contract": "contracts/voyage/InitDiamond.sol:InitDiamond",
            "label": "marginEscrowBeacon",
            "offset": 1,
            "slot": "8",
            "type": "t_contract(UpgradeableBeacon)2867"
          },
          {
            "astId": 20928,
            "contract": "contracts/voyage/InitDiamond.sol:InitDiamond",
            "label": "creditEscrowBeacon",
            "offset": 0,
            "slot": "9",
            "type": "t_contract(UpgradeableBeacon)2867"
          },
          {
            "astId": 20931,
            "contract": "contracts/voyage/InitDiamond.sol:InitDiamond",
            "label": "subVaultBeacon",
            "offset": 0,
            "slot": "10",
            "type": "t_contract(UpgradeableBeacon)2867"
          },
          {
            "astId": 20934,
            "contract": "contracts/voyage/InitDiamond.sol:InitDiamond",
            "label": "vaultBeacon",
            "offset": 0,
            "slot": "11",
            "type": "t_contract(UpgradeableBeacon)2867"
          },
          {
            "astId": 20937,
            "contract": "contracts/voyage/InitDiamond.sol:InitDiamond",
            "label": "diamondFacet",
            "offset": 0,
            "slot": "12",
            "type": "t_struct(DiamondFacet)20884_storage"
          },
          {
            "astId": 20940,
            "contract": "contracts/voyage/InitDiamond.sol:InitDiamond",
            "label": "vaultFactory",
            "offset": 0,
            "slot": "15",
            "type": "t_contract(IVaultFactory)20638"
          },
          {
            "astId": 20943,
            "contract": "contracts/voyage/InitDiamond.sol:InitDiamond",
            "label": "vaults",
            "offset": 0,
            "slot": "16",
            "type": "t_array(t_address)dyn_storage"
          },
          {
            "astId": 20947,
            "contract": "contracts/voyage/InitDiamond.sol:InitDiamond",
            "label": "vaultMap",
            "offset": 0,
            "slot": "17",
            "type": "t_mapping(t_address,t_address)"
          },
          {
            "astId": 20954,
            "contract": "contracts/voyage/InitDiamond.sol:InitDiamond",
            "label": "vaultConfigMap",
            "offset": 0,
            "slot": "18",
            "type": "t_mapping(t_address,t_mapping(t_address,t_struct(VaultConfig)20787_storage))"
          },
          {
            "astId": 20958,
            "contract": "contracts/voyage/InitDiamond.sol:InitDiamond",
            "label": "marketPlaceToAsset",
            "offset": 0,
            "slot": "19",
            "type": "t_mapping(t_address,t_address)"
          },
          {
            "astId": 20963,
            "contract": "contracts/voyage/InitDiamond.sol:InitDiamond",
            "label": "erc721AssetInfo",
            "offset": 0,
            "slot": "20",
            "type": "t_mapping(t_address,t_struct(ERC721AssetInfo)20829_storage)"
          },
          {
            "astId": 20970,
            "contract": "contracts/voyage/InitDiamond.sol:InitDiamond",
            "label": "nftInfo",
            "offset": 0,
            "slot": "21",
            "type": "t_mapping(t_address,t_mapping(t_uint256,t_struct(NFTInfo)20824_storage))"
          },
          {
            "astId": 20972,
            "contract": "contracts/voyage/InitDiamond.sol:InitDiamond",
            "label": "currentVersion",
            "offset": 0,
            "slot": "22",
            "type": "t_uint256"
          },
          {
            "astId": 20977,
            "contract": "contracts/voyage/InitDiamond.sol:InitDiamond",
            "label": "snapshotMap",
            "offset": 0,
            "slot": "23",
            "type": "t_mapping(t_uint256,t_struct(Snapshot)20447_storage)"
          },
          {
            "astId": 20980,
            "contract": "contracts/voyage/InitDiamond.sol:InitDiamond",
            "label": "auth",
            "offset": 0,
            "slot": "24",
            "type": "t_struct(Authorisation)20819_storage"
          },
          {
            "astId": 20983,
            "contract": "contracts/voyage/InitDiamond.sol:InitDiamond",
            "label": "protocolFee",
            "offset": 0,
            "slot": "26",
            "type": "t_struct(ProtocolFee)20792_storage"
          },
          {
            "astId": 20986,
            "contract": "contracts/voyage/InitDiamond.sol:InitDiamond",
            "label": "upgradeParam",
            "offset": 0,
            "slot": "28",
            "type": "t_struct(UpgradeParam)20877_storage"
          }
        ],
        "numberOfBytes": "1184"
      },
      "t_struct(Authorisation)20819_storage": {
        "encoding": "inplace",
        "label": "struct Authorisation",
        "members": [
          {
            "astId": 20815,
            "contract": "contracts/voyage/InitDiamond.sol:InitDiamond",
            "label": "rbac",
            "offset": 0,
            "slot": "0",
            "type": "t_contract(DSRoles)15071"
          },
          {
            "astId": 20818,
            "contract": "contracts/voyage/InitDiamond.sol:InitDiamond",
            "label": "acl",
            "offset": 0,
            "slot": "1",
            "type": "t_contract(DSGuard)14682"
          }
        ],
        "numberOfBytes": "64"
      },
      "t_struct(BorrowData)20771_storage": {
        "encoding": "inplace",
        "label": "struct BorrowData",
        "members": [
          {
            "astId": 20753,
            "contract": "contracts/voyage/InitDiamond.sol:InitDiamond",
            "label": "paidLoanNumber",
            "offset": 0,
            "slot": "0",
            "type": "t_uint256"
          },
          {
            "astId": 20755,
            "contract": "contracts/voyage/InitDiamond.sol:InitDiamond",
            "label": "nextLoanNumber",
            "offset": 0,
            "slot": "1",
            "type": "t_uint256"
          },
          {
            "astId": 20757,
            "contract": "contracts/voyage/InitDiamond.sol:InitDiamond",
            "label": "totalPrincipal",
            "offset": 0,
            "slot": "2",
            "type": "t_uint256"
          },
          {
            "astId": 20759,
            "contract": "contracts/voyage/InitDiamond.sol:InitDiamond",
            "label": "totalInterest",
            "offset": 0,
            "slot": "3",
            "type": "t_uint256"
          },
          {
            "astId": 20761,
            "contract": "contracts/voyage/InitDiamond.sol:InitDiamond",
            "label": "mapSize",
            "offset": 0,
            "slot": "4",
            "type": "t_uint256"
          },
          {
            "astId": 20766,
            "contract": "contracts/voyage/InitDiamond.sol:InitDiamond",
            "label": "loans",
            "offset": 0,
            "slot": "5",
            "type": "t_mapping(t_uint256,t_struct(Loan)20746_storage)"
          },
          {
            "astId": 20768,
            "contract": "contracts/voyage/InitDiamond.sol:InitDiamond",
            "label": "totalPaid",
            "offset": 0,
            "slot": "6",
            "type": "t_uint256"
          },
          {
            "astId": 20770,
            "contract": "contracts/voyage/InitDiamond.sol:InitDiamond",
            "label": "totalRedeemed",
            "offset": 0,
            "slot": "7",
            "type": "t_uint256"
          }
        ],
        "numberOfBytes": "256"
      },
      "t_struct(BorrowState)20778_storage": {
        "encoding": "inplace",
        "label": "struct BorrowState",
        "members": [
          {
            "astId": 20773,
            "contract": "contracts/voyage/InitDiamond.sol:InitDiamond",
            "label": "totalDebt",
            "offset": 0,
            "slot": "0",
            "type": "t_uint256"
          },
          {
            "astId": 20775,
            "contract": "contracts/voyage/InitDiamond.sol:InitDiamond",
            "label": "totalInterest",
            "offset": 0,
            "slot": "1",
            "type": "t_uint256"
          },
          {
            "astId": 20777,
            "contract": "contracts/voyage/InitDiamond.sol:InitDiamond",
            "label": "avgBorrowRate",
            "offset": 0,
            "slot": "2",
            "type": "t_uint256"
          }
        ],
        "numberOfBytes": "96"
      },
      "t_struct(DiamondFacet)20884_storage": {
        "encoding": "inplace",
        "label": "struct DiamondFacet",
        "members": [
          {
            "astId": 20879,
            "contract": "contracts/voyage/InitDiamond.sol:InitDiamond",
            "label": "diamondCutFacet",
            "offset": 0,
            "slot": "0",
            "type": "t_address"
          },
          {
            "astId": 20881,
            "contract": "contracts/voyage/InitDiamond.sol:InitDiamond",
            "label": "diamondLoupeFacet",
            "offset": 0,
            "slot": "1",
            "type": "t_address"
          },
          {
            "astId": 20883,
            "contract": "contracts/voyage/InitDiamond.sol:InitDiamond",
            "label": "ownershipFacet",
            "offset": 0,
            "slot": "2",
            "type": "t_address"
          }
        ],
        "numberOfBytes": "96"
      },
      "t_struct(ERC721AssetInfo)20829_storage": {
        "encoding": "inplace",
        "label": "struct ERC721AssetInfo",
        "members": [
          {
            "astId": 20826,
            "contract": "contracts/voyage/InitDiamond.sol:InitDiamond",
            "label": "marketplace",
            "offset": 0,
            "slot": "0",
            "type": "t_address"
          },
          {
            "astId": 20828,
            "contract": "contracts/voyage/InitDiamond.sol:InitDiamond",
            "label": "erc20Addr",
            "offset": 0,
            "slot": "1",
            "type": "t_address"
          }
        ],
        "numberOfBytes": "64"
      },
      "t_struct(Facet)7894_storage": {
        "encoding": "inplace",
        "label": "struct IDiamondLoupe.Facet",
        "members": [
          {
            "astId": 7890,
            "contract": "contracts/voyage/InitDiamond.sol:InitDiamond",
            "label": "facetAddress",
            "offset": 0,
            "slot": "0",
            "type": "t_address"
          },
          {
            "astId": 7893,
            "contract": "contracts/voyage/InitDiamond.sol:InitDiamond",
            "label": "functionSelectors",
            "offset": 0,
            "slot": "1",
            "type": "t_array(t_bytes4)dyn_storage"
          }
        ],
        "numberOfBytes": "64"
      },
      "t_struct(FacetCut)7862_storage": {
        "encoding": "inplace",
        "label": "struct IDiamondCut.FacetCut",
        "members": [
          {
            "astId": 7855,
            "contract": "contracts/voyage/InitDiamond.sol:InitDiamond",
            "label": "facetAddress",
            "offset": 0,
            "slot": "0",
            "type": "t_address"
          },
          {
            "astId": 7858,
            "contract": "contracts/voyage/InitDiamond.sol:InitDiamond",
            "label": "action",
            "offset": 20,
            "slot": "0",
            "type": "t_enum(FacetCutAction)7853"
          },
          {
            "astId": 7861,
            "contract": "contracts/voyage/InitDiamond.sol:InitDiamond",
            "label": "functionSelectors",
            "offset": 0,
            "slot": "1",
            "type": "t_array(t_bytes4)dyn_storage"
          }
        ],
        "numberOfBytes": "64"
      },
      "t_struct(Loan)20746_storage": {
        "encoding": "inplace",
        "label": "struct Loan",
        "members": [
          {
            "astId": 20718,
            "contract": "contracts/voyage/InitDiamond.sol:InitDiamond",
            "label": "principal",
            "offset": 0,
            "slot": "0",
            "type": "t_uint256"
          },
          {
            "astId": 20720,
            "contract": "contracts/voyage/InitDiamond.sol:InitDiamond",
            "label": "interest",
            "offset": 0,
            "slot": "1",
            "type": "t_uint256"
          },
          {
            "astId": 20722,
            "contract": "contracts/voyage/InitDiamond.sol:InitDiamond",
            "label": "term",
            "offset": 0,
            "slot": "2",
            "type": "t_uint256"
          },
          {
            "astId": 20724,
            "contract": "contracts/voyage/InitDiamond.sol:InitDiamond",
            "label": "epoch",
            "offset": 0,
            "slot": "3",
            "type": "t_uint256"
          },
          {
            "astId": 20726,
            "contract": "contracts/voyage/InitDiamond.sol:InitDiamond",
            "label": "nper",
            "offset": 0,
            "slot": "4",
            "type": "t_uint256"
          },
          {
            "astId": 20729,
            "contract": "contracts/voyage/InitDiamond.sol:InitDiamond",
            "label": "pmt",
            "offset": 0,
            "slot": "5",
            "type": "t_struct(PMT)20705_storage"
          },
          {
            "astId": 20731,
            "contract": "contracts/voyage/InitDiamond.sol:InitDiamond",
            "label": "apr",
            "offset": 0,
            "slot": "8",
            "type": "t_uint256"
          },
          {
            "astId": 20733,
            "contract": "contracts/voyage/InitDiamond.sol:InitDiamond",
            "label": "borrowAt",
            "offset": 0,
            "slot": "9",
            "type": "t_uint256"
          },
          {
            "astId": 20735,
            "contract": "contracts/voyage/InitDiamond.sol:InitDiamond",
            "label": "nextPaymentDue",
            "offset": 0,
            "slot": "10",
            "type": "t_uint256"
          },
          {
            "astId": 20737,
            "contract": "contracts/voyage/InitDiamond.sol:InitDiamond",
            "label": "totalPrincipalPaid",
            "offset": 0,
            "slot": "11",
            "type": "t_uint256"
          },
          {
            "astId": 20739,
            "contract": "contracts/voyage/InitDiamond.sol:InitDiamond",
            "label": "totalInterestPaid",
            "offset": 0,
            "slot": "12",
            "type": "t_uint256"
          },
          {
            "astId": 20743,
            "contract": "contracts/voyage/InitDiamond.sol:InitDiamond",
            "label": "repayments",
            "offset": 0,
            "slot": "13",
            "type": "t_array(t_struct(RepaymentData)20716_storage)dyn_storage"
          },
          {
            "astId": 20745,
            "contract": "contracts/voyage/InitDiamond.sol:InitDiamond",
            "label": "paidTimes",
            "offset": 0,
            "slot": "14",
            "type": "t_uint256"
          }
        ],
        "numberOfBytes": "480"
      },
      "t_struct(NFTInfo)20824_storage": {
        "encoding": "inplace",
        "label": "struct NFTInfo",
        "members": [
          {
            "astId": 20821,
            "contract": "contracts/voyage/InitDiamond.sol:InitDiamond",
            "label": "price",
            "offset": 0,
            "slot": "0",
            "type": "t_uint256"
          },
          {
            "astId": 20823,
            "contract": "contracts/voyage/InitDiamond.sol:InitDiamond",
            "label": "timestamp",
            "offset": 0,
            "slot": "1",
            "type": "t_uint256"
          }
        ],
        "numberOfBytes": "64"
      },
      "t_struct(PMT)20705_storage": {
        "encoding": "inplace",
        "label": "struct PMT",
        "members": [
          {
            "astId": 20700,
            "contract": "contracts/voyage/InitDiamond.sol:InitDiamond",
            "label": "principal",
            "offset": 0,
            "slot": "0",
            "type": "t_uint256"
          },
          {
            "astId": 20702,
            "contract": "contracts/voyage/InitDiamond.sol:InitDiamond",
            "label": "interest",
            "offset": 0,
            "slot": "1",
            "type": "t_uint256"
          },
          {
            "astId": 20704,
            "contract": "contracts/voyage/InitDiamond.sol:InitDiamond",
            "label": "pmt",
            "offset": 0,
            "slot": "2",
            "type": "t_uint256"
          }
        ],
        "numberOfBytes": "96"
      },
      "t_struct(ProtocolFee)20792_storage": {
        "encoding": "inplace",
        "label": "struct ProtocolFee",
        "members": [
          {
            "astId": 20789,
            "contract": "contracts/voyage/InitDiamond.sol:InitDiamond",
            "label": "treasuryAddress",
            "offset": 0,
            "slot": "0",
            "type": "t_address"
          },
          {
            "astId": 20791,
            "contract": "contracts/voyage/InitDiamond.sol:InitDiamond",
            "label": "cutRatio",
            "offset": 0,
            "slot": "1",
            "type": "t_uint256"
          }
        ],
        "numberOfBytes": "64"
      },
      "t_struct(RepaymentData)20716_storage": {
        "encoding": "inplace",
        "label": "struct RepaymentData",
        "members": [
          {
            "astId": 20707,
            "contract": "contracts/voyage/InitDiamond.sol:InitDiamond",
            "label": "principal",
            "offset": 0,
            "slot": "0",
            "type": "t_uint256"
          },
          {
            "astId": 20709,
            "contract": "contracts/voyage/InitDiamond.sol:InitDiamond",
            "label": "interest",
            "offset": 0,
            "slot": "1",
            "type": "t_uint256"
          },
          {
            "astId": 20711,
            "contract": "contracts/voyage/InitDiamond.sol:InitDiamond",
            "label": "total",
            "offset": 0,
            "slot": "2",
            "type": "t_uint256"
          },
          {
            "astId": 20713,
            "contract": "contracts/voyage/InitDiamond.sol:InitDiamond",
            "label": "paidAt",
            "offset": 0,
            "slot": "3",
            "type": "t_uint40"
          },
          {
            "astId": 20715,
            "contract": "contracts/voyage/InitDiamond.sol:InitDiamond",
            "label": "isLiquidated",
            "offset": 5,
            "slot": "3",
            "type": "t_bool"
          }
        ],
        "numberOfBytes": "128"
      },
      "t_struct(ReserveConfigurationMap)20698_storage": {
        "encoding": "inplace",
        "label": "struct ReserveConfigurationMap",
        "members": [
          {
            "astId": 20697,
            "contract": "contracts/voyage/InitDiamond.sol:InitDiamond",
            "label": "data",
            "offset": 0,
            "slot": "0",
            "type": "t_uint256"
          }
        ],
        "numberOfBytes": "32"
      },
      "t_struct(ReserveData)20695_storage": {
        "encoding": "inplace",
        "label": "struct ReserveData",
        "members": [
          {
            "astId": 20668,
            "contract": "contracts/voyage/InitDiamond.sol:InitDiamond",
            "label": "configuration",
            "offset": 0,
            "slot": "0",
            "type": "t_struct(ReserveConfigurationMap)20698_storage"
          },
          {
            "astId": 20670,
            "contract": "contracts/voyage/InitDiamond.sol:InitDiamond",
            "label": "currentOverallLiquidityRate",
            "offset": 0,
            "slot": "1",
            "type": "t_uint256"
          },
          {
            "astId": 20672,
            "contract": "contracts/voyage/InitDiamond.sol:InitDiamond",
            "label": "currentJuniorLiquidityRate",
            "offset": 0,
            "slot": "2",
            "type": "t_uint256"
          },
          {
            "astId": 20674,
            "contract": "contracts/voyage/InitDiamond.sol:InitDiamond",
            "label": "currentSeniorLiquidityRate",
            "offset": 0,
            "slot": "3",
            "type": "t_uint256"
          },
          {
            "astId": 20676,
            "contract": "contracts/voyage/InitDiamond.sol:InitDiamond",
            "label": "currentBorrowRate",
            "offset": 0,
            "slot": "4",
            "type": "t_uint256"
          },
          {
            "astId": 20678,
            "contract": "contracts/voyage/InitDiamond.sol:InitDiamond",
            "label": "decimals",
            "offset": 0,
            "slot": "5",
            "type": "t_uint256"
          },
          {
            "astId": 20680,
            "contract": "contracts/voyage/InitDiamond.sol:InitDiamond",
            "label": "interestRateStrategyAddress",
            "offset": 0,
            "slot": "6",
            "type": "t_address"
          },
          {
            "astId": 20682,
            "contract": "contracts/voyage/InitDiamond.sol:InitDiamond",
            "label": "juniorDepositTokenAddress",
            "offset": 0,
            "slot": "7",
            "type": "t_address"
          },
          {
            "astId": 20684,
            "contract": "contracts/voyage/InitDiamond.sol:InitDiamond",
            "label": "seniorDepositTokenAddress",
            "offset": 0,
            "slot": "8",
            "type": "t_address"
          },
          {
            "astId": 20686,
            "contract": "contracts/voyage/InitDiamond.sol:InitDiamond",
            "label": "juniorLastUpdateTimestamp",
            "offset": 20,
            "slot": "8",
            "type": "t_uint40"
          },
          {
            "astId": 20688,
            "contract": "contracts/voyage/InitDiamond.sol:InitDiamond",
            "label": "seniorLastUpdateTimestamp",
            "offset": 25,
            "slot": "8",
            "type": "t_uint40"
          },
          {
            "astId": 20690,
            "contract": "contracts/voyage/InitDiamond.sol:InitDiamond",
            "label": "nftAddress",
            "offset": 0,
            "slot": "9",
            "type": "t_address"
          },
          {
            "astId": 20692,
            "contract": "contracts/voyage/InitDiamond.sol:InitDiamond",
            "label": "priceOracle",
            "offset": 0,
            "slot": "10",
            "type": "t_address"
          },
          {
            "astId": 20694,
            "contract": "contracts/voyage/InitDiamond.sol:InitDiamond",
            "label": "initialized",
            "offset": 20,
            "slot": "10",
            "type": "t_bool"
          }
        ],
        "numberOfBytes": "352"
      },
      "t_struct(Snapshot)20447_storage": {
        "encoding": "inplace",
        "label": "struct Snapshot",
        "members": [
          {
            "astId": 20442,
            "contract": "contracts/voyage/InitDiamond.sol:InitDiamond",
            "label": "facets",
            "offset": 0,
            "slot": "0",
            "type": "t_array(t_struct(Facet)7894_storage)dyn_storage"
          },
          {
            "astId": 20444,
            "contract": "contracts/voyage/InitDiamond.sol:InitDiamond",
            "label": "init",
            "offset": 0,
            "slot": "1",
            "type": "t_address"
          },
          {
            "astId": 20446,
            "contract": "contracts/voyage/InitDiamond.sol:InitDiamond",
            "label": "initArgs",
            "offset": 0,
            "slot": "2",
            "type": "t_bytes_storage"
          }
        ],
        "numberOfBytes": "96"
      },
      "t_struct(UpgradeParam)20877_storage": {
        "encoding": "inplace",
        "label": "struct UpgradeParam",
        "members": [
          {
            "astId": 20835,
            "contract": "contracts/voyage/InitDiamond.sol:InitDiamond",
            "label": "existingSelectorFacetMap",
            "offset": 0,
            "slot": "0",
            "type": "t_mapping(t_address,t_mapping(t_bytes4,t_address))"
          },
          {
            "astId": 20840,
            "contract": "contracts/voyage/InitDiamond.sol:InitDiamond",
            "label": "existingSelectors",
            "offset": 0,
            "slot": "1",
            "type": "t_mapping(t_address,t_array(t_bytes4)dyn_storage)"
          },
          {
            "astId": 20846,
            "contract": "contracts/voyage/InitDiamond.sol:InitDiamond",
            "label": "newSelectorSet",
            "offset": 0,
            "slot": "2",
            "type": "t_mapping(t_address,t_mapping(t_bytes4,t_bool))"
          },
          {
            "astId": 20851,
            "contract": "contracts/voyage/InitDiamond.sol:InitDiamond",
            "label": "newSelectors",
            "offset": 0,
            "slot": "3",
            "type": "t_mapping(t_address,t_array(t_bytes4)dyn_storage)"
          },
          {
            "astId": 20857,
            "contract": "contracts/voyage/InitDiamond.sol:InitDiamond",
            "label": "facetCuts",
            "offset": 0,
            "slot": "4",
            "type": "t_mapping(t_address,t_array(t_struct(FacetCut)7862_storage)dyn_storage)"
          },
          {
            "astId": 20861,
            "contract": "contracts/voyage/InitDiamond.sol:InitDiamond",
            "label": "facetCutSize",
            "offset": 0,
            "slot": "5",
            "type": "t_mapping(t_address,t_uint256)"
          },
          {
            "astId": 20866,
            "contract": "contracts/voyage/InitDiamond.sol:InitDiamond",
            "label": "selectorsAdded",
            "offset": 0,
            "slot": "6",
            "type": "t_mapping(t_uint256,t_array(t_bytes4)dyn_storage)"
          },
          {
            "astId": 20871,
            "contract": "contracts/voyage/InitDiamond.sol:InitDiamond",
            "label": "selectorsReplaced",
            "offset": 0,
            "slot": "7",
            "type": "t_mapping(t_uint256,t_array(t_bytes4)dyn_storage)"
          },
          {
            "astId": 20876,
            "contract": "contracts/voyage/InitDiamond.sol:InitDiamond",
            "label": "selectorsRemoved",
            "offset": 0,
            "slot": "8",
            "type": "t_mapping(t_uint256,t_array(t_bytes4)dyn_storage)"
          }
        ],
        "numberOfBytes": "288"
      },
      "t_struct(VaultConfig)20787_storage": {
        "encoding": "inplace",
        "label": "struct VaultConfig",
        "members": [
          {
            "astId": 20780,
            "contract": "contracts/voyage/InitDiamond.sol:InitDiamond",
            "label": "minMargin",
            "offset": 0,
            "slot": "0",
            "type": "t_uint256"
          },
          {
            "astId": 20782,
            "contract": "contracts/voyage/InitDiamond.sol:InitDiamond",
            "label": "maxMargin",
            "offset": 0,
            "slot": "1",
            "type": "t_uint256"
          },
          {
            "astId": 20784,
            "contract": "contracts/voyage/InitDiamond.sol:InitDiamond",
            "label": "marginRequirement",
            "offset": 0,
            "slot": "2",
            "type": "t_uint256"
          },
          {
            "astId": 20786,
            "contract": "contracts/voyage/InitDiamond.sol:InitDiamond",
            "label": "overrideGlobal",
            "offset": 0,
            "slot": "3",
            "type": "t_bool"
          }
        ],
        "numberOfBytes": "128"
      },
      "t_uint16": {
        "encoding": "inplace",
        "label": "uint16",
        "numberOfBytes": "2"
      },
      "t_uint256": {
        "encoding": "inplace",
        "label": "uint256",
        "numberOfBytes": "32"
      },
      "t_uint40": {
        "encoding": "inplace",
        "label": "uint40",
        "numberOfBytes": "5"
      }
    }
  }
}