{
  "address": "0xCe869C7Dbfd9668AD20EE20BF56A305F028a2d3D",
  "abi": [
    {
      "inputs": [],
      "name": "InvalidContract",
      "type": "error"
    },
    {
      "inputs": [],
      "name": "InvalidDecimals",
      "type": "error"
    },
    {
      "inputs": [],
      "name": "InvalidInitialize",
      "type": "error"
    },
    {
      "anonymous": false,
      "inputs": [
        {
          "indexed": true,
          "internalType": "address",
          "name": "_collection",
          "type": "address"
        },
        {
          "indexed": true,
          "internalType": "address",
          "name": "_currency",
          "type": "address"
        },
        {
          "indexed": true,
          "internalType": "address",
          "name": "_user",
          "type": "address"
        },
        {
          "indexed": false,
          "internalType": "enum Tranche",
          "name": "_tranche",
          "type": "uint8"
        },
        {
          "indexed": false,
          "internalType": "uint256",
          "name": "amount",
          "type": "uint256"
        }
      ],
      "name": "Deposit",
      "type": "event"
    },
    {
      "anonymous": false,
      "inputs": [
        {
          "indexed": true,
          "internalType": "address",
          "name": "_collection",
          "type": "address"
        }
      ],
      "name": "ReserveActivated",
      "type": "event"
    },
    {
      "anonymous": false,
      "inputs": [
        {
          "indexed": true,
          "internalType": "address",
          "name": "_collection",
          "type": "address"
        }
      ],
      "name": "ReserveInactived",
      "type": "event"
    },
    {
      "anonymous": false,
      "inputs": [
        {
          "indexed": true,
          "internalType": "address",
          "name": "_collection",
          "type": "address"
        },
        {
          "indexed": true,
          "internalType": "address",
          "name": "_currency",
          "type": "address"
        },
        {
          "indexed": false,
          "internalType": "address",
          "name": "_juniorDepositTokenAddress",
          "type": "address"
        },
        {
          "indexed": false,
          "internalType": "address",
          "name": "_seniorDepositTokenAddress",
          "type": "address"
        },
        {
          "indexed": false,
          "internalType": "address",
          "name": "_interestRateStrategyAddress",
          "type": "address"
        }
      ],
      "name": "ReserveInitialized",
      "type": "event"
    },
    {
      "anonymous": false,
      "inputs": [
        {
          "indexed": true,
          "internalType": "address",
          "name": "_collection",
          "type": "address"
        },
        {
          "indexed": true,
          "internalType": "address",
          "name": "_currency",
          "type": "address"
        },
        {
          "indexed": true,
          "internalType": "address",
          "name": "_user",
          "type": "address"
        },
        {
          "indexed": false,
          "internalType": "enum Tranche",
          "name": "_tranche",
          "type": "uint8"
        },
        {
          "indexed": false,
          "internalType": "uint256",
          "name": "amount",
          "type": "uint256"
        }
      ],
      "name": "Withdraw",
      "type": "event"
    },
    {
      "inputs": [
        {
          "internalType": "address",
          "name": "_collection",
          "type": "address"
        }
      ],
      "name": "activateReserve",
      "outputs": [],
      "stateMutability": "nonpayable",
      "type": "function"
    },
    {
      "inputs": [
        {
          "internalType": "address",
          "name": "_collection",
          "type": "address"
        },
        {
          "internalType": "address",
          "name": "_user",
          "type": "address"
        },
        {
          "internalType": "enum Tranche",
          "name": "_tranche",
          "type": "uint8"
        }
      ],
      "name": "balance",
      "outputs": [
        {
          "internalType": "uint256",
          "name": "",
          "type": "uint256"
        }
      ],
      "stateMutability": "view",
      "type": "function"
    },
    {
      "inputs": [
        {
          "internalType": "address",
          "name": "_collection",
          "type": "address"
        }
      ],
      "name": "deactivateReserve",
      "outputs": [],
      "stateMutability": "nonpayable",
      "type": "function"
    },
    {
      "inputs": [
        {
          "internalType": "address",
          "name": "_collection",
          "type": "address"
        },
        {
          "internalType": "enum Tranche",
          "name": "_tranche",
          "type": "uint8"
        },
        {
          "internalType": "uint256",
          "name": "_amount",
          "type": "uint256"
        }
      ],
      "name": "deposit",
      "outputs": [],
      "stateMutability": "nonpayable",
      "type": "function"
    },
    {
      "inputs": [
        {
          "internalType": "address",
          "name": "_currency",
          "type": "address"
        }
      ],
      "name": "getReserveFlags",
      "outputs": [
        {
          "internalType": "bool",
          "name": "",
          "type": "bool"
        },
        {
          "internalType": "bool",
          "name": "",
          "type": "bool"
        },
        {
          "internalType": "bool",
          "name": "",
          "type": "bool"
        }
      ],
      "stateMutability": "view",
      "type": "function"
    },
    {
      "inputs": [
        {
          "internalType": "address",
          "name": "_collection",
          "type": "address"
        }
      ],
      "name": "getReserveStatus",
      "outputs": [
        {
          "internalType": "bool",
          "name": "initialized",
          "type": "bool"
        },
        {
          "internalType": "bool",
          "name": "activated",
          "type": "bool"
        }
      ],
      "stateMutability": "view",
      "type": "function"
    },
    {
      "inputs": [
        {
          "internalType": "address",
          "name": "_collection",
          "type": "address"
        },
        {
          "internalType": "address",
          "name": "_currency",
          "type": "address"
        },
        {
          "internalType": "address",
          "name": "_interestRateStrategyAddress",
          "type": "address"
        },
        {
          "internalType": "address",
          "name": "_priceOracle",
          "type": "address"
        }
      ],
      "name": "initReserve",
      "outputs": [],
      "stateMutability": "nonpayable",
      "type": "function"
    },
    {
      "inputs": [
        {
          "internalType": "address",
          "name": "_collection",
          "type": "address"
        },
        {
          "internalType": "address",
          "name": "_user",
          "type": "address"
        },
        {
          "internalType": "enum Tranche",
          "name": "_tranche",
          "type": "uint8"
        }
      ],
      "name": "unbonding",
      "outputs": [
        {
          "internalType": "uint256",
          "name": "",
          "type": "uint256"
        }
      ],
      "stateMutability": "view",
      "type": "function"
    },
    {
      "inputs": [
        {
          "internalType": "address",
          "name": "_treasuryAddr",
          "type": "address"
        },
        {
          "internalType": "uint40",
          "name": "_cutRatio",
          "type": "uint40"
        }
      ],
      "name": "updateProtocolFee",
      "outputs": [],
      "stateMutability": "nonpayable",
      "type": "function"
    },
    {
      "inputs": [
        {
          "internalType": "address",
          "name": "_weth9",
          "type": "address"
        }
      ],
      "name": "updateWETH9",
      "outputs": [],
      "stateMutability": "nonpayable",
      "type": "function"
    },
    {
      "inputs": [
        {
          "internalType": "address",
          "name": "_collection",
          "type": "address"
        },
        {
          "internalType": "address",
          "name": "_priceOracle",
          "type": "address"
        }
      ],
      "name": "upgradePriceOracleImpl",
      "outputs": [],
      "stateMutability": "nonpayable",
      "type": "function"
    },
    {
      "inputs": [
        {
          "internalType": "address",
          "name": "_collection",
          "type": "address"
        },
        {
          "internalType": "address",
          "name": "_currency",
          "type": "address"
        }
      ],
      "name": "utilizationRate",
      "outputs": [
        {
          "internalType": "uint256",
          "name": "",
          "type": "uint256"
        }
      ],
      "stateMutability": "view",
      "type": "function"
    },
    {
      "inputs": [
        {
          "internalType": "address",
          "name": "_collection",
          "type": "address"
        },
        {
          "internalType": "enum Tranche",
          "name": "_tranche",
          "type": "uint8"
        },
        {
          "internalType": "uint256",
          "name": "_amount",
          "type": "uint256"
        }
      ],
      "name": "withdraw",
      "outputs": [],
      "stateMutability": "nonpayable",
      "type": "function"
    }
  ],
  "args": [],
  "numDeployments": 1,
  "solcInputHash": "61a98dd47a56fbe64984f78de53b81aa",
  "bytecode": "0x608060405234801561001057600080fd5b506001600055613335806100256000396000f3fe60806040523480156200001157600080fd5b5060043610620000f15760003560e01c80638bd256771162000097578063c800ac38116200006e578063c800ac3814620001fa578063ca545abf1462000211578063d0e2c9a11462000240578063e8484a0f146200025757600080fd5b80638bd256771462000195578063b36484d814620001ac578063b75d6f3414620001e357600080fd5b80633e72a45411620000cc5780633e72a45414620001505780634f71c59714620001675780638b46b812146200017e57600080fd5b8063044641eb14620000f657806308d0c6db146200010f57806321b3aad31462000126575b600080fd5b6200010d6200010736600462001ff7565b6200026e565b005b6200010d620001203660046200203a565b6200064e565b6200013d6200013736600462002078565b62000760565b6040519081526020015b60405180910390f35b6200010d62000161366004620020c6565b62000777565b6200013d6200017836600462002078565b62000813565b6200010d6200018f366004620020c6565b62000822565b6200010d620001a6366004620020ed565b620008d9565b620001c3620001bd366004620020c6565b62000b26565b604080519315158452911515602084015215159082015260600162000147565b6200010d620001f4366004620020c6565b62000bb4565b6200010d6200020b36600462002152565b62000c50565b6200022862000222366004620020c6565b62000d0f565b60408051921515835290151560208301520162000147565b6200013d620002513660046200203a565b62000d8b565b6200010d6200026836600462001ff7565b6200103c565b60026000541415620002c75760405162461bcd60e51b815260206004820152601f60248201527f5265656e7472616e637947756172643a207265656e7472616e742063616c6c0060448201526064015b60405180910390fd5b600260008181556001600160a01b0385811682527fcefae263aa054db53617928bc915f31f052caa2df6a635924d36f37f8c9c519660209081526040808420815161018081018352815461016082019081528152600180830154948201949094529581015491860191909152600381015483166060860152600481015483166080860152600581015480841660a087015264ffffffffff600160a01b808304821660c0890152600160c81b9092041660e08701526006820154841661010087015260079091015492831661012086015260ff92049190911615156101408401528490811115620003bb57620003bb6200218e565b15620003cc578160a00151620003d2565b81608001515b6040517fce96cb770000000000000000000000000000000000000000000000000000000081523360048201529091506000906001600160a01b0383169063ce96cb779060240160206040518083038186803b1580156200043157600080fd5b505afa15801562000446573d6000803e3d6000fd5b505050506040513d601f19601f820116820180604052508101906200046c9190620021a4565b9050836000198114156200047d5750805b81811115620004cf5760405162461bcd60e51b815260206004820152601160248201527f496e76616c69645769746864726177616c0000000000000000000000000000006044820152606401620002be565b6001600160a01b0387811660009081527fcefae263aa054db53617928bc915f31f052caa2df6a635924d36f37f8c9c519a60209081526040808320610100890151909416835292905290812060018101548154919291620005319190620021d4565b60028301546040517fb460af940000000000000000000000000000000000000000000000000000000081526004810186905233602482018190526044820152919250906001600160a01b0387169063b460af9490606401602060405180830381600087803b158015620005a357600080fd5b505af1158015620005b8573d6000803e3d6000fd5b505050506040513d601f19601f82011682018060405250810190620005de9190620021a4565b50336001600160a01b03168761010001516001600160a01b03168b6001600160a01b03167fa8a123ea5cae0711547d46a3a035a38367ccf85323682b495033ff8157d2a43c8c8860405162000635929190620021ef565b60405180910390a4505060016000555050505050505050565b62000658620013b2565b620006a65760405162461bcd60e51b815260206004820152601660248201527f63616c6c206973206e6f7420617574686f7269736564000000000000000000006044820152606401620002be565b6001600160a01b03821660009081527fcefae263aa054db53617928bc915f31f052caa2df6a635924d36f37f8c9c51966020526040812060078101546040517f3659cfe60000000000000000000000000000000000000000000000000000000081526001600160a01b038581166004830152929350911690633659cfe690602401600060405180830381600087803b1580156200074257600080fd5b505af115801562000757573d6000803e3d6000fd5b50505050505050565b60006200076f84848462001413565b949350505050565b62000781620013b2565b620007cf5760405162461bcd60e51b815260206004820152601660248201527f63616c6c206973206e6f7420617574686f7269736564000000000000000000006044820152606401620002be565b620007dc816000620015cb565b6040516001600160a01b038216907f16558600916d62e970a75f9036efe19866e5adb68839668f0d8b0c54f062bda790600090a250565b60006200076f848484620016a9565b6200082c620013b2565b6200087a5760405162461bcd60e51b815260206004820152601660248201527f63616c6c206973206e6f7420617574686f7269736564000000000000000000006044820152606401620002be565b7fcefae263aa054db53617928bc915f31f052caa2df6a635924d36f37f8c9c519880546001600160a01b03831662010000027fffffffffffffffffffff0000000000000000000000000000000000000000ffff90911617905550565b50565b620008e3620013b2565b620009315760405162461bcd60e51b815260206004820152601660248201527f63616c6c206973206e6f7420617574686f7269736564000000000000000000006044820152606401620002be565b6001600160a01b0384163b15806200095157506001600160a01b0383163b155b1562000989576040517f6eefed2000000000000000000000000000000000000000000000000000000000815260040160405180910390fd5b6001600160a01b03841660009081527fcefae263aa054db53617928bc915f31f052caa2df6a635924d36f37f8c9c5196602052604090206007810154600160a01b900460ff161562000a07576040517fcfebf28e00000000000000000000000000000000000000000000000000000000815260040160405180910390fd5b62000a158185858562001808565b7fcefae263aa054db53617928bc915f31f052caa2df6a635924d36f37f8c9c5198805461ffff90811660009081527fcefae263aa054db53617928bc915f31f052caa2df6a635924d36f37f8c9c519760205260408120805473ffffffffffffffffffffffffffffffffffffffff19166001600160a01b038a161790558254909116919062000aa3836200221c565b825461ffff9182166101009390930a92830291909202199091161790555060048101546005820154604080516001600160a01b039384168152918316602083015285831690820152858216918716907f3a0ca721fc364424566385a1aa271ed508cc2c0949c2272575fb3013a163a45f9060600160405180910390a35050505050565b600080600062000ba762000b878560408051602080820183526000918290526001600160a01b039390931681527fcefae263aa054db53617928bc915f31f052caa2df6a635924d36f37f8c9c51968352819020815192830190915254815290565b516301000000811615159163020000008216151591630400000016151590565b9250925092509193909250565b62000bbe620013b2565b62000c0c5760405162461bcd60e51b815260206004820152601660248201527f63616c6c206973206e6f7420617574686f7269736564000000000000000000006044820152606401620002be565b62000c19816001620015cb565b6040516001600160a01b038216907f35b80cd8ea3440e9a8454f116fa658b858da1b64c86c48451f4559cefcdfb56c90600090a250565b62000c5a620013b2565b62000ca85760405162461bcd60e51b815260206004820152601660248201527f63616c6c206973206e6f7420617574686f7269736564000000000000000000006044820152606401620002be565b7fcefae263aa054db53617928bc915f31f052caa2df6a635924d36f37f8c9c51a9805464ffffffffff8316600160a01b027fffffffffffffff000000000000000000000000000000000000000000000000009091166001600160a01b038516171790555050565b6001600160a01b03811660008181527fcefae263aa054db53617928bc915f31f052caa2df6a635924d36f37f8c9c5196602081815260408084206007810154825180850184528690529585529282528051918201905290548152600160a01b90920460ff169162000d809062000b87565b509294909350915050565b6001600160a01b03811660009081527fcefae263aa054db53617928bc915f31f052caa2df6a635924d36f37f8c9c519660205260408120819060408051610180810182528254610160820190815281526001830154602082015260028301549181019190915260038201546001600160a01b039081166060830152600483015481166080830152600583015480821660a084015264ffffffffff600160a01b808304821660c0860152600160c81b9092041660e08401526006840154821661010084015260079093015490811661012083015260ff9290049190911615156101408201529050600062000e9b7fcefae263aa054db53617928bc915f31f052caa2df6a635924d36f37f8c9c519390565b6001600160a01b03808716600090815260079290920160209081526040808420928816845291905281206001810154815491935062000eda91620021d4565b905060008360a001516001600160a01b031663350fd0be6040518163ffffffff1660e01b815260040160206040518083038186803b15801562000f1c57600080fd5b505afa15801562000f31573d6000803e3d6000fd5b505050506040513d601f19601f8201168201806040525081019062000f579190620021a4565b60a08501516040517f70a082310000000000000000000000000000000000000000000000000000000081526001600160a01b03918216600482015291925060009183918916906370a082319060240160206040518083038186803b15801562000fbf57600080fd5b505afa15801562000fd4573d6000803e3d6000fd5b505050506040513d601f19601f8201168201806040525081019062000ffa9190620021a4565b62001006919062002241565b905082156200102d57620010276200101f8483620021d4565b849062001c6b565b62001030565b60005b98975050505050505050565b60026000541415620010915760405162461bcd60e51b815260206004820152601f60248201527f5265656e7472616e637947756172643a207265656e7472616e742063616c6c006044820152606401620002be565b600260008181556001600160a01b0385811682527fcefae263aa054db53617928bc915f31f052caa2df6a635924d36f37f8c9c519660209081526040808420815161018081018352815461016082019081528152600180830154948201949094529581015491860191909152600381015483166060860152600481015483166080860152600581015480841660a087015264ffffffffff600160a01b808304821660c0890152600160c81b9092041660e08701526006820154841661010087015260079091015492831661012086015260ff9204919091161515610140840152819085908111156200118757620011876200218e565b1462001198578160a001516200119e565b81608001515b9050306001600160a01b031663d26aaa3e826001600160a01b03166338d52e0f6040518163ffffffff1660e01b815260040160206040518083038186803b158015620011e957600080fd5b505afa158015620011fe573d6000803e3d6000fd5b505050506040513d601f19601f820116820180604052508101906200122491906200225b565b6040517fffffffff0000000000000000000000000000000000000000000000000000000060e084901b1681526001600160a01b03909116600482015260248101869052336044820152306064820152608401600060405180830381600087803b1580156200129157600080fd5b505af1158015620012a6573d6000803e3d6000fd5b50506040517f6e553f65000000000000000000000000000000000000000000000000000000008152600481018690523360248201526001600160a01b0384169250636e553f659150604401602060405180830381600087803b1580156200130c57600080fd5b505af115801562001321573d6000803e3d6000fd5b505050506040513d601f19601f82011682018060405250810190620013479190620021a4565b50336001600160a01b03168261010001516001600160a01b0316866001600160a01b03167fc552204986f9c40c2e06fbb236c412914b65880d2047ca21ff2b3b5a28d5357387876040516200139e929190620021ef565b60405180910390a450506001600055505050565b60006200140e7fcefae263aa054db53617928bc915f31f052caa2df6a635924d36f37f8c9c51a5620013e362001cae565b6000357fffffffff000000000000000000000000000000000000000000000000000000001662001d21565b905090565b6001600160a01b03831660009081527fcefae263aa054db53617928bc915f31f052caa2df6a635924d36f37f8c9c51966020526040812081906040805161018081018252825461016082019081528152600180840154602083015260028401549282019290925260038301546001600160a01b039081166060830152600484015481166080830152600584015480821660a084015264ffffffffff600160a01b808304821660c0860152600160c81b9092041660e08401526006850154821661010084015260079094015490811661012083015260ff93900492909216151561014083015290915060009084908111156200151257620015126200218e565b62001523575060808101516200152a565b5060a08101515b6040517fced4cd2e0000000000000000000000000000000000000000000000000000000081526001600160a01b03868116600483015282169063ced4cd2e906024015b60206040518083038186803b1580156200158657600080fd5b505afa1580156200159b573d6000803e3d6000fd5b505050506040513d601f19601f82011682018060405250810190620015c19190620021a4565b9695505050505050565b6001600160a01b0382163b6200160d576040517f6eefed2000000000000000000000000000000000000000000000000000000000815260040160405180910390fd5b60408051602080820183526000918290526001600160a01b03851682527fcefae263aa054db53617928bc915f31f052caa2df6a635924d36f37f8c9c519681528282208351918201909352915482525062001669818362001eba565b6001600160a01b03831660009081527fcefae263aa054db53617928bc915f31f052caa2df6a635924d36f37f8c9c51966020526040902081519055505050565b6001600160a01b03831660009081527fcefae263aa054db53617928bc915f31f052caa2df6a635924d36f37f8c9c51966020526040812081906040805161018081018252825461016082019081528152600180840154602083015260028401549282019290925260038301546001600160a01b039081166060830152600484015481166080830152600584015480821660a084015264ffffffffff600160a01b808304821660c0860152600160c81b9092041660e08401526006850154821661010084015260079094015490811661012083015260ff9390049290921615156101408301529091506000908490811115620017a857620017a86200218e565b620017b957506080810151620017c0565b5060a08101515b6040517fce96cb770000000000000000000000000000000000000000000000000000000081526001600160a01b03868116600483015282169063ce96cb77906024016200156d565b60058401546001600160a01b03161580156200182f575060048401546001600160a01b0316155b6200187d5760405162461bcd60e51b815260206004820152601f60248201527f6465706f73697420746f6b656e7320616c7265616479206465706c6f796564006044820152606401620002be565b60408051602080820183528654825282517f313ce56700000000000000000000000000000000000000000000000000000000815292517fcefae263aa054db53617928bc915f31f052caa2df6a635924d36f37f8c9c51939387939262001951926001600160a01b0386169263313ce567926004808301939192829003018186803b1580156200190b57600080fd5b505afa15801562001920573d6000803e3d6000fd5b505050506040513d601f19601f820116820180604052508101906200194691906200227b565b829060ff1662001f01565b80518755604080513060248201526001600160a01b038881166044808401919091528351808403909101815260649092019092526020810180517bffffffffffffffffffffffffffffffffffffffffffffffffffffffff167f485cc9550000000000000000000000000000000000000000000000000000000017905260018501549091620019e191168262001f6c565b60058901805473ffffffffffffffffffffffffffffffffffffffff19166001600160a01b039283169081179091556040517f095ea7b3000000000000000000000000000000000000000000000000000000008152600481019190915260001960248201529084169063095ea7b390604401602060405180830381600087803b15801562001a6d57600080fd5b505af115801562001a82573d6000803e3d6000fd5b505050506040513d601f19601f8201168201806040525081019062001aa89190620022a0565b50600284015462001ac3906001600160a01b03168262001f6c565b6004898101805473ffffffffffffffffffffffffffffffffffffffff19166001600160a01b039384169081179091556040517f095ea7b30000000000000000000000000000000000000000000000000000000081529182015260001960248201529084169063095ea7b390604401602060405180830381600087803b15801562001b4c57600080fd5b505af115801562001b61573d6000803e3d6000fd5b505050506040513d601f19601f8201168201806040525081019062001b879190620022a0565b506003880180546001600160a01b03881673ffffffffffffffffffffffffffffffffffffffff199091161790556007880180547fffffffffffffffffffffff00ffffffffffffffffffffffffffffffffffffffff16600160a01b179055604051859062001bf49062001fb0565b6001600160a01b039091168152602001604051809103906000f08015801562001c21573d6000803e3d6000fd5b5060078901805473ffffffffffffffffffffffffffffffffffffffff199081166001600160a01b039384161790915560069099018054909916971696909617909655505050505050565b60008062001c7b600284620022c4565b90508262001c966b033b2e3c9fd0803ce800000086620022e7565b62001ca29083620021d4565b6200076f9190620022c4565b60006014361080159062001ceb57507fcefae263aa054db53617928bc915f31f052caa2df6a635924d36f37f8c9c51a7546001600160a01b031633145b1562001d1c57507fffffffffffffffffffffffffffffffffffffffffffffffffffffffffffffffec36013560601c90565b503390565b82546040517fb70096130000000000000000000000000000000000000000000000000000000081526001600160a01b0384811660048301523060248301527fffffffff0000000000000000000000000000000000000000000000000000000084166044830152600092169063b70096139060640160206040518083038186803b15801562001dae57600080fd5b505afa15801562001dc3573d6000803e3d6000fd5b505050506040513d601f19601f8201168201806040525081019062001de99190620022a0565b806200076f575060018401546040517fb70096130000000000000000000000000000000000000000000000000000000081526001600160a01b0385811660048301523060248301527fffffffff00000000000000000000000000000000000000000000000000000000851660448301529091169063b70096139060640160206040518083038186803b15801562001e7f57600080fd5b505afa15801562001e94573d6000803e3d6000fd5b505050506040513d601f19601f820116820180604052508101906200076f9190620022a0565b60188162001eca57600062001ecd565b60015b83517ffffffffffffffffffffffffffffffffffffffffffffffffffffffffffeffffff1660ff9190911690911b1790915250565b60ff81111562001f3d576040517fd25598a000000000000000000000000000000000000000000000000000000000815260040160405180910390fd5b81517fffffffffffffffffffffffffffffffffffffffffffffffffffffffffff00ffff1660109190911b179052565b6000828260405162001f7e9062001fbe565b62001f8b92919062002309565b604051809103906000f08015801562001fa8573d6000803e3d6000fd5b509392505050565b610545806200239183390190565b610a2a80620028d683390190565b6001600160a01b0381168114620008d657600080fd5b80356002811062001ff257600080fd5b919050565b6000806000606084860312156200200d57600080fd5b83356200201a8162001fcc565b92506200202a6020850162001fe2565b9150604084013590509250925092565b600080604083850312156200204e57600080fd5b82356200205b8162001fcc565b915060208301356200206d8162001fcc565b809150509250929050565b6000806000606084860312156200208e57600080fd5b83356200209b8162001fcc565b92506020840135620020ad8162001fcc565b9150620020bd6040850162001fe2565b90509250925092565b600060208284031215620020d957600080fd5b8135620020e68162001fcc565b9392505050565b600080600080608085870312156200210457600080fd5b8435620021118162001fcc565b93506020850135620021238162001fcc565b92506040850135620021358162001fcc565b91506060850135620021478162001fcc565b939692955090935050565b600080604083850312156200216657600080fd5b8235620021738162001fcc565b9150602083013564ffffffffff811681146200206d57600080fd5b634e487b7160e01b600052602160045260246000fd5b600060208284031215620021b757600080fd5b5051919050565b634e487b7160e01b600052601160045260246000fd5b60008219821115620021ea57620021ea620021be565b500190565b60408101600284106200221257634e487b7160e01b600052602160045260246000fd5b9281526020015290565b600061ffff80831681811415620022375762002237620021be565b6001019392505050565b600082821015620022565762002256620021be565b500390565b6000602082840312156200226e57600080fd5b8151620020e68162001fcc565b6000602082840312156200228e57600080fd5b815160ff81168114620020e657600080fd5b600060208284031215620022b357600080fd5b81518015158114620020e657600080fd5b600082620022e257634e487b7160e01b600052601260045260246000fd5b500490565b6000816000190483118215151615620023045762002304620021be565b500290565b6001600160a01b038316815260006020604081840152835180604085015260005b8181101562002348578581018301518582016060015282016200232a565b818111156200235b576000606083870101525b50601f017fffffffffffffffffffffffffffffffffffffffffffffffffffffffffffffffe0169290920160600194935050505056fe608060405234801561001057600080fd5b5060405161054538038061054583398101604081905261002f91610151565b61003833610047565b61004181610097565b50610181565b600080546001600160a01b038381166001600160a01b0319831681178455604051919092169283917f8be0079c531659141344cd1fd0a4f28419497f9722a3daafe3b4186f6b6457e09190a35050565b6100aa8161014260201b6101c71760201c565b6101205760405162461bcd60e51b815260206004820152603360248201527f5570677261646561626c65426561636f6e3a20696d706c656d656e746174696f60448201527f6e206973206e6f74206120636f6e747261637400000000000000000000000000606482015260840160405180910390fd5b600180546001600160a01b0319166001600160a01b0392909216919091179055565b6001600160a01b03163b151590565b60006020828403121561016357600080fd5b81516001600160a01b038116811461017a57600080fd5b9392505050565b6103b5806101906000396000f3fe608060405234801561001057600080fd5b50600436106100675760003560e01c8063715018a611610050578063715018a6146100aa5780638da5cb5b146100b2578063f2fde38b146100c357600080fd5b80633659cfe61461006c5780635c60da1b14610081575b600080fd5b61007f61007a36600461034f565b6100d6565b005b6001546001600160a01b03165b6040516001600160a01b03909116815260200160405180910390f35b61007f61011e565b6000546001600160a01b031661008e565b61007f6100d136600461034f565b610132565b6100de6101d6565b6100e781610230565b6040516001600160a01b038216907fbc7cd75a20ee27fd9adebab32041f755214dbc6bffa90cc0225b39da2e5c2d3b90600090a250565b6101266101d6565b61013060006102e7565b565b61013a6101d6565b6001600160a01b0381166101bb5760405162461bcd60e51b815260206004820152602660248201527f4f776e61626c653a206e6577206f776e657220697320746865207a65726f206160448201527f646472657373000000000000000000000000000000000000000000000000000060648201526084015b60405180910390fd5b6101c4816102e7565b50565b6001600160a01b03163b151590565b6000546001600160a01b031633146101305760405162461bcd60e51b815260206004820181905260248201527f4f776e61626c653a2063616c6c6572206973206e6f7420746865206f776e657260448201526064016101b2565b6001600160a01b0381163b6102ad5760405162461bcd60e51b815260206004820152603360248201527f5570677261646561626c65426561636f6e3a20696d706c656d656e746174696f60448201527f6e206973206e6f74206120636f6e74726163740000000000000000000000000060648201526084016101b2565b600180547fffffffffffffffffffffffff0000000000000000000000000000000000000000166001600160a01b0392909216919091179055565b600080546001600160a01b038381167fffffffffffffffffffffffff0000000000000000000000000000000000000000831681178455604051919092169283917f8be0079c531659141344cd1fd0a4f28419497f9722a3daafe3b4186f6b6457e09190a35050565b60006020828403121561036157600080fd5b81356001600160a01b038116811461037857600080fd5b939250505056fea264697066735822122003faeb45c60cd8360d42695011766d23e632697ebba2f40c230eb0bd2e6784b064736f6c63430008090033608060405260405162000a2a38038062000a2a8339810160408190526200002691620004aa565b62000034828260006200003c565b5050620005e9565b620000478362000121565b6040516001600160a01b038416907f1cf3b03a6cf19fa2baba4df148e9dcabedea7f8a5c07840e207e5c089be95d3e90600090a2600082511180620000895750805b156200011c576200011a836001600160a01b0316635c60da1b6040518163ffffffff1660e01b815260040160206040518083038186803b158015620000cd57600080fd5b505afa158015620000e2573d6000803e3d6000fd5b505050506040513d601f19601f8201168201806040525081019062000108919062000578565b83620002e360201b620000291760201c565b505b505050565b62000137816200031260201b620000551760201c565b620001975760405162461bcd60e51b815260206004820152602560248201527f455243313936373a206e657720626561636f6e206973206e6f74206120636f6e6044820152641d1c9858dd60da1b60648201526084015b60405180910390fd5b62000221816001600160a01b0316635c60da1b6040518163ffffffff1660e01b815260040160206040518083038186803b158015620001d557600080fd5b505afa158015620001ea573d6000803e3d6000fd5b505050506040513d601f19601f8201168201806040525081019062000210919062000578565b6200031260201b620000551760201c565b620002885760405162461bcd60e51b815260206004820152603060248201527f455243313936373a20626561636f6e20696d706c656d656e746174696f6e206960448201526f1cc81b9bdd08184818dbdb9d1c9858dd60821b60648201526084016200018e565b80620002c27fa3f0ad74e5423aebfd80d3ef4346578335a9a72aeaee59ff6cb3582b35133d5060001b6200032160201b620000711760201c565b80546001600160a01b0319166001600160a01b039290921691909117905550565b60606200030b838360405180606001604052806027815260200162000a036027913962000324565b9392505050565b6001600160a01b03163b151590565b90565b60606001600160a01b0384163b6200038e5760405162461bcd60e51b815260206004820152602660248201527f416464726573733a2064656c65676174652063616c6c20746f206e6f6e2d636f6044820152651b9d1c9858dd60d21b60648201526084016200018e565b600080856001600160a01b031685604051620003ab919062000596565b600060405180830381855af49150503d8060008114620003e8576040519150601f19603f3d011682016040523d82523d6000602084013e620003ed565b606091505b509092509050620004008282866200040a565b9695505050505050565b606083156200041b5750816200030b565b8251156200042c5782518084602001fd5b8160405162461bcd60e51b81526004016200018e9190620005b4565b80516001600160a01b03811681146200046057600080fd5b919050565b634e487b7160e01b600052604160045260246000fd5b60005b83811015620004985781810151838201526020016200047e565b838111156200011a5750506000910152565b60008060408385031215620004be57600080fd5b620004c98362000448565b60208401519092506001600160401b0380821115620004e757600080fd5b818501915085601f830112620004fc57600080fd5b81518181111562000511576200051162000465565b604051601f8201601f19908116603f011681019083821181831017156200053c576200053c62000465565b816040528281528860208487010111156200055657600080fd5b620005698360208301602088016200047b565b80955050505050509250929050565b6000602082840312156200058b57600080fd5b6200030b8262000448565b60008251620005aa8184602087016200047b565b9190910192915050565b6020815260008251806020840152620005d58160408501602087016200047b565b601f01601f19169190910160400192915050565b61040a80620005f96000396000f3fe60806040523661001357610011610017565b005b6100115b610027610022610074565b610136565b565b606061004e83836040518060600160405280602781526020016103ae6027913961015a565b9392505050565b73ffffffffffffffffffffffffffffffffffffffff163b151590565b90565b60006100b47fa3f0ad74e5423aebfd80d3ef4346578335a9a72aeaee59ff6cb3582b35133d505473ffffffffffffffffffffffffffffffffffffffff1690565b73ffffffffffffffffffffffffffffffffffffffff16635c60da1b6040518163ffffffff1660e01b815260040160206040518083038186803b1580156100f957600080fd5b505afa15801561010d573d6000803e3d6000fd5b505050506040513d601f19601f8201168201806040525081019061013191906102da565b905090565b3660008037600080366000845af43d6000803e808015610155573d6000f35b3d6000fd5b606073ffffffffffffffffffffffffffffffffffffffff84163b610205576040517f08c379a000000000000000000000000000000000000000000000000000000000815260206004820152602660248201527f416464726573733a2064656c65676174652063616c6c20746f206e6f6e2d636f60448201527f6e7472616374000000000000000000000000000000000000000000000000000060648201526084015b60405180910390fd5b6000808573ffffffffffffffffffffffffffffffffffffffff168560405161022d9190610340565b600060405180830381855af49150503d8060008114610268576040519150601f19603f3d011682016040523d82523d6000602084013e61026d565b606091505b509150915061027d828286610287565b9695505050505050565b6060831561029657508161004e565b8251156102a65782518084602001fd5b816040517f08c379a00000000000000000000000000000000000000000000000000000000081526004016101fc919061035c565b6000602082840312156102ec57600080fd5b815173ffffffffffffffffffffffffffffffffffffffff8116811461004e57600080fd5b60005b8381101561032b578181015183820152602001610313565b8381111561033a576000848401525b50505050565b60008251610352818460208701610310565b9190910192915050565b602081526000825180602084015261037b816040850160208701610310565b601f017fffffffffffffffffffffffffffffffffffffffffffffffffffffffffffffffe016919091016040019291505056fe416464726573733a206c6f772d6c6576656c2064656c65676174652063616c6c206661696c6564a2646970667358221220be28ef223eef64e5fa547e5d5c9cd8eabe825cdda9ccb4118360c3fe9929523b64736f6c63430008090033416464726573733a206c6f772d6c6576656c2064656c65676174652063616c6c206661696c6564a2646970667358221220aac29ddb49d6382f06bcf4eb99c1e3d9ed8093a7e7a41ff1737eafe585b2671264736f6c63430008090033",
  "devdoc": {
    "kind": "dev",
    "methods": {},
    "version": 1
  },
  "userdoc": {
    "kind": "user",
    "methods": {},
    "version": 1
  },
  "storageLayout": {
    "storage": [
      {
        "astId": 4557,
        "contract": "contracts/voyage/facets/LiquidityFacet.sol:LiquidityFacet",
        "label": "_status",
        "offset": 0,
        "slot": "0",
        "type": "t_uint256"
      }
    ],
    "types": {
      "t_uint256": {
        "encoding": "inplace",
        "label": "uint256",
        "numberOfBytes": "32"
      }
    }
  }
}