{
  "address": "0x60D4D14777063d7372BfFC82519cD652c5fC46CE",
  "abi": [
    {
      "inputs": [],
      "name": "InsufficientCreditLimit",
      "type": "error"
    },
    {
      "inputs": [],
      "name": "InsufficientLiquidity",
      "type": "error"
    },
    {
      "inputs": [],
      "name": "InvalidDebt",
      "type": "error"
    },
    {
      "inputs": [],
      "name": "InvalidFloorPrice",
      "type": "error"
    },
    {
      "inputs": [],
      "name": "InvalidLiquidate",
      "type": "error"
    },
    {
      "inputs": [],
      "name": "InvalidPrincipal",
      "type": "error"
    },
    {
      "inputs": [],
      "name": "InvalidValueTransfered",
      "type": "error"
    },
    {
      "inputs": [
        {
          "internalType": "uint256",
          "name": "",
          "type": "uint256"
        }
      ],
      "name": "PRBMathUD60x18__LogInputTooSmall",
      "type": "error"
    },
    {
      "inputs": [],
      "name": "Unauthorised",
      "type": "error"
    },
    {
      "anonymous": false,
      "inputs": [
        {
          "indexed": true,
          "internalType": "address",
          "name": "_vault",
          "type": "address"
        },
        {
          "indexed": true,
          "internalType": "address",
          "name": "_collection",
          "type": "address"
        },
        {
          "indexed": true,
          "internalType": "address",
          "name": "_currency",
          "type": "address"
        },
        {
          "indexed": false,
          "internalType": "uint256",
          "name": "_loanId",
          "type": "uint256"
        },
        {
          "indexed": false,
          "internalType": "uint256",
          "name": "_principal",
          "type": "uint256"
        },
        {
          "indexed": false,
          "internalType": "uint256",
          "name": "_interest",
          "type": "uint256"
        },
        {
          "indexed": false,
          "internalType": "uint256",
          "name": "_apr",
          "type": "uint256"
        }
      ],
      "name": "Borrow",
      "type": "event"
    },
    {
      "anonymous": false,
      "inputs": [
        {
          "indexed": false,
          "internalType": "address",
          "name": "collection",
          "type": "address"
        },
        {
          "indexed": false,
          "internalType": "address",
          "name": "from",
          "type": "address"
        },
        {
          "indexed": false,
          "internalType": "address",
          "name": "to",
          "type": "address"
        },
        {
          "indexed": false,
          "internalType": "uint256[]",
          "name": "collaterals",
          "type": "uint256[]"
        }
      ],
      "name": "CollateralTransferred",
      "type": "event"
    },
    {
      "anonymous": false,
      "inputs": [
        {
          "indexed": true,
          "internalType": "address",
          "name": "_liquidator",
          "type": "address"
        },
        {
          "indexed": true,
          "internalType": "address",
          "name": "_vault",
          "type": "address"
        },
        {
          "indexed": true,
          "internalType": "address",
          "name": "_collection",
          "type": "address"
        },
        {
          "indexed": false,
          "internalType": "uint256",
          "name": "_drowDownId",
          "type": "uint256"
        },
        {
          "indexed": false,
          "internalType": "uint256",
          "name": "_repaymentId",
          "type": "uint256"
        },
        {
          "indexed": false,
          "internalType": "uint256",
          "name": "_debt",
          "type": "uint256"
        },
        {
          "indexed": false,
          "internalType": "uint256",
          "name": "_fromJuniorTranche",
          "type": "uint256"
        },
        {
          "indexed": false,
          "internalType": "uint256",
          "name": "_amountToWriteDown",
          "type": "uint256"
        }
      ],
      "name": "Liquidate",
      "type": "event"
    },
    {
      "anonymous": false,
      "inputs": [
        {
          "indexed": true,
          "internalType": "address",
          "name": "_user",
          "type": "address"
        },
        {
          "indexed": true,
          "internalType": "address",
          "name": "_vault",
          "type": "address"
        },
        {
          "indexed": true,
          "internalType": "address",
          "name": "_collection",
          "type": "address"
        },
        {
          "indexed": false,
          "internalType": "address",
          "name": "_currency",
          "type": "address"
        },
        {
          "indexed": false,
          "internalType": "uint256",
          "name": "_loanId",
          "type": "uint256"
        },
        {
          "indexed": false,
          "internalType": "uint256",
          "name": "_repaymentId",
          "type": "uint256"
        },
        {
          "indexed": false,
          "internalType": "uint256",
          "name": "_amount",
          "type": "uint256"
        },
        {
          "indexed": false,
          "internalType": "bool",
          "name": "isFinal",
          "type": "bool"
        }
      ],
      "name": "Repayment",
      "type": "event"
    },
    {
      "inputs": [],
      "name": "TEN_THOUSANDS",
      "outputs": [
        {
          "internalType": "uint256",
          "name": "",
          "type": "uint256"
        }
      ],
      "stateMutability": "view",
      "type": "function"
    },
    {
      "inputs": [
        {
          "internalType": "address",
          "name": "_collection",
          "type": "address"
        },
        {
          "internalType": "uint256",
          "name": "_tokenId",
          "type": "uint256"
        },
        {
          "internalType": "address payable",
          "name": "_vault",
          "type": "address"
        },
        {
          "internalType": "address",
          "name": "_marketplace",
          "type": "address"
        },
        {
          "internalType": "bytes",
          "name": "_data",
          "type": "bytes"
        }
      ],
      "name": "buyNow",
      "outputs": [],
      "stateMutability": "payable",
      "type": "function"
    },
    {
      "inputs": [
        {
          "internalType": "address",
          "name": "_collection",
          "type": "address"
        },
        {
          "internalType": "address",
          "name": "_vault",
          "type": "address"
        }
      ],
      "name": "getVaultDebt",
      "outputs": [
        {
          "internalType": "uint256",
          "name": "",
          "type": "uint256"
        },
        {
          "internalType": "uint256",
          "name": "",
          "type": "uint256"
        }
      ],
      "stateMutability": "view",
      "type": "function"
    },
    {
      "inputs": [
        {
          "internalType": "address",
          "name": "_collection",
          "type": "address"
        }
      ],
      "name": "interestBalance",
      "outputs": [
        {
          "internalType": "uint256",
          "name": "",
          "type": "uint256"
        }
      ],
      "stateMutability": "view",
      "type": "function"
    },
    {
      "inputs": [
        {
          "internalType": "address",
          "name": "_collection",
          "type": "address"
        },
        {
          "internalType": "address",
          "name": "_vault",
          "type": "address"
        },
        {
          "internalType": "uint256",
          "name": "_loanId",
          "type": "uint256"
        }
      ],
      "name": "liquidate",
      "outputs": [],
      "stateMutability": "nonpayable",
      "type": "function"
    },
    {
      "inputs": [
        {
          "internalType": "address",
          "name": "_collection",
          "type": "address"
        },
        {
          "internalType": "uint256",
          "name": "_amount",
          "type": "uint256"
        }
      ],
      "name": "previewBuyNowParams",
      "outputs": [
        {
          "components": [
            {
              "internalType": "address",
              "name": "collection",
              "type": "address"
            },
            {
              "internalType": "address",
              "name": "marketplace",
              "type": "address"
            },
            {
              "internalType": "uint256",
              "name": "tokenId",
              "type": "uint256"
            },
            {
              "internalType": "address",
              "name": "vault",
              "type": "address"
            },
            {
              "internalType": "uint256",
              "name": "totalPrincipal",
              "type": "uint256"
            },
            {
              "internalType": "uint256",
              "name": "totalInterest",
              "type": "uint256"
            },
            {
              "internalType": "uint256",
              "name": "totalDebt",
              "type": "uint256"
            },
            {
              "internalType": "uint256",
              "name": "outstandingPrincipal",
              "type": "uint256"
            },
            {
              "internalType": "uint256",
              "name": "outstandingInterest",
              "type": "uint256"
            },
            {
              "internalType": "uint256",
              "name": "outstandingDebt",
              "type": "uint256"
            },
            {
              "internalType": "uint256",
              "name": "fv",
              "type": "uint256"
            },
            {
              "internalType": "uint256",
              "name": "timestamp",
              "type": "uint256"
            },
            {
              "internalType": "uint256",
              "name": "term",
              "type": "uint256"
            },
            {
              "internalType": "uint256",
              "name": "epoch",
              "type": "uint256"
            },
            {
              "internalType": "uint256",
              "name": "nper",
              "type": "uint256"
            },
            {
              "internalType": "uint256",
              "name": "downpayment",
              "type": "uint256"
            },
            {
              "internalType": "uint256",
              "name": "liquidityRate",
              "type": "uint256"
            },
            {
              "internalType": "uint256",
              "name": "borrowRate",
              "type": "uint256"
            },
            {
              "internalType": "uint256",
              "name": "availableLiquidity",
              "type": "uint256"
            },
            {
              "internalType": "uint256",
              "name": "totalBalance",
              "type": "uint256"
            },
            {
              "internalType": "uint256",
              "name": "totalPending",
              "type": "uint256"
            },
            {
              "internalType": "uint256",
              "name": "loanId",
              "type": "uint256"
            },
            {
              "components": [
                {
                  "internalType": "uint256",
                  "name": "principal",
                  "type": "uint256"
                },
                {
                  "internalType": "uint256",
                  "name": "interest",
                  "type": "uint256"
                },
                {
                  "internalType": "uint256",
                  "name": "pmt",
                  "type": "uint256"
                }
              ],
              "internalType": "struct PMT",
              "name": "pmt",
              "type": "tuple"
            }
          ],
          "internalType": "struct LoanFacet.ExecuteBuyNowParams",
          "name": "",
          "type": "tuple"
        }
      ],
      "stateMutability": "view",
      "type": "function"
    },
    {
      "inputs": [
        {
          "internalType": "address",
          "name": "_collection",
          "type": "address"
        }
      ],
      "name": "principalBalance",
      "outputs": [
        {
          "internalType": "uint256",
          "name": "",
          "type": "uint256"
        }
      ],
      "stateMutability": "view",
      "type": "function"
    },
    {
      "inputs": [
        {
          "internalType": "address",
          "name": "_collection",
          "type": "address"
        },
        {
          "internalType": "uint256",
          "name": "_loan",
          "type": "uint256"
        },
        {
          "internalType": "address payable",
          "name": "_vault",
          "type": "address"
        }
      ],
      "name": "repay",
      "outputs": [],
      "stateMutability": "nonpayable",
      "type": "function"
    }
  ],
  "transactionHash": "0xc976a06d254e08cba2ad69f8eaa8628857aa76e6b176b2e847edc62c5284b05f",
  "args": [],
  "numDeployments": 1,
  "solcInputHash": "c9e2852726c34147f2de6a7208824664",
  "bytecode": "0x60a060405261271060805234801561001657600080fd5b5060805161429d610031600039600060d4015261429d6000f3fe60806040526004361061007b5760003560e01c8063bcd859e61161004e578063bcd859e61461013e578063cc8400481461016b578063e68fc0ee14610295578063f5fe1bb4146103c257600080fd5b806326c01303146100805780635ceae9c4146100a25780637a935d6e146100c25780638a0695fd14610109575b600080fd5b34801561008c57600080fd5b506100a061009b366004613c22565b6103d5565b005b3480156100ae57600080fd5b506100a06100bd366004613c63565b610f1b565b3480156100ce57600080fd5b506100f67f000000000000000000000000000000000000000000000000000000000000000081565b6040519081526020015b60405180910390f35b34801561011557600080fd5b50610129610124366004613ca5565b6112d7565b60408051928352602083019190915201610100565b34801561014a57600080fd5b5061015e610159366004613cde565b61141f565b6040516101009190613d0a565b34801561017757600080fd5b506100f6610186366004613e49565b6001600160a01b0390811660008181527fcefae263aa054db53617928bc915f31f052caa2df6a635924d36f37f8c9c51966020908152604080832081516101808101835281546101608201908152815260018083015482860152600283015482850152600383015488166060830152600483015488166080830152600583015480891660a084015264ffffffffff600160a01b808304821660c0860152600160c81b9092041660e084015260068401548916610100840181905260079094015498891661012084015260ff9804979097161515610140909101529383527fcefae263aa054db53617928bc915f31f052caa2df6a635924d36f37f8c9c519a825280832093835292905220015490565b3480156102a157600080fd5b506100f66102b0366004613e49565b6001600160a01b0390811660008181527fcefae263aa054db53617928bc915f31f052caa2df6a635924d36f37f8c9c519660209081526040808320815161018081018352815461016082019081528152600182015481850152600282015481840152600382015487166060820152600482015487166080820152600582015480881660a083015264ffffffffff600160a01b808304821660c0850152600160c81b9092041660e083015260068301548816610100830181905260079093015497881661012083015260ff9704969096161515610140909601959095529282527fcefae263aa054db53617928bc915f31f052caa2df6a635924d36f37f8c9c519a81528282209382529290925290205490565b6100a06103d0366004613e66565b6116ab565b7fcefae263aa054db53617928bc915f31f052caa2df6a635924d36f37f8c9c519b5460ff161561044c5760405162461bcd60e51b815260206004820152601060248201527f5061757361626c653a207061757365640000000000000000000000000000000060448201526064015b60405180910390fd5b610523604051806102e0016040528060006001600160a01b0316815260200160006001600160a01b0316815260200160006001600160a01b03168152602001600081526020016000815260200160008152602001600081526020016000815260200160008152602001600081526020016000815260200160008152602001600081526020016000815260200160006001600160a01b03168152602001600081526020016000815260200160008152602001600081526020016000815260200160008152602001600081526020016000151581525090565b6001600160a01b0384811680835260009081527fcefae263aa054db53617928bc915f31f052caa2df6a635924d36f37f8c9c51966020818152604080842081516101808101835281546101608201908152815260018201548185015260028201548184015260038201548716606080830191909152600483015488166080830152600583015480891660a084015264ffffffffff600160a01b808304821660c0860152600160c81b9092041660e0840152600684015489166101008401819052600790940154808a1661012085015260ff9190041615156101408301528489019290925287518351808601855287905287168652938352938190208151928301825254825293871693850193909352908301849052906106416122d5565b6001600160a01b03166101c0840152805161ffff811690609c1c60ff16610220850152610240840152825160208401516040850151606086015160009361068b9390929091612346565b9050806101200151421115806106c35750620151808461022001516106b09190613f2f565b6101208201516106c09042613f4e565b11155b156106fa576040517f4283aca500000000000000000000000000000000000000000000000000000000815260040160405180910390fd5b61012083015184516040517f3d47d2270000000000000000000000000000000000000000000000000000000081526001600160a01b03918216600482015290821690633d47d22790602401604080518083038186803b15801561075c57600080fd5b505afa158015610770573d6000803e3d6000fd5b505050506040513d601f19601f820116820180604052508101906107949190613f65565b6102008701526101e086018190526107d8576040517fbd84c8ab00000000000000000000000000000000000000000000000000000000815260040160405180910390fd5b845160208087015160408089015160608a01516001600160a01b0395861660009081527fcefae263aa054db53617928bc915f31f052caa2df6a635924d36f37f8c9c5199865283812094871681529385528284209590911683529383528082209382526005938401909252209081015460069091015460c087015260a0860181905260e086018190526101008601526101e085015161024086015161087d9190612493565b61012086018190526101e08601516108959190613f4e565b8561014001818152505060006108bd86600001518760200151886040015189606001516124b4565b9050600081518761014001516108d39190613f2f565b6101c088015160208901519192506108f6916001600160a01b03169030846126aa565b80876101a0018181516109099190613f89565b90525060005b8251811015610a625760006323b872dd60e01b90506000818a604001518b6101c0015187868151811061094457610944613fa1565b602002602001015160405160200161097d939291906001600160a01b039384168152919092166020820152604081019190915260600190565b60408051601f198184030181529082905261099b9291602001613fe3565b604051602081830303815290604052905060008a60000151826040516020016109c5929190614057565b60408051601f19818403018152908290527f55f8650100000000000000000000000000000000000000000000000000000000825291506001600160a01b038e16906355f8650190610a1a908490600401614079565b600060405180830381600087803b158015610a3457600080fd5b505af1158015610a48573d6000803e3d6000fd5b505050505050508080610a5a9061408c565b91505061090f565b507fd962e6df5bdd4ce87790a1227be78c10db04edf19dbf9499f903ad20e610896287600001518860400151896101c0015185604051610aa594939291906140a7565b60405180910390a1808760e001511115610ad457808760e00151610ac99190613f4e565b610100880152610ba6565b60008760e0015182610ae69190613f4e565b60208901516040808b015190517fa9059cbb0000000000000000000000000000000000000000000000000000000081526001600160a01b03918216600482015260248101849052929350169063a9059cbb90604401602060405180830381600087803b158015610b5557600080fd5b505af1158015610b69573d6000803e3d6000fd5b505050506040513d601f19601f82011682018060405250810190610b8d9190614113565b5080886101a001818151610ba19190613f4e565b905250505b61010087015115610d7b5785608001516001600160a01b03166301e1d1146040518163ffffffff1660e01b815260040160206040518083038186803b158015610bee57600080fd5b505afa158015610c02573d6000803e3d6000fd5b505050506040513d601f19601f82011682018060405250810190610c269190614135565b6102a0880181905261010088015111610cce576080860151610100880151604051634efecaa560e01b815230600482015260248101919091526001600160a01b0390911690634efecaa590604401600060405180830381600087803b158015610c8e57600080fd5b505af1158015610ca2573d6000803e3d6000fd5b5050505061010087015161018088018190526101a088018051610cc6908390613f89565b905250610d7b565b60808601516102a0880151604051634efecaa560e01b815230600482015260248101919091526001600160a01b0390911690634efecaa590604401600060405180830381600087803b158015610d2357600080fd5b505af1158015610d37573d6000803e3d6000fd5b505050506102a087015161018088018190526101a088018051610d5b908390613f89565b9052506102a0870151610100880151610d749190613f4e565b6102808801525b610d978760000151886020015189604001518a60600151612761565b15156102c08901526080880152865160408801516001600160a01b039182169116610dc06122d5565b6001600160a01b03167f55e5b05f9c04dc83acdd02d65dd9895ed44041625004ad61c4977959b40a4ed38a602001518b606001518c608001518d60e001518e6102c00151604051610e409594939291906001600160a01b039590951685526020850193909352604084019190915260608301521515608082015260a00190565b60405180910390a4610e738660a00151886101a0015189602001516001600160a01b0316612c4f9092919063ffffffff16565b86602001516001600160a01b0316896001600160a01b0316610e936122d5565b6001600160a01b03167fb0dbe18c6ffdf0da655dd690e77211d379205c497be44c64447c3f5f021b51678a606001518b608001518c60e001518d61018001518e6102800151604051610f07959493929190948552602085019390935260408401919091526060830152608082015260a00190565b60405180910390a450505050505050505050565b7fcefae263aa054db53617928bc915f31f052caa2df6a635924d36f37f8c9c519b5460ff1615610f8d5760405162461bcd60e51b815260206004820152601060248201527f5061757361626c653a20706175736564000000000000000000000000000000006044820152606401610443565b610fb86040518060800160405280600081526020016000815260200160008152602001600081525090565b6001600160a01b03841660009081527fcefae263aa054db53617928bc915f31f052caa2df6a635924d36f37f8c9c51966020526040812060408051610180810182528254610160820190815281526001830154602082015260028301549181019190915260038201546001600160a01b039081166060830152600483015481166080830152600583015480821660a084015264ffffffffff600160a01b808304821660c0860152600160c81b9092041660e08401526006840154821661010084015260079093015480821661012084015260ff939004929092161515610140820152915083166110e66110a96122d5565b6001600160a01b0390811660009081527fcefae263aa054db53617928bc915f31f052caa2df6a635924d36f37f8c9c51a260205260409020541690565b6001600160a01b031614611126576040517fd7a2ae6a00000000000000000000000000000000000000000000000000000000815260040160405180910390fd5b6101008101516001600160a01b0386811660009081527fcefae263aa054db53617928bc915f31f052caa2df6a635924d36f37f8c9c5199602090815260408083209484168352938152838220928716825291825282812087825260059081018352929020918201546006909201549084018190528184526111a691613f89565b6111dc576040517fd49e030600000000000000000000000000000000000000000000000000000000815260040160405180910390fd5b602082015182516111ed9190613f89565b82604001818152505060008061120a878461010001518789612761565b9150915061122483856020015161121f6122d5565b612c9d565b61124d61122f6122d5565b60a085015186516101008701516001600160a01b03169291906126aa565b866001600160a01b0316856001600160a01b03166112696122d5565b61010086015160408089015181516001600160a01b039384168152602081018d9052918201889052606082015285151560808201529116907f55e5b05f9c04dc83acdd02d65dd9895ed44041625004ad61c4977959b40a4ed39060a00160405180910390a450505050505050565b6000806000611319856001600160a01b031660009081527fcefae263aa054db53617928bc915f31f052caa2df6a635924d36f37f8c9c51966020526040902090565b60408051610180810182528254610160820190815281526001830154602080830191909152600280850154838501526003808601546001600160a01b039081166060860152600487015481166080860152600587015480821660a087015264ffffffffff600160a01b808304821660c0890152600160c81b9092041660e087015260068801548216610100870181905260079098015480831661012088015260ff9190041615156101409095019490945299831660009081527fcefae263aa054db53617928bc915f31f052caa2df6a635924d36f37f8c9c5199835284812095815294825283852098909216845296909652902093840154939094015492949293505050565b611427613a02565b61142f613a02565b6001600160a01b03841660009081527fcefae263aa054db53617928bc915f31f052caa2df6a635924d36f37f8c9c5196602052604081206040805161018081018252825461016082019081528152600183015460208083019190915260028401548284015260038401546001600160a01b039081166060840152600485015481166080840152600585015480821660a085015264ffffffffff600160a01b808304821660c0870152600160c81b9092041660e08501526006860154821661010085015260079095015480821661012085015260ff9590049490941615156101408301528251808201845260009081905293891684527fcefae263aa054db53617928bc915f31f052caa2df6a635924d36f37f8c9c5196815282842083519182019093529154825292508051608c81901c61ffff1661018086015260841c60ff166101a08501526101008301516001600160a01b0388811660009081527fcefae263aa054db53617928bc915f31f052caa2df6a635924d36f37f8c9c519a602090815260408083209390941682529190915290812091925090606084015161010085015160a0860151835460028501546040517f81c8c9720000000000000000000000000000000000000000000000000000000081526001600160a01b039485166004820152928416602484015260006044840152606483018c9052608483019190915260a482015292935016906381c8c9729060c401604080518083038186803b15801561165c57600080fd5b505afa158015611670573d6000803e3d6000fd5b505050506040513d601f19601f820116820180604052508101906116949190613f65565b610220860152610200850152509195945050505050565b7fcefae263aa054db53617928bc915f31f052caa2df6a635924d36f37f8c9c519b5460ff161561171d5760405162461bcd60e51b815260206004820152601060248201527f5061757361626c653a20706175736564000000000000000000000000000000006044820152606401610443565b611725613a02565b6001600160a01b038781168083526040808401899052878316606080860191825288851660208088019190915260009485527fcefae263aa054db53617928bc915f31f052caa2df6a635924d36f37f8c9c519681528385208451610180810186528154610160820190815281526001820154818401526002820154818701526003820154881693810193909352600481015487166080840152600581015480881660a085015264ffffffffff600160a01b808304821660c0870152600160c81b9092041660e085015260068201548816610100850181905260079092015480891661012086015260ff9190041615156101408401528751871686527fcefae263aa054db53617928bc915f31f052caa2df6a635924d36f37f8c9c519a8252848620908652905291909220915190921661185f6110a96122d5565b6001600160a01b03161461189f576040517fd7a2ae6a00000000000000000000000000000000000000000000000000000000815260040160405180910390fd5b6040517fff40e1b4000000000000000000000000000000000000000000000000000000008152309063ff40e1b4906118df90899089908990600401614179565b60206040518083038186803b1580156118f757600080fd5b505afa15801561190b573d6000803e3d6000fd5b505050506040513d601f19601f8201168201806040525081019061192f9190614135565b608084015261012082015183516040517f3d47d2270000000000000000000000000000000000000000000000000000000081526001600160a01b039182166004820152911690633d47d22790602401604080518083038186803b15801561199557600080fd5b505afa1580156119a9573d6000803e3d6000fd5b505050506040513d601f19601f820116820180604052508101906119cd9190613f65565b6101608501526101408401819052611a11576040517fbd84c8ab00000000000000000000000000000000000000000000000000000000815260040160405180910390fd5b82608001518361014001511015611a54576040517fdfee2c0b00000000000000000000000000000000000000000000000000000000815260040160405180910390fd5b825160408051602080820183526000918290526001600160a01b0390931681527fcefae263aa054db53617928bc915f31f052caa2df6a635924d36f37f8c9c51968352819020815192830190915254808252608c81901c61ffff16610180860181905260849190911c60ff166101a08601819052611ad1916141a5565b6101c0850152606083015161010084015160a085015160e0870151855460028701546040517f81c8c9720000000000000000000000000000000000000000000000000000000081526001600160a01b0395861660048201529385166024850152600060448501526064840192909252608483015260a48201529116906381c8c9729060c401604080518083038186803b158015611b6d57600080fd5b505afa158015611b81573d6000803e3d6000fd5b505050506040513d601f19601f82011682018060405250810190611ba59190613f65565b610220860181905261020086019190915284516101008501516040870151606088015160808901516101808a01516101a08b0151611be297612d6e565b60a08701526102c086018190526102a086019190915260408101516101e0860152516080850151611c139190613f4e565b60e08501526102c08401516020015160a0850151611c319190613f4e565b610100850181905260e0850151611c489190613f89565b846101200181815250506000611c7285606001518660000151866101000151886101400151613287565b9050846101200151811015611cb3576040517f7ecb632e00000000000000000000000000000000000000000000000000000000815260040160405180910390fd5b8360a001516001600160a01b031663350fd0be6040518163ffffffff1660e01b815260040160206040518083038186803b158015611cf057600080fd5b505afa158015611d04573d6000803e3d6000fd5b505050506040513d601f19601f82011682018060405250810190611d289190614135565b61028086015261010084015160a08501516040517f70a082310000000000000000000000000000000000000000000000000000000081526001600160a01b0391821660048201529116906370a082319060240160206040518083038186803b158015611d9357600080fd5b505afa158015611da7573d6000803e3d6000fd5b505050506040513d601f19601f82011682018060405250810190611dcb9190614135565b61026086015260408051808201909152600a81527f63757272656e63793a20000000000000000000000000000000000000000000006020820152610100850151611e15919061334d565b611e586040518060400160405280601d81526020017f73656e696f72206465706f73697420746f6b656e416464726573733a200000008152508560a0015161334d565b611e9c6040518060400160405280600981526020017f62616c616e63653a2000000000000000000000000000000000000000000000008152508661026001516133c4565b8461028001518561026001511115611ecb57846102800151856102600151611ec49190613f4e565b6102408601525b8460e001518561024001511015611f0e576040517fbb55fd2700000000000000000000000000000000000000000000000000000000815260040160405180910390fd5b34856101e001511115611f4d57611f48333034886101e00151611f319190613f4e565b6101008801516001600160a01b03169291906126aa565b611f8b565b34856101e0015114611f8b576040517f7baac84400000000000000000000000000000000000000000000000000000000815260040160405180910390fd5b6000611fc07fcefae263aa054db53617928bc915f31f052caa2df6a635924d36f37f8c9c519360190154608088015190613437565b9050612005337fcefae263aa054db53617928bc915f31f052caa2df6a635924d36f37f8c9c5193601801546101008801516001600160a01b03908116929116846126aa565b60a085015160e0870151604051634efecaa560e01b815230600482015260248101919091526001600160a01b0390911690634efecaa590604401600060405180830381600087803b15801561205957600080fd5b505af115801561206d573d6000803e3d6000fd5b5050505060e08601516040517f49404b7c00000000000000000000000000000000000000000000000000000000815260048101919091523060248201819052906349404b7c90604401600060405180830381600087803b1580156120d057600080fd5b505af11580156120e4573d6000803e3d6000fd5b505050506120fa8660600151876080015161347a565b855161010086015160608801516102a08901516001600160a01b0393841660009081527fcefae263aa054db53617928bc915f31f052caa2df6a635924d36f37f8c9c519960209081526040808320958716835294815284822095909316815293825282842090845260059081019091529120908101546006909101546102c08801516020808201929092529190915286015160608701516040517f318c8a05000000000000000000000000000000000000000000000000000000008152309263318c8a05926121cf928d908d906004016141c7565b600060405180830381600087803b1580156121e957600080fd5b505af11580156121fd573d6000803e3d6000fd5b5050505061221f86600001518661010001518860600151896102a00151612761565b505061223785876102c001516020015161121f6122d5565b8461010001516001600160a01b031686600001516001600160a01b031687606001516001600160a01b03167f445cc7189b699aba312bd54ce4e386e25919e7992981f28a29855412132fce9c896102a001518a608001518b60a001518c61022001516040516122bf949392919093845260208401929092526040830152606082015260800190565b60405180910390a4505050505050505050505050565b60006014361080159061231157507fcefae263aa054db53617928bc915f31f052caa2df6a635924d36f37f8c9c51a9546001600160a01b031633145b1561234157507fffffffffffffffffffffffffffffffffffffffffffffffffffffffffffffffec36013560601c90565b503390565b61234e613aec565b6001600160a01b0385811660009081527fcefae263aa054db53617928bc915f31f052caa2df6a635924d36f37f8c9c519960209081526040808320888516845282528083209387168352928152828220858352600581019091529190207fcefae263aa054db53617928bc915f31f052caa2df6a635924d36f37f8c9c519391906123d6613aec565b8154815260018201546020808301919091526002830154604080840191909152600384015460608085019190915260048501546080850152815190810182526005850154815260068501549281019290925260078401549082015260c0820152600882015460e08201526009820154610100820152600a820154610120820152600c820154610160820152600b820154610140820152600e909101546101808201526001600160a01b03871660a082015292505050949350505050565b6000806124a08484613437565b90506124ac8482613f4e565b949350505050565b606060006124c38686866134d5565b6000848152600582016020908152604091829020600f81018054845181850281018501909552808552949550909390929183919083018282801561252657602002820191906000526020600020905b815481526020019060010190808311612512575b5050505050935060005b815481101561260f576001600160a01b03891660009081527fcefae263aa054db53617928bc915f31f052caa2df6a635924d36f37f8c9c51a460205260408120835490919084908490811061258757612587613fa1565b60009182526020808320909101548352820192909252604001812080547fffffffffffffffffffffff000000000000000000000000000000000000000000168155600181018290556002810180547fffffffffffffffffffffffff000000000000000000000000000000000000000016905560030155806126078161408c565b915050612530565b5060008581526005808501602052604082208281556001810183905560028101839055600381018390556004810183905590810182905560068101829055600781018290556008810182905560098101829055600a8101829055600b8101829055600c810182905590612685600d830182613b7f565b600e820160009055600f8201600061269d9190613ba3565b5050505050949350505050565b6040516001600160a01b038085166024830152831660448201526064810182905261275b9085907f23b872dd00000000000000000000000000000000000000000000000000000000906084015b60408051601f198184030181529190526020810180517bffffffffffffffffffffffffffffffffffffffffffffffffffffffff167fffffffff000000000000000000000000000000000000000000000000000000009093169290921790915261352b565b50505050565b6000806127ce60405180610120016040528060006001600160a01b0316815260200160006001600160a01b031681526020016000815260200160006001600160a01b0316815260200160008152602001600081526020016000815260200160008152602001600081525090565b6001600160a01b0380881680835287821660208401819052918716606084018190526000928392612801929091906134d5565b83516020808601516001600160a01b0392831660009081527fcefae263aa054db53617928bc915f31f052caa2df6a635924d36f37f8c9c519a835260408082209490921681529282528083208a8452600585019092528220600e810180549495509193909260019291612875908490613f89565b90915550506004810154600e8201541415612a2557600f810160005b81548110156129435786516001600160a01b031660009081527fcefae263aa054db53617928bc915f31f052caa2df6a635924d36f37f8c9c51a460205260408120835482908590859081106128e8576128e8613fa1565b6000918252602080832091909101548352820192909252604001902080547fffffffffffffffffffffffffffffffffffffffffffffffffffffffffffffff00169115159190911790558061293b8161408c565b915050612891565b5060008981526005808601602052604082208281556001810183905560028101839055600381018390556004810183905590810182905560068101829055600781018290556008810182905560098101829055600a8101829055600b8101829055600c8101829055906129b9600d830182613b7f565b600e820160009055600f820160006129d19190613ba3565b505060608601516001600160a01b0316600090815260038401602052604090205460019550612a009086613f89565b60608701516001600160a01b0316600090815260038501602052604090205550612b48565b6005810154600b820154612a399190613f89565b600b8201556006810154600c820154612a529190613f89565b600c8201556040805160a08101825260009181018290526060810182905260808101919091526006820154602082018190526005830154808352612a969190613f89565b6040820190815264ffffffffff42811660608401908152600d850180546001818101835560009283526020928390208751600490930201918255918601519181019190915592516002840155516003928301805460808601511515650100000000000265ffffffffffff199091169290931691909117919091179055820154600e8301546201518091612b2891613f2f565b612b329190613f2f565b8260090154612b419190613f89565b600a830155505b60058101546002840154612b5c9190613f4e565b600284015560068101546003840154612b759190613f4e565b6003840155600581015482541415612b935760006002830155612bef565b60088101546005820154600091612baa9190613610565b60028401548454612bba91613610565b612bc49190613f4e565b60058301548454919250600091612bdb9190613f4e565b9050612be78282613654565b600285015550505b60058101548254612c009190613f4e565b825560a08501516001830154612c169190613f4e565b6001830155600d81015415612c3b57600d810154612c3690600190613f4e565b612c3e565b60005b9b939a509298505050505050505050565b6040516001600160a01b038316602482015260448101829052612c989084907fa9059cbb00000000000000000000000000000000000000000000000000000000906064016126f7565b505050565b6000612d09612cfe85610100015160408051602080820183526000918290526001600160a01b039390931681527fcefae263aa054db53617928bc915f31f052caa2df6a635924d36f37f8c9c51968352819020815192830190915254815290565b5160741c61ffff1690565b90506000612d178483613437565b60a0860151610100870151919250612d3b916001600160a01b0316908590846126aa565b612d678386608001518387612d509190613f4e565b6101008901516001600160a01b03169291906126aa565b5050505050565b6000612d9460405180606001604052806000815260200160008152602001600081525090565b6000612e0060405180610120016040528060006001600160a01b0316815260200160006001600160a01b031681526020016000815260200160006001600160a01b0316815260200160008152602001600081526020016000815260200160008152602001600081525090565b6001600160a01b038c81168083528c8216602080850182905260408086018f9052938d166060860152608085018c905260c085018b905260e085018a9052610100850189905260009283527fcefae263aa054db53617928bc915f31f052caa2df6a635924d36f37f8c9c519a81528383209183525290812090506000612e938360000151846020015185606001516134d5565b6001810154600081815260058301602052604090206080860151815560c0860151600282015560e08601516003820155610100860151600882015591925090612edf620151808b613f2f565b612eec620151808d613f2f565b612ef691906141a5565b60048201554260098201556003810154600090612f17906201518090613f2f565b612f25906301e133806141a5565b905060008183600401548460080154612f3e9190613f2f565b612f4891906141a5565b8354909150612f579082613610565b6001840155604080516060810182526000808252602082018190529181019190915260048401548454612f8a91906141a5565b815260048401546001850154612fa091906141a5565b602082018190528151612fb39190613f89565b6040808301829052825160058701556020808401516006880155600787019290925589810151600f8701805460018101825560009182528482200191909155815160a08101835281815292830181905290820181905260608201819052608082015288516001600160a01b039081166020838101919091526040808c0151908401528a01511660608201526080808a01519082015260018152807fcefae263aa054db53617928bc915f31f052caa2df6a635924d36f37f8c9c51938a516001600160a01b03908116600090815260119290920160209081526040808420818f0151855282529283902084518154928601517fffffffffffffffffffffff0000000000000000000000000000000000000000009093169015157fffffffffffffffffffffff0000000000000000000000000000000000000000ff1617610100928416929092029190911781559183015160018084019190915560608401516002840180547fffffffffffffffffffffffff0000000000000000000000000000000000000000169190931617909155608090920151600391820155860154600e87015462015180926131639190613f89565b61316d9190613f2f565b6131779190613f2f565b85600901546131869190613f89565b600a86015560018701805490600061319d8361408c565b90915550506004870180549060006131b48361408c565b91905055508f87600201546131c99190613f89565b6002880155600185015460038801546131e29190613f89565b6003880155600885015485546000916131fb9190613610565b60028a01548a5461320b91613610565b6132159190613f89565b86548a549192506000916132299190613f89565b90506132358282613654565b60028b015586548a546132489190613f89565b8a55600180880154908b015461325e9190613f89565b60019a8b0155505050929095015492985090965090945050505050985098509895505050505050565b6001600160a01b0383811660009081527fcefae263aa054db53617928bc915f31f052caa2df6a635924d36f37f8c9c519a6020908152604080832086851684528252808320938816835260039093019052908120547fcefae263aa054db53617928bc915f31f052caa2df6a635924d36f37f8c9c5193908261330a826001613f89565b61331c90670de0b6b3a7640000613f2f565b905060006133298261368f565b613334906001613f89565b90506133408187613f2f565b9998505050505050505050565b6133c082826040516024016133639291906141fe565b60408051601f198184030181529190526020810180517bffffffffffffffffffffffffffffffffffffffffffffffffffffffff167f319af33300000000000000000000000000000000000000000000000000000000179052613758565b5050565b6133c082826040516024016133da929190614229565b60408051601f198184030181529190526020810180517bffffffffffffffffffffffffffffffffffffffffffffffffffffffff167f9710a9d000000000000000000000000000000000000000000000000000000000179052613758565b600081157fffffffffffffffffffffffffffffffffffffffffffffffffffffffffffffec778390048411151761346c57600080fd5b506127109102611388010490565b600080600080600085875af1905080612c985760405162461bcd60e51b815260206004820152601360248201527f4554485f5452414e534645525f4641494c4544000000000000000000000000006044820152606401610443565b6001600160a01b0383811660009081527fcefae263aa054db53617928bc915f31f052caa2df6a635924d36f37f8c9c519960209081526040808320868516845282528083209385168352929052205b9392505050565b6000613580826040518060400160405280602081526020017f5361666545524332303a206c6f772d6c6576656c2063616c6c206661696c6564815250856001600160a01b03166137799092919063ffffffff16565b805190915015612c98578080602001905181019061359e9190614113565b612c985760405162461bcd60e51b815260206004820152602a60248201527f5361666545524332303a204552433230206f7065726174696f6e20646964206e60448201527f6f742073756363656564000000000000000000000000000000000000000000006064820152608401610443565b60006b033b2e3c9fd0803ce80000006136298385613f2f565b61364060026b033b2e3c9fd0803ce80000006141a5565b61364a9190613f89565b61352491906141a5565b6000806136626002846141a5565b90508261367b6b033b2e3c9fd0803ce800000086613f2f565b6136859083613f89565b6124ac91906141a5565b6000670de0b6b3a76400008210156136d6576040517fd88504dc00000000000000000000000000000000000000000000000000000000815260048101839052602401610443565b60006136eb670de0b6b3a76400008404613788565b670de0b6b3a7640000808202935090915083821c9081141561370e575050919050565b6706f05b59d3b200005b801561375057670de0b6b3a7640000828002049150671bc16d674ec800008210613748579283019260019190911c905b60011c613718565b505050919050565b80516a636f6e736f6c652e6c6f67602083016000808483855afa5050505050565b60606124ac8484600085613881565b600070010000000000000000000000000000000082106137b557608091821c916137b29082613f89565b90505b6801000000000000000082106137d857604091821c916137d59082613f89565b90505b64010000000082106137f757602091821c916137f49082613f89565b90505b62010000821061381457601091821c916138119082613f89565b90505b610100821061383057600891821c9161382d9082613f89565b90505b6010821061384b57600491821c916138489082613f89565b90505b6004821061386657600291821c916138639082613f89565b90505b6002821061387c57613879600182613f89565b90505b919050565b6060824710156138f95760405162461bcd60e51b815260206004820152602660248201527f416464726573733a20696e73756666696369656e742062616c616e636520666f60448201527f722063616c6c00000000000000000000000000000000000000000000000000006064820152608401610443565b6001600160a01b0385163b6139505760405162461bcd60e51b815260206004820152601d60248201527f416464726573733a2063616c6c20746f206e6f6e2d636f6e74726163740000006044820152606401610443565b600080866001600160a01b0316858760405161396c919061424b565b60006040518083038185875af1925050503d80600081146139a9576040519150601f19603f3d011682016040523d82523d6000602084013e6139ae565b606091505b50915091506139be8282866139c9565b979650505050505050565b606083156139d8575081613524565b8251156139e85782518084602001fd5b8160405162461bcd60e51b81526004016104439190614079565b604051806102e0016040528060006001600160a01b0316815260200160006001600160a01b031681526020016000815260200160006001600160a01b03168152602001600081526020016000815260200160008152602001600081526020016000815260200160008152602001600081526020016000815260200160008152602001600081526020016000815260200160008152602001600081526020016000815260200160008152602001600081526020016000815260200160008152602001613ae760405180606001604052806000815260200160008152602001600081525090565b905290565b604051806101a00160405280600081526020016000815260200160008152602001600081526020016000815260200160006001600160a01b03168152602001613b4f60405180606001604052806000815260200160008152602001600081525090565b81526020016000815260200160008152602001600081526020016000815260200160008152602001600081525090565b5080546000825560040290600052602060002090810190613ba09190613bc1565b50565b5080546000825590600052602060002090810190613ba09190613bf8565b5b80821115613bf457600080825560018201819055600282015560038101805465ffffffffffff19169055600401613bc2565b5090565b5b80821115613bf45760008155600101613bf9565b6001600160a01b0381168114613ba057600080fd5b600080600060608486031215613c3757600080fd5b8335613c4281613c0d565b92506020840135613c5281613c0d565b929592945050506040919091013590565b600080600060608486031215613c7857600080fd5b8335613c8381613c0d565b9250602084013591506040840135613c9a81613c0d565b809150509250925092565b60008060408385031215613cb857600080fd5b8235613cc381613c0d565b91506020830135613cd381613c0d565b809150509250929050565b60008060408385031215613cf157600080fd5b8235613cfc81613c0d565b946020939093013593505050565b81516001600160a01b0316815261032081016020830151613d3660208401826001600160a01b03169052565b50604083015160408301526060830151613d5b60608401826001600160a01b03169052565b506080838101519083015260a0808401519083015260c0808401519083015260e08084015190830152610100808401519083015261012080840151908301526101408084015190830152610160808401519083015261018080840151908301526101a080840151908301526101c080840151908301526101e08084015190830152610200808401519083015261022080840151908301526102408084015190830152610260808401519083015261028080840151908301526102a080840151908301526102c08084015180518285015260208101516102e08501526040810151610300850152505092915050565b600060208284031215613e5b57600080fd5b813561352481613c0d565b60008060008060008060a08789031215613e7f57600080fd5b8635613e8a81613c0d565b9550602087013594506040870135613ea181613c0d565b93506060870135613eb181613c0d565b9250608087013567ffffffffffffffff80821115613ece57600080fd5b818901915089601f830112613ee257600080fd5b813581811115613ef157600080fd5b8a6020828501011115613f0357600080fd5b6020830194508093505050509295509295509295565b634e487b7160e01b600052601160045260246000fd5b6000816000190483118215151615613f4957613f49613f19565b500290565b600082821015613f6057613f60613f19565b500390565b60008060408385031215613f7857600080fd5b505080516020909101519092909150565b60008219821115613f9c57613f9c613f19565b500190565b634e487b7160e01b600052603260045260246000fd5b60005b83811015613fd2578181015183820152602001613fba565b8381111561275b5750506000910152565b7fffffffff00000000000000000000000000000000000000000000000000000000831681526000825161401d816004850160208701613fb7565b919091016004019392505050565b60008151808452614043816020860160208601613fb7565b601f01601f19169290920160200192915050565b6001600160a01b03831681526040602082015260006124ac604083018461402b565b602081526000613524602083018461402b565b60006000198214156140a0576140a0613f19565b5060010190565b6000608082016001600160a01b038088168452602081881681860152818716604086015260806060860152829150855180845260a086019250818701935060005b81811015614104578451845293820193928201926001016140e8565b50919998505050505050505050565b60006020828403121561412557600080fd5b8151801515811461352457600080fd5b60006020828403121561414757600080fd5b5051919050565b818352818160208501375060006020828401015260006020601f19601f840116840101905092915050565b6001600160a01b038416815260406020820152600061419c60408301848661414e565b95945050505050565b6000826141c257634e487b7160e01b600052601260045260246000fd5b500490565b60006001600160a01b038087168352808616602084015250606060408301526141f460608301848661414e565b9695505050505050565b604081526000614211604083018561402b565b90506001600160a01b03831660208301529392505050565b60408152600061423c604083018561402b565b90508260208301529392505050565b6000825161425d818460208701613fb7565b919091019291505056fea2646970667358221220821b02778ea072e11e77288cf8c4db3b35f8626be5c1504b00705e36d87e5c3964736f6c63430008090033",
  "devdoc": {
    "kind": "dev",
    "methods": {
      "interestBalance(address)": {
        "params": {
          "_collection": "the address of the underlying nft collection."
        },
        "returns": {
          "_0": "The total outstanding interest owed to depositors."
        }
      },
      "principalBalance(address)": {
        "params": {
          "_collection": "the address of the underlying nft collection."
        },
        "returns": {
          "_0": "The total outstanding principal owed to depositors."
        }
      }
    },
    "version": 1
  },
  "userdoc": {
    "kind": "user",
    "methods": {
      "interestBalance(address)": {
        "notice": "Returns the total outstanding interest debt for a particular underlying asset pool"
      },
      "principalBalance(address)": {
        "notice": "Returns the total outstanding principal debt for a particular underlying asset pool"
      }
    },
    "version": 1
  },
  "storageLayout": {
    "storage": [],
    "types": null
  }
}