{
  "address": "0xB8b1aA24F96ec84a4e6D5c31B1ee04E0031e5857",
  "abi": [
    {
      "inputs": [
        {
          "internalType": "bytes",
          "name": "_data",
          "type": "bytes"
        }
      ],
      "name": "execute",
      "outputs": [
        {
          "internalType": "bytes",
          "name": "",
          "type": "bytes"
        }
      ],
      "stateMutability": "pure",
      "type": "function"
    },
    {
      "inputs": [
        {
          "internalType": "bytes",
          "name": "_data",
          "type": "bytes"
        }
      ],
      "name": "extractAssetInfo",
      "outputs": [
        {
          "components": [
            {
              "internalType": "uint256",
              "name": "tokenId",
              "type": "uint256"
            },
            {
              "internalType": "uint256",
              "name": "assetPrice",
              "type": "uint256"
            }
          ],
          "internalType": "struct AssetInfo",
          "name": "assetInfo",
          "type": "tuple"
        }
      ],
      "stateMutability": "pure",
      "type": "function"
    },
    {
      "inputs": [
        {
          "internalType": "bytes",
          "name": "_data",
          "type": "bytes"
        }
      ],
      "name": "validate",
      "outputs": [
        {
          "internalType": "bool",
          "name": "",
          "type": "bool"
        }
      ],
      "stateMutability": "pure",
      "type": "function"
    }
  ],
  "transactionHash": "0x1f2ab7c9896bbf7d9f8f41c3053775084542409e50f4989ef13f7ff641d51d0c",
  "args": [],
  "numDeployments": 2,
  "solcInputHash": "41a06cd71375a3553501e1e8085a4a59",
  "bytecode": "0x608060405234801561001057600080fd5b50610810806100206000396000f3fe608060405234801561001057600080fd5b50600436106100415760003560e01c806309c5eabe146100465780630cfe386f1461006f578063c16e50ef1461009d575b600080fd5b610059610054366004610410565b6100c0565b60405161006691906104de565b60405180910390f35b61008261007d366004610410565b610215565b60408051825181526020928301519281019290925201610066565b6100b06100ab366004610410565b610345565b6040519015158152602001610066565b60606100cc8383610358565b156101a9576040805160808101825260008082526020820152606091810182905281810191909152610100838501856105f4565b6060850181905260408086018390527fffffffff0000000000000000000000000000000000000000000000000000000090931660208087019190915273ffffffffffffffffffffffffffffffffffffffff90941685529151600093610167939291016106a2565b604051602081830303815290604052905081602001518160405160200161018f9291906106d0565b60408051601f19818403018152919052925061020f915050565b6040517f08c379a000000000000000000000000000000000000000000000000000000000815260206004820152600c60248201527f696e76616c696420646174610000000000000000000000000000000000000000604482015260640160405180910390fd5b92915050565b60408051808201909152600080825260208201526040805160808101825260008082526020820152606091810182905281810191909152610258838501856105f4565b6060808601919091526040808601929092527fffffffff0000000000000000000000000000000000000000000000000000000090921660208086019190915273ffffffffffffffffffffffffffffffffffffffff9093168452805160c0810182526000808252938101849052908101839052808201839052608081019290925260a082015281606001518060200190518101906102f59190610718565b60a08701526080860152606085019081526040850182905273ffffffffffffffffffffffffffffffffffffffff909216602080860191909152921515909352908401919091525182525092915050565b60006103518383610358565b9392505050565b60408051608081018252600080825260208201819052606092820183905282820192909252610389838501856105f4565b606085015260408401527fffffffff00000000000000000000000000000000000000000000000000000000166020830181905273ffffffffffffffffffffffffffffffffffffffff90911682527fb4e4b296000000000000000000000000000000000000000000000000000000001461040657600091505061020f565b5060019392505050565b6000806020838503121561042357600080fd5b823567ffffffffffffffff8082111561043b57600080fd5b818501915085601f83011261044f57600080fd5b81358181111561045e57600080fd5b86602082850101111561047057600080fd5b60209290920196919550909350505050565b60005b8381101561049d578181015183820152602001610485565b838111156104ac576000848401525b50505050565b600081518084526104ca816020860160208601610482565b601f01601f19169290920160200192915050565b60208152600061035160208301846104b2565b73ffffffffffffffffffffffffffffffffffffffff8116811461051357600080fd5b50565b7f4e487b7100000000000000000000000000000000000000000000000000000000600052604160045260246000fd5b604051601f8201601f1916810167ffffffffffffffff8111828210171561056e5761056e610516565b604052919050565b600067ffffffffffffffff82111561059057610590610516565b50601f01601f191660200190565b600082601f8301126105af57600080fd5b81356105c26105bd82610576565b610545565b8181528460208386010111156105d757600080fd5b816020850160208301376000918101602001919091529392505050565b6000806000806080858703121561060a57600080fd5b8435610615816104f1565b935060208501357fffffffff000000000000000000000000000000000000000000000000000000008116811461064a57600080fd5b9250604085013567ffffffffffffffff8082111561066757600080fd5b6106738883890161059e565b9350606087013591508082111561068957600080fd5b506106968782880161059e565b91505092959194509250565b6040815260006106b560408301856104b2565b82810360208401526106c781856104b2565b95945050505050565b7fffffffff00000000000000000000000000000000000000000000000000000000831681526000825161070a816004850160208701610482565b919091016004019392505050565b60008060008060008060c0878903121561073157600080fd5b8651801515811461074157600080fd5b6020880151909650610752816104f1565b8095505060408701519350606087015192506080870151915060a087015167ffffffffffffffff81111561078557600080fd5b8701601f8101891361079657600080fd5b80516107a46105bd82610576565b8181528a60208385010111156107b957600080fd5b6107ca826020830160208601610482565b809350505050929550929550929556fea2646970667358221220938c4da65054509043a58a76b76131d78bac6132b7e269450341c1e85f0f040264736f6c63430008090033",
  "devdoc": {
    "kind": "dev",
    "methods": {},
    "version": 1
  },
  "userdoc": {
    "kind": "user",
    "methods": {},
    "version": 1
  },
  "storageLayout": {
    "storage": [],
    "types": null
  }
}