{
  "address": "0xC069A43cdAf9f0E4d5E38645a535f5e3db575cd2",
  "abi": [
    {
      "inputs": [
        {
          "internalType": "contract IERC721Token",
          "name": "token",
          "type": "address"
        },
        {
          "internalType": "address",
          "name": "to",
          "type": "address"
        },
        {
          "internalType": "uint256[]",
          "name": "ids",
          "type": "uint256[]"
        }
      ],
      "name": "depositNFT721",
      "outputs": [],
      "stateMutability": "nonpayable",
      "type": "function"
    },
    {
      "inputs": [
        {
          "internalType": "contract IERC721Token",
          "name": "token",
          "type": "address"
        },
        {
          "internalType": "uint256[]",
          "name": "ids",
          "type": "uint256[]"
        },
        {
          "internalType": "uint256",
          "name": "expiredTime",
          "type": "uint256"
        },
        {
          "internalType": "uint256",
          "name": "nonce",
          "type": "uint256"
        },
        {
          "internalType": "bytes",
          "name": "signature",
          "type": "bytes"
        }
      ],
      "name": "withdrawNFT721",
      "outputs": [],
      "stateMutability": "nonpayable",
      "type": "function"
    }
  ],
  "transactionHash": "0x75125fbcbd26912f50f3c5ed681238545431f44e76be6962ba813a74762a801f",
  "args": [],
  "numDeployments": 1,
  "solcInputHash": "27c64b6a42a340338e0c33daf46094a1",
  "bytecode": "0x608060405234801561001057600080fd5b50610487806100206000396000f3fe608060405234801561001057600080fd5b50600436106100365760003560e01c80634a5334461461003b578063d018c1d714610050575b600080fd5b61004e61004936600461022e565b610063565b005b61004e61005e366004610293565b61008b565b61008560405180606001604052806028815260200161042a60289139846100b6565b50505050565b6100ad6040518060600160405280602c81526020016103fe602c91398461012d565b50505050505050565b61012982826040516024016100cc9291906103a3565b60408051601f198184030181529190526020810180517bffffffffffffffffffffffffffffffffffffffffffffffffffffffff167f319af3330000000000000000000000000000000000000000000000000000000017905261019c565b5050565b61012982826040516024016101439291906103db565b60408051601f198184030181529190526020810180517bffffffffffffffffffffffffffffffffffffffffffffffffffffffff167f9710a9d0000000000000000000000000000000000000000000000000000000001790525b80516a636f6e736f6c652e6c6f67602083016000808483855afa5050505050565b73ffffffffffffffffffffffffffffffffffffffff811681146101df57600080fd5b50565b60008083601f8401126101f457600080fd5b50813567ffffffffffffffff81111561020c57600080fd5b6020830191508360208260051b850101111561022757600080fd5b9250929050565b6000806000806060858703121561024457600080fd5b843561024f816101bd565b9350602085013561025f816101bd565b9250604085013567ffffffffffffffff81111561027b57600080fd5b610287878288016101e2565b95989497509550505050565b600080600080600080600060a0888a0312156102ae57600080fd5b87356102b9816101bd565b9650602088013567ffffffffffffffff808211156102d657600080fd5b6102e28b838c016101e2565b909850965060408a0135955060608a0135945060808a013591508082111561030957600080fd5b818a0191508a601f83011261031d57600080fd5b81358181111561032c57600080fd5b8b602082850101111561033e57600080fd5b60208301945080935050505092959891949750929550565b6000815180845260005b8181101561037c57602081850181015186830182015201610360565b8181111561038e576000602083870101525b50601f01601f19169290920160200192915050565b6040815260006103b66040830185610356565b905073ffffffffffffffffffffffffffffffffffffffff831660208301529392505050565b6040815260006103ee6040830185610356565b9050826020830152939250505056fe4d6f636b43726162616461426174746c6547616d652377697468647261774e4654373231206e6f6e63653a204d6f636b43726162616461426174746c6547616d65236465706f7369744e465437323120746f3a20a264697066735822122094eba818876701290de4061409431b82870fe7f56788e41bdcd320ead705839e64736f6c63430008090033",
  "devdoc": {
    "kind": "dev",
    "methods": {},
    "version": 1
  },
  "userdoc": {
    "kind": "user",
    "methods": {},
    "version": 1
  },
  "storageLayout": {
    "storage": [],
    "types": null
  }
}