{
  "address": "0x4d1053C55982e7903F8b208999B0D7f3b90b97dc",
  "abi": [
    {
      "inputs": [
        {
          "internalType": "contract IERC20",
          "name": "token",
          "type": "address"
        },
        {
          "internalType": "address",
          "name": "to",
          "type": "address"
        },
        {
          "internalType": "uint256",
          "name": "amount",
          "type": "uint256"
        }
      ],
      "name": "approve",
      "outputs": [],
      "stateMutability": "payable",
      "type": "function"
    },
    {
      "inputs": [
        {
          "internalType": "bytes[]",
          "name": "data",
          "type": "bytes[]"
        }
      ],
      "name": "multicall",
      "outputs": [
        {
          "internalType": "bytes[]",
          "name": "results",
          "type": "bytes[]"
        }
      ],
      "stateMutability": "payable",
      "type": "function"
    },
    {
      "inputs": [
        {
          "internalType": "contract IERC20",
          "name": "token",
          "type": "address"
        },
        {
          "internalType": "uint256",
          "name": "amount",
          "type": "uint256"
        },
        {
          "internalType": "address",
          "name": "from",
          "type": "address"
        },
        {
          "internalType": "address",
          "name": "recipient",
          "type": "address"
        }
      ],
      "name": "pullToken",
      "outputs": [],
      "stateMutability": "payable",
      "type": "function"
    },
    {
      "inputs": [],
      "name": "refundETH",
      "outputs": [],
      "stateMutability": "payable",
      "type": "function"
    },
    {
      "inputs": [
        {
          "internalType": "address",
          "name": "token",
          "type": "address"
        },
        {
          "internalType": "uint256",
          "name": "value",
          "type": "uint256"
        },
        {
          "internalType": "uint256",
          "name": "deadline",
          "type": "uint256"
        },
        {
          "internalType": "uint8",
          "name": "v",
          "type": "uint8"
        },
        {
          "internalType": "bytes32",
          "name": "r",
          "type": "bytes32"
        },
        {
          "internalType": "bytes32",
          "name": "s",
          "type": "bytes32"
        }
      ],
      "name": "selfPermit",
      "outputs": [],
      "stateMutability": "payable",
      "type": "function"
    },
    {
      "inputs": [
        {
          "internalType": "address",
          "name": "token",
          "type": "address"
        },
        {
          "internalType": "uint256",
          "name": "nonce",
          "type": "uint256"
        },
        {
          "internalType": "uint256",
          "name": "expiry",
          "type": "uint256"
        },
        {
          "internalType": "uint8",
          "name": "v",
          "type": "uint8"
        },
        {
          "internalType": "bytes32",
          "name": "r",
          "type": "bytes32"
        },
        {
          "internalType": "bytes32",
          "name": "s",
          "type": "bytes32"
        }
      ],
      "name": "selfPermitAllowed",
      "outputs": [],
      "stateMutability": "payable",
      "type": "function"
    },
    {
      "inputs": [
        {
          "internalType": "address",
          "name": "token",
          "type": "address"
        },
        {
          "internalType": "uint256",
          "name": "nonce",
          "type": "uint256"
        },
        {
          "internalType": "uint256",
          "name": "expiry",
          "type": "uint256"
        },
        {
          "internalType": "uint8",
          "name": "v",
          "type": "uint8"
        },
        {
          "internalType": "bytes32",
          "name": "r",
          "type": "bytes32"
        },
        {
          "internalType": "bytes32",
          "name": "s",
          "type": "bytes32"
        }
      ],
      "name": "selfPermitAllowedIfNecessary",
      "outputs": [],
      "stateMutability": "payable",
      "type": "function"
    },
    {
      "inputs": [
        {
          "internalType": "address",
          "name": "token",
          "type": "address"
        },
        {
          "internalType": "uint256",
          "name": "value",
          "type": "uint256"
        },
        {
          "internalType": "uint256",
          "name": "deadline",
          "type": "uint256"
        },
        {
          "internalType": "uint8",
          "name": "v",
          "type": "uint8"
        },
        {
          "internalType": "bytes32",
          "name": "r",
          "type": "bytes32"
        },
        {
          "internalType": "bytes32",
          "name": "s",
          "type": "bytes32"
        }
      ],
      "name": "selfPermitIfNecessary",
      "outputs": [],
      "stateMutability": "payable",
      "type": "function"
    },
    {
      "inputs": [
        {
          "internalType": "contract IERC20",
          "name": "token",
          "type": "address"
        },
        {
          "internalType": "uint256",
          "name": "amountMinimum",
          "type": "uint256"
        },
        {
          "internalType": "address",
          "name": "recipient",
          "type": "address"
        }
      ],
      "name": "sweepToken",
      "outputs": [],
      "stateMutability": "payable",
      "type": "function"
    },
    {
      "inputs": [
        {
          "internalType": "uint256",
          "name": "amountMinimum",
          "type": "uint256"
        },
        {
          "internalType": "address",
          "name": "recipient",
          "type": "address"
        }
      ],
      "name": "unwrapWETH9",
      "outputs": [],
      "stateMutability": "payable",
      "type": "function"
    },
    {
      "inputs": [],
      "name": "wrapWETH9",
      "outputs": [],
      "stateMutability": "payable",
      "type": "function"
    }
  ],
  "args": [],
  "numDeployments": 1,
  "solcInputHash": "27c64b6a42a340338e0c33daf46094a1",
  "bytecode": "0x608060405234801561001057600080fd5b5061126e806100206000396000f3fe6080604052600436106100bc5760003560e01c8063ac9650d811610074578063df2ab5bb1161004e578063df2ab5bb1461015b578063e1f21c671461016e578063f3995c671461018157600080fd5b8063ac9650d81461010c578063c2e3140a14610135578063d26aaa3e1461014857600080fd5b80634659a494116100a55780634659a494146100d357806349404b7c146100e6578063a4a78f0c146100f957600080fd5b806312210e8a146100c15780633f50fd1f146100cb575b600080fd5b6100c9610194565b005b6100c96101a6565b6100c96100e1366004610da6565b61021a565b6100c96100f4366004610e08565b6102c8565b6100c9610107366004610da6565b610450565b61011f61011a366004610e38565b6104ed565b60405161012c9190610f05565b60405180910390f35b6100c9610143366004610da6565b610645565b6100c9610156366004610f85565b6106d8565b6100c9610169366004610fd8565b6106f3565b6100c961017c36600461101a565b6107f2565b6100c961018f366004610da6565b610806565b47156101a4576101a43347610876565b565b47156101a457600060050160029054906101000a90046001600160a01b03166001600160a01b031663d0e30db0476040518263ffffffff1660e01b81526004016000604051808303818588803b1580156101ff57600080fd5b505af1158015610213573d6000803e3d6000fd5b5050505050565b6040517f8fcbaf0c00000000000000000000000000000000000000000000000000000000815233600482015230602482015260448101869052606481018590526001608482015260ff841660a482015260c4810183905260e481018290526001600160a01b03871690638fcbaf0c90610104015b600060405180830381600087803b1580156102a857600080fd5b505af11580156102bc573d6000803e3d6000fd5b50505050505050505050565b600080600501546040517f70a08231000000000000000000000000000000000000000000000000000000008152306004820152620100009091046001600160a01b0316906370a082319060240160206040518083038186803b15801561032d57600080fd5b505afa158015610341573d6000803e3d6000fd5b505050506040513d601f19601f82011682018060405250810190610365919061105b565b9050828110156103bc5760405162461bcd60e51b815260206004820152601260248201527f496e73756666696369656e74205745544839000000000000000000000000000060448201526064015b60405180910390fd5b801561044b576000600501546040517f2e1a7d4d00000000000000000000000000000000000000000000000000000000815260048101839052620100009091046001600160a01b031690632e1a7d4d90602401600060405180830381600087803b15801561042957600080fd5b505af115801561043d573d6000803e3d6000fd5b5050505061044b8282610876565b505050565b604051636eb1769f60e11b8152336004820152306024820152600019906001600160a01b0388169063dd62ed3e9060440160206040518083038186803b15801561049957600080fd5b505afa1580156104ad573d6000803e3d6000fd5b505050506040513d601f19601f820116820180604052508101906104d1919061105b565b10156104e5576104e586868686868661021a565b505050505050565b60608167ffffffffffffffff81111561050857610508611074565b60405190808252806020026020018201604052801561053b57816020015b60608152602001906001900390816105265790505b50905060005b8281101561063e576000803086868581811061055f5761055f61108a565b905060200281019061057191906110a0565b60405161057f92919061110c565b600060405180830381855af49150503d80600081146105ba576040519150601f19603f3d011682016040523d82523d6000602084013e6105bf565b606091505b50915091508161060b576044815110156105d857600080fd5b600481019050808060200190518101906105f2919061111c565b60405162461bcd60e51b81526004016103b391906111be565b8084848151811061061e5761061e61108a565b602002602001018190525050508080610636906111d1565b915050610541565b5092915050565b604051636eb1769f60e11b815233600482015230602482015285906001600160a01b0388169063dd62ed3e9060440160206040518083038186803b15801561068c57600080fd5b505afa1580156106a0573d6000803e3d6000fd5b505050506040513d601f19601f820116820180604052508101906106c4919061105b565b10156104e5576104e5868686868686610806565b6106ed6001600160a01b0385168383866108d1565b50505050565b6040517f70a082310000000000000000000000000000000000000000000000000000000081523060048201526000906001600160a01b038516906370a082319060240160206040518083038186803b15801561074e57600080fd5b505afa158015610762573d6000803e3d6000fd5b505050506040513d601f19601f82011682018060405250810190610786919061105b565b9050828110156107d85760405162461bcd60e51b815260206004820152601260248201527f496e73756666696369656e7420746f6b656e000000000000000000000000000060448201526064016103b3565b80156106ed576106ed6001600160a01b0385168383610982565b61044b6001600160a01b03841683836109cb565b6040517fd505accf000000000000000000000000000000000000000000000000000000008152336004820152306024820152604481018690526064810185905260ff8416608482015260a4810183905260c481018290526001600160a01b0387169063d505accf9060e40161028e565b600080600080600085875af190508061044b5760405162461bcd60e51b815260206004820152601360248201527f4554485f5452414e534645525f4641494c45440000000000000000000000000060448201526064016103b3565b6040516001600160a01b03808516602483015283166044820152606481018290526106ed9085907f23b872dd00000000000000000000000000000000000000000000000000000000906084015b60408051601f198184030181529190526020810180517bffffffffffffffffffffffffffffffffffffffffffffffffffffffff167fffffffff0000000000000000000000000000000000000000000000000000000090931692909217909152610b0f565b6040516001600160a01b03831660248201526044810182905261044b9084907fa9059cbb000000000000000000000000000000000000000000000000000000009060640161091e565b801580610a545750604051636eb1769f60e11b81523060048201526001600160a01b03838116602483015284169063dd62ed3e9060440160206040518083038186803b158015610a1a57600080fd5b505afa158015610a2e573d6000803e3d6000fd5b505050506040513d601f19601f82011682018060405250810190610a52919061105b565b155b610ac65760405162461bcd60e51b815260206004820152603660248201527f5361666545524332303a20617070726f76652066726f6d206e6f6e2d7a65726f60448201527f20746f206e6f6e2d7a65726f20616c6c6f77616e63650000000000000000000060648201526084016103b3565b6040516001600160a01b03831660248201526044810182905261044b9084907f095ea7b3000000000000000000000000000000000000000000000000000000009060640161091e565b6000610b64826040518060400160405280602081526020017f5361666545524332303a206c6f772d6c6576656c2063616c6c206661696c6564815250856001600160a01b0316610bf49092919063ffffffff16565b80519091501561044b5780806020019051810190610b8291906111fa565b61044b5760405162461bcd60e51b815260206004820152602a60248201527f5361666545524332303a204552433230206f7065726174696f6e20646964206e60448201527f6f7420737563636565640000000000000000000000000000000000000000000060648201526084016103b3565b6060610c038484600085610c0d565b90505b9392505050565b606082471015610c855760405162461bcd60e51b815260206004820152602660248201527f416464726573733a20696e73756666696369656e742062616c616e636520666f60448201527f722063616c6c000000000000000000000000000000000000000000000000000060648201526084016103b3565b6001600160a01b0385163b610cdc5760405162461bcd60e51b815260206004820152601d60248201527f416464726573733a2063616c6c20746f206e6f6e2d636f6e747261637400000060448201526064016103b3565b600080866001600160a01b03168587604051610cf8919061121c565b60006040518083038185875af1925050503d8060008114610d35576040519150601f19603f3d011682016040523d82523d6000602084013e610d3a565b606091505b5091509150610d4a828286610d55565b979650505050505050565b60608315610d64575081610c06565b825115610d745782518084602001fd5b8160405162461bcd60e51b81526004016103b391906111be565b6001600160a01b0381168114610da357600080fd5b50565b60008060008060008060c08789031215610dbf57600080fd5b8635610dca81610d8e565b95506020870135945060408701359350606087013560ff81168114610dee57600080fd5b9598949750929560808101359460a0909101359350915050565b60008060408385031215610e1b57600080fd5b823591506020830135610e2d81610d8e565b809150509250929050565b60008060208385031215610e4b57600080fd5b823567ffffffffffffffff80821115610e6357600080fd5b818501915085601f830112610e7757600080fd5b813581811115610e8657600080fd5b8660208260051b8501011115610e9b57600080fd5b60209290920196919550909350505050565b60005b83811015610ec8578181015183820152602001610eb0565b838111156106ed5750506000910152565b60008151808452610ef1816020860160208601610ead565b601f01601f19169290920160200192915050565b6000602080830181845280855180835260408601915060408160051b870101925083870160005b82811015610f78577fffffffffffffffffffffffffffffffffffffffffffffffffffffffffffffffc0888603018452610f66858351610ed9565b94509285019290850190600101610f2c565b5092979650505050505050565b60008060008060808587031215610f9b57600080fd5b8435610fa681610d8e565b9350602085013592506040850135610fbd81610d8e565b91506060850135610fcd81610d8e565b939692955090935050565b600080600060608486031215610fed57600080fd5b8335610ff881610d8e565b925060208401359150604084013561100f81610d8e565b809150509250925092565b60008060006060848603121561102f57600080fd5b833561103a81610d8e565b9250602084013561104a81610d8e565b929592945050506040919091013590565b60006020828403121561106d57600080fd5b5051919050565b634e487b7160e01b600052604160045260246000fd5b634e487b7160e01b600052603260045260246000fd5b60008083357fffffffffffffffffffffffffffffffffffffffffffffffffffffffffffffffe18436030181126110d557600080fd5b83018035915067ffffffffffffffff8211156110f057600080fd5b60200191503681900382131561110557600080fd5b9250929050565b8183823760009101908152919050565b60006020828403121561112e57600080fd5b815167ffffffffffffffff8082111561114657600080fd5b818401915084601f83011261115a57600080fd5b81518181111561116c5761116c611074565b604051601f8201601f19908116603f0116810190838211818310171561119457611194611074565b816040528281528760208487010111156111ad57600080fd5b610d4a836020830160208801610ead565b602081526000610c066020830184610ed9565b60006000198214156111f357634e487b7160e01b600052601160045260246000fd5b5060010190565b60006020828403121561120c57600080fd5b81518015158114610c0657600080fd5b6000825161122e818460208701610ead565b919091019291505056fea26469706673582212208b6044b1740618eaef79c0281b7942b16dddb8337072f575803969ba758e7bd864736f6c63430008090033",
  "devdoc": {
    "kind": "dev",
    "methods": {
      "multicall(bytes[])": {
        "details": "The `msg.value` should not be trusted for any method callable from multicall.",
        "params": {
          "data": "The encoded function data for each of the calls to make to this contract"
        },
        "returns": {
          "results": "The results from each of the calls passed in via data"
        }
      },
      "selfPermit(address,uint256,uint256,uint8,bytes32,bytes32)": {
        "details": "The `owner` is always msg.sender and the `spender` is always address(this).",
        "params": {
          "deadline": "A timestamp, the current blocktime must be less than or equal to this timestamp",
          "r": "Must produce valid secp256k1 signature from the holder along with `v` and `s`",
          "s": "Must produce valid secp256k1 signature from the holder along with `r` and `v`",
          "token": "The address of the token spent",
          "v": "Must produce valid secp256k1 signature from the holder along with `r` and `s`",
          "value": "The amount that can be spent of token"
        }
      },
      "selfPermitAllowed(address,uint256,uint256,uint8,bytes32,bytes32)": {
        "details": "The `owner` is always msg.sender and the `spender` is always address(this)",
        "params": {
          "expiry": "The timestamp at which the permit is no longer valid",
          "nonce": "The current nonce of the owner",
          "r": "Must produce valid secp256k1 signature from the holder along with `v` and `s`",
          "s": "Must produce valid secp256k1 signature from the holder along with `r` and `v`",
          "token": "The address of the token spent",
          "v": "Must produce valid secp256k1 signature from the holder along with `r` and `s`"
        }
      },
      "selfPermitAllowedIfNecessary(address,uint256,uint256,uint8,bytes32,bytes32)": {
        "details": "The `owner` is always msg.sender and the `spender` is always address(this) Can be used instead of #selfPermitAllowed to prevent calls from failing due to a frontrun of a call to #selfPermitAllowed.",
        "params": {
          "expiry": "The timestamp at which the permit is no longer valid",
          "nonce": "The current nonce of the owner",
          "r": "Must produce valid secp256k1 signature from the holder along with `v` and `s`",
          "s": "Must produce valid secp256k1 signature from the holder along with `r` and `v`",
          "token": "The address of the token spent",
          "v": "Must produce valid secp256k1 signature from the holder along with `r` and `s`"
        }
      },
      "selfPermitIfNecessary(address,uint256,uint256,uint8,bytes32,bytes32)": {
        "details": "The `owner` is always msg.sender and the `spender` is always address(this). Can be used instead of #selfPermit to prevent calls from failing due to a frontrun of a call to #selfPermit",
        "params": {
          "deadline": "A timestamp, the current blocktime must be less than or equal to this timestamp",
          "r": "Must produce valid secp256k1 signature from the holder along with `v` and `s`",
          "s": "Must produce valid secp256k1 signature from the holder along with `r` and `v`",
          "token": "The address of the token spent",
          "v": "Must produce valid secp256k1 signature from the holder along with `r` and `s`",
          "value": "The amount that can be spent of token"
        }
      }
    },
    "version": 1
  },
  "userdoc": {
    "kind": "user",
    "methods": {
      "multicall(bytes[])": {
        "notice": "Call multiple functions in the current contract and return the data from all of them if they all succeed"
      },
      "selfPermit(address,uint256,uint256,uint8,bytes32,bytes32)": {
        "notice": "Permits this contract to spend a given token from `msg.sender`"
      },
      "selfPermitAllowed(address,uint256,uint256,uint8,bytes32,bytes32)": {
        "notice": "Permits this contract to spend the sender's tokens for permit signatures that have the `allowed` parameter"
      },
      "selfPermitAllowedIfNecessary(address,uint256,uint256,uint8,bytes32,bytes32)": {
        "notice": "Permits this contract to spend the sender's tokens for permit signatures that have the `allowed` parameter"
      },
      "selfPermitIfNecessary(address,uint256,uint256,uint8,bytes32,bytes32)": {
        "notice": "Permits this contract to spend a given token from `msg.sender`"
      }
    },
    "version": 1
  },
  "storageLayout": {
    "storage": [],
    "types": null
  }
}