{
  "address": "0xCf865BCA39521D4B57ae9629138d1FF24852C9F2",
  "abi": [
    {
      "inputs": [],
      "name": "InvalidOperator",
      "type": "error"
    },
    {
      "anonymous": false,
      "inputs": [
        {
          "indexed": true,
          "internalType": "address",
          "name": "previousOwner",
          "type": "address"
        },
        {
          "indexed": true,
          "internalType": "address",
          "name": "newOwner",
          "type": "address"
        }
      ],
      "name": "OwnershipTransferred",
      "type": "event"
    },
    {
      "inputs": [
        {
          "internalType": "address",
          "name": "_currency",
          "type": "address"
        }
      ],
      "name": "getTwap",
      "outputs": [
        {
          "internalType": "uint256",
          "name": "",
          "type": "uint256"
        },
        {
          "internalType": "uint256",
          "name": "",
          "type": "uint256"
        }
      ],
      "stateMutability": "view",
      "type": "function"
    },
    {
      "inputs": [],
      "name": "owner",
      "outputs": [
        {
          "internalType": "address",
          "name": "",
          "type": "address"
        }
      ],
      "stateMutability": "view",
      "type": "function"
    },
    {
      "inputs": [],
      "name": "renounceOwnership",
      "outputs": [],
      "stateMutability": "nonpayable",
      "type": "function"
    },
    {
      "inputs": [
        {
          "internalType": "address",
          "name": "_operator",
          "type": "address"
        },
        {
          "internalType": "bool",
          "name": "enabled",
          "type": "bool"
        }
      ],
      "name": "setOperator",
      "outputs": [],
      "stateMutability": "nonpayable",
      "type": "function"
    },
    {
      "inputs": [
        {
          "internalType": "address",
          "name": "newOwner",
          "type": "address"
        }
      ],
      "name": "transferOwnership",
      "outputs": [],
      "stateMutability": "nonpayable",
      "type": "function"
    },
    {
      "inputs": [
        {
          "internalType": "address",
          "name": "_currency",
          "type": "address"
        },
        {
          "internalType": "uint256",
          "name": "_priceAverage",
          "type": "uint256"
        }
      ],
      "name": "updateTwap",
      "outputs": [],
      "stateMutability": "nonpayable",
      "type": "function"
    }
  ],
  "transactionHash": "0xc1b5f82f7b186003d0b4685e0314cd1adb7fce3d0fb59343323fec21b7509a9d",
  "args": [],
  "numDeployments": 1,
  "solcInputHash": "61a98dd47a56fbe64984f78de53b81aa",
  "bytecode": "0x608060405234801561001057600080fd5b5061001a3361001f565b61006f565b600080546001600160a01b038381166001600160a01b0319831681178455604051919092169283917f8be0079c531659141344cd1fd0a4f28419497f9722a3daafe3b4186f6b6457e09190a35050565b6104788061007e6000396000f3fe608060405234801561001057600080fd5b50600436106100725760003560e01c80638da5cb5b116100505780638da5cb5b146100de5780639eb38b34146100f9578063f2fde38b1461010c57600080fd5b80633d47d22714610077578063558a7297146100c1578063715018a6146100d6575b600080fd5b6100a76100853660046103ba565b6001600160a01b03166000908152600260205260409020600181015490549091565b604080519283526020830191909152015b60405180910390f35b6100d46100cf3660046103dc565b61011f565b005b6100d4610177565b6000546040516001600160a01b0390911681526020016100b8565b6100d4610107366004610418565b61018b565b6100d461011a3660046103ba565b610213565b6101276102c2565b801561015557506001600160a01b03166000908152600160208190526040909120805460ff19169091179055565b506001600160a01b03166000908152600160205260409020805460ff19169055565b61017f6102c2565b6101896000610336565b565b3360009081526001602052604090205460ff161580156101b657506000546001600160a01b03163314155b156101ed576040517fccea9e6f00000000000000000000000000000000000000000000000000000000815260040160405180910390fd5b6001600160a01b0390911660009081526002602052604090206001810191909155429055565b61021b6102c2565b6001600160a01b0381166102b6576040517f08c379a000000000000000000000000000000000000000000000000000000000815260206004820152602660248201527f4f776e61626c653a206e6577206f776e657220697320746865207a65726f206160448201527f646472657373000000000000000000000000000000000000000000000000000060648201526084015b60405180910390fd5b6102bf81610336565b50565b6000546001600160a01b03163314610189576040517f08c379a000000000000000000000000000000000000000000000000000000000815260206004820181905260248201527f4f776e61626c653a2063616c6c6572206973206e6f7420746865206f776e657260448201526064016102ad565b600080546001600160a01b038381167fffffffffffffffffffffffff0000000000000000000000000000000000000000831681178455604051919092169283917f8be0079c531659141344cd1fd0a4f28419497f9722a3daafe3b4186f6b6457e09190a35050565b80356001600160a01b03811681146103b557600080fd5b919050565b6000602082840312156103cc57600080fd5b6103d58261039e565b9392505050565b600080604083850312156103ef57600080fd5b6103f88361039e565b91506020830135801515811461040d57600080fd5b809150509250929050565b6000806040838503121561042b57600080fd5b6104348361039e565b94602093909301359350505056fea26469706673582212200908a00e7c9ef256d5dfbbd75895f53124b25831ef4b4af33adc63a6aced706664736f6c63430008090033",
  "devdoc": {
    "kind": "dev",
    "methods": {
      "owner()": {
        "details": "Returns the address of the current owner."
      },
      "renounceOwnership()": {
        "details": "Leaves the contract without owner. It will not be possible to call `onlyOwner` functions anymore. Can only be called by the current owner. NOTE: Renouncing ownership will leave the contract without an owner, thereby removing any functionality that is only available to the owner."
      },
      "transferOwnership(address)": {
        "details": "Transfers ownership of the contract to a new account (`newOwner`). Can only be called by the current owner."
      }
    },
    "version": 1
  },
  "userdoc": {
    "kind": "user",
    "methods": {},
    "version": 1
  },
  "storageLayout": {
    "storage": [
      {
        "astId": 3637,
        "contract": "contracts/voyage/infra/PriceOracle.sol:PriceOracle",
        "label": "_owner",
        "offset": 0,
        "slot": "0",
        "type": "t_address"
      },
      {
        "astId": 19705,
        "contract": "contracts/voyage/infra/PriceOracle.sol:PriceOracle",
        "label": "_operators",
        "offset": 0,
        "slot": "1",
        "type": "t_mapping(t_address,t_bool)"
      },
      {
        "astId": 19738,
        "contract": "contracts/voyage/infra/PriceOracle.sol:PriceOracle",
        "label": "prices",
        "offset": 0,
        "slot": "2",
        "type": "t_mapping(t_address,t_struct(AveragePrice)19733_storage)"
      }
    ],
    "types": {
      "t_address": {
        "encoding": "inplace",
        "label": "address",
        "numberOfBytes": "20"
      },
      "t_bool": {
        "encoding": "inplace",
        "label": "bool",
        "numberOfBytes": "1"
      },
      "t_mapping(t_address,t_bool)": {
        "encoding": "mapping",
        "key": "t_address",
        "label": "mapping(address => bool)",
        "numberOfBytes": "32",
        "value": "t_bool"
      },
      "t_mapping(t_address,t_struct(AveragePrice)19733_storage)": {
        "encoding": "mapping",
        "key": "t_address",
        "label": "mapping(address => struct PriceOracle.AveragePrice)",
        "numberOfBytes": "32",
        "value": "t_struct(AveragePrice)19733_storage"
      },
      "t_struct(AveragePrice)19733_storage": {
        "encoding": "inplace",
        "label": "struct PriceOracle.AveragePrice",
        "members": [
          {
            "astId": 19730,
            "contract": "contracts/voyage/infra/PriceOracle.sol:PriceOracle",
            "label": "blockTimestamp",
            "offset": 0,
            "slot": "0",
            "type": "t_uint256"
          },
          {
            "astId": 19732,
            "contract": "contracts/voyage/infra/PriceOracle.sol:PriceOracle",
            "label": "priceAverage",
            "offset": 0,
            "slot": "1",
            "type": "t_uint256"
          }
        ],
        "numberOfBytes": "64"
      },
      "t_uint256": {
        "encoding": "inplace",
        "label": "uint256",
        "numberOfBytes": "32"
      }
    }
  }
}