{
  "address": "0xC29A4229F6CA99ea3e5c74FA1c3bFa014F98f710",
  "abi": [
    {
      "inputs": [
        {
          "internalType": "address",
          "name": "_weth",
          "type": "address"
        }
      ],
      "stateMutability": "nonpayable",
      "type": "constructor"
    },
    {
      "inputs": [
        {
          "internalType": "bytes",
          "name": "_data",
          "type": "bytes"
        }
      ],
      "name": "execute",
      "outputs": [
        {
          "internalType": "bytes",
          "name": "",
          "type": "bytes"
        }
      ],
      "stateMutability": "pure",
      "type": "function"
    },
    {
      "inputs": [
        {
          "internalType": "bytes",
          "name": "_data",
          "type": "bytes"
        }
      ],
      "name": "extractAssetInfo",
      "outputs": [
        {
          "components": [
            {
              "internalType": "uint256",
              "name": "tokenId",
              "type": "uint256"
            },
            {
              "internalType": "uint256",
              "name": "assetPrice",
              "type": "uint256"
            }
          ],
          "internalType": "struct AssetInfo",
          "name": "assetInfo",
          "type": "tuple"
        }
      ],
      "stateMutability": "pure",
      "type": "function"
    },
    {
      "inputs": [
        {
          "internalType": "bytes",
          "name": "_data",
          "type": "bytes"
        }
      ],
      "name": "validate",
      "outputs": [
        {
          "internalType": "bool",
          "name": "",
          "type": "bool"
        }
      ],
      "stateMutability": "pure",
      "type": "function"
    },
    {
      "inputs": [],
      "name": "weth",
      "outputs": [
        {
          "internalType": "address",
          "name": "",
          "type": "address"
        }
      ],
      "stateMutability": "view",
      "type": "function"
    }
  ],
  "transactionHash": "0xdf8d8dee9e47d073e38d25eba534593a1d679fcaf6ef43a4b0f299af1b996afb",
  "args": [
    "0x120d73c059FAfde55D6d9d66E2Ed90C59da465B0"
  ],
  "numDeployments": 2,
  "solcInputHash": "af2d9e0cb8cd05060d1920900a29b11c",
  "bytecode": "0x608060405234801561001057600080fd5b50604051610c37380380610c3783398101604081905261002f91610054565b600080546001600160a01b0319166001600160a01b0392909216919091179055610084565b60006020828403121561006657600080fd5b81516001600160a01b038116811461007d57600080fd5b9392505050565b610ba4806100936000396000f3fe608060405234801561001057600080fd5b506004361061004c5760003560e01c806309c5eabe146100515780630cfe386f1461007a5780633fc8cef3146100a8578063c16e50ef146100ed575b600080fd5b61006461005f366004610435565b610110565b6040516100719190610503565b60405180910390f35b61008d610088366004610435565b6101e1565b60408051825181526020928301519281019290925201610071565b6000546100c89073ffffffffffffffffffffffffffffffffffffffff1681565b60405173ffffffffffffffffffffffffffffffffffffffff9091168152602001610071565b6101006100fb366004610435565b61026e565b6040519015158152602001610071565b606061011c8383610281565b610186576040517f08c379a000000000000000000000000000000000000000000000000000000000815260206004820152600c60248201527f696e76616c696420646174610000000000000000000000000000000000000000604482015260640160405180910390fd5b600080610193858561036a565b9150915081816040516020016101a991906105aa565b60408051601f19818403018152908290526101c79291602001610722565b604051602081830303815290604052925050505b92915050565b60408051808201909152600080825260208201526000610201848461036a565b60c08101518452604081015160208501529150600090505b8161020001515181101561026657816102000151818151811061023e5761023e61076a565b6020026020010151600001518360200181815161025b9190610780565b905250600101610219565b505092915050565b600061027a8383610281565b9392505050565b6000806000610290858561036a565b90925090507fffffffff0000000000000000000000000000000000000000000000000000000082167ffb0f3ee100000000000000000000000000000000000000000000000000000000146102e9576000925050506101db565b610100810151600281901c600081600581111561030857610308610516565b1461031a5760009450505050506101db565b8260e001516001146103335760009450505050506101db565b825173ffffffffffffffffffffffffffffffffffffffff161561035d5760009450505050506101db565b5060019695505050505050565b604080516102408101825260008082526020820181905291810182905260608082018390526080820183905260a0820183905260c0820183905260e08201839052610100820183905261012082018390526101408201839052610160820183905261018082018390526101a082018390526101c082018390526101e0820183905261020082018190526102208201526104076004600085876107a6565b610410916107d0565b915061041f83600481876107a6565b81019061042c9190610a0b565b90509250929050565b6000806020838503121561044857600080fd5b823567ffffffffffffffff8082111561046057600080fd5b818501915085601f83011261047457600080fd5b81358181111561048357600080fd5b86602082850101111561049557600080fd5b60209290920196919550909350505050565b60005b838110156104c25781810151838201526020016104aa565b838111156104d1576000848401525b50505050565b600081518084526104ef8160208601602086016104a7565b601f01601f19169290920160200192915050565b60208152600061027a60208301846104d7565b634e487b7160e01b600052602160045260246000fd5b6018811061054a57634e487b7160e01b600052602160045260246000fd5b9052565b600081518084526020808501945080840160005b8381101561059f5781518051885283015173ffffffffffffffffffffffffffffffffffffffff168388015260409096019590820190600101610562565b509495945050505050565b602081526105d160208201835173ffffffffffffffffffffffffffffffffffffffff169052565b60208201516040820152604082015160608201526000606083015161060e608084018273ffffffffffffffffffffffffffffffffffffffff169052565b50608083015173ffffffffffffffffffffffffffffffffffffffff811660a08401525060a083015173ffffffffffffffffffffffffffffffffffffffff811660c08401525060c083015160e083015260e08301516101008181850152808501519150506101206106808185018361052c565b8401516101408481019190915284015161016080850191909152840151610180808501919091528401516101a0808501919091528401516101c0808501919091528401516101e08085019190915284015161020080850191909152840151610240610220808601829052919250906106fc61026086018461054e565b90860151858203601f19018387015290925061071883826104d7565b9695505050505050565b7fffffffff00000000000000000000000000000000000000000000000000000000831681526000825161075c8160048501602087016104a7565b919091016004019392505050565b634e487b7160e01b600052603260045260246000fd5b600082198211156107a157634e487b7160e01b600052601160045260246000fd5b500190565b600080858511156107b657600080fd5b838611156107c357600080fd5b5050820193919092039150565b7fffffffff0000000000000000000000000000000000000000000000000000000081358181169160048510156102665760049490940360031b84901b1690921692915050565b634e487b7160e01b600052604160045260246000fd5b6040805190810167ffffffffffffffff8111828210171561084f5761084f610816565b60405290565b604051610240810167ffffffffffffffff8111828210171561084f5761084f610816565b604051601f8201601f1916810167ffffffffffffffff811182821017156108a2576108a2610816565b604052919050565b73ffffffffffffffffffffffffffffffffffffffff811681146108cc57600080fd5b50565b80356108da816108aa565b919050565b8035601881106108da57600080fd5b600082601f8301126108ff57600080fd5b8135602067ffffffffffffffff82111561091b5761091b610816565b610929818360051b01610879565b82815260069290921b8401810191818101908684111561094857600080fd5b8286015b8481101561099057604081890312156109655760008081fd5b61096d61082c565b813581528482013561097e816108aa565b8186015283529183019160400161094c565b509695505050505050565b600082601f8301126109ac57600080fd5b813567ffffffffffffffff8111156109c6576109c6610816565b6109d96020601f19601f84011601610879565b8181528460208386010111156109ee57600080fd5b816020850160208301376000918101602001919091529392505050565b600060208284031215610a1d57600080fd5b813567ffffffffffffffff80821115610a3557600080fd5b908301906102408286031215610a4a57600080fd5b610a52610855565b610a5b836108cf565b81526020830135602082015260408301356040820152610a7d606084016108cf565b6060820152610a8e608084016108cf565b6080820152610a9f60a084016108cf565b60a082015260c083013560c082015260e083013560e0820152610100610ac68185016108df565b9082015261012083810135908201526101408084013590820152610160808401359082015261018080840135908201526101a080840135908201526101c080840135908201526101e080840135908201526102008084013583811115610b2b57600080fd5b610b37888287016108ee565b8284015250506102208084013583811115610b5157600080fd5b610b5d8882870161099b565b91830191909152509594505050505056fea2646970667358221220b06a27bd3cce95985d2db46248355e6a30f79f98375815ecc362a0ee2ee5683a64736f6c63430008090033",
  "devdoc": {
    "kind": "dev",
    "methods": {},
    "version": 1
  },
  "userdoc": {
    "kind": "user",
    "methods": {},
    "version": 1
  },
  "storageLayout": {
    "storage": [
      {
        "astId": 16193,
        "contract": "contracts/voyage/adapter/SeaportAdapter.sol:SeaportAdapter",
        "label": "weth",
        "offset": 0,
        "slot": "0",
        "type": "t_address"
      }
    ],
    "types": {
      "t_address": {
        "encoding": "inplace",
        "label": "address",
        "numberOfBytes": "20"
      }
    }
  }
}