{
  "address": "0xC2b3F4C84f3cFEd28148875Da98bE6C4D28c5534",
  "abi": [
    {
      "inputs": [
        {
          "internalType": "address",
          "name": "_weth",
          "type": "address"
        }
      ],
      "stateMutability": "nonpayable",
      "type": "constructor"
    },
    {
      "inputs": [
        {
          "internalType": "bytes",
          "name": "_data",
          "type": "bytes"
        }
      ],
      "name": "execute",
      "outputs": [
        {
          "internalType": "bytes",
          "name": "",
          "type": "bytes"
        }
      ],
      "stateMutability": "pure",
      "type": "function"
    },
    {
      "inputs": [
        {
          "internalType": "bytes",
          "name": "_data",
          "type": "bytes"
        }
      ],
      "name": "extractAssetInfo",
      "outputs": [
        {
          "components": [
            {
              "internalType": "uint256",
              "name": "tokenId",
              "type": "uint256"
            },
            {
              "internalType": "uint256",
              "name": "assetPrice",
              "type": "uint256"
            }
          ],
          "internalType": "struct AssetInfo",
          "name": "assetInfo",
          "type": "tuple"
        }
      ],
      "stateMutability": "pure",
      "type": "function"
    },
    {
      "inputs": [
        {
          "internalType": "bytes",
          "name": "_data",
          "type": "bytes"
        }
      ],
      "name": "validate",
      "outputs": [
        {
          "internalType": "bool",
          "name": "",
          "type": "bool"
        }
      ],
      "stateMutability": "pure",
      "type": "function"
    },
    {
      "inputs": [],
      "name": "weth",
      "outputs": [
        {
          "internalType": "address",
          "name": "",
          "type": "address"
        }
      ],
      "stateMutability": "view",
      "type": "function"
    }
  ],
  "transactionHash": "0xf562c2e7ddd8e94d59b48658462f818b25cbad98983b15473121c70e190024e3",
  "args": [
    "0x119f926bE2c7cee50927c14139367057442b7068"
  ],
  "numDeployments": 2,
  "solcInputHash": "41a06cd71375a3553501e1e8085a4a59",
  "bytecode": "0x608060405234801561001057600080fd5b50604051610a43380380610a4383398101604081905261002f91610054565b600080546001600160a01b0319166001600160a01b0392909216919091179055610084565b60006020828403121561006657600080fd5b81516001600160a01b038116811461007d57600080fd5b9392505050565b6109b0806100936000396000f3fe608060405234801561001057600080fd5b506004361061004c5760003560e01c806309c5eabe146100515780630cfe386f1461007a5780633fc8cef3146100a8578063c16e50ef146100ed575b600080fd5b61006461005f3660046103db565b610110565b604051610071919061047d565b60405180910390f35b61008d6100883660046103db565b6101c8565b60408051825181526020928301519281019290925201610071565b6000546100c89073ffffffffffffffffffffffffffffffffffffffff1681565b60405173ffffffffffffffffffffffffffffffffffffffff9091168152602001610071565b6101006100fb3660046103db565b61021e565b6040519015158152602001610071565b606061011c8383610231565b610186576040517f08c379a000000000000000000000000000000000000000000000000000000000815260206004820152600c60248201527f696e76616c696420646174610000000000000000000000000000000000000000604482015260640160405180910390fd5b60006101928484610336565b9050806040015181606001516040516020016101af9291906104b0565b6040516020818303038152906040529150505b92915050565b604080518082019091526000808252602082015260006101e88484610336565b9050600081606001518060200190518101906102049190610710565b604081015160208086019190915201518352505092915050565b600061022a8383610231565b9392505050565b60008061023e8484610336565b60408101519091507fffffffff00000000000000000000000000000000000000000000000000000000167ffb0f3ee100000000000000000000000000000000000000000000000000000000146102985760009150506101c2565b600081606001518060200190518101906102b29190610710565b610100810151909150600281901c60008160058111156102d4576102d4610873565b146102e65760009450505050506101c2565b8260e001516001146102ff5760009450505050506101c2565b825173ffffffffffffffffffffffffffffffffffffffff16156103295760009450505050506101c2565b5060019695505050505050565b60408051608081018252600080825260208201819052918101919091526060808201526040805160808101825260008082526020820181905291810191909152606080820152610388838501856108a2565b60608501527fffffffff0000000000000000000000000000000000000000000000000000000016604084015273ffffffffffffffffffffffffffffffffffffffff90811660208401521681529392505050565b600080602083850312156103ee57600080fd5b823567ffffffffffffffff8082111561040657600080fd5b818501915085601f83011261041a57600080fd5b81358181111561042957600080fd5b86602082850101111561043b57600080fd5b60209290920196919550909350505050565b60005b83811015610468578181015183820152602001610450565b83811115610477576000848401525b50505050565b602081526000825180602084015261049c81604085016020870161044d565b601f01601f19169190910160400192915050565b7fffffffff0000000000000000000000000000000000000000000000000000000083168152600082516104ea81600485016020870161044d565b919091016004019392505050565b7f4e487b7100000000000000000000000000000000000000000000000000000000600052604160045260246000fd5b6040805190810167ffffffffffffffff8111828210171561054a5761054a6104f8565b60405290565b604051610240810167ffffffffffffffff8111828210171561054a5761054a6104f8565b604051601f8201601f1916810167ffffffffffffffff8111828210171561059d5761059d6104f8565b604052919050565b73ffffffffffffffffffffffffffffffffffffffff811681146105c757600080fd5b50565b80516105d5816105a5565b919050565b8051601881106105d557600080fd5b600082601f8301126105fa57600080fd5b8151602067ffffffffffffffff821115610616576106166104f8565b610624818360051b01610574565b82815260069290921b8401810191818101908684111561064357600080fd5b8286015b8481101561068b57604081890312156106605760008081fd5b610668610527565b8151815284820151610679816105a5565b81860152835291830191604001610647565b509695505050505050565b600067ffffffffffffffff8211156106b0576106b06104f8565b50601f01601f191660200190565b600082601f8301126106cf57600080fd5b81516106e26106dd82610696565b610574565b8181528460208386010111156106f757600080fd5b61070882602083016020870161044d565b949350505050565b60006020828403121561072257600080fd5b815167ffffffffffffffff8082111561073a57600080fd5b90830190610240828603121561074f57600080fd5b610757610550565b610760836105ca565b81526020830151602082015260408301516040820152610782606084016105ca565b6060820152610793608084016105ca565b60808201526107a460a084016105ca565b60a082015260c083015160c082015260e083015160e08201526101006107cb8185016105da565b9082015261012083810151908201526101408084015190820152610160808401519082015261018080840151908201526101a080840151908201526101c080840151908201526101e08084015190820152610200808401518381111561083057600080fd5b61083c888287016105e9565b828401525050610220808401518381111561085657600080fd5b610862888287016106be565b918301919091525095945050505050565b7f4e487b7100000000000000000000000000000000000000000000000000000000600052602160045260246000fd5b600080600080608085870312156108b857600080fd5b84356108c3816105a5565b935060208501356108d3816105a5565b925060408501357fffffffff000000000000000000000000000000000000000000000000000000008116811461090857600080fd5b9150606085013567ffffffffffffffff81111561092457600080fd5b8501601f8101871361093557600080fd5b80356109436106dd82610696565b81815288602083850101111561095857600080fd5b816020840160208301376000602083830101528093505050509295919450925056fea2646970667358221220fddf6c29f3091abb79a455679d3aedb1aabe21e9b89d30dfc21abe49018bb47964736f6c63430008090033",
  "devdoc": {
    "kind": "dev",
    "methods": {},
    "version": 1
  },
  "userdoc": {
    "kind": "user",
    "methods": {},
    "version": 1
  },
  "storageLayout": {
    "storage": [
      {
        "astId": 14600,
        "contract": "contracts/voyage/adapter/SeaportAdapter.sol:SeaportAdapter",
        "label": "weth",
        "offset": 0,
        "slot": "0",
        "type": "t_address"
      }
    ],
    "types": {
      "t_address": {
        "encoding": "inplace",
        "label": "address",
        "numberOfBytes": "20"
      }
    }
  }
}