{
  "address": "0x0959338AE75b665472B01A3ddDC13FB1584169EA",
  "abi": [
    {
      "inputs": [
        {
          "internalType": "address",
          "name": "_weth",
          "type": "address"
        }
      ],
      "stateMutability": "nonpayable",
      "type": "constructor"
    },
    {
      "inputs": [
        {
          "internalType": "bytes",
          "name": "_data",
          "type": "bytes"
        }
      ],
      "name": "execute",
      "outputs": [
        {
          "internalType": "bytes",
          "name": "",
          "type": "bytes"
        }
      ],
      "stateMutability": "pure",
      "type": "function"
    },
    {
      "inputs": [
        {
          "internalType": "bytes",
          "name": "_data",
          "type": "bytes"
        }
      ],
      "name": "extractAssetPrice",
      "outputs": [
        {
          "internalType": "uint256",
          "name": "",
          "type": "uint256"
        }
      ],
      "stateMutability": "pure",
      "type": "function"
    },
    {
      "inputs": [
        {
          "internalType": "bytes",
          "name": "_data",
          "type": "bytes"
        }
      ],
      "name": "validate",
      "outputs": [
        {
          "internalType": "bool",
          "name": "",
          "type": "bool"
        }
      ],
      "stateMutability": "pure",
      "type": "function"
    },
    {
      "inputs": [],
      "name": "weth",
      "outputs": [
        {
          "internalType": "address",
          "name": "",
          "type": "address"
        }
      ],
      "stateMutability": "view",
      "type": "function"
    }
  ],
  "transactionHash": "0x3d13c9ea3a1397fab1a12dd0d827c99bc06bac76958034aac1ab048c525df01f",
  "args": [
    "0x119f926bE2c7cee50927c14139367057442b7068"
  ],
  "numDeployments": 1,
  "solcInputHash": "12dd858cd3471725424835f3a0db1659",
  "bytecode": "0x608060405234801561001057600080fd5b50604051610a16380380610a1683398101604081905261002f91610054565b600080546001600160a01b0319166001600160a01b0392909216919091179055610084565b60006020828403121561006657600080fd5b81516001600160a01b038116811461007d57600080fd5b9392505050565b610983806100936000396000f3fe608060405234801561001057600080fd5b506004361061004c5760003560e01c806309c5eabe146100515780633fc8cef31461007a5780638045e15c146100bf578063c16e50ef146100e0575b600080fd5b61006461005f3660046103ae565b610103565b6040516100719190610450565b60405180910390f35b60005461009a9073ffffffffffffffffffffffffffffffffffffffff1681565b60405173ffffffffffffffffffffffffffffffffffffffff9091168152602001610071565b6100d26100cd3660046103ae565b6101bb565b604051908152602001610071565b6100f36100ee3660046103ae565b6101f1565b6040519015158152602001610071565b606061010f8383610204565b610179576040517f08c379a000000000000000000000000000000000000000000000000000000000815260206004820152600c60248201527f696e76616c696420646174610000000000000000000000000000000000000000604482015260640160405180910390fd5b60006101858484610309565b9050806040015181606001516040516020016101a2929190610483565b6040516020818303038152906040529150505b92915050565b6000806101c88484610309565b9050600081606001518060200190518101906101e491906106e3565b6040015195945050505050565b60006101fd8383610204565b9392505050565b6000806102118484610309565b60408101519091507fffffffff00000000000000000000000000000000000000000000000000000000167ffb0f3ee1000000000000000000000000000000000000000000000000000000001461026b5760009150506101b5565b6000816060015180602001905181019061028591906106e3565b610100810151909150600281901c60008160058111156102a7576102a7610846565b146102b95760009450505050506101b5565b8260e001516001146102d25760009450505050506101b5565b825173ffffffffffffffffffffffffffffffffffffffff16156102fc5760009450505050506101b5565b5060019695505050505050565b6040805160808101825260008082526020820181905291810191909152606080820152604080516080810182526000808252602082018190529181019190915260608082015261035b83850185610875565b60608501527fffffffff0000000000000000000000000000000000000000000000000000000016604084015273ffffffffffffffffffffffffffffffffffffffff90811660208401521681529392505050565b600080602083850312156103c157600080fd5b823567ffffffffffffffff808211156103d957600080fd5b818501915085601f8301126103ed57600080fd5b8135818111156103fc57600080fd5b86602082850101111561040e57600080fd5b60209290920196919550909350505050565b60005b8381101561043b578181015183820152602001610423565b8381111561044a576000848401525b50505050565b602081526000825180602084015261046f816040850160208701610420565b601f01601f19169190910160400192915050565b7fffffffff0000000000000000000000000000000000000000000000000000000083168152600082516104bd816004850160208701610420565b919091016004019392505050565b7f4e487b7100000000000000000000000000000000000000000000000000000000600052604160045260246000fd5b6040805190810167ffffffffffffffff8111828210171561051d5761051d6104cb565b60405290565b604051610240810167ffffffffffffffff8111828210171561051d5761051d6104cb565b604051601f8201601f1916810167ffffffffffffffff81118282101715610570576105706104cb565b604052919050565b73ffffffffffffffffffffffffffffffffffffffff8116811461059a57600080fd5b50565b80516105a881610578565b919050565b8051601881106105a857600080fd5b600082601f8301126105cd57600080fd5b8151602067ffffffffffffffff8211156105e9576105e96104cb565b6105f7818360051b01610547565b82815260069290921b8401810191818101908684111561061657600080fd5b8286015b8481101561065e57604081890312156106335760008081fd5b61063b6104fa565b815181528482015161064c81610578565b8186015283529183019160400161061a565b509695505050505050565b600067ffffffffffffffff821115610683576106836104cb565b50601f01601f191660200190565b600082601f8301126106a257600080fd5b81516106b56106b082610669565b610547565b8181528460208386010111156106ca57600080fd5b6106db826020830160208701610420565b949350505050565b6000602082840312156106f557600080fd5b815167ffffffffffffffff8082111561070d57600080fd5b90830190610240828603121561072257600080fd5b61072a610523565b6107338361059d565b815260208301516020820152604083015160408201526107556060840161059d565b60608201526107666080840161059d565b608082015261077760a0840161059d565b60a082015260c083015160c082015260e083015160e082015261010061079e8185016105ad565b9082015261012083810151908201526101408084015190820152610160808401519082015261018080840151908201526101a080840151908201526101c080840151908201526101e08084015190820152610200808401518381111561080357600080fd5b61080f888287016105bc565b828401525050610220808401518381111561082957600080fd5b61083588828701610691565b918301919091525095945050505050565b7f4e487b7100000000000000000000000000000000000000000000000000000000600052602160045260246000fd5b6000806000806080858703121561088b57600080fd5b843561089681610578565b935060208501356108a681610578565b925060408501357fffffffff00000000000000000000000000000000000000000000000000000000811681146108db57600080fd5b9150606085013567ffffffffffffffff8111156108f757600080fd5b8501601f8101871361090857600080fd5b80356109166106b082610669565b81815288602083850101111561092b57600080fd5b816020840160208301376000602083830101528093505050509295919450925056fea2646970667358221220bc0f1e8cf4a26df64ddc2abd8d9f2cdba0f725f12f2d6ddba2361f1a6e3e2a0c64736f6c63430008090033",
  "devdoc": {
    "kind": "dev",
    "methods": {},
    "version": 1
  },
  "userdoc": {
    "kind": "user",
    "methods": {},
    "version": 1
  },
  "storageLayout": {
    "storage": [
      {
        "astId": 14560,
        "contract": "contracts/voyage/adapter/SeaportAdapter.sol:SeaportAdapter",
        "label": "weth",
        "offset": 0,
        "slot": "0",
        "type": "t_address"
      }
    ],
    "types": {
      "t_address": {
        "encoding": "inplace",
        "label": "address",
        "numberOfBytes": "20"
      }
    }
  }
}