{
  "address": "0x19BC3629bb1934943741Dd11eb89E3bB3Fb4Be35",
  "abi": [
    {
      "inputs": [],
      "name": "FailedDeployVault",
      "type": "error"
    },
    {
      "inputs": [],
      "name": "InvalidCollectionAddress",
      "type": "error"
    },
    {
      "inputs": [],
      "name": "InvalidCurrencyAddress",
      "type": "error"
    },
    {
      "inputs": [],
      "name": "InvalidVaultImpl",
      "type": "error"
    },
    {
      "inputs": [],
      "name": "InvalidWithdrawal",
      "type": "error"
    },
    {
      "anonymous": false,
      "inputs": [
        {
          "indexed": false,
          "internalType": "address",
          "name": "_vault",
          "type": "address"
        },
        {
          "indexed": false,
          "internalType": "address",
          "name": "_owner",
          "type": "address"
        },
        {
          "indexed": false,
          "internalType": "uint256",
          "name": "_numVaults",
          "type": "uint256"
        }
      ],
      "name": "VaultCreated",
      "type": "event"
    },
    {
      "anonymous": false,
      "inputs": [
        {
          "indexed": false,
          "internalType": "address",
          "name": "_impl",
          "type": "address"
        }
      ],
      "name": "VaultImplementationUpdated",
      "type": "event"
    },
    {
      "anonymous": false,
      "inputs": [
        {
          "indexed": true,
          "internalType": "address",
          "name": "_vault",
          "type": "address"
        },
        {
          "indexed": true,
          "internalType": "address",
          "name": "_asset",
          "type": "address"
        },
        {
          "indexed": false,
          "internalType": "address",
          "name": "_sponsor",
          "type": "address"
        },
        {
          "indexed": false,
          "internalType": "uint256",
          "name": "_amount",
          "type": "uint256"
        }
      ],
      "name": "VaultMarginCredited",
      "type": "event"
    },
    {
      "anonymous": false,
      "inputs": [
        {
          "indexed": true,
          "internalType": "address",
          "name": "_vault",
          "type": "address"
        },
        {
          "indexed": true,
          "internalType": "address",
          "name": "_asset",
          "type": "address"
        },
        {
          "indexed": false,
          "internalType": "address",
          "name": "_sponsor",
          "type": "address"
        },
        {
          "indexed": false,
          "internalType": "uint256",
          "name": "_amount",
          "type": "uint256"
        }
      ],
      "name": "VaultMarginRedeemed",
      "type": "event"
    },
    {
      "inputs": [
        {
          "internalType": "address",
          "name": "_collection",
          "type": "address"
        }
      ],
      "name": "collectionInitialized",
      "outputs": [
        {
          "internalType": "bool",
          "name": "",
          "type": "bool"
        }
      ],
      "stateMutability": "view",
      "type": "function"
    },
    {
      "inputs": [
        {
          "internalType": "address",
          "name": "_user",
          "type": "address"
        },
        {
          "internalType": "bytes20",
          "name": "_salt",
          "type": "bytes20"
        }
      ],
      "name": "computeCounterfactualAddress",
      "outputs": [
        {
          "internalType": "address",
          "name": "",
          "type": "address"
        }
      ],
      "stateMutability": "view",
      "type": "function"
    },
    {
      "inputs": [
        {
          "internalType": "address",
          "name": "_user",
          "type": "address"
        },
        {
          "internalType": "bytes20",
          "name": "_salt",
          "type": "bytes20"
        }
      ],
      "name": "createVault",
      "outputs": [],
      "stateMutability": "nonpayable",
      "type": "function"
    },
    {
      "inputs": [
        {
          "internalType": "address",
          "name": "_user",
          "type": "address"
        }
      ],
      "name": "getVaultAddr",
      "outputs": [
        {
          "internalType": "address",
          "name": "",
          "type": "address"
        }
      ],
      "stateMutability": "view",
      "type": "function"
    },
    {
      "inputs": [],
      "name": "getVaultImpl",
      "outputs": [
        {
          "internalType": "address",
          "name": "",
          "type": "address"
        }
      ],
      "stateMutability": "view",
      "type": "function"
    },
    {
      "inputs": [
        {
          "internalType": "address",
          "name": "_impl",
          "type": "address"
        }
      ],
      "name": "setVaultImpl",
      "outputs": [],
      "stateMutability": "nonpayable",
      "type": "function"
    },
    {
      "inputs": [],
      "name": "subVaultBeacon",
      "outputs": [
        {
          "internalType": "address",
          "name": "",
          "type": "address"
        }
      ],
      "stateMutability": "view",
      "type": "function"
    },
    {
      "inputs": [
        {
          "internalType": "address",
          "name": "_vault",
          "type": "address"
        },
        {
          "internalType": "address",
          "name": "_currency",
          "type": "address"
        },
        {
          "internalType": "address",
          "name": "_to",
          "type": "address"
        },
        {
          "internalType": "uint256",
          "name": "_amount",
          "type": "uint256"
        }
      ],
      "name": "transferCurrency",
      "outputs": [],
      "stateMutability": "nonpayable",
      "type": "function"
    },
    {
      "inputs": [
        {
          "internalType": "address",
          "name": "_vault",
          "type": "address"
        },
        {
          "internalType": "uint256",
          "name": "_vaule",
          "type": "uint256"
        }
      ],
      "name": "unwrapVaultETH",
      "outputs": [],
      "stateMutability": "nonpayable",
      "type": "function"
    },
    {
      "inputs": [],
      "name": "vaultBeacon",
      "outputs": [
        {
          "internalType": "address",
          "name": "",
          "type": "address"
        }
      ],
      "stateMutability": "view",
      "type": "function"
    },
    {
      "inputs": [
        {
          "internalType": "address",
          "name": "_vault",
          "type": "address"
        },
        {
          "internalType": "address",
          "name": "_collection",
          "type": "address"
        },
        {
          "internalType": "uint256",
          "name": "_tokenId",
          "type": "uint256"
        }
      ],
      "name": "withdrawNFT",
      "outputs": [],
      "stateMutability": "nonpayable",
      "type": "function"
    },
    {
      "inputs": [
        {
          "internalType": "address",
          "name": "_vault",
          "type": "address"
        },
        {
          "internalType": "uint256",
          "name": "_value",
          "type": "uint256"
        }
      ],
      "name": "wrapVaultETH",
      "outputs": [],
      "stateMutability": "nonpayable",
      "type": "function"
    }
  ],
  "transactionHash": "0xff7fd5fa84a71dc4421462445f86b4ae24ae16730f33f585484fc736b6b1277c",
  "args": [],
  "numDeployments": 5,
  "solcInputHash": "4eb6d4af9e40422718c79de92b32f7f9",
  "bytecode": "0x608060405234801561001057600080fd5b506001600055612473806100256000396000f3fe60806040523480156200001157600080fd5b5060043610620000e55760003560e01c80639553c04a116200008b578063bff863ec1162000062578063bff863ec1462000214578063d0d33887146200022b578063ed3a290314620002a557600080fd5b80639553c04a14620001e95780639d343be114620002005780639fd9d73e146200020a57600080fd5b806331c13bd811620000c057806331c13bd814620001a45780635d148aef14620001bb57806389586a2514620001d257600080fd5b806307e9072714620000ea5780632b44be7314620001555780632cfa44d2146200018b575b600080fd5b62000138620000fb36600462001766565b6001600160a01b0390811660009081527fcefae263aa054db53617928bc915f31f052caa2df6a635924d36f37f8c9c51a260205260409020541690565b6040516001600160a01b0390911681526020015b60405180910390f35b7fcefae263aa054db53617928bc915f31f052caa2df6a635924d36f37f8c9c519b5461010090046001600160a01b031662000138565b620001a26200019c3660046200178d565b620002c1565b005b620001a2620001b5366004620017bc565b6200043c565b620001a2620001cc36600462001766565b62000646565b62000138620001e336600462001814565b6200073f565b620001a2620001fa36600462001814565b620009a9565b6200013862000c66565b6200013862000c9a565b620001a26200022536600462001863565b62000ca6565b620002946200023c36600462001766565b6001600160a01b031660009081527fcefae263aa054db53617928bc915f31f052caa2df6a635924d36f37f8c9c5196602052604090206007015474010000000000000000000000000000000000000000900460ff1690565b60405190151581526020016200014c565b620001a2620002b63660046200178d565b62000f67565b905090565b81620002cc62001111565b620002d8828262001184565b60026000541415620003315760405162461bcd60e51b815260206004820152601f60248201527f5265656e7472616e637947756172643a207265656e7472616e742063616c6c0060448201526064015b60405180910390fd5b60026000908155604080517fd0e30db0000000000000000000000000000000000000000000000000000000006020820181905282516004818403018152602483019093527fcefae263aa054db53617928bc915f31f052caa2df6a635924d36f37f8c9c519854909391620003ba916201000090046001600160a01b03169084906044016200190a565b60408051601f198184030181529082905263156b131d60e31b825291506001600160a01b0388169063ab5898e890620003fa9084908a906004016200192e565b600060405180830381600087803b1580156200041557600080fd5b505af11580156200042a573d6000803e3d6000fd5b50506001600055505050505050505050565b836200044762001111565b62000453828262001184565b60026000541415620004a85760405162461bcd60e51b815260206004820152601f60248201527f5265656e7472616e637947756172643a207265656e7472616e742063616c6c00604482015260640162000328565b6002600055620004b8856200126e565b6001600160a01b0385811660009081527fcefae263aa054db53617928bc915f31f052caa2df6a635924d36f37f8c9c5196602052604090206006015416156200052d576040517fc2cf440900000000000000000000000000000000000000000000000000000000815260040160405180910390fd5b604080516001600160a01b038881166020830152861681830152606080820186905282518083039091018152608082019092527f23b872dd00000000000000000000000000000000000000000000000000000000919060009062000598908490849060a00162001952565b604051602081830303815290604052905060008882604051602001620005c09291906200190a565b60408051601f198184030181529082905263156b131d60e31b825291506001600160a01b038b169063ab5898e890620006019084906000906004016200192e565b600060405180830381600087803b1580156200061c57600080fd5b505af115801562000631573d6000803e3d6000fd5b50506001600055505050505050505050505050565b62000650620012b3565b6200069e5760405162461bcd60e51b815260206004820152601660248201527f63616c6c206973206e6f7420617574686f726973656400000000000000000000604482015260640162000328565b6001600160a01b0381161580620006bd57506001600160a01b0381163b155b15620006f5576040517fc289ef0800000000000000000000000000000000000000000000000000000000815260040160405180910390fd5b62000700816200130f565b6040516001600160a01b03821681527fa18254b43b40616bb21983c995ff77276701b68421ab1512749ed80d91e12a859060200160405180910390a150565b6000806200081d847fcefae263aa054db53617928bc915f31f052caa2df6a635924d36f37f8c9c51a8547fcefae263aa054db53617928bc915f31f052caa2df6a635924d36f37f8c9c519854604080513060248201526001600160a01b0394851660448201529284166064840152620100009091049092166084808301919091528251808303909101815260a49091019091526020810180517bffffffffffffffffffffffffffffffffffffffffffffffffffffffff167ff8c8765e0000000000000000000000000000000000000000000000000000000017905290565b9050600060405180602001620008339062001742565b601f1982820381018352601f909101166040526200085062000c66565b83604051602001620008649291906200190a565b60408051601f19818403018152908290526200088492916020016200199c565b60408051601f19818403018152919052905060007fff00000000000000000000000000000000000000000000000000000000000000306200091f87896040805160609290921b6bffffffffffffffffffffffff19908116602080850191909152825160148186030181526034850184528051908201206054850152931660748301528051606881840301815260889092019052805191012090565b84805190602001206040516020016200098794939291907fff0000000000000000000000000000000000000000000000000000000000000094909416845260609290921b6bffffffffffffffffffffffff191660018401526015830152603582015260550190565b60408051808303601f1901815291905280516020909101209695505050505050565b620009b3620012b3565b62000a015760405162461bcd60e51b815260206004820152601660248201527f63616c6c206973206e6f7420617574686f726973656400000000000000000000604482015260640162000328565b600062000ade837fcefae263aa054db53617928bc915f31f052caa2df6a635924d36f37f8c9c51a8547fcefae263aa054db53617928bc915f31f052caa2df6a635924d36f37f8c9c519854604080513060248201526001600160a01b0394851660448201529284166064840152620100009091049092166084808301919091528251808303909101815260a49091019091526020810180517bffffffffffffffffffffffffffffffffffffffffffffffffffffffff167ff8c8765e0000000000000000000000000000000000000000000000000000000017905290565b604080516bffffffffffffffffffffffff19606087901b8116602080840191909152835180840360140181526034840185528051908201206054840152908616607483015282518083036068018152608890920190925280519101209091506000806040518060200162000b529062001742565b601f1982820381018352601f9091011660405262000b6f62000c66565b8560405160200162000b839291906200190a565b60408051601f198184030181529082905262000ba392916020016200199c565b6040516020818303038152906040529050828151602083016000f591506001600160a01b03821662000c01576040517f1ce7716300000000000000000000000000000000000000000000000000000000815260040160405180910390fd5b600062000c0f8784620013ae565b604080516001600160a01b0380871682528a1660208201529081018290529091507f0b045af6aff86dd2cda5342fd0329a354dc66759ff1eda00d7ecf13a76c7fb3b9060600160405180910390a150505050505050565b6000620002bc7fcefae263aa054db53617928bc915f31f052caa2df6a635924d36f37f8c9c519c546001600160a01b031690565b6000620002bc620014e8565b8262000cb162001111565b62000cbd828262001184565b6002600054141562000d125760405162461bcd60e51b815260206004820152601f60248201527f5265656e7472616e637947756172643a207265656e7472616e742063616c6c00604482015260640162000328565b600260005562000d22846200126e565b6001600160a01b03841660009081527fcefae263aa054db53617928bc915f31f052caa2df6a635924d36f37f8c9c51a46020908152604080832086845290915290205460ff161562000da0576040517fc945242d00000000000000000000000000000000000000000000000000000000815260040160405180910390fd5b6001600160a01b03841660009081527fcefae263aa054db53617928bc915f31f052caa2df6a635924d36f37f8c9c51a460209081526040808320868452909152812080547fffffffffffffffffffffff000000000000000000000000000000000000000000168155600181018290556002810180547fffffffffffffffffffffffff00000000000000000000000000000000000000001690556003018190557f23b872dd00000000000000000000000000000000000000000000000000000000908662000e6c62001111565b604080516001600160a01b03938416602082015292909116908201526060810186905260800160405160208183030381529060405290506000828260405160200162000eba92919062001952565b60405160208183030381529060405290506000878260405160200162000ee29291906200190a565b60408051601f198184030181529082905263156b131d60e31b825291506001600160a01b038a169063ab5898e89062000f239084906000906004016200192e565b600060405180830381600087803b15801562000f3e57600080fd5b505af115801562000f53573d6000803e3d6000fd5b505060016000555050505050505050505050565b8162000f7262001111565b62000f7e828262001184565b6002600054141562000fd35760405162461bcd60e51b815260206004820152601f60248201527f5265656e7472616e637947756172643a207265656e7472616e742063616c6c00604482015260640162000328565b60026000908155604080516020808201879052825180830390910181528183019092527f2e1a7d4d0000000000000000000000000000000000000000000000000000000092906200102b908490849060600162001952565b60405160208183030381529060405290506000620010667fcefae263aa054db53617928bc915f31f052caa2df6a635924d36f37f8c9c519390565b600501546040516200108d916201000090046001600160a01b03169084906020016200190a565b60408051601f198184030181529082905263156b131d60e31b825291506001600160a01b0389169063ab5898e890620010ce9084906000906004016200192e565b600060405180830381600087803b158015620010e957600080fd5b505af1158015620010fe573d6000803e3d6000fd5b5050600160005550505050505050505050565b6000601436108015906200114e57507fcefae263aa054db53617928bc915f31f052caa2df6a635924d36f37f8c9c51a7546001600160a01b031633145b156200117f57507fffffffffffffffffffffffffffffffffffffffffffffffffffffffffffffffec36013560601c90565b503390565b6001600160a01b0382163b620011dd5760405162461bcd60e51b815260206004820152601360248201527f496e76616c69645661756c744164647265737300000000000000000000000000604482015260640162000328565b6001600160a01b0381811660009081527fcefae263aa054db53617928bc915f31f052caa2df6a635924d36f37f8c9c51a260205260409020548116908316146200126a5760405162461bcd60e51b815260206004820152601060248201527f496e76616c69645661756c7443616c6c00000000000000000000000000000000604482015260640162000328565b5050565b6001600160a01b0381163b620012b0576040517fdb781b8300000000000000000000000000000000000000000000000000000000815260040160405180910390fd5b50565b6000620002bc7fcefae263aa054db53617928bc915f31f052caa2df6a635924d36f37f8c9c51a5620012e462001111565b6000357fffffffff0000000000000000000000000000000000000000000000000000000016620015a1565b7fcefae263aa054db53617928bc915f31f052caa2df6a635924d36f37f8c9c5193600901546040517f3659cfe60000000000000000000000000000000000000000000000000000000081526001600160a01b03838116600483015290911690633659cfe690602401600060405180830381600087803b1580156200139257600080fd5b505af1158015620013a7573d6000803e3d6000fd5b5050505050565b6001600160a01b0382811660009081527fcefae263aa054db53617928bc915f31f052caa2df6a635924d36f37f8c9c51a2602052604081205490917fcefae263aa054db53617928bc915f31f052caa2df6a635924d36f37f8c9c51939116156200145b5760405162461bcd60e51b815260206004820152601360248201527f6f6e65207661756c7420706572206f776e657200000000000000000000000000604482015260640162000328565b600e0180546001810182556000828152602080822090920180546001600160a01b039687167fffffffffffffffffffffffff000000000000000000000000000000000000000091821681179092559690951681527fcefae263aa054db53617928bc915f31f052caa2df6a635924d36f37f8c9c51a290915260409020805490941690921790925554919050565b7fcefae263aa054db53617928bc915f31f052caa2df6a635924d36f37f8c9c519c54604080517f5c60da1b00000000000000000000000000000000000000000000000000000000815290516000926001600160a01b031691635c60da1b916004808301926020929190829003018186803b1580156200156657600080fd5b505afa1580156200157b573d6000803e3d6000fd5b505050506040513d601f19601f82011682018060405250810190620002bc9190620019cf565b82546040517fb70096130000000000000000000000000000000000000000000000000000000081526001600160a01b0384811660048301523060248301527fffffffff0000000000000000000000000000000000000000000000000000000084166044830152600092169063b70096139060640160206040518083038186803b1580156200162e57600080fd5b505afa15801562001643573d6000803e3d6000fd5b505050506040513d601f19601f82011682018060405250810190620016699190620019ef565b806200173a575060018401546040517fb70096130000000000000000000000000000000000000000000000000000000081526001600160a01b0385811660048301523060248301527fffffffff00000000000000000000000000000000000000000000000000000000851660448301529091169063b70096139060640160206040518083038186803b158015620016ff57600080fd5b505afa15801562001714573d6000803e3d6000fd5b505050506040513d601f19601f820116820180604052508101906200173a9190620019ef565b949350505050565b610a2a8062001a1483390190565b6001600160a01b0381168114620012b057600080fd5b6000602082840312156200177957600080fd5b8135620017868162001750565b9392505050565b60008060408385031215620017a157600080fd5b8235620017ae8162001750565b946020939093013593505050565b60008060008060808587031215620017d357600080fd5b8435620017e08162001750565b93506020850135620017f28162001750565b92506040850135620018048162001750565b9396929550929360600135925050565b600080604083850312156200182857600080fd5b8235620018358162001750565b915060208301356bffffffffffffffffffffffff19811681146200185857600080fd5b809150509250929050565b6000806000606084860312156200187957600080fd5b8335620018868162001750565b92506020840135620018988162001750565b929592945050506040919091013590565b60005b83811015620018c6578181015183820152602001620018ac565b83811115620018d6576000848401525b50505050565b60008151808452620018f6816020860160208601620018a9565b601f01601f19169290920160200192915050565b6001600160a01b03831681526040602082015260006200173a6040830184620018dc565b604081526000620019436040830185620018dc565b90508260208301529392505050565b7fffffffff0000000000000000000000000000000000000000000000000000000083168152600082516200198e816004850160208701620018a9565b919091016004019392505050565b60008351620019b0818460208801620018a9565b835190830190620019c6818360208801620018a9565b01949350505050565b600060208284031215620019e257600080fd5b8151620017868162001750565b60006020828403121562001a0257600080fd5b815180151581146200178657600080fdfe608060405260405162000a2a38038062000a2a8339810160408190526200002691620004aa565b62000034828260006200003c565b5050620005e9565b620000478362000121565b6040516001600160a01b038416907f1cf3b03a6cf19fa2baba4df148e9dcabedea7f8a5c07840e207e5c089be95d3e90600090a2600082511180620000895750805b156200011c576200011a836001600160a01b0316635c60da1b6040518163ffffffff1660e01b815260040160206040518083038186803b158015620000cd57600080fd5b505afa158015620000e2573d6000803e3d6000fd5b505050506040513d601f19601f8201168201806040525081019062000108919062000578565b83620002e360201b620000291760201c565b505b505050565b62000137816200031260201b620000551760201c565b620001975760405162461bcd60e51b815260206004820152602560248201527f455243313936373a206e657720626561636f6e206973206e6f74206120636f6e6044820152641d1c9858dd60da1b60648201526084015b60405180910390fd5b62000221816001600160a01b0316635c60da1b6040518163ffffffff1660e01b815260040160206040518083038186803b158015620001d557600080fd5b505afa158015620001ea573d6000803e3d6000fd5b505050506040513d601f19601f8201168201806040525081019062000210919062000578565b6200031260201b620000551760201c565b620002885760405162461bcd60e51b815260206004820152603060248201527f455243313936373a20626561636f6e20696d706c656d656e746174696f6e206960448201526f1cc81b9bdd08184818dbdb9d1c9858dd60821b60648201526084016200018e565b80620002c27fa3f0ad74e5423aebfd80d3ef4346578335a9a72aeaee59ff6cb3582b35133d5060001b6200032160201b620000711760201c565b80546001600160a01b0319166001600160a01b039290921691909117905550565b60606200030b838360405180606001604052806027815260200162000a036027913962000324565b9392505050565b6001600160a01b03163b151590565b90565b60606001600160a01b0384163b6200038e5760405162461bcd60e51b815260206004820152602660248201527f416464726573733a2064656c65676174652063616c6c20746f206e6f6e2d636f6044820152651b9d1c9858dd60d21b60648201526084016200018e565b600080856001600160a01b031685604051620003ab919062000596565b600060405180830381855af49150503d8060008114620003e8576040519150601f19603f3d011682016040523d82523d6000602084013e620003ed565b606091505b509092509050620004008282866200040a565b9695505050505050565b606083156200041b5750816200030b565b8251156200042c5782518084602001fd5b8160405162461bcd60e51b81526004016200018e9190620005b4565b80516001600160a01b03811681146200046057600080fd5b919050565b634e487b7160e01b600052604160045260246000fd5b60005b83811015620004985781810151838201526020016200047e565b838111156200011a5750506000910152565b60008060408385031215620004be57600080fd5b620004c98362000448565b60208401519092506001600160401b0380821115620004e757600080fd5b818501915085601f830112620004fc57600080fd5b81518181111562000511576200051162000465565b604051601f8201601f19908116603f011681019083821181831017156200053c576200053c62000465565b816040528281528860208487010111156200055657600080fd5b620005698360208301602088016200047b565b80955050505050509250929050565b6000602082840312156200058b57600080fd5b6200030b8262000448565b60008251620005aa8184602087016200047b565b9190910192915050565b6020815260008251806020840152620005d58160408501602087016200047b565b601f01601f19169190910160400192915050565b61040a80620005f96000396000f3fe60806040523661001357610011610017565b005b6100115b610027610022610074565b610136565b565b606061004e83836040518060600160405280602781526020016103ae6027913961015a565b9392505050565b73ffffffffffffffffffffffffffffffffffffffff163b151590565b90565b60006100b47fa3f0ad74e5423aebfd80d3ef4346578335a9a72aeaee59ff6cb3582b35133d505473ffffffffffffffffffffffffffffffffffffffff1690565b73ffffffffffffffffffffffffffffffffffffffff16635c60da1b6040518163ffffffff1660e01b815260040160206040518083038186803b1580156100f957600080fd5b505afa15801561010d573d6000803e3d6000fd5b505050506040513d601f19601f8201168201806040525081019061013191906102da565b905090565b3660008037600080366000845af43d6000803e808015610155573d6000f35b3d6000fd5b606073ffffffffffffffffffffffffffffffffffffffff84163b610205576040517f08c379a000000000000000000000000000000000000000000000000000000000815260206004820152602660248201527f416464726573733a2064656c65676174652063616c6c20746f206e6f6e2d636f60448201527f6e7472616374000000000000000000000000000000000000000000000000000060648201526084015b60405180910390fd5b6000808573ffffffffffffffffffffffffffffffffffffffff168560405161022d9190610340565b600060405180830381855af49150503d8060008114610268576040519150601f19603f3d011682016040523d82523d6000602084013e61026d565b606091505b509150915061027d828286610287565b9695505050505050565b6060831561029657508161004e565b8251156102a65782518084602001fd5b816040517f08c379a00000000000000000000000000000000000000000000000000000000081526004016101fc919061035c565b6000602082840312156102ec57600080fd5b815173ffffffffffffffffffffffffffffffffffffffff8116811461004e57600080fd5b60005b8381101561032b578181015183820152602001610313565b8381111561033a576000848401525b50505050565b60008251610352818460208701610310565b9190910192915050565b602081526000825180602084015261037b816040850160208701610310565b601f017fffffffffffffffffffffffffffffffffffffffffffffffffffffffffffffffe016919091016040019291505056fe416464726573733a206c6f772d6c6576656c2064656c65676174652063616c6c206661696c6564a2646970667358221220be28ef223eef64e5fa547e5d5c9cd8eabe825cdda9ccb4118360c3fe9929523b64736f6c63430008090033416464726573733a206c6f772d6c6576656c2064656c65676174652063616c6c206661696c6564a26469706673582212205f876475b3342109846f0ad6c6949beb105360f28ec8df953e152ce29ffece4f64736f6c63430008090033",
  "devdoc": {
    "kind": "dev",
    "methods": {},
    "version": 1
  },
  "userdoc": {
    "kind": "user",
    "methods": {},
    "version": 1
  },
  "storageLayout": {
    "storage": [
      {
        "astId": 6543,
        "contract": "contracts/voyage/facets/VaultFacet.sol:VaultFacet",
        "label": "_status",
        "offset": 0,
        "slot": "0",
        "type": "t_uint256"
      }
    ],
    "types": {
      "t_uint256": {
        "encoding": "inplace",
        "label": "uint256",
        "numberOfBytes": "32"
      }
    }
  }
}