{
  "address": "0xf7da20a70c25d3906c7C990af6A570Ac48EfF891",
  "abi": [
    {
      "inputs": [],
      "name": "Ray",
      "outputs": [
        {
          "internalType": "uint256",
          "name": "",
          "type": "uint256"
        }
      ],
      "stateMutability": "pure",
      "type": "function"
    }
  ],
  "transactionHash": "0x5ed7070fdf46f0b1e0f0b4c295cbf6e15cb1f1dde6d74ad9328b3508c9f65363",
  "args": [],
  "numDeployments": 1,
  "solcInputHash": "61a98dd47a56fbe64984f78de53b81aa",
  "bytecode": "0x608d610038600b82828239805160001a607314602b57634e487b7160e01b600052600060045260246000fd5b30600052607381538281f3fe730000000000000000000000000000000000000000301460806040526004361060335760003560e01c8063df29d071146038575b600080fd5b6b033b2e3c9fd0803ce800000060405190815260200160405180910390f3fea26469706673582212209f7b3029076787058df9ad0ea908faaeec2cda68787026543062445f7e73292664736f6c63430008090033",
  "devdoc": {
    "kind": "dev",
    "methods": {},
    "version": 1
  },
  "userdoc": {
    "kind": "user",
    "methods": {},
    "version": 1
  },
  "storageLayout": {
    "storage": [],
    "types": null
  }
}