{
  "address": "0xb6E6b1f0fDe64d3F9eBC933B27E7E4Ca1cDf5f3A",
  "abi": [
    {
      "inputs": [],
      "name": "Ray",
      "outputs": [
        {
          "internalType": "uint256",
          "name": "",
          "type": "uint256"
        }
      ],
      "stateMutability": "pure",
      "type": "function"
    }
  ],
  "transactionHash": "0xaf31c093c675e6cf0f6de8908b706c43ab9bfdf4c8102ae8ae61269257d6c5b1",
  "args": [],
  "numDeployments": 1,
  "solcInputHash": "27c64b6a42a340338e0c33daf46094a1",
  "bytecode": "0x608d610038600b82828239805160001a607314602b57634e487b7160e01b600052600060045260246000fd5b30600052607381538281f3fe730000000000000000000000000000000000000000301460806040526004361060335760003560e01c8063df29d071146038575b600080fd5b6b033b2e3c9fd0803ce800000060405190815260200160405180910390f3fea26469706673582212209f7b3029076787058df9ad0ea908faaeec2cda68787026543062445f7e73292664736f6c63430008090033",
  "devdoc": {
    "kind": "dev",
    "methods": {},
    "version": 1
  },
  "userdoc": {
    "kind": "user",
    "methods": {},
    "version": 1
  },
  "storageLayout": {
    "storage": [],
    "types": null
  }
}