{
  "address": "0x409Fd4B6B77b2d9b7E1aa36155B442E936251F6d",
  "abi": [
    {
      "inputs": [
        {
          "internalType": "address",
          "name": "_voyage",
          "type": "address"
        }
      ],
      "stateMutability": "nonpayable",
      "type": "constructor"
    },
    {
      "anonymous": false,
      "inputs": [
        {
          "indexed": true,
          "internalType": "address",
          "name": "previousOwner",
          "type": "address"
        },
        {
          "indexed": true,
          "internalType": "address",
          "name": "newOwner",
          "type": "address"
        }
      ],
      "name": "OwnershipTransferred",
      "type": "event"
    },
    {
      "inputs": [
        {
          "components": [
            {
              "internalType": "address",
              "name": "collection",
              "type": "address"
            },
            {
              "internalType": "address",
              "name": "currency",
              "type": "address"
            },
            {
              "internalType": "address",
              "name": "interestRateStrategyAddress",
              "type": "address"
            },
            {
              "internalType": "address",
              "name": "priceOracle",
              "type": "address"
            },
            {
              "internalType": "uint256",
              "name": "liquidationBonus",
              "type": "uint256"
            },
            {
              "internalType": "uint256",
              "name": "incomeRatio",
              "type": "uint256"
            },
            {
              "internalType": "uint256",
              "name": "optimalLiquidityRatio",
              "type": "uint256"
            },
            {
              "internalType": "uint256",
              "name": "maxTwapStaleness",
              "type": "uint256"
            },
            {
              "internalType": "uint256",
              "name": "epoch",
              "type": "uint256"
            },
            {
              "internalType": "uint256",
              "name": "term",
              "type": "uint256"
            },
            {
              "internalType": "uint256",
              "name": "gracePeriod",
              "type": "uint256"
            },
            {
              "internalType": "address",
              "name": "treasury",
              "type": "address"
            },
            {
              "internalType": "uint40",
              "name": "protocolFee",
              "type": "uint40"
            },
            {
              "internalType": "address[]",
              "name": "marketplaces",
              "type": "address[]"
            },
            {
              "internalType": "address[]",
              "name": "adapters",
              "type": "address[]"
            }
          ],
          "internalType": "struct ConfigureReserveInput",
          "name": "input",
          "type": "tuple"
        }
      ],
      "name": "activateReserve",
      "outputs": [],
      "stateMutability": "nonpayable",
      "type": "function"
    },
    {
      "inputs": [
        {
          "components": [
            {
              "internalType": "address",
              "name": "collection",
              "type": "address"
            },
            {
              "internalType": "address",
              "name": "currency",
              "type": "address"
            },
            {
              "internalType": "address",
              "name": "interestRateStrategyAddress",
              "type": "address"
            },
            {
              "internalType": "address",
              "name": "priceOracle",
              "type": "address"
            },
            {
              "internalType": "uint256",
              "name": "liquidationBonus",
              "type": "uint256"
            },
            {
              "internalType": "uint256",
              "name": "incomeRatio",
              "type": "uint256"
            },
            {
              "internalType": "uint256",
              "name": "optimalLiquidityRatio",
              "type": "uint256"
            },
            {
              "internalType": "uint256",
              "name": "maxTwapStaleness",
              "type": "uint256"
            },
            {
              "internalType": "uint256",
              "name": "epoch",
              "type": "uint256"
            },
            {
              "internalType": "uint256",
              "name": "term",
              "type": "uint256"
            },
            {
              "internalType": "uint256",
              "name": "gracePeriod",
              "type": "uint256"
            },
            {
              "internalType": "address",
              "name": "treasury",
              "type": "address"
            },
            {
              "internalType": "uint40",
              "name": "protocolFee",
              "type": "uint40"
            },
            {
              "internalType": "address[]",
              "name": "marketplaces",
              "type": "address[]"
            },
            {
              "internalType": "address[]",
              "name": "adapters",
              "type": "address[]"
            }
          ],
          "internalType": "struct ConfigureReserveInput",
          "name": "input",
          "type": "tuple"
        }
      ],
      "name": "deactivateReserve",
      "outputs": [],
      "stateMutability": "nonpayable",
      "type": "function"
    },
    {
      "inputs": [
        {
          "components": [
            {
              "internalType": "address",
              "name": "collection",
              "type": "address"
            },
            {
              "internalType": "address",
              "name": "currency",
              "type": "address"
            },
            {
              "internalType": "address",
              "name": "interestRateStrategyAddress",
              "type": "address"
            },
            {
              "internalType": "address",
              "name": "priceOracle",
              "type": "address"
            },
            {
              "internalType": "uint256",
              "name": "liquidationBonus",
              "type": "uint256"
            },
            {
              "internalType": "uint256",
              "name": "incomeRatio",
              "type": "uint256"
            },
            {
              "internalType": "uint256",
              "name": "optimalLiquidityRatio",
              "type": "uint256"
            },
            {
              "internalType": "uint256",
              "name": "maxTwapStaleness",
              "type": "uint256"
            },
            {
              "internalType": "uint256",
              "name": "epoch",
              "type": "uint256"
            },
            {
              "internalType": "uint256",
              "name": "term",
              "type": "uint256"
            },
            {
              "internalType": "uint256",
              "name": "gracePeriod",
              "type": "uint256"
            },
            {
              "internalType": "address",
              "name": "treasury",
              "type": "address"
            },
            {
              "internalType": "uint40",
              "name": "protocolFee",
              "type": "uint40"
            },
            {
              "internalType": "address[]",
              "name": "marketplaces",
              "type": "address[]"
            },
            {
              "internalType": "address[]",
              "name": "adapters",
              "type": "address[]"
            }
          ],
          "internalType": "struct ConfigureReserveInput",
          "name": "input",
          "type": "tuple"
        }
      ],
      "name": "initReserve",
      "outputs": [],
      "stateMutability": "nonpayable",
      "type": "function"
    },
    {
      "inputs": [
        {
          "components": [
            {
              "internalType": "address",
              "name": "collection",
              "type": "address"
            },
            {
              "internalType": "address",
              "name": "currency",
              "type": "address"
            },
            {
              "internalType": "address",
              "name": "interestRateStrategyAddress",
              "type": "address"
            },
            {
              "internalType": "address",
              "name": "priceOracle",
              "type": "address"
            },
            {
              "internalType": "uint256",
              "name": "liquidationBonus",
              "type": "uint256"
            },
            {
              "internalType": "uint256",
              "name": "incomeRatio",
              "type": "uint256"
            },
            {
              "internalType": "uint256",
              "name": "optimalLiquidityRatio",
              "type": "uint256"
            },
            {
              "internalType": "uint256",
              "name": "maxTwapStaleness",
              "type": "uint256"
            },
            {
              "internalType": "uint256",
              "name": "epoch",
              "type": "uint256"
            },
            {
              "internalType": "uint256",
              "name": "term",
              "type": "uint256"
            },
            {
              "internalType": "uint256",
              "name": "gracePeriod",
              "type": "uint256"
            },
            {
              "internalType": "address",
              "name": "treasury",
              "type": "address"
            },
            {
              "internalType": "uint40",
              "name": "protocolFee",
              "type": "uint40"
            },
            {
              "internalType": "address[]",
              "name": "marketplaces",
              "type": "address[]"
            },
            {
              "internalType": "address[]",
              "name": "adapters",
              "type": "address[]"
            }
          ],
          "internalType": "struct ConfigureReserveInput[]",
          "name": "input",
          "type": "tuple[]"
        }
      ],
      "name": "initReserves",
      "outputs": [],
      "stateMutability": "nonpayable",
      "type": "function"
    },
    {
      "inputs": [],
      "name": "owner",
      "outputs": [
        {
          "internalType": "address",
          "name": "",
          "type": "address"
        }
      ],
      "stateMutability": "view",
      "type": "function"
    },
    {
      "inputs": [],
      "name": "renounceOwnership",
      "outputs": [],
      "stateMutability": "nonpayable",
      "type": "function"
    },
    {
      "inputs": [
        {
          "internalType": "address",
          "name": "paymaster",
          "type": "address"
        },
        {
          "internalType": "address",
          "name": "trustedForwarder",
          "type": "address"
        }
      ],
      "name": "setGSNConfiguration",
      "outputs": [],
      "stateMutability": "nonpayable",
      "type": "function"
    },
    {
      "inputs": [
        {
          "components": [
            {
              "internalType": "address",
              "name": "collection",
              "type": "address"
            },
            {
              "internalType": "address",
              "name": "currency",
              "type": "address"
            },
            {
              "internalType": "address",
              "name": "interestRateStrategyAddress",
              "type": "address"
            },
            {
              "internalType": "address",
              "name": "priceOracle",
              "type": "address"
            },
            {
              "internalType": "uint256",
              "name": "liquidationBonus",
              "type": "uint256"
            },
            {
              "internalType": "uint256",
              "name": "incomeRatio",
              "type": "uint256"
            },
            {
              "internalType": "uint256",
              "name": "optimalLiquidityRatio",
              "type": "uint256"
            },
            {
              "internalType": "uint256",
              "name": "maxTwapStaleness",
              "type": "uint256"
            },
            {
              "internalType": "uint256",
              "name": "epoch",
              "type": "uint256"
            },
            {
              "internalType": "uint256",
              "name": "term",
              "type": "uint256"
            },
            {
              "internalType": "uint256",
              "name": "gracePeriod",
              "type": "uint256"
            },
            {
              "internalType": "address",
              "name": "treasury",
              "type": "address"
            },
            {
              "internalType": "uint40",
              "name": "protocolFee",
              "type": "uint40"
            },
            {
              "internalType": "address[]",
              "name": "marketplaces",
              "type": "address[]"
            },
            {
              "internalType": "address[]",
              "name": "adapters",
              "type": "address[]"
            }
          ],
          "internalType": "struct ConfigureReserveInput",
          "name": "input",
          "type": "tuple"
        }
      ],
      "name": "setIncomeRatio",
      "outputs": [],
      "stateMutability": "nonpayable",
      "type": "function"
    },
    {
      "inputs": [
        {
          "components": [
            {
              "internalType": "address",
              "name": "collection",
              "type": "address"
            },
            {
              "internalType": "address",
              "name": "currency",
              "type": "address"
            },
            {
              "internalType": "address",
              "name": "interestRateStrategyAddress",
              "type": "address"
            },
            {
              "internalType": "address",
              "name": "priceOracle",
              "type": "address"
            },
            {
              "internalType": "uint256",
              "name": "liquidationBonus",
              "type": "uint256"
            },
            {
              "internalType": "uint256",
              "name": "incomeRatio",
              "type": "uint256"
            },
            {
              "internalType": "uint256",
              "name": "optimalLiquidityRatio",
              "type": "uint256"
            },
            {
              "internalType": "uint256",
              "name": "maxTwapStaleness",
              "type": "uint256"
            },
            {
              "internalType": "uint256",
              "name": "epoch",
              "type": "uint256"
            },
            {
              "internalType": "uint256",
              "name": "term",
              "type": "uint256"
            },
            {
              "internalType": "uint256",
              "name": "gracePeriod",
              "type": "uint256"
            },
            {
              "internalType": "address",
              "name": "treasury",
              "type": "address"
            },
            {
              "internalType": "uint40",
              "name": "protocolFee",
              "type": "uint40"
            },
            {
              "internalType": "address[]",
              "name": "marketplaces",
              "type": "address[]"
            },
            {
              "internalType": "address[]",
              "name": "adapters",
              "type": "address[]"
            }
          ],
          "internalType": "struct ConfigureReserveInput",
          "name": "input",
          "type": "tuple"
        }
      ],
      "name": "setLiquidationBonus",
      "outputs": [],
      "stateMutability": "nonpayable",
      "type": "function"
    },
    {
      "inputs": [
        {
          "components": [
            {
              "internalType": "address",
              "name": "collection",
              "type": "address"
            },
            {
              "internalType": "address",
              "name": "currency",
              "type": "address"
            },
            {
              "internalType": "address",
              "name": "interestRateStrategyAddress",
              "type": "address"
            },
            {
              "internalType": "address",
              "name": "priceOracle",
              "type": "address"
            },
            {
              "internalType": "uint256",
              "name": "liquidationBonus",
              "type": "uint256"
            },
            {
              "internalType": "uint256",
              "name": "incomeRatio",
              "type": "uint256"
            },
            {
              "internalType": "uint256",
              "name": "optimalLiquidityRatio",
              "type": "uint256"
            },
            {
              "internalType": "uint256",
              "name": "maxTwapStaleness",
              "type": "uint256"
            },
            {
              "internalType": "uint256",
              "name": "epoch",
              "type": "uint256"
            },
            {
              "internalType": "uint256",
              "name": "term",
              "type": "uint256"
            },
            {
              "internalType": "uint256",
              "name": "gracePeriod",
              "type": "uint256"
            },
            {
              "internalType": "address",
              "name": "treasury",
              "type": "address"
            },
            {
              "internalType": "uint40",
              "name": "protocolFee",
              "type": "uint40"
            },
            {
              "internalType": "address[]",
              "name": "marketplaces",
              "type": "address[]"
            },
            {
              "internalType": "address[]",
              "name": "adapters",
              "type": "address[]"
            }
          ],
          "internalType": "struct ConfigureReserveInput",
          "name": "input",
          "type": "tuple"
        }
      ],
      "name": "setLoanParams",
      "outputs": [],
      "stateMutability": "nonpayable",
      "type": "function"
    },
    {
      "inputs": [
        {
          "components": [
            {
              "internalType": "address",
              "name": "collection",
              "type": "address"
            },
            {
              "internalType": "address",
              "name": "currency",
              "type": "address"
            },
            {
              "internalType": "address",
              "name": "interestRateStrategyAddress",
              "type": "address"
            },
            {
              "internalType": "address",
              "name": "priceOracle",
              "type": "address"
            },
            {
              "internalType": "uint256",
              "name": "liquidationBonus",
              "type": "uint256"
            },
            {
              "internalType": "uint256",
              "name": "incomeRatio",
              "type": "uint256"
            },
            {
              "internalType": "uint256",
              "name": "optimalLiquidityRatio",
              "type": "uint256"
            },
            {
              "internalType": "uint256",
              "name": "maxTwapStaleness",
              "type": "uint256"
            },
            {
              "internalType": "uint256",
              "name": "epoch",
              "type": "uint256"
            },
            {
              "internalType": "uint256",
              "name": "term",
              "type": "uint256"
            },
            {
              "internalType": "uint256",
              "name": "gracePeriod",
              "type": "uint256"
            },
            {
              "internalType": "address",
              "name": "treasury",
              "type": "address"
            },
            {
              "internalType": "uint40",
              "name": "protocolFee",
              "type": "uint40"
            },
            {
              "internalType": "address[]",
              "name": "marketplaces",
              "type": "address[]"
            },
            {
              "internalType": "address[]",
              "name": "adapters",
              "type": "address[]"
            }
          ],
          "internalType": "struct ConfigureReserveInput",
          "name": "input",
          "type": "tuple"
        }
      ],
      "name": "setMaxTwapStaleness",
      "outputs": [],
      "stateMutability": "nonpayable",
      "type": "function"
    },
    {
      "inputs": [
        {
          "components": [
            {
              "internalType": "address",
              "name": "collection",
              "type": "address"
            },
            {
              "internalType": "address",
              "name": "currency",
              "type": "address"
            },
            {
              "internalType": "address",
              "name": "interestRateStrategyAddress",
              "type": "address"
            },
            {
              "internalType": "address",
              "name": "priceOracle",
              "type": "address"
            },
            {
              "internalType": "uint256",
              "name": "liquidationBonus",
              "type": "uint256"
            },
            {
              "internalType": "uint256",
              "name": "incomeRatio",
              "type": "uint256"
            },
            {
              "internalType": "uint256",
              "name": "optimalLiquidityRatio",
              "type": "uint256"
            },
            {
              "internalType": "uint256",
              "name": "maxTwapStaleness",
              "type": "uint256"
            },
            {
              "internalType": "uint256",
              "name": "epoch",
              "type": "uint256"
            },
            {
              "internalType": "uint256",
              "name": "term",
              "type": "uint256"
            },
            {
              "internalType": "uint256",
              "name": "gracePeriod",
              "type": "uint256"
            },
            {
              "internalType": "address",
              "name": "treasury",
              "type": "address"
            },
            {
              "internalType": "uint40",
              "name": "protocolFee",
              "type": "uint40"
            },
            {
              "internalType": "address[]",
              "name": "marketplaces",
              "type": "address[]"
            },
            {
              "internalType": "address[]",
              "name": "adapters",
              "type": "address[]"
            }
          ],
          "internalType": "struct ConfigureReserveInput",
          "name": "input",
          "type": "tuple"
        }
      ],
      "name": "setOptimalLiquidityRatio",
      "outputs": [],
      "stateMutability": "nonpayable",
      "type": "function"
    },
    {
      "inputs": [
        {
          "internalType": "address",
          "name": "newOwner",
          "type": "address"
        }
      ],
      "name": "transferOwnership",
      "outputs": [],
      "stateMutability": "nonpayable",
      "type": "function"
    },
    {
      "inputs": [
        {
          "internalType": "address",
          "name": "marketplace",
          "type": "address"
        },
        {
          "internalType": "address",
          "name": "adapter",
          "type": "address"
        }
      ],
      "name": "updateMarketPlaceData",
      "outputs": [],
      "stateMutability": "nonpayable",
      "type": "function"
    },
    {
      "inputs": [
        {
          "components": [
            {
              "internalType": "address",
              "name": "collection",
              "type": "address"
            },
            {
              "internalType": "address",
              "name": "currency",
              "type": "address"
            },
            {
              "internalType": "address",
              "name": "interestRateStrategyAddress",
              "type": "address"
            },
            {
              "internalType": "address",
              "name": "priceOracle",
              "type": "address"
            },
            {
              "internalType": "uint256",
              "name": "liquidationBonus",
              "type": "uint256"
            },
            {
              "internalType": "uint256",
              "name": "incomeRatio",
              "type": "uint256"
            },
            {
              "internalType": "uint256",
              "name": "optimalLiquidityRatio",
              "type": "uint256"
            },
            {
              "internalType": "uint256",
              "name": "maxTwapStaleness",
              "type": "uint256"
            },
            {
              "internalType": "uint256",
              "name": "epoch",
              "type": "uint256"
            },
            {
              "internalType": "uint256",
              "name": "term",
              "type": "uint256"
            },
            {
              "internalType": "uint256",
              "name": "gracePeriod",
              "type": "uint256"
            },
            {
              "internalType": "address",
              "name": "treasury",
              "type": "address"
            },
            {
              "internalType": "uint40",
              "name": "protocolFee",
              "type": "uint40"
            },
            {
              "internalType": "address[]",
              "name": "marketplaces",
              "type": "address[]"
            },
            {
              "internalType": "address[]",
              "name": "adapters",
              "type": "address[]"
            }
          ],
          "internalType": "struct ConfigureReserveInput",
          "name": "input",
          "type": "tuple"
        }
      ],
      "name": "updateProtocolFee",
      "outputs": [],
      "stateMutability": "nonpayable",
      "type": "function"
    },
    {
      "inputs": [
        {
          "internalType": "address",
          "name": "weth9",
          "type": "address"
        }
      ],
      "name": "updateWETH9",
      "outputs": [],
      "stateMutability": "nonpayable",
      "type": "function"
    },
    {
      "inputs": [
        {
          "internalType": "address",
          "name": "_impl",
          "type": "address"
        }
      ],
      "name": "upgradeJuniorDepositTokenImpl",
      "outputs": [],
      "stateMutability": "nonpayable",
      "type": "function"
    },
    {
      "inputs": [
        {
          "components": [
            {
              "internalType": "address",
              "name": "collection",
              "type": "address"
            },
            {
              "internalType": "address",
              "name": "currency",
              "type": "address"
            },
            {
              "internalType": "address",
              "name": "interestRateStrategyAddress",
              "type": "address"
            },
            {
              "internalType": "address",
              "name": "priceOracle",
              "type": "address"
            },
            {
              "internalType": "uint256",
              "name": "liquidationBonus",
              "type": "uint256"
            },
            {
              "internalType": "uint256",
              "name": "incomeRatio",
              "type": "uint256"
            },
            {
              "internalType": "uint256",
              "name": "optimalLiquidityRatio",
              "type": "uint256"
            },
            {
              "internalType": "uint256",
              "name": "maxTwapStaleness",
              "type": "uint256"
            },
            {
              "internalType": "uint256",
              "name": "epoch",
              "type": "uint256"
            },
            {
              "internalType": "uint256",
              "name": "term",
              "type": "uint256"
            },
            {
              "internalType": "uint256",
              "name": "gracePeriod",
              "type": "uint256"
            },
            {
              "internalType": "address",
              "name": "treasury",
              "type": "address"
            },
            {
              "internalType": "uint40",
              "name": "protocolFee",
              "type": "uint40"
            },
            {
              "internalType": "address[]",
              "name": "marketplaces",
              "type": "address[]"
            },
            {
              "internalType": "address[]",
              "name": "adapters",
              "type": "address[]"
            }
          ],
          "internalType": "struct ConfigureReserveInput",
          "name": "input",
          "type": "tuple"
        }
      ],
      "name": "upgradePriceOracleImpl",
      "outputs": [],
      "stateMutability": "nonpayable",
      "type": "function"
    },
    {
      "inputs": [
        {
          "internalType": "address",
          "name": "_impl",
          "type": "address"
        }
      ],
      "name": "upgradeSeniorDepositTokenImpl",
      "outputs": [],
      "stateMutability": "nonpayable",
      "type": "function"
    },
    {
      "inputs": [],
      "name": "voyage",
      "outputs": [
        {
          "internalType": "address",
          "name": "",
          "type": "address"
        }
      ],
      "stateMutability": "view",
      "type": "function"
    }
  ],
  "transactionHash": "0x02d373d86563742ecd369cc87edc0417b6baed8d8f9102c0179edcb775e20dcd",
  "args": [
    "0xbaf6FD0b5D060899AfE7d0717eE65D80Fe6911F5"
  ],
  "numDeployments": 1,
  "solcInputHash": "1ef3883763dd41b4369158607a40c4d9",
  "bytecode": "0x608060405234801561001057600080fd5b50604051610f5c380380610f5c83398101604081905261002f916100ad565b6100383361005d565b600180546001600160a01b0319166001600160a01b03929092169190911790556100dd565b600080546001600160a01b038381166001600160a01b0319831681178455604051919092169283917f8be0079c531659141344cd1fd0a4f28419497f9722a3daafe3b4186f6b6457e09190a35050565b6000602082840312156100bf57600080fd5b81516001600160a01b03811681146100d657600080fd5b9392505050565b610e70806100ec6000396000f3fe608060405234801561001057600080fd5b506004361061016c5760003560e01c80638da5cb5b116100cd578063b9f37e3f11610081578063c60c88da11610066578063c60c88da146102c1578063cf620acc146102d4578063f2fde38b146102e757600080fd5b8063b9f37e3f1461029b578063bdb40b00146102ae57600080fd5b806399fce999116100b257806399fce99914610262578063a8c767a014610275578063ae89e45e1461028857600080fd5b80638da5cb5b146102265780638df55d8e1461024f57600080fd5b80636625805811610124578063715018a611610109578063715018a6146101f8578063842eca17146102005780638b46b8121461021357600080fd5b806366258058146101d257806367ad4c90146101e557600080fd5b80632efff9b9116101555780632efff9b9146101995780633e9e33a8146101ac5780635b21d135146101bf57600080fd5b8063232d21611461017157806328b2fde114610186575b600080fd5b61018461017f366004610bb5565b6102fa565b005b610184610194366004610c14565b61039e565b6101846101a7366004610bb5565b61042b565b6101846101ba366004610c14565b610487565b6101846101cd366004610bb5565b6104e2565b6101846101e0366004610bb5565b61053e565b6101846101f3366004610bb5565b6105a7565b6101846105f9565b61018461020e366004610bb5565b61060d565b610184610221366004610c47565b610669565b6000546001600160a01b03165b6040516001600160a01b03909116815260200160405180910390f35b61018461025d366004610c62565b6106bc565b610184610270366004610c47565b610712565b610184610283366004610bb5565b610765565b610184610296366004610bb5565b6107c1565b600154610233906001600160a01b031681565b6101846102bc366004610bb5565b61085b565b6101846102cf366004610bb5565b610881565b6101846102e2366004610c47565b6108f6565b6101846102f5366004610c47565b610949565b6103026109f8565b6001546001600160a01b031663df87d72e6103206020840184610c47565b6040516001600160e01b031960e084901b1681526001600160a01b0390911660048201526101008401356024820152610120840135604482015261014084013560648201526084015b600060405180830381600087803b15801561038357600080fd5b505af1158015610397573d6000803e3d6000fd5b5050505050565b6103a66109f8565b6001546040517f28b2fde10000000000000000000000000000000000000000000000000000000081526001600160a01b0384811660048301528381166024830152909116906328b2fde1906044015b600060405180830381600087803b15801561040f57600080fd5b505af1158015610423573d6000803e3d6000fd5b505050505050565b6104336109f8565b6001546001600160a01b0316634a35675e6104516020840184610c47565b6040516001600160e01b031960e084901b1681526001600160a01b03909116600482015260a08401356024820152604401610369565b61048f6109f8565b6001546040517f3e9e33a80000000000000000000000000000000000000000000000000000000081526001600160a01b038481166004830152838116602483015290911690633e9e33a8906044016103f5565b6104ea6109f8565b6001546001600160a01b031663700f8e676105086020840184610c47565b6040516001600160e01b031960e084901b1681526001600160a01b03909116600482015260c08401356024820152604401610369565b6105466109f8565b6001546001600160a01b03166308d0c6db6105646020840184610c47565b6105746080850160608601610c47565b6040516001600160e01b031960e085901b1681526001600160a01b03928316600482015291166024820152604401610369565b6105af6109f8565b6001546001600160a01b031663b75d6f346105cd6020840184610c47565b6040516001600160e01b031960e084901b1681526001600160a01b039091166004820152602401610369565b6106016109f8565b61060b6000610a6c565b565b6106156109f8565b6001546001600160a01b0316637cadffd96106336020840184610c47565b6040516001600160e01b031960e084901b1681526001600160a01b03909116600482015260808401356024820152604401610369565b6106716109f8565b6001546040517f8b46b8120000000000000000000000000000000000000000000000000000000081526001600160a01b03838116600483015290911690638b46b81290602401610369565b6106c46109f8565b60005b8181101561070d576106fb8383838181106106e4576106e4610cd7565b90506020028101906106f69190610d06565b610ad4565b8061070581610d44565b9150506106c7565b505050565b61071a6109f8565b6001546040517f99fce9990000000000000000000000000000000000000000000000000000000081526001600160a01b038381166004830152909116906399fce99990602401610369565b61076d6109f8565b6001546001600160a01b03166312de2cf461078b6020840184610c47565b60405160e083811b6001600160e01b03191682526001600160a01b03929092166004820152908401356024820152604401610369565b6107c96109f8565b6001546001600160a01b0316638bd256776107e76020840184610c47565b6107f76040850160208601610c47565b6108076060860160408701610c47565b6108176080870160608801610c47565b60405160e086901b6001600160e01b03191681526001600160a01b039485166004820152928416602484015290831660448301529091166064820152608401610369565b6108636109f8565b6001546001600160a01b0316633e72a4546105cd6020840184610c47565b6108896109f8565b6001546001600160a01b031663c800ac386108ac61018084016101608501610c47565b6108be6101a085016101808601610da4565b6040516001600160e01b031960e085901b1681526001600160a01b03909216600483015264ffffffffff166024820152604401610369565b6108fe6109f8565b6001546040517fcf620acc0000000000000000000000000000000000000000000000000000000081526001600160a01b0383811660048301529091169063cf620acc90602401610369565b6109516109f8565b6001600160a01b0381166109ec576040517f08c379a000000000000000000000000000000000000000000000000000000000815260206004820152602660248201527f4f776e61626c653a206e6577206f776e657220697320746865207a65726f206160448201527f646472657373000000000000000000000000000000000000000000000000000060648201526084015b60405180910390fd5b6109f581610a6c565b50565b6000546001600160a01b0316331461060b576040517f08c379a000000000000000000000000000000000000000000000000000000000815260206004820181905260248201527f4f776e61626c653a2063616c6c6572206973206e6f7420746865206f776e657260448201526064016109e3565b600080546001600160a01b038381167fffffffffffffffffffffffff0000000000000000000000000000000000000000831681178455604051919092169283917f8be0079c531659141344cd1fd0a4f28419497f9722a3daafe3b4186f6b6457e09190a35050565b610add816107c1565b610ae6816105a7565b610aef81610881565b610af88161060d565b610b018161042b565b610b0a816104e2565b610b1381610765565b610b1c816102fa565b60005b610b2d6101a0830183610dcb565b9050811015610bb157610b9f610b476101a0840184610dcb565b83818110610b5757610b57610cd7565b9050602002016020810190610b6c9190610c47565b610b7a6101c0850185610dcb565b84818110610b8a57610b8a610cd7565b90506020020160208101906101ba9190610c47565b80610ba981610d44565b915050610b1f565b5050565b600060208284031215610bc757600080fd5b813567ffffffffffffffff811115610bde57600080fd5b82016101e08185031215610bf157600080fd5b9392505050565b80356001600160a01b0381168114610c0f57600080fd5b919050565b60008060408385031215610c2757600080fd5b610c3083610bf8565b9150610c3e60208401610bf8565b90509250929050565b600060208284031215610c5957600080fd5b610bf182610bf8565b60008060208385031215610c7557600080fd5b823567ffffffffffffffff80821115610c8d57600080fd5b818501915085601f830112610ca157600080fd5b813581811115610cb057600080fd5b8660208260051b8501011115610cc557600080fd5b60209290920196919550909350505050565b7f4e487b7100000000000000000000000000000000000000000000000000000000600052603260045260246000fd5b600082357ffffffffffffffffffffffffffffffffffffffffffffffffffffffffffffffe21833603018112610d3a57600080fd5b9190910192915050565b60007fffffffffffffffffffffffffffffffffffffffffffffffffffffffffffffffff821415610d9d577f4e487b7100000000000000000000000000000000000000000000000000000000600052601160045260246000fd5b5060010190565b600060208284031215610db657600080fd5b813564ffffffffff81168114610bf157600080fd5b60008083357fffffffffffffffffffffffffffffffffffffffffffffffffffffffffffffffe1843603018112610e0057600080fd5b83018035915067ffffffffffffffff821115610e1b57600080fd5b6020019150600581901b3603821315610e3357600080fd5b925092905056fea2646970667358221220d6b8af415005a3d869a70b8814fb7864ae9090ab3210254ae495cb92547063a964736f6c63430008090033",
  "devdoc": {
    "kind": "dev",
    "methods": {
      "owner()": {
        "details": "Returns the address of the current owner."
      },
      "renounceOwnership()": {
        "details": "Leaves the contract without owner. It will not be possible to call `onlyOwner` functions anymore. Can only be called by the current owner. NOTE: Renouncing ownership will leave the contract without an owner, thereby removing any functionality that is only available to the owner."
      },
      "transferOwnership(address)": {
        "details": "Transfers ownership of the contract to a new account (`newOwner`). Can only be called by the current owner."
      }
    },
    "version": 1
  },
  "userdoc": {
    "kind": "user",
    "methods": {},
    "version": 1
  },
  "storageLayout": {
    "storage": [
      {
        "astId": 5623,
        "contract": "contracts/deployments/VoyageReserveConfigurator.sol:VoyageReserveConfigurator",
        "label": "_owner",
        "offset": 0,
        "slot": "0",
        "type": "t_address"
      },
      {
        "astId": 10971,
        "contract": "contracts/deployments/VoyageReserveConfigurator.sol:VoyageReserveConfigurator",
        "label": "voyage",
        "offset": 0,
        "slot": "1",
        "type": "t_address"
      }
    ],
    "types": {
      "t_address": {
        "encoding": "inplace",
        "label": "address",
        "numberOfBytes": "20"
      }
    }
  }
}