{
  "address": "0x56604e9D6BfB92Cd7937E32b3C7AdD323C5cb993",
  "abi": [
    {
      "inputs": [
        {
          "internalType": "bytes",
          "name": "_data",
          "type": "bytes"
        }
      ],
      "name": "execute",
      "outputs": [
        {
          "internalType": "bytes",
          "name": "",
          "type": "bytes"
        }
      ],
      "stateMutability": "pure",
      "type": "function"
    },
    {
      "inputs": [
        {
          "internalType": "bytes",
          "name": "_data",
          "type": "bytes"
        }
      ],
      "name": "extractAssetPrice",
      "outputs": [
        {
          "internalType": "uint256",
          "name": "",
          "type": "uint256"
        }
      ],
      "stateMutability": "pure",
      "type": "function"
    },
    {
      "inputs": [
        {
          "internalType": "bytes",
          "name": "_data",
          "type": "bytes"
        }
      ],
      "name": "validate",
      "outputs": [
        {
          "internalType": "bool",
          "name": "",
          "type": "bool"
        }
      ],
      "stateMutability": "pure",
      "type": "function"
    }
  ],
  "transactionHash": "0x1164710b853757d2750e5c970352be50e204531217453bf90377a4e430cc96cc",
  "args": [],
  "numDeployments": 1,
  "solcInputHash": "12dd858cd3471725424835f3a0db1659",
  "bytecode": "0x608060405234801561001057600080fd5b506107e3806100206000396000f3fe608060405234801561001057600080fd5b50600436106100415760003560e01c806309c5eabe146100465780638045e15c1461006f578063c16e50ef14610090575b600080fd5b6100596100543660046103e3565b6100b3565b60405161006691906104b1565b60405180910390f35b61008261007d3660046103e3565b610208565b604051908152602001610066565b6100a361009e3660046103e3565b610318565b6040519015158152602001610066565b60606100bf838361032b565b1561019c5760408051608081018252600080825260208201526060918101829052818101919091526100f3838501856105c7565b6060850181905260408086018390527fffffffff0000000000000000000000000000000000000000000000000000000090931660208087019190915273ffffffffffffffffffffffffffffffffffffffff9094168552915160009361015a93929101610675565b60405160208183030381529060405290508160200151816040516020016101829291906106a3565b60408051601f198184030181529190529250610202915050565b6040517f08c379a000000000000000000000000000000000000000000000000000000000815260206004820152600c60248201527f696e76616c696420646174610000000000000000000000000000000000000000604482015260640160405180910390fd5b92915050565b60408051608081018252600080825260208201819052606092820183905282820192909252610239838501856105c7565b6060808601919091526040808601929092527fffffffff0000000000000000000000000000000000000000000000000000000090921660208086019190915273ffffffffffffffffffffffffffffffffffffffff9093168452805160c0810182526000808252938101849052908101839052808201839052608081019290925260a082015281606001518060200190518101906102d691906106eb565b60a0870152608086015260608501526040840181905273ffffffffffffffffffffffffffffffffffffffff909116602084015290151590915291505092915050565b6000610324838361032b565b9392505050565b6040805160808101825260008082526020820181905260609282018390528282019290925261035c838501856105c7565b606085015260408401527fffffffff00000000000000000000000000000000000000000000000000000000166020830181905273ffffffffffffffffffffffffffffffffffffffff90911682527fb4e4b29600000000000000000000000000000000000000000000000000000000146103d9576000915050610202565b5060019392505050565b600080602083850312156103f657600080fd5b823567ffffffffffffffff8082111561040e57600080fd5b818501915085601f83011261042257600080fd5b81358181111561043157600080fd5b86602082850101111561044357600080fd5b60209290920196919550909350505050565b60005b83811015610470578181015183820152602001610458565b8381111561047f576000848401525b50505050565b6000815180845261049d816020860160208601610455565b601f01601f19169290920160200192915050565b6020815260006103246020830184610485565b73ffffffffffffffffffffffffffffffffffffffff811681146104e657600080fd5b50565b7f4e487b7100000000000000000000000000000000000000000000000000000000600052604160045260246000fd5b604051601f8201601f1916810167ffffffffffffffff81118282101715610541576105416104e9565b604052919050565b600067ffffffffffffffff821115610563576105636104e9565b50601f01601f191660200190565b600082601f83011261058257600080fd5b813561059561059082610549565b610518565b8181528460208386010111156105aa57600080fd5b816020850160208301376000918101602001919091529392505050565b600080600080608085870312156105dd57600080fd5b84356105e8816104c4565b935060208501357fffffffff000000000000000000000000000000000000000000000000000000008116811461061d57600080fd5b9250604085013567ffffffffffffffff8082111561063a57600080fd5b61064688838901610571565b9350606087013591508082111561065c57600080fd5b5061066987828801610571565b91505092959194509250565b6040815260006106886040830185610485565b828103602084015261069a8185610485565b95945050505050565b7fffffffff0000000000000000000000000000000000000000000000000000000083168152600082516106dd816004850160208701610455565b919091016004019392505050565b60008060008060008060c0878903121561070457600080fd5b8651801515811461071457600080fd5b6020880151909650610725816104c4565b8095505060408701519350606087015192506080870151915060a087015167ffffffffffffffff81111561075857600080fd5b8701601f8101891361076957600080fd5b805161077761059082610549565b8181528a602083850101111561078c57600080fd5b61079d826020830160208601610455565b809350505050929550929550929556fea264697066735822122071c04a8deb8e310b2e700788cb9b01721a79ca5467fbd9fa89dce8f81466201864736f6c63430008090033",
  "devdoc": {
    "kind": "dev",
    "methods": {},
    "version": 1
  },
  "userdoc": {
    "kind": "user",
    "methods": {},
    "version": 1
  },
  "storageLayout": {
    "storage": [],
    "types": null
  }
}