{
  "address": "0xB8812e7a91C61a754F34605B18e962711601C693",
  "abi": [
    {
      "inputs": [
        {
          "internalType": "bytes",
          "name": "_data",
          "type": "bytes"
        }
      ],
      "name": "execute",
      "outputs": [
        {
          "internalType": "bytes",
          "name": "",
          "type": "bytes"
        }
      ],
      "stateMutability": "pure",
      "type": "function"
    },
    {
      "inputs": [
        {
          "internalType": "bytes",
          "name": "_data",
          "type": "bytes"
        }
      ],
      "name": "extractAssetInfo",
      "outputs": [
        {
          "components": [
            {
              "internalType": "uint256",
              "name": "tokenId",
              "type": "uint256"
            },
            {
              "internalType": "uint256",
              "name": "assetPrice",
              "type": "uint256"
            }
          ],
          "internalType": "struct AssetInfo",
          "name": "assetInfo",
          "type": "tuple"
        }
      ],
      "stateMutability": "pure",
      "type": "function"
    },
    {
      "inputs": [
        {
          "internalType": "bytes",
          "name": "_data",
          "type": "bytes"
        }
      ],
      "name": "validate",
      "outputs": [
        {
          "internalType": "bool",
          "name": "",
          "type": "bool"
        }
      ],
      "stateMutability": "pure",
      "type": "function"
    }
  ],
  "transactionHash": "0xba53d3bac3675cb50611f5947190f307086f7cd4ca7ef52a0025578634913c1b",
  "args": [],
  "numDeployments": 1,
  "solcInputHash": "ed9f4e7c6fd627665f444b0a52a22fe4",
  "bytecode": "0x608060405234801561001057600080fd5b50610a17806100206000396000f3fe608060405234801561001057600080fd5b50600436106100415760003560e01c806309c5eabe146100465780630cfe386f1461006f578063c16e50ef1461009d575b600080fd5b610059610054366004610351565b6100c0565b604051610066919061041f565b60405180910390f35b61008261007d366004610351565b6101a7565b60408051825181526020928301519281019290925201610066565b6100b06100ab366004610351565b6101e0565b6040519015158152602001610066565b60606100cc83836101f3565b1561013b5760008060006100e08686610262565b925092509250600082826040516020016100fb929190610432565b6040516020818303038152906040529050838160405160200161011f9291906105ee565b60408051601f1981840301815291905294506101a19350505050565b6040517f08c379a000000000000000000000000000000000000000000000000000000000815260206004820152600c60248201527f696e76616c696420646174610000000000000000000000000000000000000000604482015260640160405180910390fd5b92915050565b604080518082019091526000808252602082015260006101c78484610262565b5060408101516020850152606001518352505092915050565b60006101ec83836101f3565b9392505050565b6000806102008484610262565b50909150507fffffffff0000000000000000000000000000000000000000000000000000000081167fb4e4b29600000000000000000000000000000000000000000000000000000000146102585760009150506101a1565b5060019392505050565b6040805160c08101825260008082526020820181905291810182905260608082018390526080820183905260a0820152604080516102008101825260008082526020820181905291810182905260608082018390526080820183905260a0820183905260c0820183905260e0820183905261010082018390526101208201839052610140820183905261016082018390526101808201526101a081018290526101c081018290526101e0810191909152610320600460008688610636565b61032991610660565b92506103388460048188610636565b810190610345919061090f565b93969095509293505050565b6000806020838503121561036457600080fd5b823567ffffffffffffffff8082111561037c57600080fd5b818501915085601f83011261039057600080fd5b81358181111561039f57600080fd5b8660208285010111156103b157600080fd5b60209290920196919550909350505050565b60005b838110156103de5781810151838201526020016103c6565b838111156103ed576000848401525b50505050565b6000815180845261040b8160208601602086016103c3565b601f01601f19169290920160200192915050565b6020815260006101ec60208301846103f3565b60408152600061010084511515604084015273ffffffffffffffffffffffffffffffffffffffff602086015116606084015260408501516080840152606085015160a0840152608085015160c084015260a085015160c060e085015261049a828501826103f3565b8481036020860152855115158152905061020060208601516104d4602084018273ffffffffffffffffffffffffffffffffffffffff169052565b5060408601516104fc604084018273ffffffffffffffffffffffffffffffffffffffff169052565b50606086015160608301526080860151608083015260a086015160a083015260c086015161054260c084018273ffffffffffffffffffffffffffffffffffffffff169052565b5060e086015161056a60e084018273ffffffffffffffffffffffffffffffffffffffff169052565b508583015192820192909252610120808601519082015261014080860151908201526101608086015190820152610180808601518183018490529092906105b3828401826103f3565b935050506101a0808601516105cc8284018260ff169052565b50506101c085810151908201526101e094850151940193909352509092915050565b7fffffffff0000000000000000000000000000000000000000000000000000000083168152600082516106288160048501602087016103c3565b919091016004019392505050565b6000808585111561064657600080fd5b8386111561065357600080fd5b5050820193919092039150565b7fffffffff0000000000000000000000000000000000000000000000000000000081358181169160048510156106a05780818660040360031b1b83161692505b505092915050565b7f4e487b7100000000000000000000000000000000000000000000000000000000600052604160045260246000fd5b604051610200810167ffffffffffffffff811182821017156106fb576106fb6106a8565b60405290565b60405160c0810167ffffffffffffffff811182821017156106fb576106fb6106a8565b8035801515811461073457600080fd5b919050565b803573ffffffffffffffffffffffffffffffffffffffff8116811461073457600080fd5b600082601f83011261076e57600080fd5b813567ffffffffffffffff80821115610789576107896106a8565b604051601f8301601f19908116603f011681019082821181831017156107b1576107b16106a8565b816040528381528660208588010111156107ca57600080fd5b836020870160208301376000602085830101528094505050505092915050565b803560ff8116811461073457600080fd5b6000610200828403121561080e57600080fd5b6108166106d7565b905061082182610724565b815261082f60208301610739565b602082015261084060408301610739565b6040820152606082013560608201526080820135608082015260a082013560a082015261086f60c08301610739565b60c082015261088060e08301610739565b60e082015261010082810135908201526101208083013590820152610140808301359082015261016080830135908201526101808083013567ffffffffffffffff8111156108cd57600080fd5b6108d98582860161075d565b8284015250506101a06108ed8184016107ea565b908201526101c082810135908201526101e09182013591810191909152919050565b6000806040838503121561092257600080fd5b823567ffffffffffffffff8082111561093a57600080fd5b9084019060c0828703121561094e57600080fd5b610956610701565b61095f83610724565b815261096d60208401610739565b602082015260408301356040820152606083013560608201526080830135608082015260a0830135828111156109a257600080fd5b6109ae8882860161075d565b60a083015250935060208501359150808211156109ca57600080fd5b506109d7858286016107fb565b915050925092905056fea2646970667358221220002934e4227d6a26bb5bb15b7d253e9b13b563cb518d748992b3bfee2e130ca264736f6c63430008090033",
  "devdoc": {
    "kind": "dev",
    "methods": {},
    "version": 1
  },
  "userdoc": {
    "kind": "user",
    "methods": {},
    "version": 1
  },
  "storageLayout": {
    "storage": [],
    "types": null
  }
}