{
  "address": "0x9caE1dC122A42d0051B65f18503Ba693c7218d03",
  "abi": [
    {
      "inputs": [],
      "name": "InvalidCaller",
      "type": "error"
    },
    {
      "anonymous": false,
      "inputs": [
        {
          "indexed": true,
          "internalType": "address",
          "name": "_marketplace",
          "type": "address"
        },
        {
          "indexed": false,
          "internalType": "address",
          "name": "_strategy",
          "type": "address"
        }
      ],
      "name": "MarketplaceAdapterUpdated",
      "type": "event"
    },
    {
      "inputs": [
        {
          "internalType": "address",
          "name": "_marketplace",
          "type": "address"
        },
        {
          "internalType": "bytes",
          "name": "_data",
          "type": "bytes"
        }
      ],
      "name": "extractAssetInfo",
      "outputs": [
        {
          "components": [
            {
              "internalType": "uint256",
              "name": "tokenId",
              "type": "uint256"
            },
            {
              "internalType": "uint256",
              "name": "assetPrice",
              "type": "uint256"
            }
          ],
          "internalType": "struct AssetInfo",
          "name": "",
          "type": "tuple"
        }
      ],
      "stateMutability": "view",
      "type": "function"
    },
    {
      "inputs": [
        {
          "internalType": "address",
          "name": "_marketplace",
          "type": "address"
        },
        {
          "internalType": "address",
          "name": "_vault",
          "type": "address"
        },
        {
          "internalType": "uint256",
          "name": "_value",
          "type": "uint256"
        },
        {
          "internalType": "bytes",
          "name": "_data",
          "type": "bytes"
        }
      ],
      "name": "purchase",
      "outputs": [],
      "stateMutability": "nonpayable",
      "type": "function"
    },
    {
      "inputs": [
        {
          "internalType": "address",
          "name": "_marketplace",
          "type": "address"
        },
        {
          "internalType": "address",
          "name": "_strategy",
          "type": "address"
        }
      ],
      "name": "updateMarketPlaceData",
      "outputs": [],
      "stateMutability": "nonpayable",
      "type": "function"
    }
  ],
  "transactionHash": "0x7cd2fb9dbd12021b67f5dbae1d9e5f5d1ae73844745570f033ea4f238cae9e7e",
  "args": [],
  "numDeployments": 1,
  "solcInputHash": "ed9f4e7c6fd627665f444b0a52a22fe4",
  "bytecode": "0x608060405234801561001057600080fd5b50610ad6806100206000396000f3fe608060405234801561001057600080fd5b50600436106100415760003560e01c806332be0a6b146100465780633e9e33a81461005b578063582244ae1461006e575b600080fd5b61005961005436600461077b565b6100a0565b005b6100596100693660046107ea565b61026b565b61008161007c36600461081d565b61038a565b6040805182518152602092830151928101929092520160405180910390f35b3330146100d9576040517f48f5c3ed00000000000000000000000000000000000000000000000000000000815260040160405180910390fd5b73ffffffffffffffffffffffffffffffffffffffff85811660009081527fcefae263aa054db53617928bc915f31f052caa2df6a635924d36f37f8c9c51a360205260408082205490517f09c5eabe00000000000000000000000000000000000000000000000000000000815292169182906309c5eabe906101609087908790600401610870565b60006040518083038186803b15801561017857600080fd5b505afa15801561018c573d6000803e3d6000fd5b505050506040513d6000823e601f3d908101601f191682016040526101b491908101906108fe565b9050600087826040516020016101cb9291906109d7565b60408051601f19818403018152908290527fab5898e8000000000000000000000000000000000000000000000000000000008252915073ffffffffffffffffffffffffffffffffffffffff88169063ab5898e89061022f9084908a90600401610a06565b600060405180830381600087803b15801561024957600080fd5b505af115801561025d573d6000803e3d6000fd5b505050505050505050505050565b61027361047c565b6102dd576040517f08c379a000000000000000000000000000000000000000000000000000000000815260206004820152601660248201527f63616c6c206973206e6f7420617574686f726973656400000000000000000000604482015260640160405180910390fd5b73ffffffffffffffffffffffffffffffffffffffff82811660008181527fcefae263aa054db53617928bc915f31f052caa2df6a635924d36f37f8c9c51a3602090815260409182902080547fffffffffffffffffffffffff00000000000000000000000000000000000000001694861694851790558151938452905191927fc6beb24b45a9c65a6e61ae0db54f461ec213f584a2190ac26b155ed5eedad43f929081900390910190a25050565b6040805180820182526000808252602080830182905273ffffffffffffffffffffffffffffffffffffffff87811683527fcefae263aa054db53617928bc915f31f052caa2df6a635924d36f37f8c9c51a3909152908390205492517f0cfe386f000000000000000000000000000000000000000000000000000000008152919216908190630cfe386f906104249087908790600401610870565b604080518083038186803b15801561043b57600080fd5b505afa15801561044f573d6000803e3d6000fd5b505050506040513d601f19601f820116820180604052508101906104739190610a28565b95945050505050565b60006104d47fcefae263aa054db53617928bc915f31f052caa2df6a635924d36f37f8c9c51a56104aa6104d9565b6000357fffffffff0000000000000000000000000000000000000000000000000000000016610557565b905090565b60006014361080159061052257507fcefae263aa054db53617928bc915f31f052caa2df6a635924d36f37f8c9c51a75473ffffffffffffffffffffffffffffffffffffffff1633145b1561055257507fffffffffffffffffffffffffffffffffffffffffffffffffffffffffffffffec36013560601c90565b503390565b82546040517fb700961300000000000000000000000000000000000000000000000000000000815273ffffffffffffffffffffffffffffffffffffffff84811660048301523060248301527fffffffff0000000000000000000000000000000000000000000000000000000084166044830152600092169063b70096139060640160206040518083038186803b1580156105f057600080fd5b505afa158015610604573d6000803e3d6000fd5b505050506040513d601f19601f820116820180604052508101906106289190610a77565b80610701575060018401546040517fb700961300000000000000000000000000000000000000000000000000000000815273ffffffffffffffffffffffffffffffffffffffff85811660048301523060248301527fffffffff00000000000000000000000000000000000000000000000000000000851660448301529091169063b70096139060640160206040518083038186803b1580156106c957600080fd5b505afa1580156106dd573d6000803e3d6000fd5b505050506040513d601f19601f820116820180604052508101906107019190610a77565b949350505050565b803573ffffffffffffffffffffffffffffffffffffffff8116811461072d57600080fd5b919050565b60008083601f84011261074457600080fd5b50813567ffffffffffffffff81111561075c57600080fd5b60208301915083602082850101111561077457600080fd5b9250929050565b60008060008060006080868803121561079357600080fd5b61079c86610709565b94506107aa60208701610709565b935060408601359250606086013567ffffffffffffffff8111156107cd57600080fd5b6107d988828901610732565b969995985093965092949392505050565b600080604083850312156107fd57600080fd5b61080683610709565b915061081460208401610709565b90509250929050565b60008060006040848603121561083257600080fd5b61083b84610709565b9250602084013567ffffffffffffffff81111561085757600080fd5b61086386828701610732565b9497909650939450505050565b60208152816020820152818360408301376000818301604090810191909152601f909201601f19160101919050565b7f4e487b7100000000000000000000000000000000000000000000000000000000600052604160045260246000fd5b60005b838110156108e95781810151838201526020016108d1565b838111156108f8576000848401525b50505050565b60006020828403121561091057600080fd5b815167ffffffffffffffff8082111561092857600080fd5b818401915084601f83011261093c57600080fd5b81518181111561094e5761094e61089f565b604051601f8201601f19908116603f011681019083821181831017156109765761097661089f565b8160405282815287602084870101111561098f57600080fd5b6109a08360208301602088016108ce565b979650505050505050565b600081518084526109c38160208601602086016108ce565b601f01601f19169290920160200192915050565b73ffffffffffffffffffffffffffffffffffffffff8316815260406020820152600061070160408301846109ab565b604081526000610a1960408301856109ab565b90508260208301529392505050565b600060408284031215610a3a57600080fd5b6040516040810181811067ffffffffffffffff82111715610a5d57610a5d61089f565b604052825181526020928301519281019290925250919050565b600060208284031215610a8957600080fd5b81518015158114610a9957600080fd5b939250505056fea2646970667358221220495ea60e972f7bce9ba55b8482600365c86a4fa4e675556884581ab28e73c1a264736f6c63430008090033",
  "devdoc": {
    "kind": "dev",
    "methods": {},
    "version": 1
  },
  "userdoc": {
    "kind": "user",
    "methods": {},
    "version": 1
  },
  "storageLayout": {
    "storage": [],
    "types": null
  }
}