{
  "address": "0xd173A988584136Fe3f449e17a53c53cf89BF5a7f",
  "abi": [
    {
      "inputs": [
        {
          "internalType": "contract IERC20",
          "name": "token",
          "type": "address"
        },
        {
          "internalType": "contract IERC721",
          "name": "card",
          "type": "address"
        },
        {
          "internalType": "uint256",
          "name": "feePercent",
          "type": "uint256"
        },
        {
          "internalType": "address",
          "name": "feeAddr",
          "type": "address"
        }
      ],
      "stateMutability": "nonpayable",
      "type": "constructor"
    },
    {
      "anonymous": false,
      "inputs": [
        {
          "indexed": true,
          "internalType": "uint256",
          "name": "orderId",
          "type": "uint256"
        },
        {
          "indexed": true,
          "internalType": "address",
          "name": "buyer",
          "type": "address"
        },
        {
          "indexed": true,
          "internalType": "address",
          "name": "seller",
          "type": "address"
        },
        {
          "indexed": false,
          "internalType": "uint256",
          "name": "cardId",
          "type": "uint256"
        },
        {
          "indexed": false,
          "internalType": "uint256",
          "name": "cardPrice",
          "type": "uint256"
        }
      ],
      "name": "BuyCard",
      "type": "event"
    },
    {
      "anonymous": false,
      "inputs": [
        {
          "indexed": false,
          "internalType": "uint256",
          "name": "orderId",
          "type": "uint256"
        }
      ],
      "name": "CancelSellOrder",
      "type": "event"
    },
    {
      "anonymous": false,
      "inputs": [
        {
          "indexed": false,
          "internalType": "uint256",
          "name": "newFee",
          "type": "uint256"
        }
      ],
      "name": "ChangeFee",
      "type": "event"
    },
    {
      "anonymous": false,
      "inputs": [
        {
          "indexed": false,
          "internalType": "address",
          "name": "newAddress",
          "type": "address"
        }
      ],
      "name": "ChangeFeeAddress",
      "type": "event"
    },
    {
      "anonymous": false,
      "inputs": [
        {
          "indexed": true,
          "internalType": "uint256",
          "name": "orderId",
          "type": "uint256"
        },
        {
          "indexed": true,
          "internalType": "address",
          "name": "seller",
          "type": "address"
        },
        {
          "indexed": true,
          "internalType": "uint256",
          "name": "cardId",
          "type": "uint256"
        },
        {
          "indexed": false,
          "internalType": "uint256",
          "name": "cardPrice",
          "type": "uint256"
        }
      ],
      "name": "MakeSellOrder",
      "type": "event"
    },
    {
      "anonymous": false,
      "inputs": [
        {
          "indexed": true,
          "internalType": "address",
          "name": "previousOwner",
          "type": "address"
        },
        {
          "indexed": true,
          "internalType": "address",
          "name": "newOwner",
          "type": "address"
        }
      ],
      "name": "OwnershipTransferred",
      "type": "event"
    },
    {
      "inputs": [
        {
          "internalType": "uint256",
          "name": "orderId",
          "type": "uint256"
        }
      ],
      "name": "buyCard",
      "outputs": [],
      "stateMutability": "payable",
      "type": "function"
    },
    {
      "inputs": [
        {
          "internalType": "uint256",
          "name": "orderId",
          "type": "uint256"
        }
      ],
      "name": "cancelSellOrder",
      "outputs": [],
      "stateMutability": "nonpayable",
      "type": "function"
    },
    {
      "inputs": [],
      "name": "cardToken",
      "outputs": [
        {
          "internalType": "contract IERC721",
          "name": "",
          "type": "address"
        }
      ],
      "stateMutability": "view",
      "type": "function"
    },
    {
      "inputs": [],
      "name": "currentOrderId",
      "outputs": [
        {
          "internalType": "uint256",
          "name": "",
          "type": "uint256"
        }
      ],
      "stateMutability": "view",
      "type": "function"
    },
    {
      "inputs": [],
      "name": "feeAddress",
      "outputs": [
        {
          "internalType": "address",
          "name": "",
          "type": "address"
        }
      ],
      "stateMutability": "view",
      "type": "function"
    },
    {
      "inputs": [
        {
          "internalType": "uint256",
          "name": "cardId",
          "type": "uint256"
        },
        {
          "internalType": "uint256",
          "name": "cardPrice",
          "type": "uint256"
        }
      ],
      "name": "makeSellOrder",
      "outputs": [],
      "stateMutability": "nonpayable",
      "type": "function"
    },
    {
      "inputs": [
        {
          "internalType": "address",
          "name": "operator",
          "type": "address"
        },
        {
          "internalType": "address",
          "name": "from",
          "type": "address"
        },
        {
          "internalType": "uint256",
          "name": "tokenId",
          "type": "uint256"
        },
        {
          "internalType": "bytes",
          "name": "data",
          "type": "bytes"
        }
      ],
      "name": "onERC721Received",
      "outputs": [
        {
          "internalType": "bytes4",
          "name": "",
          "type": "bytes4"
        }
      ],
      "stateMutability": "nonpayable",
      "type": "function"
    },
    {
      "inputs": [],
      "name": "owner",
      "outputs": [
        {
          "internalType": "address",
          "name": "",
          "type": "address"
        }
      ],
      "stateMutability": "view",
      "type": "function"
    },
    {
      "inputs": [],
      "name": "paymentToken",
      "outputs": [
        {
          "internalType": "contract IERC20",
          "name": "",
          "type": "address"
        }
      ],
      "stateMutability": "view",
      "type": "function"
    },
    {
      "inputs": [],
      "name": "renounceOwnership",
      "outputs": [],
      "stateMutability": "nonpayable",
      "type": "function"
    },
    {
      "inputs": [
        {
          "internalType": "uint256",
          "name": "",
          "type": "uint256"
        }
      ],
      "name": "sellOrders",
      "outputs": [
        {
          "internalType": "address",
          "name": "owner",
          "type": "address"
        },
        {
          "internalType": "uint256",
          "name": "cardId",
          "type": "uint256"
        },
        {
          "internalType": "uint256",
          "name": "cardPrice",
          "type": "uint256"
        }
      ],
      "stateMutability": "view",
      "type": "function"
    },
    {
      "inputs": [
        {
          "internalType": "uint256",
          "name": "newFee",
          "type": "uint256"
        }
      ],
      "name": "setFee",
      "outputs": [],
      "stateMutability": "nonpayable",
      "type": "function"
    },
    {
      "inputs": [
        {
          "internalType": "address",
          "name": "newAddress",
          "type": "address"
        }
      ],
      "name": "setFeeAddress",
      "outputs": [],
      "stateMutability": "nonpayable",
      "type": "function"
    },
    {
      "inputs": [],
      "name": "tradingFeePercent",
      "outputs": [
        {
          "internalType": "uint256",
          "name": "",
          "type": "uint256"
        }
      ],
      "stateMutability": "view",
      "type": "function"
    },
    {
      "inputs": [
        {
          "internalType": "address",
          "name": "newOwner",
          "type": "address"
        }
      ],
      "name": "transferOwnership",
      "outputs": [],
      "stateMutability": "nonpayable",
      "type": "function"
    }
  ],
  "transactionHash": "0xa45ea3b850e976b0810ab3572f5c7b4e5f98d5d145a00c116ec291ea76178ce0",
  "args": [
    "0x5456D4E12Fc2fc57a2a53fc7eF47F99B8d0292C6",
    "0x0A5477B1d66F2d762C5A886a57fD7EF570FC1618",
    0,
    "0x7bB17c9401110D05ec39894334cC9d7721E90688"
  ],
  "numDeployments": 1,
  "solcInputHash": "4180ddb8e614c64b6dfc0be35a4f8476",
  "bytecode": "0x608060405234801561001057600080fd5b5060405161116138038061116183398101604081905261002f916100ec565b61003833610084565b60018055600280546001600160a01b039586166001600160a01b031991821617909155600380549486169482169490941790935560069190915560078054919093169116179055610141565b600080546001600160a01b038381166001600160a01b0319831681178455604051919092169283917f8be0079c531659141344cd1fd0a4f28419497f9722a3daafe3b4186f6b6457e09190a35050565b6001600160a01b03811681146100e957600080fd5b50565b6000806000806080858703121561010257600080fd5b845161010d816100d4565b602086015190945061011e816100d4565b604086015160608701519194509250610136816100d4565b939692955090935050565b611011806101506000396000f3fe6080604052600436106100e85760003560e01c806369fe0e2d1161008a5780638da5cb5b116100595780638da5cb5b146102e1578063925931fc146102ff578063c70f5eaa14610315578063f2fde38b1461032857600080fd5b806369fe0e2d1461026c578063715018a61461028c5780637cf37787146102a15780638705fcd4146102c157600080fd5b80632a324027116100c65780632a3240271461019d5780633013ce29146101c157806341275358146101e15780634a8393f31461020157600080fd5b8063150b7a02146100ed5780631a46e42a14610143578063215eef2114610165575b600080fd5b3480156100f957600080fd5b5061010d610108366004610d6f565b610348565b6040517fffffffff0000000000000000000000000000000000000000000000000000000090911681526020015b60405180910390f35b34801561014f57600080fd5b5061016361015e366004610e0a565b6103f1565b005b34801561017157600080fd5b50600354610185906001600160a01b031681565b6040516001600160a01b03909116815260200161013a565b3480156101a957600080fd5b506101b360065481565b60405190815260200161013a565b3480156101cd57600080fd5b50600254610185906001600160a01b031681565b3480156101ed57600080fd5b50600754610185906001600160a01b031681565b34801561020d57600080fd5b5061024761021c366004610e0a565b6004602052600090815260409020805460018201546002909201546001600160a01b03909116919083565b604080516001600160a01b03909416845260208401929092529082015260600161013a565b34801561027857600080fd5b50610163610287366004610e0a565b610555565b34801561029857600080fd5b50610163610599565b3480156102ad57600080fd5b506101636102bc366004610e23565b6105ad565b3480156102cd57600080fd5b506101636102dc366004610e45565b61064c565b3480156102ed57600080fd5b506000546001600160a01b0316610185565b34801561030b57600080fd5b506101b360055481565b610163610323366004610e0a565b6106af565b34801561033457600080fd5b50610163610343366004610e45565b610a76565b6003546000906001600160a01b031633146103aa5760405162461bcd60e51b815260206004820152601360248201527f4163636570742043524142414441206f6e6c790000000000000000000000000060448201526064015b60405180910390fd5b60006103b883850185610e0a565b90506103c5868683610b06565b507facb7d9e3059f17bdabc47ad03f0278ec3c162128a4c73cef5bc7ea8fcd3af9a69695505050505050565b600081815260046020526040902080546001600160a01b031633146104585760405162461bcd60e51b815260206004820152600960248201527f4e6f74206f776e6572000000000000000000000000000000000000000000000060448201526064016103a1565b60035460018201546040517f42842e0e00000000000000000000000000000000000000000000000000000000815230600482015233602482015260448101919091526001600160a01b03909116906342842e0e90606401600060405180830381600087803b1580156104c957600080fd5b505af11580156104dd573d6000803e3d6000fd5b505050600083815260046020526040808220805473ffffffffffffffffffffffffffffffffffffffff191681556001810183905560020191909155517f2fff7574e5d746527deed9fd275b7c3520bc2a591fe432efd3b6b1abadf3301c91506105499084815260200190565b60405180910390a15050565b61055d610bc5565b60068190556040518181527ffba1d84f2e30311f1380f2355f294fbedd53264c2504378e2c4b2133dea16670906020015b60405180910390a150565b6105a1610bc5565b6105ab6000610c1f565b565b60035460408051602080820185905282518083039091018152818301928390527fb88d4fde000000000000000000000000000000000000000000000000000000009092526001600160a01b039092169163b88d4fde916106169133913091889190604401610e67565b600060405180830381600087803b15801561063057600080fd5b505af1158015610644573d6000803e3d6000fd5b505050505050565b610654610bc5565b6007805473ffffffffffffffffffffffffffffffffffffffff19166001600160a01b0383169081179091556040519081527f65e29051085f9b7dd780038722c09ab1443e323345b86bd862699a2881757f0c9060200161058e565b600260015414156107025760405162461bcd60e51b815260206004820152601f60248201527f5265656e7472616e637947756172643a207265656e7472616e742063616c6c0060448201526064016103a1565b60026001908155600082815260046020526040902080549181015490916001600160a01b031690816107765760405162461bcd60e51b815260206004820152600e60248201527f496e76616c6964206f726465722000000000000000000000000000000000000060448201526064016103a1565b825473ffffffffffffffffffffffffffffffffffffffff191683556003546040517f42842e0e000000000000000000000000000000000000000000000000000000008152306004820152336024820152604481018390526001600160a01b03909116906342842e0e90606401600060405180830381600087803b1580156107fc57600080fd5b505af1158015610810573d6000803e3d6000fd5b50505050600283810154905481906001600160a01b031661087a5781341461087a5760405162461bcd60e51b815260206004820152600d60248201527f494e56414c49442056414c55450000000000000000000000000000000000000060448201526064016103a1565b60065415610954576000612710600654846108959190610f2d565b61089f9190610f4c565b90506108ab8184610f87565b6002546007546040516323b872dd60e01b81523360048201526001600160a01b0391821660248201526044810185905292945016906323b872dd90606401602060405180830381600087803b15801561090357600080fd5b505af1158015610917573d6000803e3d6000fd5b505050506040513d601f19601f8201168201806040525081019061093b9190610f9e565b50600754610952906001600160a01b031682610c7c565b505b6002546040516323b872dd60e01b81523360048201526001600160a01b03868116602483015260448201849052909116906323b872dd90606401602060405180830381600087803b1580156109a857600080fd5b505af11580156109bc573d6000803e3d6000fd5b505050506040513d601f19601f820116820180604052508101906109e09190610f9e565b506109eb8482610c7c565b60408051848152602081018490526001600160a01b03861691339189917f4d3b1cf93e7676f80b7df86edb68fdf7be63c9964cc44c6b43b51c434b8ab771910160405180910390a450505060009283525050600460205260408120805473ffffffffffffffffffffffffffffffffffffffff1916815560018082018390556002909101919091558055565b610a7e610bc5565b6001600160a01b038116610afa5760405162461bcd60e51b815260206004820152602660248201527f4f776e61626c653a206e6577206f776e657220697320746865207a65726f206160448201527f646472657373000000000000000000000000000000000000000000000000000060648201526084016103a1565b610b0381610c1f565b50565b604080516060810182526001600160a01b038581168083526020808401878152848601878152600580546000908152600485528890208751815473ffffffffffffffffffffffffffffffffffffffff1916971696909617865591516001860155516002909401939093559154935185815292938693919290917faa3a54b9f8430f4678fd65129ad1bf854fc721a8f456525716dec8e78f578845910160405180910390a460058054906000610bba83610fc0565b919050555050505050565b6000546001600160a01b031633146105ab5760405162461bcd60e51b815260206004820181905260248201527f4f776e61626c653a2063616c6c6572206973206e6f7420746865206f776e657260448201526064016103a1565b600080546001600160a01b0383811673ffffffffffffffffffffffffffffffffffffffff19831681178455604051919092169283917f8be0079c531659141344cd1fd0a4f28419497f9722a3daafe3b4186f6b6457e09190a35050565b6002546001600160a01b0316610cc7576040516001600160a01b0383169082156108fc029083906000818181858888f19350505050158015610cc2573d6000803e3d6000fd5b505050565b6002546040516323b872dd60e01b81523360048201526001600160a01b03848116602483015260448201849052909116906323b872dd90606401602060405180830381600087803b158015610d1b57600080fd5b505af1158015610d2f573d6000803e3d6000fd5b505050506040513d601f19601f82011682018060405250810190610cc29190610f9e565b80356001600160a01b0381168114610d6a57600080fd5b919050565b600080600080600060808688031215610d8757600080fd5b610d9086610d53565b9450610d9e60208701610d53565b935060408601359250606086013567ffffffffffffffff80821115610dc257600080fd5b818801915088601f830112610dd657600080fd5b813581811115610de557600080fd5b896020828501011115610df757600080fd5b9699959850939650602001949392505050565b600060208284031215610e1c57600080fd5b5035919050565b60008060408385031215610e3657600080fd5b50508035926020909101359150565b600060208284031215610e5757600080fd5b610e6082610d53565b9392505050565b60006001600160a01b038087168352602081871681850152856040850152608060608501528451915081608085015260005b82811015610eb55785810182015185820160a001528101610e99565b82811115610ec757600060a084870101525b5050601f017fffffffffffffffffffffffffffffffffffffffffffffffffffffffffffffffe0169190910160a00195945050505050565b7f4e487b7100000000000000000000000000000000000000000000000000000000600052601160045260246000fd5b6000816000190483118215151615610f4757610f47610efe565b500290565b600082610f82577f4e487b7100000000000000000000000000000000000000000000000000000000600052601260045260246000fd5b500490565b600082821015610f9957610f99610efe565b500390565b600060208284031215610fb057600080fd5b81518015158114610e6057600080fd5b6000600019821415610fd457610fd4610efe565b506001019056fea264697066735822122027078d2d762aa8a7d0b2965010a75fbcda1c8d37afbf4a82d03cbeafb83b569a64736f6c63430008090033",
  "devdoc": {
    "kind": "dev",
    "methods": {
      "owner()": {
        "details": "Returns the address of the current owner."
      },
      "renounceOwnership()": {
        "details": "Leaves the contract without owner. It will not be possible to call `onlyOwner` functions anymore. Can only be called by the current owner. NOTE: Renouncing ownership will leave the contract without an owner, thereby removing any functionality that is only available to the owner."
      },
      "transferOwnership(address)": {
        "details": "Transfers ownership of the contract to a new account (`newOwner`). Can only be called by the current owner."
      }
    },
    "version": 1
  },
  "userdoc": {
    "kind": "user",
    "methods": {
      "buyCard(uint256)": {
        "notice": "Buy card"
      },
      "cancelSellOrder(uint256)": {
        "notice": "Cancel sale"
      },
      "makeSellOrder(uint256,uint256)": {
        "notice": "Place an order to sell a card."
      },
      "onERC721Received(address,address,uint256,bytes)": {
        "notice": "Send card to this contract to sell. Data is the price."
      },
      "setFee(uint256)": {
        "notice": "Change fee"
      },
      "setFeeAddress(address)": {
        "notice": "Change fee address"
      }
    },
    "version": 1
  },
  "storageLayout": {
    "storage": [
      {
        "astId": 2209,
        "contract": "contracts/mock/MockMarketplace.sol:MockMarketPlace",
        "label": "_owner",
        "offset": 0,
        "slot": "0",
        "type": "t_address"
      },
      {
        "astId": 3129,
        "contract": "contracts/mock/MockMarketplace.sol:MockMarketPlace",
        "label": "_status",
        "offset": 0,
        "slot": "1",
        "type": "t_uint256"
      },
      {
        "astId": 7080,
        "contract": "contracts/mock/MockMarketplace.sol:MockMarketPlace",
        "label": "paymentToken",
        "offset": 0,
        "slot": "2",
        "type": "t_contract(IERC20)3822"
      },
      {
        "astId": 7083,
        "contract": "contracts/mock/MockMarketplace.sol:MockMarketPlace",
        "label": "cardToken",
        "offset": 0,
        "slot": "3",
        "type": "t_contract(IERC721)5147"
      },
      {
        "astId": 7095,
        "contract": "contracts/mock/MockMarketplace.sol:MockMarketPlace",
        "label": "sellOrders",
        "offset": 0,
        "slot": "4",
        "type": "t_mapping(t_uint256,t_struct(Order)7090_storage)"
      },
      {
        "astId": 7097,
        "contract": "contracts/mock/MockMarketplace.sol:MockMarketPlace",
        "label": "currentOrderId",
        "offset": 0,
        "slot": "5",
        "type": "t_uint256"
      },
      {
        "astId": 7099,
        "contract": "contracts/mock/MockMarketplace.sol:MockMarketPlace",
        "label": "tradingFeePercent",
        "offset": 0,
        "slot": "6",
        "type": "t_uint256"
      },
      {
        "astId": 7101,
        "contract": "contracts/mock/MockMarketplace.sol:MockMarketPlace",
        "label": "feeAddress",
        "offset": 0,
        "slot": "7",
        "type": "t_address"
      }
    ],
    "types": {
      "t_address": {
        "encoding": "inplace",
        "label": "address",
        "numberOfBytes": "20"
      },
      "t_contract(IERC20)3822": {
        "encoding": "inplace",
        "label": "contract IERC20",
        "numberOfBytes": "20"
      },
      "t_contract(IERC721)5147": {
        "encoding": "inplace",
        "label": "contract IERC721",
        "numberOfBytes": "20"
      },
      "t_mapping(t_uint256,t_struct(Order)7090_storage)": {
        "encoding": "mapping",
        "key": "t_uint256",
        "label": "mapping(uint256 => struct MockMarketPlace.Order)",
        "numberOfBytes": "32",
        "value": "t_struct(Order)7090_storage"
      },
      "t_struct(Order)7090_storage": {
        "encoding": "inplace",
        "label": "struct MockMarketPlace.Order",
        "members": [
          {
            "astId": 7085,
            "contract": "contracts/mock/MockMarketplace.sol:MockMarketPlace",
            "label": "owner",
            "offset": 0,
            "slot": "0",
            "type": "t_address"
          },
          {
            "astId": 7087,
            "contract": "contracts/mock/MockMarketplace.sol:MockMarketPlace",
            "label": "cardId",
            "offset": 0,
            "slot": "1",
            "type": "t_uint256"
          },
          {
            "astId": 7089,
            "contract": "contracts/mock/MockMarketplace.sol:MockMarketPlace",
            "label": "cardPrice",
            "offset": 0,
            "slot": "2",
            "type": "t_uint256"
          }
        ],
        "numberOfBytes": "96"
      },
      "t_uint256": {
        "encoding": "inplace",
        "label": "uint256",
        "numberOfBytes": "32"
      }
    }
  }
}