{
  "address": "0x8307E9C154018831bE3cC0f03DC99053e40Dd67f",
  "abi": [
    {
      "anonymous": false,
      "inputs": [
        {
          "indexed": true,
          "internalType": "address",
          "name": "previousOwner",
          "type": "address"
        },
        {
          "indexed": true,
          "internalType": "address",
          "name": "newOwner",
          "type": "address"
        }
      ],
      "name": "OwnershipTransferred",
      "type": "event"
    },
    {
      "inputs": [
        {
          "internalType": "address",
          "name": "_currency",
          "type": "address"
        }
      ],
      "name": "getTwap",
      "outputs": [
        {
          "internalType": "uint256",
          "name": "",
          "type": "uint256"
        },
        {
          "internalType": "uint256",
          "name": "",
          "type": "uint256"
        }
      ],
      "stateMutability": "view",
      "type": "function"
    },
    {
      "inputs": [],
      "name": "owner",
      "outputs": [
        {
          "internalType": "address",
          "name": "",
          "type": "address"
        }
      ],
      "stateMutability": "view",
      "type": "function"
    },
    {
      "inputs": [],
      "name": "renounceOwnership",
      "outputs": [],
      "stateMutability": "nonpayable",
      "type": "function"
    },
    {
      "inputs": [
        {
          "internalType": "address",
          "name": "newOwner",
          "type": "address"
        }
      ],
      "name": "transferOwnership",
      "outputs": [],
      "stateMutability": "nonpayable",
      "type": "function"
    },
    {
      "inputs": [
        {
          "internalType": "address",
          "name": "_currency",
          "type": "address"
        },
        {
          "internalType": "uint256",
          "name": "_priceAverage",
          "type": "uint256"
        }
      ],
      "name": "updateTwap",
      "outputs": [],
      "stateMutability": "nonpayable",
      "type": "function"
    }
  ],
  "transactionHash": "0x371aea6103b2ce7036713e801eee306ce75e60d8ac8e5b8024a2c93ce44b348a",
  "args": [],
  "numDeployments": 1,
  "solcInputHash": "4180ddb8e614c64b6dfc0be35a4f8476",
  "bytecode": "0x608060405234801561001057600080fd5b5061001a3361001f565b61006f565b600080546001600160a01b038381166001600160a01b0319831681178455604051919092169283917f8be0079c531659141344cd1fd0a4f28419497f9722a3daafe3b4186f6b6457e09190a35050565b6103cb8061007e6000396000f3fe608060405234801561001057600080fd5b50600436106100675760003560e01c80638da5cb5b116100505780638da5cb5b146100cf5780639eb38b34146100f7578063f2fde38b1461010a57600080fd5b80633d47d2271461006c578063715018a6146100c5575b600080fd5b6100ab61007a366004610349565b73ffffffffffffffffffffffffffffffffffffffff1660009081526001602081905260409091209081015490549091565b604080519283526020830191909152015b60405180910390f35b6100cd61011d565b005b60005460405173ffffffffffffffffffffffffffffffffffffffff90911681526020016100bc565b6100cd61010536600461036b565b610131565b6100cd610118366004610349565b61016e565b61012561022a565b61012f60006102ab565b565b61013961022a565b73ffffffffffffffffffffffffffffffffffffffff909116600090815260016020819052604090912090810191909155429055565b61017661022a565b73ffffffffffffffffffffffffffffffffffffffff811661021e576040517f08c379a000000000000000000000000000000000000000000000000000000000815260206004820152602660248201527f4f776e61626c653a206e6577206f776e657220697320746865207a65726f206160448201527f646472657373000000000000000000000000000000000000000000000000000060648201526084015b60405180910390fd5b610227816102ab565b50565b60005473ffffffffffffffffffffffffffffffffffffffff16331461012f576040517f08c379a000000000000000000000000000000000000000000000000000000000815260206004820181905260248201527f4f776e61626c653a2063616c6c6572206973206e6f7420746865206f776e65726044820152606401610215565b6000805473ffffffffffffffffffffffffffffffffffffffff8381167fffffffffffffffffffffffff0000000000000000000000000000000000000000831681178455604051919092169283917f8be0079c531659141344cd1fd0a4f28419497f9722a3daafe3b4186f6b6457e09190a35050565b803573ffffffffffffffffffffffffffffffffffffffff8116811461034457600080fd5b919050565b60006020828403121561035b57600080fd5b61036482610320565b9392505050565b6000806040838503121561037e57600080fd5b61038783610320565b94602093909301359350505056fea2646970667358221220922c9d872d14d530c2b91bde7ffe70c6f464ad745dbf76e72b63c69fe20aa79164736f6c63430008090033",
  "devdoc": {
    "kind": "dev",
    "methods": {
      "owner()": {
        "details": "Returns the address of the current owner."
      },
      "renounceOwnership()": {
        "details": "Leaves the contract without owner. It will not be possible to call `onlyOwner` functions anymore. Can only be called by the current owner. NOTE: Renouncing ownership will leave the contract without an owner, thereby removing any functionality that is only available to the owner."
      },
      "transferOwnership(address)": {
        "details": "Transfers ownership of the contract to a new account (`newOwner`). Can only be called by the current owner."
      }
    },
    "version": 1
  },
  "userdoc": {
    "kind": "user",
    "methods": {},
    "version": 1
  },
  "storageLayout": {
    "storage": [
      {
        "astId": 2209,
        "contract": "contracts/voyage/infra/PriceOracle.sol:PriceOracle",
        "label": "_owner",
        "offset": 0,
        "slot": "0",
        "type": "t_address"
      },
      {
        "astId": 20173,
        "contract": "contracts/voyage/infra/PriceOracle.sol:PriceOracle",
        "label": "prices",
        "offset": 0,
        "slot": "1",
        "type": "t_mapping(t_address,t_struct(AveragePrice)20168_storage)"
      }
    ],
    "types": {
      "t_address": {
        "encoding": "inplace",
        "label": "address",
        "numberOfBytes": "20"
      },
      "t_mapping(t_address,t_struct(AveragePrice)20168_storage)": {
        "encoding": "mapping",
        "key": "t_address",
        "label": "mapping(address => struct PriceOracle.AveragePrice)",
        "numberOfBytes": "32",
        "value": "t_struct(AveragePrice)20168_storage"
      },
      "t_struct(AveragePrice)20168_storage": {
        "encoding": "inplace",
        "label": "struct PriceOracle.AveragePrice",
        "members": [
          {
            "astId": 20165,
            "contract": "contracts/voyage/infra/PriceOracle.sol:PriceOracle",
            "label": "blockTimestamp",
            "offset": 0,
            "slot": "0",
            "type": "t_uint256"
          },
          {
            "astId": 20167,
            "contract": "contracts/voyage/infra/PriceOracle.sol:PriceOracle",
            "label": "priceAverage",
            "offset": 0,
            "slot": "1",
            "type": "t_uint256"
          }
        ],
        "numberOfBytes": "64"
      },
      "t_uint256": {
        "encoding": "inplace",
        "label": "uint256",
        "numberOfBytes": "32"
      }
    }
  }
}