{
  "address": "0x0601895975454b187897B4DdCa628374A671cBd9",
  "abi": [
    {
      "anonymous": false,
      "inputs": [
        {
          "indexed": true,
          "internalType": "address",
          "name": "previousOwner",
          "type": "address"
        },
        {
          "indexed": true,
          "internalType": "address",
          "name": "newOwner",
          "type": "address"
        }
      ],
      "name": "OwnershipTransferred",
      "type": "event"
    },
    {
      "inputs": [
        {
          "internalType": "address",
          "name": "_asset",
          "type": "address"
        }
      ],
      "name": "currentCumulativePrice",
      "outputs": [
        {
          "internalType": "uint256",
          "name": "",
          "type": "uint256"
        },
        {
          "internalType": "uint256",
          "name": "",
          "type": "uint256"
        }
      ],
      "stateMutability": "view",
      "type": "function"
    },
    {
      "inputs": [
        {
          "internalType": "address",
          "name": "_asset",
          "type": "address"
        }
      ],
      "name": "getTwap",
      "outputs": [
        {
          "internalType": "uint256",
          "name": "",
          "type": "uint256"
        }
      ],
      "stateMutability": "view",
      "type": "function"
    },
    {
      "inputs": [],
      "name": "owner",
      "outputs": [
        {
          "internalType": "address",
          "name": "",
          "type": "address"
        }
      ],
      "stateMutability": "view",
      "type": "function"
    },
    {
      "inputs": [],
      "name": "renounceOwnership",
      "outputs": [],
      "stateMutability": "nonpayable",
      "type": "function"
    },
    {
      "inputs": [
        {
          "internalType": "address",
          "name": "newOwner",
          "type": "address"
        }
      ],
      "name": "transferOwnership",
      "outputs": [],
      "stateMutability": "nonpayable",
      "type": "function"
    },
    {
      "inputs": [
        {
          "internalType": "address[]",
          "name": "_assets",
          "type": "address[]"
        }
      ],
      "name": "updateAssetPrices",
      "outputs": [],
      "stateMutability": "nonpayable",
      "type": "function"
    },
    {
      "inputs": [
        {
          "internalType": "address",
          "name": "_asset",
          "type": "address"
        },
        {
          "internalType": "uint256",
          "name": "_price",
          "type": "uint256"
        }
      ],
      "name": "updateCumulative",
      "outputs": [],
      "stateMutability": "nonpayable",
      "type": "function"
    },
    {
      "inputs": [
        {
          "internalType": "address[]",
          "name": "_assets",
          "type": "address[]"
        },
        {
          "internalType": "uint256[]",
          "name": "_prices",
          "type": "uint256[]"
        }
      ],
      "name": "updateCumulativeBatch",
      "outputs": [],
      "stateMutability": "nonpayable",
      "type": "function"
    },
    {
      "inputs": [
        {
          "internalType": "address",
          "name": "_asset",
          "type": "address"
        }
      ],
      "name": "updateTwap",
      "outputs": [],
      "stateMutability": "nonpayable",
      "type": "function"
    }
  ],
  "transactionHash": "0x9e312a2365fcf94340dfc9dc573cd82cc0d900911aa442df8b4c093cedde827d",
  "args": [],
  "numDeployments": 1,
  "solcInputHash": "64736b687302d4e0a12a155efce9fbfe",
  "bytecode": "0x608060405234801561001057600080fd5b5061001a3361001f565b61006f565b600080546001600160a01b038381166001600160a01b0319831681178455604051919092169283917f8be0079c531659141344cd1fd0a4f28419497f9722a3daafe3b4186f6b6457e09190a35050565b6108a08061007e6000396000f3fe608060405234801561001057600080fd5b50600436106100a35760003560e01c8063715018a6116100765780638da5cb5b1161005b5780638da5cb5b14610170578063be1e3a901461018b578063f2fde38b1461019e57600080fd5b8063715018a614610155578063725068a51461015d57600080fd5b80630a26ff58146100a85780633d47d227146100bd578063541dd7ef146100fc5780636f34d11414610142575b600080fd5b6100bb6100b636600461066d565b6101b1565b005b6100e96100cb366004610697565b6001600160a01b031660009081526001602052604090206002015490565b6040519081526020015b60405180910390f35b61012d61010a366004610697565b6001600160a01b0316600090815260026020526040902080546001909101549091565b604080519283526020830191909152016100f3565b6100bb610150366004610705565b61021e565b6100bb6102bf565b6100bb61016b366004610697565b610325565b6000546040516001600160a01b0390911681526020016100f3565b6100bb610199366004610747565b61038b565b6100bb6101ac366004610697565b610451565b6000546001600160a01b031633146102105760405162461bcd60e51b815260206004820181905260248201527f4f776e61626c653a2063616c6c6572206973206e6f7420746865206f776e657260448201526064015b60405180910390fd5b61021a8282610530565b5050565b6000546001600160a01b031633146102785760405162461bcd60e51b815260206004820181905260248201527f4f776e61626c653a2063616c6c6572206973206e6f7420746865206f776e65726044820152606401610207565b60005b818110156102ba576102b2838383818110610298576102986107b3565b90506020020160208101906102ad9190610697565b610580565b60010161027b565b505050565b6000546001600160a01b031633146103195760405162461bcd60e51b815260206004820181905260248201527f4f776e61626c653a2063616c6c6572206973206e6f7420746865206f776e65726044820152606401610207565b61032360006105e9565b565b6000546001600160a01b0316331461037f5760405162461bcd60e51b815260206004820181905260248201527f4f776e61626c653a2063616c6c6572206973206e6f7420746865206f776e65726044820152606401610207565b61038881610580565b50565b6000546001600160a01b031633146103e55760405162461bcd60e51b815260206004820181905260248201527f4f776e61626c653a2063616c6c6572206973206e6f7420746865206f776e65726044820152606401610207565b60005b8381101561044a57610438858583818110610405576104056107b3565b905060200201602081019061041a9190610697565b84848481811061042c5761042c6107b3565b90506020020135610530565b80610442816107df565b9150506103e8565b5050505050565b6000546001600160a01b031633146104ab5760405162461bcd60e51b815260206004820181905260248201527f4f776e61626c653a2063616c6c6572206973206e6f7420746865206f776e65726044820152606401610207565b6001600160a01b0381166105275760405162461bcd60e51b815260206004820152602660248201527f4f776e61626c653a206e6577206f776e657220697320746865207a65726f206160448201527f64647265737300000000000000000000000000000000000000000000000000006064820152608401610207565b610388816105e9565b6001600160a01b0382166000908152600260205260408120600181015490919061055a90426107fa565b90506105668184610811565b82546105729190610830565b825550426001909101555050565b6001600160a01b038116600090815260016020818152604080842060029092528320805492015490925060008360010154826105bc91906107fa565b845490915081906105cd90856107fa565b6105d79190610848565b60028501555090825560019091015550565b600080546001600160a01b038381167fffffffffffffffffffffffff0000000000000000000000000000000000000000831681178455604051919092169283917f8be0079c531659141344cd1fd0a4f28419497f9722a3daafe3b4186f6b6457e09190a35050565b80356001600160a01b038116811461066857600080fd5b919050565b6000806040838503121561068057600080fd5b61068983610651565b946020939093013593505050565b6000602082840312156106a957600080fd5b6106b282610651565b9392505050565b60008083601f8401126106cb57600080fd5b50813567ffffffffffffffff8111156106e357600080fd5b6020830191508360208260051b85010111156106fe57600080fd5b9250929050565b6000806020838503121561071857600080fd5b823567ffffffffffffffff81111561072f57600080fd5b61073b858286016106b9565b90969095509350505050565b6000806000806040858703121561075d57600080fd5b843567ffffffffffffffff8082111561077557600080fd5b610781888389016106b9565b9096509450602087013591508082111561079a57600080fd5b506107a7878288016106b9565b95989497509550505050565b634e487b7160e01b600052603260045260246000fd5b634e487b7160e01b600052601160045260246000fd5b60006000198214156107f3576107f36107c9565b5060010190565b60008282101561080c5761080c6107c9565b500390565b600081600019048311821515161561082b5761082b6107c9565b500290565b60008219821115610843576108436107c9565b500190565b60008261086557634e487b7160e01b600052601260045260246000fd5b50049056fea2646970667358221220cc82945faafcf4b9da2c8d19e87599c90f596844cbc9ad7b5bda6f1464a42b9364736f6c63430008090033",
  "devdoc": {
    "kind": "dev",
    "methods": {
      "owner()": {
        "details": "Returns the address of the current owner."
      },
      "renounceOwnership()": {
        "details": "Leaves the contract without owner. It will not be possible to call `onlyOwner` functions anymore. Can only be called by the current owner. NOTE: Renouncing ownership will leave the contract without an owner, thereby removing any functionality that is only available to the owner."
      },
      "transferOwnership(address)": {
        "details": "Transfers ownership of the contract to a new account (`newOwner`). Can only be called by the current owner."
      }
    },
    "version": 1
  },
  "userdoc": {
    "kind": "user",
    "methods": {},
    "version": 1
  },
  "storageLayout": {
    "storage": [
      {
        "astId": 2209,
        "contract": "contracts/voyage/infra/PriceOracle.sol:PriceOracle",
        "label": "_owner",
        "offset": 0,
        "slot": "0",
        "type": "t_address"
      },
      {
        "astId": 20209,
        "contract": "contracts/voyage/infra/PriceOracle.sol:PriceOracle",
        "label": "prices",
        "offset": 0,
        "slot": "1",
        "type": "t_mapping(t_address,t_struct(CumulativePrice)20199_storage)"
      },
      {
        "astId": 20214,
        "contract": "contracts/voyage/infra/PriceOracle.sol:PriceOracle",
        "label": "ticket",
        "offset": 0,
        "slot": "2",
        "type": "t_mapping(t_address,t_struct(PriceData)20204_storage)"
      }
    ],
    "types": {
      "t_address": {
        "encoding": "inplace",
        "label": "address",
        "numberOfBytes": "20"
      },
      "t_mapping(t_address,t_struct(CumulativePrice)20199_storage)": {
        "encoding": "mapping",
        "key": "t_address",
        "label": "mapping(address => struct PriceOracle.CumulativePrice)",
        "numberOfBytes": "32",
        "value": "t_struct(CumulativePrice)20199_storage"
      },
      "t_mapping(t_address,t_struct(PriceData)20204_storage)": {
        "encoding": "mapping",
        "key": "t_address",
        "label": "mapping(address => struct PriceOracle.PriceData)",
        "numberOfBytes": "32",
        "value": "t_struct(PriceData)20204_storage"
      },
      "t_struct(CumulativePrice)20199_storage": {
        "encoding": "inplace",
        "label": "struct PriceOracle.CumulativePrice",
        "members": [
          {
            "astId": 20194,
            "contract": "contracts/voyage/infra/PriceOracle.sol:PriceOracle",
            "label": "priceCumulativeLast",
            "offset": 0,
            "slot": "0",
            "type": "t_uint256"
          },
          {
            "astId": 20196,
            "contract": "contracts/voyage/infra/PriceOracle.sol:PriceOracle",
            "label": "blockTimestampLast",
            "offset": 0,
            "slot": "1",
            "type": "t_uint256"
          },
          {
            "astId": 20198,
            "contract": "contracts/voyage/infra/PriceOracle.sol:PriceOracle",
            "label": "priceAverage",
            "offset": 0,
            "slot": "2",
            "type": "t_uint256"
          }
        ],
        "numberOfBytes": "96"
      },
      "t_struct(PriceData)20204_storage": {
        "encoding": "inplace",
        "label": "struct PriceOracle.PriceData",
        "members": [
          {
            "astId": 20201,
            "contract": "contracts/voyage/infra/PriceOracle.sol:PriceOracle",
            "label": "priceCumulative",
            "offset": 0,
            "slot": "0",
            "type": "t_uint256"
          },
          {
            "astId": 20203,
            "contract": "contracts/voyage/infra/PriceOracle.sol:PriceOracle",
            "label": "blockTimestamp",
            "offset": 0,
            "slot": "1",
            "type": "t_uint256"
          }
        ],
        "numberOfBytes": "64"
      },
      "t_uint256": {
        "encoding": "inplace",
        "label": "uint256",
        "numberOfBytes": "32"
      }
    }
  }
}