{
  "address": "0x1B418bE8313c342025B9B263f011c7873Bb0a9b2",
  "abi": [
    {
      "anonymous": false,
      "inputs": [
        {
          "indexed": false,
          "internalType": "address",
          "name": "account",
          "type": "address"
        }
      ],
      "name": "Paused",
      "type": "event"
    },
    {
      "anonymous": false,
      "inputs": [
        {
          "indexed": false,
          "internalType": "address",
          "name": "account",
          "type": "address"
        }
      ],
      "name": "Unpaused",
      "type": "event"
    },
    {
      "inputs": [
        {
          "internalType": "address",
          "name": "src",
          "type": "address"
        },
        {
          "internalType": "address",
          "name": "dst",
          "type": "address"
        },
        {
          "internalType": "bytes4",
          "name": "sig",
          "type": "bytes4"
        }
      ],
      "name": "grantPermission",
      "outputs": [],
      "stateMutability": "nonpayable",
      "type": "function"
    },
    {
      "inputs": [
        {
          "internalType": "address",
          "name": "user",
          "type": "address"
        },
        {
          "internalType": "uint8",
          "name": "role",
          "type": "uint8"
        },
        {
          "internalType": "bool",
          "name": "enabled",
          "type": "bool"
        }
      ],
      "name": "grantRole",
      "outputs": [],
      "stateMutability": "nonpayable",
      "type": "function"
    },
    {
      "inputs": [
        {
          "internalType": "uint8",
          "name": "role",
          "type": "uint8"
        },
        {
          "internalType": "address",
          "name": "target",
          "type": "address"
        },
        {
          "internalType": "bytes4",
          "name": "sig",
          "type": "bytes4"
        }
      ],
      "name": "grantRolePermission",
      "outputs": [],
      "stateMutability": "nonpayable",
      "type": "function"
    },
    {
      "inputs": [
        {
          "internalType": "address",
          "name": "src",
          "type": "address"
        },
        {
          "internalType": "address",
          "name": "dst",
          "type": "address"
        },
        {
          "internalType": "bytes4",
          "name": "sig",
          "type": "bytes4"
        }
      ],
      "name": "isAuthorised",
      "outputs": [
        {
          "internalType": "bool",
          "name": "",
          "type": "bool"
        }
      ],
      "stateMutability": "nonpayable",
      "type": "function"
    },
    {
      "inputs": [
        {
          "internalType": "address",
          "name": "src",
          "type": "address"
        },
        {
          "internalType": "bytes4",
          "name": "sig",
          "type": "bytes4"
        }
      ],
      "name": "isAuthorisedInbound",
      "outputs": [
        {
          "internalType": "bool",
          "name": "",
          "type": "bool"
        }
      ],
      "stateMutability": "nonpayable",
      "type": "function"
    },
    {
      "inputs": [
        {
          "internalType": "address",
          "name": "dst",
          "type": "address"
        },
        {
          "internalType": "bytes4",
          "name": "sig",
          "type": "bytes4"
        }
      ],
      "name": "isAuthorisedOutbound",
      "outputs": [
        {
          "internalType": "bool",
          "name": "",
          "type": "bool"
        }
      ],
      "stateMutability": "nonpayable",
      "type": "function"
    },
    {
      "inputs": [],
      "name": "pause",
      "outputs": [],
      "stateMutability": "nonpayable",
      "type": "function"
    },
    {
      "inputs": [],
      "name": "paused",
      "outputs": [
        {
          "internalType": "bool",
          "name": "",
          "type": "bool"
        }
      ],
      "stateMutability": "view",
      "type": "function"
    },
    {
      "inputs": [
        {
          "internalType": "address",
          "name": "src",
          "type": "address"
        },
        {
          "internalType": "address",
          "name": "dst",
          "type": "address"
        },
        {
          "internalType": "bytes4",
          "name": "sig",
          "type": "bytes4"
        }
      ],
      "name": "revokePermission",
      "outputs": [],
      "stateMutability": "nonpayable",
      "type": "function"
    },
    {
      "inputs": [
        {
          "internalType": "uint8",
          "name": "role",
          "type": "uint8"
        },
        {
          "internalType": "address",
          "name": "target",
          "type": "address"
        },
        {
          "internalType": "bytes4",
          "name": "sig",
          "type": "bytes4"
        }
      ],
      "name": "revokeRolePermission",
      "outputs": [],
      "stateMutability": "nonpayable",
      "type": "function"
    },
    {
      "inputs": [],
      "name": "unpause",
      "outputs": [],
      "stateMutability": "nonpayable",
      "type": "function"
    }
  ],
  "args": [],
  "numDeployments": 1,
  "solcInputHash": "64736b687302d4e0a12a155efce9fbfe",
  "bytecode": "0x608060405234801561001057600080fd5b50610bff806100206000396000f3fe608060405234801561001057600080fd5b50600436106100c95760003560e01c80638456cb5911610081578063ca351b841161005b578063ca351b841461015a578063e51edecd1461016d578063ee13db1d1461018057600080fd5b80638456cb591461012c578063ab75dbe014610134578063ca2ff2121461014757600080fd5b80634ec735ae116100b25780634ec735ae146100eb5780635c975abb146100fe578063656838281461011957600080fd5b80633f4ba83a146100ce57806342509532146100d8575b600080fd5b6100d6610193565b005b6100d66100e6366004610ac0565b610236565b6100d66100f9366004610b03565b61029c565b60085460ff165b604051901515815260200160405180910390f35b610105610127366004610b21565b6102fd565b6100d6610312565b610105610142366004610b03565b61039b565b610105610155366004610b21565b6103b2565b6100d6610168366004610b65565b6103c0565b6100d661017b366004610b03565b610421565b6100d661018e366004610ac0565b610482565b61019b6104e3565b6101ec5760405162461bcd60e51b815260206004820152601660248201527f63616c6c206973206e6f7420617574686f72697365640000000000000000000060448201526064015b60405180910390fd5b6008805460ff191690557f5db9ee0a495bf2e6ff9c91a7834c1ba4fdd244a5e8aa4e537bd38aeae4b073aa335b6040516001600160a01b03909116815260200160405180910390a1565b61023e6104e3565b61028a5760405162461bcd60e51b815260206004820152601660248201527f63616c6c206973206e6f7420617574686f72697365640000000000000000000060448201526064016101e3565b6102976018848484610501565b505050565b6102a46104e3565b6102f05760405162461bcd60e51b815260206004820152601660248201527f63616c6c206973206e6f7420617574686f72697365640000000000000000000060448201526064016101e3565b610297601884848461059f565b600061030b60188484610604565b9392505050565b61031a6104e3565b6103665760405162461bcd60e51b815260206004820152601660248201527f63616c6c206973206e6f7420617574686f72697365640000000000000000000060448201526064016101e3565b6008805460ff191660011790557f62e78cea01bee320cd4e420270b5ea74000d11b0c9f74754ebdbfc544b05a2586102193390565b60006103aa6018858585610733565b949350505050565b600061030b6018848461086e565b6103c86104e3565b6104145760405162461bcd60e51b815260206004820152601660248201527f63616c6c206973206e6f7420617574686f72697365640000000000000000000060448201526064016101e3565b6102976018848484610951565b6104296104e3565b6104755760405162461bcd60e51b815260206004820152601660248201527f63616c6c206973206e6f7420617574686f72697365640000000000000000000060448201526064016101e3565b61029760188484846109ac565b61048a6104e3565b6104d65760405162461bcd60e51b815260206004820152601660248201527f63616c6c206973206e6f7420617574686f72697365640000000000000000000060448201526064016101e3565b6102976018848484610a11565b60006104fc6018336001600160e01b031984351661086e565b905090565b83546040517f7d40583d00000000000000000000000000000000000000000000000000000000815260ff851660048201526001600160a01b0384811660248301526001600160e01b0319841660448301526001606483015290911690637d40583d906084015b600060405180830381600087803b15801561058157600080fd5b505af1158015610595573d6000803e3d6000fd5b5050505050505050565b60018401546040517f2bc3217d0000000000000000000000000000000000000000000000000000000081526001600160a01b03858116600483015284811660248301526001600160e01b03198416604483015290911690632bc3217d90606401610567565b825460405163b700961360e01b81523360048201526001600160a01b0384811660248301526001600160e01b031984166044830152600092169063b70096139060640160206040518083038186803b15801561065f57600080fd5b505afa158015610673573d6000803e3d6000fd5b505050506040513d601f19601f820116820180604052508101906106979190610bac565b806103aa5750600184015460405163b700961360e01b81523360048201526001600160a01b0385811660248301526001600160e01b0319851660448301529091169063b7009613906064015b60206040518083038186803b1580156106fb57600080fd5b505afa15801561070f573d6000803e3d6000fd5b505050506040513d601f19601f820116820180604052508101906103aa9190610bac565b835460405163b700961360e01b81526001600160a01b03858116600483015284811660248301526001600160e01b031984166044830152600092169063b70096139060640160206040518083038186803b15801561079057600080fd5b505afa1580156107a4573d6000803e3d6000fd5b505050506040513d601f19601f820116820180604052508101906107c89190610bac565b806108655750600185015460405163b700961360e01b81526001600160a01b03868116600483015285811660248301526001600160e01b0319851660448301529091169063b70096139060640160206040518083038186803b15801561082d57600080fd5b505afa158015610841573d6000803e3d6000fd5b505050506040513d601f19601f820116820180604052508101906108659190610bac565b95945050505050565b825460405163b700961360e01b81526001600160a01b0384811660048301523060248301526001600160e01b031984166044830152600092169063b70096139060640160206040518083038186803b1580156108c957600080fd5b505afa1580156108dd573d6000803e3d6000fd5b505050506040513d601f19601f820116820180604052508101906109019190610bac565b806103aa5750600184015460405163b700961360e01b81526001600160a01b0385811660048301523060248301526001600160e01b0319851660448301529091169063b7009613906064016106e3565b83546040517f67aff4840000000000000000000000000000000000000000000000000000000081526001600160a01b03858116600483015260ff851660248301528315156044830152909116906367aff48490606401610567565b60018401546040517fcbeea68c0000000000000000000000000000000000000000000000000000000081526001600160a01b03858116600483015284811660248301526001600160e01b0319841660448301529091169063cbeea68c90606401610567565b83546040517f7d40583d00000000000000000000000000000000000000000000000000000000815260ff851660048201526001600160a01b0384811660248301526001600160e01b0319841660448301526000606483015290911690637d40583d90608401610567565b803560ff81168114610a8c57600080fd5b919050565b80356001600160a01b0381168114610a8c57600080fd5b80356001600160e01b031981168114610a8c57600080fd5b600080600060608486031215610ad557600080fd5b610ade84610a7b565b9250610aec60208501610a91565b9150610afa60408501610aa8565b90509250925092565b600080600060608486031215610b1857600080fd5b610ade84610a91565b60008060408385031215610b3457600080fd5b610b3d83610a91565b9150610b4b60208401610aa8565b90509250929050565b8015158114610b6257600080fd5b50565b600080600060608486031215610b7a57600080fd5b610b8384610a91565b9250610b9160208501610a7b565b91506040840135610ba181610b54565b809150509250925092565b600060208284031215610bbe57600080fd5b815161030b81610b5456fea26469706673582212202d67c44fce822b9da3556fcb7ec03a4c73c26ddb1ee9827044233dc4a6899a2964736f6c63430008090033",
  "devdoc": {
    "kind": "dev",
    "methods": {},
    "version": 1
  },
  "userdoc": {
    "kind": "user",
    "methods": {},
    "version": 1
  },
  "storageLayout": {
    "storage": [
      {
        "astId": 21106,
        "contract": "contracts/voyage/facets/SecurityFacet.sol:SecurityFacet",
        "label": "s",
        "offset": 0,
        "slot": "0",
        "type": "t_struct(AppStorage)20987_storage"
      }
    ],
    "types": {
      "t_address": {
        "encoding": "inplace",
        "label": "address",
        "numberOfBytes": "20"
      },
      "t_array(t_address)dyn_storage": {
        "base": "t_address",
        "encoding": "dynamic_array",
        "label": "address[]",
        "numberOfBytes": "32"
      },
      "t_array(t_bytes4)dyn_storage": {
        "base": "t_bytes4",
        "encoding": "dynamic_array",
        "label": "bytes4[]",
        "numberOfBytes": "32"
      },
      "t_array(t_struct(Facet)7894_storage)dyn_storage": {
        "base": "t_struct(Facet)7894_storage",
        "encoding": "dynamic_array",
        "label": "struct IDiamondLoupe.Facet[]",
        "numberOfBytes": "32"
      },
      "t_array(t_struct(FacetCut)7862_storage)dyn_storage": {
        "base": "t_struct(FacetCut)7862_storage",
        "encoding": "dynamic_array",
        "label": "struct IDiamondCut.FacetCut[]",
        "numberOfBytes": "32"
      },
      "t_array(t_struct(RepaymentData)20716_storage)dyn_storage": {
        "base": "t_struct(RepaymentData)20716_storage",
        "encoding": "dynamic_array",
        "label": "struct RepaymentData[]",
        "numberOfBytes": "32"
      },
      "t_bool": {
        "encoding": "inplace",
        "label": "bool",
        "numberOfBytes": "1"
      },
      "t_bytes32": {
        "encoding": "inplace",
        "label": "bytes32",
        "numberOfBytes": "32"
      },
      "t_bytes4": {
        "encoding": "inplace",
        "label": "bytes4",
        "numberOfBytes": "4"
      },
      "t_bytes_storage": {
        "encoding": "bytes",
        "label": "bytes",
        "numberOfBytes": "32"
      },
      "t_contract(DSGuard)14682": {
        "encoding": "inplace",
        "label": "contract DSGuard",
        "numberOfBytes": "20"
      },
      "t_contract(DSRoles)15071": {
        "encoding": "inplace",
        "label": "contract DSRoles",
        "numberOfBytes": "20"
      },
      "t_contract(IVaultFactory)20638": {
        "encoding": "inplace",
        "label": "contract IVaultFactory",
        "numberOfBytes": "20"
      },
      "t_contract(IWETH9)9162": {
        "encoding": "inplace",
        "label": "contract IWETH9",
        "numberOfBytes": "20"
      },
      "t_contract(UpgradeableBeacon)2867": {
        "encoding": "inplace",
        "label": "contract UpgradeableBeacon",
        "numberOfBytes": "20"
      },
      "t_enum(FacetCutAction)7853": {
        "encoding": "inplace",
        "label": "enum IDiamondCut.FacetCutAction",
        "numberOfBytes": "1"
      },
      "t_mapping(t_address,t_address)": {
        "encoding": "mapping",
        "key": "t_address",
        "label": "mapping(address => address)",
        "numberOfBytes": "32",
        "value": "t_address"
      },
      "t_mapping(t_address,t_array(t_bytes4)dyn_storage)": {
        "encoding": "mapping",
        "key": "t_address",
        "label": "mapping(address => bytes4[])",
        "numberOfBytes": "32",
        "value": "t_array(t_bytes4)dyn_storage"
      },
      "t_mapping(t_address,t_array(t_struct(FacetCut)7862_storage)dyn_storage)": {
        "encoding": "mapping",
        "key": "t_address",
        "label": "mapping(address => struct IDiamondCut.FacetCut[])",
        "numberOfBytes": "32",
        "value": "t_array(t_struct(FacetCut)7862_storage)dyn_storage"
      },
      "t_mapping(t_address,t_mapping(t_address,t_struct(BorrowData)20771_storage))": {
        "encoding": "mapping",
        "key": "t_address",
        "label": "mapping(address => mapping(address => struct BorrowData))",
        "numberOfBytes": "32",
        "value": "t_mapping(t_address,t_struct(BorrowData)20771_storage)"
      },
      "t_mapping(t_address,t_mapping(t_address,t_struct(VaultConfig)20787_storage))": {
        "encoding": "mapping",
        "key": "t_address",
        "label": "mapping(address => mapping(address => struct VaultConfig))",
        "numberOfBytes": "32",
        "value": "t_mapping(t_address,t_struct(VaultConfig)20787_storage)"
      },
      "t_mapping(t_address,t_mapping(t_bytes4,t_address))": {
        "encoding": "mapping",
        "key": "t_address",
        "label": "mapping(address => mapping(bytes4 => address))",
        "numberOfBytes": "32",
        "value": "t_mapping(t_bytes4,t_address)"
      },
      "t_mapping(t_address,t_mapping(t_bytes4,t_bool))": {
        "encoding": "mapping",
        "key": "t_address",
        "label": "mapping(address => mapping(bytes4 => bool))",
        "numberOfBytes": "32",
        "value": "t_mapping(t_bytes4,t_bool)"
      },
      "t_mapping(t_address,t_mapping(t_uint256,t_struct(NFTInfo)20824_storage))": {
        "encoding": "mapping",
        "key": "t_address",
        "label": "mapping(address => mapping(uint256 => struct NFTInfo))",
        "numberOfBytes": "32",
        "value": "t_mapping(t_uint256,t_struct(NFTInfo)20824_storage)"
      },
      "t_mapping(t_address,t_struct(BorrowData)20771_storage)": {
        "encoding": "mapping",
        "key": "t_address",
        "label": "mapping(address => struct BorrowData)",
        "numberOfBytes": "32",
        "value": "t_struct(BorrowData)20771_storage"
      },
      "t_mapping(t_address,t_struct(BorrowState)20778_storage)": {
        "encoding": "mapping",
        "key": "t_address",
        "label": "mapping(address => struct BorrowState)",
        "numberOfBytes": "32",
        "value": "t_struct(BorrowState)20778_storage"
      },
      "t_mapping(t_address,t_struct(ERC721AssetInfo)20829_storage)": {
        "encoding": "mapping",
        "key": "t_address",
        "label": "mapping(address => struct ERC721AssetInfo)",
        "numberOfBytes": "32",
        "value": "t_struct(ERC721AssetInfo)20829_storage"
      },
      "t_mapping(t_address,t_struct(ReserveData)20695_storage)": {
        "encoding": "mapping",
        "key": "t_address",
        "label": "mapping(address => struct ReserveData)",
        "numberOfBytes": "32",
        "value": "t_struct(ReserveData)20695_storage"
      },
      "t_mapping(t_address,t_struct(VaultConfig)20787_storage)": {
        "encoding": "mapping",
        "key": "t_address",
        "label": "mapping(address => struct VaultConfig)",
        "numberOfBytes": "32",
        "value": "t_struct(VaultConfig)20787_storage"
      },
      "t_mapping(t_address,t_uint256)": {
        "encoding": "mapping",
        "key": "t_address",
        "label": "mapping(address => uint256)",
        "numberOfBytes": "32",
        "value": "t_uint256"
      },
      "t_mapping(t_bytes32,t_address)": {
        "encoding": "mapping",
        "key": "t_bytes32",
        "label": "mapping(bytes32 => address)",
        "numberOfBytes": "32",
        "value": "t_address"
      },
      "t_mapping(t_bytes4,t_address)": {
        "encoding": "mapping",
        "key": "t_bytes4",
        "label": "mapping(bytes4 => address)",
        "numberOfBytes": "32",
        "value": "t_address"
      },
      "t_mapping(t_bytes4,t_bool)": {
        "encoding": "mapping",
        "key": "t_bytes4",
        "label": "mapping(bytes4 => bool)",
        "numberOfBytes": "32",
        "value": "t_bool"
      },
      "t_mapping(t_uint256,t_address)": {
        "encoding": "mapping",
        "key": "t_uint256",
        "label": "mapping(uint256 => address)",
        "numberOfBytes": "32",
        "value": "t_address"
      },
      "t_mapping(t_uint256,t_array(t_bytes4)dyn_storage)": {
        "encoding": "mapping",
        "key": "t_uint256",
        "label": "mapping(uint256 => bytes4[])",
        "numberOfBytes": "32",
        "value": "t_array(t_bytes4)dyn_storage"
      },
      "t_mapping(t_uint256,t_struct(Loan)20746_storage)": {
        "encoding": "mapping",
        "key": "t_uint256",
        "label": "mapping(uint256 => struct Loan)",
        "numberOfBytes": "32",
        "value": "t_struct(Loan)20746_storage"
      },
      "t_mapping(t_uint256,t_struct(NFTInfo)20824_storage)": {
        "encoding": "mapping",
        "key": "t_uint256",
        "label": "mapping(uint256 => struct NFTInfo)",
        "numberOfBytes": "32",
        "value": "t_struct(NFTInfo)20824_storage"
      },
      "t_mapping(t_uint256,t_struct(Snapshot)20447_storage)": {
        "encoding": "mapping",
        "key": "t_uint256",
        "label": "mapping(uint256 => struct Snapshot)",
        "numberOfBytes": "32",
        "value": "t_struct(Snapshot)20447_storage"
      },
      "t_struct(AppStorage)20987_storage": {
        "encoding": "inplace",
        "label": "struct AppStorage",
        "members": [
          {
            "astId": 20888,
            "contract": "contracts/voyage/facets/SecurityFacet.sol:SecurityFacet",
            "label": "_addresses",
            "offset": 0,
            "slot": "0",
            "type": "t_mapping(t_bytes32,t_address)"
          },
          {
            "astId": 20891,
            "contract": "contracts/voyage/facets/SecurityFacet.sol:SecurityFacet",
            "label": "seniorDepositTokenBeacon",
            "offset": 0,
            "slot": "1",
            "type": "t_contract(UpgradeableBeacon)2867"
          },
          {
            "astId": 20894,
            "contract": "contracts/voyage/facets/SecurityFacet.sol:SecurityFacet",
            "label": "juniorDepositTokenBeacon",
            "offset": 0,
            "slot": "2",
            "type": "t_contract(UpgradeableBeacon)2867"
          },
          {
            "astId": 20899,
            "contract": "contracts/voyage/facets/SecurityFacet.sol:SecurityFacet",
            "label": "_reserves",
            "offset": 0,
            "slot": "3",
            "type": "t_mapping(t_address,t_struct(ReserveData)20695_storage)"
          },
          {
            "astId": 20903,
            "contract": "contracts/voyage/facets/SecurityFacet.sol:SecurityFacet",
            "label": "_reserveList",
            "offset": 0,
            "slot": "4",
            "type": "t_mapping(t_uint256,t_address)"
          },
          {
            "astId": 20905,
            "contract": "contracts/voyage/facets/SecurityFacet.sol:SecurityFacet",
            "label": "_reservesCount",
            "offset": 0,
            "slot": "5",
            "type": "t_uint16"
          },
          {
            "astId": 20908,
            "contract": "contracts/voyage/facets/SecurityFacet.sol:SecurityFacet",
            "label": "WETH9",
            "offset": 2,
            "slot": "5",
            "type": "t_contract(IWETH9)9162"
          },
          {
            "astId": 20915,
            "contract": "contracts/voyage/facets/SecurityFacet.sol:SecurityFacet",
            "label": "_borrowData",
            "offset": 0,
            "slot": "6",
            "type": "t_mapping(t_address,t_mapping(t_address,t_struct(BorrowData)20771_storage))"
          },
          {
            "astId": 20920,
            "contract": "contracts/voyage/facets/SecurityFacet.sol:SecurityFacet",
            "label": "_borrowState",
            "offset": 0,
            "slot": "7",
            "type": "t_mapping(t_address,t_struct(BorrowState)20778_storage)"
          },
          {
            "astId": 20922,
            "contract": "contracts/voyage/facets/SecurityFacet.sol:SecurityFacet",
            "label": "_paused",
            "offset": 0,
            "slot": "8",
            "type": "t_bool"
          },
          {
            "astId": 20925,
            "contract": "contracts/voyage/facets/SecurityFacet.sol:SecurityFacet",
            "label": "marginEscrowBeacon",
            "offset": 1,
            "slot": "8",
            "type": "t_contract(UpgradeableBeacon)2867"
          },
          {
            "astId": 20928,
            "contract": "contracts/voyage/facets/SecurityFacet.sol:SecurityFacet",
            "label": "creditEscrowBeacon",
            "offset": 0,
            "slot": "9",
            "type": "t_contract(UpgradeableBeacon)2867"
          },
          {
            "astId": 20931,
            "contract": "contracts/voyage/facets/SecurityFacet.sol:SecurityFacet",
            "label": "subVaultBeacon",
            "offset": 0,
            "slot": "10",
            "type": "t_contract(UpgradeableBeacon)2867"
          },
          {
            "astId": 20934,
            "contract": "contracts/voyage/facets/SecurityFacet.sol:SecurityFacet",
            "label": "vaultBeacon",
            "offset": 0,
            "slot": "11",
            "type": "t_contract(UpgradeableBeacon)2867"
          },
          {
            "astId": 20937,
            "contract": "contracts/voyage/facets/SecurityFacet.sol:SecurityFacet",
            "label": "diamondFacet",
            "offset": 0,
            "slot": "12",
            "type": "t_struct(DiamondFacet)20884_storage"
          },
          {
            "astId": 20940,
            "contract": "contracts/voyage/facets/SecurityFacet.sol:SecurityFacet",
            "label": "vaultFactory",
            "offset": 0,
            "slot": "15",
            "type": "t_contract(IVaultFactory)20638"
          },
          {
            "astId": 20943,
            "contract": "contracts/voyage/facets/SecurityFacet.sol:SecurityFacet",
            "label": "vaults",
            "offset": 0,
            "slot": "16",
            "type": "t_array(t_address)dyn_storage"
          },
          {
            "astId": 20947,
            "contract": "contracts/voyage/facets/SecurityFacet.sol:SecurityFacet",
            "label": "vaultMap",
            "offset": 0,
            "slot": "17",
            "type": "t_mapping(t_address,t_address)"
          },
          {
            "astId": 20954,
            "contract": "contracts/voyage/facets/SecurityFacet.sol:SecurityFacet",
            "label": "vaultConfigMap",
            "offset": 0,
            "slot": "18",
            "type": "t_mapping(t_address,t_mapping(t_address,t_struct(VaultConfig)20787_storage))"
          },
          {
            "astId": 20958,
            "contract": "contracts/voyage/facets/SecurityFacet.sol:SecurityFacet",
            "label": "marketPlaceToAsset",
            "offset": 0,
            "slot": "19",
            "type": "t_mapping(t_address,t_address)"
          },
          {
            "astId": 20963,
            "contract": "contracts/voyage/facets/SecurityFacet.sol:SecurityFacet",
            "label": "erc721AssetInfo",
            "offset": 0,
            "slot": "20",
            "type": "t_mapping(t_address,t_struct(ERC721AssetInfo)20829_storage)"
          },
          {
            "astId": 20970,
            "contract": "contracts/voyage/facets/SecurityFacet.sol:SecurityFacet",
            "label": "nftInfo",
            "offset": 0,
            "slot": "21",
            "type": "t_mapping(t_address,t_mapping(t_uint256,t_struct(NFTInfo)20824_storage))"
          },
          {
            "astId": 20972,
            "contract": "contracts/voyage/facets/SecurityFacet.sol:SecurityFacet",
            "label": "currentVersion",
            "offset": 0,
            "slot": "22",
            "type": "t_uint256"
          },
          {
            "astId": 20977,
            "contract": "contracts/voyage/facets/SecurityFacet.sol:SecurityFacet",
            "label": "snapshotMap",
            "offset": 0,
            "slot": "23",
            "type": "t_mapping(t_uint256,t_struct(Snapshot)20447_storage)"
          },
          {
            "astId": 20980,
            "contract": "contracts/voyage/facets/SecurityFacet.sol:SecurityFacet",
            "label": "auth",
            "offset": 0,
            "slot": "24",
            "type": "t_struct(Authorisation)20819_storage"
          },
          {
            "astId": 20983,
            "contract": "contracts/voyage/facets/SecurityFacet.sol:SecurityFacet",
            "label": "protocolFee",
            "offset": 0,
            "slot": "26",
            "type": "t_struct(ProtocolFee)20792_storage"
          },
          {
            "astId": 20986,
            "contract": "contracts/voyage/facets/SecurityFacet.sol:SecurityFacet",
            "label": "upgradeParam",
            "offset": 0,
            "slot": "28",
            "type": "t_struct(UpgradeParam)20877_storage"
          }
        ],
        "numberOfBytes": "1184"
      },
      "t_struct(Authorisation)20819_storage": {
        "encoding": "inplace",
        "label": "struct Authorisation",
        "members": [
          {
            "astId": 20815,
            "contract": "contracts/voyage/facets/SecurityFacet.sol:SecurityFacet",
            "label": "rbac",
            "offset": 0,
            "slot": "0",
            "type": "t_contract(DSRoles)15071"
          },
          {
            "astId": 20818,
            "contract": "contracts/voyage/facets/SecurityFacet.sol:SecurityFacet",
            "label": "acl",
            "offset": 0,
            "slot": "1",
            "type": "t_contract(DSGuard)14682"
          }
        ],
        "numberOfBytes": "64"
      },
      "t_struct(BorrowData)20771_storage": {
        "encoding": "inplace",
        "label": "struct BorrowData",
        "members": [
          {
            "astId": 20753,
            "contract": "contracts/voyage/facets/SecurityFacet.sol:SecurityFacet",
            "label": "paidLoanNumber",
            "offset": 0,
            "slot": "0",
            "type": "t_uint256"
          },
          {
            "astId": 20755,
            "contract": "contracts/voyage/facets/SecurityFacet.sol:SecurityFacet",
            "label": "nextLoanNumber",
            "offset": 0,
            "slot": "1",
            "type": "t_uint256"
          },
          {
            "astId": 20757,
            "contract": "contracts/voyage/facets/SecurityFacet.sol:SecurityFacet",
            "label": "totalPrincipal",
            "offset": 0,
            "slot": "2",
            "type": "t_uint256"
          },
          {
            "astId": 20759,
            "contract": "contracts/voyage/facets/SecurityFacet.sol:SecurityFacet",
            "label": "totalInterest",
            "offset": 0,
            "slot": "3",
            "type": "t_uint256"
          },
          {
            "astId": 20761,
            "contract": "contracts/voyage/facets/SecurityFacet.sol:SecurityFacet",
            "label": "mapSize",
            "offset": 0,
            "slot": "4",
            "type": "t_uint256"
          },
          {
            "astId": 20766,
            "contract": "contracts/voyage/facets/SecurityFacet.sol:SecurityFacet",
            "label": "loans",
            "offset": 0,
            "slot": "5",
            "type": "t_mapping(t_uint256,t_struct(Loan)20746_storage)"
          },
          {
            "astId": 20768,
            "contract": "contracts/voyage/facets/SecurityFacet.sol:SecurityFacet",
            "label": "totalPaid",
            "offset": 0,
            "slot": "6",
            "type": "t_uint256"
          },
          {
            "astId": 20770,
            "contract": "contracts/voyage/facets/SecurityFacet.sol:SecurityFacet",
            "label": "totalRedeemed",
            "offset": 0,
            "slot": "7",
            "type": "t_uint256"
          }
        ],
        "numberOfBytes": "256"
      },
      "t_struct(BorrowState)20778_storage": {
        "encoding": "inplace",
        "label": "struct BorrowState",
        "members": [
          {
            "astId": 20773,
            "contract": "contracts/voyage/facets/SecurityFacet.sol:SecurityFacet",
            "label": "totalDebt",
            "offset": 0,
            "slot": "0",
            "type": "t_uint256"
          },
          {
            "astId": 20775,
            "contract": "contracts/voyage/facets/SecurityFacet.sol:SecurityFacet",
            "label": "totalInterest",
            "offset": 0,
            "slot": "1",
            "type": "t_uint256"
          },
          {
            "astId": 20777,
            "contract": "contracts/voyage/facets/SecurityFacet.sol:SecurityFacet",
            "label": "avgBorrowRate",
            "offset": 0,
            "slot": "2",
            "type": "t_uint256"
          }
        ],
        "numberOfBytes": "96"
      },
      "t_struct(DiamondFacet)20884_storage": {
        "encoding": "inplace",
        "label": "struct DiamondFacet",
        "members": [
          {
            "astId": 20879,
            "contract": "contracts/voyage/facets/SecurityFacet.sol:SecurityFacet",
            "label": "diamondCutFacet",
            "offset": 0,
            "slot": "0",
            "type": "t_address"
          },
          {
            "astId": 20881,
            "contract": "contracts/voyage/facets/SecurityFacet.sol:SecurityFacet",
            "label": "diamondLoupeFacet",
            "offset": 0,
            "slot": "1",
            "type": "t_address"
          },
          {
            "astId": 20883,
            "contract": "contracts/voyage/facets/SecurityFacet.sol:SecurityFacet",
            "label": "ownershipFacet",
            "offset": 0,
            "slot": "2",
            "type": "t_address"
          }
        ],
        "numberOfBytes": "96"
      },
      "t_struct(ERC721AssetInfo)20829_storage": {
        "encoding": "inplace",
        "label": "struct ERC721AssetInfo",
        "members": [
          {
            "astId": 20826,
            "contract": "contracts/voyage/facets/SecurityFacet.sol:SecurityFacet",
            "label": "marketplace",
            "offset": 0,
            "slot": "0",
            "type": "t_address"
          },
          {
            "astId": 20828,
            "contract": "contracts/voyage/facets/SecurityFacet.sol:SecurityFacet",
            "label": "erc20Addr",
            "offset": 0,
            "slot": "1",
            "type": "t_address"
          }
        ],
        "numberOfBytes": "64"
      },
      "t_struct(Facet)7894_storage": {
        "encoding": "inplace",
        "label": "struct IDiamondLoupe.Facet",
        "members": [
          {
            "astId": 7890,
            "contract": "contracts/voyage/facets/SecurityFacet.sol:SecurityFacet",
            "label": "facetAddress",
            "offset": 0,
            "slot": "0",
            "type": "t_address"
          },
          {
            "astId": 7893,
            "contract": "contracts/voyage/facets/SecurityFacet.sol:SecurityFacet",
            "label": "functionSelectors",
            "offset": 0,
            "slot": "1",
            "type": "t_array(t_bytes4)dyn_storage"
          }
        ],
        "numberOfBytes": "64"
      },
      "t_struct(FacetCut)7862_storage": {
        "encoding": "inplace",
        "label": "struct IDiamondCut.FacetCut",
        "members": [
          {
            "astId": 7855,
            "contract": "contracts/voyage/facets/SecurityFacet.sol:SecurityFacet",
            "label": "facetAddress",
            "offset": 0,
            "slot": "0",
            "type": "t_address"
          },
          {
            "astId": 7858,
            "contract": "contracts/voyage/facets/SecurityFacet.sol:SecurityFacet",
            "label": "action",
            "offset": 20,
            "slot": "0",
            "type": "t_enum(FacetCutAction)7853"
          },
          {
            "astId": 7861,
            "contract": "contracts/voyage/facets/SecurityFacet.sol:SecurityFacet",
            "label": "functionSelectors",
            "offset": 0,
            "slot": "1",
            "type": "t_array(t_bytes4)dyn_storage"
          }
        ],
        "numberOfBytes": "64"
      },
      "t_struct(Loan)20746_storage": {
        "encoding": "inplace",
        "label": "struct Loan",
        "members": [
          {
            "astId": 20718,
            "contract": "contracts/voyage/facets/SecurityFacet.sol:SecurityFacet",
            "label": "principal",
            "offset": 0,
            "slot": "0",
            "type": "t_uint256"
          },
          {
            "astId": 20720,
            "contract": "contracts/voyage/facets/SecurityFacet.sol:SecurityFacet",
            "label": "interest",
            "offset": 0,
            "slot": "1",
            "type": "t_uint256"
          },
          {
            "astId": 20722,
            "contract": "contracts/voyage/facets/SecurityFacet.sol:SecurityFacet",
            "label": "term",
            "offset": 0,
            "slot": "2",
            "type": "t_uint256"
          },
          {
            "astId": 20724,
            "contract": "contracts/voyage/facets/SecurityFacet.sol:SecurityFacet",
            "label": "epoch",
            "offset": 0,
            "slot": "3",
            "type": "t_uint256"
          },
          {
            "astId": 20726,
            "contract": "contracts/voyage/facets/SecurityFacet.sol:SecurityFacet",
            "label": "nper",
            "offset": 0,
            "slot": "4",
            "type": "t_uint256"
          },
          {
            "astId": 20729,
            "contract": "contracts/voyage/facets/SecurityFacet.sol:SecurityFacet",
            "label": "pmt",
            "offset": 0,
            "slot": "5",
            "type": "t_struct(PMT)20705_storage"
          },
          {
            "astId": 20731,
            "contract": "contracts/voyage/facets/SecurityFacet.sol:SecurityFacet",
            "label": "apr",
            "offset": 0,
            "slot": "8",
            "type": "t_uint256"
          },
          {
            "astId": 20733,
            "contract": "contracts/voyage/facets/SecurityFacet.sol:SecurityFacet",
            "label": "borrowAt",
            "offset": 0,
            "slot": "9",
            "type": "t_uint256"
          },
          {
            "astId": 20735,
            "contract": "contracts/voyage/facets/SecurityFacet.sol:SecurityFacet",
            "label": "nextPaymentDue",
            "offset": 0,
            "slot": "10",
            "type": "t_uint256"
          },
          {
            "astId": 20737,
            "contract": "contracts/voyage/facets/SecurityFacet.sol:SecurityFacet",
            "label": "totalPrincipalPaid",
            "offset": 0,
            "slot": "11",
            "type": "t_uint256"
          },
          {
            "astId": 20739,
            "contract": "contracts/voyage/facets/SecurityFacet.sol:SecurityFacet",
            "label": "totalInterestPaid",
            "offset": 0,
            "slot": "12",
            "type": "t_uint256"
          },
          {
            "astId": 20743,
            "contract": "contracts/voyage/facets/SecurityFacet.sol:SecurityFacet",
            "label": "repayments",
            "offset": 0,
            "slot": "13",
            "type": "t_array(t_struct(RepaymentData)20716_storage)dyn_storage"
          },
          {
            "astId": 20745,
            "contract": "contracts/voyage/facets/SecurityFacet.sol:SecurityFacet",
            "label": "paidTimes",
            "offset": 0,
            "slot": "14",
            "type": "t_uint256"
          }
        ],
        "numberOfBytes": "480"
      },
      "t_struct(NFTInfo)20824_storage": {
        "encoding": "inplace",
        "label": "struct NFTInfo",
        "members": [
          {
            "astId": 20821,
            "contract": "contracts/voyage/facets/SecurityFacet.sol:SecurityFacet",
            "label": "price",
            "offset": 0,
            "slot": "0",
            "type": "t_uint256"
          },
          {
            "astId": 20823,
            "contract": "contracts/voyage/facets/SecurityFacet.sol:SecurityFacet",
            "label": "timestamp",
            "offset": 0,
            "slot": "1",
            "type": "t_uint256"
          }
        ],
        "numberOfBytes": "64"
      },
      "t_struct(PMT)20705_storage": {
        "encoding": "inplace",
        "label": "struct PMT",
        "members": [
          {
            "astId": 20700,
            "contract": "contracts/voyage/facets/SecurityFacet.sol:SecurityFacet",
            "label": "principal",
            "offset": 0,
            "slot": "0",
            "type": "t_uint256"
          },
          {
            "astId": 20702,
            "contract": "contracts/voyage/facets/SecurityFacet.sol:SecurityFacet",
            "label": "interest",
            "offset": 0,
            "slot": "1",
            "type": "t_uint256"
          },
          {
            "astId": 20704,
            "contract": "contracts/voyage/facets/SecurityFacet.sol:SecurityFacet",
            "label": "pmt",
            "offset": 0,
            "slot": "2",
            "type": "t_uint256"
          }
        ],
        "numberOfBytes": "96"
      },
      "t_struct(ProtocolFee)20792_storage": {
        "encoding": "inplace",
        "label": "struct ProtocolFee",
        "members": [
          {
            "astId": 20789,
            "contract": "contracts/voyage/facets/SecurityFacet.sol:SecurityFacet",
            "label": "treasuryAddress",
            "offset": 0,
            "slot": "0",
            "type": "t_address"
          },
          {
            "astId": 20791,
            "contract": "contracts/voyage/facets/SecurityFacet.sol:SecurityFacet",
            "label": "cutRatio",
            "offset": 0,
            "slot": "1",
            "type": "t_uint256"
          }
        ],
        "numberOfBytes": "64"
      },
      "t_struct(RepaymentData)20716_storage": {
        "encoding": "inplace",
        "label": "struct RepaymentData",
        "members": [
          {
            "astId": 20707,
            "contract": "contracts/voyage/facets/SecurityFacet.sol:SecurityFacet",
            "label": "principal",
            "offset": 0,
            "slot": "0",
            "type": "t_uint256"
          },
          {
            "astId": 20709,
            "contract": "contracts/voyage/facets/SecurityFacet.sol:SecurityFacet",
            "label": "interest",
            "offset": 0,
            "slot": "1",
            "type": "t_uint256"
          },
          {
            "astId": 20711,
            "contract": "contracts/voyage/facets/SecurityFacet.sol:SecurityFacet",
            "label": "total",
            "offset": 0,
            "slot": "2",
            "type": "t_uint256"
          },
          {
            "astId": 20713,
            "contract": "contracts/voyage/facets/SecurityFacet.sol:SecurityFacet",
            "label": "paidAt",
            "offset": 0,
            "slot": "3",
            "type": "t_uint40"
          },
          {
            "astId": 20715,
            "contract": "contracts/voyage/facets/SecurityFacet.sol:SecurityFacet",
            "label": "isLiquidated",
            "offset": 5,
            "slot": "3",
            "type": "t_bool"
          }
        ],
        "numberOfBytes": "128"
      },
      "t_struct(ReserveConfigurationMap)20698_storage": {
        "encoding": "inplace",
        "label": "struct ReserveConfigurationMap",
        "members": [
          {
            "astId": 20697,
            "contract": "contracts/voyage/facets/SecurityFacet.sol:SecurityFacet",
            "label": "data",
            "offset": 0,
            "slot": "0",
            "type": "t_uint256"
          }
        ],
        "numberOfBytes": "32"
      },
      "t_struct(ReserveData)20695_storage": {
        "encoding": "inplace",
        "label": "struct ReserveData",
        "members": [
          {
            "astId": 20668,
            "contract": "contracts/voyage/facets/SecurityFacet.sol:SecurityFacet",
            "label": "configuration",
            "offset": 0,
            "slot": "0",
            "type": "t_struct(ReserveConfigurationMap)20698_storage"
          },
          {
            "astId": 20670,
            "contract": "contracts/voyage/facets/SecurityFacet.sol:SecurityFacet",
            "label": "currentOverallLiquidityRate",
            "offset": 0,
            "slot": "1",
            "type": "t_uint256"
          },
          {
            "astId": 20672,
            "contract": "contracts/voyage/facets/SecurityFacet.sol:SecurityFacet",
            "label": "currentJuniorLiquidityRate",
            "offset": 0,
            "slot": "2",
            "type": "t_uint256"
          },
          {
            "astId": 20674,
            "contract": "contracts/voyage/facets/SecurityFacet.sol:SecurityFacet",
            "label": "currentSeniorLiquidityRate",
            "offset": 0,
            "slot": "3",
            "type": "t_uint256"
          },
          {
            "astId": 20676,
            "contract": "contracts/voyage/facets/SecurityFacet.sol:SecurityFacet",
            "label": "currentBorrowRate",
            "offset": 0,
            "slot": "4",
            "type": "t_uint256"
          },
          {
            "astId": 20678,
            "contract": "contracts/voyage/facets/SecurityFacet.sol:SecurityFacet",
            "label": "decimals",
            "offset": 0,
            "slot": "5",
            "type": "t_uint256"
          },
          {
            "astId": 20680,
            "contract": "contracts/voyage/facets/SecurityFacet.sol:SecurityFacet",
            "label": "interestRateStrategyAddress",
            "offset": 0,
            "slot": "6",
            "type": "t_address"
          },
          {
            "astId": 20682,
            "contract": "contracts/voyage/facets/SecurityFacet.sol:SecurityFacet",
            "label": "juniorDepositTokenAddress",
            "offset": 0,
            "slot": "7",
            "type": "t_address"
          },
          {
            "astId": 20684,
            "contract": "contracts/voyage/facets/SecurityFacet.sol:SecurityFacet",
            "label": "seniorDepositTokenAddress",
            "offset": 0,
            "slot": "8",
            "type": "t_address"
          },
          {
            "astId": 20686,
            "contract": "contracts/voyage/facets/SecurityFacet.sol:SecurityFacet",
            "label": "juniorLastUpdateTimestamp",
            "offset": 20,
            "slot": "8",
            "type": "t_uint40"
          },
          {
            "astId": 20688,
            "contract": "contracts/voyage/facets/SecurityFacet.sol:SecurityFacet",
            "label": "seniorLastUpdateTimestamp",
            "offset": 25,
            "slot": "8",
            "type": "t_uint40"
          },
          {
            "astId": 20690,
            "contract": "contracts/voyage/facets/SecurityFacet.sol:SecurityFacet",
            "label": "nftAddress",
            "offset": 0,
            "slot": "9",
            "type": "t_address"
          },
          {
            "astId": 20692,
            "contract": "contracts/voyage/facets/SecurityFacet.sol:SecurityFacet",
            "label": "priceOracle",
            "offset": 0,
            "slot": "10",
            "type": "t_address"
          },
          {
            "astId": 20694,
            "contract": "contracts/voyage/facets/SecurityFacet.sol:SecurityFacet",
            "label": "initialized",
            "offset": 20,
            "slot": "10",
            "type": "t_bool"
          }
        ],
        "numberOfBytes": "352"
      },
      "t_struct(Snapshot)20447_storage": {
        "encoding": "inplace",
        "label": "struct Snapshot",
        "members": [
          {
            "astId": 20442,
            "contract": "contracts/voyage/facets/SecurityFacet.sol:SecurityFacet",
            "label": "facets",
            "offset": 0,
            "slot": "0",
            "type": "t_array(t_struct(Facet)7894_storage)dyn_storage"
          },
          {
            "astId": 20444,
            "contract": "contracts/voyage/facets/SecurityFacet.sol:SecurityFacet",
            "label": "init",
            "offset": 0,
            "slot": "1",
            "type": "t_address"
          },
          {
            "astId": 20446,
            "contract": "contracts/voyage/facets/SecurityFacet.sol:SecurityFacet",
            "label": "initArgs",
            "offset": 0,
            "slot": "2",
            "type": "t_bytes_storage"
          }
        ],
        "numberOfBytes": "96"
      },
      "t_struct(UpgradeParam)20877_storage": {
        "encoding": "inplace",
        "label": "struct UpgradeParam",
        "members": [
          {
            "astId": 20835,
            "contract": "contracts/voyage/facets/SecurityFacet.sol:SecurityFacet",
            "label": "existingSelectorFacetMap",
            "offset": 0,
            "slot": "0",
            "type": "t_mapping(t_address,t_mapping(t_bytes4,t_address))"
          },
          {
            "astId": 20840,
            "contract": "contracts/voyage/facets/SecurityFacet.sol:SecurityFacet",
            "label": "existingSelectors",
            "offset": 0,
            "slot": "1",
            "type": "t_mapping(t_address,t_array(t_bytes4)dyn_storage)"
          },
          {
            "astId": 20846,
            "contract": "contracts/voyage/facets/SecurityFacet.sol:SecurityFacet",
            "label": "newSelectorSet",
            "offset": 0,
            "slot": "2",
            "type": "t_mapping(t_address,t_mapping(t_bytes4,t_bool))"
          },
          {
            "astId": 20851,
            "contract": "contracts/voyage/facets/SecurityFacet.sol:SecurityFacet",
            "label": "newSelectors",
            "offset": 0,
            "slot": "3",
            "type": "t_mapping(t_address,t_array(t_bytes4)dyn_storage)"
          },
          {
            "astId": 20857,
            "contract": "contracts/voyage/facets/SecurityFacet.sol:SecurityFacet",
            "label": "facetCuts",
            "offset": 0,
            "slot": "4",
            "type": "t_mapping(t_address,t_array(t_struct(FacetCut)7862_storage)dyn_storage)"
          },
          {
            "astId": 20861,
            "contract": "contracts/voyage/facets/SecurityFacet.sol:SecurityFacet",
            "label": "facetCutSize",
            "offset": 0,
            "slot": "5",
            "type": "t_mapping(t_address,t_uint256)"
          },
          {
            "astId": 20866,
            "contract": "contracts/voyage/facets/SecurityFacet.sol:SecurityFacet",
            "label": "selectorsAdded",
            "offset": 0,
            "slot": "6",
            "type": "t_mapping(t_uint256,t_array(t_bytes4)dyn_storage)"
          },
          {
            "astId": 20871,
            "contract": "contracts/voyage/facets/SecurityFacet.sol:SecurityFacet",
            "label": "selectorsReplaced",
            "offset": 0,
            "slot": "7",
            "type": "t_mapping(t_uint256,t_array(t_bytes4)dyn_storage)"
          },
          {
            "astId": 20876,
            "contract": "contracts/voyage/facets/SecurityFacet.sol:SecurityFacet",
            "label": "selectorsRemoved",
            "offset": 0,
            "slot": "8",
            "type": "t_mapping(t_uint256,t_array(t_bytes4)dyn_storage)"
          }
        ],
        "numberOfBytes": "288"
      },
      "t_struct(VaultConfig)20787_storage": {
        "encoding": "inplace",
        "label": "struct VaultConfig",
        "members": [
          {
            "astId": 20780,
            "contract": "contracts/voyage/facets/SecurityFacet.sol:SecurityFacet",
            "label": "minMargin",
            "offset": 0,
            "slot": "0",
            "type": "t_uint256"
          },
          {
            "astId": 20782,
            "contract": "contracts/voyage/facets/SecurityFacet.sol:SecurityFacet",
            "label": "maxMargin",
            "offset": 0,
            "slot": "1",
            "type": "t_uint256"
          },
          {
            "astId": 20784,
            "contract": "contracts/voyage/facets/SecurityFacet.sol:SecurityFacet",
            "label": "marginRequirement",
            "offset": 0,
            "slot": "2",
            "type": "t_uint256"
          },
          {
            "astId": 20786,
            "contract": "contracts/voyage/facets/SecurityFacet.sol:SecurityFacet",
            "label": "overrideGlobal",
            "offset": 0,
            "slot": "3",
            "type": "t_bool"
          }
        ],
        "numberOfBytes": "128"
      },
      "t_uint16": {
        "encoding": "inplace",
        "label": "uint16",
        "numberOfBytes": "2"
      },
      "t_uint256": {
        "encoding": "inplace",
        "label": "uint256",
        "numberOfBytes": "32"
      },
      "t_uint40": {
        "encoding": "inplace",
        "label": "uint40",
        "numberOfBytes": "5"
      }
    }
  }
}