{
  "address": "0xE911D304d655d0E849984f849D9fbea388F6e457",
  "abi": [
    {
      "inputs": [],
      "name": "InsufficientBalance",
      "type": "error"
    },
    {
      "anonymous": false,
      "inputs": [
        {
          "indexed": true,
          "internalType": "address",
          "name": "owner",
          "type": "address"
        },
        {
          "indexed": true,
          "internalType": "address",
          "name": "spender",
          "type": "address"
        },
        {
          "indexed": false,
          "internalType": "uint256",
          "name": "value",
          "type": "uint256"
        }
      ],
      "name": "Approval",
      "type": "event"
    },
    {
      "anonymous": false,
      "inputs": [
        {
          "indexed": true,
          "internalType": "address",
          "name": "owner",
          "type": "address"
        },
        {
          "indexed": false,
          "internalType": "uint256",
          "name": "assets",
          "type": "uint256"
        },
        {
          "indexed": false,
          "internalType": "uint256",
          "name": "shares",
          "type": "uint256"
        }
      ],
      "name": "Claim",
      "type": "event"
    },
    {
      "anonymous": false,
      "inputs": [
        {
          "indexed": true,
          "internalType": "address",
          "name": "caller",
          "type": "address"
        },
        {
          "indexed": true,
          "internalType": "address",
          "name": "owner",
          "type": "address"
        },
        {
          "indexed": false,
          "internalType": "uint256",
          "name": "assets",
          "type": "uint256"
        },
        {
          "indexed": false,
          "internalType": "uint256",
          "name": "shares",
          "type": "uint256"
        }
      ],
      "name": "Deposit",
      "type": "event"
    },
    {
      "anonymous": false,
      "inputs": [
        {
          "indexed": false,
          "internalType": "uint8",
          "name": "version",
          "type": "uint8"
        }
      ],
      "name": "Initialized",
      "type": "event"
    },
    {
      "anonymous": false,
      "inputs": [
        {
          "indexed": true,
          "internalType": "address",
          "name": "from",
          "type": "address"
        },
        {
          "indexed": true,
          "internalType": "address",
          "name": "to",
          "type": "address"
        },
        {
          "indexed": false,
          "internalType": "uint256",
          "name": "value",
          "type": "uint256"
        }
      ],
      "name": "Transfer",
      "type": "event"
    },
    {
      "anonymous": false,
      "inputs": [
        {
          "indexed": true,
          "internalType": "address",
          "name": "caller",
          "type": "address"
        },
        {
          "indexed": true,
          "internalType": "address",
          "name": "receiver",
          "type": "address"
        },
        {
          "indexed": true,
          "internalType": "address",
          "name": "owner",
          "type": "address"
        },
        {
          "indexed": false,
          "internalType": "uint256",
          "name": "assets",
          "type": "uint256"
        },
        {
          "indexed": false,
          "internalType": "uint256",
          "name": "shares",
          "type": "uint256"
        }
      ],
      "name": "Withdraw",
      "type": "event"
    },
    {
      "inputs": [],
      "name": "DOMAIN_SEPARATOR",
      "outputs": [
        {
          "internalType": "bytes32",
          "name": "",
          "type": "bytes32"
        }
      ],
      "stateMutability": "view",
      "type": "function"
    },
    {
      "inputs": [
        {
          "internalType": "address",
          "name": "owner",
          "type": "address"
        },
        {
          "internalType": "address",
          "name": "spender",
          "type": "address"
        }
      ],
      "name": "allowance",
      "outputs": [
        {
          "internalType": "uint256",
          "name": "",
          "type": "uint256"
        }
      ],
      "stateMutability": "view",
      "type": "function"
    },
    {
      "inputs": [
        {
          "internalType": "address",
          "name": "spender",
          "type": "address"
        },
        {
          "internalType": "uint256",
          "name": "amount",
          "type": "uint256"
        }
      ],
      "name": "approve",
      "outputs": [
        {
          "internalType": "bool",
          "name": "",
          "type": "bool"
        }
      ],
      "stateMutability": "nonpayable",
      "type": "function"
    },
    {
      "inputs": [],
      "name": "asset",
      "outputs": [
        {
          "internalType": "contract IERC20Metadata",
          "name": "",
          "type": "address"
        }
      ],
      "stateMutability": "view",
      "type": "function"
    },
    {
      "inputs": [
        {
          "internalType": "address",
          "name": "account",
          "type": "address"
        }
      ],
      "name": "balanceOf",
      "outputs": [
        {
          "internalType": "uint256",
          "name": "",
          "type": "uint256"
        }
      ],
      "stateMutability": "view",
      "type": "function"
    },
    {
      "inputs": [],
      "name": "claim",
      "outputs": [],
      "stateMutability": "nonpayable",
      "type": "function"
    },
    {
      "inputs": [
        {
          "internalType": "address",
          "name": "_user",
          "type": "address"
        }
      ],
      "name": "claimable",
      "outputs": [
        {
          "internalType": "uint256",
          "name": "",
          "type": "uint256"
        }
      ],
      "stateMutability": "view",
      "type": "function"
    },
    {
      "inputs": [
        {
          "internalType": "uint256",
          "name": "shares",
          "type": "uint256"
        }
      ],
      "name": "convertToAssets",
      "outputs": [
        {
          "internalType": "uint256",
          "name": "",
          "type": "uint256"
        }
      ],
      "stateMutability": "view",
      "type": "function"
    },
    {
      "inputs": [
        {
          "internalType": "uint256",
          "name": "assets",
          "type": "uint256"
        }
      ],
      "name": "convertToShares",
      "outputs": [
        {
          "internalType": "uint256",
          "name": "",
          "type": "uint256"
        }
      ],
      "stateMutability": "view",
      "type": "function"
    },
    {
      "inputs": [],
      "name": "decimals",
      "outputs": [
        {
          "internalType": "uint8",
          "name": "",
          "type": "uint8"
        }
      ],
      "stateMutability": "view",
      "type": "function"
    },
    {
      "inputs": [
        {
          "internalType": "address",
          "name": "spender",
          "type": "address"
        },
        {
          "internalType": "uint256",
          "name": "subtractedValue",
          "type": "uint256"
        }
      ],
      "name": "decreaseAllowance",
      "outputs": [
        {
          "internalType": "bool",
          "name": "",
          "type": "bool"
        }
      ],
      "stateMutability": "nonpayable",
      "type": "function"
    },
    {
      "inputs": [
        {
          "internalType": "uint256",
          "name": "assets",
          "type": "uint256"
        },
        {
          "internalType": "address",
          "name": "receiver",
          "type": "address"
        }
      ],
      "name": "deposit",
      "outputs": [
        {
          "internalType": "uint256",
          "name": "shares",
          "type": "uint256"
        }
      ],
      "stateMutability": "nonpayable",
      "type": "function"
    },
    {
      "inputs": [
        {
          "internalType": "address",
          "name": "spender",
          "type": "address"
        },
        {
          "internalType": "uint256",
          "name": "addedValue",
          "type": "uint256"
        }
      ],
      "name": "increaseAllowance",
      "outputs": [
        {
          "internalType": "bool",
          "name": "",
          "type": "bool"
        }
      ],
      "stateMutability": "nonpayable",
      "type": "function"
    },
    {
      "inputs": [
        {
          "internalType": "address",
          "name": "_voyage",
          "type": "address"
        },
        {
          "internalType": "address",
          "name": "_collection",
          "type": "address"
        },
        {
          "internalType": "address",
          "name": "_asset",
          "type": "address"
        }
      ],
      "name": "initialize",
      "outputs": [],
      "stateMutability": "nonpayable",
      "type": "function"
    },
    {
      "inputs": [
        {
          "internalType": "address",
          "name": "",
          "type": "address"
        }
      ],
      "name": "maxDeposit",
      "outputs": [
        {
          "internalType": "uint256",
          "name": "",
          "type": "uint256"
        }
      ],
      "stateMutability": "view",
      "type": "function"
    },
    {
      "inputs": [
        {
          "internalType": "address",
          "name": "",
          "type": "address"
        }
      ],
      "name": "maxMint",
      "outputs": [
        {
          "internalType": "uint256",
          "name": "",
          "type": "uint256"
        }
      ],
      "stateMutability": "view",
      "type": "function"
    },
    {
      "inputs": [
        {
          "internalType": "address",
          "name": "owner",
          "type": "address"
        }
      ],
      "name": "maxRedeem",
      "outputs": [
        {
          "internalType": "uint256",
          "name": "",
          "type": "uint256"
        }
      ],
      "stateMutability": "view",
      "type": "function"
    },
    {
      "inputs": [
        {
          "internalType": "address",
          "name": "owner",
          "type": "address"
        }
      ],
      "name": "maxWithdraw",
      "outputs": [
        {
          "internalType": "uint256",
          "name": "",
          "type": "uint256"
        }
      ],
      "stateMutability": "view",
      "type": "function"
    },
    {
      "inputs": [
        {
          "internalType": "address",
          "name": "_user",
          "type": "address"
        }
      ],
      "name": "maximumClaimable",
      "outputs": [
        {
          "internalType": "uint256",
          "name": "",
          "type": "uint256"
        }
      ],
      "stateMutability": "view",
      "type": "function"
    },
    {
      "inputs": [
        {
          "internalType": "uint256",
          "name": "shares",
          "type": "uint256"
        },
        {
          "internalType": "address",
          "name": "receiver",
          "type": "address"
        }
      ],
      "name": "mint",
      "outputs": [
        {
          "internalType": "uint256",
          "name": "assets",
          "type": "uint256"
        }
      ],
      "stateMutability": "nonpayable",
      "type": "function"
    },
    {
      "inputs": [],
      "name": "name",
      "outputs": [
        {
          "internalType": "string",
          "name": "",
          "type": "string"
        }
      ],
      "stateMutability": "view",
      "type": "function"
    },
    {
      "inputs": [
        {
          "internalType": "address",
          "name": "owner",
          "type": "address"
        }
      ],
      "name": "nonces",
      "outputs": [
        {
          "internalType": "uint256",
          "name": "",
          "type": "uint256"
        }
      ],
      "stateMutability": "view",
      "type": "function"
    },
    {
      "inputs": [
        {
          "internalType": "address",
          "name": "owner",
          "type": "address"
        },
        {
          "internalType": "address",
          "name": "spender",
          "type": "address"
        },
        {
          "internalType": "uint256",
          "name": "value",
          "type": "uint256"
        },
        {
          "internalType": "uint256",
          "name": "deadline",
          "type": "uint256"
        },
        {
          "internalType": "uint8",
          "name": "v",
          "type": "uint8"
        },
        {
          "internalType": "bytes32",
          "name": "r",
          "type": "bytes32"
        },
        {
          "internalType": "bytes32",
          "name": "s",
          "type": "bytes32"
        }
      ],
      "name": "permit",
      "outputs": [],
      "stateMutability": "nonpayable",
      "type": "function"
    },
    {
      "inputs": [
        {
          "internalType": "uint256",
          "name": "assets",
          "type": "uint256"
        }
      ],
      "name": "previewDeposit",
      "outputs": [
        {
          "internalType": "uint256",
          "name": "",
          "type": "uint256"
        }
      ],
      "stateMutability": "view",
      "type": "function"
    },
    {
      "inputs": [
        {
          "internalType": "uint256",
          "name": "shares",
          "type": "uint256"
        }
      ],
      "name": "previewMint",
      "outputs": [
        {
          "internalType": "uint256",
          "name": "",
          "type": "uint256"
        }
      ],
      "stateMutability": "view",
      "type": "function"
    },
    {
      "inputs": [
        {
          "internalType": "uint256",
          "name": "shares",
          "type": "uint256"
        }
      ],
      "name": "previewRedeem",
      "outputs": [
        {
          "internalType": "uint256",
          "name": "",
          "type": "uint256"
        }
      ],
      "stateMutability": "view",
      "type": "function"
    },
    {
      "inputs": [
        {
          "internalType": "uint256",
          "name": "assets",
          "type": "uint256"
        }
      ],
      "name": "previewWithdraw",
      "outputs": [
        {
          "internalType": "uint256",
          "name": "",
          "type": "uint256"
        }
      ],
      "stateMutability": "view",
      "type": "function"
    },
    {
      "inputs": [
        {
          "internalType": "uint256",
          "name": "_shares",
          "type": "uint256"
        },
        {
          "internalType": "address",
          "name": "_receiver",
          "type": "address"
        },
        {
          "internalType": "address",
          "name": "_owner",
          "type": "address"
        }
      ],
      "name": "redeem",
      "outputs": [
        {
          "internalType": "uint256",
          "name": "asset",
          "type": "uint256"
        }
      ],
      "stateMutability": "nonpayable",
      "type": "function"
    },
    {
      "inputs": [],
      "name": "symbol",
      "outputs": [
        {
          "internalType": "string",
          "name": "",
          "type": "string"
        }
      ],
      "stateMutability": "view",
      "type": "function"
    },
    {
      "inputs": [],
      "name": "totalAssets",
      "outputs": [
        {
          "internalType": "uint256",
          "name": "",
          "type": "uint256"
        }
      ],
      "stateMutability": "view",
      "type": "function"
    },
    {
      "inputs": [],
      "name": "totalMaxUnderlying",
      "outputs": [
        {
          "internalType": "uint256",
          "name": "",
          "type": "uint256"
        }
      ],
      "stateMutability": "view",
      "type": "function"
    },
    {
      "inputs": [],
      "name": "totalSupply",
      "outputs": [
        {
          "internalType": "uint256",
          "name": "",
          "type": "uint256"
        }
      ],
      "stateMutability": "view",
      "type": "function"
    },
    {
      "inputs": [],
      "name": "totalUnbonding",
      "outputs": [
        {
          "internalType": "uint256",
          "name": "",
          "type": "uint256"
        }
      ],
      "stateMutability": "view",
      "type": "function"
    },
    {
      "inputs": [],
      "name": "totalUnbondingAsset",
      "outputs": [
        {
          "internalType": "uint256",
          "name": "",
          "type": "uint256"
        }
      ],
      "stateMutability": "view",
      "type": "function"
    },
    {
      "inputs": [
        {
          "internalType": "address",
          "name": "to",
          "type": "address"
        },
        {
          "internalType": "uint256",
          "name": "amount",
          "type": "uint256"
        }
      ],
      "name": "transfer",
      "outputs": [
        {
          "internalType": "bool",
          "name": "",
          "type": "bool"
        }
      ],
      "stateMutability": "nonpayable",
      "type": "function"
    },
    {
      "inputs": [
        {
          "internalType": "address",
          "name": "from",
          "type": "address"
        },
        {
          "internalType": "address",
          "name": "to",
          "type": "address"
        },
        {
          "internalType": "uint256",
          "name": "amount",
          "type": "uint256"
        }
      ],
      "name": "transferFrom",
      "outputs": [
        {
          "internalType": "bool",
          "name": "",
          "type": "bool"
        }
      ],
      "stateMutability": "nonpayable",
      "type": "function"
    },
    {
      "inputs": [
        {
          "internalType": "address",
          "name": "_target",
          "type": "address"
        },
        {
          "internalType": "uint256",
          "name": "_amount",
          "type": "uint256"
        }
      ],
      "name": "transferUnderlyingTo",
      "outputs": [],
      "stateMutability": "nonpayable",
      "type": "function"
    },
    {
      "inputs": [
        {
          "internalType": "address",
          "name": "_user",
          "type": "address"
        }
      ],
      "name": "unbonding",
      "outputs": [
        {
          "internalType": "uint256",
          "name": "",
          "type": "uint256"
        }
      ],
      "stateMutability": "view",
      "type": "function"
    },
    {
      "inputs": [
        {
          "internalType": "address",
          "name": "",
          "type": "address"
        }
      ],
      "name": "unbondings",
      "outputs": [
        {
          "internalType": "uint256",
          "name": "shares",
          "type": "uint256"
        },
        {
          "internalType": "uint256",
          "name": "maxUnderlying",
          "type": "uint256"
        }
      ],
      "stateMutability": "view",
      "type": "function"
    },
    {
      "inputs": [
        {
          "internalType": "uint256",
          "name": "_asset",
          "type": "uint256"
        },
        {
          "internalType": "address",
          "name": "_receiver",
          "type": "address"
        },
        {
          "internalType": "address",
          "name": "_owner",
          "type": "address"
        }
      ],
      "name": "withdraw",
      "outputs": [
        {
          "internalType": "uint256",
          "name": "shares",
          "type": "uint256"
        }
      ],
      "stateMutability": "nonpayable",
      "type": "function"
    }
  ],
  "transactionHash": "0x533f97bd740b355de89f4816197b4a6dfcff0a6c441c2aa80749ee0af72deb6b",
  "args": [],
  "numDeployments": 9,
  "solcInputHash": "c46e7afbe21408146f32634234d846ef",
  "bytecode": "0x608060405234801561001057600080fd5b50612ce7806100206000396000f3fe608060405234801561001057600080fd5b50600436106102c85760003560e01c80637ecebe001161017b578063c63d75b6116100d8578063d55882b61161008c578063dd62ed3e11610071578063dd62ed3e14610589578063ef8b30f7146105c2578063f7ffb993146105d557600080fd5b8063d55882b61461056e578063d905777e1461057657600080fd5b8063ce96cb77116100bd578063ce96cb7714610535578063ced4cd2e14610548578063d505accf1461055b57600080fd5b8063c63d75b6146103db578063c6e6f5921461052257600080fd5b8063abbb247f1161012f578063b460af9411610114578063b460af94146104e9578063ba087652146104fc578063c0c53b8b1461050f57600080fd5b8063abbb247f1461049a578063b3d7f6b9146104d657600080fd5b806395d89b411161016057806395d89b411461046c578063a457c2d714610474578063a9059cbb1461048757600080fd5b80637ecebe001461044657806394bf804d1461045957600080fd5b806338d52e0f116102295780634cdad506116101dd5780634efecaa5116101c25780634efecaa51461040d5780636e553f651461042057806370a082311461043357600080fd5b80634cdad506146103f05780634e71d92d1461040357600080fd5b80633ae1501f1161020e5780633ae1501f146103bf578063402914f5146103c8578063402d267d146103db57600080fd5b806338d52e0f1461038157806339509351146103ac57600080fd5b806318160ddd11610280578063313ce56711610265578063313ce56714610361578063350fd0be146103705780633644e5151461037957600080fd5b806318160ddd1461034657806323b872dd1461034e57600080fd5b806307a2d13a116102b157806307a2d13a146102fd578063095ea7b3146103105780630a28a4771461033357600080fd5b806301e1d114146102cd57806306fdde03146102e8575b600080fd5b6102d56105e8565b6040519081526020015b60405180910390f35b6102f06107ce565b6040516102df91906128fd565b6102d561030b366004612930565b610860565b61032361031e366004612960565b610895565b60405190151581526020016102df565b6102d5610341366004612930565b6108af565b6035546102d5565b61032361035c36600461298a565b6108d7565b604051601281526020016102df565b6102d560d15481565b6102d56108fb565b60cc54610394906001600160a01b031681565b6040516001600160a01b0390911681526020016102df565b6103236103ba366004612960565b61090a565b6102d560d05481565b6102d56103d63660046129c6565b610949565b6102d56103e93660046129c6565b5060001990565b6102d56103fe366004612930565b61098c565b61040b610997565b005b61040b61041b366004612960565b610a12565b6102d561042e3660046129e1565b610a95565b6102d56104413660046129c6565b610b5d565b6102d56104543660046129c6565b610b8b565b6102d56104673660046129e1565b610ba9565b6102f0610c1c565b610323610482366004612960565b610c2b565b610323610495366004612960565b610cd5565b6104c16104a83660046129c6565b60cf602052600090815260409020805460019091015482565b604080519283526020830191909152016102df565b6102d56104e4366004612930565b610ce3565b6102d56104f7366004612a0d565b610d0a565b6102d561050a366004612a0d565b610dd2565b61040b61051d366004612a49565b610e8f565b6102d5610530366004612930565b6111a4565b6102d56105433660046129c6565b6111cc565b6102d56105563660046129c6565b61124a565b61040b610569366004612a75565b61129c565b6102d5611400565b6102d56105843660046129c6565b611424565b6102d5610597366004612ae8565b6001600160a01b03918216600090815260346020908152604080832093909416825291909152205490565b6102d56105d0366004612930565b61149e565b6102d56105e33660046129c6565b6114a9565b60cc546040516370a0823160e01b815230600482015260009182916001600160a01b03909116906370a082319060240160206040518083038186803b15801561063057600080fd5b505afa158015610644573d6000803e3d6000fd5b505050506040513d601f19601f820116820180604052508101906106689190612b12565b60cd5460ce546040517fe68fc0ee0000000000000000000000000000000000000000000000000000000081526001600160a01b03918216600482015292935060009291169063e68fc0ee9060240160206040518083038186803b1580156106ce57600080fd5b505afa1580156106e2573d6000803e3d6000fd5b505050506040513d601f19601f820116820180604052508101906107069190612b12565b60cd5460ce5460cc546040517f2aec04d40000000000000000000000000000000000000000000000000000000081526001600160a01b0392831660048201529082166024820152929350600092911690632aec04d49060440160206040518083038186803b15801561077757600080fd5b505afa15801561078b573d6000803e3d6000fd5b505050506040513d601f19601f820116820180604052508101906107af9190612b12565b9050806107bc8385612b41565b6107c69190612b41565b935050505090565b6060603680546107dd90612b59565b80601f016020809104026020016040519081016040528092919081815260200182805461080990612b59565b80156108565780601f1061082b57610100808354040283529160200191610856565b820191906000526020600020905b81548152906001019060200180831161083957829003601f168201915b5050505050905090565b60008061086c60355490565b9050801561088c5761088761087f6105e8565b849083611545565b61088e565b825b9392505050565b6000336108a3818585611564565b60019150505b92915050565b6000806108bb60355490565b9050801561088c57610887816108cf6105e8565b8591906116bd565b6000336108e58582856116eb565b6108f0858585611777565b506001949350505050565b600061090561198e565b905090565b3360008181526034602090815260408083206001600160a01b03871684529091528120549091906108a39082908690610944908790612b41565b611564565b6001600160a01b038116600090815260cf602052604081206001810154905482906109739061098c565b90508082106109825780610984565b815b949350505050565b60006108a982610860565b6000806109a333611a09565b915091506109b2338383611add565b6109bc3382611b71565b60cc546109d3906001600160a01b03163384611cf3565b604080518381526020810183905233917f34fcbac0073d7c3d388e51312faf357774904998eeb8fca628b9e6f65ee1cbf7910160405180910390a25050565b60cd546001600160a01b0316336001600160a01b031614610a7a5760405162461bcd60e51b815260206004820152600960248201527f4e6f742061646d696e000000000000000000000000000000000000000000000060448201526064015b60405180910390fd5b60cc54610a91906001600160a01b03168383611cf3565b5050565b6000610aa08361149e565b905080610aef5760405162461bcd60e51b815260206004820152600b60248201527f5a45524f5f5348415245530000000000000000000000000000000000000000006044820152606401610a71565b60cc54610b07906001600160a01b0316333086611d9c565b610b118282611ded565b60408051848152602081018390526001600160a01b0384169133917fdcbc1c05240f31ff3ad067ef1ee35ce4997762752e3a095284754544f4c709d791015b60405180910390a36108a9565b6001600160a01b038116600090815260cf602090815260408083205460339092528220546108a99190612b8e565b6001600160a01b0381166000908152609960205260408120546108a9565b6000610bb483610ce3565b60cc54909150610bcf906001600160a01b0316333084611d9c565b610bd98284611ded565b60408051828152602081018590526001600160a01b0384169133917fdcbc1c05240f31ff3ad067ef1ee35ce4997762752e3a095284754544f4c709d79101610b50565b6060603780546107dd90612b59565b3360008181526034602090815260408083206001600160a01b038716845290915281205490919083811015610cc85760405162461bcd60e51b815260206004820152602560248201527f45524332303a2064656372656173656420616c6c6f77616e63652062656c6f7760448201527f207a65726f0000000000000000000000000000000000000000000000000000006064820152608401610a71565b6108f08286868403611564565b6000336108a3818585611777565b600080610cef60355490565b9050801561088c57610887610d026105e8565b8490836116bd565b6000610d15846108af565b9050336001600160a01b03831614610d3257610d328233836116eb565b610d3b82610b5d565b811115610d74576040517ff4d678b800000000000000000000000000000000000000000000000000000000815260040160405180910390fd5b610d7f828286611ecc565b60408051858152602081018390526001600160a01b03808516929086169133917ffbde797d201c681b91056529119e0b02407c7bb96a4a2c75c01fc9667232c8db91015b60405180910390a49392505050565b6000610ddd82610b5d565b841115610e16576040517ff4d678b800000000000000000000000000000000000000000000000000000000815260040160405180910390fd5b336001600160a01b03831614610e3157610e318233866116eb565b610e3a84610860565b9050610e47828583611ecc565b60408051828152602081018690526001600160a01b03808516929086169133917ffbde797d201c681b91056529119e0b02407c7bb96a4a2c75c01fc9667232c8db9101610dc3565b600054610100900460ff1615808015610eaf5750600054600160ff909116105b80610ec95750303b158015610ec9575060005460ff166001145b610f3b5760405162461bcd60e51b815260206004820152602e60248201527f496e697469616c697a61626c653a20636f6e747261637420697320616c72656160448201527f647920696e697469616c697a65640000000000000000000000000000000000006064820152608401610a71565b600080547fffffffffffffffffffffffffffffffffffffffffffffffffffffffffffffff001660011790558015610f7c576000805461ff0019166101001790555b60cd80546001600160a01b038087167fffffffffffffffffffffffff00000000000000000000000000000000000000009283161790925560ce80548684169216919091179055604080517f06fdde03000000000000000000000000000000000000000000000000000000008152905184926110d192908416916306fdde0391600480820192600092909190829003018186803b15801561101b57600080fd5b505afa15801561102f573d6000803e3d6000fd5b505050506040513d6000823e601f3d908101601f191682016040526110579190810190612bbb565b826001600160a01b03166395d89b416040518163ffffffff1660e01b815260040160006040518083038186803b15801561109057600080fd5b505afa1580156110a4573d6000803e3d6000fd5b505050506040513d6000823e601f3d908101601f191682016040526110cc9190810190612bbb565b611f56565b61114e816001600160a01b03166306fdde036040518163ffffffff1660e01b815260040160006040518083038186803b15801561110d57600080fd5b505afa158015611121573d6000803e3d6000fd5b505050506040513d6000823e601f3d908101601f191682016040526111499190810190612bbb565b611fcb565b61115781612078565b50801561119e576000805461ff0019169055604051600181527f7f26b83ff96e1f2b6a682f133852f6798a09c465da95921460cefb38474024989060200160405180910390a15b50505050565b6000806111b060355490565b9050801561088c57610887816111c46105e8565b859190611545565b6040516370a0823160e01b81526001600160a01b03821660048201526000906108a99030906370a082319060240160206040518083038186803b15801561121257600080fd5b505afa158015611226573d6000803e3d6000fd5b505050506040513d601f19601f8201168201806040525081019061030b9190612b12565b6001600160a01b038116600090815260cf6020526040812054819061126e90610860565b6001600160a01b038416600090815260cf602052604090206001015490915081811015610982579392505050565b834211156112ec5760405162461bcd60e51b815260206004820152601d60248201527f45524332305065726d69743a206578706972656420646561646c696e650000006044820152606401610a71565b60007f6e71edae12b1b97f4d1f60370fef10105fa2faae0126114a169c64845d6126c988888861131b8c6120ec565b6040805160208101969096526001600160a01b0394851690860152929091166060840152608083015260a082015260c0810186905260e001604051602081830303815290604052805190602001209050600061137682612114565b905060006113868287878761217d565b9050896001600160a01b0316816001600160a01b0316146113e95760405162461bcd60e51b815260206004820152601e60248201527f45524332305065726d69743a20696e76616c6964207369676e617475726500006044820152606401610a71565b6113f48a8a8a611564565b50505050505050505050565b60008061140e60d154610860565b90508060d054101561141f575060d0545b919050565b6040516370a0823160e01b81526001600160a01b038216600482015260009030906370a082319060240160206040518083038186803b15801561146657600080fd5b505afa15801561147a573d6000803e3d6000fd5b505050506040513d601f19601f820116820180604052508101906108a99190612b12565b60006108a9826111a4565b60cc546040516370a0823160e01b815230600482015260009182916001600160a01b03909116906370a082319060240160206040518083038186803b1580156114f157600080fd5b505afa158015611505573d6000803e3d6000fd5b505050506040513d601f19601f820116820180604052508101906115299190612b12565b9050600061153684610949565b905081811061088e5781610984565b82820281151584158583048514171661155d57600080fd5b0492915050565b6001600160a01b0383166115df5760405162461bcd60e51b8152602060048201526024808201527f45524332303a20617070726f76652066726f6d20746865207a65726f2061646460448201527f72657373000000000000000000000000000000000000000000000000000000006064820152608401610a71565b6001600160a01b03821661165b5760405162461bcd60e51b815260206004820152602260248201527f45524332303a20617070726f766520746f20746865207a65726f20616464726560448201527f73730000000000000000000000000000000000000000000000000000000000006064820152608401610a71565b6001600160a01b0383811660008181526034602090815260408083209487168084529482529182902085905590518481527f8c5be1e5ebec7d5bd14f71427d1e84f3dd0314c0f7b2291e5b200ac8c7c3b92591015b60405180910390a3505050565b8282028115158415858304851417166116d557600080fd5b6001826001830304018115150290509392505050565b6001600160a01b03838116600090815260346020908152604080832093861683529290522054600019811461119e578181101561176a5760405162461bcd60e51b815260206004820152601d60248201527f45524332303a20696e73756666696369656e7420616c6c6f77616e63650000006044820152606401610a71565b61119e8484848403611564565b6001600160a01b0383166117f35760405162461bcd60e51b815260206004820152602560248201527f45524332303a207472616e736665722066726f6d20746865207a65726f20616460448201527f64726573730000000000000000000000000000000000000000000000000000006064820152608401610a71565b6001600160a01b03821661186f5760405162461bcd60e51b815260206004820152602360248201527f45524332303a207472616e7366657220746f20746865207a65726f206164647260448201527f65737300000000000000000000000000000000000000000000000000000000006064820152608401610a71565b6001600160a01b038316600090815260336020526040902054818110156118fe5760405162461bcd60e51b815260206004820152602660248201527f45524332303a207472616e7366657220616d6f756e742065786365656473206260448201527f616c616e636500000000000000000000000000000000000000000000000000006064820152608401610a71565b6001600160a01b03808516600090815260336020526040808220858503905591851681529081208054849290611935908490612b41565b92505081905550826001600160a01b0316846001600160a01b03167fddf252ad1be2c89b69c2b068fc378daa952ba7f163c4a11628f55a4df523b3ef8460405161198191815260200190565b60405180910390a361119e565b60006109057f8b73c3c69bb8fe3d512ecc4cf759cc79239f7b179b0ffacaa9a75d522b39400f6119bd60655490565b6066546040805160208101859052908101839052606081018290524660808201523060a082015260009060c0016040516020818303038152906040528051906020012090509392505050565b6000806000611a1733610949565b60cc546040516370a0823160e01b81523060048201529192506000916001600160a01b03909116906370a082319060240160206040518083038186803b158015611a6057600080fd5b505afa158015611a74573d6000803e3d6000fd5b505050506040513d601f19601f82011682018060405250810190611a989190612b12565b9050818110611ac7576001600160a01b038516600090815260cf60205260409020549193509091508290611ad6565b809350611ad3816108af565b92505b5050915091565b6001600160a01b038316600090815260cf602052604081208054839290611b05908490612b8e565b90915550506001600160a01b038316600090815260cf602052604081206001018054849290611b35908490612b8e565b925050819055508160d06000828254611b4e9190612b8e565b925050819055508060d16000828254611b679190612b8e565b9091555050505050565b6001600160a01b038216611bed5760405162461bcd60e51b815260206004820152602160248201527f45524332303a206275726e2066726f6d20746865207a65726f2061646472657360448201527f73000000000000000000000000000000000000000000000000000000000000006064820152608401610a71565b6001600160a01b03821660009081526033602052604090205481811015611c7c5760405162461bcd60e51b815260206004820152602260248201527f45524332303a206275726e20616d6f756e7420657863656564732062616c616e60448201527f63650000000000000000000000000000000000000000000000000000000000006064820152608401610a71565b6001600160a01b0383166000908152603360205260408120838303905560358054849290611cab908490612b8e565b90915550506040518281526000906001600160a01b038516907fddf252ad1be2c89b69c2b068fc378daa952ba7f163c4a11628f55a4df523b3ef906020016116b0565b505050565b6040516001600160a01b038316602482015260448101829052611cee9084907fa9059cbb00000000000000000000000000000000000000000000000000000000906064015b60408051601f198184030181529190526020810180517bffffffffffffffffffffffffffffffffffffffffffffffffffffffff167fffffffff00000000000000000000000000000000000000000000000000000000909316929092179091526121a5565b6040516001600160a01b038085166024830152831660448201526064810182905261119e9085907f23b872dd0000000000000000000000000000000000000000000000000000000090608401611d38565b6001600160a01b038216611e435760405162461bcd60e51b815260206004820152601f60248201527f45524332303a206d696e7420746f20746865207a65726f2061646472657373006044820152606401610a71565b8060356000828254611e559190612b41565b90915550506001600160a01b03821660009081526033602052604081208054839290611e82908490612b41565b90915550506040518181526001600160a01b038316906000907fddf252ad1be2c89b69c2b068fc378daa952ba7f163c4a11628f55a4df523b3ef9060200160405180910390a35050565b6001600160a01b038316600090815260cf602052604081208054849290611ef4908490612b41565b90915550506001600160a01b038316600090815260cf602052604081206001018054839290611f24908490612b41565b925050819055508060d06000828254611f3d9190612b41565b925050819055508160d16000828254611b679190612b41565b600054610100900460ff16611fc15760405162461bcd60e51b815260206004820152602b60248201527f496e697469616c697a61626c653a20636f6e7472616374206973206e6f74206960448201526a6e697469616c697a696e6760a81b6064820152608401610a71565b610a91828261228a565b600054610100900460ff166120365760405162461bcd60e51b815260206004820152602b60248201527f496e697469616c697a61626c653a20636f6e7472616374206973206e6f74206960448201526a6e697469616c697a696e6760a81b6064820152608401610a71565b612075816040518060400160405280600181526020017f310000000000000000000000000000000000000000000000000000000000000081525061231c565b50565b600054610100900460ff166120e35760405162461bcd60e51b815260206004820152602b60248201527f496e697469616c697a61626c653a20636f6e7472616374206973206e6f74206960448201526a6e697469616c697a696e6760a81b6064820152608401610a71565b612075816123a1565b6001600160a01b03811660009081526099602052604090208054600181018255905b50919050565b60006108a961212161198e565b836040517f19010000000000000000000000000000000000000000000000000000000000006020820152602281018390526042810182905260009060620160405160208183030381529060405280519060200120905092915050565b600080600061218e87878787612446565b9150915061219b81612533565b5095945050505050565b60006121fa826040518060400160405280602081526020017f5361666545524332303a206c6f772d6c6576656c2063616c6c206661696c6564815250856001600160a01b03166127249092919063ffffffff16565b805190915015611cee57808060200190518101906122189190612c5d565b611cee5760405162461bcd60e51b815260206004820152602a60248201527f5361666545524332303a204552433230206f7065726174696f6e20646964206e60448201527f6f742073756363656564000000000000000000000000000000000000000000006064820152608401610a71565b600054610100900460ff166122f55760405162461bcd60e51b815260206004820152602b60248201527f496e697469616c697a61626c653a20636f6e7472616374206973206e6f74206960448201526a6e697469616c697a696e6760a81b6064820152608401610a71565b8151612308906036906020850190612838565b508051611cee906037906020840190612838565b600054610100900460ff166123875760405162461bcd60e51b815260206004820152602b60248201527f496e697469616c697a61626c653a20636f6e7472616374206973206e6f74206960448201526a6e697469616c697a696e6760a81b6064820152608401610a71565b815160209283012081519190920120606591909155606655565b600054610100900460ff1661240c5760405162461bcd60e51b815260206004820152602b60248201527f496e697469616c697a61626c653a20636f6e7472616374206973206e6f74206960448201526a6e697469616c697a696e6760a81b6064820152608401610a71565b60cc80547fffffffffffffffffffffffff0000000000000000000000000000000000000000166001600160a01b0392909216919091179055565b6000807f7fffffffffffffffffffffffffffffff5d576e7357a4501ddfe92f46681b20a083111561247d575060009050600361252a565b8460ff16601b1415801561249557508460ff16601c14155b156124a6575060009050600461252a565b6040805160008082526020820180845289905260ff881692820192909252606081018690526080810185905260019060a0016020604051602081039080840390855afa1580156124fa573d6000803e3d6000fd5b5050604051601f1901519150506001600160a01b0381166125235760006001925092505061252a565b9150600090505b94509492505050565b600081600481111561254757612547612c7f565b14156125505750565b600181600481111561256457612564612c7f565b14156125b25760405162461bcd60e51b815260206004820152601860248201527f45434453413a20696e76616c6964207369676e617475726500000000000000006044820152606401610a71565b60028160048111156125c6576125c6612c7f565b14156126145760405162461bcd60e51b815260206004820152601f60248201527f45434453413a20696e76616c6964207369676e6174757265206c656e677468006044820152606401610a71565b600381600481111561262857612628612c7f565b141561269c5760405162461bcd60e51b815260206004820152602260248201527f45434453413a20696e76616c6964207369676e6174757265202773272076616c60448201527f75650000000000000000000000000000000000000000000000000000000000006064820152608401610a71565b60048160048111156126b0576126b0612c7f565b14156120755760405162461bcd60e51b815260206004820152602260248201527f45434453413a20696e76616c6964207369676e6174757265202776272076616c60448201527f75650000000000000000000000000000000000000000000000000000000000006064820152608401610a71565b60606109848484600085856001600160a01b0385163b6127865760405162461bcd60e51b815260206004820152601d60248201527f416464726573733a2063616c6c20746f206e6f6e2d636f6e74726163740000006044820152606401610a71565b600080866001600160a01b031685876040516127a29190612c95565b60006040518083038185875af1925050503d80600081146127df576040519150601f19603f3d011682016040523d82523d6000602084013e6127e4565b606091505b50915091506127f48282866127ff565b979650505050505050565b6060831561280e57508161088e565b82511561281e5782518084602001fd5b8160405162461bcd60e51b8152600401610a7191906128fd565b82805461284490612b59565b90600052602060002090601f01602090048101928261286657600085556128ac565b82601f1061287f57805160ff19168380011785556128ac565b828001600101855582156128ac579182015b828111156128ac578251825591602001919060010190612891565b506128b89291506128bc565b5090565b5b808211156128b857600081556001016128bd565b60005b838110156128ec5781810151838201526020016128d4565b8381111561119e5750506000910152565b602081526000825180602084015261291c8160408501602087016128d1565b601f01601f19169190910160400192915050565b60006020828403121561294257600080fd5b5035919050565b80356001600160a01b038116811461141f57600080fd5b6000806040838503121561297357600080fd5b61297c83612949565b946020939093013593505050565b60008060006060848603121561299f57600080fd5b6129a884612949565b92506129b660208501612949565b9150604084013590509250925092565b6000602082840312156129d857600080fd5b61088e82612949565b600080604083850312156129f457600080fd5b82359150612a0460208401612949565b90509250929050565b600080600060608486031215612a2257600080fd5b83359250612a3260208501612949565b9150612a4060408501612949565b90509250925092565b600080600060608486031215612a5e57600080fd5b612a6784612949565b9250612a3260208501612949565b600080600080600080600060e0888a031215612a9057600080fd5b612a9988612949565b9650612aa760208901612949565b95506040880135945060608801359350608088013560ff81168114612acb57600080fd5b9699959850939692959460a0840135945060c09093013592915050565b60008060408385031215612afb57600080fd5b612b0483612949565b9150612a0460208401612949565b600060208284031215612b2457600080fd5b5051919050565b634e487b7160e01b600052601160045260246000fd5b60008219821115612b5457612b54612b2b565b500190565b600181811c90821680612b6d57607f821691505b6020821081141561210e57634e487b7160e01b600052602260045260246000fd5b600082821015612ba057612ba0612b2b565b500390565b634e487b7160e01b600052604160045260246000fd5b600060208284031215612bcd57600080fd5b815167ffffffffffffffff80821115612be557600080fd5b818401915084601f830112612bf957600080fd5b815181811115612c0b57612c0b612ba5565b604051601f8201601f19908116603f01168101908382118183101715612c3357612c33612ba5565b81604052828152876020848701011115612c4c57600080fd5b6127f48360208301602088016128d1565b600060208284031215612c6f57600080fd5b8151801515811461088e57600080fd5b634e487b7160e01b600052602160045260246000fd5b60008251612ca78184602087016128d1565b919091019291505056fea264697066735822122011ca6602d05fa9e80493cbed13184ce7e23691b02d112b37bb868e9ca099de2e64736f6c63430008090033",
  "devdoc": {
    "kind": "dev",
    "methods": {
      "DOMAIN_SEPARATOR()": {
        "details": "See {IERC20Permit-DOMAIN_SEPARATOR}."
      },
      "allowance(address,address)": {
        "details": "See {IERC20-allowance}."
      },
      "approve(address,uint256)": {
        "details": "See {IERC20-approve}. NOTE: If `amount` is the maximum `uint256`, the allowance is not updated on `transferFrom`. This is semantically equivalent to an infinite approval. Requirements: - `spender` cannot be the zero address."
      },
      "balanceOf(address)": {
        "details": "See {IERC20-balanceOf}."
      },
      "convertToAssets(uint256)": {
        "details": "Returns the amount of assets that the Vault would exchange for the amount of shares provided, in an ideal scenario where all the conditions are met. - MUST NOT be inclusive of any fees that are charged against assets in the Vault. - MUST NOT show any variations depending on the caller. - MUST NOT reflect slippage or other on-chain conditions, when performing the actual exchange. - MUST NOT revert. NOTE: This calculation MAY NOT reflect the per-user price-per-share, and instead should reflect the average-users price-per-share, meaning what the average user should expect to see when exchanging to and from."
      },
      "convertToShares(uint256)": {
        "details": "Returns the amount of shares that the Vault would exchange for the amount of assets provided, in an ideal scenario where all the conditions are met. - MUST NOT be inclusive of any fees that are charged against assets in the Vault. - MUST NOT show any variations depending on the caller. - MUST NOT reflect slippage or other on-chain conditions, when performing the actual exchange. - MUST NOT revert. NOTE: This calculation MAY NOT reflect the per-user price-per-share, and instead should reflect the average-users price-per-share, meaning what the average user should expect to see when exchanging to and from."
      },
      "decimals()": {
        "details": "Returns the number of decimals used to get its user representation. For example, if `decimals` equals `2`, a balance of `505` tokens should be displayed to a user as `5.05` (`505 / 10 ** 2`). Tokens usually opt for a value of 18, imitating the relationship between Ether and Wei. This is the value {ERC20} uses, unless this function is overridden; NOTE: This information is only used for _display_ purposes: it in no way affects any of the arithmetic of the contract, including {IERC20-balanceOf} and {IERC20-transfer}."
      },
      "decreaseAllowance(address,uint256)": {
        "details": "Atomically decreases the allowance granted to `spender` by the caller. This is an alternative to {approve} that can be used as a mitigation for problems described in {IERC20-approve}. Emits an {Approval} event indicating the updated allowance. Requirements: - `spender` cannot be the zero address. - `spender` must have allowance for the caller of at least `subtractedValue`."
      },
      "deposit(uint256,address)": {
        "details": "Mints shares Vault shares to receiver by depositing exactly amount of underlying tokens. - MUST emit the Deposit event. - MAY support an additional flow in which the underlying tokens are owned by the Vault contract before the   deposit execution, and are accounted for during deposit. - MUST revert if all of assets cannot be deposited (due to deposit limit being reached, slippage, the user not   approving enough underlying tokens to the Vault contract, etc). NOTE: most implementations will require pre-approval of the Vault with the Vaults underlying asset token."
      },
      "increaseAllowance(address,uint256)": {
        "details": "Atomically increases the allowance granted to `spender` by the caller. This is an alternative to {approve} that can be used as a mitigation for problems described in {IERC20-approve}. Emits an {Approval} event indicating the updated allowance. Requirements: - `spender` cannot be the zero address."
      },
      "maxRedeem(address)": {
        "details": "Returns the maximum amount of Vault shares that can be redeemed from the owner balance in the Vault, through a redeem call. - MUST return a limited value if owner is subject to some withdrawal limit or timelock. - MUST return balanceOf(owner) if owner is not subject to any withdrawal limit or timelock. - MUST NOT revert."
      },
      "maxWithdraw(address)": {
        "details": "Returns the maximum amount of the underlying asset that can be withdrawn from the owner balance in the Vault, through a withdraw call. - MUST return a limited value if owner is subject to some withdrawal limit or timelock. - MUST NOT revert."
      },
      "mint(uint256,address)": {
        "details": "Mints exactly shares Vault shares to receiver by depositing amount of underlying tokens. - MUST emit the Deposit event. - MAY support an additional flow in which the underlying tokens are owned by the Vault contract before the mint   execution, and are accounted for during mint. - MUST revert if all of shares cannot be minted (due to deposit limit being reached, slippage, the user not   approving enough underlying tokens to the Vault contract, etc). NOTE: most implementations will require pre-approval of the Vault with the Vaults underlying asset token."
      },
      "name()": {
        "details": "Returns the name of the token."
      },
      "nonces(address)": {
        "details": "See {IERC20Permit-nonces}."
      },
      "permit(address,address,uint256,uint256,uint8,bytes32,bytes32)": {
        "details": "See {IERC20Permit-permit}."
      },
      "previewDeposit(uint256)": {
        "details": "Allows an on-chain or off-chain user to simulate the effects of their deposit at the current block, given current on-chain conditions. - MUST return as close to and no more than the exact amount of Vault shares that would be minted in a deposit   call in the same transaction. I.e. deposit should return the same or more shares as previewDeposit if called   in the same transaction. - MUST NOT account for deposit limits like those returned from maxDeposit and should always act as though the   deposit would be accepted, regardless if the user has enough tokens approved, etc. - MUST be inclusive of deposit fees. Integrators should be aware of the existence of deposit fees. - MUST NOT revert. NOTE: any unfavorable discrepancy between convertToShares and previewDeposit SHOULD be considered slippage in share price or some other type of condition, meaning the depositor will lose assets by depositing."
      },
      "previewMint(uint256)": {
        "details": "Allows an on-chain or off-chain user to simulate the effects of their mint at the current block, given current on-chain conditions. - MUST return as close to and no fewer than the exact amount of assets that would be deposited in a mint call   in the same transaction. I.e. mint should return the same or fewer assets as previewMint if called in the   same transaction. - MUST NOT account for mint limits like those returned from maxMint and should always act as though the mint   would be accepted, regardless if the user has enough tokens approved, etc. - MUST be inclusive of deposit fees. Integrators should be aware of the existence of deposit fees. - MUST NOT revert. NOTE: any unfavorable discrepancy between convertToAssets and previewMint SHOULD be considered slippage in share price or some other type of condition, meaning the depositor will lose assets by minting."
      },
      "previewRedeem(uint256)": {
        "details": "Allows an on-chain or off-chain user to simulate the effects of their redeemption at the current block, given current on-chain conditions. - MUST return as close to and no more than the exact amount of assets that would be withdrawn in a redeem call   in the same transaction. I.e. redeem should return the same or more assets as previewRedeem if called in the   same transaction. - MUST NOT account for redemption limits like those returned from maxRedeem and should always act as though the   redemption would be accepted, regardless if the user has enough shares, etc. - MUST be inclusive of withdrawal fees. Integrators should be aware of the existence of withdrawal fees. - MUST NOT revert. NOTE: any unfavorable discrepancy between convertToAssets and previewRedeem SHOULD be considered slippage in share price or some other type of condition, meaning the depositor will lose assets by redeeming."
      },
      "previewWithdraw(uint256)": {
        "details": "Allows an on-chain or off-chain user to simulate the effects of their withdrawal at the current block, given current on-chain conditions. - MUST return as close to and no fewer than the exact amount of Vault shares that would be burned in a withdraw   call in the same transaction. I.e. withdraw should return the same or fewer shares as previewWithdraw if   called   in the same transaction. - MUST NOT account for withdrawal limits like those returned from maxWithdraw and should always act as though   the withdrawal would be accepted, regardless if the user has enough shares, etc. - MUST be inclusive of withdrawal fees. Integrators should be aware of the existence of withdrawal fees. - MUST NOT revert. NOTE: any unfavorable discrepancy between convertToShares and previewWithdraw SHOULD be considered slippage in share price or some other type of condition, meaning the depositor will lose assets by depositing."
      },
      "symbol()": {
        "details": "Returns the symbol of the token, usually a shorter version of the name."
      },
      "totalAssets()": {
        "details": "Returns the total amount of the underlying asset that is managed by Vault. - SHOULD include any compounding that occurs from yield. - MUST be inclusive of any fees that are charged against assets in the Vault. - MUST NOT revert."
      },
      "totalSupply()": {
        "details": "See {IERC20-totalSupply}."
      },
      "transfer(address,uint256)": {
        "details": "See {IERC20-transfer}. Requirements: - `to` cannot be the zero address. - the caller must have a balance of at least `amount`."
      },
      "transferFrom(address,address,uint256)": {
        "details": "See {IERC20-transferFrom}. Emits an {Approval} event indicating the updated allowance. This is not required by the EIP. See the note at the beginning of {ERC20}. NOTE: Does not update the allowance if the current allowance is the maximum `uint256`. Requirements: - `from` and `to` cannot be the zero address. - `from` must have a balance of at least `amount`. - the caller must have allowance for ``from``'s tokens of at least `amount`."
      }
    },
    "version": 1
  },
  "userdoc": {
    "kind": "user",
    "methods": {},
    "version": 1
  },
  "storageLayout": {
    "storage": [
      {
        "astId": 3388,
        "contract": "contracts/voyage/tokenization/SeniorDepositToken.sol:SeniorDepositToken",
        "label": "_initialized",
        "offset": 0,
        "slot": "0",
        "type": "t_uint8"
      },
      {
        "astId": 3391,
        "contract": "contracts/voyage/tokenization/SeniorDepositToken.sol:SeniorDepositToken",
        "label": "_initializing",
        "offset": 1,
        "slot": "0",
        "type": "t_bool"
      },
      {
        "astId": 4757,
        "contract": "contracts/voyage/tokenization/SeniorDepositToken.sol:SeniorDepositToken",
        "label": "__gap",
        "offset": 0,
        "slot": "1",
        "type": "t_array(t_uint256)50_storage"
      },
      {
        "astId": 3551,
        "contract": "contracts/voyage/tokenization/SeniorDepositToken.sol:SeniorDepositToken",
        "label": "_balances",
        "offset": 0,
        "slot": "51",
        "type": "t_mapping(t_address,t_uint256)"
      },
      {
        "astId": 3557,
        "contract": "contracts/voyage/tokenization/SeniorDepositToken.sol:SeniorDepositToken",
        "label": "_allowances",
        "offset": 0,
        "slot": "52",
        "type": "t_mapping(t_address,t_mapping(t_address,t_uint256))"
      },
      {
        "astId": 3559,
        "contract": "contracts/voyage/tokenization/SeniorDepositToken.sol:SeniorDepositToken",
        "label": "_totalSupply",
        "offset": 0,
        "slot": "53",
        "type": "t_uint256"
      },
      {
        "astId": 3561,
        "contract": "contracts/voyage/tokenization/SeniorDepositToken.sol:SeniorDepositToken",
        "label": "_name",
        "offset": 0,
        "slot": "54",
        "type": "t_string_storage"
      },
      {
        "astId": 3563,
        "contract": "contracts/voyage/tokenization/SeniorDepositToken.sol:SeniorDepositToken",
        "label": "_symbol",
        "offset": 0,
        "slot": "55",
        "type": "t_string_storage"
      },
      {
        "astId": 4142,
        "contract": "contracts/voyage/tokenization/SeniorDepositToken.sol:SeniorDepositToken",
        "label": "__gap",
        "offset": 0,
        "slot": "56",
        "type": "t_array(t_uint256)45_storage"
      },
      {
        "astId": 5474,
        "contract": "contracts/voyage/tokenization/SeniorDepositToken.sol:SeniorDepositToken",
        "label": "_HASHED_NAME",
        "offset": 0,
        "slot": "101",
        "type": "t_bytes32"
      },
      {
        "astId": 5476,
        "contract": "contracts/voyage/tokenization/SeniorDepositToken.sol:SeniorDepositToken",
        "label": "_HASHED_VERSION",
        "offset": 0,
        "slot": "102",
        "type": "t_bytes32"
      },
      {
        "astId": 5614,
        "contract": "contracts/voyage/tokenization/SeniorDepositToken.sol:SeniorDepositToken",
        "label": "__gap",
        "offset": 0,
        "slot": "103",
        "type": "t_array(t_uint256)50_storage"
      },
      {
        "astId": 4272,
        "contract": "contracts/voyage/tokenization/SeniorDepositToken.sol:SeniorDepositToken",
        "label": "_nonces",
        "offset": 0,
        "slot": "153",
        "type": "t_mapping(t_address,t_struct(Counter)4764_storage)"
      },
      {
        "astId": 4280,
        "contract": "contracts/voyage/tokenization/SeniorDepositToken.sol:SeniorDepositToken",
        "label": "_PERMIT_TYPEHASH_DEPRECATED_SLOT",
        "offset": 0,
        "slot": "154",
        "type": "t_bytes32"
      },
      {
        "astId": 4436,
        "contract": "contracts/voyage/tokenization/SeniorDepositToken.sol:SeniorDepositToken",
        "label": "__gap",
        "offset": 0,
        "slot": "155",
        "type": "t_array(t_uint256)49_storage"
      },
      {
        "astId": 14565,
        "contract": "contracts/voyage/tokenization/SeniorDepositToken.sol:SeniorDepositToken",
        "label": "asset",
        "offset": 0,
        "slot": "204",
        "type": "t_contract(IERC20Metadata)7110"
      },
      {
        "astId": 29370,
        "contract": "contracts/voyage/tokenization/SeniorDepositToken.sol:SeniorDepositToken",
        "label": "voyage",
        "offset": 0,
        "slot": "205",
        "type": "t_address"
      },
      {
        "astId": 29372,
        "contract": "contracts/voyage/tokenization/SeniorDepositToken.sol:SeniorDepositToken",
        "label": "collection",
        "offset": 0,
        "slot": "206",
        "type": "t_address"
      },
      {
        "astId": 28834,
        "contract": "contracts/voyage/tokenization/SeniorDepositToken.sol:SeniorDepositToken",
        "label": "unbondings",
        "offset": 0,
        "slot": "207",
        "type": "t_mapping(t_address,t_struct(Unbonding)28813_storage)"
      },
      {
        "astId": 28836,
        "contract": "contracts/voyage/tokenization/SeniorDepositToken.sol:SeniorDepositToken",
        "label": "totalMaxUnderlying",
        "offset": 0,
        "slot": "208",
        "type": "t_uint256"
      },
      {
        "astId": 28838,
        "contract": "contracts/voyage/tokenization/SeniorDepositToken.sol:SeniorDepositToken",
        "label": "totalUnbonding",
        "offset": 0,
        "slot": "209",
        "type": "t_uint256"
      }
    ],
    "types": {
      "t_address": {
        "encoding": "inplace",
        "label": "address",
        "numberOfBytes": "20"
      },
      "t_array(t_uint256)45_storage": {
        "base": "t_uint256",
        "encoding": "inplace",
        "label": "uint256[45]",
        "numberOfBytes": "1440"
      },
      "t_array(t_uint256)49_storage": {
        "base": "t_uint256",
        "encoding": "inplace",
        "label": "uint256[49]",
        "numberOfBytes": "1568"
      },
      "t_array(t_uint256)50_storage": {
        "base": "t_uint256",
        "encoding": "inplace",
        "label": "uint256[50]",
        "numberOfBytes": "1600"
      },
      "t_bool": {
        "encoding": "inplace",
        "label": "bool",
        "numberOfBytes": "1"
      },
      "t_bytes32": {
        "encoding": "inplace",
        "label": "bytes32",
        "numberOfBytes": "32"
      },
      "t_contract(IERC20Metadata)7110": {
        "encoding": "inplace",
        "label": "contract IERC20Metadata",
        "numberOfBytes": "20"
      },
      "t_mapping(t_address,t_mapping(t_address,t_uint256))": {
        "encoding": "mapping",
        "key": "t_address",
        "label": "mapping(address => mapping(address => uint256))",
        "numberOfBytes": "32",
        "value": "t_mapping(t_address,t_uint256)"
      },
      "t_mapping(t_address,t_struct(Counter)4764_storage)": {
        "encoding": "mapping",
        "key": "t_address",
        "label": "mapping(address => struct CountersUpgradeable.Counter)",
        "numberOfBytes": "32",
        "value": "t_struct(Counter)4764_storage"
      },
      "t_mapping(t_address,t_struct(Unbonding)28813_storage)": {
        "encoding": "mapping",
        "key": "t_address",
        "label": "mapping(address => struct Unbonding)",
        "numberOfBytes": "32",
        "value": "t_struct(Unbonding)28813_storage"
      },
      "t_mapping(t_address,t_uint256)": {
        "encoding": "mapping",
        "key": "t_address",
        "label": "mapping(address => uint256)",
        "numberOfBytes": "32",
        "value": "t_uint256"
      },
      "t_string_storage": {
        "encoding": "bytes",
        "label": "string",
        "numberOfBytes": "32"
      },
      "t_struct(Counter)4764_storage": {
        "encoding": "inplace",
        "label": "struct CountersUpgradeable.Counter",
        "members": [
          {
            "astId": 4763,
            "contract": "contracts/voyage/tokenization/SeniorDepositToken.sol:SeniorDepositToken",
            "label": "_value",
            "offset": 0,
            "slot": "0",
            "type": "t_uint256"
          }
        ],
        "numberOfBytes": "32"
      },
      "t_struct(Unbonding)28813_storage": {
        "encoding": "inplace",
        "label": "struct Unbonding",
        "members": [
          {
            "astId": 28810,
            "contract": "contracts/voyage/tokenization/SeniorDepositToken.sol:SeniorDepositToken",
            "label": "shares",
            "offset": 0,
            "slot": "0",
            "type": "t_uint256"
          },
          {
            "astId": 28812,
            "contract": "contracts/voyage/tokenization/SeniorDepositToken.sol:SeniorDepositToken",
            "label": "maxUnderlying",
            "offset": 0,
            "slot": "1",
            "type": "t_uint256"
          }
        ],
        "numberOfBytes": "64"
      },
      "t_uint256": {
        "encoding": "inplace",
        "label": "uint256",
        "numberOfBytes": "32"
      },
      "t_uint8": {
        "encoding": "inplace",
        "label": "uint8",
        "numberOfBytes": "1"
      }
    }
  }
}