{
  "address": "0x1440CE3C633c16a52576C1756F0e1836955C40c2",
  "abi": [
    {
      "anonymous": false,
      "inputs": [
        {
          "indexed": false,
          "internalType": "uint8",
          "name": "version",
          "type": "uint8"
        }
      ],
      "name": "Initialized",
      "type": "event"
    },
    {
      "stateMutability": "payable",
      "type": "fallback"
    },
    {
      "inputs": [
        {
          "internalType": "address",
          "name": "_owner",
          "type": "address"
        },
        {
          "internalType": "address",
          "name": "_user",
          "type": "address"
        },
        {
          "internalType": "address",
          "name": "_cutFacet",
          "type": "address"
        },
        {
          "internalType": "address",
          "name": "_loupeFacet",
          "type": "address"
        },
        {
          "internalType": "address",
          "name": "_ownershipFacet",
          "type": "address"
        }
      ],
      "name": "initialize",
      "outputs": [],
      "stateMutability": "nonpayable",
      "type": "function"
    },
    {
      "stateMutability": "payable",
      "type": "receive"
    }
  ],
  "transactionHash": "0xe6182e381b4e10877475198b834339cd6fbaf55382e5411de7423d0bfa201188",
  "args": [],
  "numDeployments": 1,
  "solcInputHash": "4180ddb8e614c64b6dfc0be35a4f8476",
  "bytecode": "0x608060405234801561001057600080fd5b50611c5e806100206000396000f3fe6080604052600436106100225760003560e01c80631459457a146100e857610029565b3661002957005b600080356001600160e01b03191681527fc8fcad8db84d3cc18b4c41d551ea0ee66dd599cde068d998e57d5e09332c131c6020819052604082205490919082906001600160a01b0316806100c45760405162461bcd60e51b815260206004820181905260248201527f4469616d6f6e643a2046756e6374696f6e20646f6573206e6f7420657869737460448201526064015b60405180910390fd5b3660008037600080366000845af43d6000803e8080156100e3573d6000f35b3d6000fd5b3480156100f457600080fd5b50610108610103366004611902565b61010a565b005b60006101166001610203565b9050801561012e576000805461ff0019166101001790555b7f20a1bbd436ea3d5bb1756c86146dcee04d46412638db373c7e59056893df300b80546001600160a01b0380891673ffffffffffffffffffffffffffffffffffffffff19928316179092557f20a1bbd436ea3d5bb1756c86146dcee04d46412638db373c7e59056893df300c8054928816929091169190911790556101b58685858561035a565b80156101fb576000805461ff0019169055604051600181527f7f26b83ff96e1f2b6a682f133852f6798a09c465da95921460cefb38474024989060200160405180910390a15b505050505050565b60008054610100900460ff16156102a0578160ff1660011480156102265750303b155b6102985760405162461bcd60e51b815260206004820152602e60248201527f496e697469616c697a61626c653a20636f6e747261637420697320616c72656160448201527f647920696e697469616c697a656400000000000000000000000000000000000060648201526084016100bb565b506000919050565b60005460ff80841691161061031d5760405162461bcd60e51b815260206004820152602e60248201527f496e697469616c697a61626c653a20636f6e747261637420697320616c72656160448201527f647920696e697469616c697a656400000000000000000000000000000000000060648201526084016100bb565b50600080547fffffffffffffffffffffffffffffffffffffffffffffffffffffffffffffff001660ff92909216919091179055600190565b919050565b61036384610374565b61036e838383610416565b50505050565b7fc8fcad8db84d3cc18b4c41d551ea0ee66dd599cde068d998e57d5e09332c1320805473ffffffffffffffffffffffffffffffffffffffff1981166001600160a01b038481169182179093556040517fc8fcad8db84d3cc18b4c41d551ea0ee66dd599cde068d998e57d5e09332c131c939092169182907f8be0079c531659141344cd1fd0a4f28419497f9722a3daafe3b4186f6b6457e090600090a3505050565b60408051600380825260808201909252600091816020015b6040805160608082018352600080835260208301529181019190915281526020019060019003908161042e5750506040805160018082528183019092529192506000919060208083019080368337019050509050631f931c1c60e01b8160008151811061049d5761049d611967565b6001600160e01b031990921660209283029190910182015260408051606081019091526001600160a01b03871681529081016000815260200182815250826000815181106104ed576104ed611967565b602090810291909101015260408051600580825260c0820190925290816020016020820280368337019050509050637a0ed62760e01b8160008151811061053657610536611967565b6001600160e01b03199092166020928302919091019091015280517fadfca15e00000000000000000000000000000000000000000000000000000000908290600190811061058657610586611967565b6001600160e01b03199092166020928302919091019091015280517f52ef6b2c0000000000000000000000000000000000000000000000000000000090829060029081106105d6576105d6611967565b6001600160e01b03199092166020928302919091019091015280517fcdffacc600000000000000000000000000000000000000000000000000000000908290600390811061062657610626611967565b6001600160e01b03199092166020928302919091019091015280517f01ffc9a700000000000000000000000000000000000000000000000000000000908290600490811061067657610676611967565b6001600160e01b031990921660209283029190910182015260408051606081019091526001600160a01b03861681529081016000815260200182815250826001815181106106c6576106c6611967565b6020908102919091010152604080516002808252606082019092529081602001602082028036833701905050905063f2fde38b60e01b8160008151811061070f5761070f611967565b6001600160e01b03199092166020928302919091019091015280517f8da5cb5b00000000000000000000000000000000000000000000000000000000908290600190811061075f5761075f611967565b6001600160e01b031990921660209283029190910182015260408051606081019091526001600160a01b03851681529081016000815260200182815250826002815181106107af576107af611967565b60200260200101819052506107d5826000604051806020016040528060008152506107dc565b5050505050565b60005b83518110156109bb5760008482815181106107fc576107fc611967565b60200260200101516020015190506000600281111561081d5761081d61197d565b81600281111561082f5761082f61197d565b141561087e5761087985838151811061084a5761084a611967565b60200260200101516000015186848151811061086857610868611967565b602002602001015160400151610a06565b6109a8565b60018160028111156108925761089261197d565b14156108dc576108798583815181106108ad576108ad611967565b6020026020010151600001518684815181106108cb576108cb611967565b602002602001015160400151610d4f565b60028160028111156108f0576108f061197d565b141561093a5761087985838151811061090b5761090b611967565b60200260200101516000015186848151811061092957610929611967565b6020026020010151604001516110c9565b60405162461bcd60e51b815260206004820152602760248201527f4c69624469616d6f6e644375743a20496e636f7272656374204661636574437560448201527f74416374696f6e0000000000000000000000000000000000000000000000000060648201526084016100bb565b50806109b3816119a9565b9150506107df565b507f8faa70878671ccd212d20771b795c50af8fd3ff6cf27f4bde57e5d4de0aeb6738383836040516109ef93929190611a3a565b60405180910390a1610a01828261124f565b505050565b6000815111610a7d5760405162461bcd60e51b815260206004820152602b60248201527f4c69624469616d6f6e644375743a204e6f2073656c6563746f727320696e206660448201527f6163657420746f2063757400000000000000000000000000000000000000000060648201526084016100bb565b7fc8fcad8db84d3cc18b4c41d551ea0ee66dd599cde068d998e57d5e09332c131c6001600160a01b038316610b1a5760405162461bcd60e51b815260206004820152602c60248201527f4c69624469616d6f6e644375743a204164642066616365742063616e2774206260448201527f652061646472657373283029000000000000000000000000000000000000000060648201526084016100bb565b6001600160a01b038316600090815260018201602052604090205461ffff8116610bc957610b6084604051806060016040528060248152602001611c0560249139611473565b6002820180546001600160a01b038616600081815260018087016020908152604083208201805461ffff191661ffff909616959095179094558454908101855593815291909120909101805473ffffffffffffffffffffffffffffffffffffffff191690911790555b60005b83518110156107d5576000848281518110610be957610be9611967565b6020908102919091018101516001600160e01b031981166000908152918690526040909120549091506001600160a01b03168015610c8f5760405162461bcd60e51b815260206004820152603560248201527f4c69624469616d6f6e644375743a2043616e2774206164642066756e6374696f60448201527f6e207468617420616c726561647920657869737473000000000000000000000060648201526084016100bb565b6001600160a01b03871660008181526001878101602090815260408084208054938401815584528184206008840401805463ffffffff60079095166004026101000a948502191660e089901c94909402939093179092556001600160e01b031986168352889052902080547fffffffffffffffffffff0000000000000000000000000000000000000000000016909117600160a01b61ffff87160217905583610d3781611b57565b94505050508080610d47906119a9565b915050610bcc565b6000815111610dc65760405162461bcd60e51b815260206004820152602b60248201527f4c69624469616d6f6e644375743a204e6f2073656c6563746f727320696e206660448201527f6163657420746f2063757400000000000000000000000000000000000000000060648201526084016100bb565b7fc8fcad8db84d3cc18b4c41d551ea0ee66dd599cde068d998e57d5e09332c131c6001600160a01b038316610e635760405162461bcd60e51b815260206004820152602c60248201527f4c69624469616d6f6e644375743a204164642066616365742063616e2774206260448201527f652061646472657373283029000000000000000000000000000000000000000060648201526084016100bb565b6001600160a01b038316600090815260018201602052604090205461ffff8116610f1257610ea984604051806060016040528060248152602001611c0560249139611473565b6002820180546001600160a01b038616600081815260018087016020908152604083208201805461ffff191661ffff909616959095179094558454908101855593815291909120909101805473ffffffffffffffffffffffffffffffffffffffff191690911790555b60005b83518110156107d5576000848281518110610f3257610f32611967565b6020908102919091018101516001600160e01b031981166000908152918690526040909120549091506001600160a01b03908116908716811415610fde5760405162461bcd60e51b815260206004820152603860248201527f4c69624469616d6f6e644375743a2043616e2774207265706c6163652066756e60448201527f6374696f6e20776974682073616d652066756e6374696f6e000000000000000060648201526084016100bb565b610fe88183611494565b6001600160e01b0319821660008181526020878152604080832080547fffffffffffffffffffff0000ffffffffffffffffffffffffffffffffffffffff16600160a01b61ffff8b16021781556001600160a01b038c168085526001808c0185529285208054938401815585528385206008840401805463ffffffff60079095166004026101000a948502191660e08a901c949094029390931790925593909252879052815473ffffffffffffffffffffffffffffffffffffffff1916179055836110b181611b57565b945050505080806110c1906119a9565b915050610f15565b60008151116111405760405162461bcd60e51b815260206004820152602b60248201527f4c69624469616d6f6e644375743a204e6f2073656c6563746f727320696e206660448201527f6163657420746f2063757400000000000000000000000000000000000000000060648201526084016100bb565b7fc8fcad8db84d3cc18b4c41d551ea0ee66dd599cde068d998e57d5e09332c131c6001600160a01b038316156111de5760405162461bcd60e51b815260206004820152603660248201527f4c69624469616d6f6e644375743a2052656d6f7665206661636574206164647260448201527f657373206d75737420626520616464726573732830290000000000000000000060648201526084016100bb565b60005b825181101561036e5760008382815181106111fe576111fe611967565b6020908102919091018101516001600160e01b031981166000908152918590526040909120549091506001600160a01b031661123a8183611494565b50508080611247906119a9565b9150506111e1565b6001600160a01b0382166112d6578051156112d25760405162461bcd60e51b815260206004820152603c60248201527f4c69624469616d6f6e644375743a205f696e697420697320616464726573732860448201527f3029206275745f63616c6c64617461206973206e6f7420656d7074790000000060648201526084016100bb565b5050565b600081511161134d5760405162461bcd60e51b815260206004820152603d60248201527f4c69624469616d6f6e644375743a205f63616c6c6461746120697320656d707460448201527f7920627574205f696e6974206973206e6f74206164647265737328302900000060648201526084016100bb565b6001600160a01b038216301461137f5761137f82604051806060016040528060288152602001611bdd60289139611473565b600080836001600160a01b03168360405161139a9190611b79565b600060405180830381855af49150503d80600081146113d5576040519150601f19603f3d011682016040523d82523d6000602084013e6113da565b606091505b50915091508161036e57805115611405578060405162461bcd60e51b81526004016100bb9190611b95565b60405162461bcd60e51b815260206004820152602660248201527f4c69624469616d6f6e644375743a205f696e69742066756e6374696f6e20726560448201527f766572746564000000000000000000000000000000000000000000000000000060648201526084016100bb565b813b818161036e5760405162461bcd60e51b81526004016100bb9190611b95565b7fc8fcad8db84d3cc18b4c41d551ea0ee66dd599cde068d998e57d5e09332c131c6001600160a01b0383166115315760405162461bcd60e51b815260206004820152603760248201527f4c69624469616d6f6e644375743a2043616e27742072656d6f76652066756e6360448201527f74696f6e207468617420646f65736e277420657869737400000000000000000060648201526084016100bb565b6001600160a01b0383163014156115b05760405162461bcd60e51b815260206004820152602e60248201527f4c69624469616d6f6e644375743a2043616e27742072656d6f766520696d6d7560448201527f7461626c652066756e6374696f6e00000000000000000000000000000000000060648201526084016100bb565b6001600160e01b03198216600090815260208281526040808320546001600160a01b0387168452600180860190935290832054600160a01b90910461ffff1692916115fa91611baf565b9050808214611700576001600160a01b0385166000908152600184016020526040812080548390811061162f5761162f611967565b600091825260208083206008830401546001600160a01b038a168452600188019091526040909220805460079092166004026101000a90920460e01b92508291908590811061168057611680611967565b600091825260208083206008830401805463ffffffff60079094166004026101000a938402191660e09590951c929092029390931790556001600160e01b03199290921682528490526040902080547fffffffffffffffffffff0000ffffffffffffffffffffffffffffffffffffffff16600160a01b61ffff8516021790555b6001600160a01b0385166000908152600184016020526040902080548061172957611729611bc6565b60008281526020808220600860001990940193840401805463ffffffff600460078716026101000a0219169055919092556001600160e01b0319861682528490526040902080547fffffffffffffffffffff00000000000000000000000000000000000000000000169055806107d55760028301546000906117ad90600190611baf565b6001600160a01b038716600090815260018087016020526040909120015490915061ffff168082146118795760008560020183815481106117f0576117f0611967565b6000918252602090912001546002870180546001600160a01b03909216925082918490811061182157611821611967565b6000918252602080832091909101805473ffffffffffffffffffffffffffffffffffffffff19166001600160a01b0394851617905592909116815260018781019092526040902001805461ffff191661ffff83161790555b8460020180548061188c5761188c611bc6565b600082815260208082208301600019908101805473ffffffffffffffffffffffffffffffffffffffff191690559092019092556001600160a01b03891682526001878101909152604090912001805461ffff1916905550505050505050565b80356001600160a01b038116811461035557600080fd5b600080600080600060a0868803121561191a57600080fd5b611923866118eb565b9450611931602087016118eb565b935061193f604087016118eb565b925061194d606087016118eb565b915061195b608087016118eb565b90509295509295909350565b634e487b7160e01b600052603260045260246000fd5b634e487b7160e01b600052602160045260246000fd5b634e487b7160e01b600052601160045260246000fd5b60006000198214156119bd576119bd611993565b5060010190565b60005b838110156119df5781810151838201526020016119c7565b8381111561036e5750506000910152565b60008151808452611a088160208601602086016119c4565b601f017fffffffffffffffffffffffffffffffffffffffffffffffffffffffffffffffe0169290920160200192915050565b60006060808301818452808751808352608092508286019150828160051b8701016020808b0160005b84811015611b27577fffffffffffffffffffffffffffffffffffffffffffffffffffffffffffffff808a850301865281518885016001600160a01b0382511686528482015160038110611ac657634e487b7160e01b600052602160045260246000fd5b868601526040918201519186018a905281519081905290840190600090898701905b80831015611b125783516001600160e01b0319168252928601926001929092019190860190611ae8565b50978501979550505090820190600101611a63565b50506001600160a01b038a16908801528681036040880152611b4981896119f0565b9a9950505050505050505050565b600061ffff80831681811415611b6f57611b6f611993565b6001019392505050565b60008251611b8b8184602087016119c4565b9190910192915050565b602081526000611ba860208301846119f0565b9392505050565b600082821015611bc157611bc1611993565b500390565b634e487b7160e01b600052603160045260246000fdfe4c69624469616d6f6e644375743a205f696e6974206164647265737320686173206e6f20636f64654c69624469616d6f6e644375743a204e657720666163657420686173206e6f20636f6465a2646970667358221220f6b84574a15e689195ebf993b3b97a8d9ee5392132eefcbbe227e3d9edfbf1e364736f6c63430008090033",
  "devdoc": {
    "kind": "dev",
    "methods": {},
    "version": 1
  },
  "userdoc": {
    "kind": "user",
    "methods": {},
    "version": 1
  },
  "storageLayout": {
    "storage": [
      {
        "astId": 6,
        "contract": "contracts/vault/Vault.sol:Vault",
        "label": "_initialized",
        "offset": 0,
        "slot": "0",
        "type": "t_uint8"
      },
      {
        "astId": 9,
        "contract": "contracts/vault/Vault.sol:Vault",
        "label": "_initializing",
        "offset": 1,
        "slot": "0",
        "type": "t_bool"
      }
    ],
    "types": {
      "t_bool": {
        "encoding": "inplace",
        "label": "bool",
        "numberOfBytes": "1"
      },
      "t_uint8": {
        "encoding": "inplace",
        "label": "uint8",
        "numberOfBytes": "1"
      }
    }
  }
}